{
	"contracts/ReqdWriteBlock.sol": {
		"ReadWriteBlock": {
			"abi": [
				{
					"inputs": [],
					"name": "A",
					"outputs": [
						{
							"internalType": "uint256",
							"name": "",
							"type": "uint256"
						}
					],
					"stateMutability": "view",
					"type": "function"
				},
				{
					"inputs": [],
					"name": "getBlockHash",
					"outputs": [
						{
							"internalType": "bytes32",
							"name": "",
							"type": "bytes32"
						}
					],
					"stateMutability": "view",
					"type": "function"
				},
				{
					"inputs": [],
					"name": "getBlockNumber",
					"outputs": [
						{
							"internalType": "uint256",
							"name": "",
							"type": "uint256"
						}
					],
					"stateMutability": "view",
					"type": "function"
				},
				{
					"inputs": [],
					"name": "getBlockTimestamp",
					"outputs": [
						{
							"internalType": "uint256",
							"name": "",
							"type": "uint256"
						}
					],
					"stateMutability": "view",
					"type": "function"
				},
				{
					"inputs": [
						{
							"internalType": "uint256",
							"name": "value",
							"type": "uint256"
						}
					],
					"name": "setA",
					"outputs": [],
					"stateMutability": "nonpayable",
					"type": "function"
				}
			],
			"devdoc": {
				"kind": "dev",
				"methods": {},
				"version": 1
			},
			"evm": {
				"assembly": "    /* \"contracts/ReqdWriteBlock.sol\":65:500  contract ReadWriteBlock {... */\n  mstore(0x40, 0x80)\n  callvalue\n  dup1\n  iszero\n  tag_1\n  jumpi\n  0x00\n  dup1\n  revert\ntag_1:\n  pop\n  dataSize(sub_0)\n  dup1\n  dataOffset(sub_0)\n  0x00\n  codecopy\n  0x00\n  return\nstop\n\nsub_0: assembly {\n        /* \"contracts/ReqdWriteBlock.sol\":65:500  contract ReadWriteBlock {... */\n      mstore(0x40, 0x80)\n      callvalue\n      dup1\n      iszero\n      tag_1\n      jumpi\n      0x00\n      dup1\n      revert\n    tag_1:\n      pop\n      jumpi(tag_2, lt(calldatasize, 0x04))\n      shr(0xe0, calldataload(0x00))\n      dup1\n      0x42cbb15c\n      eq\n      tag_3\n      jumpi\n      dup1\n      0x796b89b9\n      eq\n      tag_4\n      jumpi\n      dup1\n      0x9663f88f\n      eq\n      tag_5\n      jumpi\n      dup1\n      0xee919d50\n      eq\n      tag_6\n      jumpi\n      dup1\n      0xf446c1d0\n      eq\n      tag_7\n      jumpi\n    tag_2:\n      0x00\n      dup1\n      revert\n        /* \"contracts/ReqdWriteBlock.sol\":225:319  function getBlockNumber() external view returns (uint256) {... */\n    tag_3:\n      tag_8\n      tag_9\n      jump\t// in\n    tag_8:\n      mload(0x40)\n      tag_10\n      swap2\n      swap1\n      tag_11\n      jump\t// in\n    tag_10:\n      mload(0x40)\n      dup1\n      swap2\n      sub\n      swap1\n      return\n        /* \"contracts/ReqdWriteBlock.sol\":119:219  function getBlockTimestamp() external view returns (uint256) {... */\n    tag_4:\n      tag_12\n      tag_13\n      jump\t// in\n    tag_12:\n      mload(0x40)\n      tag_14\n      swap2\n      swap1\n      tag_11\n      jump\t// in\n    tag_14:\n      mload(0x40)\n      dup1\n      swap2\n      sub\n      swap1\n      return\n        /* \"contracts/ReqdWriteBlock.sol\":325:428  function getBlockHash() external view returns (bytes32) {... */\n    tag_5:\n      tag_15\n      tag_16\n      jump\t// in\n    tag_15:\n      mload(0x40)\n      tag_17\n      swap2\n      swap1\n      tag_18\n      jump\t// in\n    tag_17:\n      mload(0x40)\n      dup1\n      swap2\n      sub\n      swap1\n      return\n        /* \"contracts/ReqdWriteBlock.sol\":434:498  function setA(uint256 value) external {... */\n    tag_6:\n      tag_19\n      0x04\n      dup1\n      calldatasize\n      sub\n      dup2\n      add\n      swap1\n      tag_20\n      swap2\n      swap1\n      tag_21\n      jump\t// in\n    tag_20:\n      tag_22\n      jump\t// in\n    tag_19:\n      stop\n        /* \"contracts/ReqdWriteBlock.sol\":96:112  uint256 public A */\n    tag_7:\n      tag_23\n      tag_24\n      jump\t// in\n    tag_23:\n      mload(0x40)\n      tag_25\n      swap2\n      swap1\n      tag_11\n      jump\t// in\n    tag_25:\n      mload(0x40)\n      dup1\n      swap2\n      sub\n      swap1\n      return\n        /* \"contracts/ReqdWriteBlock.sol\":225:319  function getBlockNumber() external view returns (uint256) {... */\n    tag_9:\n        /* \"contracts/ReqdWriteBlock.sol\":274:281  uint256 */\n      0x00\n        /* \"contracts/ReqdWriteBlock.sol\":300:312  block.number */\n      number\n        /* \"contracts/ReqdWriteBlock.sol\":293:312  return block.number */\n      swap1\n      pop\n        /* \"contracts/ReqdWriteBlock.sol\":225:319  function getBlockNumber() external view returns (uint256) {... */\n      swap1\n      jump\t// out\n        /* \"contracts/ReqdWriteBlock.sol\":119:219  function getBlockTimestamp() external view returns (uint256) {... */\n    tag_13:\n        /* \"contracts/ReqdWriteBlock.sol\":171:178  uint256 */\n      0x00\n        /* \"contracts/ReqdWriteBlock.sol\":197:212  block.timestamp */\n      timestamp\n        /* \"contracts/ReqdWriteBlock.sol\":190:212  return block.timestamp */\n      swap1\n      pop\n        /* \"contracts/ReqdWriteBlock.sol\":119:219  function getBlockTimestamp() external view returns (uint256) {... */\n      swap1\n      jump\t// out\n        /* \"contracts/ReqdWriteBlock.sol\":325:428  function getBlockHash() external view returns (bytes32) {... */\n    tag_16:\n        /* \"contracts/ReqdWriteBlock.sol\":372:379  bytes32 */\n      0x00\n        /* \"contracts/ReqdWriteBlock.sol\":408:420  block.number */\n      number\n        /* \"contracts/ReqdWriteBlock.sol\":398:421  blockhash(block.number) */\n      blockhash\n        /* \"contracts/ReqdWriteBlock.sol\":391:421  return blockhash(block.number) */\n      swap1\n      pop\n        /* \"contracts/ReqdWriteBlock.sol\":325:428  function getBlockHash() external view returns (bytes32) {... */\n      swap1\n      jump\t// out\n        /* \"contracts/ReqdWriteBlock.sol\":434:498  function setA(uint256 value) external {... */\n    tag_22:\n        /* \"contracts/ReqdWriteBlock.sol\":486:491  value */\n      dup1\n        /* \"contracts/ReqdWriteBlock.sol\":482:483  A */\n      0x00\n        /* \"contracts/ReqdWriteBlock.sol\":482:491  A = value */\n      dup2\n      swap1\n      sstore\n      pop\n        /* \"contracts/ReqdWriteBlock.sol\":434:498  function setA(uint256 value) external {... */\n      pop\n      jump\t// out\n        /* \"contracts/ReqdWriteBlock.sol\":96:112  uint256 public A */\n    tag_24:\n      sload(0x00)\n      dup2\n      jump\t// out\n        /* \"#utility.yul\":7:84   */\n    tag_30:\n        /* \"#utility.yul\":44:51   */\n      0x00\n        /* \"#utility.yul\":73:78   */\n      dup2\n        /* \"#utility.yul\":62:78   */\n      swap1\n      pop\n        /* \"#utility.yul\":7:84   */\n      swap2\n      swap1\n      pop\n      jump\t// out\n        /* \"#utility.yul\":90:208   */\n    tag_31:\n        /* \"#utility.yul\":177:201   */\n      tag_42\n        /* \"#utility.yul\":195:200   */\n      dup2\n        /* \"#utility.yul\":177:201   */\n      tag_30\n      jump\t// in\n    tag_42:\n        /* \"#utility.yul\":172:175   */\n      dup3\n        /* \"#utility.yul\":165:202   */\n      mstore\n        /* \"#utility.yul\":90:208   */\n      pop\n      pop\n      jump\t// out\n        /* \"#utility.yul\":214:436   */\n    tag_11:\n        /* \"#utility.yul\":307:311   */\n      0x00\n        /* \"#utility.yul\":345:347   */\n      0x20\n        /* \"#utility.yul\":334:343   */\n      dup3\n        /* \"#utility.yul\":330:348   */\n      add\n        /* \"#utility.yul\":322:348   */\n      swap1\n      pop\n        /* \"#utility.yul\":358:429   */\n      tag_44\n        /* \"#utility.yul\":426:427   */\n      0x00\n        /* \"#utility.yul\":415:424   */\n      dup4\n        /* \"#utility.yul\":411:428   */\n      add\n        /* \"#utility.yul\":402:408   */\n      dup5\n        /* \"#utility.yul\":358:429   */\n      tag_31\n      jump\t// in\n    tag_44:\n        /* \"#utility.yul\":214:436   */\n      swap3\n      swap2\n      pop\n      pop\n      jump\t// out\n        /* \"#utility.yul\":442:519   */\n    tag_32:\n        /* \"#utility.yul\":479:486   */\n      0x00\n        /* \"#utility.yul\":508:513   */\n      dup2\n        /* \"#utility.yul\":497:513   */\n      swap1\n      pop\n        /* \"#utility.yul\":442:519   */\n      swap2\n      swap1\n      pop\n      jump\t// out\n        /* \"#utility.yul\":525:643   */\n    tag_33:\n        /* \"#utility.yul\":612:636   */\n      tag_47\n        /* \"#utility.yul\":630:635   */\n      dup2\n        /* \"#utility.yul\":612:636   */\n      tag_32\n      jump\t// in\n    tag_47:\n        /* \"#utility.yul\":607:610   */\n      dup3\n        /* \"#utility.yul\":600:637   */\n      mstore\n        /* \"#utility.yul\":525:643   */\n      pop\n      pop\n      jump\t// out\n        /* \"#utility.yul\":649:871   */\n    tag_18:\n        /* \"#utility.yul\":742:746   */\n      0x00\n        /* \"#utility.yul\":780:782   */\n      0x20\n        /* \"#utility.yul\":769:778   */\n      dup3\n        /* \"#utility.yul\":765:783   */\n      add\n        /* \"#utility.yul\":757:783   */\n      swap1\n      pop\n        /* \"#utility.yul\":793:864   */\n      tag_49\n        /* \"#utility.yul\":861:862   */\n      0x00\n        /* \"#utility.yul\":850:859   */\n      dup4\n        /* \"#utility.yul\":846:863   */\n      add\n        /* \"#utility.yul\":837:843   */\n      dup5\n        /* \"#utility.yul\":793:864   */\n      tag_33\n      jump\t// in\n    tag_49:\n        /* \"#utility.yul\":649:871   */\n      swap3\n      swap2\n      pop\n      pop\n      jump\t// out\n        /* \"#utility.yul\":958:1075   */\n    tag_35:\n        /* \"#utility.yul\":1067:1068   */\n      0x00\n        /* \"#utility.yul\":1064:1065   */\n      dup1\n        /* \"#utility.yul\":1057:1069   */\n      revert\n        /* \"#utility.yul\":1204:1326   */\n    tag_37:\n        /* \"#utility.yul\":1277:1301   */\n      tag_54\n        /* \"#utility.yul\":1295:1300   */\n      dup2\n        /* \"#utility.yul\":1277:1301   */\n      tag_30\n      jump\t// in\n    tag_54:\n        /* \"#utility.yul\":1270:1275   */\n      dup2\n        /* \"#utility.yul\":1267:1302   */\n      eq\n        /* \"#utility.yul\":1257:1320   */\n      tag_55\n      jumpi\n        /* \"#utility.yul\":1316:1317   */\n      0x00\n        /* \"#utility.yul\":1313:1314   */\n      dup1\n        /* \"#utility.yul\":1306:1318   */\n      revert\n        /* \"#utility.yul\":1257:1320   */\n    tag_55:\n        /* \"#utility.yul\":1204:1326   */\n      pop\n      jump\t// out\n        /* \"#utility.yul\":1332:1471   */\n    tag_38:\n        /* \"#utility.yul\":1378:1383   */\n      0x00\n        /* \"#utility.yul\":1416:1422   */\n      dup2\n        /* \"#utility.yul\":1403:1423   */\n      calldataload\n        /* \"#utility.yul\":1394:1423   */\n      swap1\n      pop\n        /* \"#utility.yul\":1432:1465   */\n      tag_57\n        /* \"#utility.yul\":1459:1464   */\n      dup2\n        /* \"#utility.yul\":1432:1465   */\n      tag_37\n      jump\t// in\n    tag_57:\n        /* \"#utility.yul\":1332:1471   */\n      swap3\n      swap2\n      pop\n      pop\n      jump\t// out\n        /* \"#utility.yul\":1477:1806   */\n    tag_21:\n        /* \"#utility.yul\":1536:1542   */\n      0x00\n        /* \"#utility.yul\":1585:1587   */\n      0x20\n        /* \"#utility.yul\":1573:1582   */\n      dup3\n        /* \"#utility.yul\":1564:1571   */\n      dup5\n        /* \"#utility.yul\":1560:1583   */\n      sub\n        /* \"#utility.yul\":1556:1588   */\n      slt\n        /* \"#utility.yul\":1553:1672   */\n      iszero\n      tag_59\n      jumpi\n        /* \"#utility.yul\":1591:1670   */\n      tag_60\n      tag_35\n      jump\t// in\n    tag_60:\n        /* \"#utility.yul\":1553:1672   */\n    tag_59:\n        /* \"#utility.yul\":1711:1712   */\n      0x00\n        /* \"#utility.yul\":1736:1789   */\n      tag_61\n        /* \"#utility.yul\":1781:1788   */\n      dup5\n        /* \"#utility.yul\":1772:1778   */\n      dup3\n        /* \"#utility.yul\":1761:1770   */\n      dup6\n        /* \"#utility.yul\":1757:1779   */\n      add\n        /* \"#utility.yul\":1736:1789   */\n      tag_38\n      jump\t// in\n    tag_61:\n        /* \"#utility.yul\":1726:1789   */\n      swap2\n      pop\n        /* \"#utility.yul\":1682:1799   */\n      pop\n        /* \"#utility.yul\":1477:1806   */\n      swap3\n      swap2\n      pop\n      pop\n      jump\t// out\n\n    auxdata: 0xa2646970667358221220158c3559ff2fd54a1ffd6840f56abe71f2a00fce13baa04ac02f8197e9a808ff64736f6c63430008110033\n}\n",
				"bytecode": {
					"linkReferences": {},
					"object": "608060405234801561001057600080fd5b50610215806100206000396000f3fe608060405234801561001057600080fd5b50600436106100575760003560e01c806342cbb15c1461005c578063796b89b91461007a5780639663f88f14610098578063ee919d50146100b6578063f446c1d0146100d2575b600080fd5b6100646100f0565b6040516100719190610132565b60405180910390f35b6100826100f8565b60405161008f9190610132565b60405180910390f35b6100a0610100565b6040516100ad9190610166565b60405180910390f35b6100d060048036038101906100cb91906101b2565b610109565b005b6100da610113565b6040516100e79190610132565b60405180910390f35b600043905090565b600042905090565b60004340905090565b8060008190555050565b60005481565b6000819050919050565b61012c81610119565b82525050565b60006020820190506101476000830184610123565b92915050565b6000819050919050565b6101608161014d565b82525050565b600060208201905061017b6000830184610157565b92915050565b600080fd5b61018f81610119565b811461019a57600080fd5b50565b6000813590506101ac81610186565b92915050565b6000602082840312156101c8576101c7610181565b5b60006101d68482850161019d565b9150509291505056fea2646970667358221220158c3559ff2fd54a1ffd6840f56abe71f2a00fce13baa04ac02f8197e9a808ff64736f6c63430008110033",
					"opcodes": "PUSH1 0x80 PUSH1 0x40 MSTORE CALLVALUE DUP1 ISZERO PUSH2 0x10 JUMPI PUSH1 0x0 DUP1 REVERT JUMPDEST POP PUSH2 0x215 DUP1 PUSH2 0x20 PUSH1 0x0 CODECOPY PUSH1 0x0 RETURN INVALID PUSH1 0x80 PUSH1 0x40 MSTORE CALLVALUE DUP1 ISZERO PUSH2 0x10 JUMPI PUSH1 0x0 DUP1 REVERT JUMPDEST POP PUSH1 0x4 CALLDATASIZE LT PUSH2 0x57 JUMPI PUSH1 0x0 CALLDATALOAD PUSH1 0xE0 SHR DUP1 PUSH4 0x42CBB15C EQ PUSH2 0x5C JUMPI DUP1 PUSH4 0x796B89B9 EQ PUSH2 0x7A JUMPI DUP1 PUSH4 0x9663F88F EQ PUSH2 0x98 JUMPI DUP1 PUSH4 0xEE919D50 EQ PUSH2 0xB6 JUMPI DUP1 PUSH4 0xF446C1D0 EQ PUSH2 0xD2 JUMPI JUMPDEST PUSH1 0x0 DUP1 REVERT JUMPDEST PUSH2 0x64 PUSH2 0xF0 JUMP JUMPDEST PUSH1 0x40 MLOAD PUSH2 0x71 SWAP2 SWAP1 PUSH2 0x132 JUMP JUMPDEST PUSH1 0x40 MLOAD DUP1 SWAP2 SUB SWAP1 RETURN JUMPDEST PUSH2 0x82 PUSH2 0xF8 JUMP JUMPDEST PUSH1 0x40 MLOAD PUSH2 0x8F SWAP2 SWAP1 PUSH2 0x132 JUMP JUMPDEST PUSH1 0x40 MLOAD DUP1 SWAP2 SUB SWAP1 RETURN JUMPDEST PUSH2 0xA0 PUSH2 0x100 JUMP JUMPDEST PUSH1 0x40 MLOAD PUSH2 0xAD SWAP2 SWAP1 PUSH2 0x166 JUMP JUMPDEST PUSH1 0x40 MLOAD DUP1 SWAP2 SUB SWAP1 RETURN JUMPDEST PUSH2 0xD0 PUSH1 0x4 DUP1 CALLDATASIZE SUB DUP2 ADD SWAP1 PUSH2 0xCB SWAP2 SWAP1 PUSH2 0x1B2 JUMP JUMPDEST PUSH2 0x109 JUMP JUMPDEST STOP JUMPDEST PUSH2 0xDA PUSH2 0x113 JUMP JUMPDEST PUSH1 0x40 MLOAD PUSH2 0xE7 SWAP2 SWAP1 PUSH2 0x132 JUMP JUMPDEST PUSH1 0x40 MLOAD DUP1 SWAP2 SUB SWAP1 RETURN JUMPDEST PUSH1 0x0 NUMBER SWAP1 POP SWAP1 JUMP JUMPDEST PUSH1 0x0 TIMESTAMP SWAP1 POP SWAP1 JUMP JUMPDEST PUSH1 0x0 NUMBER BLOCKHASH SWAP1 POP SWAP1 JUMP JUMPDEST DUP1 PUSH1 0x0 DUP2 SWAP1 SSTORE POP POP JUMP JUMPDEST PUSH1 0x0 SLOAD DUP2 JUMP JUMPDEST PUSH1 0x0 DUP2 SWAP1 POP SWAP2 SWAP1 POP JUMP JUMPDEST PUSH2 0x12C DUP2 PUSH2 0x119 JUMP JUMPDEST DUP3 MSTORE POP POP JUMP JUMPDEST PUSH1 0x0 PUSH1 0x20 DUP3 ADD SWAP1 POP PUSH2 0x147 PUSH1 0x0 DUP4 ADD DUP5 PUSH2 0x123 JUMP JUMPDEST SWAP3 SWAP2 POP POP JUMP JUMPDEST PUSH1 0x0 DUP2 SWAP1 POP SWAP2 SWAP1 POP JUMP JUMPDEST PUSH2 0x160 DUP2 PUSH2 0x14D JUMP JUMPDEST DUP3 MSTORE POP POP JUMP JUMPDEST PUSH1 0x0 PUSH1 0x20 DUP3 ADD SWAP1 POP PUSH2 0x17B PUSH1 0x0 DUP4 ADD DUP5 PUSH2 0x157 JUMP JUMPDEST SWAP3 SWAP2 POP POP JUMP JUMPDEST PUSH1 0x0 DUP1 REVERT JUMPDEST PUSH2 0x18F DUP2 PUSH2 0x119 JUMP JUMPDEST DUP2 EQ PUSH2 0x19A JUMPI PUSH1 0x0 DUP1 REVERT JUMPDEST POP JUMP JUMPDEST PUSH1 0x0 DUP2 CALLDATALOAD SWAP1 POP PUSH2 0x1AC DUP2 PUSH2 0x186 JUMP JUMPDEST SWAP3 SWAP2 POP POP JUMP JUMPDEST PUSH1 0x0 PUSH1 0x20 DUP3 DUP5 SUB SLT ISZERO PUSH2 0x1C8 JUMPI PUSH2 0x1C7 PUSH2 0x181 JUMP JUMPDEST JUMPDEST PUSH1 0x0 PUSH2 0x1D6 DUP5 DUP3 DUP6 ADD PUSH2 0x19D JUMP JUMPDEST SWAP2 POP POP SWAP3 SWAP2 POP POP JUMP INVALID LOG2 PUSH5 0x6970667358 0x22 SLT KECCAK256 ISZERO DUP13 CALLDATALOAD MSIZE SELFDESTRUCT 0x2F 0xD5 0x4A 0x1F REVERT PUSH9 0x40F56ABE71F2A00FCE SGT 0xBA LOG0 0x4A 0xC0 0x2F DUP2 SWAP8 0xE9 0xA8 ADDMOD SELFDESTRUCT PUSH5 0x736F6C6343 STOP ADDMOD GT STOP CALLER "
				},
				"gasEstimates": {
					"creation": {
						"codeDepositCost": "106600",
						"executionCost": "153",
						"totalCost": "106753"
					},
					"external": {
						"A()": "2495",
						"getBlockHash()": "378",
						"getBlockNumber()": "314",
						"getBlockTimestamp()": "336",
						"setA(uint256)": "22564"
					}
				},
				"methodIdentifiers": {
					"A()": "f446c1d0",
					"getBlockHash()": "9663f88f",
					"getBlockNumber()": "42cbb15c",
					"getBlockTimestamp()": "796b89b9",
					"setA(uint256)": "ee919d50"
				}
			},
			"storageLayout": {
				"storage": [
					{
						"astId": 3,
						"contract": "contracts/ReqdWriteBlock.sol:ReadWriteBlock",
						"label": "A",
						"offset": 0,
						"slot": "0",
						"type": "t_uint256"
					}
				],
				"types": {
					"t_uint256": {
						"encoding": "inplace",
						"label": "uint256",
						"numberOfBytes": "32"
					}
				}
			},
			"userdoc": {
				"kind": "user",
				"methods": {},
				"version": 1
			}
		}
	}
}