{
	"contracts/Constant.sol": {
		"Constant": {
			"abi": [
				{
					"anonymous": false,
					"inputs": [
						{
							"indexed": true,
							"internalType": "address",
							"name": "previousOwner",
							"type": "address"
						},
						{
							"indexed": true,
							"internalType": "address",
							"name": "newOwner",
							"type": "address"
						}
					],
					"name": "OwnershipTransferred",
					"type": "event"
				},
				{
					"inputs": [
						{
							"internalType": "address",
							"name": "_admin",
							"type": "address"
						}
					],
					"name": "addAdmin",
					"outputs": [],
					"stateMutability": "nonpayable",
					"type": "function"
				},
				{
					"inputs": [
						{
							"internalType": "address",
							"name": "_admin",
							"type": "address"
						}
					],
					"name": "delAdmin",
					"outputs": [],
					"stateMutability": "nonpayable",
					"type": "function"
				},
				{
					"inputs": [],
					"name": "getAllCons",
					"outputs": [
						{
							"internalType": "uint16",
							"name": "",
							"type": "uint16"
						},
						{
							"internalType": "uint16",
							"name": "",
							"type": "uint16"
						},
						{
							"internalType": "uint16",
							"name": "",
							"type": "uint16"
						},
						{
							"internalType": "uint16",
							"name": "",
							"type": "uint16"
						},
						{
							"internalType": "uint16",
							"name": "",
							"type": "uint16"
						},
						{
							"internalType": "uint16",
							"name": "",
							"type": "uint16"
						},
						{
							"internalType": "uint16",
							"name": "",
							"type": "uint16"
						},
						{
							"internalType": "uint16",
							"name": "",
							"type": "uint16"
						},
						{
							"internalType": "uint16",
							"name": "",
							"type": "uint16"
						},
						{
							"internalType": "uint16",
							"name": "",
							"type": "uint16"
						},
						{
							"internalType": "uint16",
							"name": "",
							"type": "uint16"
						},
						{
							"internalType": "uint16",
							"name": "",
							"type": "uint16"
						}
					],
					"stateMutability": "view",
					"type": "function"
				},
				{
					"inputs": [],
					"name": "getCpu",
					"outputs": [
						{
							"internalType": "uint16",
							"name": "",
							"type": "uint16"
						}
					],
					"stateMutability": "view",
					"type": "function"
				},
				{
					"inputs": [],
					"name": "getCpuWeights",
					"outputs": [
						{
							"internalType": "uint16",
							"name": "",
							"type": "uint16"
						}
					],
					"stateMutability": "view",
					"type": "function"
				},
				{
					"inputs": [],
					"name": "getGraphicsCard",
					"outputs": [
						{
							"internalType": "uint16",
							"name": "",
							"type": "uint16"
						}
					],
					"stateMutability": "view",
					"type": "function"
				},
				{
					"inputs": [],
					"name": "getGraphicsCardWeights",
					"outputs": [
						{
							"internalType": "uint16",
							"name": "",
							"type": "uint16"
						}
					],
					"stateMutability": "view",
					"type": "function"
				},
				{
					"inputs": [],
					"name": "getHardDisk",
					"outputs": [
						{
							"internalType": "uint16",
							"name": "",
							"type": "uint16"
						}
					],
					"stateMutability": "view",
					"type": "function"
				},
				{
					"inputs": [],
					"name": "getHardDiskWeights",
					"outputs": [
						{
							"internalType": "uint16",
							"name": "",
							"type": "uint16"
						}
					],
					"stateMutability": "view",
					"type": "function"
				},
				{
					"inputs": [],
					"name": "getIP",
					"outputs": [
						{
							"internalType": "uint16",
							"name": "",
							"type": "uint16"
						}
					],
					"stateMutability": "view",
					"type": "function"
				},
				{
					"inputs": [],
					"name": "getMemWeights",
					"outputs": [
						{
							"internalType": "uint16",
							"name": "",
							"type": "uint16"
						}
					],
					"stateMutability": "view",
					"type": "function"
				},
				{
					"inputs": [],
					"name": "getMemory",
					"outputs": [
						{
							"internalType": "uint16",
							"name": "",
							"type": "uint16"
						}
					],
					"stateMutability": "view",
					"type": "function"
				},
				{
					"inputs": [],
					"name": "getOffline",
					"outputs": [
						{
							"internalType": "uint16",
							"name": "",
							"type": "uint16"
						}
					],
					"stateMutability": "view",
					"type": "function"
				},
				{
					"inputs": [],
					"name": "getOnline",
					"outputs": [
						{
							"internalType": "uint16",
							"name": "",
							"type": "uint16"
						}
					],
					"stateMutability": "view",
					"type": "function"
				},
				{
					"inputs": [],
					"name": "getRendering",
					"outputs": [
						{
							"internalType": "uint16",
							"name": "",
							"type": "uint16"
						}
					],
					"stateMutability": "view",
					"type": "function"
				},
				{
					"inputs": [],
					"name": "getStakeAmountLimit",
					"outputs": [
						{
							"internalType": "uint256",
							"name": "",
							"type": "uint256"
						}
					],
					"stateMutability": "view",
					"type": "function"
				},
				{
					"inputs": [],
					"name": "getTotalTokenIssuance",
					"outputs": [
						{
							"internalType": "uint256",
							"name": "",
							"type": "uint256"
						}
					],
					"stateMutability": "view",
					"type": "function"
				},
				{
					"inputs": [
						{
							"internalType": "address",
							"name": "_addr",
							"type": "address"
						}
					],
					"name": "isAdmin",
					"outputs": [
						{
							"internalType": "bool",
							"name": "",
							"type": "bool"
						}
					],
					"stateMutability": "view",
					"type": "function"
				},
				{
					"inputs": [],
					"name": "owner",
					"outputs": [
						{
							"internalType": "address",
							"name": "",
							"type": "address"
						}
					],
					"stateMutability": "view",
					"type": "function"
				},
				{
					"inputs": [],
					"name": "renounceOwnership",
					"outputs": [],
					"stateMutability": "nonpayable",
					"type": "function"
				},
				{
					"inputs": [],
					"name": "returnRes",
					"outputs": [
						{
							"internalType": "uint256",
							"name": "",
							"type": "uint256"
						}
					],
					"stateMutability": "view",
					"type": "function"
				},
				{
					"inputs": [
						{
							"internalType": "uint256",
							"name": "status",
							"type": "uint256"
						}
					],
					"name": "setRes",
					"outputs": [],
					"stateMutability": "nonpayable",
					"type": "function"
				},
				{
					"inputs": [
						{
							"internalType": "uint256",
							"name": "value",
							"type": "uint256"
						}
					],
					"name": "setStakeAmountLimit",
					"outputs": [
						{
							"internalType": "bool",
							"name": "",
							"type": "bool"
						}
					],
					"stateMutability": "nonpayable",
					"type": "function"
				},
				{
					"inputs": [
						{
							"internalType": "address",
							"name": "newOwner",
							"type": "address"
						}
					],
					"name": "transferOwnership",
					"outputs": [],
					"stateMutability": "nonpayable",
					"type": "function"
				}
			],
			"devdoc": {
				"kind": "dev",
				"methods": {
					"owner()": {
						"details": "Returns the address of the current owner."
					},
					"renounceOwnership()": {
						"details": "Leaves the contract without owner. It will not be possible to call `onlyOwner` functions anymore. Can only be called by the current owner. NOTE: Renouncing ownership will leave the contract without an owner, thereby removing any functionality that is only available to the owner."
					},
					"transferOwnership(address)": {
						"details": "Transfers ownership of the contract to a new account (`newOwner`). Can only be called by the current owner."
					}
				},
				"version": 1
			},
			"evm": {
				"assembly": "    /* \"contracts/Constant.sol\":86:3529  contract Constant is Admin {... */\n  mstore(0x40, 0x80)\n    /* \"contracts/Constant.sol\":221:244  100000000000 * 10 ** 18 */\n  0x01431e0fae6d7217caa0000000\n    /* \"contracts/Constant.sol\":184:244  uint256 private totalTokenIssuance = 100000000000 * 10 ** 18 */\n  0x02\n  sstore\n    /* \"contracts/Constant.sol\":335:336  1 */\n  0x01\n    /* \"contracts/Constant.sol\":311:336  uint16 private online = 1 */\n  0x03\n  exp(0x0100, 0x00)\n  dup2\n  sload\n  dup2\n  0xffff\n  mul\n  not\n  and\n  swap1\n  dup4\n  0xffff\n  and\n  mul\n  or\n  swap1\n  sstore\n  pop\n    /* \"contracts/Constant.sol\":369:370  2 */\n  0x02\n    /* \"contracts/Constant.sol\":342:370  uint16 private rendering = 2 */\n  0x03\n  exp(0x0100, 0x02)\n  dup2\n  sload\n  dup2\n  0xffff\n  mul\n  not\n  and\n  swap1\n  dup4\n  0xffff\n  and\n  mul\n  or\n  swap1\n  sstore\n  pop\n    /* \"contracts/Constant.sol\":401:402  3 */\n  0x03\n    /* \"contracts/Constant.sol\":376:402  uint16 private offline = 3 */\n  dup1\n  exp(0x0100, 0x04)\n  dup2\n  sload\n  dup2\n  0xffff\n  mul\n  not\n  and\n  swap1\n  dup4\n  0xffff\n  and\n  mul\n  or\n  swap1\n  sstore\n  pop\n    /* \"contracts/Constant.sol\":505:506  1 */\n  0x01\n    /* \"contracts/Constant.sol\":484:506  uint16 private cpu = 1 */\n  0x03\n  exp(0x0100, 0x06)\n  dup2\n  sload\n  dup2\n  0xffff\n  mul\n  not\n  and\n  swap1\n  dup4\n  0xffff\n  and\n  mul\n  or\n  swap1\n  sstore\n  pop\n    /* \"contracts/Constant.sol\":533:534  2 */\n  0x02\n    /* \"contracts/Constant.sol\":512:534  uint16 private mem = 2 */\n  0x03\n  exp(0x0100, 0x08)\n  dup2\n  sload\n  dup2\n  0xffff\n  mul\n  not\n  and\n  swap1\n  dup4\n  0xffff\n  and\n  mul\n  or\n  swap1\n  sstore\n  pop\n    /* \"contracts/Constant.sol\":570:571  3 */\n  0x03\n    /* \"contracts/Constant.sol\":540:571  uint16 private graphicsCard = 3 */\n  dup1\n  exp(0x0100, 0x0a)\n  dup2\n  sload\n  dup2\n  0xffff\n  mul\n  not\n  and\n  swap1\n  dup4\n  0xffff\n  and\n  mul\n  or\n  swap1\n  sstore\n  pop\n    /* \"contracts/Constant.sol\":603:604  4 */\n  0x04\n    /* \"contracts/Constant.sol\":577:604  uint16 private hardDisk = 4 */\n  0x03\n  exp(0x0100, 0x0c)\n  dup2\n  sload\n  dup2\n  0xffff\n  mul\n  not\n  and\n  swap1\n  dup4\n  0xffff\n  and\n  mul\n  or\n  swap1\n  sstore\n  pop\n    /* \"contracts/Constant.sol\":630:631  5 */\n  0x05\n    /* \"contracts/Constant.sol\":610:631  uint16 private ip = 5 */\n  0x03\n  exp(0x0100, 0x0e)\n  dup2\n  sload\n  dup2\n  0xffff\n  mul\n  not\n  and\n  swap1\n  dup4\n  0xffff\n  and\n  mul\n  or\n  swap1\n  sstore\n  pop\n    /* \"contracts/Constant.sol\":701:702  1 */\n  0x01\n    /* \"contracts/Constant.sol\":673:702  uint16 private cpuWeights = 1 */\n  0x03\n  exp(0x0100, 0x10)\n  dup2\n  sload\n  dup2\n  0xffff\n  mul\n  not\n  and\n  swap1\n  dup4\n  0xffff\n  and\n  mul\n  or\n  swap1\n  sstore\n  pop\n    /* \"contracts/Constant.sol\":736:737  2 */\n  0x02\n    /* \"contracts/Constant.sol\":708:737  uint16 private memWeights = 2 */\n  0x03\n  exp(0x0100, 0x12)\n  dup2\n  sload\n  dup2\n  0xffff\n  mul\n  not\n  and\n  swap1\n  dup4\n  0xffff\n  and\n  mul\n  or\n  swap1\n  sstore\n  pop\n    /* \"contracts/Constant.sol\":780:781  3 */\n  0x03\n    /* \"contracts/Constant.sol\":743:781  uint16 private graphicsCardWeights = 3 */\n  dup1\n  exp(0x0100, 0x14)\n  dup2\n  sload\n  dup2\n  0xffff\n  mul\n  not\n  and\n  swap1\n  dup4\n  0xffff\n  and\n  mul\n  or\n  swap1\n  sstore\n  pop\n    /* \"contracts/Constant.sol\":820:821  4 */\n  0x04\n    /* \"contracts/Constant.sol\":787:821  uint16 private hardDiskWeights = 4 */\n  0x03\n  exp(0x0100, 0x16)\n  dup2\n  sload\n  dup2\n  0xffff\n  mul\n  not\n  and\n  swap1\n  dup4\n  0xffff\n  and\n  mul\n  or\n  swap1\n  sstore\n  pop\n    /* \"contracts/Constant.sol\":889:890  1 */\n  0x01\n    /* \"contracts/Constant.sol\":854:890  uint256 private stakeAmountLimit = 1 */\n  0x04\n  sstore\n    /* \"contracts/Constant.sol\":86:3529  contract Constant is Admin {... */\n  callvalue\n  dup1\n  iszero\n  tag_1\n  jumpi\n  0x00\n  dup1\n  revert\ntag_1:\n  pop\n    /* \"@openzeppelin/contracts/access/Ownable.sol\":936:968  _transferOwnership(_msgSender()) */\n  tag_4\n    /* \"@openzeppelin/contracts/access/Ownable.sol\":955:967  _msgSender() */\n  tag_5\n    /* \"@openzeppelin/contracts/access/Ownable.sol\":955:965  _msgSender */\n  shl(0x20, tag_6)\n    /* \"@openzeppelin/contracts/access/Ownable.sol\":955:967  _msgSender() */\n  0x20\n  shr\n  jump\t// in\ntag_5:\n    /* \"@openzeppelin/contracts/access/Ownable.sol\":936:954  _transferOwnership */\n  shl(0x20, tag_7)\n    /* \"@openzeppelin/contracts/access/Ownable.sol\":936:968  _transferOwnership(_msgSender()) */\n  0x20\n  shr\n  jump\t// in\ntag_4:\n    /* \"contracts/Constant.sol\":86:3529  contract Constant is Admin {... */\n  jump(tag_8)\n    /* \"@openzeppelin/contracts/utils/Context.sol\":640:736  function _msgSender() internal view virtual returns (address) {... */\ntag_6:\n    /* \"@openzeppelin/contracts/utils/Context.sol\":693:700  address */\n  0x00\n    /* \"@openzeppelin/contracts/utils/Context.sol\":719:729  msg.sender */\n  caller\n    /* \"@openzeppelin/contracts/utils/Context.sol\":712:729  return msg.sender */\n  swap1\n  pop\n    /* \"@openzeppelin/contracts/utils/Context.sol\":640:736  function _msgSender() internal view virtual returns (address) {... */\n  swap1\n  jump\t// out\n    /* \"@openzeppelin/contracts/access/Ownable.sol\":2433:2620  function _transferOwnership(address newOwner) internal virtual {... */\ntag_7:\n    /* \"@openzeppelin/contracts/access/Ownable.sol\":2506:2522  address oldOwner */\n  0x00\n    /* \"@openzeppelin/contracts/access/Ownable.sol\":2525:2531  _owner */\n  dup1\n  0x00\n  swap1\n  sload\n  swap1\n  0x0100\n  exp\n  swap1\n  div\n  0xffffffffffffffffffffffffffffffffffffffff\n  and\n    /* \"@openzeppelin/contracts/access/Ownable.sol\":2506:2531  address oldOwner = _owner */\n  swap1\n  pop\n    /* \"@openzeppelin/contracts/access/Ownable.sol\":2550:2558  newOwner */\n  dup2\n    /* \"@openzeppelin/contracts/access/Ownable.sol\":2541:2547  _owner */\n  0x00\n  dup1\n    /* \"@openzeppelin/contracts/access/Ownable.sol\":2541:2558  _owner = newOwner */\n  0x0100\n  exp\n  dup2\n  sload\n  dup2\n  0xffffffffffffffffffffffffffffffffffffffff\n  mul\n  not\n  and\n  swap1\n  dup4\n  0xffffffffffffffffffffffffffffffffffffffff\n  and\n  mul\n  or\n  swap1\n  sstore\n  pop\n    /* \"@openzeppelin/contracts/access/Ownable.sol\":2604:2612  newOwner */\n  dup2\n    /* \"@openzeppelin/contracts/access/Ownable.sol\":2573:2613  OwnershipTransferred(oldOwner, newOwner) */\n  0xffffffffffffffffffffffffffffffffffffffff\n  and\n    /* \"@openzeppelin/contracts/access/Ownable.sol\":2594:2602  oldOwner */\n  dup2\n    /* \"@openzeppelin/contracts/access/Ownable.sol\":2573:2613  OwnershipTransferred(oldOwner, newOwner) */\n  0xffffffffffffffffffffffffffffffffffffffff\n  and\n  0x8be0079c531659141344cd1fd0a4f28419497f9722a3daafe3b4186f6b6457e0\n  mload(0x40)\n  mload(0x40)\n  dup1\n  swap2\n  sub\n  swap1\n  log3\n    /* \"@openzeppelin/contracts/access/Ownable.sol\":2496:2620  {... */\n  pop\n    /* \"@openzeppelin/contracts/access/Ownable.sol\":2433:2620  function _transferOwnership(address newOwner) internal virtual {... */\n  pop\n  jump\t// out\n    /* \"contracts/Constant.sol\":86:3529  contract Constant is Admin {... */\ntag_8:\n  dataSize(sub_0)\n  dup1\n  dataOffset(sub_0)\n  0x00\n  codecopy\n  0x00\n  return\nstop\n\nsub_0: assembly {\n        /* \"contracts/Constant.sol\":86:3529  contract Constant is Admin {... */\n      mstore(0x40, 0x80)\n      callvalue\n      dup1\n      iszero\n      tag_1\n      jumpi\n      0x00\n      dup1\n      revert\n    tag_1:\n      pop\n      jumpi(tag_2, lt(calldatasize, 0x04))\n      shr(0xe0, calldataload(0x00))\n      dup1\n      0x8da5cb5b\n      gt\n      tag_27\n      jumpi\n      dup1\n      0xa63b6188\n      gt\n      tag_28\n      jumpi\n      dup1\n      0xa63b6188\n      eq\n      tag_21\n      jumpi\n      dup1\n      0xafc1c88e\n      eq\n      tag_22\n      jumpi\n      dup1\n      0xb10186fd\n      eq\n      tag_23\n      jumpi\n      dup1\n      0xba852775\n      eq\n      tag_24\n      jumpi\n      dup1\n      0xc5fc66a4\n      eq\n      tag_25\n      jumpi\n      dup1\n      0xf2fde38b\n      eq\n      tag_26\n      jumpi\n      jump(tag_2)\n    tag_28:\n      dup1\n      0x8da5cb5b\n      eq\n      tag_15\n      jumpi\n      dup1\n      0x8e41abab\n      eq\n      tag_16\n      jumpi\n      dup1\n      0x927e00e8\n      eq\n      tag_17\n      jumpi\n      dup1\n      0x96355b2e\n      eq\n      tag_18\n      jumpi\n      dup1\n      0x9a403ff6\n      eq\n      tag_19\n      jumpi\n      dup1\n      0xa1f35497\n      eq\n      tag_20\n      jumpi\n      jump(tag_2)\n    tag_27:\n      dup1\n      0x5809cdb5\n      gt\n      tag_29\n      jumpi\n      dup1\n      0x5809cdb5\n      eq\n      tag_9\n      jumpi\n      dup1\n      0x62d91855\n      eq\n      tag_10\n      jumpi\n      dup1\n      0x64693b87\n      eq\n      tag_11\n      jumpi\n      dup1\n      0x70480275\n      eq\n      tag_12\n      jumpi\n      dup1\n      0x715018a6\n      eq\n      tag_13\n      jumpi\n      dup1\n      0x7ccd0c70\n      eq\n      tag_14\n      jumpi\n      jump(tag_2)\n    tag_29:\n      dup1\n      0x092afee3\n      eq\n      tag_3\n      jumpi\n      dup1\n      0x24d7806c\n      eq\n      tag_4\n      jumpi\n      dup1\n      0x331b4cda\n      eq\n      tag_5\n      jumpi\n      dup1\n      0x36ffc86d\n      eq\n      tag_6\n      jumpi\n      dup1\n      0x3bf331cd\n      eq\n      tag_7\n      jumpi\n      dup1\n      0x3f4702c0\n      eq\n      tag_8\n      jumpi\n    tag_2:\n      0x00\n      dup1\n      revert\n        /* \"contracts/Constant.sol\":3158:3258  function getHardDiskWeights() external view returns (uint16) {... */\n    tag_3:\n      tag_30\n      tag_31\n      jump\t// in\n    tag_30:\n      mload(0x40)\n      tag_32\n      swap2\n      swap1\n      tag_33\n      jump\t// in\n    tag_32:\n      mload(0x40)\n      dup1\n      swap2\n      sub\n      swap1\n      return\n        /* \"contracts/Auth.sol\":499:596  function isAdmin(address _addr) public view returns (bool) {... */\n    tag_4:\n      tag_34\n      0x04\n      dup1\n      calldatasize\n      sub\n      dup2\n      add\n      swap1\n      tag_35\n      swap2\n      swap1\n      tag_36\n      jump\t// in\n    tag_35:\n      tag_37\n      jump\t// in\n    tag_34:\n      mload(0x40)\n      tag_38\n      swap2\n      swap1\n      tag_39\n      jump\t// in\n    tag_38:\n      mload(0x40)\n      dup1\n      swap2\n      sub\n      swap1\n      return\n        /* \"contracts/Constant.sol\":2229:2317  function getRendering() external view returns (uint16) {... */\n    tag_5:\n      tag_40\n      tag_41\n      jump\t// in\n    tag_40:\n      mload(0x40)\n      tag_42\n      swap2\n      swap1\n      tag_33\n      jump\t// in\n    tag_42:\n      mload(0x40)\n      dup1\n      swap2\n      sub\n      swap1\n      return\n        /* \"contracts/Constant.sol\":2028:2135  function getTotalTokenIssuance() external view returns (uint256) {... */\n    tag_6:\n      tag_43\n      tag_44\n      jump\t// in\n    tag_43:\n      mload(0x40)\n      tag_45\n      swap2\n      swap1\n      tag_46\n      jump\t// in\n    tag_45:\n      mload(0x40)\n      dup1\n      swap2\n      sub\n      swap1\n      return\n        /* \"contracts/Constant.sol\":2852:2942  function getCpuWeights() external view returns (uint16) {... */\n    tag_7:\n      tag_47\n      tag_48\n      jump\t// in\n    tag_47:\n      mload(0x40)\n      tag_49\n      swap2\n      swap1\n      tag_33\n      jump\t// in\n    tag_49:\n      mload(0x40)\n      dup1\n      swap2\n      sub\n      swap1\n      return\n        /* \"contracts/Constant.sol\":2495:2574  function getMemory() external view returns (uint16) {... */\n    tag_8:\n      tag_50\n      tag_51\n      jump\t// in\n    tag_50:\n      mload(0x40)\n      tag_52\n      swap2\n      swap1\n      tag_33\n      jump\t// in\n    tag_52:\n      mload(0x40)\n      dup1\n      swap2\n      sub\n      swap1\n      return\n        /* \"contracts/Constant.sol\":2323:2407  function getOffline() external view returns (uint16) {... */\n    tag_9:\n      tag_53\n      tag_54\n      jump\t// in\n    tag_53:\n      mload(0x40)\n      tag_55\n      swap2\n      swap1\n      tag_33\n      jump\t// in\n    tag_55:\n      mload(0x40)\n      dup1\n      swap2\n      sub\n      swap1\n      return\n        /* \"contracts/Auth.sol\":402:493  function delAdmin(address _admin) public onlyOwner {... */\n    tag_10:\n      tag_56\n      0x04\n      dup1\n      calldatasize\n      sub\n      dup2\n      add\n      swap1\n      tag_57\n      swap2\n      swap1\n      tag_36\n      jump\t// in\n    tag_57:\n      tag_58\n      jump\t// in\n    tag_56:\n      stop\n        /* \"contracts/Constant.sol\":2141:2223  function getOnline() external view returns (uint16) {... */\n    tag_11:\n      tag_59\n      tag_60\n      jump\t// in\n    tag_59:\n      mload(0x40)\n      tag_61\n      swap2\n      swap1\n      tag_33\n      jump\t// in\n    tag_61:\n      mload(0x40)\n      dup1\n      swap2\n      sub\n      swap1\n      return\n        /* \"contracts/Auth.sol\":306:396  function addAdmin(address _admin) public onlyOwner {... */\n    tag_12:\n      tag_62\n      0x04\n      dup1\n      calldatasize\n      sub\n      dup2\n      add\n      swap1\n      tag_63\n      swap2\n      swap1\n      tag_36\n      jump\t// in\n    tag_63:\n      tag_64\n      jump\t// in\n    tag_62:\n      stop\n        /* \"@openzeppelin/contracts/access/Ownable.sol\":1831:1932  function renounceOwnership() public virtual onlyOwner {... */\n    tag_13:\n      tag_65\n      tag_66\n      jump\t// in\n    tag_65:\n      stop\n        /* \"contracts/Constant.sol\":1176:1283  function setRes(uint256 status) external checkStatusValue(status){... */\n    tag_14:\n      tag_67\n      0x04\n      dup1\n      calldatasize\n      sub\n      dup2\n      add\n      swap1\n      tag_68\n      swap2\n      swap1\n      tag_69\n      jump\t// in\n    tag_68:\n      tag_70\n      jump\t// in\n    tag_67:\n      stop\n        /* \"@openzeppelin/contracts/access/Ownable.sol\":1201:1286  function owner() public view virtual returns (address) {... */\n    tag_15:\n      tag_71\n      tag_72\n      jump\t// in\n    tag_71:\n      mload(0x40)\n      tag_73\n      swap2\n      swap1\n      tag_74\n      jump\t// in\n    tag_73:\n      mload(0x40)\n      dup1\n      swap2\n      sub\n      swap1\n      return\n        /* \"contracts/Constant.sol\":1393:2022  function getAllCons()... */\n    tag_16:\n      tag_75\n      tag_76\n      jump\t// in\n    tag_75:\n      mload(0x40)\n      tag_77\n      swap13\n      swap12\n      swap11\n      swap10\n      swap9\n      swap8\n      swap7\n      swap6\n      swap5\n      swap4\n      swap3\n      swap2\n      swap1\n      tag_78\n      jump\t// in\n    tag_77:\n      mload(0x40)\n      dup1\n      swap2\n      sub\n      swap1\n      return\n        /* \"contracts/Constant.sol\":3044:3152  function getGraphicsCardWeights() external view returns (uint16) {... */\n    tag_17:\n      tag_79\n      tag_80\n      jump\t// in\n    tag_79:\n      mload(0x40)\n      tag_81\n      swap2\n      swap1\n      tag_33\n      jump\t// in\n    tag_81:\n      mload(0x40)\n      dup1\n      swap2\n      sub\n      swap1\n      return\n        /* \"contracts/Constant.sol\":2772:2846  function getIP() external view returns (uint16) {... */\n    tag_18:\n      tag_82\n      tag_83\n      jump\t// in\n    tag_82:\n      mload(0x40)\n      tag_84\n      swap2\n      swap1\n      tag_33\n      jump\t// in\n    tag_84:\n      mload(0x40)\n      dup1\n      swap2\n      sub\n      swap1\n      return\n        /* \"contracts/Constant.sol\":3264:3367  function getStakeAmountLimit() external view returns (uint256) {... */\n    tag_19:\n      tag_85\n      tag_86\n      jump\t// in\n    tag_85:\n      mload(0x40)\n      tag_87\n      swap2\n      swap1\n      tag_46\n      jump\t// in\n    tag_87:\n      mload(0x40)\n      dup1\n      swap2\n      sub\n      swap1\n      return\n        /* \"contracts/Constant.sol\":1289:1387  function returnRes() external view returns(uint256){... */\n    tag_20:\n      tag_88\n      tag_89\n      jump\t// in\n    tag_88:\n      mload(0x40)\n      tag_90\n      swap2\n      swap1\n      tag_46\n      jump\t// in\n    tag_90:\n      mload(0x40)\n      dup1\n      swap2\n      sub\n      swap1\n      return\n        /* \"contracts/Constant.sol\":2580:2674  function getGraphicsCard() external view returns (uint16) {... */\n    tag_21:\n      tag_91\n      tag_92\n      jump\t// in\n    tag_91:\n      mload(0x40)\n      tag_93\n      swap2\n      swap1\n      tag_33\n      jump\t// in\n    tag_93:\n      mload(0x40)\n      dup1\n      swap2\n      sub\n      swap1\n      return\n        /* \"contracts/Constant.sol\":2413:2489  function getCpu() external view returns (uint16) {... */\n    tag_22:\n      tag_94\n      tag_95\n      jump\t// in\n    tag_94:\n      mload(0x40)\n      tag_96\n      swap2\n      swap1\n      tag_33\n      jump\t// in\n    tag_96:\n      mload(0x40)\n      dup1\n      swap2\n      sub\n      swap1\n      return\n        /* \"contracts/Constant.sol\":2680:2766  function getHardDisk() external view returns (uint16) {... */\n    tag_23:\n      tag_97\n      tag_98\n      jump\t// in\n    tag_97:\n      mload(0x40)\n      tag_99\n      swap2\n      swap1\n      tag_33\n      jump\t// in\n    tag_99:\n      mload(0x40)\n      dup1\n      swap2\n      sub\n      swap1\n      return\n        /* \"contracts/Constant.sol\":2948:3038  function getMemWeights() external view returns (uint16) {... */\n    tag_24:\n      tag_100\n      tag_101\n      jump\t// in\n    tag_100:\n      mload(0x40)\n      tag_102\n      swap2\n      swap1\n      tag_33\n      jump\t// in\n    tag_102:\n      mload(0x40)\n      dup1\n      swap2\n      sub\n      swap1\n      return\n        /* \"contracts/Constant.sol\":3373:3527  function setStakeAmountLimit(... */\n    tag_25:\n      tag_103\n      0x04\n      dup1\n      calldatasize\n      sub\n      dup2\n      add\n      swap1\n      tag_104\n      swap2\n      swap1\n      tag_69\n      jump\t// in\n    tag_104:\n      tag_105\n      jump\t// in\n    tag_103:\n      mload(0x40)\n      tag_106\n      swap2\n      swap1\n      tag_39\n      jump\t// in\n    tag_106:\n      mload(0x40)\n      dup1\n      swap2\n      sub\n      swap1\n      return\n        /* \"@openzeppelin/contracts/access/Ownable.sol\":2081:2279  function transferOwnership(address newOwner) public virtual onlyOwner {... */\n    tag_26:\n      tag_107\n      0x04\n      dup1\n      calldatasize\n      sub\n      dup2\n      add\n      swap1\n      tag_108\n      swap2\n      swap1\n      tag_36\n      jump\t// in\n    tag_108:\n      tag_109\n      jump\t// in\n    tag_107:\n      stop\n        /* \"contracts/Constant.sol\":3158:3258  function getHardDiskWeights() external view returns (uint16) {... */\n    tag_31:\n        /* \"contracts/Constant.sol\":3211:3217  uint16 */\n      0x00\n        /* \"contracts/Constant.sol\":3236:3251  hardDiskWeights */\n      0x03\n      0x16\n      swap1\n      sload\n      swap1\n      0x0100\n      exp\n      swap1\n      div\n      0xffff\n      and\n        /* \"contracts/Constant.sol\":3229:3251  return hardDiskWeights */\n      swap1\n      pop\n        /* \"contracts/Constant.sol\":3158:3258  function getHardDiskWeights() external view returns (uint16) {... */\n      swap1\n      jump\t// out\n        /* \"contracts/Auth.sol\":499:596  function isAdmin(address _addr) public view returns (bool) {... */\n    tag_37:\n        /* \"contracts/Auth.sol\":552:556  bool */\n      0x00\n        /* \"contracts/Auth.sol\":575:582  _admins */\n      0x01\n        /* \"contracts/Auth.sol\":575:589  _admins[_addr] */\n      0x00\n        /* \"contracts/Auth.sol\":583:588  _addr */\n      dup4\n        /* \"contracts/Auth.sol\":575:589  _admins[_addr] */\n      0xffffffffffffffffffffffffffffffffffffffff\n      and\n      0xffffffffffffffffffffffffffffffffffffffff\n      and\n      dup2\n      mstore\n      0x20\n      add\n      swap1\n      dup2\n      mstore\n      0x20\n      add\n      0x00\n      keccak256\n      0x00\n      swap1\n      sload\n      swap1\n      0x0100\n      exp\n      swap1\n      div\n      0xff\n      and\n        /* \"contracts/Auth.sol\":568:589  return _admins[_addr] */\n      swap1\n      pop\n        /* \"contracts/Auth.sol\":499:596  function isAdmin(address _addr) public view returns (bool) {... */\n      swap2\n      swap1\n      pop\n      jump\t// out\n        /* \"contracts/Constant.sol\":2229:2317  function getRendering() external view returns (uint16) {... */\n    tag_41:\n        /* \"contracts/Constant.sol\":2276:2282  uint16 */\n      0x00\n        /* \"contracts/Constant.sol\":2301:2310  rendering */\n      0x03\n      0x02\n      swap1\n      sload\n      swap1\n      0x0100\n      exp\n      swap1\n      div\n      0xffff\n      and\n        /* \"contracts/Constant.sol\":2294:2310  return rendering */\n      swap1\n      pop\n        /* \"contracts/Constant.sol\":2229:2317  function getRendering() external view returns (uint16) {... */\n      swap1\n      jump\t// out\n        /* \"contracts/Constant.sol\":2028:2135  function getTotalTokenIssuance() external view returns (uint256) {... */\n    tag_44:\n        /* \"contracts/Constant.sol\":2084:2091  uint256 */\n      0x00\n        /* \"contracts/Constant.sol\":2110:2128  totalTokenIssuance */\n      sload(0x02)\n        /* \"contracts/Constant.sol\":2103:2128  return totalTokenIssuance */\n      swap1\n      pop\n        /* \"contracts/Constant.sol\":2028:2135  function getTotalTokenIssuance() external view returns (uint256) {... */\n      swap1\n      jump\t// out\n        /* \"contracts/Constant.sol\":2852:2942  function getCpuWeights() external view returns (uint16) {... */\n    tag_48:\n        /* \"contracts/Constant.sol\":2900:2906  uint16 */\n      0x00\n        /* \"contracts/Constant.sol\":2925:2935  cpuWeights */\n      0x03\n      0x10\n      swap1\n      sload\n      swap1\n      0x0100\n      exp\n      swap1\n      div\n      0xffff\n      and\n        /* \"contracts/Constant.sol\":2918:2935  return cpuWeights */\n      swap1\n      pop\n        /* \"contracts/Constant.sol\":2852:2942  function getCpuWeights() external view returns (uint16) {... */\n      swap1\n      jump\t// out\n        /* \"contracts/Constant.sol\":2495:2574  function getMemory() external view returns (uint16) {... */\n    tag_51:\n        /* \"contracts/Constant.sol\":2539:2545  uint16 */\n      0x00\n        /* \"contracts/Constant.sol\":2564:2567  mem */\n      0x03\n      0x08\n      swap1\n      sload\n      swap1\n      0x0100\n      exp\n      swap1\n      div\n      0xffff\n      and\n        /* \"contracts/Constant.sol\":2557:2567  return mem */\n      swap1\n      pop\n        /* \"contracts/Constant.sol\":2495:2574  function getMemory() external view returns (uint16) {... */\n      swap1\n      jump\t// out\n        /* \"contracts/Constant.sol\":2323:2407  function getOffline() external view returns (uint16) {... */\n    tag_54:\n        /* \"contracts/Constant.sol\":2368:2374  uint16 */\n      0x00\n        /* \"contracts/Constant.sol\":2393:2400  offline */\n      0x03\n      0x04\n      swap1\n      sload\n      swap1\n      0x0100\n      exp\n      swap1\n      div\n      0xffff\n      and\n        /* \"contracts/Constant.sol\":2386:2400  return offline */\n      swap1\n      pop\n        /* \"contracts/Constant.sol\":2323:2407  function getOffline() external view returns (uint16) {... */\n      swap1\n      jump\t// out\n        /* \"contracts/Auth.sol\":402:493  function delAdmin(address _admin) public onlyOwner {... */\n    tag_58:\n        /* \"@openzeppelin/contracts/access/Ownable.sol\":1094:1107  _checkOwner() */\n      tag_118\n        /* \"@openzeppelin/contracts/access/Ownable.sol\":1094:1105  _checkOwner */\n      tag_119\n        /* \"@openzeppelin/contracts/access/Ownable.sol\":1094:1107  _checkOwner() */\n      jump\t// in\n    tag_118:\n        /* \"contracts/Auth.sol\":481:486  false */\n      0x00\n        /* \"contracts/Auth.sol\":463:470  _admins */\n      0x01\n        /* \"contracts/Auth.sol\":463:478  _admins[_admin] */\n      0x00\n        /* \"contracts/Auth.sol\":471:477  _admin */\n      dup4\n        /* \"contracts/Auth.sol\":463:478  _admins[_admin] */\n      0xffffffffffffffffffffffffffffffffffffffff\n      and\n      0xffffffffffffffffffffffffffffffffffffffff\n      and\n      dup2\n      mstore\n      0x20\n      add\n      swap1\n      dup2\n      mstore\n      0x20\n      add\n      0x00\n      keccak256\n      0x00\n        /* \"contracts/Auth.sol\":463:486  _admins[_admin] = false */\n      0x0100\n      exp\n      dup2\n      sload\n      dup2\n      0xff\n      mul\n      not\n      and\n      swap1\n      dup4\n      iszero\n      iszero\n      mul\n      or\n      swap1\n      sstore\n      pop\n        /* \"contracts/Auth.sol\":402:493  function delAdmin(address _admin) public onlyOwner {... */\n      pop\n      jump\t// out\n        /* \"contracts/Constant.sol\":2141:2223  function getOnline() external view returns (uint16) {... */\n    tag_60:\n        /* \"contracts/Constant.sol\":2185:2191  uint16 */\n      0x00\n        /* \"contracts/Constant.sol\":2210:2216  online */\n      0x03\n      0x00\n      swap1\n      sload\n      swap1\n      0x0100\n      exp\n      swap1\n      div\n      0xffff\n      and\n        /* \"contracts/Constant.sol\":2203:2216  return online */\n      swap1\n      pop\n        /* \"contracts/Constant.sol\":2141:2223  function getOnline() external view returns (uint16) {... */\n      swap1\n      jump\t// out\n        /* \"contracts/Auth.sol\":306:396  function addAdmin(address _admin) public onlyOwner {... */\n    tag_64:\n        /* \"@openzeppelin/contracts/access/Ownable.sol\":1094:1107  _checkOwner() */\n      tag_123\n        /* \"@openzeppelin/contracts/access/Ownable.sol\":1094:1105  _checkOwner */\n      tag_119\n        /* \"@openzeppelin/contracts/access/Ownable.sol\":1094:1107  _checkOwner() */\n      jump\t// in\n    tag_123:\n        /* \"contracts/Auth.sol\":385:389  true */\n      0x01\n        /* \"contracts/Auth.sol\":367:374  _admins */\n      dup1\n        /* \"contracts/Auth.sol\":367:382  _admins[_admin] */\n      0x00\n        /* \"contracts/Auth.sol\":375:381  _admin */\n      dup4\n        /* \"contracts/Auth.sol\":367:382  _admins[_admin] */\n      0xffffffffffffffffffffffffffffffffffffffff\n      and\n      0xffffffffffffffffffffffffffffffffffffffff\n      and\n      dup2\n      mstore\n      0x20\n      add\n      swap1\n      dup2\n      mstore\n      0x20\n      add\n      0x00\n      keccak256\n      0x00\n        /* \"contracts/Auth.sol\":367:389  _admins[_admin] = true */\n      0x0100\n      exp\n      dup2\n      sload\n      dup2\n      0xff\n      mul\n      not\n      and\n      swap1\n      dup4\n      iszero\n      iszero\n      mul\n      or\n      swap1\n      sstore\n      pop\n        /* \"contracts/Auth.sol\":306:396  function addAdmin(address _admin) public onlyOwner {... */\n      pop\n      jump\t// out\n        /* \"@openzeppelin/contracts/access/Ownable.sol\":1831:1932  function renounceOwnership() public virtual onlyOwner {... */\n    tag_66:\n        /* \"@openzeppelin/contracts/access/Ownable.sol\":1094:1107  _checkOwner() */\n      tag_126\n        /* \"@openzeppelin/contracts/access/Ownable.sol\":1094:1105  _checkOwner */\n      tag_119\n        /* \"@openzeppelin/contracts/access/Ownable.sol\":1094:1107  _checkOwner() */\n      jump\t// in\n    tag_126:\n        /* \"@openzeppelin/contracts/access/Ownable.sol\":1895:1925  _transferOwnership(address(0)) */\n      tag_128\n        /* \"@openzeppelin/contracts/access/Ownable.sol\":1922:1923  0 */\n      0x00\n        /* \"@openzeppelin/contracts/access/Ownable.sol\":1895:1913  _transferOwnership */\n      tag_129\n        /* \"@openzeppelin/contracts/access/Ownable.sol\":1895:1925  _transferOwnership(address(0)) */\n      jump\t// in\n    tag_128:\n        /* \"@openzeppelin/contracts/access/Ownable.sol\":1831:1932  function renounceOwnership() public virtual onlyOwner {... */\n      jump\t// out\n        /* \"contracts/Constant.sol\":1176:1283  function setRes(uint256 status) external checkStatusValue(status){... */\n    tag_70:\n        /* \"contracts/Constant.sol\":1234:1240  status */\n      dup1\n        /* \"contracts/Constant.sol\":963:964  1 */\n      0x01\n        /* \"contracts/Constant.sol\":953:959  status */\n      dup2\n        /* \"contracts/Constant.sol\":953:964  status == 1 */\n      eq\n        /* \"contracts/Constant.sol\":953:979  status == 1 || status == 2 */\n      dup1\n      tag_131\n      jumpi\n      pop\n        /* \"contracts/Constant.sol\":978:979  2 */\n      0x02\n        /* \"contracts/Constant.sol\":968:974  status */\n      dup2\n        /* \"contracts/Constant.sol\":968:979  status == 2 */\n      eq\n        /* \"contracts/Constant.sol\":953:979  status == 1 || status == 2 */\n    tag_131:\n        /* \"contracts/Constant.sol\":953:994  status == 1 || status == 2 || status == 3 */\n      dup1\n      tag_132\n      jumpi\n      pop\n        /* \"contracts/Constant.sol\":993:994  3 */\n      0x03\n        /* \"contracts/Constant.sol\":983:989  status */\n      dup2\n        /* \"contracts/Constant.sol\":983:994  status == 3 */\n      eq\n        /* \"contracts/Constant.sol\":953:994  status == 1 || status == 2 || status == 3 */\n    tag_132:\n        /* \"contracts/Constant.sol\":953:1009  status == 1 || status == 2 || status == 3 || status == 4 */\n      dup1\n      tag_133\n      jumpi\n      pop\n        /* \"contracts/Constant.sol\":1008:1009  4 */\n      0x04\n        /* \"contracts/Constant.sol\":998:1004  status */\n      dup2\n        /* \"contracts/Constant.sol\":998:1009  status == 4 */\n      eq\n        /* \"contracts/Constant.sol\":953:1009  status == 1 || status == 2 || status == 3 || status == 4 */\n    tag_133:\n        /* \"contracts/Constant.sol\":953:1024  status == 1 || status == 2 || status == 3 || status == 4 || status == 0 */\n      dup1\n      tag_134\n      jumpi\n      pop\n        /* \"contracts/Constant.sol\":1023:1024  0 */\n      0x00\n        /* \"contracts/Constant.sol\":1013:1019  status */\n      dup2\n        /* \"contracts/Constant.sol\":1013:1024  status == 0 */\n      eq\n        /* \"contracts/Constant.sol\":953:1024  status == 1 || status == 2 || status == 3 || status == 4 || status == 0 */\n    tag_134:\n        /* \"contracts/Constant.sol\":949:1153  if (status == 1 || status == 2 || status == 3 || status == 4 || status == 0) {... */\n      iszero\n      tag_135\n      jumpi\n        /* \"contracts/Constant.sol\":1048:1052  true */\n      0x01\n        /* \"contracts/Constant.sol\":1040:1074  require(true, \"Legal field value\") */\n      tag_136\n      jumpi\n      mload(0x40)\n      0x08c379a000000000000000000000000000000000000000000000000000000000\n      dup2\n      mstore\n      0x04\n      add\n      tag_137\n      swap1\n      tag_138\n      jump\t// in\n    tag_137:\n      mload(0x40)\n      dup1\n      swap2\n      sub\n      swap1\n      revert\n    tag_136:\n        /* \"contracts/Constant.sol\":949:1153  if (status == 1 || status == 2 || status == 3 || status == 4 || status == 0) {... */\n      jump(tag_139)\n    tag_135:\n        /* \"contracts/Constant.sol\":1113:1118  false */\n      0x00\n        /* \"contracts/Constant.sol\":1105:1142  require(false, \"Invalid field value\") */\n      tag_140\n      jumpi\n      mload(0x40)\n      0x08c379a000000000000000000000000000000000000000000000000000000000\n      dup2\n      mstore\n      0x04\n      add\n      tag_141\n      swap1\n      tag_142\n      jump\t// in\n    tag_141:\n      mload(0x40)\n      dup1\n      swap2\n      sub\n      swap1\n      revert\n    tag_140:\n        /* \"contracts/Constant.sol\":949:1153  if (status == 1 || status == 2 || status == 3 || status == 4 || status == 0) {... */\n    tag_139:\n        /* \"contracts/Constant.sol\":1270:1276  status */\n      dup2\n        /* \"contracts/Constant.sol\":1251:1267  stakeAmountLimit */\n      0x04\n        /* \"contracts/Constant.sol\":1251:1276  stakeAmountLimit = status */\n      dup2\n      swap1\n      sstore\n      pop\n        /* \"contracts/Constant.sol\":1176:1283  function setRes(uint256 status) external checkStatusValue(status){... */\n      pop\n      pop\n      jump\t// out\n        /* \"@openzeppelin/contracts/access/Ownable.sol\":1201:1286  function owner() public view virtual returns (address) {... */\n    tag_72:\n        /* \"@openzeppelin/contracts/access/Ownable.sol\":1247:1254  address */\n      0x00\n        /* \"@openzeppelin/contracts/access/Ownable.sol\":1273:1279  _owner */\n      dup1\n      0x00\n      swap1\n      sload\n      swap1\n      0x0100\n      exp\n      swap1\n      div\n      0xffffffffffffffffffffffffffffffffffffffff\n      and\n        /* \"@openzeppelin/contracts/access/Ownable.sol\":1266:1279  return _owner */\n      swap1\n      pop\n        /* \"@openzeppelin/contracts/access/Ownable.sol\":1201:1286  function owner() public view virtual returns (address) {... */\n      swap1\n      jump\t// out\n        /* \"contracts/Constant.sol\":1393:2022  function getAllCons()... */\n    tag_76:\n        /* \"contracts/Constant.sol\":1475:1481  uint16 */\n      0x00\n        /* \"contracts/Constant.sol\":1495:1501  uint16 */\n      dup1\n        /* \"contracts/Constant.sol\":1515:1521  uint16 */\n      0x00\n        /* \"contracts/Constant.sol\":1535:1541  uint16 */\n      dup1\n        /* \"contracts/Constant.sol\":1555:1561  uint16 */\n      0x00\n        /* \"contracts/Constant.sol\":1575:1581  uint16 */\n      dup1\n        /* \"contracts/Constant.sol\":1595:1601  uint16 */\n      0x00\n        /* \"contracts/Constant.sol\":1615:1621  uint16 */\n      dup1\n        /* \"contracts/Constant.sol\":1635:1641  uint16 */\n      0x00\n        /* \"contracts/Constant.sol\":1655:1661  uint16 */\n      dup1\n        /* \"contracts/Constant.sol\":1675:1681  uint16 */\n      0x00\n        /* \"contracts/Constant.sol\":1695:1701  uint16 */\n      dup1\n        /* \"contracts/Constant.sol\":1747:1753  online */\n      0x03\n      0x00\n      swap1\n      sload\n      swap1\n      0x0100\n      exp\n      swap1\n      div\n      0xffff\n      and\n        /* \"contracts/Constant.sol\":1767:1776  rendering */\n      0x03\n      0x02\n      swap1\n      sload\n      swap1\n      0x0100\n      exp\n      swap1\n      div\n      0xffff\n      and\n        /* \"contracts/Constant.sol\":1790:1797  offline */\n      0x03\n      0x04\n      swap1\n      sload\n      swap1\n      0x0100\n      exp\n      swap1\n      div\n      0xffff\n      and\n        /* \"contracts/Constant.sol\":1811:1814  cpu */\n      0x03\n      0x06\n      swap1\n      sload\n      swap1\n      0x0100\n      exp\n      swap1\n      div\n      0xffff\n      and\n        /* \"contracts/Constant.sol\":1828:1831  mem */\n      0x03\n      0x08\n      swap1\n      sload\n      swap1\n      0x0100\n      exp\n      swap1\n      div\n      0xffff\n      and\n        /* \"contracts/Constant.sol\":1845:1857  graphicsCard */\n      0x03\n      0x0a\n      swap1\n      sload\n      swap1\n      0x0100\n      exp\n      swap1\n      div\n      0xffff\n      and\n        /* \"contracts/Constant.sol\":1871:1879  hardDisk */\n      0x03\n      0x0c\n      swap1\n      sload\n      swap1\n      0x0100\n      exp\n      swap1\n      div\n      0xffff\n      and\n        /* \"contracts/Constant.sol\":1893:1895  ip */\n      0x03\n      0x0e\n      swap1\n      sload\n      swap1\n      0x0100\n      exp\n      swap1\n      div\n      0xffff\n      and\n        /* \"contracts/Constant.sol\":1909:1919  cpuWeights */\n      0x03\n      0x10\n      swap1\n      sload\n      swap1\n      0x0100\n      exp\n      swap1\n      div\n      0xffff\n      and\n        /* \"contracts/Constant.sol\":1933:1943  memWeights */\n      0x03\n      0x12\n      swap1\n      sload\n      swap1\n      0x0100\n      exp\n      swap1\n      div\n      0xffff\n      and\n        /* \"contracts/Constant.sol\":1957:1976  graphicsCardWeights */\n      0x03\n      0x14\n      swap1\n      sload\n      swap1\n      0x0100\n      exp\n      swap1\n      div\n      0xffff\n      and\n        /* \"contracts/Constant.sol\":1990:2005  hardDiskWeights */\n      0x03\n      0x16\n      swap1\n      sload\n      swap1\n      0x0100\n      exp\n      swap1\n      div\n      0xffff\n      and\n        /* \"contracts/Constant.sol\":1726:2015  return (... */\n      swap12\n      pop\n      swap12\n      pop\n      swap12\n      pop\n      swap12\n      pop\n      swap12\n      pop\n      swap12\n      pop\n      swap12\n      pop\n      swap12\n      pop\n      swap12\n      pop\n      swap12\n      pop\n      swap12\n      pop\n      swap12\n      pop\n        /* \"contracts/Constant.sol\":1393:2022  function getAllCons()... */\n      swap1\n      swap2\n      swap3\n      swap4\n      swap5\n      swap6\n      swap7\n      swap8\n      swap9\n      swap10\n      swap11\n      swap12\n      jump\t// out\n        /* \"contracts/Constant.sol\":3044:3152  function getGraphicsCardWeights() external view returns (uint16) {... */\n    tag_80:\n        /* \"contracts/Constant.sol\":3101:3107  uint16 */\n      0x00\n        /* \"contracts/Constant.sol\":3126:3145  graphicsCardWeights */\n      0x03\n      0x14\n      swap1\n      sload\n      swap1\n      0x0100\n      exp\n      swap1\n      div\n      0xffff\n      and\n        /* \"contracts/Constant.sol\":3119:3145  return graphicsCardWeights */\n      swap1\n      pop\n        /* \"contracts/Constant.sol\":3044:3152  function getGraphicsCardWeights() external view returns (uint16) {... */\n      swap1\n      jump\t// out\n        /* \"contracts/Constant.sol\":2772:2846  function getIP() external view returns (uint16) {... */\n    tag_83:\n        /* \"contracts/Constant.sol\":2812:2818  uint16 */\n      0x00\n        /* \"contracts/Constant.sol\":2837:2839  ip */\n      0x03\n      0x0e\n      swap1\n      sload\n      swap1\n      0x0100\n      exp\n      swap1\n      div\n      0xffff\n      and\n        /* \"contracts/Constant.sol\":2830:2839  return ip */\n      swap1\n      pop\n        /* \"contracts/Constant.sol\":2772:2846  function getIP() external view returns (uint16) {... */\n      swap1\n      jump\t// out\n        /* \"contracts/Constant.sol\":3264:3367  function getStakeAmountLimit() external view returns (uint256) {... */\n    tag_86:\n        /* \"contracts/Constant.sol\":3318:3325  uint256 */\n      0x00\n        /* \"contracts/Constant.sol\":3344:3360  stakeAmountLimit */\n      sload(0x04)\n        /* \"contracts/Constant.sol\":3337:3360  return stakeAmountLimit */\n      swap1\n      pop\n        /* \"contracts/Constant.sol\":3264:3367  function getStakeAmountLimit() external view returns (uint256) {... */\n      swap1\n      jump\t// out\n        /* \"contracts/Constant.sol\":1289:1387  function returnRes() external view returns(uint256){... */\n    tag_89:\n        /* \"contracts/Constant.sol\":1332:1339  uint256 */\n      0x00\n        /* \"contracts/Constant.sol\":1357:1380  stakeAmountLimit.sub(1) */\n      tag_150\n        /* \"contracts/Constant.sol\":1378:1379  1 */\n      0x01\n        /* \"contracts/Constant.sol\":1357:1373  stakeAmountLimit */\n      sload(0x04)\n        /* \"contracts/Constant.sol\":1357:1377  stakeAmountLimit.sub */\n      tag_151\n      swap1\n        /* \"contracts/Constant.sol\":1357:1380  stakeAmountLimit.sub(1) */\n      swap2\n      swap1\n      0xffffffff\n      and\n      jump\t// in\n    tag_150:\n        /* \"contracts/Constant.sol\":1350:1380  return stakeAmountLimit.sub(1) */\n      swap1\n      pop\n        /* \"contracts/Constant.sol\":1289:1387  function returnRes() external view returns(uint256){... */\n      swap1\n      jump\t// out\n        /* \"contracts/Constant.sol\":2580:2674  function getGraphicsCard() external view returns (uint16) {... */\n    tag_92:\n        /* \"contracts/Constant.sol\":2630:2636  uint16 */\n      0x00\n        /* \"contracts/Constant.sol\":2655:2667  graphicsCard */\n      0x03\n      0x0a\n      swap1\n      sload\n      swap1\n      0x0100\n      exp\n      swap1\n      div\n      0xffff\n      and\n        /* \"contracts/Constant.sol\":2648:2667  return graphicsCard */\n      swap1\n      pop\n        /* \"contracts/Constant.sol\":2580:2674  function getGraphicsCard() external view returns (uint16) {... */\n      swap1\n      jump\t// out\n        /* \"contracts/Constant.sol\":2413:2489  function getCpu() external view returns (uint16) {... */\n    tag_95:\n        /* \"contracts/Constant.sol\":2454:2460  uint16 */\n      0x00\n        /* \"contracts/Constant.sol\":2479:2482  cpu */\n      0x03\n      0x06\n      swap1\n      sload\n      swap1\n      0x0100\n      exp\n      swap1\n      div\n      0xffff\n      and\n        /* \"contracts/Constant.sol\":2472:2482  return cpu */\n      swap1\n      pop\n        /* \"contracts/Constant.sol\":2413:2489  function getCpu() external view returns (uint16) {... */\n      swap1\n      jump\t// out\n        /* \"contracts/Constant.sol\":2680:2766  function getHardDisk() external view returns (uint16) {... */\n    tag_98:\n        /* \"contracts/Constant.sol\":2726:2732  uint16 */\n      0x00\n        /* \"contracts/Constant.sol\":2751:2759  hardDisk */\n      0x03\n      0x0c\n      swap1\n      sload\n      swap1\n      0x0100\n      exp\n      swap1\n      div\n      0xffff\n      and\n        /* \"contracts/Constant.sol\":2744:2759  return hardDisk */\n      swap1\n      pop\n        /* \"contracts/Constant.sol\":2680:2766  function getHardDisk() external view returns (uint16) {... */\n      swap1\n      jump\t// out\n        /* \"contracts/Constant.sol\":2948:3038  function getMemWeights() external view returns (uint16) {... */\n    tag_101:\n        /* \"contracts/Constant.sol\":2996:3002  uint16 */\n      0x00\n        /* \"contracts/Constant.sol\":3021:3031  memWeights */\n      0x03\n      0x12\n      swap1\n      sload\n      swap1\n      0x0100\n      exp\n      swap1\n      div\n      0xffff\n      and\n        /* \"contracts/Constant.sol\":3014:3031  return memWeights */\n      swap1\n      pop\n        /* \"contracts/Constant.sol\":2948:3038  function getMemWeights() external view returns (uint16) {... */\n      swap1\n      jump\t// out\n        /* \"contracts/Constant.sol\":3373:3527  function setStakeAmountLimit(... */\n    tag_105:\n        /* \"contracts/Constant.sol\":3459:3463  bool */\n      0x00\n        /* \"contracts/Auth.sol\":236:243  _admins */\n      0x01\n        /* \"contracts/Auth.sol\":236:255  _admins[msg.sender] */\n      0x00\n        /* \"contracts/Auth.sol\":244:254  msg.sender */\n      caller\n        /* \"contracts/Auth.sol\":236:255  _admins[msg.sender] */\n      0xffffffffffffffffffffffffffffffffffffffff\n      and\n      0xffffffffffffffffffffffffffffffffffffffff\n      and\n      dup2\n      mstore\n      0x20\n      add\n      swap1\n      dup2\n      mstore\n      0x20\n      add\n      0x00\n      keccak256\n      0x00\n      swap1\n      sload\n      swap1\n      0x0100\n      exp\n      swap1\n      div\n      0xff\n      and\n        /* \"contracts/Auth.sol\":228:282  require(_admins[msg.sender], \"Only admin can call it\") */\n      tag_157\n      jumpi\n      mload(0x40)\n      0x08c379a000000000000000000000000000000000000000000000000000000000\n      dup2\n      mstore\n      0x04\n      add\n      tag_158\n      swap1\n      tag_159\n      jump\t// in\n    tag_158:\n      mload(0x40)\n      dup1\n      swap2\n      sub\n      swap1\n      revert\n    tag_157:\n        /* \"contracts/Constant.sol\":3494:3499  value */\n      dup2\n        /* \"contracts/Constant.sol\":3475:3491  stakeAmountLimit */\n      0x04\n        /* \"contracts/Constant.sol\":3475:3499  stakeAmountLimit = value */\n      dup2\n      swap1\n      sstore\n      pop\n        /* \"contracts/Constant.sol\":3516:3520  true */\n      0x01\n        /* \"contracts/Constant.sol\":3509:3520  return true */\n      swap1\n      pop\n        /* \"contracts/Constant.sol\":3373:3527  function setStakeAmountLimit(... */\n      swap2\n      swap1\n      pop\n      jump\t// out\n        /* \"@openzeppelin/contracts/access/Ownable.sol\":2081:2279  function transferOwnership(address newOwner) public virtual onlyOwner {... */\n    tag_109:\n        /* \"@openzeppelin/contracts/access/Ownable.sol\":1094:1107  _checkOwner() */\n      tag_162\n        /* \"@openzeppelin/contracts/access/Ownable.sol\":1094:1105  _checkOwner */\n      tag_119\n        /* \"@openzeppelin/contracts/access/Ownable.sol\":1094:1107  _checkOwner() */\n      jump\t// in\n    tag_162:\n        /* \"@openzeppelin/contracts/access/Ownable.sol\":2189:2190  0 */\n      0x00\n        /* \"@openzeppelin/contracts/access/Ownable.sol\":2169:2191  newOwner != address(0) */\n      0xffffffffffffffffffffffffffffffffffffffff\n      and\n        /* \"@openzeppelin/contracts/access/Ownable.sol\":2169:2177  newOwner */\n      dup2\n        /* \"@openzeppelin/contracts/access/Ownable.sol\":2169:2191  newOwner != address(0) */\n      0xffffffffffffffffffffffffffffffffffffffff\n      and\n      sub\n        /* \"@openzeppelin/contracts/access/Ownable.sol\":2161:2234  require(newOwner != address(0), \"Ownable: new owner is the zero address\") */\n      tag_164\n      jumpi\n      mload(0x40)\n      0x08c379a000000000000000000000000000000000000000000000000000000000\n      dup2\n      mstore\n      0x04\n      add\n      tag_165\n      swap1\n      tag_166\n      jump\t// in\n    tag_165:\n      mload(0x40)\n      dup1\n      swap2\n      sub\n      swap1\n      revert\n    tag_164:\n        /* \"@openzeppelin/contracts/access/Ownable.sol\":2244:2272  _transferOwnership(newOwner) */\n      tag_167\n        /* \"@openzeppelin/contracts/access/Ownable.sol\":2263:2271  newOwner */\n      dup2\n        /* \"@openzeppelin/contracts/access/Ownable.sol\":2244:2262  _transferOwnership */\n      tag_129\n        /* \"@openzeppelin/contracts/access/Ownable.sol\":2244:2272  _transferOwnership(newOwner) */\n      jump\t// in\n    tag_167:\n        /* \"@openzeppelin/contracts/access/Ownable.sol\":2081:2279  function transferOwnership(address newOwner) public virtual onlyOwner {... */\n      pop\n      jump\t// out\n        /* \"@openzeppelin/contracts/access/Ownable.sol\":1359:1489  function _checkOwner() internal view virtual {... */\n    tag_119:\n        /* \"@openzeppelin/contracts/access/Ownable.sol\":1433:1445  _msgSender() */\n      tag_169\n        /* \"@openzeppelin/contracts/access/Ownable.sol\":1433:1443  _msgSender */\n      tag_170\n        /* \"@openzeppelin/contracts/access/Ownable.sol\":1433:1445  _msgSender() */\n      jump\t// in\n    tag_169:\n        /* \"@openzeppelin/contracts/access/Ownable.sol\":1422:1445  owner() == _msgSender() */\n      0xffffffffffffffffffffffffffffffffffffffff\n      and\n        /* \"@openzeppelin/contracts/access/Ownable.sol\":1422:1429  owner() */\n      tag_171\n        /* \"@openzeppelin/contracts/access/Ownable.sol\":1422:1427  owner */\n      tag_72\n        /* \"@openzeppelin/contracts/access/Ownable.sol\":1422:1429  owner() */\n      jump\t// in\n    tag_171:\n        /* \"@openzeppelin/contracts/access/Ownable.sol\":1422:1445  owner() == _msgSender() */\n      0xffffffffffffffffffffffffffffffffffffffff\n      and\n      eq\n        /* \"@openzeppelin/contracts/access/Ownable.sol\":1414:1482  require(owner() == _msgSender(), \"Ownable: caller is not the owner\") */\n      tag_172\n      jumpi\n      mload(0x40)\n      0x08c379a000000000000000000000000000000000000000000000000000000000\n      dup2\n      mstore\n      0x04\n      add\n      tag_173\n      swap1\n      tag_174\n      jump\t// in\n    tag_173:\n      mload(0x40)\n      dup1\n      swap2\n      sub\n      swap1\n      revert\n    tag_172:\n        /* \"@openzeppelin/contracts/access/Ownable.sol\":1359:1489  function _checkOwner() internal view virtual {... */\n      jump\t// out\n        /* \"@openzeppelin/contracts/access/Ownable.sol\":2433:2620  function _transferOwnership(address newOwner) internal virtual {... */\n    tag_129:\n        /* \"@openzeppelin/contracts/access/Ownable.sol\":2506:2522  address oldOwner */\n      0x00\n        /* \"@openzeppelin/contracts/access/Ownable.sol\":2525:2531  _owner */\n      dup1\n      0x00\n      swap1\n      sload\n      swap1\n      0x0100\n      exp\n      swap1\n      div\n      0xffffffffffffffffffffffffffffffffffffffff\n      and\n        /* \"@openzeppelin/contracts/access/Ownable.sol\":2506:2531  address oldOwner = _owner */\n      swap1\n      pop\n        /* \"@openzeppelin/contracts/access/Ownable.sol\":2550:2558  newOwner */\n      dup2\n        /* \"@openzeppelin/contracts/access/Ownable.sol\":2541:2547  _owner */\n      0x00\n      dup1\n        /* \"@openzeppelin/contracts/access/Ownable.sol\":2541:2558  _owner = newOwner */\n      0x0100\n      exp\n      dup2\n      sload\n      dup2\n      0xffffffffffffffffffffffffffffffffffffffff\n      mul\n      not\n      and\n      swap1\n      dup4\n      0xffffffffffffffffffffffffffffffffffffffff\n      and\n      mul\n      or\n      swap1\n      sstore\n      pop\n        /* \"@openzeppelin/contracts/access/Ownable.sol\":2604:2612  newOwner */\n      dup2\n        /* \"@openzeppelin/contracts/access/Ownable.sol\":2573:2613  OwnershipTransferred(oldOwner, newOwner) */\n      0xffffffffffffffffffffffffffffffffffffffff\n      and\n        /* \"@openzeppelin/contracts/access/Ownable.sol\":2594:2602  oldOwner */\n      dup2\n        /* \"@openzeppelin/contracts/access/Ownable.sol\":2573:2613  OwnershipTransferred(oldOwner, newOwner) */\n      0xffffffffffffffffffffffffffffffffffffffff\n      and\n      0x8be0079c531659141344cd1fd0a4f28419497f9722a3daafe3b4186f6b6457e0\n      mload(0x40)\n      mload(0x40)\n      dup1\n      swap2\n      sub\n      swap1\n      log3\n        /* \"@openzeppelin/contracts/access/Ownable.sol\":2496:2620  {... */\n      pop\n        /* \"@openzeppelin/contracts/access/Ownable.sol\":2433:2620  function _transferOwnership(address newOwner) internal virtual {... */\n      pop\n      jump\t// out\n        /* \"contracts/Constant.sol\":6172:6268  function sub(uint256 a, uint256 b) internal pure returns (uint256) {... */\n    tag_151:\n        /* \"contracts/Constant.sol\":6230:6237  uint256 */\n      0x00\n        /* \"contracts/Constant.sol\":6260:6261  b */\n      dup2\n        /* \"contracts/Constant.sol\":6256:6257  a */\n      dup4\n        /* \"contracts/Constant.sol\":6256:6261  a - b */\n      tag_177\n      swap2\n      swap1\n      tag_178\n      jump\t// in\n    tag_177:\n        /* \"contracts/Constant.sol\":6249:6261  return a - b */\n      swap1\n      pop\n        /* \"contracts/Constant.sol\":6172:6268  function sub(uint256 a, uint256 b) internal pure returns (uint256) {... */\n      swap3\n      swap2\n      pop\n      pop\n      jump\t// out\n        /* \"@openzeppelin/contracts/utils/Context.sol\":640:736  function _msgSender() internal view virtual returns (address) {... */\n    tag_170:\n        /* \"@openzeppelin/contracts/utils/Context.sol\":693:700  address */\n      0x00\n        /* \"@openzeppelin/contracts/utils/Context.sol\":719:729  msg.sender */\n      caller\n        /* \"@openzeppelin/contracts/utils/Context.sol\":712:729  return msg.sender */\n      swap1\n      pop\n        /* \"@openzeppelin/contracts/utils/Context.sol\":640:736  function _msgSender() internal view virtual returns (address) {... */\n      swap1\n      jump\t// out\n        /* \"#utility.yul\":7:96   */\n    tag_180:\n        /* \"#utility.yul\":43:50   */\n      0x00\n        /* \"#utility.yul\":83:89   */\n      0xffff\n        /* \"#utility.yul\":76:81   */\n      dup3\n        /* \"#utility.yul\":72:90   */\n      and\n        /* \"#utility.yul\":61:90   */\n      swap1\n      pop\n        /* \"#utility.yul\":7:96   */\n      swap2\n      swap1\n      pop\n      jump\t// out\n        /* \"#utility.yul\":102:217   */\n    tag_181:\n        /* \"#utility.yul\":187:210   */\n      tag_211\n        /* \"#utility.yul\":204:209   */\n      dup2\n        /* \"#utility.yul\":187:210   */\n      tag_180\n      jump\t// in\n    tag_211:\n        /* \"#utility.yul\":182:185   */\n      dup3\n        /* \"#utility.yul\":175:211   */\n      mstore\n        /* \"#utility.yul\":102:217   */\n      pop\n      pop\n      jump\t// out\n        /* \"#utility.yul\":223:441   */\n    tag_33:\n        /* \"#utility.yul\":314:318   */\n      0x00\n        /* \"#utility.yul\":352:354   */\n      0x20\n        /* \"#utility.yul\":341:350   */\n      dup3\n        /* \"#utility.yul\":337:355   */\n      add\n        /* \"#utility.yul\":329:355   */\n      swap1\n      pop\n        /* \"#utility.yul\":365:434   */\n      tag_213\n        /* \"#utility.yul\":431:432   */\n      0x00\n        /* \"#utility.yul\":420:429   */\n      dup4\n        /* \"#utility.yul\":416:433   */\n      add\n        /* \"#utility.yul\":407:413   */\n      dup5\n        /* \"#utility.yul\":365:434   */\n      tag_181\n      jump\t// in\n    tag_213:\n        /* \"#utility.yul\":223:441   */\n      swap3\n      swap2\n      pop\n      pop\n      jump\t// out\n        /* \"#utility.yul\":528:645   */\n    tag_183:\n        /* \"#utility.yul\":637:638   */\n      0x00\n        /* \"#utility.yul\":634:635   */\n      dup1\n        /* \"#utility.yul\":627:639   */\n      revert\n        /* \"#utility.yul\":774:900   */\n    tag_185:\n        /* \"#utility.yul\":811:818   */\n      0x00\n        /* \"#utility.yul\":851:893   */\n      0xffffffffffffffffffffffffffffffffffffffff\n        /* \"#utility.yul\":844:849   */\n      dup3\n        /* \"#utility.yul\":840:894   */\n      and\n        /* \"#utility.yul\":829:894   */\n      swap1\n      pop\n        /* \"#utility.yul\":774:900   */\n      swap2\n      swap1\n      pop\n      jump\t// out\n        /* \"#utility.yul\":906:1002   */\n    tag_186:\n        /* \"#utility.yul\":943:950   */\n      0x00\n        /* \"#utility.yul\":972:996   */\n      tag_219\n        /* \"#utility.yul\":990:995   */\n      dup3\n        /* \"#utility.yul\":972:996   */\n      tag_185\n      jump\t// in\n    tag_219:\n        /* \"#utility.yul\":961:996   */\n      swap1\n      pop\n        /* \"#utility.yul\":906:1002   */\n      swap2\n      swap1\n      pop\n      jump\t// out\n        /* \"#utility.yul\":1008:1130   */\n    tag_187:\n        /* \"#utility.yul\":1081:1105   */\n      tag_221\n        /* \"#utility.yul\":1099:1104   */\n      dup2\n        /* \"#utility.yul\":1081:1105   */\n      tag_186\n      jump\t// in\n    tag_221:\n        /* \"#utility.yul\":1074:1079   */\n      dup2\n        /* \"#utility.yul\":1071:1106   */\n      eq\n        /* \"#utility.yul\":1061:1124   */\n      tag_222\n      jumpi\n        /* \"#utility.yul\":1120:1121   */\n      0x00\n        /* \"#utility.yul\":1117:1118   */\n      dup1\n        /* \"#utility.yul\":1110:1122   */\n      revert\n        /* \"#utility.yul\":1061:1124   */\n    tag_222:\n        /* \"#utility.yul\":1008:1130   */\n      pop\n      jump\t// out\n        /* \"#utility.yul\":1136:1275   */\n    tag_188:\n        /* \"#utility.yul\":1182:1187   */\n      0x00\n        /* \"#utility.yul\":1220:1226   */\n      dup2\n        /* \"#utility.yul\":1207:1227   */\n      calldataload\n        /* \"#utility.yul\":1198:1227   */\n      swap1\n      pop\n        /* \"#utility.yul\":1236:1269   */\n      tag_224\n        /* \"#utility.yul\":1263:1268   */\n      dup2\n        /* \"#utility.yul\":1236:1269   */\n      tag_187\n      jump\t// in\n    tag_224:\n        /* \"#utility.yul\":1136:1275   */\n      swap3\n      swap2\n      pop\n      pop\n      jump\t// out\n        /* \"#utility.yul\":1281:1610   */\n    tag_36:\n        /* \"#utility.yul\":1340:1346   */\n      0x00\n        /* \"#utility.yul\":1389:1391   */\n      0x20\n        /* \"#utility.yul\":1377:1386   */\n      dup3\n        /* \"#utility.yul\":1368:1375   */\n      dup5\n        /* \"#utility.yul\":1364:1387   */\n      sub\n        /* \"#utility.yul\":1360:1392   */\n      slt\n        /* \"#utility.yul\":1357:1476   */\n      iszero\n      tag_226\n      jumpi\n        /* \"#utility.yul\":1395:1474   */\n      tag_227\n      tag_183\n      jump\t// in\n    tag_227:\n        /* \"#utility.yul\":1357:1476   */\n    tag_226:\n        /* \"#utility.yul\":1515:1516   */\n      0x00\n        /* \"#utility.yul\":1540:1593   */\n      tag_228\n        /* \"#utility.yul\":1585:1592   */\n      dup5\n        /* \"#utility.yul\":1576:1582   */\n      dup3\n        /* \"#utility.yul\":1565:1574   */\n      dup6\n        /* \"#utility.yul\":1561:1583   */\n      add\n        /* \"#utility.yul\":1540:1593   */\n      tag_188\n      jump\t// in\n    tag_228:\n        /* \"#utility.yul\":1530:1593   */\n      swap2\n      pop\n        /* \"#utility.yul\":1486:1603   */\n      pop\n        /* \"#utility.yul\":1281:1610   */\n      swap3\n      swap2\n      pop\n      pop\n      jump\t// out\n        /* \"#utility.yul\":1616:1706   */\n    tag_189:\n        /* \"#utility.yul\":1650:1657   */\n      0x00\n        /* \"#utility.yul\":1693:1698   */\n      dup2\n        /* \"#utility.yul\":1686:1699   */\n      iszero\n        /* \"#utility.yul\":1679:1700   */\n      iszero\n        /* \"#utility.yul\":1668:1700   */\n      swap1\n      pop\n        /* \"#utility.yul\":1616:1706   */\n      swap2\n      swap1\n      pop\n      jump\t// out\n        /* \"#utility.yul\":1712:1821   */\n    tag_190:\n        /* \"#utility.yul\":1793:1814   */\n      tag_231\n        /* \"#utility.yul\":1808:1813   */\n      dup2\n        /* \"#utility.yul\":1793:1814   */\n      tag_189\n      jump\t// in\n    tag_231:\n        /* \"#utility.yul\":1788:1791   */\n      dup3\n        /* \"#utility.yul\":1781:1815   */\n      mstore\n        /* \"#utility.yul\":1712:1821   */\n      pop\n      pop\n      jump\t// out\n        /* \"#utility.yul\":1827:2037   */\n    tag_39:\n        /* \"#utility.yul\":1914:1918   */\n      0x00\n        /* \"#utility.yul\":1952:1954   */\n      0x20\n        /* \"#utility.yul\":1941:1950   */\n      dup3\n        /* \"#utility.yul\":1937:1955   */\n      add\n        /* \"#utility.yul\":1929:1955   */\n      swap1\n      pop\n        /* \"#utility.yul\":1965:2030   */\n      tag_233\n        /* \"#utility.yul\":2027:2028   */\n      0x00\n        /* \"#utility.yul\":2016:2025   */\n      dup4\n        /* \"#utility.yul\":2012:2029   */\n      add\n        /* \"#utility.yul\":2003:2009   */\n      dup5\n        /* \"#utility.yul\":1965:2030   */\n      tag_190\n      jump\t// in\n    tag_233:\n        /* \"#utility.yul\":1827:2037   */\n      swap3\n      swap2\n      pop\n      pop\n      jump\t// out\n        /* \"#utility.yul\":2043:2120   */\n    tag_191:\n        /* \"#utility.yul\":2080:2087   */\n      0x00\n        /* \"#utility.yul\":2109:2114   */\n      dup2\n        /* \"#utility.yul\":2098:2114   */\n      swap1\n      pop\n        /* \"#utility.yul\":2043:2120   */\n      swap2\n      swap1\n      pop\n      jump\t// out\n        /* \"#utility.yul\":2126:2244   */\n    tag_192:\n        /* \"#utility.yul\":2213:2237   */\n      tag_236\n        /* \"#utility.yul\":2231:2236   */\n      dup2\n        /* \"#utility.yul\":2213:2237   */\n      tag_191\n      jump\t// in\n    tag_236:\n        /* \"#utility.yul\":2208:2211   */\n      dup3\n        /* \"#utility.yul\":2201:2238   */\n      mstore\n        /* \"#utility.yul\":2126:2244   */\n      pop\n      pop\n      jump\t// out\n        /* \"#utility.yul\":2250:2472   */\n    tag_46:\n        /* \"#utility.yul\":2343:2347   */\n      0x00\n        /* \"#utility.yul\":2381:2383   */\n      0x20\n        /* \"#utility.yul\":2370:2379   */\n      dup3\n        /* \"#utility.yul\":2366:2384   */\n      add\n        /* \"#utility.yul\":2358:2384   */\n      swap1\n      pop\n        /* \"#utility.yul\":2394:2465   */\n      tag_238\n        /* \"#utility.yul\":2462:2463   */\n      0x00\n        /* \"#utility.yul\":2451:2460   */\n      dup4\n        /* \"#utility.yul\":2447:2464   */\n      add\n        /* \"#utility.yul\":2438:2444   */\n      dup5\n        /* \"#utility.yul\":2394:2465   */\n      tag_192\n      jump\t// in\n    tag_238:\n        /* \"#utility.yul\":2250:2472   */\n      swap3\n      swap2\n      pop\n      pop\n      jump\t// out\n        /* \"#utility.yul\":2478:2600   */\n    tag_193:\n        /* \"#utility.yul\":2551:2575   */\n      tag_240\n        /* \"#utility.yul\":2569:2574   */\n      dup2\n        /* \"#utility.yul\":2551:2575   */\n      tag_191\n      jump\t// in\n    tag_240:\n        /* \"#utility.yul\":2544:2549   */\n      dup2\n        /* \"#utility.yul\":2541:2576   */\n      eq\n        /* \"#utility.yul\":2531:2594   */\n      tag_241\n      jumpi\n        /* \"#utility.yul\":2590:2591   */\n      0x00\n        /* \"#utility.yul\":2587:2588   */\n      dup1\n        /* \"#utility.yul\":2580:2592   */\n      revert\n        /* \"#utility.yul\":2531:2594   */\n    tag_241:\n        /* \"#utility.yul\":2478:2600   */\n      pop\n      jump\t// out\n        /* \"#utility.yul\":2606:2745   */\n    tag_194:\n        /* \"#utility.yul\":2652:2657   */\n      0x00\n        /* \"#utility.yul\":2690:2696   */\n      dup2\n        /* \"#utility.yul\":2677:2697   */\n      calldataload\n        /* \"#utility.yul\":2668:2697   */\n      swap1\n      pop\n        /* \"#utility.yul\":2706:2739   */\n      tag_243\n        /* \"#utility.yul\":2733:2738   */\n      dup2\n        /* \"#utility.yul\":2706:2739   */\n      tag_193\n      jump\t// in\n    tag_243:\n        /* \"#utility.yul\":2606:2745   */\n      swap3\n      swap2\n      pop\n      pop\n      jump\t// out\n        /* \"#utility.yul\":2751:3080   */\n    tag_69:\n        /* \"#utility.yul\":2810:2816   */\n      0x00\n        /* \"#utility.yul\":2859:2861   */\n      0x20\n        /* \"#utility.yul\":2847:2856   */\n      dup3\n        /* \"#utility.yul\":2838:2845   */\n      dup5\n        /* \"#utility.yul\":2834:2857   */\n      sub\n        /* \"#utility.yul\":2830:2862   */\n      slt\n        /* \"#utility.yul\":2827:2946   */\n      iszero\n      tag_245\n      jumpi\n        /* \"#utility.yul\":2865:2944   */\n      tag_246\n      tag_183\n      jump\t// in\n    tag_246:\n        /* \"#utility.yul\":2827:2946   */\n    tag_245:\n        /* \"#utility.yul\":2985:2986   */\n      0x00\n        /* \"#utility.yul\":3010:3063   */\n      tag_247\n        /* \"#utility.yul\":3055:3062   */\n      dup5\n        /* \"#utility.yul\":3046:3052   */\n      dup3\n        /* \"#utility.yul\":3035:3044   */\n      dup6\n        /* \"#utility.yul\":3031:3053   */\n      add\n        /* \"#utility.yul\":3010:3063   */\n      tag_194\n      jump\t// in\n    tag_247:\n        /* \"#utility.yul\":3000:3063   */\n      swap2\n      pop\n        /* \"#utility.yul\":2956:3073   */\n      pop\n        /* \"#utility.yul\":2751:3080   */\n      swap3\n      swap2\n      pop\n      pop\n      jump\t// out\n        /* \"#utility.yul\":3086:3204   */\n    tag_195:\n        /* \"#utility.yul\":3173:3197   */\n      tag_249\n        /* \"#utility.yul\":3191:3196   */\n      dup2\n        /* \"#utility.yul\":3173:3197   */\n      tag_186\n      jump\t// in\n    tag_249:\n        /* \"#utility.yul\":3168:3171   */\n      dup3\n        /* \"#utility.yul\":3161:3198   */\n      mstore\n        /* \"#utility.yul\":3086:3204   */\n      pop\n      pop\n      jump\t// out\n        /* \"#utility.yul\":3210:3432   */\n    tag_74:\n        /* \"#utility.yul\":3303:3307   */\n      0x00\n        /* \"#utility.yul\":3341:3343   */\n      0x20\n        /* \"#utility.yul\":3330:3339   */\n      dup3\n        /* \"#utility.yul\":3326:3344   */\n      add\n        /* \"#utility.yul\":3318:3344   */\n      swap1\n      pop\n        /* \"#utility.yul\":3354:3425   */\n      tag_251\n        /* \"#utility.yul\":3422:3423   */\n      0x00\n        /* \"#utility.yul\":3411:3420   */\n      dup4\n        /* \"#utility.yul\":3407:3424   */\n      add\n        /* \"#utility.yul\":3398:3404   */\n      dup5\n        /* \"#utility.yul\":3354:3425   */\n      tag_195\n      jump\t// in\n    tag_251:\n        /* \"#utility.yul\":3210:3432   */\n      swap3\n      swap2\n      pop\n      pop\n      jump\t// out\n        /* \"#utility.yul\":3438:4835   */\n    tag_78:\n        /* \"#utility.yul\":3817:3821   */\n      0x00\n        /* \"#utility.yul\":3855:3858   */\n      0x0180\n        /* \"#utility.yul\":3844:3853   */\n      dup3\n        /* \"#utility.yul\":3840:3859   */\n      add\n        /* \"#utility.yul\":3832:3859   */\n      swap1\n      pop\n        /* \"#utility.yul\":3869:3938   */\n      tag_253\n        /* \"#utility.yul\":3935:3936   */\n      0x00\n        /* \"#utility.yul\":3924:3933   */\n      dup4\n        /* \"#utility.yul\":3920:3937   */\n      add\n        /* \"#utility.yul\":3911:3917   */\n      dup16\n        /* \"#utility.yul\":3869:3938   */\n      tag_181\n      jump\t// in\n    tag_253:\n        /* \"#utility.yul\":3948:4018   */\n      tag_254\n        /* \"#utility.yul\":4014:4016   */\n      0x20\n        /* \"#utility.yul\":4003:4012   */\n      dup4\n        /* \"#utility.yul\":3999:4017   */\n      add\n        /* \"#utility.yul\":3990:3996   */\n      dup15\n        /* \"#utility.yul\":3948:4018   */\n      tag_181\n      jump\t// in\n    tag_254:\n        /* \"#utility.yul\":4028:4098   */\n      tag_255\n        /* \"#utility.yul\":4094:4096   */\n      0x40\n        /* \"#utility.yul\":4083:4092   */\n      dup4\n        /* \"#utility.yul\":4079:4097   */\n      add\n        /* \"#utility.yul\":4070:4076   */\n      dup14\n        /* \"#utility.yul\":4028:4098   */\n      tag_181\n      jump\t// in\n    tag_255:\n        /* \"#utility.yul\":4108:4178   */\n      tag_256\n        /* \"#utility.yul\":4174:4176   */\n      0x60\n        /* \"#utility.yul\":4163:4172   */\n      dup4\n        /* \"#utility.yul\":4159:4177   */\n      add\n        /* \"#utility.yul\":4150:4156   */\n      dup13\n        /* \"#utility.yul\":4108:4178   */\n      tag_181\n      jump\t// in\n    tag_256:\n        /* \"#utility.yul\":4188:4259   */\n      tag_257\n        /* \"#utility.yul\":4254:4257   */\n      0x80\n        /* \"#utility.yul\":4243:4252   */\n      dup4\n        /* \"#utility.yul\":4239:4258   */\n      add\n        /* \"#utility.yul\":4230:4236   */\n      dup12\n        /* \"#utility.yul\":4188:4259   */\n      tag_181\n      jump\t// in\n    tag_257:\n        /* \"#utility.yul\":4269:4340   */\n      tag_258\n        /* \"#utility.yul\":4335:4338   */\n      0xa0\n        /* \"#utility.yul\":4324:4333   */\n      dup4\n        /* \"#utility.yul\":4320:4339   */\n      add\n        /* \"#utility.yul\":4311:4317   */\n      dup11\n        /* \"#utility.yul\":4269:4340   */\n      tag_181\n      jump\t// in\n    tag_258:\n        /* \"#utility.yul\":4350:4421   */\n      tag_259\n        /* \"#utility.yul\":4416:4419   */\n      0xc0\n        /* \"#utility.yul\":4405:4414   */\n      dup4\n        /* \"#utility.yul\":4401:4420   */\n      add\n        /* \"#utility.yul\":4392:4398   */\n      dup10\n        /* \"#utility.yul\":4350:4421   */\n      tag_181\n      jump\t// in\n    tag_259:\n        /* \"#utility.yul\":4431:4502   */\n      tag_260\n        /* \"#utility.yul\":4497:4500   */\n      0xe0\n        /* \"#utility.yul\":4486:4495   */\n      dup4\n        /* \"#utility.yul\":4482:4501   */\n      add\n        /* \"#utility.yul\":4473:4479   */\n      dup9\n        /* \"#utility.yul\":4431:4502   */\n      tag_181\n      jump\t// in\n    tag_260:\n        /* \"#utility.yul\":4512:4583   */\n      tag_261\n        /* \"#utility.yul\":4578:4581   */\n      0x0100\n        /* \"#utility.yul\":4567:4576   */\n      dup4\n        /* \"#utility.yul\":4563:4582   */\n      add\n        /* \"#utility.yul\":4554:4560   */\n      dup8\n        /* \"#utility.yul\":4512:4583   */\n      tag_181\n      jump\t// in\n    tag_261:\n        /* \"#utility.yul\":4593:4664   */\n      tag_262\n        /* \"#utility.yul\":4659:4662   */\n      0x0120\n        /* \"#utility.yul\":4648:4657   */\n      dup4\n        /* \"#utility.yul\":4644:4663   */\n      add\n        /* \"#utility.yul\":4635:4641   */\n      dup7\n        /* \"#utility.yul\":4593:4664   */\n      tag_181\n      jump\t// in\n    tag_262:\n        /* \"#utility.yul\":4674:4746   */\n      tag_263\n        /* \"#utility.yul\":4741:4744   */\n      0x0140\n        /* \"#utility.yul\":4730:4739   */\n      dup4\n        /* \"#utility.yul\":4726:4745   */\n      add\n        /* \"#utility.yul\":4716:4723   */\n      dup6\n        /* \"#utility.yul\":4674:4746   */\n      tag_181\n      jump\t// in\n    tag_263:\n        /* \"#utility.yul\":4756:4828   */\n      tag_264\n        /* \"#utility.yul\":4823:4826   */\n      0x0160\n        /* \"#utility.yul\":4812:4821   */\n      dup4\n        /* \"#utility.yul\":4808:4827   */\n      add\n        /* \"#utility.yul\":4798:4805   */\n      dup5\n        /* \"#utility.yul\":4756:4828   */\n      tag_181\n      jump\t// in\n    tag_264:\n        /* \"#utility.yul\":3438:4835   */\n      swap14\n      swap13\n      pop\n      pop\n      pop\n      pop\n      pop\n      pop\n      pop\n      pop\n      pop\n      pop\n      pop\n      pop\n      pop\n      jump\t// out\n        /* \"#utility.yul\":4841:5010   */\n    tag_196:\n        /* \"#utility.yul\":4925:4936   */\n      0x00\n        /* \"#utility.yul\":4959:4965   */\n      dup3\n        /* \"#utility.yul\":4954:4957   */\n      dup3\n        /* \"#utility.yul\":4947:4966   */\n      mstore\n        /* \"#utility.yul\":4999:5003   */\n      0x20\n        /* \"#utility.yul\":4994:4997   */\n      dup3\n        /* \"#utility.yul\":4990:5004   */\n      add\n        /* \"#utility.yul\":4975:5004   */\n      swap1\n      pop\n        /* \"#utility.yul\":4841:5010   */\n      swap3\n      swap2\n      pop\n      pop\n      jump\t// out\n        /* \"#utility.yul\":5016:5183   */\n    tag_197:\n        /* \"#utility.yul\":5156:5175   */\n      0x4c6567616c206669656c642076616c7565000000000000000000000000000000\n        /* \"#utility.yul\":5152:5153   */\n      0x00\n        /* \"#utility.yul\":5144:5150   */\n      dup3\n        /* \"#utility.yul\":5140:5154   */\n      add\n        /* \"#utility.yul\":5133:5176   */\n      mstore\n        /* \"#utility.yul\":5016:5183   */\n      pop\n      jump\t// out\n        /* \"#utility.yul\":5189:5555   */\n    tag_198:\n        /* \"#utility.yul\":5331:5334   */\n      0x00\n        /* \"#utility.yul\":5352:5419   */\n      tag_268\n        /* \"#utility.yul\":5416:5418   */\n      0x11\n        /* \"#utility.yul\":5411:5414   */\n      dup4\n        /* \"#utility.yul\":5352:5419   */\n      tag_196\n      jump\t// in\n    tag_268:\n        /* \"#utility.yul\":5345:5419   */\n      swap2\n      pop\n        /* \"#utility.yul\":5428:5521   */\n      tag_269\n        /* \"#utility.yul\":5517:5520   */\n      dup3\n        /* \"#utility.yul\":5428:5521   */\n      tag_197\n      jump\t// in\n    tag_269:\n        /* \"#utility.yul\":5546:5548   */\n      0x20\n        /* \"#utility.yul\":5541:5544   */\n      dup3\n        /* \"#utility.yul\":5537:5549   */\n      add\n        /* \"#utility.yul\":5530:5549   */\n      swap1\n      pop\n        /* \"#utility.yul\":5189:5555   */\n      swap2\n      swap1\n      pop\n      jump\t// out\n        /* \"#utility.yul\":5561:5980   */\n    tag_138:\n        /* \"#utility.yul\":5727:5731   */\n      0x00\n        /* \"#utility.yul\":5765:5767   */\n      0x20\n        /* \"#utility.yul\":5754:5763   */\n      dup3\n        /* \"#utility.yul\":5750:5768   */\n      add\n        /* \"#utility.yul\":5742:5768   */\n      swap1\n      pop\n        /* \"#utility.yul\":5814:5823   */\n      dup2\n        /* \"#utility.yul\":5808:5812   */\n      dup2\n        /* \"#utility.yul\":5804:5824   */\n      sub\n        /* \"#utility.yul\":5800:5801   */\n      0x00\n        /* \"#utility.yul\":5789:5798   */\n      dup4\n        /* \"#utility.yul\":5785:5802   */\n      add\n        /* \"#utility.yul\":5778:5825   */\n      mstore\n        /* \"#utility.yul\":5842:5973   */\n      tag_271\n        /* \"#utility.yul\":5968:5972   */\n      dup2\n        /* \"#utility.yul\":5842:5973   */\n      tag_198\n      jump\t// in\n    tag_271:\n        /* \"#utility.yul\":5834:5973   */\n      swap1\n      pop\n        /* \"#utility.yul\":5561:5980   */\n      swap2\n      swap1\n      pop\n      jump\t// out\n        /* \"#utility.yul\":5986:6155   */\n    tag_199:\n        /* \"#utility.yul\":6126:6147   */\n      0x496e76616c6964206669656c642076616c756500000000000000000000000000\n        /* \"#utility.yul\":6122:6123   */\n      0x00\n        /* \"#utility.yul\":6114:6120   */\n      dup3\n        /* \"#utility.yul\":6110:6124   */\n      add\n        /* \"#utility.yul\":6103:6148   */\n      mstore\n        /* \"#utility.yul\":5986:6155   */\n      pop\n      jump\t// out\n        /* \"#utility.yul\":6161:6527   */\n    tag_200:\n        /* \"#utility.yul\":6303:6306   */\n      0x00\n        /* \"#utility.yul\":6324:6391   */\n      tag_274\n        /* \"#utility.yul\":6388:6390   */\n      0x13\n        /* \"#utility.yul\":6383:6386   */\n      dup4\n        /* \"#utility.yul\":6324:6391   */\n      tag_196\n      jump\t// in\n    tag_274:\n        /* \"#utility.yul\":6317:6391   */\n      swap2\n      pop\n        /* \"#utility.yul\":6400:6493   */\n      tag_275\n        /* \"#utility.yul\":6489:6492   */\n      dup3\n        /* \"#utility.yul\":6400:6493   */\n      tag_199\n      jump\t// in\n    tag_275:\n        /* \"#utility.yul\":6518:6520   */\n      0x20\n        /* \"#utility.yul\":6513:6516   */\n      dup3\n        /* \"#utility.yul\":6509:6521   */\n      add\n        /* \"#utility.yul\":6502:6521   */\n      swap1\n      pop\n        /* \"#utility.yul\":6161:6527   */\n      swap2\n      swap1\n      pop\n      jump\t// out\n        /* \"#utility.yul\":6533:6952   */\n    tag_142:\n        /* \"#utility.yul\":6699:6703   */\n      0x00\n        /* \"#utility.yul\":6737:6739   */\n      0x20\n        /* \"#utility.yul\":6726:6735   */\n      dup3\n        /* \"#utility.yul\":6722:6740   */\n      add\n        /* \"#utility.yul\":6714:6740   */\n      swap1\n      pop\n        /* \"#utility.yul\":6786:6795   */\n      dup2\n        /* \"#utility.yul\":6780:6784   */\n      dup2\n        /* \"#utility.yul\":6776:6796   */\n      sub\n        /* \"#utility.yul\":6772:6773   */\n      0x00\n        /* \"#utility.yul\":6761:6770   */\n      dup4\n        /* \"#utility.yul\":6757:6774   */\n      add\n        /* \"#utility.yul\":6750:6797   */\n      mstore\n        /* \"#utility.yul\":6814:6945   */\n      tag_277\n        /* \"#utility.yul\":6940:6944   */\n      dup2\n        /* \"#utility.yul\":6814:6945   */\n      tag_200\n      jump\t// in\n    tag_277:\n        /* \"#utility.yul\":6806:6945   */\n      swap1\n      pop\n        /* \"#utility.yul\":6533:6952   */\n      swap2\n      swap1\n      pop\n      jump\t// out\n        /* \"#utility.yul\":6958:7130   */\n    tag_201:\n        /* \"#utility.yul\":7098:7122   */\n      0x4f6e6c792061646d696e2063616e2063616c6c20697400000000000000000000\n        /* \"#utility.yul\":7094:7095   */\n      0x00\n        /* \"#utility.yul\":7086:7092   */\n      dup3\n        /* \"#utility.yul\":7082:7096   */\n      add\n        /* \"#utility.yul\":7075:7123   */\n      mstore\n        /* \"#utility.yul\":6958:7130   */\n      pop\n      jump\t// out\n        /* \"#utility.yul\":7136:7502   */\n    tag_202:\n        /* \"#utility.yul\":7278:7281   */\n      0x00\n        /* \"#utility.yul\":7299:7366   */\n      tag_280\n        /* \"#utility.yul\":7363:7365   */\n      0x16\n        /* \"#utility.yul\":7358:7361   */\n      dup4\n        /* \"#utility.yul\":7299:7366   */\n      tag_196\n      jump\t// in\n    tag_280:\n        /* \"#utility.yul\":7292:7366   */\n      swap2\n      pop\n        /* \"#utility.yul\":7375:7468   */\n      tag_281\n        /* \"#utility.yul\":7464:7467   */\n      dup3\n        /* \"#utility.yul\":7375:7468   */\n      tag_201\n      jump\t// in\n    tag_281:\n        /* \"#utility.yul\":7493:7495   */\n      0x20\n        /* \"#utility.yul\":7488:7491   */\n      dup3\n        /* \"#utility.yul\":7484:7496   */\n      add\n        /* \"#utility.yul\":7477:7496   */\n      swap1\n      pop\n        /* \"#utility.yul\":7136:7502   */\n      swap2\n      swap1\n      pop\n      jump\t// out\n        /* \"#utility.yul\":7508:7927   */\n    tag_159:\n        /* \"#utility.yul\":7674:7678   */\n      0x00\n        /* \"#utility.yul\":7712:7714   */\n      0x20\n        /* \"#utility.yul\":7701:7710   */\n      dup3\n        /* \"#utility.yul\":7697:7715   */\n      add\n        /* \"#utility.yul\":7689:7715   */\n      swap1\n      pop\n        /* \"#utility.yul\":7761:7770   */\n      dup2\n        /* \"#utility.yul\":7755:7759   */\n      dup2\n        /* \"#utility.yul\":7751:7771   */\n      sub\n        /* \"#utility.yul\":7747:7748   */\n      0x00\n        /* \"#utility.yul\":7736:7745   */\n      dup4\n        /* \"#utility.yul\":7732:7749   */\n      add\n        /* \"#utility.yul\":7725:7772   */\n      mstore\n        /* \"#utility.yul\":7789:7920   */\n      tag_283\n        /* \"#utility.yul\":7915:7919   */\n      dup2\n        /* \"#utility.yul\":7789:7920   */\n      tag_202\n      jump\t// in\n    tag_283:\n        /* \"#utility.yul\":7781:7920   */\n      swap1\n      pop\n        /* \"#utility.yul\":7508:7927   */\n      swap2\n      swap1\n      pop\n      jump\t// out\n        /* \"#utility.yul\":7933:8158   */\n    tag_203:\n        /* \"#utility.yul\":8073:8107   */\n      0x4f776e61626c653a206e6577206f776e657220697320746865207a65726f2061\n        /* \"#utility.yul\":8069:8070   */\n      0x00\n        /* \"#utility.yul\":8061:8067   */\n      dup3\n        /* \"#utility.yul\":8057:8071   */\n      add\n        /* \"#utility.yul\":8050:8108   */\n      mstore\n        /* \"#utility.yul\":8142:8150   */\n      0x6464726573730000000000000000000000000000000000000000000000000000\n        /* \"#utility.yul\":8137:8139   */\n      0x20\n        /* \"#utility.yul\":8129:8135   */\n      dup3\n        /* \"#utility.yul\":8125:8140   */\n      add\n        /* \"#utility.yul\":8118:8151   */\n      mstore\n        /* \"#utility.yul\":7933:8158   */\n      pop\n      jump\t// out\n        /* \"#utility.yul\":8164:8530   */\n    tag_204:\n        /* \"#utility.yul\":8306:8309   */\n      0x00\n        /* \"#utility.yul\":8327:8394   */\n      tag_286\n        /* \"#utility.yul\":8391:8393   */\n      0x26\n        /* \"#utility.yul\":8386:8389   */\n      dup4\n        /* \"#utility.yul\":8327:8394   */\n      tag_196\n      jump\t// in\n    tag_286:\n        /* \"#utility.yul\":8320:8394   */\n      swap2\n      pop\n        /* \"#utility.yul\":8403:8496   */\n      tag_287\n        /* \"#utility.yul\":8492:8495   */\n      dup3\n        /* \"#utility.yul\":8403:8496   */\n      tag_203\n      jump\t// in\n    tag_287:\n        /* \"#utility.yul\":8521:8523   */\n      0x40\n        /* \"#utility.yul\":8516:8519   */\n      dup3\n        /* \"#utility.yul\":8512:8524   */\n      add\n        /* \"#utility.yul\":8505:8524   */\n      swap1\n      pop\n        /* \"#utility.yul\":8164:8530   */\n      swap2\n      swap1\n      pop\n      jump\t// out\n        /* \"#utility.yul\":8536:8955   */\n    tag_166:\n        /* \"#utility.yul\":8702:8706   */\n      0x00\n        /* \"#utility.yul\":8740:8742   */\n      0x20\n        /* \"#utility.yul\":8729:8738   */\n      dup3\n        /* \"#utility.yul\":8725:8743   */\n      add\n        /* \"#utility.yul\":8717:8743   */\n      swap1\n      pop\n        /* \"#utility.yul\":8789:8798   */\n      dup2\n        /* \"#utility.yul\":8783:8787   */\n      dup2\n        /* \"#utility.yul\":8779:8799   */\n      sub\n        /* \"#utility.yul\":8775:8776   */\n      0x00\n        /* \"#utility.yul\":8764:8773   */\n      dup4\n        /* \"#utility.yul\":8760:8777   */\n      add\n        /* \"#utility.yul\":8753:8800   */\n      mstore\n        /* \"#utility.yul\":8817:8948   */\n      tag_289\n        /* \"#utility.yul\":8943:8947   */\n      dup2\n        /* \"#utility.yul\":8817:8948   */\n      tag_204\n      jump\t// in\n    tag_289:\n        /* \"#utility.yul\":8809:8948   */\n      swap1\n      pop\n        /* \"#utility.yul\":8536:8955   */\n      swap2\n      swap1\n      pop\n      jump\t// out\n        /* \"#utility.yul\":8961:9143   */\n    tag_205:\n        /* \"#utility.yul\":9101:9135   */\n      0x4f776e61626c653a2063616c6c6572206973206e6f7420746865206f776e6572\n        /* \"#utility.yul\":9097:9098   */\n      0x00\n        /* \"#utility.yul\":9089:9095   */\n      dup3\n        /* \"#utility.yul\":9085:9099   */\n      add\n        /* \"#utility.yul\":9078:9136   */\n      mstore\n        /* \"#utility.yul\":8961:9143   */\n      pop\n      jump\t// out\n        /* \"#utility.yul\":9149:9515   */\n    tag_206:\n        /* \"#utility.yul\":9291:9294   */\n      0x00\n        /* \"#utility.yul\":9312:9379   */\n      tag_292\n        /* \"#utility.yul\":9376:9378   */\n      0x20\n        /* \"#utility.yul\":9371:9374   */\n      dup4\n        /* \"#utility.yul\":9312:9379   */\n      tag_196\n      jump\t// in\n    tag_292:\n        /* \"#utility.yul\":9305:9379   */\n      swap2\n      pop\n        /* \"#utility.yul\":9388:9481   */\n      tag_293\n        /* \"#utility.yul\":9477:9480   */\n      dup3\n        /* \"#utility.yul\":9388:9481   */\n      tag_205\n      jump\t// in\n    tag_293:\n        /* \"#utility.yul\":9506:9508   */\n      0x20\n        /* \"#utility.yul\":9501:9504   */\n      dup3\n        /* \"#utility.yul\":9497:9509   */\n      add\n        /* \"#utility.yul\":9490:9509   */\n      swap1\n      pop\n        /* \"#utility.yul\":9149:9515   */\n      swap2\n      swap1\n      pop\n      jump\t// out\n        /* \"#utility.yul\":9521:9940   */\n    tag_174:\n        /* \"#utility.yul\":9687:9691   */\n      0x00\n        /* \"#utility.yul\":9725:9727   */\n      0x20\n        /* \"#utility.yul\":9714:9723   */\n      dup3\n        /* \"#utility.yul\":9710:9728   */\n      add\n        /* \"#utility.yul\":9702:9728   */\n      swap1\n      pop\n        /* \"#utility.yul\":9774:9783   */\n      dup2\n        /* \"#utility.yul\":9768:9772   */\n      dup2\n        /* \"#utility.yul\":9764:9784   */\n      sub\n        /* \"#utility.yul\":9760:9761   */\n      0x00\n        /* \"#utility.yul\":9749:9758   */\n      dup4\n        /* \"#utility.yul\":9745:9762   */\n      add\n        /* \"#utility.yul\":9738:9785   */\n      mstore\n        /* \"#utility.yul\":9802:9933   */\n      tag_295\n        /* \"#utility.yul\":9928:9932   */\n      dup2\n        /* \"#utility.yul\":9802:9933   */\n      tag_206\n      jump\t// in\n    tag_295:\n        /* \"#utility.yul\":9794:9933   */\n      swap1\n      pop\n        /* \"#utility.yul\":9521:9940   */\n      swap2\n      swap1\n      pop\n      jump\t// out\n        /* \"#utility.yul\":9946:10126   */\n    tag_207:\n        /* \"#utility.yul\":9994:10071   */\n      0x4e487b7100000000000000000000000000000000000000000000000000000000\n        /* \"#utility.yul\":9991:9992   */\n      0x00\n        /* \"#utility.yul\":9984:10072   */\n      mstore\n        /* \"#utility.yul\":10091:10095   */\n      0x11\n        /* \"#utility.yul\":10088:10089   */\n      0x04\n        /* \"#utility.yul\":10081:10096   */\n      mstore\n        /* \"#utility.yul\":10115:10119   */\n      0x24\n        /* \"#utility.yul\":10112:10113   */\n      0x00\n        /* \"#utility.yul\":10105:10120   */\n      revert\n        /* \"#utility.yul\":10132:10326   */\n    tag_178:\n        /* \"#utility.yul\":10172:10176   */\n      0x00\n        /* \"#utility.yul\":10192:10212   */\n      tag_298\n        /* \"#utility.yul\":10210:10211   */\n      dup3\n        /* \"#utility.yul\":10192:10212   */\n      tag_191\n      jump\t// in\n    tag_298:\n        /* \"#utility.yul\":10187:10212   */\n      swap2\n      pop\n        /* \"#utility.yul\":10226:10246   */\n      tag_299\n        /* \"#utility.yul\":10244:10245   */\n      dup4\n        /* \"#utility.yul\":10226:10246   */\n      tag_191\n      jump\t// in\n    tag_299:\n        /* \"#utility.yul\":10221:10246   */\n      swap3\n      pop\n        /* \"#utility.yul\":10270:10271   */\n      dup3\n        /* \"#utility.yul\":10267:10268   */\n      dup3\n        /* \"#utility.yul\":10263:10272   */\n      sub\n        /* \"#utility.yul\":10255:10272   */\n      swap1\n      pop\n        /* \"#utility.yul\":10294:10295   */\n      dup2\n        /* \"#utility.yul\":10288:10292   */\n      dup2\n        /* \"#utility.yul\":10285:10296   */\n      gt\n        /* \"#utility.yul\":10282:10319   */\n      iszero\n      tag_300\n      jumpi\n        /* \"#utility.yul\":10299:10317   */\n      tag_301\n      tag_207\n      jump\t// in\n    tag_301:\n        /* \"#utility.yul\":10282:10319   */\n    tag_300:\n        /* \"#utility.yul\":10132:10326   */\n      swap3\n      swap2\n      pop\n      pop\n      jump\t// out\n\n    auxdata: 0xa264697066735822122098bee54edd225d848b9c46616bef73c7d72eed92e391df0544ac997a815c70e764736f6c63430008110033\n}\n",
				"bytecode": {
					"linkReferences": {},
					"object": "60806040526c01431e0fae6d7217caa00000006002556001600360006101000a81548161ffff021916908361ffff1602179055506002600360026101000a81548161ffff021916908361ffff16021790555060038060046101000a81548161ffff021916908361ffff1602179055506001600360066101000a81548161ffff021916908361ffff1602179055506002600360086101000a81548161ffff021916908361ffff160217905550600380600a6101000a81548161ffff021916908361ffff16021790555060046003600c6101000a81548161ffff021916908361ffff16021790555060056003600e6101000a81548161ffff021916908361ffff1602179055506001600360106101000a81548161ffff021916908361ffff1602179055506002600360126101000a81548161ffff021916908361ffff16021790555060038060146101000a81548161ffff021916908361ffff1602179055506004600360166101000a81548161ffff021916908361ffff160217905550600160045534801561018b57600080fd5b506101a861019d6101ad60201b60201c565b6101b560201b60201c565b610279565b600033905090565b60008060009054906101000a900473ffffffffffffffffffffffffffffffffffffffff169050816000806101000a81548173ffffffffffffffffffffffffffffffffffffffff021916908373ffffffffffffffffffffffffffffffffffffffff1602179055508173ffffffffffffffffffffffffffffffffffffffff168173ffffffffffffffffffffffffffffffffffffffff167f8be0079c531659141344cd1fd0a4f28419497f9722a3daafe3b4186f6b6457e060405160405180910390a35050565b611092806102886000396000f3fe608060405234801561001057600080fd5b50600436106101585760003560e01c80638da5cb5b116100c3578063a63b61881161007c578063a63b61881461037c578063afc1c88e1461039a578063b10186fd146103b8578063ba852775146103d6578063c5fc66a4146103f4578063f2fde38b1461042457610158565b80638da5cb5b146102bd5780638e41abab146102db578063927e00e81461030457806396355b2e146103225780639a403ff614610340578063a1f354971461035e57610158565b80635809cdb5116101155780635809cdb51461022357806362d918551461024157806364693b871461025d578063704802751461027b578063715018a6146102975780637ccd0c70146102a157610158565b8063092afee31461015d57806324d7806c1461017b578063331b4cda146101ab57806336ffc86d146101c95780633bf331cd146101e75780633f4702c014610205575b600080fd5b610165610440565b6040516101729190610b54565b60405180910390f35b61019560048036038101906101909190610bd2565b610458565b6040516101a29190610c1a565b60405180910390f35b6101b36104ae565b6040516101c09190610b54565b60405180910390f35b6101d16104c6565b6040516101de9190610c4e565b60405180910390f35b6101ef6104d0565b6040516101fc9190610b54565b60405180910390f35b61020d6104e8565b60405161021a9190610b54565b60405180910390f35b61022b610500565b6040516102389190610b54565b60405180910390f35b61025b60048036038101906102569190610bd2565b610518565b005b61026561057b565b6040516102729190610b54565b60405180910390f35b61029560048036038101906102909190610bd2565b610593565b005b61029f6105f5565b005b6102bb60048036038101906102b69190610c95565b610609565b005b6102c56106d2565b6040516102d29190610cd1565b60405180910390f35b6102e36106fb565b6040516102fb9c9b9a99989796959493929190610cec565b60405180910390f35b61030c6107ff565b6040516103199190610b54565b60405180910390f35b61032a610817565b6040516103379190610b54565b60405180910390f35b61034861082f565b6040516103559190610c4e565b60405180910390f35b610366610839565b6040516103739190610c4e565b60405180910390f35b610384610856565b6040516103919190610b54565b60405180910390f35b6103a261086e565b6040516103af9190610b54565b60405180910390f35b6103c0610886565b6040516103cd9190610b54565b60405180910390f35b6103de61089e565b6040516103eb9190610b54565b60405180910390f35b61040e60048036038101906104099190610c95565b6108b6565b60405161041b9190610c1a565b60405180910390f35b61043e60048036038101906104399190610bd2565b610954565b005b6000600360169054906101000a900461ffff16905090565b6000600160008373ffffffffffffffffffffffffffffffffffffffff1673ffffffffffffffffffffffffffffffffffffffff16815260200190815260200160002060009054906101000a900460ff169050919050565b6000600360029054906101000a900461ffff16905090565b6000600254905090565b6000600360109054906101000a900461ffff16905090565b6000600360089054906101000a900461ffff16905090565b6000600360049054906101000a900461ffff16905090565b6105206109d7565b6000600160008373ffffffffffffffffffffffffffffffffffffffff1673ffffffffffffffffffffffffffffffffffffffff16815260200190815260200160002060006101000a81548160ff02191690831515021790555050565b6000600360009054906101000a900461ffff16905090565b61059b6109d7565b60018060008373ffffffffffffffffffffffffffffffffffffffff1673ffffffffffffffffffffffffffffffffffffffff16815260200190815260200160002060006101000a81548160ff02191690831515021790555050565b6105fd6109d7565b6106076000610a55565b565b8060018114806106195750600281145b806106245750600381145b8061062f5750600481145b8061063a5750600081145b15610685576001610680576040517f08c379a000000000000000000000000000000000000000000000000000000000815260040161067790610e03565b60405180910390fd5b6106c7565b60006106c6576040517f08c379a00000000000000000000000000000000000000000000000000000000081526004016106bd90610e6f565b60405180910390fd5b5b816004819055505050565b60008060009054906101000a900473ffffffffffffffffffffffffffffffffffffffff16905090565b600080600080600080600080600080600080600360009054906101000a900461ffff16600360029054906101000a900461ffff16600360049054906101000a900461ffff16600360069054906101000a900461ffff16600360089054906101000a900461ffff166003600a9054906101000a900461ffff166003600c9054906101000a900461ffff166003600e9054906101000a900461ffff16600360109054906101000a900461ffff16600360129054906101000a900461ffff16600360149054906101000a900461ffff16600360169054906101000a900461ffff169b509b509b509b509b509b509b509b509b509b509b509b50909192939495969798999a9b565b6000600360149054906101000a900461ffff16905090565b60006003600e9054906101000a900461ffff16905090565b6000600454905090565b60006108516001600454610b1990919063ffffffff16565b905090565b60006003600a9054906101000a900461ffff16905090565b6000600360069054906101000a900461ffff16905090565b60006003600c9054906101000a900461ffff16905090565b6000600360129054906101000a900461ffff16905090565b6000600160003373ffffffffffffffffffffffffffffffffffffffff1673ffffffffffffffffffffffffffffffffffffffff16815260200190815260200160002060009054906101000a900460ff16610944576040517f08c379a000000000000000000000000000000000000000000000000000000000815260040161093b90610edb565b60405180910390fd5b8160048190555060019050919050565b61095c6109d7565b600073ffffffffffffffffffffffffffffffffffffffff168173ffffffffffffffffffffffffffffffffffffffff16036109cb576040517f08c379a00000000000000000000000000000000000000000000000000000000081526004016109c290610f6d565b60405180910390fd5b6109d481610a55565b50565b6109df610b2f565b73ffffffffffffffffffffffffffffffffffffffff166109fd6106d2565b73ffffffffffffffffffffffffffffffffffffffff1614610a53576040517f08c379a0000000000000000000000000000000000000000000000000000000008152600401610a4a90610fd9565b60405180910390fd5b565b60008060009054906101000a900473ffffffffffffffffffffffffffffffffffffffff169050816000806101000a81548173ffffffffffffffffffffffffffffffffffffffff021916908373ffffffffffffffffffffffffffffffffffffffff1602179055508173ffffffffffffffffffffffffffffffffffffffff168173ffffffffffffffffffffffffffffffffffffffff167f8be0079c531659141344cd1fd0a4f28419497f9722a3daafe3b4186f6b6457e060405160405180910390a35050565b60008183610b279190611028565b905092915050565b600033905090565b600061ffff82169050919050565b610b4e81610b37565b82525050565b6000602082019050610b696000830184610b45565b92915050565b600080fd5b600073ffffffffffffffffffffffffffffffffffffffff82169050919050565b6000610b9f82610b74565b9050919050565b610baf81610b94565b8114610bba57600080fd5b50565b600081359050610bcc81610ba6565b92915050565b600060208284031215610be857610be7610b6f565b5b6000610bf684828501610bbd565b91505092915050565b60008115159050919050565b610c1481610bff565b82525050565b6000602082019050610c2f6000830184610c0b565b92915050565b6000819050919050565b610c4881610c35565b82525050565b6000602082019050610c636000830184610c3f565b92915050565b610c7281610c35565b8114610c7d57600080fd5b50565b600081359050610c8f81610c69565b92915050565b600060208284031215610cab57610caa610b6f565b5b6000610cb984828501610c80565b91505092915050565b610ccb81610b94565b82525050565b6000602082019050610ce66000830184610cc2565b92915050565b600061018082019050610d02600083018f610b45565b610d0f602083018e610b45565b610d1c604083018d610b45565b610d29606083018c610b45565b610d36608083018b610b45565b610d4360a083018a610b45565b610d5060c0830189610b45565b610d5d60e0830188610b45565b610d6b610100830187610b45565b610d79610120830186610b45565b610d87610140830185610b45565b610d95610160830184610b45565b9d9c50505050505050505050505050565b600082825260208201905092915050565b7f4c6567616c206669656c642076616c7565000000000000000000000000000000600082015250565b6000610ded601183610da6565b9150610df882610db7565b602082019050919050565b60006020820190508181036000830152610e1c81610de0565b9050919050565b7f496e76616c6964206669656c642076616c756500000000000000000000000000600082015250565b6000610e59601383610da6565b9150610e6482610e23565b602082019050919050565b60006020820190508181036000830152610e8881610e4c565b9050919050565b7f4f6e6c792061646d696e2063616e2063616c6c20697400000000000000000000600082015250565b6000610ec5601683610da6565b9150610ed082610e8f565b602082019050919050565b60006020820190508181036000830152610ef481610eb8565b9050919050565b7f4f776e61626c653a206e6577206f776e657220697320746865207a65726f206160008201527f6464726573730000000000000000000000000000000000000000000000000000602082015250565b6000610f57602683610da6565b9150610f6282610efb565b604082019050919050565b60006020820190508181036000830152610f8681610f4a565b9050919050565b7f4f776e61626c653a2063616c6c6572206973206e6f7420746865206f776e6572600082015250565b6000610fc3602083610da6565b9150610fce82610f8d565b602082019050919050565b60006020820190508181036000830152610ff281610fb6565b9050919050565b7f4e487b7100000000000000000000000000000000000000000000000000000000600052601160045260246000fd5b600061103382610c35565b915061103e83610c35565b925082820390508181111561105657611055610ff9565b5b9291505056fea264697066735822122098bee54edd225d848b9c46616bef73c7d72eed92e391df0544ac997a815c70e764736f6c63430008110033",
					"opcodes": "PUSH1 0x80 PUSH1 0x40 MSTORE PUSH13 0x1431E0FAE6D7217CAA0000000 PUSH1 0x2 SSTORE PUSH1 0x1 PUSH1 0x3 PUSH1 0x0 PUSH2 0x100 EXP DUP2 SLOAD DUP2 PUSH2 0xFFFF MUL NOT AND SWAP1 DUP4 PUSH2 0xFFFF AND MUL OR SWAP1 SSTORE POP PUSH1 0x2 PUSH1 0x3 PUSH1 0x2 PUSH2 0x100 EXP DUP2 SLOAD DUP2 PUSH2 0xFFFF MUL NOT AND SWAP1 DUP4 PUSH2 0xFFFF AND MUL OR SWAP1 SSTORE POP PUSH1 0x3 DUP1 PUSH1 0x4 PUSH2 0x100 EXP DUP2 SLOAD DUP2 PUSH2 0xFFFF MUL NOT AND SWAP1 DUP4 PUSH2 0xFFFF AND MUL OR SWAP1 SSTORE POP PUSH1 0x1 PUSH1 0x3 PUSH1 0x6 PUSH2 0x100 EXP DUP2 SLOAD DUP2 PUSH2 0xFFFF MUL NOT AND SWAP1 DUP4 PUSH2 0xFFFF AND MUL OR SWAP1 SSTORE POP PUSH1 0x2 PUSH1 0x3 PUSH1 0x8 PUSH2 0x100 EXP DUP2 SLOAD DUP2 PUSH2 0xFFFF MUL NOT AND SWAP1 DUP4 PUSH2 0xFFFF AND MUL OR SWAP1 SSTORE POP PUSH1 0x3 DUP1 PUSH1 0xA PUSH2 0x100 EXP DUP2 SLOAD DUP2 PUSH2 0xFFFF MUL NOT AND SWAP1 DUP4 PUSH2 0xFFFF AND MUL OR SWAP1 SSTORE POP PUSH1 0x4 PUSH1 0x3 PUSH1 0xC PUSH2 0x100 EXP DUP2 SLOAD DUP2 PUSH2 0xFFFF MUL NOT AND SWAP1 DUP4 PUSH2 0xFFFF AND MUL OR SWAP1 SSTORE POP PUSH1 0x5 PUSH1 0x3 PUSH1 0xE PUSH2 0x100 EXP DUP2 SLOAD DUP2 PUSH2 0xFFFF MUL NOT AND SWAP1 DUP4 PUSH2 0xFFFF AND MUL OR SWAP1 SSTORE POP PUSH1 0x1 PUSH1 0x3 PUSH1 0x10 PUSH2 0x100 EXP DUP2 SLOAD DUP2 PUSH2 0xFFFF MUL NOT AND SWAP1 DUP4 PUSH2 0xFFFF AND MUL OR SWAP1 SSTORE POP PUSH1 0x2 PUSH1 0x3 PUSH1 0x12 PUSH2 0x100 EXP DUP2 SLOAD DUP2 PUSH2 0xFFFF MUL NOT AND SWAP1 DUP4 PUSH2 0xFFFF AND MUL OR SWAP1 SSTORE POP PUSH1 0x3 DUP1 PUSH1 0x14 PUSH2 0x100 EXP DUP2 SLOAD DUP2 PUSH2 0xFFFF MUL NOT AND SWAP1 DUP4 PUSH2 0xFFFF AND MUL OR SWAP1 SSTORE POP PUSH1 0x4 PUSH1 0x3 PUSH1 0x16 PUSH2 0x100 EXP DUP2 SLOAD DUP2 PUSH2 0xFFFF MUL NOT AND SWAP1 DUP4 PUSH2 0xFFFF AND MUL OR SWAP1 SSTORE POP PUSH1 0x1 PUSH1 0x4 SSTORE CALLVALUE DUP1 ISZERO PUSH2 0x18B JUMPI PUSH1 0x0 DUP1 REVERT JUMPDEST POP PUSH2 0x1A8 PUSH2 0x19D PUSH2 0x1AD PUSH1 0x20 SHL PUSH1 0x20 SHR JUMP JUMPDEST PUSH2 0x1B5 PUSH1 0x20 SHL PUSH1 0x20 SHR JUMP JUMPDEST PUSH2 0x279 JUMP JUMPDEST PUSH1 0x0 CALLER SWAP1 POP SWAP1 JUMP JUMPDEST PUSH1 0x0 DUP1 PUSH1 0x0 SWAP1 SLOAD SWAP1 PUSH2 0x100 EXP SWAP1 DIV PUSH20 0xFFFFFFFFFFFFFFFFFFFFFFFFFFFFFFFFFFFFFFFF AND SWAP1 POP DUP2 PUSH1 0x0 DUP1 PUSH2 0x100 EXP DUP2 SLOAD DUP2 PUSH20 0xFFFFFFFFFFFFFFFFFFFFFFFFFFFFFFFFFFFFFFFF MUL NOT AND SWAP1 DUP4 PUSH20 0xFFFFFFFFFFFFFFFFFFFFFFFFFFFFFFFFFFFFFFFF AND MUL OR SWAP1 SSTORE POP DUP2 PUSH20 0xFFFFFFFFFFFFFFFFFFFFFFFFFFFFFFFFFFFFFFFF AND DUP2 PUSH20 0xFFFFFFFFFFFFFFFFFFFFFFFFFFFFFFFFFFFFFFFF AND PUSH32 0x8BE0079C531659141344CD1FD0A4F28419497F9722A3DAAFE3B4186F6B6457E0 PUSH1 0x40 MLOAD PUSH1 0x40 MLOAD DUP1 SWAP2 SUB SWAP1 LOG3 POP POP JUMP JUMPDEST PUSH2 0x1092 DUP1 PUSH2 0x288 PUSH1 0x0 CODECOPY PUSH1 0x0 RETURN INVALID PUSH1 0x80 PUSH1 0x40 MSTORE CALLVALUE DUP1 ISZERO PUSH2 0x10 JUMPI PUSH1 0x0 DUP1 REVERT JUMPDEST POP PUSH1 0x4 CALLDATASIZE LT PUSH2 0x158 JUMPI PUSH1 0x0 CALLDATALOAD PUSH1 0xE0 SHR DUP1 PUSH4 0x8DA5CB5B GT PUSH2 0xC3 JUMPI DUP1 PUSH4 0xA63B6188 GT PUSH2 0x7C JUMPI DUP1 PUSH4 0xA63B6188 EQ PUSH2 0x37C JUMPI DUP1 PUSH4 0xAFC1C88E EQ PUSH2 0x39A JUMPI DUP1 PUSH4 0xB10186FD EQ PUSH2 0x3B8 JUMPI DUP1 PUSH4 0xBA852775 EQ PUSH2 0x3D6 JUMPI DUP1 PUSH4 0xC5FC66A4 EQ PUSH2 0x3F4 JUMPI DUP1 PUSH4 0xF2FDE38B EQ PUSH2 0x424 JUMPI PUSH2 0x158 JUMP JUMPDEST DUP1 PUSH4 0x8DA5CB5B EQ PUSH2 0x2BD JUMPI DUP1 PUSH4 0x8E41ABAB EQ PUSH2 0x2DB JUMPI DUP1 PUSH4 0x927E00E8 EQ PUSH2 0x304 JUMPI DUP1 PUSH4 0x96355B2E EQ PUSH2 0x322 JUMPI DUP1 PUSH4 0x9A403FF6 EQ PUSH2 0x340 JUMPI DUP1 PUSH4 0xA1F35497 EQ PUSH2 0x35E JUMPI PUSH2 0x158 JUMP JUMPDEST DUP1 PUSH4 0x5809CDB5 GT PUSH2 0x115 JUMPI DUP1 PUSH4 0x5809CDB5 EQ PUSH2 0x223 JUMPI DUP1 PUSH4 0x62D91855 EQ PUSH2 0x241 JUMPI DUP1 PUSH4 0x64693B87 EQ PUSH2 0x25D JUMPI DUP1 PUSH4 0x70480275 EQ PUSH2 0x27B JUMPI DUP1 PUSH4 0x715018A6 EQ PUSH2 0x297 JUMPI DUP1 PUSH4 0x7CCD0C70 EQ PUSH2 0x2A1 JUMPI PUSH2 0x158 JUMP JUMPDEST DUP1 PUSH4 0x92AFEE3 EQ PUSH2 0x15D JUMPI DUP1 PUSH4 0x24D7806C EQ PUSH2 0x17B JUMPI DUP1 PUSH4 0x331B4CDA EQ PUSH2 0x1AB JUMPI DUP1 PUSH4 0x36FFC86D EQ PUSH2 0x1C9 JUMPI DUP1 PUSH4 0x3BF331CD EQ PUSH2 0x1E7 JUMPI DUP1 PUSH4 0x3F4702C0 EQ PUSH2 0x205 JUMPI JUMPDEST PUSH1 0x0 DUP1 REVERT JUMPDEST PUSH2 0x165 PUSH2 0x440 JUMP JUMPDEST PUSH1 0x40 MLOAD PUSH2 0x172 SWAP2 SWAP1 PUSH2 0xB54 JUMP JUMPDEST PUSH1 0x40 MLOAD DUP1 SWAP2 SUB SWAP1 RETURN JUMPDEST PUSH2 0x195 PUSH1 0x4 DUP1 CALLDATASIZE SUB DUP2 ADD SWAP1 PUSH2 0x190 SWAP2 SWAP1 PUSH2 0xBD2 JUMP JUMPDEST PUSH2 0x458 JUMP JUMPDEST PUSH1 0x40 MLOAD PUSH2 0x1A2 SWAP2 SWAP1 PUSH2 0xC1A JUMP JUMPDEST PUSH1 0x40 MLOAD DUP1 SWAP2 SUB SWAP1 RETURN JUMPDEST PUSH2 0x1B3 PUSH2 0x4AE JUMP JUMPDEST PUSH1 0x40 MLOAD PUSH2 0x1C0 SWAP2 SWAP1 PUSH2 0xB54 JUMP JUMPDEST PUSH1 0x40 MLOAD DUP1 SWAP2 SUB SWAP1 RETURN JUMPDEST PUSH2 0x1D1 PUSH2 0x4C6 JUMP JUMPDEST PUSH1 0x40 MLOAD PUSH2 0x1DE SWAP2 SWAP1 PUSH2 0xC4E JUMP JUMPDEST PUSH1 0x40 MLOAD DUP1 SWAP2 SUB SWAP1 RETURN JUMPDEST PUSH2 0x1EF PUSH2 0x4D0 JUMP JUMPDEST PUSH1 0x40 MLOAD PUSH2 0x1FC SWAP2 SWAP1 PUSH2 0xB54 JUMP JUMPDEST PUSH1 0x40 MLOAD DUP1 SWAP2 SUB SWAP1 RETURN JUMPDEST PUSH2 0x20D PUSH2 0x4E8 JUMP JUMPDEST PUSH1 0x40 MLOAD PUSH2 0x21A SWAP2 SWAP1 PUSH2 0xB54 JUMP JUMPDEST PUSH1 0x40 MLOAD DUP1 SWAP2 SUB SWAP1 RETURN JUMPDEST PUSH2 0x22B PUSH2 0x500 JUMP JUMPDEST PUSH1 0x40 MLOAD PUSH2 0x238 SWAP2 SWAP1 PUSH2 0xB54 JUMP JUMPDEST PUSH1 0x40 MLOAD DUP1 SWAP2 SUB SWAP1 RETURN JUMPDEST PUSH2 0x25B PUSH1 0x4 DUP1 CALLDATASIZE SUB DUP2 ADD SWAP1 PUSH2 0x256 SWAP2 SWAP1 PUSH2 0xBD2 JUMP JUMPDEST PUSH2 0x518 JUMP JUMPDEST STOP JUMPDEST PUSH2 0x265 PUSH2 0x57B JUMP JUMPDEST PUSH1 0x40 MLOAD PUSH2 0x272 SWAP2 SWAP1 PUSH2 0xB54 JUMP JUMPDEST PUSH1 0x40 MLOAD DUP1 SWAP2 SUB SWAP1 RETURN JUMPDEST PUSH2 0x295 PUSH1 0x4 DUP1 CALLDATASIZE SUB DUP2 ADD SWAP1 PUSH2 0x290 SWAP2 SWAP1 PUSH2 0xBD2 JUMP JUMPDEST PUSH2 0x593 JUMP JUMPDEST STOP JUMPDEST PUSH2 0x29F PUSH2 0x5F5 JUMP JUMPDEST STOP JUMPDEST PUSH2 0x2BB PUSH1 0x4 DUP1 CALLDATASIZE SUB DUP2 ADD SWAP1 PUSH2 0x2B6 SWAP2 SWAP1 PUSH2 0xC95 JUMP JUMPDEST PUSH2 0x609 JUMP JUMPDEST STOP JUMPDEST PUSH2 0x2C5 PUSH2 0x6D2 JUMP JUMPDEST PUSH1 0x40 MLOAD PUSH2 0x2D2 SWAP2 SWAP1 PUSH2 0xCD1 JUMP JUMPDEST PUSH1 0x40 MLOAD DUP1 SWAP2 SUB SWAP1 RETURN JUMPDEST PUSH2 0x2E3 PUSH2 0x6FB JUMP JUMPDEST PUSH1 0x40 MLOAD PUSH2 0x2FB SWAP13 SWAP12 SWAP11 SWAP10 SWAP9 SWAP8 SWAP7 SWAP6 SWAP5 SWAP4 SWAP3 SWAP2 SWAP1 PUSH2 0xCEC JUMP JUMPDEST PUSH1 0x40 MLOAD DUP1 SWAP2 SUB SWAP1 RETURN JUMPDEST PUSH2 0x30C PUSH2 0x7FF JUMP JUMPDEST PUSH1 0x40 MLOAD PUSH2 0x319 SWAP2 SWAP1 PUSH2 0xB54 JUMP JUMPDEST PUSH1 0x40 MLOAD DUP1 SWAP2 SUB SWAP1 RETURN JUMPDEST PUSH2 0x32A PUSH2 0x817 JUMP JUMPDEST PUSH1 0x40 MLOAD PUSH2 0x337 SWAP2 SWAP1 PUSH2 0xB54 JUMP JUMPDEST PUSH1 0x40 MLOAD DUP1 SWAP2 SUB SWAP1 RETURN JUMPDEST PUSH2 0x348 PUSH2 0x82F JUMP JUMPDEST PUSH1 0x40 MLOAD PUSH2 0x355 SWAP2 SWAP1 PUSH2 0xC4E JUMP JUMPDEST PUSH1 0x40 MLOAD DUP1 SWAP2 SUB SWAP1 RETURN JUMPDEST PUSH2 0x366 PUSH2 0x839 JUMP JUMPDEST PUSH1 0x40 MLOAD PUSH2 0x373 SWAP2 SWAP1 PUSH2 0xC4E JUMP JUMPDEST PUSH1 0x40 MLOAD DUP1 SWAP2 SUB SWAP1 RETURN JUMPDEST PUSH2 0x384 PUSH2 0x856 JUMP JUMPDEST PUSH1 0x40 MLOAD PUSH2 0x391 SWAP2 SWAP1 PUSH2 0xB54 JUMP JUMPDEST PUSH1 0x40 MLOAD DUP1 SWAP2 SUB SWAP1 RETURN JUMPDEST PUSH2 0x3A2 PUSH2 0x86E JUMP JUMPDEST PUSH1 0x40 MLOAD PUSH2 0x3AF SWAP2 SWAP1 PUSH2 0xB54 JUMP JUMPDEST PUSH1 0x40 MLOAD DUP1 SWAP2 SUB SWAP1 RETURN JUMPDEST PUSH2 0x3C0 PUSH2 0x886 JUMP JUMPDEST PUSH1 0x40 MLOAD PUSH2 0x3CD SWAP2 SWAP1 PUSH2 0xB54 JUMP JUMPDEST PUSH1 0x40 MLOAD DUP1 SWAP2 SUB SWAP1 RETURN JUMPDEST PUSH2 0x3DE PUSH2 0x89E JUMP JUMPDEST PUSH1 0x40 MLOAD PUSH2 0x3EB SWAP2 SWAP1 PUSH2 0xB54 JUMP JUMPDEST PUSH1 0x40 MLOAD DUP1 SWAP2 SUB SWAP1 RETURN JUMPDEST PUSH2 0x40E PUSH1 0x4 DUP1 CALLDATASIZE SUB DUP2 ADD SWAP1 PUSH2 0x409 SWAP2 SWAP1 PUSH2 0xC95 JUMP JUMPDEST PUSH2 0x8B6 JUMP JUMPDEST PUSH1 0x40 MLOAD PUSH2 0x41B SWAP2 SWAP1 PUSH2 0xC1A JUMP JUMPDEST PUSH1 0x40 MLOAD DUP1 SWAP2 SUB SWAP1 RETURN JUMPDEST PUSH2 0x43E PUSH1 0x4 DUP1 CALLDATASIZE SUB DUP2 ADD SWAP1 PUSH2 0x439 SWAP2 SWAP1 PUSH2 0xBD2 JUMP JUMPDEST PUSH2 0x954 JUMP JUMPDEST STOP JUMPDEST PUSH1 0x0 PUSH1 0x3 PUSH1 0x16 SWAP1 SLOAD SWAP1 PUSH2 0x100 EXP SWAP1 DIV PUSH2 0xFFFF AND SWAP1 POP SWAP1 JUMP JUMPDEST PUSH1 0x0 PUSH1 0x1 PUSH1 0x0 DUP4 PUSH20 0xFFFFFFFFFFFFFFFFFFFFFFFFFFFFFFFFFFFFFFFF AND PUSH20 0xFFFFFFFFFFFFFFFFFFFFFFFFFFFFFFFFFFFFFFFF AND DUP2 MSTORE PUSH1 0x20 ADD SWAP1 DUP2 MSTORE PUSH1 0x20 ADD PUSH1 0x0 KECCAK256 PUSH1 0x0 SWAP1 SLOAD SWAP1 PUSH2 0x100 EXP SWAP1 DIV PUSH1 0xFF AND SWAP1 POP SWAP2 SWAP1 POP JUMP JUMPDEST PUSH1 0x0 PUSH1 0x3 PUSH1 0x2 SWAP1 SLOAD SWAP1 PUSH2 0x100 EXP SWAP1 DIV PUSH2 0xFFFF AND SWAP1 POP SWAP1 JUMP JUMPDEST PUSH1 0x0 PUSH1 0x2 SLOAD SWAP1 POP SWAP1 JUMP JUMPDEST PUSH1 0x0 PUSH1 0x3 PUSH1 0x10 SWAP1 SLOAD SWAP1 PUSH2 0x100 EXP SWAP1 DIV PUSH2 0xFFFF AND SWAP1 POP SWAP1 JUMP JUMPDEST PUSH1 0x0 PUSH1 0x3 PUSH1 0x8 SWAP1 SLOAD SWAP1 PUSH2 0x100 EXP SWAP1 DIV PUSH2 0xFFFF AND SWAP1 POP SWAP1 JUMP JUMPDEST PUSH1 0x0 PUSH1 0x3 PUSH1 0x4 SWAP1 SLOAD SWAP1 PUSH2 0x100 EXP SWAP1 DIV PUSH2 0xFFFF AND SWAP1 POP SWAP1 JUMP JUMPDEST PUSH2 0x520 PUSH2 0x9D7 JUMP JUMPDEST PUSH1 0x0 PUSH1 0x1 PUSH1 0x0 DUP4 PUSH20 0xFFFFFFFFFFFFFFFFFFFFFFFFFFFFFFFFFFFFFFFF AND PUSH20 0xFFFFFFFFFFFFFFFFFFFFFFFFFFFFFFFFFFFFFFFF AND DUP2 MSTORE PUSH1 0x20 ADD SWAP1 DUP2 MSTORE PUSH1 0x20 ADD PUSH1 0x0 KECCAK256 PUSH1 0x0 PUSH2 0x100 EXP DUP2 SLOAD DUP2 PUSH1 0xFF MUL NOT AND SWAP1 DUP4 ISZERO ISZERO MUL OR SWAP1 SSTORE POP POP JUMP JUMPDEST PUSH1 0x0 PUSH1 0x3 PUSH1 0x0 SWAP1 SLOAD SWAP1 PUSH2 0x100 EXP SWAP1 DIV PUSH2 0xFFFF AND SWAP1 POP SWAP1 JUMP JUMPDEST PUSH2 0x59B PUSH2 0x9D7 JUMP JUMPDEST PUSH1 0x1 DUP1 PUSH1 0x0 DUP4 PUSH20 0xFFFFFFFFFFFFFFFFFFFFFFFFFFFFFFFFFFFFFFFF AND PUSH20 0xFFFFFFFFFFFFFFFFFFFFFFFFFFFFFFFFFFFFFFFF AND DUP2 MSTORE PUSH1 0x20 ADD SWAP1 DUP2 MSTORE PUSH1 0x20 ADD PUSH1 0x0 KECCAK256 PUSH1 0x0 PUSH2 0x100 EXP DUP2 SLOAD DUP2 PUSH1 0xFF MUL NOT AND SWAP1 DUP4 ISZERO ISZERO MUL OR SWAP1 SSTORE POP POP JUMP JUMPDEST PUSH2 0x5FD PUSH2 0x9D7 JUMP JUMPDEST PUSH2 0x607 PUSH1 0x0 PUSH2 0xA55 JUMP JUMPDEST JUMP JUMPDEST DUP1 PUSH1 0x1 DUP2 EQ DUP1 PUSH2 0x619 JUMPI POP PUSH1 0x2 DUP2 EQ JUMPDEST DUP1 PUSH2 0x624 JUMPI POP PUSH1 0x3 DUP2 EQ JUMPDEST DUP1 PUSH2 0x62F JUMPI POP PUSH1 0x4 DUP2 EQ JUMPDEST DUP1 PUSH2 0x63A JUMPI POP PUSH1 0x0 DUP2 EQ JUMPDEST ISZERO PUSH2 0x685 JUMPI PUSH1 0x1 PUSH2 0x680 JUMPI PUSH1 0x40 MLOAD PUSH32 0x8C379A000000000000000000000000000000000000000000000000000000000 DUP2 MSTORE PUSH1 0x4 ADD PUSH2 0x677 SWAP1 PUSH2 0xE03 JUMP JUMPDEST PUSH1 0x40 MLOAD DUP1 SWAP2 SUB SWAP1 REVERT JUMPDEST PUSH2 0x6C7 JUMP JUMPDEST PUSH1 0x0 PUSH2 0x6C6 JUMPI PUSH1 0x40 MLOAD PUSH32 0x8C379A000000000000000000000000000000000000000000000000000000000 DUP2 MSTORE PUSH1 0x4 ADD PUSH2 0x6BD SWAP1 PUSH2 0xE6F JUMP JUMPDEST PUSH1 0x40 MLOAD DUP1 SWAP2 SUB SWAP1 REVERT JUMPDEST JUMPDEST DUP2 PUSH1 0x4 DUP2 SWAP1 SSTORE POP POP POP JUMP JUMPDEST PUSH1 0x0 DUP1 PUSH1 0x0 SWAP1 SLOAD SWAP1 PUSH2 0x100 EXP SWAP1 DIV PUSH20 0xFFFFFFFFFFFFFFFFFFFFFFFFFFFFFFFFFFFFFFFF AND SWAP1 POP SWAP1 JUMP JUMPDEST PUSH1 0x0 DUP1 PUSH1 0x0 DUP1 PUSH1 0x0 DUP1 PUSH1 0x0 DUP1 PUSH1 0x0 DUP1 PUSH1 0x0 DUP1 PUSH1 0x3 PUSH1 0x0 SWAP1 SLOAD SWAP1 PUSH2 0x100 EXP SWAP1 DIV PUSH2 0xFFFF AND PUSH1 0x3 PUSH1 0x2 SWAP1 SLOAD SWAP1 PUSH2 0x100 EXP SWAP1 DIV PUSH2 0xFFFF AND PUSH1 0x3 PUSH1 0x4 SWAP1 SLOAD SWAP1 PUSH2 0x100 EXP SWAP1 DIV PUSH2 0xFFFF AND PUSH1 0x3 PUSH1 0x6 SWAP1 SLOAD SWAP1 PUSH2 0x100 EXP SWAP1 DIV PUSH2 0xFFFF AND PUSH1 0x3 PUSH1 0x8 SWAP1 SLOAD SWAP1 PUSH2 0x100 EXP SWAP1 DIV PUSH2 0xFFFF AND PUSH1 0x3 PUSH1 0xA SWAP1 SLOAD SWAP1 PUSH2 0x100 EXP SWAP1 DIV PUSH2 0xFFFF AND PUSH1 0x3 PUSH1 0xC SWAP1 SLOAD SWAP1 PUSH2 0x100 EXP SWAP1 DIV PUSH2 0xFFFF AND PUSH1 0x3 PUSH1 0xE SWAP1 SLOAD SWAP1 PUSH2 0x100 EXP SWAP1 DIV PUSH2 0xFFFF AND PUSH1 0x3 PUSH1 0x10 SWAP1 SLOAD SWAP1 PUSH2 0x100 EXP SWAP1 DIV PUSH2 0xFFFF AND PUSH1 0x3 PUSH1 0x12 SWAP1 SLOAD SWAP1 PUSH2 0x100 EXP SWAP1 DIV PUSH2 0xFFFF AND PUSH1 0x3 PUSH1 0x14 SWAP1 SLOAD SWAP1 PUSH2 0x100 EXP SWAP1 DIV PUSH2 0xFFFF AND PUSH1 0x3 PUSH1 0x16 SWAP1 SLOAD SWAP1 PUSH2 0x100 EXP SWAP1 DIV PUSH2 0xFFFF AND SWAP12 POP SWAP12 POP SWAP12 POP SWAP12 POP SWAP12 POP SWAP12 POP SWAP12 POP SWAP12 POP SWAP12 POP SWAP12 POP SWAP12 POP SWAP12 POP SWAP1 SWAP2 SWAP3 SWAP4 SWAP5 SWAP6 SWAP7 SWAP8 SWAP9 SWAP10 SWAP11 SWAP12 JUMP JUMPDEST PUSH1 0x0 PUSH1 0x3 PUSH1 0x14 SWAP1 SLOAD SWAP1 PUSH2 0x100 EXP SWAP1 DIV PUSH2 0xFFFF AND SWAP1 POP SWAP1 JUMP JUMPDEST PUSH1 0x0 PUSH1 0x3 PUSH1 0xE SWAP1 SLOAD SWAP1 PUSH2 0x100 EXP SWAP1 DIV PUSH2 0xFFFF AND SWAP1 POP SWAP1 JUMP JUMPDEST PUSH1 0x0 PUSH1 0x4 SLOAD SWAP1 POP SWAP1 JUMP JUMPDEST PUSH1 0x0 PUSH2 0x851 PUSH1 0x1 PUSH1 0x4 SLOAD PUSH2 0xB19 SWAP1 SWAP2 SWAP1 PUSH4 0xFFFFFFFF AND JUMP JUMPDEST SWAP1 POP SWAP1 JUMP JUMPDEST PUSH1 0x0 PUSH1 0x3 PUSH1 0xA SWAP1 SLOAD SWAP1 PUSH2 0x100 EXP SWAP1 DIV PUSH2 0xFFFF AND SWAP1 POP SWAP1 JUMP JUMPDEST PUSH1 0x0 PUSH1 0x3 PUSH1 0x6 SWAP1 SLOAD SWAP1 PUSH2 0x100 EXP SWAP1 DIV PUSH2 0xFFFF AND SWAP1 POP SWAP1 JUMP JUMPDEST PUSH1 0x0 PUSH1 0x3 PUSH1 0xC SWAP1 SLOAD SWAP1 PUSH2 0x100 EXP SWAP1 DIV PUSH2 0xFFFF AND SWAP1 POP SWAP1 JUMP JUMPDEST PUSH1 0x0 PUSH1 0x3 PUSH1 0x12 SWAP1 SLOAD SWAP1 PUSH2 0x100 EXP SWAP1 DIV PUSH2 0xFFFF AND SWAP1 POP SWAP1 JUMP JUMPDEST PUSH1 0x0 PUSH1 0x1 PUSH1 0x0 CALLER PUSH20 0xFFFFFFFFFFFFFFFFFFFFFFFFFFFFFFFFFFFFFFFF AND PUSH20 0xFFFFFFFFFFFFFFFFFFFFFFFFFFFFFFFFFFFFFFFF AND DUP2 MSTORE PUSH1 0x20 ADD SWAP1 DUP2 MSTORE PUSH1 0x20 ADD PUSH1 0x0 KECCAK256 PUSH1 0x0 SWAP1 SLOAD SWAP1 PUSH2 0x100 EXP SWAP1 DIV PUSH1 0xFF AND PUSH2 0x944 JUMPI PUSH1 0x40 MLOAD PUSH32 0x8C379A000000000000000000000000000000000000000000000000000000000 DUP2 MSTORE PUSH1 0x4 ADD PUSH2 0x93B SWAP1 PUSH2 0xEDB JUMP JUMPDEST PUSH1 0x40 MLOAD DUP1 SWAP2 SUB SWAP1 REVERT JUMPDEST DUP2 PUSH1 0x4 DUP2 SWAP1 SSTORE POP PUSH1 0x1 SWAP1 POP SWAP2 SWAP1 POP JUMP JUMPDEST PUSH2 0x95C PUSH2 0x9D7 JUMP JUMPDEST PUSH1 0x0 PUSH20 0xFFFFFFFFFFFFFFFFFFFFFFFFFFFFFFFFFFFFFFFF AND DUP2 PUSH20 0xFFFFFFFFFFFFFFFFFFFFFFFFFFFFFFFFFFFFFFFF AND SUB PUSH2 0x9CB JUMPI PUSH1 0x40 MLOAD PUSH32 0x8C379A000000000000000000000000000000000000000000000000000000000 DUP2 MSTORE PUSH1 0x4 ADD PUSH2 0x9C2 SWAP1 PUSH2 0xF6D JUMP JUMPDEST PUSH1 0x40 MLOAD DUP1 SWAP2 SUB SWAP1 REVERT JUMPDEST PUSH2 0x9D4 DUP2 PUSH2 0xA55 JUMP JUMPDEST POP JUMP JUMPDEST PUSH2 0x9DF PUSH2 0xB2F JUMP JUMPDEST PUSH20 0xFFFFFFFFFFFFFFFFFFFFFFFFFFFFFFFFFFFFFFFF AND PUSH2 0x9FD PUSH2 0x6D2 JUMP JUMPDEST PUSH20 0xFFFFFFFFFFFFFFFFFFFFFFFFFFFFFFFFFFFFFFFF AND EQ PUSH2 0xA53 JUMPI PUSH1 0x40 MLOAD PUSH32 0x8C379A000000000000000000000000000000000000000000000000000000000 DUP2 MSTORE PUSH1 0x4 ADD PUSH2 0xA4A SWAP1 PUSH2 0xFD9 JUMP JUMPDEST PUSH1 0x40 MLOAD DUP1 SWAP2 SUB SWAP1 REVERT JUMPDEST JUMP JUMPDEST PUSH1 0x0 DUP1 PUSH1 0x0 SWAP1 SLOAD SWAP1 PUSH2 0x100 EXP SWAP1 DIV PUSH20 0xFFFFFFFFFFFFFFFFFFFFFFFFFFFFFFFFFFFFFFFF AND SWAP1 POP DUP2 PUSH1 0x0 DUP1 PUSH2 0x100 EXP DUP2 SLOAD DUP2 PUSH20 0xFFFFFFFFFFFFFFFFFFFFFFFFFFFFFFFFFFFFFFFF MUL NOT AND SWAP1 DUP4 PUSH20 0xFFFFFFFFFFFFFFFFFFFFFFFFFFFFFFFFFFFFFFFF AND MUL OR SWAP1 SSTORE POP DUP2 PUSH20 0xFFFFFFFFFFFFFFFFFFFFFFFFFFFFFFFFFFFFFFFF AND DUP2 PUSH20 0xFFFFFFFFFFFFFFFFFFFFFFFFFFFFFFFFFFFFFFFF AND PUSH32 0x8BE0079C531659141344CD1FD0A4F28419497F9722A3DAAFE3B4186F6B6457E0 PUSH1 0x40 MLOAD PUSH1 0x40 MLOAD DUP1 SWAP2 SUB SWAP1 LOG3 POP POP JUMP JUMPDEST PUSH1 0x0 DUP2 DUP4 PUSH2 0xB27 SWAP2 SWAP1 PUSH2 0x1028 JUMP JUMPDEST SWAP1 POP SWAP3 SWAP2 POP POP JUMP JUMPDEST PUSH1 0x0 CALLER SWAP1 POP SWAP1 JUMP JUMPDEST PUSH1 0x0 PUSH2 0xFFFF DUP3 AND SWAP1 POP SWAP2 SWAP1 POP JUMP JUMPDEST PUSH2 0xB4E DUP2 PUSH2 0xB37 JUMP JUMPDEST DUP3 MSTORE POP POP JUMP JUMPDEST PUSH1 0x0 PUSH1 0x20 DUP3 ADD SWAP1 POP PUSH2 0xB69 PUSH1 0x0 DUP4 ADD DUP5 PUSH2 0xB45 JUMP JUMPDEST SWAP3 SWAP2 POP POP JUMP JUMPDEST PUSH1 0x0 DUP1 REVERT JUMPDEST PUSH1 0x0 PUSH20 0xFFFFFFFFFFFFFFFFFFFFFFFFFFFFFFFFFFFFFFFF DUP3 AND SWAP1 POP SWAP2 SWAP1 POP JUMP JUMPDEST PUSH1 0x0 PUSH2 0xB9F DUP3 PUSH2 0xB74 JUMP JUMPDEST SWAP1 POP SWAP2 SWAP1 POP JUMP JUMPDEST PUSH2 0xBAF DUP2 PUSH2 0xB94 JUMP JUMPDEST DUP2 EQ PUSH2 0xBBA JUMPI PUSH1 0x0 DUP1 REVERT JUMPDEST POP JUMP JUMPDEST PUSH1 0x0 DUP2 CALLDATALOAD SWAP1 POP PUSH2 0xBCC DUP2 PUSH2 0xBA6 JUMP JUMPDEST SWAP3 SWAP2 POP POP JUMP JUMPDEST PUSH1 0x0 PUSH1 0x20 DUP3 DUP5 SUB SLT ISZERO PUSH2 0xBE8 JUMPI PUSH2 0xBE7 PUSH2 0xB6F JUMP JUMPDEST JUMPDEST PUSH1 0x0 PUSH2 0xBF6 DUP5 DUP3 DUP6 ADD PUSH2 0xBBD JUMP JUMPDEST SWAP2 POP POP SWAP3 SWAP2 POP POP JUMP JUMPDEST PUSH1 0x0 DUP2 ISZERO ISZERO SWAP1 POP SWAP2 SWAP1 POP JUMP JUMPDEST PUSH2 0xC14 DUP2 PUSH2 0xBFF JUMP JUMPDEST DUP3 MSTORE POP POP JUMP JUMPDEST PUSH1 0x0 PUSH1 0x20 DUP3 ADD SWAP1 POP PUSH2 0xC2F PUSH1 0x0 DUP4 ADD DUP5 PUSH2 0xC0B JUMP JUMPDEST SWAP3 SWAP2 POP POP JUMP JUMPDEST PUSH1 0x0 DUP2 SWAP1 POP SWAP2 SWAP1 POP JUMP JUMPDEST PUSH2 0xC48 DUP2 PUSH2 0xC35 JUMP JUMPDEST DUP3 MSTORE POP POP JUMP JUMPDEST PUSH1 0x0 PUSH1 0x20 DUP3 ADD SWAP1 POP PUSH2 0xC63 PUSH1 0x0 DUP4 ADD DUP5 PUSH2 0xC3F JUMP JUMPDEST SWAP3 SWAP2 POP POP JUMP JUMPDEST PUSH2 0xC72 DUP2 PUSH2 0xC35 JUMP JUMPDEST DUP2 EQ PUSH2 0xC7D JUMPI PUSH1 0x0 DUP1 REVERT JUMPDEST POP JUMP JUMPDEST PUSH1 0x0 DUP2 CALLDATALOAD SWAP1 POP PUSH2 0xC8F DUP2 PUSH2 0xC69 JUMP JUMPDEST SWAP3 SWAP2 POP POP JUMP JUMPDEST PUSH1 0x0 PUSH1 0x20 DUP3 DUP5 SUB SLT ISZERO PUSH2 0xCAB JUMPI PUSH2 0xCAA PUSH2 0xB6F JUMP JUMPDEST JUMPDEST PUSH1 0x0 PUSH2 0xCB9 DUP5 DUP3 DUP6 ADD PUSH2 0xC80 JUMP JUMPDEST SWAP2 POP POP SWAP3 SWAP2 POP POP JUMP JUMPDEST PUSH2 0xCCB DUP2 PUSH2 0xB94 JUMP JUMPDEST DUP3 MSTORE POP POP JUMP JUMPDEST PUSH1 0x0 PUSH1 0x20 DUP3 ADD SWAP1 POP PUSH2 0xCE6 PUSH1 0x0 DUP4 ADD DUP5 PUSH2 0xCC2 JUMP JUMPDEST SWAP3 SWAP2 POP POP JUMP JUMPDEST PUSH1 0x0 PUSH2 0x180 DUP3 ADD SWAP1 POP PUSH2 0xD02 PUSH1 0x0 DUP4 ADD DUP16 PUSH2 0xB45 JUMP JUMPDEST PUSH2 0xD0F PUSH1 0x20 DUP4 ADD DUP15 PUSH2 0xB45 JUMP JUMPDEST PUSH2 0xD1C PUSH1 0x40 DUP4 ADD DUP14 PUSH2 0xB45 JUMP JUMPDEST PUSH2 0xD29 PUSH1 0x60 DUP4 ADD DUP13 PUSH2 0xB45 JUMP JUMPDEST PUSH2 0xD36 PUSH1 0x80 DUP4 ADD DUP12 PUSH2 0xB45 JUMP JUMPDEST PUSH2 0xD43 PUSH1 0xA0 DUP4 ADD DUP11 PUSH2 0xB45 JUMP JUMPDEST PUSH2 0xD50 PUSH1 0xC0 DUP4 ADD DUP10 PUSH2 0xB45 JUMP JUMPDEST PUSH2 0xD5D PUSH1 0xE0 DUP4 ADD DUP9 PUSH2 0xB45 JUMP JUMPDEST PUSH2 0xD6B PUSH2 0x100 DUP4 ADD DUP8 PUSH2 0xB45 JUMP JUMPDEST PUSH2 0xD79 PUSH2 0x120 DUP4 ADD DUP7 PUSH2 0xB45 JUMP JUMPDEST PUSH2 0xD87 PUSH2 0x140 DUP4 ADD DUP6 PUSH2 0xB45 JUMP JUMPDEST PUSH2 0xD95 PUSH2 0x160 DUP4 ADD DUP5 PUSH2 0xB45 JUMP JUMPDEST SWAP14 SWAP13 POP POP POP POP POP POP POP POP POP POP POP POP POP JUMP JUMPDEST PUSH1 0x0 DUP3 DUP3 MSTORE PUSH1 0x20 DUP3 ADD SWAP1 POP SWAP3 SWAP2 POP POP JUMP JUMPDEST PUSH32 0x4C6567616C206669656C642076616C7565000000000000000000000000000000 PUSH1 0x0 DUP3 ADD MSTORE POP JUMP JUMPDEST PUSH1 0x0 PUSH2 0xDED PUSH1 0x11 DUP4 PUSH2 0xDA6 JUMP JUMPDEST SWAP2 POP PUSH2 0xDF8 DUP3 PUSH2 0xDB7 JUMP JUMPDEST PUSH1 0x20 DUP3 ADD SWAP1 POP SWAP2 SWAP1 POP JUMP JUMPDEST PUSH1 0x0 PUSH1 0x20 DUP3 ADD SWAP1 POP DUP2 DUP2 SUB PUSH1 0x0 DUP4 ADD MSTORE PUSH2 0xE1C DUP2 PUSH2 0xDE0 JUMP JUMPDEST SWAP1 POP SWAP2 SWAP1 POP JUMP JUMPDEST PUSH32 0x496E76616C6964206669656C642076616C756500000000000000000000000000 PUSH1 0x0 DUP3 ADD MSTORE POP JUMP JUMPDEST PUSH1 0x0 PUSH2 0xE59 PUSH1 0x13 DUP4 PUSH2 0xDA6 JUMP JUMPDEST SWAP2 POP PUSH2 0xE64 DUP3 PUSH2 0xE23 JUMP JUMPDEST PUSH1 0x20 DUP3 ADD SWAP1 POP SWAP2 SWAP1 POP JUMP JUMPDEST PUSH1 0x0 PUSH1 0x20 DUP3 ADD SWAP1 POP DUP2 DUP2 SUB PUSH1 0x0 DUP4 ADD MSTORE PUSH2 0xE88 DUP2 PUSH2 0xE4C JUMP JUMPDEST SWAP1 POP SWAP2 SWAP1 POP JUMP JUMPDEST PUSH32 0x4F6E6C792061646D696E2063616E2063616C6C20697400000000000000000000 PUSH1 0x0 DUP3 ADD MSTORE POP JUMP JUMPDEST PUSH1 0x0 PUSH2 0xEC5 PUSH1 0x16 DUP4 PUSH2 0xDA6 JUMP JUMPDEST SWAP2 POP PUSH2 0xED0 DUP3 PUSH2 0xE8F JUMP JUMPDEST PUSH1 0x20 DUP3 ADD SWAP1 POP SWAP2 SWAP1 POP JUMP JUMPDEST PUSH1 0x0 PUSH1 0x20 DUP3 ADD SWAP1 POP DUP2 DUP2 SUB PUSH1 0x0 DUP4 ADD MSTORE PUSH2 0xEF4 DUP2 PUSH2 0xEB8 JUMP JUMPDEST SWAP1 POP SWAP2 SWAP1 POP JUMP JUMPDEST PUSH32 0x4F776E61626C653A206E6577206F776E657220697320746865207A65726F2061 PUSH1 0x0 DUP3 ADD MSTORE PUSH32 0x6464726573730000000000000000000000000000000000000000000000000000 PUSH1 0x20 DUP3 ADD MSTORE POP JUMP JUMPDEST PUSH1 0x0 PUSH2 0xF57 PUSH1 0x26 DUP4 PUSH2 0xDA6 JUMP JUMPDEST SWAP2 POP PUSH2 0xF62 DUP3 PUSH2 0xEFB JUMP JUMPDEST PUSH1 0x40 DUP3 ADD SWAP1 POP SWAP2 SWAP1 POP JUMP JUMPDEST PUSH1 0x0 PUSH1 0x20 DUP3 ADD SWAP1 POP DUP2 DUP2 SUB PUSH1 0x0 DUP4 ADD MSTORE PUSH2 0xF86 DUP2 PUSH2 0xF4A JUMP JUMPDEST SWAP1 POP SWAP2 SWAP1 POP JUMP JUMPDEST PUSH32 0x4F776E61626C653A2063616C6C6572206973206E6F7420746865206F776E6572 PUSH1 0x0 DUP3 ADD MSTORE POP JUMP JUMPDEST PUSH1 0x0 PUSH2 0xFC3 PUSH1 0x20 DUP4 PUSH2 0xDA6 JUMP JUMPDEST SWAP2 POP PUSH2 0xFCE DUP3 PUSH2 0xF8D JUMP JUMPDEST PUSH1 0x20 DUP3 ADD SWAP1 POP SWAP2 SWAP1 POP JUMP JUMPDEST PUSH1 0x0 PUSH1 0x20 DUP3 ADD SWAP1 POP DUP2 DUP2 SUB PUSH1 0x0 DUP4 ADD MSTORE PUSH2 0xFF2 DUP2 PUSH2 0xFB6 JUMP JUMPDEST SWAP1 POP SWAP2 SWAP1 POP JUMP JUMPDEST PUSH32 0x4E487B7100000000000000000000000000000000000000000000000000000000 PUSH1 0x0 MSTORE PUSH1 0x11 PUSH1 0x4 MSTORE PUSH1 0x24 PUSH1 0x0 REVERT JUMPDEST PUSH1 0x0 PUSH2 0x1033 DUP3 PUSH2 0xC35 JUMP JUMPDEST SWAP2 POP PUSH2 0x103E DUP4 PUSH2 0xC35 JUMP JUMPDEST SWAP3 POP DUP3 DUP3 SUB SWAP1 POP DUP2 DUP2 GT ISZERO PUSH2 0x1056 JUMPI PUSH2 0x1055 PUSH2 0xFF9 JUMP JUMPDEST JUMPDEST SWAP3 SWAP2 POP POP JUMP INVALID LOG2 PUSH5 0x6970667358 0x22 SLT KECCAK256 SWAP9 0xBE 0xE5 0x4E 0xDD 0x22 0x5D DUP5 DUP12 SWAP13 CHAINID PUSH2 0x6BEF PUSH20 0xC7D72EED92E391DF0544AC997A815C70E764736F PUSH13 0x63430008110033000000000000 "
				},
				"gasEstimates": {
					"creation": {
						"codeDepositCost": "848400",
						"executionCost": "infinite",
						"totalCost": "infinite"
					},
					"external": {
						"addAdmin(address)": "27165",
						"delAdmin(address)": "27121",
						"getAllCons()": "infinite",
						"getCpu()": "2573",
						"getCpuWeights()": "2641",
						"getGraphicsCard()": "2551",
						"getGraphicsCardWeights()": "2596",
						"getHardDisk()": "2595",
						"getHardDiskWeights()": "2553",
						"getIP()": "2618",
						"getMemWeights()": "2617",
						"getMemory()": "2663",
						"getOffline()": "2552",
						"getOnline()": "2546",
						"getRendering()": "2597",
						"getStakeAmountLimit()": "2548",
						"getTotalTokenIssuance()": "2527",
						"isAdmin(address)": "2929",
						"owner()": "2545",
						"renounceOwnership()": "30509",
						"returnRes()": "infinite",
						"setRes(uint256)": "22824",
						"setStakeAmountLimit(uint256)": "25074",
						"transferOwnership(address)": "30876"
					}
				},
				"methodIdentifiers": {
					"addAdmin(address)": "70480275",
					"delAdmin(address)": "62d91855",
					"getAllCons()": "8e41abab",
					"getCpu()": "afc1c88e",
					"getCpuWeights()": "3bf331cd",
					"getGraphicsCard()": "a63b6188",
					"getGraphicsCardWeights()": "927e00e8",
					"getHardDisk()": "b10186fd",
					"getHardDiskWeights()": "092afee3",
					"getIP()": "96355b2e",
					"getMemWeights()": "ba852775",
					"getMemory()": "3f4702c0",
					"getOffline()": "5809cdb5",
					"getOnline()": "64693b87",
					"getRendering()": "331b4cda",
					"getStakeAmountLimit()": "9a403ff6",
					"getTotalTokenIssuance()": "36ffc86d",
					"isAdmin(address)": "24d7806c",
					"owner()": "8da5cb5b",
					"renounceOwnership()": "715018a6",
					"returnRes()": "a1f35497",
					"setRes(uint256)": "7ccd0c70",
					"setStakeAmountLimit(uint256)": "c5fc66a4",
					"transferOwnership(address)": "f2fde38b"
				}
			},
			"storageLayout": {
				"storage": [
					{
						"astId": 7,
						"contract": "contracts/Constant.sol:Constant",
						"label": "_owner",
						"offset": 0,
						"slot": "0",
						"type": "t_address"
					},
					{
						"astId": 143,
						"contract": "contracts/Constant.sol:Constant",
						"label": "_admins",
						"offset": 0,
						"slot": "1",
						"type": "t_mapping(t_address,t_bool)"
					},
					{
						"astId": 270,
						"contract": "contracts/Constant.sol:Constant",
						"label": "totalTokenIssuance",
						"offset": 0,
						"slot": "2",
						"type": "t_uint256"
					},
					{
						"astId": 273,
						"contract": "contracts/Constant.sol:Constant",
						"label": "online",
						"offset": 0,
						"slot": "3",
						"type": "t_uint16"
					},
					{
						"astId": 276,
						"contract": "contracts/Constant.sol:Constant",
						"label": "rendering",
						"offset": 2,
						"slot": "3",
						"type": "t_uint16"
					},
					{
						"astId": 279,
						"contract": "contracts/Constant.sol:Constant",
						"label": "offline",
						"offset": 4,
						"slot": "3",
						"type": "t_uint16"
					},
					{
						"astId": 282,
						"contract": "contracts/Constant.sol:Constant",
						"label": "cpu",
						"offset": 6,
						"slot": "3",
						"type": "t_uint16"
					},
					{
						"astId": 285,
						"contract": "contracts/Constant.sol:Constant",
						"label": "mem",
						"offset": 8,
						"slot": "3",
						"type": "t_uint16"
					},
					{
						"astId": 288,
						"contract": "contracts/Constant.sol:Constant",
						"label": "graphicsCard",
						"offset": 10,
						"slot": "3",
						"type": "t_uint16"
					},
					{
						"astId": 291,
						"contract": "contracts/Constant.sol:Constant",
						"label": "hardDisk",
						"offset": 12,
						"slot": "3",
						"type": "t_uint16"
					},
					{
						"astId": 294,
						"contract": "contracts/Constant.sol:Constant",
						"label": "ip",
						"offset": 14,
						"slot": "3",
						"type": "t_uint16"
					},
					{
						"astId": 297,
						"contract": "contracts/Constant.sol:Constant",
						"label": "cpuWeights",
						"offset": 16,
						"slot": "3",
						"type": "t_uint16"
					},
					{
						"astId": 300,
						"contract": "contracts/Constant.sol:Constant",
						"label": "memWeights",
						"offset": 18,
						"slot": "3",
						"type": "t_uint16"
					},
					{
						"astId": 303,
						"contract": "contracts/Constant.sol:Constant",
						"label": "graphicsCardWeights",
						"offset": 20,
						"slot": "3",
						"type": "t_uint16"
					},
					{
						"astId": 306,
						"contract": "contracts/Constant.sol:Constant",
						"label": "hardDiskWeights",
						"offset": 22,
						"slot": "3",
						"type": "t_uint16"
					},
					{
						"astId": 309,
						"contract": "contracts/Constant.sol:Constant",
						"label": "stakeAmountLimit",
						"offset": 0,
						"slot": "4",
						"type": "t_uint256"
					}
				],
				"types": {
					"t_address": {
						"encoding": "inplace",
						"label": "address",
						"numberOfBytes": "20"
					},
					"t_bool": {
						"encoding": "inplace",
						"label": "bool",
						"numberOfBytes": "1"
					},
					"t_mapping(t_address,t_bool)": {
						"encoding": "mapping",
						"key": "t_address",
						"label": "mapping(address => bool)",
						"numberOfBytes": "32",
						"value": "t_bool"
					},
					"t_uint16": {
						"encoding": "inplace",
						"label": "uint16",
						"numberOfBytes": "2"
					},
					"t_uint256": {
						"encoding": "inplace",
						"label": "uint256",
						"numberOfBytes": "32"
					}
				}
			},
			"userdoc": {
				"kind": "user",
				"methods": {},
				"version": 1
			}
		}
	}
}