{
	"contracts/Constant1.sol": {
		"AuthVerify": {
			"abi": [
				{
					"anonymous": false,
					"inputs": [
						{
							"indexed": true,
							"internalType": "address",
							"name": "previousOwner",
							"type": "address"
						},
						{
							"indexed": true,
							"internalType": "address",
							"name": "newOwner",
							"type": "address"
						}
					],
					"name": "OwnershipTransferred",
					"type": "event"
				},
				{
					"inputs": [
						{
							"internalType": "address",
							"name": "_admin",
							"type": "address"
						}
					],
					"name": "addAdmin",
					"outputs": [],
					"stateMutability": "nonpayable",
					"type": "function"
				},
				{
					"inputs": [
						{
							"internalType": "string[]",
							"name": "keys",
							"type": "string[]"
						},
						{
							"internalType": "address[]",
							"name": "caller",
							"type": "address[]"
						}
					],
					"name": "addCaller",
					"outputs": [],
					"stateMutability": "nonpayable",
					"type": "function"
				},
				{
					"inputs": [
						{
							"internalType": "address",
							"name": "_admin",
							"type": "address"
						}
					],
					"name": "delAdmin",
					"outputs": [],
					"stateMutability": "nonpayable",
					"type": "function"
				},
				{
					"inputs": [
						{
							"internalType": "string",
							"name": "key",
							"type": "string"
						}
					],
					"name": "getCaller",
					"outputs": [
						{
							"internalType": "address",
							"name": "",
							"type": "address"
						}
					],
					"stateMutability": "view",
					"type": "function"
				},
				{
					"inputs": [
						{
							"internalType": "address",
							"name": "_addr",
							"type": "address"
						}
					],
					"name": "isAdmin",
					"outputs": [
						{
							"internalType": "bool",
							"name": "",
							"type": "bool"
						}
					],
					"stateMutability": "view",
					"type": "function"
				},
				{
					"inputs": [
						{
							"internalType": "string",
							"name": "key",
							"type": "string"
						},
						{
							"internalType": "address",
							"name": "caller",
							"type": "address"
						}
					],
					"name": "onlyCaller",
					"outputs": [
						{
							"internalType": "bool",
							"name": "",
							"type": "bool"
						}
					],
					"stateMutability": "view",
					"type": "function"
				},
				{
					"inputs": [],
					"name": "owner",
					"outputs": [
						{
							"internalType": "address",
							"name": "",
							"type": "address"
						}
					],
					"stateMutability": "view",
					"type": "function"
				},
				{
					"inputs": [],
					"name": "renounceOwnership",
					"outputs": [],
					"stateMutability": "nonpayable",
					"type": "function"
				},
				{
					"inputs": [
						{
							"internalType": "address",
							"name": "newOwner",
							"type": "address"
						}
					],
					"name": "transferOwnership",
					"outputs": [],
					"stateMutability": "nonpayable",
					"type": "function"
				}
			],
			"devdoc": {
				"kind": "dev",
				"methods": {
					"owner()": {
						"details": "Returns the address of the current owner."
					},
					"renounceOwnership()": {
						"details": "Leaves the contract without owner. It will not be possible to call `onlyOwner` functions anymore. Can only be called by the current owner. NOTE: Renouncing ownership will leave the contract without an owner, thereby removing any functionality that is only available to the owner."
					},
					"transferOwnership(address)": {
						"details": "Transfers ownership of the contract to a new account (`newOwner`). Can only be called by the current owner."
					}
				},
				"version": 1
			},
			"evm": {
				"assembly": "    /* \"contracts/Constant1.sol\":600:1174  contract AuthVerify is Admin {... */\n  mstore(0x40, 0x80)\n  callvalue\n  dup1\n  iszero\n  tag_1\n  jumpi\n  0x00\n  dup1\n  revert\ntag_1:\n  pop\n    /* \"@openzeppelin/contracts/access/Ownable.sol\":936:968  _transferOwnership(_msgSender()) */\n  tag_4\n    /* \"@openzeppelin/contracts/access/Ownable.sol\":955:967  _msgSender() */\n  tag_5\n    /* \"@openzeppelin/contracts/access/Ownable.sol\":955:965  _msgSender */\n  shl(0x20, tag_6)\n    /* \"@openzeppelin/contracts/access/Ownable.sol\":955:967  _msgSender() */\n  0x20\n  shr\n  jump\t// in\ntag_5:\n    /* \"@openzeppelin/contracts/access/Ownable.sol\":936:954  _transferOwnership */\n  shl(0x20, tag_7)\n    /* \"@openzeppelin/contracts/access/Ownable.sol\":936:968  _transferOwnership(_msgSender()) */\n  0x20\n  shr\n  jump\t// in\ntag_4:\n    /* \"contracts/Constant1.sol\":600:1174  contract AuthVerify is Admin {... */\n  jump(tag_8)\n    /* \"@openzeppelin/contracts/utils/Context.sol\":640:736  function _msgSender() internal view virtual returns (address) {... */\ntag_6:\n    /* \"@openzeppelin/contracts/utils/Context.sol\":693:700  address */\n  0x00\n    /* \"@openzeppelin/contracts/utils/Context.sol\":719:729  msg.sender */\n  caller\n    /* \"@openzeppelin/contracts/utils/Context.sol\":712:729  return msg.sender */\n  swap1\n  pop\n    /* \"@openzeppelin/contracts/utils/Context.sol\":640:736  function _msgSender() internal view virtual returns (address) {... */\n  swap1\n  jump\t// out\n    /* \"@openzeppelin/contracts/access/Ownable.sol\":2433:2620  function _transferOwnership(address newOwner) internal virtual {... */\ntag_7:\n    /* \"@openzeppelin/contracts/access/Ownable.sol\":2506:2522  address oldOwner */\n  0x00\n    /* \"@openzeppelin/contracts/access/Ownable.sol\":2525:2531  _owner */\n  dup1\n  0x00\n  swap1\n  sload\n  swap1\n  0x0100\n  exp\n  swap1\n  div\n  0xffffffffffffffffffffffffffffffffffffffff\n  and\n    /* \"@openzeppelin/contracts/access/Ownable.sol\":2506:2531  address oldOwner = _owner */\n  swap1\n  pop\n    /* \"@openzeppelin/contracts/access/Ownable.sol\":2550:2558  newOwner */\n  dup2\n    /* \"@openzeppelin/contracts/access/Ownable.sol\":2541:2547  _owner */\n  0x00\n  dup1\n    /* \"@openzeppelin/contracts/access/Ownable.sol\":2541:2558  _owner = newOwner */\n  0x0100\n  exp\n  dup2\n  sload\n  dup2\n  0xffffffffffffffffffffffffffffffffffffffff\n  mul\n  not\n  and\n  swap1\n  dup4\n  0xffffffffffffffffffffffffffffffffffffffff\n  and\n  mul\n  or\n  swap1\n  sstore\n  pop\n    /* \"@openzeppelin/contracts/access/Ownable.sol\":2604:2612  newOwner */\n  dup2\n    /* \"@openzeppelin/contracts/access/Ownable.sol\":2573:2613  OwnershipTransferred(oldOwner, newOwner) */\n  0xffffffffffffffffffffffffffffffffffffffff\n  and\n    /* \"@openzeppelin/contracts/access/Ownable.sol\":2594:2602  oldOwner */\n  dup2\n    /* \"@openzeppelin/contracts/access/Ownable.sol\":2573:2613  OwnershipTransferred(oldOwner, newOwner) */\n  0xffffffffffffffffffffffffffffffffffffffff\n  and\n  0x8be0079c531659141344cd1fd0a4f28419497f9722a3daafe3b4186f6b6457e0\n  mload(0x40)\n  mload(0x40)\n  dup1\n  swap2\n  sub\n  swap1\n  log3\n    /* \"@openzeppelin/contracts/access/Ownable.sol\":2496:2620  {... */\n  pop\n    /* \"@openzeppelin/contracts/access/Ownable.sol\":2433:2620  function _transferOwnership(address newOwner) internal virtual {... */\n  pop\n  jump\t// out\n    /* \"contracts/Constant1.sol\":600:1174  contract AuthVerify is Admin {... */\ntag_8:\n  dataSize(sub_0)\n  dup1\n  dataOffset(sub_0)\n  0x00\n  codecopy\n  0x00\n  return\nstop\n\nsub_0: assembly {\n        /* \"contracts/Constant1.sol\":600:1174  contract AuthVerify is Admin {... */\n      mstore(0x40, 0x80)\n      callvalue\n      dup1\n      iszero\n      tag_1\n      jumpi\n      0x00\n      dup1\n      revert\n    tag_1:\n      pop\n      jumpi(tag_2, lt(calldatasize, 0x04))\n      shr(0xe0, calldataload(0x00))\n      dup1\n      0x715018a6\n      gt\n      tag_12\n      jumpi\n      dup1\n      0x715018a6\n      eq\n      tag_7\n      jumpi\n      dup1\n      0x8da5cb5b\n      eq\n      tag_8\n      jumpi\n      dup1\n      0x9a503eb1\n      eq\n      tag_9\n      jumpi\n      dup1\n      0xa96ed9c1\n      eq\n      tag_10\n      jumpi\n      dup1\n      0xf2fde38b\n      eq\n      tag_11\n      jumpi\n      jump(tag_2)\n    tag_12:\n      dup1\n      0x24d7806c\n      eq\n      tag_3\n      jumpi\n      dup1\n      0x5437733f\n      eq\n      tag_4\n      jumpi\n      dup1\n      0x62d91855\n      eq\n      tag_5\n      jumpi\n      dup1\n      0x70480275\n      eq\n      tag_6\n      jumpi\n    tag_2:\n      0x00\n      dup1\n      revert\n        /* \"contracts/Constant1.sol\":499:596  function isAdmin(address _addr) public view returns (bool) {... */\n    tag_3:\n      tag_13\n      0x04\n      dup1\n      calldatasize\n      sub\n      dup2\n      add\n      swap1\n      tag_14\n      swap2\n      swap1\n      tag_15\n      jump\t// in\n    tag_14:\n      tag_16\n      jump\t// in\n    tag_13:\n      mload(0x40)\n      tag_17\n      swap2\n      swap1\n      tag_18\n      jump\t// in\n    tag_17:\n      mload(0x40)\n      dup1\n      swap2\n      sub\n      swap1\n      return\n        /* \"contracts/Constant1.sol\":1017:1172  function onlyCaller(... */\n    tag_4:\n      tag_19\n      0x04\n      dup1\n      calldatasize\n      sub\n      dup2\n      add\n      swap1\n      tag_20\n      swap2\n      swap1\n      tag_21\n      jump\t// in\n    tag_20:\n      tag_22\n      jump\t// in\n    tag_19:\n      mload(0x40)\n      tag_23\n      swap2\n      swap1\n      tag_18\n      jump\t// in\n    tag_23:\n      mload(0x40)\n      dup1\n      swap2\n      sub\n      swap1\n      return\n        /* \"contracts/Constant1.sol\":402:493  function delAdmin(address _admin) public onlyOwner {... */\n    tag_5:\n      tag_24\n      0x04\n      dup1\n      calldatasize\n      sub\n      dup2\n      add\n      swap1\n      tag_25\n      swap2\n      swap1\n      tag_15\n      jump\t// in\n    tag_25:\n      tag_26\n      jump\t// in\n    tag_24:\n      stop\n        /* \"contracts/Constant1.sol\":306:396  function addAdmin(address _admin) public onlyOwner {... */\n    tag_6:\n      tag_27\n      0x04\n      dup1\n      calldatasize\n      sub\n      dup2\n      add\n      swap1\n      tag_28\n      swap2\n      swap1\n      tag_15\n      jump\t// in\n    tag_28:\n      tag_29\n      jump\t// in\n    tag_27:\n      stop\n        /* \"@openzeppelin/contracts/access/Ownable.sol\":1831:1932  function renounceOwnership() public virtual onlyOwner {... */\n    tag_7:\n      tag_30\n      tag_31\n      jump\t// in\n    tag_30:\n      stop\n        /* \"@openzeppelin/contracts/access/Ownable.sol\":1201:1286  function owner() public view virtual returns (address) {... */\n    tag_8:\n      tag_32\n      tag_33\n      jump\t// in\n    tag_32:\n      mload(0x40)\n      tag_34\n      swap2\n      swap1\n      tag_35\n      jump\t// in\n    tag_34:\n      mload(0x40)\n      dup1\n      swap2\n      sub\n      swap1\n      return\n        /* \"contracts/Constant1.sol\":902:1011  function getCaller(string memory key) external view returns (address) {... */\n    tag_9:\n      tag_36\n      0x04\n      dup1\n      calldatasize\n      sub\n      dup2\n      add\n      swap1\n      tag_37\n      swap2\n      swap1\n      tag_38\n      jump\t// in\n    tag_37:\n      tag_39\n      jump\t// in\n    tag_36:\n      mload(0x40)\n      tag_40\n      swap2\n      swap1\n      tag_35\n      jump\t// in\n    tag_40:\n      mload(0x40)\n      dup1\n      swap2\n      sub\n      swap1\n      return\n        /* \"contracts/Constant1.sol\":679:896  function addCaller(... */\n    tag_10:\n      tag_41\n      0x04\n      dup1\n      calldatasize\n      sub\n      dup2\n      add\n      swap1\n      tag_42\n      swap2\n      swap1\n      tag_43\n      jump\t// in\n    tag_42:\n      tag_44\n      jump\t// in\n    tag_41:\n      stop\n        /* \"@openzeppelin/contracts/access/Ownable.sol\":2081:2279  function transferOwnership(address newOwner) public virtual onlyOwner {... */\n    tag_11:\n      tag_45\n      0x04\n      dup1\n      calldatasize\n      sub\n      dup2\n      add\n      swap1\n      tag_46\n      swap2\n      swap1\n      tag_15\n      jump\t// in\n    tag_46:\n      tag_47\n      jump\t// in\n    tag_45:\n      stop\n        /* \"contracts/Constant1.sol\":499:596  function isAdmin(address _addr) public view returns (bool) {... */\n    tag_16:\n        /* \"contracts/Constant1.sol\":552:556  bool */\n      0x00\n        /* \"contracts/Constant1.sol\":575:582  _admins */\n      0x01\n        /* \"contracts/Constant1.sol\":575:589  _admins[_addr] */\n      0x00\n        /* \"contracts/Constant1.sol\":583:588  _addr */\n      dup4\n        /* \"contracts/Constant1.sol\":575:589  _admins[_addr] */\n      0xffffffffffffffffffffffffffffffffffffffff\n      and\n      0xffffffffffffffffffffffffffffffffffffffff\n      and\n      dup2\n      mstore\n      0x20\n      add\n      swap1\n      dup2\n      mstore\n      0x20\n      add\n      0x00\n      keccak256\n      0x00\n      swap1\n      sload\n      swap1\n      0x0100\n      exp\n      swap1\n      div\n      0xff\n      and\n        /* \"contracts/Constant1.sol\":568:589  return _admins[_addr] */\n      swap1\n      pop\n        /* \"contracts/Constant1.sol\":499:596  function isAdmin(address _addr) public view returns (bool) {... */\n      swap2\n      swap1\n      pop\n      jump\t// out\n        /* \"contracts/Constant1.sol\":1017:1172  function onlyCaller(... */\n    tag_22:\n        /* \"contracts/Constant1.sol\":1117:1121  bool */\n      0x00\n        /* \"contracts/Constant1.sol\":1150:1160  authVerify */\n      0x02\n        /* \"contracts/Constant1.sol\":1161:1164  key */\n      dup4\n        /* \"contracts/Constant1.sol\":1150:1165  authVerify[key] */\n      mload(0x40)\n      tag_50\n      swap2\n      swap1\n      tag_51\n      jump\t// in\n    tag_50:\n      swap1\n      dup2\n      mstore\n      0x20\n      add\n      mload(0x40)\n      dup1\n      swap2\n      sub\n      swap1\n      keccak256\n      0x00\n      swap1\n      sload\n      swap1\n      0x0100\n      exp\n      swap1\n      div\n      0xffffffffffffffffffffffffffffffffffffffff\n      and\n        /* \"contracts/Constant1.sol\":1140:1165  caller == authVerify[key] */\n      0xffffffffffffffffffffffffffffffffffffffff\n      and\n        /* \"contracts/Constant1.sol\":1140:1146  caller */\n      dup3\n        /* \"contracts/Constant1.sol\":1140:1165  caller == authVerify[key] */\n      0xffffffffffffffffffffffffffffffffffffffff\n      and\n      eq\n        /* \"contracts/Constant1.sol\":1133:1165  return caller == authVerify[key] */\n      swap1\n      pop\n        /* \"contracts/Constant1.sol\":1017:1172  function onlyCaller(... */\n      swap3\n      swap2\n      pop\n      pop\n      jump\t// out\n        /* \"contracts/Constant1.sol\":402:493  function delAdmin(address _admin) public onlyOwner {... */\n    tag_26:\n        /* \"@openzeppelin/contracts/access/Ownable.sol\":1094:1107  _checkOwner() */\n      tag_53\n        /* \"@openzeppelin/contracts/access/Ownable.sol\":1094:1105  _checkOwner */\n      tag_54\n        /* \"@openzeppelin/contracts/access/Ownable.sol\":1094:1107  _checkOwner() */\n      jump\t// in\n    tag_53:\n        /* \"contracts/Constant1.sol\":481:486  false */\n      0x00\n        /* \"contracts/Constant1.sol\":463:470  _admins */\n      0x01\n        /* \"contracts/Constant1.sol\":463:478  _admins[_admin] */\n      0x00\n        /* \"contracts/Constant1.sol\":471:477  _admin */\n      dup4\n        /* \"contracts/Constant1.sol\":463:478  _admins[_admin] */\n      0xffffffffffffffffffffffffffffffffffffffff\n      and\n      0xffffffffffffffffffffffffffffffffffffffff\n      and\n      dup2\n      mstore\n      0x20\n      add\n      swap1\n      dup2\n      mstore\n      0x20\n      add\n      0x00\n      keccak256\n      0x00\n        /* \"contracts/Constant1.sol\":463:486  _admins[_admin] = false */\n      0x0100\n      exp\n      dup2\n      sload\n      dup2\n      0xff\n      mul\n      not\n      and\n      swap1\n      dup4\n      iszero\n      iszero\n      mul\n      or\n      swap1\n      sstore\n      pop\n        /* \"contracts/Constant1.sol\":402:493  function delAdmin(address _admin) public onlyOwner {... */\n      pop\n      jump\t// out\n        /* \"contracts/Constant1.sol\":306:396  function addAdmin(address _admin) public onlyOwner {... */\n    tag_29:\n        /* \"@openzeppelin/contracts/access/Ownable.sol\":1094:1107  _checkOwner() */\n      tag_57\n        /* \"@openzeppelin/contracts/access/Ownable.sol\":1094:1105  _checkOwner */\n      tag_54\n        /* \"@openzeppelin/contracts/access/Ownable.sol\":1094:1107  _checkOwner() */\n      jump\t// in\n    tag_57:\n        /* \"contracts/Constant1.sol\":385:389  true */\n      0x01\n        /* \"contracts/Constant1.sol\":367:374  _admins */\n      dup1\n        /* \"contracts/Constant1.sol\":367:382  _admins[_admin] */\n      0x00\n        /* \"contracts/Constant1.sol\":375:381  _admin */\n      dup4\n        /* \"contracts/Constant1.sol\":367:382  _admins[_admin] */\n      0xffffffffffffffffffffffffffffffffffffffff\n      and\n      0xffffffffffffffffffffffffffffffffffffffff\n      and\n      dup2\n      mstore\n      0x20\n      add\n      swap1\n      dup2\n      mstore\n      0x20\n      add\n      0x00\n      keccak256\n      0x00\n        /* \"contracts/Constant1.sol\":367:389  _admins[_admin] = true */\n      0x0100\n      exp\n      dup2\n      sload\n      dup2\n      0xff\n      mul\n      not\n      and\n      swap1\n      dup4\n      iszero\n      iszero\n      mul\n      or\n      swap1\n      sstore\n      pop\n        /* \"contracts/Constant1.sol\":306:396  function addAdmin(address _admin) public onlyOwner {... */\n      pop\n      jump\t// out\n        /* \"@openzeppelin/contracts/access/Ownable.sol\":1831:1932  function renounceOwnership() public virtual onlyOwner {... */\n    tag_31:\n        /* \"@openzeppelin/contracts/access/Ownable.sol\":1094:1107  _checkOwner() */\n      tag_60\n        /* \"@openzeppelin/contracts/access/Ownable.sol\":1094:1105  _checkOwner */\n      tag_54\n        /* \"@openzeppelin/contracts/access/Ownable.sol\":1094:1107  _checkOwner() */\n      jump\t// in\n    tag_60:\n        /* \"@openzeppelin/contracts/access/Ownable.sol\":1895:1925  _transferOwnership(address(0)) */\n      tag_62\n        /* \"@openzeppelin/contracts/access/Ownable.sol\":1922:1923  0 */\n      0x00\n        /* \"@openzeppelin/contracts/access/Ownable.sol\":1895:1913  _transferOwnership */\n      tag_63\n        /* \"@openzeppelin/contracts/access/Ownable.sol\":1895:1925  _transferOwnership(address(0)) */\n      jump\t// in\n    tag_62:\n        /* \"@openzeppelin/contracts/access/Ownable.sol\":1831:1932  function renounceOwnership() public virtual onlyOwner {... */\n      jump\t// out\n        /* \"@openzeppelin/contracts/access/Ownable.sol\":1201:1286  function owner() public view virtual returns (address) {... */\n    tag_33:\n        /* \"@openzeppelin/contracts/access/Ownable.sol\":1247:1254  address */\n      0x00\n        /* \"@openzeppelin/contracts/access/Ownable.sol\":1273:1279  _owner */\n      dup1\n      0x00\n      swap1\n      sload\n      swap1\n      0x0100\n      exp\n      swap1\n      div\n      0xffffffffffffffffffffffffffffffffffffffff\n      and\n        /* \"@openzeppelin/contracts/access/Ownable.sol\":1266:1279  return _owner */\n      swap1\n      pop\n        /* \"@openzeppelin/contracts/access/Ownable.sol\":1201:1286  function owner() public view virtual returns (address) {... */\n      swap1\n      jump\t// out\n        /* \"contracts/Constant1.sol\":902:1011  function getCaller(string memory key) external view returns (address) {... */\n    tag_39:\n        /* \"contracts/Constant1.sol\":963:970  address */\n      0x00\n        /* \"contracts/Constant1.sol\":989:999  authVerify */\n      0x02\n        /* \"contracts/Constant1.sol\":1000:1003  key */\n      dup3\n        /* \"contracts/Constant1.sol\":989:1004  authVerify[key] */\n      mload(0x40)\n      tag_66\n      swap2\n      swap1\n      tag_51\n      jump\t// in\n    tag_66:\n      swap1\n      dup2\n      mstore\n      0x20\n      add\n      mload(0x40)\n      dup1\n      swap2\n      sub\n      swap1\n      keccak256\n      0x00\n      swap1\n      sload\n      swap1\n      0x0100\n      exp\n      swap1\n      div\n      0xffffffffffffffffffffffffffffffffffffffff\n      and\n        /* \"contracts/Constant1.sol\":982:1004  return authVerify[key] */\n      swap1\n      pop\n        /* \"contracts/Constant1.sol\":902:1011  function getCaller(string memory key) external view returns (address) {... */\n      swap2\n      swap1\n      pop\n      jump\t// out\n        /* \"contracts/Constant1.sol\":679:896  function addCaller(... */\n    tag_44:\n        /* \"@openzeppelin/contracts/access/Ownable.sol\":1094:1107  _checkOwner() */\n      tag_68\n        /* \"@openzeppelin/contracts/access/Ownable.sol\":1094:1105  _checkOwner */\n      tag_54\n        /* \"@openzeppelin/contracts/access/Ownable.sol\":1094:1107  _checkOwner() */\n      jump\t// in\n    tag_68:\n        /* \"contracts/Constant1.sol\":800:806  uint i */\n      0x00\n        /* \"contracts/Constant1.sol\":795:890  for (uint i = 0; i < keys.length; i++) {... */\n    tag_70:\n        /* \"contracts/Constant1.sol\":816:820  keys */\n      dup3\n        /* \"contracts/Constant1.sol\":816:827  keys.length */\n      mload\n        /* \"contracts/Constant1.sol\":812:813  i */\n      dup2\n        /* \"contracts/Constant1.sol\":812:827  i < keys.length */\n      lt\n        /* \"contracts/Constant1.sol\":795:890  for (uint i = 0; i < keys.length; i++) {... */\n      iszero\n      tag_71\n      jumpi\n        /* \"contracts/Constant1.sol\":870:876  caller */\n      dup2\n        /* \"contracts/Constant1.sol\":877:878  i */\n      dup2\n        /* \"contracts/Constant1.sol\":870:879  caller[i] */\n      dup2\n      mload\n      dup2\n      lt\n      tag_73\n      jumpi\n      tag_74\n      tag_75\n      jump\t// in\n    tag_74:\n    tag_73:\n      0x20\n      mul\n      0x20\n      add\n      add\n      mload\n        /* \"contracts/Constant1.sol\":848:858  authVerify */\n      0x02\n        /* \"contracts/Constant1.sol\":859:863  keys */\n      dup5\n        /* \"contracts/Constant1.sol\":864:865  i */\n      dup4\n        /* \"contracts/Constant1.sol\":859:866  keys[i] */\n      dup2\n      mload\n      dup2\n      lt\n      tag_76\n      jumpi\n      tag_77\n      tag_75\n      jump\t// in\n    tag_77:\n    tag_76:\n      0x20\n      mul\n      0x20\n      add\n      add\n      mload\n        /* \"contracts/Constant1.sol\":848:867  authVerify[keys[i]] */\n      mload(0x40)\n      tag_78\n      swap2\n      swap1\n      tag_51\n      jump\t// in\n    tag_78:\n      swap1\n      dup2\n      mstore\n      0x20\n      add\n      mload(0x40)\n      dup1\n      swap2\n      sub\n      swap1\n      keccak256\n      0x00\n        /* \"contracts/Constant1.sol\":848:879  authVerify[keys[i]] = caller[i] */\n      0x0100\n      exp\n      dup2\n      sload\n      dup2\n      0xffffffffffffffffffffffffffffffffffffffff\n      mul\n      not\n      and\n      swap1\n      dup4\n      0xffffffffffffffffffffffffffffffffffffffff\n      and\n      mul\n      or\n      swap1\n      sstore\n      pop\n        /* \"contracts/Constant1.sol\":829:832  i++ */\n      dup1\n      dup1\n      tag_79\n      swap1\n      tag_80\n      jump\t// in\n    tag_79:\n      swap2\n      pop\n      pop\n        /* \"contracts/Constant1.sol\":795:890  for (uint i = 0; i < keys.length; i++) {... */\n      jump(tag_70)\n    tag_71:\n      pop\n        /* \"contracts/Constant1.sol\":679:896  function addCaller(... */\n      pop\n      pop\n      jump\t// out\n        /* \"@openzeppelin/contracts/access/Ownable.sol\":2081:2279  function transferOwnership(address newOwner) public virtual onlyOwner {... */\n    tag_47:\n        /* \"@openzeppelin/contracts/access/Ownable.sol\":1094:1107  _checkOwner() */\n      tag_82\n        /* \"@openzeppelin/contracts/access/Ownable.sol\":1094:1105  _checkOwner */\n      tag_54\n        /* \"@openzeppelin/contracts/access/Ownable.sol\":1094:1107  _checkOwner() */\n      jump\t// in\n    tag_82:\n        /* \"@openzeppelin/contracts/access/Ownable.sol\":2189:2190  0 */\n      0x00\n        /* \"@openzeppelin/contracts/access/Ownable.sol\":2169:2191  newOwner != address(0) */\n      0xffffffffffffffffffffffffffffffffffffffff\n      and\n        /* \"@openzeppelin/contracts/access/Ownable.sol\":2169:2177  newOwner */\n      dup2\n        /* \"@openzeppelin/contracts/access/Ownable.sol\":2169:2191  newOwner != address(0) */\n      0xffffffffffffffffffffffffffffffffffffffff\n      and\n      sub\n        /* \"@openzeppelin/contracts/access/Ownable.sol\":2161:2234  require(newOwner != address(0), \"Ownable: new owner is the zero address\") */\n      tag_84\n      jumpi\n      mload(0x40)\n      0x08c379a000000000000000000000000000000000000000000000000000000000\n      dup2\n      mstore\n      0x04\n      add\n      tag_85\n      swap1\n      tag_86\n      jump\t// in\n    tag_85:\n      mload(0x40)\n      dup1\n      swap2\n      sub\n      swap1\n      revert\n    tag_84:\n        /* \"@openzeppelin/contracts/access/Ownable.sol\":2244:2272  _transferOwnership(newOwner) */\n      tag_87\n        /* \"@openzeppelin/contracts/access/Ownable.sol\":2263:2271  newOwner */\n      dup2\n        /* \"@openzeppelin/contracts/access/Ownable.sol\":2244:2262  _transferOwnership */\n      tag_63\n        /* \"@openzeppelin/contracts/access/Ownable.sol\":2244:2272  _transferOwnership(newOwner) */\n      jump\t// in\n    tag_87:\n        /* \"@openzeppelin/contracts/access/Ownable.sol\":2081:2279  function transferOwnership(address newOwner) public virtual onlyOwner {... */\n      pop\n      jump\t// out\n        /* \"@openzeppelin/contracts/access/Ownable.sol\":1359:1489  function _checkOwner() internal view virtual {... */\n    tag_54:\n        /* \"@openzeppelin/contracts/access/Ownable.sol\":1433:1445  _msgSender() */\n      tag_89\n        /* \"@openzeppelin/contracts/access/Ownable.sol\":1433:1443  _msgSender */\n      tag_90\n        /* \"@openzeppelin/contracts/access/Ownable.sol\":1433:1445  _msgSender() */\n      jump\t// in\n    tag_89:\n        /* \"@openzeppelin/contracts/access/Ownable.sol\":1422:1445  owner() == _msgSender() */\n      0xffffffffffffffffffffffffffffffffffffffff\n      and\n        /* \"@openzeppelin/contracts/access/Ownable.sol\":1422:1429  owner() */\n      tag_91\n        /* \"@openzeppelin/contracts/access/Ownable.sol\":1422:1427  owner */\n      tag_33\n        /* \"@openzeppelin/contracts/access/Ownable.sol\":1422:1429  owner() */\n      jump\t// in\n    tag_91:\n        /* \"@openzeppelin/contracts/access/Ownable.sol\":1422:1445  owner() == _msgSender() */\n      0xffffffffffffffffffffffffffffffffffffffff\n      and\n      eq\n        /* \"@openzeppelin/contracts/access/Ownable.sol\":1414:1482  require(owner() == _msgSender(), \"Ownable: caller is not the owner\") */\n      tag_92\n      jumpi\n      mload(0x40)\n      0x08c379a000000000000000000000000000000000000000000000000000000000\n      dup2\n      mstore\n      0x04\n      add\n      tag_93\n      swap1\n      tag_94\n      jump\t// in\n    tag_93:\n      mload(0x40)\n      dup1\n      swap2\n      sub\n      swap1\n      revert\n    tag_92:\n        /* \"@openzeppelin/contracts/access/Ownable.sol\":1359:1489  function _checkOwner() internal view virtual {... */\n      jump\t// out\n        /* \"@openzeppelin/contracts/access/Ownable.sol\":2433:2620  function _transferOwnership(address newOwner) internal virtual {... */\n    tag_63:\n        /* \"@openzeppelin/contracts/access/Ownable.sol\":2506:2522  address oldOwner */\n      0x00\n        /* \"@openzeppelin/contracts/access/Ownable.sol\":2525:2531  _owner */\n      dup1\n      0x00\n      swap1\n      sload\n      swap1\n      0x0100\n      exp\n      swap1\n      div\n      0xffffffffffffffffffffffffffffffffffffffff\n      and\n        /* \"@openzeppelin/contracts/access/Ownable.sol\":2506:2531  address oldOwner = _owner */\n      swap1\n      pop\n        /* \"@openzeppelin/contracts/access/Ownable.sol\":2550:2558  newOwner */\n      dup2\n        /* \"@openzeppelin/contracts/access/Ownable.sol\":2541:2547  _owner */\n      0x00\n      dup1\n        /* \"@openzeppelin/contracts/access/Ownable.sol\":2541:2558  _owner = newOwner */\n      0x0100\n      exp\n      dup2\n      sload\n      dup2\n      0xffffffffffffffffffffffffffffffffffffffff\n      mul\n      not\n      and\n      swap1\n      dup4\n      0xffffffffffffffffffffffffffffffffffffffff\n      and\n      mul\n      or\n      swap1\n      sstore\n      pop\n        /* \"@openzeppelin/contracts/access/Ownable.sol\":2604:2612  newOwner */\n      dup2\n        /* \"@openzeppelin/contracts/access/Ownable.sol\":2573:2613  OwnershipTransferred(oldOwner, newOwner) */\n      0xffffffffffffffffffffffffffffffffffffffff\n      and\n        /* \"@openzeppelin/contracts/access/Ownable.sol\":2594:2602  oldOwner */\n      dup2\n        /* \"@openzeppelin/contracts/access/Ownable.sol\":2573:2613  OwnershipTransferred(oldOwner, newOwner) */\n      0xffffffffffffffffffffffffffffffffffffffff\n      and\n      0x8be0079c531659141344cd1fd0a4f28419497f9722a3daafe3b4186f6b6457e0\n      mload(0x40)\n      mload(0x40)\n      dup1\n      swap2\n      sub\n      swap1\n      log3\n        /* \"@openzeppelin/contracts/access/Ownable.sol\":2496:2620  {... */\n      pop\n        /* \"@openzeppelin/contracts/access/Ownable.sol\":2433:2620  function _transferOwnership(address newOwner) internal virtual {... */\n      pop\n      jump\t// out\n        /* \"@openzeppelin/contracts/utils/Context.sol\":640:736  function _msgSender() internal view virtual returns (address) {... */\n    tag_90:\n        /* \"@openzeppelin/contracts/utils/Context.sol\":693:700  address */\n      0x00\n        /* \"@openzeppelin/contracts/utils/Context.sol\":719:729  msg.sender */\n      caller\n        /* \"@openzeppelin/contracts/utils/Context.sol\":712:729  return msg.sender */\n      swap1\n      pop\n        /* \"@openzeppelin/contracts/utils/Context.sol\":640:736  function _msgSender() internal view virtual returns (address) {... */\n      swap1\n      jump\t// out\n        /* \"#utility.yul\":7:82   */\n    tag_97:\n        /* \"#utility.yul\":40:46   */\n      0x00\n        /* \"#utility.yul\":73:75   */\n      0x40\n        /* \"#utility.yul\":67:76   */\n      mload\n        /* \"#utility.yul\":57:76   */\n      swap1\n      pop\n        /* \"#utility.yul\":7:82   */\n      swap1\n      jump\t// out\n        /* \"#utility.yul\":88:205   */\n    tag_98:\n        /* \"#utility.yul\":197:198   */\n      0x00\n        /* \"#utility.yul\":194:195   */\n      dup1\n        /* \"#utility.yul\":187:199   */\n      revert\n        /* \"#utility.yul\":211:328   */\n    tag_99:\n        /* \"#utility.yul\":320:321   */\n      0x00\n        /* \"#utility.yul\":317:318   */\n      dup1\n        /* \"#utility.yul\":310:322   */\n      revert\n        /* \"#utility.yul\":334:460   */\n    tag_100:\n        /* \"#utility.yul\":371:378   */\n      0x00\n        /* \"#utility.yul\":411:453   */\n      0xffffffffffffffffffffffffffffffffffffffff\n        /* \"#utility.yul\":404:409   */\n      dup3\n        /* \"#utility.yul\":400:454   */\n      and\n        /* \"#utility.yul\":389:454   */\n      swap1\n      pop\n        /* \"#utility.yul\":334:460   */\n      swap2\n      swap1\n      pop\n      jump\t// out\n        /* \"#utility.yul\":466:562   */\n    tag_101:\n        /* \"#utility.yul\":503:510   */\n      0x00\n        /* \"#utility.yul\":532:556   */\n      tag_141\n        /* \"#utility.yul\":550:555   */\n      dup3\n        /* \"#utility.yul\":532:556   */\n      tag_100\n      jump\t// in\n    tag_141:\n        /* \"#utility.yul\":521:556   */\n      swap1\n      pop\n        /* \"#utility.yul\":466:562   */\n      swap2\n      swap1\n      pop\n      jump\t// out\n        /* \"#utility.yul\":568:690   */\n    tag_102:\n        /* \"#utility.yul\":641:665   */\n      tag_143\n        /* \"#utility.yul\":659:664   */\n      dup2\n        /* \"#utility.yul\":641:665   */\n      tag_101\n      jump\t// in\n    tag_143:\n        /* \"#utility.yul\":634:639   */\n      dup2\n        /* \"#utility.yul\":631:666   */\n      eq\n        /* \"#utility.yul\":621:684   */\n      tag_144\n      jumpi\n        /* \"#utility.yul\":680:681   */\n      0x00\n        /* \"#utility.yul\":677:678   */\n      dup1\n        /* \"#utility.yul\":670:682   */\n      revert\n        /* \"#utility.yul\":621:684   */\n    tag_144:\n        /* \"#utility.yul\":568:690   */\n      pop\n      jump\t// out\n        /* \"#utility.yul\":696:835   */\n    tag_103:\n        /* \"#utility.yul\":742:747   */\n      0x00\n        /* \"#utility.yul\":780:786   */\n      dup2\n        /* \"#utility.yul\":767:787   */\n      calldataload\n        /* \"#utility.yul\":758:787   */\n      swap1\n      pop\n        /* \"#utility.yul\":796:829   */\n      tag_146\n        /* \"#utility.yul\":823:828   */\n      dup2\n        /* \"#utility.yul\":796:829   */\n      tag_102\n      jump\t// in\n    tag_146:\n        /* \"#utility.yul\":696:835   */\n      swap3\n      swap2\n      pop\n      pop\n      jump\t// out\n        /* \"#utility.yul\":841:1170   */\n    tag_15:\n        /* \"#utility.yul\":900:906   */\n      0x00\n        /* \"#utility.yul\":949:951   */\n      0x20\n        /* \"#utility.yul\":937:946   */\n      dup3\n        /* \"#utility.yul\":928:935   */\n      dup5\n        /* \"#utility.yul\":924:947   */\n      sub\n        /* \"#utility.yul\":920:952   */\n      slt\n        /* \"#utility.yul\":917:1036   */\n      iszero\n      tag_148\n      jumpi\n        /* \"#utility.yul\":955:1034   */\n      tag_149\n      tag_98\n      jump\t// in\n    tag_149:\n        /* \"#utility.yul\":917:1036   */\n    tag_148:\n        /* \"#utility.yul\":1075:1076   */\n      0x00\n        /* \"#utility.yul\":1100:1153   */\n      tag_150\n        /* \"#utility.yul\":1145:1152   */\n      dup5\n        /* \"#utility.yul\":1136:1142   */\n      dup3\n        /* \"#utility.yul\":1125:1134   */\n      dup6\n        /* \"#utility.yul\":1121:1143   */\n      add\n        /* \"#utility.yul\":1100:1153   */\n      tag_103\n      jump\t// in\n    tag_150:\n        /* \"#utility.yul\":1090:1153   */\n      swap2\n      pop\n        /* \"#utility.yul\":1046:1163   */\n      pop\n        /* \"#utility.yul\":841:1170   */\n      swap3\n      swap2\n      pop\n      pop\n      jump\t// out\n        /* \"#utility.yul\":1176:1266   */\n    tag_104:\n        /* \"#utility.yul\":1210:1217   */\n      0x00\n        /* \"#utility.yul\":1253:1258   */\n      dup2\n        /* \"#utility.yul\":1246:1259   */\n      iszero\n        /* \"#utility.yul\":1239:1260   */\n      iszero\n        /* \"#utility.yul\":1228:1260   */\n      swap1\n      pop\n        /* \"#utility.yul\":1176:1266   */\n      swap2\n      swap1\n      pop\n      jump\t// out\n        /* \"#utility.yul\":1272:1381   */\n    tag_105:\n        /* \"#utility.yul\":1353:1374   */\n      tag_153\n        /* \"#utility.yul\":1368:1373   */\n      dup2\n        /* \"#utility.yul\":1353:1374   */\n      tag_104\n      jump\t// in\n    tag_153:\n        /* \"#utility.yul\":1348:1351   */\n      dup3\n        /* \"#utility.yul\":1341:1375   */\n      mstore\n        /* \"#utility.yul\":1272:1381   */\n      pop\n      pop\n      jump\t// out\n        /* \"#utility.yul\":1387:1597   */\n    tag_18:\n        /* \"#utility.yul\":1474:1478   */\n      0x00\n        /* \"#utility.yul\":1512:1514   */\n      0x20\n        /* \"#utility.yul\":1501:1510   */\n      dup3\n        /* \"#utility.yul\":1497:1515   */\n      add\n        /* \"#utility.yul\":1489:1515   */\n      swap1\n      pop\n        /* \"#utility.yul\":1525:1590   */\n      tag_155\n        /* \"#utility.yul\":1587:1588   */\n      0x00\n        /* \"#utility.yul\":1576:1585   */\n      dup4\n        /* \"#utility.yul\":1572:1589   */\n      add\n        /* \"#utility.yul\":1563:1569   */\n      dup5\n        /* \"#utility.yul\":1525:1590   */\n      tag_105\n      jump\t// in\n    tag_155:\n        /* \"#utility.yul\":1387:1597   */\n      swap3\n      swap2\n      pop\n      pop\n      jump\t// out\n        /* \"#utility.yul\":1603:1720   */\n    tag_106:\n        /* \"#utility.yul\":1712:1713   */\n      0x00\n        /* \"#utility.yul\":1709:1710   */\n      dup1\n        /* \"#utility.yul\":1702:1714   */\n      revert\n        /* \"#utility.yul\":1726:1843   */\n    tag_107:\n        /* \"#utility.yul\":1835:1836   */\n      0x00\n        /* \"#utility.yul\":1832:1833   */\n      dup1\n        /* \"#utility.yul\":1825:1837   */\n      revert\n        /* \"#utility.yul\":1849:1951   */\n    tag_108:\n        /* \"#utility.yul\":1890:1896   */\n      0x00\n        /* \"#utility.yul\":1941:1943   */\n      0x1f\n        /* \"#utility.yul\":1937:1944   */\n      not\n        /* \"#utility.yul\":1932:1934   */\n      0x1f\n        /* \"#utility.yul\":1925:1930   */\n      dup4\n        /* \"#utility.yul\":1921:1935   */\n      add\n        /* \"#utility.yul\":1917:1945   */\n      and\n        /* \"#utility.yul\":1907:1945   */\n      swap1\n      pop\n        /* \"#utility.yul\":1849:1951   */\n      swap2\n      swap1\n      pop\n      jump\t// out\n        /* \"#utility.yul\":1957:2137   */\n    tag_109:\n        /* \"#utility.yul\":2005:2082   */\n      0x4e487b7100000000000000000000000000000000000000000000000000000000\n        /* \"#utility.yul\":2002:2003   */\n      0x00\n        /* \"#utility.yul\":1995:2083   */\n      mstore\n        /* \"#utility.yul\":2102:2106   */\n      0x41\n        /* \"#utility.yul\":2099:2100   */\n      0x04\n        /* \"#utility.yul\":2092:2107   */\n      mstore\n        /* \"#utility.yul\":2126:2130   */\n      0x24\n        /* \"#utility.yul\":2123:2124   */\n      0x00\n        /* \"#utility.yul\":2116:2131   */\n      revert\n        /* \"#utility.yul\":2143:2424   */\n    tag_110:\n        /* \"#utility.yul\":2226:2253   */\n      tag_161\n        /* \"#utility.yul\":2248:2252   */\n      dup3\n        /* \"#utility.yul\":2226:2253   */\n      tag_108\n      jump\t// in\n    tag_161:\n        /* \"#utility.yul\":2218:2224   */\n      dup2\n        /* \"#utility.yul\":2214:2254   */\n      add\n        /* \"#utility.yul\":2356:2362   */\n      dup2\n        /* \"#utility.yul\":2344:2354   */\n      dup2\n        /* \"#utility.yul\":2341:2363   */\n      lt\n        /* \"#utility.yul\":2320:2338   */\n      0xffffffffffffffff\n        /* \"#utility.yul\":2308:2318   */\n      dup3\n        /* \"#utility.yul\":2305:2339   */\n      gt\n        /* \"#utility.yul\":2302:2364   */\n      or\n        /* \"#utility.yul\":2299:2387   */\n      iszero\n      tag_162\n      jumpi\n        /* \"#utility.yul\":2367:2385   */\n      tag_163\n      tag_109\n      jump\t// in\n    tag_163:\n        /* \"#utility.yul\":2299:2387   */\n    tag_162:\n        /* \"#utility.yul\":2407:2417   */\n      dup1\n        /* \"#utility.yul\":2403:2405   */\n      0x40\n        /* \"#utility.yul\":2396:2418   */\n      mstore\n        /* \"#utility.yul\":2186:2424   */\n      pop\n        /* \"#utility.yul\":2143:2424   */\n      pop\n      pop\n      jump\t// out\n        /* \"#utility.yul\":2430:2559   */\n    tag_111:\n        /* \"#utility.yul\":2464:2470   */\n      0x00\n        /* \"#utility.yul\":2491:2511   */\n      tag_165\n      tag_97\n      jump\t// in\n    tag_165:\n        /* \"#utility.yul\":2481:2511   */\n      swap1\n      pop\n        /* \"#utility.yul\":2520:2553   */\n      tag_166\n        /* \"#utility.yul\":2548:2552   */\n      dup3\n        /* \"#utility.yul\":2540:2546   */\n      dup3\n        /* \"#utility.yul\":2520:2553   */\n      tag_110\n      jump\t// in\n    tag_166:\n        /* \"#utility.yul\":2430:2559   */\n      swap2\n      swap1\n      pop\n      jump\t// out\n        /* \"#utility.yul\":2565:2873   */\n    tag_112:\n        /* \"#utility.yul\":2627:2631   */\n      0x00\n        /* \"#utility.yul\":2717:2735   */\n      0xffffffffffffffff\n        /* \"#utility.yul\":2709:2715   */\n      dup3\n        /* \"#utility.yul\":2706:2736   */\n      gt\n        /* \"#utility.yul\":2703:2759   */\n      iszero\n      tag_168\n      jumpi\n        /* \"#utility.yul\":2739:2757   */\n      tag_169\n      tag_109\n      jump\t// in\n    tag_169:\n        /* \"#utility.yul\":2703:2759   */\n    tag_168:\n        /* \"#utility.yul\":2777:2806   */\n      tag_170\n        /* \"#utility.yul\":2799:2805   */\n      dup3\n        /* \"#utility.yul\":2777:2806   */\n      tag_108\n      jump\t// in\n    tag_170:\n        /* \"#utility.yul\":2769:2806   */\n      swap1\n      pop\n        /* \"#utility.yul\":2861:2865   */\n      0x20\n        /* \"#utility.yul\":2855:2859   */\n      dup2\n        /* \"#utility.yul\":2851:2866   */\n      add\n        /* \"#utility.yul\":2843:2866   */\n      swap1\n      pop\n        /* \"#utility.yul\":2565:2873   */\n      swap2\n      swap1\n      pop\n      jump\t// out\n        /* \"#utility.yul\":2879:3025   */\n    tag_113:\n        /* \"#utility.yul\":2976:2982   */\n      dup3\n        /* \"#utility.yul\":2971:2974   */\n      dup2\n        /* \"#utility.yul\":2966:2969   */\n      dup4\n        /* \"#utility.yul\":2953:2983   */\n      calldatacopy\n        /* \"#utility.yul\":3017:3018   */\n      0x00\n        /* \"#utility.yul\":3008:3014   */\n      dup4\n        /* \"#utility.yul\":3003:3006   */\n      dup4\n        /* \"#utility.yul\":2999:3015   */\n      add\n        /* \"#utility.yul\":2992:3019   */\n      mstore\n        /* \"#utility.yul\":2879:3025   */\n      pop\n      pop\n      pop\n      jump\t// out\n        /* \"#utility.yul\":3031:3456   */\n    tag_114:\n        /* \"#utility.yul\":3109:3114   */\n      0x00\n        /* \"#utility.yul\":3134:3200   */\n      tag_173\n        /* \"#utility.yul\":3150:3199   */\n      tag_174\n        /* \"#utility.yul\":3192:3198   */\n      dup5\n        /* \"#utility.yul\":3150:3199   */\n      tag_112\n      jump\t// in\n    tag_174:\n        /* \"#utility.yul\":3134:3200   */\n      tag_111\n      jump\t// in\n    tag_173:\n        /* \"#utility.yul\":3125:3200   */\n      swap1\n      pop\n        /* \"#utility.yul\":3223:3229   */\n      dup3\n        /* \"#utility.yul\":3216:3221   */\n      dup2\n        /* \"#utility.yul\":3209:3230   */\n      mstore\n        /* \"#utility.yul\":3261:3265   */\n      0x20\n        /* \"#utility.yul\":3254:3259   */\n      dup2\n        /* \"#utility.yul\":3250:3266   */\n      add\n        /* \"#utility.yul\":3299:3302   */\n      dup5\n        /* \"#utility.yul\":3290:3296   */\n      dup5\n        /* \"#utility.yul\":3285:3288   */\n      dup5\n        /* \"#utility.yul\":3281:3297   */\n      add\n        /* \"#utility.yul\":3278:3303   */\n      gt\n        /* \"#utility.yul\":3275:3387   */\n      iszero\n      tag_175\n      jumpi\n        /* \"#utility.yul\":3306:3385   */\n      tag_176\n      tag_107\n      jump\t// in\n    tag_176:\n        /* \"#utility.yul\":3275:3387   */\n    tag_175:\n        /* \"#utility.yul\":3396:3450   */\n      tag_177\n        /* \"#utility.yul\":3443:3449   */\n      dup5\n        /* \"#utility.yul\":3438:3441   */\n      dup3\n        /* \"#utility.yul\":3433:3436   */\n      dup6\n        /* \"#utility.yul\":3396:3450   */\n      tag_113\n      jump\t// in\n    tag_177:\n        /* \"#utility.yul\":3115:3456   */\n      pop\n        /* \"#utility.yul\":3031:3456   */\n      swap4\n      swap3\n      pop\n      pop\n      pop\n      jump\t// out\n        /* \"#utility.yul\":3476:3816   */\n    tag_115:\n        /* \"#utility.yul\":3532:3537   */\n      0x00\n        /* \"#utility.yul\":3581:3584   */\n      dup3\n        /* \"#utility.yul\":3574:3578   */\n      0x1f\n        /* \"#utility.yul\":3566:3572   */\n      dup4\n        /* \"#utility.yul\":3562:3579   */\n      add\n        /* \"#utility.yul\":3558:3585   */\n      slt\n        /* \"#utility.yul\":3548:3670   */\n      tag_179\n      jumpi\n        /* \"#utility.yul\":3589:3668   */\n      tag_180\n      tag_106\n      jump\t// in\n    tag_180:\n        /* \"#utility.yul\":3548:3670   */\n    tag_179:\n        /* \"#utility.yul\":3706:3712   */\n      dup2\n        /* \"#utility.yul\":3693:3713   */\n      calldataload\n        /* \"#utility.yul\":3731:3810   */\n      tag_181\n        /* \"#utility.yul\":3806:3809   */\n      dup5\n        /* \"#utility.yul\":3798:3804   */\n      dup3\n        /* \"#utility.yul\":3791:3795   */\n      0x20\n        /* \"#utility.yul\":3783:3789   */\n      dup7\n        /* \"#utility.yul\":3779:3796   */\n      add\n        /* \"#utility.yul\":3731:3810   */\n      tag_114\n      jump\t// in\n    tag_181:\n        /* \"#utility.yul\":3722:3810   */\n      swap2\n      pop\n        /* \"#utility.yul\":3538:3816   */\n      pop\n        /* \"#utility.yul\":3476:3816   */\n      swap3\n      swap2\n      pop\n      pop\n      jump\t// out\n        /* \"#utility.yul\":3822:4476   */\n    tag_21:\n        /* \"#utility.yul\":3900:3906   */\n      0x00\n        /* \"#utility.yul\":3908:3914   */\n      dup1\n        /* \"#utility.yul\":3957:3959   */\n      0x40\n        /* \"#utility.yul\":3945:3954   */\n      dup4\n        /* \"#utility.yul\":3936:3943   */\n      dup6\n        /* \"#utility.yul\":3932:3955   */\n      sub\n        /* \"#utility.yul\":3928:3960   */\n      slt\n        /* \"#utility.yul\":3925:4044   */\n      iszero\n      tag_183\n      jumpi\n        /* \"#utility.yul\":3963:4042   */\n      tag_184\n      tag_98\n      jump\t// in\n    tag_184:\n        /* \"#utility.yul\":3925:4044   */\n    tag_183:\n        /* \"#utility.yul\":4111:4112   */\n      0x00\n        /* \"#utility.yul\":4100:4109   */\n      dup4\n        /* \"#utility.yul\":4096:4113   */\n      add\n        /* \"#utility.yul\":4083:4114   */\n      calldataload\n        /* \"#utility.yul\":4141:4159   */\n      0xffffffffffffffff\n        /* \"#utility.yul\":4133:4139   */\n      dup2\n        /* \"#utility.yul\":4130:4160   */\n      gt\n        /* \"#utility.yul\":4127:4244   */\n      iszero\n      tag_185\n      jumpi\n        /* \"#utility.yul\":4163:4242   */\n      tag_186\n      tag_99\n      jump\t// in\n    tag_186:\n        /* \"#utility.yul\":4127:4244   */\n    tag_185:\n        /* \"#utility.yul\":4268:4331   */\n      tag_187\n        /* \"#utility.yul\":4323:4330   */\n      dup6\n        /* \"#utility.yul\":4314:4320   */\n      dup3\n        /* \"#utility.yul\":4303:4312   */\n      dup7\n        /* \"#utility.yul\":4299:4321   */\n      add\n        /* \"#utility.yul\":4268:4331   */\n      tag_115\n      jump\t// in\n    tag_187:\n        /* \"#utility.yul\":4258:4331   */\n      swap3\n      pop\n        /* \"#utility.yul\":4054:4341   */\n      pop\n        /* \"#utility.yul\":4380:4382   */\n      0x20\n        /* \"#utility.yul\":4406:4459   */\n      tag_188\n        /* \"#utility.yul\":4451:4458   */\n      dup6\n        /* \"#utility.yul\":4442:4448   */\n      dup3\n        /* \"#utility.yul\":4431:4440   */\n      dup7\n        /* \"#utility.yul\":4427:4449   */\n      add\n        /* \"#utility.yul\":4406:4459   */\n      tag_103\n      jump\t// in\n    tag_188:\n        /* \"#utility.yul\":4396:4459   */\n      swap2\n      pop\n        /* \"#utility.yul\":4351:4469   */\n      pop\n        /* \"#utility.yul\":3822:4476   */\n      swap3\n      pop\n      swap3\n      swap1\n      pop\n      jump\t// out\n        /* \"#utility.yul\":4482:4600   */\n    tag_116:\n        /* \"#utility.yul\":4569:4593   */\n      tag_190\n        /* \"#utility.yul\":4587:4592   */\n      dup2\n        /* \"#utility.yul\":4569:4593   */\n      tag_101\n      jump\t// in\n    tag_190:\n        /* \"#utility.yul\":4564:4567   */\n      dup3\n        /* \"#utility.yul\":4557:4594   */\n      mstore\n        /* \"#utility.yul\":4482:4600   */\n      pop\n      pop\n      jump\t// out\n        /* \"#utility.yul\":4606:4828   */\n    tag_35:\n        /* \"#utility.yul\":4699:4703   */\n      0x00\n        /* \"#utility.yul\":4737:4739   */\n      0x20\n        /* \"#utility.yul\":4726:4735   */\n      dup3\n        /* \"#utility.yul\":4722:4740   */\n      add\n        /* \"#utility.yul\":4714:4740   */\n      swap1\n      pop\n        /* \"#utility.yul\":4750:4821   */\n      tag_192\n        /* \"#utility.yul\":4818:4819   */\n      0x00\n        /* \"#utility.yul\":4807:4816   */\n      dup4\n        /* \"#utility.yul\":4803:4820   */\n      add\n        /* \"#utility.yul\":4794:4800   */\n      dup5\n        /* \"#utility.yul\":4750:4821   */\n      tag_116\n      jump\t// in\n    tag_192:\n        /* \"#utility.yul\":4606:4828   */\n      swap3\n      swap2\n      pop\n      pop\n      jump\t// out\n        /* \"#utility.yul\":4834:5343   */\n    tag_38:\n        /* \"#utility.yul\":4903:4909   */\n      0x00\n        /* \"#utility.yul\":4952:4954   */\n      0x20\n        /* \"#utility.yul\":4940:4949   */\n      dup3\n        /* \"#utility.yul\":4931:4938   */\n      dup5\n        /* \"#utility.yul\":4927:4950   */\n      sub\n        /* \"#utility.yul\":4923:4955   */\n      slt\n        /* \"#utility.yul\":4920:5039   */\n      iszero\n      tag_194\n      jumpi\n        /* \"#utility.yul\":4958:5037   */\n      tag_195\n      tag_98\n      jump\t// in\n    tag_195:\n        /* \"#utility.yul\":4920:5039   */\n    tag_194:\n        /* \"#utility.yul\":5106:5107   */\n      0x00\n        /* \"#utility.yul\":5095:5104   */\n      dup3\n        /* \"#utility.yul\":5091:5108   */\n      add\n        /* \"#utility.yul\":5078:5109   */\n      calldataload\n        /* \"#utility.yul\":5136:5154   */\n      0xffffffffffffffff\n        /* \"#utility.yul\":5128:5134   */\n      dup2\n        /* \"#utility.yul\":5125:5155   */\n      gt\n        /* \"#utility.yul\":5122:5239   */\n      iszero\n      tag_196\n      jumpi\n        /* \"#utility.yul\":5158:5237   */\n      tag_197\n      tag_99\n      jump\t// in\n    tag_197:\n        /* \"#utility.yul\":5122:5239   */\n    tag_196:\n        /* \"#utility.yul\":5263:5326   */\n      tag_198\n        /* \"#utility.yul\":5318:5325   */\n      dup5\n        /* \"#utility.yul\":5309:5315   */\n      dup3\n        /* \"#utility.yul\":5298:5307   */\n      dup6\n        /* \"#utility.yul\":5294:5316   */\n      add\n        /* \"#utility.yul\":5263:5326   */\n      tag_115\n      jump\t// in\n    tag_198:\n        /* \"#utility.yul\":5253:5326   */\n      swap2\n      pop\n        /* \"#utility.yul\":5049:5336   */\n      pop\n        /* \"#utility.yul\":4834:5343   */\n      swap3\n      swap2\n      pop\n      pop\n      jump\t// out\n        /* \"#utility.yul\":5349:5670   */\n    tag_117:\n        /* \"#utility.yul\":5436:5440   */\n      0x00\n        /* \"#utility.yul\":5526:5544   */\n      0xffffffffffffffff\n        /* \"#utility.yul\":5518:5524   */\n      dup3\n        /* \"#utility.yul\":5515:5545   */\n      gt\n        /* \"#utility.yul\":5512:5568   */\n      iszero\n      tag_200\n      jumpi\n        /* \"#utility.yul\":5548:5566   */\n      tag_201\n      tag_109\n      jump\t// in\n    tag_201:\n        /* \"#utility.yul\":5512:5568   */\n    tag_200:\n        /* \"#utility.yul\":5598:5602   */\n      0x20\n        /* \"#utility.yul\":5590:5596   */\n      dup3\n        /* \"#utility.yul\":5586:5603   */\n      mul\n        /* \"#utility.yul\":5578:5603   */\n      swap1\n      pop\n        /* \"#utility.yul\":5658:5662   */\n      0x20\n        /* \"#utility.yul\":5652:5656   */\n      dup2\n        /* \"#utility.yul\":5648:5663   */\n      add\n        /* \"#utility.yul\":5640:5663   */\n      swap1\n      pop\n        /* \"#utility.yul\":5349:5670   */\n      swap2\n      swap1\n      pop\n      jump\t// out\n        /* \"#utility.yul\":5676:5793   */\n    tag_118:\n        /* \"#utility.yul\":5785:5786   */\n      0x00\n        /* \"#utility.yul\":5782:5783   */\n      dup1\n        /* \"#utility.yul\":5775:5787   */\n      revert\n        /* \"#utility.yul\":5815:6760   */\n    tag_119:\n        /* \"#utility.yul\":5921:5926   */\n      0x00\n        /* \"#utility.yul\":5946:6037   */\n      tag_204\n        /* \"#utility.yul\":5962:6036   */\n      tag_205\n        /* \"#utility.yul\":6029:6035   */\n      dup5\n        /* \"#utility.yul\":5962:6036   */\n      tag_117\n      jump\t// in\n    tag_205:\n        /* \"#utility.yul\":5946:6037   */\n      tag_111\n      jump\t// in\n    tag_204:\n        /* \"#utility.yul\":5937:6037   */\n      swap1\n      pop\n        /* \"#utility.yul\":6057:6062   */\n      dup1\n        /* \"#utility.yul\":6086:6092   */\n      dup4\n        /* \"#utility.yul\":6079:6084   */\n      dup3\n        /* \"#utility.yul\":6072:6093   */\n      mstore\n        /* \"#utility.yul\":6120:6124   */\n      0x20\n        /* \"#utility.yul\":6113:6118   */\n      dup3\n        /* \"#utility.yul\":6109:6125   */\n      add\n        /* \"#utility.yul\":6102:6125   */\n      swap1\n      pop\n        /* \"#utility.yul\":6173:6177   */\n      0x20\n        /* \"#utility.yul\":6165:6171   */\n      dup5\n        /* \"#utility.yul\":6161:6178   */\n      mul\n        /* \"#utility.yul\":6153:6159   */\n      dup4\n        /* \"#utility.yul\":6149:6179   */\n      add\n        /* \"#utility.yul\":6202:6205   */\n      dup6\n        /* \"#utility.yul\":6194:6200   */\n      dup2\n        /* \"#utility.yul\":6191:6206   */\n      gt\n        /* \"#utility.yul\":6188:6310   */\n      iszero\n      tag_206\n      jumpi\n        /* \"#utility.yul\":6221:6300   */\n      tag_207\n      tag_118\n      jump\t// in\n    tag_207:\n        /* \"#utility.yul\":6188:6310   */\n    tag_206:\n        /* \"#utility.yul\":6336:6342   */\n      dup4\n        /* \"#utility.yul\":6319:6754   */\n    tag_208:\n        /* \"#utility.yul\":6353:6359   */\n      dup2\n        /* \"#utility.yul\":6348:6351   */\n      dup2\n        /* \"#utility.yul\":6345:6360   */\n      lt\n        /* \"#utility.yul\":6319:6754   */\n      iszero\n      tag_210\n      jumpi\n        /* \"#utility.yul\":6442:6445   */\n      dup1\n        /* \"#utility.yul\":6429:6446   */\n      calldataload\n        /* \"#utility.yul\":6478:6496   */\n      0xffffffffffffffff\n        /* \"#utility.yul\":6465:6476   */\n      dup2\n        /* \"#utility.yul\":6462:6497   */\n      gt\n        /* \"#utility.yul\":6459:6581   */\n      iszero\n      tag_211\n      jumpi\n        /* \"#utility.yul\":6500:6579   */\n      tag_212\n      tag_106\n      jump\t// in\n    tag_212:\n        /* \"#utility.yul\":6459:6581   */\n    tag_211:\n        /* \"#utility.yul\":6624:6635   */\n      dup1\n        /* \"#utility.yul\":6616:6622   */\n      dup7\n        /* \"#utility.yul\":6612:6636   */\n      add\n        /* \"#utility.yul\":6662:6709   */\n      tag_213\n        /* \"#utility.yul\":6705:6708   */\n      dup10\n        /* \"#utility.yul\":6693:6703   */\n      dup3\n        /* \"#utility.yul\":6662:6709   */\n      tag_115\n      jump\t// in\n    tag_213:\n        /* \"#utility.yul\":6657:6660   */\n      dup6\n        /* \"#utility.yul\":6650:6710   */\n      mstore\n        /* \"#utility.yul\":6739:6743   */\n      0x20\n        /* \"#utility.yul\":6734:6737   */\n      dup6\n        /* \"#utility.yul\":6730:6744   */\n      add\n        /* \"#utility.yul\":6723:6744   */\n      swap5\n      pop\n        /* \"#utility.yul\":6395:6754   */\n      pop\n      pop\n        /* \"#utility.yul\":6379:6383   */\n      0x20\n        /* \"#utility.yul\":6374:6377   */\n      dup2\n        /* \"#utility.yul\":6370:6384   */\n      add\n        /* \"#utility.yul\":6363:6384   */\n      swap1\n      pop\n        /* \"#utility.yul\":6319:6754   */\n      jump(tag_208)\n    tag_210:\n        /* \"#utility.yul\":6323:6344   */\n      pop\n        /* \"#utility.yul\":5927:6760   */\n      pop\n      pop\n        /* \"#utility.yul\":5815:6760   */\n      swap4\n      swap3\n      pop\n      pop\n      pop\n      jump\t// out\n        /* \"#utility.yul\":6782:7172   */\n    tag_120:\n        /* \"#utility.yul\":6863:6868   */\n      0x00\n        /* \"#utility.yul\":6912:6915   */\n      dup3\n        /* \"#utility.yul\":6905:6909   */\n      0x1f\n        /* \"#utility.yul\":6897:6903   */\n      dup4\n        /* \"#utility.yul\":6893:6910   */\n      add\n        /* \"#utility.yul\":6889:6916   */\n      slt\n        /* \"#utility.yul\":6879:7001   */\n      tag_215\n      jumpi\n        /* \"#utility.yul\":6920:6999   */\n      tag_216\n      tag_106\n      jump\t// in\n    tag_216:\n        /* \"#utility.yul\":6879:7001   */\n    tag_215:\n        /* \"#utility.yul\":7037:7043   */\n      dup2\n        /* \"#utility.yul\":7024:7044   */\n      calldataload\n        /* \"#utility.yul\":7062:7166   */\n      tag_217\n        /* \"#utility.yul\":7162:7165   */\n      dup5\n        /* \"#utility.yul\":7154:7160   */\n      dup3\n        /* \"#utility.yul\":7147:7151   */\n      0x20\n        /* \"#utility.yul\":7139:7145   */\n      dup7\n        /* \"#utility.yul\":7135:7152   */\n      add\n        /* \"#utility.yul\":7062:7166   */\n      tag_119\n      jump\t// in\n    tag_217:\n        /* \"#utility.yul\":7053:7166   */\n      swap2\n      pop\n        /* \"#utility.yul\":6869:7172   */\n      pop\n        /* \"#utility.yul\":6782:7172   */\n      swap3\n      swap2\n      pop\n      pop\n      jump\t// out\n        /* \"#utility.yul\":7178:7489   */\n    tag_121:\n        /* \"#utility.yul\":7255:7259   */\n      0x00\n        /* \"#utility.yul\":7345:7363   */\n      0xffffffffffffffff\n        /* \"#utility.yul\":7337:7343   */\n      dup3\n        /* \"#utility.yul\":7334:7364   */\n      gt\n        /* \"#utility.yul\":7331:7387   */\n      iszero\n      tag_219\n      jumpi\n        /* \"#utility.yul\":7367:7385   */\n      tag_220\n      tag_109\n      jump\t// in\n    tag_220:\n        /* \"#utility.yul\":7331:7387   */\n    tag_219:\n        /* \"#utility.yul\":7417:7421   */\n      0x20\n        /* \"#utility.yul\":7409:7415   */\n      dup3\n        /* \"#utility.yul\":7405:7422   */\n      mul\n        /* \"#utility.yul\":7397:7422   */\n      swap1\n      pop\n        /* \"#utility.yul\":7477:7481   */\n      0x20\n        /* \"#utility.yul\":7471:7475   */\n      dup2\n        /* \"#utility.yul\":7467:7482   */\n      add\n        /* \"#utility.yul\":7459:7482   */\n      swap1\n      pop\n        /* \"#utility.yul\":7178:7489   */\n      swap2\n      swap1\n      pop\n      jump\t// out\n        /* \"#utility.yul\":7512:8222   */\n    tag_122:\n        /* \"#utility.yul\":7608:7613   */\n      0x00\n        /* \"#utility.yul\":7633:7714   */\n      tag_222\n        /* \"#utility.yul\":7649:7713   */\n      tag_223\n        /* \"#utility.yul\":7706:7712   */\n      dup5\n        /* \"#utility.yul\":7649:7713   */\n      tag_121\n      jump\t// in\n    tag_223:\n        /* \"#utility.yul\":7633:7714   */\n      tag_111\n      jump\t// in\n    tag_222:\n        /* \"#utility.yul\":7624:7714   */\n      swap1\n      pop\n        /* \"#utility.yul\":7734:7739   */\n      dup1\n        /* \"#utility.yul\":7763:7769   */\n      dup4\n        /* \"#utility.yul\":7756:7761   */\n      dup3\n        /* \"#utility.yul\":7749:7770   */\n      mstore\n        /* \"#utility.yul\":7797:7801   */\n      0x20\n        /* \"#utility.yul\":7790:7795   */\n      dup3\n        /* \"#utility.yul\":7786:7802   */\n      add\n        /* \"#utility.yul\":7779:7802   */\n      swap1\n      pop\n        /* \"#utility.yul\":7850:7854   */\n      0x20\n        /* \"#utility.yul\":7842:7848   */\n      dup5\n        /* \"#utility.yul\":7838:7855   */\n      mul\n        /* \"#utility.yul\":7830:7836   */\n      dup4\n        /* \"#utility.yul\":7826:7856   */\n      add\n        /* \"#utility.yul\":7879:7882   */\n      dup6\n        /* \"#utility.yul\":7871:7877   */\n      dup2\n        /* \"#utility.yul\":7868:7883   */\n      gt\n        /* \"#utility.yul\":7865:7987   */\n      iszero\n      tag_224\n      jumpi\n        /* \"#utility.yul\":7898:7977   */\n      tag_225\n      tag_118\n      jump\t// in\n    tag_225:\n        /* \"#utility.yul\":7865:7987   */\n    tag_224:\n        /* \"#utility.yul\":8013:8019   */\n      dup4\n        /* \"#utility.yul\":7996:8216   */\n    tag_226:\n        /* \"#utility.yul\":8030:8036   */\n      dup2\n        /* \"#utility.yul\":8025:8028   */\n      dup2\n        /* \"#utility.yul\":8022:8037   */\n      lt\n        /* \"#utility.yul\":7996:8216   */\n      iszero\n      tag_228\n      jumpi\n        /* \"#utility.yul\":8105:8108   */\n      dup1\n        /* \"#utility.yul\":8134:8171   */\n      tag_229\n        /* \"#utility.yul\":8167:8170   */\n      dup9\n        /* \"#utility.yul\":8155:8165   */\n      dup3\n        /* \"#utility.yul\":8134:8171   */\n      tag_103\n      jump\t// in\n    tag_229:\n        /* \"#utility.yul\":8129:8132   */\n      dup5\n        /* \"#utility.yul\":8122:8172   */\n      mstore\n        /* \"#utility.yul\":8201:8205   */\n      0x20\n        /* \"#utility.yul\":8196:8199   */\n      dup5\n        /* \"#utility.yul\":8192:8206   */\n      add\n        /* \"#utility.yul\":8185:8206   */\n      swap4\n      pop\n        /* \"#utility.yul\":8072:8216   */\n      pop\n        /* \"#utility.yul\":8056:8060   */\n      0x20\n        /* \"#utility.yul\":8051:8054   */\n      dup2\n        /* \"#utility.yul\":8047:8061   */\n      add\n        /* \"#utility.yul\":8040:8061   */\n      swap1\n      pop\n        /* \"#utility.yul\":7996:8216   */\n      jump(tag_226)\n    tag_228:\n        /* \"#utility.yul\":8000:8021   */\n      pop\n        /* \"#utility.yul\":7614:8222   */\n      pop\n      pop\n        /* \"#utility.yul\":7512:8222   */\n      swap4\n      swap3\n      pop\n      pop\n      pop\n      jump\t// out\n        /* \"#utility.yul\":8245:8615   */\n    tag_123:\n        /* \"#utility.yul\":8316:8321   */\n      0x00\n        /* \"#utility.yul\":8365:8368   */\n      dup3\n        /* \"#utility.yul\":8358:8362   */\n      0x1f\n        /* \"#utility.yul\":8350:8356   */\n      dup4\n        /* \"#utility.yul\":8346:8363   */\n      add\n        /* \"#utility.yul\":8342:8369   */\n      slt\n        /* \"#utility.yul\":8332:8454   */\n      tag_231\n      jumpi\n        /* \"#utility.yul\":8373:8452   */\n      tag_232\n      tag_106\n      jump\t// in\n    tag_232:\n        /* \"#utility.yul\":8332:8454   */\n    tag_231:\n        /* \"#utility.yul\":8490:8496   */\n      dup2\n        /* \"#utility.yul\":8477:8497   */\n      calldataload\n        /* \"#utility.yul\":8515:8609   */\n      tag_233\n        /* \"#utility.yul\":8605:8608   */\n      dup5\n        /* \"#utility.yul\":8597:8603   */\n      dup3\n        /* \"#utility.yul\":8590:8594   */\n      0x20\n        /* \"#utility.yul\":8582:8588   */\n      dup7\n        /* \"#utility.yul\":8578:8595   */\n      add\n        /* \"#utility.yul\":8515:8609   */\n      tag_122\n      jump\t// in\n    tag_233:\n        /* \"#utility.yul\":8506:8609   */\n      swap2\n      pop\n        /* \"#utility.yul\":8322:8615   */\n      pop\n        /* \"#utility.yul\":8245:8615   */\n      swap3\n      swap2\n      pop\n      pop\n      jump\t// out\n        /* \"#utility.yul\":8621:9535   */\n    tag_43:\n        /* \"#utility.yul\":8749:8755   */\n      0x00\n        /* \"#utility.yul\":8757:8763   */\n      dup1\n        /* \"#utility.yul\":8806:8808   */\n      0x40\n        /* \"#utility.yul\":8794:8803   */\n      dup4\n        /* \"#utility.yul\":8785:8792   */\n      dup6\n        /* \"#utility.yul\":8781:8804   */\n      sub\n        /* \"#utility.yul\":8777:8809   */\n      slt\n        /* \"#utility.yul\":8774:8893   */\n      iszero\n      tag_235\n      jumpi\n        /* \"#utility.yul\":8812:8891   */\n      tag_236\n      tag_98\n      jump\t// in\n    tag_236:\n        /* \"#utility.yul\":8774:8893   */\n    tag_235:\n        /* \"#utility.yul\":8960:8961   */\n      0x00\n        /* \"#utility.yul\":8949:8958   */\n      dup4\n        /* \"#utility.yul\":8945:8962   */\n      add\n        /* \"#utility.yul\":8932:8963   */\n      calldataload\n        /* \"#utility.yul\":8990:9008   */\n      0xffffffffffffffff\n        /* \"#utility.yul\":8982:8988   */\n      dup2\n        /* \"#utility.yul\":8979:9009   */\n      gt\n        /* \"#utility.yul\":8976:9093   */\n      iszero\n      tag_237\n      jumpi\n        /* \"#utility.yul\":9012:9091   */\n      tag_238\n      tag_99\n      jump\t// in\n    tag_238:\n        /* \"#utility.yul\":8976:9093   */\n    tag_237:\n        /* \"#utility.yul\":9117:9205   */\n      tag_239\n        /* \"#utility.yul\":9197:9204   */\n      dup6\n        /* \"#utility.yul\":9188:9194   */\n      dup3\n        /* \"#utility.yul\":9177:9186   */\n      dup7\n        /* \"#utility.yul\":9173:9195   */\n      add\n        /* \"#utility.yul\":9117:9205   */\n      tag_120\n      jump\t// in\n    tag_239:\n        /* \"#utility.yul\":9107:9205   */\n      swap3\n      pop\n        /* \"#utility.yul\":8903:9215   */\n      pop\n        /* \"#utility.yul\":9282:9284   */\n      0x20\n        /* \"#utility.yul\":9271:9280   */\n      dup4\n        /* \"#utility.yul\":9267:9285   */\n      add\n        /* \"#utility.yul\":9254:9286   */\n      calldataload\n        /* \"#utility.yul\":9313:9331   */\n      0xffffffffffffffff\n        /* \"#utility.yul\":9305:9311   */\n      dup2\n        /* \"#utility.yul\":9302:9332   */\n      gt\n        /* \"#utility.yul\":9299:9416   */\n      iszero\n      tag_240\n      jumpi\n        /* \"#utility.yul\":9335:9414   */\n      tag_241\n      tag_99\n      jump\t// in\n    tag_241:\n        /* \"#utility.yul\":9299:9416   */\n    tag_240:\n        /* \"#utility.yul\":9440:9518   */\n      tag_242\n        /* \"#utility.yul\":9510:9517   */\n      dup6\n        /* \"#utility.yul\":9501:9507   */\n      dup3\n        /* \"#utility.yul\":9490:9499   */\n      dup7\n        /* \"#utility.yul\":9486:9508   */\n      add\n        /* \"#utility.yul\":9440:9518   */\n      tag_123\n      jump\t// in\n    tag_242:\n        /* \"#utility.yul\":9430:9518   */\n      swap2\n      pop\n        /* \"#utility.yul\":9225:9528   */\n      pop\n        /* \"#utility.yul\":8621:9535   */\n      swap3\n      pop\n      swap3\n      swap1\n      pop\n      jump\t// out\n        /* \"#utility.yul\":9541:9640   */\n    tag_124:\n        /* \"#utility.yul\":9593:9599   */\n      0x00\n        /* \"#utility.yul\":9627:9632   */\n      dup2\n        /* \"#utility.yul\":9621:9633   */\n      mload\n        /* \"#utility.yul\":9611:9633   */\n      swap1\n      pop\n        /* \"#utility.yul\":9541:9640   */\n      swap2\n      swap1\n      pop\n      jump\t// out\n        /* \"#utility.yul\":9646:9794   */\n    tag_125:\n        /* \"#utility.yul\":9748:9759   */\n      0x00\n        /* \"#utility.yul\":9785:9788   */\n      dup2\n        /* \"#utility.yul\":9770:9788   */\n      swap1\n      pop\n        /* \"#utility.yul\":9646:9794   */\n      swap3\n      swap2\n      pop\n      pop\n      jump\t// out\n        /* \"#utility.yul\":9800:10046   */\n    tag_126:\n        /* \"#utility.yul\":9881:9882   */\n      0x00\n        /* \"#utility.yul\":9891:10004   */\n    tag_246:\n        /* \"#utility.yul\":9905:9911   */\n      dup4\n        /* \"#utility.yul\":9902:9903   */\n      dup2\n        /* \"#utility.yul\":9899:9912   */\n      lt\n        /* \"#utility.yul\":9891:10004   */\n      iszero\n      tag_248\n      jumpi\n        /* \"#utility.yul\":9990:9991   */\n      dup1\n        /* \"#utility.yul\":9985:9988   */\n      dup3\n        /* \"#utility.yul\":9981:9992   */\n      add\n        /* \"#utility.yul\":9975:9993   */\n      mload\n        /* \"#utility.yul\":9971:9972   */\n      dup2\n        /* \"#utility.yul\":9966:9969   */\n      dup5\n        /* \"#utility.yul\":9962:9973   */\n      add\n        /* \"#utility.yul\":9955:9994   */\n      mstore\n        /* \"#utility.yul\":9927:9929   */\n      0x20\n        /* \"#utility.yul\":9924:9925   */\n      dup2\n        /* \"#utility.yul\":9920:9930   */\n      add\n        /* \"#utility.yul\":9915:9930   */\n      swap1\n      pop\n        /* \"#utility.yul\":9891:10004   */\n      jump(tag_246)\n    tag_248:\n        /* \"#utility.yul\":10038:10039   */\n      0x00\n        /* \"#utility.yul\":10029:10035   */\n      dup5\n        /* \"#utility.yul\":10024:10027   */\n      dup5\n        /* \"#utility.yul\":10020:10036   */\n      add\n        /* \"#utility.yul\":10013:10040   */\n      mstore\n        /* \"#utility.yul\":9862:10046   */\n      pop\n        /* \"#utility.yul\":9800:10046   */\n      pop\n      pop\n      pop\n      jump\t// out\n        /* \"#utility.yul\":10052:10442   */\n    tag_127:\n        /* \"#utility.yul\":10158:10161   */\n      0x00\n        /* \"#utility.yul\":10186:10225   */\n      tag_250\n        /* \"#utility.yul\":10219:10224   */\n      dup3\n        /* \"#utility.yul\":10186:10225   */\n      tag_124\n      jump\t// in\n    tag_250:\n        /* \"#utility.yul\":10241:10330   */\n      tag_251\n        /* \"#utility.yul\":10323:10329   */\n      dup2\n        /* \"#utility.yul\":10318:10321   */\n      dup6\n        /* \"#utility.yul\":10241:10330   */\n      tag_125\n      jump\t// in\n    tag_251:\n        /* \"#utility.yul\":10234:10330   */\n      swap4\n      pop\n        /* \"#utility.yul\":10339:10404   */\n      tag_252\n        /* \"#utility.yul\":10397:10403   */\n      dup2\n        /* \"#utility.yul\":10392:10395   */\n      dup6\n        /* \"#utility.yul\":10385:10389   */\n      0x20\n        /* \"#utility.yul\":10378:10383   */\n      dup7\n        /* \"#utility.yul\":10374:10390   */\n      add\n        /* \"#utility.yul\":10339:10404   */\n      tag_126\n      jump\t// in\n    tag_252:\n        /* \"#utility.yul\":10429:10435   */\n      dup1\n        /* \"#utility.yul\":10424:10427   */\n      dup5\n        /* \"#utility.yul\":10420:10436   */\n      add\n        /* \"#utility.yul\":10413:10436   */\n      swap2\n      pop\n        /* \"#utility.yul\":10162:10442   */\n      pop\n        /* \"#utility.yul\":10052:10442   */\n      swap3\n      swap2\n      pop\n      pop\n      jump\t// out\n        /* \"#utility.yul\":10448:10723   */\n    tag_51:\n        /* \"#utility.yul\":10580:10583   */\n      0x00\n        /* \"#utility.yul\":10602:10697   */\n      tag_254\n        /* \"#utility.yul\":10693:10696   */\n      dup3\n        /* \"#utility.yul\":10684:10690   */\n      dup5\n        /* \"#utility.yul\":10602:10697   */\n      tag_127\n      jump\t// in\n    tag_254:\n        /* \"#utility.yul\":10595:10697   */\n      swap2\n      pop\n        /* \"#utility.yul\":10714:10717   */\n      dup2\n        /* \"#utility.yul\":10707:10717   */\n      swap1\n      pop\n        /* \"#utility.yul\":10448:10723   */\n      swap3\n      swap2\n      pop\n      pop\n      jump\t// out\n        /* \"#utility.yul\":10729:10909   */\n    tag_75:\n        /* \"#utility.yul\":10777:10854   */\n      0x4e487b7100000000000000000000000000000000000000000000000000000000\n        /* \"#utility.yul\":10774:10775   */\n      0x00\n        /* \"#utility.yul\":10767:10855   */\n      mstore\n        /* \"#utility.yul\":10874:10878   */\n      0x32\n        /* \"#utility.yul\":10871:10872   */\n      0x04\n        /* \"#utility.yul\":10864:10879   */\n      mstore\n        /* \"#utility.yul\":10898:10902   */\n      0x24\n        /* \"#utility.yul\":10895:10896   */\n      0x00\n        /* \"#utility.yul\":10888:10903   */\n      revert\n        /* \"#utility.yul\":10915:11095   */\n    tag_128:\n        /* \"#utility.yul\":10963:11040   */\n      0x4e487b7100000000000000000000000000000000000000000000000000000000\n        /* \"#utility.yul\":10960:10961   */\n      0x00\n        /* \"#utility.yul\":10953:11041   */\n      mstore\n        /* \"#utility.yul\":11060:11064   */\n      0x11\n        /* \"#utility.yul\":11057:11058   */\n      0x04\n        /* \"#utility.yul\":11050:11065   */\n      mstore\n        /* \"#utility.yul\":11084:11088   */\n      0x24\n        /* \"#utility.yul\":11081:11082   */\n      0x00\n        /* \"#utility.yul\":11074:11089   */\n      revert\n        /* \"#utility.yul\":11101:11178   */\n    tag_129:\n        /* \"#utility.yul\":11138:11145   */\n      0x00\n        /* \"#utility.yul\":11167:11172   */\n      dup2\n        /* \"#utility.yul\":11156:11172   */\n      swap1\n      pop\n        /* \"#utility.yul\":11101:11178   */\n      swap2\n      swap1\n      pop\n      jump\t// out\n        /* \"#utility.yul\":11184:11417   */\n    tag_80:\n        /* \"#utility.yul\":11223:11226   */\n      0x00\n        /* \"#utility.yul\":11246:11270   */\n      tag_259\n        /* \"#utility.yul\":11264:11269   */\n      dup3\n        /* \"#utility.yul\":11246:11270   */\n      tag_129\n      jump\t// in\n    tag_259:\n        /* \"#utility.yul\":11237:11270   */\n      swap2\n      pop\n        /* \"#utility.yul\":11292:11358   */\n      0xffffffffffffffffffffffffffffffffffffffffffffffffffffffffffffffff\n        /* \"#utility.yul\":11285:11290   */\n      dup3\n        /* \"#utility.yul\":11282:11359   */\n      sub\n        /* \"#utility.yul\":11279:11382   */\n      tag_260\n      jumpi\n        /* \"#utility.yul\":11362:11380   */\n      tag_261\n      tag_128\n      jump\t// in\n    tag_261:\n        /* \"#utility.yul\":11279:11382   */\n    tag_260:\n        /* \"#utility.yul\":11409:11410   */\n      0x01\n        /* \"#utility.yul\":11402:11407   */\n      dup3\n        /* \"#utility.yul\":11398:11411   */\n      add\n        /* \"#utility.yul\":11391:11411   */\n      swap1\n      pop\n        /* \"#utility.yul\":11184:11417   */\n      swap2\n      swap1\n      pop\n      jump\t// out\n        /* \"#utility.yul\":11423:11592   */\n    tag_130:\n        /* \"#utility.yul\":11507:11518   */\n      0x00\n        /* \"#utility.yul\":11541:11547   */\n      dup3\n        /* \"#utility.yul\":11536:11539   */\n      dup3\n        /* \"#utility.yul\":11529:11548   */\n      mstore\n        /* \"#utility.yul\":11581:11585   */\n      0x20\n        /* \"#utility.yul\":11576:11579   */\n      dup3\n        /* \"#utility.yul\":11572:11586   */\n      add\n        /* \"#utility.yul\":11557:11586   */\n      swap1\n      pop\n        /* \"#utility.yul\":11423:11592   */\n      swap3\n      swap2\n      pop\n      pop\n      jump\t// out\n        /* \"#utility.yul\":11598:11823   */\n    tag_131:\n        /* \"#utility.yul\":11738:11772   */\n      0x4f776e61626c653a206e6577206f776e657220697320746865207a65726f2061\n        /* \"#utility.yul\":11734:11735   */\n      0x00\n        /* \"#utility.yul\":11726:11732   */\n      dup3\n        /* \"#utility.yul\":11722:11736   */\n      add\n        /* \"#utility.yul\":11715:11773   */\n      mstore\n        /* \"#utility.yul\":11807:11815   */\n      0x6464726573730000000000000000000000000000000000000000000000000000\n        /* \"#utility.yul\":11802:11804   */\n      0x20\n        /* \"#utility.yul\":11794:11800   */\n      dup3\n        /* \"#utility.yul\":11790:11805   */\n      add\n        /* \"#utility.yul\":11783:11816   */\n      mstore\n        /* \"#utility.yul\":11598:11823   */\n      pop\n      jump\t// out\n        /* \"#utility.yul\":11829:12195   */\n    tag_132:\n        /* \"#utility.yul\":11971:11974   */\n      0x00\n        /* \"#utility.yul\":11992:12059   */\n      tag_265\n        /* \"#utility.yul\":12056:12058   */\n      0x26\n        /* \"#utility.yul\":12051:12054   */\n      dup4\n        /* \"#utility.yul\":11992:12059   */\n      tag_130\n      jump\t// in\n    tag_265:\n        /* \"#utility.yul\":11985:12059   */\n      swap2\n      pop\n        /* \"#utility.yul\":12068:12161   */\n      tag_266\n        /* \"#utility.yul\":12157:12160   */\n      dup3\n        /* \"#utility.yul\":12068:12161   */\n      tag_131\n      jump\t// in\n    tag_266:\n        /* \"#utility.yul\":12186:12188   */\n      0x40\n        /* \"#utility.yul\":12181:12184   */\n      dup3\n        /* \"#utility.yul\":12177:12189   */\n      add\n        /* \"#utility.yul\":12170:12189   */\n      swap1\n      pop\n        /* \"#utility.yul\":11829:12195   */\n      swap2\n      swap1\n      pop\n      jump\t// out\n        /* \"#utility.yul\":12201:12620   */\n    tag_86:\n        /* \"#utility.yul\":12367:12371   */\n      0x00\n        /* \"#utility.yul\":12405:12407   */\n      0x20\n        /* \"#utility.yul\":12394:12403   */\n      dup3\n        /* \"#utility.yul\":12390:12408   */\n      add\n        /* \"#utility.yul\":12382:12408   */\n      swap1\n      pop\n        /* \"#utility.yul\":12454:12463   */\n      dup2\n        /* \"#utility.yul\":12448:12452   */\n      dup2\n        /* \"#utility.yul\":12444:12464   */\n      sub\n        /* \"#utility.yul\":12440:12441   */\n      0x00\n        /* \"#utility.yul\":12429:12438   */\n      dup4\n        /* \"#utility.yul\":12425:12442   */\n      add\n        /* \"#utility.yul\":12418:12465   */\n      mstore\n        /* \"#utility.yul\":12482:12613   */\n      tag_268\n        /* \"#utility.yul\":12608:12612   */\n      dup2\n        /* \"#utility.yul\":12482:12613   */\n      tag_132\n      jump\t// in\n    tag_268:\n        /* \"#utility.yul\":12474:12613   */\n      swap1\n      pop\n        /* \"#utility.yul\":12201:12620   */\n      swap2\n      swap1\n      pop\n      jump\t// out\n        /* \"#utility.yul\":12626:12808   */\n    tag_133:\n        /* \"#utility.yul\":12766:12800   */\n      0x4f776e61626c653a2063616c6c6572206973206e6f7420746865206f776e6572\n        /* \"#utility.yul\":12762:12763   */\n      0x00\n        /* \"#utility.yul\":12754:12760   */\n      dup3\n        /* \"#utility.yul\":12750:12764   */\n      add\n        /* \"#utility.yul\":12743:12801   */\n      mstore\n        /* \"#utility.yul\":12626:12808   */\n      pop\n      jump\t// out\n        /* \"#utility.yul\":12814:13180   */\n    tag_134:\n        /* \"#utility.yul\":12956:12959   */\n      0x00\n        /* \"#utility.yul\":12977:13044   */\n      tag_271\n        /* \"#utility.yul\":13041:13043   */\n      0x20\n        /* \"#utility.yul\":13036:13039   */\n      dup4\n        /* \"#utility.yul\":12977:13044   */\n      tag_130\n      jump\t// in\n    tag_271:\n        /* \"#utility.yul\":12970:13044   */\n      swap2\n      pop\n        /* \"#utility.yul\":13053:13146   */\n      tag_272\n        /* \"#utility.yul\":13142:13145   */\n      dup3\n        /* \"#utility.yul\":13053:13146   */\n      tag_133\n      jump\t// in\n    tag_272:\n        /* \"#utility.yul\":13171:13173   */\n      0x20\n        /* \"#utility.yul\":13166:13169   */\n      dup3\n        /* \"#utility.yul\":13162:13174   */\n      add\n        /* \"#utility.yul\":13155:13174   */\n      swap1\n      pop\n        /* \"#utility.yul\":12814:13180   */\n      swap2\n      swap1\n      pop\n      jump\t// out\n        /* \"#utility.yul\":13186:13605   */\n    tag_94:\n        /* \"#utility.yul\":13352:13356   */\n      0x00\n        /* \"#utility.yul\":13390:13392   */\n      0x20\n        /* \"#utility.yul\":13379:13388   */\n      dup3\n        /* \"#utility.yul\":13375:13393   */\n      add\n        /* \"#utility.yul\":13367:13393   */\n      swap1\n      pop\n        /* \"#utility.yul\":13439:13448   */\n      dup2\n        /* \"#utility.yul\":13433:13437   */\n      dup2\n        /* \"#utility.yul\":13429:13449   */\n      sub\n        /* \"#utility.yul\":13425:13426   */\n      0x00\n        /* \"#utility.yul\":13414:13423   */\n      dup4\n        /* \"#utility.yul\":13410:13427   */\n      add\n        /* \"#utility.yul\":13403:13450   */\n      mstore\n        /* \"#utility.yul\":13467:13598   */\n      tag_274\n        /* \"#utility.yul\":13593:13597   */\n      dup2\n        /* \"#utility.yul\":13467:13598   */\n      tag_134\n      jump\t// in\n    tag_274:\n        /* \"#utility.yul\":13459:13598   */\n      swap1\n      pop\n        /* \"#utility.yul\":13186:13605   */\n      swap2\n      swap1\n      pop\n      jump\t// out\n\n    auxdata: 0xa26469706673582212203c1f45731de7ea7db2897d532dc1f9be97b2fcca4ebddb276772f5b0bf172d3564736f6c63430008110033\n}\n",
				"bytecode": {
					"linkReferences": {},
					"object": "608060405234801561001057600080fd5b5061002d61002261003260201b60201c565b61003a60201b60201c565b6100fe565b600033905090565b60008060009054906101000a900473ffffffffffffffffffffffffffffffffffffffff169050816000806101000a81548173ffffffffffffffffffffffffffffffffffffffff021916908373ffffffffffffffffffffffffffffffffffffffff1602179055508173ffffffffffffffffffffffffffffffffffffffff168173ffffffffffffffffffffffffffffffffffffffff167f8be0079c531659141344cd1fd0a4f28419497f9722a3daafe3b4186f6b6457e060405160405180910390a35050565b610de98061010d6000396000f3fe608060405234801561001057600080fd5b50600436106100935760003560e01c8063715018a611610066578063715018a6146101305780638da5cb5b1461013a5780639a503eb114610158578063a96ed9c114610188578063f2fde38b146101a457610093565b806324d7806c146100985780635437733f146100c857806362d91855146100f85780637048027514610114575b600080fd5b6100b260048036038101906100ad91906106d3565b6101c0565b6040516100bf919061071b565b60405180910390f35b6100e260048036038101906100dd919061087c565b610216565b6040516100ef919061071b565b60405180910390f35b610112600480360381019061010d91906106d3565b61028d565b005b61012e600480360381019061012991906106d3565b6102f0565b005b610138610352565b005b610142610366565b60405161014f91906108e7565b60405180910390f35b610172600480360381019061016d9190610902565b61038f565b60405161017f91906108e7565b60405180910390f35b6101a2600480360381019061019d9190610af4565b6103d7565b005b6101be60048036038101906101b991906106d3565b610494565b005b6000600160008373ffffffffffffffffffffffffffffffffffffffff1673ffffffffffffffffffffffffffffffffffffffff16815260200190815260200160002060009054906101000a900460ff169050919050565b60006002836040516102289190610bdd565b908152602001604051809103902060009054906101000a900473ffffffffffffffffffffffffffffffffffffffff1673ffffffffffffffffffffffffffffffffffffffff168273ffffffffffffffffffffffffffffffffffffffff1614905092915050565b610295610517565b6000600160008373ffffffffffffffffffffffffffffffffffffffff1673ffffffffffffffffffffffffffffffffffffffff16815260200190815260200160002060006101000a81548160ff02191690831515021790555050565b6102f8610517565b60018060008373ffffffffffffffffffffffffffffffffffffffff1673ffffffffffffffffffffffffffffffffffffffff16815260200190815260200160002060006101000a81548160ff02191690831515021790555050565b61035a610517565b6103646000610595565b565b60008060009054906101000a900473ffffffffffffffffffffffffffffffffffffffff16905090565b60006002826040516103a19190610bdd565b908152602001604051809103902060009054906101000a900473ffffffffffffffffffffffffffffffffffffffff169050919050565b6103df610517565b60005b825181101561048f578181815181106103fe576103fd610bf4565b5b6020026020010151600284838151811061041b5761041a610bf4565b5b60200260200101516040516104309190610bdd565b908152602001604051809103902060006101000a81548173ffffffffffffffffffffffffffffffffffffffff021916908373ffffffffffffffffffffffffffffffffffffffff160217905550808061048790610c5c565b9150506103e2565b505050565b61049c610517565b600073ffffffffffffffffffffffffffffffffffffffff168173ffffffffffffffffffffffffffffffffffffffff160361050b576040517f08c379a000000000000000000000000000000000000000000000000000000000815260040161050290610d27565b60405180910390fd5b61051481610595565b50565b61051f610659565b73ffffffffffffffffffffffffffffffffffffffff1661053d610366565b73ffffffffffffffffffffffffffffffffffffffff1614610593576040517f08c379a000000000000000000000000000000000000000000000000000000000815260040161058a90610d93565b60405180910390fd5b565b60008060009054906101000a900473ffffffffffffffffffffffffffffffffffffffff169050816000806101000a81548173ffffffffffffffffffffffffffffffffffffffff021916908373ffffffffffffffffffffffffffffffffffffffff1602179055508173ffffffffffffffffffffffffffffffffffffffff168173ffffffffffffffffffffffffffffffffffffffff167f8be0079c531659141344cd1fd0a4f28419497f9722a3daafe3b4186f6b6457e060405160405180910390a35050565b600033905090565b6000604051905090565b600080fd5b600080fd5b600073ffffffffffffffffffffffffffffffffffffffff82169050919050565b60006106a082610675565b9050919050565b6106b081610695565b81146106bb57600080fd5b50565b6000813590506106cd816106a7565b92915050565b6000602082840312156106e9576106e861066b565b5b60006106f7848285016106be565b91505092915050565b60008115159050919050565b61071581610700565b82525050565b6000602082019050610730600083018461070c565b92915050565b600080fd5b600080fd5b6000601f19601f8301169050919050565b7f4e487b7100000000000000000000000000000000000000000000000000000000600052604160045260246000fd5b61078982610740565b810181811067ffffffffffffffff821117156107a8576107a7610751565b5b80604052505050565b60006107bb610661565b90506107c78282610780565b919050565b600067ffffffffffffffff8211156107e7576107e6610751565b5b6107f082610740565b9050602081019050919050565b82818337600083830152505050565b600061081f61081a846107cc565b6107b1565b90508281526020810184848401111561083b5761083a61073b565b5b6108468482856107fd565b509392505050565b600082601f83011261086357610862610736565b5b813561087384826020860161080c565b91505092915050565b600080604083850312156108935761089261066b565b5b600083013567ffffffffffffffff8111156108b1576108b0610670565b5b6108bd8582860161084e565b92505060206108ce858286016106be565b9150509250929050565b6108e181610695565b82525050565b60006020820190506108fc60008301846108d8565b92915050565b6000602082840312156109185761091761066b565b5b600082013567ffffffffffffffff81111561093657610935610670565b5b6109428482850161084e565b91505092915050565b600067ffffffffffffffff82111561096657610965610751565b5b602082029050602081019050919050565b600080fd5b600061098f61098a8461094b565b6107b1565b905080838252602082019050602084028301858111156109b2576109b1610977565b5b835b818110156109f957803567ffffffffffffffff8111156109d7576109d6610736565b5b8086016109e4898261084e565b855260208501945050506020810190506109b4565b5050509392505050565b600082601f830112610a1857610a17610736565b5b8135610a2884826020860161097c565b91505092915050565b600067ffffffffffffffff821115610a4c57610a4b610751565b5b602082029050602081019050919050565b6000610a70610a6b84610a31565b6107b1565b90508083825260208201905060208402830185811115610a9357610a92610977565b5b835b81811015610abc5780610aa888826106be565b845260208401935050602081019050610a95565b5050509392505050565b600082601f830112610adb57610ada610736565b5b8135610aeb848260208601610a5d565b91505092915050565b60008060408385031215610b0b57610b0a61066b565b5b600083013567ffffffffffffffff811115610b2957610b28610670565b5b610b3585828601610a03565b925050602083013567ffffffffffffffff811115610b5657610b55610670565b5b610b6285828601610ac6565b9150509250929050565b600081519050919050565b600081905092915050565b60005b83811015610ba0578082015181840152602081019050610b85565b60008484015250505050565b6000610bb782610b6c565b610bc18185610b77565b9350610bd1818560208601610b82565b80840191505092915050565b6000610be98284610bac565b915081905092915050565b7f4e487b7100000000000000000000000000000000000000000000000000000000600052603260045260246000fd5b7f4e487b7100000000000000000000000000000000000000000000000000000000600052601160045260246000fd5b6000819050919050565b6000610c6782610c52565b91507fffffffffffffffffffffffffffffffffffffffffffffffffffffffffffffffff8203610c9957610c98610c23565b5b600182019050919050565b600082825260208201905092915050565b7f4f776e61626c653a206e6577206f776e657220697320746865207a65726f206160008201527f6464726573730000000000000000000000000000000000000000000000000000602082015250565b6000610d11602683610ca4565b9150610d1c82610cb5565b604082019050919050565b60006020820190508181036000830152610d4081610d04565b9050919050565b7f4f776e61626c653a2063616c6c6572206973206e6f7420746865206f776e6572600082015250565b6000610d7d602083610ca4565b9150610d8882610d47565b602082019050919050565b60006020820190508181036000830152610dac81610d70565b905091905056fea26469706673582212203c1f45731de7ea7db2897d532dc1f9be97b2fcca4ebddb276772f5b0bf172d3564736f6c63430008110033",
					"opcodes": "PUSH1 0x80 PUSH1 0x40 MSTORE CALLVALUE DUP1 ISZERO PUSH2 0x10 JUMPI PUSH1 0x0 DUP1 REVERT JUMPDEST POP PUSH2 0x2D PUSH2 0x22 PUSH2 0x32 PUSH1 0x20 SHL PUSH1 0x20 SHR JUMP JUMPDEST PUSH2 0x3A PUSH1 0x20 SHL PUSH1 0x20 SHR JUMP JUMPDEST PUSH2 0xFE JUMP JUMPDEST PUSH1 0x0 CALLER SWAP1 POP SWAP1 JUMP JUMPDEST PUSH1 0x0 DUP1 PUSH1 0x0 SWAP1 SLOAD SWAP1 PUSH2 0x100 EXP SWAP1 DIV PUSH20 0xFFFFFFFFFFFFFFFFFFFFFFFFFFFFFFFFFFFFFFFF AND SWAP1 POP DUP2 PUSH1 0x0 DUP1 PUSH2 0x100 EXP DUP2 SLOAD DUP2 PUSH20 0xFFFFFFFFFFFFFFFFFFFFFFFFFFFFFFFFFFFFFFFF MUL NOT AND SWAP1 DUP4 PUSH20 0xFFFFFFFFFFFFFFFFFFFFFFFFFFFFFFFFFFFFFFFF AND MUL OR SWAP1 SSTORE POP DUP2 PUSH20 0xFFFFFFFFFFFFFFFFFFFFFFFFFFFFFFFFFFFFFFFF AND DUP2 PUSH20 0xFFFFFFFFFFFFFFFFFFFFFFFFFFFFFFFFFFFFFFFF AND PUSH32 0x8BE0079C531659141344CD1FD0A4F28419497F9722A3DAAFE3B4186F6B6457E0 PUSH1 0x40 MLOAD PUSH1 0x40 MLOAD DUP1 SWAP2 SUB SWAP1 LOG3 POP POP JUMP JUMPDEST PUSH2 0xDE9 DUP1 PUSH2 0x10D PUSH1 0x0 CODECOPY PUSH1 0x0 RETURN INVALID PUSH1 0x80 PUSH1 0x40 MSTORE CALLVALUE DUP1 ISZERO PUSH2 0x10 JUMPI PUSH1 0x0 DUP1 REVERT JUMPDEST POP PUSH1 0x4 CALLDATASIZE LT PUSH2 0x93 JUMPI PUSH1 0x0 CALLDATALOAD PUSH1 0xE0 SHR DUP1 PUSH4 0x715018A6 GT PUSH2 0x66 JUMPI DUP1 PUSH4 0x715018A6 EQ PUSH2 0x130 JUMPI DUP1 PUSH4 0x8DA5CB5B EQ PUSH2 0x13A JUMPI DUP1 PUSH4 0x9A503EB1 EQ PUSH2 0x158 JUMPI DUP1 PUSH4 0xA96ED9C1 EQ PUSH2 0x188 JUMPI DUP1 PUSH4 0xF2FDE38B EQ PUSH2 0x1A4 JUMPI PUSH2 0x93 JUMP JUMPDEST DUP1 PUSH4 0x24D7806C EQ PUSH2 0x98 JUMPI DUP1 PUSH4 0x5437733F EQ PUSH2 0xC8 JUMPI DUP1 PUSH4 0x62D91855 EQ PUSH2 0xF8 JUMPI DUP1 PUSH4 0x70480275 EQ PUSH2 0x114 JUMPI JUMPDEST PUSH1 0x0 DUP1 REVERT JUMPDEST PUSH2 0xB2 PUSH1 0x4 DUP1 CALLDATASIZE SUB DUP2 ADD SWAP1 PUSH2 0xAD SWAP2 SWAP1 PUSH2 0x6D3 JUMP JUMPDEST PUSH2 0x1C0 JUMP JUMPDEST PUSH1 0x40 MLOAD PUSH2 0xBF SWAP2 SWAP1 PUSH2 0x71B JUMP JUMPDEST PUSH1 0x40 MLOAD DUP1 SWAP2 SUB SWAP1 RETURN JUMPDEST PUSH2 0xE2 PUSH1 0x4 DUP1 CALLDATASIZE SUB DUP2 ADD SWAP1 PUSH2 0xDD SWAP2 SWAP1 PUSH2 0x87C JUMP JUMPDEST PUSH2 0x216 JUMP JUMPDEST PUSH1 0x40 MLOAD PUSH2 0xEF SWAP2 SWAP1 PUSH2 0x71B JUMP JUMPDEST PUSH1 0x40 MLOAD DUP1 SWAP2 SUB SWAP1 RETURN JUMPDEST PUSH2 0x112 PUSH1 0x4 DUP1 CALLDATASIZE SUB DUP2 ADD SWAP1 PUSH2 0x10D SWAP2 SWAP1 PUSH2 0x6D3 JUMP JUMPDEST PUSH2 0x28D JUMP JUMPDEST STOP JUMPDEST PUSH2 0x12E PUSH1 0x4 DUP1 CALLDATASIZE SUB DUP2 ADD SWAP1 PUSH2 0x129 SWAP2 SWAP1 PUSH2 0x6D3 JUMP JUMPDEST PUSH2 0x2F0 JUMP JUMPDEST STOP JUMPDEST PUSH2 0x138 PUSH2 0x352 JUMP JUMPDEST STOP JUMPDEST PUSH2 0x142 PUSH2 0x366 JUMP JUMPDEST PUSH1 0x40 MLOAD PUSH2 0x14F SWAP2 SWAP1 PUSH2 0x8E7 JUMP JUMPDEST PUSH1 0x40 MLOAD DUP1 SWAP2 SUB SWAP1 RETURN JUMPDEST PUSH2 0x172 PUSH1 0x4 DUP1 CALLDATASIZE SUB DUP2 ADD SWAP1 PUSH2 0x16D SWAP2 SWAP1 PUSH2 0x902 JUMP JUMPDEST PUSH2 0x38F JUMP JUMPDEST PUSH1 0x40 MLOAD PUSH2 0x17F SWAP2 SWAP1 PUSH2 0x8E7 JUMP JUMPDEST PUSH1 0x40 MLOAD DUP1 SWAP2 SUB SWAP1 RETURN JUMPDEST PUSH2 0x1A2 PUSH1 0x4 DUP1 CALLDATASIZE SUB DUP2 ADD SWAP1 PUSH2 0x19D SWAP2 SWAP1 PUSH2 0xAF4 JUMP JUMPDEST PUSH2 0x3D7 JUMP JUMPDEST STOP JUMPDEST PUSH2 0x1BE PUSH1 0x4 DUP1 CALLDATASIZE SUB DUP2 ADD SWAP1 PUSH2 0x1B9 SWAP2 SWAP1 PUSH2 0x6D3 JUMP JUMPDEST PUSH2 0x494 JUMP JUMPDEST STOP JUMPDEST PUSH1 0x0 PUSH1 0x1 PUSH1 0x0 DUP4 PUSH20 0xFFFFFFFFFFFFFFFFFFFFFFFFFFFFFFFFFFFFFFFF AND PUSH20 0xFFFFFFFFFFFFFFFFFFFFFFFFFFFFFFFFFFFFFFFF AND DUP2 MSTORE PUSH1 0x20 ADD SWAP1 DUP2 MSTORE PUSH1 0x20 ADD PUSH1 0x0 KECCAK256 PUSH1 0x0 SWAP1 SLOAD SWAP1 PUSH2 0x100 EXP SWAP1 DIV PUSH1 0xFF AND SWAP1 POP SWAP2 SWAP1 POP JUMP JUMPDEST PUSH1 0x0 PUSH1 0x2 DUP4 PUSH1 0x40 MLOAD PUSH2 0x228 SWAP2 SWAP1 PUSH2 0xBDD JUMP JUMPDEST SWAP1 DUP2 MSTORE PUSH1 0x20 ADD PUSH1 0x40 MLOAD DUP1 SWAP2 SUB SWAP1 KECCAK256 PUSH1 0x0 SWAP1 SLOAD SWAP1 PUSH2 0x100 EXP SWAP1 DIV PUSH20 0xFFFFFFFFFFFFFFFFFFFFFFFFFFFFFFFFFFFFFFFF AND PUSH20 0xFFFFFFFFFFFFFFFFFFFFFFFFFFFFFFFFFFFFFFFF AND DUP3 PUSH20 0xFFFFFFFFFFFFFFFFFFFFFFFFFFFFFFFFFFFFFFFF AND EQ SWAP1 POP SWAP3 SWAP2 POP POP JUMP JUMPDEST PUSH2 0x295 PUSH2 0x517 JUMP JUMPDEST PUSH1 0x0 PUSH1 0x1 PUSH1 0x0 DUP4 PUSH20 0xFFFFFFFFFFFFFFFFFFFFFFFFFFFFFFFFFFFFFFFF AND PUSH20 0xFFFFFFFFFFFFFFFFFFFFFFFFFFFFFFFFFFFFFFFF AND DUP2 MSTORE PUSH1 0x20 ADD SWAP1 DUP2 MSTORE PUSH1 0x20 ADD PUSH1 0x0 KECCAK256 PUSH1 0x0 PUSH2 0x100 EXP DUP2 SLOAD DUP2 PUSH1 0xFF MUL NOT AND SWAP1 DUP4 ISZERO ISZERO MUL OR SWAP1 SSTORE POP POP JUMP JUMPDEST PUSH2 0x2F8 PUSH2 0x517 JUMP JUMPDEST PUSH1 0x1 DUP1 PUSH1 0x0 DUP4 PUSH20 0xFFFFFFFFFFFFFFFFFFFFFFFFFFFFFFFFFFFFFFFF AND PUSH20 0xFFFFFFFFFFFFFFFFFFFFFFFFFFFFFFFFFFFFFFFF AND DUP2 MSTORE PUSH1 0x20 ADD SWAP1 DUP2 MSTORE PUSH1 0x20 ADD PUSH1 0x0 KECCAK256 PUSH1 0x0 PUSH2 0x100 EXP DUP2 SLOAD DUP2 PUSH1 0xFF MUL NOT AND SWAP1 DUP4 ISZERO ISZERO MUL OR SWAP1 SSTORE POP POP JUMP JUMPDEST PUSH2 0x35A PUSH2 0x517 JUMP JUMPDEST PUSH2 0x364 PUSH1 0x0 PUSH2 0x595 JUMP JUMPDEST JUMP JUMPDEST PUSH1 0x0 DUP1 PUSH1 0x0 SWAP1 SLOAD SWAP1 PUSH2 0x100 EXP SWAP1 DIV PUSH20 0xFFFFFFFFFFFFFFFFFFFFFFFFFFFFFFFFFFFFFFFF AND SWAP1 POP SWAP1 JUMP JUMPDEST PUSH1 0x0 PUSH1 0x2 DUP3 PUSH1 0x40 MLOAD PUSH2 0x3A1 SWAP2 SWAP1 PUSH2 0xBDD JUMP JUMPDEST SWAP1 DUP2 MSTORE PUSH1 0x20 ADD PUSH1 0x40 MLOAD DUP1 SWAP2 SUB SWAP1 KECCAK256 PUSH1 0x0 SWAP1 SLOAD SWAP1 PUSH2 0x100 EXP SWAP1 DIV PUSH20 0xFFFFFFFFFFFFFFFFFFFFFFFFFFFFFFFFFFFFFFFF AND SWAP1 POP SWAP2 SWAP1 POP JUMP JUMPDEST PUSH2 0x3DF PUSH2 0x517 JUMP JUMPDEST PUSH1 0x0 JUMPDEST DUP3 MLOAD DUP2 LT ISZERO PUSH2 0x48F JUMPI DUP2 DUP2 DUP2 MLOAD DUP2 LT PUSH2 0x3FE JUMPI PUSH2 0x3FD PUSH2 0xBF4 JUMP JUMPDEST JUMPDEST PUSH1 0x20 MUL PUSH1 0x20 ADD ADD MLOAD PUSH1 0x2 DUP5 DUP4 DUP2 MLOAD DUP2 LT PUSH2 0x41B JUMPI PUSH2 0x41A PUSH2 0xBF4 JUMP JUMPDEST JUMPDEST PUSH1 0x20 MUL PUSH1 0x20 ADD ADD MLOAD PUSH1 0x40 MLOAD PUSH2 0x430 SWAP2 SWAP1 PUSH2 0xBDD JUMP JUMPDEST SWAP1 DUP2 MSTORE PUSH1 0x20 ADD PUSH1 0x40 MLOAD DUP1 SWAP2 SUB SWAP1 KECCAK256 PUSH1 0x0 PUSH2 0x100 EXP DUP2 SLOAD DUP2 PUSH20 0xFFFFFFFFFFFFFFFFFFFFFFFFFFFFFFFFFFFFFFFF MUL NOT AND SWAP1 DUP4 PUSH20 0xFFFFFFFFFFFFFFFFFFFFFFFFFFFFFFFFFFFFFFFF AND MUL OR SWAP1 SSTORE POP DUP1 DUP1 PUSH2 0x487 SWAP1 PUSH2 0xC5C JUMP JUMPDEST SWAP2 POP POP PUSH2 0x3E2 JUMP JUMPDEST POP POP POP JUMP JUMPDEST PUSH2 0x49C PUSH2 0x517 JUMP JUMPDEST PUSH1 0x0 PUSH20 0xFFFFFFFFFFFFFFFFFFFFFFFFFFFFFFFFFFFFFFFF AND DUP2 PUSH20 0xFFFFFFFFFFFFFFFFFFFFFFFFFFFFFFFFFFFFFFFF AND SUB PUSH2 0x50B JUMPI PUSH1 0x40 MLOAD PUSH32 0x8C379A000000000000000000000000000000000000000000000000000000000 DUP2 MSTORE PUSH1 0x4 ADD PUSH2 0x502 SWAP1 PUSH2 0xD27 JUMP JUMPDEST PUSH1 0x40 MLOAD DUP1 SWAP2 SUB SWAP1 REVERT JUMPDEST PUSH2 0x514 DUP2 PUSH2 0x595 JUMP JUMPDEST POP JUMP JUMPDEST PUSH2 0x51F PUSH2 0x659 JUMP JUMPDEST PUSH20 0xFFFFFFFFFFFFFFFFFFFFFFFFFFFFFFFFFFFFFFFF AND PUSH2 0x53D PUSH2 0x366 JUMP JUMPDEST PUSH20 0xFFFFFFFFFFFFFFFFFFFFFFFFFFFFFFFFFFFFFFFF AND EQ PUSH2 0x593 JUMPI PUSH1 0x40 MLOAD PUSH32 0x8C379A000000000000000000000000000000000000000000000000000000000 DUP2 MSTORE PUSH1 0x4 ADD PUSH2 0x58A SWAP1 PUSH2 0xD93 JUMP JUMPDEST PUSH1 0x40 MLOAD DUP1 SWAP2 SUB SWAP1 REVERT JUMPDEST JUMP JUMPDEST PUSH1 0x0 DUP1 PUSH1 0x0 SWAP1 SLOAD SWAP1 PUSH2 0x100 EXP SWAP1 DIV PUSH20 0xFFFFFFFFFFFFFFFFFFFFFFFFFFFFFFFFFFFFFFFF AND SWAP1 POP DUP2 PUSH1 0x0 DUP1 PUSH2 0x100 EXP DUP2 SLOAD DUP2 PUSH20 0xFFFFFFFFFFFFFFFFFFFFFFFFFFFFFFFFFFFFFFFF MUL NOT AND SWAP1 DUP4 PUSH20 0xFFFFFFFFFFFFFFFFFFFFFFFFFFFFFFFFFFFFFFFF AND MUL OR SWAP1 SSTORE POP DUP2 PUSH20 0xFFFFFFFFFFFFFFFFFFFFFFFFFFFFFFFFFFFFFFFF AND DUP2 PUSH20 0xFFFFFFFFFFFFFFFFFFFFFFFFFFFFFFFFFFFFFFFF AND PUSH32 0x8BE0079C531659141344CD1FD0A4F28419497F9722A3DAAFE3B4186F6B6457E0 PUSH1 0x40 MLOAD PUSH1 0x40 MLOAD DUP1 SWAP2 SUB SWAP1 LOG3 POP POP JUMP JUMPDEST PUSH1 0x0 CALLER SWAP1 POP SWAP1 JUMP JUMPDEST PUSH1 0x0 PUSH1 0x40 MLOAD SWAP1 POP SWAP1 JUMP JUMPDEST PUSH1 0x0 DUP1 REVERT JUMPDEST PUSH1 0x0 DUP1 REVERT JUMPDEST PUSH1 0x0 PUSH20 0xFFFFFFFFFFFFFFFFFFFFFFFFFFFFFFFFFFFFFFFF DUP3 AND SWAP1 POP SWAP2 SWAP1 POP JUMP JUMPDEST PUSH1 0x0 PUSH2 0x6A0 DUP3 PUSH2 0x675 JUMP JUMPDEST SWAP1 POP SWAP2 SWAP1 POP JUMP JUMPDEST PUSH2 0x6B0 DUP2 PUSH2 0x695 JUMP JUMPDEST DUP2 EQ PUSH2 0x6BB JUMPI PUSH1 0x0 DUP1 REVERT JUMPDEST POP JUMP JUMPDEST PUSH1 0x0 DUP2 CALLDATALOAD SWAP1 POP PUSH2 0x6CD DUP2 PUSH2 0x6A7 JUMP JUMPDEST SWAP3 SWAP2 POP POP JUMP JUMPDEST PUSH1 0x0 PUSH1 0x20 DUP3 DUP5 SUB SLT ISZERO PUSH2 0x6E9 JUMPI PUSH2 0x6E8 PUSH2 0x66B JUMP JUMPDEST JUMPDEST PUSH1 0x0 PUSH2 0x6F7 DUP5 DUP3 DUP6 ADD PUSH2 0x6BE JUMP JUMPDEST SWAP2 POP POP SWAP3 SWAP2 POP POP JUMP JUMPDEST PUSH1 0x0 DUP2 ISZERO ISZERO SWAP1 POP SWAP2 SWAP1 POP JUMP JUMPDEST PUSH2 0x715 DUP2 PUSH2 0x700 JUMP JUMPDEST DUP3 MSTORE POP POP JUMP JUMPDEST PUSH1 0x0 PUSH1 0x20 DUP3 ADD SWAP1 POP PUSH2 0x730 PUSH1 0x0 DUP4 ADD DUP5 PUSH2 0x70C JUMP JUMPDEST SWAP3 SWAP2 POP POP JUMP JUMPDEST PUSH1 0x0 DUP1 REVERT JUMPDEST PUSH1 0x0 DUP1 REVERT JUMPDEST PUSH1 0x0 PUSH1 0x1F NOT PUSH1 0x1F DUP4 ADD AND SWAP1 POP SWAP2 SWAP1 POP JUMP JUMPDEST PUSH32 0x4E487B7100000000000000000000000000000000000000000000000000000000 PUSH1 0x0 MSTORE PUSH1 0x41 PUSH1 0x4 MSTORE PUSH1 0x24 PUSH1 0x0 REVERT JUMPDEST PUSH2 0x789 DUP3 PUSH2 0x740 JUMP JUMPDEST DUP2 ADD DUP2 DUP2 LT PUSH8 0xFFFFFFFFFFFFFFFF DUP3 GT OR ISZERO PUSH2 0x7A8 JUMPI PUSH2 0x7A7 PUSH2 0x751 JUMP JUMPDEST JUMPDEST DUP1 PUSH1 0x40 MSTORE POP POP POP JUMP JUMPDEST PUSH1 0x0 PUSH2 0x7BB PUSH2 0x661 JUMP JUMPDEST SWAP1 POP PUSH2 0x7C7 DUP3 DUP3 PUSH2 0x780 JUMP JUMPDEST SWAP2 SWAP1 POP JUMP JUMPDEST PUSH1 0x0 PUSH8 0xFFFFFFFFFFFFFFFF DUP3 GT ISZERO PUSH2 0x7E7 JUMPI PUSH2 0x7E6 PUSH2 0x751 JUMP JUMPDEST JUMPDEST PUSH2 0x7F0 DUP3 PUSH2 0x740 JUMP JUMPDEST SWAP1 POP PUSH1 0x20 DUP2 ADD SWAP1 POP SWAP2 SWAP1 POP JUMP JUMPDEST DUP3 DUP2 DUP4 CALLDATACOPY PUSH1 0x0 DUP4 DUP4 ADD MSTORE POP POP POP JUMP JUMPDEST PUSH1 0x0 PUSH2 0x81F PUSH2 0x81A DUP5 PUSH2 0x7CC JUMP JUMPDEST PUSH2 0x7B1 JUMP JUMPDEST SWAP1 POP DUP3 DUP2 MSTORE PUSH1 0x20 DUP2 ADD DUP5 DUP5 DUP5 ADD GT ISZERO PUSH2 0x83B JUMPI PUSH2 0x83A PUSH2 0x73B JUMP JUMPDEST JUMPDEST PUSH2 0x846 DUP5 DUP3 DUP6 PUSH2 0x7FD JUMP JUMPDEST POP SWAP4 SWAP3 POP POP POP JUMP JUMPDEST PUSH1 0x0 DUP3 PUSH1 0x1F DUP4 ADD SLT PUSH2 0x863 JUMPI PUSH2 0x862 PUSH2 0x736 JUMP JUMPDEST JUMPDEST DUP2 CALLDATALOAD PUSH2 0x873 DUP5 DUP3 PUSH1 0x20 DUP7 ADD PUSH2 0x80C JUMP JUMPDEST SWAP2 POP POP SWAP3 SWAP2 POP POP JUMP JUMPDEST PUSH1 0x0 DUP1 PUSH1 0x40 DUP4 DUP6 SUB SLT ISZERO PUSH2 0x893 JUMPI PUSH2 0x892 PUSH2 0x66B JUMP JUMPDEST JUMPDEST PUSH1 0x0 DUP4 ADD CALLDATALOAD PUSH8 0xFFFFFFFFFFFFFFFF DUP2 GT ISZERO PUSH2 0x8B1 JUMPI PUSH2 0x8B0 PUSH2 0x670 JUMP JUMPDEST JUMPDEST PUSH2 0x8BD DUP6 DUP3 DUP7 ADD PUSH2 0x84E JUMP JUMPDEST SWAP3 POP POP PUSH1 0x20 PUSH2 0x8CE DUP6 DUP3 DUP7 ADD PUSH2 0x6BE JUMP JUMPDEST SWAP2 POP POP SWAP3 POP SWAP3 SWAP1 POP JUMP JUMPDEST PUSH2 0x8E1 DUP2 PUSH2 0x695 JUMP JUMPDEST DUP3 MSTORE POP POP JUMP JUMPDEST PUSH1 0x0 PUSH1 0x20 DUP3 ADD SWAP1 POP PUSH2 0x8FC PUSH1 0x0 DUP4 ADD DUP5 PUSH2 0x8D8 JUMP JUMPDEST SWAP3 SWAP2 POP POP JUMP JUMPDEST PUSH1 0x0 PUSH1 0x20 DUP3 DUP5 SUB SLT ISZERO PUSH2 0x918 JUMPI PUSH2 0x917 PUSH2 0x66B JUMP JUMPDEST JUMPDEST PUSH1 0x0 DUP3 ADD CALLDATALOAD PUSH8 0xFFFFFFFFFFFFFFFF DUP2 GT ISZERO PUSH2 0x936 JUMPI PUSH2 0x935 PUSH2 0x670 JUMP JUMPDEST JUMPDEST PUSH2 0x942 DUP5 DUP3 DUP6 ADD PUSH2 0x84E JUMP JUMPDEST SWAP2 POP POP SWAP3 SWAP2 POP POP JUMP JUMPDEST PUSH1 0x0 PUSH8 0xFFFFFFFFFFFFFFFF DUP3 GT ISZERO PUSH2 0x966 JUMPI PUSH2 0x965 PUSH2 0x751 JUMP JUMPDEST JUMPDEST PUSH1 0x20 DUP3 MUL SWAP1 POP PUSH1 0x20 DUP2 ADD SWAP1 POP SWAP2 SWAP1 POP JUMP JUMPDEST PUSH1 0x0 DUP1 REVERT JUMPDEST PUSH1 0x0 PUSH2 0x98F PUSH2 0x98A DUP5 PUSH2 0x94B JUMP JUMPDEST PUSH2 0x7B1 JUMP JUMPDEST SWAP1 POP DUP1 DUP4 DUP3 MSTORE PUSH1 0x20 DUP3 ADD SWAP1 POP PUSH1 0x20 DUP5 MUL DUP4 ADD DUP6 DUP2 GT ISZERO PUSH2 0x9B2 JUMPI PUSH2 0x9B1 PUSH2 0x977 JUMP JUMPDEST JUMPDEST DUP4 JUMPDEST DUP2 DUP2 LT ISZERO PUSH2 0x9F9 JUMPI DUP1 CALLDATALOAD PUSH8 0xFFFFFFFFFFFFFFFF DUP2 GT ISZERO PUSH2 0x9D7 JUMPI PUSH2 0x9D6 PUSH2 0x736 JUMP JUMPDEST JUMPDEST DUP1 DUP7 ADD PUSH2 0x9E4 DUP10 DUP3 PUSH2 0x84E JUMP JUMPDEST DUP6 MSTORE PUSH1 0x20 DUP6 ADD SWAP5 POP POP POP PUSH1 0x20 DUP2 ADD SWAP1 POP PUSH2 0x9B4 JUMP JUMPDEST POP POP POP SWAP4 SWAP3 POP POP POP JUMP JUMPDEST PUSH1 0x0 DUP3 PUSH1 0x1F DUP4 ADD SLT PUSH2 0xA18 JUMPI PUSH2 0xA17 PUSH2 0x736 JUMP JUMPDEST JUMPDEST DUP2 CALLDATALOAD PUSH2 0xA28 DUP5 DUP3 PUSH1 0x20 DUP7 ADD PUSH2 0x97C JUMP JUMPDEST SWAP2 POP POP SWAP3 SWAP2 POP POP JUMP JUMPDEST PUSH1 0x0 PUSH8 0xFFFFFFFFFFFFFFFF DUP3 GT ISZERO PUSH2 0xA4C JUMPI PUSH2 0xA4B PUSH2 0x751 JUMP JUMPDEST JUMPDEST PUSH1 0x20 DUP3 MUL SWAP1 POP PUSH1 0x20 DUP2 ADD SWAP1 POP SWAP2 SWAP1 POP JUMP JUMPDEST PUSH1 0x0 PUSH2 0xA70 PUSH2 0xA6B DUP5 PUSH2 0xA31 JUMP JUMPDEST PUSH2 0x7B1 JUMP JUMPDEST SWAP1 POP DUP1 DUP4 DUP3 MSTORE PUSH1 0x20 DUP3 ADD SWAP1 POP PUSH1 0x20 DUP5 MUL DUP4 ADD DUP6 DUP2 GT ISZERO PUSH2 0xA93 JUMPI PUSH2 0xA92 PUSH2 0x977 JUMP JUMPDEST JUMPDEST DUP4 JUMPDEST DUP2 DUP2 LT ISZERO PUSH2 0xABC JUMPI DUP1 PUSH2 0xAA8 DUP9 DUP3 PUSH2 0x6BE JUMP JUMPDEST DUP5 MSTORE PUSH1 0x20 DUP5 ADD SWAP4 POP POP PUSH1 0x20 DUP2 ADD SWAP1 POP PUSH2 0xA95 JUMP JUMPDEST POP POP POP SWAP4 SWAP3 POP POP POP JUMP JUMPDEST PUSH1 0x0 DUP3 PUSH1 0x1F DUP4 ADD SLT PUSH2 0xADB JUMPI PUSH2 0xADA PUSH2 0x736 JUMP JUMPDEST JUMPDEST DUP2 CALLDATALOAD PUSH2 0xAEB DUP5 DUP3 PUSH1 0x20 DUP7 ADD PUSH2 0xA5D JUMP JUMPDEST SWAP2 POP POP SWAP3 SWAP2 POP POP JUMP JUMPDEST PUSH1 0x0 DUP1 PUSH1 0x40 DUP4 DUP6 SUB SLT ISZERO PUSH2 0xB0B JUMPI PUSH2 0xB0A PUSH2 0x66B JUMP JUMPDEST JUMPDEST PUSH1 0x0 DUP4 ADD CALLDATALOAD PUSH8 0xFFFFFFFFFFFFFFFF DUP2 GT ISZERO PUSH2 0xB29 JUMPI PUSH2 0xB28 PUSH2 0x670 JUMP JUMPDEST JUMPDEST PUSH2 0xB35 DUP6 DUP3 DUP7 ADD PUSH2 0xA03 JUMP JUMPDEST SWAP3 POP POP PUSH1 0x20 DUP4 ADD CALLDATALOAD PUSH8 0xFFFFFFFFFFFFFFFF DUP2 GT ISZERO PUSH2 0xB56 JUMPI PUSH2 0xB55 PUSH2 0x670 JUMP JUMPDEST JUMPDEST PUSH2 0xB62 DUP6 DUP3 DUP7 ADD PUSH2 0xAC6 JUMP JUMPDEST SWAP2 POP POP SWAP3 POP SWAP3 SWAP1 POP JUMP JUMPDEST PUSH1 0x0 DUP2 MLOAD SWAP1 POP SWAP2 SWAP1 POP JUMP JUMPDEST PUSH1 0x0 DUP2 SWAP1 POP SWAP3 SWAP2 POP POP JUMP JUMPDEST PUSH1 0x0 JUMPDEST DUP4 DUP2 LT ISZERO PUSH2 0xBA0 JUMPI DUP1 DUP3 ADD MLOAD DUP2 DUP5 ADD MSTORE PUSH1 0x20 DUP2 ADD SWAP1 POP PUSH2 0xB85 JUMP JUMPDEST PUSH1 0x0 DUP5 DUP5 ADD MSTORE POP POP POP POP JUMP JUMPDEST PUSH1 0x0 PUSH2 0xBB7 DUP3 PUSH2 0xB6C JUMP JUMPDEST PUSH2 0xBC1 DUP2 DUP6 PUSH2 0xB77 JUMP JUMPDEST SWAP4 POP PUSH2 0xBD1 DUP2 DUP6 PUSH1 0x20 DUP7 ADD PUSH2 0xB82 JUMP JUMPDEST DUP1 DUP5 ADD SWAP2 POP POP SWAP3 SWAP2 POP POP JUMP JUMPDEST PUSH1 0x0 PUSH2 0xBE9 DUP3 DUP5 PUSH2 0xBAC JUMP JUMPDEST SWAP2 POP DUP2 SWAP1 POP SWAP3 SWAP2 POP POP JUMP JUMPDEST PUSH32 0x4E487B7100000000000000000000000000000000000000000000000000000000 PUSH1 0x0 MSTORE PUSH1 0x32 PUSH1 0x4 MSTORE PUSH1 0x24 PUSH1 0x0 REVERT JUMPDEST PUSH32 0x4E487B7100000000000000000000000000000000000000000000000000000000 PUSH1 0x0 MSTORE PUSH1 0x11 PUSH1 0x4 MSTORE PUSH1 0x24 PUSH1 0x0 REVERT JUMPDEST PUSH1 0x0 DUP2 SWAP1 POP SWAP2 SWAP1 POP JUMP JUMPDEST PUSH1 0x0 PUSH2 0xC67 DUP3 PUSH2 0xC52 JUMP JUMPDEST SWAP2 POP PUSH32 0xFFFFFFFFFFFFFFFFFFFFFFFFFFFFFFFFFFFFFFFFFFFFFFFFFFFFFFFFFFFFFFFF DUP3 SUB PUSH2 0xC99 JUMPI PUSH2 0xC98 PUSH2 0xC23 JUMP JUMPDEST JUMPDEST PUSH1 0x1 DUP3 ADD SWAP1 POP SWAP2 SWAP1 POP JUMP JUMPDEST PUSH1 0x0 DUP3 DUP3 MSTORE PUSH1 0x20 DUP3 ADD SWAP1 POP SWAP3 SWAP2 POP POP JUMP JUMPDEST PUSH32 0x4F776E61626C653A206E6577206F776E657220697320746865207A65726F2061 PUSH1 0x0 DUP3 ADD MSTORE PUSH32 0x6464726573730000000000000000000000000000000000000000000000000000 PUSH1 0x20 DUP3 ADD MSTORE POP JUMP JUMPDEST PUSH1 0x0 PUSH2 0xD11 PUSH1 0x26 DUP4 PUSH2 0xCA4 JUMP JUMPDEST SWAP2 POP PUSH2 0xD1C DUP3 PUSH2 0xCB5 JUMP JUMPDEST PUSH1 0x40 DUP3 ADD SWAP1 POP SWAP2 SWAP1 POP JUMP JUMPDEST PUSH1 0x0 PUSH1 0x20 DUP3 ADD SWAP1 POP DUP2 DUP2 SUB PUSH1 0x0 DUP4 ADD MSTORE PUSH2 0xD40 DUP2 PUSH2 0xD04 JUMP JUMPDEST SWAP1 POP SWAP2 SWAP1 POP JUMP JUMPDEST PUSH32 0x4F776E61626C653A2063616C6C6572206973206E6F7420746865206F776E6572 PUSH1 0x0 DUP3 ADD MSTORE POP JUMP JUMPDEST PUSH1 0x0 PUSH2 0xD7D PUSH1 0x20 DUP4 PUSH2 0xCA4 JUMP JUMPDEST SWAP2 POP PUSH2 0xD88 DUP3 PUSH2 0xD47 JUMP JUMPDEST PUSH1 0x20 DUP3 ADD SWAP1 POP SWAP2 SWAP1 POP JUMP JUMPDEST PUSH1 0x0 PUSH1 0x20 DUP3 ADD SWAP1 POP DUP2 DUP2 SUB PUSH1 0x0 DUP4 ADD MSTORE PUSH2 0xDAC DUP2 PUSH2 0xD70 JUMP JUMPDEST SWAP1 POP SWAP2 SWAP1 POP JUMP INVALID LOG2 PUSH5 0x6970667358 0x22 SLT KECCAK256 EXTCODECOPY 0x1F GASLIMIT PUSH20 0x1DE7EA7DB2897D532DC1F9BE97B2FCCA4EBDDB27 PUSH8 0x72F5B0BF172D3564 PUSH20 0x6F6C634300081100330000000000000000000000 "
				},
				"gasEstimates": {
					"creation": {
						"codeDepositCost": "712200",
						"executionCost": "infinite",
						"totalCost": "infinite"
					},
					"external": {
						"addAdmin(address)": "27143",
						"addCaller(string[],address[])": "infinite",
						"delAdmin(address)": "27121",
						"getCaller(string)": "infinite",
						"isAdmin(address)": "2884",
						"onlyCaller(string,address)": "infinite",
						"owner()": "2544",
						"renounceOwnership()": "30398",
						"transferOwnership(address)": "30832"
					}
				},
				"methodIdentifiers": {
					"addAdmin(address)": "70480275",
					"addCaller(string[],address[])": "a96ed9c1",
					"delAdmin(address)": "62d91855",
					"getCaller(string)": "9a503eb1",
					"isAdmin(address)": "24d7806c",
					"onlyCaller(string,address)": "5437733f",
					"owner()": "8da5cb5b",
					"renounceOwnership()": "715018a6",
					"transferOwnership(address)": "f2fde38b"
				}
			},
			"storageLayout": {
				"storage": [
					{
						"astId": 7,
						"contract": "contracts/Constant1.sol:AuthVerify",
						"label": "_owner",
						"offset": 0,
						"slot": "0",
						"type": "t_address"
					},
					{
						"astId": 143,
						"contract": "contracts/Constant1.sol:AuthVerify",
						"label": "_admins",
						"offset": 0,
						"slot": "1",
						"type": "t_mapping(t_address,t_bool)"
					},
					{
						"astId": 202,
						"contract": "contracts/Constant1.sol:AuthVerify",
						"label": "authVerify",
						"offset": 0,
						"slot": "2",
						"type": "t_mapping(t_string_memory_ptr,t_address)"
					}
				],
				"types": {
					"t_address": {
						"encoding": "inplace",
						"label": "address",
						"numberOfBytes": "20"
					},
					"t_bool": {
						"encoding": "inplace",
						"label": "bool",
						"numberOfBytes": "1"
					},
					"t_mapping(t_address,t_bool)": {
						"encoding": "mapping",
						"key": "t_address",
						"label": "mapping(address => bool)",
						"numberOfBytes": "32",
						"value": "t_bool"
					},
					"t_mapping(t_string_memory_ptr,t_address)": {
						"encoding": "mapping",
						"key": "t_string_memory_ptr",
						"label": "mapping(string => address)",
						"numberOfBytes": "32",
						"value": "t_address"
					},
					"t_string_memory_ptr": {
						"encoding": "bytes",
						"label": "string",
						"numberOfBytes": "32"
					}
				}
			},
			"userdoc": {
				"kind": "user",
				"methods": {},
				"version": 1
			}
		}
	}
}