{
	"contracts/Constant1.sol": {
		"VertexConstant": {
			"abi": [
				{
					"anonymous": false,
					"inputs": [
						{
							"indexed": true,
							"internalType": "address",
							"name": "previousOwner",
							"type": "address"
						},
						{
							"indexed": true,
							"internalType": "address",
							"name": "newOwner",
							"type": "address"
						}
					],
					"name": "OwnershipTransferred",
					"type": "event"
				},
				{
					"inputs": [],
					"name": "GpuCpuMemNetWeight",
					"outputs": [
						{
							"internalType": "uint256",
							"name": "",
							"type": "uint256"
						}
					],
					"stateMutability": "view",
					"type": "function"
				},
				{
					"inputs": [],
					"name": "HddWeight",
					"outputs": [
						{
							"internalType": "uint256",
							"name": "",
							"type": "uint256"
						}
					],
					"stateMutability": "view",
					"type": "function"
				},
				{
					"inputs": [
						{
							"internalType": "address",
							"name": "_admin",
							"type": "address"
						}
					],
					"name": "addAdmin",
					"outputs": [],
					"stateMutability": "nonpayable",
					"type": "function"
				},
				{
					"inputs": [
						{
							"internalType": "string[]",
							"name": "keys",
							"type": "string[]"
						},
						{
							"internalType": "address[]",
							"name": "caller",
							"type": "address[]"
						}
					],
					"name": "addCaller",
					"outputs": [],
					"stateMutability": "nonpayable",
					"type": "function"
				},
				{
					"inputs": [
						{
							"internalType": "string",
							"name": "typeParam",
							"type": "string"
						}
					],
					"name": "addDeviceInfoCons",
					"outputs": [],
					"stateMutability": "nonpayable",
					"type": "function"
				},
				{
					"inputs": [
						{
							"internalType": "string",
							"name": "powerPart",
							"type": "string"
						}
					],
					"name": "addDevicePowerInfoCons",
					"outputs": [],
					"stateMutability": "nonpayable",
					"type": "function"
				},
				{
					"inputs": [
						{
							"internalType": "address",
							"name": "_admin",
							"type": "address"
						}
					],
					"name": "delAdmin",
					"outputs": [],
					"stateMutability": "nonpayable",
					"type": "function"
				},
				{
					"inputs": [
						{
							"internalType": "string",
							"name": "consName",
							"type": "string"
						}
					],
					"name": "delDeviceInfoCons",
					"outputs": [],
					"stateMutability": "nonpayable",
					"type": "function"
				},
				{
					"inputs": [],
					"name": "deviceConsCount",
					"outputs": [
						{
							"internalType": "uint16",
							"name": "",
							"type": "uint16"
						}
					],
					"stateMutability": "view",
					"type": "function"
				},
				{
					"inputs": [
						{
							"internalType": "uint256",
							"name": "",
							"type": "uint256"
						}
					],
					"name": "deviceInfoKeys",
					"outputs": [
						{
							"internalType": "string",
							"name": "",
							"type": "string"
						}
					],
					"stateMutability": "view",
					"type": "function"
				},
				{
					"inputs": [
						{
							"internalType": "string",
							"name": "",
							"type": "string"
						}
					],
					"name": "devicePartInfoCons",
					"outputs": [
						{
							"internalType": "uint16",
							"name": "",
							"type": "uint16"
						}
					],
					"stateMutability": "view",
					"type": "function"
				},
				{
					"inputs": [],
					"name": "devicePowerConsCount",
					"outputs": [
						{
							"internalType": "uint16",
							"name": "",
							"type": "uint16"
						}
					],
					"stateMutability": "view",
					"type": "function"
				},
				{
					"inputs": [
						{
							"internalType": "string",
							"name": "",
							"type": "string"
						}
					],
					"name": "devicePowerInfoCons",
					"outputs": [
						{
							"internalType": "uint16",
							"name": "",
							"type": "uint16"
						}
					],
					"stateMutability": "view",
					"type": "function"
				},
				{
					"inputs": [
						{
							"internalType": "uint256",
							"name": "",
							"type": "uint256"
						}
					],
					"name": "devicePowerInfoKeys",
					"outputs": [
						{
							"internalType": "string",
							"name": "",
							"type": "string"
						}
					],
					"stateMutability": "view",
					"type": "function"
				},
				{
					"inputs": [
						{
							"internalType": "string",
							"name": "key",
							"type": "string"
						}
					],
					"name": "getCaller",
					"outputs": [
						{
							"internalType": "address",
							"name": "",
							"type": "address"
						}
					],
					"stateMutability": "view",
					"type": "function"
				},
				{
					"inputs": [],
					"name": "getDeviceConsCount",
					"outputs": [
						{
							"internalType": "uint16",
							"name": "",
							"type": "uint16"
						}
					],
					"stateMutability": "view",
					"type": "function"
				},
				{
					"inputs": [
						{
							"internalType": "string",
							"name": "deviceInfoTypeCons",
							"type": "string"
						}
					],
					"name": "getDeviceInfoCons",
					"outputs": [
						{
							"internalType": "uint16",
							"name": "",
							"type": "uint16"
						}
					],
					"stateMutability": "view",
					"type": "function"
				},
				{
					"inputs": [],
					"name": "getDeviceInfoKeys",
					"outputs": [
						{
							"internalType": "string[]",
							"name": "",
							"type": "string[]"
						}
					],
					"stateMutability": "view",
					"type": "function"
				},
				{
					"inputs": [],
					"name": "getDevicePowerConsCount",
					"outputs": [
						{
							"internalType": "uint16",
							"name": "",
							"type": "uint16"
						}
					],
					"stateMutability": "view",
					"type": "function"
				},
				{
					"inputs": [
						{
							"internalType": "string",
							"name": "param",
							"type": "string"
						}
					],
					"name": "getDevicePowerInfoCons",
					"outputs": [
						{
							"internalType": "uint16",
							"name": "",
							"type": "uint16"
						}
					],
					"stateMutability": "view",
					"type": "function"
				},
				{
					"inputs": [],
					"name": "getDevicePowerInfoKeys",
					"outputs": [
						{
							"internalType": "string[]",
							"name": "",
							"type": "string[]"
						}
					],
					"stateMutability": "view",
					"type": "function"
				},
				{
					"inputs": [],
					"name": "getGpuCpuMemNetWeight",
					"outputs": [
						{
							"internalType": "uint256",
							"name": "",
							"type": "uint256"
						}
					],
					"stateMutability": "view",
					"type": "function"
				},
				{
					"inputs": [],
					"name": "getHddWeight",
					"outputs": [
						{
							"internalType": "uint256",
							"name": "",
							"type": "uint256"
						}
					],
					"stateMutability": "view",
					"type": "function"
				},
				{
					"inputs": [],
					"name": "getMinStakeAmount",
					"outputs": [
						{
							"internalType": "uint256",
							"name": "",
							"type": "uint256"
						}
					],
					"stateMutability": "pure",
					"type": "function"
				},
				{
					"inputs": [],
					"name": "getOffline",
					"outputs": [
						{
							"internalType": "uint16",
							"name": "",
							"type": "uint16"
						}
					],
					"stateMutability": "pure",
					"type": "function"
				},
				{
					"inputs": [],
					"name": "getOnline",
					"outputs": [
						{
							"internalType": "uint16",
							"name": "",
							"type": "uint16"
						}
					],
					"stateMutability": "pure",
					"type": "function"
				},
				{
					"inputs": [],
					"name": "getRendering",
					"outputs": [
						{
							"internalType": "uint16",
							"name": "",
							"type": "uint16"
						}
					],
					"stateMutability": "pure",
					"type": "function"
				},
				{
					"inputs": [],
					"name": "getReportVmDataDiffTimestamp",
					"outputs": [
						{
							"internalType": "uint256",
							"name": "",
							"type": "uint256"
						}
					],
					"stateMutability": "view",
					"type": "function"
				},
				{
					"inputs": [],
					"name": "getStakeAmountLimit",
					"outputs": [
						{
							"internalType": "uint256",
							"name": "",
							"type": "uint256"
						}
					],
					"stateMutability": "view",
					"type": "function"
				},
				{
					"inputs": [],
					"name": "getTotalTokenIssuance",
					"outputs": [
						{
							"internalType": "uint256",
							"name": "",
							"type": "uint256"
						}
					],
					"stateMutability": "pure",
					"type": "function"
				},
				{
					"inputs": [
						{
							"internalType": "address",
							"name": "_addr",
							"type": "address"
						}
					],
					"name": "isAdmin",
					"outputs": [
						{
							"internalType": "bool",
							"name": "",
							"type": "bool"
						}
					],
					"stateMutability": "view",
					"type": "function"
				},
				{
					"inputs": [],
					"name": "offline",
					"outputs": [
						{
							"internalType": "uint16",
							"name": "",
							"type": "uint16"
						}
					],
					"stateMutability": "view",
					"type": "function"
				},
				{
					"inputs": [],
					"name": "online",
					"outputs": [
						{
							"internalType": "uint16",
							"name": "",
							"type": "uint16"
						}
					],
					"stateMutability": "view",
					"type": "function"
				},
				{
					"inputs": [
						{
							"internalType": "string",
							"name": "key",
							"type": "string"
						},
						{
							"internalType": "address",
							"name": "caller",
							"type": "address"
						}
					],
					"name": "onlyCaller",
					"outputs": [
						{
							"internalType": "bool",
							"name": "",
							"type": "bool"
						}
					],
					"stateMutability": "view",
					"type": "function"
				},
				{
					"inputs": [],
					"name": "owner",
					"outputs": [
						{
							"internalType": "address",
							"name": "",
							"type": "address"
						}
					],
					"stateMutability": "view",
					"type": "function"
				},
				{
					"inputs": [],
					"name": "remainingMinStakeAmount",
					"outputs": [
						{
							"internalType": "uint256",
							"name": "",
							"type": "uint256"
						}
					],
					"stateMutability": "view",
					"type": "function"
				},
				{
					"inputs": [],
					"name": "rendering",
					"outputs": [
						{
							"internalType": "uint16",
							"name": "",
							"type": "uint16"
						}
					],
					"stateMutability": "view",
					"type": "function"
				},
				{
					"inputs": [],
					"name": "renounceOwnership",
					"outputs": [],
					"stateMutability": "nonpayable",
					"type": "function"
				},
				{
					"inputs": [],
					"name": "reportVmDataDiffTimestamp",
					"outputs": [
						{
							"internalType": "uint256",
							"name": "",
							"type": "uint256"
						}
					],
					"stateMutability": "view",
					"type": "function"
				},
				{
					"inputs": [
						{
							"internalType": "uint256",
							"name": "value",
							"type": "uint256"
						}
					],
					"name": "setStakeAmount",
					"outputs": [
						{
							"internalType": "bool",
							"name": "",
							"type": "bool"
						}
					],
					"stateMutability": "nonpayable",
					"type": "function"
				},
				{
					"inputs": [],
					"name": "stakeAmountLimit",
					"outputs": [
						{
							"internalType": "uint256",
							"name": "",
							"type": "uint256"
						}
					],
					"stateMutability": "view",
					"type": "function"
				},
				{
					"inputs": [],
					"name": "totalTokenIssuance",
					"outputs": [
						{
							"internalType": "uint256",
							"name": "",
							"type": "uint256"
						}
					],
					"stateMutability": "view",
					"type": "function"
				},
				{
					"inputs": [
						{
							"internalType": "address",
							"name": "newOwner",
							"type": "address"
						}
					],
					"name": "transferOwnership",
					"outputs": [],
					"stateMutability": "nonpayable",
					"type": "function"
				}
			],
			"devdoc": {
				"kind": "dev",
				"methods": {
					"owner()": {
						"details": "Returns the address of the current owner."
					},
					"renounceOwnership()": {
						"details": "Leaves the contract without owner. It will not be possible to call `onlyOwner` functions anymore. Can only be called by the current owner. NOTE: Renouncing ownership will leave the contract without an owner, thereby removing any functionality that is only available to the owner."
					},
					"transferOwnership(address)": {
						"details": "Transfers ownership of the contract to a new account (`newOwner`). Can only be called by the current owner."
					}
				},
				"version": 1
			},
			"evm": {
				"assembly": "    /* \"contracts/Constant1.sol\":1176:5979  contract VertexConstant is AuthVerify {... */\n  mstore(0x40, 0x80)\n    /* \"contracts/Constant1.sol\":1899:1912  10 * 10 ** 18 */\n  0x8ac7230489e80000\n    /* \"contracts/Constant1.sol\":1865:1912  uint256 public stakeAmountLimit = 10 * 10 ** 18 */\n  0x07\n  sstore\n    /* \"contracts/Constant1.sol\":2059:2060  0 */\n  0x00\n    /* \"contracts/Constant1.sol\":2027:2060  uint16 public deviceConsCount = 0 */\n  0x08\n  exp(0x0100, 0x00)\n  dup2\n  sload\n  dup2\n  0xffff\n  mul\n  not\n  and\n  swap1\n  dup4\n  0xffff\n  and\n  mul\n  or\n  swap1\n  sstore\n  pop\n    /* \"contracts/Constant1.sol\":2104:2105  0 */\n  0x00\n    /* \"contracts/Constant1.sol\":2067:2105  uint16 public devicePowerConsCount = 0 */\n  0x08\n  exp(0x0100, 0x02)\n  dup2\n  sload\n  dup2\n  0xffff\n  mul\n  not\n  and\n  swap1\n  dup4\n  0xffff\n  and\n  mul\n  or\n  swap1\n  sstore\n  pop\n    /* \"contracts/Constant1.sol\":2155:2161  604800 */\n  0x093a80\n    /* \"contracts/Constant1.sol\":2112:2161  uint256 public reportVmDataDiffTimestamp = 604800 */\n  0x09\n  sstore\n    /* \"contracts/Constant1.sol\":2204:2208  9000 */\n  0x2328\n    /* \"contracts/Constant1.sol\":2168:2208  uint256 public GpuCpuMemNetWeight = 9000 */\n  0x0a\n  sstore\n    /* \"contracts/Constant1.sol\":2242:2246  1000 */\n  0x03e8\n    /* \"contracts/Constant1.sol\":2215:2246  uint256 public HddWeight = 1000 */\n  0x0b\n  sstore\n    /* \"contracts/Constant1.sol\":1176:5979  contract VertexConstant is AuthVerify {... */\n  callvalue\n  dup1\n  iszero\n  tag_1\n  jumpi\n  0x00\n  dup1\n  revert\ntag_1:\n  pop\n    /* \"@openzeppelin/contracts/access/Ownable.sol\":936:968  _transferOwnership(_msgSender()) */\n  tag_4\n    /* \"@openzeppelin/contracts/access/Ownable.sol\":955:967  _msgSender() */\n  tag_5\n    /* \"@openzeppelin/contracts/access/Ownable.sol\":955:965  _msgSender */\n  shl(0x20, tag_6)\n    /* \"@openzeppelin/contracts/access/Ownable.sol\":955:967  _msgSender() */\n  0x20\n  shr\n  jump\t// in\ntag_5:\n    /* \"@openzeppelin/contracts/access/Ownable.sol\":936:954  _transferOwnership */\n  shl(0x20, tag_7)\n    /* \"@openzeppelin/contracts/access/Ownable.sol\":936:968  _transferOwnership(_msgSender()) */\n  0x20\n  shr\n  jump\t// in\ntag_4:\n    /* \"contracts/Constant1.sol\":1176:5979  contract VertexConstant is AuthVerify {... */\n  jump(tag_8)\n    /* \"@openzeppelin/contracts/utils/Context.sol\":640:736  function _msgSender() internal view virtual returns (address) {... */\ntag_6:\n    /* \"@openzeppelin/contracts/utils/Context.sol\":693:700  address */\n  0x00\n    /* \"@openzeppelin/contracts/utils/Context.sol\":719:729  msg.sender */\n  caller\n    /* \"@openzeppelin/contracts/utils/Context.sol\":712:729  return msg.sender */\n  swap1\n  pop\n    /* \"@openzeppelin/contracts/utils/Context.sol\":640:736  function _msgSender() internal view virtual returns (address) {... */\n  swap1\n  jump\t// out\n    /* \"@openzeppelin/contracts/access/Ownable.sol\":2433:2620  function _transferOwnership(address newOwner) internal virtual {... */\ntag_7:\n    /* \"@openzeppelin/contracts/access/Ownable.sol\":2506:2522  address oldOwner */\n  0x00\n    /* \"@openzeppelin/contracts/access/Ownable.sol\":2525:2531  _owner */\n  dup1\n  0x00\n  swap1\n  sload\n  swap1\n  0x0100\n  exp\n  swap1\n  div\n  0xffffffffffffffffffffffffffffffffffffffff\n  and\n    /* \"@openzeppelin/contracts/access/Ownable.sol\":2506:2531  address oldOwner = _owner */\n  swap1\n  pop\n    /* \"@openzeppelin/contracts/access/Ownable.sol\":2550:2558  newOwner */\n  dup2\n    /* \"@openzeppelin/contracts/access/Ownable.sol\":2541:2547  _owner */\n  0x00\n  dup1\n    /* \"@openzeppelin/contracts/access/Ownable.sol\":2541:2558  _owner = newOwner */\n  0x0100\n  exp\n  dup2\n  sload\n  dup2\n  0xffffffffffffffffffffffffffffffffffffffff\n  mul\n  not\n  and\n  swap1\n  dup4\n  0xffffffffffffffffffffffffffffffffffffffff\n  and\n  mul\n  or\n  swap1\n  sstore\n  pop\n    /* \"@openzeppelin/contracts/access/Ownable.sol\":2604:2612  newOwner */\n  dup2\n    /* \"@openzeppelin/contracts/access/Ownable.sol\":2573:2613  OwnershipTransferred(oldOwner, newOwner) */\n  0xffffffffffffffffffffffffffffffffffffffff\n  and\n    /* \"@openzeppelin/contracts/access/Ownable.sol\":2594:2602  oldOwner */\n  dup2\n    /* \"@openzeppelin/contracts/access/Ownable.sol\":2573:2613  OwnershipTransferred(oldOwner, newOwner) */\n  0xffffffffffffffffffffffffffffffffffffffff\n  and\n  0x8be0079c531659141344cd1fd0a4f28419497f9722a3daafe3b4186f6b6457e0\n  mload(0x40)\n  mload(0x40)\n  dup1\n  swap2\n  sub\n  swap1\n  log3\n    /* \"@openzeppelin/contracts/access/Ownable.sol\":2496:2620  {... */\n  pop\n    /* \"@openzeppelin/contracts/access/Ownable.sol\":2433:2620  function _transferOwnership(address newOwner) internal virtual {... */\n  pop\n  jump\t// out\n    /* \"contracts/Constant1.sol\":1176:5979  contract VertexConstant is AuthVerify {... */\ntag_8:\n  dataSize(sub_0)\n  dup1\n  dataOffset(sub_0)\n  0x00\n  codecopy\n  0x00\n  return\nstop\n\nsub_0: assembly {\n        /* \"contracts/Constant1.sol\":1176:5979  contract VertexConstant is AuthVerify {... */\n      mstore(0x40, 0x80)\n      callvalue\n      dup1\n      iszero\n      tag_1\n      jumpi\n      0x00\n      dup1\n      revert\n    tag_1:\n      pop\n      jumpi(tag_2, lt(calldatasize, 0x04))\n      shr(0xe0, calldataload(0x00))\n      dup1\n      0x715018a6\n      gt\n      tag_46\n      jumpi\n      dup1\n      0xa8f560f9\n      gt\n      tag_47\n      jumpi\n      dup1\n      0xd703805f\n      gt\n      tag_48\n      jumpi\n      dup1\n      0xd703805f\n      eq\n      tag_40\n      jumpi\n      dup1\n      0xd98cd54d\n      eq\n      tag_41\n      jumpi\n      dup1\n      0xdbf26edf\n      eq\n      tag_42\n      jumpi\n      dup1\n      0xe9fcb6fc\n      eq\n      tag_43\n      jumpi\n      dup1\n      0xf2fde38b\n      eq\n      tag_44\n      jumpi\n      dup1\n      0xffef89c3\n      eq\n      tag_45\n      jumpi\n      jump(tag_2)\n    tag_48:\n      dup1\n      0xa8f560f9\n      eq\n      tag_35\n      jumpi\n      dup1\n      0xa96ed9c1\n      eq\n      tag_36\n      jumpi\n      dup1\n      0xb66dd715\n      eq\n      tag_37\n      jumpi\n      dup1\n      0xc8aecea6\n      eq\n      tag_38\n      jumpi\n      dup1\n      0xc90cee4e\n      eq\n      tag_39\n      jumpi\n      jump(tag_2)\n    tag_47:\n      dup1\n      0x8da5cb5b\n      gt\n      tag_49\n      jumpi\n      dup1\n      0x8da5cb5b\n      eq\n      tag_29\n      jumpi\n      dup1\n      0x99adf51e\n      eq\n      tag_30\n      jumpi\n      dup1\n      0x9a403ff6\n      eq\n      tag_31\n      jumpi\n      dup1\n      0x9a503eb1\n      eq\n      tag_32\n      jumpi\n      dup1\n      0x9e7a0257\n      eq\n      tag_33\n      jumpi\n      dup1\n      0x9fa2526f\n      eq\n      tag_34\n      jumpi\n      jump(tag_2)\n    tag_49:\n      dup1\n      0x715018a6\n      eq\n      tag_24\n      jumpi\n      dup1\n      0x751c0b35\n      eq\n      tag_25\n      jumpi\n      dup1\n      0x76993de3\n      eq\n      tag_26\n      jumpi\n      dup1\n      0x77ec7252\n      eq\n      tag_27\n      jumpi\n      dup1\n      0x7c1855fa\n      eq\n      tag_28\n      jumpi\n      jump(tag_2)\n    tag_46:\n      dup1\n      0x43808c50\n      gt\n      tag_50\n      jumpi\n      dup1\n      0x60729675\n      gt\n      tag_51\n      jumpi\n      dup1\n      0x60729675\n      eq\n      tag_18\n      jumpi\n      dup1\n      0x62d91855\n      eq\n      tag_19\n      jumpi\n      dup1\n      0x64693b87\n      eq\n      tag_20\n      jumpi\n      dup1\n      0x67068278\n      eq\n      tag_21\n      jumpi\n      dup1\n      0x6c021c76\n      eq\n      tag_22\n      jumpi\n      dup1\n      0x70480275\n      eq\n      tag_23\n      jumpi\n      jump(tag_2)\n    tag_51:\n      dup1\n      0x43808c50\n      eq\n      tag_13\n      jumpi\n      dup1\n      0x527cb1d7\n      eq\n      tag_14\n      jumpi\n      dup1\n      0x5437733f\n      eq\n      tag_15\n      jumpi\n      dup1\n      0x5809cdb5\n      eq\n      tag_16\n      jumpi\n      dup1\n      0x5cd9f87a\n      eq\n      tag_17\n      jumpi\n      jump(tag_2)\n    tag_50:\n      dup1\n      0x24d7806c\n      gt\n      tag_52\n      jumpi\n      dup1\n      0x24d7806c\n      eq\n      tag_8\n      jumpi\n      dup1\n      0x2f2b035b\n      eq\n      tag_9\n      jumpi\n      dup1\n      0x331b4cda\n      eq\n      tag_10\n      jumpi\n      dup1\n      0x36ffc86d\n      eq\n      tag_11\n      jumpi\n      dup1\n      0x4305c0dc\n      eq\n      tag_12\n      jumpi\n      jump(tag_2)\n    tag_52:\n      dup1\n      0x022c36fd\n      eq\n      tag_3\n      jumpi\n      dup1\n      0x086ebaa4\n      eq\n      tag_4\n      jumpi\n      dup1\n      0x0b114940\n      eq\n      tag_5\n      jumpi\n      dup1\n      0x0de53caf\n      eq\n      tag_6\n      jumpi\n      dup1\n      0x146772d7\n      eq\n      tag_7\n      jumpi\n    tag_2:\n      0x00\n      dup1\n      revert\n        /* \"contracts/Constant1.sol\":5856:5977  function getReportVmDataDiffTimestamp() external view returns (uint256) {... */\n    tag_3:\n      tag_53\n      tag_54\n      jump\t// in\n    tag_53:\n      mload(0x40)\n      tag_55\n      swap2\n      swap1\n      tag_56\n      jump\t// in\n    tag_55:\n      mload(0x40)\n      dup1\n      swap2\n      sub\n      swap1\n      return\n        /* \"contracts/Constant1.sol\":2253:2360  function getGpuCpuMemNetWeight() external view returns (uint256) {... */\n    tag_4:\n      tag_57\n      tag_58\n      jump\t// in\n    tag_57:\n      mload(0x40)\n      tag_59\n      swap2\n      swap1\n      tag_56\n      jump\t// in\n    tag_59:\n      mload(0x40)\n      dup1\n      swap2\n      sub\n      swap1\n      return\n        /* \"contracts/Constant1.sol\":4048:4411  function addDevicePowerInfoCons(string memory powerPart) external {... */\n    tag_5:\n      tag_60\n      0x04\n      dup1\n      calldatasize\n      sub\n      dup2\n      add\n      swap1\n      tag_61\n      swap2\n      swap1\n      tag_62\n      jump\t// in\n    tag_61:\n      tag_63\n      jump\t// in\n    tag_60:\n      stop\n        /* \"contracts/Constant1.sol\":1777:1829  mapping(string => uint16) public devicePowerInfoCons */\n    tag_6:\n      tag_64\n      0x04\n      dup1\n      calldatasize\n      sub\n      dup2\n      add\n      swap1\n      tag_65\n      swap2\n      swap1\n      tag_62\n      jump\t// in\n    tag_65:\n      tag_66\n      jump\t// in\n    tag_64:\n      mload(0x40)\n      tag_67\n      swap2\n      swap1\n      tag_68\n      jump\t// in\n    tag_67:\n      mload(0x40)\n      dup1\n      swap2\n      sub\n      swap1\n      return\n        /* \"contracts/Constant1.sol\":3874:4042  function getDeviceInfoCons(... */\n    tag_7:\n      tag_69\n      0x04\n      dup1\n      calldatasize\n      sub\n      dup2\n      add\n      swap1\n      tag_70\n      swap2\n      swap1\n      tag_62\n      jump\t// in\n    tag_70:\n      tag_71\n      jump\t// in\n    tag_69:\n      mload(0x40)\n      tag_72\n      swap2\n      swap1\n      tag_68\n      jump\t// in\n    tag_72:\n      mload(0x40)\n      dup1\n      swap2\n      sub\n      swap1\n      return\n        /* \"contracts/Constant1.sol\":499:596  function isAdmin(address _addr) public view returns (bool) {... */\n    tag_8:\n      tag_73\n      0x04\n      dup1\n      calldatasize\n      sub\n      dup2\n      add\n      swap1\n      tag_74\n      swap2\n      swap1\n      tag_75\n      jump\t// in\n    tag_74:\n      tag_76\n      jump\t// in\n    tag_73:\n      mload(0x40)\n      tag_77\n      swap2\n      swap1\n      tag_78\n      jump\t// in\n    tag_77:\n      mload(0x40)\n      dup1\n      swap2\n      sub\n      swap1\n      return\n        /* \"contracts/Constant1.sol\":5012:5119  function getDeviceInfoKeys() external view returns (string[] memory) {... */\n    tag_9:\n      tag_79\n      tag_80\n      jump\t// in\n    tag_79:\n      mload(0x40)\n      tag_81\n      swap2\n      swap1\n      tag_82\n      jump\t// in\n    tag_81:\n      mload(0x40)\n      dup1\n      swap2\n      sub\n      swap1\n      return\n        /* \"contracts/Constant1.sol\":5559:5647  function getRendering() external pure returns (uint16) {... */\n    tag_10:\n      tag_83\n      tag_84\n      jump\t// in\n    tag_83:\n      mload(0x40)\n      tag_85\n      swap2\n      swap1\n      tag_68\n      jump\t// in\n    tag_85:\n      mload(0x40)\n      dup1\n      swap2\n      sub\n      swap1\n      return\n        /* \"contracts/Constant1.sol\":5743:5850  function getTotalTokenIssuance() external pure returns (uint256) {... */\n    tag_11:\n      tag_86\n      tag_87\n      jump\t// in\n    tag_86:\n      mload(0x40)\n      tag_88\n      swap2\n      swap1\n      tag_56\n      jump\t// in\n    tag_88:\n      mload(0x40)\n      dup1\n      swap2\n      sub\n      swap1\n      return\n        /* \"contracts/Constant1.sol\":4742:4852  function getDevicePowerConsCount() external view returns (uint16) {... */\n    tag_12:\n      tag_89\n      tag_90\n      jump\t// in\n    tag_89:\n      mload(0x40)\n      tag_91\n      swap2\n      swap1\n      tag_68\n      jump\t// in\n    tag_91:\n      mload(0x40)\n      dup1\n      swap2\n      sub\n      swap1\n      return\n        /* \"contracts/Constant1.sol\":4417:4630  function setStakeAmount(uint256 value) external returns (bool) {... */\n    tag_13:\n      tag_92\n      0x04\n      dup1\n      calldatasize\n      sub\n      dup2\n      add\n      swap1\n      tag_93\n      swap2\n      swap1\n      tag_94\n      jump\t// in\n    tag_93:\n      tag_95\n      jump\t// in\n    tag_92:\n      mload(0x40)\n      tag_96\n      swap2\n      swap1\n      tag_78\n      jump\t// in\n    tag_96:\n      mload(0x40)\n      dup1\n      swap2\n      sub\n      swap1\n      return\n        /* \"contracts/Constant1.sol\":5357:5465  function getMinStakeAmount() external pure returns (uint256) {... */\n    tag_14:\n      tag_97\n      tag_98\n      jump\t// in\n    tag_97:\n      mload(0x40)\n      tag_99\n      swap2\n      swap1\n      tag_56\n      jump\t// in\n    tag_99:\n      mload(0x40)\n      dup1\n      swap2\n      sub\n      swap1\n      return\n        /* \"contracts/Constant1.sol\":1017:1172  function onlyCaller(... */\n    tag_15:\n      tag_100\n      0x04\n      dup1\n      calldatasize\n      sub\n      dup2\n      add\n      swap1\n      tag_101\n      swap2\n      swap1\n      tag_102\n      jump\t// in\n    tag_101:\n      tag_103\n      jump\t// in\n    tag_100:\n      mload(0x40)\n      tag_104\n      swap2\n      swap1\n      tag_78\n      jump\t// in\n    tag_104:\n      mload(0x40)\n      dup1\n      swap2\n      sub\n      swap1\n      return\n        /* \"contracts/Constant1.sol\":5653:5737  function getOffline() external pure returns (uint16) {... */\n    tag_16:\n      tag_105\n      tag_106\n      jump\t// in\n    tag_105:\n      mload(0x40)\n      tag_107\n      swap2\n      swap1\n      tag_68\n      jump\t// in\n    tag_107:\n      mload(0x40)\n      dup1\n      swap2\n      sub\n      swap1\n      return\n        /* \"contracts/Constant1.sol\":1377:1410  uint16 public constant online = 1 */\n    tag_17:\n      tag_108\n      tag_109\n      jump\t// in\n    tag_108:\n      mload(0x40)\n      tag_110\n      swap2\n      swap1\n      tag_68\n      jump\t// in\n    tag_110:\n      mload(0x40)\n      dup1\n      swap2\n      sub\n      swap1\n      return\n        /* \"contracts/Constant1.sol\":1865:1912  uint256 public stakeAmountLimit = 10 * 10 ** 18 */\n    tag_18:\n      tag_111\n      tag_112\n      jump\t// in\n    tag_111:\n      mload(0x40)\n      tag_113\n      swap2\n      swap1\n      tag_56\n      jump\t// in\n    tag_113:\n      mload(0x40)\n      dup1\n      swap2\n      sub\n      swap1\n      return\n        /* \"contracts/Constant1.sol\":402:493  function delAdmin(address _admin) public onlyOwner {... */\n    tag_19:\n      tag_114\n      0x04\n      dup1\n      calldatasize\n      sub\n      dup2\n      add\n      swap1\n      tag_115\n      swap2\n      swap1\n      tag_75\n      jump\t// in\n    tag_115:\n      tag_116\n      jump\t// in\n    tag_114:\n      stop\n        /* \"contracts/Constant1.sol\":5471:5553  function getOnline() external pure returns (uint16) {... */\n    tag_20:\n      tag_117\n      tag_118\n      jump\t// in\n    tag_117:\n      mload(0x40)\n      tag_119\n      swap2\n      swap1\n      tag_68\n      jump\t// in\n    tag_119:\n      mload(0x40)\n      dup1\n      swap2\n      sub\n      swap1\n      return\n        /* \"contracts/Constant1.sol\":1736:1771  string[] public devicePowerInfoKeys */\n    tag_21:\n      tag_120\n      0x04\n      dup1\n      calldatasize\n      sub\n      dup2\n      add\n      swap1\n      tag_121\n      swap2\n      swap1\n      tag_94\n      jump\t// in\n    tag_121:\n      tag_122\n      jump\t// in\n    tag_120:\n      mload(0x40)\n      tag_123\n      swap2\n      swap1\n      tag_124\n      jump\t// in\n    tag_123:\n      mload(0x40)\n      dup1\n      swap2\n      sub\n      swap1\n      return\n        /* \"contracts/Constant1.sol\":2067:2105  uint16 public devicePowerConsCount = 0 */\n    tag_22:\n      tag_125\n      tag_126\n      jump\t// in\n    tag_125:\n      mload(0x40)\n      tag_127\n      swap2\n      swap1\n      tag_68\n      jump\t// in\n    tag_127:\n      mload(0x40)\n      dup1\n      swap2\n      sub\n      swap1\n      return\n        /* \"contracts/Constant1.sol\":306:396  function addAdmin(address _admin) public onlyOwner {... */\n    tag_23:\n      tag_128\n      0x04\n      dup1\n      calldatasize\n      sub\n      dup2\n      add\n      swap1\n      tag_129\n      swap2\n      swap1\n      tag_75\n      jump\t// in\n    tag_129:\n      tag_130\n      jump\t// in\n    tag_128:\n      stop\n        /* \"@openzeppelin/contracts/access/Ownable.sol\":1831:1932  function renounceOwnership() public virtual onlyOwner {... */\n    tag_24:\n      tag_131\n      tag_132\n      jump\t// in\n    tag_131:\n      stop\n        /* \"contracts/Constant1.sol\":1536:1566  string[] public deviceInfoKeys */\n    tag_25:\n      tag_133\n      0x04\n      dup1\n      calldatasize\n      sub\n      dup2\n      add\n      swap1\n      tag_134\n      swap2\n      swap1\n      tag_94\n      jump\t// in\n    tag_134:\n      tag_135\n      jump\t// in\n    tag_133:\n      mload(0x40)\n      tag_136\n      swap2\n      swap1\n      tag_124\n      jump\t// in\n    tag_136:\n      mload(0x40)\n      dup1\n      swap2\n      sub\n      swap1\n      return\n        /* \"contracts/Constant1.sol\":1572:1623  mapping(string => uint16) public devicePartInfoCons */\n    tag_26:\n      tag_137\n      0x04\n      dup1\n      calldatasize\n      sub\n      dup2\n      add\n      swap1\n      tag_138\n      swap2\n      swap1\n      tag_62\n      jump\t// in\n    tag_138:\n      tag_139\n      jump\t// in\n    tag_137:\n      mload(0x40)\n      tag_140\n      swap2\n      swap1\n      tag_68\n      jump\t// in\n    tag_140:\n      mload(0x40)\n      dup1\n      swap2\n      sub\n      swap1\n      return\n        /* \"contracts/Constant1.sol\":2215:2246  uint256 public HddWeight = 1000 */\n    tag_27:\n      tag_141\n      tag_142\n      jump\t// in\n    tag_141:\n      mload(0x40)\n      tag_143\n      swap2\n      swap1\n      tag_56\n      jump\t// in\n    tag_143:\n      mload(0x40)\n      dup1\n      swap2\n      sub\n      swap1\n      return\n        /* \"contracts/Constant1.sol\":2027:2060  uint16 public deviceConsCount = 0 */\n    tag_28:\n      tag_144\n      tag_145\n      jump\t// in\n    tag_144:\n      mload(0x40)\n      tag_146\n      swap2\n      swap1\n      tag_68\n      jump\t// in\n    tag_146:\n      mload(0x40)\n      dup1\n      swap2\n      sub\n      swap1\n      return\n        /* \"@openzeppelin/contracts/access/Ownable.sol\":1201:1286  function owner() public view virtual returns (address) {... */\n    tag_29:\n      tag_147\n      tag_148\n      jump\t// in\n    tag_147:\n      mload(0x40)\n      tag_149\n      swap2\n      swap1\n      tag_150\n      jump\t// in\n    tag_149:\n      mload(0x40)\n      dup1\n      swap2\n      sub\n      swap1\n      return\n        /* \"contracts/Constant1.sol\":4858:5006  function getDevicePowerInfoCons(... */\n    tag_30:\n      tag_151\n      0x04\n      dup1\n      calldatasize\n      sub\n      dup2\n      add\n      swap1\n      tag_152\n      swap2\n      swap1\n      tag_62\n      jump\t// in\n    tag_152:\n      tag_153\n      jump\t// in\n    tag_151:\n      mload(0x40)\n      tag_154\n      swap2\n      swap1\n      tag_68\n      jump\t// in\n    tag_154:\n      mload(0x40)\n      dup1\n      swap2\n      sub\n      swap1\n      return\n        /* \"contracts/Constant1.sol\":5248:5351  function getStakeAmountLimit() external view returns (uint256) {... */\n    tag_31:\n      tag_155\n      tag_156\n      jump\t// in\n    tag_155:\n      mload(0x40)\n      tag_157\n      swap2\n      swap1\n      tag_56\n      jump\t// in\n    tag_157:\n      mload(0x40)\n      dup1\n      swap2\n      sub\n      swap1\n      return\n        /* \"contracts/Constant1.sol\":902:1011  function getCaller(string memory key) external view returns (address) {... */\n    tag_32:\n      tag_158\n      0x04\n      dup1\n      calldatasize\n      sub\n      dup2\n      add\n      swap1\n      tag_159\n      swap2\n      swap1\n      tag_62\n      jump\t// in\n    tag_159:\n      tag_160\n      jump\t// in\n    tag_158:\n      mload(0x40)\n      tag_161\n      swap2\n      swap1\n      tag_150\n      jump\t// in\n    tag_161:\n      mload(0x40)\n      dup1\n      swap2\n      sub\n      swap1\n      return\n        /* \"contracts/Constant1.sol\":2168:2208  uint256 public GpuCpuMemNetWeight = 9000 */\n    tag_33:\n      tag_162\n      tag_163\n      jump\t// in\n    tag_162:\n      mload(0x40)\n      tag_164\n      swap2\n      swap1\n      tag_56\n      jump\t// in\n    tag_164:\n      mload(0x40)\n      dup1\n      swap2\n      sub\n      swap1\n      return\n        /* \"contracts/Constant1.sol\":1458:1492  uint16 public constant offline = 3 */\n    tag_34:\n      tag_165\n      tag_166\n      jump\t// in\n    tag_165:\n      mload(0x40)\n      tag_167\n      swap2\n      swap1\n      tag_68\n      jump\t// in\n    tag_167:\n      mload(0x40)\n      dup1\n      swap2\n      sub\n      swap1\n      return\n        /* \"contracts/Constant1.sol\":5125:5242  function getDevicePowerInfoKeys() external view returns (string[] memory) {... */\n    tag_35:\n      tag_168\n      tag_169\n      jump\t// in\n    tag_168:\n      mload(0x40)\n      tag_170\n      swap2\n      swap1\n      tag_82\n      jump\t// in\n    tag_170:\n      mload(0x40)\n      dup1\n      swap2\n      sub\n      swap1\n      return\n        /* \"contracts/Constant1.sol\":679:896  function addCaller(... */\n    tag_36:\n      tag_171\n      0x04\n      dup1\n      calldatasize\n      sub\n      dup2\n      add\n      swap1\n      tag_172\n      swap2\n      swap1\n      tag_173\n      jump\t// in\n    tag_172:\n      tag_174\n      jump\t// in\n    tag_171:\n      stop\n        /* \"contracts/Constant1.sol\":2808:3506  function delDeviceInfoCons(string memory consName) external {... */\n    tag_37:\n      tag_175\n      0x04\n      dup1\n      calldatasize\n      sub\n      dup2\n      add\n      swap1\n      tag_176\n      swap2\n      swap1\n      tag_62\n      jump\t// in\n    tag_176:\n      tag_177\n      jump\t// in\n    tag_175:\n      stop\n        /* \"contracts/Constant1.sol\":2112:2161  uint256 public reportVmDataDiffTimestamp = 604800 */\n    tag_38:\n      tag_178\n      tag_179\n      jump\t// in\n    tag_178:\n      mload(0x40)\n      tag_180\n      swap2\n      swap1\n      tag_56\n      jump\t// in\n    tag_180:\n      mload(0x40)\n      dup1\n      swap2\n      sub\n      swap1\n      return\n        /* \"contracts/Constant1.sol\":2366:2455  function getHddWeight() external view returns (uint256) {... */\n    tag_39:\n      tag_181\n      tag_182\n      jump\t// in\n    tag_181:\n      mload(0x40)\n      tag_183\n      swap2\n      swap1\n      tag_56\n      jump\t// in\n    tag_183:\n      mload(0x40)\n      dup1\n      swap2\n      sub\n      swap1\n      return\n        /* \"contracts/Constant1.sol\":1958:2020  uint256 public constant remainingMinStakeAmount = 1 * 10 ** 18 */\n    tag_40:\n      tag_184\n      tag_185\n      jump\t// in\n    tag_184:\n      mload(0x40)\n      tag_186\n      swap2\n      swap1\n      tag_56\n      jump\t// in\n    tag_186:\n      mload(0x40)\n      dup1\n      swap2\n      sub\n      swap1\n      return\n        /* \"contracts/Constant1.sol\":1262:1330  uint256 public constant totalTokenIssuance = 100000000000 * 10 ** 18 */\n    tag_41:\n      tag_187\n      tag_188\n      jump\t// in\n    tag_187:\n      mload(0x40)\n      tag_189\n      swap2\n      swap1\n      tag_56\n      jump\t// in\n    tag_189:\n      mload(0x40)\n      dup1\n      swap2\n      sub\n      swap1\n      return\n        /* \"contracts/Constant1.sol\":2461:2802  function addDeviceInfoCons(string memory typeParam) external {... */\n    tag_42:\n      tag_190\n      0x04\n      dup1\n      calldatasize\n      sub\n      dup2\n      add\n      swap1\n      tag_191\n      swap2\n      swap1\n      tag_62\n      jump\t// in\n    tag_191:\n      tag_192\n      jump\t// in\n    tag_190:\n      stop\n        /* \"contracts/Constant1.sol\":4636:4736  function getDeviceConsCount() external view returns (uint16) {... */\n    tag_43:\n      tag_193\n      tag_194\n      jump\t// in\n    tag_193:\n      mload(0x40)\n      tag_195\n      swap2\n      swap1\n      tag_68\n      jump\t// in\n    tag_195:\n      mload(0x40)\n      dup1\n      swap2\n      sub\n      swap1\n      return\n        /* \"@openzeppelin/contracts/access/Ownable.sol\":2081:2279  function transferOwnership(address newOwner) public virtual onlyOwner {... */\n    tag_44:\n      tag_196\n      0x04\n      dup1\n      calldatasize\n      sub\n      dup2\n      add\n      swap1\n      tag_197\n      swap2\n      swap1\n      tag_75\n      jump\t// in\n    tag_197:\n      tag_198\n      jump\t// in\n    tag_196:\n      stop\n        /* \"contracts/Constant1.sol\":1416:1452  uint16 public constant rendering = 2 */\n    tag_45:\n      tag_199\n      tag_200\n      jump\t// in\n    tag_199:\n      mload(0x40)\n      tag_201\n      swap2\n      swap1\n      tag_68\n      jump\t// in\n    tag_201:\n      mload(0x40)\n      dup1\n      swap2\n      sub\n      swap1\n      return\n        /* \"contracts/Constant1.sol\":5856:5977  function getReportVmDataDiffTimestamp() external view returns (uint256) {... */\n    tag_54:\n        /* \"contracts/Constant1.sol\":5919:5926  uint256 */\n      0x00\n        /* \"contracts/Constant1.sol\":5945:5970  reportVmDataDiffTimestamp */\n      sload(0x09)\n        /* \"contracts/Constant1.sol\":5938:5970  return reportVmDataDiffTimestamp */\n      swap1\n      pop\n        /* \"contracts/Constant1.sol\":5856:5977  function getReportVmDataDiffTimestamp() external view returns (uint256) {... */\n      swap1\n      jump\t// out\n        /* \"contracts/Constant1.sol\":2253:2360  function getGpuCpuMemNetWeight() external view returns (uint256) {... */\n    tag_58:\n        /* \"contracts/Constant1.sol\":2309:2316  uint256 */\n      0x00\n        /* \"contracts/Constant1.sol\":2335:2353  GpuCpuMemNetWeight */\n      sload(0x0a)\n        /* \"contracts/Constant1.sol\":2328:2353  return GpuCpuMemNetWeight */\n      swap1\n      pop\n        /* \"contracts/Constant1.sol\":2253:2360  function getGpuCpuMemNetWeight() external view returns (uint256) {... */\n      swap1\n      jump\t// out\n        /* \"contracts/Constant1.sol\":4048:4411  function addDevicePowerInfoCons(string memory powerPart) external {... */\n    tag_63:\n        /* \"contracts/Constant1.sol\":4132:4136  this */\n      address\n        /* \"contracts/Constant1.sol\":4132:4147  this.onlyCaller */\n      0xffffffffffffffffffffffffffffffffffffffff\n      and\n      0x5437733f\n        /* \"contracts/Constant1.sol\":4158:4168  msg.sender */\n      caller\n        /* \"contracts/Constant1.sol\":4132:4169  this.onlyCaller(\"Vertex\", msg.sender) */\n      mload(0x40)\n      dup3\n      0xffffffff\n      and\n      0xe0\n      shl\n      dup2\n      mstore\n      0x04\n      add\n      tag_205\n      swap2\n      swap1\n      tag_206\n      jump\t// in\n    tag_205:\n      0x20\n      mload(0x40)\n      dup1\n      dup4\n      sub\n      dup2\n      dup7\n      gas\n      staticcall\n      iszero\n      dup1\n      iszero\n      tag_208\n      jumpi\n      returndatasize\n      0x00\n      dup1\n      returndatacopy\n      revert(0x00, returndatasize)\n    tag_208:\n      pop\n      pop\n      pop\n      pop\n      mload(0x40)\n      returndatasize\n      not(0x1f)\n      0x1f\n      dup3\n      add\n      and\n      dup3\n      add\n      dup1\n      0x40\n      mstore\n      pop\n      dup2\n      add\n      swap1\n      tag_209\n      swap2\n      swap1\n      tag_210\n      jump\t// in\n    tag_209:\n        /* \"contracts/Constant1.sol\":4124:4191  require(this.onlyCaller(\"Vertex\", msg.sender), \"verify auth error\") */\n      tag_211\n      jumpi\n      mload(0x40)\n      0x08c379a000000000000000000000000000000000000000000000000000000000\n      dup2\n      mstore\n      0x04\n      add\n      tag_212\n      swap1\n      tag_213\n      jump\t// in\n    tag_212:\n      mload(0x40)\n      dup1\n      swap2\n      sub\n      swap1\n      revert\n    tag_211:\n        /* \"contracts/Constant1.sol\":4239:4240  0 */\n      0x00\n        /* \"contracts/Constant1.sol\":4205:4224  devicePowerInfoCons */\n      0x06\n        /* \"contracts/Constant1.sol\":4225:4234  powerPart */\n      dup3\n        /* \"contracts/Constant1.sol\":4205:4235  devicePowerInfoCons[powerPart] */\n      mload(0x40)\n      tag_214\n      swap2\n      swap1\n      tag_215\n      jump\t// in\n    tag_214:\n      swap1\n      dup2\n      mstore\n      0x20\n      add\n      mload(0x40)\n      dup1\n      swap2\n      sub\n      swap1\n      keccak256\n      0x00\n      swap1\n      sload\n      swap1\n      0x0100\n      exp\n      swap1\n      div\n      0xffff\n      and\n        /* \"contracts/Constant1.sol\":4205:4240  devicePowerInfoCons[powerPart] == 0 */\n      0xffff\n      and\n      sub\n        /* \"contracts/Constant1.sol\":4201:4405  if (devicePowerInfoCons[powerPart] == 0) {... */\n      tag_216\n      jumpi\n        /* \"contracts/Constant1.sol\":4256:4275  devicePowerInfoKeys */\n      0x05\n        /* \"contracts/Constant1.sol\":4281:4290  powerPart */\n      dup2\n        /* \"contracts/Constant1.sol\":4256:4291  devicePowerInfoKeys.push(powerPart) */\n      swap1\n      dup1\n      0x01\n      dup2\n      sload\n      add\n      dup1\n      dup3\n      sstore\n      dup1\n      swap2\n      pop\n      pop\n      0x01\n      swap1\n      sub\n      swap1\n      0x00\n      mstore\n      keccak256(0x00, 0x20)\n      add\n      0x00\n      swap1\n      swap2\n      swap1\n      swap2\n      swap1\n      swap2\n      pop\n      swap1\n      dup2\n      tag_218\n      swap2\n      swap1\n      tag_219\n      jump\t// in\n    tag_218:\n      pop\n        /* \"contracts/Constant1.sol\":4305:4325  devicePowerConsCount */\n      0x08\n      0x02\n        /* \"contracts/Constant1.sol\":4305:4327  devicePowerConsCount++ */\n      dup2\n      dup2\n      swap1\n      sload\n      swap1\n      0x0100\n      exp\n      swap1\n      div\n      0xffff\n      and\n      dup1\n      swap3\n      swap2\n      swap1\n      tag_220\n      swap1\n      tag_221\n      jump\t// in\n    tag_220:\n      swap2\n      swap1\n      0x0100\n      exp\n      dup2\n      sload\n      dup2\n      0xffff\n      mul\n      not\n      and\n      swap1\n      dup4\n      0xffff\n      and\n      mul\n      or\n      swap1\n      sstore\n      pop\n      pop\n        /* \"contracts/Constant1.sol\":4374:4394  devicePowerConsCount */\n      0x08\n      0x02\n      swap1\n      sload\n      swap1\n      0x0100\n      exp\n      swap1\n      div\n      0xffff\n      and\n        /* \"contracts/Constant1.sol\":4341:4360  devicePowerInfoCons */\n      0x06\n        /* \"contracts/Constant1.sol\":4361:4370  powerPart */\n      dup3\n        /* \"contracts/Constant1.sol\":4341:4371  devicePowerInfoCons[powerPart] */\n      mload(0x40)\n      tag_222\n      swap2\n      swap1\n      tag_215\n      jump\t// in\n    tag_222:\n      swap1\n      dup2\n      mstore\n      0x20\n      add\n      mload(0x40)\n      dup1\n      swap2\n      sub\n      swap1\n      keccak256\n      0x00\n        /* \"contracts/Constant1.sol\":4341:4394  devicePowerInfoCons[powerPart] = devicePowerConsCount */\n      0x0100\n      exp\n      dup2\n      sload\n      dup2\n      0xffff\n      mul\n      not\n      and\n      swap1\n      dup4\n      0xffff\n      and\n      mul\n      or\n      swap1\n      sstore\n      pop\n        /* \"contracts/Constant1.sol\":4201:4405  if (devicePowerInfoCons[powerPart] == 0) {... */\n    tag_216:\n        /* \"contracts/Constant1.sol\":4048:4411  function addDevicePowerInfoCons(string memory powerPart) external {... */\n      pop\n      jump\t// out\n        /* \"contracts/Constant1.sol\":1777:1829  mapping(string => uint16) public devicePowerInfoCons */\n    tag_66:\n      0x06\n      dup2\n      dup1\n      mload\n      0x20\n      dup2\n      add\n      dup3\n      add\n      dup1\n      mload\n      dup5\n      dup3\n      mstore\n      0x20\n      dup4\n      add\n      0x20\n      dup6\n      add\n      keccak256\n      dup2\n      dup4\n      mstore\n      dup1\n      swap6\n      pop\n      pop\n      pop\n      pop\n      pop\n      pop\n      0x00\n      swap2\n      pop\n      sload\n      swap1\n      0x0100\n      exp\n      swap1\n      div\n      0xffff\n      and\n      dup2\n      jump\t// out\n        /* \"contracts/Constant1.sol\":3874:4042  function getDeviceInfoCons(... */\n    tag_71:\n        /* \"contracts/Constant1.sol\":3972:3978  uint16 */\n      0x00\n        /* \"contracts/Constant1.sol\":3997:4015  devicePartInfoCons */\n      0x04\n        /* \"contracts/Constant1.sol\":4016:4034  deviceInfoTypeCons */\n      dup3\n        /* \"contracts/Constant1.sol\":3997:4035  devicePartInfoCons[deviceInfoTypeCons] */\n      mload(0x40)\n      tag_224\n      swap2\n      swap1\n      tag_215\n      jump\t// in\n    tag_224:\n      swap1\n      dup2\n      mstore\n      0x20\n      add\n      mload(0x40)\n      dup1\n      swap2\n      sub\n      swap1\n      keccak256\n      0x00\n      swap1\n      sload\n      swap1\n      0x0100\n      exp\n      swap1\n      div\n      0xffff\n      and\n        /* \"contracts/Constant1.sol\":3990:4035  return devicePartInfoCons[deviceInfoTypeCons] */\n      swap1\n      pop\n        /* \"contracts/Constant1.sol\":3874:4042  function getDeviceInfoCons(... */\n      swap2\n      swap1\n      pop\n      jump\t// out\n        /* \"contracts/Constant1.sol\":499:596  function isAdmin(address _addr) public view returns (bool) {... */\n    tag_76:\n        /* \"contracts/Constant1.sol\":552:556  bool */\n      0x00\n        /* \"contracts/Constant1.sol\":575:582  _admins */\n      0x01\n        /* \"contracts/Constant1.sol\":575:589  _admins[_addr] */\n      0x00\n        /* \"contracts/Constant1.sol\":583:588  _addr */\n      dup4\n        /* \"contracts/Constant1.sol\":575:589  _admins[_addr] */\n      0xffffffffffffffffffffffffffffffffffffffff\n      and\n      0xffffffffffffffffffffffffffffffffffffffff\n      and\n      dup2\n      mstore\n      0x20\n      add\n      swap1\n      dup2\n      mstore\n      0x20\n      add\n      0x00\n      keccak256\n      0x00\n      swap1\n      sload\n      swap1\n      0x0100\n      exp\n      swap1\n      div\n      0xff\n      and\n        /* \"contracts/Constant1.sol\":568:589  return _admins[_addr] */\n      swap1\n      pop\n        /* \"contracts/Constant1.sol\":499:596  function isAdmin(address _addr) public view returns (bool) {... */\n      swap2\n      swap1\n      pop\n      jump\t// out\n        /* \"contracts/Constant1.sol\":5012:5119  function getDeviceInfoKeys() external view returns (string[] memory) {... */\n    tag_80:\n        /* \"contracts/Constant1.sol\":5064:5079  string[] memory */\n      0x60\n        /* \"contracts/Constant1.sol\":5098:5112  deviceInfoKeys */\n      0x03\n        /* \"contracts/Constant1.sol\":5091:5112  return deviceInfoKeys */\n      dup1\n      sload\n      dup1\n      0x20\n      mul\n      0x20\n      add\n      mload(0x40)\n      swap1\n      dup2\n      add\n      0x40\n      mstore\n      dup1\n      swap3\n      swap2\n      swap1\n      dup2\n      dup2\n      mstore\n      0x20\n      add\n      0x00\n      swap1\n    tag_227:\n      dup3\n      dup3\n      lt\n      iszero\n      tag_228\n      jumpi\n      dup4\n      dup3\n      swap1\n      0x00\n      mstore\n      keccak256(0x00, 0x20)\n      add\n      dup1\n      sload\n      tag_230\n      swap1\n      tag_231\n      jump\t// in\n    tag_230:\n      dup1\n      0x1f\n      add\n      0x20\n      dup1\n      swap2\n      div\n      mul\n      0x20\n      add\n      mload(0x40)\n      swap1\n      dup2\n      add\n      0x40\n      mstore\n      dup1\n      swap3\n      swap2\n      swap1\n      dup2\n      dup2\n      mstore\n      0x20\n      add\n      dup3\n      dup1\n      sload\n      tag_232\n      swap1\n      tag_231\n      jump\t// in\n    tag_232:\n      dup1\n      iszero\n      tag_233\n      jumpi\n      dup1\n      0x1f\n      lt\n      tag_234\n      jumpi\n      0x0100\n      dup1\n      dup4\n      sload\n      div\n      mul\n      dup4\n      mstore\n      swap2\n      0x20\n      add\n      swap2\n      jump(tag_233)\n    tag_234:\n      dup3\n      add\n      swap2\n      swap1\n      0x00\n      mstore\n      keccak256(0x00, 0x20)\n      swap1\n    tag_235:\n      dup2\n      sload\n      dup2\n      mstore\n      swap1\n      0x01\n      add\n      swap1\n      0x20\n      add\n      dup1\n      dup4\n      gt\n      tag_235\n      jumpi\n      dup3\n      swap1\n      sub\n      0x1f\n      and\n      dup3\n      add\n      swap2\n    tag_233:\n      pop\n      pop\n      pop\n      pop\n      pop\n      dup2\n      mstore\n      0x20\n      add\n      swap1\n      0x01\n      add\n      swap1\n      jump(tag_227)\n    tag_228:\n      pop\n      pop\n      pop\n      pop\n      swap1\n      pop\n        /* \"contracts/Constant1.sol\":5012:5119  function getDeviceInfoKeys() external view returns (string[] memory) {... */\n      swap1\n      jump\t// out\n        /* \"contracts/Constant1.sol\":5559:5647  function getRendering() external pure returns (uint16) {... */\n    tag_84:\n        /* \"contracts/Constant1.sol\":5606:5612  uint16 */\n      0x00\n        /* \"contracts/Constant1.sol\":1451:1452  2 */\n      0x02\n        /* \"contracts/Constant1.sol\":5624:5640  return rendering */\n      swap1\n      pop\n        /* \"contracts/Constant1.sol\":5559:5647  function getRendering() external pure returns (uint16) {... */\n      swap1\n      jump\t// out\n        /* \"contracts/Constant1.sol\":5743:5850  function getTotalTokenIssuance() external pure returns (uint256) {... */\n    tag_87:\n        /* \"contracts/Constant1.sol\":5799:5806  uint256 */\n      0x00\n        /* \"contracts/Constant1.sol\":1307:1330  100000000000 * 10 ** 18 */\n      0x01431e0fae6d7217caa0000000\n        /* \"contracts/Constant1.sol\":5818:5843  return totalTokenIssuance */\n      swap1\n      pop\n        /* \"contracts/Constant1.sol\":5743:5850  function getTotalTokenIssuance() external pure returns (uint256) {... */\n      swap1\n      jump\t// out\n        /* \"contracts/Constant1.sol\":4742:4852  function getDevicePowerConsCount() external view returns (uint16) {... */\n    tag_90:\n        /* \"contracts/Constant1.sol\":4800:4806  uint16 */\n      0x00\n        /* \"contracts/Constant1.sol\":4825:4845  devicePowerConsCount */\n      0x08\n      0x02\n      swap1\n      sload\n      swap1\n      0x0100\n      exp\n      swap1\n      div\n      0xffff\n      and\n        /* \"contracts/Constant1.sol\":4818:4845  return devicePowerConsCount */\n      swap1\n      pop\n        /* \"contracts/Constant1.sol\":4742:4852  function getDevicePowerConsCount() external view returns (uint16) {... */\n      swap1\n      jump\t// out\n        /* \"contracts/Constant1.sol\":4417:4630  function setStakeAmount(uint256 value) external returns (bool) {... */\n    tag_95:\n        /* \"contracts/Constant1.sol\":4474:4478  bool */\n      0x00\n        /* \"contracts/Constant1.sol\":4498:4502  this */\n      address\n        /* \"contracts/Constant1.sol\":4498:4513  this.onlyCaller */\n      0xffffffffffffffffffffffffffffffffffffffff\n      and\n      0x5437733f\n        /* \"contracts/Constant1.sol\":4524:4534  msg.sender */\n      caller\n        /* \"contracts/Constant1.sol\":4498:4535  this.onlyCaller(\"Vertex\", msg.sender) */\n      mload(0x40)\n      dup3\n      0xffffffff\n      and\n      0xe0\n      shl\n      dup2\n      mstore\n      0x04\n      add\n      tag_240\n      swap2\n      swap1\n      tag_206\n      jump\t// in\n    tag_240:\n      0x20\n      mload(0x40)\n      dup1\n      dup4\n      sub\n      dup2\n      dup7\n      gas\n      staticcall\n      iszero\n      dup1\n      iszero\n      tag_242\n      jumpi\n      returndatasize\n      0x00\n      dup1\n      returndatacopy\n      revert(0x00, returndatasize)\n    tag_242:\n      pop\n      pop\n      pop\n      pop\n      mload(0x40)\n      returndatasize\n      not(0x1f)\n      0x1f\n      dup3\n      add\n      and\n      dup3\n      add\n      dup1\n      0x40\n      mstore\n      pop\n      dup2\n      add\n      swap1\n      tag_243\n      swap2\n      swap1\n      tag_210\n      jump\t// in\n    tag_243:\n        /* \"contracts/Constant1.sol\":4490:4557  require(this.onlyCaller(\"Vertex\", msg.sender), \"verify auth error\") */\n      tag_244\n      jumpi\n      mload(0x40)\n      0x08c379a000000000000000000000000000000000000000000000000000000000\n      dup2\n      mstore\n      0x04\n      add\n      tag_245\n      swap1\n      tag_213\n      jump\t// in\n    tag_245:\n      mload(0x40)\n      dup1\n      swap2\n      sub\n      swap1\n      revert\n    tag_244:\n        /* \"contracts/Constant1.sol\":4594:4602  10 ** 18 */\n      0x0de0b6b3a7640000\n        /* \"contracts/Constant1.sol\":4586:4591  value */\n      dup3\n        /* \"contracts/Constant1.sol\":4586:4602  value * 10 ** 18 */\n      tag_246\n      swap2\n      swap1\n      tag_247\n      jump\t// in\n    tag_246:\n        /* \"contracts/Constant1.sol\":4567:4583  stakeAmountLimit */\n      0x07\n        /* \"contracts/Constant1.sol\":4567:4602  stakeAmountLimit = value * 10 ** 18 */\n      dup2\n      swap1\n      sstore\n      pop\n        /* \"contracts/Constant1.sol\":4619:4623  true */\n      0x01\n        /* \"contracts/Constant1.sol\":4612:4623  return true */\n      swap1\n      pop\n        /* \"contracts/Constant1.sol\":4417:4630  function setStakeAmount(uint256 value) external returns (bool) {... */\n      swap2\n      swap1\n      pop\n      jump\t// out\n        /* \"contracts/Constant1.sol\":5357:5465  function getMinStakeAmount() external pure returns (uint256) {... */\n    tag_98:\n        /* \"contracts/Constant1.sol\":5409:5416  uint256 */\n      0x00\n        /* \"contracts/Constant1.sol\":2008:2020  1 * 10 ** 18 */\n      0x0de0b6b3a7640000\n        /* \"contracts/Constant1.sol\":5428:5458  return remainingMinStakeAmount */\n      swap1\n      pop\n        /* \"contracts/Constant1.sol\":5357:5465  function getMinStakeAmount() external pure returns (uint256) {... */\n      swap1\n      jump\t// out\n        /* \"contracts/Constant1.sol\":1017:1172  function onlyCaller(... */\n    tag_103:\n        /* \"contracts/Constant1.sol\":1117:1121  bool */\n      0x00\n        /* \"contracts/Constant1.sol\":1150:1160  authVerify */\n      0x02\n        /* \"contracts/Constant1.sol\":1161:1164  key */\n      dup4\n        /* \"contracts/Constant1.sol\":1150:1165  authVerify[key] */\n      mload(0x40)\n      tag_250\n      swap2\n      swap1\n      tag_215\n      jump\t// in\n    tag_250:\n      swap1\n      dup2\n      mstore\n      0x20\n      add\n      mload(0x40)\n      dup1\n      swap2\n      sub\n      swap1\n      keccak256\n      0x00\n      swap1\n      sload\n      swap1\n      0x0100\n      exp\n      swap1\n      div\n      0xffffffffffffffffffffffffffffffffffffffff\n      and\n        /* \"contracts/Constant1.sol\":1140:1165  caller == authVerify[key] */\n      0xffffffffffffffffffffffffffffffffffffffff\n      and\n        /* \"contracts/Constant1.sol\":1140:1146  caller */\n      dup3\n        /* \"contracts/Constant1.sol\":1140:1165  caller == authVerify[key] */\n      0xffffffffffffffffffffffffffffffffffffffff\n      and\n      eq\n        /* \"contracts/Constant1.sol\":1133:1165  return caller == authVerify[key] */\n      swap1\n      pop\n        /* \"contracts/Constant1.sol\":1017:1172  function onlyCaller(... */\n      swap3\n      swap2\n      pop\n      pop\n      jump\t// out\n        /* \"contracts/Constant1.sol\":5653:5737  function getOffline() external pure returns (uint16) {... */\n    tag_106:\n        /* \"contracts/Constant1.sol\":5698:5704  uint16 */\n      0x00\n        /* \"contracts/Constant1.sol\":1491:1492  3 */\n      0x03\n        /* \"contracts/Constant1.sol\":5716:5730  return offline */\n      swap1\n      pop\n        /* \"contracts/Constant1.sol\":5653:5737  function getOffline() external pure returns (uint16) {... */\n      swap1\n      jump\t// out\n        /* \"contracts/Constant1.sol\":1377:1410  uint16 public constant online = 1 */\n    tag_109:\n        /* \"contracts/Constant1.sol\":1409:1410  1 */\n      0x01\n        /* \"contracts/Constant1.sol\":1377:1410  uint16 public constant online = 1 */\n      dup2\n      jump\t// out\n        /* \"contracts/Constant1.sol\":1865:1912  uint256 public stakeAmountLimit = 10 * 10 ** 18 */\n    tag_112:\n      sload(0x07)\n      dup2\n      jump\t// out\n        /* \"contracts/Constant1.sol\":402:493  function delAdmin(address _admin) public onlyOwner {... */\n    tag_116:\n        /* \"@openzeppelin/contracts/access/Ownable.sol\":1094:1107  _checkOwner() */\n      tag_253\n        /* \"@openzeppelin/contracts/access/Ownable.sol\":1094:1105  _checkOwner */\n      tag_254\n        /* \"@openzeppelin/contracts/access/Ownable.sol\":1094:1107  _checkOwner() */\n      jump\t// in\n    tag_253:\n        /* \"contracts/Constant1.sol\":481:486  false */\n      0x00\n        /* \"contracts/Constant1.sol\":463:470  _admins */\n      0x01\n        /* \"contracts/Constant1.sol\":463:478  _admins[_admin] */\n      0x00\n        /* \"contracts/Constant1.sol\":471:477  _admin */\n      dup4\n        /* \"contracts/Constant1.sol\":463:478  _admins[_admin] */\n      0xffffffffffffffffffffffffffffffffffffffff\n      and\n      0xffffffffffffffffffffffffffffffffffffffff\n      and\n      dup2\n      mstore\n      0x20\n      add\n      swap1\n      dup2\n      mstore\n      0x20\n      add\n      0x00\n      keccak256\n      0x00\n        /* \"contracts/Constant1.sol\":463:486  _admins[_admin] = false */\n      0x0100\n      exp\n      dup2\n      sload\n      dup2\n      0xff\n      mul\n      not\n      and\n      swap1\n      dup4\n      iszero\n      iszero\n      mul\n      or\n      swap1\n      sstore\n      pop\n        /* \"contracts/Constant1.sol\":402:493  function delAdmin(address _admin) public onlyOwner {... */\n      pop\n      jump\t// out\n        /* \"contracts/Constant1.sol\":5471:5553  function getOnline() external pure returns (uint16) {... */\n    tag_118:\n        /* \"contracts/Constant1.sol\":5515:5521  uint16 */\n      0x00\n        /* \"contracts/Constant1.sol\":1409:1410  1 */\n      0x01\n        /* \"contracts/Constant1.sol\":5533:5546  return online */\n      swap1\n      pop\n        /* \"contracts/Constant1.sol\":5471:5553  function getOnline() external pure returns (uint16) {... */\n      swap1\n      jump\t// out\n        /* \"contracts/Constant1.sol\":1736:1771  string[] public devicePowerInfoKeys */\n    tag_122:\n      0x05\n      dup2\n      dup2\n      sload\n      dup2\n      lt\n      tag_257\n      jumpi\n      0x00\n      dup1\n      revert\n    tag_257:\n      swap1\n      0x00\n      mstore\n      keccak256(0x00, 0x20)\n      add\n      0x00\n      swap2\n      pop\n      swap1\n      pop\n      dup1\n      sload\n      tag_259\n      swap1\n      tag_231\n      jump\t// in\n    tag_259:\n      dup1\n      0x1f\n      add\n      0x20\n      dup1\n      swap2\n      div\n      mul\n      0x20\n      add\n      mload(0x40)\n      swap1\n      dup2\n      add\n      0x40\n      mstore\n      dup1\n      swap3\n      swap2\n      swap1\n      dup2\n      dup2\n      mstore\n      0x20\n      add\n      dup3\n      dup1\n      sload\n      tag_260\n      swap1\n      tag_231\n      jump\t// in\n    tag_260:\n      dup1\n      iszero\n      tag_261\n      jumpi\n      dup1\n      0x1f\n      lt\n      tag_262\n      jumpi\n      0x0100\n      dup1\n      dup4\n      sload\n      div\n      mul\n      dup4\n      mstore\n      swap2\n      0x20\n      add\n      swap2\n      jump(tag_261)\n    tag_262:\n      dup3\n      add\n      swap2\n      swap1\n      0x00\n      mstore\n      keccak256(0x00, 0x20)\n      swap1\n    tag_263:\n      dup2\n      sload\n      dup2\n      mstore\n      swap1\n      0x01\n      add\n      swap1\n      0x20\n      add\n      dup1\n      dup4\n      gt\n      tag_263\n      jumpi\n      dup3\n      swap1\n      sub\n      0x1f\n      and\n      dup3\n      add\n      swap2\n    tag_261:\n      pop\n      pop\n      pop\n      pop\n      pop\n      dup2\n      jump\t// out\n        /* \"contracts/Constant1.sol\":2067:2105  uint16 public devicePowerConsCount = 0 */\n    tag_126:\n      0x08\n      0x02\n      swap1\n      sload\n      swap1\n      0x0100\n      exp\n      swap1\n      div\n      0xffff\n      and\n      dup2\n      jump\t// out\n        /* \"contracts/Constant1.sol\":306:396  function addAdmin(address _admin) public onlyOwner {... */\n    tag_130:\n        /* \"@openzeppelin/contracts/access/Ownable.sol\":1094:1107  _checkOwner() */\n      tag_265\n        /* \"@openzeppelin/contracts/access/Ownable.sol\":1094:1105  _checkOwner */\n      tag_254\n        /* \"@openzeppelin/contracts/access/Ownable.sol\":1094:1107  _checkOwner() */\n      jump\t// in\n    tag_265:\n        /* \"contracts/Constant1.sol\":385:389  true */\n      0x01\n        /* \"contracts/Constant1.sol\":367:374  _admins */\n      dup1\n        /* \"contracts/Constant1.sol\":367:382  _admins[_admin] */\n      0x00\n        /* \"contracts/Constant1.sol\":375:381  _admin */\n      dup4\n        /* \"contracts/Constant1.sol\":367:382  _admins[_admin] */\n      0xffffffffffffffffffffffffffffffffffffffff\n      and\n      0xffffffffffffffffffffffffffffffffffffffff\n      and\n      dup2\n      mstore\n      0x20\n      add\n      swap1\n      dup2\n      mstore\n      0x20\n      add\n      0x00\n      keccak256\n      0x00\n        /* \"contracts/Constant1.sol\":367:389  _admins[_admin] = true */\n      0x0100\n      exp\n      dup2\n      sload\n      dup2\n      0xff\n      mul\n      not\n      and\n      swap1\n      dup4\n      iszero\n      iszero\n      mul\n      or\n      swap1\n      sstore\n      pop\n        /* \"contracts/Constant1.sol\":306:396  function addAdmin(address _admin) public onlyOwner {... */\n      pop\n      jump\t// out\n        /* \"@openzeppelin/contracts/access/Ownable.sol\":1831:1932  function renounceOwnership() public virtual onlyOwner {... */\n    tag_132:\n        /* \"@openzeppelin/contracts/access/Ownable.sol\":1094:1107  _checkOwner() */\n      tag_268\n        /* \"@openzeppelin/contracts/access/Ownable.sol\":1094:1105  _checkOwner */\n      tag_254\n        /* \"@openzeppelin/contracts/access/Ownable.sol\":1094:1107  _checkOwner() */\n      jump\t// in\n    tag_268:\n        /* \"@openzeppelin/contracts/access/Ownable.sol\":1895:1925  _transferOwnership(address(0)) */\n      tag_270\n        /* \"@openzeppelin/contracts/access/Ownable.sol\":1922:1923  0 */\n      0x00\n        /* \"@openzeppelin/contracts/access/Ownable.sol\":1895:1913  _transferOwnership */\n      tag_271\n        /* \"@openzeppelin/contracts/access/Ownable.sol\":1895:1925  _transferOwnership(address(0)) */\n      jump\t// in\n    tag_270:\n        /* \"@openzeppelin/contracts/access/Ownable.sol\":1831:1932  function renounceOwnership() public virtual onlyOwner {... */\n      jump\t// out\n        /* \"contracts/Constant1.sol\":1536:1566  string[] public deviceInfoKeys */\n    tag_135:\n      0x03\n      dup2\n      dup2\n      sload\n      dup2\n      lt\n      tag_272\n      jumpi\n      0x00\n      dup1\n      revert\n    tag_272:\n      swap1\n      0x00\n      mstore\n      keccak256(0x00, 0x20)\n      add\n      0x00\n      swap2\n      pop\n      swap1\n      pop\n      dup1\n      sload\n      tag_274\n      swap1\n      tag_231\n      jump\t// in\n    tag_274:\n      dup1\n      0x1f\n      add\n      0x20\n      dup1\n      swap2\n      div\n      mul\n      0x20\n      add\n      mload(0x40)\n      swap1\n      dup2\n      add\n      0x40\n      mstore\n      dup1\n      swap3\n      swap2\n      swap1\n      dup2\n      dup2\n      mstore\n      0x20\n      add\n      dup3\n      dup1\n      sload\n      tag_275\n      swap1\n      tag_231\n      jump\t// in\n    tag_275:\n      dup1\n      iszero\n      tag_276\n      jumpi\n      dup1\n      0x1f\n      lt\n      tag_277\n      jumpi\n      0x0100\n      dup1\n      dup4\n      sload\n      div\n      mul\n      dup4\n      mstore\n      swap2\n      0x20\n      add\n      swap2\n      jump(tag_276)\n    tag_277:\n      dup3\n      add\n      swap2\n      swap1\n      0x00\n      mstore\n      keccak256(0x00, 0x20)\n      swap1\n    tag_278:\n      dup2\n      sload\n      dup2\n      mstore\n      swap1\n      0x01\n      add\n      swap1\n      0x20\n      add\n      dup1\n      dup4\n      gt\n      tag_278\n      jumpi\n      dup3\n      swap1\n      sub\n      0x1f\n      and\n      dup3\n      add\n      swap2\n    tag_276:\n      pop\n      pop\n      pop\n      pop\n      pop\n      dup2\n      jump\t// out\n        /* \"contracts/Constant1.sol\":1572:1623  mapping(string => uint16) public devicePartInfoCons */\n    tag_139:\n      0x04\n      dup2\n      dup1\n      mload\n      0x20\n      dup2\n      add\n      dup3\n      add\n      dup1\n      mload\n      dup5\n      dup3\n      mstore\n      0x20\n      dup4\n      add\n      0x20\n      dup6\n      add\n      keccak256\n      dup2\n      dup4\n      mstore\n      dup1\n      swap6\n      pop\n      pop\n      pop\n      pop\n      pop\n      pop\n      0x00\n      swap2\n      pop\n      sload\n      swap1\n      0x0100\n      exp\n      swap1\n      div\n      0xffff\n      and\n      dup2\n      jump\t// out\n        /* \"contracts/Constant1.sol\":2215:2246  uint256 public HddWeight = 1000 */\n    tag_142:\n      sload(0x0b)\n      dup2\n      jump\t// out\n        /* \"contracts/Constant1.sol\":2027:2060  uint16 public deviceConsCount = 0 */\n    tag_145:\n      0x08\n      0x00\n      swap1\n      sload\n      swap1\n      0x0100\n      exp\n      swap1\n      div\n      0xffff\n      and\n      dup2\n      jump\t// out\n        /* \"@openzeppelin/contracts/access/Ownable.sol\":1201:1286  function owner() public view virtual returns (address) {... */\n    tag_148:\n        /* \"@openzeppelin/contracts/access/Ownable.sol\":1247:1254  address */\n      0x00\n        /* \"@openzeppelin/contracts/access/Ownable.sol\":1273:1279  _owner */\n      dup1\n      0x00\n      swap1\n      sload\n      swap1\n      0x0100\n      exp\n      swap1\n      div\n      0xffffffffffffffffffffffffffffffffffffffff\n      and\n        /* \"@openzeppelin/contracts/access/Ownable.sol\":1266:1279  return _owner */\n      swap1\n      pop\n        /* \"@openzeppelin/contracts/access/Ownable.sol\":1201:1286  function owner() public view virtual returns (address) {... */\n      swap1\n      jump\t// out\n        /* \"contracts/Constant1.sol\":4858:5006  function getDevicePowerInfoCons(... */\n    tag_153:\n        /* \"contracts/Constant1.sol\":4948:4954  uint16 */\n      0x00\n        /* \"contracts/Constant1.sol\":4973:4992  devicePowerInfoCons */\n      0x06\n        /* \"contracts/Constant1.sol\":4993:4998  param */\n      dup3\n        /* \"contracts/Constant1.sol\":4973:4999  devicePowerInfoCons[param] */\n      mload(0x40)\n      tag_281\n      swap2\n      swap1\n      tag_215\n      jump\t// in\n    tag_281:\n      swap1\n      dup2\n      mstore\n      0x20\n      add\n      mload(0x40)\n      dup1\n      swap2\n      sub\n      swap1\n      keccak256\n      0x00\n      swap1\n      sload\n      swap1\n      0x0100\n      exp\n      swap1\n      div\n      0xffff\n      and\n        /* \"contracts/Constant1.sol\":4966:4999  return devicePowerInfoCons[param] */\n      swap1\n      pop\n        /* \"contracts/Constant1.sol\":4858:5006  function getDevicePowerInfoCons(... */\n      swap2\n      swap1\n      pop\n      jump\t// out\n        /* \"contracts/Constant1.sol\":5248:5351  function getStakeAmountLimit() external view returns (uint256) {... */\n    tag_156:\n        /* \"contracts/Constant1.sol\":5302:5309  uint256 */\n      0x00\n        /* \"contracts/Constant1.sol\":5328:5344  stakeAmountLimit */\n      sload(0x07)\n        /* \"contracts/Constant1.sol\":5321:5344  return stakeAmountLimit */\n      swap1\n      pop\n        /* \"contracts/Constant1.sol\":5248:5351  function getStakeAmountLimit() external view returns (uint256) {... */\n      swap1\n      jump\t// out\n        /* \"contracts/Constant1.sol\":902:1011  function getCaller(string memory key) external view returns (address) {... */\n    tag_160:\n        /* \"contracts/Constant1.sol\":963:970  address */\n      0x00\n        /* \"contracts/Constant1.sol\":989:999  authVerify */\n      0x02\n        /* \"contracts/Constant1.sol\":1000:1003  key */\n      dup3\n        /* \"contracts/Constant1.sol\":989:1004  authVerify[key] */\n      mload(0x40)\n      tag_284\n      swap2\n      swap1\n      tag_215\n      jump\t// in\n    tag_284:\n      swap1\n      dup2\n      mstore\n      0x20\n      add\n      mload(0x40)\n      dup1\n      swap2\n      sub\n      swap1\n      keccak256\n      0x00\n      swap1\n      sload\n      swap1\n      0x0100\n      exp\n      swap1\n      div\n      0xffffffffffffffffffffffffffffffffffffffff\n      and\n        /* \"contracts/Constant1.sol\":982:1004  return authVerify[key] */\n      swap1\n      pop\n        /* \"contracts/Constant1.sol\":902:1011  function getCaller(string memory key) external view returns (address) {... */\n      swap2\n      swap1\n      pop\n      jump\t// out\n        /* \"contracts/Constant1.sol\":2168:2208  uint256 public GpuCpuMemNetWeight = 9000 */\n    tag_163:\n      sload(0x0a)\n      dup2\n      jump\t// out\n        /* \"contracts/Constant1.sol\":1458:1492  uint16 public constant offline = 3 */\n    tag_166:\n        /* \"contracts/Constant1.sol\":1491:1492  3 */\n      0x03\n        /* \"contracts/Constant1.sol\":1458:1492  uint16 public constant offline = 3 */\n      dup2\n      jump\t// out\n        /* \"contracts/Constant1.sol\":5125:5242  function getDevicePowerInfoKeys() external view returns (string[] memory) {... */\n    tag_169:\n        /* \"contracts/Constant1.sol\":5182:5197  string[] memory */\n      0x60\n        /* \"contracts/Constant1.sol\":5216:5235  devicePowerInfoKeys */\n      0x05\n        /* \"contracts/Constant1.sol\":5209:5235  return devicePowerInfoKeys */\n      dup1\n      sload\n      dup1\n      0x20\n      mul\n      0x20\n      add\n      mload(0x40)\n      swap1\n      dup2\n      add\n      0x40\n      mstore\n      dup1\n      swap3\n      swap2\n      swap1\n      dup2\n      dup2\n      mstore\n      0x20\n      add\n      0x00\n      swap1\n    tag_286:\n      dup3\n      dup3\n      lt\n      iszero\n      tag_287\n      jumpi\n      dup4\n      dup3\n      swap1\n      0x00\n      mstore\n      keccak256(0x00, 0x20)\n      add\n      dup1\n      sload\n      tag_289\n      swap1\n      tag_231\n      jump\t// in\n    tag_289:\n      dup1\n      0x1f\n      add\n      0x20\n      dup1\n      swap2\n      div\n      mul\n      0x20\n      add\n      mload(0x40)\n      swap1\n      dup2\n      add\n      0x40\n      mstore\n      dup1\n      swap3\n      swap2\n      swap1\n      dup2\n      dup2\n      mstore\n      0x20\n      add\n      dup3\n      dup1\n      sload\n      tag_290\n      swap1\n      tag_231\n      jump\t// in\n    tag_290:\n      dup1\n      iszero\n      tag_291\n      jumpi\n      dup1\n      0x1f\n      lt\n      tag_292\n      jumpi\n      0x0100\n      dup1\n      dup4\n      sload\n      div\n      mul\n      dup4\n      mstore\n      swap2\n      0x20\n      add\n      swap2\n      jump(tag_291)\n    tag_292:\n      dup3\n      add\n      swap2\n      swap1\n      0x00\n      mstore\n      keccak256(0x00, 0x20)\n      swap1\n    tag_293:\n      dup2\n      sload\n      dup2\n      mstore\n      swap1\n      0x01\n      add\n      swap1\n      0x20\n      add\n      dup1\n      dup4\n      gt\n      tag_293\n      jumpi\n      dup3\n      swap1\n      sub\n      0x1f\n      and\n      dup3\n      add\n      swap2\n    tag_291:\n      pop\n      pop\n      pop\n      pop\n      pop\n      dup2\n      mstore\n      0x20\n      add\n      swap1\n      0x01\n      add\n      swap1\n      jump(tag_286)\n    tag_287:\n      pop\n      pop\n      pop\n      pop\n      swap1\n      pop\n        /* \"contracts/Constant1.sol\":5125:5242  function getDevicePowerInfoKeys() external view returns (string[] memory) {... */\n      swap1\n      jump\t// out\n        /* \"contracts/Constant1.sol\":679:896  function addCaller(... */\n    tag_174:\n        /* \"@openzeppelin/contracts/access/Ownable.sol\":1094:1107  _checkOwner() */\n      tag_295\n        /* \"@openzeppelin/contracts/access/Ownable.sol\":1094:1105  _checkOwner */\n      tag_254\n        /* \"@openzeppelin/contracts/access/Ownable.sol\":1094:1107  _checkOwner() */\n      jump\t// in\n    tag_295:\n        /* \"contracts/Constant1.sol\":800:806  uint i */\n      0x00\n        /* \"contracts/Constant1.sol\":795:890  for (uint i = 0; i < keys.length; i++) {... */\n    tag_297:\n        /* \"contracts/Constant1.sol\":816:820  keys */\n      dup3\n        /* \"contracts/Constant1.sol\":816:827  keys.length */\n      mload\n        /* \"contracts/Constant1.sol\":812:813  i */\n      dup2\n        /* \"contracts/Constant1.sol\":812:827  i < keys.length */\n      lt\n        /* \"contracts/Constant1.sol\":795:890  for (uint i = 0; i < keys.length; i++) {... */\n      iszero\n      tag_298\n      jumpi\n        /* \"contracts/Constant1.sol\":870:876  caller */\n      dup2\n        /* \"contracts/Constant1.sol\":877:878  i */\n      dup2\n        /* \"contracts/Constant1.sol\":870:879  caller[i] */\n      dup2\n      mload\n      dup2\n      lt\n      tag_300\n      jumpi\n      tag_301\n      tag_302\n      jump\t// in\n    tag_301:\n    tag_300:\n      0x20\n      mul\n      0x20\n      add\n      add\n      mload\n        /* \"contracts/Constant1.sol\":848:858  authVerify */\n      0x02\n        /* \"contracts/Constant1.sol\":859:863  keys */\n      dup5\n        /* \"contracts/Constant1.sol\":864:865  i */\n      dup4\n        /* \"contracts/Constant1.sol\":859:866  keys[i] */\n      dup2\n      mload\n      dup2\n      lt\n      tag_303\n      jumpi\n      tag_304\n      tag_302\n      jump\t// in\n    tag_304:\n    tag_303:\n      0x20\n      mul\n      0x20\n      add\n      add\n      mload\n        /* \"contracts/Constant1.sol\":848:867  authVerify[keys[i]] */\n      mload(0x40)\n      tag_305\n      swap2\n      swap1\n      tag_215\n      jump\t// in\n    tag_305:\n      swap1\n      dup2\n      mstore\n      0x20\n      add\n      mload(0x40)\n      dup1\n      swap2\n      sub\n      swap1\n      keccak256\n      0x00\n        /* \"contracts/Constant1.sol\":848:879  authVerify[keys[i]] = caller[i] */\n      0x0100\n      exp\n      dup2\n      sload\n      dup2\n      0xffffffffffffffffffffffffffffffffffffffff\n      mul\n      not\n      and\n      swap1\n      dup4\n      0xffffffffffffffffffffffffffffffffffffffff\n      and\n      mul\n      or\n      swap1\n      sstore\n      pop\n        /* \"contracts/Constant1.sol\":829:832  i++ */\n      dup1\n      dup1\n      tag_306\n      swap1\n      tag_307\n      jump\t// in\n    tag_306:\n      swap2\n      pop\n      pop\n        /* \"contracts/Constant1.sol\":795:890  for (uint i = 0; i < keys.length; i++) {... */\n      jump(tag_297)\n    tag_298:\n      pop\n        /* \"contracts/Constant1.sol\":679:896  function addCaller(... */\n      pop\n      pop\n      jump\t// out\n        /* \"contracts/Constant1.sol\":2808:3506  function delDeviceInfoCons(string memory consName) external {... */\n    tag_177:\n        /* \"contracts/Constant1.sol\":2883:2889  uint i */\n      0x00\n        /* \"contracts/Constant1.sol\":2878:3500  for (uint i = 0; i < deviceInfoKeys.length; i++) {... */\n    tag_309:\n        /* \"contracts/Constant1.sol\":2899:2913  deviceInfoKeys */\n      0x03\n        /* \"contracts/Constant1.sol\":2899:2920  deviceInfoKeys.length */\n      dup1\n      sload\n      swap1\n      pop\n        /* \"contracts/Constant1.sol\":2895:2896  i */\n      dup2\n        /* \"contracts/Constant1.sol\":2895:2920  i < deviceInfoKeys.length */\n      lt\n        /* \"contracts/Constant1.sol\":2878:3500  for (uint i = 0; i < deviceInfoKeys.length; i++) {... */\n      iszero\n      tag_310\n      jumpi\n        /* \"contracts/Constant1.sol\":2962:3025  hashCompareWithLengthCheckInternal(deviceInfoKeys[i], consName) */\n      tag_312\n        /* \"contracts/Constant1.sol\":2997:3011  deviceInfoKeys */\n      0x03\n        /* \"contracts/Constant1.sol\":3012:3013  i */\n      dup3\n        /* \"contracts/Constant1.sol\":2997:3014  deviceInfoKeys[i] */\n      dup2\n      sload\n      dup2\n      lt\n      tag_313\n      jumpi\n      tag_314\n      tag_302\n      jump\t// in\n    tag_314:\n    tag_313:\n      swap1\n      0x00\n      mstore\n      keccak256(0x00, 0x20)\n      add\n        /* \"contracts/Constant1.sol\":2962:3025  hashCompareWithLengthCheckInternal(deviceInfoKeys[i], consName) */\n      dup1\n      sload\n      tag_316\n      swap1\n      tag_231\n      jump\t// in\n    tag_316:\n      dup1\n      0x1f\n      add\n      0x20\n      dup1\n      swap2\n      div\n      mul\n      0x20\n      add\n      mload(0x40)\n      swap1\n      dup2\n      add\n      0x40\n      mstore\n      dup1\n      swap3\n      swap2\n      swap1\n      dup2\n      dup2\n      mstore\n      0x20\n      add\n      dup3\n      dup1\n      sload\n      tag_317\n      swap1\n      tag_231\n      jump\t// in\n    tag_317:\n      dup1\n      iszero\n      tag_318\n      jumpi\n      dup1\n      0x1f\n      lt\n      tag_319\n      jumpi\n      0x0100\n      dup1\n      dup4\n      sload\n      div\n      mul\n      dup4\n      mstore\n      swap2\n      0x20\n      add\n      swap2\n      jump(tag_318)\n    tag_319:\n      dup3\n      add\n      swap2\n      swap1\n      0x00\n      mstore\n      keccak256(0x00, 0x20)\n      swap1\n    tag_320:\n      dup2\n      sload\n      dup2\n      mstore\n      swap1\n      0x01\n      add\n      swap1\n      0x20\n      add\n      dup1\n      dup4\n      gt\n      tag_320\n      jumpi\n      dup3\n      swap1\n      sub\n      0x1f\n      and\n      dup3\n      add\n      swap2\n    tag_318:\n      pop\n      pop\n      pop\n      pop\n      pop\n        /* \"contracts/Constant1.sol\":3016:3024  consName */\n      dup4\n        /* \"contracts/Constant1.sol\":2962:2996  hashCompareWithLengthCheckInternal */\n      tag_321\n        /* \"contracts/Constant1.sol\":2962:3025  hashCompareWithLengthCheckInternal(deviceInfoKeys[i], consName) */\n      jump\t// in\n    tag_312:\n        /* \"contracts/Constant1.sol\":2941:3490  if (... */\n      iszero\n      tag_322\n      jumpi\n        /* \"contracts/Constant1.sol\":3090:3091  1 */\n      0x01\n        /* \"contracts/Constant1.sol\":3066:3080  deviceInfoKeys */\n      0x03\n        /* \"contracts/Constant1.sol\":3066:3087  deviceInfoKeys.length */\n      dup1\n      sload\n      swap1\n      pop\n        /* \"contracts/Constant1.sol\":3066:3091  deviceInfoKeys.length - 1 */\n      tag_323\n      swap2\n      swap1\n      tag_324\n      jump\t// in\n    tag_323:\n        /* \"contracts/Constant1.sol\":3062:3063  i */\n      dup2\n        /* \"contracts/Constant1.sol\":3062:3091  i < deviceInfoKeys.length - 1 */\n      lt\n        /* \"contracts/Constant1.sol\":3058:3415  if (i < deviceInfoKeys.length - 1) {... */\n      iszero\n      tag_325\n      jumpi\n        /* \"contracts/Constant1.sol\":3115:3132  string memory tmp */\n      0x00\n        /* \"contracts/Constant1.sol\":3135:3149  deviceInfoKeys */\n      0x03\n        /* \"contracts/Constant1.sol\":3199:3200  1 */\n      0x01\n        /* \"contracts/Constant1.sol\":3175:3189  deviceInfoKeys */\n      0x03\n        /* \"contracts/Constant1.sol\":3175:3196  deviceInfoKeys.length */\n      dup1\n      sload\n      swap1\n      pop\n        /* \"contracts/Constant1.sol\":3175:3200  deviceInfoKeys.length - 1 */\n      tag_326\n      swap2\n      swap1\n      tag_324\n      jump\t// in\n    tag_326:\n        /* \"contracts/Constant1.sol\":3135:3222  deviceInfoKeys[... */\n      dup2\n      sload\n      dup2\n      lt\n      tag_327\n      jumpi\n      tag_328\n      tag_302\n      jump\t// in\n    tag_328:\n    tag_327:\n      swap1\n      0x00\n      mstore\n      keccak256(0x00, 0x20)\n      add\n        /* \"contracts/Constant1.sol\":3115:3222  string memory tmp = deviceInfoKeys[... */\n      dup1\n      sload\n      tag_330\n      swap1\n      tag_231\n      jump\t// in\n    tag_330:\n      dup1\n      0x1f\n      add\n      0x20\n      dup1\n      swap2\n      div\n      mul\n      0x20\n      add\n      mload(0x40)\n      swap1\n      dup2\n      add\n      0x40\n      mstore\n      dup1\n      swap3\n      swap2\n      swap1\n      dup2\n      dup2\n      mstore\n      0x20\n      add\n      dup3\n      dup1\n      sload\n      tag_331\n      swap1\n      tag_231\n      jump\t// in\n    tag_331:\n      dup1\n      iszero\n      tag_332\n      jumpi\n      dup1\n      0x1f\n      lt\n      tag_333\n      jumpi\n      0x0100\n      dup1\n      dup4\n      sload\n      div\n      mul\n      dup4\n      mstore\n      swap2\n      0x20\n      add\n      swap2\n      jump(tag_332)\n    tag_333:\n      dup3\n      add\n      swap2\n      swap1\n      0x00\n      mstore\n      keccak256(0x00, 0x20)\n      swap1\n    tag_334:\n      dup2\n      sload\n      dup2\n      mstore\n      swap1\n      0x01\n      add\n      swap1\n      0x20\n      add\n      dup1\n      dup4\n      gt\n      tag_334\n      jumpi\n      dup3\n      swap1\n      sub\n      0x1f\n      and\n      dup3\n      add\n      swap2\n    tag_332:\n      pop\n      pop\n      pop\n      pop\n      pop\n      swap1\n      pop\n        /* \"contracts/Constant1.sol\":3288:3302  deviceInfoKeys */\n      0x03\n        /* \"contracts/Constant1.sol\":3328:3329  i */\n      dup3\n        /* \"contracts/Constant1.sol\":3288:3351  deviceInfoKeys[... */\n      dup2\n      sload\n      dup2\n      lt\n      tag_335\n      jumpi\n      tag_336\n      tag_302\n      jump\t// in\n    tag_336:\n    tag_335:\n      swap1\n      0x00\n      mstore\n      keccak256(0x00, 0x20)\n      add\n        /* \"contracts/Constant1.sol\":3244:3258  deviceInfoKeys */\n      0x03\n        /* \"contracts/Constant1.sol\":3283:3284  1 */\n      0x01\n        /* \"contracts/Constant1.sol\":3259:3273  deviceInfoKeys */\n      0x03\n        /* \"contracts/Constant1.sol\":3259:3280  deviceInfoKeys.length */\n      dup1\n      sload\n      swap1\n      pop\n        /* \"contracts/Constant1.sol\":3259:3284  deviceInfoKeys.length - 1 */\n      tag_338\n      swap2\n      swap1\n      tag_324\n      jump\t// in\n    tag_338:\n        /* \"contracts/Constant1.sol\":3244:3285  deviceInfoKeys[deviceInfoKeys.length - 1] */\n      dup2\n      sload\n      dup2\n      lt\n      tag_339\n      jumpi\n      tag_340\n      tag_302\n      jump\t// in\n    tag_340:\n    tag_339:\n      swap1\n      0x00\n      mstore\n      keccak256(0x00, 0x20)\n      add\n        /* \"contracts/Constant1.sol\":3244:3351  deviceInfoKeys[deviceInfoKeys.length - 1] = deviceInfoKeys[... */\n      swap1\n      dup2\n      tag_342\n      swap2\n      swap1\n      tag_343\n      jump\t// in\n    tag_342:\n      pop\n        /* \"contracts/Constant1.sol\":3393:3396  tmp */\n      dup1\n        /* \"contracts/Constant1.sol\":3373:3387  deviceInfoKeys */\n      0x03\n        /* \"contracts/Constant1.sol\":3388:3389  i */\n      dup4\n        /* \"contracts/Constant1.sol\":3373:3390  deviceInfoKeys[i] */\n      dup2\n      sload\n      dup2\n      lt\n      tag_344\n      jumpi\n      tag_345\n      tag_302\n      jump\t// in\n    tag_345:\n    tag_344:\n      swap1\n      0x00\n      mstore\n      keccak256(0x00, 0x20)\n      add\n        /* \"contracts/Constant1.sol\":3373:3396  deviceInfoKeys[i] = tmp */\n      swap1\n      dup2\n      tag_347\n      swap2\n      swap1\n      tag_219\n      jump\t// in\n    tag_347:\n      pop\n        /* \"contracts/Constant1.sol\":3093:3415  {... */\n      pop\n        /* \"contracts/Constant1.sol\":3058:3415  if (i < deviceInfoKeys.length - 1) {... */\n    tag_325:\n        /* \"contracts/Constant1.sol\":3432:3446  deviceInfoKeys */\n      0x03\n        /* \"contracts/Constant1.sol\":3432:3452  deviceInfoKeys.pop() */\n      dup1\n      sload\n      dup1\n      tag_348\n      jumpi\n      tag_349\n      tag_350\n      jump\t// in\n    tag_349:\n    tag_348:\n      0x01\n      swap1\n      sub\n      dup2\n      dup2\n      swap1\n      0x00\n      mstore\n      keccak256(0x00, 0x20)\n      add\n      0x00\n      tag_352\n      swap2\n      swap1\n      tag_353\n      jump\t// in\n    tag_352:\n      swap1\n      sstore\n        /* \"contracts/Constant1.sol\":3470:3475  break */\n      jump(tag_310)\n        /* \"contracts/Constant1.sol\":2941:3490  if (... */\n    tag_322:\n        /* \"contracts/Constant1.sol\":2922:2925  i++ */\n      dup1\n      dup1\n      tag_354\n      swap1\n      tag_307\n      jump\t// in\n    tag_354:\n      swap2\n      pop\n      pop\n        /* \"contracts/Constant1.sol\":2878:3500  for (uint i = 0; i < deviceInfoKeys.length; i++) {... */\n      jump(tag_309)\n    tag_310:\n      pop\n        /* \"contracts/Constant1.sol\":2808:3506  function delDeviceInfoCons(string memory consName) external {... */\n      pop\n      jump\t// out\n        /* \"contracts/Constant1.sol\":2112:2161  uint256 public reportVmDataDiffTimestamp = 604800 */\n    tag_179:\n      sload(0x09)\n      dup2\n      jump\t// out\n        /* \"contracts/Constant1.sol\":2366:2455  function getHddWeight() external view returns (uint256) {... */\n    tag_182:\n        /* \"contracts/Constant1.sol\":2413:2420  uint256 */\n      0x00\n        /* \"contracts/Constant1.sol\":2439:2448  HddWeight */\n      sload(0x0b)\n        /* \"contracts/Constant1.sol\":2432:2448  return HddWeight */\n      swap1\n      pop\n        /* \"contracts/Constant1.sol\":2366:2455  function getHddWeight() external view returns (uint256) {... */\n      swap1\n      jump\t// out\n        /* \"contracts/Constant1.sol\":1958:2020  uint256 public constant remainingMinStakeAmount = 1 * 10 ** 18 */\n    tag_185:\n        /* \"contracts/Constant1.sol\":2008:2020  1 * 10 ** 18 */\n      0x0de0b6b3a7640000\n        /* \"contracts/Constant1.sol\":1958:2020  uint256 public constant remainingMinStakeAmount = 1 * 10 ** 18 */\n      dup2\n      jump\t// out\n        /* \"contracts/Constant1.sol\":1262:1330  uint256 public constant totalTokenIssuance = 100000000000 * 10 ** 18 */\n    tag_188:\n        /* \"contracts/Constant1.sol\":1307:1330  100000000000 * 10 ** 18 */\n      0x01431e0fae6d7217caa0000000\n        /* \"contracts/Constant1.sol\":1262:1330  uint256 public constant totalTokenIssuance = 100000000000 * 10 ** 18 */\n      dup2\n      jump\t// out\n        /* \"contracts/Constant1.sol\":2461:2802  function addDeviceInfoCons(string memory typeParam) external {... */\n    tag_192:\n        /* \"contracts/Constant1.sol\":2540:2544  this */\n      address\n        /* \"contracts/Constant1.sol\":2540:2555  this.onlyCaller */\n      0xffffffffffffffffffffffffffffffffffffffff\n      and\n      0x5437733f\n        /* \"contracts/Constant1.sol\":2566:2576  msg.sender */\n      caller\n        /* \"contracts/Constant1.sol\":2540:2577  this.onlyCaller(\"Vertex\", msg.sender) */\n      mload(0x40)\n      dup3\n      0xffffffff\n      and\n      0xe0\n      shl\n      dup2\n      mstore\n      0x04\n      add\n      tag_357\n      swap2\n      swap1\n      tag_206\n      jump\t// in\n    tag_357:\n      0x20\n      mload(0x40)\n      dup1\n      dup4\n      sub\n      dup2\n      dup7\n      gas\n      staticcall\n      iszero\n      dup1\n      iszero\n      tag_359\n      jumpi\n      returndatasize\n      0x00\n      dup1\n      returndatacopy\n      revert(0x00, returndatasize)\n    tag_359:\n      pop\n      pop\n      pop\n      pop\n      mload(0x40)\n      returndatasize\n      not(0x1f)\n      0x1f\n      dup3\n      add\n      and\n      dup3\n      add\n      dup1\n      0x40\n      mstore\n      pop\n      dup2\n      add\n      swap1\n      tag_360\n      swap2\n      swap1\n      tag_210\n      jump\t// in\n    tag_360:\n        /* \"contracts/Constant1.sol\":2532:2599  require(this.onlyCaller(\"Vertex\", msg.sender), \"verify auth error\") */\n      tag_361\n      jumpi\n      mload(0x40)\n      0x08c379a000000000000000000000000000000000000000000000000000000000\n      dup2\n      mstore\n      0x04\n      add\n      tag_362\n      swap1\n      tag_213\n      jump\t// in\n    tag_362:\n      mload(0x40)\n      dup1\n      swap2\n      sub\n      swap1\n      revert\n    tag_361:\n        /* \"contracts/Constant1.sol\":2646:2647  0 */\n      0x00\n        /* \"contracts/Constant1.sol\":2613:2631  devicePartInfoCons */\n      0x04\n        /* \"contracts/Constant1.sol\":2632:2641  typeParam */\n      dup3\n        /* \"contracts/Constant1.sol\":2613:2642  devicePartInfoCons[typeParam] */\n      mload(0x40)\n      tag_363\n      swap2\n      swap1\n      tag_215\n      jump\t// in\n    tag_363:\n      swap1\n      dup2\n      mstore\n      0x20\n      add\n      mload(0x40)\n      dup1\n      swap2\n      sub\n      swap1\n      keccak256\n      0x00\n      swap1\n      sload\n      swap1\n      0x0100\n      exp\n      swap1\n      div\n      0xffff\n      and\n        /* \"contracts/Constant1.sol\":2613:2647  devicePartInfoCons[typeParam] == 0 */\n      0xffff\n      and\n      sub\n        /* \"contracts/Constant1.sol\":2609:2796  if (devicePartInfoCons[typeParam] == 0) {... */\n      tag_364\n      jumpi\n        /* \"contracts/Constant1.sol\":2663:2677  deviceInfoKeys */\n      0x03\n        /* \"contracts/Constant1.sol\":2683:2692  typeParam */\n      dup2\n        /* \"contracts/Constant1.sol\":2663:2693  deviceInfoKeys.push(typeParam) */\n      swap1\n      dup1\n      0x01\n      dup2\n      sload\n      add\n      dup1\n      dup3\n      sstore\n      dup1\n      swap2\n      pop\n      pop\n      0x01\n      swap1\n      sub\n      swap1\n      0x00\n      mstore\n      keccak256(0x00, 0x20)\n      add\n      0x00\n      swap1\n      swap2\n      swap1\n      swap2\n      swap1\n      swap2\n      pop\n      swap1\n      dup2\n      tag_366\n      swap2\n      swap1\n      tag_219\n      jump\t// in\n    tag_366:\n      pop\n        /* \"contracts/Constant1.sol\":2707:2722  deviceConsCount */\n      0x08\n      0x00\n        /* \"contracts/Constant1.sol\":2707:2724  deviceConsCount++ */\n      dup2\n      dup2\n      swap1\n      sload\n      swap1\n      0x0100\n      exp\n      swap1\n      div\n      0xffff\n      and\n      dup1\n      swap3\n      swap2\n      swap1\n      tag_367\n      swap1\n      tag_221\n      jump\t// in\n    tag_367:\n      swap2\n      swap1\n      0x0100\n      exp\n      dup2\n      sload\n      dup2\n      0xffff\n      mul\n      not\n      and\n      swap1\n      dup4\n      0xffff\n      and\n      mul\n      or\n      swap1\n      sstore\n      pop\n      pop\n        /* \"contracts/Constant1.sol\":2770:2785  deviceConsCount */\n      0x08\n      0x00\n      swap1\n      sload\n      swap1\n      0x0100\n      exp\n      swap1\n      div\n      0xffff\n      and\n        /* \"contracts/Constant1.sol\":2738:2756  devicePartInfoCons */\n      0x04\n        /* \"contracts/Constant1.sol\":2757:2766  typeParam */\n      dup3\n        /* \"contracts/Constant1.sol\":2738:2767  devicePartInfoCons[typeParam] */\n      mload(0x40)\n      tag_368\n      swap2\n      swap1\n      tag_215\n      jump\t// in\n    tag_368:\n      swap1\n      dup2\n      mstore\n      0x20\n      add\n      mload(0x40)\n      dup1\n      swap2\n      sub\n      swap1\n      keccak256\n      0x00\n        /* \"contracts/Constant1.sol\":2738:2785  devicePartInfoCons[typeParam] = deviceConsCount */\n      0x0100\n      exp\n      dup2\n      sload\n      dup2\n      0xffff\n      mul\n      not\n      and\n      swap1\n      dup4\n      0xffff\n      and\n      mul\n      or\n      swap1\n      sstore\n      pop\n        /* \"contracts/Constant1.sol\":2609:2796  if (devicePartInfoCons[typeParam] == 0) {... */\n    tag_364:\n        /* \"contracts/Constant1.sol\":2461:2802  function addDeviceInfoCons(string memory typeParam) external {... */\n      pop\n      jump\t// out\n        /* \"contracts/Constant1.sol\":4636:4736  function getDeviceConsCount() external view returns (uint16) {... */\n    tag_194:\n        /* \"contracts/Constant1.sol\":4689:4695  uint16 */\n      0x00\n        /* \"contracts/Constant1.sol\":4714:4729  deviceConsCount */\n      0x08\n      0x00\n      swap1\n      sload\n      swap1\n      0x0100\n      exp\n      swap1\n      div\n      0xffff\n      and\n        /* \"contracts/Constant1.sol\":4707:4729  return deviceConsCount */\n      swap1\n      pop\n        /* \"contracts/Constant1.sol\":4636:4736  function getDeviceConsCount() external view returns (uint16) {... */\n      swap1\n      jump\t// out\n        /* \"@openzeppelin/contracts/access/Ownable.sol\":2081:2279  function transferOwnership(address newOwner) public virtual onlyOwner {... */\n    tag_198:\n        /* \"@openzeppelin/contracts/access/Ownable.sol\":1094:1107  _checkOwner() */\n      tag_371\n        /* \"@openzeppelin/contracts/access/Ownable.sol\":1094:1105  _checkOwner */\n      tag_254\n        /* \"@openzeppelin/contracts/access/Ownable.sol\":1094:1107  _checkOwner() */\n      jump\t// in\n    tag_371:\n        /* \"@openzeppelin/contracts/access/Ownable.sol\":2189:2190  0 */\n      0x00\n        /* \"@openzeppelin/contracts/access/Ownable.sol\":2169:2191  newOwner != address(0) */\n      0xffffffffffffffffffffffffffffffffffffffff\n      and\n        /* \"@openzeppelin/contracts/access/Ownable.sol\":2169:2177  newOwner */\n      dup2\n        /* \"@openzeppelin/contracts/access/Ownable.sol\":2169:2191  newOwner != address(0) */\n      0xffffffffffffffffffffffffffffffffffffffff\n      and\n      sub\n        /* \"@openzeppelin/contracts/access/Ownable.sol\":2161:2234  require(newOwner != address(0), \"Ownable: new owner is the zero address\") */\n      tag_373\n      jumpi\n      mload(0x40)\n      0x08c379a000000000000000000000000000000000000000000000000000000000\n      dup2\n      mstore\n      0x04\n      add\n      tag_374\n      swap1\n      tag_375\n      jump\t// in\n    tag_374:\n      mload(0x40)\n      dup1\n      swap2\n      sub\n      swap1\n      revert\n    tag_373:\n        /* \"@openzeppelin/contracts/access/Ownable.sol\":2244:2272  _transferOwnership(newOwner) */\n      tag_376\n        /* \"@openzeppelin/contracts/access/Ownable.sol\":2263:2271  newOwner */\n      dup2\n        /* \"@openzeppelin/contracts/access/Ownable.sol\":2244:2262  _transferOwnership */\n      tag_271\n        /* \"@openzeppelin/contracts/access/Ownable.sol\":2244:2272  _transferOwnership(newOwner) */\n      jump\t// in\n    tag_376:\n        /* \"@openzeppelin/contracts/access/Ownable.sol\":2081:2279  function transferOwnership(address newOwner) public virtual onlyOwner {... */\n      pop\n      jump\t// out\n        /* \"contracts/Constant1.sol\":1416:1452  uint16 public constant rendering = 2 */\n    tag_200:\n        /* \"contracts/Constant1.sol\":1451:1452  2 */\n      0x02\n        /* \"contracts/Constant1.sol\":1416:1452  uint16 public constant rendering = 2 */\n      dup2\n      jump\t// out\n        /* \"@openzeppelin/contracts/access/Ownable.sol\":1359:1489  function _checkOwner() internal view virtual {... */\n    tag_254:\n        /* \"@openzeppelin/contracts/access/Ownable.sol\":1433:1445  _msgSender() */\n      tag_378\n        /* \"@openzeppelin/contracts/access/Ownable.sol\":1433:1443  _msgSender */\n      tag_379\n        /* \"@openzeppelin/contracts/access/Ownable.sol\":1433:1445  _msgSender() */\n      jump\t// in\n    tag_378:\n        /* \"@openzeppelin/contracts/access/Ownable.sol\":1422:1445  owner() == _msgSender() */\n      0xffffffffffffffffffffffffffffffffffffffff\n      and\n        /* \"@openzeppelin/contracts/access/Ownable.sol\":1422:1429  owner() */\n      tag_380\n        /* \"@openzeppelin/contracts/access/Ownable.sol\":1422:1427  owner */\n      tag_148\n        /* \"@openzeppelin/contracts/access/Ownable.sol\":1422:1429  owner() */\n      jump\t// in\n    tag_380:\n        /* \"@openzeppelin/contracts/access/Ownable.sol\":1422:1445  owner() == _msgSender() */\n      0xffffffffffffffffffffffffffffffffffffffff\n      and\n      eq\n        /* \"@openzeppelin/contracts/access/Ownable.sol\":1414:1482  require(owner() == _msgSender(), \"Ownable: caller is not the owner\") */\n      tag_381\n      jumpi\n      mload(0x40)\n      0x08c379a000000000000000000000000000000000000000000000000000000000\n      dup2\n      mstore\n      0x04\n      add\n      tag_382\n      swap1\n      tag_383\n      jump\t// in\n    tag_382:\n      mload(0x40)\n      dup1\n      swap2\n      sub\n      swap1\n      revert\n    tag_381:\n        /* \"@openzeppelin/contracts/access/Ownable.sol\":1359:1489  function _checkOwner() internal view virtual {... */\n      jump\t// out\n        /* \"@openzeppelin/contracts/access/Ownable.sol\":2433:2620  function _transferOwnership(address newOwner) internal virtual {... */\n    tag_271:\n        /* \"@openzeppelin/contracts/access/Ownable.sol\":2506:2522  address oldOwner */\n      0x00\n        /* \"@openzeppelin/contracts/access/Ownable.sol\":2525:2531  _owner */\n      dup1\n      0x00\n      swap1\n      sload\n      swap1\n      0x0100\n      exp\n      swap1\n      div\n      0xffffffffffffffffffffffffffffffffffffffff\n      and\n        /* \"@openzeppelin/contracts/access/Ownable.sol\":2506:2531  address oldOwner = _owner */\n      swap1\n      pop\n        /* \"@openzeppelin/contracts/access/Ownable.sol\":2550:2558  newOwner */\n      dup2\n        /* \"@openzeppelin/contracts/access/Ownable.sol\":2541:2547  _owner */\n      0x00\n      dup1\n        /* \"@openzeppelin/contracts/access/Ownable.sol\":2541:2558  _owner = newOwner */\n      0x0100\n      exp\n      dup2\n      sload\n      dup2\n      0xffffffffffffffffffffffffffffffffffffffff\n      mul\n      not\n      and\n      swap1\n      dup4\n      0xffffffffffffffffffffffffffffffffffffffff\n      and\n      mul\n      or\n      swap1\n      sstore\n      pop\n        /* \"@openzeppelin/contracts/access/Ownable.sol\":2604:2612  newOwner */\n      dup2\n        /* \"@openzeppelin/contracts/access/Ownable.sol\":2573:2613  OwnershipTransferred(oldOwner, newOwner) */\n      0xffffffffffffffffffffffffffffffffffffffff\n      and\n        /* \"@openzeppelin/contracts/access/Ownable.sol\":2594:2602  oldOwner */\n      dup2\n        /* \"@openzeppelin/contracts/access/Ownable.sol\":2573:2613  OwnershipTransferred(oldOwner, newOwner) */\n      0xffffffffffffffffffffffffffffffffffffffff\n      and\n      0x8be0079c531659141344cd1fd0a4f28419497f9722a3daafe3b4186f6b6457e0\n      mload(0x40)\n      mload(0x40)\n      dup1\n      swap2\n      sub\n      swap1\n      log3\n        /* \"@openzeppelin/contracts/access/Ownable.sol\":2496:2620  {... */\n      pop\n        /* \"@openzeppelin/contracts/access/Ownable.sol\":2433:2620  function _transferOwnership(address newOwner) internal virtual {... */\n      pop\n      jump\t// out\n        /* \"contracts/Constant1.sol\":3512:3868  function hashCompareWithLengthCheckInternal(... */\n    tag_321:\n        /* \"contracts/Constant1.sol\":3635:3639  bool */\n      0x00\n        /* \"contracts/Constant1.sol\":3680:3681  b */\n      dup2\n        /* \"contracts/Constant1.sol\":3674:3689  bytes(b).length */\n      mload\n        /* \"contracts/Constant1.sol\":3661:3662  a */\n      dup4\n        /* \"contracts/Constant1.sol\":3655:3670  bytes(a).length */\n      mload\n        /* \"contracts/Constant1.sol\":3655:3689  bytes(a).length != bytes(b).length */\n      eq\n        /* \"contracts/Constant1.sol\":3651:3862  if (bytes(a).length != bytes(b).length) {... */\n      tag_386\n      jumpi\n        /* \"contracts/Constant1.sol\":3712:3717  false */\n      0x00\n        /* \"contracts/Constant1.sol\":3705:3717  return false */\n      swap1\n      pop\n      jump(tag_385)\n        /* \"contracts/Constant1.sol\":3651:3862  if (bytes(a).length != bytes(b).length) {... */\n    tag_386:\n        /* \"contracts/Constant1.sol\":3848:3849  b */\n      dup2\n        /* \"contracts/Constant1.sol\":3831:3850  abi.encodePacked(b) */\n      add(0x20, mload(0x40))\n      tag_388\n      swap2\n      swap1\n      tag_215\n      jump\t// in\n    tag_388:\n      mload(0x40)\n      0x20\n      dup2\n      dup4\n      sub\n      sub\n      dup2\n      mstore\n      swap1\n      0x40\n      mstore\n        /* \"contracts/Constant1.sol\":3821:3851  keccak256(abi.encodePacked(b)) */\n      dup1\n      mload\n      swap1\n      0x20\n      add\n      keccak256\n        /* \"contracts/Constant1.sol\":3798:3799  a */\n      dup4\n        /* \"contracts/Constant1.sol\":3781:3800  abi.encodePacked(a) */\n      add(0x20, mload(0x40))\n      tag_389\n      swap2\n      swap1\n      tag_215\n      jump\t// in\n    tag_389:\n      mload(0x40)\n      0x20\n      dup2\n      dup4\n      sub\n      sub\n      dup2\n      mstore\n      swap1\n      0x40\n      mstore\n        /* \"contracts/Constant1.sol\":3771:3801  keccak256(abi.encodePacked(a)) */\n      dup1\n      mload\n      swap1\n      0x20\n      add\n      keccak256\n        /* \"contracts/Constant1.sol\":3771:3851  keccak256(abi.encodePacked(a)) ==... */\n      eq\n        /* \"contracts/Constant1.sol\":3748:3851  return... */\n      swap1\n      pop\n        /* \"contracts/Constant1.sol\":3512:3868  function hashCompareWithLengthCheckInternal(... */\n    tag_385:\n      swap3\n      swap2\n      pop\n      pop\n      jump\t// out\n        /* \"@openzeppelin/contracts/utils/Context.sol\":640:736  function _msgSender() internal view virtual returns (address) {... */\n    tag_379:\n        /* \"@openzeppelin/contracts/utils/Context.sol\":693:700  address */\n      0x00\n        /* \"@openzeppelin/contracts/utils/Context.sol\":719:729  msg.sender */\n      caller\n        /* \"@openzeppelin/contracts/utils/Context.sol\":712:729  return msg.sender */\n      swap1\n      pop\n        /* \"@openzeppelin/contracts/utils/Context.sol\":640:736  function _msgSender() internal view virtual returns (address) {... */\n      swap1\n      jump\t// out\n    tag_353:\n      pop\n      dup1\n      sload\n      tag_391\n      swap1\n      tag_231\n      jump\t// in\n    tag_391:\n      0x00\n      dup3\n      sstore\n      dup1\n      0x1f\n      lt\n      tag_393\n      jumpi\n      pop\n      jump(tag_392)\n    tag_393:\n      0x1f\n      add\n      0x20\n      swap1\n      div\n      swap1\n      0x00\n      mstore\n      keccak256(0x00, 0x20)\n      swap1\n      dup2\n      add\n      swap1\n      tag_394\n      swap2\n      swap1\n      tag_395\n      jump\t// in\n    tag_394:\n    tag_392:\n      pop\n      jump\t// out\n    tag_395:\n    tag_396:\n      dup1\n      dup3\n      gt\n      iszero\n      tag_397\n      jumpi\n      0x00\n      dup2\n      0x00\n      swap1\n      sstore\n      pop\n      0x01\n      add\n      jump(tag_396)\n    tag_397:\n      pop\n      swap1\n      jump\t// out\n        /* \"#utility.yul\":7:84   */\n    tag_398:\n        /* \"#utility.yul\":44:51   */\n      0x00\n        /* \"#utility.yul\":73:78   */\n      dup2\n        /* \"#utility.yul\":62:78   */\n      swap1\n      pop\n        /* \"#utility.yul\":7:84   */\n      swap2\n      swap1\n      pop\n      jump\t// out\n        /* \"#utility.yul\":90:208   */\n    tag_399:\n        /* \"#utility.yul\":177:201   */\n      tag_477\n        /* \"#utility.yul\":195:200   */\n      dup2\n        /* \"#utility.yul\":177:201   */\n      tag_398\n      jump\t// in\n    tag_477:\n        /* \"#utility.yul\":172:175   */\n      dup3\n        /* \"#utility.yul\":165:202   */\n      mstore\n        /* \"#utility.yul\":90:208   */\n      pop\n      pop\n      jump\t// out\n        /* \"#utility.yul\":214:436   */\n    tag_56:\n        /* \"#utility.yul\":307:311   */\n      0x00\n        /* \"#utility.yul\":345:347   */\n      0x20\n        /* \"#utility.yul\":334:343   */\n      dup3\n        /* \"#utility.yul\":330:348   */\n      add\n        /* \"#utility.yul\":322:348   */\n      swap1\n      pop\n        /* \"#utility.yul\":358:429   */\n      tag_479\n        /* \"#utility.yul\":426:427   */\n      0x00\n        /* \"#utility.yul\":415:424   */\n      dup4\n        /* \"#utility.yul\":411:428   */\n      add\n        /* \"#utility.yul\":402:408   */\n      dup5\n        /* \"#utility.yul\":358:429   */\n      tag_399\n      jump\t// in\n    tag_479:\n        /* \"#utility.yul\":214:436   */\n      swap3\n      swap2\n      pop\n      pop\n      jump\t// out\n        /* \"#utility.yul\":442:517   */\n    tag_400:\n        /* \"#utility.yul\":475:481   */\n      0x00\n        /* \"#utility.yul\":508:510   */\n      0x40\n        /* \"#utility.yul\":502:511   */\n      mload\n        /* \"#utility.yul\":492:511   */\n      swap1\n      pop\n        /* \"#utility.yul\":442:517   */\n      swap1\n      jump\t// out\n        /* \"#utility.yul\":523:640   */\n    tag_401:\n        /* \"#utility.yul\":632:633   */\n      0x00\n        /* \"#utility.yul\":629:630   */\n      dup1\n        /* \"#utility.yul\":622:634   */\n      revert\n        /* \"#utility.yul\":646:763   */\n    tag_402:\n        /* \"#utility.yul\":755:756   */\n      0x00\n        /* \"#utility.yul\":752:753   */\n      dup1\n        /* \"#utility.yul\":745:757   */\n      revert\n        /* \"#utility.yul\":769:886   */\n    tag_403:\n        /* \"#utility.yul\":878:879   */\n      0x00\n        /* \"#utility.yul\":875:876   */\n      dup1\n        /* \"#utility.yul\":868:880   */\n      revert\n        /* \"#utility.yul\":892:1009   */\n    tag_404:\n        /* \"#utility.yul\":1001:1002   */\n      0x00\n        /* \"#utility.yul\":998:999   */\n      dup1\n        /* \"#utility.yul\":991:1003   */\n      revert\n        /* \"#utility.yul\":1015:1117   */\n    tag_405:\n        /* \"#utility.yul\":1056:1062   */\n      0x00\n        /* \"#utility.yul\":1107:1109   */\n      0x1f\n        /* \"#utility.yul\":1103:1110   */\n      not\n        /* \"#utility.yul\":1098:1100   */\n      0x1f\n        /* \"#utility.yul\":1091:1096   */\n      dup4\n        /* \"#utility.yul\":1087:1101   */\n      add\n        /* \"#utility.yul\":1083:1111   */\n      and\n        /* \"#utility.yul\":1073:1111   */\n      swap1\n      pop\n        /* \"#utility.yul\":1015:1117   */\n      swap2\n      swap1\n      pop\n      jump\t// out\n        /* \"#utility.yul\":1123:1303   */\n    tag_406:\n        /* \"#utility.yul\":1171:1248   */\n      0x4e487b7100000000000000000000000000000000000000000000000000000000\n        /* \"#utility.yul\":1168:1169   */\n      0x00\n        /* \"#utility.yul\":1161:1249   */\n      mstore\n        /* \"#utility.yul\":1268:1272   */\n      0x41\n        /* \"#utility.yul\":1265:1266   */\n      0x04\n        /* \"#utility.yul\":1258:1273   */\n      mstore\n        /* \"#utility.yul\":1292:1296   */\n      0x24\n        /* \"#utility.yul\":1289:1290   */\n      0x00\n        /* \"#utility.yul\":1282:1297   */\n      revert\n        /* \"#utility.yul\":1309:1590   */\n    tag_407:\n        /* \"#utility.yul\":1392:1419   */\n      tag_488\n        /* \"#utility.yul\":1414:1418   */\n      dup3\n        /* \"#utility.yul\":1392:1419   */\n      tag_405\n      jump\t// in\n    tag_488:\n        /* \"#utility.yul\":1384:1390   */\n      dup2\n        /* \"#utility.yul\":1380:1420   */\n      add\n        /* \"#utility.yul\":1522:1528   */\n      dup2\n        /* \"#utility.yul\":1510:1520   */\n      dup2\n        /* \"#utility.yul\":1507:1529   */\n      lt\n        /* \"#utility.yul\":1486:1504   */\n      0xffffffffffffffff\n        /* \"#utility.yul\":1474:1484   */\n      dup3\n        /* \"#utility.yul\":1471:1505   */\n      gt\n        /* \"#utility.yul\":1468:1530   */\n      or\n        /* \"#utility.yul\":1465:1553   */\n      iszero\n      tag_489\n      jumpi\n        /* \"#utility.yul\":1533:1551   */\n      tag_490\n      tag_406\n      jump\t// in\n    tag_490:\n        /* \"#utility.yul\":1465:1553   */\n    tag_489:\n        /* \"#utility.yul\":1573:1583   */\n      dup1\n        /* \"#utility.yul\":1569:1571   */\n      0x40\n        /* \"#utility.yul\":1562:1584   */\n      mstore\n        /* \"#utility.yul\":1352:1590   */\n      pop\n        /* \"#utility.yul\":1309:1590   */\n      pop\n      pop\n      jump\t// out\n        /* \"#utility.yul\":1596:1725   */\n    tag_408:\n        /* \"#utility.yul\":1630:1636   */\n      0x00\n        /* \"#utility.yul\":1657:1677   */\n      tag_492\n      tag_400\n      jump\t// in\n    tag_492:\n        /* \"#utility.yul\":1647:1677   */\n      swap1\n      pop\n        /* \"#utility.yul\":1686:1719   */\n      tag_493\n        /* \"#utility.yul\":1714:1718   */\n      dup3\n        /* \"#utility.yul\":1706:1712   */\n      dup3\n        /* \"#utility.yul\":1686:1719   */\n      tag_407\n      jump\t// in\n    tag_493:\n        /* \"#utility.yul\":1596:1725   */\n      swap2\n      swap1\n      pop\n      jump\t// out\n        /* \"#utility.yul\":1731:2039   */\n    tag_409:\n        /* \"#utility.yul\":1793:1797   */\n      0x00\n        /* \"#utility.yul\":1883:1901   */\n      0xffffffffffffffff\n        /* \"#utility.yul\":1875:1881   */\n      dup3\n        /* \"#utility.yul\":1872:1902   */\n      gt\n        /* \"#utility.yul\":1869:1925   */\n      iszero\n      tag_495\n      jumpi\n        /* \"#utility.yul\":1905:1923   */\n      tag_496\n      tag_406\n      jump\t// in\n    tag_496:\n        /* \"#utility.yul\":1869:1925   */\n    tag_495:\n        /* \"#utility.yul\":1943:1972   */\n      tag_497\n        /* \"#utility.yul\":1965:1971   */\n      dup3\n        /* \"#utility.yul\":1943:1972   */\n      tag_405\n      jump\t// in\n    tag_497:\n        /* \"#utility.yul\":1935:1972   */\n      swap1\n      pop\n        /* \"#utility.yul\":2027:2031   */\n      0x20\n        /* \"#utility.yul\":2021:2025   */\n      dup2\n        /* \"#utility.yul\":2017:2032   */\n      add\n        /* \"#utility.yul\":2009:2032   */\n      swap1\n      pop\n        /* \"#utility.yul\":1731:2039   */\n      swap2\n      swap1\n      pop\n      jump\t// out\n        /* \"#utility.yul\":2045:2191   */\n    tag_410:\n        /* \"#utility.yul\":2142:2148   */\n      dup3\n        /* \"#utility.yul\":2137:2140   */\n      dup2\n        /* \"#utility.yul\":2132:2135   */\n      dup4\n        /* \"#utility.yul\":2119:2149   */\n      calldatacopy\n        /* \"#utility.yul\":2183:2184   */\n      0x00\n        /* \"#utility.yul\":2174:2180   */\n      dup4\n        /* \"#utility.yul\":2169:2172   */\n      dup4\n        /* \"#utility.yul\":2165:2181   */\n      add\n        /* \"#utility.yul\":2158:2185   */\n      mstore\n        /* \"#utility.yul\":2045:2191   */\n      pop\n      pop\n      pop\n      jump\t// out\n        /* \"#utility.yul\":2197:2622   */\n    tag_411:\n        /* \"#utility.yul\":2275:2280   */\n      0x00\n        /* \"#utility.yul\":2300:2366   */\n      tag_500\n        /* \"#utility.yul\":2316:2365   */\n      tag_501\n        /* \"#utility.yul\":2358:2364   */\n      dup5\n        /* \"#utility.yul\":2316:2365   */\n      tag_409\n      jump\t// in\n    tag_501:\n        /* \"#utility.yul\":2300:2366   */\n      tag_408\n      jump\t// in\n    tag_500:\n        /* \"#utility.yul\":2291:2366   */\n      swap1\n      pop\n        /* \"#utility.yul\":2389:2395   */\n      dup3\n        /* \"#utility.yul\":2382:2387   */\n      dup2\n        /* \"#utility.yul\":2375:2396   */\n      mstore\n        /* \"#utility.yul\":2427:2431   */\n      0x20\n        /* \"#utility.yul\":2420:2425   */\n      dup2\n        /* \"#utility.yul\":2416:2432   */\n      add\n        /* \"#utility.yul\":2465:2468   */\n      dup5\n        /* \"#utility.yul\":2456:2462   */\n      dup5\n        /* \"#utility.yul\":2451:2454   */\n      dup5\n        /* \"#utility.yul\":2447:2463   */\n      add\n        /* \"#utility.yul\":2444:2469   */\n      gt\n        /* \"#utility.yul\":2441:2553   */\n      iszero\n      tag_502\n      jumpi\n        /* \"#utility.yul\":2472:2551   */\n      tag_503\n      tag_404\n      jump\t// in\n    tag_503:\n        /* \"#utility.yul\":2441:2553   */\n    tag_502:\n        /* \"#utility.yul\":2562:2616   */\n      tag_504\n        /* \"#utility.yul\":2609:2615   */\n      dup5\n        /* \"#utility.yul\":2604:2607   */\n      dup3\n        /* \"#utility.yul\":2599:2602   */\n      dup6\n        /* \"#utility.yul\":2562:2616   */\n      tag_410\n      jump\t// in\n    tag_504:\n        /* \"#utility.yul\":2281:2622   */\n      pop\n        /* \"#utility.yul\":2197:2622   */\n      swap4\n      swap3\n      pop\n      pop\n      pop\n      jump\t// out\n        /* \"#utility.yul\":2642:2982   */\n    tag_412:\n        /* \"#utility.yul\":2698:2703   */\n      0x00\n        /* \"#utility.yul\":2747:2750   */\n      dup3\n        /* \"#utility.yul\":2740:2744   */\n      0x1f\n        /* \"#utility.yul\":2732:2738   */\n      dup4\n        /* \"#utility.yul\":2728:2745   */\n      add\n        /* \"#utility.yul\":2724:2751   */\n      slt\n        /* \"#utility.yul\":2714:2836   */\n      tag_506\n      jumpi\n        /* \"#utility.yul\":2755:2834   */\n      tag_507\n      tag_403\n      jump\t// in\n    tag_507:\n        /* \"#utility.yul\":2714:2836   */\n    tag_506:\n        /* \"#utility.yul\":2872:2878   */\n      dup2\n        /* \"#utility.yul\":2859:2879   */\n      calldataload\n        /* \"#utility.yul\":2897:2976   */\n      tag_508\n        /* \"#utility.yul\":2972:2975   */\n      dup5\n        /* \"#utility.yul\":2964:2970   */\n      dup3\n        /* \"#utility.yul\":2957:2961   */\n      0x20\n        /* \"#utility.yul\":2949:2955   */\n      dup7\n        /* \"#utility.yul\":2945:2962   */\n      add\n        /* \"#utility.yul\":2897:2976   */\n      tag_411\n      jump\t// in\n    tag_508:\n        /* \"#utility.yul\":2888:2976   */\n      swap2\n      pop\n        /* \"#utility.yul\":2704:2982   */\n      pop\n        /* \"#utility.yul\":2642:2982   */\n      swap3\n      swap2\n      pop\n      pop\n      jump\t// out\n        /* \"#utility.yul\":2988:3497   */\n    tag_62:\n        /* \"#utility.yul\":3057:3063   */\n      0x00\n        /* \"#utility.yul\":3106:3108   */\n      0x20\n        /* \"#utility.yul\":3094:3103   */\n      dup3\n        /* \"#utility.yul\":3085:3092   */\n      dup5\n        /* \"#utility.yul\":3081:3104   */\n      sub\n        /* \"#utility.yul\":3077:3109   */\n      slt\n        /* \"#utility.yul\":3074:3193   */\n      iszero\n      tag_510\n      jumpi\n        /* \"#utility.yul\":3112:3191   */\n      tag_511\n      tag_401\n      jump\t// in\n    tag_511:\n        /* \"#utility.yul\":3074:3193   */\n    tag_510:\n        /* \"#utility.yul\":3260:3261   */\n      0x00\n        /* \"#utility.yul\":3249:3258   */\n      dup3\n        /* \"#utility.yul\":3245:3262   */\n      add\n        /* \"#utility.yul\":3232:3263   */\n      calldataload\n        /* \"#utility.yul\":3290:3308   */\n      0xffffffffffffffff\n        /* \"#utility.yul\":3282:3288   */\n      dup2\n        /* \"#utility.yul\":3279:3309   */\n      gt\n        /* \"#utility.yul\":3276:3393   */\n      iszero\n      tag_512\n      jumpi\n        /* \"#utility.yul\":3312:3391   */\n      tag_513\n      tag_402\n      jump\t// in\n    tag_513:\n        /* \"#utility.yul\":3276:3393   */\n    tag_512:\n        /* \"#utility.yul\":3417:3480   */\n      tag_514\n        /* \"#utility.yul\":3472:3479   */\n      dup5\n        /* \"#utility.yul\":3463:3469   */\n      dup3\n        /* \"#utility.yul\":3452:3461   */\n      dup6\n        /* \"#utility.yul\":3448:3470   */\n      add\n        /* \"#utility.yul\":3417:3480   */\n      tag_412\n      jump\t// in\n    tag_514:\n        /* \"#utility.yul\":3407:3480   */\n      swap2\n      pop\n        /* \"#utility.yul\":3203:3490   */\n      pop\n        /* \"#utility.yul\":2988:3497   */\n      swap3\n      swap2\n      pop\n      pop\n      jump\t// out\n        /* \"#utility.yul\":3503:3592   */\n    tag_413:\n        /* \"#utility.yul\":3539:3546   */\n      0x00\n        /* \"#utility.yul\":3579:3585   */\n      0xffff\n        /* \"#utility.yul\":3572:3577   */\n      dup3\n        /* \"#utility.yul\":3568:3586   */\n      and\n        /* \"#utility.yul\":3557:3586   */\n      swap1\n      pop\n        /* \"#utility.yul\":3503:3592   */\n      swap2\n      swap1\n      pop\n      jump\t// out\n        /* \"#utility.yul\":3598:3713   */\n    tag_414:\n        /* \"#utility.yul\":3683:3706   */\n      tag_517\n        /* \"#utility.yul\":3700:3705   */\n      dup2\n        /* \"#utility.yul\":3683:3706   */\n      tag_413\n      jump\t// in\n    tag_517:\n        /* \"#utility.yul\":3678:3681   */\n      dup3\n        /* \"#utility.yul\":3671:3707   */\n      mstore\n        /* \"#utility.yul\":3598:3713   */\n      pop\n      pop\n      jump\t// out\n        /* \"#utility.yul\":3719:3937   */\n    tag_68:\n        /* \"#utility.yul\":3810:3814   */\n      0x00\n        /* \"#utility.yul\":3848:3850   */\n      0x20\n        /* \"#utility.yul\":3837:3846   */\n      dup3\n        /* \"#utility.yul\":3833:3851   */\n      add\n        /* \"#utility.yul\":3825:3851   */\n      swap1\n      pop\n        /* \"#utility.yul\":3861:3930   */\n      tag_519\n        /* \"#utility.yul\":3927:3928   */\n      0x00\n        /* \"#utility.yul\":3916:3925   */\n      dup4\n        /* \"#utility.yul\":3912:3929   */\n      add\n        /* \"#utility.yul\":3903:3909   */\n      dup5\n        /* \"#utility.yul\":3861:3930   */\n      tag_414\n      jump\t// in\n    tag_519:\n        /* \"#utility.yul\":3719:3937   */\n      swap3\n      swap2\n      pop\n      pop\n      jump\t// out\n        /* \"#utility.yul\":3943:4069   */\n    tag_415:\n        /* \"#utility.yul\":3980:3987   */\n      0x00\n        /* \"#utility.yul\":4020:4062   */\n      0xffffffffffffffffffffffffffffffffffffffff\n        /* \"#utility.yul\":4013:4018   */\n      dup3\n        /* \"#utility.yul\":4009:4063   */\n      and\n        /* \"#utility.yul\":3998:4063   */\n      swap1\n      pop\n        /* \"#utility.yul\":3943:4069   */\n      swap2\n      swap1\n      pop\n      jump\t// out\n        /* \"#utility.yul\":4075:4171   */\n    tag_416:\n        /* \"#utility.yul\":4112:4119   */\n      0x00\n        /* \"#utility.yul\":4141:4165   */\n      tag_522\n        /* \"#utility.yul\":4159:4164   */\n      dup3\n        /* \"#utility.yul\":4141:4165   */\n      tag_415\n      jump\t// in\n    tag_522:\n        /* \"#utility.yul\":4130:4165   */\n      swap1\n      pop\n        /* \"#utility.yul\":4075:4171   */\n      swap2\n      swap1\n      pop\n      jump\t// out\n        /* \"#utility.yul\":4177:4299   */\n    tag_417:\n        /* \"#utility.yul\":4250:4274   */\n      tag_524\n        /* \"#utility.yul\":4268:4273   */\n      dup2\n        /* \"#utility.yul\":4250:4274   */\n      tag_416\n      jump\t// in\n    tag_524:\n        /* \"#utility.yul\":4243:4248   */\n      dup2\n        /* \"#utility.yul\":4240:4275   */\n      eq\n        /* \"#utility.yul\":4230:4293   */\n      tag_525\n      jumpi\n        /* \"#utility.yul\":4289:4290   */\n      0x00\n        /* \"#utility.yul\":4286:4287   */\n      dup1\n        /* \"#utility.yul\":4279:4291   */\n      revert\n        /* \"#utility.yul\":4230:4293   */\n    tag_525:\n        /* \"#utility.yul\":4177:4299   */\n      pop\n      jump\t// out\n        /* \"#utility.yul\":4305:4444   */\n    tag_418:\n        /* \"#utility.yul\":4351:4356   */\n      0x00\n        /* \"#utility.yul\":4389:4395   */\n      dup2\n        /* \"#utility.yul\":4376:4396   */\n      calldataload\n        /* \"#utility.yul\":4367:4396   */\n      swap1\n      pop\n        /* \"#utility.yul\":4405:4438   */\n      tag_527\n        /* \"#utility.yul\":4432:4437   */\n      dup2\n        /* \"#utility.yul\":4405:4438   */\n      tag_417\n      jump\t// in\n    tag_527:\n        /* \"#utility.yul\":4305:4444   */\n      swap3\n      swap2\n      pop\n      pop\n      jump\t// out\n        /* \"#utility.yul\":4450:4779   */\n    tag_75:\n        /* \"#utility.yul\":4509:4515   */\n      0x00\n        /* \"#utility.yul\":4558:4560   */\n      0x20\n        /* \"#utility.yul\":4546:4555   */\n      dup3\n        /* \"#utility.yul\":4537:4544   */\n      dup5\n        /* \"#utility.yul\":4533:4556   */\n      sub\n        /* \"#utility.yul\":4529:4561   */\n      slt\n        /* \"#utility.yul\":4526:4645   */\n      iszero\n      tag_529\n      jumpi\n        /* \"#utility.yul\":4564:4643   */\n      tag_530\n      tag_401\n      jump\t// in\n    tag_530:\n        /* \"#utility.yul\":4526:4645   */\n    tag_529:\n        /* \"#utility.yul\":4684:4685   */\n      0x00\n        /* \"#utility.yul\":4709:4762   */\n      tag_531\n        /* \"#utility.yul\":4754:4761   */\n      dup5\n        /* \"#utility.yul\":4745:4751   */\n      dup3\n        /* \"#utility.yul\":4734:4743   */\n      dup6\n        /* \"#utility.yul\":4730:4752   */\n      add\n        /* \"#utility.yul\":4709:4762   */\n      tag_418\n      jump\t// in\n    tag_531:\n        /* \"#utility.yul\":4699:4762   */\n      swap2\n      pop\n        /* \"#utility.yul\":4655:4772   */\n      pop\n        /* \"#utility.yul\":4450:4779   */\n      swap3\n      swap2\n      pop\n      pop\n      jump\t// out\n        /* \"#utility.yul\":4785:4875   */\n    tag_419:\n        /* \"#utility.yul\":4819:4826   */\n      0x00\n        /* \"#utility.yul\":4862:4867   */\n      dup2\n        /* \"#utility.yul\":4855:4868   */\n      iszero\n        /* \"#utility.yul\":4848:4869   */\n      iszero\n        /* \"#utility.yul\":4837:4869   */\n      swap1\n      pop\n        /* \"#utility.yul\":4785:4875   */\n      swap2\n      swap1\n      pop\n      jump\t// out\n        /* \"#utility.yul\":4881:4990   */\n    tag_420:\n        /* \"#utility.yul\":4962:4983   */\n      tag_534\n        /* \"#utility.yul\":4977:4982   */\n      dup2\n        /* \"#utility.yul\":4962:4983   */\n      tag_419\n      jump\t// in\n    tag_534:\n        /* \"#utility.yul\":4957:4960   */\n      dup3\n        /* \"#utility.yul\":4950:4984   */\n      mstore\n        /* \"#utility.yul\":4881:4990   */\n      pop\n      pop\n      jump\t// out\n        /* \"#utility.yul\":4996:5206   */\n    tag_78:\n        /* \"#utility.yul\":5083:5087   */\n      0x00\n        /* \"#utility.yul\":5121:5123   */\n      0x20\n        /* \"#utility.yul\":5110:5119   */\n      dup3\n        /* \"#utility.yul\":5106:5124   */\n      add\n        /* \"#utility.yul\":5098:5124   */\n      swap1\n      pop\n        /* \"#utility.yul\":5134:5199   */\n      tag_536\n        /* \"#utility.yul\":5196:5197   */\n      0x00\n        /* \"#utility.yul\":5185:5194   */\n      dup4\n        /* \"#utility.yul\":5181:5198   */\n      add\n        /* \"#utility.yul\":5172:5178   */\n      dup5\n        /* \"#utility.yul\":5134:5199   */\n      tag_420\n      jump\t// in\n    tag_536:\n        /* \"#utility.yul\":4996:5206   */\n      swap3\n      swap2\n      pop\n      pop\n      jump\t// out\n        /* \"#utility.yul\":5212:5336   */\n    tag_421:\n        /* \"#utility.yul\":5289:5295   */\n      0x00\n        /* \"#utility.yul\":5323:5328   */\n      dup2\n        /* \"#utility.yul\":5317:5329   */\n      mload\n        /* \"#utility.yul\":5307:5329   */\n      swap1\n      pop\n        /* \"#utility.yul\":5212:5336   */\n      swap2\n      swap1\n      pop\n      jump\t// out\n        /* \"#utility.yul\":5342:5536   */\n    tag_422:\n        /* \"#utility.yul\":5451:5462   */\n      0x00\n        /* \"#utility.yul\":5485:5491   */\n      dup3\n        /* \"#utility.yul\":5480:5483   */\n      dup3\n        /* \"#utility.yul\":5473:5492   */\n      mstore\n        /* \"#utility.yul\":5525:5529   */\n      0x20\n        /* \"#utility.yul\":5520:5523   */\n      dup3\n        /* \"#utility.yul\":5516:5530   */\n      add\n        /* \"#utility.yul\":5501:5530   */\n      swap1\n      pop\n        /* \"#utility.yul\":5342:5536   */\n      swap3\n      swap2\n      pop\n      pop\n      jump\t// out\n        /* \"#utility.yul\":5542:5684   */\n    tag_423:\n        /* \"#utility.yul\":5619:5623   */\n      0x00\n        /* \"#utility.yul\":5642:5645   */\n      dup2\n        /* \"#utility.yul\":5634:5645   */\n      swap1\n      pop\n        /* \"#utility.yul\":5672:5676   */\n      0x20\n        /* \"#utility.yul\":5667:5670   */\n      dup3\n        /* \"#utility.yul\":5663:5677   */\n      add\n        /* \"#utility.yul\":5655:5677   */\n      swap1\n      pop\n        /* \"#utility.yul\":5542:5684   */\n      swap2\n      swap1\n      pop\n      jump\t// out\n        /* \"#utility.yul\":5690:5789   */\n    tag_424:\n        /* \"#utility.yul\":5742:5748   */\n      0x00\n        /* \"#utility.yul\":5776:5781   */\n      dup2\n        /* \"#utility.yul\":5770:5782   */\n      mload\n        /* \"#utility.yul\":5760:5782   */\n      swap1\n      pop\n        /* \"#utility.yul\":5690:5789   */\n      swap2\n      swap1\n      pop\n      jump\t// out\n        /* \"#utility.yul\":5795:5954   */\n    tag_425:\n        /* \"#utility.yul\":5869:5880   */\n      0x00\n        /* \"#utility.yul\":5903:5909   */\n      dup3\n        /* \"#utility.yul\":5898:5901   */\n      dup3\n        /* \"#utility.yul\":5891:5910   */\n      mstore\n        /* \"#utility.yul\":5943:5947   */\n      0x20\n        /* \"#utility.yul\":5938:5941   */\n      dup3\n        /* \"#utility.yul\":5934:5948   */\n      add\n        /* \"#utility.yul\":5919:5948   */\n      swap1\n      pop\n        /* \"#utility.yul\":5795:5954   */\n      swap3\n      swap2\n      pop\n      pop\n      jump\t// out\n        /* \"#utility.yul\":5960:6206   */\n    tag_426:\n        /* \"#utility.yul\":6041:6042   */\n      0x00\n        /* \"#utility.yul\":6051:6164   */\n    tag_543:\n        /* \"#utility.yul\":6065:6071   */\n      dup4\n        /* \"#utility.yul\":6062:6063   */\n      dup2\n        /* \"#utility.yul\":6059:6072   */\n      lt\n        /* \"#utility.yul\":6051:6164   */\n      iszero\n      tag_545\n      jumpi\n        /* \"#utility.yul\":6150:6151   */\n      dup1\n        /* \"#utility.yul\":6145:6148   */\n      dup3\n        /* \"#utility.yul\":6141:6152   */\n      add\n        /* \"#utility.yul\":6135:6153   */\n      mload\n        /* \"#utility.yul\":6131:6132   */\n      dup2\n        /* \"#utility.yul\":6126:6129   */\n      dup5\n        /* \"#utility.yul\":6122:6133   */\n      add\n        /* \"#utility.yul\":6115:6154   */\n      mstore\n        /* \"#utility.yul\":6087:6089   */\n      0x20\n        /* \"#utility.yul\":6084:6085   */\n      dup2\n        /* \"#utility.yul\":6080:6090   */\n      add\n        /* \"#utility.yul\":6075:6090   */\n      swap1\n      pop\n        /* \"#utility.yul\":6051:6164   */\n      jump(tag_543)\n    tag_545:\n        /* \"#utility.yul\":6198:6199   */\n      0x00\n        /* \"#utility.yul\":6189:6195   */\n      dup5\n        /* \"#utility.yul\":6184:6187   */\n      dup5\n        /* \"#utility.yul\":6180:6196   */\n      add\n        /* \"#utility.yul\":6173:6200   */\n      mstore\n        /* \"#utility.yul\":6022:6206   */\n      pop\n        /* \"#utility.yul\":5960:6206   */\n      pop\n      pop\n      pop\n      jump\t// out\n        /* \"#utility.yul\":6212:6569   */\n    tag_427:\n        /* \"#utility.yul\":6290:6293   */\n      0x00\n        /* \"#utility.yul\":6318:6357   */\n      tag_547\n        /* \"#utility.yul\":6351:6356   */\n      dup3\n        /* \"#utility.yul\":6318:6357   */\n      tag_424\n      jump\t// in\n    tag_547:\n        /* \"#utility.yul\":6373:6434   */\n      tag_548\n        /* \"#utility.yul\":6427:6433   */\n      dup2\n        /* \"#utility.yul\":6422:6425   */\n      dup6\n        /* \"#utility.yul\":6373:6434   */\n      tag_425\n      jump\t// in\n    tag_548:\n        /* \"#utility.yul\":6366:6434   */\n      swap4\n      pop\n        /* \"#utility.yul\":6443:6508   */\n      tag_549\n        /* \"#utility.yul\":6501:6507   */\n      dup2\n        /* \"#utility.yul\":6496:6499   */\n      dup6\n        /* \"#utility.yul\":6489:6493   */\n      0x20\n        /* \"#utility.yul\":6482:6487   */\n      dup7\n        /* \"#utility.yul\":6478:6494   */\n      add\n        /* \"#utility.yul\":6443:6508   */\n      tag_426\n      jump\t// in\n    tag_549:\n        /* \"#utility.yul\":6533:6562   */\n      tag_550\n        /* \"#utility.yul\":6555:6561   */\n      dup2\n        /* \"#utility.yul\":6533:6562   */\n      tag_405\n      jump\t// in\n    tag_550:\n        /* \"#utility.yul\":6528:6531   */\n      dup5\n        /* \"#utility.yul\":6524:6563   */\n      add\n        /* \"#utility.yul\":6517:6563   */\n      swap2\n      pop\n        /* \"#utility.yul\":6294:6569   */\n      pop\n        /* \"#utility.yul\":6212:6569   */\n      swap3\n      swap2\n      pop\n      pop\n      jump\t// out\n        /* \"#utility.yul\":6575:6771   */\n    tag_428:\n        /* \"#utility.yul\":6664:6674   */\n      0x00\n        /* \"#utility.yul\":6699:6765   */\n      tag_552\n        /* \"#utility.yul\":6761:6764   */\n      dup4\n        /* \"#utility.yul\":6753:6759   */\n      dup4\n        /* \"#utility.yul\":6699:6765   */\n      tag_427\n      jump\t// in\n    tag_552:\n        /* \"#utility.yul\":6685:6765   */\n      swap1\n      pop\n        /* \"#utility.yul\":6575:6771   */\n      swap3\n      swap2\n      pop\n      pop\n      jump\t// out\n        /* \"#utility.yul\":6777:6900   */\n    tag_429:\n        /* \"#utility.yul\":6857:6861   */\n      0x00\n        /* \"#utility.yul\":6889:6893   */\n      0x20\n        /* \"#utility.yul\":6884:6887   */\n      dup3\n        /* \"#utility.yul\":6880:6894   */\n      add\n        /* \"#utility.yul\":6872:6894   */\n      swap1\n      pop\n        /* \"#utility.yul\":6777:6900   */\n      swap2\n      swap1\n      pop\n      jump\t// out\n        /* \"#utility.yul\":6934:7925   */\n    tag_430:\n        /* \"#utility.yul\":7073:7076   */\n      0x00\n        /* \"#utility.yul\":7102:7166   */\n      tag_555\n        /* \"#utility.yul\":7160:7165   */\n      dup3\n        /* \"#utility.yul\":7102:7166   */\n      tag_421\n      jump\t// in\n    tag_555:\n        /* \"#utility.yul\":7182:7278   */\n      tag_556\n        /* \"#utility.yul\":7271:7277   */\n      dup2\n        /* \"#utility.yul\":7266:7269   */\n      dup6\n        /* \"#utility.yul\":7182:7278   */\n      tag_422\n      jump\t// in\n    tag_556:\n        /* \"#utility.yul\":7175:7278   */\n      swap4\n      pop\n        /* \"#utility.yul\":7304:7307   */\n      dup4\n        /* \"#utility.yul\":7349:7353   */\n      0x20\n        /* \"#utility.yul\":7341:7347   */\n      dup3\n        /* \"#utility.yul\":7337:7354   */\n      mul\n        /* \"#utility.yul\":7332:7335   */\n      dup6\n        /* \"#utility.yul\":7328:7355   */\n      add\n        /* \"#utility.yul\":7379:7445   */\n      tag_557\n        /* \"#utility.yul\":7439:7444   */\n      dup6\n        /* \"#utility.yul\":7379:7445   */\n      tag_423\n      jump\t// in\n    tag_557:\n        /* \"#utility.yul\":7468:7475   */\n      dup1\n        /* \"#utility.yul\":7499:7500   */\n      0x00\n        /* \"#utility.yul\":7484:7880   */\n    tag_558:\n        /* \"#utility.yul\":7509:7515   */\n      dup6\n        /* \"#utility.yul\":7506:7507   */\n      dup2\n        /* \"#utility.yul\":7503:7516   */\n      lt\n        /* \"#utility.yul\":7484:7880   */\n      iszero\n      tag_560\n      jumpi\n        /* \"#utility.yul\":7580:7589   */\n      dup5\n        /* \"#utility.yul\":7574:7578   */\n      dup5\n        /* \"#utility.yul\":7570:7590   */\n      sub\n        /* \"#utility.yul\":7565:7568   */\n      dup10\n        /* \"#utility.yul\":7558:7591   */\n      mstore\n        /* \"#utility.yul\":7631:7637   */\n      dup2\n        /* \"#utility.yul\":7625:7638   */\n      mload\n        /* \"#utility.yul\":7659:7743   */\n      tag_561\n        /* \"#utility.yul\":7738:7742   */\n      dup6\n        /* \"#utility.yul\":7723:7736   */\n      dup3\n        /* \"#utility.yul\":7659:7743   */\n      tag_428\n      jump\t// in\n    tag_561:\n        /* \"#utility.yul\":7651:7743   */\n      swap5\n      pop\n        /* \"#utility.yul\":7766:7836   */\n      tag_562\n        /* \"#utility.yul\":7829:7835   */\n      dup4\n        /* \"#utility.yul\":7766:7836   */\n      tag_429\n      jump\t// in\n    tag_562:\n        /* \"#utility.yul\":7756:7836   */\n      swap3\n      pop\n        /* \"#utility.yul\":7865:7869   */\n      0x20\n        /* \"#utility.yul\":7860:7863   */\n      dup11\n        /* \"#utility.yul\":7856:7870   */\n      add\n        /* \"#utility.yul\":7849:7870   */\n      swap10\n      pop\n        /* \"#utility.yul\":7544:7880   */\n      pop\n        /* \"#utility.yul\":7531:7532   */\n      0x01\n        /* \"#utility.yul\":7528:7529   */\n      dup2\n        /* \"#utility.yul\":7524:7533   */\n      add\n        /* \"#utility.yul\":7519:7533   */\n      swap1\n      pop\n        /* \"#utility.yul\":7484:7880   */\n      jump(tag_558)\n    tag_560:\n        /* \"#utility.yul\":7488:7502   */\n      pop\n        /* \"#utility.yul\":7896:7900   */\n      dup3\n        /* \"#utility.yul\":7889:7900   */\n      swap8\n      pop\n        /* \"#utility.yul\":7916:7919   */\n      dup8\n        /* \"#utility.yul\":7909:7919   */\n      swap6\n      pop\n        /* \"#utility.yul\":7078:7925   */\n      pop\n      pop\n      pop\n      pop\n      pop\n        /* \"#utility.yul\":6934:7925   */\n      swap3\n      swap2\n      pop\n      pop\n      jump\t// out\n        /* \"#utility.yul\":7931:8344   */\n    tag_82:\n        /* \"#utility.yul\":8094:8098   */\n      0x00\n        /* \"#utility.yul\":8132:8134   */\n      0x20\n        /* \"#utility.yul\":8121:8130   */\n      dup3\n        /* \"#utility.yul\":8117:8135   */\n      add\n        /* \"#utility.yul\":8109:8135   */\n      swap1\n      pop\n        /* \"#utility.yul\":8181:8190   */\n      dup2\n        /* \"#utility.yul\":8175:8179   */\n      dup2\n        /* \"#utility.yul\":8171:8191   */\n      sub\n        /* \"#utility.yul\":8167:8168   */\n      0x00\n        /* \"#utility.yul\":8156:8165   */\n      dup4\n        /* \"#utility.yul\":8152:8169   */\n      add\n        /* \"#utility.yul\":8145:8192   */\n      mstore\n        /* \"#utility.yul\":8209:8337   */\n      tag_564\n        /* \"#utility.yul\":8332:8336   */\n      dup2\n        /* \"#utility.yul\":8323:8329   */\n      dup5\n        /* \"#utility.yul\":8209:8337   */\n      tag_430\n      jump\t// in\n    tag_564:\n        /* \"#utility.yul\":8201:8337   */\n      swap1\n      pop\n        /* \"#utility.yul\":7931:8344   */\n      swap3\n      swap2\n      pop\n      pop\n      jump\t// out\n        /* \"#utility.yul\":8350:8472   */\n    tag_431:\n        /* \"#utility.yul\":8423:8447   */\n      tag_566\n        /* \"#utility.yul\":8441:8446   */\n      dup2\n        /* \"#utility.yul\":8423:8447   */\n      tag_398\n      jump\t// in\n    tag_566:\n        /* \"#utility.yul\":8416:8421   */\n      dup2\n        /* \"#utility.yul\":8413:8448   */\n      eq\n        /* \"#utility.yul\":8403:8466   */\n      tag_567\n      jumpi\n        /* \"#utility.yul\":8462:8463   */\n      0x00\n        /* \"#utility.yul\":8459:8460   */\n      dup1\n        /* \"#utility.yul\":8452:8464   */\n      revert\n        /* \"#utility.yul\":8403:8466   */\n    tag_567:\n        /* \"#utility.yul\":8350:8472   */\n      pop\n      jump\t// out\n        /* \"#utility.yul\":8478:8617   */\n    tag_432:\n        /* \"#utility.yul\":8524:8529   */\n      0x00\n        /* \"#utility.yul\":8562:8568   */\n      dup2\n        /* \"#utility.yul\":8549:8569   */\n      calldataload\n        /* \"#utility.yul\":8540:8569   */\n      swap1\n      pop\n        /* \"#utility.yul\":8578:8611   */\n      tag_569\n        /* \"#utility.yul\":8605:8610   */\n      dup2\n        /* \"#utility.yul\":8578:8611   */\n      tag_431\n      jump\t// in\n    tag_569:\n        /* \"#utility.yul\":8478:8617   */\n      swap3\n      swap2\n      pop\n      pop\n      jump\t// out\n        /* \"#utility.yul\":8623:8952   */\n    tag_94:\n        /* \"#utility.yul\":8682:8688   */\n      0x00\n        /* \"#utility.yul\":8731:8733   */\n      0x20\n        /* \"#utility.yul\":8719:8728   */\n      dup3\n        /* \"#utility.yul\":8710:8717   */\n      dup5\n        /* \"#utility.yul\":8706:8729   */\n      sub\n        /* \"#utility.yul\":8702:8734   */\n      slt\n        /* \"#utility.yul\":8699:8818   */\n      iszero\n      tag_571\n      jumpi\n        /* \"#utility.yul\":8737:8816   */\n      tag_572\n      tag_401\n      jump\t// in\n    tag_572:\n        /* \"#utility.yul\":8699:8818   */\n    tag_571:\n        /* \"#utility.yul\":8857:8858   */\n      0x00\n        /* \"#utility.yul\":8882:8935   */\n      tag_573\n        /* \"#utility.yul\":8927:8934   */\n      dup5\n        /* \"#utility.yul\":8918:8924   */\n      dup3\n        /* \"#utility.yul\":8907:8916   */\n      dup6\n        /* \"#utility.yul\":8903:8925   */\n      add\n        /* \"#utility.yul\":8882:8935   */\n      tag_432\n      jump\t// in\n    tag_573:\n        /* \"#utility.yul\":8872:8935   */\n      swap2\n      pop\n        /* \"#utility.yul\":8828:8945   */\n      pop\n        /* \"#utility.yul\":8623:8952   */\n      swap3\n      swap2\n      pop\n      pop\n      jump\t// out\n        /* \"#utility.yul\":8958:9612   */\n    tag_102:\n        /* \"#utility.yul\":9036:9042   */\n      0x00\n        /* \"#utility.yul\":9044:9050   */\n      dup1\n        /* \"#utility.yul\":9093:9095   */\n      0x40\n        /* \"#utility.yul\":9081:9090   */\n      dup4\n        /* \"#utility.yul\":9072:9079   */\n      dup6\n        /* \"#utility.yul\":9068:9091   */\n      sub\n        /* \"#utility.yul\":9064:9096   */\n      slt\n        /* \"#utility.yul\":9061:9180   */\n      iszero\n      tag_575\n      jumpi\n        /* \"#utility.yul\":9099:9178   */\n      tag_576\n      tag_401\n      jump\t// in\n    tag_576:\n        /* \"#utility.yul\":9061:9180   */\n    tag_575:\n        /* \"#utility.yul\":9247:9248   */\n      0x00\n        /* \"#utility.yul\":9236:9245   */\n      dup4\n        /* \"#utility.yul\":9232:9249   */\n      add\n        /* \"#utility.yul\":9219:9250   */\n      calldataload\n        /* \"#utility.yul\":9277:9295   */\n      0xffffffffffffffff\n        /* \"#utility.yul\":9269:9275   */\n      dup2\n        /* \"#utility.yul\":9266:9296   */\n      gt\n        /* \"#utility.yul\":9263:9380   */\n      iszero\n      tag_577\n      jumpi\n        /* \"#utility.yul\":9299:9378   */\n      tag_578\n      tag_402\n      jump\t// in\n    tag_578:\n        /* \"#utility.yul\":9263:9380   */\n    tag_577:\n        /* \"#utility.yul\":9404:9467   */\n      tag_579\n        /* \"#utility.yul\":9459:9466   */\n      dup6\n        /* \"#utility.yul\":9450:9456   */\n      dup3\n        /* \"#utility.yul\":9439:9448   */\n      dup7\n        /* \"#utility.yul\":9435:9457   */\n      add\n        /* \"#utility.yul\":9404:9467   */\n      tag_412\n      jump\t// in\n    tag_579:\n        /* \"#utility.yul\":9394:9467   */\n      swap3\n      pop\n        /* \"#utility.yul\":9190:9477   */\n      pop\n        /* \"#utility.yul\":9516:9518   */\n      0x20\n        /* \"#utility.yul\":9542:9595   */\n      tag_580\n        /* \"#utility.yul\":9587:9594   */\n      dup6\n        /* \"#utility.yul\":9578:9584   */\n      dup3\n        /* \"#utility.yul\":9567:9576   */\n      dup7\n        /* \"#utility.yul\":9563:9585   */\n      add\n        /* \"#utility.yul\":9542:9595   */\n      tag_418\n      jump\t// in\n    tag_580:\n        /* \"#utility.yul\":9532:9595   */\n      swap2\n      pop\n        /* \"#utility.yul\":9487:9605   */\n      pop\n        /* \"#utility.yul\":8958:9612   */\n      swap3\n      pop\n      swap3\n      swap1\n      pop\n      jump\t// out\n        /* \"#utility.yul\":9618:9787   */\n    tag_433:\n        /* \"#utility.yul\":9702:9713   */\n      0x00\n        /* \"#utility.yul\":9736:9742   */\n      dup3\n        /* \"#utility.yul\":9731:9734   */\n      dup3\n        /* \"#utility.yul\":9724:9743   */\n      mstore\n        /* \"#utility.yul\":9776:9780   */\n      0x20\n        /* \"#utility.yul\":9771:9774   */\n      dup3\n        /* \"#utility.yul\":9767:9781   */\n      add\n        /* \"#utility.yul\":9752:9781   */\n      swap1\n      pop\n        /* \"#utility.yul\":9618:9787   */\n      swap3\n      swap2\n      pop\n      pop\n      jump\t// out\n        /* \"#utility.yul\":9793:10170   */\n    tag_434:\n        /* \"#utility.yul\":9881:9884   */\n      0x00\n        /* \"#utility.yul\":9909:9948   */\n      tag_583\n        /* \"#utility.yul\":9942:9947   */\n      dup3\n        /* \"#utility.yul\":9909:9948   */\n      tag_424\n      jump\t// in\n    tag_583:\n        /* \"#utility.yul\":9964:10035   */\n      tag_584\n        /* \"#utility.yul\":10028:10034   */\n      dup2\n        /* \"#utility.yul\":10023:10026   */\n      dup6\n        /* \"#utility.yul\":9964:10035   */\n      tag_433\n      jump\t// in\n    tag_584:\n        /* \"#utility.yul\":9957:10035   */\n      swap4\n      pop\n        /* \"#utility.yul\":10044:10109   */\n      tag_585\n        /* \"#utility.yul\":10102:10108   */\n      dup2\n        /* \"#utility.yul\":10097:10100   */\n      dup6\n        /* \"#utility.yul\":10090:10094   */\n      0x20\n        /* \"#utility.yul\":10083:10088   */\n      dup7\n        /* \"#utility.yul\":10079:10095   */\n      add\n        /* \"#utility.yul\":10044:10109   */\n      tag_426\n      jump\t// in\n    tag_585:\n        /* \"#utility.yul\":10134:10163   */\n      tag_586\n        /* \"#utility.yul\":10156:10162   */\n      dup2\n        /* \"#utility.yul\":10134:10163   */\n      tag_405\n      jump\t// in\n    tag_586:\n        /* \"#utility.yul\":10129:10132   */\n      dup5\n        /* \"#utility.yul\":10125:10164   */\n      add\n        /* \"#utility.yul\":10118:10164   */\n      swap2\n      pop\n        /* \"#utility.yul\":9885:10170   */\n      pop\n        /* \"#utility.yul\":9793:10170   */\n      swap3\n      swap2\n      pop\n      pop\n      jump\t// out\n        /* \"#utility.yul\":10176:10489   */\n    tag_124:\n        /* \"#utility.yul\":10289:10293   */\n      0x00\n        /* \"#utility.yul\":10327:10329   */\n      0x20\n        /* \"#utility.yul\":10316:10325   */\n      dup3\n        /* \"#utility.yul\":10312:10330   */\n      add\n        /* \"#utility.yul\":10304:10330   */\n      swap1\n      pop\n        /* \"#utility.yul\":10376:10385   */\n      dup2\n        /* \"#utility.yul\":10370:10374   */\n      dup2\n        /* \"#utility.yul\":10366:10386   */\n      sub\n        /* \"#utility.yul\":10362:10363   */\n      0x00\n        /* \"#utility.yul\":10351:10360   */\n      dup4\n        /* \"#utility.yul\":10347:10364   */\n      add\n        /* \"#utility.yul\":10340:10387   */\n      mstore\n        /* \"#utility.yul\":10404:10482   */\n      tag_588\n        /* \"#utility.yul\":10477:10481   */\n      dup2\n        /* \"#utility.yul\":10468:10474   */\n      dup5\n        /* \"#utility.yul\":10404:10482   */\n      tag_434\n      jump\t// in\n    tag_588:\n        /* \"#utility.yul\":10396:10482   */\n      swap1\n      pop\n        /* \"#utility.yul\":10176:10489   */\n      swap3\n      swap2\n      pop\n      pop\n      jump\t// out\n        /* \"#utility.yul\":10495:10613   */\n    tag_435:\n        /* \"#utility.yul\":10582:10606   */\n      tag_590\n        /* \"#utility.yul\":10600:10605   */\n      dup2\n        /* \"#utility.yul\":10582:10606   */\n      tag_416\n      jump\t// in\n    tag_590:\n        /* \"#utility.yul\":10577:10580   */\n      dup3\n        /* \"#utility.yul\":10570:10607   */\n      mstore\n        /* \"#utility.yul\":10495:10613   */\n      pop\n      pop\n      jump\t// out\n        /* \"#utility.yul\":10619:10841   */\n    tag_150:\n        /* \"#utility.yul\":10712:10716   */\n      0x00\n        /* \"#utility.yul\":10750:10752   */\n      0x20\n        /* \"#utility.yul\":10739:10748   */\n      dup3\n        /* \"#utility.yul\":10735:10753   */\n      add\n        /* \"#utility.yul\":10727:10753   */\n      swap1\n      pop\n        /* \"#utility.yul\":10763:10834   */\n      tag_592\n        /* \"#utility.yul\":10831:10832   */\n      0x00\n        /* \"#utility.yul\":10820:10829   */\n      dup4\n        /* \"#utility.yul\":10816:10833   */\n      add\n        /* \"#utility.yul\":10807:10813   */\n      dup5\n        /* \"#utility.yul\":10763:10834   */\n      tag_435\n      jump\t// in\n    tag_592:\n        /* \"#utility.yul\":10619:10841   */\n      swap3\n      swap2\n      pop\n      pop\n      jump\t// out\n        /* \"#utility.yul\":10847:11168   */\n    tag_436:\n        /* \"#utility.yul\":10934:10938   */\n      0x00\n        /* \"#utility.yul\":11024:11042   */\n      0xffffffffffffffff\n        /* \"#utility.yul\":11016:11022   */\n      dup3\n        /* \"#utility.yul\":11013:11043   */\n      gt\n        /* \"#utility.yul\":11010:11066   */\n      iszero\n      tag_594\n      jumpi\n        /* \"#utility.yul\":11046:11064   */\n      tag_595\n      tag_406\n      jump\t// in\n    tag_595:\n        /* \"#utility.yul\":11010:11066   */\n    tag_594:\n        /* \"#utility.yul\":11096:11100   */\n      0x20\n        /* \"#utility.yul\":11088:11094   */\n      dup3\n        /* \"#utility.yul\":11084:11101   */\n      mul\n        /* \"#utility.yul\":11076:11101   */\n      swap1\n      pop\n        /* \"#utility.yul\":11156:11160   */\n      0x20\n        /* \"#utility.yul\":11150:11154   */\n      dup2\n        /* \"#utility.yul\":11146:11161   */\n      add\n        /* \"#utility.yul\":11138:11161   */\n      swap1\n      pop\n        /* \"#utility.yul\":10847:11168   */\n      swap2\n      swap1\n      pop\n      jump\t// out\n        /* \"#utility.yul\":11174:11291   */\n    tag_437:\n        /* \"#utility.yul\":11283:11284   */\n      0x00\n        /* \"#utility.yul\":11280:11281   */\n      dup1\n        /* \"#utility.yul\":11273:11285   */\n      revert\n        /* \"#utility.yul\":11313:12258   */\n    tag_438:\n        /* \"#utility.yul\":11419:11424   */\n      0x00\n        /* \"#utility.yul\":11444:11535   */\n      tag_598\n        /* \"#utility.yul\":11460:11534   */\n      tag_599\n        /* \"#utility.yul\":11527:11533   */\n      dup5\n        /* \"#utility.yul\":11460:11534   */\n      tag_436\n      jump\t// in\n    tag_599:\n        /* \"#utility.yul\":11444:11535   */\n      tag_408\n      jump\t// in\n    tag_598:\n        /* \"#utility.yul\":11435:11535   */\n      swap1\n      pop\n        /* \"#utility.yul\":11555:11560   */\n      dup1\n        /* \"#utility.yul\":11584:11590   */\n      dup4\n        /* \"#utility.yul\":11577:11582   */\n      dup3\n        /* \"#utility.yul\":11570:11591   */\n      mstore\n        /* \"#utility.yul\":11618:11622   */\n      0x20\n        /* \"#utility.yul\":11611:11616   */\n      dup3\n        /* \"#utility.yul\":11607:11623   */\n      add\n        /* \"#utility.yul\":11600:11623   */\n      swap1\n      pop\n        /* \"#utility.yul\":11671:11675   */\n      0x20\n        /* \"#utility.yul\":11663:11669   */\n      dup5\n        /* \"#utility.yul\":11659:11676   */\n      mul\n        /* \"#utility.yul\":11651:11657   */\n      dup4\n        /* \"#utility.yul\":11647:11677   */\n      add\n        /* \"#utility.yul\":11700:11703   */\n      dup6\n        /* \"#utility.yul\":11692:11698   */\n      dup2\n        /* \"#utility.yul\":11689:11704   */\n      gt\n        /* \"#utility.yul\":11686:11808   */\n      iszero\n      tag_600\n      jumpi\n        /* \"#utility.yul\":11719:11798   */\n      tag_601\n      tag_437\n      jump\t// in\n    tag_601:\n        /* \"#utility.yul\":11686:11808   */\n    tag_600:\n        /* \"#utility.yul\":11834:11840   */\n      dup4\n        /* \"#utility.yul\":11817:12252   */\n    tag_602:\n        /* \"#utility.yul\":11851:11857   */\n      dup2\n        /* \"#utility.yul\":11846:11849   */\n      dup2\n        /* \"#utility.yul\":11843:11858   */\n      lt\n        /* \"#utility.yul\":11817:12252   */\n      iszero\n      tag_604\n      jumpi\n        /* \"#utility.yul\":11940:11943   */\n      dup1\n        /* \"#utility.yul\":11927:11944   */\n      calldataload\n        /* \"#utility.yul\":11976:11994   */\n      0xffffffffffffffff\n        /* \"#utility.yul\":11963:11974   */\n      dup2\n        /* \"#utility.yul\":11960:11995   */\n      gt\n        /* \"#utility.yul\":11957:12079   */\n      iszero\n      tag_605\n      jumpi\n        /* \"#utility.yul\":11998:12077   */\n      tag_606\n      tag_403\n      jump\t// in\n    tag_606:\n        /* \"#utility.yul\":11957:12079   */\n    tag_605:\n        /* \"#utility.yul\":12122:12133   */\n      dup1\n        /* \"#utility.yul\":12114:12120   */\n      dup7\n        /* \"#utility.yul\":12110:12134   */\n      add\n        /* \"#utility.yul\":12160:12207   */\n      tag_607\n        /* \"#utility.yul\":12203:12206   */\n      dup10\n        /* \"#utility.yul\":12191:12201   */\n      dup3\n        /* \"#utility.yul\":12160:12207   */\n      tag_412\n      jump\t// in\n    tag_607:\n        /* \"#utility.yul\":12155:12158   */\n      dup6\n        /* \"#utility.yul\":12148:12208   */\n      mstore\n        /* \"#utility.yul\":12237:12241   */\n      0x20\n        /* \"#utility.yul\":12232:12235   */\n      dup6\n        /* \"#utility.yul\":12228:12242   */\n      add\n        /* \"#utility.yul\":12221:12242   */\n      swap5\n      pop\n        /* \"#utility.yul\":11893:12252   */\n      pop\n      pop\n        /* \"#utility.yul\":11877:11881   */\n      0x20\n        /* \"#utility.yul\":11872:11875   */\n      dup2\n        /* \"#utility.yul\":11868:11882   */\n      add\n        /* \"#utility.yul\":11861:11882   */\n      swap1\n      pop\n        /* \"#utility.yul\":11817:12252   */\n      jump(tag_602)\n    tag_604:\n        /* \"#utility.yul\":11821:11842   */\n      pop\n        /* \"#utility.yul\":11425:12258   */\n      pop\n      pop\n        /* \"#utility.yul\":11313:12258   */\n      swap4\n      swap3\n      pop\n      pop\n      pop\n      jump\t// out\n        /* \"#utility.yul\":12280:12670   */\n    tag_439:\n        /* \"#utility.yul\":12361:12366   */\n      0x00\n        /* \"#utility.yul\":12410:12413   */\n      dup3\n        /* \"#utility.yul\":12403:12407   */\n      0x1f\n        /* \"#utility.yul\":12395:12401   */\n      dup4\n        /* \"#utility.yul\":12391:12408   */\n      add\n        /* \"#utility.yul\":12387:12414   */\n      slt\n        /* \"#utility.yul\":12377:12499   */\n      tag_609\n      jumpi\n        /* \"#utility.yul\":12418:12497   */\n      tag_610\n      tag_403\n      jump\t// in\n    tag_610:\n        /* \"#utility.yul\":12377:12499   */\n    tag_609:\n        /* \"#utility.yul\":12535:12541   */\n      dup2\n        /* \"#utility.yul\":12522:12542   */\n      calldataload\n        /* \"#utility.yul\":12560:12664   */\n      tag_611\n        /* \"#utility.yul\":12660:12663   */\n      dup5\n        /* \"#utility.yul\":12652:12658   */\n      dup3\n        /* \"#utility.yul\":12645:12649   */\n      0x20\n        /* \"#utility.yul\":12637:12643   */\n      dup7\n        /* \"#utility.yul\":12633:12650   */\n      add\n        /* \"#utility.yul\":12560:12664   */\n      tag_438\n      jump\t// in\n    tag_611:\n        /* \"#utility.yul\":12551:12664   */\n      swap2\n      pop\n        /* \"#utility.yul\":12367:12670   */\n      pop\n        /* \"#utility.yul\":12280:12670   */\n      swap3\n      swap2\n      pop\n      pop\n      jump\t// out\n        /* \"#utility.yul\":12676:12987   */\n    tag_440:\n        /* \"#utility.yul\":12753:12757   */\n      0x00\n        /* \"#utility.yul\":12843:12861   */\n      0xffffffffffffffff\n        /* \"#utility.yul\":12835:12841   */\n      dup3\n        /* \"#utility.yul\":12832:12862   */\n      gt\n        /* \"#utility.yul\":12829:12885   */\n      iszero\n      tag_613\n      jumpi\n        /* \"#utility.yul\":12865:12883   */\n      tag_614\n      tag_406\n      jump\t// in\n    tag_614:\n        /* \"#utility.yul\":12829:12885   */\n    tag_613:\n        /* \"#utility.yul\":12915:12919   */\n      0x20\n        /* \"#utility.yul\":12907:12913   */\n      dup3\n        /* \"#utility.yul\":12903:12920   */\n      mul\n        /* \"#utility.yul\":12895:12920   */\n      swap1\n      pop\n        /* \"#utility.yul\":12975:12979   */\n      0x20\n        /* \"#utility.yul\":12969:12973   */\n      dup2\n        /* \"#utility.yul\":12965:12980   */\n      add\n        /* \"#utility.yul\":12957:12980   */\n      swap1\n      pop\n        /* \"#utility.yul\":12676:12987   */\n      swap2\n      swap1\n      pop\n      jump\t// out\n        /* \"#utility.yul\":13010:13720   */\n    tag_441:\n        /* \"#utility.yul\":13106:13111   */\n      0x00\n        /* \"#utility.yul\":13131:13212   */\n      tag_616\n        /* \"#utility.yul\":13147:13211   */\n      tag_617\n        /* \"#utility.yul\":13204:13210   */\n      dup5\n        /* \"#utility.yul\":13147:13211   */\n      tag_440\n      jump\t// in\n    tag_617:\n        /* \"#utility.yul\":13131:13212   */\n      tag_408\n      jump\t// in\n    tag_616:\n        /* \"#utility.yul\":13122:13212   */\n      swap1\n      pop\n        /* \"#utility.yul\":13232:13237   */\n      dup1\n        /* \"#utility.yul\":13261:13267   */\n      dup4\n        /* \"#utility.yul\":13254:13259   */\n      dup3\n        /* \"#utility.yul\":13247:13268   */\n      mstore\n        /* \"#utility.yul\":13295:13299   */\n      0x20\n        /* \"#utility.yul\":13288:13293   */\n      dup3\n        /* \"#utility.yul\":13284:13300   */\n      add\n        /* \"#utility.yul\":13277:13300   */\n      swap1\n      pop\n        /* \"#utility.yul\":13348:13352   */\n      0x20\n        /* \"#utility.yul\":13340:13346   */\n      dup5\n        /* \"#utility.yul\":13336:13353   */\n      mul\n        /* \"#utility.yul\":13328:13334   */\n      dup4\n        /* \"#utility.yul\":13324:13354   */\n      add\n        /* \"#utility.yul\":13377:13380   */\n      dup6\n        /* \"#utility.yul\":13369:13375   */\n      dup2\n        /* \"#utility.yul\":13366:13381   */\n      gt\n        /* \"#utility.yul\":13363:13485   */\n      iszero\n      tag_618\n      jumpi\n        /* \"#utility.yul\":13396:13475   */\n      tag_619\n      tag_437\n      jump\t// in\n    tag_619:\n        /* \"#utility.yul\":13363:13485   */\n    tag_618:\n        /* \"#utility.yul\":13511:13517   */\n      dup4\n        /* \"#utility.yul\":13494:13714   */\n    tag_620:\n        /* \"#utility.yul\":13528:13534   */\n      dup2\n        /* \"#utility.yul\":13523:13526   */\n      dup2\n        /* \"#utility.yul\":13520:13535   */\n      lt\n        /* \"#utility.yul\":13494:13714   */\n      iszero\n      tag_622\n      jumpi\n        /* \"#utility.yul\":13603:13606   */\n      dup1\n        /* \"#utility.yul\":13632:13669   */\n      tag_623\n        /* \"#utility.yul\":13665:13668   */\n      dup9\n        /* \"#utility.yul\":13653:13663   */\n      dup3\n        /* \"#utility.yul\":13632:13669   */\n      tag_418\n      jump\t// in\n    tag_623:\n        /* \"#utility.yul\":13627:13630   */\n      dup5\n        /* \"#utility.yul\":13620:13670   */\n      mstore\n        /* \"#utility.yul\":13699:13703   */\n      0x20\n        /* \"#utility.yul\":13694:13697   */\n      dup5\n        /* \"#utility.yul\":13690:13704   */\n      add\n        /* \"#utility.yul\":13683:13704   */\n      swap4\n      pop\n        /* \"#utility.yul\":13570:13714   */\n      pop\n        /* \"#utility.yul\":13554:13558   */\n      0x20\n        /* \"#utility.yul\":13549:13552   */\n      dup2\n        /* \"#utility.yul\":13545:13559   */\n      add\n        /* \"#utility.yul\":13538:13559   */\n      swap1\n      pop\n        /* \"#utility.yul\":13494:13714   */\n      jump(tag_620)\n    tag_622:\n        /* \"#utility.yul\":13498:13519   */\n      pop\n        /* \"#utility.yul\":13112:13720   */\n      pop\n      pop\n        /* \"#utility.yul\":13010:13720   */\n      swap4\n      swap3\n      pop\n      pop\n      pop\n      jump\t// out\n        /* \"#utility.yul\":13743:14113   */\n    tag_442:\n        /* \"#utility.yul\":13814:13819   */\n      0x00\n        /* \"#utility.yul\":13863:13866   */\n      dup3\n        /* \"#utility.yul\":13856:13860   */\n      0x1f\n        /* \"#utility.yul\":13848:13854   */\n      dup4\n        /* \"#utility.yul\":13844:13861   */\n      add\n        /* \"#utility.yul\":13840:13867   */\n      slt\n        /* \"#utility.yul\":13830:13952   */\n      tag_625\n      jumpi\n        /* \"#utility.yul\":13871:13950   */\n      tag_626\n      tag_403\n      jump\t// in\n    tag_626:\n        /* \"#utility.yul\":13830:13952   */\n    tag_625:\n        /* \"#utility.yul\":13988:13994   */\n      dup2\n        /* \"#utility.yul\":13975:13995   */\n      calldataload\n        /* \"#utility.yul\":14013:14107   */\n      tag_627\n        /* \"#utility.yul\":14103:14106   */\n      dup5\n        /* \"#utility.yul\":14095:14101   */\n      dup3\n        /* \"#utility.yul\":14088:14092   */\n      0x20\n        /* \"#utility.yul\":14080:14086   */\n      dup7\n        /* \"#utility.yul\":14076:14093   */\n      add\n        /* \"#utility.yul\":14013:14107   */\n      tag_441\n      jump\t// in\n    tag_627:\n        /* \"#utility.yul\":14004:14107   */\n      swap2\n      pop\n        /* \"#utility.yul\":13820:14113   */\n      pop\n        /* \"#utility.yul\":13743:14113   */\n      swap3\n      swap2\n      pop\n      pop\n      jump\t// out\n        /* \"#utility.yul\":14119:15033   */\n    tag_173:\n        /* \"#utility.yul\":14247:14253   */\n      0x00\n        /* \"#utility.yul\":14255:14261   */\n      dup1\n        /* \"#utility.yul\":14304:14306   */\n      0x40\n        /* \"#utility.yul\":14292:14301   */\n      dup4\n        /* \"#utility.yul\":14283:14290   */\n      dup6\n        /* \"#utility.yul\":14279:14302   */\n      sub\n        /* \"#utility.yul\":14275:14307   */\n      slt\n        /* \"#utility.yul\":14272:14391   */\n      iszero\n      tag_629\n      jumpi\n        /* \"#utility.yul\":14310:14389   */\n      tag_630\n      tag_401\n      jump\t// in\n    tag_630:\n        /* \"#utility.yul\":14272:14391   */\n    tag_629:\n        /* \"#utility.yul\":14458:14459   */\n      0x00\n        /* \"#utility.yul\":14447:14456   */\n      dup4\n        /* \"#utility.yul\":14443:14460   */\n      add\n        /* \"#utility.yul\":14430:14461   */\n      calldataload\n        /* \"#utility.yul\":14488:14506   */\n      0xffffffffffffffff\n        /* \"#utility.yul\":14480:14486   */\n      dup2\n        /* \"#utility.yul\":14477:14507   */\n      gt\n        /* \"#utility.yul\":14474:14591   */\n      iszero\n      tag_631\n      jumpi\n        /* \"#utility.yul\":14510:14589   */\n      tag_632\n      tag_402\n      jump\t// in\n    tag_632:\n        /* \"#utility.yul\":14474:14591   */\n    tag_631:\n        /* \"#utility.yul\":14615:14703   */\n      tag_633\n        /* \"#utility.yul\":14695:14702   */\n      dup6\n        /* \"#utility.yul\":14686:14692   */\n      dup3\n        /* \"#utility.yul\":14675:14684   */\n      dup7\n        /* \"#utility.yul\":14671:14693   */\n      add\n        /* \"#utility.yul\":14615:14703   */\n      tag_439\n      jump\t// in\n    tag_633:\n        /* \"#utility.yul\":14605:14703   */\n      swap3\n      pop\n        /* \"#utility.yul\":14401:14713   */\n      pop\n        /* \"#utility.yul\":14780:14782   */\n      0x20\n        /* \"#utility.yul\":14769:14778   */\n      dup4\n        /* \"#utility.yul\":14765:14783   */\n      add\n        /* \"#utility.yul\":14752:14784   */\n      calldataload\n        /* \"#utility.yul\":14811:14829   */\n      0xffffffffffffffff\n        /* \"#utility.yul\":14803:14809   */\n      dup2\n        /* \"#utility.yul\":14800:14830   */\n      gt\n        /* \"#utility.yul\":14797:14914   */\n      iszero\n      tag_634\n      jumpi\n        /* \"#utility.yul\":14833:14912   */\n      tag_635\n      tag_402\n      jump\t// in\n    tag_635:\n        /* \"#utility.yul\":14797:14914   */\n    tag_634:\n        /* \"#utility.yul\":14938:15016   */\n      tag_636\n        /* \"#utility.yul\":15008:15015   */\n      dup6\n        /* \"#utility.yul\":14999:15005   */\n      dup3\n        /* \"#utility.yul\":14988:14997   */\n      dup7\n        /* \"#utility.yul\":14984:15006   */\n      add\n        /* \"#utility.yul\":14938:15016   */\n      tag_442\n      jump\t// in\n    tag_636:\n        /* \"#utility.yul\":14928:15016   */\n      swap2\n      pop\n        /* \"#utility.yul\":14723:15026   */\n      pop\n        /* \"#utility.yul\":14119:15033   */\n      swap3\n      pop\n      swap3\n      swap1\n      pop\n      jump\t// out\n        /* \"#utility.yul\":15039:15195   */\n    tag_443:\n        /* \"#utility.yul\":15179:15187   */\n      0x5665727465780000000000000000000000000000000000000000000000000000\n        /* \"#utility.yul\":15175:15176   */\n      0x00\n        /* \"#utility.yul\":15167:15173   */\n      dup3\n        /* \"#utility.yul\":15163:15177   */\n      add\n        /* \"#utility.yul\":15156:15188   */\n      mstore\n        /* \"#utility.yul\":15039:15195   */\n      pop\n      jump\t// out\n        /* \"#utility.yul\":15201:15566   */\n    tag_444:\n        /* \"#utility.yul\":15343:15346   */\n      0x00\n        /* \"#utility.yul\":15364:15430   */\n      tag_639\n        /* \"#utility.yul\":15428:15429   */\n      0x06\n        /* \"#utility.yul\":15423:15426   */\n      dup4\n        /* \"#utility.yul\":15364:15430   */\n      tag_433\n      jump\t// in\n    tag_639:\n        /* \"#utility.yul\":15357:15430   */\n      swap2\n      pop\n        /* \"#utility.yul\":15439:15532   */\n      tag_640\n        /* \"#utility.yul\":15528:15531   */\n      dup3\n        /* \"#utility.yul\":15439:15532   */\n      tag_443\n      jump\t// in\n    tag_640:\n        /* \"#utility.yul\":15557:15559   */\n      0x20\n        /* \"#utility.yul\":15552:15555   */\n      dup3\n        /* \"#utility.yul\":15548:15560   */\n      add\n        /* \"#utility.yul\":15541:15560   */\n      swap1\n      pop\n        /* \"#utility.yul\":15201:15566   */\n      swap2\n      swap1\n      pop\n      jump\t// out\n        /* \"#utility.yul\":15572:16101   */\n    tag_206:\n        /* \"#utility.yul\":15766:15770   */\n      0x00\n        /* \"#utility.yul\":15804:15806   */\n      0x40\n        /* \"#utility.yul\":15793:15802   */\n      dup3\n        /* \"#utility.yul\":15789:15807   */\n      add\n        /* \"#utility.yul\":15781:15807   */\n      swap1\n      pop\n        /* \"#utility.yul\":15853:15862   */\n      dup2\n        /* \"#utility.yul\":15847:15851   */\n      dup2\n        /* \"#utility.yul\":15843:15863   */\n      sub\n        /* \"#utility.yul\":15839:15840   */\n      0x00\n        /* \"#utility.yul\":15828:15837   */\n      dup4\n        /* \"#utility.yul\":15824:15841   */\n      add\n        /* \"#utility.yul\":15817:15864   */\n      mstore\n        /* \"#utility.yul\":15881:16012   */\n      tag_642\n        /* \"#utility.yul\":16007:16011   */\n      dup2\n        /* \"#utility.yul\":15881:16012   */\n      tag_444\n      jump\t// in\n    tag_642:\n        /* \"#utility.yul\":15873:16012   */\n      swap1\n      pop\n        /* \"#utility.yul\":16022:16094   */\n      tag_643\n        /* \"#utility.yul\":16090:16092   */\n      0x20\n        /* \"#utility.yul\":16079:16088   */\n      dup4\n        /* \"#utility.yul\":16075:16093   */\n      add\n        /* \"#utility.yul\":16066:16072   */\n      dup5\n        /* \"#utility.yul\":16022:16094   */\n      tag_435\n      jump\t// in\n    tag_643:\n        /* \"#utility.yul\":15572:16101   */\n      swap3\n      swap2\n      pop\n      pop\n      jump\t// out\n        /* \"#utility.yul\":16107:16223   */\n    tag_445:\n        /* \"#utility.yul\":16177:16198   */\n      tag_645\n        /* \"#utility.yul\":16192:16197   */\n      dup2\n        /* \"#utility.yul\":16177:16198   */\n      tag_419\n      jump\t// in\n    tag_645:\n        /* \"#utility.yul\":16170:16175   */\n      dup2\n        /* \"#utility.yul\":16167:16199   */\n      eq\n        /* \"#utility.yul\":16157:16217   */\n      tag_646\n      jumpi\n        /* \"#utility.yul\":16213:16214   */\n      0x00\n        /* \"#utility.yul\":16210:16211   */\n      dup1\n        /* \"#utility.yul\":16203:16215   */\n      revert\n        /* \"#utility.yul\":16157:16217   */\n    tag_646:\n        /* \"#utility.yul\":16107:16223   */\n      pop\n      jump\t// out\n        /* \"#utility.yul\":16229:16366   */\n    tag_446:\n        /* \"#utility.yul\":16283:16288   */\n      0x00\n        /* \"#utility.yul\":16314:16320   */\n      dup2\n        /* \"#utility.yul\":16308:16321   */\n      mload\n        /* \"#utility.yul\":16299:16321   */\n      swap1\n      pop\n        /* \"#utility.yul\":16330:16360   */\n      tag_648\n        /* \"#utility.yul\":16354:16359   */\n      dup2\n        /* \"#utility.yul\":16330:16360   */\n      tag_445\n      jump\t// in\n    tag_648:\n        /* \"#utility.yul\":16229:16366   */\n      swap3\n      swap2\n      pop\n      pop\n      jump\t// out\n        /* \"#utility.yul\":16372:16717   */\n    tag_210:\n        /* \"#utility.yul\":16439:16445   */\n      0x00\n        /* \"#utility.yul\":16488:16490   */\n      0x20\n        /* \"#utility.yul\":16476:16485   */\n      dup3\n        /* \"#utility.yul\":16467:16474   */\n      dup5\n        /* \"#utility.yul\":16463:16486   */\n      sub\n        /* \"#utility.yul\":16459:16491   */\n      slt\n        /* \"#utility.yul\":16456:16575   */\n      iszero\n      tag_650\n      jumpi\n        /* \"#utility.yul\":16494:16573   */\n      tag_651\n      tag_401\n      jump\t// in\n    tag_651:\n        /* \"#utility.yul\":16456:16575   */\n    tag_650:\n        /* \"#utility.yul\":16614:16615   */\n      0x00\n        /* \"#utility.yul\":16639:16700   */\n      tag_652\n        /* \"#utility.yul\":16692:16699   */\n      dup5\n        /* \"#utility.yul\":16683:16689   */\n      dup3\n        /* \"#utility.yul\":16672:16681   */\n      dup6\n        /* \"#utility.yul\":16668:16690   */\n      add\n        /* \"#utility.yul\":16639:16700   */\n      tag_446\n      jump\t// in\n    tag_652:\n        /* \"#utility.yul\":16629:16700   */\n      swap2\n      pop\n        /* \"#utility.yul\":16585:16710   */\n      pop\n        /* \"#utility.yul\":16372:16717   */\n      swap3\n      swap2\n      pop\n      pop\n      jump\t// out\n        /* \"#utility.yul\":16723:16890   */\n    tag_447:\n        /* \"#utility.yul\":16863:16882   */\n      0x7665726966792061757468206572726f72000000000000000000000000000000\n        /* \"#utility.yul\":16859:16860   */\n      0x00\n        /* \"#utility.yul\":16851:16857   */\n      dup3\n        /* \"#utility.yul\":16847:16861   */\n      add\n        /* \"#utility.yul\":16840:16883   */\n      mstore\n        /* \"#utility.yul\":16723:16890   */\n      pop\n      jump\t// out\n        /* \"#utility.yul\":16896:17262   */\n    tag_448:\n        /* \"#utility.yul\":17038:17041   */\n      0x00\n        /* \"#utility.yul\":17059:17126   */\n      tag_655\n        /* \"#utility.yul\":17123:17125   */\n      0x11\n        /* \"#utility.yul\":17118:17121   */\n      dup4\n        /* \"#utility.yul\":17059:17126   */\n      tag_433\n      jump\t// in\n    tag_655:\n        /* \"#utility.yul\":17052:17126   */\n      swap2\n      pop\n        /* \"#utility.yul\":17135:17228   */\n      tag_656\n        /* \"#utility.yul\":17224:17227   */\n      dup3\n        /* \"#utility.yul\":17135:17228   */\n      tag_447\n      jump\t// in\n    tag_656:\n        /* \"#utility.yul\":17253:17255   */\n      0x20\n        /* \"#utility.yul\":17248:17251   */\n      dup3\n        /* \"#utility.yul\":17244:17256   */\n      add\n        /* \"#utility.yul\":17237:17256   */\n      swap1\n      pop\n        /* \"#utility.yul\":16896:17262   */\n      swap2\n      swap1\n      pop\n      jump\t// out\n        /* \"#utility.yul\":17268:17687   */\n    tag_213:\n        /* \"#utility.yul\":17434:17438   */\n      0x00\n        /* \"#utility.yul\":17472:17474   */\n      0x20\n        /* \"#utility.yul\":17461:17470   */\n      dup3\n        /* \"#utility.yul\":17457:17475   */\n      add\n        /* \"#utility.yul\":17449:17475   */\n      swap1\n      pop\n        /* \"#utility.yul\":17521:17530   */\n      dup2\n        /* \"#utility.yul\":17515:17519   */\n      dup2\n        /* \"#utility.yul\":17511:17531   */\n      sub\n        /* \"#utility.yul\":17507:17508   */\n      0x00\n        /* \"#utility.yul\":17496:17505   */\n      dup4\n        /* \"#utility.yul\":17492:17509   */\n      add\n        /* \"#utility.yul\":17485:17532   */\n      mstore\n        /* \"#utility.yul\":17549:17680   */\n      tag_658\n        /* \"#utility.yul\":17675:17679   */\n      dup2\n        /* \"#utility.yul\":17549:17680   */\n      tag_448\n      jump\t// in\n    tag_658:\n        /* \"#utility.yul\":17541:17680   */\n      swap1\n      pop\n        /* \"#utility.yul\":17268:17687   */\n      swap2\n      swap1\n      pop\n      jump\t// out\n        /* \"#utility.yul\":17693:17841   */\n    tag_449:\n        /* \"#utility.yul\":17795:17806   */\n      0x00\n        /* \"#utility.yul\":17832:17835   */\n      dup2\n        /* \"#utility.yul\":17817:17835   */\n      swap1\n      pop\n        /* \"#utility.yul\":17693:17841   */\n      swap3\n      swap2\n      pop\n      pop\n      jump\t// out\n        /* \"#utility.yul\":17847:18237   */\n    tag_450:\n        /* \"#utility.yul\":17953:17956   */\n      0x00\n        /* \"#utility.yul\":17981:18020   */\n      tag_661\n        /* \"#utility.yul\":18014:18019   */\n      dup3\n        /* \"#utility.yul\":17981:18020   */\n      tag_424\n      jump\t// in\n    tag_661:\n        /* \"#utility.yul\":18036:18125   */\n      tag_662\n        /* \"#utility.yul\":18118:18124   */\n      dup2\n        /* \"#utility.yul\":18113:18116   */\n      dup6\n        /* \"#utility.yul\":18036:18125   */\n      tag_449\n      jump\t// in\n    tag_662:\n        /* \"#utility.yul\":18029:18125   */\n      swap4\n      pop\n        /* \"#utility.yul\":18134:18199   */\n      tag_663\n        /* \"#utility.yul\":18192:18198   */\n      dup2\n        /* \"#utility.yul\":18187:18190   */\n      dup6\n        /* \"#utility.yul\":18180:18184   */\n      0x20\n        /* \"#utility.yul\":18173:18178   */\n      dup7\n        /* \"#utility.yul\":18169:18185   */\n      add\n        /* \"#utility.yul\":18134:18199   */\n      tag_426\n      jump\t// in\n    tag_663:\n        /* \"#utility.yul\":18224:18230   */\n      dup1\n        /* \"#utility.yul\":18219:18222   */\n      dup5\n        /* \"#utility.yul\":18215:18231   */\n      add\n        /* \"#utility.yul\":18208:18231   */\n      swap2\n      pop\n        /* \"#utility.yul\":17957:18237   */\n      pop\n        /* \"#utility.yul\":17847:18237   */\n      swap3\n      swap2\n      pop\n      pop\n      jump\t// out\n        /* \"#utility.yul\":18243:18518   */\n    tag_215:\n        /* \"#utility.yul\":18375:18378   */\n      0x00\n        /* \"#utility.yul\":18397:18492   */\n      tag_665\n        /* \"#utility.yul\":18488:18491   */\n      dup3\n        /* \"#utility.yul\":18479:18485   */\n      dup5\n        /* \"#utility.yul\":18397:18492   */\n      tag_450\n      jump\t// in\n    tag_665:\n        /* \"#utility.yul\":18390:18492   */\n      swap2\n      pop\n        /* \"#utility.yul\":18509:18512   */\n      dup2\n        /* \"#utility.yul\":18502:18512   */\n      swap1\n      pop\n        /* \"#utility.yul\":18243:18518   */\n      swap3\n      swap2\n      pop\n      pop\n      jump\t// out\n        /* \"#utility.yul\":18524:18704   */\n    tag_451:\n        /* \"#utility.yul\":18572:18649   */\n      0x4e487b7100000000000000000000000000000000000000000000000000000000\n        /* \"#utility.yul\":18569:18570   */\n      0x00\n        /* \"#utility.yul\":18562:18650   */\n      mstore\n        /* \"#utility.yul\":18669:18673   */\n      0x22\n        /* \"#utility.yul\":18666:18667   */\n      0x04\n        /* \"#utility.yul\":18659:18674   */\n      mstore\n        /* \"#utility.yul\":18693:18697   */\n      0x24\n        /* \"#utility.yul\":18690:18691   */\n      0x00\n        /* \"#utility.yul\":18683:18698   */\n      revert\n        /* \"#utility.yul\":18710:19030   */\n    tag_231:\n        /* \"#utility.yul\":18754:18760   */\n      0x00\n        /* \"#utility.yul\":18791:18792   */\n      0x02\n        /* \"#utility.yul\":18785:18789   */\n      dup3\n        /* \"#utility.yul\":18781:18793   */\n      div\n        /* \"#utility.yul\":18771:18793   */\n      swap1\n      pop\n        /* \"#utility.yul\":18838:18839   */\n      0x01\n        /* \"#utility.yul\":18832:18836   */\n      dup3\n        /* \"#utility.yul\":18828:18840   */\n      and\n        /* \"#utility.yul\":18859:18877   */\n      dup1\n        /* \"#utility.yul\":18849:18930   */\n      tag_668\n      jumpi\n        /* \"#utility.yul\":18915:18919   */\n      0x7f\n        /* \"#utility.yul\":18907:18913   */\n      dup3\n        /* \"#utility.yul\":18903:18920   */\n      and\n        /* \"#utility.yul\":18893:18920   */\n      swap2\n      pop\n        /* \"#utility.yul\":18849:18930   */\n    tag_668:\n        /* \"#utility.yul\":18977:18979   */\n      0x20\n        /* \"#utility.yul\":18969:18975   */\n      dup3\n        /* \"#utility.yul\":18966:18980   */\n      lt\n        /* \"#utility.yul\":18946:18964   */\n      dup2\n        /* \"#utility.yul\":18943:18981   */\n      sub\n        /* \"#utility.yul\":18940:19024   */\n      tag_669\n      jumpi\n        /* \"#utility.yul\":18996:19014   */\n      tag_670\n      tag_451\n      jump\t// in\n    tag_670:\n        /* \"#utility.yul\":18940:19024   */\n    tag_669:\n        /* \"#utility.yul\":18761:19030   */\n      pop\n        /* \"#utility.yul\":18710:19030   */\n      swap2\n      swap1\n      pop\n      jump\t// out\n        /* \"#utility.yul\":19036:19177   */\n    tag_452:\n        /* \"#utility.yul\":19085:19089   */\n      0x00\n        /* \"#utility.yul\":19108:19111   */\n      dup2\n        /* \"#utility.yul\":19100:19111   */\n      swap1\n      pop\n        /* \"#utility.yul\":19131:19134   */\n      dup2\n        /* \"#utility.yul\":19128:19129   */\n      0x00\n        /* \"#utility.yul\":19121:19135   */\n      mstore\n        /* \"#utility.yul\":19165:19169   */\n      0x20\n        /* \"#utility.yul\":19162:19163   */\n      0x00\n        /* \"#utility.yul\":19152:19170   */\n      keccak256\n        /* \"#utility.yul\":19144:19170   */\n      swap1\n      pop\n        /* \"#utility.yul\":19036:19177   */\n      swap2\n      swap1\n      pop\n      jump\t// out\n        /* \"#utility.yul\":19183:19276   */\n    tag_453:\n        /* \"#utility.yul\":19220:19226   */\n      0x00\n        /* \"#utility.yul\":19267:19269   */\n      0x20\n        /* \"#utility.yul\":19262:19264   */\n      0x1f\n        /* \"#utility.yul\":19255:19260   */\n      dup4\n        /* \"#utility.yul\":19251:19265   */\n      add\n        /* \"#utility.yul\":19247:19270   */\n      div\n        /* \"#utility.yul\":19237:19270   */\n      swap1\n      pop\n        /* \"#utility.yul\":19183:19276   */\n      swap2\n      swap1\n      pop\n      jump\t// out\n        /* \"#utility.yul\":19282:19389   */\n    tag_454:\n        /* \"#utility.yul\":19326:19334   */\n      0x00\n        /* \"#utility.yul\":19376:19381   */\n      dup3\n        /* \"#utility.yul\":19370:19374   */\n      dup3\n        /* \"#utility.yul\":19366:19382   */\n      shl\n        /* \"#utility.yul\":19345:19382   */\n      swap1\n      pop\n        /* \"#utility.yul\":19282:19389   */\n      swap3\n      swap2\n      pop\n      pop\n      jump\t// out\n        /* \"#utility.yul\":19395:19788   */\n    tag_455:\n        /* \"#utility.yul\":19464:19470   */\n      0x00\n        /* \"#utility.yul\":19514:19515   */\n      0x08\n        /* \"#utility.yul\":19502:19512   */\n      dup4\n        /* \"#utility.yul\":19498:19516   */\n      mul\n        /* \"#utility.yul\":19537:19634   */\n      tag_675\n        /* \"#utility.yul\":19567:19633   */\n      0xffffffffffffffffffffffffffffffffffffffffffffffffffffffffffffffff\n        /* \"#utility.yul\":19556:19565   */\n      dup3\n        /* \"#utility.yul\":19537:19634   */\n      tag_454\n      jump\t// in\n    tag_675:\n        /* \"#utility.yul\":19655:19694   */\n      tag_676\n        /* \"#utility.yul\":19685:19693   */\n      dup7\n        /* \"#utility.yul\":19674:19683   */\n      dup4\n        /* \"#utility.yul\":19655:19694   */\n      tag_454\n      jump\t// in\n    tag_676:\n        /* \"#utility.yul\":19643:19694   */\n      swap6\n      pop\n        /* \"#utility.yul\":19727:19731   */\n      dup1\n        /* \"#utility.yul\":19723:19732   */\n      not\n        /* \"#utility.yul\":19716:19721   */\n      dup5\n        /* \"#utility.yul\":19712:19733   */\n      and\n        /* \"#utility.yul\":19703:19733   */\n      swap4\n      pop\n        /* \"#utility.yul\":19776:19780   */\n      dup1\n        /* \"#utility.yul\":19766:19774   */\n      dup7\n        /* \"#utility.yul\":19762:19781   */\n      and\n        /* \"#utility.yul\":19755:19760   */\n      dup5\n        /* \"#utility.yul\":19752:19782   */\n      or\n        /* \"#utility.yul\":19742:19782   */\n      swap3\n      pop\n        /* \"#utility.yul\":19471:19788   */\n      pop\n      pop\n        /* \"#utility.yul\":19395:19788   */\n      swap4\n      swap3\n      pop\n      pop\n      pop\n      jump\t// out\n        /* \"#utility.yul\":19794:19854   */\n    tag_456:\n        /* \"#utility.yul\":19822:19825   */\n      0x00\n        /* \"#utility.yul\":19843:19848   */\n      dup2\n        /* \"#utility.yul\":19836:19848   */\n      swap1\n      pop\n        /* \"#utility.yul\":19794:19854   */\n      swap2\n      swap1\n      pop\n      jump\t// out\n        /* \"#utility.yul\":19860:20002   */\n    tag_457:\n        /* \"#utility.yul\":19910:19919   */\n      0x00\n        /* \"#utility.yul\":19943:19996   */\n      tag_679\n        /* \"#utility.yul\":19961:19995   */\n      tag_680\n        /* \"#utility.yul\":19970:19994   */\n      tag_681\n        /* \"#utility.yul\":19988:19993   */\n      dup5\n        /* \"#utility.yul\":19970:19994   */\n      tag_398\n      jump\t// in\n    tag_681:\n        /* \"#utility.yul\":19961:19995   */\n      tag_456\n      jump\t// in\n    tag_680:\n        /* \"#utility.yul\":19943:19996   */\n      tag_398\n      jump\t// in\n    tag_679:\n        /* \"#utility.yul\":19930:19996   */\n      swap1\n      pop\n        /* \"#utility.yul\":19860:20002   */\n      swap2\n      swap1\n      pop\n      jump\t// out\n        /* \"#utility.yul\":20008:20083   */\n    tag_458:\n        /* \"#utility.yul\":20051:20054   */\n      0x00\n        /* \"#utility.yul\":20072:20077   */\n      dup2\n        /* \"#utility.yul\":20065:20077   */\n      swap1\n      pop\n        /* \"#utility.yul\":20008:20083   */\n      swap2\n      swap1\n      pop\n      jump\t// out\n        /* \"#utility.yul\":20089:20358   */\n    tag_459:\n        /* \"#utility.yul\":20199:20238   */\n      tag_684\n        /* \"#utility.yul\":20230:20237   */\n      dup4\n        /* \"#utility.yul\":20199:20238   */\n      tag_457\n      jump\t// in\n    tag_684:\n        /* \"#utility.yul\":20260:20351   */\n      tag_685\n        /* \"#utility.yul\":20309:20350   */\n      tag_686\n        /* \"#utility.yul\":20333:20349   */\n      dup3\n        /* \"#utility.yul\":20309:20350   */\n      tag_458\n      jump\t// in\n    tag_686:\n        /* \"#utility.yul\":20301:20307   */\n      dup5\n        /* \"#utility.yul\":20294:20298   */\n      dup5\n        /* \"#utility.yul\":20288:20299   */\n      sload\n        /* \"#utility.yul\":20260:20351   */\n      tag_455\n      jump\t// in\n    tag_685:\n        /* \"#utility.yul\":20254:20258   */\n      dup3\n        /* \"#utility.yul\":20247:20352   */\n      sstore\n        /* \"#utility.yul\":20165:20358   */\n      pop\n        /* \"#utility.yul\":20089:20358   */\n      pop\n      pop\n      pop\n      jump\t// out\n        /* \"#utility.yul\":20364:20437   */\n    tag_460:\n        /* \"#utility.yul\":20409:20412   */\n      0x00\n        /* \"#utility.yul\":20364:20437   */\n      swap1\n      jump\t// out\n        /* \"#utility.yul\":20443:20632   */\n    tag_461:\n        /* \"#utility.yul\":20520:20552   */\n      tag_689\n      tag_460\n      jump\t// in\n    tag_689:\n        /* \"#utility.yul\":20561:20626   */\n      tag_690\n        /* \"#utility.yul\":20619:20625   */\n      dup2\n        /* \"#utility.yul\":20611:20617   */\n      dup5\n        /* \"#utility.yul\":20605:20609   */\n      dup5\n        /* \"#utility.yul\":20561:20626   */\n      tag_459\n      jump\t// in\n    tag_690:\n        /* \"#utility.yul\":20496:20632   */\n      pop\n        /* \"#utility.yul\":20443:20632   */\n      pop\n      pop\n      jump\t// out\n        /* \"#utility.yul\":20638:20824   */\n    tag_462:\n        /* \"#utility.yul\":20698:20818   */\n    tag_692:\n        /* \"#utility.yul\":20715:20718   */\n      dup2\n        /* \"#utility.yul\":20708:20713   */\n      dup2\n        /* \"#utility.yul\":20705:20719   */\n      lt\n        /* \"#utility.yul\":20698:20818   */\n      iszero\n      tag_694\n      jumpi\n        /* \"#utility.yul\":20769:20808   */\n      tag_695\n        /* \"#utility.yul\":20806:20807   */\n      0x00\n        /* \"#utility.yul\":20799:20804   */\n      dup3\n        /* \"#utility.yul\":20769:20808   */\n      tag_461\n      jump\t// in\n    tag_695:\n        /* \"#utility.yul\":20742:20743   */\n      0x01\n        /* \"#utility.yul\":20735:20740   */\n      dup2\n        /* \"#utility.yul\":20731:20744   */\n      add\n        /* \"#utility.yul\":20722:20744   */\n      swap1\n      pop\n        /* \"#utility.yul\":20698:20818   */\n      jump(tag_692)\n    tag_694:\n        /* \"#utility.yul\":20638:20824   */\n      pop\n      pop\n      jump\t// out\n        /* \"#utility.yul\":20830:21373   */\n    tag_463:\n        /* \"#utility.yul\":20931:20933   */\n      0x1f\n        /* \"#utility.yul\":20926:20929   */\n      dup3\n        /* \"#utility.yul\":20923:20934   */\n      gt\n        /* \"#utility.yul\":20920:21366   */\n      iszero\n      tag_697\n      jumpi\n        /* \"#utility.yul\":20965:21003   */\n      tag_698\n        /* \"#utility.yul\":20997:21002   */\n      dup2\n        /* \"#utility.yul\":20965:21003   */\n      tag_452\n      jump\t// in\n    tag_698:\n        /* \"#utility.yul\":21049:21078   */\n      tag_699\n        /* \"#utility.yul\":21067:21077   */\n      dup5\n        /* \"#utility.yul\":21049:21078   */\n      tag_453\n      jump\t// in\n    tag_699:\n        /* \"#utility.yul\":21039:21047   */\n      dup2\n        /* \"#utility.yul\":21035:21079   */\n      add\n        /* \"#utility.yul\":21232:21234   */\n      0x20\n        /* \"#utility.yul\":21220:21230   */\n      dup6\n        /* \"#utility.yul\":21217:21235   */\n      lt\n        /* \"#utility.yul\":21214:21263   */\n      iszero\n      tag_700\n      jumpi\n        /* \"#utility.yul\":21253:21261   */\n      dup2\n        /* \"#utility.yul\":21238:21261   */\n      swap1\n      pop\n        /* \"#utility.yul\":21214:21263   */\n    tag_700:\n        /* \"#utility.yul\":21276:21356   */\n      tag_701\n        /* \"#utility.yul\":21332:21354   */\n      tag_702\n        /* \"#utility.yul\":21350:21353   */\n      dup6\n        /* \"#utility.yul\":21332:21354   */\n      tag_453\n      jump\t// in\n    tag_702:\n        /* \"#utility.yul\":21322:21330   */\n      dup4\n        /* \"#utility.yul\":21318:21355   */\n      add\n        /* \"#utility.yul\":21305:21316   */\n      dup3\n        /* \"#utility.yul\":21276:21356   */\n      tag_462\n      jump\t// in\n    tag_701:\n        /* \"#utility.yul\":20935:21366   */\n      pop\n      pop\n        /* \"#utility.yul\":20920:21366   */\n    tag_697:\n        /* \"#utility.yul\":20830:21373   */\n      pop\n      pop\n      pop\n      jump\t// out\n        /* \"#utility.yul\":21379:21496   */\n    tag_464:\n        /* \"#utility.yul\":21433:21441   */\n      0x00\n        /* \"#utility.yul\":21483:21488   */\n      dup3\n        /* \"#utility.yul\":21477:21481   */\n      dup3\n        /* \"#utility.yul\":21473:21489   */\n      shr\n        /* \"#utility.yul\":21452:21489   */\n      swap1\n      pop\n        /* \"#utility.yul\":21379:21496   */\n      swap3\n      swap2\n      pop\n      pop\n      jump\t// out\n        /* \"#utility.yul\":21502:21671   */\n    tag_465:\n        /* \"#utility.yul\":21546:21552   */\n      0x00\n        /* \"#utility.yul\":21579:21630   */\n      tag_705\n        /* \"#utility.yul\":21627:21628   */\n      0x00\n        /* \"#utility.yul\":21623:21629   */\n      not\n        /* \"#utility.yul\":21615:21620   */\n      dup5\n        /* \"#utility.yul\":21612:21613   */\n      0x08\n        /* \"#utility.yul\":21608:21621   */\n      mul\n        /* \"#utility.yul\":21579:21630   */\n      tag_464\n      jump\t// in\n    tag_705:\n        /* \"#utility.yul\":21575:21631   */\n      not\n        /* \"#utility.yul\":21660:21664   */\n      dup1\n        /* \"#utility.yul\":21654:21658   */\n      dup4\n        /* \"#utility.yul\":21650:21665   */\n      and\n        /* \"#utility.yul\":21640:21665   */\n      swap2\n      pop\n        /* \"#utility.yul\":21553:21671   */\n      pop\n        /* \"#utility.yul\":21502:21671   */\n      swap3\n      swap2\n      pop\n      pop\n      jump\t// out\n        /* \"#utility.yul\":21676:21971   */\n    tag_466:\n        /* \"#utility.yul\":21752:21756   */\n      0x00\n        /* \"#utility.yul\":21898:21927   */\n      tag_707\n        /* \"#utility.yul\":21923:21926   */\n      dup4\n        /* \"#utility.yul\":21917:21921   */\n      dup4\n        /* \"#utility.yul\":21898:21927   */\n      tag_465\n      jump\t// in\n    tag_707:\n        /* \"#utility.yul\":21890:21927   */\n      swap2\n      pop\n        /* \"#utility.yul\":21960:21963   */\n      dup3\n        /* \"#utility.yul\":21957:21958   */\n      0x02\n        /* \"#utility.yul\":21953:21964   */\n      mul\n        /* \"#utility.yul\":21947:21951   */\n      dup3\n        /* \"#utility.yul\":21944:21965   */\n      or\n        /* \"#utility.yul\":21936:21965   */\n      swap1\n      pop\n        /* \"#utility.yul\":21676:21971   */\n      swap3\n      swap2\n      pop\n      pop\n      jump\t// out\n        /* \"#utility.yul\":21976:23371   */\n    tag_219:\n        /* \"#utility.yul\":22093:22130   */\n      tag_709\n        /* \"#utility.yul\":22126:22129   */\n      dup3\n        /* \"#utility.yul\":22093:22130   */\n      tag_424\n      jump\t// in\n    tag_709:\n        /* \"#utility.yul\":22195:22213   */\n      0xffffffffffffffff\n        /* \"#utility.yul\":22187:22193   */\n      dup2\n        /* \"#utility.yul\":22184:22214   */\n      gt\n        /* \"#utility.yul\":22181:22237   */\n      iszero\n      tag_710\n      jumpi\n        /* \"#utility.yul\":22217:22235   */\n      tag_711\n      tag_406\n      jump\t// in\n    tag_711:\n        /* \"#utility.yul\":22181:22237   */\n    tag_710:\n        /* \"#utility.yul\":22261:22299   */\n      tag_712\n        /* \"#utility.yul\":22293:22297   */\n      dup3\n        /* \"#utility.yul\":22287:22298   */\n      sload\n        /* \"#utility.yul\":22261:22299   */\n      tag_231\n      jump\t// in\n    tag_712:\n        /* \"#utility.yul\":22346:22413   */\n      tag_713\n        /* \"#utility.yul\":22406:22412   */\n      dup3\n        /* \"#utility.yul\":22398:22404   */\n      dup3\n        /* \"#utility.yul\":22392:22396   */\n      dup6\n        /* \"#utility.yul\":22346:22413   */\n      tag_463\n      jump\t// in\n    tag_713:\n        /* \"#utility.yul\":22440:22441   */\n      0x00\n        /* \"#utility.yul\":22464:22468   */\n      0x20\n        /* \"#utility.yul\":22451:22468   */\n      swap1\n      pop\n        /* \"#utility.yul\":22496:22498   */\n      0x1f\n        /* \"#utility.yul\":22488:22494   */\n      dup4\n        /* \"#utility.yul\":22485:22499   */\n      gt\n        /* \"#utility.yul\":22513:22514   */\n      0x01\n        /* \"#utility.yul\":22508:23126   */\n      dup2\n      eq\n      tag_715\n      jumpi\n        /* \"#utility.yul\":23170:23171   */\n      0x00\n        /* \"#utility.yul\":23187:23193   */\n      dup5\n        /* \"#utility.yul\":23184:23261   */\n      iszero\n      tag_716\n      jumpi\n        /* \"#utility.yul\":23236:23245   */\n      dup3\n        /* \"#utility.yul\":23231:23234   */\n      dup8\n        /* \"#utility.yul\":23227:23246   */\n      add\n        /* \"#utility.yul\":23221:23247   */\n      mload\n        /* \"#utility.yul\":23212:23247   */\n      swap1\n      pop\n        /* \"#utility.yul\":23184:23261   */\n    tag_716:\n        /* \"#utility.yul\":23287:23354   */\n      tag_717\n        /* \"#utility.yul\":23347:23353   */\n      dup6\n        /* \"#utility.yul\":23340:23345   */\n      dup3\n        /* \"#utility.yul\":23287:23354   */\n      tag_466\n      jump\t// in\n    tag_717:\n        /* \"#utility.yul\":23281:23285   */\n      dup7\n        /* \"#utility.yul\":23274:23355   */\n      sstore\n        /* \"#utility.yul\":23143:23365   */\n      pop\n        /* \"#utility.yul\":22478:23365   */\n      jump(tag_714)\n        /* \"#utility.yul\":22508:23126   */\n    tag_715:\n        /* \"#utility.yul\":22560:22564   */\n      0x1f\n        /* \"#utility.yul\":22556:22565   */\n      not\n        /* \"#utility.yul\":22548:22554   */\n      dup5\n        /* \"#utility.yul\":22544:22566   */\n      and\n        /* \"#utility.yul\":22594:22631   */\n      tag_718\n        /* \"#utility.yul\":22626:22630   */\n      dup7\n        /* \"#utility.yul\":22594:22631   */\n      tag_452\n      jump\t// in\n    tag_718:\n        /* \"#utility.yul\":22653:22654   */\n      0x00\n        /* \"#utility.yul\":22667:22875   */\n    tag_719:\n        /* \"#utility.yul\":22681:22688   */\n      dup3\n        /* \"#utility.yul\":22678:22679   */\n      dup2\n        /* \"#utility.yul\":22675:22689   */\n      lt\n        /* \"#utility.yul\":22667:22875   */\n      iszero\n      tag_721\n      jumpi\n        /* \"#utility.yul\":22760:22769   */\n      dup5\n        /* \"#utility.yul\":22755:22758   */\n      dup10\n        /* \"#utility.yul\":22751:22770   */\n      add\n        /* \"#utility.yul\":22745:22771   */\n      mload\n        /* \"#utility.yul\":22737:22743   */\n      dup3\n        /* \"#utility.yul\":22730:22772   */\n      sstore\n        /* \"#utility.yul\":22811:22812   */\n      0x01\n        /* \"#utility.yul\":22803:22809   */\n      dup3\n        /* \"#utility.yul\":22799:22813   */\n      add\n        /* \"#utility.yul\":22789:22813   */\n      swap2\n      pop\n        /* \"#utility.yul\":22858:22860   */\n      0x20\n        /* \"#utility.yul\":22847:22856   */\n      dup6\n        /* \"#utility.yul\":22843:22861   */\n      add\n        /* \"#utility.yul\":22830:22861   */\n      swap5\n      pop\n        /* \"#utility.yul\":22704:22708   */\n      0x20\n        /* \"#utility.yul\":22701:22702   */\n      dup2\n        /* \"#utility.yul\":22697:22709   */\n      add\n        /* \"#utility.yul\":22692:22709   */\n      swap1\n      pop\n        /* \"#utility.yul\":22667:22875   */\n      jump(tag_719)\n    tag_721:\n        /* \"#utility.yul\":22903:22909   */\n      dup7\n        /* \"#utility.yul\":22894:22901   */\n      dup4\n        /* \"#utility.yul\":22891:22910   */\n      lt\n        /* \"#utility.yul\":22888:23067   */\n      iszero\n      tag_722\n      jumpi\n        /* \"#utility.yul\":22961:22970   */\n      dup5\n        /* \"#utility.yul\":22956:22959   */\n      dup10\n        /* \"#utility.yul\":22952:22971   */\n      add\n        /* \"#utility.yul\":22946:22972   */\n      mload\n        /* \"#utility.yul\":23004:23052   */\n      tag_723\n        /* \"#utility.yul\":23046:23050   */\n      0x1f\n        /* \"#utility.yul\":23038:23044   */\n      dup10\n        /* \"#utility.yul\":23034:23051   */\n      and\n        /* \"#utility.yul\":23023:23032   */\n      dup3\n        /* \"#utility.yul\":23004:23052   */\n      tag_465\n      jump\t// in\n    tag_723:\n        /* \"#utility.yul\":22996:23002   */\n      dup4\n        /* \"#utility.yul\":22989:23053   */\n      sstore\n        /* \"#utility.yul\":22911:23067   */\n      pop\n        /* \"#utility.yul\":22888:23067   */\n    tag_722:\n        /* \"#utility.yul\":23113:23114   */\n      0x01\n        /* \"#utility.yul\":23109:23110   */\n      0x02\n        /* \"#utility.yul\":23101:23107   */\n      dup9\n        /* \"#utility.yul\":23097:23111   */\n      mul\n        /* \"#utility.yul\":23093:23115   */\n      add\n        /* \"#utility.yul\":23087:23091   */\n      dup9\n        /* \"#utility.yul\":23080:23116   */\n      sstore\n        /* \"#utility.yul\":22515:23126   */\n      pop\n      pop\n      pop\n        /* \"#utility.yul\":22478:23365   */\n    tag_714:\n      pop\n        /* \"#utility.yul\":22068:23371   */\n      pop\n      pop\n      pop\n        /* \"#utility.yul\":21976:23371   */\n      pop\n      pop\n      jump\t// out\n        /* \"#utility.yul\":23377:23557   */\n    tag_467:\n        /* \"#utility.yul\":23425:23502   */\n      0x4e487b7100000000000000000000000000000000000000000000000000000000\n        /* \"#utility.yul\":23422:23423   */\n      0x00\n        /* \"#utility.yul\":23415:23503   */\n      mstore\n        /* \"#utility.yul\":23522:23526   */\n      0x11\n        /* \"#utility.yul\":23519:23520   */\n      0x04\n        /* \"#utility.yul\":23512:23527   */\n      mstore\n        /* \"#utility.yul\":23546:23550   */\n      0x24\n        /* \"#utility.yul\":23543:23544   */\n      0x00\n        /* \"#utility.yul\":23536:23551   */\n      revert\n        /* \"#utility.yul\":23563:23734   */\n    tag_221:\n        /* \"#utility.yul\":23601:23604   */\n      0x00\n        /* \"#utility.yul\":23624:23647   */\n      tag_726\n        /* \"#utility.yul\":23641:23646   */\n      dup3\n        /* \"#utility.yul\":23624:23647   */\n      tag_413\n      jump\t// in\n    tag_726:\n        /* \"#utility.yul\":23615:23647   */\n      swap2\n      pop\n        /* \"#utility.yul\":23669:23675   */\n      0xffff\n        /* \"#utility.yul\":23662:23667   */\n      dup3\n        /* \"#utility.yul\":23659:23676   */\n      sub\n        /* \"#utility.yul\":23656:23699   */\n      tag_727\n      jumpi\n        /* \"#utility.yul\":23679:23697   */\n      tag_728\n      tag_467\n      jump\t// in\n    tag_728:\n        /* \"#utility.yul\":23656:23699   */\n    tag_727:\n        /* \"#utility.yul\":23726:23727   */\n      0x01\n        /* \"#utility.yul\":23719:23724   */\n      dup3\n        /* \"#utility.yul\":23715:23728   */\n      add\n        /* \"#utility.yul\":23708:23728   */\n      swap1\n      pop\n        /* \"#utility.yul\":23563:23734   */\n      swap2\n      swap1\n      pop\n      jump\t// out\n        /* \"#utility.yul\":23740:24150   */\n    tag_247:\n        /* \"#utility.yul\":23780:23787   */\n      0x00\n        /* \"#utility.yul\":23803:23823   */\n      tag_730\n        /* \"#utility.yul\":23821:23822   */\n      dup3\n        /* \"#utility.yul\":23803:23823   */\n      tag_398\n      jump\t// in\n    tag_730:\n        /* \"#utility.yul\":23798:23823   */\n      swap2\n      pop\n        /* \"#utility.yul\":23837:23857   */\n      tag_731\n        /* \"#utility.yul\":23855:23856   */\n      dup4\n        /* \"#utility.yul\":23837:23857   */\n      tag_398\n      jump\t// in\n    tag_731:\n        /* \"#utility.yul\":23832:23857   */\n      swap3\n      pop\n        /* \"#utility.yul\":23892:23893   */\n      dup3\n        /* \"#utility.yul\":23889:23890   */\n      dup3\n        /* \"#utility.yul\":23885:23894   */\n      mul\n        /* \"#utility.yul\":23914:23944   */\n      tag_732\n        /* \"#utility.yul\":23932:23943   */\n      dup2\n        /* \"#utility.yul\":23914:23944   */\n      tag_398\n      jump\t// in\n    tag_732:\n        /* \"#utility.yul\":23903:23944   */\n      swap2\n      pop\n        /* \"#utility.yul\":24093:24094   */\n      dup3\n        /* \"#utility.yul\":24084:24091   */\n      dup3\n        /* \"#utility.yul\":24080:24095   */\n      div\n        /* \"#utility.yul\":24077:24078   */\n      dup5\n        /* \"#utility.yul\":24074:24096   */\n      eq\n        /* \"#utility.yul\":24054:24055   */\n      dup4\n        /* \"#utility.yul\":24047:24056   */\n      iszero\n        /* \"#utility.yul\":24027:24110   */\n      or\n        /* \"#utility.yul\":24004:24143   */\n      tag_733\n      jumpi\n        /* \"#utility.yul\":24123:24141   */\n      tag_734\n      tag_467\n      jump\t// in\n    tag_734:\n        /* \"#utility.yul\":24004:24143   */\n    tag_733:\n        /* \"#utility.yul\":23788:24150   */\n      pop\n        /* \"#utility.yul\":23740:24150   */\n      swap3\n      swap2\n      pop\n      pop\n      jump\t// out\n        /* \"#utility.yul\":24156:24336   */\n    tag_302:\n        /* \"#utility.yul\":24204:24281   */\n      0x4e487b7100000000000000000000000000000000000000000000000000000000\n        /* \"#utility.yul\":24201:24202   */\n      0x00\n        /* \"#utility.yul\":24194:24282   */\n      mstore\n        /* \"#utility.yul\":24301:24305   */\n      0x32\n        /* \"#utility.yul\":24298:24299   */\n      0x04\n        /* \"#utility.yul\":24291:24306   */\n      mstore\n        /* \"#utility.yul\":24325:24329   */\n      0x24\n        /* \"#utility.yul\":24322:24323   */\n      0x00\n        /* \"#utility.yul\":24315:24330   */\n      revert\n        /* \"#utility.yul\":24342:24575   */\n    tag_307:\n        /* \"#utility.yul\":24381:24384   */\n      0x00\n        /* \"#utility.yul\":24404:24428   */\n      tag_737\n        /* \"#utility.yul\":24422:24427   */\n      dup3\n        /* \"#utility.yul\":24404:24428   */\n      tag_398\n      jump\t// in\n    tag_737:\n        /* \"#utility.yul\":24395:24428   */\n      swap2\n      pop\n        /* \"#utility.yul\":24450:24516   */\n      0xffffffffffffffffffffffffffffffffffffffffffffffffffffffffffffffff\n        /* \"#utility.yul\":24443:24448   */\n      dup3\n        /* \"#utility.yul\":24440:24517   */\n      sub\n        /* \"#utility.yul\":24437:24540   */\n      tag_738\n      jumpi\n        /* \"#utility.yul\":24520:24538   */\n      tag_739\n      tag_467\n      jump\t// in\n    tag_739:\n        /* \"#utility.yul\":24437:24540   */\n    tag_738:\n        /* \"#utility.yul\":24567:24568   */\n      0x01\n        /* \"#utility.yul\":24560:24565   */\n      dup3\n        /* \"#utility.yul\":24556:24569   */\n      add\n        /* \"#utility.yul\":24549:24569   */\n      swap1\n      pop\n        /* \"#utility.yul\":24342:24575   */\n      swap2\n      swap1\n      pop\n      jump\t// out\n        /* \"#utility.yul\":24581:24775   */\n    tag_324:\n        /* \"#utility.yul\":24621:24625   */\n      0x00\n        /* \"#utility.yul\":24641:24661   */\n      tag_741\n        /* \"#utility.yul\":24659:24660   */\n      dup3\n        /* \"#utility.yul\":24641:24661   */\n      tag_398\n      jump\t// in\n    tag_741:\n        /* \"#utility.yul\":24636:24661   */\n      swap2\n      pop\n        /* \"#utility.yul\":24675:24695   */\n      tag_742\n        /* \"#utility.yul\":24693:24694   */\n      dup4\n        /* \"#utility.yul\":24675:24695   */\n      tag_398\n      jump\t// in\n    tag_742:\n        /* \"#utility.yul\":24670:24695   */\n      swap3\n      pop\n        /* \"#utility.yul\":24719:24720   */\n      dup3\n        /* \"#utility.yul\":24716:24717   */\n      dup3\n        /* \"#utility.yul\":24712:24721   */\n      sub\n        /* \"#utility.yul\":24704:24721   */\n      swap1\n      pop\n        /* \"#utility.yul\":24743:24744   */\n      dup2\n        /* \"#utility.yul\":24737:24741   */\n      dup2\n        /* \"#utility.yul\":24734:24745   */\n      gt\n        /* \"#utility.yul\":24731:24768   */\n      iszero\n      tag_743\n      jumpi\n        /* \"#utility.yul\":24748:24766   */\n      tag_744\n      tag_467\n      jump\t// in\n    tag_744:\n        /* \"#utility.yul\":24731:24768   */\n    tag_743:\n        /* \"#utility.yul\":24581:24775   */\n      swap3\n      swap2\n      pop\n      pop\n      jump\t// out\n        /* \"#utility.yul\":24781:24934   */\n    tag_468:\n        /* \"#utility.yul\":24834:24840   */\n      0x00\n        /* \"#utility.yul\":24868:24873   */\n      dup2\n        /* \"#utility.yul\":24862:24874   */\n      sload\n        /* \"#utility.yul\":24852:24874   */\n      swap1\n      pop\n        /* \"#utility.yul\":24894:24927   */\n      tag_746\n        /* \"#utility.yul\":24920:24926   */\n      dup2\n        /* \"#utility.yul\":24894:24927   */\n      tag_231\n      jump\t// in\n    tag_746:\n        /* \"#utility.yul\":24884:24927   */\n      swap1\n      pop\n        /* \"#utility.yul\":24781:24934   */\n      swap2\n      swap1\n      pop\n      jump\t// out\n        /* \"#utility.yul\":24940:25085   */\n    tag_469:\n        /* \"#utility.yul\":24993:24997   */\n      0x00\n        /* \"#utility.yul\":25016:25019   */\n      dup2\n        /* \"#utility.yul\":25008:25019   */\n      swap1\n      pop\n        /* \"#utility.yul\":25039:25042   */\n      dup2\n        /* \"#utility.yul\":25036:25037   */\n      0x00\n        /* \"#utility.yul\":25029:25043   */\n      mstore\n        /* \"#utility.yul\":25073:25077   */\n      0x20\n        /* \"#utility.yul\":25070:25071   */\n      0x00\n        /* \"#utility.yul\":25060:25078   */\n      keccak256\n        /* \"#utility.yul\":25052:25078   */\n      swap1\n      pop\n        /* \"#utility.yul\":24940:25085   */\n      swap2\n      swap1\n      pop\n      jump\t// out\n        /* \"#utility.yul\":25091:26554   */\n    tag_343:\n        /* \"#utility.yul\":25206:25209   */\n      dup2\n        /* \"#utility.yul\":25200:25204   */\n      dup2\n        /* \"#utility.yul\":25197:25210   */\n      sub\n        /* \"#utility.yul\":25194:25220   */\n      tag_749\n      jumpi\n        /* \"#utility.yul\":25213:25218   */\n      pop\n      pop\n      jump(tag_748)\n        /* \"#utility.yul\":25194:25220   */\n    tag_749:\n        /* \"#utility.yul\":25244:25282   */\n      tag_750\n        /* \"#utility.yul\":25278:25281   */\n      dup3\n        /* \"#utility.yul\":25244:25282   */\n      tag_468\n      jump\t// in\n    tag_750:\n        /* \"#utility.yul\":25347:25365   */\n      0xffffffffffffffff\n        /* \"#utility.yul\":25339:25345   */\n      dup2\n        /* \"#utility.yul\":25336:25366   */\n      gt\n        /* \"#utility.yul\":25333:25389   */\n      iszero\n      tag_751\n      jumpi\n        /* \"#utility.yul\":25369:25387   */\n      tag_752\n      tag_406\n      jump\t// in\n    tag_752:\n        /* \"#utility.yul\":25333:25389   */\n    tag_751:\n        /* \"#utility.yul\":25413:25451   */\n      tag_753\n        /* \"#utility.yul\":25445:25449   */\n      dup3\n        /* \"#utility.yul\":25439:25450   */\n      sload\n        /* \"#utility.yul\":25413:25451   */\n      tag_231\n      jump\t// in\n    tag_753:\n        /* \"#utility.yul\":25498:25565   */\n      tag_754\n        /* \"#utility.yul\":25558:25564   */\n      dup3\n        /* \"#utility.yul\":25550:25556   */\n      dup3\n        /* \"#utility.yul\":25544:25548   */\n      dup6\n        /* \"#utility.yul\":25498:25565   */\n      tag_463\n      jump\t// in\n    tag_754:\n        /* \"#utility.yul\":25592:25593   */\n      0x00\n        /* \"#utility.yul\":25621:25623   */\n      0x1f\n        /* \"#utility.yul\":25613:25619   */\n      dup4\n        /* \"#utility.yul\":25610:25624   */\n      gt\n        /* \"#utility.yul\":25638:25639   */\n      0x01\n        /* \"#utility.yul\":25633:26309   */\n      dup2\n      eq\n      tag_756\n      jumpi\n        /* \"#utility.yul\":26353:26354   */\n      0x00\n        /* \"#utility.yul\":26370:26376   */\n      dup5\n        /* \"#utility.yul\":26367:26444   */\n      iszero\n      tag_757\n      jumpi\n        /* \"#utility.yul\":26419:26428   */\n      dup3\n        /* \"#utility.yul\":26414:26417   */\n      dup8\n        /* \"#utility.yul\":26410:26429   */\n      add\n        /* \"#utility.yul\":26404:26430   */\n      sload\n        /* \"#utility.yul\":26395:26430   */\n      swap1\n      pop\n        /* \"#utility.yul\":26367:26444   */\n    tag_757:\n        /* \"#utility.yul\":26470:26537   */\n      tag_758\n        /* \"#utility.yul\":26530:26536   */\n      dup6\n        /* \"#utility.yul\":26523:26528   */\n      dup3\n        /* \"#utility.yul\":26470:26537   */\n      tag_466\n      jump\t// in\n    tag_758:\n        /* \"#utility.yul\":26464:26468   */\n      dup7\n        /* \"#utility.yul\":26457:26538   */\n      sstore\n        /* \"#utility.yul\":26326:26548   */\n      pop\n        /* \"#utility.yul\":25603:26548   */\n      jump(tag_755)\n        /* \"#utility.yul\":25633:26309   */\n    tag_756:\n        /* \"#utility.yul\":25685:25689   */\n      0x1f\n        /* \"#utility.yul\":25681:25690   */\n      not\n        /* \"#utility.yul\":25673:25679   */\n      dup5\n        /* \"#utility.yul\":25669:25691   */\n      and\n        /* \"#utility.yul\":25711:25751   */\n      tag_759\n        /* \"#utility.yul\":25747:25750   */\n      dup8\n        /* \"#utility.yul\":25711:25751   */\n      tag_469\n      jump\t// in\n    tag_759:\n        /* \"#utility.yul\":25704:25751   */\n      swap7\n      pop\n        /* \"#utility.yul\":25778:25815   */\n      tag_760\n        /* \"#utility.yul\":25810:25814   */\n      dup7\n        /* \"#utility.yul\":25778:25815   */\n      tag_452\n      jump\t// in\n    tag_760:\n        /* \"#utility.yul\":25837:25838   */\n      0x00\n        /* \"#utility.yul\":25851:26058   */\n    tag_761:\n        /* \"#utility.yul\":25865:25872   */\n      dup3\n        /* \"#utility.yul\":25862:25863   */\n      dup2\n        /* \"#utility.yul\":25859:25873   */\n      lt\n        /* \"#utility.yul\":25851:26058   */\n      iszero\n      tag_763\n      jumpi\n        /* \"#utility.yul\":25944:25953   */\n      dup5\n        /* \"#utility.yul\":25939:25942   */\n      dup10\n        /* \"#utility.yul\":25935:25954   */\n      add\n        /* \"#utility.yul\":25929:25955   */\n      sload\n        /* \"#utility.yul\":25921:25927   */\n      dup3\n        /* \"#utility.yul\":25914:25956   */\n      sstore\n        /* \"#utility.yul\":25995:25996   */\n      0x01\n        /* \"#utility.yul\":25987:25993   */\n      dup3\n        /* \"#utility.yul\":25983:25997   */\n      add\n        /* \"#utility.yul\":25973:25997   */\n      swap2\n      pop\n        /* \"#utility.yul\":26042:26043   */\n      0x01\n        /* \"#utility.yul\":26031:26040   */\n      dup6\n        /* \"#utility.yul\":26027:26044   */\n      add\n        /* \"#utility.yul\":26014:26044   */\n      swap5\n      pop\n        /* \"#utility.yul\":25888:25892   */\n      0x20\n        /* \"#utility.yul\":25885:25886   */\n      dup2\n        /* \"#utility.yul\":25881:25893   */\n      add\n        /* \"#utility.yul\":25876:25893   */\n      swap1\n      pop\n        /* \"#utility.yul\":25851:26058   */\n      jump(tag_761)\n    tag_763:\n        /* \"#utility.yul\":26086:26092   */\n      dup7\n        /* \"#utility.yul\":26077:26084   */\n      dup4\n        /* \"#utility.yul\":26074:26093   */\n      lt\n        /* \"#utility.yul\":26071:26250   */\n      iszero\n      tag_764\n      jumpi\n        /* \"#utility.yul\":26144:26153   */\n      dup5\n        /* \"#utility.yul\":26139:26142   */\n      dup10\n        /* \"#utility.yul\":26135:26154   */\n      add\n        /* \"#utility.yul\":26129:26155   */\n      sload\n        /* \"#utility.yul\":26187:26235   */\n      tag_765\n        /* \"#utility.yul\":26229:26233   */\n      0x1f\n        /* \"#utility.yul\":26221:26227   */\n      dup10\n        /* \"#utility.yul\":26217:26234   */\n      and\n        /* \"#utility.yul\":26206:26215   */\n      dup3\n        /* \"#utility.yul\":26187:26235   */\n      tag_465\n      jump\t// in\n    tag_765:\n        /* \"#utility.yul\":26179:26185   */\n      dup4\n        /* \"#utility.yul\":26172:26236   */\n      sstore\n        /* \"#utility.yul\":26094:26250   */\n      pop\n        /* \"#utility.yul\":26071:26250   */\n    tag_764:\n        /* \"#utility.yul\":26296:26297   */\n      0x01\n        /* \"#utility.yul\":26292:26293   */\n      0x02\n        /* \"#utility.yul\":26284:26290   */\n      dup9\n        /* \"#utility.yul\":26280:26294   */\n      mul\n        /* \"#utility.yul\":26276:26298   */\n      add\n        /* \"#utility.yul\":26270:26274   */\n      dup9\n        /* \"#utility.yul\":26263:26299   */\n      sstore\n        /* \"#utility.yul\":25640:26309   */\n      pop\n      pop\n      pop\n        /* \"#utility.yul\":25603:26548   */\n    tag_755:\n      pop\n        /* \"#utility.yul\":25184:26554   */\n      pop\n      pop\n      pop\n        /* \"#utility.yul\":25091:26554   */\n      pop\n      pop\n    tag_748:\n      jump\t// out\n        /* \"#utility.yul\":26560:26740   */\n    tag_350:\n        /* \"#utility.yul\":26608:26685   */\n      0x4e487b7100000000000000000000000000000000000000000000000000000000\n        /* \"#utility.yul\":26605:26606   */\n      0x00\n        /* \"#utility.yul\":26598:26686   */\n      mstore\n        /* \"#utility.yul\":26705:26709   */\n      0x31\n        /* \"#utility.yul\":26702:26703   */\n      0x04\n        /* \"#utility.yul\":26695:26710   */\n      mstore\n        /* \"#utility.yul\":26729:26733   */\n      0x24\n        /* \"#utility.yul\":26726:26727   */\n      0x00\n        /* \"#utility.yul\":26719:26734   */\n      revert\n        /* \"#utility.yul\":26746:26971   */\n    tag_470:\n        /* \"#utility.yul\":26886:26920   */\n      0x4f776e61626c653a206e6577206f776e657220697320746865207a65726f2061\n        /* \"#utility.yul\":26882:26883   */\n      0x00\n        /* \"#utility.yul\":26874:26880   */\n      dup3\n        /* \"#utility.yul\":26870:26884   */\n      add\n        /* \"#utility.yul\":26863:26921   */\n      mstore\n        /* \"#utility.yul\":26955:26963   */\n      0x6464726573730000000000000000000000000000000000000000000000000000\n        /* \"#utility.yul\":26950:26952   */\n      0x20\n        /* \"#utility.yul\":26942:26948   */\n      dup3\n        /* \"#utility.yul\":26938:26953   */\n      add\n        /* \"#utility.yul\":26931:26964   */\n      mstore\n        /* \"#utility.yul\":26746:26971   */\n      pop\n      jump\t// out\n        /* \"#utility.yul\":26977:27343   */\n    tag_471:\n        /* \"#utility.yul\":27119:27122   */\n      0x00\n        /* \"#utility.yul\":27140:27207   */\n      tag_769\n        /* \"#utility.yul\":27204:27206   */\n      0x26\n        /* \"#utility.yul\":27199:27202   */\n      dup4\n        /* \"#utility.yul\":27140:27207   */\n      tag_433\n      jump\t// in\n    tag_769:\n        /* \"#utility.yul\":27133:27207   */\n      swap2\n      pop\n        /* \"#utility.yul\":27216:27309   */\n      tag_770\n        /* \"#utility.yul\":27305:27308   */\n      dup3\n        /* \"#utility.yul\":27216:27309   */\n      tag_470\n      jump\t// in\n    tag_770:\n        /* \"#utility.yul\":27334:27336   */\n      0x40\n        /* \"#utility.yul\":27329:27332   */\n      dup3\n        /* \"#utility.yul\":27325:27337   */\n      add\n        /* \"#utility.yul\":27318:27337   */\n      swap1\n      pop\n        /* \"#utility.yul\":26977:27343   */\n      swap2\n      swap1\n      pop\n      jump\t// out\n        /* \"#utility.yul\":27349:27768   */\n    tag_375:\n        /* \"#utility.yul\":27515:27519   */\n      0x00\n        /* \"#utility.yul\":27553:27555   */\n      0x20\n        /* \"#utility.yul\":27542:27551   */\n      dup3\n        /* \"#utility.yul\":27538:27556   */\n      add\n        /* \"#utility.yul\":27530:27556   */\n      swap1\n      pop\n        /* \"#utility.yul\":27602:27611   */\n      dup2\n        /* \"#utility.yul\":27596:27600   */\n      dup2\n        /* \"#utility.yul\":27592:27612   */\n      sub\n        /* \"#utility.yul\":27588:27589   */\n      0x00\n        /* \"#utility.yul\":27577:27586   */\n      dup4\n        /* \"#utility.yul\":27573:27590   */\n      add\n        /* \"#utility.yul\":27566:27613   */\n      mstore\n        /* \"#utility.yul\":27630:27761   */\n      tag_772\n        /* \"#utility.yul\":27756:27760   */\n      dup2\n        /* \"#utility.yul\":27630:27761   */\n      tag_471\n      jump\t// in\n    tag_772:\n        /* \"#utility.yul\":27622:27761   */\n      swap1\n      pop\n        /* \"#utility.yul\":27349:27768   */\n      swap2\n      swap1\n      pop\n      jump\t// out\n        /* \"#utility.yul\":27774:27956   */\n    tag_472:\n        /* \"#utility.yul\":27914:27948   */\n      0x4f776e61626c653a2063616c6c6572206973206e6f7420746865206f776e6572\n        /* \"#utility.yul\":27910:27911   */\n      0x00\n        /* \"#utility.yul\":27902:27908   */\n      dup3\n        /* \"#utility.yul\":27898:27912   */\n      add\n        /* \"#utility.yul\":27891:27949   */\n      mstore\n        /* \"#utility.yul\":27774:27956   */\n      pop\n      jump\t// out\n        /* \"#utility.yul\":27962:28328   */\n    tag_473:\n        /* \"#utility.yul\":28104:28107   */\n      0x00\n        /* \"#utility.yul\":28125:28192   */\n      tag_775\n        /* \"#utility.yul\":28189:28191   */\n      0x20\n        /* \"#utility.yul\":28184:28187   */\n      dup4\n        /* \"#utility.yul\":28125:28192   */\n      tag_433\n      jump\t// in\n    tag_775:\n        /* \"#utility.yul\":28118:28192   */\n      swap2\n      pop\n        /* \"#utility.yul\":28201:28294   */\n      tag_776\n        /* \"#utility.yul\":28290:28293   */\n      dup3\n        /* \"#utility.yul\":28201:28294   */\n      tag_472\n      jump\t// in\n    tag_776:\n        /* \"#utility.yul\":28319:28321   */\n      0x20\n        /* \"#utility.yul\":28314:28317   */\n      dup3\n        /* \"#utility.yul\":28310:28322   */\n      add\n        /* \"#utility.yul\":28303:28322   */\n      swap1\n      pop\n        /* \"#utility.yul\":27962:28328   */\n      swap2\n      swap1\n      pop\n      jump\t// out\n        /* \"#utility.yul\":28334:28753   */\n    tag_383:\n        /* \"#utility.yul\":28500:28504   */\n      0x00\n        /* \"#utility.yul\":28538:28540   */\n      0x20\n        /* \"#utility.yul\":28527:28536   */\n      dup3\n        /* \"#utility.yul\":28523:28541   */\n      add\n        /* \"#utility.yul\":28515:28541   */\n      swap1\n      pop\n        /* \"#utility.yul\":28587:28596   */\n      dup2\n        /* \"#utility.yul\":28581:28585   */\n      dup2\n        /* \"#utility.yul\":28577:28597   */\n      sub\n        /* \"#utility.yul\":28573:28574   */\n      0x00\n        /* \"#utility.yul\":28562:28571   */\n      dup4\n        /* \"#utility.yul\":28558:28575   */\n      add\n        /* \"#utility.yul\":28551:28598   */\n      mstore\n        /* \"#utility.yul\":28615:28746   */\n      tag_778\n        /* \"#utility.yul\":28741:28745   */\n      dup2\n        /* \"#utility.yul\":28615:28746   */\n      tag_473\n      jump\t// in\n    tag_778:\n        /* \"#utility.yul\":28607:28746   */\n      swap1\n      pop\n        /* \"#utility.yul\":28334:28753   */\n      swap2\n      swap1\n      pop\n      jump\t// out\n\n    auxdata: 0xa264697066735822122021487ca432a13344153f8e582144485b5bfce21867942c3bc5d2ac4a58b883b664736f6c63430008110033\n}\n",
				"bytecode": {
					"linkReferences": {},
					"object": "6080604052678ac7230489e800006007556000600860006101000a81548161ffff021916908361ffff1602179055506000600860026101000a81548161ffff021916908361ffff16021790555062093a80600955612328600a556103e8600b553480156200006c57600080fd5b506200008d620000816200009360201b60201c565b6200009b60201b60201c565b6200015f565b600033905090565b60008060009054906101000a900473ffffffffffffffffffffffffffffffffffffffff169050816000806101000a81548173ffffffffffffffffffffffffffffffffffffffff021916908373ffffffffffffffffffffffffffffffffffffffff1602179055508173ffffffffffffffffffffffffffffffffffffffff168173ffffffffffffffffffffffffffffffffffffffff167f8be0079c531659141344cd1fd0a4f28419497f9722a3daafe3b4186f6b6457e060405160405180910390a35050565b6128cf806200016f6000396000f3fe608060405234801561001057600080fd5b50600436106102695760003560e01c8063715018a611610151578063a8f560f9116100c3578063d703805f11610087578063d703805f1461075a578063d98cd54d14610778578063dbf26edf14610796578063e9fcb6fc146107b2578063f2fde38b146107d0578063ffef89c3146107ec57610269565b8063a8f560f9146106c8578063a96ed9c1146106e6578063b66dd71514610702578063c8aecea61461071e578063c90cee4e1461073c57610269565b80638da5cb5b116101155780638da5cb5b146105f057806399adf51e1461060e5780639a403ff61461063e5780639a503eb11461065c5780639e7a02571461068c5780639fa2526f146106aa57610269565b8063715018a61461054a578063751c0b351461055457806376993de31461058457806377ec7252146105b45780637c1855fa146105d257610269565b806343808c50116101ea57806360729675116101ae578063607296751461048857806362d91855146104a657806364693b87146104c257806367068278146104e05780636c021c7614610510578063704802751461052e57610269565b806343808c50146103ce578063527cb1d7146103fe5780635437733f1461041c5780635809cdb51461044c5780635cd9f87a1461046a57610269565b806324d7806c1161023157806324d7806c146103265780632f2b035b14610356578063331b4cda1461037457806336ffc86d146103925780634305c0dc146103b057610269565b8063022c36fd1461026e578063086ebaa41461028c5780630b114940146102aa5780630de53caf146102c6578063146772d7146102f6575b600080fd5b61027661080a565b604051610283919061191d565b60405180910390f35b610294610814565b6040516102a1919061191d565b60405180910390f35b6102c460048036038101906102bf9190611a92565b61081e565b005b6102e060048036038101906102db9190611a92565b6109cc565b6040516102ed9190611af8565b60405180910390f35b610310600480360381019061030b9190611a92565b610a03565b60405161031d9190611af8565b60405180910390f35b610340600480360381019061033b9190611b71565b610a39565b60405161034d9190611bb9565b60405180910390f35b61035e610a8f565b60405161036b9190611d15565b60405180910390f35b61037c610b68565b6040516103899190611af8565b60405180910390f35b61039a610b71565b6040516103a7919061191d565b60405180910390f35b6103b8610b86565b6040516103c59190611af8565b60405180910390f35b6103e860048036038101906103e39190611d63565b610b9e565b6040516103f59190611bb9565b60405180910390f35b610406610c7c565b604051610413919061191d565b60405180910390f35b61043660048036038101906104319190611d90565b610c8c565b6040516104439190611bb9565b60405180910390f35b610454610d03565b6040516104619190611af8565b60405180910390f35b610472610d0c565b60405161047f9190611af8565b60405180910390f35b610490610d11565b60405161049d919061191d565b60405180910390f35b6104c060048036038101906104bb9190611b71565b610d17565b005b6104ca610d7a565b6040516104d79190611af8565b60405180910390f35b6104fa60048036038101906104f59190611d63565b610d83565b6040516105079190611e36565b60405180910390f35b610518610e2f565b6040516105259190611af8565b60405180910390f35b61054860048036038101906105439190611b71565b610e43565b005b610552610ea5565b005b61056e60048036038101906105699190611d63565b610eb9565b60405161057b9190611e36565b60405180910390f35b61059e60048036038101906105999190611a92565b610f65565b6040516105ab9190611af8565b60405180910390f35b6105bc610f9c565b6040516105c9919061191d565b60405180910390f35b6105da610fa2565b6040516105e79190611af8565b60405180910390f35b6105f8610fb6565b6040516106059190611e67565b60405180910390f35b61062860048036038101906106239190611a92565b610fdf565b6040516106359190611af8565b60405180910390f35b610646611015565b604051610653919061191d565b60405180910390f35b61067660048036038101906106719190611a92565b61101f565b6040516106839190611e67565b60405180910390f35b610694611067565b6040516106a1919061191d565b60405180910390f35b6106b261106d565b6040516106bf9190611af8565b60405180910390f35b6106d0611072565b6040516106dd9190611d15565b60405180910390f35b61070060048036038101906106fb919061202b565b61114b565b005b61071c60048036038101906107179190611a92565b611208565b005b610726611476565b604051610733919061191d565b60405180910390f35b61074461147c565b604051610751919061191d565b60405180910390f35b610762611486565b60405161076f919061191d565b60405180910390f35b610780611492565b60405161078d919061191d565b60405180910390f35b6107b060048036038101906107ab9190611a92565b6114a3565b005b6107ba611651565b6040516107c79190611af8565b60405180910390f35b6107ea60048036038101906107e59190611b71565b611669565b005b6107f46116ec565b6040516108019190611af8565b60405180910390f35b6000600954905090565b6000600a54905090565b3073ffffffffffffffffffffffffffffffffffffffff16635437733f336040518263ffffffff1660e01b815260040161085791906120ef565b602060405180830381865afa158015610874573d6000803e3d6000fd5b505050506040513d601f19601f820116820180604052508101906108989190612149565b6108d7576040517f08c379a00000000000000000000000000000000000000000000000000000000081526004016108ce906121c2565b60405180910390fd5b60006006826040516108e9919061221e565b908152602001604051809103902060009054906101000a900461ffff1661ffff16036109c9576005819080600181540180825580915050600190039060005260206000200160009091909190915090816109439190612441565b506008600281819054906101000a900461ffff168092919061096490612542565b91906101000a81548161ffff021916908361ffff16021790555050600860029054906101000a900461ffff166006826040516109a0919061221e565b908152602001604051809103902060006101000a81548161ffff021916908361ffff1602179055505b50565b6006818051602081018201805184825260208301602085012081835280955050505050506000915054906101000a900461ffff1681565b6000600482604051610a15919061221e565b908152602001604051809103902060009054906101000a900461ffff169050919050565b6000600160008373ffffffffffffffffffffffffffffffffffffffff1673ffffffffffffffffffffffffffffffffffffffff16815260200190815260200160002060009054906101000a900460ff169050919050565b60606003805480602002602001604051908101604052809291908181526020016000905b82821015610b5f578382906000526020600020018054610ad290612264565b80601f0160208091040260200160405190810160405280929190818152602001828054610afe90612264565b8015610b4b5780601f10610b2057610100808354040283529160200191610b4b565b820191906000526020600020905b815481529060010190602001808311610b2e57829003601f168201915b505050505081526020019060010190610ab3565b50505050905090565b60006002905090565b60006c01431e0fae6d7217caa0000000905090565b6000600860029054906101000a900461ffff16905090565b60003073ffffffffffffffffffffffffffffffffffffffff16635437733f336040518263ffffffff1660e01b8152600401610bd991906120ef565b602060405180830381865afa158015610bf6573d6000803e3d6000fd5b505050506040513d601f19601f82011682018060405250810190610c1a9190612149565b610c59576040517f08c379a0000000000000000000000000000000000000000000000000000000008152600401610c50906121c2565b60405180910390fd5b670de0b6b3a764000082610c6d919061256c565b60078190555060019050919050565b6000670de0b6b3a7640000905090565b6000600283604051610c9e919061221e565b908152602001604051809103902060009054906101000a900473ffffffffffffffffffffffffffffffffffffffff1673ffffffffffffffffffffffffffffffffffffffff168273ffffffffffffffffffffffffffffffffffffffff1614905092915050565b60006003905090565b600181565b60075481565b610d1f6116f1565b6000600160008373ffffffffffffffffffffffffffffffffffffffff1673ffffffffffffffffffffffffffffffffffffffff16815260200190815260200160002060006101000a81548160ff02191690831515021790555050565b60006001905090565b60058181548110610d9357600080fd5b906000526020600020016000915090508054610dae90612264565b80601f0160208091040260200160405190810160405280929190818152602001828054610dda90612264565b8015610e275780601f10610dfc57610100808354040283529160200191610e27565b820191906000526020600020905b815481529060010190602001808311610e0a57829003601f168201915b505050505081565b600860029054906101000a900461ffff1681565b610e4b6116f1565b60018060008373ffffffffffffffffffffffffffffffffffffffff1673ffffffffffffffffffffffffffffffffffffffff16815260200190815260200160002060006101000a81548160ff02191690831515021790555050565b610ead6116f1565b610eb7600061176f565b565b60038181548110610ec957600080fd5b906000526020600020016000915090508054610ee490612264565b80601f0160208091040260200160405190810160405280929190818152602001828054610f1090612264565b8015610f5d5780601f10610f3257610100808354040283529160200191610f5d565b820191906000526020600020905b815481529060010190602001808311610f4057829003601f168201915b505050505081565b6004818051602081018201805184825260208301602085012081835280955050505050506000915054906101000a900461ffff1681565b600b5481565b600860009054906101000a900461ffff1681565b60008060009054906101000a900473ffffffffffffffffffffffffffffffffffffffff16905090565b6000600682604051610ff1919061221e565b908152602001604051809103902060009054906101000a900461ffff169050919050565b6000600754905090565b6000600282604051611031919061221e565b908152602001604051809103902060009054906101000a900473ffffffffffffffffffffffffffffffffffffffff169050919050565b600a5481565b600381565b60606005805480602002602001604051908101604052809291908181526020016000905b828210156111425783829060005260206000200180546110b590612264565b80601f01602080910402602001604051908101604052809291908181526020018280546110e190612264565b801561112e5780601f106111035761010080835404028352916020019161112e565b820191906000526020600020905b81548152906001019060200180831161111157829003601f168201915b505050505081526020019060010190611096565b50505050905090565b6111536116f1565b60005b825181101561120357818181518110611172576111716125ae565b5b6020026020010151600284838151811061118f5761118e6125ae565b5b60200260200101516040516111a4919061221e565b908152602001604051809103902060006101000a81548173ffffffffffffffffffffffffffffffffffffffff021916908373ffffffffffffffffffffffffffffffffffffffff16021790555080806111fb906125dd565b915050611156565b505050565b60005b600380549050811015611472576112c86003828154811061122f5761122e6125ae565b5b90600052602060002001805461124490612264565b80601f016020809104026020016040519081016040528092919081815260200182805461127090612264565b80156112bd5780601f10611292576101008083540402835291602001916112bd565b820191906000526020600020905b8154815290600101906020018083116112a057829003601f168201915b505050505083611833565b1561145f5760016003805490506112df9190612625565b81101561142a576000600360016003805490506112fc9190612625565b8154811061130d5761130c6125ae565b5b90600052602060002001805461132290612264565b80601f016020809104026020016040519081016040528092919081815260200182805461134e90612264565b801561139b5780601f106113705761010080835404028352916020019161139b565b820191906000526020600020905b81548152906001019060200180831161137e57829003601f168201915b50505050509050600382815481106113b6576113b56125ae565b5b90600052602060002001600360016003805490506113d49190612625565b815481106113e5576113e46125ae565b5b9060005260206000200190816113fb9190612684565b508060038381548110611411576114106125ae565b5b9060005260206000200190816114279190612441565b50505b600380548061143c5761143b61276c565b5b60019003818190600052602060002001600061145891906118a7565b9055611472565b808061146a906125dd565b91505061120b565b5050565b60095481565b6000600b54905090565b670de0b6b3a764000081565b6c01431e0fae6d7217caa000000081565b3073ffffffffffffffffffffffffffffffffffffffff16635437733f336040518263ffffffff1660e01b81526004016114dc91906120ef565b602060405180830381865afa1580156114f9573d6000803e3d6000fd5b505050506040513d601f19601f8201168201806040525081019061151d9190612149565b61155c576040517f08c379a0000000000000000000000000000000000000000000000000000000008152600401611553906121c2565b60405180910390fd5b600060048260405161156e919061221e565b908152602001604051809103902060009054906101000a900461ffff1661ffff160361164e576003819080600181540180825580915050600190039060005260206000200160009091909190915090816115c89190612441565b506008600081819054906101000a900461ffff16809291906115e990612542565b91906101000a81548161ffff021916908361ffff16021790555050600860009054906101000a900461ffff16600482604051611625919061221e565b908152602001604051809103902060006101000a81548161ffff021916908361ffff1602179055505b50565b6000600860009054906101000a900461ffff16905090565b6116716116f1565b600073ffffffffffffffffffffffffffffffffffffffff168173ffffffffffffffffffffffffffffffffffffffff16036116e0576040517f08c379a00000000000000000000000000000000000000000000000000000000081526004016116d79061280d565b60405180910390fd5b6116e98161176f565b50565b600281565b6116f961189f565b73ffffffffffffffffffffffffffffffffffffffff16611717610fb6565b73ffffffffffffffffffffffffffffffffffffffff161461176d576040517f08c379a000000000000000000000000000000000000000000000000000000000815260040161176490612879565b60405180910390fd5b565b60008060009054906101000a900473ffffffffffffffffffffffffffffffffffffffff169050816000806101000a81548173ffffffffffffffffffffffffffffffffffffffff021916908373ffffffffffffffffffffffffffffffffffffffff1602179055508173ffffffffffffffffffffffffffffffffffffffff168173ffffffffffffffffffffffffffffffffffffffff167f8be0079c531659141344cd1fd0a4f28419497f9722a3daafe3b4186f6b6457e060405160405180910390a35050565b600081518351146118475760009050611899565b81604051602001611858919061221e565b604051602081830303815290604052805190602001208360405160200161187f919061221e565b604051602081830303815290604052805190602001201490505b92915050565b600033905090565b5080546118b390612264565b6000825580601f106118c557506118e4565b601f0160209004906000526020600020908101906118e391906118e7565b5b50565b5b808211156119005760008160009055506001016118e8565b5090565b6000819050919050565b61191781611904565b82525050565b6000602082019050611932600083018461190e565b92915050565b6000604051905090565b600080fd5b600080fd5b600080fd5b600080fd5b6000601f19601f8301169050919050565b7f4e487b7100000000000000000000000000000000000000000000000000000000600052604160045260246000fd5b61199f82611956565b810181811067ffffffffffffffff821117156119be576119bd611967565b5b80604052505050565b60006119d1611938565b90506119dd8282611996565b919050565b600067ffffffffffffffff8211156119fd576119fc611967565b5b611a0682611956565b9050602081019050919050565b82818337600083830152505050565b6000611a35611a30846119e2565b6119c7565b905082815260208101848484011115611a5157611a50611951565b5b611a5c848285611a13565b509392505050565b600082601f830112611a7957611a7861194c565b5b8135611a89848260208601611a22565b91505092915050565b600060208284031215611aa857611aa7611942565b5b600082013567ffffffffffffffff811115611ac657611ac5611947565b5b611ad284828501611a64565b91505092915050565b600061ffff82169050919050565b611af281611adb565b82525050565b6000602082019050611b0d6000830184611ae9565b92915050565b600073ffffffffffffffffffffffffffffffffffffffff82169050919050565b6000611b3e82611b13565b9050919050565b611b4e81611b33565b8114611b5957600080fd5b50565b600081359050611b6b81611b45565b92915050565b600060208284031215611b8757611b86611942565b5b6000611b9584828501611b5c565b91505092915050565b60008115159050919050565b611bb381611b9e565b82525050565b6000602082019050611bce6000830184611baa565b92915050565b600081519050919050565b600082825260208201905092915050565b6000819050602082019050919050565b600081519050919050565b600082825260208201905092915050565b60005b83811015611c3a578082015181840152602081019050611c1f565b60008484015250505050565b6000611c5182611c00565b611c5b8185611c0b565b9350611c6b818560208601611c1c565b611c7481611956565b840191505092915050565b6000611c8b8383611c46565b905092915050565b6000602082019050919050565b6000611cab82611bd4565b611cb58185611bdf565b935083602082028501611cc785611bf0565b8060005b85811015611d035784840389528151611ce48582611c7f565b9450611cef83611c93565b925060208a01995050600181019050611ccb565b50829750879550505050505092915050565b60006020820190508181036000830152611d2f8184611ca0565b905092915050565b611d4081611904565b8114611d4b57600080fd5b50565b600081359050611d5d81611d37565b92915050565b600060208284031215611d7957611d78611942565b5b6000611d8784828501611d4e565b91505092915050565b60008060408385031215611da757611da6611942565b5b600083013567ffffffffffffffff811115611dc557611dc4611947565b5b611dd185828601611a64565b9250506020611de285828601611b5c565b9150509250929050565b600082825260208201905092915050565b6000611e0882611c00565b611e128185611dec565b9350611e22818560208601611c1c565b611e2b81611956565b840191505092915050565b60006020820190508181036000830152611e508184611dfd565b905092915050565b611e6181611b33565b82525050565b6000602082019050611e7c6000830184611e58565b92915050565b600067ffffffffffffffff821115611e9d57611e9c611967565b5b602082029050602081019050919050565b600080fd5b6000611ec6611ec184611e82565b6119c7565b90508083825260208201905060208402830185811115611ee957611ee8611eae565b5b835b81811015611f3057803567ffffffffffffffff811115611f0e57611f0d61194c565b5b808601611f1b8982611a64565b85526020850194505050602081019050611eeb565b5050509392505050565b600082601f830112611f4f57611f4e61194c565b5b8135611f5f848260208601611eb3565b91505092915050565b600067ffffffffffffffff821115611f8357611f82611967565b5b602082029050602081019050919050565b6000611fa7611fa284611f68565b6119c7565b90508083825260208201905060208402830185811115611fca57611fc9611eae565b5b835b81811015611ff35780611fdf8882611b5c565b845260208401935050602081019050611fcc565b5050509392505050565b600082601f8301126120125761201161194c565b5b8135612022848260208601611f94565b91505092915050565b6000806040838503121561204257612041611942565b5b600083013567ffffffffffffffff8111156120605761205f611947565b5b61206c85828601611f3a565b925050602083013567ffffffffffffffff81111561208d5761208c611947565b5b61209985828601611ffd565b9150509250929050565b7f5665727465780000000000000000000000000000000000000000000000000000600082015250565b60006120d9600683611dec565b91506120e4826120a3565b602082019050919050565b60006040820190508181036000830152612108816120cc565b90506121176020830184611e58565b92915050565b61212681611b9e565b811461213157600080fd5b50565b6000815190506121438161211d565b92915050565b60006020828403121561215f5761215e611942565b5b600061216d84828501612134565b91505092915050565b7f7665726966792061757468206572726f72000000000000000000000000000000600082015250565b60006121ac601183611dec565b91506121b782612176565b602082019050919050565b600060208201905081810360008301526121db8161219f565b9050919050565b600081905092915050565b60006121f882611c00565b61220281856121e2565b9350612212818560208601611c1c565b80840191505092915050565b600061222a82846121ed565b915081905092915050565b7f4e487b7100000000000000000000000000000000000000000000000000000000600052602260045260246000fd5b6000600282049050600182168061227c57607f821691505b60208210810361228f5761228e612235565b5b50919050565b60008190508160005260206000209050919050565b60006020601f8301049050919050565b600082821b905092915050565b6000600883026122f77fffffffffffffffffffffffffffffffffffffffffffffffffffffffffffffffff826122ba565b61230186836122ba565b95508019841693508086168417925050509392505050565b6000819050919050565b600061233e61233961233484611904565b612319565b611904565b9050919050565b6000819050919050565b61235883612323565b61236c61236482612345565b8484546122c7565b825550505050565b600090565b612381612374565b61238c81848461234f565b505050565b5b818110156123b0576123a5600082612379565b600181019050612392565b5050565b601f8211156123f5576123c681612295565b6123cf846122aa565b810160208510156123de578190505b6123f26123ea856122aa565b830182612391565b50505b505050565b600082821c905092915050565b6000612418600019846008026123fa565b1980831691505092915050565b60006124318383612407565b9150826002028217905092915050565b61244a82611c00565b67ffffffffffffffff81111561246357612462611967565b5b61246d8254612264565b6124788282856123b4565b600060209050601f8311600181146124ab5760008415612499578287015190505b6124a38582612425565b86555061250b565b601f1984166124b986612295565b60005b828110156124e1578489015182556001820191506020850194506020810190506124bc565b868310156124fe57848901516124fa601f891682612407565b8355505b6001600288020188555050505b505050505050565b7f4e487b7100000000000000000000000000000000000000000000000000000000600052601160045260246000fd5b600061254d82611adb565b915061ffff820361256157612560612513565b5b600182019050919050565b600061257782611904565b915061258283611904565b925082820261259081611904565b915082820484148315176125a7576125a6612513565b5b5092915050565b7f4e487b7100000000000000000000000000000000000000000000000000000000600052603260045260246000fd5b60006125e882611904565b91507fffffffffffffffffffffffffffffffffffffffffffffffffffffffffffffffff820361261a57612619612513565b5b600182019050919050565b600061263082611904565b915061263b83611904565b925082820390508181111561265357612652612513565b5b92915050565b60008154905061266881612264565b9050919050565b60008190508160005260206000209050919050565b81810361269257505061276a565b61269b82612659565b67ffffffffffffffff8111156126b4576126b3611967565b5b6126be8254612264565b6126c98282856123b4565b6000601f8311600181146126f857600084156126e6578287015490505b6126f08582612425565b865550612763565b601f1984166127068761266f565b965061271186612295565b60005b8281101561273957848901548255600182019150600185019450602081019050612714565b868310156127565784890154612752601f891682612407565b8355505b6001600288020188555050505b5050505050505b565b7f4e487b7100000000000000000000000000000000000000000000000000000000600052603160045260246000fd5b7f4f776e61626c653a206e6577206f776e657220697320746865207a65726f206160008201527f6464726573730000000000000000000000000000000000000000000000000000602082015250565b60006127f7602683611dec565b91506128028261279b565b604082019050919050565b60006020820190508181036000830152612826816127ea565b9050919050565b7f4f776e61626c653a2063616c6c6572206973206e6f7420746865206f776e6572600082015250565b6000612863602083611dec565b915061286e8261282d565b602082019050919050565b6000602082019050818103600083015261289281612856565b905091905056fea264697066735822122021487ca432a13344153f8e582144485b5bfce21867942c3bc5d2ac4a58b883b664736f6c63430008110033",
					"opcodes": "PUSH1 0x80 PUSH1 0x40 MSTORE PUSH8 0x8AC7230489E80000 PUSH1 0x7 SSTORE PUSH1 0x0 PUSH1 0x8 PUSH1 0x0 PUSH2 0x100 EXP DUP2 SLOAD DUP2 PUSH2 0xFFFF MUL NOT AND SWAP1 DUP4 PUSH2 0xFFFF AND MUL OR SWAP1 SSTORE POP PUSH1 0x0 PUSH1 0x8 PUSH1 0x2 PUSH2 0x100 EXP DUP2 SLOAD DUP2 PUSH2 0xFFFF MUL NOT AND SWAP1 DUP4 PUSH2 0xFFFF AND MUL OR SWAP1 SSTORE POP PUSH3 0x93A80 PUSH1 0x9 SSTORE PUSH2 0x2328 PUSH1 0xA SSTORE PUSH2 0x3E8 PUSH1 0xB SSTORE CALLVALUE DUP1 ISZERO PUSH3 0x6C JUMPI PUSH1 0x0 DUP1 REVERT JUMPDEST POP PUSH3 0x8D PUSH3 0x81 PUSH3 0x93 PUSH1 0x20 SHL PUSH1 0x20 SHR JUMP JUMPDEST PUSH3 0x9B PUSH1 0x20 SHL PUSH1 0x20 SHR JUMP JUMPDEST PUSH3 0x15F JUMP JUMPDEST PUSH1 0x0 CALLER SWAP1 POP SWAP1 JUMP JUMPDEST PUSH1 0x0 DUP1 PUSH1 0x0 SWAP1 SLOAD SWAP1 PUSH2 0x100 EXP SWAP1 DIV PUSH20 0xFFFFFFFFFFFFFFFFFFFFFFFFFFFFFFFFFFFFFFFF AND SWAP1 POP DUP2 PUSH1 0x0 DUP1 PUSH2 0x100 EXP DUP2 SLOAD DUP2 PUSH20 0xFFFFFFFFFFFFFFFFFFFFFFFFFFFFFFFFFFFFFFFF MUL NOT AND SWAP1 DUP4 PUSH20 0xFFFFFFFFFFFFFFFFFFFFFFFFFFFFFFFFFFFFFFFF AND MUL OR SWAP1 SSTORE POP DUP2 PUSH20 0xFFFFFFFFFFFFFFFFFFFFFFFFFFFFFFFFFFFFFFFF AND DUP2 PUSH20 0xFFFFFFFFFFFFFFFFFFFFFFFFFFFFFFFFFFFFFFFF AND PUSH32 0x8BE0079C531659141344CD1FD0A4F28419497F9722A3DAAFE3B4186F6B6457E0 PUSH1 0x40 MLOAD PUSH1 0x40 MLOAD DUP1 SWAP2 SUB SWAP1 LOG3 POP POP JUMP JUMPDEST PUSH2 0x28CF DUP1 PUSH3 0x16F PUSH1 0x0 CODECOPY PUSH1 0x0 RETURN INVALID PUSH1 0x80 PUSH1 0x40 MSTORE CALLVALUE DUP1 ISZERO PUSH2 0x10 JUMPI PUSH1 0x0 DUP1 REVERT JUMPDEST POP PUSH1 0x4 CALLDATASIZE LT PUSH2 0x269 JUMPI PUSH1 0x0 CALLDATALOAD PUSH1 0xE0 SHR DUP1 PUSH4 0x715018A6 GT PUSH2 0x151 JUMPI DUP1 PUSH4 0xA8F560F9 GT PUSH2 0xC3 JUMPI DUP1 PUSH4 0xD703805F GT PUSH2 0x87 JUMPI DUP1 PUSH4 0xD703805F EQ PUSH2 0x75A JUMPI DUP1 PUSH4 0xD98CD54D EQ PUSH2 0x778 JUMPI DUP1 PUSH4 0xDBF26EDF EQ PUSH2 0x796 JUMPI DUP1 PUSH4 0xE9FCB6FC EQ PUSH2 0x7B2 JUMPI DUP1 PUSH4 0xF2FDE38B EQ PUSH2 0x7D0 JUMPI DUP1 PUSH4 0xFFEF89C3 EQ PUSH2 0x7EC JUMPI PUSH2 0x269 JUMP JUMPDEST DUP1 PUSH4 0xA8F560F9 EQ PUSH2 0x6C8 JUMPI DUP1 PUSH4 0xA96ED9C1 EQ PUSH2 0x6E6 JUMPI DUP1 PUSH4 0xB66DD715 EQ PUSH2 0x702 JUMPI DUP1 PUSH4 0xC8AECEA6 EQ PUSH2 0x71E JUMPI DUP1 PUSH4 0xC90CEE4E EQ PUSH2 0x73C JUMPI PUSH2 0x269 JUMP JUMPDEST DUP1 PUSH4 0x8DA5CB5B GT PUSH2 0x115 JUMPI DUP1 PUSH4 0x8DA5CB5B EQ PUSH2 0x5F0 JUMPI DUP1 PUSH4 0x99ADF51E EQ PUSH2 0x60E JUMPI DUP1 PUSH4 0x9A403FF6 EQ PUSH2 0x63E JUMPI DUP1 PUSH4 0x9A503EB1 EQ PUSH2 0x65C JUMPI DUP1 PUSH4 0x9E7A0257 EQ PUSH2 0x68C JUMPI DUP1 PUSH4 0x9FA2526F EQ PUSH2 0x6AA JUMPI PUSH2 0x269 JUMP JUMPDEST DUP1 PUSH4 0x715018A6 EQ PUSH2 0x54A JUMPI DUP1 PUSH4 0x751C0B35 EQ PUSH2 0x554 JUMPI DUP1 PUSH4 0x76993DE3 EQ PUSH2 0x584 JUMPI DUP1 PUSH4 0x77EC7252 EQ PUSH2 0x5B4 JUMPI DUP1 PUSH4 0x7C1855FA EQ PUSH2 0x5D2 JUMPI PUSH2 0x269 JUMP JUMPDEST DUP1 PUSH4 0x43808C50 GT PUSH2 0x1EA JUMPI DUP1 PUSH4 0x60729675 GT PUSH2 0x1AE JUMPI DUP1 PUSH4 0x60729675 EQ PUSH2 0x488 JUMPI DUP1 PUSH4 0x62D91855 EQ PUSH2 0x4A6 JUMPI DUP1 PUSH4 0x64693B87 EQ PUSH2 0x4C2 JUMPI DUP1 PUSH4 0x67068278 EQ PUSH2 0x4E0 JUMPI DUP1 PUSH4 0x6C021C76 EQ PUSH2 0x510 JUMPI DUP1 PUSH4 0x70480275 EQ PUSH2 0x52E JUMPI PUSH2 0x269 JUMP JUMPDEST DUP1 PUSH4 0x43808C50 EQ PUSH2 0x3CE JUMPI DUP1 PUSH4 0x527CB1D7 EQ PUSH2 0x3FE JUMPI DUP1 PUSH4 0x5437733F EQ PUSH2 0x41C JUMPI DUP1 PUSH4 0x5809CDB5 EQ PUSH2 0x44C JUMPI DUP1 PUSH4 0x5CD9F87A EQ PUSH2 0x46A JUMPI PUSH2 0x269 JUMP JUMPDEST DUP1 PUSH4 0x24D7806C GT PUSH2 0x231 JUMPI DUP1 PUSH4 0x24D7806C EQ PUSH2 0x326 JUMPI DUP1 PUSH4 0x2F2B035B EQ PUSH2 0x356 JUMPI DUP1 PUSH4 0x331B4CDA EQ PUSH2 0x374 JUMPI DUP1 PUSH4 0x36FFC86D EQ PUSH2 0x392 JUMPI DUP1 PUSH4 0x4305C0DC EQ PUSH2 0x3B0 JUMPI PUSH2 0x269 JUMP JUMPDEST DUP1 PUSH4 0x22C36FD EQ PUSH2 0x26E JUMPI DUP1 PUSH4 0x86EBAA4 EQ PUSH2 0x28C JUMPI DUP1 PUSH4 0xB114940 EQ PUSH2 0x2AA JUMPI DUP1 PUSH4 0xDE53CAF EQ PUSH2 0x2C6 JUMPI DUP1 PUSH4 0x146772D7 EQ PUSH2 0x2F6 JUMPI JUMPDEST PUSH1 0x0 DUP1 REVERT JUMPDEST PUSH2 0x276 PUSH2 0x80A JUMP JUMPDEST PUSH1 0x40 MLOAD PUSH2 0x283 SWAP2 SWAP1 PUSH2 0x191D JUMP JUMPDEST PUSH1 0x40 MLOAD DUP1 SWAP2 SUB SWAP1 RETURN JUMPDEST PUSH2 0x294 PUSH2 0x814 JUMP JUMPDEST PUSH1 0x40 MLOAD PUSH2 0x2A1 SWAP2 SWAP1 PUSH2 0x191D JUMP JUMPDEST PUSH1 0x40 MLOAD DUP1 SWAP2 SUB SWAP1 RETURN JUMPDEST PUSH2 0x2C4 PUSH1 0x4 DUP1 CALLDATASIZE SUB DUP2 ADD SWAP1 PUSH2 0x2BF SWAP2 SWAP1 PUSH2 0x1A92 JUMP JUMPDEST PUSH2 0x81E JUMP JUMPDEST STOP JUMPDEST PUSH2 0x2E0 PUSH1 0x4 DUP1 CALLDATASIZE SUB DUP2 ADD SWAP1 PUSH2 0x2DB SWAP2 SWAP1 PUSH2 0x1A92 JUMP JUMPDEST PUSH2 0x9CC JUMP JUMPDEST PUSH1 0x40 MLOAD PUSH2 0x2ED SWAP2 SWAP1 PUSH2 0x1AF8 JUMP JUMPDEST PUSH1 0x40 MLOAD DUP1 SWAP2 SUB SWAP1 RETURN JUMPDEST PUSH2 0x310 PUSH1 0x4 DUP1 CALLDATASIZE SUB DUP2 ADD SWAP1 PUSH2 0x30B SWAP2 SWAP1 PUSH2 0x1A92 JUMP JUMPDEST PUSH2 0xA03 JUMP JUMPDEST PUSH1 0x40 MLOAD PUSH2 0x31D SWAP2 SWAP1 PUSH2 0x1AF8 JUMP JUMPDEST PUSH1 0x40 MLOAD DUP1 SWAP2 SUB SWAP1 RETURN JUMPDEST PUSH2 0x340 PUSH1 0x4 DUP1 CALLDATASIZE SUB DUP2 ADD SWAP1 PUSH2 0x33B SWAP2 SWAP1 PUSH2 0x1B71 JUMP JUMPDEST PUSH2 0xA39 JUMP JUMPDEST PUSH1 0x40 MLOAD PUSH2 0x34D SWAP2 SWAP1 PUSH2 0x1BB9 JUMP JUMPDEST PUSH1 0x40 MLOAD DUP1 SWAP2 SUB SWAP1 RETURN JUMPDEST PUSH2 0x35E PUSH2 0xA8F JUMP JUMPDEST PUSH1 0x40 MLOAD PUSH2 0x36B SWAP2 SWAP1 PUSH2 0x1D15 JUMP JUMPDEST PUSH1 0x40 MLOAD DUP1 SWAP2 SUB SWAP1 RETURN JUMPDEST PUSH2 0x37C PUSH2 0xB68 JUMP JUMPDEST PUSH1 0x40 MLOAD PUSH2 0x389 SWAP2 SWAP1 PUSH2 0x1AF8 JUMP JUMPDEST PUSH1 0x40 MLOAD DUP1 SWAP2 SUB SWAP1 RETURN JUMPDEST PUSH2 0x39A PUSH2 0xB71 JUMP JUMPDEST PUSH1 0x40 MLOAD PUSH2 0x3A7 SWAP2 SWAP1 PUSH2 0x191D JUMP JUMPDEST PUSH1 0x40 MLOAD DUP1 SWAP2 SUB SWAP1 RETURN JUMPDEST PUSH2 0x3B8 PUSH2 0xB86 JUMP JUMPDEST PUSH1 0x40 MLOAD PUSH2 0x3C5 SWAP2 SWAP1 PUSH2 0x1AF8 JUMP JUMPDEST PUSH1 0x40 MLOAD DUP1 SWAP2 SUB SWAP1 RETURN JUMPDEST PUSH2 0x3E8 PUSH1 0x4 DUP1 CALLDATASIZE SUB DUP2 ADD SWAP1 PUSH2 0x3E3 SWAP2 SWAP1 PUSH2 0x1D63 JUMP JUMPDEST PUSH2 0xB9E JUMP JUMPDEST PUSH1 0x40 MLOAD PUSH2 0x3F5 SWAP2 SWAP1 PUSH2 0x1BB9 JUMP JUMPDEST PUSH1 0x40 MLOAD DUP1 SWAP2 SUB SWAP1 RETURN JUMPDEST PUSH2 0x406 PUSH2 0xC7C JUMP JUMPDEST PUSH1 0x40 MLOAD PUSH2 0x413 SWAP2 SWAP1 PUSH2 0x191D JUMP JUMPDEST PUSH1 0x40 MLOAD DUP1 SWAP2 SUB SWAP1 RETURN JUMPDEST PUSH2 0x436 PUSH1 0x4 DUP1 CALLDATASIZE SUB DUP2 ADD SWAP1 PUSH2 0x431 SWAP2 SWAP1 PUSH2 0x1D90 JUMP JUMPDEST PUSH2 0xC8C JUMP JUMPDEST PUSH1 0x40 MLOAD PUSH2 0x443 SWAP2 SWAP1 PUSH2 0x1BB9 JUMP JUMPDEST PUSH1 0x40 MLOAD DUP1 SWAP2 SUB SWAP1 RETURN JUMPDEST PUSH2 0x454 PUSH2 0xD03 JUMP JUMPDEST PUSH1 0x40 MLOAD PUSH2 0x461 SWAP2 SWAP1 PUSH2 0x1AF8 JUMP JUMPDEST PUSH1 0x40 MLOAD DUP1 SWAP2 SUB SWAP1 RETURN JUMPDEST PUSH2 0x472 PUSH2 0xD0C JUMP JUMPDEST PUSH1 0x40 MLOAD PUSH2 0x47F SWAP2 SWAP1 PUSH2 0x1AF8 JUMP JUMPDEST PUSH1 0x40 MLOAD DUP1 SWAP2 SUB SWAP1 RETURN JUMPDEST PUSH2 0x490 PUSH2 0xD11 JUMP JUMPDEST PUSH1 0x40 MLOAD PUSH2 0x49D SWAP2 SWAP1 PUSH2 0x191D JUMP JUMPDEST PUSH1 0x40 MLOAD DUP1 SWAP2 SUB SWAP1 RETURN JUMPDEST PUSH2 0x4C0 PUSH1 0x4 DUP1 CALLDATASIZE SUB DUP2 ADD SWAP1 PUSH2 0x4BB SWAP2 SWAP1 PUSH2 0x1B71 JUMP JUMPDEST PUSH2 0xD17 JUMP JUMPDEST STOP JUMPDEST PUSH2 0x4CA PUSH2 0xD7A JUMP JUMPDEST PUSH1 0x40 MLOAD PUSH2 0x4D7 SWAP2 SWAP1 PUSH2 0x1AF8 JUMP JUMPDEST PUSH1 0x40 MLOAD DUP1 SWAP2 SUB SWAP1 RETURN JUMPDEST PUSH2 0x4FA PUSH1 0x4 DUP1 CALLDATASIZE SUB DUP2 ADD SWAP1 PUSH2 0x4F5 SWAP2 SWAP1 PUSH2 0x1D63 JUMP JUMPDEST PUSH2 0xD83 JUMP JUMPDEST PUSH1 0x40 MLOAD PUSH2 0x507 SWAP2 SWAP1 PUSH2 0x1E36 JUMP JUMPDEST PUSH1 0x40 MLOAD DUP1 SWAP2 SUB SWAP1 RETURN JUMPDEST PUSH2 0x518 PUSH2 0xE2F JUMP JUMPDEST PUSH1 0x40 MLOAD PUSH2 0x525 SWAP2 SWAP1 PUSH2 0x1AF8 JUMP JUMPDEST PUSH1 0x40 MLOAD DUP1 SWAP2 SUB SWAP1 RETURN JUMPDEST PUSH2 0x548 PUSH1 0x4 DUP1 CALLDATASIZE SUB DUP2 ADD SWAP1 PUSH2 0x543 SWAP2 SWAP1 PUSH2 0x1B71 JUMP JUMPDEST PUSH2 0xE43 JUMP JUMPDEST STOP JUMPDEST PUSH2 0x552 PUSH2 0xEA5 JUMP JUMPDEST STOP JUMPDEST PUSH2 0x56E PUSH1 0x4 DUP1 CALLDATASIZE SUB DUP2 ADD SWAP1 PUSH2 0x569 SWAP2 SWAP1 PUSH2 0x1D63 JUMP JUMPDEST PUSH2 0xEB9 JUMP JUMPDEST PUSH1 0x40 MLOAD PUSH2 0x57B SWAP2 SWAP1 PUSH2 0x1E36 JUMP JUMPDEST PUSH1 0x40 MLOAD DUP1 SWAP2 SUB SWAP1 RETURN JUMPDEST PUSH2 0x59E PUSH1 0x4 DUP1 CALLDATASIZE SUB DUP2 ADD SWAP1 PUSH2 0x599 SWAP2 SWAP1 PUSH2 0x1A92 JUMP JUMPDEST PUSH2 0xF65 JUMP JUMPDEST PUSH1 0x40 MLOAD PUSH2 0x5AB SWAP2 SWAP1 PUSH2 0x1AF8 JUMP JUMPDEST PUSH1 0x40 MLOAD DUP1 SWAP2 SUB SWAP1 RETURN JUMPDEST PUSH2 0x5BC PUSH2 0xF9C JUMP JUMPDEST PUSH1 0x40 MLOAD PUSH2 0x5C9 SWAP2 SWAP1 PUSH2 0x191D JUMP JUMPDEST PUSH1 0x40 MLOAD DUP1 SWAP2 SUB SWAP1 RETURN JUMPDEST PUSH2 0x5DA PUSH2 0xFA2 JUMP JUMPDEST PUSH1 0x40 MLOAD PUSH2 0x5E7 SWAP2 SWAP1 PUSH2 0x1AF8 JUMP JUMPDEST PUSH1 0x40 MLOAD DUP1 SWAP2 SUB SWAP1 RETURN JUMPDEST PUSH2 0x5F8 PUSH2 0xFB6 JUMP JUMPDEST PUSH1 0x40 MLOAD PUSH2 0x605 SWAP2 SWAP1 PUSH2 0x1E67 JUMP JUMPDEST PUSH1 0x40 MLOAD DUP1 SWAP2 SUB SWAP1 RETURN JUMPDEST PUSH2 0x628 PUSH1 0x4 DUP1 CALLDATASIZE SUB DUP2 ADD SWAP1 PUSH2 0x623 SWAP2 SWAP1 PUSH2 0x1A92 JUMP JUMPDEST PUSH2 0xFDF JUMP JUMPDEST PUSH1 0x40 MLOAD PUSH2 0x635 SWAP2 SWAP1 PUSH2 0x1AF8 JUMP JUMPDEST PUSH1 0x40 MLOAD DUP1 SWAP2 SUB SWAP1 RETURN JUMPDEST PUSH2 0x646 PUSH2 0x1015 JUMP JUMPDEST PUSH1 0x40 MLOAD PUSH2 0x653 SWAP2 SWAP1 PUSH2 0x191D JUMP JUMPDEST PUSH1 0x40 MLOAD DUP1 SWAP2 SUB SWAP1 RETURN JUMPDEST PUSH2 0x676 PUSH1 0x4 DUP1 CALLDATASIZE SUB DUP2 ADD SWAP1 PUSH2 0x671 SWAP2 SWAP1 PUSH2 0x1A92 JUMP JUMPDEST PUSH2 0x101F JUMP JUMPDEST PUSH1 0x40 MLOAD PUSH2 0x683 SWAP2 SWAP1 PUSH2 0x1E67 JUMP JUMPDEST PUSH1 0x40 MLOAD DUP1 SWAP2 SUB SWAP1 RETURN JUMPDEST PUSH2 0x694 PUSH2 0x1067 JUMP JUMPDEST PUSH1 0x40 MLOAD PUSH2 0x6A1 SWAP2 SWAP1 PUSH2 0x191D JUMP JUMPDEST PUSH1 0x40 MLOAD DUP1 SWAP2 SUB SWAP1 RETURN JUMPDEST PUSH2 0x6B2 PUSH2 0x106D JUMP JUMPDEST PUSH1 0x40 MLOAD PUSH2 0x6BF SWAP2 SWAP1 PUSH2 0x1AF8 JUMP JUMPDEST PUSH1 0x40 MLOAD DUP1 SWAP2 SUB SWAP1 RETURN JUMPDEST PUSH2 0x6D0 PUSH2 0x1072 JUMP JUMPDEST PUSH1 0x40 MLOAD PUSH2 0x6DD SWAP2 SWAP1 PUSH2 0x1D15 JUMP JUMPDEST PUSH1 0x40 MLOAD DUP1 SWAP2 SUB SWAP1 RETURN JUMPDEST PUSH2 0x700 PUSH1 0x4 DUP1 CALLDATASIZE SUB DUP2 ADD SWAP1 PUSH2 0x6FB SWAP2 SWAP1 PUSH2 0x202B JUMP JUMPDEST PUSH2 0x114B JUMP JUMPDEST STOP JUMPDEST PUSH2 0x71C PUSH1 0x4 DUP1 CALLDATASIZE SUB DUP2 ADD SWAP1 PUSH2 0x717 SWAP2 SWAP1 PUSH2 0x1A92 JUMP JUMPDEST PUSH2 0x1208 JUMP JUMPDEST STOP JUMPDEST PUSH2 0x726 PUSH2 0x1476 JUMP JUMPDEST PUSH1 0x40 MLOAD PUSH2 0x733 SWAP2 SWAP1 PUSH2 0x191D JUMP JUMPDEST PUSH1 0x40 MLOAD DUP1 SWAP2 SUB SWAP1 RETURN JUMPDEST PUSH2 0x744 PUSH2 0x147C JUMP JUMPDEST PUSH1 0x40 MLOAD PUSH2 0x751 SWAP2 SWAP1 PUSH2 0x191D JUMP JUMPDEST PUSH1 0x40 MLOAD DUP1 SWAP2 SUB SWAP1 RETURN JUMPDEST PUSH2 0x762 PUSH2 0x1486 JUMP JUMPDEST PUSH1 0x40 MLOAD PUSH2 0x76F SWAP2 SWAP1 PUSH2 0x191D JUMP JUMPDEST PUSH1 0x40 MLOAD DUP1 SWAP2 SUB SWAP1 RETURN JUMPDEST PUSH2 0x780 PUSH2 0x1492 JUMP JUMPDEST PUSH1 0x40 MLOAD PUSH2 0x78D SWAP2 SWAP1 PUSH2 0x191D JUMP JUMPDEST PUSH1 0x40 MLOAD DUP1 SWAP2 SUB SWAP1 RETURN JUMPDEST PUSH2 0x7B0 PUSH1 0x4 DUP1 CALLDATASIZE SUB DUP2 ADD SWAP1 PUSH2 0x7AB SWAP2 SWAP1 PUSH2 0x1A92 JUMP JUMPDEST PUSH2 0x14A3 JUMP JUMPDEST STOP JUMPDEST PUSH2 0x7BA PUSH2 0x1651 JUMP JUMPDEST PUSH1 0x40 MLOAD PUSH2 0x7C7 SWAP2 SWAP1 PUSH2 0x1AF8 JUMP JUMPDEST PUSH1 0x40 MLOAD DUP1 SWAP2 SUB SWAP1 RETURN JUMPDEST PUSH2 0x7EA PUSH1 0x4 DUP1 CALLDATASIZE SUB DUP2 ADD SWAP1 PUSH2 0x7E5 SWAP2 SWAP1 PUSH2 0x1B71 JUMP JUMPDEST PUSH2 0x1669 JUMP JUMPDEST STOP JUMPDEST PUSH2 0x7F4 PUSH2 0x16EC JUMP JUMPDEST PUSH1 0x40 MLOAD PUSH2 0x801 SWAP2 SWAP1 PUSH2 0x1AF8 JUMP JUMPDEST PUSH1 0x40 MLOAD DUP1 SWAP2 SUB SWAP1 RETURN JUMPDEST PUSH1 0x0 PUSH1 0x9 SLOAD SWAP1 POP SWAP1 JUMP JUMPDEST PUSH1 0x0 PUSH1 0xA SLOAD SWAP1 POP SWAP1 JUMP JUMPDEST ADDRESS PUSH20 0xFFFFFFFFFFFFFFFFFFFFFFFFFFFFFFFFFFFFFFFF AND PUSH4 0x5437733F CALLER PUSH1 0x40 MLOAD DUP3 PUSH4 0xFFFFFFFF AND PUSH1 0xE0 SHL DUP2 MSTORE PUSH1 0x4 ADD PUSH2 0x857 SWAP2 SWAP1 PUSH2 0x20EF JUMP JUMPDEST PUSH1 0x20 PUSH1 0x40 MLOAD DUP1 DUP4 SUB DUP2 DUP7 GAS STATICCALL ISZERO DUP1 ISZERO PUSH2 0x874 JUMPI RETURNDATASIZE PUSH1 0x0 DUP1 RETURNDATACOPY RETURNDATASIZE PUSH1 0x0 REVERT JUMPDEST POP POP POP POP PUSH1 0x40 MLOAD RETURNDATASIZE PUSH1 0x1F NOT PUSH1 0x1F DUP3 ADD AND DUP3 ADD DUP1 PUSH1 0x40 MSTORE POP DUP2 ADD SWAP1 PUSH2 0x898 SWAP2 SWAP1 PUSH2 0x2149 JUMP JUMPDEST PUSH2 0x8D7 JUMPI PUSH1 0x40 MLOAD PUSH32 0x8C379A000000000000000000000000000000000000000000000000000000000 DUP2 MSTORE PUSH1 0x4 ADD PUSH2 0x8CE SWAP1 PUSH2 0x21C2 JUMP JUMPDEST PUSH1 0x40 MLOAD DUP1 SWAP2 SUB SWAP1 REVERT JUMPDEST PUSH1 0x0 PUSH1 0x6 DUP3 PUSH1 0x40 MLOAD PUSH2 0x8E9 SWAP2 SWAP1 PUSH2 0x221E JUMP JUMPDEST SWAP1 DUP2 MSTORE PUSH1 0x20 ADD PUSH1 0x40 MLOAD DUP1 SWAP2 SUB SWAP1 KECCAK256 PUSH1 0x0 SWAP1 SLOAD SWAP1 PUSH2 0x100 EXP SWAP1 DIV PUSH2 0xFFFF AND PUSH2 0xFFFF AND SUB PUSH2 0x9C9 JUMPI PUSH1 0x5 DUP2 SWAP1 DUP1 PUSH1 0x1 DUP2 SLOAD ADD DUP1 DUP3 SSTORE DUP1 SWAP2 POP POP PUSH1 0x1 SWAP1 SUB SWAP1 PUSH1 0x0 MSTORE PUSH1 0x20 PUSH1 0x0 KECCAK256 ADD PUSH1 0x0 SWAP1 SWAP2 SWAP1 SWAP2 SWAP1 SWAP2 POP SWAP1 DUP2 PUSH2 0x943 SWAP2 SWAP1 PUSH2 0x2441 JUMP JUMPDEST POP PUSH1 0x8 PUSH1 0x2 DUP2 DUP2 SWAP1 SLOAD SWAP1 PUSH2 0x100 EXP SWAP1 DIV PUSH2 0xFFFF AND DUP1 SWAP3 SWAP2 SWAP1 PUSH2 0x964 SWAP1 PUSH2 0x2542 JUMP JUMPDEST SWAP2 SWAP1 PUSH2 0x100 EXP DUP2 SLOAD DUP2 PUSH2 0xFFFF MUL NOT AND SWAP1 DUP4 PUSH2 0xFFFF AND MUL OR SWAP1 SSTORE POP POP PUSH1 0x8 PUSH1 0x2 SWAP1 SLOAD SWAP1 PUSH2 0x100 EXP SWAP1 DIV PUSH2 0xFFFF AND PUSH1 0x6 DUP3 PUSH1 0x40 MLOAD PUSH2 0x9A0 SWAP2 SWAP1 PUSH2 0x221E JUMP JUMPDEST SWAP1 DUP2 MSTORE PUSH1 0x20 ADD PUSH1 0x40 MLOAD DUP1 SWAP2 SUB SWAP1 KECCAK256 PUSH1 0x0 PUSH2 0x100 EXP DUP2 SLOAD DUP2 PUSH2 0xFFFF MUL NOT AND SWAP1 DUP4 PUSH2 0xFFFF AND MUL OR SWAP1 SSTORE POP JUMPDEST POP JUMP JUMPDEST PUSH1 0x6 DUP2 DUP1 MLOAD PUSH1 0x20 DUP2 ADD DUP3 ADD DUP1 MLOAD DUP5 DUP3 MSTORE PUSH1 0x20 DUP4 ADD PUSH1 0x20 DUP6 ADD KECCAK256 DUP2 DUP4 MSTORE DUP1 SWAP6 POP POP POP POP POP POP PUSH1 0x0 SWAP2 POP SLOAD SWAP1 PUSH2 0x100 EXP SWAP1 DIV PUSH2 0xFFFF AND DUP2 JUMP JUMPDEST PUSH1 0x0 PUSH1 0x4 DUP3 PUSH1 0x40 MLOAD PUSH2 0xA15 SWAP2 SWAP1 PUSH2 0x221E JUMP JUMPDEST SWAP1 DUP2 MSTORE PUSH1 0x20 ADD PUSH1 0x40 MLOAD DUP1 SWAP2 SUB SWAP1 KECCAK256 PUSH1 0x0 SWAP1 SLOAD SWAP1 PUSH2 0x100 EXP SWAP1 DIV PUSH2 0xFFFF AND SWAP1 POP SWAP2 SWAP1 POP JUMP JUMPDEST PUSH1 0x0 PUSH1 0x1 PUSH1 0x0 DUP4 PUSH20 0xFFFFFFFFFFFFFFFFFFFFFFFFFFFFFFFFFFFFFFFF AND PUSH20 0xFFFFFFFFFFFFFFFFFFFFFFFFFFFFFFFFFFFFFFFF AND DUP2 MSTORE PUSH1 0x20 ADD SWAP1 DUP2 MSTORE PUSH1 0x20 ADD PUSH1 0x0 KECCAK256 PUSH1 0x0 SWAP1 SLOAD SWAP1 PUSH2 0x100 EXP SWAP1 DIV PUSH1 0xFF AND SWAP1 POP SWAP2 SWAP1 POP JUMP JUMPDEST PUSH1 0x60 PUSH1 0x3 DUP1 SLOAD DUP1 PUSH1 0x20 MUL PUSH1 0x20 ADD PUSH1 0x40 MLOAD SWAP1 DUP2 ADD PUSH1 0x40 MSTORE DUP1 SWAP3 SWAP2 SWAP1 DUP2 DUP2 MSTORE PUSH1 0x20 ADD PUSH1 0x0 SWAP1 JUMPDEST DUP3 DUP3 LT ISZERO PUSH2 0xB5F JUMPI DUP4 DUP3 SWAP1 PUSH1 0x0 MSTORE PUSH1 0x20 PUSH1 0x0 KECCAK256 ADD DUP1 SLOAD PUSH2 0xAD2 SWAP1 PUSH2 0x2264 JUMP JUMPDEST DUP1 PUSH1 0x1F ADD PUSH1 0x20 DUP1 SWAP2 DIV MUL PUSH1 0x20 ADD PUSH1 0x40 MLOAD SWAP1 DUP2 ADD PUSH1 0x40 MSTORE DUP1 SWAP3 SWAP2 SWAP1 DUP2 DUP2 MSTORE PUSH1 0x20 ADD DUP3 DUP1 SLOAD PUSH2 0xAFE SWAP1 PUSH2 0x2264 JUMP JUMPDEST DUP1 ISZERO PUSH2 0xB4B JUMPI DUP1 PUSH1 0x1F LT PUSH2 0xB20 JUMPI PUSH2 0x100 DUP1 DUP4 SLOAD DIV MUL DUP4 MSTORE SWAP2 PUSH1 0x20 ADD SWAP2 PUSH2 0xB4B JUMP JUMPDEST DUP3 ADD SWAP2 SWAP1 PUSH1 0x0 MSTORE PUSH1 0x20 PUSH1 0x0 KECCAK256 SWAP1 JUMPDEST DUP2 SLOAD DUP2 MSTORE SWAP1 PUSH1 0x1 ADD SWAP1 PUSH1 0x20 ADD DUP1 DUP4 GT PUSH2 0xB2E JUMPI DUP3 SWAP1 SUB PUSH1 0x1F AND DUP3 ADD SWAP2 JUMPDEST POP POP POP POP POP DUP2 MSTORE PUSH1 0x20 ADD SWAP1 PUSH1 0x1 ADD SWAP1 PUSH2 0xAB3 JUMP JUMPDEST POP POP POP POP SWAP1 POP SWAP1 JUMP JUMPDEST PUSH1 0x0 PUSH1 0x2 SWAP1 POP SWAP1 JUMP JUMPDEST PUSH1 0x0 PUSH13 0x1431E0FAE6D7217CAA0000000 SWAP1 POP SWAP1 JUMP JUMPDEST PUSH1 0x0 PUSH1 0x8 PUSH1 0x2 SWAP1 SLOAD SWAP1 PUSH2 0x100 EXP SWAP1 DIV PUSH2 0xFFFF AND SWAP1 POP SWAP1 JUMP JUMPDEST PUSH1 0x0 ADDRESS PUSH20 0xFFFFFFFFFFFFFFFFFFFFFFFFFFFFFFFFFFFFFFFF AND PUSH4 0x5437733F CALLER PUSH1 0x40 MLOAD DUP3 PUSH4 0xFFFFFFFF AND PUSH1 0xE0 SHL DUP2 MSTORE PUSH1 0x4 ADD PUSH2 0xBD9 SWAP2 SWAP1 PUSH2 0x20EF JUMP JUMPDEST PUSH1 0x20 PUSH1 0x40 MLOAD DUP1 DUP4 SUB DUP2 DUP7 GAS STATICCALL ISZERO DUP1 ISZERO PUSH2 0xBF6 JUMPI RETURNDATASIZE PUSH1 0x0 DUP1 RETURNDATACOPY RETURNDATASIZE PUSH1 0x0 REVERT JUMPDEST POP POP POP POP PUSH1 0x40 MLOAD RETURNDATASIZE PUSH1 0x1F NOT PUSH1 0x1F DUP3 ADD AND DUP3 ADD DUP1 PUSH1 0x40 MSTORE POP DUP2 ADD SWAP1 PUSH2 0xC1A SWAP2 SWAP1 PUSH2 0x2149 JUMP JUMPDEST PUSH2 0xC59 JUMPI PUSH1 0x40 MLOAD PUSH32 0x8C379A000000000000000000000000000000000000000000000000000000000 DUP2 MSTORE PUSH1 0x4 ADD PUSH2 0xC50 SWAP1 PUSH2 0x21C2 JUMP JUMPDEST PUSH1 0x40 MLOAD DUP1 SWAP2 SUB SWAP1 REVERT JUMPDEST PUSH8 0xDE0B6B3A7640000 DUP3 PUSH2 0xC6D SWAP2 SWAP1 PUSH2 0x256C JUMP JUMPDEST PUSH1 0x7 DUP2 SWAP1 SSTORE POP PUSH1 0x1 SWAP1 POP SWAP2 SWAP1 POP JUMP JUMPDEST PUSH1 0x0 PUSH8 0xDE0B6B3A7640000 SWAP1 POP SWAP1 JUMP JUMPDEST PUSH1 0x0 PUSH1 0x2 DUP4 PUSH1 0x40 MLOAD PUSH2 0xC9E SWAP2 SWAP1 PUSH2 0x221E JUMP JUMPDEST SWAP1 DUP2 MSTORE PUSH1 0x20 ADD PUSH1 0x40 MLOAD DUP1 SWAP2 SUB SWAP1 KECCAK256 PUSH1 0x0 SWAP1 SLOAD SWAP1 PUSH2 0x100 EXP SWAP1 DIV PUSH20 0xFFFFFFFFFFFFFFFFFFFFFFFFFFFFFFFFFFFFFFFF AND PUSH20 0xFFFFFFFFFFFFFFFFFFFFFFFFFFFFFFFFFFFFFFFF AND DUP3 PUSH20 0xFFFFFFFFFFFFFFFFFFFFFFFFFFFFFFFFFFFFFFFF AND EQ SWAP1 POP SWAP3 SWAP2 POP POP JUMP JUMPDEST PUSH1 0x0 PUSH1 0x3 SWAP1 POP SWAP1 JUMP JUMPDEST PUSH1 0x1 DUP2 JUMP JUMPDEST PUSH1 0x7 SLOAD DUP2 JUMP JUMPDEST PUSH2 0xD1F PUSH2 0x16F1 JUMP JUMPDEST PUSH1 0x0 PUSH1 0x1 PUSH1 0x0 DUP4 PUSH20 0xFFFFFFFFFFFFFFFFFFFFFFFFFFFFFFFFFFFFFFFF AND PUSH20 0xFFFFFFFFFFFFFFFFFFFFFFFFFFFFFFFFFFFFFFFF AND DUP2 MSTORE PUSH1 0x20 ADD SWAP1 DUP2 MSTORE PUSH1 0x20 ADD PUSH1 0x0 KECCAK256 PUSH1 0x0 PUSH2 0x100 EXP DUP2 SLOAD DUP2 PUSH1 0xFF MUL NOT AND SWAP1 DUP4 ISZERO ISZERO MUL OR SWAP1 SSTORE POP POP JUMP JUMPDEST PUSH1 0x0 PUSH1 0x1 SWAP1 POP SWAP1 JUMP JUMPDEST PUSH1 0x5 DUP2 DUP2 SLOAD DUP2 LT PUSH2 0xD93 JUMPI PUSH1 0x0 DUP1 REVERT JUMPDEST SWAP1 PUSH1 0x0 MSTORE PUSH1 0x20 PUSH1 0x0 KECCAK256 ADD PUSH1 0x0 SWAP2 POP SWAP1 POP DUP1 SLOAD PUSH2 0xDAE SWAP1 PUSH2 0x2264 JUMP JUMPDEST DUP1 PUSH1 0x1F ADD PUSH1 0x20 DUP1 SWAP2 DIV MUL PUSH1 0x20 ADD PUSH1 0x40 MLOAD SWAP1 DUP2 ADD PUSH1 0x40 MSTORE DUP1 SWAP3 SWAP2 SWAP1 DUP2 DUP2 MSTORE PUSH1 0x20 ADD DUP3 DUP1 SLOAD PUSH2 0xDDA SWAP1 PUSH2 0x2264 JUMP JUMPDEST DUP1 ISZERO PUSH2 0xE27 JUMPI DUP1 PUSH1 0x1F LT PUSH2 0xDFC JUMPI PUSH2 0x100 DUP1 DUP4 SLOAD DIV MUL DUP4 MSTORE SWAP2 PUSH1 0x20 ADD SWAP2 PUSH2 0xE27 JUMP JUMPDEST DUP3 ADD SWAP2 SWAP1 PUSH1 0x0 MSTORE PUSH1 0x20 PUSH1 0x0 KECCAK256 SWAP1 JUMPDEST DUP2 SLOAD DUP2 MSTORE SWAP1 PUSH1 0x1 ADD SWAP1 PUSH1 0x20 ADD DUP1 DUP4 GT PUSH2 0xE0A JUMPI DUP3 SWAP1 SUB PUSH1 0x1F AND DUP3 ADD SWAP2 JUMPDEST POP POP POP POP POP DUP2 JUMP JUMPDEST PUSH1 0x8 PUSH1 0x2 SWAP1 SLOAD SWAP1 PUSH2 0x100 EXP SWAP1 DIV PUSH2 0xFFFF AND DUP2 JUMP JUMPDEST PUSH2 0xE4B PUSH2 0x16F1 JUMP JUMPDEST PUSH1 0x1 DUP1 PUSH1 0x0 DUP4 PUSH20 0xFFFFFFFFFFFFFFFFFFFFFFFFFFFFFFFFFFFFFFFF AND PUSH20 0xFFFFFFFFFFFFFFFFFFFFFFFFFFFFFFFFFFFFFFFF AND DUP2 MSTORE PUSH1 0x20 ADD SWAP1 DUP2 MSTORE PUSH1 0x20 ADD PUSH1 0x0 KECCAK256 PUSH1 0x0 PUSH2 0x100 EXP DUP2 SLOAD DUP2 PUSH1 0xFF MUL NOT AND SWAP1 DUP4 ISZERO ISZERO MUL OR SWAP1 SSTORE POP POP JUMP JUMPDEST PUSH2 0xEAD PUSH2 0x16F1 JUMP JUMPDEST PUSH2 0xEB7 PUSH1 0x0 PUSH2 0x176F JUMP JUMPDEST JUMP JUMPDEST PUSH1 0x3 DUP2 DUP2 SLOAD DUP2 LT PUSH2 0xEC9 JUMPI PUSH1 0x0 DUP1 REVERT JUMPDEST SWAP1 PUSH1 0x0 MSTORE PUSH1 0x20 PUSH1 0x0 KECCAK256 ADD PUSH1 0x0 SWAP2 POP SWAP1 POP DUP1 SLOAD PUSH2 0xEE4 SWAP1 PUSH2 0x2264 JUMP JUMPDEST DUP1 PUSH1 0x1F ADD PUSH1 0x20 DUP1 SWAP2 DIV MUL PUSH1 0x20 ADD PUSH1 0x40 MLOAD SWAP1 DUP2 ADD PUSH1 0x40 MSTORE DUP1 SWAP3 SWAP2 SWAP1 DUP2 DUP2 MSTORE PUSH1 0x20 ADD DUP3 DUP1 SLOAD PUSH2 0xF10 SWAP1 PUSH2 0x2264 JUMP JUMPDEST DUP1 ISZERO PUSH2 0xF5D JUMPI DUP1 PUSH1 0x1F LT PUSH2 0xF32 JUMPI PUSH2 0x100 DUP1 DUP4 SLOAD DIV MUL DUP4 MSTORE SWAP2 PUSH1 0x20 ADD SWAP2 PUSH2 0xF5D JUMP JUMPDEST DUP3 ADD SWAP2 SWAP1 PUSH1 0x0 MSTORE PUSH1 0x20 PUSH1 0x0 KECCAK256 SWAP1 JUMPDEST DUP2 SLOAD DUP2 MSTORE SWAP1 PUSH1 0x1 ADD SWAP1 PUSH1 0x20 ADD DUP1 DUP4 GT PUSH2 0xF40 JUMPI DUP3 SWAP1 SUB PUSH1 0x1F AND DUP3 ADD SWAP2 JUMPDEST POP POP POP POP POP DUP2 JUMP JUMPDEST PUSH1 0x4 DUP2 DUP1 MLOAD PUSH1 0x20 DUP2 ADD DUP3 ADD DUP1 MLOAD DUP5 DUP3 MSTORE PUSH1 0x20 DUP4 ADD PUSH1 0x20 DUP6 ADD KECCAK256 DUP2 DUP4 MSTORE DUP1 SWAP6 POP POP POP POP POP POP PUSH1 0x0 SWAP2 POP SLOAD SWAP1 PUSH2 0x100 EXP SWAP1 DIV PUSH2 0xFFFF AND DUP2 JUMP JUMPDEST PUSH1 0xB SLOAD DUP2 JUMP JUMPDEST PUSH1 0x8 PUSH1 0x0 SWAP1 SLOAD SWAP1 PUSH2 0x100 EXP SWAP1 DIV PUSH2 0xFFFF AND DUP2 JUMP JUMPDEST PUSH1 0x0 DUP1 PUSH1 0x0 SWAP1 SLOAD SWAP1 PUSH2 0x100 EXP SWAP1 DIV PUSH20 0xFFFFFFFFFFFFFFFFFFFFFFFFFFFFFFFFFFFFFFFF AND SWAP1 POP SWAP1 JUMP JUMPDEST PUSH1 0x0 PUSH1 0x6 DUP3 PUSH1 0x40 MLOAD PUSH2 0xFF1 SWAP2 SWAP1 PUSH2 0x221E JUMP JUMPDEST SWAP1 DUP2 MSTORE PUSH1 0x20 ADD PUSH1 0x40 MLOAD DUP1 SWAP2 SUB SWAP1 KECCAK256 PUSH1 0x0 SWAP1 SLOAD SWAP1 PUSH2 0x100 EXP SWAP1 DIV PUSH2 0xFFFF AND SWAP1 POP SWAP2 SWAP1 POP JUMP JUMPDEST PUSH1 0x0 PUSH1 0x7 SLOAD SWAP1 POP SWAP1 JUMP JUMPDEST PUSH1 0x0 PUSH1 0x2 DUP3 PUSH1 0x40 MLOAD PUSH2 0x1031 SWAP2 SWAP1 PUSH2 0x221E JUMP JUMPDEST SWAP1 DUP2 MSTORE PUSH1 0x20 ADD PUSH1 0x40 MLOAD DUP1 SWAP2 SUB SWAP1 KECCAK256 PUSH1 0x0 SWAP1 SLOAD SWAP1 PUSH2 0x100 EXP SWAP1 DIV PUSH20 0xFFFFFFFFFFFFFFFFFFFFFFFFFFFFFFFFFFFFFFFF AND SWAP1 POP SWAP2 SWAP1 POP JUMP JUMPDEST PUSH1 0xA SLOAD DUP2 JUMP JUMPDEST PUSH1 0x3 DUP2 JUMP JUMPDEST PUSH1 0x60 PUSH1 0x5 DUP1 SLOAD DUP1 PUSH1 0x20 MUL PUSH1 0x20 ADD PUSH1 0x40 MLOAD SWAP1 DUP2 ADD PUSH1 0x40 MSTORE DUP1 SWAP3 SWAP2 SWAP1 DUP2 DUP2 MSTORE PUSH1 0x20 ADD PUSH1 0x0 SWAP1 JUMPDEST DUP3 DUP3 LT ISZERO PUSH2 0x1142 JUMPI DUP4 DUP3 SWAP1 PUSH1 0x0 MSTORE PUSH1 0x20 PUSH1 0x0 KECCAK256 ADD DUP1 SLOAD PUSH2 0x10B5 SWAP1 PUSH2 0x2264 JUMP JUMPDEST DUP1 PUSH1 0x1F ADD PUSH1 0x20 DUP1 SWAP2 DIV MUL PUSH1 0x20 ADD PUSH1 0x40 MLOAD SWAP1 DUP2 ADD PUSH1 0x40 MSTORE DUP1 SWAP3 SWAP2 SWAP1 DUP2 DUP2 MSTORE PUSH1 0x20 ADD DUP3 DUP1 SLOAD PUSH2 0x10E1 SWAP1 PUSH2 0x2264 JUMP JUMPDEST DUP1 ISZERO PUSH2 0x112E JUMPI DUP1 PUSH1 0x1F LT PUSH2 0x1103 JUMPI PUSH2 0x100 DUP1 DUP4 SLOAD DIV MUL DUP4 MSTORE SWAP2 PUSH1 0x20 ADD SWAP2 PUSH2 0x112E JUMP JUMPDEST DUP3 ADD SWAP2 SWAP1 PUSH1 0x0 MSTORE PUSH1 0x20 PUSH1 0x0 KECCAK256 SWAP1 JUMPDEST DUP2 SLOAD DUP2 MSTORE SWAP1 PUSH1 0x1 ADD SWAP1 PUSH1 0x20 ADD DUP1 DUP4 GT PUSH2 0x1111 JUMPI DUP3 SWAP1 SUB PUSH1 0x1F AND DUP3 ADD SWAP2 JUMPDEST POP POP POP POP POP DUP2 MSTORE PUSH1 0x20 ADD SWAP1 PUSH1 0x1 ADD SWAP1 PUSH2 0x1096 JUMP JUMPDEST POP POP POP POP SWAP1 POP SWAP1 JUMP JUMPDEST PUSH2 0x1153 PUSH2 0x16F1 JUMP JUMPDEST PUSH1 0x0 JUMPDEST DUP3 MLOAD DUP2 LT ISZERO PUSH2 0x1203 JUMPI DUP2 DUP2 DUP2 MLOAD DUP2 LT PUSH2 0x1172 JUMPI PUSH2 0x1171 PUSH2 0x25AE JUMP JUMPDEST JUMPDEST PUSH1 0x20 MUL PUSH1 0x20 ADD ADD MLOAD PUSH1 0x2 DUP5 DUP4 DUP2 MLOAD DUP2 LT PUSH2 0x118F JUMPI PUSH2 0x118E PUSH2 0x25AE JUMP JUMPDEST JUMPDEST PUSH1 0x20 MUL PUSH1 0x20 ADD ADD MLOAD PUSH1 0x40 MLOAD PUSH2 0x11A4 SWAP2 SWAP1 PUSH2 0x221E JUMP JUMPDEST SWAP1 DUP2 MSTORE PUSH1 0x20 ADD PUSH1 0x40 MLOAD DUP1 SWAP2 SUB SWAP1 KECCAK256 PUSH1 0x0 PUSH2 0x100 EXP DUP2 SLOAD DUP2 PUSH20 0xFFFFFFFFFFFFFFFFFFFFFFFFFFFFFFFFFFFFFFFF MUL NOT AND SWAP1 DUP4 PUSH20 0xFFFFFFFFFFFFFFFFFFFFFFFFFFFFFFFFFFFFFFFF AND MUL OR SWAP1 SSTORE POP DUP1 DUP1 PUSH2 0x11FB SWAP1 PUSH2 0x25DD JUMP JUMPDEST SWAP2 POP POP PUSH2 0x1156 JUMP JUMPDEST POP POP POP JUMP JUMPDEST PUSH1 0x0 JUMPDEST PUSH1 0x3 DUP1 SLOAD SWAP1 POP DUP2 LT ISZERO PUSH2 0x1472 JUMPI PUSH2 0x12C8 PUSH1 0x3 DUP3 DUP2 SLOAD DUP2 LT PUSH2 0x122F JUMPI PUSH2 0x122E PUSH2 0x25AE JUMP JUMPDEST JUMPDEST SWAP1 PUSH1 0x0 MSTORE PUSH1 0x20 PUSH1 0x0 KECCAK256 ADD DUP1 SLOAD PUSH2 0x1244 SWAP1 PUSH2 0x2264 JUMP JUMPDEST DUP1 PUSH1 0x1F ADD PUSH1 0x20 DUP1 SWAP2 DIV MUL PUSH1 0x20 ADD PUSH1 0x40 MLOAD SWAP1 DUP2 ADD PUSH1 0x40 MSTORE DUP1 SWAP3 SWAP2 SWAP1 DUP2 DUP2 MSTORE PUSH1 0x20 ADD DUP3 DUP1 SLOAD PUSH2 0x1270 SWAP1 PUSH2 0x2264 JUMP JUMPDEST DUP1 ISZERO PUSH2 0x12BD JUMPI DUP1 PUSH1 0x1F LT PUSH2 0x1292 JUMPI PUSH2 0x100 DUP1 DUP4 SLOAD DIV MUL DUP4 MSTORE SWAP2 PUSH1 0x20 ADD SWAP2 PUSH2 0x12BD JUMP JUMPDEST DUP3 ADD SWAP2 SWAP1 PUSH1 0x0 MSTORE PUSH1 0x20 PUSH1 0x0 KECCAK256 SWAP1 JUMPDEST DUP2 SLOAD DUP2 MSTORE SWAP1 PUSH1 0x1 ADD SWAP1 PUSH1 0x20 ADD DUP1 DUP4 GT PUSH2 0x12A0 JUMPI DUP3 SWAP1 SUB PUSH1 0x1F AND DUP3 ADD SWAP2 JUMPDEST POP POP POP POP POP DUP4 PUSH2 0x1833 JUMP JUMPDEST ISZERO PUSH2 0x145F JUMPI PUSH1 0x1 PUSH1 0x3 DUP1 SLOAD SWAP1 POP PUSH2 0x12DF SWAP2 SWAP1 PUSH2 0x2625 JUMP JUMPDEST DUP2 LT ISZERO PUSH2 0x142A JUMPI PUSH1 0x0 PUSH1 0x3 PUSH1 0x1 PUSH1 0x3 DUP1 SLOAD SWAP1 POP PUSH2 0x12FC SWAP2 SWAP1 PUSH2 0x2625 JUMP JUMPDEST DUP2 SLOAD DUP2 LT PUSH2 0x130D JUMPI PUSH2 0x130C PUSH2 0x25AE JUMP JUMPDEST JUMPDEST SWAP1 PUSH1 0x0 MSTORE PUSH1 0x20 PUSH1 0x0 KECCAK256 ADD DUP1 SLOAD PUSH2 0x1322 SWAP1 PUSH2 0x2264 JUMP JUMPDEST DUP1 PUSH1 0x1F ADD PUSH1 0x20 DUP1 SWAP2 DIV MUL PUSH1 0x20 ADD PUSH1 0x40 MLOAD SWAP1 DUP2 ADD PUSH1 0x40 MSTORE DUP1 SWAP3 SWAP2 SWAP1 DUP2 DUP2 MSTORE PUSH1 0x20 ADD DUP3 DUP1 SLOAD PUSH2 0x134E SWAP1 PUSH2 0x2264 JUMP JUMPDEST DUP1 ISZERO PUSH2 0x139B JUMPI DUP1 PUSH1 0x1F LT PUSH2 0x1370 JUMPI PUSH2 0x100 DUP1 DUP4 SLOAD DIV MUL DUP4 MSTORE SWAP2 PUSH1 0x20 ADD SWAP2 PUSH2 0x139B JUMP JUMPDEST DUP3 ADD SWAP2 SWAP1 PUSH1 0x0 MSTORE PUSH1 0x20 PUSH1 0x0 KECCAK256 SWAP1 JUMPDEST DUP2 SLOAD DUP2 MSTORE SWAP1 PUSH1 0x1 ADD SWAP1 PUSH1 0x20 ADD DUP1 DUP4 GT PUSH2 0x137E JUMPI DUP3 SWAP1 SUB PUSH1 0x1F AND DUP3 ADD SWAP2 JUMPDEST POP POP POP POP POP SWAP1 POP PUSH1 0x3 DUP3 DUP2 SLOAD DUP2 LT PUSH2 0x13B6 JUMPI PUSH2 0x13B5 PUSH2 0x25AE JUMP JUMPDEST JUMPDEST SWAP1 PUSH1 0x0 MSTORE PUSH1 0x20 PUSH1 0x0 KECCAK256 ADD PUSH1 0x3 PUSH1 0x1 PUSH1 0x3 DUP1 SLOAD SWAP1 POP PUSH2 0x13D4 SWAP2 SWAP1 PUSH2 0x2625 JUMP JUMPDEST DUP2 SLOAD DUP2 LT PUSH2 0x13E5 JUMPI PUSH2 0x13E4 PUSH2 0x25AE JUMP JUMPDEST JUMPDEST SWAP1 PUSH1 0x0 MSTORE PUSH1 0x20 PUSH1 0x0 KECCAK256 ADD SWAP1 DUP2 PUSH2 0x13FB SWAP2 SWAP1 PUSH2 0x2684 JUMP JUMPDEST POP DUP1 PUSH1 0x3 DUP4 DUP2 SLOAD DUP2 LT PUSH2 0x1411 JUMPI PUSH2 0x1410 PUSH2 0x25AE JUMP JUMPDEST JUMPDEST SWAP1 PUSH1 0x0 MSTORE PUSH1 0x20 PUSH1 0x0 KECCAK256 ADD SWAP1 DUP2 PUSH2 0x1427 SWAP2 SWAP1 PUSH2 0x2441 JUMP JUMPDEST POP POP JUMPDEST PUSH1 0x3 DUP1 SLOAD DUP1 PUSH2 0x143C JUMPI PUSH2 0x143B PUSH2 0x276C JUMP JUMPDEST JUMPDEST PUSH1 0x1 SWAP1 SUB DUP2 DUP2 SWAP1 PUSH1 0x0 MSTORE PUSH1 0x20 PUSH1 0x0 KECCAK256 ADD PUSH1 0x0 PUSH2 0x1458 SWAP2 SWAP1 PUSH2 0x18A7 JUMP JUMPDEST SWAP1 SSTORE PUSH2 0x1472 JUMP JUMPDEST DUP1 DUP1 PUSH2 0x146A SWAP1 PUSH2 0x25DD JUMP JUMPDEST SWAP2 POP POP PUSH2 0x120B JUMP JUMPDEST POP POP JUMP JUMPDEST PUSH1 0x9 SLOAD DUP2 JUMP JUMPDEST PUSH1 0x0 PUSH1 0xB SLOAD SWAP1 POP SWAP1 JUMP JUMPDEST PUSH8 0xDE0B6B3A7640000 DUP2 JUMP JUMPDEST PUSH13 0x1431E0FAE6D7217CAA0000000 DUP2 JUMP JUMPDEST ADDRESS PUSH20 0xFFFFFFFFFFFFFFFFFFFFFFFFFFFFFFFFFFFFFFFF AND PUSH4 0x5437733F CALLER PUSH1 0x40 MLOAD DUP3 PUSH4 0xFFFFFFFF AND PUSH1 0xE0 SHL DUP2 MSTORE PUSH1 0x4 ADD PUSH2 0x14DC SWAP2 SWAP1 PUSH2 0x20EF JUMP JUMPDEST PUSH1 0x20 PUSH1 0x40 MLOAD DUP1 DUP4 SUB DUP2 DUP7 GAS STATICCALL ISZERO DUP1 ISZERO PUSH2 0x14F9 JUMPI RETURNDATASIZE PUSH1 0x0 DUP1 RETURNDATACOPY RETURNDATASIZE PUSH1 0x0 REVERT JUMPDEST POP POP POP POP PUSH1 0x40 MLOAD RETURNDATASIZE PUSH1 0x1F NOT PUSH1 0x1F DUP3 ADD AND DUP3 ADD DUP1 PUSH1 0x40 MSTORE POP DUP2 ADD SWAP1 PUSH2 0x151D SWAP2 SWAP1 PUSH2 0x2149 JUMP JUMPDEST PUSH2 0x155C JUMPI PUSH1 0x40 MLOAD PUSH32 0x8C379A000000000000000000000000000000000000000000000000000000000 DUP2 MSTORE PUSH1 0x4 ADD PUSH2 0x1553 SWAP1 PUSH2 0x21C2 JUMP JUMPDEST PUSH1 0x40 MLOAD DUP1 SWAP2 SUB SWAP1 REVERT JUMPDEST PUSH1 0x0 PUSH1 0x4 DUP3 PUSH1 0x40 MLOAD PUSH2 0x156E SWAP2 SWAP1 PUSH2 0x221E JUMP JUMPDEST SWAP1 DUP2 MSTORE PUSH1 0x20 ADD PUSH1 0x40 MLOAD DUP1 SWAP2 SUB SWAP1 KECCAK256 PUSH1 0x0 SWAP1 SLOAD SWAP1 PUSH2 0x100 EXP SWAP1 DIV PUSH2 0xFFFF AND PUSH2 0xFFFF AND SUB PUSH2 0x164E JUMPI PUSH1 0x3 DUP2 SWAP1 DUP1 PUSH1 0x1 DUP2 SLOAD ADD DUP1 DUP3 SSTORE DUP1 SWAP2 POP POP PUSH1 0x1 SWAP1 SUB SWAP1 PUSH1 0x0 MSTORE PUSH1 0x20 PUSH1 0x0 KECCAK256 ADD PUSH1 0x0 SWAP1 SWAP2 SWAP1 SWAP2 SWAP1 SWAP2 POP SWAP1 DUP2 PUSH2 0x15C8 SWAP2 SWAP1 PUSH2 0x2441 JUMP JUMPDEST POP PUSH1 0x8 PUSH1 0x0 DUP2 DUP2 SWAP1 SLOAD SWAP1 PUSH2 0x100 EXP SWAP1 DIV PUSH2 0xFFFF AND DUP1 SWAP3 SWAP2 SWAP1 PUSH2 0x15E9 SWAP1 PUSH2 0x2542 JUMP JUMPDEST SWAP2 SWAP1 PUSH2 0x100 EXP DUP2 SLOAD DUP2 PUSH2 0xFFFF MUL NOT AND SWAP1 DUP4 PUSH2 0xFFFF AND MUL OR SWAP1 SSTORE POP POP PUSH1 0x8 PUSH1 0x0 SWAP1 SLOAD SWAP1 PUSH2 0x100 EXP SWAP1 DIV PUSH2 0xFFFF AND PUSH1 0x4 DUP3 PUSH1 0x40 MLOAD PUSH2 0x1625 SWAP2 SWAP1 PUSH2 0x221E JUMP JUMPDEST SWAP1 DUP2 MSTORE PUSH1 0x20 ADD PUSH1 0x40 MLOAD DUP1 SWAP2 SUB SWAP1 KECCAK256 PUSH1 0x0 PUSH2 0x100 EXP DUP2 SLOAD DUP2 PUSH2 0xFFFF MUL NOT AND SWAP1 DUP4 PUSH2 0xFFFF AND MUL OR SWAP1 SSTORE POP JUMPDEST POP JUMP JUMPDEST PUSH1 0x0 PUSH1 0x8 PUSH1 0x0 SWAP1 SLOAD SWAP1 PUSH2 0x100 EXP SWAP1 DIV PUSH2 0xFFFF AND SWAP1 POP SWAP1 JUMP JUMPDEST PUSH2 0x1671 PUSH2 0x16F1 JUMP JUMPDEST PUSH1 0x0 PUSH20 0xFFFFFFFFFFFFFFFFFFFFFFFFFFFFFFFFFFFFFFFF AND DUP2 PUSH20 0xFFFFFFFFFFFFFFFFFFFFFFFFFFFFFFFFFFFFFFFF AND SUB PUSH2 0x16E0 JUMPI PUSH1 0x40 MLOAD PUSH32 0x8C379A000000000000000000000000000000000000000000000000000000000 DUP2 MSTORE PUSH1 0x4 ADD PUSH2 0x16D7 SWAP1 PUSH2 0x280D JUMP JUMPDEST PUSH1 0x40 MLOAD DUP1 SWAP2 SUB SWAP1 REVERT JUMPDEST PUSH2 0x16E9 DUP2 PUSH2 0x176F JUMP JUMPDEST POP JUMP JUMPDEST PUSH1 0x2 DUP2 JUMP JUMPDEST PUSH2 0x16F9 PUSH2 0x189F JUMP JUMPDEST PUSH20 0xFFFFFFFFFFFFFFFFFFFFFFFFFFFFFFFFFFFFFFFF AND PUSH2 0x1717 PUSH2 0xFB6 JUMP JUMPDEST PUSH20 0xFFFFFFFFFFFFFFFFFFFFFFFFFFFFFFFFFFFFFFFF AND EQ PUSH2 0x176D JUMPI PUSH1 0x40 MLOAD PUSH32 0x8C379A000000000000000000000000000000000000000000000000000000000 DUP2 MSTORE PUSH1 0x4 ADD PUSH2 0x1764 SWAP1 PUSH2 0x2879 JUMP JUMPDEST PUSH1 0x40 MLOAD DUP1 SWAP2 SUB SWAP1 REVERT JUMPDEST JUMP JUMPDEST PUSH1 0x0 DUP1 PUSH1 0x0 SWAP1 SLOAD SWAP1 PUSH2 0x100 EXP SWAP1 DIV PUSH20 0xFFFFFFFFFFFFFFFFFFFFFFFFFFFFFFFFFFFFFFFF AND SWAP1 POP DUP2 PUSH1 0x0 DUP1 PUSH2 0x100 EXP DUP2 SLOAD DUP2 PUSH20 0xFFFFFFFFFFFFFFFFFFFFFFFFFFFFFFFFFFFFFFFF MUL NOT AND SWAP1 DUP4 PUSH20 0xFFFFFFFFFFFFFFFFFFFFFFFFFFFFFFFFFFFFFFFF AND MUL OR SWAP1 SSTORE POP DUP2 PUSH20 0xFFFFFFFFFFFFFFFFFFFFFFFFFFFFFFFFFFFFFFFF AND DUP2 PUSH20 0xFFFFFFFFFFFFFFFFFFFFFFFFFFFFFFFFFFFFFFFF AND PUSH32 0x8BE0079C531659141344CD1FD0A4F28419497F9722A3DAAFE3B4186F6B6457E0 PUSH1 0x40 MLOAD PUSH1 0x40 MLOAD DUP1 SWAP2 SUB SWAP1 LOG3 POP POP JUMP JUMPDEST PUSH1 0x0 DUP2 MLOAD DUP4 MLOAD EQ PUSH2 0x1847 JUMPI PUSH1 0x0 SWAP1 POP PUSH2 0x1899 JUMP JUMPDEST DUP2 PUSH1 0x40 MLOAD PUSH1 0x20 ADD PUSH2 0x1858 SWAP2 SWAP1 PUSH2 0x221E JUMP JUMPDEST PUSH1 0x40 MLOAD PUSH1 0x20 DUP2 DUP4 SUB SUB DUP2 MSTORE SWAP1 PUSH1 0x40 MSTORE DUP1 MLOAD SWAP1 PUSH1 0x20 ADD KECCAK256 DUP4 PUSH1 0x40 MLOAD PUSH1 0x20 ADD PUSH2 0x187F SWAP2 SWAP1 PUSH2 0x221E JUMP JUMPDEST PUSH1 0x40 MLOAD PUSH1 0x20 DUP2 DUP4 SUB SUB DUP2 MSTORE SWAP1 PUSH1 0x40 MSTORE DUP1 MLOAD SWAP1 PUSH1 0x20 ADD KECCAK256 EQ SWAP1 POP JUMPDEST SWAP3 SWAP2 POP POP JUMP JUMPDEST PUSH1 0x0 CALLER SWAP1 POP SWAP1 JUMP JUMPDEST POP DUP1 SLOAD PUSH2 0x18B3 SWAP1 PUSH2 0x2264 JUMP JUMPDEST PUSH1 0x0 DUP3 SSTORE DUP1 PUSH1 0x1F LT PUSH2 0x18C5 JUMPI POP PUSH2 0x18E4 JUMP JUMPDEST PUSH1 0x1F ADD PUSH1 0x20 SWAP1 DIV SWAP1 PUSH1 0x0 MSTORE PUSH1 0x20 PUSH1 0x0 KECCAK256 SWAP1 DUP2 ADD SWAP1 PUSH2 0x18E3 SWAP2 SWAP1 PUSH2 0x18E7 JUMP JUMPDEST JUMPDEST POP JUMP JUMPDEST JUMPDEST DUP1 DUP3 GT ISZERO PUSH2 0x1900 JUMPI PUSH1 0x0 DUP2 PUSH1 0x0 SWAP1 SSTORE POP PUSH1 0x1 ADD PUSH2 0x18E8 JUMP JUMPDEST POP SWAP1 JUMP JUMPDEST PUSH1 0x0 DUP2 SWAP1 POP SWAP2 SWAP1 POP JUMP JUMPDEST PUSH2 0x1917 DUP2 PUSH2 0x1904 JUMP JUMPDEST DUP3 MSTORE POP POP JUMP JUMPDEST PUSH1 0x0 PUSH1 0x20 DUP3 ADD SWAP1 POP PUSH2 0x1932 PUSH1 0x0 DUP4 ADD DUP5 PUSH2 0x190E JUMP JUMPDEST SWAP3 SWAP2 POP POP JUMP JUMPDEST PUSH1 0x0 PUSH1 0x40 MLOAD SWAP1 POP SWAP1 JUMP JUMPDEST PUSH1 0x0 DUP1 REVERT JUMPDEST PUSH1 0x0 DUP1 REVERT JUMPDEST PUSH1 0x0 DUP1 REVERT JUMPDEST PUSH1 0x0 DUP1 REVERT JUMPDEST PUSH1 0x0 PUSH1 0x1F NOT PUSH1 0x1F DUP4 ADD AND SWAP1 POP SWAP2 SWAP1 POP JUMP JUMPDEST PUSH32 0x4E487B7100000000000000000000000000000000000000000000000000000000 PUSH1 0x0 MSTORE PUSH1 0x41 PUSH1 0x4 MSTORE PUSH1 0x24 PUSH1 0x0 REVERT JUMPDEST PUSH2 0x199F DUP3 PUSH2 0x1956 JUMP JUMPDEST DUP2 ADD DUP2 DUP2 LT PUSH8 0xFFFFFFFFFFFFFFFF DUP3 GT OR ISZERO PUSH2 0x19BE JUMPI PUSH2 0x19BD PUSH2 0x1967 JUMP JUMPDEST JUMPDEST DUP1 PUSH1 0x40 MSTORE POP POP POP JUMP JUMPDEST PUSH1 0x0 PUSH2 0x19D1 PUSH2 0x1938 JUMP JUMPDEST SWAP1 POP PUSH2 0x19DD DUP3 DUP3 PUSH2 0x1996 JUMP JUMPDEST SWAP2 SWAP1 POP JUMP JUMPDEST PUSH1 0x0 PUSH8 0xFFFFFFFFFFFFFFFF DUP3 GT ISZERO PUSH2 0x19FD JUMPI PUSH2 0x19FC PUSH2 0x1967 JUMP JUMPDEST JUMPDEST PUSH2 0x1A06 DUP3 PUSH2 0x1956 JUMP JUMPDEST SWAP1 POP PUSH1 0x20 DUP2 ADD SWAP1 POP SWAP2 SWAP1 POP JUMP JUMPDEST DUP3 DUP2 DUP4 CALLDATACOPY PUSH1 0x0 DUP4 DUP4 ADD MSTORE POP POP POP JUMP JUMPDEST PUSH1 0x0 PUSH2 0x1A35 PUSH2 0x1A30 DUP5 PUSH2 0x19E2 JUMP JUMPDEST PUSH2 0x19C7 JUMP JUMPDEST SWAP1 POP DUP3 DUP2 MSTORE PUSH1 0x20 DUP2 ADD DUP5 DUP5 DUP5 ADD GT ISZERO PUSH2 0x1A51 JUMPI PUSH2 0x1A50 PUSH2 0x1951 JUMP JUMPDEST JUMPDEST PUSH2 0x1A5C DUP5 DUP3 DUP6 PUSH2 0x1A13 JUMP JUMPDEST POP SWAP4 SWAP3 POP POP POP JUMP JUMPDEST PUSH1 0x0 DUP3 PUSH1 0x1F DUP4 ADD SLT PUSH2 0x1A79 JUMPI PUSH2 0x1A78 PUSH2 0x194C JUMP JUMPDEST JUMPDEST DUP2 CALLDATALOAD PUSH2 0x1A89 DUP5 DUP3 PUSH1 0x20 DUP7 ADD PUSH2 0x1A22 JUMP JUMPDEST SWAP2 POP POP SWAP3 SWAP2 POP POP JUMP JUMPDEST PUSH1 0x0 PUSH1 0x20 DUP3 DUP5 SUB SLT ISZERO PUSH2 0x1AA8 JUMPI PUSH2 0x1AA7 PUSH2 0x1942 JUMP JUMPDEST JUMPDEST PUSH1 0x0 DUP3 ADD CALLDATALOAD PUSH8 0xFFFFFFFFFFFFFFFF DUP2 GT ISZERO PUSH2 0x1AC6 JUMPI PUSH2 0x1AC5 PUSH2 0x1947 JUMP JUMPDEST JUMPDEST PUSH2 0x1AD2 DUP5 DUP3 DUP6 ADD PUSH2 0x1A64 JUMP JUMPDEST SWAP2 POP POP SWAP3 SWAP2 POP POP JUMP JUMPDEST PUSH1 0x0 PUSH2 0xFFFF DUP3 AND SWAP1 POP SWAP2 SWAP1 POP JUMP JUMPDEST PUSH2 0x1AF2 DUP2 PUSH2 0x1ADB JUMP JUMPDEST DUP3 MSTORE POP POP JUMP JUMPDEST PUSH1 0x0 PUSH1 0x20 DUP3 ADD SWAP1 POP PUSH2 0x1B0D PUSH1 0x0 DUP4 ADD DUP5 PUSH2 0x1AE9 JUMP JUMPDEST SWAP3 SWAP2 POP POP JUMP JUMPDEST PUSH1 0x0 PUSH20 0xFFFFFFFFFFFFFFFFFFFFFFFFFFFFFFFFFFFFFFFF DUP3 AND SWAP1 POP SWAP2 SWAP1 POP JUMP JUMPDEST PUSH1 0x0 PUSH2 0x1B3E DUP3 PUSH2 0x1B13 JUMP JUMPDEST SWAP1 POP SWAP2 SWAP1 POP JUMP JUMPDEST PUSH2 0x1B4E DUP2 PUSH2 0x1B33 JUMP JUMPDEST DUP2 EQ PUSH2 0x1B59 JUMPI PUSH1 0x0 DUP1 REVERT JUMPDEST POP JUMP JUMPDEST PUSH1 0x0 DUP2 CALLDATALOAD SWAP1 POP PUSH2 0x1B6B DUP2 PUSH2 0x1B45 JUMP JUMPDEST SWAP3 SWAP2 POP POP JUMP JUMPDEST PUSH1 0x0 PUSH1 0x20 DUP3 DUP5 SUB SLT ISZERO PUSH2 0x1B87 JUMPI PUSH2 0x1B86 PUSH2 0x1942 JUMP JUMPDEST JUMPDEST PUSH1 0x0 PUSH2 0x1B95 DUP5 DUP3 DUP6 ADD PUSH2 0x1B5C JUMP JUMPDEST SWAP2 POP POP SWAP3 SWAP2 POP POP JUMP JUMPDEST PUSH1 0x0 DUP2 ISZERO ISZERO SWAP1 POP SWAP2 SWAP1 POP JUMP JUMPDEST PUSH2 0x1BB3 DUP2 PUSH2 0x1B9E JUMP JUMPDEST DUP3 MSTORE POP POP JUMP JUMPDEST PUSH1 0x0 PUSH1 0x20 DUP3 ADD SWAP1 POP PUSH2 0x1BCE PUSH1 0x0 DUP4 ADD DUP5 PUSH2 0x1BAA JUMP JUMPDEST SWAP3 SWAP2 POP POP JUMP JUMPDEST PUSH1 0x0 DUP2 MLOAD SWAP1 POP SWAP2 SWAP1 POP JUMP JUMPDEST PUSH1 0x0 DUP3 DUP3 MSTORE PUSH1 0x20 DUP3 ADD SWAP1 POP SWAP3 SWAP2 POP POP JUMP JUMPDEST PUSH1 0x0 DUP2 SWAP1 POP PUSH1 0x20 DUP3 ADD SWAP1 POP SWAP2 SWAP1 POP JUMP JUMPDEST PUSH1 0x0 DUP2 MLOAD SWAP1 POP SWAP2 SWAP1 POP JUMP JUMPDEST PUSH1 0x0 DUP3 DUP3 MSTORE PUSH1 0x20 DUP3 ADD SWAP1 POP SWAP3 SWAP2 POP POP JUMP JUMPDEST PUSH1 0x0 JUMPDEST DUP4 DUP2 LT ISZERO PUSH2 0x1C3A JUMPI DUP1 DUP3 ADD MLOAD DUP2 DUP5 ADD MSTORE PUSH1 0x20 DUP2 ADD SWAP1 POP PUSH2 0x1C1F JUMP JUMPDEST PUSH1 0x0 DUP5 DUP5 ADD MSTORE POP POP POP POP JUMP JUMPDEST PUSH1 0x0 PUSH2 0x1C51 DUP3 PUSH2 0x1C00 JUMP JUMPDEST PUSH2 0x1C5B DUP2 DUP6 PUSH2 0x1C0B JUMP JUMPDEST SWAP4 POP PUSH2 0x1C6B DUP2 DUP6 PUSH1 0x20 DUP7 ADD PUSH2 0x1C1C JUMP JUMPDEST PUSH2 0x1C74 DUP2 PUSH2 0x1956 JUMP JUMPDEST DUP5 ADD SWAP2 POP POP SWAP3 SWAP2 POP POP JUMP JUMPDEST PUSH1 0x0 PUSH2 0x1C8B DUP4 DUP4 PUSH2 0x1C46 JUMP JUMPDEST SWAP1 POP SWAP3 SWAP2 POP POP JUMP JUMPDEST PUSH1 0x0 PUSH1 0x20 DUP3 ADD SWAP1 POP SWAP2 SWAP1 POP JUMP JUMPDEST PUSH1 0x0 PUSH2 0x1CAB DUP3 PUSH2 0x1BD4 JUMP JUMPDEST PUSH2 0x1CB5 DUP2 DUP6 PUSH2 0x1BDF JUMP JUMPDEST SWAP4 POP DUP4 PUSH1 0x20 DUP3 MUL DUP6 ADD PUSH2 0x1CC7 DUP6 PUSH2 0x1BF0 JUMP JUMPDEST DUP1 PUSH1 0x0 JUMPDEST DUP6 DUP2 LT ISZERO PUSH2 0x1D03 JUMPI DUP5 DUP5 SUB DUP10 MSTORE DUP2 MLOAD PUSH2 0x1CE4 DUP6 DUP3 PUSH2 0x1C7F JUMP JUMPDEST SWAP5 POP PUSH2 0x1CEF DUP4 PUSH2 0x1C93 JUMP JUMPDEST SWAP3 POP PUSH1 0x20 DUP11 ADD SWAP10 POP POP PUSH1 0x1 DUP2 ADD SWAP1 POP PUSH2 0x1CCB JUMP JUMPDEST POP DUP3 SWAP8 POP DUP8 SWAP6 POP POP POP POP POP POP SWAP3 SWAP2 POP POP JUMP JUMPDEST PUSH1 0x0 PUSH1 0x20 DUP3 ADD SWAP1 POP DUP2 DUP2 SUB PUSH1 0x0 DUP4 ADD MSTORE PUSH2 0x1D2F DUP2 DUP5 PUSH2 0x1CA0 JUMP JUMPDEST SWAP1 POP SWAP3 SWAP2 POP POP JUMP JUMPDEST PUSH2 0x1D40 DUP2 PUSH2 0x1904 JUMP JUMPDEST DUP2 EQ PUSH2 0x1D4B JUMPI PUSH1 0x0 DUP1 REVERT JUMPDEST POP JUMP JUMPDEST PUSH1 0x0 DUP2 CALLDATALOAD SWAP1 POP PUSH2 0x1D5D DUP2 PUSH2 0x1D37 JUMP JUMPDEST SWAP3 SWAP2 POP POP JUMP JUMPDEST PUSH1 0x0 PUSH1 0x20 DUP3 DUP5 SUB SLT ISZERO PUSH2 0x1D79 JUMPI PUSH2 0x1D78 PUSH2 0x1942 JUMP JUMPDEST JUMPDEST PUSH1 0x0 PUSH2 0x1D87 DUP5 DUP3 DUP6 ADD PUSH2 0x1D4E JUMP JUMPDEST SWAP2 POP POP SWAP3 SWAP2 POP POP JUMP JUMPDEST PUSH1 0x0 DUP1 PUSH1 0x40 DUP4 DUP6 SUB SLT ISZERO PUSH2 0x1DA7 JUMPI PUSH2 0x1DA6 PUSH2 0x1942 JUMP JUMPDEST JUMPDEST PUSH1 0x0 DUP4 ADD CALLDATALOAD PUSH8 0xFFFFFFFFFFFFFFFF DUP2 GT ISZERO PUSH2 0x1DC5 JUMPI PUSH2 0x1DC4 PUSH2 0x1947 JUMP JUMPDEST JUMPDEST PUSH2 0x1DD1 DUP6 DUP3 DUP7 ADD PUSH2 0x1A64 JUMP JUMPDEST SWAP3 POP POP PUSH1 0x20 PUSH2 0x1DE2 DUP6 DUP3 DUP7 ADD PUSH2 0x1B5C JUMP JUMPDEST SWAP2 POP POP SWAP3 POP SWAP3 SWAP1 POP JUMP JUMPDEST PUSH1 0x0 DUP3 DUP3 MSTORE PUSH1 0x20 DUP3 ADD SWAP1 POP SWAP3 SWAP2 POP POP JUMP JUMPDEST PUSH1 0x0 PUSH2 0x1E08 DUP3 PUSH2 0x1C00 JUMP JUMPDEST PUSH2 0x1E12 DUP2 DUP6 PUSH2 0x1DEC JUMP JUMPDEST SWAP4 POP PUSH2 0x1E22 DUP2 DUP6 PUSH1 0x20 DUP7 ADD PUSH2 0x1C1C JUMP JUMPDEST PUSH2 0x1E2B DUP2 PUSH2 0x1956 JUMP JUMPDEST DUP5 ADD SWAP2 POP POP SWAP3 SWAP2 POP POP JUMP JUMPDEST PUSH1 0x0 PUSH1 0x20 DUP3 ADD SWAP1 POP DUP2 DUP2 SUB PUSH1 0x0 DUP4 ADD MSTORE PUSH2 0x1E50 DUP2 DUP5 PUSH2 0x1DFD JUMP JUMPDEST SWAP1 POP SWAP3 SWAP2 POP POP JUMP JUMPDEST PUSH2 0x1E61 DUP2 PUSH2 0x1B33 JUMP JUMPDEST DUP3 MSTORE POP POP JUMP JUMPDEST PUSH1 0x0 PUSH1 0x20 DUP3 ADD SWAP1 POP PUSH2 0x1E7C PUSH1 0x0 DUP4 ADD DUP5 PUSH2 0x1E58 JUMP JUMPDEST SWAP3 SWAP2 POP POP JUMP JUMPDEST PUSH1 0x0 PUSH8 0xFFFFFFFFFFFFFFFF DUP3 GT ISZERO PUSH2 0x1E9D JUMPI PUSH2 0x1E9C PUSH2 0x1967 JUMP JUMPDEST JUMPDEST PUSH1 0x20 DUP3 MUL SWAP1 POP PUSH1 0x20 DUP2 ADD SWAP1 POP SWAP2 SWAP1 POP JUMP JUMPDEST PUSH1 0x0 DUP1 REVERT JUMPDEST PUSH1 0x0 PUSH2 0x1EC6 PUSH2 0x1EC1 DUP5 PUSH2 0x1E82 JUMP JUMPDEST PUSH2 0x19C7 JUMP JUMPDEST SWAP1 POP DUP1 DUP4 DUP3 MSTORE PUSH1 0x20 DUP3 ADD SWAP1 POP PUSH1 0x20 DUP5 MUL DUP4 ADD DUP6 DUP2 GT ISZERO PUSH2 0x1EE9 JUMPI PUSH2 0x1EE8 PUSH2 0x1EAE JUMP JUMPDEST JUMPDEST DUP4 JUMPDEST DUP2 DUP2 LT ISZERO PUSH2 0x1F30 JUMPI DUP1 CALLDATALOAD PUSH8 0xFFFFFFFFFFFFFFFF DUP2 GT ISZERO PUSH2 0x1F0E JUMPI PUSH2 0x1F0D PUSH2 0x194C JUMP JUMPDEST JUMPDEST DUP1 DUP7 ADD PUSH2 0x1F1B DUP10 DUP3 PUSH2 0x1A64 JUMP JUMPDEST DUP6 MSTORE PUSH1 0x20 DUP6 ADD SWAP5 POP POP POP PUSH1 0x20 DUP2 ADD SWAP1 POP PUSH2 0x1EEB JUMP JUMPDEST POP POP POP SWAP4 SWAP3 POP POP POP JUMP JUMPDEST PUSH1 0x0 DUP3 PUSH1 0x1F DUP4 ADD SLT PUSH2 0x1F4F JUMPI PUSH2 0x1F4E PUSH2 0x194C JUMP JUMPDEST JUMPDEST DUP2 CALLDATALOAD PUSH2 0x1F5F DUP5 DUP3 PUSH1 0x20 DUP7 ADD PUSH2 0x1EB3 JUMP JUMPDEST SWAP2 POP POP SWAP3 SWAP2 POP POP JUMP JUMPDEST PUSH1 0x0 PUSH8 0xFFFFFFFFFFFFFFFF DUP3 GT ISZERO PUSH2 0x1F83 JUMPI PUSH2 0x1F82 PUSH2 0x1967 JUMP JUMPDEST JUMPDEST PUSH1 0x20 DUP3 MUL SWAP1 POP PUSH1 0x20 DUP2 ADD SWAP1 POP SWAP2 SWAP1 POP JUMP JUMPDEST PUSH1 0x0 PUSH2 0x1FA7 PUSH2 0x1FA2 DUP5 PUSH2 0x1F68 JUMP JUMPDEST PUSH2 0x19C7 JUMP JUMPDEST SWAP1 POP DUP1 DUP4 DUP3 MSTORE PUSH1 0x20 DUP3 ADD SWAP1 POP PUSH1 0x20 DUP5 MUL DUP4 ADD DUP6 DUP2 GT ISZERO PUSH2 0x1FCA JUMPI PUSH2 0x1FC9 PUSH2 0x1EAE JUMP JUMPDEST JUMPDEST DUP4 JUMPDEST DUP2 DUP2 LT ISZERO PUSH2 0x1FF3 JUMPI DUP1 PUSH2 0x1FDF DUP9 DUP3 PUSH2 0x1B5C JUMP JUMPDEST DUP5 MSTORE PUSH1 0x20 DUP5 ADD SWAP4 POP POP PUSH1 0x20 DUP2 ADD SWAP1 POP PUSH2 0x1FCC JUMP JUMPDEST POP POP POP SWAP4 SWAP3 POP POP POP JUMP JUMPDEST PUSH1 0x0 DUP3 PUSH1 0x1F DUP4 ADD SLT PUSH2 0x2012 JUMPI PUSH2 0x2011 PUSH2 0x194C JUMP JUMPDEST JUMPDEST DUP2 CALLDATALOAD PUSH2 0x2022 DUP5 DUP3 PUSH1 0x20 DUP7 ADD PUSH2 0x1F94 JUMP JUMPDEST SWAP2 POP POP SWAP3 SWAP2 POP POP JUMP JUMPDEST PUSH1 0x0 DUP1 PUSH1 0x40 DUP4 DUP6 SUB SLT ISZERO PUSH2 0x2042 JUMPI PUSH2 0x2041 PUSH2 0x1942 JUMP JUMPDEST JUMPDEST PUSH1 0x0 DUP4 ADD CALLDATALOAD PUSH8 0xFFFFFFFFFFFFFFFF DUP2 GT ISZERO PUSH2 0x2060 JUMPI PUSH2 0x205F PUSH2 0x1947 JUMP JUMPDEST JUMPDEST PUSH2 0x206C DUP6 DUP3 DUP7 ADD PUSH2 0x1F3A JUMP JUMPDEST SWAP3 POP POP PUSH1 0x20 DUP4 ADD CALLDATALOAD PUSH8 0xFFFFFFFFFFFFFFFF DUP2 GT ISZERO PUSH2 0x208D JUMPI PUSH2 0x208C PUSH2 0x1947 JUMP JUMPDEST JUMPDEST PUSH2 0x2099 DUP6 DUP3 DUP7 ADD PUSH2 0x1FFD JUMP JUMPDEST SWAP2 POP POP SWAP3 POP SWAP3 SWAP1 POP JUMP JUMPDEST PUSH32 0x5665727465780000000000000000000000000000000000000000000000000000 PUSH1 0x0 DUP3 ADD MSTORE POP JUMP JUMPDEST PUSH1 0x0 PUSH2 0x20D9 PUSH1 0x6 DUP4 PUSH2 0x1DEC JUMP JUMPDEST SWAP2 POP PUSH2 0x20E4 DUP3 PUSH2 0x20A3 JUMP JUMPDEST PUSH1 0x20 DUP3 ADD SWAP1 POP SWAP2 SWAP1 POP JUMP JUMPDEST PUSH1 0x0 PUSH1 0x40 DUP3 ADD SWAP1 POP DUP2 DUP2 SUB PUSH1 0x0 DUP4 ADD MSTORE PUSH2 0x2108 DUP2 PUSH2 0x20CC JUMP JUMPDEST SWAP1 POP PUSH2 0x2117 PUSH1 0x20 DUP4 ADD DUP5 PUSH2 0x1E58 JUMP JUMPDEST SWAP3 SWAP2 POP POP JUMP JUMPDEST PUSH2 0x2126 DUP2 PUSH2 0x1B9E JUMP JUMPDEST DUP2 EQ PUSH2 0x2131 JUMPI PUSH1 0x0 DUP1 REVERT JUMPDEST POP JUMP JUMPDEST PUSH1 0x0 DUP2 MLOAD SWAP1 POP PUSH2 0x2143 DUP2 PUSH2 0x211D JUMP JUMPDEST SWAP3 SWAP2 POP POP JUMP JUMPDEST PUSH1 0x0 PUSH1 0x20 DUP3 DUP5 SUB SLT ISZERO PUSH2 0x215F JUMPI PUSH2 0x215E PUSH2 0x1942 JUMP JUMPDEST JUMPDEST PUSH1 0x0 PUSH2 0x216D DUP5 DUP3 DUP6 ADD PUSH2 0x2134 JUMP JUMPDEST SWAP2 POP POP SWAP3 SWAP2 POP POP JUMP JUMPDEST PUSH32 0x7665726966792061757468206572726F72000000000000000000000000000000 PUSH1 0x0 DUP3 ADD MSTORE POP JUMP JUMPDEST PUSH1 0x0 PUSH2 0x21AC PUSH1 0x11 DUP4 PUSH2 0x1DEC JUMP JUMPDEST SWAP2 POP PUSH2 0x21B7 DUP3 PUSH2 0x2176 JUMP JUMPDEST PUSH1 0x20 DUP3 ADD SWAP1 POP SWAP2 SWAP1 POP JUMP JUMPDEST PUSH1 0x0 PUSH1 0x20 DUP3 ADD SWAP1 POP DUP2 DUP2 SUB PUSH1 0x0 DUP4 ADD MSTORE PUSH2 0x21DB DUP2 PUSH2 0x219F JUMP JUMPDEST SWAP1 POP SWAP2 SWAP1 POP JUMP JUMPDEST PUSH1 0x0 DUP2 SWAP1 POP SWAP3 SWAP2 POP POP JUMP JUMPDEST PUSH1 0x0 PUSH2 0x21F8 DUP3 PUSH2 0x1C00 JUMP JUMPDEST PUSH2 0x2202 DUP2 DUP6 PUSH2 0x21E2 JUMP JUMPDEST SWAP4 POP PUSH2 0x2212 DUP2 DUP6 PUSH1 0x20 DUP7 ADD PUSH2 0x1C1C JUMP JUMPDEST DUP1 DUP5 ADD SWAP2 POP POP SWAP3 SWAP2 POP POP JUMP JUMPDEST PUSH1 0x0 PUSH2 0x222A DUP3 DUP5 PUSH2 0x21ED JUMP JUMPDEST SWAP2 POP DUP2 SWAP1 POP SWAP3 SWAP2 POP POP JUMP JUMPDEST PUSH32 0x4E487B7100000000000000000000000000000000000000000000000000000000 PUSH1 0x0 MSTORE PUSH1 0x22 PUSH1 0x4 MSTORE PUSH1 0x24 PUSH1 0x0 REVERT JUMPDEST PUSH1 0x0 PUSH1 0x2 DUP3 DIV SWAP1 POP PUSH1 0x1 DUP3 AND DUP1 PUSH2 0x227C JUMPI PUSH1 0x7F DUP3 AND SWAP2 POP JUMPDEST PUSH1 0x20 DUP3 LT DUP2 SUB PUSH2 0x228F JUMPI PUSH2 0x228E PUSH2 0x2235 JUMP JUMPDEST JUMPDEST POP SWAP2 SWAP1 POP JUMP JUMPDEST PUSH1 0x0 DUP2 SWAP1 POP DUP2 PUSH1 0x0 MSTORE PUSH1 0x20 PUSH1 0x0 KECCAK256 SWAP1 POP SWAP2 SWAP1 POP JUMP JUMPDEST PUSH1 0x0 PUSH1 0x20 PUSH1 0x1F DUP4 ADD DIV SWAP1 POP SWAP2 SWAP1 POP JUMP JUMPDEST PUSH1 0x0 DUP3 DUP3 SHL SWAP1 POP SWAP3 SWAP2 POP POP JUMP JUMPDEST PUSH1 0x0 PUSH1 0x8 DUP4 MUL PUSH2 0x22F7 PUSH32 0xFFFFFFFFFFFFFFFFFFFFFFFFFFFFFFFFFFFFFFFFFFFFFFFFFFFFFFFFFFFFFFFF DUP3 PUSH2 0x22BA JUMP JUMPDEST PUSH2 0x2301 DUP7 DUP4 PUSH2 0x22BA JUMP JUMPDEST SWAP6 POP DUP1 NOT DUP5 AND SWAP4 POP DUP1 DUP7 AND DUP5 OR SWAP3 POP POP POP SWAP4 SWAP3 POP POP POP JUMP JUMPDEST PUSH1 0x0 DUP2 SWAP1 POP SWAP2 SWAP1 POP JUMP JUMPDEST PUSH1 0x0 PUSH2 0x233E PUSH2 0x2339 PUSH2 0x2334 DUP5 PUSH2 0x1904 JUMP JUMPDEST PUSH2 0x2319 JUMP JUMPDEST PUSH2 0x1904 JUMP JUMPDEST SWAP1 POP SWAP2 SWAP1 POP JUMP JUMPDEST PUSH1 0x0 DUP2 SWAP1 POP SWAP2 SWAP1 POP JUMP JUMPDEST PUSH2 0x2358 DUP4 PUSH2 0x2323 JUMP JUMPDEST PUSH2 0x236C PUSH2 0x2364 DUP3 PUSH2 0x2345 JUMP JUMPDEST DUP5 DUP5 SLOAD PUSH2 0x22C7 JUMP JUMPDEST DUP3 SSTORE POP POP POP POP JUMP JUMPDEST PUSH1 0x0 SWAP1 JUMP JUMPDEST PUSH2 0x2381 PUSH2 0x2374 JUMP JUMPDEST PUSH2 0x238C DUP2 DUP5 DUP5 PUSH2 0x234F JUMP JUMPDEST POP POP POP JUMP JUMPDEST JUMPDEST DUP2 DUP2 LT ISZERO PUSH2 0x23B0 JUMPI PUSH2 0x23A5 PUSH1 0x0 DUP3 PUSH2 0x2379 JUMP JUMPDEST PUSH1 0x1 DUP2 ADD SWAP1 POP PUSH2 0x2392 JUMP JUMPDEST POP POP JUMP JUMPDEST PUSH1 0x1F DUP3 GT ISZERO PUSH2 0x23F5 JUMPI PUSH2 0x23C6 DUP2 PUSH2 0x2295 JUMP JUMPDEST PUSH2 0x23CF DUP5 PUSH2 0x22AA JUMP JUMPDEST DUP2 ADD PUSH1 0x20 DUP6 LT ISZERO PUSH2 0x23DE JUMPI DUP2 SWAP1 POP JUMPDEST PUSH2 0x23F2 PUSH2 0x23EA DUP6 PUSH2 0x22AA JUMP JUMPDEST DUP4 ADD DUP3 PUSH2 0x2391 JUMP JUMPDEST POP POP JUMPDEST POP POP POP JUMP JUMPDEST PUSH1 0x0 DUP3 DUP3 SHR SWAP1 POP SWAP3 SWAP2 POP POP JUMP JUMPDEST PUSH1 0x0 PUSH2 0x2418 PUSH1 0x0 NOT DUP5 PUSH1 0x8 MUL PUSH2 0x23FA JUMP JUMPDEST NOT DUP1 DUP4 AND SWAP2 POP POP SWAP3 SWAP2 POP POP JUMP JUMPDEST PUSH1 0x0 PUSH2 0x2431 DUP4 DUP4 PUSH2 0x2407 JUMP JUMPDEST SWAP2 POP DUP3 PUSH1 0x2 MUL DUP3 OR SWAP1 POP SWAP3 SWAP2 POP POP JUMP JUMPDEST PUSH2 0x244A DUP3 PUSH2 0x1C00 JUMP JUMPDEST PUSH8 0xFFFFFFFFFFFFFFFF DUP2 GT ISZERO PUSH2 0x2463 JUMPI PUSH2 0x2462 PUSH2 0x1967 JUMP JUMPDEST JUMPDEST PUSH2 0x246D DUP3 SLOAD PUSH2 0x2264 JUMP JUMPDEST PUSH2 0x2478 DUP3 DUP3 DUP6 PUSH2 0x23B4 JUMP JUMPDEST PUSH1 0x0 PUSH1 0x20 SWAP1 POP PUSH1 0x1F DUP4 GT PUSH1 0x1 DUP2 EQ PUSH2 0x24AB JUMPI PUSH1 0x0 DUP5 ISZERO PUSH2 0x2499 JUMPI DUP3 DUP8 ADD MLOAD SWAP1 POP JUMPDEST PUSH2 0x24A3 DUP6 DUP3 PUSH2 0x2425 JUMP JUMPDEST DUP7 SSTORE POP PUSH2 0x250B JUMP JUMPDEST PUSH1 0x1F NOT DUP5 AND PUSH2 0x24B9 DUP7 PUSH2 0x2295 JUMP JUMPDEST PUSH1 0x0 JUMPDEST DUP3 DUP2 LT ISZERO PUSH2 0x24E1 JUMPI DUP5 DUP10 ADD MLOAD DUP3 SSTORE PUSH1 0x1 DUP3 ADD SWAP2 POP PUSH1 0x20 DUP6 ADD SWAP5 POP PUSH1 0x20 DUP2 ADD SWAP1 POP PUSH2 0x24BC JUMP JUMPDEST DUP7 DUP4 LT ISZERO PUSH2 0x24FE JUMPI DUP5 DUP10 ADD MLOAD PUSH2 0x24FA PUSH1 0x1F DUP10 AND DUP3 PUSH2 0x2407 JUMP JUMPDEST DUP4 SSTORE POP JUMPDEST PUSH1 0x1 PUSH1 0x2 DUP9 MUL ADD DUP9 SSTORE POP POP POP JUMPDEST POP POP POP POP POP POP JUMP JUMPDEST PUSH32 0x4E487B7100000000000000000000000000000000000000000000000000000000 PUSH1 0x0 MSTORE PUSH1 0x11 PUSH1 0x4 MSTORE PUSH1 0x24 PUSH1 0x0 REVERT JUMPDEST PUSH1 0x0 PUSH2 0x254D DUP3 PUSH2 0x1ADB JUMP JUMPDEST SWAP2 POP PUSH2 0xFFFF DUP3 SUB PUSH2 0x2561 JUMPI PUSH2 0x2560 PUSH2 0x2513 JUMP JUMPDEST JUMPDEST PUSH1 0x1 DUP3 ADD SWAP1 POP SWAP2 SWAP1 POP JUMP JUMPDEST PUSH1 0x0 PUSH2 0x2577 DUP3 PUSH2 0x1904 JUMP JUMPDEST SWAP2 POP PUSH2 0x2582 DUP4 PUSH2 0x1904 JUMP JUMPDEST SWAP3 POP DUP3 DUP3 MUL PUSH2 0x2590 DUP2 PUSH2 0x1904 JUMP JUMPDEST SWAP2 POP DUP3 DUP3 DIV DUP5 EQ DUP4 ISZERO OR PUSH2 0x25A7 JUMPI PUSH2 0x25A6 PUSH2 0x2513 JUMP JUMPDEST JUMPDEST POP SWAP3 SWAP2 POP POP JUMP JUMPDEST PUSH32 0x4E487B7100000000000000000000000000000000000000000000000000000000 PUSH1 0x0 MSTORE PUSH1 0x32 PUSH1 0x4 MSTORE PUSH1 0x24 PUSH1 0x0 REVERT JUMPDEST PUSH1 0x0 PUSH2 0x25E8 DUP3 PUSH2 0x1904 JUMP JUMPDEST SWAP2 POP PUSH32 0xFFFFFFFFFFFFFFFFFFFFFFFFFFFFFFFFFFFFFFFFFFFFFFFFFFFFFFFFFFFFFFFF DUP3 SUB PUSH2 0x261A JUMPI PUSH2 0x2619 PUSH2 0x2513 JUMP JUMPDEST JUMPDEST PUSH1 0x1 DUP3 ADD SWAP1 POP SWAP2 SWAP1 POP JUMP JUMPDEST PUSH1 0x0 PUSH2 0x2630 DUP3 PUSH2 0x1904 JUMP JUMPDEST SWAP2 POP PUSH2 0x263B DUP4 PUSH2 0x1904 JUMP JUMPDEST SWAP3 POP DUP3 DUP3 SUB SWAP1 POP DUP2 DUP2 GT ISZERO PUSH2 0x2653 JUMPI PUSH2 0x2652 PUSH2 0x2513 JUMP JUMPDEST JUMPDEST SWAP3 SWAP2 POP POP JUMP JUMPDEST PUSH1 0x0 DUP2 SLOAD SWAP1 POP PUSH2 0x2668 DUP2 PUSH2 0x2264 JUMP JUMPDEST SWAP1 POP SWAP2 SWAP1 POP JUMP JUMPDEST PUSH1 0x0 DUP2 SWAP1 POP DUP2 PUSH1 0x0 MSTORE PUSH1 0x20 PUSH1 0x0 KECCAK256 SWAP1 POP SWAP2 SWAP1 POP JUMP JUMPDEST DUP2 DUP2 SUB PUSH2 0x2692 JUMPI POP POP PUSH2 0x276A JUMP JUMPDEST PUSH2 0x269B DUP3 PUSH2 0x2659 JUMP JUMPDEST PUSH8 0xFFFFFFFFFFFFFFFF DUP2 GT ISZERO PUSH2 0x26B4 JUMPI PUSH2 0x26B3 PUSH2 0x1967 JUMP JUMPDEST JUMPDEST PUSH2 0x26BE DUP3 SLOAD PUSH2 0x2264 JUMP JUMPDEST PUSH2 0x26C9 DUP3 DUP3 DUP6 PUSH2 0x23B4 JUMP JUMPDEST PUSH1 0x0 PUSH1 0x1F DUP4 GT PUSH1 0x1 DUP2 EQ PUSH2 0x26F8 JUMPI PUSH1 0x0 DUP5 ISZERO PUSH2 0x26E6 JUMPI DUP3 DUP8 ADD SLOAD SWAP1 POP JUMPDEST PUSH2 0x26F0 DUP6 DUP3 PUSH2 0x2425 JUMP JUMPDEST DUP7 SSTORE POP PUSH2 0x2763 JUMP JUMPDEST PUSH1 0x1F NOT DUP5 AND PUSH2 0x2706 DUP8 PUSH2 0x266F JUMP JUMPDEST SWAP7 POP PUSH2 0x2711 DUP7 PUSH2 0x2295 JUMP JUMPDEST PUSH1 0x0 JUMPDEST DUP3 DUP2 LT ISZERO PUSH2 0x2739 JUMPI DUP5 DUP10 ADD SLOAD DUP3 SSTORE PUSH1 0x1 DUP3 ADD SWAP2 POP PUSH1 0x1 DUP6 ADD SWAP5 POP PUSH1 0x20 DUP2 ADD SWAP1 POP PUSH2 0x2714 JUMP JUMPDEST DUP7 DUP4 LT ISZERO PUSH2 0x2756 JUMPI DUP5 DUP10 ADD SLOAD PUSH2 0x2752 PUSH1 0x1F DUP10 AND DUP3 PUSH2 0x2407 JUMP JUMPDEST DUP4 SSTORE POP JUMPDEST PUSH1 0x1 PUSH1 0x2 DUP9 MUL ADD DUP9 SSTORE POP POP POP JUMPDEST POP POP POP POP POP POP JUMPDEST JUMP JUMPDEST PUSH32 0x4E487B7100000000000000000000000000000000000000000000000000000000 PUSH1 0x0 MSTORE PUSH1 0x31 PUSH1 0x4 MSTORE PUSH1 0x24 PUSH1 0x0 REVERT JUMPDEST PUSH32 0x4F776E61626C653A206E6577206F776E657220697320746865207A65726F2061 PUSH1 0x0 DUP3 ADD MSTORE PUSH32 0x6464726573730000000000000000000000000000000000000000000000000000 PUSH1 0x20 DUP3 ADD MSTORE POP JUMP JUMPDEST PUSH1 0x0 PUSH2 0x27F7 PUSH1 0x26 DUP4 PUSH2 0x1DEC JUMP JUMPDEST SWAP2 POP PUSH2 0x2802 DUP3 PUSH2 0x279B JUMP JUMPDEST PUSH1 0x40 DUP3 ADD SWAP1 POP SWAP2 SWAP1 POP JUMP JUMPDEST PUSH1 0x0 PUSH1 0x20 DUP3 ADD SWAP1 POP DUP2 DUP2 SUB PUSH1 0x0 DUP4 ADD MSTORE PUSH2 0x2826 DUP2 PUSH2 0x27EA JUMP JUMPDEST SWAP1 POP SWAP2 SWAP1 POP JUMP JUMPDEST PUSH32 0x4F776E61626C653A2063616C6C6572206973206E6F7420746865206F776E6572 PUSH1 0x0 DUP3 ADD MSTORE POP JUMP JUMPDEST PUSH1 0x0 PUSH2 0x2863 PUSH1 0x20 DUP4 PUSH2 0x1DEC JUMP JUMPDEST SWAP2 POP PUSH2 0x286E DUP3 PUSH2 0x282D JUMP JUMPDEST PUSH1 0x20 DUP3 ADD SWAP1 POP SWAP2 SWAP1 POP JUMP JUMPDEST PUSH1 0x0 PUSH1 0x20 DUP3 ADD SWAP1 POP DUP2 DUP2 SUB PUSH1 0x0 DUP4 ADD MSTORE PUSH2 0x2892 DUP2 PUSH2 0x2856 JUMP JUMPDEST SWAP1 POP SWAP2 SWAP1 POP JUMP INVALID LOG2 PUSH5 0x6970667358 0x22 SLT KECCAK256 0x21 BASEFEE PUSH29 0xA432A13344153F8E582144485B5BFCE21867942C3BC5D2AC4A58B883B6 PUSH5 0x736F6C6343 STOP ADDMOD GT STOP CALLER "
				},
				"gasEstimates": {
					"creation": {
						"codeDepositCost": "2089400",
						"executionCost": "infinite",
						"totalCost": "infinite"
					},
					"external": {
						"GpuCpuMemNetWeight()": "2562",
						"HddWeight()": "2541",
						"addAdmin(address)": "27231",
						"addCaller(string[],address[])": "infinite",
						"addDeviceInfoCons(string)": "infinite",
						"addDevicePowerInfoCons(string)": "infinite",
						"delAdmin(address)": "27143",
						"delDeviceInfoCons(string)": "infinite",
						"deviceConsCount()": "2605",
						"deviceInfoKeys(uint256)": "infinite",
						"devicePartInfoCons(string)": "infinite",
						"devicePowerConsCount()": "2654",
						"devicePowerInfoCons(string)": "infinite",
						"devicePowerInfoKeys(uint256)": "infinite",
						"getCaller(string)": "infinite",
						"getDeviceConsCount()": "2589",
						"getDeviceInfoCons(string)": "infinite",
						"getDeviceInfoKeys()": "infinite",
						"getDevicePowerConsCount()": "2663",
						"getDevicePowerInfoCons(string)": "infinite",
						"getDevicePowerInfoKeys()": "infinite",
						"getGpuCpuMemNetWeight()": "2506",
						"getHddWeight()": "2570",
						"getMinStakeAmount()": "405",
						"getOffline()": "455",
						"getOnline()": "432",
						"getRendering()": "433",
						"getReportVmDataDiffTimestamp()": "2484",
						"getStakeAmountLimit()": "2526",
						"getTotalTokenIssuance()": "449",
						"isAdmin(address)": "2929",
						"offline()": "490",
						"online()": "469",
						"onlyCaller(string,address)": "infinite",
						"owner()": "2567",
						"remainingMinStakeAmount()": "373",
						"rendering()": "489",
						"renounceOwnership()": "30444",
						"reportVmDataDiffTimestamp()": "2540",
						"setStakeAmount(uint256)": "infinite",
						"stakeAmountLimit()": "2474",
						"totalTokenIssuance()": "395",
						"transferOwnership(address)": "30876"
					},
					"internal": {
						"hashCompareWithLengthCheckInternal(string memory,string memory)": "infinite"
					}
				},
				"methodIdentifiers": {
					"GpuCpuMemNetWeight()": "9e7a0257",
					"HddWeight()": "77ec7252",
					"addAdmin(address)": "70480275",
					"addCaller(string[],address[])": "a96ed9c1",
					"addDeviceInfoCons(string)": "dbf26edf",
					"addDevicePowerInfoCons(string)": "0b114940",
					"delAdmin(address)": "62d91855",
					"delDeviceInfoCons(string)": "b66dd715",
					"deviceConsCount()": "7c1855fa",
					"deviceInfoKeys(uint256)": "751c0b35",
					"devicePartInfoCons(string)": "76993de3",
					"devicePowerConsCount()": "6c021c76",
					"devicePowerInfoCons(string)": "0de53caf",
					"devicePowerInfoKeys(uint256)": "67068278",
					"getCaller(string)": "9a503eb1",
					"getDeviceConsCount()": "e9fcb6fc",
					"getDeviceInfoCons(string)": "146772d7",
					"getDeviceInfoKeys()": "2f2b035b",
					"getDevicePowerConsCount()": "4305c0dc",
					"getDevicePowerInfoCons(string)": "99adf51e",
					"getDevicePowerInfoKeys()": "a8f560f9",
					"getGpuCpuMemNetWeight()": "086ebaa4",
					"getHddWeight()": "c90cee4e",
					"getMinStakeAmount()": "527cb1d7",
					"getOffline()": "5809cdb5",
					"getOnline()": "64693b87",
					"getRendering()": "331b4cda",
					"getReportVmDataDiffTimestamp()": "022c36fd",
					"getStakeAmountLimit()": "9a403ff6",
					"getTotalTokenIssuance()": "36ffc86d",
					"isAdmin(address)": "24d7806c",
					"offline()": "9fa2526f",
					"online()": "5cd9f87a",
					"onlyCaller(string,address)": "5437733f",
					"owner()": "8da5cb5b",
					"remainingMinStakeAmount()": "d703805f",
					"rendering()": "ffef89c3",
					"renounceOwnership()": "715018a6",
					"reportVmDataDiffTimestamp()": "c8aecea6",
					"setStakeAmount(uint256)": "43808c50",
					"stakeAmountLimit()": "60729675",
					"totalTokenIssuance()": "d98cd54d",
					"transferOwnership(address)": "f2fde38b"
				}
			},
			"storageLayout": {
				"storage": [
					{
						"astId": 7,
						"contract": "contracts/Constant1.sol:VertexConstant",
						"label": "_owner",
						"offset": 0,
						"slot": "0",
						"type": "t_address"
					},
					{
						"astId": 143,
						"contract": "contracts/Constant1.sol:VertexConstant",
						"label": "_admins",
						"offset": 0,
						"slot": "1",
						"type": "t_mapping(t_address,t_bool)"
					},
					{
						"astId": 202,
						"contract": "contracts/Constant1.sol:VertexConstant",
						"label": "authVerify",
						"offset": 0,
						"slot": "2",
						"type": "t_mapping(t_string_memory_ptr,t_address)"
					},
					{
						"astId": 287,
						"contract": "contracts/Constant1.sol:VertexConstant",
						"label": "deviceInfoKeys",
						"offset": 0,
						"slot": "3",
						"type": "t_array(t_string_storage)dyn_storage"
					},
					{
						"astId": 291,
						"contract": "contracts/Constant1.sol:VertexConstant",
						"label": "devicePartInfoCons",
						"offset": 0,
						"slot": "4",
						"type": "t_mapping(t_string_memory_ptr,t_uint16)"
					},
					{
						"astId": 294,
						"contract": "contracts/Constant1.sol:VertexConstant",
						"label": "devicePowerInfoKeys",
						"offset": 0,
						"slot": "5",
						"type": "t_array(t_string_storage)dyn_storage"
					},
					{
						"astId": 298,
						"contract": "contracts/Constant1.sol:VertexConstant",
						"label": "devicePowerInfoCons",
						"offset": 0,
						"slot": "6",
						"type": "t_mapping(t_string_memory_ptr,t_uint16)"
					},
					{
						"astId": 305,
						"contract": "contracts/Constant1.sol:VertexConstant",
						"label": "stakeAmountLimit",
						"offset": 0,
						"slot": "7",
						"type": "t_uint256"
					},
					{
						"astId": 315,
						"contract": "contracts/Constant1.sol:VertexConstant",
						"label": "deviceConsCount",
						"offset": 0,
						"slot": "8",
						"type": "t_uint16"
					},
					{
						"astId": 318,
						"contract": "contracts/Constant1.sol:VertexConstant",
						"label": "devicePowerConsCount",
						"offset": 2,
						"slot": "8",
						"type": "t_uint16"
					},
					{
						"astId": 321,
						"contract": "contracts/Constant1.sol:VertexConstant",
						"label": "reportVmDataDiffTimestamp",
						"offset": 0,
						"slot": "9",
						"type": "t_uint256"
					},
					{
						"astId": 324,
						"contract": "contracts/Constant1.sol:VertexConstant",
						"label": "GpuCpuMemNetWeight",
						"offset": 0,
						"slot": "10",
						"type": "t_uint256"
					},
					{
						"astId": 327,
						"contract": "contracts/Constant1.sol:VertexConstant",
						"label": "HddWeight",
						"offset": 0,
						"slot": "11",
						"type": "t_uint256"
					}
				],
				"types": {
					"t_address": {
						"encoding": "inplace",
						"label": "address",
						"numberOfBytes": "20"
					},
					"t_array(t_string_storage)dyn_storage": {
						"base": "t_string_storage",
						"encoding": "dynamic_array",
						"label": "string[]",
						"numberOfBytes": "32"
					},
					"t_bool": {
						"encoding": "inplace",
						"label": "bool",
						"numberOfBytes": "1"
					},
					"t_mapping(t_address,t_bool)": {
						"encoding": "mapping",
						"key": "t_address",
						"label": "mapping(address => bool)",
						"numberOfBytes": "32",
						"value": "t_bool"
					},
					"t_mapping(t_string_memory_ptr,t_address)": {
						"encoding": "mapping",
						"key": "t_string_memory_ptr",
						"label": "mapping(string => address)",
						"numberOfBytes": "32",
						"value": "t_address"
					},
					"t_mapping(t_string_memory_ptr,t_uint16)": {
						"encoding": "mapping",
						"key": "t_string_memory_ptr",
						"label": "mapping(string => uint16)",
						"numberOfBytes": "32",
						"value": "t_uint16"
					},
					"t_string_memory_ptr": {
						"encoding": "bytes",
						"label": "string",
						"numberOfBytes": "32"
					},
					"t_string_storage": {
						"encoding": "bytes",
						"label": "string",
						"numberOfBytes": "32"
					},
					"t_uint16": {
						"encoding": "inplace",
						"label": "uint16",
						"numberOfBytes": "2"
					},
					"t_uint256": {
						"encoding": "inplace",
						"label": "uint256",
						"numberOfBytes": "32"
					}
				}
			},
			"userdoc": {
				"kind": "user",
				"methods": {},
				"version": 1
			}
		}
	}
}