{
	"contracts/test.sol": {
		"test": {
			"abi": [
				{
					"inputs": [
						{
							"internalType": "address",
							"name": "validator_",
							"type": "address"
						},
						{
							"internalType": "uint256",
							"name": "duration_",
							"type": "uint256"
						},
						{
							"internalType": "address",
							"name": "winner_",
							"type": "address"
						},
						{
							"internalType": "string",
							"name": "max_hash_",
							"type": "string"
						},
						{
							"internalType": "bytes",
							"name": "sign_",
							"type": "bytes"
						}
					],
					"name": "_checkSign",
					"outputs": [
						{
							"internalType": "bool",
							"name": "",
							"type": "bool"
						}
					],
					"stateMutability": "nonpayable",
					"type": "function"
				},
				{
					"inputs": [
						{
							"internalType": "uint16",
							"name": "componentsType",
							"type": "uint16"
						},
						{
							"internalType": "uint256",
							"name": "data",
							"type": "uint256"
						}
					],
					"name": "addDeviceComputePowerData",
					"outputs": [],
					"stateMutability": "nonpayable",
					"type": "function"
				},
				{
					"inputs": [],
					"name": "computePowerValue",
					"outputs": [
						{
							"internalType": "uint256",
							"name": "",
							"type": "uint256"
						}
					],
					"stateMutability": "view",
					"type": "function"
				},
				{
					"inputs": [],
					"name": "condition",
					"outputs": [],
					"stateMutability": "view",
					"type": "function"
				},
				{
					"inputs": [
						{
							"internalType": "uint16",
							"name": "",
							"type": "uint16"
						}
					],
					"name": "deviceComputePowerData",
					"outputs": [
						{
							"internalType": "uint256",
							"name": "",
							"type": "uint256"
						}
					],
					"stateMutability": "view",
					"type": "function"
				},
				{
					"inputs": [],
					"name": "testSub",
					"outputs": [],
					"stateMutability": "nonpayable",
					"type": "function"
				},
				{
					"inputs": [],
					"name": "two",
					"outputs": [
						{
							"internalType": "uint256",
							"name": "",
							"type": "uint256"
						}
					],
					"stateMutability": "view",
					"type": "function"
				}
			],
			"devdoc": {
				"kind": "dev",
				"methods": {},
				"version": 1
			},
			"evm": {
				"assembly": "    /* \"contracts/test.sol\":294:2003  contract test  {... */\n  mstore(0x40, 0x80)\n    /* \"contracts/test.sol\":389:390  0 */\n  0x00\n    /* \"contracts/test.sol\":375:390  uint256 one = 0 */\n  dup1\n  sstore\n    /* \"contracts/test.sol\":417:422  27000 */\n  0x6978\n    /* \"contracts/test.sol\":396:422  uint256 public two = 27000 */\n  0x01\n  sstore\n    /* \"contracts/test.sol\":444:445  3 */\n  0x03\n    /* \"contracts/test.sol\":428:445  uint256 three = 3 */\n  0x02\n  sstore\n    /* \"contracts/test.sol\":465:466  0 */\n  0x00\n    /* \"contracts/test.sol\":451:466  uint256 res = 0 */\n  0x03\n  sstore\n    /* \"contracts/test.sol\":294:2003  contract test  {... */\n  callvalue\n  dup1\n  iszero\n  tag_1\n  jumpi\n  0x00\n  dup1\n  revert\ntag_1:\n  pop\n  dataSize(sub_0)\n  dup1\n  dataOffset(sub_0)\n  0x00\n  codecopy\n  0x00\n  return\nstop\n\nsub_0: assembly {\n        /* \"contracts/test.sol\":294:2003  contract test  {... */\n      mstore(0x40, 0x80)\n      callvalue\n      dup1\n      iszero\n      tag_1\n      jumpi\n      0x00\n      dup1\n      revert\n    tag_1:\n      pop\n      jumpi(tag_2, lt(calldatasize, 0x04))\n      shr(0xe0, calldataload(0x00))\n      dup1\n      0x5fdf05d7\n      gt\n      tag_10\n      jumpi\n      dup1\n      0x5fdf05d7\n      eq\n      tag_6\n      jumpi\n      dup1\n      0x8a4986e9\n      eq\n      tag_7\n      jumpi\n      dup1\n      0xc5031331\n      eq\n      tag_8\n      jumpi\n      dup1\n      0xca61cdac\n      eq\n      tag_9\n      jumpi\n      jump(tag_2)\n    tag_10:\n      dup1\n      0x3ba4d8de\n      eq\n      tag_3\n      jumpi\n      dup1\n      0x4ec85838\n      eq\n      tag_4\n      jumpi\n      dup1\n      0x52ac6c76\n      eq\n      tag_5\n      jumpi\n    tag_2:\n      0x00\n      dup1\n      revert\n        /* \"contracts/test.sol\":1657:2001  function _checkSign(address validator_, uint256 duration_, address winner_, ... */\n    tag_3:\n      tag_11\n      0x04\n      dup1\n      calldatasize\n      sub\n      dup2\n      add\n      swap1\n      tag_12\n      swap2\n      swap1\n      tag_13\n      jump\t// in\n    tag_12:\n      tag_14\n      jump\t// in\n    tag_11:\n      mload(0x40)\n      tag_15\n      swap2\n      swap1\n      tag_16\n      jump\t// in\n    tag_15:\n      mload(0x40)\n      dup1\n      swap2\n      sub\n      swap1\n      return\n        /* \"contracts/test.sol\":700:865  function addDeviceComputePowerData(... */\n    tag_4:\n      tag_17\n      0x04\n      dup1\n      calldatasize\n      sub\n      dup2\n      add\n      swap1\n      tag_18\n      swap2\n      swap1\n      tag_19\n      jump\t// in\n    tag_18:\n      tag_20\n      jump\t// in\n    tag_17:\n      stop\n        /* \"contracts/test.sol\":872:1620  function computePowerValue() public view returns (uint256) {... */\n    tag_5:\n      tag_21\n      tag_22\n      jump\t// in\n    tag_21:\n      mload(0x40)\n      tag_23\n      swap2\n      swap1\n      tag_24\n      jump\t// in\n    tag_23:\n      mload(0x40)\n      dup1\n      swap2\n      sub\n      swap1\n      return\n        /* \"contracts/test.sol\":396:422  uint256 public two = 27000 */\n    tag_6:\n      tag_25\n      tag_26\n      jump\t// in\n    tag_25:\n      mload(0x40)\n      tag_27\n      swap2\n      swap1\n      tag_24\n      jump\t// in\n    tag_27:\n      mload(0x40)\n      dup1\n      swap2\n      sub\n      swap1\n      return\n        /* \"contracts/test.sol\":474:530  mapping(uint16 => uint256) public deviceComputePowerData */\n    tag_7:\n      tag_28\n      0x04\n      dup1\n      calldatasize\n      sub\n      dup2\n      add\n      swap1\n      tag_29\n      swap2\n      swap1\n      tag_30\n      jump\t// in\n    tag_29:\n      tag_31\n      jump\t// in\n    tag_28:\n      mload(0x40)\n      tag_32\n      swap2\n      swap1\n      tag_24\n      jump\t// in\n    tag_32:\n      mload(0x40)\n      dup1\n      swap2\n      sub\n      swap1\n      return\n        /* \"contracts/test.sol\":538:621  function condition() external view {... */\n    tag_8:\n      tag_33\n      tag_34\n      jump\t// in\n    tag_33:\n      stop\n        /* \"contracts/test.sol\":628:692  function testSub()external {... */\n    tag_9:\n      tag_35\n      tag_36\n      jump\t// in\n    tag_35:\n      stop\n        /* \"contracts/test.sol\":1657:2001  function _checkSign(address validator_, uint256 duration_, address winner_, ... */\n    tag_14:\n        /* \"contracts/test.sol\":1805:1809  bool */\n      0x00\n        /* \"contracts/test.sol\":1821:1831  bytes32 dd */\n      dup1\n        /* \"contracts/test.sol\":1861:1870  duration_ */\n      dup6\n        /* \"contracts/test.sol\":1872:1879  winner_ */\n      dup6\n        /* \"contracts/test.sol\":1881:1890  max_hash_ */\n      dup6\n        /* \"contracts/test.sol\":1844:1891  abi.encodePacked(duration_, winner_, max_hash_) */\n      add(0x20, mload(0x40))\n      tag_38\n      swap4\n      swap3\n      swap2\n      swap1\n      tag_39\n      jump\t// in\n    tag_38:\n      mload(0x40)\n      0x20\n      dup2\n      dup4\n      sub\n      sub\n      dup2\n      mstore\n      swap1\n      0x40\n      mstore\n        /* \"contracts/test.sol\":1834:1892  keccak256(abi.encodePacked(duration_, winner_, max_hash_)) */\n      dup1\n      mload\n      swap1\n      0x20\n      add\n      keccak256\n        /* \"contracts/test.sol\":1821:1892  bytes32 dd = keccak256(abi.encodePacked(duration_, winner_, max_hash_)) */\n      swap1\n      pop\n        /* \"contracts/test.sol\":1984:1994  validator_ */\n      dup7\n        /* \"contracts/test.sol\":1956:1994  ECDSA.recover(dd, sign_) == validator_ */\n      0xffffffffffffffffffffffffffffffffffffffff\n      and\n        /* \"contracts/test.sol\":1956:1980  ECDSA.recover(dd, sign_) */\n      tag_40\n        /* \"contracts/test.sol\":1970:1972  dd */\n      dup3\n        /* \"contracts/test.sol\":1974:1979  sign_ */\n      dup6\n        /* \"contracts/test.sol\":1956:1969  ECDSA.recover */\n      tag_41\n        /* \"contracts/test.sol\":1956:1980  ECDSA.recover(dd, sign_) */\n      jump\t// in\n    tag_40:\n        /* \"contracts/test.sol\":1956:1994  ECDSA.recover(dd, sign_) == validator_ */\n      0xffffffffffffffffffffffffffffffffffffffff\n      and\n      eq\n        /* \"contracts/test.sol\":1949:1994  return ECDSA.recover(dd, sign_) == validator_ */\n      swap2\n      pop\n      pop\n        /* \"contracts/test.sol\":1657:2001  function _checkSign(address validator_, uint256 duration_, address winner_, ... */\n      swap6\n      swap5\n      pop\n      pop\n      pop\n      pop\n      pop\n      jump\t// out\n        /* \"contracts/test.sol\":700:865  function addDeviceComputePowerData(... */\n    tag_20:\n        /* \"contracts/test.sol\":854:858  data */\n      dup1\n        /* \"contracts/test.sol\":813:835  deviceComputePowerData */\n      0x04\n        /* \"contracts/test.sol\":813:851  deviceComputePowerData[componentsType] */\n      0x00\n        /* \"contracts/test.sol\":836:850  componentsType */\n      dup5\n        /* \"contracts/test.sol\":813:851  deviceComputePowerData[componentsType] */\n      0xffff\n      and\n      0xffff\n      and\n      dup2\n      mstore\n      0x20\n      add\n      swap1\n      dup2\n      mstore\n      0x20\n      add\n      0x00\n      keccak256\n        /* \"contracts/test.sol\":813:858  deviceComputePowerData[componentsType] = data */\n      dup2\n      swap1\n      sstore\n      pop\n        /* \"contracts/test.sol\":700:865  function addDeviceComputePowerData(... */\n      pop\n      pop\n      jump\t// out\n        /* \"contracts/test.sol\":872:1620  function computePowerValue() public view returns (uint256) {... */\n    tag_22:\n        /* \"contracts/test.sol\":922:929  uint256 */\n      0x00\n        /* \"contracts/test.sol\":941:953  uint16 count */\n      dup1\n        /* \"contracts/test.sol\":956:957  6 */\n      0x06\n        /* \"contracts/test.sol\":941:957  uint16 count = 6 */\n      swap1\n      pop\n        /* \"contracts/test.sol\":967:992  uint256 gpuCpuMemNetValue */\n      0x00\n        /* \"contracts/test.sol\":995:996  1 */\n      0x01\n        /* \"contracts/test.sol\":967:996  uint256 gpuCpuMemNetValue = 1 */\n      swap1\n      pop\n        /* \"contracts/test.sol\":1006:1022  uint256 hddValue */\n      0x00\n        /* \"contracts/test.sol\":1025:1026  1 */\n      0x01\n        /* \"contracts/test.sol\":1006:1026  uint256 hddValue = 1 */\n      swap1\n      pop\n        /* \"contracts/test.sol\":1041:1049  uint16 i */\n      0x00\n        /* \"contracts/test.sol\":1052:1053  1 */\n      0x01\n        /* \"contracts/test.sol\":1041:1053  uint16 i = 1 */\n      swap1\n      pop\n        /* \"contracts/test.sol\":1036:1325  for (uint16 i = 1; i <= count; i++) {... */\n    tag_44:\n        /* \"contracts/test.sol\":1060:1065  count */\n      dup4\n        /* \"contracts/test.sol\":1055:1065  i <= count */\n      0xffff\n      and\n        /* \"contracts/test.sol\":1055:1056  i */\n      dup2\n        /* \"contracts/test.sol\":1055:1065  i <= count */\n      0xffff\n      and\n      gt\n        /* \"contracts/test.sol\":1036:1325  for (uint16 i = 1; i <= count; i++) {... */\n      tag_45\n      jumpi\n        /* \"contracts/test.sol\":1094:1099  count */\n      dup4\n        /* \"contracts/test.sol\":1090:1099  i < count */\n      0xffff\n      and\n        /* \"contracts/test.sol\":1090:1091  i */\n      dup2\n        /* \"contracts/test.sol\":1090:1099  i < count */\n      0xffff\n      and\n      lt\n        /* \"contracts/test.sol\":1086:1315  if (i < count) {... */\n      iszero\n      tag_47\n      jumpi\n        /* \"contracts/test.sol\":1139:1225  gpuCpuMemNetValue.mul(... */\n      tag_48\n        /* \"contracts/test.sol\":1182:1204  deviceComputePowerData */\n      0x04\n        /* \"contracts/test.sol\":1182:1207  deviceComputePowerData[i] */\n      0x00\n        /* \"contracts/test.sol\":1205:1206  i */\n      dup4\n        /* \"contracts/test.sol\":1182:1207  deviceComputePowerData[i] */\n      0xffff\n      and\n      0xffff\n      and\n      dup2\n      mstore\n      0x20\n      add\n      swap1\n      dup2\n      mstore\n      0x20\n      add\n      0x00\n      keccak256\n      sload\n        /* \"contracts/test.sol\":1139:1156  gpuCpuMemNetValue */\n      dup5\n        /* \"contracts/test.sol\":1139:1160  gpuCpuMemNetValue.mul */\n      tag_49\n      swap1\n        /* \"contracts/test.sol\":1139:1225  gpuCpuMemNetValue.mul(... */\n      swap2\n      swap1\n      0xffffffff\n      and\n      jump\t// in\n    tag_48:\n        /* \"contracts/test.sol\":1119:1225  gpuCpuMemNetValue = gpuCpuMemNetValue.mul(... */\n      swap3\n      pop\n        /* \"contracts/test.sol\":1086:1315  if (i < count) {... */\n      jump(tag_50)\n    tag_47:\n        /* \"contracts/test.sol\":1275:1297  deviceComputePowerData */\n      0x04\n        /* \"contracts/test.sol\":1275:1300  deviceComputePowerData[i] */\n      0x00\n        /* \"contracts/test.sol\":1298:1299  i */\n      dup3\n        /* \"contracts/test.sol\":1275:1300  deviceComputePowerData[i] */\n      0xffff\n      and\n      0xffff\n      and\n      dup2\n      mstore\n      0x20\n      add\n      swap1\n      dup2\n      mstore\n      0x20\n      add\n      0x00\n      keccak256\n      sload\n        /* \"contracts/test.sol\":1264:1300  hddValue = deviceComputePowerData[i] */\n      swap2\n      pop\n        /* \"contracts/test.sol\":1086:1315  if (i < count) {... */\n    tag_50:\n        /* \"contracts/test.sol\":1067:1070  i++ */\n      dup1\n      dup1\n      tag_51\n      swap1\n      tag_52\n      jump\t// in\n    tag_51:\n      swap2\n      pop\n      pop\n        /* \"contracts/test.sol\":1036:1325  for (uint16 i = 1; i <= count; i++) {... */\n      jump(tag_44)\n    tag_45:\n      pop\n        /* \"contracts/test.sol\":1354:1403  gpuCpuMemNetValue.mul(... */\n      tag_53\n        /* \"contracts/test.sol\":1389:1393  9000 */\n      0x2328\n        /* \"contracts/test.sol\":1354:1371  gpuCpuMemNetValue */\n      dup4\n        /* \"contracts/test.sol\":1354:1375  gpuCpuMemNetValue.mul */\n      tag_49\n      swap1\n        /* \"contracts/test.sol\":1354:1403  gpuCpuMemNetValue.mul(... */\n      swap2\n      swap1\n      0xffffffff\n      and\n      jump\t// in\n    tag_53:\n        /* \"contracts/test.sol\":1334:1403  gpuCpuMemNetValue = gpuCpuMemNetValue.mul(... */\n      swap2\n      pop\n        /* \"contracts/test.sol\":1424:1465  hddValue.mul(1000).mul(10000000000000000) */\n      tag_54\n        /* \"contracts/test.sol\":1447:1464  10000000000000000 */\n      0x2386f26fc10000\n        /* \"contracts/test.sol\":1424:1442  hddValue.mul(1000) */\n      tag_55\n        /* \"contracts/test.sol\":1437:1441  1000 */\n      0x03e8\n        /* \"contracts/test.sol\":1424:1432  hddValue */\n      dup5\n        /* \"contracts/test.sol\":1424:1436  hddValue.mul */\n      tag_49\n      swap1\n        /* \"contracts/test.sol\":1424:1442  hddValue.mul(1000) */\n      swap2\n      swap1\n      0xffffffff\n      and\n      jump\t// in\n    tag_55:\n        /* \"contracts/test.sol\":1424:1446  hddValue.mul(1000).mul */\n      tag_49\n      swap1\n        /* \"contracts/test.sol\":1424:1465  hddValue.mul(1000).mul(10000000000000000) */\n      swap2\n      swap1\n      0xffffffff\n      and\n      jump\t// in\n    tag_54:\n        /* \"contracts/test.sol\":1413:1465  hddValue = hddValue.mul(1000).mul(10000000000000000) */\n      swap1\n      pop\n        /* \"contracts/test.sol\":1475:1498  uint256 totalPowerValue */\n      0x00\n        /* \"contracts/test.sol\":1501:1581  gpuCpuMemNetValue.add(hddValue).div(... */\n      tag_56\n        /* \"contracts/test.sol\":1550:1571  100000000000000000000 */\n      0x056bc75e2d63100000\n        /* \"contracts/test.sol\":1501:1532  gpuCpuMemNetValue.add(hddValue) */\n      tag_57\n        /* \"contracts/test.sol\":1523:1531  hddValue */\n      dup5\n        /* \"contracts/test.sol\":1501:1518  gpuCpuMemNetValue */\n      dup7\n        /* \"contracts/test.sol\":1501:1522  gpuCpuMemNetValue.add */\n      tag_58\n      swap1\n        /* \"contracts/test.sol\":1501:1532  gpuCpuMemNetValue.add(hddValue) */\n      swap2\n      swap1\n      0xffffffff\n      and\n      jump\t// in\n    tag_57:\n        /* \"contracts/test.sol\":1501:1536  gpuCpuMemNetValue.add(hddValue).div */\n      tag_59\n      swap1\n        /* \"contracts/test.sol\":1501:1581  gpuCpuMemNetValue.add(hddValue).div(... */\n      swap2\n      swap1\n      0xffffffff\n      and\n      jump\t// in\n    tag_56:\n        /* \"contracts/test.sol\":1475:1581  uint256 totalPowerValue = gpuCpuMemNetValue.add(hddValue).div(... */\n      swap1\n      pop\n        /* \"contracts/test.sol\":1598:1613  totalPowerValue */\n      dup1\n        /* \"contracts/test.sol\":1591:1613  return totalPowerValue */\n      swap5\n      pop\n      pop\n      pop\n      pop\n      pop\n        /* \"contracts/test.sol\":872:1620  function computePowerValue() public view returns (uint256) {... */\n      swap1\n      jump\t// out\n        /* \"contracts/test.sol\":396:422  uint256 public two = 27000 */\n    tag_26:\n      sload(0x01)\n      dup2\n      jump\t// out\n        /* \"contracts/test.sol\":474:530  mapping(uint16 => uint256) public deviceComputePowerData */\n    tag_31:\n      mstore(0x20, 0x04)\n      dup1\n      0x00\n      mstore\n      keccak256(0x00, 0x40)\n      0x00\n      swap2\n      pop\n      swap1\n      pop\n      sload\n      dup2\n      jump\t// out\n        /* \"contracts/test.sol\":538:621  function condition() external view {... */\n    tag_34:\n        /* \"contracts/test.sol\":603:604  0 */\n      0x00\n        /* \"contracts/test.sol\":597:600  res */\n      sload(0x03)\n        /* \"contracts/test.sol\":591:596  three */\n      sload(0x02)\n        /* \"contracts/test.sol\":591:600  three-res */\n      tag_61\n      swap2\n      swap1\n      tag_62\n      jump\t// in\n    tag_61:\n        /* \"contracts/test.sol\":591:604  three-res > 0 */\n      gt\n        /* \"contracts/test.sol\":583:614  require(three-res > 0, \"sssss\") */\n      tag_63\n      jumpi\n      mload(0x40)\n      0x08c379a000000000000000000000000000000000000000000000000000000000\n      dup2\n      mstore\n      0x04\n      add\n      tag_64\n      swap1\n      tag_65\n      jump\t// in\n    tag_64:\n      mload(0x40)\n      dup1\n      swap2\n      sub\n      swap1\n      revert\n    tag_63:\n        /* \"contracts/test.sol\":538:621  function condition() external view {... */\n      jump\t// out\n        /* \"contracts/test.sol\":628:692  function testSub()external {... */\n    tag_36:\n        /* \"contracts/test.sol\":670:684  two.sub(27001) */\n      tag_67\n        /* \"contracts/test.sol\":678:683  27001 */\n      0x6979\n        /* \"contracts/test.sol\":670:673  two */\n      sload(0x01)\n        /* \"contracts/test.sol\":670:677  two.sub */\n      tag_68\n      swap1\n        /* \"contracts/test.sol\":670:684  two.sub(27001) */\n      swap2\n      swap1\n      0xffffffff\n      and\n      jump\t// in\n    tag_67:\n        /* \"contracts/test.sol\":664:667  two */\n      0x01\n        /* \"contracts/test.sol\":664:684  two = two.sub(27001) */\n      dup2\n      swap1\n      sstore\n      pop\n        /* \"contracts/test.sol\":628:692  function testSub()external {... */\n      jump\t// out\n        /* \"@openzeppelin/contracts/utils/cryptography/ECDSA.sol\":3661:3888  function recover(bytes32 hash, bytes memory signature) internal pure returns (address) {... */\n    tag_41:\n        /* \"@openzeppelin/contracts/utils/cryptography/ECDSA.sol\":3739:3746  address */\n      0x00\n        /* \"@openzeppelin/contracts/utils/cryptography/ECDSA.sol\":3759:3776  address recovered */\n      dup1\n        /* \"@openzeppelin/contracts/utils/cryptography/ECDSA.sol\":3778:3796  RecoverError error */\n      0x00\n        /* \"@openzeppelin/contracts/utils/cryptography/ECDSA.sol\":3800:3827  tryRecover(hash, signature) */\n      tag_70\n        /* \"@openzeppelin/contracts/utils/cryptography/ECDSA.sol\":3811:3815  hash */\n      dup6\n        /* \"@openzeppelin/contracts/utils/cryptography/ECDSA.sol\":3817:3826  signature */\n      dup6\n        /* \"@openzeppelin/contracts/utils/cryptography/ECDSA.sol\":3800:3810  tryRecover */\n      tag_71\n        /* \"@openzeppelin/contracts/utils/cryptography/ECDSA.sol\":3800:3827  tryRecover(hash, signature) */\n      jump\t// in\n    tag_70:\n        /* \"@openzeppelin/contracts/utils/cryptography/ECDSA.sol\":3758:3827  (address recovered, RecoverError error) = tryRecover(hash, signature) */\n      swap2\n      pop\n      swap2\n      pop\n        /* \"@openzeppelin/contracts/utils/cryptography/ECDSA.sol\":3837:3855  _throwError(error) */\n      tag_72\n        /* \"@openzeppelin/contracts/utils/cryptography/ECDSA.sol\":3849:3854  error */\n      dup2\n        /* \"@openzeppelin/contracts/utils/cryptography/ECDSA.sol\":3837:3848  _throwError */\n      tag_73\n        /* \"@openzeppelin/contracts/utils/cryptography/ECDSA.sol\":3837:3855  _throwError(error) */\n      jump\t// in\n    tag_72:\n        /* \"@openzeppelin/contracts/utils/cryptography/ECDSA.sol\":3872:3881  recovered */\n      dup2\n        /* \"@openzeppelin/contracts/utils/cryptography/ECDSA.sol\":3865:3881  return recovered */\n      swap3\n      pop\n      pop\n      pop\n        /* \"@openzeppelin/contracts/utils/cryptography/ECDSA.sol\":3661:3888  function recover(bytes32 hash, bytes memory signature) internal pure returns (address) {... */\n      swap3\n      swap2\n      pop\n      pop\n      jump\t// out\n        /* \"@openzeppelin/contracts/utils/math/SafeMath.sol\":3465:3561  function mul(uint256 a, uint256 b) internal pure returns (uint256) {... */\n    tag_49:\n        /* \"@openzeppelin/contracts/utils/math/SafeMath.sol\":3523:3530  uint256 */\n      0x00\n        /* \"@openzeppelin/contracts/utils/math/SafeMath.sol\":3553:3554  b */\n      dup2\n        /* \"@openzeppelin/contracts/utils/math/SafeMath.sol\":3549:3550  a */\n      dup4\n        /* \"@openzeppelin/contracts/utils/math/SafeMath.sol\":3549:3554  a * b */\n      tag_75\n      swap2\n      swap1\n      tag_76\n      jump\t// in\n    tag_75:\n        /* \"@openzeppelin/contracts/utils/math/SafeMath.sol\":3542:3554  return a * b */\n      swap1\n      pop\n        /* \"@openzeppelin/contracts/utils/math/SafeMath.sol\":3465:3561  function mul(uint256 a, uint256 b) internal pure returns (uint256) {... */\n      swap3\n      swap2\n      pop\n      pop\n      jump\t// out\n        /* \"@openzeppelin/contracts/utils/math/SafeMath.sol\":2755:2851  function add(uint256 a, uint256 b) internal pure returns (uint256) {... */\n    tag_58:\n        /* \"@openzeppelin/contracts/utils/math/SafeMath.sol\":2813:2820  uint256 */\n      0x00\n        /* \"@openzeppelin/contracts/utils/math/SafeMath.sol\":2843:2844  b */\n      dup2\n        /* \"@openzeppelin/contracts/utils/math/SafeMath.sol\":2839:2840  a */\n      dup4\n        /* \"@openzeppelin/contracts/utils/math/SafeMath.sol\":2839:2844  a + b */\n      tag_78\n      swap2\n      swap1\n      tag_79\n      jump\t// in\n    tag_78:\n        /* \"@openzeppelin/contracts/utils/math/SafeMath.sol\":2832:2844  return a + b */\n      swap1\n      pop\n        /* \"@openzeppelin/contracts/utils/math/SafeMath.sol\":2755:2851  function add(uint256 a, uint256 b) internal pure returns (uint256) {... */\n      swap3\n      swap2\n      pop\n      pop\n      jump\t// out\n        /* \"@openzeppelin/contracts/utils/math/SafeMath.sol\":3850:3946  function div(uint256 a, uint256 b) internal pure returns (uint256) {... */\n    tag_59:\n        /* \"@openzeppelin/contracts/utils/math/SafeMath.sol\":3908:3915  uint256 */\n      0x00\n        /* \"@openzeppelin/contracts/utils/math/SafeMath.sol\":3938:3939  b */\n      dup2\n        /* \"@openzeppelin/contracts/utils/math/SafeMath.sol\":3934:3935  a */\n      dup4\n        /* \"@openzeppelin/contracts/utils/math/SafeMath.sol\":3934:3939  a / b */\n      tag_81\n      swap2\n      swap1\n      tag_82\n      jump\t// in\n    tag_81:\n        /* \"@openzeppelin/contracts/utils/math/SafeMath.sol\":3927:3939  return a / b */\n      swap1\n      pop\n        /* \"@openzeppelin/contracts/utils/math/SafeMath.sol\":3850:3946  function div(uint256 a, uint256 b) internal pure returns (uint256) {... */\n      swap3\n      swap2\n      pop\n      pop\n      jump\t// out\n        /* \"@openzeppelin/contracts/utils/math/SafeMath.sol\":3122:3218  function sub(uint256 a, uint256 b) internal pure returns (uint256) {... */\n    tag_68:\n        /* \"@openzeppelin/contracts/utils/math/SafeMath.sol\":3180:3187  uint256 */\n      0x00\n        /* \"@openzeppelin/contracts/utils/math/SafeMath.sol\":3210:3211  b */\n      dup2\n        /* \"@openzeppelin/contracts/utils/math/SafeMath.sol\":3206:3207  a */\n      dup4\n        /* \"@openzeppelin/contracts/utils/math/SafeMath.sol\":3206:3211  a - b */\n      tag_84\n      swap2\n      swap1\n      tag_62\n      jump\t// in\n    tag_84:\n        /* \"@openzeppelin/contracts/utils/math/SafeMath.sol\":3199:3211  return a - b */\n      swap1\n      pop\n        /* \"@openzeppelin/contracts/utils/math/SafeMath.sol\":3122:3218  function sub(uint256 a, uint256 b) internal pure returns (uint256) {... */\n      swap3\n      swap2\n      pop\n      pop\n      jump\t// out\n        /* \"@openzeppelin/contracts/utils/cryptography/ECDSA.sol\":2145:2875  function tryRecover(bytes32 hash, bytes memory signature) internal pure returns (address, RecoverError) {... */\n    tag_71:\n        /* \"@openzeppelin/contracts/utils/cryptography/ECDSA.sol\":2226:2233  address */\n      0x00\n        /* \"@openzeppelin/contracts/utils/cryptography/ECDSA.sol\":2235:2247  RecoverError */\n      dup1\n        /* \"@openzeppelin/contracts/utils/cryptography/ECDSA.sol\":2283:2285  65 */\n      0x41\n        /* \"@openzeppelin/contracts/utils/cryptography/ECDSA.sol\":2263:2272  signature */\n      dup4\n        /* \"@openzeppelin/contracts/utils/cryptography/ECDSA.sol\":2263:2279  signature.length */\n      mload\n        /* \"@openzeppelin/contracts/utils/cryptography/ECDSA.sol\":2263:2285  signature.length == 65 */\n      sub\n        /* \"@openzeppelin/contracts/utils/cryptography/ECDSA.sol\":2259:2869  if (signature.length == 65) {... */\n      tag_86\n      jumpi\n        /* \"@openzeppelin/contracts/utils/cryptography/ECDSA.sol\":2301:2310  bytes32 r */\n      0x00\n        /* \"@openzeppelin/contracts/utils/cryptography/ECDSA.sol\":2324:2333  bytes32 s */\n      dup1\n        /* \"@openzeppelin/contracts/utils/cryptography/ECDSA.sol\":2347:2354  uint8 v */\n      0x00\n        /* \"@openzeppelin/contracts/utils/cryptography/ECDSA.sol\":2599:2603  0x20 */\n      0x20\n        /* \"@openzeppelin/contracts/utils/cryptography/ECDSA.sol\":2588:2597  signature */\n      dup7\n        /* \"@openzeppelin/contracts/utils/cryptography/ECDSA.sol\":2584:2604  add(signature, 0x20) */\n      add\n        /* \"@openzeppelin/contracts/utils/cryptography/ECDSA.sol\":2578:2605  mload(add(signature, 0x20)) */\n      mload\n        /* \"@openzeppelin/contracts/utils/cryptography/ECDSA.sol\":2573:2605  r := mload(add(signature, 0x20)) */\n      swap3\n      pop\n        /* \"@openzeppelin/contracts/utils/cryptography/ECDSA.sol\":2648:2652  0x40 */\n      0x40\n        /* \"@openzeppelin/contracts/utils/cryptography/ECDSA.sol\":2637:2646  signature */\n      dup7\n        /* \"@openzeppelin/contracts/utils/cryptography/ECDSA.sol\":2633:2653  add(signature, 0x40) */\n      add\n        /* \"@openzeppelin/contracts/utils/cryptography/ECDSA.sol\":2627:2654  mload(add(signature, 0x40)) */\n      mload\n        /* \"@openzeppelin/contracts/utils/cryptography/ECDSA.sol\":2622:2654  s := mload(add(signature, 0x40)) */\n      swap2\n      pop\n        /* \"@openzeppelin/contracts/utils/cryptography/ECDSA.sol\":2705:2709  0x60 */\n      0x60\n        /* \"@openzeppelin/contracts/utils/cryptography/ECDSA.sol\":2694:2703  signature */\n      dup7\n        /* \"@openzeppelin/contracts/utils/cryptography/ECDSA.sol\":2690:2710  add(signature, 0x60) */\n      add\n        /* \"@openzeppelin/contracts/utils/cryptography/ECDSA.sol\":2684:2711  mload(add(signature, 0x60)) */\n      mload\n        /* \"@openzeppelin/contracts/utils/cryptography/ECDSA.sol\":2681:2682  0 */\n      0x00\n        /* \"@openzeppelin/contracts/utils/cryptography/ECDSA.sol\":2676:2712  byte(0, mload(add(signature, 0x60))) */\n      byte\n        /* \"@openzeppelin/contracts/utils/cryptography/ECDSA.sol\":2671:2712  v := byte(0, mload(add(signature, 0x60))) */\n      swap1\n      pop\n        /* \"@openzeppelin/contracts/utils/cryptography/ECDSA.sol\":2746:2771  tryRecover(hash, v, r, s) */\n      tag_87\n        /* \"@openzeppelin/contracts/utils/cryptography/ECDSA.sol\":2757:2761  hash */\n      dup8\n        /* \"@openzeppelin/contracts/utils/cryptography/ECDSA.sol\":2763:2764  v */\n      dup3\n        /* \"@openzeppelin/contracts/utils/cryptography/ECDSA.sol\":2766:2767  r */\n      dup6\n        /* \"@openzeppelin/contracts/utils/cryptography/ECDSA.sol\":2769:2770  s */\n      dup6\n        /* \"@openzeppelin/contracts/utils/cryptography/ECDSA.sol\":2746:2756  tryRecover */\n      tag_88\n        /* \"@openzeppelin/contracts/utils/cryptography/ECDSA.sol\":2746:2771  tryRecover(hash, v, r, s) */\n      jump\t// in\n    tag_87:\n        /* \"@openzeppelin/contracts/utils/cryptography/ECDSA.sol\":2739:2771  return tryRecover(hash, v, r, s) */\n      swap5\n      pop\n      swap5\n      pop\n      pop\n      pop\n      pop\n      jump(tag_85)\n        /* \"@openzeppelin/contracts/utils/cryptography/ECDSA.sol\":2259:2869  if (signature.length == 65) {... */\n    tag_86:\n        /* \"@openzeppelin/contracts/utils/cryptography/ECDSA.sol\":2818:2819  0 */\n      0x00\n        /* \"@openzeppelin/contracts/utils/cryptography/ECDSA.sol\":2822:2857  RecoverError.InvalidSignatureLength */\n      0x02\n        /* \"@openzeppelin/contracts/utils/cryptography/ECDSA.sol\":2802:2858  return (address(0), RecoverError.InvalidSignatureLength) */\n      swap2\n      pop\n      swap2\n      pop\n        /* \"@openzeppelin/contracts/utils/cryptography/ECDSA.sol\":2145:2875  function tryRecover(bytes32 hash, bytes memory signature) internal pure returns (address, RecoverError) {... */\n    tag_85:\n      swap3\n      pop\n      swap3\n      swap1\n      pop\n      jump\t// out\n        /* \"@openzeppelin/contracts/utils/cryptography/ECDSA.sol\":570:1081  function _throwError(RecoverError error) private pure {... */\n    tag_73:\n        /* \"@openzeppelin/contracts/utils/cryptography/ECDSA.sol\":647:667  RecoverError.NoError */\n      0x00\n        /* \"@openzeppelin/contracts/utils/cryptography/ECDSA.sol\":638:667  error == RecoverError.NoError */\n      0x04\n      dup2\n      gt\n      iszero\n      tag_91\n      jumpi\n      tag_92\n      tag_93\n      jump\t// in\n    tag_92:\n    tag_91:\n        /* \"@openzeppelin/contracts/utils/cryptography/ECDSA.sol\":638:643  error */\n      dup2\n        /* \"@openzeppelin/contracts/utils/cryptography/ECDSA.sol\":638:667  error == RecoverError.NoError */\n      0x04\n      dup2\n      gt\n      iszero\n      tag_94\n      jumpi\n      tag_95\n      tag_93\n      jump\t// in\n    tag_95:\n    tag_94:\n      sub\n        /* \"@openzeppelin/contracts/utils/cryptography/ECDSA.sol\":634:1075  if (error == RecoverError.NoError) {... */\n      iszero\n        /* \"@openzeppelin/contracts/utils/cryptography/ECDSA.sol\":683:690  return; */\n      tag_90\n        /* \"@openzeppelin/contracts/utils/cryptography/ECDSA.sol\":634:1075  if (error == RecoverError.NoError) {... */\n      jumpi\n        /* \"@openzeppelin/contracts/utils/cryptography/ECDSA.sol\":743:772  RecoverError.InvalidSignature */\n      0x01\n        /* \"@openzeppelin/contracts/utils/cryptography/ECDSA.sol\":734:772  error == RecoverError.InvalidSignature */\n      0x04\n      dup2\n      gt\n      iszero\n      tag_98\n      jumpi\n      tag_99\n      tag_93\n      jump\t// in\n    tag_99:\n    tag_98:\n        /* \"@openzeppelin/contracts/utils/cryptography/ECDSA.sol\":734:739  error */\n      dup2\n        /* \"@openzeppelin/contracts/utils/cryptography/ECDSA.sol\":734:772  error == RecoverError.InvalidSignature */\n      0x04\n      dup2\n      gt\n      iszero\n      tag_100\n      jumpi\n      tag_101\n      tag_93\n      jump\t// in\n    tag_101:\n    tag_100:\n      sub\n        /* \"@openzeppelin/contracts/utils/cryptography/ECDSA.sol\":730:1075  if (error == RecoverError.InvalidSignature) {... */\n      tag_102\n      jumpi\n        /* \"@openzeppelin/contracts/utils/cryptography/ECDSA.sol\":788:822  revert(\"ECDSA: invalid signature\") */\n      mload(0x40)\n      0x08c379a000000000000000000000000000000000000000000000000000000000\n      dup2\n      mstore\n      0x04\n      add\n      tag_103\n      swap1\n      tag_104\n      jump\t// in\n    tag_103:\n      mload(0x40)\n      dup1\n      swap2\n      sub\n      swap1\n      revert\n        /* \"@openzeppelin/contracts/utils/cryptography/ECDSA.sol\":730:1075  if (error == RecoverError.InvalidSignature) {... */\n    tag_102:\n        /* \"@openzeppelin/contracts/utils/cryptography/ECDSA.sol\":852:887  RecoverError.InvalidSignatureLength */\n      0x02\n        /* \"@openzeppelin/contracts/utils/cryptography/ECDSA.sol\":843:887  error == RecoverError.InvalidSignatureLength */\n      0x04\n      dup2\n      gt\n      iszero\n      tag_106\n      jumpi\n      tag_107\n      tag_93\n      jump\t// in\n    tag_107:\n    tag_106:\n        /* \"@openzeppelin/contracts/utils/cryptography/ECDSA.sol\":843:848  error */\n      dup2\n        /* \"@openzeppelin/contracts/utils/cryptography/ECDSA.sol\":843:887  error == RecoverError.InvalidSignatureLength */\n      0x04\n      dup2\n      gt\n      iszero\n      tag_108\n      jumpi\n      tag_109\n      tag_93\n      jump\t// in\n    tag_109:\n    tag_108:\n      sub\n        /* \"@openzeppelin/contracts/utils/cryptography/ECDSA.sol\":839:1075  if (error == RecoverError.InvalidSignatureLength) {... */\n      tag_110\n      jumpi\n        /* \"@openzeppelin/contracts/utils/cryptography/ECDSA.sol\":903:944  revert(\"ECDSA: invalid signature length\") */\n      mload(0x40)\n      0x08c379a000000000000000000000000000000000000000000000000000000000\n      dup2\n      mstore\n      0x04\n      add\n      tag_111\n      swap1\n      tag_112\n      jump\t// in\n    tag_111:\n      mload(0x40)\n      dup1\n      swap2\n      sub\n      swap1\n      revert\n        /* \"@openzeppelin/contracts/utils/cryptography/ECDSA.sol\":839:1075  if (error == RecoverError.InvalidSignatureLength) {... */\n    tag_110:\n        /* \"@openzeppelin/contracts/utils/cryptography/ECDSA.sol\":974:1004  RecoverError.InvalidSignatureS */\n      0x03\n        /* \"@openzeppelin/contracts/utils/cryptography/ECDSA.sol\":965:1004  error == RecoverError.InvalidSignatureS */\n      0x04\n      dup2\n      gt\n      iszero\n      tag_114\n      jumpi\n      tag_115\n      tag_93\n      jump\t// in\n    tag_115:\n    tag_114:\n        /* \"@openzeppelin/contracts/utils/cryptography/ECDSA.sol\":965:970  error */\n      dup2\n        /* \"@openzeppelin/contracts/utils/cryptography/ECDSA.sol\":965:1004  error == RecoverError.InvalidSignatureS */\n      0x04\n      dup2\n      gt\n      iszero\n      tag_116\n      jumpi\n      tag_117\n      tag_93\n      jump\t// in\n    tag_117:\n    tag_116:\n      sub\n        /* \"@openzeppelin/contracts/utils/cryptography/ECDSA.sol\":961:1075  if (error == RecoverError.InvalidSignatureS) {... */\n      tag_118\n      jumpi\n        /* \"@openzeppelin/contracts/utils/cryptography/ECDSA.sol\":1020:1064  revert(\"ECDSA: invalid signature 's' value\") */\n      mload(0x40)\n      0x08c379a000000000000000000000000000000000000000000000000000000000\n      dup2\n      mstore\n      0x04\n      add\n      tag_119\n      swap1\n      tag_120\n      jump\t// in\n    tag_119:\n      mload(0x40)\n      dup1\n      swap2\n      sub\n      swap1\n      revert\n        /* \"@openzeppelin/contracts/utils/cryptography/ECDSA.sol\":961:1075  if (error == RecoverError.InvalidSignatureS) {... */\n    tag_118:\n        /* \"@openzeppelin/contracts/utils/cryptography/ECDSA.sol\":570:1081  function _throwError(RecoverError error) private pure {... */\n    tag_90:\n      pop\n      jump\t// out\n        /* \"@openzeppelin/contracts/utils/cryptography/ECDSA.sol\":5009:6465  function tryRecover(bytes32 hash, uint8 v, bytes32 r, bytes32 s) internal pure returns (address, RecoverError) {... */\n    tag_88:\n        /* \"@openzeppelin/contracts/utils/cryptography/ECDSA.sol\":5097:5104  address */\n      0x00\n        /* \"@openzeppelin/contracts/utils/cryptography/ECDSA.sol\":5106:5118  RecoverError */\n      dup1\n        /* \"@openzeppelin/contracts/utils/cryptography/ECDSA.sol\":6021:6087  0x7FFFFFFFFFFFFFFFFFFFFFFFFFFFFFFF5D576E7357A4501DDFE92F46681B20A0 */\n      0x7fffffffffffffffffffffffffffffff5d576e7357a4501ddfe92f46681b20a0\n        /* \"@openzeppelin/contracts/utils/cryptography/ECDSA.sol\":6016:6017  s */\n      dup4\n        /* \"@openzeppelin/contracts/utils/cryptography/ECDSA.sol\":6008:6018  uint256(s) */\n      0x00\n      shr\n        /* \"@openzeppelin/contracts/utils/cryptography/ECDSA.sol\":6008:6087  uint256(s) > 0x7FFFFFFFFFFFFFFFFFFFFFFFFFFFFFFF5D576E7357A4501DDFE92F46681B20A0 */\n      gt\n        /* \"@openzeppelin/contracts/utils/cryptography/ECDSA.sol\":6004:6165  if (uint256(s) > 0x7FFFFFFFFFFFFFFFFFFFFFFFFFFFFFFF5D576E7357A4501DDFE92F46681B20A0) {... */\n      iszero\n      tag_122\n      jumpi\n        /* \"@openzeppelin/contracts/utils/cryptography/ECDSA.sol\":6119:6120  0 */\n      0x00\n        /* \"@openzeppelin/contracts/utils/cryptography/ECDSA.sol\":6123:6153  RecoverError.InvalidSignatureS */\n      0x03\n        /* \"@openzeppelin/contracts/utils/cryptography/ECDSA.sol\":6103:6154  return (address(0), RecoverError.InvalidSignatureS) */\n      swap2\n      pop\n      swap2\n      pop\n      jump(tag_121)\n        /* \"@openzeppelin/contracts/utils/cryptography/ECDSA.sol\":6004:6165  if (uint256(s) > 0x7FFFFFFFFFFFFFFFFFFFFFFFFFFFFFFF5D576E7357A4501DDFE92F46681B20A0) {... */\n    tag_122:\n        /* \"@openzeppelin/contracts/utils/cryptography/ECDSA.sol\":6259:6273  address signer */\n      0x00\n        /* \"@openzeppelin/contracts/utils/cryptography/ECDSA.sol\":6276:6300  ecrecover(hash, v, r, s) */\n      0x01\n        /* \"@openzeppelin/contracts/utils/cryptography/ECDSA.sol\":6286:6290  hash */\n      dup8\n        /* \"@openzeppelin/contracts/utils/cryptography/ECDSA.sol\":6292:6293  v */\n      dup8\n        /* \"@openzeppelin/contracts/utils/cryptography/ECDSA.sol\":6295:6296  r */\n      dup8\n        /* \"@openzeppelin/contracts/utils/cryptography/ECDSA.sol\":6298:6299  s */\n      dup8\n        /* \"@openzeppelin/contracts/utils/cryptography/ECDSA.sol\":6276:6300  ecrecover(hash, v, r, s) */\n      mload(0x40)\n      0x00\n      dup2\n      mstore\n      0x20\n      add\n      0x40\n      mstore\n      mload(0x40)\n      tag_123\n      swap5\n      swap4\n      swap3\n      swap2\n      swap1\n      tag_124\n      jump\t// in\n    tag_123:\n      0x20\n      mload(0x40)\n      0x20\n      dup2\n      sub\n      swap1\n      dup1\n      dup5\n      sub\n      swap1\n      dup6\n      gas\n      staticcall\n      iszero\n      dup1\n      iszero\n      tag_126\n      jumpi\n      returndatasize\n      0x00\n      dup1\n      returndatacopy\n      revert(0x00, returndatasize)\n    tag_126:\n      pop\n      pop\n      pop\n      mload(sub(mload(0x40), 0x20))\n        /* \"@openzeppelin/contracts/utils/cryptography/ECDSA.sol\":6259:6300  address signer = ecrecover(hash, v, r, s) */\n      swap1\n      pop\n        /* \"@openzeppelin/contracts/utils/cryptography/ECDSA.sol\":6332:6333  0 */\n      0x00\n        /* \"@openzeppelin/contracts/utils/cryptography/ECDSA.sol\":6314:6334  signer == address(0) */\n      0xffffffffffffffffffffffffffffffffffffffff\n      and\n        /* \"@openzeppelin/contracts/utils/cryptography/ECDSA.sol\":6314:6320  signer */\n      dup2\n        /* \"@openzeppelin/contracts/utils/cryptography/ECDSA.sol\":6314:6334  signer == address(0) */\n      0xffffffffffffffffffffffffffffffffffffffff\n      and\n      sub\n        /* \"@openzeppelin/contracts/utils/cryptography/ECDSA.sol\":6310:6411  if (signer == address(0)) {... */\n      tag_127\n      jumpi\n        /* \"@openzeppelin/contracts/utils/cryptography/ECDSA.sol\":6366:6367  0 */\n      0x00\n        /* \"@openzeppelin/contracts/utils/cryptography/ECDSA.sol\":6370:6399  RecoverError.InvalidSignature */\n      0x01\n        /* \"@openzeppelin/contracts/utils/cryptography/ECDSA.sol\":6350:6400  return (address(0), RecoverError.InvalidSignature) */\n      swap3\n      pop\n      swap3\n      pop\n      pop\n      jump(tag_121)\n        /* \"@openzeppelin/contracts/utils/cryptography/ECDSA.sol\":6310:6411  if (signer == address(0)) {... */\n    tag_127:\n        /* \"@openzeppelin/contracts/utils/cryptography/ECDSA.sol\":6429:6435  signer */\n      dup1\n        /* \"@openzeppelin/contracts/utils/cryptography/ECDSA.sol\":6437:6457  RecoverError.NoError */\n      0x00\n        /* \"@openzeppelin/contracts/utils/cryptography/ECDSA.sol\":6421:6458  return (signer, RecoverError.NoError) */\n      swap3\n      pop\n      swap3\n      pop\n      pop\n        /* \"@openzeppelin/contracts/utils/cryptography/ECDSA.sol\":5009:6465  function tryRecover(bytes32 hash, uint8 v, bytes32 r, bytes32 s) internal pure returns (address, RecoverError) {... */\n    tag_121:\n      swap5\n      pop\n      swap5\n      swap3\n      pop\n      pop\n      pop\n      jump\t// out\n        /* \"#utility.yul\":7:82   */\n    tag_128:\n        /* \"#utility.yul\":40:46   */\n      0x00\n        /* \"#utility.yul\":73:75   */\n      0x40\n        /* \"#utility.yul\":67:76   */\n      mload\n        /* \"#utility.yul\":57:76   */\n      swap1\n      pop\n        /* \"#utility.yul\":7:82   */\n      swap1\n      jump\t// out\n        /* \"#utility.yul\":88:205   */\n    tag_129:\n        /* \"#utility.yul\":197:198   */\n      0x00\n        /* \"#utility.yul\":194:195   */\n      dup1\n        /* \"#utility.yul\":187:199   */\n      revert\n        /* \"#utility.yul\":211:328   */\n    tag_130:\n        /* \"#utility.yul\":320:321   */\n      0x00\n        /* \"#utility.yul\":317:318   */\n      dup1\n        /* \"#utility.yul\":310:322   */\n      revert\n        /* \"#utility.yul\":334:460   */\n    tag_131:\n        /* \"#utility.yul\":371:378   */\n      0x00\n        /* \"#utility.yul\":411:453   */\n      0xffffffffffffffffffffffffffffffffffffffff\n        /* \"#utility.yul\":404:409   */\n      dup3\n        /* \"#utility.yul\":400:454   */\n      and\n        /* \"#utility.yul\":389:454   */\n      swap1\n      pop\n        /* \"#utility.yul\":334:460   */\n      swap2\n      swap1\n      pop\n      jump\t// out\n        /* \"#utility.yul\":466:562   */\n    tag_132:\n        /* \"#utility.yul\":503:510   */\n      0x00\n        /* \"#utility.yul\":532:556   */\n      tag_188\n        /* \"#utility.yul\":550:555   */\n      dup3\n        /* \"#utility.yul\":532:556   */\n      tag_131\n      jump\t// in\n    tag_188:\n        /* \"#utility.yul\":521:556   */\n      swap1\n      pop\n        /* \"#utility.yul\":466:562   */\n      swap2\n      swap1\n      pop\n      jump\t// out\n        /* \"#utility.yul\":568:690   */\n    tag_133:\n        /* \"#utility.yul\":641:665   */\n      tag_190\n        /* \"#utility.yul\":659:664   */\n      dup2\n        /* \"#utility.yul\":641:665   */\n      tag_132\n      jump\t// in\n    tag_190:\n        /* \"#utility.yul\":634:639   */\n      dup2\n        /* \"#utility.yul\":631:666   */\n      eq\n        /* \"#utility.yul\":621:684   */\n      tag_191\n      jumpi\n        /* \"#utility.yul\":680:681   */\n      0x00\n        /* \"#utility.yul\":677:678   */\n      dup1\n        /* \"#utility.yul\":670:682   */\n      revert\n        /* \"#utility.yul\":621:684   */\n    tag_191:\n        /* \"#utility.yul\":568:690   */\n      pop\n      jump\t// out\n        /* \"#utility.yul\":696:835   */\n    tag_134:\n        /* \"#utility.yul\":742:747   */\n      0x00\n        /* \"#utility.yul\":780:786   */\n      dup2\n        /* \"#utility.yul\":767:787   */\n      calldataload\n        /* \"#utility.yul\":758:787   */\n      swap1\n      pop\n        /* \"#utility.yul\":796:829   */\n      tag_193\n        /* \"#utility.yul\":823:828   */\n      dup2\n        /* \"#utility.yul\":796:829   */\n      tag_133\n      jump\t// in\n    tag_193:\n        /* \"#utility.yul\":696:835   */\n      swap3\n      swap2\n      pop\n      pop\n      jump\t// out\n        /* \"#utility.yul\":841:918   */\n    tag_135:\n        /* \"#utility.yul\":878:885   */\n      0x00\n        /* \"#utility.yul\":907:912   */\n      dup2\n        /* \"#utility.yul\":896:912   */\n      swap1\n      pop\n        /* \"#utility.yul\":841:918   */\n      swap2\n      swap1\n      pop\n      jump\t// out\n        /* \"#utility.yul\":924:1046   */\n    tag_136:\n        /* \"#utility.yul\":997:1021   */\n      tag_196\n        /* \"#utility.yul\":1015:1020   */\n      dup2\n        /* \"#utility.yul\":997:1021   */\n      tag_135\n      jump\t// in\n    tag_196:\n        /* \"#utility.yul\":990:995   */\n      dup2\n        /* \"#utility.yul\":987:1022   */\n      eq\n        /* \"#utility.yul\":977:1040   */\n      tag_197\n      jumpi\n        /* \"#utility.yul\":1036:1037   */\n      0x00\n        /* \"#utility.yul\":1033:1034   */\n      dup1\n        /* \"#utility.yul\":1026:1038   */\n      revert\n        /* \"#utility.yul\":977:1040   */\n    tag_197:\n        /* \"#utility.yul\":924:1046   */\n      pop\n      jump\t// out\n        /* \"#utility.yul\":1052:1191   */\n    tag_137:\n        /* \"#utility.yul\":1098:1103   */\n      0x00\n        /* \"#utility.yul\":1136:1142   */\n      dup2\n        /* \"#utility.yul\":1123:1143   */\n      calldataload\n        /* \"#utility.yul\":1114:1143   */\n      swap1\n      pop\n        /* \"#utility.yul\":1152:1185   */\n      tag_199\n        /* \"#utility.yul\":1179:1184   */\n      dup2\n        /* \"#utility.yul\":1152:1185   */\n      tag_136\n      jump\t// in\n    tag_199:\n        /* \"#utility.yul\":1052:1191   */\n      swap3\n      swap2\n      pop\n      pop\n      jump\t// out\n        /* \"#utility.yul\":1197:1314   */\n    tag_138:\n        /* \"#utility.yul\":1306:1307   */\n      0x00\n        /* \"#utility.yul\":1303:1304   */\n      dup1\n        /* \"#utility.yul\":1296:1308   */\n      revert\n        /* \"#utility.yul\":1320:1437   */\n    tag_139:\n        /* \"#utility.yul\":1429:1430   */\n      0x00\n        /* \"#utility.yul\":1426:1427   */\n      dup1\n        /* \"#utility.yul\":1419:1431   */\n      revert\n        /* \"#utility.yul\":1443:1545   */\n    tag_140:\n        /* \"#utility.yul\":1484:1490   */\n      0x00\n        /* \"#utility.yul\":1535:1537   */\n      0x1f\n        /* \"#utility.yul\":1531:1538   */\n      not\n        /* \"#utility.yul\":1526:1528   */\n      0x1f\n        /* \"#utility.yul\":1519:1524   */\n      dup4\n        /* \"#utility.yul\":1515:1529   */\n      add\n        /* \"#utility.yul\":1511:1539   */\n      and\n        /* \"#utility.yul\":1501:1539   */\n      swap1\n      pop\n        /* \"#utility.yul\":1443:1545   */\n      swap2\n      swap1\n      pop\n      jump\t// out\n        /* \"#utility.yul\":1551:1731   */\n    tag_141:\n        /* \"#utility.yul\":1599:1676   */\n      0x4e487b7100000000000000000000000000000000000000000000000000000000\n        /* \"#utility.yul\":1596:1597   */\n      0x00\n        /* \"#utility.yul\":1589:1677   */\n      mstore\n        /* \"#utility.yul\":1696:1700   */\n      0x41\n        /* \"#utility.yul\":1693:1694   */\n      0x04\n        /* \"#utility.yul\":1686:1701   */\n      mstore\n        /* \"#utility.yul\":1720:1724   */\n      0x24\n        /* \"#utility.yul\":1717:1718   */\n      0x00\n        /* \"#utility.yul\":1710:1725   */\n      revert\n        /* \"#utility.yul\":1737:2018   */\n    tag_142:\n        /* \"#utility.yul\":1820:1847   */\n      tag_205\n        /* \"#utility.yul\":1842:1846   */\n      dup3\n        /* \"#utility.yul\":1820:1847   */\n      tag_140\n      jump\t// in\n    tag_205:\n        /* \"#utility.yul\":1812:1818   */\n      dup2\n        /* \"#utility.yul\":1808:1848   */\n      add\n        /* \"#utility.yul\":1950:1956   */\n      dup2\n        /* \"#utility.yul\":1938:1948   */\n      dup2\n        /* \"#utility.yul\":1935:1957   */\n      lt\n        /* \"#utility.yul\":1914:1932   */\n      0xffffffffffffffff\n        /* \"#utility.yul\":1902:1912   */\n      dup3\n        /* \"#utility.yul\":1899:1933   */\n      gt\n        /* \"#utility.yul\":1896:1958   */\n      or\n        /* \"#utility.yul\":1893:1981   */\n      iszero\n      tag_206\n      jumpi\n        /* \"#utility.yul\":1961:1979   */\n      tag_207\n      tag_141\n      jump\t// in\n    tag_207:\n        /* \"#utility.yul\":1893:1981   */\n    tag_206:\n        /* \"#utility.yul\":2001:2011   */\n      dup1\n        /* \"#utility.yul\":1997:1999   */\n      0x40\n        /* \"#utility.yul\":1990:2012   */\n      mstore\n        /* \"#utility.yul\":1780:2018   */\n      pop\n        /* \"#utility.yul\":1737:2018   */\n      pop\n      pop\n      jump\t// out\n        /* \"#utility.yul\":2024:2153   */\n    tag_143:\n        /* \"#utility.yul\":2058:2064   */\n      0x00\n        /* \"#utility.yul\":2085:2105   */\n      tag_209\n      tag_128\n      jump\t// in\n    tag_209:\n        /* \"#utility.yul\":2075:2105   */\n      swap1\n      pop\n        /* \"#utility.yul\":2114:2147   */\n      tag_210\n        /* \"#utility.yul\":2142:2146   */\n      dup3\n        /* \"#utility.yul\":2134:2140   */\n      dup3\n        /* \"#utility.yul\":2114:2147   */\n      tag_142\n      jump\t// in\n    tag_210:\n        /* \"#utility.yul\":2024:2153   */\n      swap2\n      swap1\n      pop\n      jump\t// out\n        /* \"#utility.yul\":2159:2467   */\n    tag_144:\n        /* \"#utility.yul\":2221:2225   */\n      0x00\n        /* \"#utility.yul\":2311:2329   */\n      0xffffffffffffffff\n        /* \"#utility.yul\":2303:2309   */\n      dup3\n        /* \"#utility.yul\":2300:2330   */\n      gt\n        /* \"#utility.yul\":2297:2353   */\n      iszero\n      tag_212\n      jumpi\n        /* \"#utility.yul\":2333:2351   */\n      tag_213\n      tag_141\n      jump\t// in\n    tag_213:\n        /* \"#utility.yul\":2297:2353   */\n    tag_212:\n        /* \"#utility.yul\":2371:2400   */\n      tag_214\n        /* \"#utility.yul\":2393:2399   */\n      dup3\n        /* \"#utility.yul\":2371:2400   */\n      tag_140\n      jump\t// in\n    tag_214:\n        /* \"#utility.yul\":2363:2400   */\n      swap1\n      pop\n        /* \"#utility.yul\":2455:2459   */\n      0x20\n        /* \"#utility.yul\":2449:2453   */\n      dup2\n        /* \"#utility.yul\":2445:2460   */\n      add\n        /* \"#utility.yul\":2437:2460   */\n      swap1\n      pop\n        /* \"#utility.yul\":2159:2467   */\n      swap2\n      swap1\n      pop\n      jump\t// out\n        /* \"#utility.yul\":2473:2619   */\n    tag_145:\n        /* \"#utility.yul\":2570:2576   */\n      dup3\n        /* \"#utility.yul\":2565:2568   */\n      dup2\n        /* \"#utility.yul\":2560:2563   */\n      dup4\n        /* \"#utility.yul\":2547:2577   */\n      calldatacopy\n        /* \"#utility.yul\":2611:2612   */\n      0x00\n        /* \"#utility.yul\":2602:2608   */\n      dup4\n        /* \"#utility.yul\":2597:2600   */\n      dup4\n        /* \"#utility.yul\":2593:2609   */\n      add\n        /* \"#utility.yul\":2586:2613   */\n      mstore\n        /* \"#utility.yul\":2473:2619   */\n      pop\n      pop\n      pop\n      jump\t// out\n        /* \"#utility.yul\":2625:3050   */\n    tag_146:\n        /* \"#utility.yul\":2703:2708   */\n      0x00\n        /* \"#utility.yul\":2728:2794   */\n      tag_217\n        /* \"#utility.yul\":2744:2793   */\n      tag_218\n        /* \"#utility.yul\":2786:2792   */\n      dup5\n        /* \"#utility.yul\":2744:2793   */\n      tag_144\n      jump\t// in\n    tag_218:\n        /* \"#utility.yul\":2728:2794   */\n      tag_143\n      jump\t// in\n    tag_217:\n        /* \"#utility.yul\":2719:2794   */\n      swap1\n      pop\n        /* \"#utility.yul\":2817:2823   */\n      dup3\n        /* \"#utility.yul\":2810:2815   */\n      dup2\n        /* \"#utility.yul\":2803:2824   */\n      mstore\n        /* \"#utility.yul\":2855:2859   */\n      0x20\n        /* \"#utility.yul\":2848:2853   */\n      dup2\n        /* \"#utility.yul\":2844:2860   */\n      add\n        /* \"#utility.yul\":2893:2896   */\n      dup5\n        /* \"#utility.yul\":2884:2890   */\n      dup5\n        /* \"#utility.yul\":2879:2882   */\n      dup5\n        /* \"#utility.yul\":2875:2891   */\n      add\n        /* \"#utility.yul\":2872:2897   */\n      gt\n        /* \"#utility.yul\":2869:2981   */\n      iszero\n      tag_219\n      jumpi\n        /* \"#utility.yul\":2900:2979   */\n      tag_220\n      tag_139\n      jump\t// in\n    tag_220:\n        /* \"#utility.yul\":2869:2981   */\n    tag_219:\n        /* \"#utility.yul\":2990:3044   */\n      tag_221\n        /* \"#utility.yul\":3037:3043   */\n      dup5\n        /* \"#utility.yul\":3032:3035   */\n      dup3\n        /* \"#utility.yul\":3027:3030   */\n      dup6\n        /* \"#utility.yul\":2990:3044   */\n      tag_145\n      jump\t// in\n    tag_221:\n        /* \"#utility.yul\":2709:3050   */\n      pop\n        /* \"#utility.yul\":2625:3050   */\n      swap4\n      swap3\n      pop\n      pop\n      pop\n      jump\t// out\n        /* \"#utility.yul\":3070:3410   */\n    tag_147:\n        /* \"#utility.yul\":3126:3131   */\n      0x00\n        /* \"#utility.yul\":3175:3178   */\n      dup3\n        /* \"#utility.yul\":3168:3172   */\n      0x1f\n        /* \"#utility.yul\":3160:3166   */\n      dup4\n        /* \"#utility.yul\":3156:3173   */\n      add\n        /* \"#utility.yul\":3152:3179   */\n      slt\n        /* \"#utility.yul\":3142:3264   */\n      tag_223\n      jumpi\n        /* \"#utility.yul\":3183:3262   */\n      tag_224\n      tag_138\n      jump\t// in\n    tag_224:\n        /* \"#utility.yul\":3142:3264   */\n    tag_223:\n        /* \"#utility.yul\":3300:3306   */\n      dup2\n        /* \"#utility.yul\":3287:3307   */\n      calldataload\n        /* \"#utility.yul\":3325:3404   */\n      tag_225\n        /* \"#utility.yul\":3400:3403   */\n      dup5\n        /* \"#utility.yul\":3392:3398   */\n      dup3\n        /* \"#utility.yul\":3385:3389   */\n      0x20\n        /* \"#utility.yul\":3377:3383   */\n      dup7\n        /* \"#utility.yul\":3373:3390   */\n      add\n        /* \"#utility.yul\":3325:3404   */\n      tag_146\n      jump\t// in\n    tag_225:\n        /* \"#utility.yul\":3316:3404   */\n      swap2\n      pop\n        /* \"#utility.yul\":3132:3410   */\n      pop\n        /* \"#utility.yul\":3070:3410   */\n      swap3\n      swap2\n      pop\n      pop\n      jump\t// out\n        /* \"#utility.yul\":3416:3723   */\n    tag_148:\n        /* \"#utility.yul\":3477:3481   */\n      0x00\n        /* \"#utility.yul\":3567:3585   */\n      0xffffffffffffffff\n        /* \"#utility.yul\":3559:3565   */\n      dup3\n        /* \"#utility.yul\":3556:3586   */\n      gt\n        /* \"#utility.yul\":3553:3609   */\n      iszero\n      tag_227\n      jumpi\n        /* \"#utility.yul\":3589:3607   */\n      tag_228\n      tag_141\n      jump\t// in\n    tag_228:\n        /* \"#utility.yul\":3553:3609   */\n    tag_227:\n        /* \"#utility.yul\":3627:3656   */\n      tag_229\n        /* \"#utility.yul\":3649:3655   */\n      dup3\n        /* \"#utility.yul\":3627:3656   */\n      tag_140\n      jump\t// in\n    tag_229:\n        /* \"#utility.yul\":3619:3656   */\n      swap1\n      pop\n        /* \"#utility.yul\":3711:3715   */\n      0x20\n        /* \"#utility.yul\":3705:3709   */\n      dup2\n        /* \"#utility.yul\":3701:3716   */\n      add\n        /* \"#utility.yul\":3693:3716   */\n      swap1\n      pop\n        /* \"#utility.yul\":3416:3723   */\n      swap2\n      swap1\n      pop\n      jump\t// out\n        /* \"#utility.yul\":3729:4152   */\n    tag_149:\n        /* \"#utility.yul\":3806:3811   */\n      0x00\n        /* \"#utility.yul\":3831:3896   */\n      tag_231\n        /* \"#utility.yul\":3847:3895   */\n      tag_232\n        /* \"#utility.yul\":3888:3894   */\n      dup5\n        /* \"#utility.yul\":3847:3895   */\n      tag_148\n      jump\t// in\n    tag_232:\n        /* \"#utility.yul\":3831:3896   */\n      tag_143\n      jump\t// in\n    tag_231:\n        /* \"#utility.yul\":3822:3896   */\n      swap1\n      pop\n        /* \"#utility.yul\":3919:3925   */\n      dup3\n        /* \"#utility.yul\":3912:3917   */\n      dup2\n        /* \"#utility.yul\":3905:3926   */\n      mstore\n        /* \"#utility.yul\":3957:3961   */\n      0x20\n        /* \"#utility.yul\":3950:3955   */\n      dup2\n        /* \"#utility.yul\":3946:3962   */\n      add\n        /* \"#utility.yul\":3995:3998   */\n      dup5\n        /* \"#utility.yul\":3986:3992   */\n      dup5\n        /* \"#utility.yul\":3981:3984   */\n      dup5\n        /* \"#utility.yul\":3977:3993   */\n      add\n        /* \"#utility.yul\":3974:3999   */\n      gt\n        /* \"#utility.yul\":3971:4083   */\n      iszero\n      tag_233\n      jumpi\n        /* \"#utility.yul\":4002:4081   */\n      tag_234\n      tag_139\n      jump\t// in\n    tag_234:\n        /* \"#utility.yul\":3971:4083   */\n    tag_233:\n        /* \"#utility.yul\":4092:4146   */\n      tag_235\n        /* \"#utility.yul\":4139:4145   */\n      dup5\n        /* \"#utility.yul\":4134:4137   */\n      dup3\n        /* \"#utility.yul\":4129:4132   */\n      dup6\n        /* \"#utility.yul\":4092:4146   */\n      tag_145\n      jump\t// in\n    tag_235:\n        /* \"#utility.yul\":3812:4152   */\n      pop\n        /* \"#utility.yul\":3729:4152   */\n      swap4\n      swap3\n      pop\n      pop\n      pop\n      jump\t// out\n        /* \"#utility.yul\":4171:4509   */\n    tag_150:\n        /* \"#utility.yul\":4226:4231   */\n      0x00\n        /* \"#utility.yul\":4275:4278   */\n      dup3\n        /* \"#utility.yul\":4268:4272   */\n      0x1f\n        /* \"#utility.yul\":4260:4266   */\n      dup4\n        /* \"#utility.yul\":4256:4273   */\n      add\n        /* \"#utility.yul\":4252:4279   */\n      slt\n        /* \"#utility.yul\":4242:4364   */\n      tag_237\n      jumpi\n        /* \"#utility.yul\":4283:4362   */\n      tag_238\n      tag_138\n      jump\t// in\n    tag_238:\n        /* \"#utility.yul\":4242:4364   */\n    tag_237:\n        /* \"#utility.yul\":4400:4406   */\n      dup2\n        /* \"#utility.yul\":4387:4407   */\n      calldataload\n        /* \"#utility.yul\":4425:4503   */\n      tag_239\n        /* \"#utility.yul\":4499:4502   */\n      dup5\n        /* \"#utility.yul\":4491:4497   */\n      dup3\n        /* \"#utility.yul\":4484:4488   */\n      0x20\n        /* \"#utility.yul\":4476:4482   */\n      dup7\n        /* \"#utility.yul\":4472:4489   */\n      add\n        /* \"#utility.yul\":4425:4503   */\n      tag_149\n      jump\t// in\n    tag_239:\n        /* \"#utility.yul\":4416:4503   */\n      swap2\n      pop\n        /* \"#utility.yul\":4232:4509   */\n      pop\n        /* \"#utility.yul\":4171:4509   */\n      swap3\n      swap2\n      pop\n      pop\n      jump\t// out\n        /* \"#utility.yul\":4515:5784   */\n    tag_13:\n        /* \"#utility.yul\":4629:4635   */\n      0x00\n        /* \"#utility.yul\":4637:4643   */\n      dup1\n        /* \"#utility.yul\":4645:4651   */\n      0x00\n        /* \"#utility.yul\":4653:4659   */\n      dup1\n        /* \"#utility.yul\":4661:4667   */\n      0x00\n        /* \"#utility.yul\":4710:4713   */\n      0xa0\n        /* \"#utility.yul\":4698:4707   */\n      dup7\n        /* \"#utility.yul\":4689:4696   */\n      dup9\n        /* \"#utility.yul\":4685:4708   */\n      sub\n        /* \"#utility.yul\":4681:4714   */\n      slt\n        /* \"#utility.yul\":4678:4798   */\n      iszero\n      tag_241\n      jumpi\n        /* \"#utility.yul\":4717:4796   */\n      tag_242\n      tag_129\n      jump\t// in\n    tag_242:\n        /* \"#utility.yul\":4678:4798   */\n    tag_241:\n        /* \"#utility.yul\":4837:4838   */\n      0x00\n        /* \"#utility.yul\":4862:4915   */\n      tag_243\n        /* \"#utility.yul\":4907:4914   */\n      dup9\n        /* \"#utility.yul\":4898:4904   */\n      dup3\n        /* \"#utility.yul\":4887:4896   */\n      dup10\n        /* \"#utility.yul\":4883:4905   */\n      add\n        /* \"#utility.yul\":4862:4915   */\n      tag_134\n      jump\t// in\n    tag_243:\n        /* \"#utility.yul\":4852:4915   */\n      swap6\n      pop\n        /* \"#utility.yul\":4808:4925   */\n      pop\n        /* \"#utility.yul\":4964:4966   */\n      0x20\n        /* \"#utility.yul\":4990:5043   */\n      tag_244\n        /* \"#utility.yul\":5035:5042   */\n      dup9\n        /* \"#utility.yul\":5026:5032   */\n      dup3\n        /* \"#utility.yul\":5015:5024   */\n      dup10\n        /* \"#utility.yul\":5011:5033   */\n      add\n        /* \"#utility.yul\":4990:5043   */\n      tag_137\n      jump\t// in\n    tag_244:\n        /* \"#utility.yul\":4980:5043   */\n      swap5\n      pop\n        /* \"#utility.yul\":4935:5053   */\n      pop\n        /* \"#utility.yul\":5092:5094   */\n      0x40\n        /* \"#utility.yul\":5118:5171   */\n      tag_245\n        /* \"#utility.yul\":5163:5170   */\n      dup9\n        /* \"#utility.yul\":5154:5160   */\n      dup3\n        /* \"#utility.yul\":5143:5152   */\n      dup10\n        /* \"#utility.yul\":5139:5161   */\n      add\n        /* \"#utility.yul\":5118:5171   */\n      tag_134\n      jump\t// in\n    tag_245:\n        /* \"#utility.yul\":5108:5171   */\n      swap4\n      pop\n        /* \"#utility.yul\":5063:5181   */\n      pop\n        /* \"#utility.yul\":5248:5250   */\n      0x60\n        /* \"#utility.yul\":5237:5246   */\n      dup7\n        /* \"#utility.yul\":5233:5251   */\n      add\n        /* \"#utility.yul\":5220:5252   */\n      calldataload\n        /* \"#utility.yul\":5279:5297   */\n      0xffffffffffffffff\n        /* \"#utility.yul\":5271:5277   */\n      dup2\n        /* \"#utility.yul\":5268:5298   */\n      gt\n        /* \"#utility.yul\":5265:5382   */\n      iszero\n      tag_246\n      jumpi\n        /* \"#utility.yul\":5301:5380   */\n      tag_247\n      tag_130\n      jump\t// in\n    tag_247:\n        /* \"#utility.yul\":5265:5382   */\n    tag_246:\n        /* \"#utility.yul\":5406:5469   */\n      tag_248\n        /* \"#utility.yul\":5461:5468   */\n      dup9\n        /* \"#utility.yul\":5452:5458   */\n      dup3\n        /* \"#utility.yul\":5441:5450   */\n      dup10\n        /* \"#utility.yul\":5437:5459   */\n      add\n        /* \"#utility.yul\":5406:5469   */\n      tag_147\n      jump\t// in\n    tag_248:\n        /* \"#utility.yul\":5396:5469   */\n      swap3\n      pop\n        /* \"#utility.yul\":5191:5479   */\n      pop\n        /* \"#utility.yul\":5546:5549   */\n      0x80\n        /* \"#utility.yul\":5535:5544   */\n      dup7\n        /* \"#utility.yul\":5531:5550   */\n      add\n        /* \"#utility.yul\":5518:5551   */\n      calldataload\n        /* \"#utility.yul\":5578:5596   */\n      0xffffffffffffffff\n        /* \"#utility.yul\":5570:5576   */\n      dup2\n        /* \"#utility.yul\":5567:5597   */\n      gt\n        /* \"#utility.yul\":5564:5681   */\n      iszero\n      tag_249\n      jumpi\n        /* \"#utility.yul\":5600:5679   */\n      tag_250\n      tag_130\n      jump\t// in\n    tag_250:\n        /* \"#utility.yul\":5564:5681   */\n    tag_249:\n        /* \"#utility.yul\":5705:5767   */\n      tag_251\n        /* \"#utility.yul\":5759:5766   */\n      dup9\n        /* \"#utility.yul\":5750:5756   */\n      dup3\n        /* \"#utility.yul\":5739:5748   */\n      dup10\n        /* \"#utility.yul\":5735:5757   */\n      add\n        /* \"#utility.yul\":5705:5767   */\n      tag_150\n      jump\t// in\n    tag_251:\n        /* \"#utility.yul\":5695:5767   */\n      swap2\n      pop\n        /* \"#utility.yul\":5489:5777   */\n      pop\n        /* \"#utility.yul\":4515:5784   */\n      swap3\n      swap6\n      pop\n      swap3\n      swap6\n      swap1\n      swap4\n      pop\n      jump\t// out\n        /* \"#utility.yul\":5790:5880   */\n    tag_151:\n        /* \"#utility.yul\":5824:5831   */\n      0x00\n        /* \"#utility.yul\":5867:5872   */\n      dup2\n        /* \"#utility.yul\":5860:5873   */\n      iszero\n        /* \"#utility.yul\":5853:5874   */\n      iszero\n        /* \"#utility.yul\":5842:5874   */\n      swap1\n      pop\n        /* \"#utility.yul\":5790:5880   */\n      swap2\n      swap1\n      pop\n      jump\t// out\n        /* \"#utility.yul\":5886:5995   */\n    tag_152:\n        /* \"#utility.yul\":5967:5988   */\n      tag_254\n        /* \"#utility.yul\":5982:5987   */\n      dup2\n        /* \"#utility.yul\":5967:5988   */\n      tag_151\n      jump\t// in\n    tag_254:\n        /* \"#utility.yul\":5962:5965   */\n      dup3\n        /* \"#utility.yul\":5955:5989   */\n      mstore\n        /* \"#utility.yul\":5886:5995   */\n      pop\n      pop\n      jump\t// out\n        /* \"#utility.yul\":6001:6211   */\n    tag_16:\n        /* \"#utility.yul\":6088:6092   */\n      0x00\n        /* \"#utility.yul\":6126:6128   */\n      0x20\n        /* \"#utility.yul\":6115:6124   */\n      dup3\n        /* \"#utility.yul\":6111:6129   */\n      add\n        /* \"#utility.yul\":6103:6129   */\n      swap1\n      pop\n        /* \"#utility.yul\":6139:6204   */\n      tag_256\n        /* \"#utility.yul\":6201:6202   */\n      0x00\n        /* \"#utility.yul\":6190:6199   */\n      dup4\n        /* \"#utility.yul\":6186:6203   */\n      add\n        /* \"#utility.yul\":6177:6183   */\n      dup5\n        /* \"#utility.yul\":6139:6204   */\n      tag_152\n      jump\t// in\n    tag_256:\n        /* \"#utility.yul\":6001:6211   */\n      swap3\n      swap2\n      pop\n      pop\n      jump\t// out\n        /* \"#utility.yul\":6217:6306   */\n    tag_153:\n        /* \"#utility.yul\":6253:6260   */\n      0x00\n        /* \"#utility.yul\":6293:6299   */\n      0xffff\n        /* \"#utility.yul\":6286:6291   */\n      dup3\n        /* \"#utility.yul\":6282:6300   */\n      and\n        /* \"#utility.yul\":6271:6300   */\n      swap1\n      pop\n        /* \"#utility.yul\":6217:6306   */\n      swap2\n      swap1\n      pop\n      jump\t// out\n        /* \"#utility.yul\":6312:6432   */\n    tag_154:\n        /* \"#utility.yul\":6384:6407   */\n      tag_259\n        /* \"#utility.yul\":6401:6406   */\n      dup2\n        /* \"#utility.yul\":6384:6407   */\n      tag_153\n      jump\t// in\n    tag_259:\n        /* \"#utility.yul\":6377:6382   */\n      dup2\n        /* \"#utility.yul\":6374:6408   */\n      eq\n        /* \"#utility.yul\":6364:6426   */\n      tag_260\n      jumpi\n        /* \"#utility.yul\":6422:6423   */\n      0x00\n        /* \"#utility.yul\":6419:6420   */\n      dup1\n        /* \"#utility.yul\":6412:6424   */\n      revert\n        /* \"#utility.yul\":6364:6426   */\n    tag_260:\n        /* \"#utility.yul\":6312:6432   */\n      pop\n      jump\t// out\n        /* \"#utility.yul\":6438:6575   */\n    tag_155:\n        /* \"#utility.yul\":6483:6488   */\n      0x00\n        /* \"#utility.yul\":6521:6527   */\n      dup2\n        /* \"#utility.yul\":6508:6528   */\n      calldataload\n        /* \"#utility.yul\":6499:6528   */\n      swap1\n      pop\n        /* \"#utility.yul\":6537:6569   */\n      tag_262\n        /* \"#utility.yul\":6563:6568   */\n      dup2\n        /* \"#utility.yul\":6537:6569   */\n      tag_154\n      jump\t// in\n    tag_262:\n        /* \"#utility.yul\":6438:6575   */\n      swap3\n      swap2\n      pop\n      pop\n      jump\t// out\n        /* \"#utility.yul\":6581:7053   */\n    tag_19:\n        /* \"#utility.yul\":6648:6654   */\n      0x00\n        /* \"#utility.yul\":6656:6662   */\n      dup1\n        /* \"#utility.yul\":6705:6707   */\n      0x40\n        /* \"#utility.yul\":6693:6702   */\n      dup4\n        /* \"#utility.yul\":6684:6691   */\n      dup6\n        /* \"#utility.yul\":6680:6703   */\n      sub\n        /* \"#utility.yul\":6676:6708   */\n      slt\n        /* \"#utility.yul\":6673:6792   */\n      iszero\n      tag_264\n      jumpi\n        /* \"#utility.yul\":6711:6790   */\n      tag_265\n      tag_129\n      jump\t// in\n    tag_265:\n        /* \"#utility.yul\":6673:6792   */\n    tag_264:\n        /* \"#utility.yul\":6831:6832   */\n      0x00\n        /* \"#utility.yul\":6856:6908   */\n      tag_266\n        /* \"#utility.yul\":6900:6907   */\n      dup6\n        /* \"#utility.yul\":6891:6897   */\n      dup3\n        /* \"#utility.yul\":6880:6889   */\n      dup7\n        /* \"#utility.yul\":6876:6898   */\n      add\n        /* \"#utility.yul\":6856:6908   */\n      tag_155\n      jump\t// in\n    tag_266:\n        /* \"#utility.yul\":6846:6908   */\n      swap3\n      pop\n        /* \"#utility.yul\":6802:6918   */\n      pop\n        /* \"#utility.yul\":6957:6959   */\n      0x20\n        /* \"#utility.yul\":6983:7036   */\n      tag_267\n        /* \"#utility.yul\":7028:7035   */\n      dup6\n        /* \"#utility.yul\":7019:7025   */\n      dup3\n        /* \"#utility.yul\":7008:7017   */\n      dup7\n        /* \"#utility.yul\":7004:7026   */\n      add\n        /* \"#utility.yul\":6983:7036   */\n      tag_137\n      jump\t// in\n    tag_267:\n        /* \"#utility.yul\":6973:7036   */\n      swap2\n      pop\n        /* \"#utility.yul\":6928:7046   */\n      pop\n        /* \"#utility.yul\":6581:7053   */\n      swap3\n      pop\n      swap3\n      swap1\n      pop\n      jump\t// out\n        /* \"#utility.yul\":7059:7177   */\n    tag_156:\n        /* \"#utility.yul\":7146:7170   */\n      tag_269\n        /* \"#utility.yul\":7164:7169   */\n      dup2\n        /* \"#utility.yul\":7146:7170   */\n      tag_135\n      jump\t// in\n    tag_269:\n        /* \"#utility.yul\":7141:7144   */\n      dup3\n        /* \"#utility.yul\":7134:7171   */\n      mstore\n        /* \"#utility.yul\":7059:7177   */\n      pop\n      pop\n      jump\t// out\n        /* \"#utility.yul\":7183:7405   */\n    tag_24:\n        /* \"#utility.yul\":7276:7280   */\n      0x00\n        /* \"#utility.yul\":7314:7316   */\n      0x20\n        /* \"#utility.yul\":7303:7312   */\n      dup3\n        /* \"#utility.yul\":7299:7317   */\n      add\n        /* \"#utility.yul\":7291:7317   */\n      swap1\n      pop\n        /* \"#utility.yul\":7327:7398   */\n      tag_271\n        /* \"#utility.yul\":7395:7396   */\n      0x00\n        /* \"#utility.yul\":7384:7393   */\n      dup4\n        /* \"#utility.yul\":7380:7397   */\n      add\n        /* \"#utility.yul\":7371:7377   */\n      dup5\n        /* \"#utility.yul\":7327:7398   */\n      tag_156\n      jump\t// in\n    tag_271:\n        /* \"#utility.yul\":7183:7405   */\n      swap3\n      swap2\n      pop\n      pop\n      jump\t// out\n        /* \"#utility.yul\":7411:7738   */\n    tag_30:\n        /* \"#utility.yul\":7469:7475   */\n      0x00\n        /* \"#utility.yul\":7518:7520   */\n      0x20\n        /* \"#utility.yul\":7506:7515   */\n      dup3\n        /* \"#utility.yul\":7497:7504   */\n      dup5\n        /* \"#utility.yul\":7493:7516   */\n      sub\n        /* \"#utility.yul\":7489:7521   */\n      slt\n        /* \"#utility.yul\":7486:7605   */\n      iszero\n      tag_273\n      jumpi\n        /* \"#utility.yul\":7524:7603   */\n      tag_274\n      tag_129\n      jump\t// in\n    tag_274:\n        /* \"#utility.yul\":7486:7605   */\n    tag_273:\n        /* \"#utility.yul\":7644:7645   */\n      0x00\n        /* \"#utility.yul\":7669:7721   */\n      tag_275\n        /* \"#utility.yul\":7713:7720   */\n      dup5\n        /* \"#utility.yul\":7704:7710   */\n      dup3\n        /* \"#utility.yul\":7693:7702   */\n      dup6\n        /* \"#utility.yul\":7689:7711   */\n      add\n        /* \"#utility.yul\":7669:7721   */\n      tag_155\n      jump\t// in\n    tag_275:\n        /* \"#utility.yul\":7659:7721   */\n      swap2\n      pop\n        /* \"#utility.yul\":7615:7731   */\n      pop\n        /* \"#utility.yul\":7411:7738   */\n      swap3\n      swap2\n      pop\n      pop\n      jump\t// out\n        /* \"#utility.yul\":7744:7823   */\n    tag_157:\n        /* \"#utility.yul\":7783:7790   */\n      0x00\n        /* \"#utility.yul\":7812:7817   */\n      dup2\n        /* \"#utility.yul\":7801:7817   */\n      swap1\n      pop\n        /* \"#utility.yul\":7744:7823   */\n      swap2\n      swap1\n      pop\n      jump\t// out\n        /* \"#utility.yul\":7829:7986   */\n    tag_158:\n        /* \"#utility.yul\":7934:7979   */\n      tag_278\n        /* \"#utility.yul\":7954:7978   */\n      tag_279\n        /* \"#utility.yul\":7972:7977   */\n      dup3\n        /* \"#utility.yul\":7954:7978   */\n      tag_135\n      jump\t// in\n    tag_279:\n        /* \"#utility.yul\":7934:7979   */\n      tag_157\n      jump\t// in\n    tag_278:\n        /* \"#utility.yul\":7929:7932   */\n      dup3\n        /* \"#utility.yul\":7922:7980   */\n      mstore\n        /* \"#utility.yul\":7829:7986   */\n      pop\n      pop\n      jump\t// out\n        /* \"#utility.yul\":7992:8086   */\n    tag_159:\n        /* \"#utility.yul\":8025:8033   */\n      0x00\n        /* \"#utility.yul\":8073:8078   */\n      dup2\n        /* \"#utility.yul\":8069:8071   */\n      0x60\n        /* \"#utility.yul\":8065:8079   */\n      shl\n        /* \"#utility.yul\":8044:8079   */\n      swap1\n      pop\n        /* \"#utility.yul\":7992:8086   */\n      swap2\n      swap1\n      pop\n      jump\t// out\n        /* \"#utility.yul\":8092:8186   */\n    tag_160:\n        /* \"#utility.yul\":8131:8138   */\n      0x00\n        /* \"#utility.yul\":8160:8180   */\n      tag_282\n        /* \"#utility.yul\":8174:8179   */\n      dup3\n        /* \"#utility.yul\":8160:8180   */\n      tag_159\n      jump\t// in\n    tag_282:\n        /* \"#utility.yul\":8149:8180   */\n      swap1\n      pop\n        /* \"#utility.yul\":8092:8186   */\n      swap2\n      swap1\n      pop\n      jump\t// out\n        /* \"#utility.yul\":8192:8292   */\n    tag_161:\n        /* \"#utility.yul\":8231:8238   */\n      0x00\n        /* \"#utility.yul\":8260:8286   */\n      tag_284\n        /* \"#utility.yul\":8280:8285   */\n      dup3\n        /* \"#utility.yul\":8260:8286   */\n      tag_160\n      jump\t// in\n    tag_284:\n        /* \"#utility.yul\":8249:8286   */\n      swap1\n      pop\n        /* \"#utility.yul\":8192:8292   */\n      swap2\n      swap1\n      pop\n      jump\t// out\n        /* \"#utility.yul\":8298:8455   */\n    tag_162:\n        /* \"#utility.yul\":8403:8448   */\n      tag_286\n        /* \"#utility.yul\":8423:8447   */\n      tag_287\n        /* \"#utility.yul\":8441:8446   */\n      dup3\n        /* \"#utility.yul\":8423:8447   */\n      tag_132\n      jump\t// in\n    tag_287:\n        /* \"#utility.yul\":8403:8448   */\n      tag_161\n      jump\t// in\n    tag_286:\n        /* \"#utility.yul\":8398:8401   */\n      dup3\n        /* \"#utility.yul\":8391:8449   */\n      mstore\n        /* \"#utility.yul\":8298:8455   */\n      pop\n      pop\n      jump\t// out\n        /* \"#utility.yul\":8461:8560   */\n    tag_163:\n        /* \"#utility.yul\":8513:8519   */\n      0x00\n        /* \"#utility.yul\":8547:8552   */\n      dup2\n        /* \"#utility.yul\":8541:8553   */\n      mload\n        /* \"#utility.yul\":8531:8553   */\n      swap1\n      pop\n        /* \"#utility.yul\":8461:8560   */\n      swap2\n      swap1\n      pop\n      jump\t// out\n        /* \"#utility.yul\":8566:8714   */\n    tag_164:\n        /* \"#utility.yul\":8668:8679   */\n      0x00\n        /* \"#utility.yul\":8705:8708   */\n      dup2\n        /* \"#utility.yul\":8690:8708   */\n      swap1\n      pop\n        /* \"#utility.yul\":8566:8714   */\n      swap3\n      swap2\n      pop\n      pop\n      jump\t// out\n        /* \"#utility.yul\":8720:8966   */\n    tag_165:\n        /* \"#utility.yul\":8801:8802   */\n      0x00\n        /* \"#utility.yul\":8811:8924   */\n    tag_291:\n        /* \"#utility.yul\":8825:8831   */\n      dup4\n        /* \"#utility.yul\":8822:8823   */\n      dup2\n        /* \"#utility.yul\":8819:8832   */\n      lt\n        /* \"#utility.yul\":8811:8924   */\n      iszero\n      tag_293\n      jumpi\n        /* \"#utility.yul\":8910:8911   */\n      dup1\n        /* \"#utility.yul\":8905:8908   */\n      dup3\n        /* \"#utility.yul\":8901:8912   */\n      add\n        /* \"#utility.yul\":8895:8913   */\n      mload\n        /* \"#utility.yul\":8891:8892   */\n      dup2\n        /* \"#utility.yul\":8886:8889   */\n      dup5\n        /* \"#utility.yul\":8882:8893   */\n      add\n        /* \"#utility.yul\":8875:8914   */\n      mstore\n        /* \"#utility.yul\":8847:8849   */\n      0x20\n        /* \"#utility.yul\":8844:8845   */\n      dup2\n        /* \"#utility.yul\":8840:8850   */\n      add\n        /* \"#utility.yul\":8835:8850   */\n      swap1\n      pop\n        /* \"#utility.yul\":8811:8924   */\n      jump(tag_291)\n    tag_293:\n        /* \"#utility.yul\":8958:8959   */\n      0x00\n        /* \"#utility.yul\":8949:8955   */\n      dup5\n        /* \"#utility.yul\":8944:8947   */\n      dup5\n        /* \"#utility.yul\":8940:8956   */\n      add\n        /* \"#utility.yul\":8933:8960   */\n      mstore\n        /* \"#utility.yul\":8782:8966   */\n      pop\n        /* \"#utility.yul\":8720:8966   */\n      pop\n      pop\n      pop\n      jump\t// out\n        /* \"#utility.yul\":8972:9362   */\n    tag_166:\n        /* \"#utility.yul\":9078:9081   */\n      0x00\n        /* \"#utility.yul\":9106:9145   */\n      tag_295\n        /* \"#utility.yul\":9139:9144   */\n      dup3\n        /* \"#utility.yul\":9106:9145   */\n      tag_163\n      jump\t// in\n    tag_295:\n        /* \"#utility.yul\":9161:9250   */\n      tag_296\n        /* \"#utility.yul\":9243:9249   */\n      dup2\n        /* \"#utility.yul\":9238:9241   */\n      dup6\n        /* \"#utility.yul\":9161:9250   */\n      tag_164\n      jump\t// in\n    tag_296:\n        /* \"#utility.yul\":9154:9250   */\n      swap4\n      pop\n        /* \"#utility.yul\":9259:9324   */\n      tag_297\n        /* \"#utility.yul\":9317:9323   */\n      dup2\n        /* \"#utility.yul\":9312:9315   */\n      dup6\n        /* \"#utility.yul\":9305:9309   */\n      0x20\n        /* \"#utility.yul\":9298:9303   */\n      dup7\n        /* \"#utility.yul\":9294:9310   */\n      add\n        /* \"#utility.yul\":9259:9324   */\n      tag_165\n      jump\t// in\n    tag_297:\n        /* \"#utility.yul\":9349:9355   */\n      dup1\n        /* \"#utility.yul\":9344:9347   */\n      dup5\n        /* \"#utility.yul\":9340:9356   */\n      add\n        /* \"#utility.yul\":9333:9356   */\n      swap2\n      pop\n        /* \"#utility.yul\":9082:9362   */\n      pop\n        /* \"#utility.yul\":8972:9362   */\n      swap3\n      swap2\n      pop\n      pop\n      jump\t// out\n        /* \"#utility.yul\":9368:9925   */\n    tag_39:\n        /* \"#utility.yul\":9556:9559   */\n      0x00\n        /* \"#utility.yul\":9571:9646   */\n      tag_299\n        /* \"#utility.yul\":9642:9645   */\n      dup3\n        /* \"#utility.yul\":9633:9639   */\n      dup7\n        /* \"#utility.yul\":9571:9646   */\n      tag_158\n      jump\t// in\n    tag_299:\n        /* \"#utility.yul\":9671:9673   */\n      0x20\n        /* \"#utility.yul\":9666:9669   */\n      dup3\n        /* \"#utility.yul\":9662:9674   */\n      add\n        /* \"#utility.yul\":9655:9674   */\n      swap2\n      pop\n        /* \"#utility.yul\":9684:9759   */\n      tag_300\n        /* \"#utility.yul\":9755:9758   */\n      dup3\n        /* \"#utility.yul\":9746:9752   */\n      dup6\n        /* \"#utility.yul\":9684:9759   */\n      tag_162\n      jump\t// in\n    tag_300:\n        /* \"#utility.yul\":9784:9786   */\n      0x14\n        /* \"#utility.yul\":9779:9782   */\n      dup3\n        /* \"#utility.yul\":9775:9787   */\n      add\n        /* \"#utility.yul\":9768:9787   */\n      swap2\n      pop\n        /* \"#utility.yul\":9804:9899   */\n      tag_301\n        /* \"#utility.yul\":9895:9898   */\n      dup3\n        /* \"#utility.yul\":9886:9892   */\n      dup5\n        /* \"#utility.yul\":9804:9899   */\n      tag_166\n      jump\t// in\n    tag_301:\n        /* \"#utility.yul\":9797:9899   */\n      swap2\n      pop\n        /* \"#utility.yul\":9916:9919   */\n      dup2\n        /* \"#utility.yul\":9909:9919   */\n      swap1\n      pop\n        /* \"#utility.yul\":9368:9925   */\n      swap5\n      swap4\n      pop\n      pop\n      pop\n      pop\n      jump\t// out\n        /* \"#utility.yul\":9931:10111   */\n    tag_167:\n        /* \"#utility.yul\":9979:10056   */\n      0x4e487b7100000000000000000000000000000000000000000000000000000000\n        /* \"#utility.yul\":9976:9977   */\n      0x00\n        /* \"#utility.yul\":9969:10057   */\n      mstore\n        /* \"#utility.yul\":10076:10080   */\n      0x11\n        /* \"#utility.yul\":10073:10074   */\n      0x04\n        /* \"#utility.yul\":10066:10081   */\n      mstore\n        /* \"#utility.yul\":10100:10104   */\n      0x24\n        /* \"#utility.yul\":10097:10098   */\n      0x00\n        /* \"#utility.yul\":10090:10105   */\n      revert\n        /* \"#utility.yul\":10117:10288   */\n    tag_52:\n        /* \"#utility.yul\":10155:10158   */\n      0x00\n        /* \"#utility.yul\":10178:10201   */\n      tag_304\n        /* \"#utility.yul\":10195:10200   */\n      dup3\n        /* \"#utility.yul\":10178:10201   */\n      tag_153\n      jump\t// in\n    tag_304:\n        /* \"#utility.yul\":10169:10201   */\n      swap2\n      pop\n        /* \"#utility.yul\":10223:10229   */\n      0xffff\n        /* \"#utility.yul\":10216:10221   */\n      dup3\n        /* \"#utility.yul\":10213:10230   */\n      sub\n        /* \"#utility.yul\":10210:10253   */\n      tag_305\n      jumpi\n        /* \"#utility.yul\":10233:10251   */\n      tag_306\n      tag_167\n      jump\t// in\n    tag_306:\n        /* \"#utility.yul\":10210:10253   */\n    tag_305:\n        /* \"#utility.yul\":10280:10281   */\n      0x01\n        /* \"#utility.yul\":10273:10278   */\n      dup3\n        /* \"#utility.yul\":10269:10282   */\n      add\n        /* \"#utility.yul\":10262:10282   */\n      swap1\n      pop\n        /* \"#utility.yul\":10117:10288   */\n      swap2\n      swap1\n      pop\n      jump\t// out\n        /* \"#utility.yul\":10294:10488   */\n    tag_62:\n        /* \"#utility.yul\":10334:10338   */\n      0x00\n        /* \"#utility.yul\":10354:10374   */\n      tag_308\n        /* \"#utility.yul\":10372:10373   */\n      dup3\n        /* \"#utility.yul\":10354:10374   */\n      tag_135\n      jump\t// in\n    tag_308:\n        /* \"#utility.yul\":10349:10374   */\n      swap2\n      pop\n        /* \"#utility.yul\":10388:10408   */\n      tag_309\n        /* \"#utility.yul\":10406:10407   */\n      dup4\n        /* \"#utility.yul\":10388:10408   */\n      tag_135\n      jump\t// in\n    tag_309:\n        /* \"#utility.yul\":10383:10408   */\n      swap3\n      pop\n        /* \"#utility.yul\":10432:10433   */\n      dup3\n        /* \"#utility.yul\":10429:10430   */\n      dup3\n        /* \"#utility.yul\":10425:10434   */\n      sub\n        /* \"#utility.yul\":10417:10434   */\n      swap1\n      pop\n        /* \"#utility.yul\":10456:10457   */\n      dup2\n        /* \"#utility.yul\":10450:10454   */\n      dup2\n        /* \"#utility.yul\":10447:10458   */\n      gt\n        /* \"#utility.yul\":10444:10481   */\n      iszero\n      tag_310\n      jumpi\n        /* \"#utility.yul\":10461:10479   */\n      tag_311\n      tag_167\n      jump\t// in\n    tag_311:\n        /* \"#utility.yul\":10444:10481   */\n    tag_310:\n        /* \"#utility.yul\":10294:10488   */\n      swap3\n      swap2\n      pop\n      pop\n      jump\t// out\n        /* \"#utility.yul\":10494:10663   */\n    tag_168:\n        /* \"#utility.yul\":10578:10589   */\n      0x00\n        /* \"#utility.yul\":10612:10618   */\n      dup3\n        /* \"#utility.yul\":10607:10610   */\n      dup3\n        /* \"#utility.yul\":10600:10619   */\n      mstore\n        /* \"#utility.yul\":10652:10656   */\n      0x20\n        /* \"#utility.yul\":10647:10650   */\n      dup3\n        /* \"#utility.yul\":10643:10657   */\n      add\n        /* \"#utility.yul\":10628:10657   */\n      swap1\n      pop\n        /* \"#utility.yul\":10494:10663   */\n      swap3\n      swap2\n      pop\n      pop\n      jump\t// out\n        /* \"#utility.yul\":10669:10824   */\n    tag_169:\n        /* \"#utility.yul\":10809:10816   */\n      0x7373737373000000000000000000000000000000000000000000000000000000\n        /* \"#utility.yul\":10805:10806   */\n      0x00\n        /* \"#utility.yul\":10797:10803   */\n      dup3\n        /* \"#utility.yul\":10793:10807   */\n      add\n        /* \"#utility.yul\":10786:10817   */\n      mstore\n        /* \"#utility.yul\":10669:10824   */\n      pop\n      jump\t// out\n        /* \"#utility.yul\":10830:11195   */\n    tag_170:\n        /* \"#utility.yul\":10972:10975   */\n      0x00\n        /* \"#utility.yul\":10993:11059   */\n      tag_315\n        /* \"#utility.yul\":11057:11058   */\n      0x05\n        /* \"#utility.yul\":11052:11055   */\n      dup4\n        /* \"#utility.yul\":10993:11059   */\n      tag_168\n      jump\t// in\n    tag_315:\n        /* \"#utility.yul\":10986:11059   */\n      swap2\n      pop\n        /* \"#utility.yul\":11068:11161   */\n      tag_316\n        /* \"#utility.yul\":11157:11160   */\n      dup3\n        /* \"#utility.yul\":11068:11161   */\n      tag_169\n      jump\t// in\n    tag_316:\n        /* \"#utility.yul\":11186:11188   */\n      0x20\n        /* \"#utility.yul\":11181:11184   */\n      dup3\n        /* \"#utility.yul\":11177:11189   */\n      add\n        /* \"#utility.yul\":11170:11189   */\n      swap1\n      pop\n        /* \"#utility.yul\":10830:11195   */\n      swap2\n      swap1\n      pop\n      jump\t// out\n        /* \"#utility.yul\":11201:11620   */\n    tag_65:\n        /* \"#utility.yul\":11367:11371   */\n      0x00\n        /* \"#utility.yul\":11405:11407   */\n      0x20\n        /* \"#utility.yul\":11394:11403   */\n      dup3\n        /* \"#utility.yul\":11390:11408   */\n      add\n        /* \"#utility.yul\":11382:11408   */\n      swap1\n      pop\n        /* \"#utility.yul\":11454:11463   */\n      dup2\n        /* \"#utility.yul\":11448:11452   */\n      dup2\n        /* \"#utility.yul\":11444:11464   */\n      sub\n        /* \"#utility.yul\":11440:11441   */\n      0x00\n        /* \"#utility.yul\":11429:11438   */\n      dup4\n        /* \"#utility.yul\":11425:11442   */\n      add\n        /* \"#utility.yul\":11418:11465   */\n      mstore\n        /* \"#utility.yul\":11482:11613   */\n      tag_318\n        /* \"#utility.yul\":11608:11612   */\n      dup2\n        /* \"#utility.yul\":11482:11613   */\n      tag_170\n      jump\t// in\n    tag_318:\n        /* \"#utility.yul\":11474:11613   */\n      swap1\n      pop\n        /* \"#utility.yul\":11201:11620   */\n      swap2\n      swap1\n      pop\n      jump\t// out\n        /* \"#utility.yul\":11626:12036   */\n    tag_76:\n        /* \"#utility.yul\":11666:11673   */\n      0x00\n        /* \"#utility.yul\":11689:11709   */\n      tag_320\n        /* \"#utility.yul\":11707:11708   */\n      dup3\n        /* \"#utility.yul\":11689:11709   */\n      tag_135\n      jump\t// in\n    tag_320:\n        /* \"#utility.yul\":11684:11709   */\n      swap2\n      pop\n        /* \"#utility.yul\":11723:11743   */\n      tag_321\n        /* \"#utility.yul\":11741:11742   */\n      dup4\n        /* \"#utility.yul\":11723:11743   */\n      tag_135\n      jump\t// in\n    tag_321:\n        /* \"#utility.yul\":11718:11743   */\n      swap3\n      pop\n        /* \"#utility.yul\":11778:11779   */\n      dup3\n        /* \"#utility.yul\":11775:11776   */\n      dup3\n        /* \"#utility.yul\":11771:11780   */\n      mul\n        /* \"#utility.yul\":11800:11830   */\n      tag_322\n        /* \"#utility.yul\":11818:11829   */\n      dup2\n        /* \"#utility.yul\":11800:11830   */\n      tag_135\n      jump\t// in\n    tag_322:\n        /* \"#utility.yul\":11789:11830   */\n      swap2\n      pop\n        /* \"#utility.yul\":11979:11980   */\n      dup3\n        /* \"#utility.yul\":11970:11977   */\n      dup3\n        /* \"#utility.yul\":11966:11981   */\n      div\n        /* \"#utility.yul\":11963:11964   */\n      dup5\n        /* \"#utility.yul\":11960:11982   */\n      eq\n        /* \"#utility.yul\":11940:11941   */\n      dup4\n        /* \"#utility.yul\":11933:11942   */\n      iszero\n        /* \"#utility.yul\":11913:11996   */\n      or\n        /* \"#utility.yul\":11890:12029   */\n      tag_323\n      jumpi\n        /* \"#utility.yul\":12009:12027   */\n      tag_324\n      tag_167\n      jump\t// in\n    tag_324:\n        /* \"#utility.yul\":11890:12029   */\n    tag_323:\n        /* \"#utility.yul\":11674:12036   */\n      pop\n        /* \"#utility.yul\":11626:12036   */\n      swap3\n      swap2\n      pop\n      pop\n      jump\t// out\n        /* \"#utility.yul\":12042:12233   */\n    tag_79:\n        /* \"#utility.yul\":12082:12085   */\n      0x00\n        /* \"#utility.yul\":12101:12121   */\n      tag_326\n        /* \"#utility.yul\":12119:12120   */\n      dup3\n        /* \"#utility.yul\":12101:12121   */\n      tag_135\n      jump\t// in\n    tag_326:\n        /* \"#utility.yul\":12096:12121   */\n      swap2\n      pop\n        /* \"#utility.yul\":12135:12155   */\n      tag_327\n        /* \"#utility.yul\":12153:12154   */\n      dup4\n        /* \"#utility.yul\":12135:12155   */\n      tag_135\n      jump\t// in\n    tag_327:\n        /* \"#utility.yul\":12130:12155   */\n      swap3\n      pop\n        /* \"#utility.yul\":12178:12179   */\n      dup3\n        /* \"#utility.yul\":12175:12176   */\n      dup3\n        /* \"#utility.yul\":12171:12180   */\n      add\n        /* \"#utility.yul\":12164:12180   */\n      swap1\n      pop\n        /* \"#utility.yul\":12199:12202   */\n      dup1\n        /* \"#utility.yul\":12196:12197   */\n      dup3\n        /* \"#utility.yul\":12193:12203   */\n      gt\n        /* \"#utility.yul\":12190:12226   */\n      iszero\n      tag_328\n      jumpi\n        /* \"#utility.yul\":12206:12224   */\n      tag_329\n      tag_167\n      jump\t// in\n    tag_329:\n        /* \"#utility.yul\":12190:12226   */\n    tag_328:\n        /* \"#utility.yul\":12042:12233   */\n      swap3\n      swap2\n      pop\n      pop\n      jump\t// out\n        /* \"#utility.yul\":12239:12419   */\n    tag_171:\n        /* \"#utility.yul\":12287:12364   */\n      0x4e487b7100000000000000000000000000000000000000000000000000000000\n        /* \"#utility.yul\":12284:12285   */\n      0x00\n        /* \"#utility.yul\":12277:12365   */\n      mstore\n        /* \"#utility.yul\":12384:12388   */\n      0x12\n        /* \"#utility.yul\":12381:12382   */\n      0x04\n        /* \"#utility.yul\":12374:12389   */\n      mstore\n        /* \"#utility.yul\":12408:12412   */\n      0x24\n        /* \"#utility.yul\":12405:12406   */\n      0x00\n        /* \"#utility.yul\":12398:12413   */\n      revert\n        /* \"#utility.yul\":12425:12610   */\n    tag_82:\n        /* \"#utility.yul\":12465:12466   */\n      0x00\n        /* \"#utility.yul\":12482:12502   */\n      tag_332\n        /* \"#utility.yul\":12500:12501   */\n      dup3\n        /* \"#utility.yul\":12482:12502   */\n      tag_135\n      jump\t// in\n    tag_332:\n        /* \"#utility.yul\":12477:12502   */\n      swap2\n      pop\n        /* \"#utility.yul\":12516:12536   */\n      tag_333\n        /* \"#utility.yul\":12534:12535   */\n      dup4\n        /* \"#utility.yul\":12516:12536   */\n      tag_135\n      jump\t// in\n    tag_333:\n        /* \"#utility.yul\":12511:12536   */\n      swap3\n      pop\n        /* \"#utility.yul\":12555:12556   */\n      dup3\n        /* \"#utility.yul\":12545:12580   */\n      tag_334\n      jumpi\n        /* \"#utility.yul\":12560:12578   */\n      tag_335\n      tag_171\n      jump\t// in\n    tag_335:\n        /* \"#utility.yul\":12545:12580   */\n    tag_334:\n        /* \"#utility.yul\":12602:12603   */\n      dup3\n        /* \"#utility.yul\":12599:12600   */\n      dup3\n        /* \"#utility.yul\":12595:12604   */\n      div\n        /* \"#utility.yul\":12590:12604   */\n      swap1\n      pop\n        /* \"#utility.yul\":12425:12610   */\n      swap3\n      swap2\n      pop\n      pop\n      jump\t// out\n        /* \"#utility.yul\":12616:12796   */\n    tag_93:\n        /* \"#utility.yul\":12664:12741   */\n      0x4e487b7100000000000000000000000000000000000000000000000000000000\n        /* \"#utility.yul\":12661:12662   */\n      0x00\n        /* \"#utility.yul\":12654:12742   */\n      mstore\n        /* \"#utility.yul\":12761:12765   */\n      0x21\n        /* \"#utility.yul\":12758:12759   */\n      0x04\n        /* \"#utility.yul\":12751:12766   */\n      mstore\n        /* \"#utility.yul\":12785:12789   */\n      0x24\n        /* \"#utility.yul\":12782:12783   */\n      0x00\n        /* \"#utility.yul\":12775:12790   */\n      revert\n        /* \"#utility.yul\":12802:12976   */\n    tag_172:\n        /* \"#utility.yul\":12942:12968   */\n      0x45434453413a20696e76616c6964207369676e61747572650000000000000000\n        /* \"#utility.yul\":12938:12939   */\n      0x00\n        /* \"#utility.yul\":12930:12936   */\n      dup3\n        /* \"#utility.yul\":12926:12940   */\n      add\n        /* \"#utility.yul\":12919:12969   */\n      mstore\n        /* \"#utility.yul\":12802:12976   */\n      pop\n      jump\t// out\n        /* \"#utility.yul\":12982:13348   */\n    tag_173:\n        /* \"#utility.yul\":13124:13127   */\n      0x00\n        /* \"#utility.yul\":13145:13212   */\n      tag_339\n        /* \"#utility.yul\":13209:13211   */\n      0x18\n        /* \"#utility.yul\":13204:13207   */\n      dup4\n        /* \"#utility.yul\":13145:13212   */\n      tag_168\n      jump\t// in\n    tag_339:\n        /* \"#utility.yul\":13138:13212   */\n      swap2\n      pop\n        /* \"#utility.yul\":13221:13314   */\n      tag_340\n        /* \"#utility.yul\":13310:13313   */\n      dup3\n        /* \"#utility.yul\":13221:13314   */\n      tag_172\n      jump\t// in\n    tag_340:\n        /* \"#utility.yul\":13339:13341   */\n      0x20\n        /* \"#utility.yul\":13334:13337   */\n      dup3\n        /* \"#utility.yul\":13330:13342   */\n      add\n        /* \"#utility.yul\":13323:13342   */\n      swap1\n      pop\n        /* \"#utility.yul\":12982:13348   */\n      swap2\n      swap1\n      pop\n      jump\t// out\n        /* \"#utility.yul\":13354:13773   */\n    tag_104:\n        /* \"#utility.yul\":13520:13524   */\n      0x00\n        /* \"#utility.yul\":13558:13560   */\n      0x20\n        /* \"#utility.yul\":13547:13556   */\n      dup3\n        /* \"#utility.yul\":13543:13561   */\n      add\n        /* \"#utility.yul\":13535:13561   */\n      swap1\n      pop\n        /* \"#utility.yul\":13607:13616   */\n      dup2\n        /* \"#utility.yul\":13601:13605   */\n      dup2\n        /* \"#utility.yul\":13597:13617   */\n      sub\n        /* \"#utility.yul\":13593:13594   */\n      0x00\n        /* \"#utility.yul\":13582:13591   */\n      dup4\n        /* \"#utility.yul\":13578:13595   */\n      add\n        /* \"#utility.yul\":13571:13618   */\n      mstore\n        /* \"#utility.yul\":13635:13766   */\n      tag_342\n        /* \"#utility.yul\":13761:13765   */\n      dup2\n        /* \"#utility.yul\":13635:13766   */\n      tag_173\n      jump\t// in\n    tag_342:\n        /* \"#utility.yul\":13627:13766   */\n      swap1\n      pop\n        /* \"#utility.yul\":13354:13773   */\n      swap2\n      swap1\n      pop\n      jump\t// out\n        /* \"#utility.yul\":13779:13960   */\n    tag_174:\n        /* \"#utility.yul\":13919:13952   */\n      0x45434453413a20696e76616c6964207369676e6174757265206c656e67746800\n        /* \"#utility.yul\":13915:13916   */\n      0x00\n        /* \"#utility.yul\":13907:13913   */\n      dup3\n        /* \"#utility.yul\":13903:13917   */\n      add\n        /* \"#utility.yul\":13896:13953   */\n      mstore\n        /* \"#utility.yul\":13779:13960   */\n      pop\n      jump\t// out\n        /* \"#utility.yul\":13966:14332   */\n    tag_175:\n        /* \"#utility.yul\":14108:14111   */\n      0x00\n        /* \"#utility.yul\":14129:14196   */\n      tag_345\n        /* \"#utility.yul\":14193:14195   */\n      0x1f\n        /* \"#utility.yul\":14188:14191   */\n      dup4\n        /* \"#utility.yul\":14129:14196   */\n      tag_168\n      jump\t// in\n    tag_345:\n        /* \"#utility.yul\":14122:14196   */\n      swap2\n      pop\n        /* \"#utility.yul\":14205:14298   */\n      tag_346\n        /* \"#utility.yul\":14294:14297   */\n      dup3\n        /* \"#utility.yul\":14205:14298   */\n      tag_174\n      jump\t// in\n    tag_346:\n        /* \"#utility.yul\":14323:14325   */\n      0x20\n        /* \"#utility.yul\":14318:14321   */\n      dup3\n        /* \"#utility.yul\":14314:14326   */\n      add\n        /* \"#utility.yul\":14307:14326   */\n      swap1\n      pop\n        /* \"#utility.yul\":13966:14332   */\n      swap2\n      swap1\n      pop\n      jump\t// out\n        /* \"#utility.yul\":14338:14757   */\n    tag_112:\n        /* \"#utility.yul\":14504:14508   */\n      0x00\n        /* \"#utility.yul\":14542:14544   */\n      0x20\n        /* \"#utility.yul\":14531:14540   */\n      dup3\n        /* \"#utility.yul\":14527:14545   */\n      add\n        /* \"#utility.yul\":14519:14545   */\n      swap1\n      pop\n        /* \"#utility.yul\":14591:14600   */\n      dup2\n        /* \"#utility.yul\":14585:14589   */\n      dup2\n        /* \"#utility.yul\":14581:14601   */\n      sub\n        /* \"#utility.yul\":14577:14578   */\n      0x00\n        /* \"#utility.yul\":14566:14575   */\n      dup4\n        /* \"#utility.yul\":14562:14579   */\n      add\n        /* \"#utility.yul\":14555:14602   */\n      mstore\n        /* \"#utility.yul\":14619:14750   */\n      tag_348\n        /* \"#utility.yul\":14745:14749   */\n      dup2\n        /* \"#utility.yul\":14619:14750   */\n      tag_175\n      jump\t// in\n    tag_348:\n        /* \"#utility.yul\":14611:14750   */\n      swap1\n      pop\n        /* \"#utility.yul\":14338:14757   */\n      swap2\n      swap1\n      pop\n      jump\t// out\n        /* \"#utility.yul\":14763:14984   */\n    tag_176:\n        /* \"#utility.yul\":14903:14937   */\n      0x45434453413a20696e76616c6964207369676e6174757265202773272076616c\n        /* \"#utility.yul\":14899:14900   */\n      0x00\n        /* \"#utility.yul\":14891:14897   */\n      dup3\n        /* \"#utility.yul\":14887:14901   */\n      add\n        /* \"#utility.yul\":14880:14938   */\n      mstore\n        /* \"#utility.yul\":14972:14976   */\n      0x7565000000000000000000000000000000000000000000000000000000000000\n        /* \"#utility.yul\":14967:14969   */\n      0x20\n        /* \"#utility.yul\":14959:14965   */\n      dup3\n        /* \"#utility.yul\":14955:14970   */\n      add\n        /* \"#utility.yul\":14948:14977   */\n      mstore\n        /* \"#utility.yul\":14763:14984   */\n      pop\n      jump\t// out\n        /* \"#utility.yul\":14990:15356   */\n    tag_177:\n        /* \"#utility.yul\":15132:15135   */\n      0x00\n        /* \"#utility.yul\":15153:15220   */\n      tag_351\n        /* \"#utility.yul\":15217:15219   */\n      0x22\n        /* \"#utility.yul\":15212:15215   */\n      dup4\n        /* \"#utility.yul\":15153:15220   */\n      tag_168\n      jump\t// in\n    tag_351:\n        /* \"#utility.yul\":15146:15220   */\n      swap2\n      pop\n        /* \"#utility.yul\":15229:15322   */\n      tag_352\n        /* \"#utility.yul\":15318:15321   */\n      dup3\n        /* \"#utility.yul\":15229:15322   */\n      tag_176\n      jump\t// in\n    tag_352:\n        /* \"#utility.yul\":15347:15349   */\n      0x40\n        /* \"#utility.yul\":15342:15345   */\n      dup3\n        /* \"#utility.yul\":15338:15350   */\n      add\n        /* \"#utility.yul\":15331:15350   */\n      swap1\n      pop\n        /* \"#utility.yul\":14990:15356   */\n      swap2\n      swap1\n      pop\n      jump\t// out\n        /* \"#utility.yul\":15362:15781   */\n    tag_120:\n        /* \"#utility.yul\":15528:15532   */\n      0x00\n        /* \"#utility.yul\":15566:15568   */\n      0x20\n        /* \"#utility.yul\":15555:15564   */\n      dup3\n        /* \"#utility.yul\":15551:15569   */\n      add\n        /* \"#utility.yul\":15543:15569   */\n      swap1\n      pop\n        /* \"#utility.yul\":15615:15624   */\n      dup2\n        /* \"#utility.yul\":15609:15613   */\n      dup2\n        /* \"#utility.yul\":15605:15625   */\n      sub\n        /* \"#utility.yul\":15601:15602   */\n      0x00\n        /* \"#utility.yul\":15590:15599   */\n      dup4\n        /* \"#utility.yul\":15586:15603   */\n      add\n        /* \"#utility.yul\":15579:15626   */\n      mstore\n        /* \"#utility.yul\":15643:15774   */\n      tag_354\n        /* \"#utility.yul\":15769:15773   */\n      dup2\n        /* \"#utility.yul\":15643:15774   */\n      tag_177\n      jump\t// in\n    tag_354:\n        /* \"#utility.yul\":15635:15774   */\n      swap1\n      pop\n        /* \"#utility.yul\":15362:15781   */\n      swap2\n      swap1\n      pop\n      jump\t// out\n        /* \"#utility.yul\":15787:15864   */\n    tag_178:\n        /* \"#utility.yul\":15824:15831   */\n      0x00\n        /* \"#utility.yul\":15853:15858   */\n      dup2\n        /* \"#utility.yul\":15842:15858   */\n      swap1\n      pop\n        /* \"#utility.yul\":15787:15864   */\n      swap2\n      swap1\n      pop\n      jump\t// out\n        /* \"#utility.yul\":15870:15988   */\n    tag_179:\n        /* \"#utility.yul\":15957:15981   */\n      tag_357\n        /* \"#utility.yul\":15975:15980   */\n      dup2\n        /* \"#utility.yul\":15957:15981   */\n      tag_178\n      jump\t// in\n    tag_357:\n        /* \"#utility.yul\":15952:15955   */\n      dup3\n        /* \"#utility.yul\":15945:15982   */\n      mstore\n        /* \"#utility.yul\":15870:15988   */\n      pop\n      pop\n      jump\t// out\n        /* \"#utility.yul\":15994:16080   */\n    tag_180:\n        /* \"#utility.yul\":16029:16036   */\n      0x00\n        /* \"#utility.yul\":16069:16073   */\n      0xff\n        /* \"#utility.yul\":16062:16067   */\n      dup3\n        /* \"#utility.yul\":16058:16074   */\n      and\n        /* \"#utility.yul\":16047:16074   */\n      swap1\n      pop\n        /* \"#utility.yul\":15994:16080   */\n      swap2\n      swap1\n      pop\n      jump\t// out\n        /* \"#utility.yul\":16086:16198   */\n    tag_181:\n        /* \"#utility.yul\":16169:16191   */\n      tag_360\n        /* \"#utility.yul\":16185:16190   */\n      dup2\n        /* \"#utility.yul\":16169:16191   */\n      tag_180\n      jump\t// in\n    tag_360:\n        /* \"#utility.yul\":16164:16167   */\n      dup3\n        /* \"#utility.yul\":16157:16192   */\n      mstore\n        /* \"#utility.yul\":16086:16198   */\n      pop\n      pop\n      jump\t// out\n        /* \"#utility.yul\":16204:16749   */\n    tag_124:\n        /* \"#utility.yul\":16377:16381   */\n      0x00\n        /* \"#utility.yul\":16415:16418   */\n      0x80\n        /* \"#utility.yul\":16404:16413   */\n      dup3\n        /* \"#utility.yul\":16400:16419   */\n      add\n        /* \"#utility.yul\":16392:16419   */\n      swap1\n      pop\n        /* \"#utility.yul\":16429:16500   */\n      tag_362\n        /* \"#utility.yul\":16497:16498   */\n      0x00\n        /* \"#utility.yul\":16486:16495   */\n      dup4\n        /* \"#utility.yul\":16482:16499   */\n      add\n        /* \"#utility.yul\":16473:16479   */\n      dup8\n        /* \"#utility.yul\":16429:16500   */\n      tag_179\n      jump\t// in\n    tag_362:\n        /* \"#utility.yul\":16510:16578   */\n      tag_363\n        /* \"#utility.yul\":16574:16576   */\n      0x20\n        /* \"#utility.yul\":16563:16572   */\n      dup4\n        /* \"#utility.yul\":16559:16577   */\n      add\n        /* \"#utility.yul\":16550:16556   */\n      dup7\n        /* \"#utility.yul\":16510:16578   */\n      tag_181\n      jump\t// in\n    tag_363:\n        /* \"#utility.yul\":16588:16660   */\n      tag_364\n        /* \"#utility.yul\":16656:16658   */\n      0x40\n        /* \"#utility.yul\":16645:16654   */\n      dup4\n        /* \"#utility.yul\":16641:16659   */\n      add\n        /* \"#utility.yul\":16632:16638   */\n      dup6\n        /* \"#utility.yul\":16588:16660   */\n      tag_179\n      jump\t// in\n    tag_364:\n        /* \"#utility.yul\":16670:16742   */\n      tag_365\n        /* \"#utility.yul\":16738:16740   */\n      0x60\n        /* \"#utility.yul\":16727:16736   */\n      dup4\n        /* \"#utility.yul\":16723:16741   */\n      add\n        /* \"#utility.yul\":16714:16720   */\n      dup5\n        /* \"#utility.yul\":16670:16742   */\n      tag_179\n      jump\t// in\n    tag_365:\n        /* \"#utility.yul\":16204:16749   */\n      swap6\n      swap5\n      pop\n      pop\n      pop\n      pop\n      pop\n      jump\t// out\n\n    auxdata: 0xa2646970667358221220039077ecb310852b959c284ebf40d6169ef75f2ba59fa58fb6a972e1cef67a1c64736f6c63430008110033\n}\n",
				"bytecode": {
					"linkReferences": {},
					"object": "6080604052600080556169786001556003600255600060035534801561002457600080fd5b50611038806100346000396000f3fe608060405234801561001057600080fd5b506004361061007d5760003560e01c80635fdf05d71161005b5780635fdf05d7146100ec5780638a4986e91461010a578063c50313311461013a578063ca61cdac146101445761007d565b80633ba4d8de146100825780634ec85838146100b257806352ac6c76146100ce575b600080fd5b61009c60048036038101906100979190610942565b61014e565b6040516100a99190610a10565b60405180910390f35b6100cc60048036038101906100c79190610a65565b6101c2565b005b6100d66101e6565b6040516100e39190610ab4565b60405180910390f35b6100f461030a565b6040516101019190610ab4565b60405180910390f35b610124600480360381019061011f9190610acf565b610310565b6040516101319190610ab4565b60405180910390f35b610142610328565b005b61014c61037c565b005b60008085858560405160200161016693929190610bd6565b6040516020818303038152906040528051906020012090508673ffffffffffffffffffffffffffffffffffffffff1661019f828561039b565b73ffffffffffffffffffffffffffffffffffffffff161491505095945050505050565b80600460008461ffff1661ffff168152602001908152602001600020819055505050565b600080600690506000600190506000600190506000600190505b8361ffff168161ffff1611610286578361ffff168161ffff1610156102545761024d600460008361ffff1661ffff16815260200190815260200160002054846103c290919063ffffffff16565b9250610273565b600460008261ffff1661ffff1681526020019081526020016000205491505b808061027e90610c3e565b915050610200565b5061029c612328836103c290919063ffffffff16565b91506102cc662386f26fc100006102be6103e8846103c290919063ffffffff16565b6103c290919063ffffffff16565b905060006102fe68056bc75e2d631000006102f084866103d890919063ffffffff16565b6103ee90919063ffffffff16565b90508094505050505090565b60015481565b60046020528060005260406000206000915090505481565b600060035460025461033a9190610c68565b1161037a576040517f08c379a000000000000000000000000000000000000000000000000000000000815260040161037190610cf9565b60405180910390fd5b565b61039361697960015461040490919063ffffffff16565b600181905550565b60008060006103aa858561041a565b915091506103b78161046b565b819250505092915050565b600081836103d09190610d19565b905092915050565b600081836103e69190610d5b565b905092915050565b600081836103fc9190610dbe565b905092915050565b600081836104129190610c68565b905092915050565b600080604183510361045b5760008060006020860151925060408601519150606086015160001a905061044f878285856105d1565b94509450505050610464565b60006002915091505b9250929050565b6000600481111561047f5761047e610def565b5b81600481111561049257610491610def565b5b03156105ce57600160048111156104ac576104ab610def565b5b8160048111156104bf576104be610def565b5b036104ff576040517f08c379a00000000000000000000000000000000000000000000000000000000081526004016104f690610e6a565b60405180910390fd5b6002600481111561051357610512610def565b5b81600481111561052657610525610def565b5b03610566576040517f08c379a000000000000000000000000000000000000000000000000000000000815260040161055d90610ed6565b60405180910390fd5b6003600481111561057a57610579610def565b5b81600481111561058d5761058c610def565b5b036105cd576040517f08c379a00000000000000000000000000000000000000000000000000000000081526004016105c490610f68565b60405180910390fd5b5b50565b6000807f7fffffffffffffffffffffffffffffff5d576e7357a4501ddfe92f46681b20a08360001c111561060c5760006003915091506106aa565b6000600187878787604051600081526020016040526040516106319493929190610fbd565b6020604051602081039080840390855afa158015610653573d6000803e3d6000fd5b505050602060405103519050600073ffffffffffffffffffffffffffffffffffffffff168173ffffffffffffffffffffffffffffffffffffffff16036106a1576000600192509250506106aa565b80600092509250505b94509492505050565b6000604051905090565b600080fd5b600080fd5b600073ffffffffffffffffffffffffffffffffffffffff82169050919050565b60006106f2826106c7565b9050919050565b610702816106e7565b811461070d57600080fd5b50565b60008135905061071f816106f9565b92915050565b6000819050919050565b61073881610725565b811461074357600080fd5b50565b6000813590506107558161072f565b92915050565b600080fd5b600080fd5b6000601f19601f8301169050919050565b7f4e487b7100000000000000000000000000000000000000000000000000000000600052604160045260246000fd5b6107ae82610765565b810181811067ffffffffffffffff821117156107cd576107cc610776565b5b80604052505050565b60006107e06106b3565b90506107ec82826107a5565b919050565b600067ffffffffffffffff82111561080c5761080b610776565b5b61081582610765565b9050602081019050919050565b82818337600083830152505050565b600061084461083f846107f1565b6107d6565b9050828152602081018484840111156108605761085f610760565b5b61086b848285610822565b509392505050565b600082601f8301126108885761088761075b565b5b8135610898848260208601610831565b91505092915050565b600067ffffffffffffffff8211156108bc576108bb610776565b5b6108c582610765565b9050602081019050919050565b60006108e56108e0846108a1565b6107d6565b90508281526020810184848401111561090157610900610760565b5b61090c848285610822565b509392505050565b600082601f8301126109295761092861075b565b5b81356109398482602086016108d2565b91505092915050565b600080600080600060a0868803121561095e5761095d6106bd565b5b600061096c88828901610710565b955050602061097d88828901610746565b945050604061098e88828901610710565b935050606086013567ffffffffffffffff8111156109af576109ae6106c2565b5b6109bb88828901610873565b925050608086013567ffffffffffffffff8111156109dc576109db6106c2565b5b6109e888828901610914565b9150509295509295909350565b60008115159050919050565b610a0a816109f5565b82525050565b6000602082019050610a256000830184610a01565b92915050565b600061ffff82169050919050565b610a4281610a2b565b8114610a4d57600080fd5b50565b600081359050610a5f81610a39565b92915050565b60008060408385031215610a7c57610a7b6106bd565b5b6000610a8a85828601610a50565b9250506020610a9b85828601610746565b9150509250929050565b610aae81610725565b82525050565b6000602082019050610ac96000830184610aa5565b92915050565b600060208284031215610ae557610ae46106bd565b5b6000610af384828501610a50565b91505092915050565b6000819050919050565b610b17610b1282610725565b610afc565b82525050565b60008160601b9050919050565b6000610b3582610b1d565b9050919050565b6000610b4782610b2a565b9050919050565b610b5f610b5a826106e7565b610b3c565b82525050565b600081519050919050565b600081905092915050565b60005b83811015610b99578082015181840152602081019050610b7e565b60008484015250505050565b6000610bb082610b65565b610bba8185610b70565b9350610bca818560208601610b7b565b80840191505092915050565b6000610be28286610b06565b602082019150610bf28285610b4e565b601482019150610c028284610ba5565b9150819050949350505050565b7f4e487b7100000000000000000000000000000000000000000000000000000000600052601160045260246000fd5b6000610c4982610a2b565b915061ffff8203610c5d57610c5c610c0f565b5b600182019050919050565b6000610c7382610725565b9150610c7e83610725565b9250828203905081811115610c9657610c95610c0f565b5b92915050565b600082825260208201905092915050565b7f7373737373000000000000000000000000000000000000000000000000000000600082015250565b6000610ce3600583610c9c565b9150610cee82610cad565b602082019050919050565b60006020820190508181036000830152610d1281610cd6565b9050919050565b6000610d2482610725565b9150610d2f83610725565b9250828202610d3d81610725565b91508282048414831517610d5457610d53610c0f565b5b5092915050565b6000610d6682610725565b9150610d7183610725565b9250828201905080821115610d8957610d88610c0f565b5b92915050565b7f4e487b7100000000000000000000000000000000000000000000000000000000600052601260045260246000fd5b6000610dc982610725565b9150610dd483610725565b925082610de457610de3610d8f565b5b828204905092915050565b7f4e487b7100000000000000000000000000000000000000000000000000000000600052602160045260246000fd5b7f45434453413a20696e76616c6964207369676e61747572650000000000000000600082015250565b6000610e54601883610c9c565b9150610e5f82610e1e565b602082019050919050565b60006020820190508181036000830152610e8381610e47565b9050919050565b7f45434453413a20696e76616c6964207369676e6174757265206c656e67746800600082015250565b6000610ec0601f83610c9c565b9150610ecb82610e8a565b602082019050919050565b60006020820190508181036000830152610eef81610eb3565b9050919050565b7f45434453413a20696e76616c6964207369676e6174757265202773272076616c60008201527f7565000000000000000000000000000000000000000000000000000000000000602082015250565b6000610f52602283610c9c565b9150610f5d82610ef6565b604082019050919050565b60006020820190508181036000830152610f8181610f45565b9050919050565b6000819050919050565b610f9b81610f88565b82525050565b600060ff82169050919050565b610fb781610fa1565b82525050565b6000608082019050610fd26000830187610f92565b610fdf6020830186610fae565b610fec6040830185610f92565b610ff96060830184610f92565b9594505050505056fea2646970667358221220039077ecb310852b959c284ebf40d6169ef75f2ba59fa58fb6a972e1cef67a1c64736f6c63430008110033",
					"opcodes": "PUSH1 0x80 PUSH1 0x40 MSTORE PUSH1 0x0 DUP1 SSTORE PUSH2 0x6978 PUSH1 0x1 SSTORE PUSH1 0x3 PUSH1 0x2 SSTORE PUSH1 0x0 PUSH1 0x3 SSTORE CALLVALUE DUP1 ISZERO PUSH2 0x24 JUMPI PUSH1 0x0 DUP1 REVERT JUMPDEST POP PUSH2 0x1038 DUP1 PUSH2 0x34 PUSH1 0x0 CODECOPY PUSH1 0x0 RETURN INVALID PUSH1 0x80 PUSH1 0x40 MSTORE CALLVALUE DUP1 ISZERO PUSH2 0x10 JUMPI PUSH1 0x0 DUP1 REVERT JUMPDEST POP PUSH1 0x4 CALLDATASIZE LT PUSH2 0x7D JUMPI PUSH1 0x0 CALLDATALOAD PUSH1 0xE0 SHR DUP1 PUSH4 0x5FDF05D7 GT PUSH2 0x5B JUMPI DUP1 PUSH4 0x5FDF05D7 EQ PUSH2 0xEC JUMPI DUP1 PUSH4 0x8A4986E9 EQ PUSH2 0x10A JUMPI DUP1 PUSH4 0xC5031331 EQ PUSH2 0x13A JUMPI DUP1 PUSH4 0xCA61CDAC EQ PUSH2 0x144 JUMPI PUSH2 0x7D JUMP JUMPDEST DUP1 PUSH4 0x3BA4D8DE EQ PUSH2 0x82 JUMPI DUP1 PUSH4 0x4EC85838 EQ PUSH2 0xB2 JUMPI DUP1 PUSH4 0x52AC6C76 EQ PUSH2 0xCE JUMPI JUMPDEST PUSH1 0x0 DUP1 REVERT JUMPDEST PUSH2 0x9C PUSH1 0x4 DUP1 CALLDATASIZE SUB DUP2 ADD SWAP1 PUSH2 0x97 SWAP2 SWAP1 PUSH2 0x942 JUMP JUMPDEST PUSH2 0x14E JUMP JUMPDEST PUSH1 0x40 MLOAD PUSH2 0xA9 SWAP2 SWAP1 PUSH2 0xA10 JUMP JUMPDEST PUSH1 0x40 MLOAD DUP1 SWAP2 SUB SWAP1 RETURN JUMPDEST PUSH2 0xCC PUSH1 0x4 DUP1 CALLDATASIZE SUB DUP2 ADD SWAP1 PUSH2 0xC7 SWAP2 SWAP1 PUSH2 0xA65 JUMP JUMPDEST PUSH2 0x1C2 JUMP JUMPDEST STOP JUMPDEST PUSH2 0xD6 PUSH2 0x1E6 JUMP JUMPDEST PUSH1 0x40 MLOAD PUSH2 0xE3 SWAP2 SWAP1 PUSH2 0xAB4 JUMP JUMPDEST PUSH1 0x40 MLOAD DUP1 SWAP2 SUB SWAP1 RETURN JUMPDEST PUSH2 0xF4 PUSH2 0x30A JUMP JUMPDEST PUSH1 0x40 MLOAD PUSH2 0x101 SWAP2 SWAP1 PUSH2 0xAB4 JUMP JUMPDEST PUSH1 0x40 MLOAD DUP1 SWAP2 SUB SWAP1 RETURN JUMPDEST PUSH2 0x124 PUSH1 0x4 DUP1 CALLDATASIZE SUB DUP2 ADD SWAP1 PUSH2 0x11F SWAP2 SWAP1 PUSH2 0xACF JUMP JUMPDEST PUSH2 0x310 JUMP JUMPDEST PUSH1 0x40 MLOAD PUSH2 0x131 SWAP2 SWAP1 PUSH2 0xAB4 JUMP JUMPDEST PUSH1 0x40 MLOAD DUP1 SWAP2 SUB SWAP1 RETURN JUMPDEST PUSH2 0x142 PUSH2 0x328 JUMP JUMPDEST STOP JUMPDEST PUSH2 0x14C PUSH2 0x37C JUMP JUMPDEST STOP JUMPDEST PUSH1 0x0 DUP1 DUP6 DUP6 DUP6 PUSH1 0x40 MLOAD PUSH1 0x20 ADD PUSH2 0x166 SWAP4 SWAP3 SWAP2 SWAP1 PUSH2 0xBD6 JUMP JUMPDEST PUSH1 0x40 MLOAD PUSH1 0x20 DUP2 DUP4 SUB SUB DUP2 MSTORE SWAP1 PUSH1 0x40 MSTORE DUP1 MLOAD SWAP1 PUSH1 0x20 ADD KECCAK256 SWAP1 POP DUP7 PUSH20 0xFFFFFFFFFFFFFFFFFFFFFFFFFFFFFFFFFFFFFFFF AND PUSH2 0x19F DUP3 DUP6 PUSH2 0x39B JUMP JUMPDEST PUSH20 0xFFFFFFFFFFFFFFFFFFFFFFFFFFFFFFFFFFFFFFFF AND EQ SWAP2 POP POP SWAP6 SWAP5 POP POP POP POP POP JUMP JUMPDEST DUP1 PUSH1 0x4 PUSH1 0x0 DUP5 PUSH2 0xFFFF AND PUSH2 0xFFFF AND DUP2 MSTORE PUSH1 0x20 ADD SWAP1 DUP2 MSTORE PUSH1 0x20 ADD PUSH1 0x0 KECCAK256 DUP2 SWAP1 SSTORE POP POP POP JUMP JUMPDEST PUSH1 0x0 DUP1 PUSH1 0x6 SWAP1 POP PUSH1 0x0 PUSH1 0x1 SWAP1 POP PUSH1 0x0 PUSH1 0x1 SWAP1 POP PUSH1 0x0 PUSH1 0x1 SWAP1 POP JUMPDEST DUP4 PUSH2 0xFFFF AND DUP2 PUSH2 0xFFFF AND GT PUSH2 0x286 JUMPI DUP4 PUSH2 0xFFFF AND DUP2 PUSH2 0xFFFF AND LT ISZERO PUSH2 0x254 JUMPI PUSH2 0x24D PUSH1 0x4 PUSH1 0x0 DUP4 PUSH2 0xFFFF AND PUSH2 0xFFFF AND DUP2 MSTORE PUSH1 0x20 ADD SWAP1 DUP2 MSTORE PUSH1 0x20 ADD PUSH1 0x0 KECCAK256 SLOAD DUP5 PUSH2 0x3C2 SWAP1 SWAP2 SWAP1 PUSH4 0xFFFFFFFF AND JUMP JUMPDEST SWAP3 POP PUSH2 0x273 JUMP JUMPDEST PUSH1 0x4 PUSH1 0x0 DUP3 PUSH2 0xFFFF AND PUSH2 0xFFFF AND DUP2 MSTORE PUSH1 0x20 ADD SWAP1 DUP2 MSTORE PUSH1 0x20 ADD PUSH1 0x0 KECCAK256 SLOAD SWAP2 POP JUMPDEST DUP1 DUP1 PUSH2 0x27E SWAP1 PUSH2 0xC3E JUMP JUMPDEST SWAP2 POP POP PUSH2 0x200 JUMP JUMPDEST POP PUSH2 0x29C PUSH2 0x2328 DUP4 PUSH2 0x3C2 SWAP1 SWAP2 SWAP1 PUSH4 0xFFFFFFFF AND JUMP JUMPDEST SWAP2 POP PUSH2 0x2CC PUSH7 0x2386F26FC10000 PUSH2 0x2BE PUSH2 0x3E8 DUP5 PUSH2 0x3C2 SWAP1 SWAP2 SWAP1 PUSH4 0xFFFFFFFF AND JUMP JUMPDEST PUSH2 0x3C2 SWAP1 SWAP2 SWAP1 PUSH4 0xFFFFFFFF AND JUMP JUMPDEST SWAP1 POP PUSH1 0x0 PUSH2 0x2FE PUSH9 0x56BC75E2D63100000 PUSH2 0x2F0 DUP5 DUP7 PUSH2 0x3D8 SWAP1 SWAP2 SWAP1 PUSH4 0xFFFFFFFF AND JUMP JUMPDEST PUSH2 0x3EE SWAP1 SWAP2 SWAP1 PUSH4 0xFFFFFFFF AND JUMP JUMPDEST SWAP1 POP DUP1 SWAP5 POP POP POP POP POP SWAP1 JUMP JUMPDEST PUSH1 0x1 SLOAD DUP2 JUMP JUMPDEST PUSH1 0x4 PUSH1 0x20 MSTORE DUP1 PUSH1 0x0 MSTORE PUSH1 0x40 PUSH1 0x0 KECCAK256 PUSH1 0x0 SWAP2 POP SWAP1 POP SLOAD DUP2 JUMP JUMPDEST PUSH1 0x0 PUSH1 0x3 SLOAD PUSH1 0x2 SLOAD PUSH2 0x33A SWAP2 SWAP1 PUSH2 0xC68 JUMP JUMPDEST GT PUSH2 0x37A JUMPI PUSH1 0x40 MLOAD PUSH32 0x8C379A000000000000000000000000000000000000000000000000000000000 DUP2 MSTORE PUSH1 0x4 ADD PUSH2 0x371 SWAP1 PUSH2 0xCF9 JUMP JUMPDEST PUSH1 0x40 MLOAD DUP1 SWAP2 SUB SWAP1 REVERT JUMPDEST JUMP JUMPDEST PUSH2 0x393 PUSH2 0x6979 PUSH1 0x1 SLOAD PUSH2 0x404 SWAP1 SWAP2 SWAP1 PUSH4 0xFFFFFFFF AND JUMP JUMPDEST PUSH1 0x1 DUP2 SWAP1 SSTORE POP JUMP JUMPDEST PUSH1 0x0 DUP1 PUSH1 0x0 PUSH2 0x3AA DUP6 DUP6 PUSH2 0x41A JUMP JUMPDEST SWAP2 POP SWAP2 POP PUSH2 0x3B7 DUP2 PUSH2 0x46B JUMP JUMPDEST DUP2 SWAP3 POP POP POP SWAP3 SWAP2 POP POP JUMP JUMPDEST PUSH1 0x0 DUP2 DUP4 PUSH2 0x3D0 SWAP2 SWAP1 PUSH2 0xD19 JUMP JUMPDEST SWAP1 POP SWAP3 SWAP2 POP POP JUMP JUMPDEST PUSH1 0x0 DUP2 DUP4 PUSH2 0x3E6 SWAP2 SWAP1 PUSH2 0xD5B JUMP JUMPDEST SWAP1 POP SWAP3 SWAP2 POP POP JUMP JUMPDEST PUSH1 0x0 DUP2 DUP4 PUSH2 0x3FC SWAP2 SWAP1 PUSH2 0xDBE JUMP JUMPDEST SWAP1 POP SWAP3 SWAP2 POP POP JUMP JUMPDEST PUSH1 0x0 DUP2 DUP4 PUSH2 0x412 SWAP2 SWAP1 PUSH2 0xC68 JUMP JUMPDEST SWAP1 POP SWAP3 SWAP2 POP POP JUMP JUMPDEST PUSH1 0x0 DUP1 PUSH1 0x41 DUP4 MLOAD SUB PUSH2 0x45B JUMPI PUSH1 0x0 DUP1 PUSH1 0x0 PUSH1 0x20 DUP7 ADD MLOAD SWAP3 POP PUSH1 0x40 DUP7 ADD MLOAD SWAP2 POP PUSH1 0x60 DUP7 ADD MLOAD PUSH1 0x0 BYTE SWAP1 POP PUSH2 0x44F DUP8 DUP3 DUP6 DUP6 PUSH2 0x5D1 JUMP JUMPDEST SWAP5 POP SWAP5 POP POP POP POP PUSH2 0x464 JUMP JUMPDEST PUSH1 0x0 PUSH1 0x2 SWAP2 POP SWAP2 POP JUMPDEST SWAP3 POP SWAP3 SWAP1 POP JUMP JUMPDEST PUSH1 0x0 PUSH1 0x4 DUP2 GT ISZERO PUSH2 0x47F JUMPI PUSH2 0x47E PUSH2 0xDEF JUMP JUMPDEST JUMPDEST DUP2 PUSH1 0x4 DUP2 GT ISZERO PUSH2 0x492 JUMPI PUSH2 0x491 PUSH2 0xDEF JUMP JUMPDEST JUMPDEST SUB ISZERO PUSH2 0x5CE JUMPI PUSH1 0x1 PUSH1 0x4 DUP2 GT ISZERO PUSH2 0x4AC JUMPI PUSH2 0x4AB PUSH2 0xDEF JUMP JUMPDEST JUMPDEST DUP2 PUSH1 0x4 DUP2 GT ISZERO PUSH2 0x4BF JUMPI PUSH2 0x4BE PUSH2 0xDEF JUMP JUMPDEST JUMPDEST SUB PUSH2 0x4FF JUMPI PUSH1 0x40 MLOAD PUSH32 0x8C379A000000000000000000000000000000000000000000000000000000000 DUP2 MSTORE PUSH1 0x4 ADD PUSH2 0x4F6 SWAP1 PUSH2 0xE6A JUMP JUMPDEST PUSH1 0x40 MLOAD DUP1 SWAP2 SUB SWAP1 REVERT JUMPDEST PUSH1 0x2 PUSH1 0x4 DUP2 GT ISZERO PUSH2 0x513 JUMPI PUSH2 0x512 PUSH2 0xDEF JUMP JUMPDEST JUMPDEST DUP2 PUSH1 0x4 DUP2 GT ISZERO PUSH2 0x526 JUMPI PUSH2 0x525 PUSH2 0xDEF JUMP JUMPDEST JUMPDEST SUB PUSH2 0x566 JUMPI PUSH1 0x40 MLOAD PUSH32 0x8C379A000000000000000000000000000000000000000000000000000000000 DUP2 MSTORE PUSH1 0x4 ADD PUSH2 0x55D SWAP1 PUSH2 0xED6 JUMP JUMPDEST PUSH1 0x40 MLOAD DUP1 SWAP2 SUB SWAP1 REVERT JUMPDEST PUSH1 0x3 PUSH1 0x4 DUP2 GT ISZERO PUSH2 0x57A JUMPI PUSH2 0x579 PUSH2 0xDEF JUMP JUMPDEST JUMPDEST DUP2 PUSH1 0x4 DUP2 GT ISZERO PUSH2 0x58D JUMPI PUSH2 0x58C PUSH2 0xDEF JUMP JUMPDEST JUMPDEST SUB PUSH2 0x5CD JUMPI PUSH1 0x40 MLOAD PUSH32 0x8C379A000000000000000000000000000000000000000000000000000000000 DUP2 MSTORE PUSH1 0x4 ADD PUSH2 0x5C4 SWAP1 PUSH2 0xF68 JUMP JUMPDEST PUSH1 0x40 MLOAD DUP1 SWAP2 SUB SWAP1 REVERT JUMPDEST JUMPDEST POP JUMP JUMPDEST PUSH1 0x0 DUP1 PUSH32 0x7FFFFFFFFFFFFFFFFFFFFFFFFFFFFFFF5D576E7357A4501DDFE92F46681B20A0 DUP4 PUSH1 0x0 SHR GT ISZERO PUSH2 0x60C JUMPI PUSH1 0x0 PUSH1 0x3 SWAP2 POP SWAP2 POP PUSH2 0x6AA JUMP JUMPDEST PUSH1 0x0 PUSH1 0x1 DUP8 DUP8 DUP8 DUP8 PUSH1 0x40 MLOAD PUSH1 0x0 DUP2 MSTORE PUSH1 0x20 ADD PUSH1 0x40 MSTORE PUSH1 0x40 MLOAD PUSH2 0x631 SWAP5 SWAP4 SWAP3 SWAP2 SWAP1 PUSH2 0xFBD JUMP JUMPDEST PUSH1 0x20 PUSH1 0x40 MLOAD PUSH1 0x20 DUP2 SUB SWAP1 DUP1 DUP5 SUB SWAP1 DUP6 GAS STATICCALL ISZERO DUP1 ISZERO PUSH2 0x653 JUMPI RETURNDATASIZE PUSH1 0x0 DUP1 RETURNDATACOPY RETURNDATASIZE PUSH1 0x0 REVERT JUMPDEST POP POP POP PUSH1 0x20 PUSH1 0x40 MLOAD SUB MLOAD SWAP1 POP PUSH1 0x0 PUSH20 0xFFFFFFFFFFFFFFFFFFFFFFFFFFFFFFFFFFFFFFFF AND DUP2 PUSH20 0xFFFFFFFFFFFFFFFFFFFFFFFFFFFFFFFFFFFFFFFF AND SUB PUSH2 0x6A1 JUMPI PUSH1 0x0 PUSH1 0x1 SWAP3 POP SWAP3 POP POP PUSH2 0x6AA JUMP JUMPDEST DUP1 PUSH1 0x0 SWAP3 POP SWAP3 POP POP JUMPDEST SWAP5 POP SWAP5 SWAP3 POP POP POP JUMP JUMPDEST PUSH1 0x0 PUSH1 0x40 MLOAD SWAP1 POP SWAP1 JUMP JUMPDEST PUSH1 0x0 DUP1 REVERT JUMPDEST PUSH1 0x0 DUP1 REVERT JUMPDEST PUSH1 0x0 PUSH20 0xFFFFFFFFFFFFFFFFFFFFFFFFFFFFFFFFFFFFFFFF DUP3 AND SWAP1 POP SWAP2 SWAP1 POP JUMP JUMPDEST PUSH1 0x0 PUSH2 0x6F2 DUP3 PUSH2 0x6C7 JUMP JUMPDEST SWAP1 POP SWAP2 SWAP1 POP JUMP JUMPDEST PUSH2 0x702 DUP2 PUSH2 0x6E7 JUMP JUMPDEST DUP2 EQ PUSH2 0x70D JUMPI PUSH1 0x0 DUP1 REVERT JUMPDEST POP JUMP JUMPDEST PUSH1 0x0 DUP2 CALLDATALOAD SWAP1 POP PUSH2 0x71F DUP2 PUSH2 0x6F9 JUMP JUMPDEST SWAP3 SWAP2 POP POP JUMP JUMPDEST PUSH1 0x0 DUP2 SWAP1 POP SWAP2 SWAP1 POP JUMP JUMPDEST PUSH2 0x738 DUP2 PUSH2 0x725 JUMP JUMPDEST DUP2 EQ PUSH2 0x743 JUMPI PUSH1 0x0 DUP1 REVERT JUMPDEST POP JUMP JUMPDEST PUSH1 0x0 DUP2 CALLDATALOAD SWAP1 POP PUSH2 0x755 DUP2 PUSH2 0x72F JUMP JUMPDEST SWAP3 SWAP2 POP POP JUMP JUMPDEST PUSH1 0x0 DUP1 REVERT JUMPDEST PUSH1 0x0 DUP1 REVERT JUMPDEST PUSH1 0x0 PUSH1 0x1F NOT PUSH1 0x1F DUP4 ADD AND SWAP1 POP SWAP2 SWAP1 POP JUMP JUMPDEST PUSH32 0x4E487B7100000000000000000000000000000000000000000000000000000000 PUSH1 0x0 MSTORE PUSH1 0x41 PUSH1 0x4 MSTORE PUSH1 0x24 PUSH1 0x0 REVERT JUMPDEST PUSH2 0x7AE DUP3 PUSH2 0x765 JUMP JUMPDEST DUP2 ADD DUP2 DUP2 LT PUSH8 0xFFFFFFFFFFFFFFFF DUP3 GT OR ISZERO PUSH2 0x7CD JUMPI PUSH2 0x7CC PUSH2 0x776 JUMP JUMPDEST JUMPDEST DUP1 PUSH1 0x40 MSTORE POP POP POP JUMP JUMPDEST PUSH1 0x0 PUSH2 0x7E0 PUSH2 0x6B3 JUMP JUMPDEST SWAP1 POP PUSH2 0x7EC DUP3 DUP3 PUSH2 0x7A5 JUMP JUMPDEST SWAP2 SWAP1 POP JUMP JUMPDEST PUSH1 0x0 PUSH8 0xFFFFFFFFFFFFFFFF DUP3 GT ISZERO PUSH2 0x80C JUMPI PUSH2 0x80B PUSH2 0x776 JUMP JUMPDEST JUMPDEST PUSH2 0x815 DUP3 PUSH2 0x765 JUMP JUMPDEST SWAP1 POP PUSH1 0x20 DUP2 ADD SWAP1 POP SWAP2 SWAP1 POP JUMP JUMPDEST DUP3 DUP2 DUP4 CALLDATACOPY PUSH1 0x0 DUP4 DUP4 ADD MSTORE POP POP POP JUMP JUMPDEST PUSH1 0x0 PUSH2 0x844 PUSH2 0x83F DUP5 PUSH2 0x7F1 JUMP JUMPDEST PUSH2 0x7D6 JUMP JUMPDEST SWAP1 POP DUP3 DUP2 MSTORE PUSH1 0x20 DUP2 ADD DUP5 DUP5 DUP5 ADD GT ISZERO PUSH2 0x860 JUMPI PUSH2 0x85F PUSH2 0x760 JUMP JUMPDEST JUMPDEST PUSH2 0x86B DUP5 DUP3 DUP6 PUSH2 0x822 JUMP JUMPDEST POP SWAP4 SWAP3 POP POP POP JUMP JUMPDEST PUSH1 0x0 DUP3 PUSH1 0x1F DUP4 ADD SLT PUSH2 0x888 JUMPI PUSH2 0x887 PUSH2 0x75B JUMP JUMPDEST JUMPDEST DUP2 CALLDATALOAD PUSH2 0x898 DUP5 DUP3 PUSH1 0x20 DUP7 ADD PUSH2 0x831 JUMP JUMPDEST SWAP2 POP POP SWAP3 SWAP2 POP POP JUMP JUMPDEST PUSH1 0x0 PUSH8 0xFFFFFFFFFFFFFFFF DUP3 GT ISZERO PUSH2 0x8BC JUMPI PUSH2 0x8BB PUSH2 0x776 JUMP JUMPDEST JUMPDEST PUSH2 0x8C5 DUP3 PUSH2 0x765 JUMP JUMPDEST SWAP1 POP PUSH1 0x20 DUP2 ADD SWAP1 POP SWAP2 SWAP1 POP JUMP JUMPDEST PUSH1 0x0 PUSH2 0x8E5 PUSH2 0x8E0 DUP5 PUSH2 0x8A1 JUMP JUMPDEST PUSH2 0x7D6 JUMP JUMPDEST SWAP1 POP DUP3 DUP2 MSTORE PUSH1 0x20 DUP2 ADD DUP5 DUP5 DUP5 ADD GT ISZERO PUSH2 0x901 JUMPI PUSH2 0x900 PUSH2 0x760 JUMP JUMPDEST JUMPDEST PUSH2 0x90C DUP5 DUP3 DUP6 PUSH2 0x822 JUMP JUMPDEST POP SWAP4 SWAP3 POP POP POP JUMP JUMPDEST PUSH1 0x0 DUP3 PUSH1 0x1F DUP4 ADD SLT PUSH2 0x929 JUMPI PUSH2 0x928 PUSH2 0x75B JUMP JUMPDEST JUMPDEST DUP2 CALLDATALOAD PUSH2 0x939 DUP5 DUP3 PUSH1 0x20 DUP7 ADD PUSH2 0x8D2 JUMP JUMPDEST SWAP2 POP POP SWAP3 SWAP2 POP POP JUMP JUMPDEST PUSH1 0x0 DUP1 PUSH1 0x0 DUP1 PUSH1 0x0 PUSH1 0xA0 DUP7 DUP9 SUB SLT ISZERO PUSH2 0x95E JUMPI PUSH2 0x95D PUSH2 0x6BD JUMP JUMPDEST JUMPDEST PUSH1 0x0 PUSH2 0x96C DUP9 DUP3 DUP10 ADD PUSH2 0x710 JUMP JUMPDEST SWAP6 POP POP PUSH1 0x20 PUSH2 0x97D DUP9 DUP3 DUP10 ADD PUSH2 0x746 JUMP JUMPDEST SWAP5 POP POP PUSH1 0x40 PUSH2 0x98E DUP9 DUP3 DUP10 ADD PUSH2 0x710 JUMP JUMPDEST SWAP4 POP POP PUSH1 0x60 DUP7 ADD CALLDATALOAD PUSH8 0xFFFFFFFFFFFFFFFF DUP2 GT ISZERO PUSH2 0x9AF JUMPI PUSH2 0x9AE PUSH2 0x6C2 JUMP JUMPDEST JUMPDEST PUSH2 0x9BB DUP9 DUP3 DUP10 ADD PUSH2 0x873 JUMP JUMPDEST SWAP3 POP POP PUSH1 0x80 DUP7 ADD CALLDATALOAD PUSH8 0xFFFFFFFFFFFFFFFF DUP2 GT ISZERO PUSH2 0x9DC JUMPI PUSH2 0x9DB PUSH2 0x6C2 JUMP JUMPDEST JUMPDEST PUSH2 0x9E8 DUP9 DUP3 DUP10 ADD PUSH2 0x914 JUMP JUMPDEST SWAP2 POP POP SWAP3 SWAP6 POP SWAP3 SWAP6 SWAP1 SWAP4 POP JUMP JUMPDEST PUSH1 0x0 DUP2 ISZERO ISZERO SWAP1 POP SWAP2 SWAP1 POP JUMP JUMPDEST PUSH2 0xA0A DUP2 PUSH2 0x9F5 JUMP JUMPDEST DUP3 MSTORE POP POP JUMP JUMPDEST PUSH1 0x0 PUSH1 0x20 DUP3 ADD SWAP1 POP PUSH2 0xA25 PUSH1 0x0 DUP4 ADD DUP5 PUSH2 0xA01 JUMP JUMPDEST SWAP3 SWAP2 POP POP JUMP JUMPDEST PUSH1 0x0 PUSH2 0xFFFF DUP3 AND SWAP1 POP SWAP2 SWAP1 POP JUMP JUMPDEST PUSH2 0xA42 DUP2 PUSH2 0xA2B JUMP JUMPDEST DUP2 EQ PUSH2 0xA4D JUMPI PUSH1 0x0 DUP1 REVERT JUMPDEST POP JUMP JUMPDEST PUSH1 0x0 DUP2 CALLDATALOAD SWAP1 POP PUSH2 0xA5F DUP2 PUSH2 0xA39 JUMP JUMPDEST SWAP3 SWAP2 POP POP JUMP JUMPDEST PUSH1 0x0 DUP1 PUSH1 0x40 DUP4 DUP6 SUB SLT ISZERO PUSH2 0xA7C JUMPI PUSH2 0xA7B PUSH2 0x6BD JUMP JUMPDEST JUMPDEST PUSH1 0x0 PUSH2 0xA8A DUP6 DUP3 DUP7 ADD PUSH2 0xA50 JUMP JUMPDEST SWAP3 POP POP PUSH1 0x20 PUSH2 0xA9B DUP6 DUP3 DUP7 ADD PUSH2 0x746 JUMP JUMPDEST SWAP2 POP POP SWAP3 POP SWAP3 SWAP1 POP JUMP JUMPDEST PUSH2 0xAAE DUP2 PUSH2 0x725 JUMP JUMPDEST DUP3 MSTORE POP POP JUMP JUMPDEST PUSH1 0x0 PUSH1 0x20 DUP3 ADD SWAP1 POP PUSH2 0xAC9 PUSH1 0x0 DUP4 ADD DUP5 PUSH2 0xAA5 JUMP JUMPDEST SWAP3 SWAP2 POP POP JUMP JUMPDEST PUSH1 0x0 PUSH1 0x20 DUP3 DUP5 SUB SLT ISZERO PUSH2 0xAE5 JUMPI PUSH2 0xAE4 PUSH2 0x6BD JUMP JUMPDEST JUMPDEST PUSH1 0x0 PUSH2 0xAF3 DUP5 DUP3 DUP6 ADD PUSH2 0xA50 JUMP JUMPDEST SWAP2 POP POP SWAP3 SWAP2 POP POP JUMP JUMPDEST PUSH1 0x0 DUP2 SWAP1 POP SWAP2 SWAP1 POP JUMP JUMPDEST PUSH2 0xB17 PUSH2 0xB12 DUP3 PUSH2 0x725 JUMP JUMPDEST PUSH2 0xAFC JUMP JUMPDEST DUP3 MSTORE POP POP JUMP JUMPDEST PUSH1 0x0 DUP2 PUSH1 0x60 SHL SWAP1 POP SWAP2 SWAP1 POP JUMP JUMPDEST PUSH1 0x0 PUSH2 0xB35 DUP3 PUSH2 0xB1D JUMP JUMPDEST SWAP1 POP SWAP2 SWAP1 POP JUMP JUMPDEST PUSH1 0x0 PUSH2 0xB47 DUP3 PUSH2 0xB2A JUMP JUMPDEST SWAP1 POP SWAP2 SWAP1 POP JUMP JUMPDEST PUSH2 0xB5F PUSH2 0xB5A DUP3 PUSH2 0x6E7 JUMP JUMPDEST PUSH2 0xB3C JUMP JUMPDEST DUP3 MSTORE POP POP JUMP JUMPDEST PUSH1 0x0 DUP2 MLOAD SWAP1 POP SWAP2 SWAP1 POP JUMP JUMPDEST PUSH1 0x0 DUP2 SWAP1 POP SWAP3 SWAP2 POP POP JUMP JUMPDEST PUSH1 0x0 JUMPDEST DUP4 DUP2 LT ISZERO PUSH2 0xB99 JUMPI DUP1 DUP3 ADD MLOAD DUP2 DUP5 ADD MSTORE PUSH1 0x20 DUP2 ADD SWAP1 POP PUSH2 0xB7E JUMP JUMPDEST PUSH1 0x0 DUP5 DUP5 ADD MSTORE POP POP POP POP JUMP JUMPDEST PUSH1 0x0 PUSH2 0xBB0 DUP3 PUSH2 0xB65 JUMP JUMPDEST PUSH2 0xBBA DUP2 DUP6 PUSH2 0xB70 JUMP JUMPDEST SWAP4 POP PUSH2 0xBCA DUP2 DUP6 PUSH1 0x20 DUP7 ADD PUSH2 0xB7B JUMP JUMPDEST DUP1 DUP5 ADD SWAP2 POP POP SWAP3 SWAP2 POP POP JUMP JUMPDEST PUSH1 0x0 PUSH2 0xBE2 DUP3 DUP7 PUSH2 0xB06 JUMP JUMPDEST PUSH1 0x20 DUP3 ADD SWAP2 POP PUSH2 0xBF2 DUP3 DUP6 PUSH2 0xB4E JUMP JUMPDEST PUSH1 0x14 DUP3 ADD SWAP2 POP PUSH2 0xC02 DUP3 DUP5 PUSH2 0xBA5 JUMP JUMPDEST SWAP2 POP DUP2 SWAP1 POP SWAP5 SWAP4 POP POP POP POP JUMP JUMPDEST PUSH32 0x4E487B7100000000000000000000000000000000000000000000000000000000 PUSH1 0x0 MSTORE PUSH1 0x11 PUSH1 0x4 MSTORE PUSH1 0x24 PUSH1 0x0 REVERT JUMPDEST PUSH1 0x0 PUSH2 0xC49 DUP3 PUSH2 0xA2B JUMP JUMPDEST SWAP2 POP PUSH2 0xFFFF DUP3 SUB PUSH2 0xC5D JUMPI PUSH2 0xC5C PUSH2 0xC0F JUMP JUMPDEST JUMPDEST PUSH1 0x1 DUP3 ADD SWAP1 POP SWAP2 SWAP1 POP JUMP JUMPDEST PUSH1 0x0 PUSH2 0xC73 DUP3 PUSH2 0x725 JUMP JUMPDEST SWAP2 POP PUSH2 0xC7E DUP4 PUSH2 0x725 JUMP JUMPDEST SWAP3 POP DUP3 DUP3 SUB SWAP1 POP DUP2 DUP2 GT ISZERO PUSH2 0xC96 JUMPI PUSH2 0xC95 PUSH2 0xC0F JUMP JUMPDEST JUMPDEST SWAP3 SWAP2 POP POP JUMP JUMPDEST PUSH1 0x0 DUP3 DUP3 MSTORE PUSH1 0x20 DUP3 ADD SWAP1 POP SWAP3 SWAP2 POP POP JUMP JUMPDEST PUSH32 0x7373737373000000000000000000000000000000000000000000000000000000 PUSH1 0x0 DUP3 ADD MSTORE POP JUMP JUMPDEST PUSH1 0x0 PUSH2 0xCE3 PUSH1 0x5 DUP4 PUSH2 0xC9C JUMP JUMPDEST SWAP2 POP PUSH2 0xCEE DUP3 PUSH2 0xCAD JUMP JUMPDEST PUSH1 0x20 DUP3 ADD SWAP1 POP SWAP2 SWAP1 POP JUMP JUMPDEST PUSH1 0x0 PUSH1 0x20 DUP3 ADD SWAP1 POP DUP2 DUP2 SUB PUSH1 0x0 DUP4 ADD MSTORE PUSH2 0xD12 DUP2 PUSH2 0xCD6 JUMP JUMPDEST SWAP1 POP SWAP2 SWAP1 POP JUMP JUMPDEST PUSH1 0x0 PUSH2 0xD24 DUP3 PUSH2 0x725 JUMP JUMPDEST SWAP2 POP PUSH2 0xD2F DUP4 PUSH2 0x725 JUMP JUMPDEST SWAP3 POP DUP3 DUP3 MUL PUSH2 0xD3D DUP2 PUSH2 0x725 JUMP JUMPDEST SWAP2 POP DUP3 DUP3 DIV DUP5 EQ DUP4 ISZERO OR PUSH2 0xD54 JUMPI PUSH2 0xD53 PUSH2 0xC0F JUMP JUMPDEST JUMPDEST POP SWAP3 SWAP2 POP POP JUMP JUMPDEST PUSH1 0x0 PUSH2 0xD66 DUP3 PUSH2 0x725 JUMP JUMPDEST SWAP2 POP PUSH2 0xD71 DUP4 PUSH2 0x725 JUMP JUMPDEST SWAP3 POP DUP3 DUP3 ADD SWAP1 POP DUP1 DUP3 GT ISZERO PUSH2 0xD89 JUMPI PUSH2 0xD88 PUSH2 0xC0F JUMP JUMPDEST JUMPDEST SWAP3 SWAP2 POP POP JUMP JUMPDEST PUSH32 0x4E487B7100000000000000000000000000000000000000000000000000000000 PUSH1 0x0 MSTORE PUSH1 0x12 PUSH1 0x4 MSTORE PUSH1 0x24 PUSH1 0x0 REVERT JUMPDEST PUSH1 0x0 PUSH2 0xDC9 DUP3 PUSH2 0x725 JUMP JUMPDEST SWAP2 POP PUSH2 0xDD4 DUP4 PUSH2 0x725 JUMP JUMPDEST SWAP3 POP DUP3 PUSH2 0xDE4 JUMPI PUSH2 0xDE3 PUSH2 0xD8F JUMP JUMPDEST JUMPDEST DUP3 DUP3 DIV SWAP1 POP SWAP3 SWAP2 POP POP JUMP JUMPDEST PUSH32 0x4E487B7100000000000000000000000000000000000000000000000000000000 PUSH1 0x0 MSTORE PUSH1 0x21 PUSH1 0x4 MSTORE PUSH1 0x24 PUSH1 0x0 REVERT JUMPDEST PUSH32 0x45434453413A20696E76616C6964207369676E61747572650000000000000000 PUSH1 0x0 DUP3 ADD MSTORE POP JUMP JUMPDEST PUSH1 0x0 PUSH2 0xE54 PUSH1 0x18 DUP4 PUSH2 0xC9C JUMP JUMPDEST SWAP2 POP PUSH2 0xE5F DUP3 PUSH2 0xE1E JUMP JUMPDEST PUSH1 0x20 DUP3 ADD SWAP1 POP SWAP2 SWAP1 POP JUMP JUMPDEST PUSH1 0x0 PUSH1 0x20 DUP3 ADD SWAP1 POP DUP2 DUP2 SUB PUSH1 0x0 DUP4 ADD MSTORE PUSH2 0xE83 DUP2 PUSH2 0xE47 JUMP JUMPDEST SWAP1 POP SWAP2 SWAP1 POP JUMP JUMPDEST PUSH32 0x45434453413A20696E76616C6964207369676E6174757265206C656E67746800 PUSH1 0x0 DUP3 ADD MSTORE POP JUMP JUMPDEST PUSH1 0x0 PUSH2 0xEC0 PUSH1 0x1F DUP4 PUSH2 0xC9C JUMP JUMPDEST SWAP2 POP PUSH2 0xECB DUP3 PUSH2 0xE8A JUMP JUMPDEST PUSH1 0x20 DUP3 ADD SWAP1 POP SWAP2 SWAP1 POP JUMP JUMPDEST PUSH1 0x0 PUSH1 0x20 DUP3 ADD SWAP1 POP DUP2 DUP2 SUB PUSH1 0x0 DUP4 ADD MSTORE PUSH2 0xEEF DUP2 PUSH2 0xEB3 JUMP JUMPDEST SWAP1 POP SWAP2 SWAP1 POP JUMP JUMPDEST PUSH32 0x45434453413A20696E76616C6964207369676E6174757265202773272076616C PUSH1 0x0 DUP3 ADD MSTORE PUSH32 0x7565000000000000000000000000000000000000000000000000000000000000 PUSH1 0x20 DUP3 ADD MSTORE POP JUMP JUMPDEST PUSH1 0x0 PUSH2 0xF52 PUSH1 0x22 DUP4 PUSH2 0xC9C JUMP JUMPDEST SWAP2 POP PUSH2 0xF5D DUP3 PUSH2 0xEF6 JUMP JUMPDEST PUSH1 0x40 DUP3 ADD SWAP1 POP SWAP2 SWAP1 POP JUMP JUMPDEST PUSH1 0x0 PUSH1 0x20 DUP3 ADD SWAP1 POP DUP2 DUP2 SUB PUSH1 0x0 DUP4 ADD MSTORE PUSH2 0xF81 DUP2 PUSH2 0xF45 JUMP JUMPDEST SWAP1 POP SWAP2 SWAP1 POP JUMP JUMPDEST PUSH1 0x0 DUP2 SWAP1 POP SWAP2 SWAP1 POP JUMP JUMPDEST PUSH2 0xF9B DUP2 PUSH2 0xF88 JUMP JUMPDEST DUP3 MSTORE POP POP JUMP JUMPDEST PUSH1 0x0 PUSH1 0xFF DUP3 AND SWAP1 POP SWAP2 SWAP1 POP JUMP JUMPDEST PUSH2 0xFB7 DUP2 PUSH2 0xFA1 JUMP JUMPDEST DUP3 MSTORE POP POP JUMP JUMPDEST PUSH1 0x0 PUSH1 0x80 DUP3 ADD SWAP1 POP PUSH2 0xFD2 PUSH1 0x0 DUP4 ADD DUP8 PUSH2 0xF92 JUMP JUMPDEST PUSH2 0xFDF PUSH1 0x20 DUP4 ADD DUP7 PUSH2 0xFAE JUMP JUMPDEST PUSH2 0xFEC PUSH1 0x40 DUP4 ADD DUP6 PUSH2 0xF92 JUMP JUMPDEST PUSH2 0xFF9 PUSH1 0x60 DUP4 ADD DUP5 PUSH2 0xF92 JUMP JUMPDEST SWAP6 SWAP5 POP POP POP POP POP JUMP INVALID LOG2 PUSH5 0x6970667358 0x22 SLT KECCAK256 SUB SWAP1 PUSH24 0xECB310852B959C284EBF40D6169EF75F2BA59FA58FB6A972 0xE1 0xCE 0xF6 PUSH27 0x1C64736F6C63430008110033000000000000000000000000000000 "
				},
				"gasEstimates": {
					"creation": {
						"codeDepositCost": "830400",
						"executionCost": "55088",
						"totalCost": "885488"
					},
					"external": {
						"_checkSign(address,uint256,address,string,bytes)": "infinite",
						"addDeviceComputePowerData(uint16,uint256)": "22812",
						"computePowerValue()": "infinite",
						"condition()": "infinite",
						"deviceComputePowerData(uint16)": "2793",
						"testSub()": "infinite",
						"two()": "2429"
					}
				},
				"methodIdentifiers": {
					"_checkSign(address,uint256,address,string,bytes)": "3ba4d8de",
					"addDeviceComputePowerData(uint16,uint256)": "4ec85838",
					"computePowerValue()": "52ac6c76",
					"condition()": "c5031331",
					"deviceComputePowerData(uint16)": "8a4986e9",
					"testSub()": "ca61cdac",
					"two()": "5fdf05d7"
				}
			},
			"storageLayout": {
				"storage": [
					{
						"astId": 3262,
						"contract": "contracts/test.sol:test",
						"label": "one",
						"offset": 0,
						"slot": "0",
						"type": "t_uint256"
					},
					{
						"astId": 3265,
						"contract": "contracts/test.sol:test",
						"label": "two",
						"offset": 0,
						"slot": "1",
						"type": "t_uint256"
					},
					{
						"astId": 3268,
						"contract": "contracts/test.sol:test",
						"label": "three",
						"offset": 0,
						"slot": "2",
						"type": "t_uint256"
					},
					{
						"astId": 3271,
						"contract": "contracts/test.sol:test",
						"label": "res",
						"offset": 0,
						"slot": "3",
						"type": "t_uint256"
					},
					{
						"astId": 3275,
						"contract": "contracts/test.sol:test",
						"label": "deviceComputePowerData",
						"offset": 0,
						"slot": "4",
						"type": "t_mapping(t_uint16,t_uint256)"
					}
				],
				"types": {
					"t_mapping(t_uint16,t_uint256)": {
						"encoding": "mapping",
						"key": "t_uint16",
						"label": "mapping(uint16 => uint256)",
						"numberOfBytes": "32",
						"value": "t_uint256"
					},
					"t_uint16": {
						"encoding": "inplace",
						"label": "uint16",
						"numberOfBytes": "2"
					},
					"t_uint256": {
						"encoding": "inplace",
						"label": "uint256",
						"numberOfBytes": "32"
					}
				}
			},
			"userdoc": {
				"kind": "user",
				"methods": {},
				"version": 1
			}
		}
	}
}