{
	"contracts/ERC721Attr.sol": {
		"Bytes": {
			"abi": [
				{
					"inputs": [
						{
							"internalType": "bytes",
							"name": "signedString",
							"type": "bytes"
						},
						{
							"internalType": "string",
							"name": "d",
							"type": "string"
						}
					],
					"name": "Decode",
					"outputs": [
						{
							"internalType": "address",
							"name": "",
							"type": "address"
						}
					],
					"stateMutability": "pure",
					"type": "function"
				}
			],
			"devdoc": {
				"kind": "dev",
				"methods": {},
				"version": 1
			},
			"evm": {
				"assembly": "    /* \"contracts/ERC721Attr.sol\":192:1807  library Bytes {... */\n  dataSize(sub_0)\n  dataOffset(sub_0)\n  0x0b\n  dup3\n  dup3\n  dup3\n  codecopy\n  dup1\n  mload\n  0x00\n  byte\n  0x73\n  eq\n  tag_1\n  jumpi\n  mstore(0x00, 0x4e487b7100000000000000000000000000000000000000000000000000000000)\n  mstore(0x04, 0x00)\n  revert(0x00, 0x24)\ntag_1:\n  mstore(0x00, address)\n  0x73\n  dup2\n  mstore8\n  dup3\n  dup2\n  return\nstop\n\nsub_0: assembly {\n        /* \"contracts/ERC721Attr.sol\":192:1807  library Bytes {... */\n      eq(address, deployTimeAddress())\n      mstore(0x40, 0x80)\n      jumpi(tag_1, lt(calldatasize, 0x04))\n      shr(0xe0, calldataload(0x00))\n      dup1\n      0xdfe223d0\n      eq\n      tag_2\n      jumpi\n    tag_1:\n      0x00\n      dup1\n      revert\n        /* \"contracts/ERC721Attr.sol\":771:1137  function Decode(bytes memory signedString, string memory d) public pure returns (address){... */\n    tag_2:\n      tag_3\n      0x04\n      dup1\n      calldatasize\n      sub\n      dup2\n      add\n      swap1\n      tag_4\n      swap2\n      swap1\n      tag_5\n      jump\t// in\n    tag_4:\n      tag_6\n      jump\t// in\n    tag_3:\n      mload(0x40)\n      tag_7\n      swap2\n      swap1\n      tag_8\n      jump\t// in\n    tag_7:\n      mload(0x40)\n      dup1\n      swap2\n      sub\n      swap1\n      return\n    tag_6:\n        /* \"contracts/ERC721Attr.sol\":852:859  address */\n      0x00\n        /* \"contracts/ERC721Attr.sol\":870:879  bytes32 r */\n      dup1\n        /* \"contracts/ERC721Attr.sol\":882:924  bytesToBytes32(slice(signedString, 0, 32)) */\n      tag_10\n        /* \"contracts/ERC721Attr.sol\":897:923  slice(signedString, 0, 32) */\n      tag_11\n        /* \"contracts/ERC721Attr.sol\":903:915  signedString */\n      dup6\n        /* \"contracts/ERC721Attr.sol\":917:918  0 */\n      0x00\n        /* \"contracts/ERC721Attr.sol\":920:922  32 */\n      0x20\n        /* \"contracts/ERC721Attr.sol\":897:902  slice */\n      tag_12\n        /* \"contracts/ERC721Attr.sol\":897:923  slice(signedString, 0, 32) */\n      jump\t// in\n    tag_11:\n        /* \"contracts/ERC721Attr.sol\":882:896  bytesToBytes32 */\n      tag_13\n        /* \"contracts/ERC721Attr.sol\":882:924  bytesToBytes32(slice(signedString, 0, 32)) */\n      jump\t// in\n    tag_10:\n        /* \"contracts/ERC721Attr.sol\":870:924  bytes32 r = bytesToBytes32(slice(signedString, 0, 32)) */\n      swap1\n      pop\n        /* \"contracts/ERC721Attr.sol\":934:943  bytes32 s */\n      0x00\n        /* \"contracts/ERC721Attr.sol\":946:989  bytesToBytes32(slice(signedString, 32, 32)) */\n      tag_14\n        /* \"contracts/ERC721Attr.sol\":961:988  slice(signedString, 32, 32) */\n      tag_15\n        /* \"contracts/ERC721Attr.sol\":967:979  signedString */\n      dup7\n        /* \"contracts/ERC721Attr.sol\":981:983  32 */\n      0x20\n        /* \"contracts/ERC721Attr.sol\":985:987  32 */\n      dup1\n        /* \"contracts/ERC721Attr.sol\":961:966  slice */\n      tag_12\n        /* \"contracts/ERC721Attr.sol\":961:988  slice(signedString, 32, 32) */\n      jump\t// in\n    tag_15:\n        /* \"contracts/ERC721Attr.sol\":946:960  bytesToBytes32 */\n      tag_13\n        /* \"contracts/ERC721Attr.sol\":946:989  bytesToBytes32(slice(signedString, 32, 32)) */\n      jump\t// in\n    tag_14:\n        /* \"contracts/ERC721Attr.sol\":934:989  bytes32 s = bytesToBytes32(slice(signedString, 32, 32)) */\n      swap1\n      pop\n        /* \"contracts/ERC721Attr.sol\":999:1006  uint8 v */\n      0x00\n        /* \"contracts/ERC721Attr.sol\":1015:1027  signedString */\n      dup6\n        /* \"contracts/ERC721Attr.sol\":1028:1030  64 */\n      0x40\n        /* \"contracts/ERC721Attr.sol\":1015:1031  signedString[64] */\n      dup2\n      mload\n      dup2\n      lt\n      tag_16\n      jumpi\n      tag_17\n      tag_18\n      jump\t// in\n    tag_17:\n    tag_16:\n      0x20\n      add\n      add\n      mload\n      0xf8\n      shr\n      0xf8\n      shl\n        /* \"contracts/ERC721Attr.sol\":1009:1032  uint8(signedString[64]) */\n      0xf8\n      shr\n        /* \"contracts/ERC721Attr.sol\":999:1032  uint8 v = uint8(signedString[64]) */\n      swap1\n      pop\n        /* \"contracts/ERC721Attr.sol\":1042:1052  bytes32 dd */\n      0x00\n        /* \"contracts/ERC721Attr.sol\":1082:1083  d */\n      dup6\n        /* \"contracts/ERC721Attr.sol\":1065:1084  abi.encodePacked(d) */\n      add(0x20, mload(0x40))\n      tag_19\n      swap2\n      swap1\n      tag_20\n      jump\t// in\n    tag_19:\n      mload(0x40)\n      0x20\n      dup2\n      dup4\n      sub\n      sub\n      dup2\n      mstore\n      swap1\n      0x40\n      mstore\n        /* \"contracts/ERC721Attr.sol\":1055:1085  keccak256(abi.encodePacked(d)) */\n      dup1\n      mload\n      swap1\n      0x20\n      add\n      keccak256\n        /* \"contracts/ERC721Attr.sol\":1042:1085  bytes32 dd = keccak256(abi.encodePacked(d)) */\n      swap1\n      pop\n        /* \"contracts/ERC721Attr.sol\":1102:1130  ecrecoverDecode(r, s, v, dd) */\n      tag_21\n        /* \"contracts/ERC721Attr.sol\":1118:1119  r */\n      dup5\n        /* \"contracts/ERC721Attr.sol\":1121:1122  s */\n      dup5\n        /* \"contracts/ERC721Attr.sol\":1124:1125  v */\n      dup5\n        /* \"contracts/ERC721Attr.sol\":1127:1129  dd */\n      dup5\n        /* \"contracts/ERC721Attr.sol\":1102:1117  ecrecoverDecode */\n      tag_22\n        /* \"contracts/ERC721Attr.sol\":1102:1130  ecrecoverDecode(r, s, v, dd) */\n      jump\t// in\n    tag_21:\n        /* \"contracts/ERC721Attr.sol\":1095:1130  return ecrecoverDecode(r, s, v, dd) */\n      swap5\n      pop\n      pop\n      pop\n      pop\n      pop\n        /* \"contracts/ERC721Attr.sol\":771:1137  function Decode(bytes memory signedString, string memory d) public pure returns (address){... */\n      swap3\n      swap2\n      pop\n      pop\n      jump\t// out\n        /* \"contracts/ERC721Attr.sol\":1143:1388  function slice(bytes memory data, uint start, uint len) internal pure returns (bytes memory){... */\n    tag_12:\n        /* \"contracts/ERC721Attr.sol\":1222:1234  bytes memory */\n      0x60\n        /* \"contracts/ERC721Attr.sol\":1245:1259  bytes memory b */\n      0x00\n        /* \"contracts/ERC721Attr.sol\":1272:1275  len */\n      dup3\n        /* \"contracts/ERC721Attr.sol\":1262:1276  new bytes(len) */\n      0xffffffffffffffff\n      dup2\n      gt\n      iszero\n      tag_24\n      jumpi\n      tag_25\n      tag_26\n      jump\t// in\n    tag_25:\n    tag_24:\n      mload(0x40)\n      swap1\n      dup1\n      dup3\n      mstore\n      dup1\n      0x1f\n      add\n      not(0x1f)\n      and\n      0x20\n      add\n      dup3\n      add\n      0x40\n      mstore\n      dup1\n      iszero\n      tag_27\n      jumpi\n      dup2\n      0x20\n      add\n      0x01\n      dup3\n      mul\n      dup1\n      calldatasize\n      dup4\n      calldatacopy\n      dup1\n      dup3\n      add\n      swap2\n      pop\n      pop\n      swap1\n      pop\n    tag_27:\n      pop\n        /* \"contracts/ERC721Attr.sol\":1245:1276  bytes memory b = new bytes(len) */\n      swap1\n      pop\n        /* \"contracts/ERC721Attr.sol\":1291:1297  uint i */\n      0x00\n        /* \"contracts/ERC721Attr.sol\":1286:1364  for (uint i = 0; i < len; i++) {... */\n    tag_28:\n        /* \"contracts/ERC721Attr.sol\":1307:1310  len */\n      dup4\n        /* \"contracts/ERC721Attr.sol\":1303:1304  i */\n      dup2\n        /* \"contracts/ERC721Attr.sol\":1303:1310  i < len */\n      lt\n        /* \"contracts/ERC721Attr.sol\":1286:1364  for (uint i = 0; i < len; i++) {... */\n      iszero\n      tag_29\n      jumpi\n        /* \"contracts/ERC721Attr.sol\":1338:1342  data */\n      dup6\n        /* \"contracts/ERC721Attr.sol\":1347:1352  start */\n      dup6\n        /* \"contracts/ERC721Attr.sol\":1343:1344  i */\n      dup3\n        /* \"contracts/ERC721Attr.sol\":1343:1352  i + start */\n      tag_31\n      swap2\n      swap1\n      tag_32\n      jump\t// in\n    tag_31:\n        /* \"contracts/ERC721Attr.sol\":1338:1353  data[i + start] */\n      dup2\n      mload\n      dup2\n      lt\n      tag_33\n      jumpi\n      tag_34\n      tag_18\n      jump\t// in\n    tag_34:\n    tag_33:\n      0x20\n      add\n      add\n      mload\n      0xf8\n      shr\n      0xf8\n      shl\n        /* \"contracts/ERC721Attr.sol\":1331:1332  b */\n      dup3\n        /* \"contracts/ERC721Attr.sol\":1333:1334  i */\n      dup3\n        /* \"contracts/ERC721Attr.sol\":1331:1335  b[i] */\n      dup2\n      mload\n      dup2\n      lt\n      tag_35\n      jumpi\n      tag_36\n      tag_18\n      jump\t// in\n    tag_36:\n    tag_35:\n      0x20\n      add\n      add\n        /* \"contracts/ERC721Attr.sol\":1331:1353  b[i] = data[i + start] */\n      swap1\n      not(0xffffffffffffffffffffffffffffffffffffffffffffffffffffffffffffff)\n      and\n      swap1\n      dup2\n      0x00\n      byte\n      swap1\n      mstore8\n      pop\n        /* \"contracts/ERC721Attr.sol\":1312:1315  i++ */\n      dup1\n      dup1\n      tag_37\n      swap1\n      tag_38\n      jump\t// in\n    tag_37:\n      swap2\n      pop\n      pop\n        /* \"contracts/ERC721Attr.sol\":1286:1364  for (uint i = 0; i < len; i++) {... */\n      jump(tag_28)\n    tag_29:\n      pop\n        /* \"contracts/ERC721Attr.sol\":1380:1381  b */\n      dup1\n        /* \"contracts/ERC721Attr.sol\":1373:1381  return b */\n      swap2\n      pop\n      pop\n        /* \"contracts/ERC721Attr.sol\":1143:1388  function slice(bytes memory data, uint start, uint len) internal pure returns (bytes memory){... */\n      swap4\n      swap3\n      pop\n      pop\n      pop\n      jump\t// out\n        /* \"contracts/ERC721Attr.sol\":1642:1805  function bytesToBytes32(bytes memory source) internal pure returns (bytes32 result){... */\n    tag_13:\n        /* \"contracts/ERC721Attr.sol\":1710:1724  bytes32 result */\n      0x00\n        /* \"contracts/ERC721Attr.sol\":1785:1787  32 */\n      0x20\n        /* \"contracts/ERC721Attr.sol\":1777:1783  source */\n      dup3\n        /* \"contracts/ERC721Attr.sol\":1773:1788  add(source, 32) */\n      add\n        /* \"contracts/ERC721Attr.sol\":1767:1789  mload(add(source, 32)) */\n      mload\n        /* \"contracts/ERC721Attr.sol\":1757:1789  result := mload(add(source, 32)) */\n      swap1\n      pop\n        /* \"contracts/ERC721Attr.sol\":1642:1805  function bytesToBytes32(bytes memory source) internal pure returns (bytes32 result){... */\n      swap2\n      swap1\n      pop\n      jump\t// out\n        /* \"contracts/ERC721Attr.sol\":1394:1636  function ecrecoverDecode(bytes32 r, bytes32 s, uint8 v1, bytes32 d) internal pure returns (address addr){... */\n    tag_22:\n        /* \"contracts/ERC721Attr.sol\":1485:1497  address addr */\n      0x00\n        /* \"contracts/ERC721Attr.sol\":1508:1515  uint8 v */\n      dup1\n        /* \"contracts/ERC721Attr.sol\":1524:1526  v1 */\n      dup4\n        /* \"contracts/ERC721Attr.sol\":1508:1527  uint8 v = uint8(v1) */\n      swap1\n      pop\n        /* \"contracts/ERC721Attr.sol\":1546:1547  0 */\n      0x00\n        /* \"contracts/ERC721Attr.sol\":1541:1542  v */\n      dup2\n        /* \"contracts/ERC721Attr.sol\":1541:1547  v == 0 */\n      0xff\n      and\n      eq\n        /* \"contracts/ERC721Attr.sol\":1541:1557  v == 0 || v == 1 */\n      dup1\n      tag_41\n      jumpi\n      pop\n        /* \"contracts/ERC721Attr.sol\":1556:1557  1 */\n      0x01\n        /* \"contracts/ERC721Attr.sol\":1551:1552  v */\n      dup2\n        /* \"contracts/ERC721Attr.sol\":1551:1557  v == 1 */\n      0xff\n      and\n      eq\n        /* \"contracts/ERC721Attr.sol\":1541:1557  v == 0 || v == 1 */\n    tag_41:\n        /* \"contracts/ERC721Attr.sol\":1537:1592  if (v == 0 || v == 1) {... */\n      iszero\n      tag_42\n      jumpi\n        /* \"contracts/ERC721Attr.sol\":1579:1581  27 */\n      0x1b\n        /* \"contracts/ERC721Attr.sol\":1577:1578  v */\n      dup2\n        /* \"contracts/ERC721Attr.sol\":1577:1581  v+27 */\n      tag_43\n      swap2\n      swap1\n      tag_44\n      jump\t// in\n    tag_43:\n        /* \"contracts/ERC721Attr.sol\":1573:1581  v = v+27 */\n      swap1\n      pop\n        /* \"contracts/ERC721Attr.sol\":1537:1592  if (v == 0 || v == 1) {... */\n    tag_42:\n        /* \"contracts/ERC721Attr.sol\":1608:1629  ecrecover(d, v, r, s) */\n      0x01\n        /* \"contracts/ERC721Attr.sol\":1618:1619  d */\n      dup4\n        /* \"contracts/ERC721Attr.sol\":1621:1622  v */\n      dup3\n        /* \"contracts/ERC721Attr.sol\":1624:1625  r */\n      dup9\n        /* \"contracts/ERC721Attr.sol\":1627:1628  s */\n      dup9\n        /* \"contracts/ERC721Attr.sol\":1608:1629  ecrecover(d, v, r, s) */\n      mload(0x40)\n      0x00\n      dup2\n      mstore\n      0x20\n      add\n      0x40\n      mstore\n      mload(0x40)\n      tag_45\n      swap5\n      swap4\n      swap3\n      swap2\n      swap1\n      tag_46\n      jump\t// in\n    tag_45:\n      0x20\n      mload(0x40)\n      0x20\n      dup2\n      sub\n      swap1\n      dup1\n      dup5\n      sub\n      swap1\n      dup6\n      gas\n      staticcall\n      iszero\n      dup1\n      iszero\n      tag_48\n      jumpi\n      returndatasize\n      0x00\n      dup1\n      returndatacopy\n      revert(0x00, returndatasize)\n    tag_48:\n      pop\n      pop\n      pop\n      mload(sub(mload(0x40), 0x20))\n        /* \"contracts/ERC721Attr.sol\":1601:1629  addr = ecrecover(d, v, r, s) */\n      swap2\n      pop\n        /* \"contracts/ERC721Attr.sol\":1498:1636  {... */\n      pop\n        /* \"contracts/ERC721Attr.sol\":1394:1636  function ecrecoverDecode(bytes32 r, bytes32 s, uint8 v1, bytes32 d) internal pure returns (address addr){... */\n      swap5\n      swap4\n      pop\n      pop\n      pop\n      pop\n      jump\t// out\n        /* \"#utility.yul\":7:82   */\n    tag_49:\n        /* \"#utility.yul\":40:46   */\n      0x00\n        /* \"#utility.yul\":73:75   */\n      0x40\n        /* \"#utility.yul\":67:76   */\n      mload\n        /* \"#utility.yul\":57:76   */\n      swap1\n      pop\n        /* \"#utility.yul\":7:82   */\n      swap1\n      jump\t// out\n        /* \"#utility.yul\":88:205   */\n    tag_50:\n        /* \"#utility.yul\":197:198   */\n      0x00\n        /* \"#utility.yul\":194:195   */\n      dup1\n        /* \"#utility.yul\":187:199   */\n      revert\n        /* \"#utility.yul\":211:328   */\n    tag_51:\n        /* \"#utility.yul\":320:321   */\n      0x00\n        /* \"#utility.yul\":317:318   */\n      dup1\n        /* \"#utility.yul\":310:322   */\n      revert\n        /* \"#utility.yul\":334:451   */\n    tag_52:\n        /* \"#utility.yul\":443:444   */\n      0x00\n        /* \"#utility.yul\":440:441   */\n      dup1\n        /* \"#utility.yul\":433:445   */\n      revert\n        /* \"#utility.yul\":457:574   */\n    tag_53:\n        /* \"#utility.yul\":566:567   */\n      0x00\n        /* \"#utility.yul\":563:564   */\n      dup1\n        /* \"#utility.yul\":556:568   */\n      revert\n        /* \"#utility.yul\":580:682   */\n    tag_54:\n        /* \"#utility.yul\":621:627   */\n      0x00\n        /* \"#utility.yul\":672:674   */\n      0x1f\n        /* \"#utility.yul\":668:675   */\n      not\n        /* \"#utility.yul\":663:665   */\n      0x1f\n        /* \"#utility.yul\":656:661   */\n      dup4\n        /* \"#utility.yul\":652:666   */\n      add\n        /* \"#utility.yul\":648:676   */\n      and\n        /* \"#utility.yul\":638:676   */\n      swap1\n      pop\n        /* \"#utility.yul\":580:682   */\n      swap2\n      swap1\n      pop\n      jump\t// out\n        /* \"#utility.yul\":688:868   */\n    tag_26:\n        /* \"#utility.yul\":736:813   */\n      0x4e487b7100000000000000000000000000000000000000000000000000000000\n        /* \"#utility.yul\":733:734   */\n      0x00\n        /* \"#utility.yul\":726:814   */\n      mstore\n        /* \"#utility.yul\":833:837   */\n      0x41\n        /* \"#utility.yul\":830:831   */\n      0x04\n        /* \"#utility.yul\":823:838   */\n      mstore\n        /* \"#utility.yul\":857:861   */\n      0x24\n        /* \"#utility.yul\":854:855   */\n      0x00\n        /* \"#utility.yul\":847:862   */\n      revert\n        /* \"#utility.yul\":874:1155   */\n    tag_55:\n        /* \"#utility.yul\":957:984   */\n      tag_86\n        /* \"#utility.yul\":979:983   */\n      dup3\n        /* \"#utility.yul\":957:984   */\n      tag_54\n      jump\t// in\n    tag_86:\n        /* \"#utility.yul\":949:955   */\n      dup2\n        /* \"#utility.yul\":945:985   */\n      add\n        /* \"#utility.yul\":1087:1093   */\n      dup2\n        /* \"#utility.yul\":1075:1085   */\n      dup2\n        /* \"#utility.yul\":1072:1094   */\n      lt\n        /* \"#utility.yul\":1051:1069   */\n      0xffffffffffffffff\n        /* \"#utility.yul\":1039:1049   */\n      dup3\n        /* \"#utility.yul\":1036:1070   */\n      gt\n        /* \"#utility.yul\":1033:1095   */\n      or\n        /* \"#utility.yul\":1030:1118   */\n      iszero\n      tag_87\n      jumpi\n        /* \"#utility.yul\":1098:1116   */\n      tag_88\n      tag_26\n      jump\t// in\n    tag_88:\n        /* \"#utility.yul\":1030:1118   */\n    tag_87:\n        /* \"#utility.yul\":1138:1148   */\n      dup1\n        /* \"#utility.yul\":1134:1136   */\n      0x40\n        /* \"#utility.yul\":1127:1149   */\n      mstore\n        /* \"#utility.yul\":917:1155   */\n      pop\n        /* \"#utility.yul\":874:1155   */\n      pop\n      pop\n      jump\t// out\n        /* \"#utility.yul\":1161:1290   */\n    tag_56:\n        /* \"#utility.yul\":1195:1201   */\n      0x00\n        /* \"#utility.yul\":1222:1242   */\n      tag_90\n      tag_49\n      jump\t// in\n    tag_90:\n        /* \"#utility.yul\":1212:1242   */\n      swap1\n      pop\n        /* \"#utility.yul\":1251:1284   */\n      tag_91\n        /* \"#utility.yul\":1279:1283   */\n      dup3\n        /* \"#utility.yul\":1271:1277   */\n      dup3\n        /* \"#utility.yul\":1251:1284   */\n      tag_55\n      jump\t// in\n    tag_91:\n        /* \"#utility.yul\":1161:1290   */\n      swap2\n      swap1\n      pop\n      jump\t// out\n        /* \"#utility.yul\":1296:1603   */\n    tag_57:\n        /* \"#utility.yul\":1357:1361   */\n      0x00\n        /* \"#utility.yul\":1447:1465   */\n      0xffffffffffffffff\n        /* \"#utility.yul\":1439:1445   */\n      dup3\n        /* \"#utility.yul\":1436:1466   */\n      gt\n        /* \"#utility.yul\":1433:1489   */\n      iszero\n      tag_93\n      jumpi\n        /* \"#utility.yul\":1469:1487   */\n      tag_94\n      tag_26\n      jump\t// in\n    tag_94:\n        /* \"#utility.yul\":1433:1489   */\n    tag_93:\n        /* \"#utility.yul\":1507:1536   */\n      tag_95\n        /* \"#utility.yul\":1529:1535   */\n      dup3\n        /* \"#utility.yul\":1507:1536   */\n      tag_54\n      jump\t// in\n    tag_95:\n        /* \"#utility.yul\":1499:1536   */\n      swap1\n      pop\n        /* \"#utility.yul\":1591:1595   */\n      0x20\n        /* \"#utility.yul\":1585:1589   */\n      dup2\n        /* \"#utility.yul\":1581:1596   */\n      add\n        /* \"#utility.yul\":1573:1596   */\n      swap1\n      pop\n        /* \"#utility.yul\":1296:1603   */\n      swap2\n      swap1\n      pop\n      jump\t// out\n        /* \"#utility.yul\":1609:1755   */\n    tag_58:\n        /* \"#utility.yul\":1706:1712   */\n      dup3\n        /* \"#utility.yul\":1701:1704   */\n      dup2\n        /* \"#utility.yul\":1696:1699   */\n      dup4\n        /* \"#utility.yul\":1683:1713   */\n      calldatacopy\n        /* \"#utility.yul\":1747:1748   */\n      0x00\n        /* \"#utility.yul\":1738:1744   */\n      dup4\n        /* \"#utility.yul\":1733:1736   */\n      dup4\n        /* \"#utility.yul\":1729:1745   */\n      add\n        /* \"#utility.yul\":1722:1749   */\n      mstore\n        /* \"#utility.yul\":1609:1755   */\n      pop\n      pop\n      pop\n      jump\t// out\n        /* \"#utility.yul\":1761:2184   */\n    tag_59:\n        /* \"#utility.yul\":1838:1843   */\n      0x00\n        /* \"#utility.yul\":1863:1928   */\n      tag_98\n        /* \"#utility.yul\":1879:1927   */\n      tag_99\n        /* \"#utility.yul\":1920:1926   */\n      dup5\n        /* \"#utility.yul\":1879:1927   */\n      tag_57\n      jump\t// in\n    tag_99:\n        /* \"#utility.yul\":1863:1928   */\n      tag_56\n      jump\t// in\n    tag_98:\n        /* \"#utility.yul\":1854:1928   */\n      swap1\n      pop\n        /* \"#utility.yul\":1951:1957   */\n      dup3\n        /* \"#utility.yul\":1944:1949   */\n      dup2\n        /* \"#utility.yul\":1937:1958   */\n      mstore\n        /* \"#utility.yul\":1989:1993   */\n      0x20\n        /* \"#utility.yul\":1982:1987   */\n      dup2\n        /* \"#utility.yul\":1978:1994   */\n      add\n        /* \"#utility.yul\":2027:2030   */\n      dup5\n        /* \"#utility.yul\":2018:2024   */\n      dup5\n        /* \"#utility.yul\":2013:2016   */\n      dup5\n        /* \"#utility.yul\":2009:2025   */\n      add\n        /* \"#utility.yul\":2006:2031   */\n      gt\n        /* \"#utility.yul\":2003:2115   */\n      iszero\n      tag_100\n      jumpi\n        /* \"#utility.yul\":2034:2113   */\n      tag_101\n      tag_53\n      jump\t// in\n    tag_101:\n        /* \"#utility.yul\":2003:2115   */\n    tag_100:\n        /* \"#utility.yul\":2124:2178   */\n      tag_102\n        /* \"#utility.yul\":2171:2177   */\n      dup5\n        /* \"#utility.yul\":2166:2169   */\n      dup3\n        /* \"#utility.yul\":2161:2164   */\n      dup6\n        /* \"#utility.yul\":2124:2178   */\n      tag_58\n      jump\t// in\n    tag_102:\n        /* \"#utility.yul\":1844:2184   */\n      pop\n        /* \"#utility.yul\":1761:2184   */\n      swap4\n      swap3\n      pop\n      pop\n      pop\n      jump\t// out\n        /* \"#utility.yul\":2203:2541   */\n    tag_60:\n        /* \"#utility.yul\":2258:2263   */\n      0x00\n        /* \"#utility.yul\":2307:2310   */\n      dup3\n        /* \"#utility.yul\":2300:2304   */\n      0x1f\n        /* \"#utility.yul\":2292:2298   */\n      dup4\n        /* \"#utility.yul\":2288:2305   */\n      add\n        /* \"#utility.yul\":2284:2311   */\n      slt\n        /* \"#utility.yul\":2274:2396   */\n      tag_104\n      jumpi\n        /* \"#utility.yul\":2315:2394   */\n      tag_105\n      tag_52\n      jump\t// in\n    tag_105:\n        /* \"#utility.yul\":2274:2396   */\n    tag_104:\n        /* \"#utility.yul\":2432:2438   */\n      dup2\n        /* \"#utility.yul\":2419:2439   */\n      calldataload\n        /* \"#utility.yul\":2457:2535   */\n      tag_106\n        /* \"#utility.yul\":2531:2534   */\n      dup5\n        /* \"#utility.yul\":2523:2529   */\n      dup3\n        /* \"#utility.yul\":2516:2520   */\n      0x20\n        /* \"#utility.yul\":2508:2514   */\n      dup7\n        /* \"#utility.yul\":2504:2521   */\n      add\n        /* \"#utility.yul\":2457:2535   */\n      tag_59\n      jump\t// in\n    tag_106:\n        /* \"#utility.yul\":2448:2535   */\n      swap2\n      pop\n        /* \"#utility.yul\":2264:2541   */\n      pop\n        /* \"#utility.yul\":2203:2541   */\n      swap3\n      swap2\n      pop\n      pop\n      jump\t// out\n        /* \"#utility.yul\":2547:2855   */\n    tag_61:\n        /* \"#utility.yul\":2609:2613   */\n      0x00\n        /* \"#utility.yul\":2699:2717   */\n      0xffffffffffffffff\n        /* \"#utility.yul\":2691:2697   */\n      dup3\n        /* \"#utility.yul\":2688:2718   */\n      gt\n        /* \"#utility.yul\":2685:2741   */\n      iszero\n      tag_108\n      jumpi\n        /* \"#utility.yul\":2721:2739   */\n      tag_109\n      tag_26\n      jump\t// in\n    tag_109:\n        /* \"#utility.yul\":2685:2741   */\n    tag_108:\n        /* \"#utility.yul\":2759:2788   */\n      tag_110\n        /* \"#utility.yul\":2781:2787   */\n      dup3\n        /* \"#utility.yul\":2759:2788   */\n      tag_54\n      jump\t// in\n    tag_110:\n        /* \"#utility.yul\":2751:2788   */\n      swap1\n      pop\n        /* \"#utility.yul\":2843:2847   */\n      0x20\n        /* \"#utility.yul\":2837:2841   */\n      dup2\n        /* \"#utility.yul\":2833:2848   */\n      add\n        /* \"#utility.yul\":2825:2848   */\n      swap1\n      pop\n        /* \"#utility.yul\":2547:2855   */\n      swap2\n      swap1\n      pop\n      jump\t// out\n        /* \"#utility.yul\":2861:3286   */\n    tag_62:\n        /* \"#utility.yul\":2939:2944   */\n      0x00\n        /* \"#utility.yul\":2964:3030   */\n      tag_112\n        /* \"#utility.yul\":2980:3029   */\n      tag_113\n        /* \"#utility.yul\":3022:3028   */\n      dup5\n        /* \"#utility.yul\":2980:3029   */\n      tag_61\n      jump\t// in\n    tag_113:\n        /* \"#utility.yul\":2964:3030   */\n      tag_56\n      jump\t// in\n    tag_112:\n        /* \"#utility.yul\":2955:3030   */\n      swap1\n      pop\n        /* \"#utility.yul\":3053:3059   */\n      dup3\n        /* \"#utility.yul\":3046:3051   */\n      dup2\n        /* \"#utility.yul\":3039:3060   */\n      mstore\n        /* \"#utility.yul\":3091:3095   */\n      0x20\n        /* \"#utility.yul\":3084:3089   */\n      dup2\n        /* \"#utility.yul\":3080:3096   */\n      add\n        /* \"#utility.yul\":3129:3132   */\n      dup5\n        /* \"#utility.yul\":3120:3126   */\n      dup5\n        /* \"#utility.yul\":3115:3118   */\n      dup5\n        /* \"#utility.yul\":3111:3127   */\n      add\n        /* \"#utility.yul\":3108:3133   */\n      gt\n        /* \"#utility.yul\":3105:3217   */\n      iszero\n      tag_114\n      jumpi\n        /* \"#utility.yul\":3136:3215   */\n      tag_115\n      tag_53\n      jump\t// in\n    tag_115:\n        /* \"#utility.yul\":3105:3217   */\n    tag_114:\n        /* \"#utility.yul\":3226:3280   */\n      tag_116\n        /* \"#utility.yul\":3273:3279   */\n      dup5\n        /* \"#utility.yul\":3268:3271   */\n      dup3\n        /* \"#utility.yul\":3263:3266   */\n      dup6\n        /* \"#utility.yul\":3226:3280   */\n      tag_58\n      jump\t// in\n    tag_116:\n        /* \"#utility.yul\":2945:3286   */\n      pop\n        /* \"#utility.yul\":2861:3286   */\n      swap4\n      swap3\n      pop\n      pop\n      pop\n      jump\t// out\n        /* \"#utility.yul\":3306:3646   */\n    tag_63:\n        /* \"#utility.yul\":3362:3367   */\n      0x00\n        /* \"#utility.yul\":3411:3414   */\n      dup3\n        /* \"#utility.yul\":3404:3408   */\n      0x1f\n        /* \"#utility.yul\":3396:3402   */\n      dup4\n        /* \"#utility.yul\":3392:3409   */\n      add\n        /* \"#utility.yul\":3388:3415   */\n      slt\n        /* \"#utility.yul\":3378:3500   */\n      tag_118\n      jumpi\n        /* \"#utility.yul\":3419:3498   */\n      tag_119\n      tag_52\n      jump\t// in\n    tag_119:\n        /* \"#utility.yul\":3378:3500   */\n    tag_118:\n        /* \"#utility.yul\":3536:3542   */\n      dup2\n        /* \"#utility.yul\":3523:3543   */\n      calldataload\n        /* \"#utility.yul\":3561:3640   */\n      tag_120\n        /* \"#utility.yul\":3636:3639   */\n      dup5\n        /* \"#utility.yul\":3628:3634   */\n      dup3\n        /* \"#utility.yul\":3621:3625   */\n      0x20\n        /* \"#utility.yul\":3613:3619   */\n      dup7\n        /* \"#utility.yul\":3609:3626   */\n      add\n        /* \"#utility.yul\":3561:3640   */\n      tag_62\n      jump\t// in\n    tag_120:\n        /* \"#utility.yul\":3552:3640   */\n      swap2\n      pop\n        /* \"#utility.yul\":3368:3646   */\n      pop\n        /* \"#utility.yul\":3306:3646   */\n      swap3\n      swap2\n      pop\n      pop\n      jump\t// out\n        /* \"#utility.yul\":3652:4484   */\n    tag_5:\n        /* \"#utility.yul\":3739:3745   */\n      0x00\n        /* \"#utility.yul\":3747:3753   */\n      dup1\n        /* \"#utility.yul\":3796:3798   */\n      0x40\n        /* \"#utility.yul\":3784:3793   */\n      dup4\n        /* \"#utility.yul\":3775:3782   */\n      dup6\n        /* \"#utility.yul\":3771:3794   */\n      sub\n        /* \"#utility.yul\":3767:3799   */\n      slt\n        /* \"#utility.yul\":3764:3883   */\n      iszero\n      tag_122\n      jumpi\n        /* \"#utility.yul\":3802:3881   */\n      tag_123\n      tag_50\n      jump\t// in\n    tag_123:\n        /* \"#utility.yul\":3764:3883   */\n    tag_122:\n        /* \"#utility.yul\":3950:3951   */\n      0x00\n        /* \"#utility.yul\":3939:3948   */\n      dup4\n        /* \"#utility.yul\":3935:3952   */\n      add\n        /* \"#utility.yul\":3922:3953   */\n      calldataload\n        /* \"#utility.yul\":3980:3998   */\n      0xffffffffffffffff\n        /* \"#utility.yul\":3972:3978   */\n      dup2\n        /* \"#utility.yul\":3969:3999   */\n      gt\n        /* \"#utility.yul\":3966:4083   */\n      iszero\n      tag_124\n      jumpi\n        /* \"#utility.yul\":4002:4081   */\n      tag_125\n      tag_51\n      jump\t// in\n    tag_125:\n        /* \"#utility.yul\":3966:4083   */\n    tag_124:\n        /* \"#utility.yul\":4107:4169   */\n      tag_126\n        /* \"#utility.yul\":4161:4168   */\n      dup6\n        /* \"#utility.yul\":4152:4158   */\n      dup3\n        /* \"#utility.yul\":4141:4150   */\n      dup7\n        /* \"#utility.yul\":4137:4159   */\n      add\n        /* \"#utility.yul\":4107:4169   */\n      tag_60\n      jump\t// in\n    tag_126:\n        /* \"#utility.yul\":4097:4169   */\n      swap3\n      pop\n        /* \"#utility.yul\":3893:4179   */\n      pop\n        /* \"#utility.yul\":4246:4248   */\n      0x20\n        /* \"#utility.yul\":4235:4244   */\n      dup4\n        /* \"#utility.yul\":4231:4249   */\n      add\n        /* \"#utility.yul\":4218:4250   */\n      calldataload\n        /* \"#utility.yul\":4277:4295   */\n      0xffffffffffffffff\n        /* \"#utility.yul\":4269:4275   */\n      dup2\n        /* \"#utility.yul\":4266:4296   */\n      gt\n        /* \"#utility.yul\":4263:4380   */\n      iszero\n      tag_127\n      jumpi\n        /* \"#utility.yul\":4299:4378   */\n      tag_128\n      tag_51\n      jump\t// in\n    tag_128:\n        /* \"#utility.yul\":4263:4380   */\n    tag_127:\n        /* \"#utility.yul\":4404:4467   */\n      tag_129\n        /* \"#utility.yul\":4459:4466   */\n      dup6\n        /* \"#utility.yul\":4450:4456   */\n      dup3\n        /* \"#utility.yul\":4439:4448   */\n      dup7\n        /* \"#utility.yul\":4435:4457   */\n      add\n        /* \"#utility.yul\":4404:4467   */\n      tag_63\n      jump\t// in\n    tag_129:\n        /* \"#utility.yul\":4394:4467   */\n      swap2\n      pop\n        /* \"#utility.yul\":4189:4477   */\n      pop\n        /* \"#utility.yul\":3652:4484   */\n      swap3\n      pop\n      swap3\n      swap1\n      pop\n      jump\t// out\n        /* \"#utility.yul\":4490:4616   */\n    tag_64:\n        /* \"#utility.yul\":4527:4534   */\n      0x00\n        /* \"#utility.yul\":4567:4609   */\n      0xffffffffffffffffffffffffffffffffffffffff\n        /* \"#utility.yul\":4560:4565   */\n      dup3\n        /* \"#utility.yul\":4556:4610   */\n      and\n        /* \"#utility.yul\":4545:4610   */\n      swap1\n      pop\n        /* \"#utility.yul\":4490:4616   */\n      swap2\n      swap1\n      pop\n      jump\t// out\n        /* \"#utility.yul\":4622:4718   */\n    tag_65:\n        /* \"#utility.yul\":4659:4666   */\n      0x00\n        /* \"#utility.yul\":4688:4712   */\n      tag_132\n        /* \"#utility.yul\":4706:4711   */\n      dup3\n        /* \"#utility.yul\":4688:4712   */\n      tag_64\n      jump\t// in\n    tag_132:\n        /* \"#utility.yul\":4677:4712   */\n      swap1\n      pop\n        /* \"#utility.yul\":4622:4718   */\n      swap2\n      swap1\n      pop\n      jump\t// out\n        /* \"#utility.yul\":4724:4850   */\n    tag_66:\n        /* \"#utility.yul\":4819:4843   */\n      tag_134\n        /* \"#utility.yul\":4837:4842   */\n      dup2\n        /* \"#utility.yul\":4819:4843   */\n      tag_65\n      jump\t// in\n    tag_134:\n        /* \"#utility.yul\":4814:4817   */\n      dup3\n        /* \"#utility.yul\":4807:4844   */\n      mstore\n        /* \"#utility.yul\":4724:4850   */\n      pop\n      pop\n      jump\t// out\n        /* \"#utility.yul\":4856:5094   */\n    tag_8:\n        /* \"#utility.yul\":4957:4961   */\n      0x00\n        /* \"#utility.yul\":4995:4997   */\n      0x20\n        /* \"#utility.yul\":4984:4993   */\n      dup3\n        /* \"#utility.yul\":4980:4998   */\n      add\n        /* \"#utility.yul\":4972:4998   */\n      swap1\n      pop\n        /* \"#utility.yul\":5008:5087   */\n      tag_136\n        /* \"#utility.yul\":5084:5085   */\n      0x00\n        /* \"#utility.yul\":5073:5082   */\n      dup4\n        /* \"#utility.yul\":5069:5086   */\n      add\n        /* \"#utility.yul\":5060:5066   */\n      dup5\n        /* \"#utility.yul\":5008:5087   */\n      tag_66\n      jump\t// in\n    tag_136:\n        /* \"#utility.yul\":4856:5094   */\n      swap3\n      swap2\n      pop\n      pop\n      jump\t// out\n        /* \"#utility.yul\":5100:5280   */\n    tag_18:\n        /* \"#utility.yul\":5148:5225   */\n      0x4e487b7100000000000000000000000000000000000000000000000000000000\n        /* \"#utility.yul\":5145:5146   */\n      0x00\n        /* \"#utility.yul\":5138:5226   */\n      mstore\n        /* \"#utility.yul\":5245:5249   */\n      0x32\n        /* \"#utility.yul\":5242:5243   */\n      0x04\n        /* \"#utility.yul\":5235:5250   */\n      mstore\n        /* \"#utility.yul\":5269:5273   */\n      0x24\n        /* \"#utility.yul\":5266:5267   */\n      0x00\n        /* \"#utility.yul\":5259:5274   */\n      revert\n        /* \"#utility.yul\":5286:5385   */\n    tag_67:\n        /* \"#utility.yul\":5338:5344   */\n      0x00\n        /* \"#utility.yul\":5372:5377   */\n      dup2\n        /* \"#utility.yul\":5366:5378   */\n      mload\n        /* \"#utility.yul\":5356:5378   */\n      swap1\n      pop\n        /* \"#utility.yul\":5286:5385   */\n      swap2\n      swap1\n      pop\n      jump\t// out\n        /* \"#utility.yul\":5391:5539   */\n    tag_68:\n        /* \"#utility.yul\":5493:5504   */\n      0x00\n        /* \"#utility.yul\":5530:5533   */\n      dup2\n        /* \"#utility.yul\":5515:5533   */\n      swap1\n      pop\n        /* \"#utility.yul\":5391:5539   */\n      swap3\n      swap2\n      pop\n      pop\n      jump\t// out\n        /* \"#utility.yul\":5545:5791   */\n    tag_69:\n        /* \"#utility.yul\":5626:5627   */\n      0x00\n        /* \"#utility.yul\":5636:5749   */\n    tag_141:\n        /* \"#utility.yul\":5650:5656   */\n      dup4\n        /* \"#utility.yul\":5647:5648   */\n      dup2\n        /* \"#utility.yul\":5644:5657   */\n      lt\n        /* \"#utility.yul\":5636:5749   */\n      iszero\n      tag_143\n      jumpi\n        /* \"#utility.yul\":5735:5736   */\n      dup1\n        /* \"#utility.yul\":5730:5733   */\n      dup3\n        /* \"#utility.yul\":5726:5737   */\n      add\n        /* \"#utility.yul\":5720:5738   */\n      mload\n        /* \"#utility.yul\":5716:5717   */\n      dup2\n        /* \"#utility.yul\":5711:5714   */\n      dup5\n        /* \"#utility.yul\":5707:5718   */\n      add\n        /* \"#utility.yul\":5700:5739   */\n      mstore\n        /* \"#utility.yul\":5672:5674   */\n      0x20\n        /* \"#utility.yul\":5669:5670   */\n      dup2\n        /* \"#utility.yul\":5665:5675   */\n      add\n        /* \"#utility.yul\":5660:5675   */\n      swap1\n      pop\n        /* \"#utility.yul\":5636:5749   */\n      jump(tag_141)\n    tag_143:\n        /* \"#utility.yul\":5783:5784   */\n      0x00\n        /* \"#utility.yul\":5774:5780   */\n      dup5\n        /* \"#utility.yul\":5769:5772   */\n      dup5\n        /* \"#utility.yul\":5765:5781   */\n      add\n        /* \"#utility.yul\":5758:5785   */\n      mstore\n        /* \"#utility.yul\":5607:5791   */\n      pop\n        /* \"#utility.yul\":5545:5791   */\n      pop\n      pop\n      pop\n      jump\t// out\n        /* \"#utility.yul\":5797:6187   */\n    tag_70:\n        /* \"#utility.yul\":5903:5906   */\n      0x00\n        /* \"#utility.yul\":5931:5970   */\n      tag_145\n        /* \"#utility.yul\":5964:5969   */\n      dup3\n        /* \"#utility.yul\":5931:5970   */\n      tag_67\n      jump\t// in\n    tag_145:\n        /* \"#utility.yul\":5986:6075   */\n      tag_146\n        /* \"#utility.yul\":6068:6074   */\n      dup2\n        /* \"#utility.yul\":6063:6066   */\n      dup6\n        /* \"#utility.yul\":5986:6075   */\n      tag_68\n      jump\t// in\n    tag_146:\n        /* \"#utility.yul\":5979:6075   */\n      swap4\n      pop\n        /* \"#utility.yul\":6084:6149   */\n      tag_147\n        /* \"#utility.yul\":6142:6148   */\n      dup2\n        /* \"#utility.yul\":6137:6140   */\n      dup6\n        /* \"#utility.yul\":6130:6134   */\n      0x20\n        /* \"#utility.yul\":6123:6128   */\n      dup7\n        /* \"#utility.yul\":6119:6135   */\n      add\n        /* \"#utility.yul\":6084:6149   */\n      tag_69\n      jump\t// in\n    tag_147:\n        /* \"#utility.yul\":6174:6180   */\n      dup1\n        /* \"#utility.yul\":6169:6172   */\n      dup5\n        /* \"#utility.yul\":6165:6181   */\n      add\n        /* \"#utility.yul\":6158:6181   */\n      swap2\n      pop\n        /* \"#utility.yul\":5907:6187   */\n      pop\n        /* \"#utility.yul\":5797:6187   */\n      swap3\n      swap2\n      pop\n      pop\n      jump\t// out\n        /* \"#utility.yul\":6193:6468   */\n    tag_20:\n        /* \"#utility.yul\":6325:6328   */\n      0x00\n        /* \"#utility.yul\":6347:6442   */\n      tag_149\n        /* \"#utility.yul\":6438:6441   */\n      dup3\n        /* \"#utility.yul\":6429:6435   */\n      dup5\n        /* \"#utility.yul\":6347:6442   */\n      tag_70\n      jump\t// in\n    tag_149:\n        /* \"#utility.yul\":6340:6442   */\n      swap2\n      pop\n        /* \"#utility.yul\":6459:6462   */\n      dup2\n        /* \"#utility.yul\":6452:6462   */\n      swap1\n      pop\n        /* \"#utility.yul\":6193:6468   */\n      swap3\n      swap2\n      pop\n      pop\n      jump\t// out\n        /* \"#utility.yul\":6474:6551   */\n    tag_71:\n        /* \"#utility.yul\":6511:6518   */\n      0x00\n        /* \"#utility.yul\":6540:6545   */\n      dup2\n        /* \"#utility.yul\":6529:6545   */\n      swap1\n      pop\n        /* \"#utility.yul\":6474:6551   */\n      swap2\n      swap1\n      pop\n      jump\t// out\n        /* \"#utility.yul\":6557:6737   */\n    tag_72:\n        /* \"#utility.yul\":6605:6682   */\n      0x4e487b7100000000000000000000000000000000000000000000000000000000\n        /* \"#utility.yul\":6602:6603   */\n      0x00\n        /* \"#utility.yul\":6595:6683   */\n      mstore\n        /* \"#utility.yul\":6702:6706   */\n      0x11\n        /* \"#utility.yul\":6699:6700   */\n      0x04\n        /* \"#utility.yul\":6692:6707   */\n      mstore\n        /* \"#utility.yul\":6726:6730   */\n      0x24\n        /* \"#utility.yul\":6723:6724   */\n      0x00\n        /* \"#utility.yul\":6716:6731   */\n      revert\n        /* \"#utility.yul\":6743:6934   */\n    tag_32:\n        /* \"#utility.yul\":6783:6786   */\n      0x00\n        /* \"#utility.yul\":6802:6822   */\n      tag_153\n        /* \"#utility.yul\":6820:6821   */\n      dup3\n        /* \"#utility.yul\":6802:6822   */\n      tag_71\n      jump\t// in\n    tag_153:\n        /* \"#utility.yul\":6797:6822   */\n      swap2\n      pop\n        /* \"#utility.yul\":6836:6856   */\n      tag_154\n        /* \"#utility.yul\":6854:6855   */\n      dup4\n        /* \"#utility.yul\":6836:6856   */\n      tag_71\n      jump\t// in\n    tag_154:\n        /* \"#utility.yul\":6831:6856   */\n      swap3\n      pop\n        /* \"#utility.yul\":6879:6880   */\n      dup3\n        /* \"#utility.yul\":6876:6877   */\n      dup3\n        /* \"#utility.yul\":6872:6881   */\n      add\n        /* \"#utility.yul\":6865:6881   */\n      swap1\n      pop\n        /* \"#utility.yul\":6900:6903   */\n      dup1\n        /* \"#utility.yul\":6897:6898   */\n      dup3\n        /* \"#utility.yul\":6894:6904   */\n      gt\n        /* \"#utility.yul\":6891:6927   */\n      iszero\n      tag_155\n      jumpi\n        /* \"#utility.yul\":6907:6925   */\n      tag_156\n      tag_72\n      jump\t// in\n    tag_156:\n        /* \"#utility.yul\":6891:6927   */\n    tag_155:\n        /* \"#utility.yul\":6743:6934   */\n      swap3\n      swap2\n      pop\n      pop\n      jump\t// out\n        /* \"#utility.yul\":6940:7173   */\n    tag_38:\n        /* \"#utility.yul\":6979:6982   */\n      0x00\n        /* \"#utility.yul\":7002:7026   */\n      tag_158\n        /* \"#utility.yul\":7020:7025   */\n      dup3\n        /* \"#utility.yul\":7002:7026   */\n      tag_71\n      jump\t// in\n    tag_158:\n        /* \"#utility.yul\":6993:7026   */\n      swap2\n      pop\n        /* \"#utility.yul\":7048:7114   */\n      0xffffffffffffffffffffffffffffffffffffffffffffffffffffffffffffffff\n        /* \"#utility.yul\":7041:7046   */\n      dup3\n        /* \"#utility.yul\":7038:7115   */\n      sub\n        /* \"#utility.yul\":7035:7138   */\n      tag_159\n      jumpi\n        /* \"#utility.yul\":7118:7136   */\n      tag_160\n      tag_72\n      jump\t// in\n    tag_160:\n        /* \"#utility.yul\":7035:7138   */\n    tag_159:\n        /* \"#utility.yul\":7165:7166   */\n      0x01\n        /* \"#utility.yul\":7158:7163   */\n      dup3\n        /* \"#utility.yul\":7154:7167   */\n      add\n        /* \"#utility.yul\":7147:7167   */\n      swap1\n      pop\n        /* \"#utility.yul\":6940:7173   */\n      swap2\n      swap1\n      pop\n      jump\t// out\n        /* \"#utility.yul\":7179:7265   */\n    tag_73:\n        /* \"#utility.yul\":7214:7221   */\n      0x00\n        /* \"#utility.yul\":7254:7258   */\n      0xff\n        /* \"#utility.yul\":7247:7252   */\n      dup3\n        /* \"#utility.yul\":7243:7259   */\n      and\n        /* \"#utility.yul\":7232:7259   */\n      swap1\n      pop\n        /* \"#utility.yul\":7179:7265   */\n      swap2\n      swap1\n      pop\n      jump\t// out\n        /* \"#utility.yul\":7271:7459   */\n    tag_44:\n        /* \"#utility.yul\":7309:7312   */\n      0x00\n        /* \"#utility.yul\":7328:7346   */\n      tag_163\n        /* \"#utility.yul\":7344:7345   */\n      dup3\n        /* \"#utility.yul\":7328:7346   */\n      tag_73\n      jump\t// in\n    tag_163:\n        /* \"#utility.yul\":7323:7346   */\n      swap2\n      pop\n        /* \"#utility.yul\":7360:7378   */\n      tag_164\n        /* \"#utility.yul\":7376:7377   */\n      dup4\n        /* \"#utility.yul\":7360:7378   */\n      tag_73\n      jump\t// in\n    tag_164:\n        /* \"#utility.yul\":7355:7378   */\n      swap3\n      pop\n        /* \"#utility.yul\":7401:7402   */\n      dup3\n        /* \"#utility.yul\":7398:7399   */\n      dup3\n        /* \"#utility.yul\":7394:7403   */\n      add\n        /* \"#utility.yul\":7387:7403   */\n      swap1\n      pop\n        /* \"#utility.yul\":7424:7428   */\n      0xff\n        /* \"#utility.yul\":7419:7422   */\n      dup2\n        /* \"#utility.yul\":7416:7429   */\n      gt\n        /* \"#utility.yul\":7413:7452   */\n      iszero\n      tag_165\n      jumpi\n        /* \"#utility.yul\":7432:7450   */\n      tag_166\n      tag_72\n      jump\t// in\n    tag_166:\n        /* \"#utility.yul\":7413:7452   */\n    tag_165:\n        /* \"#utility.yul\":7271:7459   */\n      swap3\n      swap2\n      pop\n      pop\n      jump\t// out\n        /* \"#utility.yul\":7465:7542   */\n    tag_74:\n        /* \"#utility.yul\":7502:7509   */\n      0x00\n        /* \"#utility.yul\":7531:7536   */\n      dup2\n        /* \"#utility.yul\":7520:7536   */\n      swap1\n      pop\n        /* \"#utility.yul\":7465:7542   */\n      swap2\n      swap1\n      pop\n      jump\t// out\n        /* \"#utility.yul\":7548:7666   */\n    tag_75:\n        /* \"#utility.yul\":7635:7659   */\n      tag_169\n        /* \"#utility.yul\":7653:7658   */\n      dup2\n        /* \"#utility.yul\":7635:7659   */\n      tag_74\n      jump\t// in\n    tag_169:\n        /* \"#utility.yul\":7630:7633   */\n      dup3\n        /* \"#utility.yul\":7623:7660   */\n      mstore\n        /* \"#utility.yul\":7548:7666   */\n      pop\n      pop\n      jump\t// out\n        /* \"#utility.yul\":7672:7784   */\n    tag_76:\n        /* \"#utility.yul\":7755:7777   */\n      tag_171\n        /* \"#utility.yul\":7771:7776   */\n      dup2\n        /* \"#utility.yul\":7755:7777   */\n      tag_73\n      jump\t// in\n    tag_171:\n        /* \"#utility.yul\":7750:7753   */\n      dup3\n        /* \"#utility.yul\":7743:7778   */\n      mstore\n        /* \"#utility.yul\":7672:7784   */\n      pop\n      pop\n      jump\t// out\n        /* \"#utility.yul\":7790:8335   */\n    tag_46:\n        /* \"#utility.yul\":7963:7967   */\n      0x00\n        /* \"#utility.yul\":8001:8004   */\n      0x80\n        /* \"#utility.yul\":7990:7999   */\n      dup3\n        /* \"#utility.yul\":7986:8005   */\n      add\n        /* \"#utility.yul\":7978:8005   */\n      swap1\n      pop\n        /* \"#utility.yul\":8015:8086   */\n      tag_173\n        /* \"#utility.yul\":8083:8084   */\n      0x00\n        /* \"#utility.yul\":8072:8081   */\n      dup4\n        /* \"#utility.yul\":8068:8085   */\n      add\n        /* \"#utility.yul\":8059:8065   */\n      dup8\n        /* \"#utility.yul\":8015:8086   */\n      tag_75\n      jump\t// in\n    tag_173:\n        /* \"#utility.yul\":8096:8164   */\n      tag_174\n        /* \"#utility.yul\":8160:8162   */\n      0x20\n        /* \"#utility.yul\":8149:8158   */\n      dup4\n        /* \"#utility.yul\":8145:8163   */\n      add\n        /* \"#utility.yul\":8136:8142   */\n      dup7\n        /* \"#utility.yul\":8096:8164   */\n      tag_76\n      jump\t// in\n    tag_174:\n        /* \"#utility.yul\":8174:8246   */\n      tag_175\n        /* \"#utility.yul\":8242:8244   */\n      0x40\n        /* \"#utility.yul\":8231:8240   */\n      dup4\n        /* \"#utility.yul\":8227:8245   */\n      add\n        /* \"#utility.yul\":8218:8224   */\n      dup6\n        /* \"#utility.yul\":8174:8246   */\n      tag_75\n      jump\t// in\n    tag_175:\n        /* \"#utility.yul\":8256:8328   */\n      tag_176\n        /* \"#utility.yul\":8324:8326   */\n      0x60\n        /* \"#utility.yul\":8313:8322   */\n      dup4\n        /* \"#utility.yul\":8309:8327   */\n      add\n        /* \"#utility.yul\":8300:8306   */\n      dup5\n        /* \"#utility.yul\":8256:8328   */\n      tag_75\n      jump\t// in\n    tag_176:\n        /* \"#utility.yul\":7790:8335   */\n      swap6\n      swap5\n      pop\n      pop\n      pop\n      pop\n      pop\n      jump\t// out\n\n    auxdata: 0xa2646970667358221220bd503a2f5cc42358eccd9f21dd0abb6f67b297eed7b899a1746df7b3518f7aa664736f6c63430008110033\n}\n",
				"bytecode": {
					"linkReferences": {},
					"object": "6107a5610053600b82828239805160001a607314610046577f4e487b7100000000000000000000000000000000000000000000000000000000600052600060045260246000fd5b30600052607381538281f3fe73000000000000000000000000000000000000000030146080604052600436106100355760003560e01c8063dfe223d01461003a575b600080fd5b610054600480360381019061004f9190610480565b61006a565b6040516100619190610539565b60405180910390f35b60008061008261007d8560006020610105565b6101ed565b9050600061009a61009586602080610105565b6101ed565b90506000856040815181106100b2576100b1610554565b5b602001015160f81c60f81b60f81c90506000856040516020016100d591906105f4565b6040516020818303038152906040528051906020012090506100f9848484846101fb565b94505050505092915050565b606060008267ffffffffffffffff811115610123576101226102b4565b5b6040519080825280601f01601f1916602001820160405280156101555781602001600182028036833780820191505090505b50905060005b838110156101e1578585826101709190610644565b8151811061018157610180610554565b5b602001015160f81c60f81b82828151811061019f5761019e610554565b5b60200101907effffffffffffffffffffffffffffffffffffffffffffffffffffffffffffff1916908160001a90535080806101d990610678565b91505061015b565b50809150509392505050565b600060208201519050919050565b60008083905060008160ff161480610216575060018160ff16145b1561022b57601b8161022891906106cd565b90505b6001838288886040516000815260200160405260405161024e949392919061072a565b6020604051602081039080840390855afa158015610270573d6000803e3d6000fd5b50505060206040510351915050949350505050565b6000604051905090565b600080fd5b600080fd5b600080fd5b600080fd5b6000601f19601f8301169050919050565b7f4e487b7100000000000000000000000000000000000000000000000000000000600052604160045260246000fd5b6102ec826102a3565b810181811067ffffffffffffffff8211171561030b5761030a6102b4565b5b80604052505050565b600061031e610285565b905061032a82826102e3565b919050565b600067ffffffffffffffff82111561034a576103496102b4565b5b610353826102a3565b9050602081019050919050565b82818337600083830152505050565b600061038261037d8461032f565b610314565b90508281526020810184848401111561039e5761039d61029e565b5b6103a9848285610360565b509392505050565b600082601f8301126103c6576103c5610299565b5b81356103d684826020860161036f565b91505092915050565b600067ffffffffffffffff8211156103fa576103f96102b4565b5b610403826102a3565b9050602081019050919050565b600061042361041e846103df565b610314565b90508281526020810184848401111561043f5761043e61029e565b5b61044a848285610360565b509392505050565b600082601f83011261046757610466610299565b5b8135610477848260208601610410565b91505092915050565b600080604083850312156104975761049661028f565b5b600083013567ffffffffffffffff8111156104b5576104b4610294565b5b6104c1858286016103b1565b925050602083013567ffffffffffffffff8111156104e2576104e1610294565b5b6104ee85828601610452565b9150509250929050565b600073ffffffffffffffffffffffffffffffffffffffff82169050919050565b6000610523826104f8565b9050919050565b61053381610518565b82525050565b600060208201905061054e600083018461052a565b92915050565b7f4e487b7100000000000000000000000000000000000000000000000000000000600052603260045260246000fd5b600081519050919050565b600081905092915050565b60005b838110156105b757808201518184015260208101905061059c565b60008484015250505050565b60006105ce82610583565b6105d8818561058e565b93506105e8818560208601610599565b80840191505092915050565b600061060082846105c3565b915081905092915050565b6000819050919050565b7f4e487b7100000000000000000000000000000000000000000000000000000000600052601160045260246000fd5b600061064f8261060b565b915061065a8361060b565b925082820190508082111561067257610671610615565b5b92915050565b60006106838261060b565b91507fffffffffffffffffffffffffffffffffffffffffffffffffffffffffffffffff82036106b5576106b4610615565b5b600182019050919050565b600060ff82169050919050565b60006106d8826106c0565b91506106e3836106c0565b9250828201905060ff8111156106fc576106fb610615565b5b92915050565b6000819050919050565b61071581610702565b82525050565b610724816106c0565b82525050565b600060808201905061073f600083018761070c565b61074c602083018661071b565b610759604083018561070c565b610766606083018461070c565b9594505050505056fea2646970667358221220bd503a2f5cc42358eccd9f21dd0abb6f67b297eed7b899a1746df7b3518f7aa664736f6c63430008110033",
					"opcodes": "PUSH2 0x7A5 PUSH2 0x53 PUSH1 0xB DUP3 DUP3 DUP3 CODECOPY DUP1 MLOAD PUSH1 0x0 BYTE PUSH1 0x73 EQ PUSH2 0x46 JUMPI PUSH32 0x4E487B7100000000000000000000000000000000000000000000000000000000 PUSH1 0x0 MSTORE PUSH1 0x0 PUSH1 0x4 MSTORE PUSH1 0x24 PUSH1 0x0 REVERT JUMPDEST ADDRESS PUSH1 0x0 MSTORE PUSH1 0x73 DUP2 MSTORE8 DUP3 DUP2 RETURN INVALID PUSH20 0x0 ADDRESS EQ PUSH1 0x80 PUSH1 0x40 MSTORE PUSH1 0x4 CALLDATASIZE LT PUSH2 0x35 JUMPI PUSH1 0x0 CALLDATALOAD PUSH1 0xE0 SHR DUP1 PUSH4 0xDFE223D0 EQ PUSH2 0x3A JUMPI JUMPDEST PUSH1 0x0 DUP1 REVERT JUMPDEST PUSH2 0x54 PUSH1 0x4 DUP1 CALLDATASIZE SUB DUP2 ADD SWAP1 PUSH2 0x4F SWAP2 SWAP1 PUSH2 0x480 JUMP JUMPDEST PUSH2 0x6A JUMP JUMPDEST PUSH1 0x40 MLOAD PUSH2 0x61 SWAP2 SWAP1 PUSH2 0x539 JUMP JUMPDEST PUSH1 0x40 MLOAD DUP1 SWAP2 SUB SWAP1 RETURN JUMPDEST PUSH1 0x0 DUP1 PUSH2 0x82 PUSH2 0x7D DUP6 PUSH1 0x0 PUSH1 0x20 PUSH2 0x105 JUMP JUMPDEST PUSH2 0x1ED JUMP JUMPDEST SWAP1 POP PUSH1 0x0 PUSH2 0x9A PUSH2 0x95 DUP7 PUSH1 0x20 DUP1 PUSH2 0x105 JUMP JUMPDEST PUSH2 0x1ED JUMP JUMPDEST SWAP1 POP PUSH1 0x0 DUP6 PUSH1 0x40 DUP2 MLOAD DUP2 LT PUSH2 0xB2 JUMPI PUSH2 0xB1 PUSH2 0x554 JUMP JUMPDEST JUMPDEST PUSH1 0x20 ADD ADD MLOAD PUSH1 0xF8 SHR PUSH1 0xF8 SHL PUSH1 0xF8 SHR SWAP1 POP PUSH1 0x0 DUP6 PUSH1 0x40 MLOAD PUSH1 0x20 ADD PUSH2 0xD5 SWAP2 SWAP1 PUSH2 0x5F4 JUMP JUMPDEST PUSH1 0x40 MLOAD PUSH1 0x20 DUP2 DUP4 SUB SUB DUP2 MSTORE SWAP1 PUSH1 0x40 MSTORE DUP1 MLOAD SWAP1 PUSH1 0x20 ADD KECCAK256 SWAP1 POP PUSH2 0xF9 DUP5 DUP5 DUP5 DUP5 PUSH2 0x1FB JUMP JUMPDEST SWAP5 POP POP POP POP POP SWAP3 SWAP2 POP POP JUMP JUMPDEST PUSH1 0x60 PUSH1 0x0 DUP3 PUSH8 0xFFFFFFFFFFFFFFFF DUP2 GT ISZERO PUSH2 0x123 JUMPI PUSH2 0x122 PUSH2 0x2B4 JUMP JUMPDEST JUMPDEST PUSH1 0x40 MLOAD SWAP1 DUP1 DUP3 MSTORE DUP1 PUSH1 0x1F ADD PUSH1 0x1F NOT AND PUSH1 0x20 ADD DUP3 ADD PUSH1 0x40 MSTORE DUP1 ISZERO PUSH2 0x155 JUMPI DUP2 PUSH1 0x20 ADD PUSH1 0x1 DUP3 MUL DUP1 CALLDATASIZE DUP4 CALLDATACOPY DUP1 DUP3 ADD SWAP2 POP POP SWAP1 POP JUMPDEST POP SWAP1 POP PUSH1 0x0 JUMPDEST DUP4 DUP2 LT ISZERO PUSH2 0x1E1 JUMPI DUP6 DUP6 DUP3 PUSH2 0x170 SWAP2 SWAP1 PUSH2 0x644 JUMP JUMPDEST DUP2 MLOAD DUP2 LT PUSH2 0x181 JUMPI PUSH2 0x180 PUSH2 0x554 JUMP JUMPDEST JUMPDEST PUSH1 0x20 ADD ADD MLOAD PUSH1 0xF8 SHR PUSH1 0xF8 SHL DUP3 DUP3 DUP2 MLOAD DUP2 LT PUSH2 0x19F JUMPI PUSH2 0x19E PUSH2 0x554 JUMP JUMPDEST JUMPDEST PUSH1 0x20 ADD ADD SWAP1 PUSH31 0xFFFFFFFFFFFFFFFFFFFFFFFFFFFFFFFFFFFFFFFFFFFFFFFFFFFFFFFFFFFFFF NOT AND SWAP1 DUP2 PUSH1 0x0 BYTE SWAP1 MSTORE8 POP DUP1 DUP1 PUSH2 0x1D9 SWAP1 PUSH2 0x678 JUMP JUMPDEST SWAP2 POP POP PUSH2 0x15B JUMP JUMPDEST POP DUP1 SWAP2 POP POP SWAP4 SWAP3 POP POP POP JUMP JUMPDEST PUSH1 0x0 PUSH1 0x20 DUP3 ADD MLOAD SWAP1 POP SWAP2 SWAP1 POP JUMP JUMPDEST PUSH1 0x0 DUP1 DUP4 SWAP1 POP PUSH1 0x0 DUP2 PUSH1 0xFF AND EQ DUP1 PUSH2 0x216 JUMPI POP PUSH1 0x1 DUP2 PUSH1 0xFF AND EQ JUMPDEST ISZERO PUSH2 0x22B JUMPI PUSH1 0x1B DUP2 PUSH2 0x228 SWAP2 SWAP1 PUSH2 0x6CD JUMP JUMPDEST SWAP1 POP JUMPDEST PUSH1 0x1 DUP4 DUP3 DUP9 DUP9 PUSH1 0x40 MLOAD PUSH1 0x0 DUP2 MSTORE PUSH1 0x20 ADD PUSH1 0x40 MSTORE PUSH1 0x40 MLOAD PUSH2 0x24E SWAP5 SWAP4 SWAP3 SWAP2 SWAP1 PUSH2 0x72A JUMP JUMPDEST PUSH1 0x20 PUSH1 0x40 MLOAD PUSH1 0x20 DUP2 SUB SWAP1 DUP1 DUP5 SUB SWAP1 DUP6 GAS STATICCALL ISZERO DUP1 ISZERO PUSH2 0x270 JUMPI RETURNDATASIZE PUSH1 0x0 DUP1 RETURNDATACOPY RETURNDATASIZE PUSH1 0x0 REVERT JUMPDEST POP POP POP PUSH1 0x20 PUSH1 0x40 MLOAD SUB MLOAD SWAP2 POP POP SWAP5 SWAP4 POP POP POP POP JUMP JUMPDEST PUSH1 0x0 PUSH1 0x40 MLOAD SWAP1 POP SWAP1 JUMP JUMPDEST PUSH1 0x0 DUP1 REVERT JUMPDEST PUSH1 0x0 DUP1 REVERT JUMPDEST PUSH1 0x0 DUP1 REVERT JUMPDEST PUSH1 0x0 DUP1 REVERT JUMPDEST PUSH1 0x0 PUSH1 0x1F NOT PUSH1 0x1F DUP4 ADD AND SWAP1 POP SWAP2 SWAP1 POP JUMP JUMPDEST PUSH32 0x4E487B7100000000000000000000000000000000000000000000000000000000 PUSH1 0x0 MSTORE PUSH1 0x41 PUSH1 0x4 MSTORE PUSH1 0x24 PUSH1 0x0 REVERT JUMPDEST PUSH2 0x2EC DUP3 PUSH2 0x2A3 JUMP JUMPDEST DUP2 ADD DUP2 DUP2 LT PUSH8 0xFFFFFFFFFFFFFFFF DUP3 GT OR ISZERO PUSH2 0x30B JUMPI PUSH2 0x30A PUSH2 0x2B4 JUMP JUMPDEST JUMPDEST DUP1 PUSH1 0x40 MSTORE POP POP POP JUMP JUMPDEST PUSH1 0x0 PUSH2 0x31E PUSH2 0x285 JUMP JUMPDEST SWAP1 POP PUSH2 0x32A DUP3 DUP3 PUSH2 0x2E3 JUMP JUMPDEST SWAP2 SWAP1 POP JUMP JUMPDEST PUSH1 0x0 PUSH8 0xFFFFFFFFFFFFFFFF DUP3 GT ISZERO PUSH2 0x34A JUMPI PUSH2 0x349 PUSH2 0x2B4 JUMP JUMPDEST JUMPDEST PUSH2 0x353 DUP3 PUSH2 0x2A3 JUMP JUMPDEST SWAP1 POP PUSH1 0x20 DUP2 ADD SWAP1 POP SWAP2 SWAP1 POP JUMP JUMPDEST DUP3 DUP2 DUP4 CALLDATACOPY PUSH1 0x0 DUP4 DUP4 ADD MSTORE POP POP POP JUMP JUMPDEST PUSH1 0x0 PUSH2 0x382 PUSH2 0x37D DUP5 PUSH2 0x32F JUMP JUMPDEST PUSH2 0x314 JUMP JUMPDEST SWAP1 POP DUP3 DUP2 MSTORE PUSH1 0x20 DUP2 ADD DUP5 DUP5 DUP5 ADD GT ISZERO PUSH2 0x39E JUMPI PUSH2 0x39D PUSH2 0x29E JUMP JUMPDEST JUMPDEST PUSH2 0x3A9 DUP5 DUP3 DUP6 PUSH2 0x360 JUMP JUMPDEST POP SWAP4 SWAP3 POP POP POP JUMP JUMPDEST PUSH1 0x0 DUP3 PUSH1 0x1F DUP4 ADD SLT PUSH2 0x3C6 JUMPI PUSH2 0x3C5 PUSH2 0x299 JUMP JUMPDEST JUMPDEST DUP2 CALLDATALOAD PUSH2 0x3D6 DUP5 DUP3 PUSH1 0x20 DUP7 ADD PUSH2 0x36F JUMP JUMPDEST SWAP2 POP POP SWAP3 SWAP2 POP POP JUMP JUMPDEST PUSH1 0x0 PUSH8 0xFFFFFFFFFFFFFFFF DUP3 GT ISZERO PUSH2 0x3FA JUMPI PUSH2 0x3F9 PUSH2 0x2B4 JUMP JUMPDEST JUMPDEST PUSH2 0x403 DUP3 PUSH2 0x2A3 JUMP JUMPDEST SWAP1 POP PUSH1 0x20 DUP2 ADD SWAP1 POP SWAP2 SWAP1 POP JUMP JUMPDEST PUSH1 0x0 PUSH2 0x423 PUSH2 0x41E DUP5 PUSH2 0x3DF JUMP JUMPDEST PUSH2 0x314 JUMP JUMPDEST SWAP1 POP DUP3 DUP2 MSTORE PUSH1 0x20 DUP2 ADD DUP5 DUP5 DUP5 ADD GT ISZERO PUSH2 0x43F JUMPI PUSH2 0x43E PUSH2 0x29E JUMP JUMPDEST JUMPDEST PUSH2 0x44A DUP5 DUP3 DUP6 PUSH2 0x360 JUMP JUMPDEST POP SWAP4 SWAP3 POP POP POP JUMP JUMPDEST PUSH1 0x0 DUP3 PUSH1 0x1F DUP4 ADD SLT PUSH2 0x467 JUMPI PUSH2 0x466 PUSH2 0x299 JUMP JUMPDEST JUMPDEST DUP2 CALLDATALOAD PUSH2 0x477 DUP5 DUP3 PUSH1 0x20 DUP7 ADD PUSH2 0x410 JUMP JUMPDEST SWAP2 POP POP SWAP3 SWAP2 POP POP JUMP JUMPDEST PUSH1 0x0 DUP1 PUSH1 0x40 DUP4 DUP6 SUB SLT ISZERO PUSH2 0x497 JUMPI PUSH2 0x496 PUSH2 0x28F JUMP JUMPDEST JUMPDEST PUSH1 0x0 DUP4 ADD CALLDATALOAD PUSH8 0xFFFFFFFFFFFFFFFF DUP2 GT ISZERO PUSH2 0x4B5 JUMPI PUSH2 0x4B4 PUSH2 0x294 JUMP JUMPDEST JUMPDEST PUSH2 0x4C1 DUP6 DUP3 DUP7 ADD PUSH2 0x3B1 JUMP JUMPDEST SWAP3 POP POP PUSH1 0x20 DUP4 ADD CALLDATALOAD PUSH8 0xFFFFFFFFFFFFFFFF DUP2 GT ISZERO PUSH2 0x4E2 JUMPI PUSH2 0x4E1 PUSH2 0x294 JUMP JUMPDEST JUMPDEST PUSH2 0x4EE DUP6 DUP3 DUP7 ADD PUSH2 0x452 JUMP JUMPDEST SWAP2 POP POP SWAP3 POP SWAP3 SWAP1 POP JUMP JUMPDEST PUSH1 0x0 PUSH20 0xFFFFFFFFFFFFFFFFFFFFFFFFFFFFFFFFFFFFFFFF DUP3 AND SWAP1 POP SWAP2 SWAP1 POP JUMP JUMPDEST PUSH1 0x0 PUSH2 0x523 DUP3 PUSH2 0x4F8 JUMP JUMPDEST SWAP1 POP SWAP2 SWAP1 POP JUMP JUMPDEST PUSH2 0x533 DUP2 PUSH2 0x518 JUMP JUMPDEST DUP3 MSTORE POP POP JUMP JUMPDEST PUSH1 0x0 PUSH1 0x20 DUP3 ADD SWAP1 POP PUSH2 0x54E PUSH1 0x0 DUP4 ADD DUP5 PUSH2 0x52A JUMP JUMPDEST SWAP3 SWAP2 POP POP JUMP JUMPDEST PUSH32 0x4E487B7100000000000000000000000000000000000000000000000000000000 PUSH1 0x0 MSTORE PUSH1 0x32 PUSH1 0x4 MSTORE PUSH1 0x24 PUSH1 0x0 REVERT JUMPDEST PUSH1 0x0 DUP2 MLOAD SWAP1 POP SWAP2 SWAP1 POP JUMP JUMPDEST PUSH1 0x0 DUP2 SWAP1 POP SWAP3 SWAP2 POP POP JUMP JUMPDEST PUSH1 0x0 JUMPDEST DUP4 DUP2 LT ISZERO PUSH2 0x5B7 JUMPI DUP1 DUP3 ADD MLOAD DUP2 DUP5 ADD MSTORE PUSH1 0x20 DUP2 ADD SWAP1 POP PUSH2 0x59C JUMP JUMPDEST PUSH1 0x0 DUP5 DUP5 ADD MSTORE POP POP POP POP JUMP JUMPDEST PUSH1 0x0 PUSH2 0x5CE DUP3 PUSH2 0x583 JUMP JUMPDEST PUSH2 0x5D8 DUP2 DUP6 PUSH2 0x58E JUMP JUMPDEST SWAP4 POP PUSH2 0x5E8 DUP2 DUP6 PUSH1 0x20 DUP7 ADD PUSH2 0x599 JUMP JUMPDEST DUP1 DUP5 ADD SWAP2 POP POP SWAP3 SWAP2 POP POP JUMP JUMPDEST PUSH1 0x0 PUSH2 0x600 DUP3 DUP5 PUSH2 0x5C3 JUMP JUMPDEST SWAP2 POP DUP2 SWAP1 POP SWAP3 SWAP2 POP POP JUMP JUMPDEST PUSH1 0x0 DUP2 SWAP1 POP SWAP2 SWAP1 POP JUMP JUMPDEST PUSH32 0x4E487B7100000000000000000000000000000000000000000000000000000000 PUSH1 0x0 MSTORE PUSH1 0x11 PUSH1 0x4 MSTORE PUSH1 0x24 PUSH1 0x0 REVERT JUMPDEST PUSH1 0x0 PUSH2 0x64F DUP3 PUSH2 0x60B JUMP JUMPDEST SWAP2 POP PUSH2 0x65A DUP4 PUSH2 0x60B JUMP JUMPDEST SWAP3 POP DUP3 DUP3 ADD SWAP1 POP DUP1 DUP3 GT ISZERO PUSH2 0x672 JUMPI PUSH2 0x671 PUSH2 0x615 JUMP JUMPDEST JUMPDEST SWAP3 SWAP2 POP POP JUMP JUMPDEST PUSH1 0x0 PUSH2 0x683 DUP3 PUSH2 0x60B JUMP JUMPDEST SWAP2 POP PUSH32 0xFFFFFFFFFFFFFFFFFFFFFFFFFFFFFFFFFFFFFFFFFFFFFFFFFFFFFFFFFFFFFFFF DUP3 SUB PUSH2 0x6B5 JUMPI PUSH2 0x6B4 PUSH2 0x615 JUMP JUMPDEST JUMPDEST PUSH1 0x1 DUP3 ADD SWAP1 POP SWAP2 SWAP1 POP JUMP JUMPDEST PUSH1 0x0 PUSH1 0xFF DUP3 AND SWAP1 POP SWAP2 SWAP1 POP JUMP JUMPDEST PUSH1 0x0 PUSH2 0x6D8 DUP3 PUSH2 0x6C0 JUMP JUMPDEST SWAP2 POP PUSH2 0x6E3 DUP4 PUSH2 0x6C0 JUMP JUMPDEST SWAP3 POP DUP3 DUP3 ADD SWAP1 POP PUSH1 0xFF DUP2 GT ISZERO PUSH2 0x6FC JUMPI PUSH2 0x6FB PUSH2 0x615 JUMP JUMPDEST JUMPDEST SWAP3 SWAP2 POP POP JUMP JUMPDEST PUSH1 0x0 DUP2 SWAP1 POP SWAP2 SWAP1 POP JUMP JUMPDEST PUSH2 0x715 DUP2 PUSH2 0x702 JUMP JUMPDEST DUP3 MSTORE POP POP JUMP JUMPDEST PUSH2 0x724 DUP2 PUSH2 0x6C0 JUMP JUMPDEST DUP3 MSTORE POP POP JUMP JUMPDEST PUSH1 0x0 PUSH1 0x80 DUP3 ADD SWAP1 POP PUSH2 0x73F PUSH1 0x0 DUP4 ADD DUP8 PUSH2 0x70C JUMP JUMPDEST PUSH2 0x74C PUSH1 0x20 DUP4 ADD DUP7 PUSH2 0x71B JUMP JUMPDEST PUSH2 0x759 PUSH1 0x40 DUP4 ADD DUP6 PUSH2 0x70C JUMP JUMPDEST PUSH2 0x766 PUSH1 0x60 DUP4 ADD DUP5 PUSH2 0x70C JUMP JUMPDEST SWAP6 SWAP5 POP POP POP POP POP JUMP INVALID LOG2 PUSH5 0x6970667358 0x22 SLT KECCAK256 0xBD POP GASPRICE 0x2F 0x5C 0xC4 0x23 PC 0xEC 0xCD SWAP16 0x21 0xDD EXP 0xBB PUSH16 0x67B297EED7B899A1746DF7B3518F7AA6 PUSH5 0x736F6C6343 STOP ADDMOD GT STOP CALLER "
				},
				"gasEstimates": {
					"creation": {
						"codeDepositCost": "391400",
						"executionCost": "455",
						"totalCost": "391855"
					},
					"external": {
						"Decode(bytes,string)": "infinite"
					},
					"internal": {
						"BytesToAddress(bytes memory)": "infinite",
						"BytesToString(bytes memory)": "infinite",
						"BytesToUint256(bytes memory)": "infinite",
						"bytesToBytes32(bytes memory)": "infinite",
						"ecrecoverDecode(bytes32,bytes32,uint8,bytes32)": "infinite",
						"slice(bytes memory,uint256,uint256)": "infinite"
					}
				},
				"methodIdentifiers": {
					"Decode(bytes,string)": "dfe223d0"
				}
			},
			"storageLayout": {
				"storage": [],
				"types": null
			},
			"userdoc": {
				"kind": "user",
				"methods": {},
				"version": 1
			}
		}
	}
}