{
	"contracts/ERC721Attr.sol": {
		"ERC721Attr": {
			"abi": [
				{
					"inputs": [
						{
							"internalType": "uint256",
							"name": "tokenId",
							"type": "uint256"
						},
						{
							"internalType": "string",
							"name": "field",
							"type": "string"
						},
						{
							"internalType": "bytes",
							"name": "value",
							"type": "bytes"
						}
					],
					"name": "checkArrayValue",
					"outputs": [
						{
							"internalType": "bool",
							"name": "",
							"type": "bool"
						}
					],
					"stateMutability": "view",
					"type": "function"
				},
				{
					"inputs": [
						{
							"internalType": "address",
							"name": "addr",
							"type": "address"
						},
						{
							"internalType": "string",
							"name": "field",
							"type": "string"
						},
						{
							"internalType": "bytes",
							"name": "value",
							"type": "bytes"
						}
					],
					"name": "clearUniques",
					"outputs": [
						{
							"internalType": "bool",
							"name": "",
							"type": "bool"
						}
					],
					"stateMutability": "nonpayable",
					"type": "function"
				},
				{
					"inputs": [
						{
							"internalType": "uint256",
							"name": "tokenId",
							"type": "uint256"
						},
						{
							"internalType": "string",
							"name": "field",
							"type": "string"
						}
					],
					"name": "delArrayValue",
					"outputs": [
						{
							"internalType": "bool",
							"name": "",
							"type": "bool"
						}
					],
					"stateMutability": "nonpayable",
					"type": "function"
				},
				{
					"inputs": [
						{
							"internalType": "address",
							"name": "addr",
							"type": "address"
						},
						{
							"internalType": "string",
							"name": "field",
							"type": "string"
						}
					],
					"name": "delFiled",
					"outputs": [
						{
							"internalType": "bool",
							"name": "",
							"type": "bool"
						}
					],
					"stateMutability": "nonpayable",
					"type": "function"
				},
				{
					"inputs": [
						{
							"internalType": "address",
							"name": "addr",
							"type": "address"
						},
						{
							"internalType": "uint256",
							"name": "tokenId",
							"type": "uint256"
						},
						{
							"internalType": "string",
							"name": "field",
							"type": "string"
						}
					],
					"name": "delValues",
					"outputs": [
						{
							"internalType": "bool",
							"name": "",
							"type": "bool"
						}
					],
					"stateMutability": "nonpayable",
					"type": "function"
				},
				{
					"inputs": [
						{
							"internalType": "uint256",
							"name": "tokenId",
							"type": "uint256"
						},
						{
							"internalType": "string",
							"name": "field",
							"type": "string"
						}
					],
					"name": "getArrayCount",
					"outputs": [
						{
							"internalType": "uint256",
							"name": "",
							"type": "uint256"
						}
					],
					"stateMutability": "view",
					"type": "function"
				},
				{
					"inputs": [
						{
							"internalType": "uint256",
							"name": "tokenId",
							"type": "uint256"
						},
						{
							"internalType": "string",
							"name": "field",
							"type": "string"
						}
					],
					"name": "getArrayValue",
					"outputs": [
						{
							"internalType": "uint256[]",
							"name": "",
							"type": "uint256[]"
						}
					],
					"stateMutability": "view",
					"type": "function"
				},
				{
					"inputs": [
						{
							"internalType": "address",
							"name": "addr",
							"type": "address"
						},
						{
							"internalType": "string",
							"name": "field",
							"type": "string"
						}
					],
					"name": "getAuth",
					"outputs": [
						{
							"internalType": "uint256",
							"name": "",
							"type": "uint256"
						}
					],
					"stateMutability": "view",
					"type": "function"
				},
				{
					"inputs": [
						{
							"internalType": "address",
							"name": "addr",
							"type": "address"
						},
						{
							"internalType": "string",
							"name": "field",
							"type": "string"
						}
					],
					"name": "getType",
					"outputs": [
						{
							"internalType": "uint256",
							"name": "",
							"type": "uint256"
						}
					],
					"stateMutability": "view",
					"type": "function"
				},
				{
					"inputs": [
						{
							"internalType": "address",
							"name": "addr",
							"type": "address"
						},
						{
							"internalType": "string",
							"name": "field",
							"type": "string"
						},
						{
							"internalType": "bytes",
							"name": "value",
							"type": "bytes"
						}
					],
					"name": "getUniques",
					"outputs": [
						{
							"internalType": "bool",
							"name": "",
							"type": "bool"
						}
					],
					"stateMutability": "view",
					"type": "function"
				},
				{
					"inputs": [
						{
							"internalType": "address",
							"name": "addr",
							"type": "address"
						},
						{
							"internalType": "uint256",
							"name": "tokenId",
							"type": "uint256"
						},
						{
							"internalType": "string",
							"name": "field",
							"type": "string"
						}
					],
					"name": "getValue",
					"outputs": [
						{
							"internalType": "bytes",
							"name": "result",
							"type": "bytes"
						}
					],
					"stateMutability": "view",
					"type": "function"
				},
				{
					"inputs": [
						{
							"internalType": "uint256",
							"name": "tokenId",
							"type": "uint256"
						},
						{
							"internalType": "string",
							"name": "field",
							"type": "string"
						},
						{
							"internalType": "bytes",
							"name": "value",
							"type": "bytes"
						}
					],
					"name": "removeArrayValue",
					"outputs": [
						{
							"internalType": "bool",
							"name": "",
							"type": "bool"
						}
					],
					"stateMutability": "nonpayable",
					"type": "function"
				},
				{
					"inputs": [
						{
							"internalType": "uint256",
							"name": "tokenId",
							"type": "uint256"
						},
						{
							"internalType": "string",
							"name": "field",
							"type": "string"
						},
						{
							"internalType": "bytes",
							"name": "value",
							"type": "bytes"
						}
					],
					"name": "setArrayValue",
					"outputs": [
						{
							"internalType": "bool",
							"name": "",
							"type": "bool"
						}
					],
					"stateMutability": "nonpayable",
					"type": "function"
				},
				{
					"inputs": [
						{
							"internalType": "address",
							"name": "addr",
							"type": "address"
						},
						{
							"internalType": "string[]",
							"name": "field",
							"type": "string[]"
						},
						{
							"internalType": "uint256[]",
							"name": "types",
							"type": "uint256[]"
						},
						{
							"internalType": "uint256[]",
							"name": "auth",
							"type": "uint256[]"
						}
					],
					"name": "setFiled",
					"outputs": [
						{
							"internalType": "bool",
							"name": "",
							"type": "bool"
						}
					],
					"stateMutability": "nonpayable",
					"type": "function"
				},
				{
					"inputs": [
						{
							"internalType": "address",
							"name": "addr",
							"type": "address"
						},
						{
							"internalType": "string",
							"name": "field",
							"type": "string"
						},
						{
							"internalType": "bytes",
							"name": "value",
							"type": "bytes"
						}
					],
					"name": "setUniques",
					"outputs": [
						{
							"internalType": "bool",
							"name": "",
							"type": "bool"
						}
					],
					"stateMutability": "nonpayable",
					"type": "function"
				},
				{
					"inputs": [
						{
							"internalType": "address",
							"name": "addr",
							"type": "address"
						},
						{
							"internalType": "uint256",
							"name": "tokenId",
							"type": "uint256"
						},
						{
							"internalType": "string",
							"name": "field",
							"type": "string"
						},
						{
							"internalType": "bytes",
							"name": "value",
							"type": "bytes"
						}
					],
					"name": "setValues",
					"outputs": [
						{
							"internalType": "bool",
							"name": "",
							"type": "bool"
						}
					],
					"stateMutability": "nonpayable",
					"type": "function"
				}
			],
			"devdoc": {
				"kind": "dev",
				"methods": {},
				"version": 1
			},
			"evm": {
				"assembly": "    /* \"contracts/ERC721Attr.sol\":1809:8508  contract ERC721Attr  {... */\n  mstore(0x40, 0x80)\n  callvalue\n  dup1\n  iszero\n  tag_1\n  jumpi\n  0x00\n  dup1\n  revert\ntag_1:\n  pop\n  dataSize(sub_0)\n  dup1\n  dataOffset(sub_0)\n  0x00\n  codecopy\n  0x00\n  return\nstop\n\nsub_0: assembly {\n        /* \"contracts/ERC721Attr.sol\":1809:8508  contract ERC721Attr  {... */\n      mstore(0x40, 0x80)\n      callvalue\n      dup1\n      iszero\n      tag_1\n      jumpi\n      0x00\n      dup1\n      revert\n    tag_1:\n      pop\n      jumpi(tag_2, lt(calldatasize, 0x04))\n      shr(0xe0, calldataload(0x00))\n      dup1\n      0x8d7b2428\n      gt\n      tag_19\n      jumpi\n      dup1\n      0xba36cefb\n      gt\n      tag_20\n      jumpi\n      dup1\n      0xba36cefb\n      eq\n      tag_15\n      jumpi\n      dup1\n      0xc5dd2a4f\n      eq\n      tag_16\n      jumpi\n      dup1\n      0xd4a419d3\n      eq\n      tag_17\n      jumpi\n      dup1\n      0xfb7cd6e4\n      eq\n      tag_18\n      jumpi\n      jump(tag_2)\n    tag_20:\n      dup1\n      0x8d7b2428\n      eq\n      tag_11\n      jumpi\n      dup1\n      0x9ca360f2\n      eq\n      tag_12\n      jumpi\n      dup1\n      0xad487a2d\n      eq\n      tag_13\n      jumpi\n      dup1\n      0xba3258e3\n      eq\n      tag_14\n      jumpi\n      jump(tag_2)\n    tag_19:\n      dup1\n      0x642b4d08\n      gt\n      tag_21\n      jumpi\n      dup1\n      0x642b4d08\n      eq\n      tag_7\n      jumpi\n      dup1\n      0x6c8131a7\n      eq\n      tag_8\n      jumpi\n      dup1\n      0x74bdc66e\n      eq\n      tag_9\n      jumpi\n      dup1\n      0x89274885\n      eq\n      tag_10\n      jumpi\n      jump(tag_2)\n    tag_21:\n      dup1\n      0x10976bde\n      eq\n      tag_3\n      jumpi\n      dup1\n      0x2942d3b0\n      eq\n      tag_4\n      jumpi\n      dup1\n      0x55290c1b\n      eq\n      tag_5\n      jumpi\n      dup1\n      0x5f599f93\n      eq\n      tag_6\n      jumpi\n    tag_2:\n      0x00\n      dup1\n      revert\n        /* \"contracts/ERC721Attr.sol\":6063:6191  function getType(address addr, string memory field) public view returns (uint256){... */\n    tag_3:\n      tag_22\n      0x04\n      dup1\n      calldatasize\n      sub\n      dup2\n      add\n      swap1\n      tag_23\n      swap2\n      swap1\n      tag_24\n      jump\t// in\n    tag_23:\n      tag_25\n      jump\t// in\n    tag_22:\n      mload(0x40)\n      tag_26\n      swap2\n      swap1\n      tag_27\n      jump\t// in\n    tag_26:\n      mload(0x40)\n      dup1\n      swap2\n      sub\n      swap1\n      return\n        /* \"contracts/ERC721Attr.sol\":4450:4629  function delValues(address addr, uint256 tokenId, string memory field) public  returns (bool) {... */\n    tag_4:\n      tag_28\n      0x04\n      dup1\n      calldatasize\n      sub\n      dup2\n      add\n      swap1\n      tag_29\n      swap2\n      swap1\n      tag_30\n      jump\t// in\n    tag_29:\n      tag_31\n      jump\t// in\n    tag_28:\n      mload(0x40)\n      tag_32\n      swap2\n      swap1\n      tag_33\n      jump\t// in\n    tag_32:\n      mload(0x40)\n      dup1\n      swap2\n      sub\n      swap1\n      return\n        /* \"contracts/ERC721Attr.sol\":3482:3688  function setValues(address addr, uint256 tokenId, string memory field, bytes memory value) public  returns (bool) {... */\n    tag_5:\n      tag_34\n      0x04\n      dup1\n      calldatasize\n      sub\n      dup2\n      add\n      swap1\n      tag_35\n      swap2\n      swap1\n      tag_36\n      jump\t// in\n    tag_35:\n      tag_37\n      jump\t// in\n    tag_34:\n      mload(0x40)\n      tag_38\n      swap2\n      swap1\n      tag_33\n      jump\t// in\n    tag_38:\n      mload(0x40)\n      dup1\n      swap2\n      sub\n      swap1\n      return\n        /* \"contracts/ERC721Attr.sol\":8371:8506  function getArrayCount(uint256 tokenId, string memory field) public view returns (uint256){... */\n    tag_6:\n      tag_39\n      0x04\n      dup1\n      calldatasize\n      sub\n      dup2\n      add\n      swap1\n      tag_40\n      swap2\n      swap1\n      tag_41\n      jump\t// in\n    tag_40:\n      tag_42\n      jump\t// in\n    tag_39:\n      mload(0x40)\n      tag_43\n      swap2\n      swap1\n      tag_27\n      jump\t// in\n    tag_43:\n      mload(0x40)\n      dup1\n      swap2\n      sub\n      swap1\n      return\n        /* \"contracts/ERC721Attr.sol\":6197:6349  function getUniques(address addr, string memory field, bytes memory value) public view returns (bool){... */\n    tag_7:\n      tag_44\n      0x04\n      dup1\n      calldatasize\n      sub\n      dup2\n      add\n      swap1\n      tag_45\n      swap2\n      swap1\n      tag_46\n      jump\t// in\n    tag_45:\n      tag_47\n      jump\t// in\n    tag_44:\n      mload(0x40)\n      tag_48\n      swap2\n      swap1\n      tag_33\n      jump\t// in\n    tag_48:\n      mload(0x40)\n      dup1\n      swap2\n      sub\n      swap1\n      return\n        /* \"contracts/ERC721Attr.sol\":6636:6938  function delArrayValue(uint256 tokenId, string memory field) public  returns (bool){... */\n    tag_8:\n      tag_49\n      0x04\n      dup1\n      calldatasize\n      sub\n      dup2\n      add\n      swap1\n      tag_50\n      swap2\n      swap1\n      tag_41\n      jump\t// in\n    tag_50:\n      tag_51\n      jump\t// in\n    tag_49:\n      mload(0x40)\n      tag_52\n      swap2\n      swap1\n      tag_33\n      jump\t// in\n    tag_52:\n      mload(0x40)\n      dup1\n      swap2\n      sub\n      swap1\n      return\n        /* \"contracts/ERC721Attr.sol\":5760:5923  function getValue(address addr, uint256 tokenId, string memory field) public view returns (bytes memory result){... */\n    tag_9:\n      tag_53\n      0x04\n      dup1\n      calldatasize\n      sub\n      dup2\n      add\n      swap1\n      tag_54\n      swap2\n      swap1\n      tag_30\n      jump\t// in\n    tag_54:\n      tag_55\n      jump\t// in\n    tag_53:\n      mload(0x40)\n      tag_56\n      swap2\n      swap1\n      tag_57\n      jump\t// in\n    tag_56:\n      mload(0x40)\n      dup1\n      swap2\n      sub\n      swap1\n      return\n        /* \"contracts/ERC721Attr.sol\":3970:4286  function clearUniques(address addr, string memory field, bytes memory value) public  returns (bool) {... */\n    tag_10:\n      tag_58\n      0x04\n      dup1\n      calldatasize\n      sub\n      dup2\n      add\n      swap1\n      tag_59\n      swap2\n      swap1\n      tag_46\n      jump\t// in\n    tag_59:\n      tag_60\n      jump\t// in\n    tag_58:\n      mload(0x40)\n      tag_61\n      swap2\n      swap1\n      tag_33\n      jump\t// in\n    tag_61:\n      mload(0x40)\n      dup1\n      swap2\n      sub\n      swap1\n      return\n        /* \"contracts/ERC721Attr.sol\":7980:8365  function getArrayValue(uint256 tokenId, string memory field) public view returns (uint256[] memory){... */\n    tag_11:\n      tag_62\n      0x04\n      dup1\n      calldatasize\n      sub\n      dup2\n      add\n      swap1\n      tag_63\n      swap2\n      swap1\n      tag_41\n      jump\t// in\n    tag_63:\n      tag_64\n      jump\t// in\n    tag_62:\n      mload(0x40)\n      tag_65\n      swap2\n      swap1\n      tag_66\n      jump\t// in\n    tag_65:\n      mload(0x40)\n      dup1\n      swap2\n      sub\n      swap1\n      return\n        /* \"contracts/ERC721Attr.sol\":2961:3476  function setFiled(address addr, string[] memory field, uint256[] memory types, uint256[] memory auth) public  returns (bool) {... */\n    tag_12:\n      tag_67\n      0x04\n      dup1\n      calldatasize\n      sub\n      dup2\n      add\n      swap1\n      tag_68\n      swap2\n      swap1\n      tag_69\n      jump\t// in\n    tag_68:\n      tag_70\n      jump\t// in\n    tag_67:\n      mload(0x40)\n      tag_71\n      swap2\n      swap1\n      tag_33\n      jump\t// in\n    tag_71:\n      mload(0x40)\n      dup1\n      swap2\n      sub\n      swap1\n      return\n        /* \"contracts/ERC721Attr.sol\":6944:7603  function removeArrayValue(uint256 tokenId, string memory field, bytes memory value) public  returns (bool){... */\n    tag_13:\n      tag_72\n      0x04\n      dup1\n      calldatasize\n      sub\n      dup2\n      add\n      swap1\n      tag_73\n      swap2\n      swap1\n      tag_74\n      jump\t// in\n    tag_73:\n      tag_75\n      jump\t// in\n    tag_72:\n      mload(0x40)\n      tag_76\n      swap2\n      swap1\n      tag_33\n      jump\t// in\n    tag_76:\n      mload(0x40)\n      dup1\n      swap2\n      sub\n      swap1\n      return\n        /* \"contracts/ERC721Attr.sol\":4292:4444  function delFiled(address addr, string memory field) public  returns (bool) {... */\n    tag_14:\n      tag_77\n      0x04\n      dup1\n      calldatasize\n      sub\n      dup2\n      add\n      swap1\n      tag_78\n      swap2\n      swap1\n      tag_24\n      jump\t// in\n    tag_78:\n      tag_79\n      jump\t// in\n    tag_77:\n      mload(0x40)\n      tag_80\n      swap2\n      swap1\n      tag_33\n      jump\t// in\n    tag_80:\n      mload(0x40)\n      dup1\n      swap2\n      sub\n      swap1\n      return\n        /* \"contracts/ERC721Attr.sol\":3694:3964  function setUniques(address addr, string memory field, bytes memory value) public  returns (bool) {... */\n    tag_15:\n      tag_81\n      0x04\n      dup1\n      calldatasize\n      sub\n      dup2\n      add\n      swap1\n      tag_82\n      swap2\n      swap1\n      tag_46\n      jump\t// in\n    tag_82:\n      tag_83\n      jump\t// in\n    tag_81:\n      mload(0x40)\n      tag_84\n      swap2\n      swap1\n      tag_33\n      jump\t// in\n    tag_84:\n      mload(0x40)\n      dup1\n      swap2\n      sub\n      swap1\n      return\n        /* \"contracts/ERC721Attr.sol\":7609:7974  function checkArrayValue(uint256 tokenId, string memory field, bytes memory value) public view  returns (bool){... */\n    tag_16:\n      tag_85\n      0x04\n      dup1\n      calldatasize\n      sub\n      dup2\n      add\n      swap1\n      tag_86\n      swap2\n      swap1\n      tag_74\n      jump\t// in\n    tag_86:\n      tag_87\n      jump\t// in\n    tag_85:\n      mload(0x40)\n      tag_88\n      swap2\n      swap1\n      tag_33\n      jump\t// in\n    tag_88:\n      mload(0x40)\n      dup1\n      swap2\n      sub\n      swap1\n      return\n        /* \"contracts/ERC721Attr.sol\":6355:6630  function setArrayValue(uint256 tokenId, string memory field, bytes memory value) public  returns (bool){... */\n    tag_17:\n      tag_89\n      0x04\n      dup1\n      calldatasize\n      sub\n      dup2\n      add\n      swap1\n      tag_90\n      swap2\n      swap1\n      tag_74\n      jump\t// in\n    tag_90:\n      tag_91\n      jump\t// in\n    tag_89:\n      mload(0x40)\n      tag_92\n      swap2\n      swap1\n      tag_33\n      jump\t// in\n    tag_92:\n      mload(0x40)\n      dup1\n      swap2\n      sub\n      swap1\n      return\n        /* \"contracts/ERC721Attr.sol\":5929:6057  function getAuth(address addr, string memory field) public view returns (uint256){... */\n    tag_18:\n      tag_93\n      0x04\n      dup1\n      calldatasize\n      sub\n      dup2\n      add\n      swap1\n      tag_94\n      swap2\n      swap1\n      tag_24\n      jump\t// in\n    tag_94:\n      tag_95\n      jump\t// in\n    tag_93:\n      mload(0x40)\n      tag_96\n      swap2\n      swap1\n      tag_27\n      jump\t// in\n    tag_96:\n      mload(0x40)\n      dup1\n      swap2\n      sub\n      swap1\n      return\n        /* \"contracts/ERC721Attr.sol\":6063:6191  function getType(address addr, string memory field) public view returns (uint256){... */\n    tag_25:\n        /* \"contracts/ERC721Attr.sol\":6136:6143  uint256 */\n      0x00\n        /* \"contracts/ERC721Attr.sol\":6161:6171  fieldsType */\n      0x02\n        /* \"contracts/ERC721Attr.sol\":6161:6177  fieldsType[addr] */\n      0x00\n        /* \"contracts/ERC721Attr.sol\":6172:6176  addr */\n      dup5\n        /* \"contracts/ERC721Attr.sol\":6161:6177  fieldsType[addr] */\n      0xffffffffffffffffffffffffffffffffffffffff\n      and\n      0xffffffffffffffffffffffffffffffffffffffff\n      and\n      dup2\n      mstore\n      0x20\n      add\n      swap1\n      dup2\n      mstore\n      0x20\n      add\n      0x00\n      keccak256\n        /* \"contracts/ERC721Attr.sol\":6178:6183  field */\n      dup3\n        /* \"contracts/ERC721Attr.sol\":6161:6184  fieldsType[addr][field] */\n      mload(0x40)\n      tag_98\n      swap2\n      swap1\n      tag_99\n      jump\t// in\n    tag_98:\n      swap1\n      dup2\n      mstore\n      0x20\n      add\n      mload(0x40)\n      dup1\n      swap2\n      sub\n      swap1\n      keccak256\n      sload\n        /* \"contracts/ERC721Attr.sol\":6154:6184  return fieldsType[addr][field] */\n      swap1\n      pop\n        /* \"contracts/ERC721Attr.sol\":6063:6191  function getType(address addr, string memory field) public view returns (uint256){... */\n      swap3\n      swap2\n      pop\n      pop\n      jump\t// out\n        /* \"contracts/ERC721Attr.sol\":4450:4629  function delValues(address addr, uint256 tokenId, string memory field) public  returns (bool) {... */\n    tag_31:\n        /* \"contracts/ERC721Attr.sol\":4538:4542  bool */\n      0x00\n        /* \"contracts/ERC721Attr.sol\":4554:4565  bool result */\n      dup1\n        /* \"contracts/ERC721Attr.sol\":4568:4599  _delValue(addr, tokenId, field) */\n      tag_101\n        /* \"contracts/ERC721Attr.sol\":4578:4582  addr */\n      dup6\n        /* \"contracts/ERC721Attr.sol\":4584:4591  tokenId */\n      dup6\n        /* \"contracts/ERC721Attr.sol\":4593:4598  field */\n      dup6\n        /* \"contracts/ERC721Attr.sol\":4568:4577  _delValue */\n      tag_102\n        /* \"contracts/ERC721Attr.sol\":4568:4599  _delValue(addr, tokenId, field) */\n      jump\t// in\n    tag_101:\n        /* \"contracts/ERC721Attr.sol\":4554:4599  bool result = _delValue(addr, tokenId, field) */\n      swap1\n      pop\n        /* \"contracts/ERC721Attr.sol\":4616:4622  result */\n      dup1\n        /* \"contracts/ERC721Attr.sol\":4609:4622  return result */\n      swap2\n      pop\n      pop\n        /* \"contracts/ERC721Attr.sol\":4450:4629  function delValues(address addr, uint256 tokenId, string memory field) public  returns (bool) {... */\n      swap4\n      swap3\n      pop\n      pop\n      pop\n      jump\t// out\n        /* \"contracts/ERC721Attr.sol\":3482:3688  function setValues(address addr, uint256 tokenId, string memory field, bytes memory value) public  returns (bool) {... */\n    tag_37:\n        /* \"contracts/ERC721Attr.sol\":3590:3594  bool */\n      0x00\n        /* \"contracts/ERC721Attr.sol\":3606:3617  bool result */\n      dup1\n        /* \"contracts/ERC721Attr.sol\":3620:3658  _setValue(addr, tokenId, field, value) */\n      tag_104\n        /* \"contracts/ERC721Attr.sol\":3630:3634  addr */\n      dup7\n        /* \"contracts/ERC721Attr.sol\":3636:3643  tokenId */\n      dup7\n        /* \"contracts/ERC721Attr.sol\":3645:3650  field */\n      dup7\n        /* \"contracts/ERC721Attr.sol\":3652:3657  value */\n      dup7\n        /* \"contracts/ERC721Attr.sol\":3620:3629  _setValue */\n      tag_105\n        /* \"contracts/ERC721Attr.sol\":3620:3658  _setValue(addr, tokenId, field, value) */\n      jump\t// in\n    tag_104:\n        /* \"contracts/ERC721Attr.sol\":3606:3658  bool result = _setValue(addr, tokenId, field, value) */\n      swap1\n      pop\n        /* \"contracts/ERC721Attr.sol\":3675:3681  result */\n      dup1\n        /* \"contracts/ERC721Attr.sol\":3668:3681  return result */\n      swap2\n      pop\n      pop\n        /* \"contracts/ERC721Attr.sol\":3482:3688  function setValues(address addr, uint256 tokenId, string memory field, bytes memory value) public  returns (bool) {... */\n      swap5\n      swap4\n      pop\n      pop\n      pop\n      pop\n      jump\t// out\n        /* \"contracts/ERC721Attr.sol\":8371:8506  function getArrayCount(uint256 tokenId, string memory field) public view returns (uint256){... */\n    tag_42:\n        /* \"contracts/ERC721Attr.sol\":8453:8460  uint256 */\n      0x00\n        /* \"contracts/ERC721Attr.sol\":8478:8483  index */\n      0x05\n        /* \"contracts/ERC721Attr.sol\":8478:8492  index[tokenId] */\n      0x00\n        /* \"contracts/ERC721Attr.sol\":8484:8491  tokenId */\n      dup5\n        /* \"contracts/ERC721Attr.sol\":8478:8492  index[tokenId] */\n      dup2\n      mstore\n      0x20\n      add\n      swap1\n      dup2\n      mstore\n      0x20\n      add\n      0x00\n      keccak256\n        /* \"contracts/ERC721Attr.sol\":8493:8498  field */\n      dup3\n        /* \"contracts/ERC721Attr.sol\":8478:8499  index[tokenId][field] */\n      mload(0x40)\n      tag_107\n      swap2\n      swap1\n      tag_99\n      jump\t// in\n    tag_107:\n      swap1\n      dup2\n      mstore\n      0x20\n      add\n      mload(0x40)\n      dup1\n      swap2\n      sub\n      swap1\n      keccak256\n      sload\n        /* \"contracts/ERC721Attr.sol\":8471:8499  return index[tokenId][field] */\n      swap1\n      pop\n        /* \"contracts/ERC721Attr.sol\":8371:8506  function getArrayCount(uint256 tokenId, string memory field) public view returns (uint256){... */\n      swap3\n      swap2\n      pop\n      pop\n      jump\t// out\n        /* \"contracts/ERC721Attr.sol\":6197:6349  function getUniques(address addr, string memory field, bytes memory value) public view returns (bool){... */\n    tag_47:\n        /* \"contracts/ERC721Attr.sol\":6293:6297  bool */\n      0x00\n        /* \"contracts/ERC721Attr.sol\":6315:6322  uniques */\n      0x04\n        /* \"contracts/ERC721Attr.sol\":6315:6328  uniques[addr] */\n      0x00\n        /* \"contracts/ERC721Attr.sol\":6323:6327  addr */\n      dup6\n        /* \"contracts/ERC721Attr.sol\":6315:6328  uniques[addr] */\n      0xffffffffffffffffffffffffffffffffffffffff\n      and\n      0xffffffffffffffffffffffffffffffffffffffff\n      and\n      dup2\n      mstore\n      0x20\n      add\n      swap1\n      dup2\n      mstore\n      0x20\n      add\n      0x00\n      keccak256\n        /* \"contracts/ERC721Attr.sol\":6329:6334  field */\n      dup4\n        /* \"contracts/ERC721Attr.sol\":6315:6335  uniques[addr][field] */\n      mload(0x40)\n      tag_109\n      swap2\n      swap1\n      tag_99\n      jump\t// in\n    tag_109:\n      swap1\n      dup2\n      mstore\n      0x20\n      add\n      mload(0x40)\n      dup1\n      swap2\n      sub\n      swap1\n      keccak256\n        /* \"contracts/ERC721Attr.sol\":6336:6341  value */\n      dup3\n        /* \"contracts/ERC721Attr.sol\":6315:6342  uniques[addr][field][value] */\n      mload(0x40)\n      tag_110\n      swap2\n      swap1\n      tag_111\n      jump\t// in\n    tag_110:\n      swap1\n      dup2\n      mstore\n      0x20\n      add\n      mload(0x40)\n      dup1\n      swap2\n      sub\n      swap1\n      keccak256\n      0x00\n      swap1\n      sload\n      swap1\n      0x0100\n      exp\n      swap1\n      div\n      0xff\n      and\n        /* \"contracts/ERC721Attr.sol\":6308:6342  return uniques[addr][field][value] */\n      swap1\n      pop\n        /* \"contracts/ERC721Attr.sol\":6197:6349  function getUniques(address addr, string memory field, bytes memory value) public view returns (bool){... */\n      swap4\n      swap3\n      pop\n      pop\n      pop\n      jump\t// out\n        /* \"contracts/ERC721Attr.sol\":6636:6938  function delArrayValue(uint256 tokenId, string memory field) public  returns (bool){... */\n    tag_51:\n        /* \"contracts/ERC721Attr.sol\":6714:6718  bool */\n      0x00\n        /* \"contracts/ERC721Attr.sol\":6729:6742  uint256 count */\n      dup1\n        /* \"contracts/ERC721Attr.sol\":6745:6750  index */\n      0x05\n        /* \"contracts/ERC721Attr.sol\":6745:6759  index[tokenId] */\n      0x00\n        /* \"contracts/ERC721Attr.sol\":6751:6758  tokenId */\n      dup6\n        /* \"contracts/ERC721Attr.sol\":6745:6759  index[tokenId] */\n      dup2\n      mstore\n      0x20\n      add\n      swap1\n      dup2\n      mstore\n      0x20\n      add\n      0x00\n      keccak256\n        /* \"contracts/ERC721Attr.sol\":6760:6765  field */\n      dup4\n        /* \"contracts/ERC721Attr.sol\":6745:6766  index[tokenId][field] */\n      mload(0x40)\n      tag_113\n      swap2\n      swap1\n      tag_99\n      jump\t// in\n    tag_113:\n      swap1\n      dup2\n      mstore\n      0x20\n      add\n      mload(0x40)\n      dup1\n      swap2\n      sub\n      swap1\n      keccak256\n      sload\n        /* \"contracts/ERC721Attr.sol\":6729:6766  uint256 count = index[tokenId][field] */\n      swap1\n      pop\n        /* \"contracts/ERC721Attr.sol\":6781:6790  uint256 i */\n      0x00\n        /* \"contracts/ERC721Attr.sol\":6776:6873  for (uint256 i = 0; i < count; i++) {... */\n    tag_114:\n        /* \"contracts/ERC721Attr.sol\":6800:6805  count */\n      dup2\n        /* \"contracts/ERC721Attr.sol\":6796:6797  i */\n      dup2\n        /* \"contracts/ERC721Attr.sol\":6796:6805  i < count */\n      lt\n        /* \"contracts/ERC721Attr.sol\":6776:6873  for (uint256 i = 0; i < count; i++) {... */\n      iszero\n      tag_115\n      jumpi\n        /* \"contracts/ERC721Attr.sol\":6833:6843  arrayValue */\n      0x06\n        /* \"contracts/ERC721Attr.sol\":6833:6852  arrayValue[tokenId] */\n      0x00\n        /* \"contracts/ERC721Attr.sol\":6844:6851  tokenId */\n      dup7\n        /* \"contracts/ERC721Attr.sol\":6833:6852  arrayValue[tokenId] */\n      dup2\n      mstore\n      0x20\n      add\n      swap1\n      dup2\n      mstore\n      0x20\n      add\n      0x00\n      keccak256\n        /* \"contracts/ERC721Attr.sol\":6853:6858  field */\n      dup5\n        /* \"contracts/ERC721Attr.sol\":6833:6859  arrayValue[tokenId][field] */\n      mload(0x40)\n      tag_117\n      swap2\n      swap1\n      tag_99\n      jump\t// in\n    tag_117:\n      swap1\n      dup2\n      mstore\n      0x20\n      add\n      mload(0x40)\n      dup1\n      swap2\n      sub\n      swap1\n      keccak256\n        /* \"contracts/ERC721Attr.sol\":6833:6862  arrayValue[tokenId][field][i] */\n      0x00\n        /* \"contracts/ERC721Attr.sol\":6860:6861  i */\n      dup3\n        /* \"contracts/ERC721Attr.sol\":6833:6862  arrayValue[tokenId][field][i] */\n      dup2\n      mstore\n      0x20\n      add\n      swap1\n      dup2\n      mstore\n      0x20\n      add\n      0x00\n      keccak256\n      0x00\n        /* \"contracts/ERC721Attr.sol\":6826:6862  delete arrayValue[tokenId][field][i] */\n      tag_118\n      swap2\n      swap1\n      tag_119\n      jump\t// in\n    tag_118:\n        /* \"contracts/ERC721Attr.sol\":6807:6810  i++ */\n      dup1\n      dup1\n      tag_120\n      swap1\n      tag_121\n      jump\t// in\n    tag_120:\n      swap2\n      pop\n      pop\n        /* \"contracts/ERC721Attr.sol\":6776:6873  for (uint256 i = 0; i < count; i++) {... */\n      jump(tag_114)\n    tag_115:\n      pop\n        /* \"contracts/ERC721Attr.sol\":6889:6894  index */\n      0x05\n        /* \"contracts/ERC721Attr.sol\":6889:6903  index[tokenId] */\n      0x00\n        /* \"contracts/ERC721Attr.sol\":6895:6902  tokenId */\n      dup6\n        /* \"contracts/ERC721Attr.sol\":6889:6903  index[tokenId] */\n      dup2\n      mstore\n      0x20\n      add\n      swap1\n      dup2\n      mstore\n      0x20\n      add\n      0x00\n      keccak256\n        /* \"contracts/ERC721Attr.sol\":6904:6909  field */\n      dup4\n        /* \"contracts/ERC721Attr.sol\":6889:6910  index[tokenId][field] */\n      mload(0x40)\n      tag_122\n      swap2\n      swap1\n      tag_99\n      jump\t// in\n    tag_122:\n      swap1\n      dup2\n      mstore\n      0x20\n      add\n      mload(0x40)\n      dup1\n      swap2\n      sub\n      swap1\n      keccak256\n        /* \"contracts/ERC721Attr.sol\":6882:6910  delete index[tokenId][field] */\n      0x00\n      swap1\n      sstore\n        /* \"contracts/ERC721Attr.sol\":6927:6931  true */\n      0x01\n        /* \"contracts/ERC721Attr.sol\":6920:6931  return true */\n      swap2\n      pop\n      pop\n        /* \"contracts/ERC721Attr.sol\":6636:6938  function delArrayValue(uint256 tokenId, string memory field) public  returns (bool){... */\n      swap3\n      swap2\n      pop\n      pop\n      jump\t// out\n        /* \"contracts/ERC721Attr.sol\":5760:5923  function getValue(address addr, uint256 tokenId, string memory field) public view returns (bytes memory result){... */\n    tag_55:\n        /* \"contracts/ERC721Attr.sol\":5851:5870  bytes memory result */\n      0x60\n        /* \"contracts/ERC721Attr.sol\":5888:5894  values */\n      0x01\n        /* \"contracts/ERC721Attr.sol\":5888:5900  values[addr] */\n      0x00\n        /* \"contracts/ERC721Attr.sol\":5895:5899  addr */\n      dup6\n        /* \"contracts/ERC721Attr.sol\":5888:5900  values[addr] */\n      0xffffffffffffffffffffffffffffffffffffffff\n      and\n      0xffffffffffffffffffffffffffffffffffffffff\n      and\n      dup2\n      mstore\n      0x20\n      add\n      swap1\n      dup2\n      mstore\n      0x20\n      add\n      0x00\n      keccak256\n        /* \"contracts/ERC721Attr.sol\":5888:5909  values[addr][tokenId] */\n      0x00\n        /* \"contracts/ERC721Attr.sol\":5901:5908  tokenId */\n      dup5\n        /* \"contracts/ERC721Attr.sol\":5888:5909  values[addr][tokenId] */\n      dup2\n      mstore\n      0x20\n      add\n      swap1\n      dup2\n      mstore\n      0x20\n      add\n      0x00\n      keccak256\n        /* \"contracts/ERC721Attr.sol\":5910:5915  field */\n      dup3\n        /* \"contracts/ERC721Attr.sol\":5888:5916  values[addr][tokenId][field] */\n      mload(0x40)\n      tag_124\n      swap2\n      swap1\n      tag_99\n      jump\t// in\n    tag_124:\n      swap1\n      dup2\n      mstore\n      0x20\n      add\n      mload(0x40)\n      dup1\n      swap2\n      sub\n      swap1\n      keccak256\n        /* \"contracts/ERC721Attr.sol\":5881:5916  return values[addr][tokenId][field] */\n      dup1\n      sload\n      tag_125\n      swap1\n      tag_126\n      jump\t// in\n    tag_125:\n      dup1\n      0x1f\n      add\n      0x20\n      dup1\n      swap2\n      div\n      mul\n      0x20\n      add\n      mload(0x40)\n      swap1\n      dup2\n      add\n      0x40\n      mstore\n      dup1\n      swap3\n      swap2\n      swap1\n      dup2\n      dup2\n      mstore\n      0x20\n      add\n      dup3\n      dup1\n      sload\n      tag_127\n      swap1\n      tag_126\n      jump\t// in\n    tag_127:\n      dup1\n      iszero\n      tag_128\n      jumpi\n      dup1\n      0x1f\n      lt\n      tag_129\n      jumpi\n      0x0100\n      dup1\n      dup4\n      sload\n      div\n      mul\n      dup4\n      mstore\n      swap2\n      0x20\n      add\n      swap2\n      jump(tag_128)\n    tag_129:\n      dup3\n      add\n      swap2\n      swap1\n      0x00\n      mstore\n      keccak256(0x00, 0x20)\n      swap1\n    tag_130:\n      dup2\n      sload\n      dup2\n      mstore\n      swap1\n      0x01\n      add\n      swap1\n      0x20\n      add\n      dup1\n      dup4\n      gt\n      tag_130\n      jumpi\n      dup3\n      swap1\n      sub\n      0x1f\n      and\n      dup3\n      add\n      swap2\n    tag_128:\n      pop\n      pop\n      pop\n      pop\n      pop\n      swap1\n      pop\n        /* \"contracts/ERC721Attr.sol\":5760:5923  function getValue(address addr, uint256 tokenId, string memory field) public view returns (bytes memory result){... */\n      swap4\n      swap3\n      pop\n      pop\n      pop\n      jump\t// out\n        /* \"contracts/ERC721Attr.sol\":3970:4286  function clearUniques(address addr, string memory field, bytes memory value) public  returns (bool) {... */\n    tag_60:\n        /* \"contracts/ERC721Attr.sol\":4064:4068  bool */\n      0x00\n        /* \"contracts/ERC721Attr.sol\":4088:4095  uniques */\n      0x04\n        /* \"contracts/ERC721Attr.sol\":4088:4101  uniques[addr] */\n      0x00\n        /* \"contracts/ERC721Attr.sol\":4096:4100  addr */\n      dup6\n        /* \"contracts/ERC721Attr.sol\":4088:4101  uniques[addr] */\n      0xffffffffffffffffffffffffffffffffffffffff\n      and\n      0xffffffffffffffffffffffffffffffffffffffff\n      and\n      dup2\n      mstore\n      0x20\n      add\n      swap1\n      dup2\n      mstore\n      0x20\n      add\n      0x00\n      keccak256\n        /* \"contracts/ERC721Attr.sol\":4102:4107  field */\n      dup4\n        /* \"contracts/ERC721Attr.sol\":4088:4108  uniques[addr][field] */\n      mload(0x40)\n      tag_132\n      swap2\n      swap1\n      tag_99\n      jump\t// in\n    tag_132:\n      swap1\n      dup2\n      mstore\n      0x20\n      add\n      mload(0x40)\n      dup1\n      swap2\n      sub\n      swap1\n      keccak256\n        /* \"contracts/ERC721Attr.sol\":4109:4114  value */\n      dup3\n        /* \"contracts/ERC721Attr.sol\":4088:4115  uniques[addr][field][value] */\n      mload(0x40)\n      tag_133\n      swap2\n      swap1\n      tag_111\n      jump\t// in\n    tag_133:\n      swap1\n      dup2\n      mstore\n      0x20\n      add\n      mload(0x40)\n      dup1\n      swap2\n      sub\n      swap1\n      keccak256\n      0x00\n      swap1\n      sload\n      swap1\n      0x0100\n      exp\n      swap1\n      div\n      0xff\n      and\n        /* \"contracts/ERC721Attr.sol\":4080:4150  require(uniques[addr][field][value], \"Uniqueness verification failed\") */\n      tag_134\n      jumpi\n      mload(0x40)\n      0x08c379a000000000000000000000000000000000000000000000000000000000\n      dup2\n      mstore\n      0x04\n      add\n      tag_135\n      swap1\n      tag_136\n      jump\t// in\n    tag_135:\n      mload(0x40)\n      dup1\n      swap2\n      sub\n      swap1\n      revert\n    tag_134:\n        /* \"contracts/ERC721Attr.sol\":4160:4171  bool result */\n      0x00\n        /* \"contracts/ERC721Attr.sol\":4174:4212  _setUniques(addr, field, value, false) */\n      tag_137\n        /* \"contracts/ERC721Attr.sol\":4186:4190  addr */\n      dup6\n        /* \"contracts/ERC721Attr.sol\":4192:4197  field */\n      dup6\n        /* \"contracts/ERC721Attr.sol\":4199:4204  value */\n      dup6\n        /* \"contracts/ERC721Attr.sol\":4206:4211  false */\n      0x00\n        /* \"contracts/ERC721Attr.sol\":4174:4185  _setUniques */\n      tag_138\n        /* \"contracts/ERC721Attr.sol\":4174:4212  _setUniques(addr, field, value, false) */\n      jump\t// in\n    tag_137:\n        /* \"contracts/ERC721Attr.sol\":4160:4212  bool result = _setUniques(addr, field, value, false) */\n      swap1\n      pop\n        /* \"contracts/ERC721Attr.sol\":4229:4236  uniques */\n      0x04\n        /* \"contracts/ERC721Attr.sol\":4229:4242  uniques[addr] */\n      0x00\n        /* \"contracts/ERC721Attr.sol\":4237:4241  addr */\n      dup7\n        /* \"contracts/ERC721Attr.sol\":4229:4242  uniques[addr] */\n      0xffffffffffffffffffffffffffffffffffffffff\n      and\n      0xffffffffffffffffffffffffffffffffffffffff\n      and\n      dup2\n      mstore\n      0x20\n      add\n      swap1\n      dup2\n      mstore\n      0x20\n      add\n      0x00\n      keccak256\n        /* \"contracts/ERC721Attr.sol\":4243:4248  field */\n      dup5\n        /* \"contracts/ERC721Attr.sol\":4229:4249  uniques[addr][field] */\n      mload(0x40)\n      tag_139\n      swap2\n      swap1\n      tag_99\n      jump\t// in\n    tag_139:\n      swap1\n      dup2\n      mstore\n      0x20\n      add\n      mload(0x40)\n      dup1\n      swap2\n      sub\n      swap1\n      keccak256\n        /* \"contracts/ERC721Attr.sol\":4250:4255  value */\n      dup4\n        /* \"contracts/ERC721Attr.sol\":4229:4256  uniques[addr][field][value] */\n      mload(0x40)\n      tag_140\n      swap2\n      swap1\n      tag_111\n      jump\t// in\n    tag_140:\n      swap1\n      dup2\n      mstore\n      0x20\n      add\n      mload(0x40)\n      dup1\n      swap2\n      sub\n      swap1\n      keccak256\n      0x00\n        /* \"contracts/ERC721Attr.sol\":4222:4256  delete uniques[addr][field][value] */\n      0x0100\n      exp\n      dup2\n      sload\n      swap1\n      0xff\n      mul\n      not\n      and\n      swap1\n      sstore\n        /* \"contracts/ERC721Attr.sol\":4273:4279  result */\n      dup1\n        /* \"contracts/ERC721Attr.sol\":4266:4279  return result */\n      swap2\n      pop\n      pop\n        /* \"contracts/ERC721Attr.sol\":3970:4286  function clearUniques(address addr, string memory field, bytes memory value) public  returns (bool) {... */\n      swap4\n      swap3\n      pop\n      pop\n      pop\n      jump\t// out\n        /* \"contracts/ERC721Attr.sol\":7980:8365  function getArrayValue(uint256 tokenId, string memory field) public view returns (uint256[] memory){... */\n    tag_64:\n        /* \"contracts/ERC721Attr.sol\":8062:8078  uint256[] memory */\n      0x60\n        /* \"contracts/ERC721Attr.sol\":8089:8102  uint256 count */\n      0x00\n        /* \"contracts/ERC721Attr.sol\":8105:8110  index */\n      0x05\n        /* \"contracts/ERC721Attr.sol\":8105:8119  index[tokenId] */\n      0x00\n        /* \"contracts/ERC721Attr.sol\":8111:8118  tokenId */\n      dup6\n        /* \"contracts/ERC721Attr.sol\":8105:8119  index[tokenId] */\n      dup2\n      mstore\n      0x20\n      add\n      swap1\n      dup2\n      mstore\n      0x20\n      add\n      0x00\n      keccak256\n        /* \"contracts/ERC721Attr.sol\":8120:8125  field */\n      dup4\n        /* \"contracts/ERC721Attr.sol\":8105:8126  index[tokenId][field] */\n      mload(0x40)\n      tag_142\n      swap2\n      swap1\n      tag_99\n      jump\t// in\n    tag_142:\n      swap1\n      dup2\n      mstore\n      0x20\n      add\n      mload(0x40)\n      dup1\n      swap2\n      sub\n      swap1\n      keccak256\n      sload\n        /* \"contracts/ERC721Attr.sol\":8089:8126  uint256 count = index[tokenId][field] */\n      swap1\n      pop\n        /* \"contracts/ERC721Attr.sol\":8136:8156  uint256[] memory arr */\n      0x00\n        /* \"contracts/ERC721Attr.sol\":8173:8178  count */\n      dup2\n        /* \"contracts/ERC721Attr.sol\":8159:8179  new uint256[](count) */\n      0xffffffffffffffff\n      dup2\n      gt\n      iszero\n      tag_143\n      jumpi\n      tag_144\n      tag_145\n      jump\t// in\n    tag_144:\n    tag_143:\n      mload(0x40)\n      swap1\n      dup1\n      dup3\n      mstore\n      dup1\n      0x20\n      mul\n      0x20\n      add\n      dup3\n      add\n      0x40\n      mstore\n      dup1\n      iszero\n      tag_146\n      jumpi\n      dup2\n      0x20\n      add\n      0x20\n      dup3\n      mul\n      dup1\n      calldatasize\n      dup4\n      calldatacopy\n      dup1\n      dup3\n      add\n      swap2\n      pop\n      pop\n      swap1\n      pop\n    tag_146:\n      pop\n        /* \"contracts/ERC721Attr.sol\":8136:8179  uint256[] memory arr = new uint256[](count) */\n      swap1\n      pop\n        /* \"contracts/ERC721Attr.sol\":8194:8203  uint256 i */\n      0x00\n        /* \"contracts/ERC721Attr.sol\":8189:8339  for (uint256 i = 0; i < count; i++) {... */\n    tag_147:\n        /* \"contracts/ERC721Attr.sol\":8213:8218  count */\n      dup3\n        /* \"contracts/ERC721Attr.sol\":8209:8210  i */\n      dup2\n        /* \"contracts/ERC721Attr.sol\":8209:8218  i < count */\n      lt\n        /* \"contracts/ERC721Attr.sol\":8189:8339  for (uint256 i = 0; i < count; i++) {... */\n      iszero\n      tag_148\n      jumpi\n        /* \"contracts/ERC721Attr.sol\":8239:8254  bytes memory id */\n      0x00\n        /* \"contracts/ERC721Attr.sol\":8257:8267  arrayValue */\n      0x06\n        /* \"contracts/ERC721Attr.sol\":8257:8276  arrayValue[tokenId] */\n      0x00\n        /* \"contracts/ERC721Attr.sol\":8268:8275  tokenId */\n      dup9\n        /* \"contracts/ERC721Attr.sol\":8257:8276  arrayValue[tokenId] */\n      dup2\n      mstore\n      0x20\n      add\n      swap1\n      dup2\n      mstore\n      0x20\n      add\n      0x00\n      keccak256\n        /* \"contracts/ERC721Attr.sol\":8277:8282  field */\n      dup7\n        /* \"contracts/ERC721Attr.sol\":8257:8283  arrayValue[tokenId][field] */\n      mload(0x40)\n      tag_150\n      swap2\n      swap1\n      tag_99\n      jump\t// in\n    tag_150:\n      swap1\n      dup2\n      mstore\n      0x20\n      add\n      mload(0x40)\n      dup1\n      swap2\n      sub\n      swap1\n      keccak256\n        /* \"contracts/ERC721Attr.sol\":8257:8286  arrayValue[tokenId][field][i] */\n      0x00\n        /* \"contracts/ERC721Attr.sol\":8284:8285  i */\n      dup4\n        /* \"contracts/ERC721Attr.sol\":8257:8286  arrayValue[tokenId][field][i] */\n      dup2\n      mstore\n      0x20\n      add\n      swap1\n      dup2\n      mstore\n      0x20\n      add\n      0x00\n      keccak256\n        /* \"contracts/ERC721Attr.sol\":8239:8286  bytes memory id = arrayValue[tokenId][field][i] */\n      dup1\n      sload\n      tag_151\n      swap1\n      tag_126\n      jump\t// in\n    tag_151:\n      dup1\n      0x1f\n      add\n      0x20\n      dup1\n      swap2\n      div\n      mul\n      0x20\n      add\n      mload(0x40)\n      swap1\n      dup2\n      add\n      0x40\n      mstore\n      dup1\n      swap3\n      swap2\n      swap1\n      dup2\n      dup2\n      mstore\n      0x20\n      add\n      dup3\n      dup1\n      sload\n      tag_152\n      swap1\n      tag_126\n      jump\t// in\n    tag_152:\n      dup1\n      iszero\n      tag_153\n      jumpi\n      dup1\n      0x1f\n      lt\n      tag_154\n      jumpi\n      0x0100\n      dup1\n      dup4\n      sload\n      div\n      mul\n      dup4\n      mstore\n      swap2\n      0x20\n      add\n      swap2\n      jump(tag_153)\n    tag_154:\n      dup3\n      add\n      swap2\n      swap1\n      0x00\n      mstore\n      keccak256(0x00, 0x20)\n      swap1\n    tag_155:\n      dup2\n      sload\n      dup2\n      mstore\n      swap1\n      0x01\n      add\n      swap1\n      0x20\n      add\n      dup1\n      dup4\n      gt\n      tag_155\n      jumpi\n      dup3\n      swap1\n      sub\n      0x1f\n      and\n      dup3\n      add\n      swap2\n    tag_153:\n      pop\n      pop\n      pop\n      pop\n      pop\n      swap1\n      pop\n        /* \"contracts/ERC721Attr.sol\":8309:8328  id.BytesToUint256() */\n      tag_156\n        /* \"contracts/ERC721Attr.sol\":8309:8311  id */\n      dup2\n        /* \"contracts/ERC721Attr.sol\":8309:8326  id.BytesToUint256 */\n      tag_157\n        /* \"contracts/ERC721Attr.sol\":8309:8328  id.BytesToUint256() */\n      jump\t// in\n    tag_156:\n        /* \"contracts/ERC721Attr.sol\":8300:8303  arr */\n      dup4\n        /* \"contracts/ERC721Attr.sol\":8304:8305  i */\n      dup4\n        /* \"contracts/ERC721Attr.sol\":8300:8306  arr[i] */\n      dup2\n      mload\n      dup2\n      lt\n      tag_158\n      jumpi\n      tag_159\n      tag_160\n      jump\t// in\n    tag_159:\n    tag_158:\n      0x20\n      mul\n      0x20\n      add\n      add\n        /* \"contracts/ERC721Attr.sol\":8300:8328  arr[i] = id.BytesToUint256() */\n      dup2\n      dup2\n      mstore\n      pop\n      pop\n        /* \"contracts/ERC721Attr.sol\":8225:8339  {... */\n      pop\n        /* \"contracts/ERC721Attr.sol\":8220:8223  i++ */\n      dup1\n      dup1\n      tag_161\n      swap1\n      tag_121\n      jump\t// in\n    tag_161:\n      swap2\n      pop\n      pop\n        /* \"contracts/ERC721Attr.sol\":8189:8339  for (uint256 i = 0; i < count; i++) {... */\n      jump(tag_147)\n    tag_148:\n      pop\n        /* \"contracts/ERC721Attr.sol\":8355:8358  arr */\n      dup1\n        /* \"contracts/ERC721Attr.sol\":8348:8358  return arr */\n      swap3\n      pop\n      pop\n      pop\n        /* \"contracts/ERC721Attr.sol\":7980:8365  function getArrayValue(uint256 tokenId, string memory field) public view returns (uint256[] memory){... */\n      swap3\n      swap2\n      pop\n      pop\n      jump\t// out\n        /* \"contracts/ERC721Attr.sol\":2961:3476  function setFiled(address addr, string[] memory field, uint256[] memory types, uint256[] memory auth) public  returns (bool) {... */\n    tag_70:\n        /* \"contracts/ERC721Attr.sol\":3080:3084  bool */\n      0x00\n        /* \"contracts/ERC721Attr.sol\":3119:3120  0 */\n      dup1\n        /* \"contracts/ERC721Attr.sol\":3104:3109  field */\n      dup5\n        /* \"contracts/ERC721Attr.sol\":3104:3116  field.length */\n      mload\n        /* \"contracts/ERC721Attr.sol\":3104:3120  field.length > 0 */\n      gt\n        /* \"contracts/ERC721Attr.sol\":3104:3143  field.length > 0 && field.length <= 256 */\n      dup1\n      iszero\n      tag_163\n      jumpi\n      pop\n        /* \"contracts/ERC721Attr.sol\":3140:3143  256 */\n      0x0100\n        /* \"contracts/ERC721Attr.sol\":3124:3129  field */\n      dup5\n        /* \"contracts/ERC721Attr.sol\":3124:3136  field.length */\n      mload\n        /* \"contracts/ERC721Attr.sol\":3124:3143  field.length <= 256 */\n      gt\n      iszero\n        /* \"contracts/ERC721Attr.sol\":3104:3143  field.length > 0 && field.length <= 256 */\n    tag_163:\n        /* \"contracts/ERC721Attr.sol\":3096:3166  require(field.length > 0 && field.length <= 256, \"Invalid parameters\") */\n      tag_164\n      jumpi\n      mload(0x40)\n      0x08c379a000000000000000000000000000000000000000000000000000000000\n      dup2\n      mstore\n      0x04\n      add\n      tag_165\n      swap1\n      tag_166\n      jump\t// in\n    tag_165:\n      mload(0x40)\n      dup1\n      swap2\n      sub\n      swap1\n      revert\n    tag_164:\n        /* \"contracts/ERC721Attr.sol\":3200:3205  types */\n      dup3\n        /* \"contracts/ERC721Attr.sol\":3200:3212  types.length */\n      mload\n        /* \"contracts/ERC721Attr.sol\":3184:3189  field */\n      dup5\n        /* \"contracts/ERC721Attr.sol\":3184:3196  field.length */\n      mload\n        /* \"contracts/ERC721Attr.sol\":3184:3212  field.length == types.length */\n      eq\n        /* \"contracts/ERC721Attr.sol\":3184:3243  field.length == types.length && field.length == auth.length */\n      dup1\n      iszero\n      tag_167\n      jumpi\n      pop\n        /* \"contracts/ERC721Attr.sol\":3232:3236  auth */\n      dup2\n        /* \"contracts/ERC721Attr.sol\":3232:3243  auth.length */\n      mload\n        /* \"contracts/ERC721Attr.sol\":3216:3221  field */\n      dup5\n        /* \"contracts/ERC721Attr.sol\":3216:3228  field.length */\n      mload\n        /* \"contracts/ERC721Attr.sol\":3216:3243  field.length == auth.length */\n      eq\n        /* \"contracts/ERC721Attr.sol\":3184:3243  field.length == types.length && field.length == auth.length */\n    tag_167:\n        /* \"contracts/ERC721Attr.sol\":3176:3266  require(field.length == types.length && field.length == auth.length, \"Invalid parameters\") */\n      tag_168\n      jumpi\n      mload(0x40)\n      0x08c379a000000000000000000000000000000000000000000000000000000000\n      dup2\n      mstore\n      0x04\n      add\n      tag_169\n      swap1\n      tag_166\n      jump\t// in\n    tag_169:\n      mload(0x40)\n      dup1\n      swap2\n      sub\n      swap1\n      revert\n    tag_168:\n        /* \"contracts/ERC721Attr.sol\":3281:3290  uint256 i */\n      0x00\n        /* \"contracts/ERC721Attr.sol\":3276:3449  for (uint256 i = 0; i < field.length; i++) {... */\n    tag_170:\n        /* \"contracts/ERC721Attr.sol\":3300:3305  field */\n      dup5\n        /* \"contracts/ERC721Attr.sol\":3300:3312  field.length */\n      mload\n        /* \"contracts/ERC721Attr.sol\":3296:3297  i */\n      dup2\n        /* \"contracts/ERC721Attr.sol\":3296:3312  i < field.length */\n      lt\n        /* \"contracts/ERC721Attr.sol\":3276:3449  for (uint256 i = 0; i < field.length; i++) {... */\n      iszero\n      tag_171\n      jumpi\n        /* \"contracts/ERC721Attr.sol\":3333:3344  bool result */\n      0x00\n        /* \"contracts/ERC721Attr.sol\":3347:3391  _setFiled(addr, field[i], types[i], auth[i]) */\n      tag_173\n        /* \"contracts/ERC721Attr.sol\":3357:3361  addr */\n      dup8\n        /* \"contracts/ERC721Attr.sol\":3363:3368  field */\n      dup8\n        /* \"contracts/ERC721Attr.sol\":3369:3370  i */\n      dup5\n        /* \"contracts/ERC721Attr.sol\":3363:3371  field[i] */\n      dup2\n      mload\n      dup2\n      lt\n      tag_174\n      jumpi\n      tag_175\n      tag_160\n      jump\t// in\n    tag_175:\n    tag_174:\n      0x20\n      mul\n      0x20\n      add\n      add\n      mload\n        /* \"contracts/ERC721Attr.sol\":3373:3378  types */\n      dup8\n        /* \"contracts/ERC721Attr.sol\":3379:3380  i */\n      dup6\n        /* \"contracts/ERC721Attr.sol\":3373:3381  types[i] */\n      dup2\n      mload\n      dup2\n      lt\n      tag_176\n      jumpi\n      tag_177\n      tag_160\n      jump\t// in\n    tag_177:\n    tag_176:\n      0x20\n      mul\n      0x20\n      add\n      add\n      mload\n        /* \"contracts/ERC721Attr.sol\":3383:3387  auth */\n      dup8\n        /* \"contracts/ERC721Attr.sol\":3388:3389  i */\n      dup7\n        /* \"contracts/ERC721Attr.sol\":3383:3390  auth[i] */\n      dup2\n      mload\n      dup2\n      lt\n      tag_178\n      jumpi\n      tag_179\n      tag_160\n      jump\t// in\n    tag_179:\n    tag_178:\n      0x20\n      mul\n      0x20\n      add\n      add\n      mload\n        /* \"contracts/ERC721Attr.sol\":3347:3356  _setFiled */\n      tag_180\n        /* \"contracts/ERC721Attr.sol\":3347:3391  _setFiled(addr, field[i], types[i], auth[i]) */\n      jump\t// in\n    tag_173:\n        /* \"contracts/ERC721Attr.sol\":3333:3391  bool result = _setFiled(addr, field[i], types[i], auth[i]) */\n      swap1\n      pop\n        /* \"contracts/ERC721Attr.sol\":3413:3419  result */\n      dup1\n        /* \"contracts/ERC721Attr.sol\":3405:3438  require(result, \"setFiled error\") */\n      tag_181\n      jumpi\n      mload(0x40)\n      0x08c379a000000000000000000000000000000000000000000000000000000000\n      dup2\n      mstore\n      0x04\n      add\n      tag_182\n      swap1\n      tag_183\n      jump\t// in\n    tag_182:\n      mload(0x40)\n      dup1\n      swap2\n      sub\n      swap1\n      revert\n    tag_181:\n        /* \"contracts/ERC721Attr.sol\":3319:3449  {... */\n      pop\n        /* \"contracts/ERC721Attr.sol\":3314:3317  i++ */\n      dup1\n      dup1\n      tag_184\n      swap1\n      tag_121\n      jump\t// in\n    tag_184:\n      swap2\n      pop\n      pop\n        /* \"contracts/ERC721Attr.sol\":3276:3449  for (uint256 i = 0; i < field.length; i++) {... */\n      jump(tag_170)\n    tag_171:\n      pop\n        /* \"contracts/ERC721Attr.sol\":3465:3469  true */\n      0x01\n        /* \"contracts/ERC721Attr.sol\":3458:3469  return true */\n      swap1\n      pop\n        /* \"contracts/ERC721Attr.sol\":2961:3476  function setFiled(address addr, string[] memory field, uint256[] memory types, uint256[] memory auth) public  returns (bool) {... */\n      swap5\n      swap4\n      pop\n      pop\n      pop\n      pop\n      jump\t// out\n        /* \"contracts/ERC721Attr.sol\":6944:7603  function removeArrayValue(uint256 tokenId, string memory field, bytes memory value) public  returns (bool){... */\n    tag_75:\n        /* \"contracts/ERC721Attr.sol\":7045:7049  bool */\n      0x00\n        /* \"contracts/ERC721Attr.sol\":7060:7073  uint256 count */\n      dup1\n        /* \"contracts/ERC721Attr.sol\":7076:7081  index */\n      0x05\n        /* \"contracts/ERC721Attr.sol\":7076:7090  index[tokenId] */\n      0x00\n        /* \"contracts/ERC721Attr.sol\":7082:7089  tokenId */\n      dup7\n        /* \"contracts/ERC721Attr.sol\":7076:7090  index[tokenId] */\n      dup2\n      mstore\n      0x20\n      add\n      swap1\n      dup2\n      mstore\n      0x20\n      add\n      0x00\n      keccak256\n        /* \"contracts/ERC721Attr.sol\":7091:7096  field */\n      dup5\n        /* \"contracts/ERC721Attr.sol\":7076:7097  index[tokenId][field] */\n      mload(0x40)\n      tag_186\n      swap2\n      swap1\n      tag_99\n      jump\t// in\n    tag_186:\n      swap1\n      dup2\n      mstore\n      0x20\n      add\n      mload(0x40)\n      dup1\n      swap2\n      sub\n      swap1\n      keccak256\n      sload\n        /* \"contracts/ERC721Attr.sol\":7060:7097  uint256 count = index[tokenId][field] */\n      swap1\n      pop\n        /* \"contracts/ERC721Attr.sol\":7107:7116  bool isOn */\n      0x00\n        /* \"contracts/ERC721Attr.sol\":7131:7140  uint256 i */\n      dup1\n        /* \"contracts/ERC721Attr.sol\":7143:7144  0 */\n      0x00\n        /* \"contracts/ERC721Attr.sol\":7131:7144  uint256 i = 0 */\n      swap1\n      pop\n        /* \"contracts/ERC721Attr.sol\":7126:7496  for (uint256 i = 0; i < count; i++) {... */\n    tag_187:\n        /* \"contracts/ERC721Attr.sol\":7150:7155  count */\n      dup3\n        /* \"contracts/ERC721Attr.sol\":7146:7147  i */\n      dup2\n        /* \"contracts/ERC721Attr.sol\":7146:7155  i < count */\n      lt\n        /* \"contracts/ERC721Attr.sol\":7126:7496  for (uint256 i = 0; i < count; i++) {... */\n      iszero\n      tag_188\n      jumpi\n        /* \"contracts/ERC721Attr.sol\":7210:7220  arrayValue */\n      0x06\n        /* \"contracts/ERC721Attr.sol\":7210:7229  arrayValue[tokenId] */\n      0x00\n        /* \"contracts/ERC721Attr.sol\":7221:7228  tokenId */\n      dup9\n        /* \"contracts/ERC721Attr.sol\":7210:7229  arrayValue[tokenId] */\n      dup2\n      mstore\n      0x20\n      add\n      swap1\n      dup2\n      mstore\n      0x20\n      add\n      0x00\n      keccak256\n        /* \"contracts/ERC721Attr.sol\":7230:7235  field */\n      dup7\n        /* \"contracts/ERC721Attr.sol\":7210:7236  arrayValue[tokenId][field] */\n      mload(0x40)\n      tag_190\n      swap2\n      swap1\n      tag_99\n      jump\t// in\n    tag_190:\n      swap1\n      dup2\n      mstore\n      0x20\n      add\n      mload(0x40)\n      dup1\n      swap2\n      sub\n      swap1\n      keccak256\n        /* \"contracts/ERC721Attr.sol\":7210:7239  arrayValue[tokenId][field][i] */\n      0x00\n        /* \"contracts/ERC721Attr.sol\":7237:7238  i */\n      dup3\n        /* \"contracts/ERC721Attr.sol\":7210:7239  arrayValue[tokenId][field][i] */\n      dup2\n      mstore\n      0x20\n      add\n      swap1\n      dup2\n      mstore\n      0x20\n      add\n      0x00\n      keccak256\n        /* \"contracts/ERC721Attr.sol\":7200:7240  keccak256(arrayValue[tokenId][field][i]) */\n      mload(0x40)\n      tag_191\n      swap2\n      swap1\n      tag_192\n      jump\t// in\n    tag_191:\n      mload(0x40)\n      dup1\n      swap2\n      sub\n      swap1\n      keccak256\n        /* \"contracts/ERC721Attr.sol\":7190:7195  value */\n      dup6\n        /* \"contracts/ERC721Attr.sol\":7180:7196  keccak256(value) */\n      dup1\n      mload\n      swap1\n      0x20\n      add\n      keccak256\n        /* \"contracts/ERC721Attr.sol\":7180:7240  keccak256(value) == keccak256(arrayValue[tokenId][field][i]) */\n      sub\n        /* \"contracts/ERC721Attr.sol\":7176:7312  if (keccak256(value) == keccak256(arrayValue[tokenId][field][i])) {... */\n      tag_193\n      jumpi\n        /* \"contracts/ERC721Attr.sol\":7267:7271  true */\n      0x01\n        /* \"contracts/ERC721Attr.sol\":7260:7271  isOn = true */\n      swap2\n      pop\n        /* \"contracts/ERC721Attr.sol\":7289:7297  continue */\n      jump(tag_189)\n        /* \"contracts/ERC721Attr.sol\":7176:7312  if (keccak256(value) == keccak256(arrayValue[tokenId][field][i])) {... */\n    tag_193:\n        /* \"contracts/ERC721Attr.sol\":7329:7333  isOn */\n      dup2\n        /* \"contracts/ERC721Attr.sol\":7325:7486  if (isOn) {... */\n      iszero\n      tag_194\n      jumpi\n        /* \"contracts/ERC721Attr.sol\":7353:7374  bytes memory oldValue */\n      0x00\n        /* \"contracts/ERC721Attr.sol\":7377:7387  arrayValue */\n      0x06\n        /* \"contracts/ERC721Attr.sol\":7377:7396  arrayValue[tokenId] */\n      0x00\n        /* \"contracts/ERC721Attr.sol\":7388:7395  tokenId */\n      dup10\n        /* \"contracts/ERC721Attr.sol\":7377:7396  arrayValue[tokenId] */\n      dup2\n      mstore\n      0x20\n      add\n      swap1\n      dup2\n      mstore\n      0x20\n      add\n      0x00\n      keccak256\n        /* \"contracts/ERC721Attr.sol\":7397:7402  field */\n      dup8\n        /* \"contracts/ERC721Attr.sol\":7377:7403  arrayValue[tokenId][field] */\n      mload(0x40)\n      tag_195\n      swap2\n      swap1\n      tag_99\n      jump\t// in\n    tag_195:\n      swap1\n      dup2\n      mstore\n      0x20\n      add\n      mload(0x40)\n      dup1\n      swap2\n      sub\n      swap1\n      keccak256\n        /* \"contracts/ERC721Attr.sol\":7377:7406  arrayValue[tokenId][field][i] */\n      0x00\n        /* \"contracts/ERC721Attr.sol\":7404:7405  i */\n      dup4\n        /* \"contracts/ERC721Attr.sol\":7377:7406  arrayValue[tokenId][field][i] */\n      dup2\n      mstore\n      0x20\n      add\n      swap1\n      dup2\n      mstore\n      0x20\n      add\n      0x00\n      keccak256\n        /* \"contracts/ERC721Attr.sol\":7353:7406  bytes memory oldValue = arrayValue[tokenId][field][i] */\n      dup1\n      sload\n      tag_196\n      swap1\n      tag_126\n      jump\t// in\n    tag_196:\n      dup1\n      0x1f\n      add\n      0x20\n      dup1\n      swap2\n      div\n      mul\n      0x20\n      add\n      mload(0x40)\n      swap1\n      dup2\n      add\n      0x40\n      mstore\n      dup1\n      swap3\n      swap2\n      swap1\n      dup2\n      dup2\n      mstore\n      0x20\n      add\n      dup3\n      dup1\n      sload\n      tag_197\n      swap1\n      tag_126\n      jump\t// in\n    tag_197:\n      dup1\n      iszero\n      tag_198\n      jumpi\n      dup1\n      0x1f\n      lt\n      tag_199\n      jumpi\n      0x0100\n      dup1\n      dup4\n      sload\n      div\n      mul\n      dup4\n      mstore\n      swap2\n      0x20\n      add\n      swap2\n      jump(tag_198)\n    tag_199:\n      dup3\n      add\n      swap2\n      swap1\n      0x00\n      mstore\n      keccak256(0x00, 0x20)\n      swap1\n    tag_200:\n      dup2\n      sload\n      dup2\n      mstore\n      swap1\n      0x01\n      add\n      swap1\n      0x20\n      add\n      dup1\n      dup4\n      gt\n      tag_200\n      jumpi\n      dup3\n      swap1\n      sub\n      0x1f\n      and\n      dup3\n      add\n      swap2\n    tag_198:\n      pop\n      pop\n      pop\n      pop\n      pop\n      swap1\n      pop\n        /* \"contracts/ERC721Attr.sol\":7463:7471  oldValue */\n      dup1\n        /* \"contracts/ERC721Attr.sol\":7424:7434  arrayValue */\n      0x06\n        /* \"contracts/ERC721Attr.sol\":7424:7443  arrayValue[tokenId] */\n      0x00\n        /* \"contracts/ERC721Attr.sol\":7435:7442  tokenId */\n      dup11\n        /* \"contracts/ERC721Attr.sol\":7424:7443  arrayValue[tokenId] */\n      dup2\n      mstore\n      0x20\n      add\n      swap1\n      dup2\n      mstore\n      0x20\n      add\n      0x00\n      keccak256\n        /* \"contracts/ERC721Attr.sol\":7444:7449  field */\n      dup9\n        /* \"contracts/ERC721Attr.sol\":7424:7450  arrayValue[tokenId][field] */\n      mload(0x40)\n      tag_201\n      swap2\n      swap1\n      tag_99\n      jump\t// in\n    tag_201:\n      swap1\n      dup2\n      mstore\n      0x20\n      add\n      mload(0x40)\n      dup1\n      swap2\n      sub\n      swap1\n      keccak256\n        /* \"contracts/ERC721Attr.sol\":7424:7460  arrayValue[tokenId][field][i.sub(1)] */\n      0x00\n        /* \"contracts/ERC721Attr.sol\":7451:7459  i.sub(1) */\n      tag_202\n        /* \"contracts/ERC721Attr.sol\":7457:7458  1 */\n      0x01\n        /* \"contracts/ERC721Attr.sol\":7451:7452  i */\n      dup7\n        /* \"contracts/ERC721Attr.sol\":7451:7456  i.sub */\n      tag_203\n      swap1\n        /* \"contracts/ERC721Attr.sol\":7451:7459  i.sub(1) */\n      swap2\n      swap1\n      0xffffffff\n      and\n      jump\t// in\n    tag_202:\n        /* \"contracts/ERC721Attr.sol\":7424:7460  arrayValue[tokenId][field][i.sub(1)] */\n      dup2\n      mstore\n      0x20\n      add\n      swap1\n      dup2\n      mstore\n      0x20\n      add\n      0x00\n      keccak256\n        /* \"contracts/ERC721Attr.sol\":7424:7471  arrayValue[tokenId][field][i.sub(1)] = oldValue */\n      swap1\n      dup2\n      tag_204\n      swap2\n      swap1\n      tag_205\n      jump\t// in\n    tag_204:\n      pop\n        /* \"contracts/ERC721Attr.sol\":7335:7486  {... */\n      pop\n        /* \"contracts/ERC721Attr.sol\":7325:7486  if (isOn) {... */\n    tag_194:\n        /* \"contracts/ERC721Attr.sol\":7126:7496  for (uint256 i = 0; i < count; i++) {... */\n    tag_189:\n        /* \"contracts/ERC721Attr.sol\":7157:7160  i++ */\n      dup1\n      dup1\n      tag_206\n      swap1\n      tag_121\n      jump\t// in\n    tag_206:\n      swap2\n      pop\n      pop\n        /* \"contracts/ERC721Attr.sol\":7126:7496  for (uint256 i = 0; i < count; i++) {... */\n      jump(tag_187)\n    tag_188:\n      pop\n        /* \"contracts/ERC721Attr.sol\":7509:7513  isOn */\n      dup1\n        /* \"contracts/ERC721Attr.sol\":7505:7576  if (isOn) {... */\n      iszero\n      tag_207\n      jumpi\n        /* \"contracts/ERC721Attr.sol\":7553:7565  count.sub(1) */\n      tag_208\n        /* \"contracts/ERC721Attr.sol\":7563:7564  1 */\n      0x01\n        /* \"contracts/ERC721Attr.sol\":7553:7558  count */\n      dup4\n        /* \"contracts/ERC721Attr.sol\":7553:7562  count.sub */\n      tag_203\n      swap1\n        /* \"contracts/ERC721Attr.sol\":7553:7565  count.sub(1) */\n      swap2\n      swap1\n      0xffffffff\n      and\n      jump\t// in\n    tag_208:\n        /* \"contracts/ERC721Attr.sol\":7529:7534  index */\n      0x05\n        /* \"contracts/ERC721Attr.sol\":7529:7543  index[tokenId] */\n      0x00\n        /* \"contracts/ERC721Attr.sol\":7535:7542  tokenId */\n      dup9\n        /* \"contracts/ERC721Attr.sol\":7529:7543  index[tokenId] */\n      dup2\n      mstore\n      0x20\n      add\n      swap1\n      dup2\n      mstore\n      0x20\n      add\n      0x00\n      keccak256\n        /* \"contracts/ERC721Attr.sol\":7544:7549  field */\n      dup7\n        /* \"contracts/ERC721Attr.sol\":7529:7550  index[tokenId][field] */\n      mload(0x40)\n      tag_209\n      swap2\n      swap1\n      tag_99\n      jump\t// in\n    tag_209:\n      swap1\n      dup2\n      mstore\n      0x20\n      add\n      mload(0x40)\n      dup1\n      swap2\n      sub\n      swap1\n      keccak256\n        /* \"contracts/ERC721Attr.sol\":7529:7565  index[tokenId][field] = count.sub(1) */\n      dup2\n      swap1\n      sstore\n      pop\n        /* \"contracts/ERC721Attr.sol\":7505:7576  if (isOn) {... */\n    tag_207:\n        /* \"contracts/ERC721Attr.sol\":7592:7596  true */\n      0x01\n        /* \"contracts/ERC721Attr.sol\":7585:7596  return true */\n      swap3\n      pop\n      pop\n      pop\n        /* \"contracts/ERC721Attr.sol\":6944:7603  function removeArrayValue(uint256 tokenId, string memory field, bytes memory value) public  returns (bool){... */\n      swap4\n      swap3\n      pop\n      pop\n      pop\n      jump\t// out\n        /* \"contracts/ERC721Attr.sol\":4292:4444  function delFiled(address addr, string memory field) public  returns (bool) {... */\n    tag_79:\n        /* \"contracts/ERC721Attr.sol\":4362:4366  bool */\n      0x00\n        /* \"contracts/ERC721Attr.sol\":4378:4389  bool result */\n      dup1\n        /* \"contracts/ERC721Attr.sol\":4392:4414  _delFiled(addr, field) */\n      tag_211\n        /* \"contracts/ERC721Attr.sol\":4402:4406  addr */\n      dup5\n        /* \"contracts/ERC721Attr.sol\":4408:4413  field */\n      dup5\n        /* \"contracts/ERC721Attr.sol\":4392:4401  _delFiled */\n      tag_212\n        /* \"contracts/ERC721Attr.sol\":4392:4414  _delFiled(addr, field) */\n      jump\t// in\n    tag_211:\n        /* \"contracts/ERC721Attr.sol\":4378:4414  bool result = _delFiled(addr, field) */\n      swap1\n      pop\n        /* \"contracts/ERC721Attr.sol\":4431:4437  result */\n      dup1\n        /* \"contracts/ERC721Attr.sol\":4424:4437  return result */\n      swap2\n      pop\n      pop\n        /* \"contracts/ERC721Attr.sol\":4292:4444  function delFiled(address addr, string memory field) public  returns (bool) {... */\n      swap3\n      swap2\n      pop\n      pop\n      jump\t// out\n        /* \"contracts/ERC721Attr.sol\":3694:3964  function setUniques(address addr, string memory field, bytes memory value) public  returns (bool) {... */\n    tag_83:\n        /* \"contracts/ERC721Attr.sol\":3786:3790  bool */\n      0x00\n        /* \"contracts/ERC721Attr.sol\":3811:3818  uniques */\n      0x04\n        /* \"contracts/ERC721Attr.sol\":3811:3824  uniques[addr] */\n      0x00\n        /* \"contracts/ERC721Attr.sol\":3819:3823  addr */\n      dup6\n        /* \"contracts/ERC721Attr.sol\":3811:3824  uniques[addr] */\n      0xffffffffffffffffffffffffffffffffffffffff\n      and\n      0xffffffffffffffffffffffffffffffffffffffff\n      and\n      dup2\n      mstore\n      0x20\n      add\n      swap1\n      dup2\n      mstore\n      0x20\n      add\n      0x00\n      keccak256\n        /* \"contracts/ERC721Attr.sol\":3825:3830  field */\n      dup4\n        /* \"contracts/ERC721Attr.sol\":3811:3831  uniques[addr][field] */\n      mload(0x40)\n      tag_214\n      swap2\n      swap1\n      tag_99\n      jump\t// in\n    tag_214:\n      swap1\n      dup2\n      mstore\n      0x20\n      add\n      mload(0x40)\n      dup1\n      swap2\n      sub\n      swap1\n      keccak256\n        /* \"contracts/ERC721Attr.sol\":3832:3837  value */\n      dup3\n        /* \"contracts/ERC721Attr.sol\":3811:3838  uniques[addr][field][value] */\n      mload(0x40)\n      tag_215\n      swap2\n      swap1\n      tag_111\n      jump\t// in\n    tag_215:\n      swap1\n      dup2\n      mstore\n      0x20\n      add\n      mload(0x40)\n      dup1\n      swap2\n      sub\n      swap1\n      keccak256\n      0x00\n      swap1\n      sload\n      swap1\n      0x0100\n      exp\n      swap1\n      div\n      0xff\n      and\n        /* \"contracts/ERC721Attr.sol\":3810:3838  !uniques[addr][field][value] */\n      iszero\n        /* \"contracts/ERC721Attr.sol\":3802:3873  require(!uniques[addr][field][value], \"Uniqueness verification failed\") */\n      tag_216\n      jumpi\n      mload(0x40)\n      0x08c379a000000000000000000000000000000000000000000000000000000000\n      dup2\n      mstore\n      0x04\n      add\n      tag_217\n      swap1\n      tag_136\n      jump\t// in\n    tag_217:\n      mload(0x40)\n      dup1\n      swap2\n      sub\n      swap1\n      revert\n    tag_216:\n        /* \"contracts/ERC721Attr.sol\":3883:3894  bool result */\n      0x00\n        /* \"contracts/ERC721Attr.sol\":3897:3934  _setUniques(addr, field, value, true) */\n      tag_218\n        /* \"contracts/ERC721Attr.sol\":3909:3913  addr */\n      dup6\n        /* \"contracts/ERC721Attr.sol\":3915:3920  field */\n      dup6\n        /* \"contracts/ERC721Attr.sol\":3922:3927  value */\n      dup6\n        /* \"contracts/ERC721Attr.sol\":3929:3933  true */\n      0x01\n        /* \"contracts/ERC721Attr.sol\":3897:3908  _setUniques */\n      tag_138\n        /* \"contracts/ERC721Attr.sol\":3897:3934  _setUniques(addr, field, value, true) */\n      jump\t// in\n    tag_218:\n        /* \"contracts/ERC721Attr.sol\":3883:3934  bool result = _setUniques(addr, field, value, true) */\n      swap1\n      pop\n        /* \"contracts/ERC721Attr.sol\":3951:3957  result */\n      dup1\n        /* \"contracts/ERC721Attr.sol\":3944:3957  return result */\n      swap2\n      pop\n      pop\n        /* \"contracts/ERC721Attr.sol\":3694:3964  function setUniques(address addr, string memory field, bytes memory value) public  returns (bool) {... */\n      swap4\n      swap3\n      pop\n      pop\n      pop\n      jump\t// out\n        /* \"contracts/ERC721Attr.sol\":7609:7974  function checkArrayValue(uint256 tokenId, string memory field, bytes memory value) public view  returns (bool){... */\n    tag_87:\n        /* \"contracts/ERC721Attr.sol\":7714:7718  bool */\n      0x00\n        /* \"contracts/ERC721Attr.sol\":7729:7742  uint256 count */\n      dup1\n        /* \"contracts/ERC721Attr.sol\":7745:7750  index */\n      0x05\n        /* \"contracts/ERC721Attr.sol\":7745:7759  index[tokenId] */\n      0x00\n        /* \"contracts/ERC721Attr.sol\":7751:7758  tokenId */\n      dup7\n        /* \"contracts/ERC721Attr.sol\":7745:7759  index[tokenId] */\n      dup2\n      mstore\n      0x20\n      add\n      swap1\n      dup2\n      mstore\n      0x20\n      add\n      0x00\n      keccak256\n        /* \"contracts/ERC721Attr.sol\":7760:7765  field */\n      dup5\n        /* \"contracts/ERC721Attr.sol\":7745:7766  index[tokenId][field] */\n      mload(0x40)\n      tag_220\n      swap2\n      swap1\n      tag_99\n      jump\t// in\n    tag_220:\n      swap1\n      dup2\n      mstore\n      0x20\n      add\n      mload(0x40)\n      dup1\n      swap2\n      sub\n      swap1\n      keccak256\n      sload\n        /* \"contracts/ERC721Attr.sol\":7729:7766  uint256 count = index[tokenId][field] */\n      swap1\n      pop\n        /* \"contracts/ERC721Attr.sol\":7781:7790  uint256 i */\n      0x00\n        /* \"contracts/ERC721Attr.sol\":7776:7946  for (uint256 i = 0; i < count; i++) {... */\n    tag_221:\n        /* \"contracts/ERC721Attr.sol\":7800:7805  count */\n      dup2\n        /* \"contracts/ERC721Attr.sol\":7796:7797  i */\n      dup2\n        /* \"contracts/ERC721Attr.sol\":7796:7805  i < count */\n      lt\n        /* \"contracts/ERC721Attr.sol\":7776:7946  for (uint256 i = 0; i < count; i++) {... */\n      iszero\n      tag_222\n      jumpi\n        /* \"contracts/ERC721Attr.sol\":7860:7870  arrayValue */\n      0x06\n        /* \"contracts/ERC721Attr.sol\":7860:7879  arrayValue[tokenId] */\n      0x00\n        /* \"contracts/ERC721Attr.sol\":7871:7878  tokenId */\n      dup8\n        /* \"contracts/ERC721Attr.sol\":7860:7879  arrayValue[tokenId] */\n      dup2\n      mstore\n      0x20\n      add\n      swap1\n      dup2\n      mstore\n      0x20\n      add\n      0x00\n      keccak256\n        /* \"contracts/ERC721Attr.sol\":7880:7885  field */\n      dup6\n        /* \"contracts/ERC721Attr.sol\":7860:7886  arrayValue[tokenId][field] */\n      mload(0x40)\n      tag_224\n      swap2\n      swap1\n      tag_99\n      jump\t// in\n    tag_224:\n      swap1\n      dup2\n      mstore\n      0x20\n      add\n      mload(0x40)\n      dup1\n      swap2\n      sub\n      swap1\n      keccak256\n        /* \"contracts/ERC721Attr.sol\":7860:7889  arrayValue[tokenId][field][i] */\n      0x00\n        /* \"contracts/ERC721Attr.sol\":7887:7888  i */\n      dup3\n        /* \"contracts/ERC721Attr.sol\":7860:7889  arrayValue[tokenId][field][i] */\n      dup2\n      mstore\n      0x20\n      add\n      swap1\n      dup2\n      mstore\n      0x20\n      add\n      0x00\n      keccak256\n        /* \"contracts/ERC721Attr.sol\":7850:7890  keccak256(arrayValue[tokenId][field][i]) */\n      mload(0x40)\n      tag_225\n      swap2\n      swap1\n      tag_192\n      jump\t// in\n    tag_225:\n      mload(0x40)\n      dup1\n      swap2\n      sub\n      swap1\n      keccak256\n        /* \"contracts/ERC721Attr.sol\":7840:7845  value */\n      dup5\n        /* \"contracts/ERC721Attr.sol\":7830:7846  keccak256(value) */\n      dup1\n      mload\n      swap1\n      0x20\n      add\n      keccak256\n        /* \"contracts/ERC721Attr.sol\":7830:7890  keccak256(value) == keccak256(arrayValue[tokenId][field][i]) */\n      sub\n        /* \"contracts/ERC721Attr.sol\":7826:7936  if (keccak256(value) == keccak256(arrayValue[tokenId][field][i])) {... */\n      tag_226\n      jumpi\n        /* \"contracts/ERC721Attr.sol\":7917:7921  true */\n      0x01\n        /* \"contracts/ERC721Attr.sol\":7910:7921  return true */\n      swap3\n      pop\n      pop\n      pop\n      jump(tag_219)\n        /* \"contracts/ERC721Attr.sol\":7826:7936  if (keccak256(value) == keccak256(arrayValue[tokenId][field][i])) {... */\n    tag_226:\n        /* \"contracts/ERC721Attr.sol\":7807:7810  i++ */\n      dup1\n      dup1\n      tag_227\n      swap1\n      tag_121\n      jump\t// in\n    tag_227:\n      swap2\n      pop\n      pop\n        /* \"contracts/ERC721Attr.sol\":7776:7946  for (uint256 i = 0; i < count; i++) {... */\n      jump(tag_221)\n    tag_222:\n      pop\n        /* \"contracts/ERC721Attr.sol\":7962:7967  false */\n      0x00\n        /* \"contracts/ERC721Attr.sol\":7955:7967  return false */\n      swap2\n      pop\n      pop\n        /* \"contracts/ERC721Attr.sol\":7609:7974  function checkArrayValue(uint256 tokenId, string memory field, bytes memory value) public view  returns (bool){... */\n    tag_219:\n      swap4\n      swap3\n      pop\n      pop\n      pop\n      jump\t// out\n        /* \"contracts/ERC721Attr.sol\":6355:6630  function setArrayValue(uint256 tokenId, string memory field, bytes memory value) public  returns (bool){... */\n    tag_91:\n        /* \"contracts/ERC721Attr.sol\":6453:6457  bool */\n      0x00\n        /* \"contracts/ERC721Attr.sol\":6468:6481  uint256 count */\n      dup1\n        /* \"contracts/ERC721Attr.sol\":6484:6489  index */\n      0x05\n        /* \"contracts/ERC721Attr.sol\":6484:6498  index[tokenId] */\n      0x00\n        /* \"contracts/ERC721Attr.sol\":6490:6497  tokenId */\n      dup7\n        /* \"contracts/ERC721Attr.sol\":6484:6498  index[tokenId] */\n      dup2\n      mstore\n      0x20\n      add\n      swap1\n      dup2\n      mstore\n      0x20\n      add\n      0x00\n      keccak256\n        /* \"contracts/ERC721Attr.sol\":6499:6504  field */\n      dup5\n        /* \"contracts/ERC721Attr.sol\":6484:6505  index[tokenId][field] */\n      mload(0x40)\n      tag_229\n      swap2\n      swap1\n      tag_99\n      jump\t// in\n    tag_229:\n      swap1\n      dup2\n      mstore\n      0x20\n      add\n      mload(0x40)\n      dup1\n      swap2\n      sub\n      swap1\n      keccak256\n      sload\n        /* \"contracts/ERC721Attr.sol\":6468:6505  uint256 count = index[tokenId][field] */\n      swap1\n      pop\n        /* \"contracts/ERC721Attr.sol\":6551:6556  value */\n      dup3\n        /* \"contracts/ERC721Attr.sol\":6515:6525  arrayValue */\n      0x06\n        /* \"contracts/ERC721Attr.sol\":6515:6534  arrayValue[tokenId] */\n      0x00\n        /* \"contracts/ERC721Attr.sol\":6526:6533  tokenId */\n      dup8\n        /* \"contracts/ERC721Attr.sol\":6515:6534  arrayValue[tokenId] */\n      dup2\n      mstore\n      0x20\n      add\n      swap1\n      dup2\n      mstore\n      0x20\n      add\n      0x00\n      keccak256\n        /* \"contracts/ERC721Attr.sol\":6535:6540  field */\n      dup6\n        /* \"contracts/ERC721Attr.sol\":6515:6541  arrayValue[tokenId][field] */\n      mload(0x40)\n      tag_230\n      swap2\n      swap1\n      tag_99\n      jump\t// in\n    tag_230:\n      swap1\n      dup2\n      mstore\n      0x20\n      add\n      mload(0x40)\n      dup1\n      swap2\n      sub\n      swap1\n      keccak256\n        /* \"contracts/ERC721Attr.sol\":6515:6548  arrayValue[tokenId][field][count] */\n      0x00\n        /* \"contracts/ERC721Attr.sol\":6542:6547  count */\n      dup4\n        /* \"contracts/ERC721Attr.sol\":6515:6548  arrayValue[tokenId][field][count] */\n      dup2\n      mstore\n      0x20\n      add\n      swap1\n      dup2\n      mstore\n      0x20\n      add\n      0x00\n      keccak256\n        /* \"contracts/ERC721Attr.sol\":6515:6556  arrayValue[tokenId][field][count] = value */\n      swap1\n      dup2\n      tag_231\n      swap2\n      swap1\n      tag_205\n      jump\t// in\n    tag_231:\n      pop\n        /* \"contracts/ERC721Attr.sol\":6590:6602  count.add(1) */\n      tag_232\n        /* \"contracts/ERC721Attr.sol\":6600:6601  1 */\n      0x01\n        /* \"contracts/ERC721Attr.sol\":6590:6595  count */\n      dup3\n        /* \"contracts/ERC721Attr.sol\":6590:6599  count.add */\n      tag_233\n      swap1\n        /* \"contracts/ERC721Attr.sol\":6590:6602  count.add(1) */\n      swap2\n      swap1\n      0xffffffff\n      and\n      jump\t// in\n    tag_232:\n        /* \"contracts/ERC721Attr.sol\":6566:6571  index */\n      0x05\n        /* \"contracts/ERC721Attr.sol\":6566:6580  index[tokenId] */\n      0x00\n        /* \"contracts/ERC721Attr.sol\":6572:6579  tokenId */\n      dup8\n        /* \"contracts/ERC721Attr.sol\":6566:6580  index[tokenId] */\n      dup2\n      mstore\n      0x20\n      add\n      swap1\n      dup2\n      mstore\n      0x20\n      add\n      0x00\n      keccak256\n        /* \"contracts/ERC721Attr.sol\":6581:6586  field */\n      dup6\n        /* \"contracts/ERC721Attr.sol\":6566:6587  index[tokenId][field] */\n      mload(0x40)\n      tag_234\n      swap2\n      swap1\n      tag_99\n      jump\t// in\n    tag_234:\n      swap1\n      dup2\n      mstore\n      0x20\n      add\n      mload(0x40)\n      dup1\n      swap2\n      sub\n      swap1\n      keccak256\n        /* \"contracts/ERC721Attr.sol\":6566:6602  index[tokenId][field] = count.add(1) */\n      dup2\n      swap1\n      sstore\n      pop\n        /* \"contracts/ERC721Attr.sol\":6619:6623  true */\n      0x01\n        /* \"contracts/ERC721Attr.sol\":6612:6623  return true */\n      swap2\n      pop\n      pop\n        /* \"contracts/ERC721Attr.sol\":6355:6630  function setArrayValue(uint256 tokenId, string memory field, bytes memory value) public  returns (bool){... */\n      swap4\n      swap3\n      pop\n      pop\n      pop\n      jump\t// out\n        /* \"contracts/ERC721Attr.sol\":5929:6057  function getAuth(address addr, string memory field) public view returns (uint256){... */\n    tag_95:\n        /* \"contracts/ERC721Attr.sol\":6002:6009  uint256 */\n      0x00\n        /* \"contracts/ERC721Attr.sol\":6027:6037  fieldsAuth */\n      0x03\n        /* \"contracts/ERC721Attr.sol\":6027:6043  fieldsAuth[addr] */\n      0x00\n        /* \"contracts/ERC721Attr.sol\":6038:6042  addr */\n      dup5\n        /* \"contracts/ERC721Attr.sol\":6027:6043  fieldsAuth[addr] */\n      0xffffffffffffffffffffffffffffffffffffffff\n      and\n      0xffffffffffffffffffffffffffffffffffffffff\n      and\n      dup2\n      mstore\n      0x20\n      add\n      swap1\n      dup2\n      mstore\n      0x20\n      add\n      0x00\n      keccak256\n        /* \"contracts/ERC721Attr.sol\":6044:6049  field */\n      dup3\n        /* \"contracts/ERC721Attr.sol\":6027:6050  fieldsAuth[addr][field] */\n      mload(0x40)\n      tag_236\n      swap2\n      swap1\n      tag_99\n      jump\t// in\n    tag_236:\n      swap1\n      dup2\n      mstore\n      0x20\n      add\n      mload(0x40)\n      dup1\n      swap2\n      sub\n      swap1\n      keccak256\n      sload\n        /* \"contracts/ERC721Attr.sol\":6020:6050  return fieldsAuth[addr][field] */\n      swap1\n      pop\n        /* \"contracts/ERC721Attr.sol\":5929:6057  function getAuth(address addr, string memory field) public view returns (uint256){... */\n      swap3\n      swap2\n      pop\n      pop\n      jump\t// out\n        /* \"contracts/ERC721Attr.sol\":5587:5754  function _delValue(address addr, uint256 tokenId, string memory field) internal returns (bool){... */\n    tag_102:\n        /* \"contracts/ERC721Attr.sol\":5676:5680  bool */\n      0x00\n        /* \"contracts/ERC721Attr.sol\":5698:5704  values */\n      0x01\n        /* \"contracts/ERC721Attr.sol\":5698:5710  values[addr] */\n      0x00\n        /* \"contracts/ERC721Attr.sol\":5705:5709  addr */\n      dup6\n        /* \"contracts/ERC721Attr.sol\":5698:5710  values[addr] */\n      0xffffffffffffffffffffffffffffffffffffffff\n      and\n      0xffffffffffffffffffffffffffffffffffffffff\n      and\n      dup2\n      mstore\n      0x20\n      add\n      swap1\n      dup2\n      mstore\n      0x20\n      add\n      0x00\n      keccak256\n        /* \"contracts/ERC721Attr.sol\":5698:5719  values[addr][tokenId] */\n      0x00\n        /* \"contracts/ERC721Attr.sol\":5711:5718  tokenId */\n      dup5\n        /* \"contracts/ERC721Attr.sol\":5698:5719  values[addr][tokenId] */\n      dup2\n      mstore\n      0x20\n      add\n      swap1\n      dup2\n      mstore\n      0x20\n      add\n      0x00\n      keccak256\n        /* \"contracts/ERC721Attr.sol\":5720:5725  field */\n      dup3\n        /* \"contracts/ERC721Attr.sol\":5698:5726  values[addr][tokenId][field] */\n      mload(0x40)\n      tag_238\n      swap2\n      swap1\n      tag_99\n      jump\t// in\n    tag_238:\n      swap1\n      dup2\n      mstore\n      0x20\n      add\n      mload(0x40)\n      dup1\n      swap2\n      sub\n      swap1\n      keccak256\n      0x00\n        /* \"contracts/ERC721Attr.sol\":5691:5726  delete values[addr][tokenId][field] */\n      tag_239\n      swap2\n      swap1\n      tag_119\n      jump\t// in\n    tag_239:\n        /* \"contracts/ERC721Attr.sol\":5743:5747  true */\n      0x01\n        /* \"contracts/ERC721Attr.sol\":5736:5747  return true */\n      swap1\n      pop\n        /* \"contracts/ERC721Attr.sol\":5587:5754  function _delValue(address addr, uint256 tokenId, string memory field) internal returns (bool){... */\n      swap4\n      swap3\n      pop\n      pop\n      pop\n      jump\t// out\n        /* \"contracts/ERC721Attr.sol\":4799:4987  function _setValue(address addr, uint256 tokenId, string memory field, bytes memory value) internal returns (bool){... */\n    tag_105:\n        /* \"contracts/ERC721Attr.sol\":4908:4912  bool */\n      0x00\n        /* \"contracts/ERC721Attr.sol\":4954:4959  value */\n      dup2\n        /* \"contracts/ERC721Attr.sol\":4923:4929  values */\n      0x01\n        /* \"contracts/ERC721Attr.sol\":4923:4935  values[addr] */\n      0x00\n        /* \"contracts/ERC721Attr.sol\":4930:4934  addr */\n      dup8\n        /* \"contracts/ERC721Attr.sol\":4923:4935  values[addr] */\n      0xffffffffffffffffffffffffffffffffffffffff\n      and\n      0xffffffffffffffffffffffffffffffffffffffff\n      and\n      dup2\n      mstore\n      0x20\n      add\n      swap1\n      dup2\n      mstore\n      0x20\n      add\n      0x00\n      keccak256\n        /* \"contracts/ERC721Attr.sol\":4923:4944  values[addr][tokenId] */\n      0x00\n        /* \"contracts/ERC721Attr.sol\":4936:4943  tokenId */\n      dup7\n        /* \"contracts/ERC721Attr.sol\":4923:4944  values[addr][tokenId] */\n      dup2\n      mstore\n      0x20\n      add\n      swap1\n      dup2\n      mstore\n      0x20\n      add\n      0x00\n      keccak256\n        /* \"contracts/ERC721Attr.sol\":4945:4950  field */\n      dup5\n        /* \"contracts/ERC721Attr.sol\":4923:4951  values[addr][tokenId][field] */\n      mload(0x40)\n      tag_241\n      swap2\n      swap1\n      tag_99\n      jump\t// in\n    tag_241:\n      swap1\n      dup2\n      mstore\n      0x20\n      add\n      mload(0x40)\n      dup1\n      swap2\n      sub\n      swap1\n      keccak256\n        /* \"contracts/ERC721Attr.sol\":4923:4959  values[addr][tokenId][field] = value */\n      swap1\n      dup2\n      tag_242\n      swap2\n      swap1\n      tag_205\n      jump\t// in\n    tag_242:\n      pop\n        /* \"contracts/ERC721Attr.sol\":4976:4980  true */\n      0x01\n        /* \"contracts/ERC721Attr.sol\":4969:4980  return true */\n      swap1\n      pop\n        /* \"contracts/ERC721Attr.sol\":4799:4987  function _setValue(address addr, uint256 tokenId, string memory field, bytes memory value) internal returns (bool){... */\n      swap5\n      swap4\n      pop\n      pop\n      pop\n      pop\n      jump\t// out\n        /* \"contracts/ERC721Attr.sol\":4993:5169  function _setUniques(address addr, string memory field, bytes memory value, bool b) internal returns (bool){... */\n    tag_138:\n        /* \"contracts/ERC721Attr.sol\":5095:5099  bool */\n      0x00\n        /* \"contracts/ERC721Attr.sol\":5140:5141  b */\n      dup2\n        /* \"contracts/ERC721Attr.sol\":5110:5117  uniques */\n      0x04\n        /* \"contracts/ERC721Attr.sol\":5110:5123  uniques[addr] */\n      0x00\n        /* \"contracts/ERC721Attr.sol\":5118:5122  addr */\n      dup8\n        /* \"contracts/ERC721Attr.sol\":5110:5123  uniques[addr] */\n      0xffffffffffffffffffffffffffffffffffffffff\n      and\n      0xffffffffffffffffffffffffffffffffffffffff\n      and\n      dup2\n      mstore\n      0x20\n      add\n      swap1\n      dup2\n      mstore\n      0x20\n      add\n      0x00\n      keccak256\n        /* \"contracts/ERC721Attr.sol\":5124:5129  field */\n      dup6\n        /* \"contracts/ERC721Attr.sol\":5110:5130  uniques[addr][field] */\n      mload(0x40)\n      tag_244\n      swap2\n      swap1\n      tag_99\n      jump\t// in\n    tag_244:\n      swap1\n      dup2\n      mstore\n      0x20\n      add\n      mload(0x40)\n      dup1\n      swap2\n      sub\n      swap1\n      keccak256\n        /* \"contracts/ERC721Attr.sol\":5131:5136  value */\n      dup5\n        /* \"contracts/ERC721Attr.sol\":5110:5137  uniques[addr][field][value] */\n      mload(0x40)\n      tag_245\n      swap2\n      swap1\n      tag_111\n      jump\t// in\n    tag_245:\n      swap1\n      dup2\n      mstore\n      0x20\n      add\n      mload(0x40)\n      dup1\n      swap2\n      sub\n      swap1\n      keccak256\n      0x00\n        /* \"contracts/ERC721Attr.sol\":5110:5141  uniques[addr][field][value] = b */\n      0x0100\n      exp\n      dup2\n      sload\n      dup2\n      0xff\n      mul\n      not\n      and\n      swap1\n      dup4\n      iszero\n      iszero\n      mul\n      or\n      swap1\n      sstore\n      pop\n        /* \"contracts/ERC721Attr.sol\":5158:5162  true */\n      0x01\n        /* \"contracts/ERC721Attr.sol\":5151:5162  return true */\n      swap1\n      pop\n        /* \"contracts/ERC721Attr.sol\":4993:5169  function _setUniques(address addr, string memory field, bytes memory value, bool b) internal returns (bool){... */\n      swap5\n      swap4\n      pop\n      pop\n      pop\n      pop\n      jump\t// out\n        /* \"contracts/ERC721Attr.sol\":212:472  function BytesToUint256(bytes memory b) internal pure returns (uint256){... */\n    tag_157:\n        /* \"contracts/ERC721Attr.sol\":275:282  uint256 */\n      0x00\n        /* \"contracts/ERC721Attr.sol\":293:307  uint256 number */\n      dup1\n        /* \"contracts/ERC721Attr.sol\":322:328  uint i */\n      0x00\n        /* \"contracts/ERC721Attr.sol\":317:443  for (uint i = 0; i < b.length; i++) {... */\n    tag_247:\n        /* \"contracts/ERC721Attr.sol\":338:339  b */\n      dup4\n        /* \"contracts/ERC721Attr.sol\":338:346  b.length */\n      mload\n        /* \"contracts/ERC721Attr.sol\":334:335  i */\n      dup2\n        /* \"contracts/ERC721Attr.sol\":334:346  i < b.length */\n      lt\n        /* \"contracts/ERC721Attr.sol\":317:443  for (uint i = 0; i < b.length; i++) {... */\n      iszero\n      tag_248\n      jumpi\n        /* \"contracts/ERC721Attr.sol\":427:428  1 */\n      0x01\n        /* \"contracts/ERC721Attr.sol\":423:424  i */\n      dup2\n        /* \"contracts/ERC721Attr.sol\":423:428  i + 1 */\n      tag_250\n      swap2\n      swap1\n      tag_251\n      jump\t// in\n    tag_250:\n        /* \"contracts/ERC721Attr.sol\":411:412  b */\n      dup5\n        /* \"contracts/ERC721Attr.sol\":411:419  b.length */\n      mload\n        /* \"contracts/ERC721Attr.sol\":411:429  b.length - (i + 1) */\n      tag_252\n      swap2\n      swap1\n      tag_253\n      jump\t// in\n    tag_252:\n        /* \"contracts/ERC721Attr.sol\":406:407  8 */\n      0x08\n        /* \"contracts/ERC721Attr.sol\":406:430  8 * (b.length - (i + 1)) */\n      tag_254\n      swap2\n      swap1\n      tag_255\n      jump\t// in\n    tag_254:\n        /* \"contracts/ERC721Attr.sol\":400:401  2 */\n      0x02\n        /* \"contracts/ERC721Attr.sol\":400:431  2 ** (8 * (b.length - (i + 1))) */\n      tag_256\n      swap2\n      swap1\n      tag_257\n      jump\t// in\n    tag_256:\n        /* \"contracts/ERC721Attr.sol\":391:392  b */\n      dup5\n        /* \"contracts/ERC721Attr.sol\":393:394  i */\n      dup3\n        /* \"contracts/ERC721Attr.sol\":391:395  b[i] */\n      dup2\n      mload\n      dup2\n      lt\n      tag_258\n      jumpi\n      tag_259\n      tag_160\n      jump\t// in\n    tag_259:\n    tag_258:\n      0x20\n      add\n      add\n      mload\n      0xf8\n      shr\n      0xf8\n      shl\n        /* \"contracts/ERC721Attr.sol\":385:396  uint8(b[i]) */\n      0xf8\n      shr\n        /* \"contracts/ERC721Attr.sol\":385:432  uint8(b[i]) * (2 ** (8 * (b.length - (i + 1)))) */\n      0xff\n      and\n      tag_260\n      swap2\n      swap1\n      tag_255\n      jump\t// in\n    tag_260:\n        /* \"contracts/ERC721Attr.sol\":376:382  number */\n      dup3\n        /* \"contracts/ERC721Attr.sol\":376:432  number + uint8(b[i]) * (2 ** (8 * (b.length - (i + 1)))) */\n      tag_261\n      swap2\n      swap1\n      tag_251\n      jump\t// in\n    tag_261:\n        /* \"contracts/ERC721Attr.sol\":367:432  number = number + uint8(b[i]) * (2 ** (8 * (b.length - (i + 1)))) */\n      swap2\n      pop\n        /* \"contracts/ERC721Attr.sol\":348:351  i++ */\n      dup1\n      dup1\n      tag_262\n      swap1\n      tag_121\n      jump\t// in\n    tag_262:\n      swap2\n      pop\n      pop\n        /* \"contracts/ERC721Attr.sol\":317:443  for (uint i = 0; i < b.length; i++) {... */\n      jump(tag_247)\n    tag_248:\n      pop\n        /* \"contracts/ERC721Attr.sol\":459:465  number */\n      dup1\n        /* \"contracts/ERC721Attr.sol\":452:465  return number */\n      swap2\n      pop\n      pop\n        /* \"contracts/ERC721Attr.sol\":212:472  function BytesToUint256(bytes memory b) internal pure returns (uint256){... */\n      swap2\n      swap1\n      pop\n      jump\t// out\n        /* \"contracts/ERC721Attr.sol\":5175:5390  function _setFiled(address addr, string memory field, uint256 types, uint256 auth) internal returns (bool){... */\n    tag_180:\n        /* \"contracts/ERC721Attr.sol\":5276:5280  bool */\n      0x00\n        /* \"contracts/ERC721Attr.sol\":5317:5322  types */\n      dup3\n        /* \"contracts/ERC721Attr.sol\":5291:5301  fieldsType */\n      0x02\n        /* \"contracts/ERC721Attr.sol\":5291:5307  fieldsType[addr] */\n      0x00\n        /* \"contracts/ERC721Attr.sol\":5302:5306  addr */\n      dup8\n        /* \"contracts/ERC721Attr.sol\":5291:5307  fieldsType[addr] */\n      0xffffffffffffffffffffffffffffffffffffffff\n      and\n      0xffffffffffffffffffffffffffffffffffffffff\n      and\n      dup2\n      mstore\n      0x20\n      add\n      swap1\n      dup2\n      mstore\n      0x20\n      add\n      0x00\n      keccak256\n        /* \"contracts/ERC721Attr.sol\":5308:5313  field */\n      dup6\n        /* \"contracts/ERC721Attr.sol\":5291:5314  fieldsType[addr][field] */\n      mload(0x40)\n      tag_264\n      swap2\n      swap1\n      tag_99\n      jump\t// in\n    tag_264:\n      swap1\n      dup2\n      mstore\n      0x20\n      add\n      mload(0x40)\n      dup1\n      swap2\n      sub\n      swap1\n      keccak256\n        /* \"contracts/ERC721Attr.sol\":5291:5322  fieldsType[addr][field] = types */\n      dup2\n      swap1\n      sstore\n      pop\n        /* \"contracts/ERC721Attr.sol\":5358:5362  auth */\n      dup2\n        /* \"contracts/ERC721Attr.sol\":5332:5342  fieldsAuth */\n      0x03\n        /* \"contracts/ERC721Attr.sol\":5332:5348  fieldsAuth[addr] */\n      0x00\n        /* \"contracts/ERC721Attr.sol\":5343:5347  addr */\n      dup8\n        /* \"contracts/ERC721Attr.sol\":5332:5348  fieldsAuth[addr] */\n      0xffffffffffffffffffffffffffffffffffffffff\n      and\n      0xffffffffffffffffffffffffffffffffffffffff\n      and\n      dup2\n      mstore\n      0x20\n      add\n      swap1\n      dup2\n      mstore\n      0x20\n      add\n      0x00\n      keccak256\n        /* \"contracts/ERC721Attr.sol\":5349:5354  field */\n      dup6\n        /* \"contracts/ERC721Attr.sol\":5332:5355  fieldsAuth[addr][field] */\n      mload(0x40)\n      tag_265\n      swap2\n      swap1\n      tag_99\n      jump\t// in\n    tag_265:\n      swap1\n      dup2\n      mstore\n      0x20\n      add\n      mload(0x40)\n      dup1\n      swap2\n      sub\n      swap1\n      keccak256\n        /* \"contracts/ERC721Attr.sol\":5332:5362  fieldsAuth[addr][field] = auth */\n      dup2\n      swap1\n      sstore\n      pop\n        /* \"contracts/ERC721Attr.sol\":5379:5383  true */\n      0x01\n        /* \"contracts/ERC721Attr.sol\":5372:5383  return true */\n      swap1\n      pop\n        /* \"contracts/ERC721Attr.sol\":5175:5390  function _setFiled(address addr, string memory field, uint256 types, uint256 auth) internal returns (bool){... */\n      swap5\n      swap4\n      pop\n      pop\n      pop\n      pop\n      jump\t// out\n        /* \"@openzeppelin/contracts/utils/math/SafeMath.sol\":3122:3218  function sub(uint256 a, uint256 b) internal pure returns (uint256) {... */\n    tag_203:\n        /* \"@openzeppelin/contracts/utils/math/SafeMath.sol\":3180:3187  uint256 */\n      0x00\n        /* \"@openzeppelin/contracts/utils/math/SafeMath.sol\":3210:3211  b */\n      dup2\n        /* \"@openzeppelin/contracts/utils/math/SafeMath.sol\":3206:3207  a */\n      dup4\n        /* \"@openzeppelin/contracts/utils/math/SafeMath.sol\":3206:3211  a - b */\n      tag_267\n      swap2\n      swap1\n      tag_253\n      jump\t// in\n    tag_267:\n        /* \"@openzeppelin/contracts/utils/math/SafeMath.sol\":3199:3211  return a - b */\n      swap1\n      pop\n        /* \"@openzeppelin/contracts/utils/math/SafeMath.sol\":3122:3218  function sub(uint256 a, uint256 b) internal pure returns (uint256) {... */\n      swap3\n      swap2\n      pop\n      pop\n      jump\t// out\n        /* \"contracts/ERC721Attr.sol\":5396:5581  function _delFiled(address addr, string memory field) internal returns (bool){... */\n    tag_212:\n        /* \"contracts/ERC721Attr.sol\":5468:5472  bool */\n      0x00\n        /* \"contracts/ERC721Attr.sol\":5490:5500  fieldsType */\n      0x02\n        /* \"contracts/ERC721Attr.sol\":5490:5506  fieldsType[addr] */\n      0x00\n        /* \"contracts/ERC721Attr.sol\":5501:5505  addr */\n      dup5\n        /* \"contracts/ERC721Attr.sol\":5490:5506  fieldsType[addr] */\n      0xffffffffffffffffffffffffffffffffffffffff\n      and\n      0xffffffffffffffffffffffffffffffffffffffff\n      and\n      dup2\n      mstore\n      0x20\n      add\n      swap1\n      dup2\n      mstore\n      0x20\n      add\n      0x00\n      keccak256\n        /* \"contracts/ERC721Attr.sol\":5507:5512  field */\n      dup3\n        /* \"contracts/ERC721Attr.sol\":5490:5513  fieldsType[addr][field] */\n      mload(0x40)\n      tag_269\n      swap2\n      swap1\n      tag_99\n      jump\t// in\n    tag_269:\n      swap1\n      dup2\n      mstore\n      0x20\n      add\n      mload(0x40)\n      dup1\n      swap2\n      sub\n      swap1\n      keccak256\n        /* \"contracts/ERC721Attr.sol\":5483:5513  delete fieldsType[addr][field] */\n      0x00\n      swap1\n      sstore\n        /* \"contracts/ERC721Attr.sol\":5530:5540  fieldsAuth */\n      0x03\n        /* \"contracts/ERC721Attr.sol\":5530:5546  fieldsAuth[addr] */\n      0x00\n        /* \"contracts/ERC721Attr.sol\":5541:5545  addr */\n      dup5\n        /* \"contracts/ERC721Attr.sol\":5530:5546  fieldsAuth[addr] */\n      0xffffffffffffffffffffffffffffffffffffffff\n      and\n      0xffffffffffffffffffffffffffffffffffffffff\n      and\n      dup2\n      mstore\n      0x20\n      add\n      swap1\n      dup2\n      mstore\n      0x20\n      add\n      0x00\n      keccak256\n        /* \"contracts/ERC721Attr.sol\":5547:5552  field */\n      dup3\n        /* \"contracts/ERC721Attr.sol\":5530:5553  fieldsAuth[addr][field] */\n      mload(0x40)\n      tag_270\n      swap2\n      swap1\n      tag_99\n      jump\t// in\n    tag_270:\n      swap1\n      dup2\n      mstore\n      0x20\n      add\n      mload(0x40)\n      dup1\n      swap2\n      sub\n      swap1\n      keccak256\n        /* \"contracts/ERC721Attr.sol\":5523:5553  delete fieldsAuth[addr][field] */\n      0x00\n      swap1\n      sstore\n        /* \"contracts/ERC721Attr.sol\":5570:5574  true */\n      0x01\n        /* \"contracts/ERC721Attr.sol\":5563:5574  return true */\n      swap1\n      pop\n        /* \"contracts/ERC721Attr.sol\":5396:5581  function _delFiled(address addr, string memory field) internal returns (bool){... */\n      swap3\n      swap2\n      pop\n      pop\n      jump\t// out\n        /* \"@openzeppelin/contracts/utils/math/SafeMath.sol\":2755:2851  function add(uint256 a, uint256 b) internal pure returns (uint256) {... */\n    tag_233:\n        /* \"@openzeppelin/contracts/utils/math/SafeMath.sol\":2813:2820  uint256 */\n      0x00\n        /* \"@openzeppelin/contracts/utils/math/SafeMath.sol\":2843:2844  b */\n      dup2\n        /* \"@openzeppelin/contracts/utils/math/SafeMath.sol\":2839:2840  a */\n      dup4\n        /* \"@openzeppelin/contracts/utils/math/SafeMath.sol\":2839:2844  a + b */\n      tag_272\n      swap2\n      swap1\n      tag_251\n      jump\t// in\n    tag_272:\n        /* \"@openzeppelin/contracts/utils/math/SafeMath.sol\":2832:2844  return a + b */\n      swap1\n      pop\n        /* \"@openzeppelin/contracts/utils/math/SafeMath.sol\":2755:2851  function add(uint256 a, uint256 b) internal pure returns (uint256) {... */\n      swap3\n      swap2\n      pop\n      pop\n      jump\t// out\n    tag_119:\n      pop\n      dup1\n      sload\n      tag_273\n      swap1\n      tag_126\n      jump\t// in\n    tag_273:\n      0x00\n      dup3\n      sstore\n      dup1\n      0x1f\n      lt\n      tag_275\n      jumpi\n      pop\n      jump(tag_274)\n    tag_275:\n      0x1f\n      add\n      0x20\n      swap1\n      div\n      swap1\n      0x00\n      mstore\n      keccak256(0x00, 0x20)\n      swap1\n      dup2\n      add\n      swap1\n      tag_276\n      swap2\n      swap1\n      tag_277\n      jump\t// in\n    tag_276:\n    tag_274:\n      pop\n      jump\t// out\n    tag_277:\n    tag_278:\n      dup1\n      dup3\n      gt\n      iszero\n      tag_279\n      jumpi\n      0x00\n      dup2\n      0x00\n      swap1\n      sstore\n      pop\n      0x01\n      add\n      jump(tag_278)\n    tag_279:\n      pop\n      swap1\n      jump\t// out\n        /* \"#utility.yul\":7:82   */\n    tag_280:\n        /* \"#utility.yul\":40:46   */\n      0x00\n        /* \"#utility.yul\":73:75   */\n      0x40\n        /* \"#utility.yul\":67:76   */\n      mload\n        /* \"#utility.yul\":57:76   */\n      swap1\n      pop\n        /* \"#utility.yul\":7:82   */\n      swap1\n      jump\t// out\n        /* \"#utility.yul\":88:205   */\n    tag_281:\n        /* \"#utility.yul\":197:198   */\n      0x00\n        /* \"#utility.yul\":194:195   */\n      dup1\n        /* \"#utility.yul\":187:199   */\n      revert\n        /* \"#utility.yul\":211:328   */\n    tag_282:\n        /* \"#utility.yul\":320:321   */\n      0x00\n        /* \"#utility.yul\":317:318   */\n      dup1\n        /* \"#utility.yul\":310:322   */\n      revert\n        /* \"#utility.yul\":334:460   */\n    tag_283:\n        /* \"#utility.yul\":371:378   */\n      0x00\n        /* \"#utility.yul\":411:453   */\n      0xffffffffffffffffffffffffffffffffffffffff\n        /* \"#utility.yul\":404:409   */\n      dup3\n        /* \"#utility.yul\":400:454   */\n      and\n        /* \"#utility.yul\":389:454   */\n      swap1\n      pop\n        /* \"#utility.yul\":334:460   */\n      swap2\n      swap1\n      pop\n      jump\t// out\n        /* \"#utility.yul\":466:562   */\n    tag_284:\n        /* \"#utility.yul\":503:510   */\n      0x00\n        /* \"#utility.yul\":532:556   */\n      tag_362\n        /* \"#utility.yul\":550:555   */\n      dup3\n        /* \"#utility.yul\":532:556   */\n      tag_283\n      jump\t// in\n    tag_362:\n        /* \"#utility.yul\":521:556   */\n      swap1\n      pop\n        /* \"#utility.yul\":466:562   */\n      swap2\n      swap1\n      pop\n      jump\t// out\n        /* \"#utility.yul\":568:690   */\n    tag_285:\n        /* \"#utility.yul\":641:665   */\n      tag_364\n        /* \"#utility.yul\":659:664   */\n      dup2\n        /* \"#utility.yul\":641:665   */\n      tag_284\n      jump\t// in\n    tag_364:\n        /* \"#utility.yul\":634:639   */\n      dup2\n        /* \"#utility.yul\":631:666   */\n      eq\n        /* \"#utility.yul\":621:684   */\n      tag_365\n      jumpi\n        /* \"#utility.yul\":680:681   */\n      0x00\n        /* \"#utility.yul\":677:678   */\n      dup1\n        /* \"#utility.yul\":670:682   */\n      revert\n        /* \"#utility.yul\":621:684   */\n    tag_365:\n        /* \"#utility.yul\":568:690   */\n      pop\n      jump\t// out\n        /* \"#utility.yul\":696:835   */\n    tag_286:\n        /* \"#utility.yul\":742:747   */\n      0x00\n        /* \"#utility.yul\":780:786   */\n      dup2\n        /* \"#utility.yul\":767:787   */\n      calldataload\n        /* \"#utility.yul\":758:787   */\n      swap1\n      pop\n        /* \"#utility.yul\":796:829   */\n      tag_367\n        /* \"#utility.yul\":823:828   */\n      dup2\n        /* \"#utility.yul\":796:829   */\n      tag_285\n      jump\t// in\n    tag_367:\n        /* \"#utility.yul\":696:835   */\n      swap3\n      swap2\n      pop\n      pop\n      jump\t// out\n        /* \"#utility.yul\":841:958   */\n    tag_287:\n        /* \"#utility.yul\":950:951   */\n      0x00\n        /* \"#utility.yul\":947:948   */\n      dup1\n        /* \"#utility.yul\":940:952   */\n      revert\n        /* \"#utility.yul\":964:1081   */\n    tag_288:\n        /* \"#utility.yul\":1073:1074   */\n      0x00\n        /* \"#utility.yul\":1070:1071   */\n      dup1\n        /* \"#utility.yul\":1063:1075   */\n      revert\n        /* \"#utility.yul\":1087:1189   */\n    tag_289:\n        /* \"#utility.yul\":1128:1134   */\n      0x00\n        /* \"#utility.yul\":1179:1181   */\n      0x1f\n        /* \"#utility.yul\":1175:1182   */\n      not\n        /* \"#utility.yul\":1170:1172   */\n      0x1f\n        /* \"#utility.yul\":1163:1168   */\n      dup4\n        /* \"#utility.yul\":1159:1173   */\n      add\n        /* \"#utility.yul\":1155:1183   */\n      and\n        /* \"#utility.yul\":1145:1183   */\n      swap1\n      pop\n        /* \"#utility.yul\":1087:1189   */\n      swap2\n      swap1\n      pop\n      jump\t// out\n        /* \"#utility.yul\":1195:1375   */\n    tag_145:\n        /* \"#utility.yul\":1243:1320   */\n      0x4e487b7100000000000000000000000000000000000000000000000000000000\n        /* \"#utility.yul\":1240:1241   */\n      0x00\n        /* \"#utility.yul\":1233:1321   */\n      mstore\n        /* \"#utility.yul\":1340:1344   */\n      0x41\n        /* \"#utility.yul\":1337:1338   */\n      0x04\n        /* \"#utility.yul\":1330:1345   */\n      mstore\n        /* \"#utility.yul\":1364:1368   */\n      0x24\n        /* \"#utility.yul\":1361:1362   */\n      0x00\n        /* \"#utility.yul\":1354:1369   */\n      revert\n        /* \"#utility.yul\":1381:1662   */\n    tag_290:\n        /* \"#utility.yul\":1464:1491   */\n      tag_373\n        /* \"#utility.yul\":1486:1490   */\n      dup3\n        /* \"#utility.yul\":1464:1491   */\n      tag_289\n      jump\t// in\n    tag_373:\n        /* \"#utility.yul\":1456:1462   */\n      dup2\n        /* \"#utility.yul\":1452:1492   */\n      add\n        /* \"#utility.yul\":1594:1600   */\n      dup2\n        /* \"#utility.yul\":1582:1592   */\n      dup2\n        /* \"#utility.yul\":1579:1601   */\n      lt\n        /* \"#utility.yul\":1558:1576   */\n      0xffffffffffffffff\n        /* \"#utility.yul\":1546:1556   */\n      dup3\n        /* \"#utility.yul\":1543:1577   */\n      gt\n        /* \"#utility.yul\":1540:1602   */\n      or\n        /* \"#utility.yul\":1537:1625   */\n      iszero\n      tag_374\n      jumpi\n        /* \"#utility.yul\":1605:1623   */\n      tag_375\n      tag_145\n      jump\t// in\n    tag_375:\n        /* \"#utility.yul\":1537:1625   */\n    tag_374:\n        /* \"#utility.yul\":1645:1655   */\n      dup1\n        /* \"#utility.yul\":1641:1643   */\n      0x40\n        /* \"#utility.yul\":1634:1656   */\n      mstore\n        /* \"#utility.yul\":1424:1662   */\n      pop\n        /* \"#utility.yul\":1381:1662   */\n      pop\n      pop\n      jump\t// out\n        /* \"#utility.yul\":1668:1797   */\n    tag_291:\n        /* \"#utility.yul\":1702:1708   */\n      0x00\n        /* \"#utility.yul\":1729:1749   */\n      tag_377\n      tag_280\n      jump\t// in\n    tag_377:\n        /* \"#utility.yul\":1719:1749   */\n      swap1\n      pop\n        /* \"#utility.yul\":1758:1791   */\n      tag_378\n        /* \"#utility.yul\":1786:1790   */\n      dup3\n        /* \"#utility.yul\":1778:1784   */\n      dup3\n        /* \"#utility.yul\":1758:1791   */\n      tag_290\n      jump\t// in\n    tag_378:\n        /* \"#utility.yul\":1668:1797   */\n      swap2\n      swap1\n      pop\n      jump\t// out\n        /* \"#utility.yul\":1803:2111   */\n    tag_292:\n        /* \"#utility.yul\":1865:1869   */\n      0x00\n        /* \"#utility.yul\":1955:1973   */\n      0xffffffffffffffff\n        /* \"#utility.yul\":1947:1953   */\n      dup3\n        /* \"#utility.yul\":1944:1974   */\n      gt\n        /* \"#utility.yul\":1941:1997   */\n      iszero\n      tag_380\n      jumpi\n        /* \"#utility.yul\":1977:1995   */\n      tag_381\n      tag_145\n      jump\t// in\n    tag_381:\n        /* \"#utility.yul\":1941:1997   */\n    tag_380:\n        /* \"#utility.yul\":2015:2044   */\n      tag_382\n        /* \"#utility.yul\":2037:2043   */\n      dup3\n        /* \"#utility.yul\":2015:2044   */\n      tag_289\n      jump\t// in\n    tag_382:\n        /* \"#utility.yul\":2007:2044   */\n      swap1\n      pop\n        /* \"#utility.yul\":2099:2103   */\n      0x20\n        /* \"#utility.yul\":2093:2097   */\n      dup2\n        /* \"#utility.yul\":2089:2104   */\n      add\n        /* \"#utility.yul\":2081:2104   */\n      swap1\n      pop\n        /* \"#utility.yul\":1803:2111   */\n      swap2\n      swap1\n      pop\n      jump\t// out\n        /* \"#utility.yul\":2117:2263   */\n    tag_293:\n        /* \"#utility.yul\":2214:2220   */\n      dup3\n        /* \"#utility.yul\":2209:2212   */\n      dup2\n        /* \"#utility.yul\":2204:2207   */\n      dup4\n        /* \"#utility.yul\":2191:2221   */\n      calldatacopy\n        /* \"#utility.yul\":2255:2256   */\n      0x00\n        /* \"#utility.yul\":2246:2252   */\n      dup4\n        /* \"#utility.yul\":2241:2244   */\n      dup4\n        /* \"#utility.yul\":2237:2253   */\n      add\n        /* \"#utility.yul\":2230:2257   */\n      mstore\n        /* \"#utility.yul\":2117:2263   */\n      pop\n      pop\n      pop\n      jump\t// out\n        /* \"#utility.yul\":2269:2694   */\n    tag_294:\n        /* \"#utility.yul\":2347:2352   */\n      0x00\n        /* \"#utility.yul\":2372:2438   */\n      tag_385\n        /* \"#utility.yul\":2388:2437   */\n      tag_386\n        /* \"#utility.yul\":2430:2436   */\n      dup5\n        /* \"#utility.yul\":2388:2437   */\n      tag_292\n      jump\t// in\n    tag_386:\n        /* \"#utility.yul\":2372:2438   */\n      tag_291\n      jump\t// in\n    tag_385:\n        /* \"#utility.yul\":2363:2438   */\n      swap1\n      pop\n        /* \"#utility.yul\":2461:2467   */\n      dup3\n        /* \"#utility.yul\":2454:2459   */\n      dup2\n        /* \"#utility.yul\":2447:2468   */\n      mstore\n        /* \"#utility.yul\":2499:2503   */\n      0x20\n        /* \"#utility.yul\":2492:2497   */\n      dup2\n        /* \"#utility.yul\":2488:2504   */\n      add\n        /* \"#utility.yul\":2537:2540   */\n      dup5\n        /* \"#utility.yul\":2528:2534   */\n      dup5\n        /* \"#utility.yul\":2523:2526   */\n      dup5\n        /* \"#utility.yul\":2519:2535   */\n      add\n        /* \"#utility.yul\":2516:2541   */\n      gt\n        /* \"#utility.yul\":2513:2625   */\n      iszero\n      tag_387\n      jumpi\n        /* \"#utility.yul\":2544:2623   */\n      tag_388\n      tag_288\n      jump\t// in\n    tag_388:\n        /* \"#utility.yul\":2513:2625   */\n    tag_387:\n        /* \"#utility.yul\":2634:2688   */\n      tag_389\n        /* \"#utility.yul\":2681:2687   */\n      dup5\n        /* \"#utility.yul\":2676:2679   */\n      dup3\n        /* \"#utility.yul\":2671:2674   */\n      dup6\n        /* \"#utility.yul\":2634:2688   */\n      tag_293\n      jump\t// in\n    tag_389:\n        /* \"#utility.yul\":2353:2694   */\n      pop\n        /* \"#utility.yul\":2269:2694   */\n      swap4\n      swap3\n      pop\n      pop\n      pop\n      jump\t// out\n        /* \"#utility.yul\":2714:3054   */\n    tag_295:\n        /* \"#utility.yul\":2770:2775   */\n      0x00\n        /* \"#utility.yul\":2819:2822   */\n      dup3\n        /* \"#utility.yul\":2812:2816   */\n      0x1f\n        /* \"#utility.yul\":2804:2810   */\n      dup4\n        /* \"#utility.yul\":2800:2817   */\n      add\n        /* \"#utility.yul\":2796:2823   */\n      slt\n        /* \"#utility.yul\":2786:2908   */\n      tag_391\n      jumpi\n        /* \"#utility.yul\":2827:2906   */\n      tag_392\n      tag_287\n      jump\t// in\n    tag_392:\n        /* \"#utility.yul\":2786:2908   */\n    tag_391:\n        /* \"#utility.yul\":2944:2950   */\n      dup2\n        /* \"#utility.yul\":2931:2951   */\n      calldataload\n        /* \"#utility.yul\":2969:3048   */\n      tag_393\n        /* \"#utility.yul\":3044:3047   */\n      dup5\n        /* \"#utility.yul\":3036:3042   */\n      dup3\n        /* \"#utility.yul\":3029:3033   */\n      0x20\n        /* \"#utility.yul\":3021:3027   */\n      dup7\n        /* \"#utility.yul\":3017:3034   */\n      add\n        /* \"#utility.yul\":2969:3048   */\n      tag_294\n      jump\t// in\n    tag_393:\n        /* \"#utility.yul\":2960:3048   */\n      swap2\n      pop\n        /* \"#utility.yul\":2776:3054   */\n      pop\n        /* \"#utility.yul\":2714:3054   */\n      swap3\n      swap2\n      pop\n      pop\n      jump\t// out\n        /* \"#utility.yul\":3060:3714   */\n    tag_24:\n        /* \"#utility.yul\":3138:3144   */\n      0x00\n        /* \"#utility.yul\":3146:3152   */\n      dup1\n        /* \"#utility.yul\":3195:3197   */\n      0x40\n        /* \"#utility.yul\":3183:3192   */\n      dup4\n        /* \"#utility.yul\":3174:3181   */\n      dup6\n        /* \"#utility.yul\":3170:3193   */\n      sub\n        /* \"#utility.yul\":3166:3198   */\n      slt\n        /* \"#utility.yul\":3163:3282   */\n      iszero\n      tag_395\n      jumpi\n        /* \"#utility.yul\":3201:3280   */\n      tag_396\n      tag_281\n      jump\t// in\n    tag_396:\n        /* \"#utility.yul\":3163:3282   */\n    tag_395:\n        /* \"#utility.yul\":3321:3322   */\n      0x00\n        /* \"#utility.yul\":3346:3399   */\n      tag_397\n        /* \"#utility.yul\":3391:3398   */\n      dup6\n        /* \"#utility.yul\":3382:3388   */\n      dup3\n        /* \"#utility.yul\":3371:3380   */\n      dup7\n        /* \"#utility.yul\":3367:3389   */\n      add\n        /* \"#utility.yul\":3346:3399   */\n      tag_286\n      jump\t// in\n    tag_397:\n        /* \"#utility.yul\":3336:3399   */\n      swap3\n      pop\n        /* \"#utility.yul\":3292:3409   */\n      pop\n        /* \"#utility.yul\":3476:3478   */\n      0x20\n        /* \"#utility.yul\":3465:3474   */\n      dup4\n        /* \"#utility.yul\":3461:3479   */\n      add\n        /* \"#utility.yul\":3448:3480   */\n      calldataload\n        /* \"#utility.yul\":3507:3525   */\n      0xffffffffffffffff\n        /* \"#utility.yul\":3499:3505   */\n      dup2\n        /* \"#utility.yul\":3496:3526   */\n      gt\n        /* \"#utility.yul\":3493:3610   */\n      iszero\n      tag_398\n      jumpi\n        /* \"#utility.yul\":3529:3608   */\n      tag_399\n      tag_282\n      jump\t// in\n    tag_399:\n        /* \"#utility.yul\":3493:3610   */\n    tag_398:\n        /* \"#utility.yul\":3634:3697   */\n      tag_400\n        /* \"#utility.yul\":3689:3696   */\n      dup6\n        /* \"#utility.yul\":3680:3686   */\n      dup3\n        /* \"#utility.yul\":3669:3678   */\n      dup7\n        /* \"#utility.yul\":3665:3687   */\n      add\n        /* \"#utility.yul\":3634:3697   */\n      tag_295\n      jump\t// in\n    tag_400:\n        /* \"#utility.yul\":3624:3697   */\n      swap2\n      pop\n        /* \"#utility.yul\":3419:3707   */\n      pop\n        /* \"#utility.yul\":3060:3714   */\n      swap3\n      pop\n      swap3\n      swap1\n      pop\n      jump\t// out\n        /* \"#utility.yul\":3720:3797   */\n    tag_296:\n        /* \"#utility.yul\":3757:3764   */\n      0x00\n        /* \"#utility.yul\":3786:3791   */\n      dup2\n        /* \"#utility.yul\":3775:3791   */\n      swap1\n      pop\n        /* \"#utility.yul\":3720:3797   */\n      swap2\n      swap1\n      pop\n      jump\t// out\n        /* \"#utility.yul\":3803:3921   */\n    tag_297:\n        /* \"#utility.yul\":3890:3914   */\n      tag_403\n        /* \"#utility.yul\":3908:3913   */\n      dup2\n        /* \"#utility.yul\":3890:3914   */\n      tag_296\n      jump\t// in\n    tag_403:\n        /* \"#utility.yul\":3885:3888   */\n      dup3\n        /* \"#utility.yul\":3878:3915   */\n      mstore\n        /* \"#utility.yul\":3803:3921   */\n      pop\n      pop\n      jump\t// out\n        /* \"#utility.yul\":3927:4149   */\n    tag_27:\n        /* \"#utility.yul\":4020:4024   */\n      0x00\n        /* \"#utility.yul\":4058:4060   */\n      0x20\n        /* \"#utility.yul\":4047:4056   */\n      dup3\n        /* \"#utility.yul\":4043:4061   */\n      add\n        /* \"#utility.yul\":4035:4061   */\n      swap1\n      pop\n        /* \"#utility.yul\":4071:4142   */\n      tag_405\n        /* \"#utility.yul\":4139:4140   */\n      0x00\n        /* \"#utility.yul\":4128:4137   */\n      dup4\n        /* \"#utility.yul\":4124:4141   */\n      add\n        /* \"#utility.yul\":4115:4121   */\n      dup5\n        /* \"#utility.yul\":4071:4142   */\n      tag_297\n      jump\t// in\n    tag_405:\n        /* \"#utility.yul\":3927:4149   */\n      swap3\n      swap2\n      pop\n      pop\n      jump\t// out\n        /* \"#utility.yul\":4155:4277   */\n    tag_298:\n        /* \"#utility.yul\":4228:4252   */\n      tag_407\n        /* \"#utility.yul\":4246:4251   */\n      dup2\n        /* \"#utility.yul\":4228:4252   */\n      tag_296\n      jump\t// in\n    tag_407:\n        /* \"#utility.yul\":4221:4226   */\n      dup2\n        /* \"#utility.yul\":4218:4253   */\n      eq\n        /* \"#utility.yul\":4208:4271   */\n      tag_408\n      jumpi\n        /* \"#utility.yul\":4267:4268   */\n      0x00\n        /* \"#utility.yul\":4264:4265   */\n      dup1\n        /* \"#utility.yul\":4257:4269   */\n      revert\n        /* \"#utility.yul\":4208:4271   */\n    tag_408:\n        /* \"#utility.yul\":4155:4277   */\n      pop\n      jump\t// out\n        /* \"#utility.yul\":4283:4422   */\n    tag_299:\n        /* \"#utility.yul\":4329:4334   */\n      0x00\n        /* \"#utility.yul\":4367:4373   */\n      dup2\n        /* \"#utility.yul\":4354:4374   */\n      calldataload\n        /* \"#utility.yul\":4345:4374   */\n      swap1\n      pop\n        /* \"#utility.yul\":4383:4416   */\n      tag_410\n        /* \"#utility.yul\":4410:4415   */\n      dup2\n        /* \"#utility.yul\":4383:4416   */\n      tag_298\n      jump\t// in\n    tag_410:\n        /* \"#utility.yul\":4283:4422   */\n      swap3\n      swap2\n      pop\n      pop\n      jump\t// out\n        /* \"#utility.yul\":4428:5227   */\n    tag_30:\n        /* \"#utility.yul\":4515:4521   */\n      0x00\n        /* \"#utility.yul\":4523:4529   */\n      dup1\n        /* \"#utility.yul\":4531:4537   */\n      0x00\n        /* \"#utility.yul\":4580:4582   */\n      0x60\n        /* \"#utility.yul\":4568:4577   */\n      dup5\n        /* \"#utility.yul\":4559:4566   */\n      dup7\n        /* \"#utility.yul\":4555:4578   */\n      sub\n        /* \"#utility.yul\":4551:4583   */\n      slt\n        /* \"#utility.yul\":4548:4667   */\n      iszero\n      tag_412\n      jumpi\n        /* \"#utility.yul\":4586:4665   */\n      tag_413\n      tag_281\n      jump\t// in\n    tag_413:\n        /* \"#utility.yul\":4548:4667   */\n    tag_412:\n        /* \"#utility.yul\":4706:4707   */\n      0x00\n        /* \"#utility.yul\":4731:4784   */\n      tag_414\n        /* \"#utility.yul\":4776:4783   */\n      dup7\n        /* \"#utility.yul\":4767:4773   */\n      dup3\n        /* \"#utility.yul\":4756:4765   */\n      dup8\n        /* \"#utility.yul\":4752:4774   */\n      add\n        /* \"#utility.yul\":4731:4784   */\n      tag_286\n      jump\t// in\n    tag_414:\n        /* \"#utility.yul\":4721:4784   */\n      swap4\n      pop\n        /* \"#utility.yul\":4677:4794   */\n      pop\n        /* \"#utility.yul\":4833:4835   */\n      0x20\n        /* \"#utility.yul\":4859:4912   */\n      tag_415\n        /* \"#utility.yul\":4904:4911   */\n      dup7\n        /* \"#utility.yul\":4895:4901   */\n      dup3\n        /* \"#utility.yul\":4884:4893   */\n      dup8\n        /* \"#utility.yul\":4880:4902   */\n      add\n        /* \"#utility.yul\":4859:4912   */\n      tag_299\n      jump\t// in\n    tag_415:\n        /* \"#utility.yul\":4849:4912   */\n      swap3\n      pop\n        /* \"#utility.yul\":4804:4922   */\n      pop\n        /* \"#utility.yul\":4989:4991   */\n      0x40\n        /* \"#utility.yul\":4978:4987   */\n      dup5\n        /* \"#utility.yul\":4974:4992   */\n      add\n        /* \"#utility.yul\":4961:4993   */\n      calldataload\n        /* \"#utility.yul\":5020:5038   */\n      0xffffffffffffffff\n        /* \"#utility.yul\":5012:5018   */\n      dup2\n        /* \"#utility.yul\":5009:5039   */\n      gt\n        /* \"#utility.yul\":5006:5123   */\n      iszero\n      tag_416\n      jumpi\n        /* \"#utility.yul\":5042:5121   */\n      tag_417\n      tag_282\n      jump\t// in\n    tag_417:\n        /* \"#utility.yul\":5006:5123   */\n    tag_416:\n        /* \"#utility.yul\":5147:5210   */\n      tag_418\n        /* \"#utility.yul\":5202:5209   */\n      dup7\n        /* \"#utility.yul\":5193:5199   */\n      dup3\n        /* \"#utility.yul\":5182:5191   */\n      dup8\n        /* \"#utility.yul\":5178:5200   */\n      add\n        /* \"#utility.yul\":5147:5210   */\n      tag_295\n      jump\t// in\n    tag_418:\n        /* \"#utility.yul\":5137:5210   */\n      swap2\n      pop\n        /* \"#utility.yul\":4932:5220   */\n      pop\n        /* \"#utility.yul\":4428:5227   */\n      swap3\n      pop\n      swap3\n      pop\n      swap3\n      jump\t// out\n        /* \"#utility.yul\":5233:5323   */\n    tag_300:\n        /* \"#utility.yul\":5267:5274   */\n      0x00\n        /* \"#utility.yul\":5310:5315   */\n      dup2\n        /* \"#utility.yul\":5303:5316   */\n      iszero\n        /* \"#utility.yul\":5296:5317   */\n      iszero\n        /* \"#utility.yul\":5285:5317   */\n      swap1\n      pop\n        /* \"#utility.yul\":5233:5323   */\n      swap2\n      swap1\n      pop\n      jump\t// out\n        /* \"#utility.yul\":5329:5438   */\n    tag_301:\n        /* \"#utility.yul\":5410:5431   */\n      tag_421\n        /* \"#utility.yul\":5425:5430   */\n      dup2\n        /* \"#utility.yul\":5410:5431   */\n      tag_300\n      jump\t// in\n    tag_421:\n        /* \"#utility.yul\":5405:5408   */\n      dup3\n        /* \"#utility.yul\":5398:5432   */\n      mstore\n        /* \"#utility.yul\":5329:5438   */\n      pop\n      pop\n      jump\t// out\n        /* \"#utility.yul\":5444:5654   */\n    tag_33:\n        /* \"#utility.yul\":5531:5535   */\n      0x00\n        /* \"#utility.yul\":5569:5571   */\n      0x20\n        /* \"#utility.yul\":5558:5567   */\n      dup3\n        /* \"#utility.yul\":5554:5572   */\n      add\n        /* \"#utility.yul\":5546:5572   */\n      swap1\n      pop\n        /* \"#utility.yul\":5582:5647   */\n      tag_423\n        /* \"#utility.yul\":5644:5645   */\n      0x00\n        /* \"#utility.yul\":5633:5642   */\n      dup4\n        /* \"#utility.yul\":5629:5646   */\n      add\n        /* \"#utility.yul\":5620:5626   */\n      dup5\n        /* \"#utility.yul\":5582:5647   */\n      tag_301\n      jump\t// in\n    tag_423:\n        /* \"#utility.yul\":5444:5654   */\n      swap3\n      swap2\n      pop\n      pop\n      jump\t// out\n        /* \"#utility.yul\":5660:5967   */\n    tag_302:\n        /* \"#utility.yul\":5721:5725   */\n      0x00\n        /* \"#utility.yul\":5811:5829   */\n      0xffffffffffffffff\n        /* \"#utility.yul\":5803:5809   */\n      dup3\n        /* \"#utility.yul\":5800:5830   */\n      gt\n        /* \"#utility.yul\":5797:5853   */\n      iszero\n      tag_425\n      jumpi\n        /* \"#utility.yul\":5833:5851   */\n      tag_426\n      tag_145\n      jump\t// in\n    tag_426:\n        /* \"#utility.yul\":5797:5853   */\n    tag_425:\n        /* \"#utility.yul\":5871:5900   */\n      tag_427\n        /* \"#utility.yul\":5893:5899   */\n      dup3\n        /* \"#utility.yul\":5871:5900   */\n      tag_289\n      jump\t// in\n    tag_427:\n        /* \"#utility.yul\":5863:5900   */\n      swap1\n      pop\n        /* \"#utility.yul\":5955:5959   */\n      0x20\n        /* \"#utility.yul\":5949:5953   */\n      dup2\n        /* \"#utility.yul\":5945:5960   */\n      add\n        /* \"#utility.yul\":5937:5960   */\n      swap1\n      pop\n        /* \"#utility.yul\":5660:5967   */\n      swap2\n      swap1\n      pop\n      jump\t// out\n        /* \"#utility.yul\":5973:6396   */\n    tag_303:\n        /* \"#utility.yul\":6050:6055   */\n      0x00\n        /* \"#utility.yul\":6075:6140   */\n      tag_429\n        /* \"#utility.yul\":6091:6139   */\n      tag_430\n        /* \"#utility.yul\":6132:6138   */\n      dup5\n        /* \"#utility.yul\":6091:6139   */\n      tag_302\n      jump\t// in\n    tag_430:\n        /* \"#utility.yul\":6075:6140   */\n      tag_291\n      jump\t// in\n    tag_429:\n        /* \"#utility.yul\":6066:6140   */\n      swap1\n      pop\n        /* \"#utility.yul\":6163:6169   */\n      dup3\n        /* \"#utility.yul\":6156:6161   */\n      dup2\n        /* \"#utility.yul\":6149:6170   */\n      mstore\n        /* \"#utility.yul\":6201:6205   */\n      0x20\n        /* \"#utility.yul\":6194:6199   */\n      dup2\n        /* \"#utility.yul\":6190:6206   */\n      add\n        /* \"#utility.yul\":6239:6242   */\n      dup5\n        /* \"#utility.yul\":6230:6236   */\n      dup5\n        /* \"#utility.yul\":6225:6228   */\n      dup5\n        /* \"#utility.yul\":6221:6237   */\n      add\n        /* \"#utility.yul\":6218:6243   */\n      gt\n        /* \"#utility.yul\":6215:6327   */\n      iszero\n      tag_431\n      jumpi\n        /* \"#utility.yul\":6246:6325   */\n      tag_432\n      tag_288\n      jump\t// in\n    tag_432:\n        /* \"#utility.yul\":6215:6327   */\n    tag_431:\n        /* \"#utility.yul\":6336:6390   */\n      tag_433\n        /* \"#utility.yul\":6383:6389   */\n      dup5\n        /* \"#utility.yul\":6378:6381   */\n      dup3\n        /* \"#utility.yul\":6373:6376   */\n      dup6\n        /* \"#utility.yul\":6336:6390   */\n      tag_293\n      jump\t// in\n    tag_433:\n        /* \"#utility.yul\":6056:6396   */\n      pop\n        /* \"#utility.yul\":5973:6396   */\n      swap4\n      swap3\n      pop\n      pop\n      pop\n      jump\t// out\n        /* \"#utility.yul\":6415:6753   */\n    tag_304:\n        /* \"#utility.yul\":6470:6475   */\n      0x00\n        /* \"#utility.yul\":6519:6522   */\n      dup3\n        /* \"#utility.yul\":6512:6516   */\n      0x1f\n        /* \"#utility.yul\":6504:6510   */\n      dup4\n        /* \"#utility.yul\":6500:6517   */\n      add\n        /* \"#utility.yul\":6496:6523   */\n      slt\n        /* \"#utility.yul\":6486:6608   */\n      tag_435\n      jumpi\n        /* \"#utility.yul\":6527:6606   */\n      tag_436\n      tag_287\n      jump\t// in\n    tag_436:\n        /* \"#utility.yul\":6486:6608   */\n    tag_435:\n        /* \"#utility.yul\":6644:6650   */\n      dup2\n        /* \"#utility.yul\":6631:6651   */\n      calldataload\n        /* \"#utility.yul\":6669:6747   */\n      tag_437\n        /* \"#utility.yul\":6743:6746   */\n      dup5\n        /* \"#utility.yul\":6735:6741   */\n      dup3\n        /* \"#utility.yul\":6728:6732   */\n      0x20\n        /* \"#utility.yul\":6720:6726   */\n      dup7\n        /* \"#utility.yul\":6716:6733   */\n      add\n        /* \"#utility.yul\":6669:6747   */\n      tag_303\n      jump\t// in\n    tag_437:\n        /* \"#utility.yul\":6660:6747   */\n      swap2\n      pop\n        /* \"#utility.yul\":6476:6753   */\n      pop\n        /* \"#utility.yul\":6415:6753   */\n      swap3\n      swap2\n      pop\n      pop\n      jump\t// out\n        /* \"#utility.yul\":6759:7882   */\n    tag_36:\n        /* \"#utility.yul\":6864:6870   */\n      0x00\n        /* \"#utility.yul\":6872:6878   */\n      dup1\n        /* \"#utility.yul\":6880:6886   */\n      0x00\n        /* \"#utility.yul\":6888:6894   */\n      dup1\n        /* \"#utility.yul\":6937:6940   */\n      0x80\n        /* \"#utility.yul\":6925:6934   */\n      dup6\n        /* \"#utility.yul\":6916:6923   */\n      dup8\n        /* \"#utility.yul\":6912:6935   */\n      sub\n        /* \"#utility.yul\":6908:6941   */\n      slt\n        /* \"#utility.yul\":6905:7025   */\n      iszero\n      tag_439\n      jumpi\n        /* \"#utility.yul\":6944:7023   */\n      tag_440\n      tag_281\n      jump\t// in\n    tag_440:\n        /* \"#utility.yul\":6905:7025   */\n    tag_439:\n        /* \"#utility.yul\":7064:7065   */\n      0x00\n        /* \"#utility.yul\":7089:7142   */\n      tag_441\n        /* \"#utility.yul\":7134:7141   */\n      dup8\n        /* \"#utility.yul\":7125:7131   */\n      dup3\n        /* \"#utility.yul\":7114:7123   */\n      dup9\n        /* \"#utility.yul\":7110:7132   */\n      add\n        /* \"#utility.yul\":7089:7142   */\n      tag_286\n      jump\t// in\n    tag_441:\n        /* \"#utility.yul\":7079:7142   */\n      swap5\n      pop\n        /* \"#utility.yul\":7035:7152   */\n      pop\n        /* \"#utility.yul\":7191:7193   */\n      0x20\n        /* \"#utility.yul\":7217:7270   */\n      tag_442\n        /* \"#utility.yul\":7262:7269   */\n      dup8\n        /* \"#utility.yul\":7253:7259   */\n      dup3\n        /* \"#utility.yul\":7242:7251   */\n      dup9\n        /* \"#utility.yul\":7238:7260   */\n      add\n        /* \"#utility.yul\":7217:7270   */\n      tag_299\n      jump\t// in\n    tag_442:\n        /* \"#utility.yul\":7207:7270   */\n      swap4\n      pop\n        /* \"#utility.yul\":7162:7280   */\n      pop\n        /* \"#utility.yul\":7347:7349   */\n      0x40\n        /* \"#utility.yul\":7336:7345   */\n      dup6\n        /* \"#utility.yul\":7332:7350   */\n      add\n        /* \"#utility.yul\":7319:7351   */\n      calldataload\n        /* \"#utility.yul\":7378:7396   */\n      0xffffffffffffffff\n        /* \"#utility.yul\":7370:7376   */\n      dup2\n        /* \"#utility.yul\":7367:7397   */\n      gt\n        /* \"#utility.yul\":7364:7481   */\n      iszero\n      tag_443\n      jumpi\n        /* \"#utility.yul\":7400:7479   */\n      tag_444\n      tag_282\n      jump\t// in\n    tag_444:\n        /* \"#utility.yul\":7364:7481   */\n    tag_443:\n        /* \"#utility.yul\":7505:7568   */\n      tag_445\n        /* \"#utility.yul\":7560:7567   */\n      dup8\n        /* \"#utility.yul\":7551:7557   */\n      dup3\n        /* \"#utility.yul\":7540:7549   */\n      dup9\n        /* \"#utility.yul\":7536:7558   */\n      add\n        /* \"#utility.yul\":7505:7568   */\n      tag_295\n      jump\t// in\n    tag_445:\n        /* \"#utility.yul\":7495:7568   */\n      swap3\n      pop\n        /* \"#utility.yul\":7290:7578   */\n      pop\n        /* \"#utility.yul\":7645:7647   */\n      0x60\n        /* \"#utility.yul\":7634:7643   */\n      dup6\n        /* \"#utility.yul\":7630:7648   */\n      add\n        /* \"#utility.yul\":7617:7649   */\n      calldataload\n        /* \"#utility.yul\":7676:7694   */\n      0xffffffffffffffff\n        /* \"#utility.yul\":7668:7674   */\n      dup2\n        /* \"#utility.yul\":7665:7695   */\n      gt\n        /* \"#utility.yul\":7662:7779   */\n      iszero\n      tag_446\n      jumpi\n        /* \"#utility.yul\":7698:7777   */\n      tag_447\n      tag_282\n      jump\t// in\n    tag_447:\n        /* \"#utility.yul\":7662:7779   */\n    tag_446:\n        /* \"#utility.yul\":7803:7865   */\n      tag_448\n        /* \"#utility.yul\":7857:7864   */\n      dup8\n        /* \"#utility.yul\":7848:7854   */\n      dup3\n        /* \"#utility.yul\":7837:7846   */\n      dup9\n        /* \"#utility.yul\":7833:7855   */\n      add\n        /* \"#utility.yul\":7803:7865   */\n      tag_304\n      jump\t// in\n    tag_448:\n        /* \"#utility.yul\":7793:7865   */\n      swap2\n      pop\n        /* \"#utility.yul\":7588:7875   */\n      pop\n        /* \"#utility.yul\":6759:7882   */\n      swap3\n      swap6\n      swap2\n      swap5\n      pop\n      swap3\n      pop\n      jump\t// out\n        /* \"#utility.yul\":7888:8542   */\n    tag_41:\n        /* \"#utility.yul\":7966:7972   */\n      0x00\n        /* \"#utility.yul\":7974:7980   */\n      dup1\n        /* \"#utility.yul\":8023:8025   */\n      0x40\n        /* \"#utility.yul\":8011:8020   */\n      dup4\n        /* \"#utility.yul\":8002:8009   */\n      dup6\n        /* \"#utility.yul\":7998:8021   */\n      sub\n        /* \"#utility.yul\":7994:8026   */\n      slt\n        /* \"#utility.yul\":7991:8110   */\n      iszero\n      tag_450\n      jumpi\n        /* \"#utility.yul\":8029:8108   */\n      tag_451\n      tag_281\n      jump\t// in\n    tag_451:\n        /* \"#utility.yul\":7991:8110   */\n    tag_450:\n        /* \"#utility.yul\":8149:8150   */\n      0x00\n        /* \"#utility.yul\":8174:8227   */\n      tag_452\n        /* \"#utility.yul\":8219:8226   */\n      dup6\n        /* \"#utility.yul\":8210:8216   */\n      dup3\n        /* \"#utility.yul\":8199:8208   */\n      dup7\n        /* \"#utility.yul\":8195:8217   */\n      add\n        /* \"#utility.yul\":8174:8227   */\n      tag_299\n      jump\t// in\n    tag_452:\n        /* \"#utility.yul\":8164:8227   */\n      swap3\n      pop\n        /* \"#utility.yul\":8120:8237   */\n      pop\n        /* \"#utility.yul\":8304:8306   */\n      0x20\n        /* \"#utility.yul\":8293:8302   */\n      dup4\n        /* \"#utility.yul\":8289:8307   */\n      add\n        /* \"#utility.yul\":8276:8308   */\n      calldataload\n        /* \"#utility.yul\":8335:8353   */\n      0xffffffffffffffff\n        /* \"#utility.yul\":8327:8333   */\n      dup2\n        /* \"#utility.yul\":8324:8354   */\n      gt\n        /* \"#utility.yul\":8321:8438   */\n      iszero\n      tag_453\n      jumpi\n        /* \"#utility.yul\":8357:8436   */\n      tag_454\n      tag_282\n      jump\t// in\n    tag_454:\n        /* \"#utility.yul\":8321:8438   */\n    tag_453:\n        /* \"#utility.yul\":8462:8525   */\n      tag_455\n        /* \"#utility.yul\":8517:8524   */\n      dup6\n        /* \"#utility.yul\":8508:8514   */\n      dup3\n        /* \"#utility.yul\":8497:8506   */\n      dup7\n        /* \"#utility.yul\":8493:8515   */\n      add\n        /* \"#utility.yul\":8462:8525   */\n      tag_295\n      jump\t// in\n    tag_455:\n        /* \"#utility.yul\":8452:8525   */\n      swap2\n      pop\n        /* \"#utility.yul\":8247:8535   */\n      pop\n        /* \"#utility.yul\":7888:8542   */\n      swap3\n      pop\n      swap3\n      swap1\n      pop\n      jump\t// out\n        /* \"#utility.yul\":8548:9525   */\n    tag_46:\n        /* \"#utility.yul\":8644:8650   */\n      0x00\n        /* \"#utility.yul\":8652:8658   */\n      dup1\n        /* \"#utility.yul\":8660:8666   */\n      0x00\n        /* \"#utility.yul\":8709:8711   */\n      0x60\n        /* \"#utility.yul\":8697:8706   */\n      dup5\n        /* \"#utility.yul\":8688:8695   */\n      dup7\n        /* \"#utility.yul\":8684:8707   */\n      sub\n        /* \"#utility.yul\":8680:8712   */\n      slt\n        /* \"#utility.yul\":8677:8796   */\n      iszero\n      tag_457\n      jumpi\n        /* \"#utility.yul\":8715:8794   */\n      tag_458\n      tag_281\n      jump\t// in\n    tag_458:\n        /* \"#utility.yul\":8677:8796   */\n    tag_457:\n        /* \"#utility.yul\":8835:8836   */\n      0x00\n        /* \"#utility.yul\":8860:8913   */\n      tag_459\n        /* \"#utility.yul\":8905:8912   */\n      dup7\n        /* \"#utility.yul\":8896:8902   */\n      dup3\n        /* \"#utility.yul\":8885:8894   */\n      dup8\n        /* \"#utility.yul\":8881:8903   */\n      add\n        /* \"#utility.yul\":8860:8913   */\n      tag_286\n      jump\t// in\n    tag_459:\n        /* \"#utility.yul\":8850:8913   */\n      swap4\n      pop\n        /* \"#utility.yul\":8806:8923   */\n      pop\n        /* \"#utility.yul\":8990:8992   */\n      0x20\n        /* \"#utility.yul\":8979:8988   */\n      dup5\n        /* \"#utility.yul\":8975:8993   */\n      add\n        /* \"#utility.yul\":8962:8994   */\n      calldataload\n        /* \"#utility.yul\":9021:9039   */\n      0xffffffffffffffff\n        /* \"#utility.yul\":9013:9019   */\n      dup2\n        /* \"#utility.yul\":9010:9040   */\n      gt\n        /* \"#utility.yul\":9007:9124   */\n      iszero\n      tag_460\n      jumpi\n        /* \"#utility.yul\":9043:9122   */\n      tag_461\n      tag_282\n      jump\t// in\n    tag_461:\n        /* \"#utility.yul\":9007:9124   */\n    tag_460:\n        /* \"#utility.yul\":9148:9211   */\n      tag_462\n        /* \"#utility.yul\":9203:9210   */\n      dup7\n        /* \"#utility.yul\":9194:9200   */\n      dup3\n        /* \"#utility.yul\":9183:9192   */\n      dup8\n        /* \"#utility.yul\":9179:9201   */\n      add\n        /* \"#utility.yul\":9148:9211   */\n      tag_295\n      jump\t// in\n    tag_462:\n        /* \"#utility.yul\":9138:9211   */\n      swap3\n      pop\n        /* \"#utility.yul\":8933:9221   */\n      pop\n        /* \"#utility.yul\":9288:9290   */\n      0x40\n        /* \"#utility.yul\":9277:9286   */\n      dup5\n        /* \"#utility.yul\":9273:9291   */\n      add\n        /* \"#utility.yul\":9260:9292   */\n      calldataload\n        /* \"#utility.yul\":9319:9337   */\n      0xffffffffffffffff\n        /* \"#utility.yul\":9311:9317   */\n      dup2\n        /* \"#utility.yul\":9308:9338   */\n      gt\n        /* \"#utility.yul\":9305:9422   */\n      iszero\n      tag_463\n      jumpi\n        /* \"#utility.yul\":9341:9420   */\n      tag_464\n      tag_282\n      jump\t// in\n    tag_464:\n        /* \"#utility.yul\":9305:9422   */\n    tag_463:\n        /* \"#utility.yul\":9446:9508   */\n      tag_465\n        /* \"#utility.yul\":9500:9507   */\n      dup7\n        /* \"#utility.yul\":9491:9497   */\n      dup3\n        /* \"#utility.yul\":9480:9489   */\n      dup8\n        /* \"#utility.yul\":9476:9498   */\n      add\n        /* \"#utility.yul\":9446:9508   */\n      tag_304\n      jump\t// in\n    tag_465:\n        /* \"#utility.yul\":9436:9508   */\n      swap2\n      pop\n        /* \"#utility.yul\":9231:9518   */\n      pop\n        /* \"#utility.yul\":8548:9525   */\n      swap3\n      pop\n      swap3\n      pop\n      swap3\n      jump\t// out\n        /* \"#utility.yul\":9531:9629   */\n    tag_305:\n        /* \"#utility.yul\":9582:9588   */\n      0x00\n        /* \"#utility.yul\":9616:9621   */\n      dup2\n        /* \"#utility.yul\":9610:9622   */\n      mload\n        /* \"#utility.yul\":9600:9622   */\n      swap1\n      pop\n        /* \"#utility.yul\":9531:9629   */\n      swap2\n      swap1\n      pop\n      jump\t// out\n        /* \"#utility.yul\":9635:9803   */\n    tag_306:\n        /* \"#utility.yul\":9718:9729   */\n      0x00\n        /* \"#utility.yul\":9752:9758   */\n      dup3\n        /* \"#utility.yul\":9747:9750   */\n      dup3\n        /* \"#utility.yul\":9740:9759   */\n      mstore\n        /* \"#utility.yul\":9792:9796   */\n      0x20\n        /* \"#utility.yul\":9787:9790   */\n      dup3\n        /* \"#utility.yul\":9783:9797   */\n      add\n        /* \"#utility.yul\":9768:9797   */\n      swap1\n      pop\n        /* \"#utility.yul\":9635:9803   */\n      swap3\n      swap2\n      pop\n      pop\n      jump\t// out\n        /* \"#utility.yul\":9809:10055   */\n    tag_307:\n        /* \"#utility.yul\":9890:9891   */\n      0x00\n        /* \"#utility.yul\":9900:10013   */\n    tag_469:\n        /* \"#utility.yul\":9914:9920   */\n      dup4\n        /* \"#utility.yul\":9911:9912   */\n      dup2\n        /* \"#utility.yul\":9908:9921   */\n      lt\n        /* \"#utility.yul\":9900:10013   */\n      iszero\n      tag_471\n      jumpi\n        /* \"#utility.yul\":9999:10000   */\n      dup1\n        /* \"#utility.yul\":9994:9997   */\n      dup3\n        /* \"#utility.yul\":9990:10001   */\n      add\n        /* \"#utility.yul\":9984:10002   */\n      mload\n        /* \"#utility.yul\":9980:9981   */\n      dup2\n        /* \"#utility.yul\":9975:9978   */\n      dup5\n        /* \"#utility.yul\":9971:9982   */\n      add\n        /* \"#utility.yul\":9964:10003   */\n      mstore\n        /* \"#utility.yul\":9936:9938   */\n      0x20\n        /* \"#utility.yul\":9933:9934   */\n      dup2\n        /* \"#utility.yul\":9929:9939   */\n      add\n        /* \"#utility.yul\":9924:9939   */\n      swap1\n      pop\n        /* \"#utility.yul\":9900:10013   */\n      jump(tag_469)\n    tag_471:\n        /* \"#utility.yul\":10047:10048   */\n      0x00\n        /* \"#utility.yul\":10038:10044   */\n      dup5\n        /* \"#utility.yul\":10033:10036   */\n      dup5\n        /* \"#utility.yul\":10029:10045   */\n      add\n        /* \"#utility.yul\":10022:10049   */\n      mstore\n        /* \"#utility.yul\":9871:10055   */\n      pop\n        /* \"#utility.yul\":9809:10055   */\n      pop\n      pop\n      pop\n      jump\t// out\n        /* \"#utility.yul\":10061:10434   */\n    tag_308:\n        /* \"#utility.yul\":10147:10150   */\n      0x00\n        /* \"#utility.yul\":10175:10213   */\n      tag_473\n        /* \"#utility.yul\":10207:10212   */\n      dup3\n        /* \"#utility.yul\":10175:10213   */\n      tag_305\n      jump\t// in\n    tag_473:\n        /* \"#utility.yul\":10229:10299   */\n      tag_474\n        /* \"#utility.yul\":10292:10298   */\n      dup2\n        /* \"#utility.yul\":10287:10290   */\n      dup6\n        /* \"#utility.yul\":10229:10299   */\n      tag_306\n      jump\t// in\n    tag_474:\n        /* \"#utility.yul\":10222:10299   */\n      swap4\n      pop\n        /* \"#utility.yul\":10308:10373   */\n      tag_475\n        /* \"#utility.yul\":10366:10372   */\n      dup2\n        /* \"#utility.yul\":10361:10364   */\n      dup6\n        /* \"#utility.yul\":10354:10358   */\n      0x20\n        /* \"#utility.yul\":10347:10352   */\n      dup7\n        /* \"#utility.yul\":10343:10359   */\n      add\n        /* \"#utility.yul\":10308:10373   */\n      tag_307\n      jump\t// in\n    tag_475:\n        /* \"#utility.yul\":10398:10427   */\n      tag_476\n        /* \"#utility.yul\":10420:10426   */\n      dup2\n        /* \"#utility.yul\":10398:10427   */\n      tag_289\n      jump\t// in\n    tag_476:\n        /* \"#utility.yul\":10393:10396   */\n      dup5\n        /* \"#utility.yul\":10389:10428   */\n      add\n        /* \"#utility.yul\":10382:10428   */\n      swap2\n      pop\n        /* \"#utility.yul\":10151:10434   */\n      pop\n        /* \"#utility.yul\":10061:10434   */\n      swap3\n      swap2\n      pop\n      pop\n      jump\t// out\n        /* \"#utility.yul\":10440:10749   */\n    tag_57:\n        /* \"#utility.yul\":10551:10555   */\n      0x00\n        /* \"#utility.yul\":10589:10591   */\n      0x20\n        /* \"#utility.yul\":10578:10587   */\n      dup3\n        /* \"#utility.yul\":10574:10592   */\n      add\n        /* \"#utility.yul\":10566:10592   */\n      swap1\n      pop\n        /* \"#utility.yul\":10638:10647   */\n      dup2\n        /* \"#utility.yul\":10632:10636   */\n      dup2\n        /* \"#utility.yul\":10628:10648   */\n      sub\n        /* \"#utility.yul\":10624:10625   */\n      0x00\n        /* \"#utility.yul\":10613:10622   */\n      dup4\n        /* \"#utility.yul\":10609:10626   */\n      add\n        /* \"#utility.yul\":10602:10649   */\n      mstore\n        /* \"#utility.yul\":10666:10742   */\n      tag_478\n        /* \"#utility.yul\":10737:10741   */\n      dup2\n        /* \"#utility.yul\":10728:10734   */\n      dup5\n        /* \"#utility.yul\":10666:10742   */\n      tag_308\n      jump\t// in\n    tag_478:\n        /* \"#utility.yul\":10658:10742   */\n      swap1\n      pop\n        /* \"#utility.yul\":10440:10749   */\n      swap3\n      swap2\n      pop\n      pop\n      jump\t// out\n        /* \"#utility.yul\":10755:10869   */\n    tag_309:\n        /* \"#utility.yul\":10822:10828   */\n      0x00\n        /* \"#utility.yul\":10856:10861   */\n      dup2\n        /* \"#utility.yul\":10850:10862   */\n      mload\n        /* \"#utility.yul\":10840:10862   */\n      swap1\n      pop\n        /* \"#utility.yul\":10755:10869   */\n      swap2\n      swap1\n      pop\n      jump\t// out\n        /* \"#utility.yul\":10875:11059   */\n    tag_310:\n        /* \"#utility.yul\":10974:10985   */\n      0x00\n        /* \"#utility.yul\":11008:11014   */\n      dup3\n        /* \"#utility.yul\":11003:11006   */\n      dup3\n        /* \"#utility.yul\":10996:11015   */\n      mstore\n        /* \"#utility.yul\":11048:11052   */\n      0x20\n        /* \"#utility.yul\":11043:11046   */\n      dup3\n        /* \"#utility.yul\":11039:11053   */\n      add\n        /* \"#utility.yul\":11024:11053   */\n      swap1\n      pop\n        /* \"#utility.yul\":10875:11059   */\n      swap3\n      swap2\n      pop\n      pop\n      jump\t// out\n        /* \"#utility.yul\":11065:11197   */\n    tag_311:\n        /* \"#utility.yul\":11132:11136   */\n      0x00\n        /* \"#utility.yul\":11155:11158   */\n      dup2\n        /* \"#utility.yul\":11147:11158   */\n      swap1\n      pop\n        /* \"#utility.yul\":11185:11189   */\n      0x20\n        /* \"#utility.yul\":11180:11183   */\n      dup3\n        /* \"#utility.yul\":11176:11190   */\n      add\n        /* \"#utility.yul\":11168:11190   */\n      swap1\n      pop\n        /* \"#utility.yul\":11065:11197   */\n      swap2\n      swap1\n      pop\n      jump\t// out\n        /* \"#utility.yul\":11203:11311   */\n    tag_312:\n        /* \"#utility.yul\":11280:11304   */\n      tag_483\n        /* \"#utility.yul\":11298:11303   */\n      dup2\n        /* \"#utility.yul\":11280:11304   */\n      tag_296\n      jump\t// in\n    tag_483:\n        /* \"#utility.yul\":11275:11278   */\n      dup3\n        /* \"#utility.yul\":11268:11305   */\n      mstore\n        /* \"#utility.yul\":11203:11311   */\n      pop\n      pop\n      jump\t// out\n        /* \"#utility.yul\":11317:11496   */\n    tag_313:\n        /* \"#utility.yul\":11386:11396   */\n      0x00\n        /* \"#utility.yul\":11407:11453   */\n      tag_485\n        /* \"#utility.yul\":11449:11452   */\n      dup4\n        /* \"#utility.yul\":11441:11447   */\n      dup4\n        /* \"#utility.yul\":11407:11453   */\n      tag_312\n      jump\t// in\n    tag_485:\n        /* \"#utility.yul\":11485:11489   */\n      0x20\n        /* \"#utility.yul\":11480:11483   */\n      dup4\n        /* \"#utility.yul\":11476:11490   */\n      add\n        /* \"#utility.yul\":11462:11490   */\n      swap1\n      pop\n        /* \"#utility.yul\":11317:11496   */\n      swap3\n      swap2\n      pop\n      pop\n      jump\t// out\n        /* \"#utility.yul\":11502:11615   */\n    tag_314:\n        /* \"#utility.yul\":11572:11576   */\n      0x00\n        /* \"#utility.yul\":11604:11608   */\n      0x20\n        /* \"#utility.yul\":11599:11602   */\n      dup3\n        /* \"#utility.yul\":11595:11609   */\n      add\n        /* \"#utility.yul\":11587:11609   */\n      swap1\n      pop\n        /* \"#utility.yul\":11502:11615   */\n      swap2\n      swap1\n      pop\n      jump\t// out\n        /* \"#utility.yul\":11651:12383   */\n    tag_315:\n        /* \"#utility.yul\":11770:11773   */\n      0x00\n        /* \"#utility.yul\":11799:11853   */\n      tag_488\n        /* \"#utility.yul\":11847:11852   */\n      dup3\n        /* \"#utility.yul\":11799:11853   */\n      tag_309\n      jump\t// in\n    tag_488:\n        /* \"#utility.yul\":11869:11955   */\n      tag_489\n        /* \"#utility.yul\":11948:11954   */\n      dup2\n        /* \"#utility.yul\":11943:11946   */\n      dup6\n        /* \"#utility.yul\":11869:11955   */\n      tag_310\n      jump\t// in\n    tag_489:\n        /* \"#utility.yul\":11862:11955   */\n      swap4\n      pop\n        /* \"#utility.yul\":11979:12035   */\n      tag_490\n        /* \"#utility.yul\":12029:12034   */\n      dup4\n        /* \"#utility.yul\":11979:12035   */\n      tag_311\n      jump\t// in\n    tag_490:\n        /* \"#utility.yul\":12058:12065   */\n      dup1\n        /* \"#utility.yul\":12089:12090   */\n      0x00\n        /* \"#utility.yul\":12074:12358   */\n    tag_491:\n        /* \"#utility.yul\":12099:12105   */\n      dup4\n        /* \"#utility.yul\":12096:12097   */\n      dup2\n        /* \"#utility.yul\":12093:12106   */\n      lt\n        /* \"#utility.yul\":12074:12358   */\n      iszero\n      tag_493\n      jumpi\n        /* \"#utility.yul\":12175:12181   */\n      dup2\n        /* \"#utility.yul\":12169:12182   */\n      mload\n        /* \"#utility.yul\":12202:12265   */\n      tag_494\n        /* \"#utility.yul\":12261:12264   */\n      dup9\n        /* \"#utility.yul\":12246:12259   */\n      dup3\n        /* \"#utility.yul\":12202:12265   */\n      tag_313\n      jump\t// in\n    tag_494:\n        /* \"#utility.yul\":12195:12265   */\n      swap8\n      pop\n        /* \"#utility.yul\":12288:12348   */\n      tag_495\n        /* \"#utility.yul\":12341:12347   */\n      dup4\n        /* \"#utility.yul\":12288:12348   */\n      tag_314\n      jump\t// in\n    tag_495:\n        /* \"#utility.yul\":12278:12348   */\n      swap3\n      pop\n        /* \"#utility.yul\":12134:12358   */\n      pop\n        /* \"#utility.yul\":12121:12122   */\n      0x01\n        /* \"#utility.yul\":12118:12119   */\n      dup2\n        /* \"#utility.yul\":12114:12123   */\n      add\n        /* \"#utility.yul\":12109:12123   */\n      swap1\n      pop\n        /* \"#utility.yul\":12074:12358   */\n      jump(tag_491)\n    tag_493:\n        /* \"#utility.yul\":12078:12092   */\n      pop\n        /* \"#utility.yul\":12374:12377   */\n      dup6\n        /* \"#utility.yul\":12367:12377   */\n      swap4\n      pop\n        /* \"#utility.yul\":11775:12383   */\n      pop\n      pop\n      pop\n        /* \"#utility.yul\":11651:12383   */\n      swap3\n      swap2\n      pop\n      pop\n      jump\t// out\n        /* \"#utility.yul\":12389:12762   */\n    tag_66:\n        /* \"#utility.yul\":12532:12536   */\n      0x00\n        /* \"#utility.yul\":12570:12572   */\n      0x20\n        /* \"#utility.yul\":12559:12568   */\n      dup3\n        /* \"#utility.yul\":12555:12573   */\n      add\n        /* \"#utility.yul\":12547:12573   */\n      swap1\n      pop\n        /* \"#utility.yul\":12619:12628   */\n      dup2\n        /* \"#utility.yul\":12613:12617   */\n      dup2\n        /* \"#utility.yul\":12609:12629   */\n      sub\n        /* \"#utility.yul\":12605:12606   */\n      0x00\n        /* \"#utility.yul\":12594:12603   */\n      dup4\n        /* \"#utility.yul\":12590:12607   */\n      add\n        /* \"#utility.yul\":12583:12630   */\n      mstore\n        /* \"#utility.yul\":12647:12755   */\n      tag_497\n        /* \"#utility.yul\":12750:12754   */\n      dup2\n        /* \"#utility.yul\":12741:12747   */\n      dup5\n        /* \"#utility.yul\":12647:12755   */\n      tag_315\n      jump\t// in\n    tag_497:\n        /* \"#utility.yul\":12639:12755   */\n      swap1\n      pop\n        /* \"#utility.yul\":12389:12762   */\n      swap3\n      swap2\n      pop\n      pop\n      jump\t// out\n        /* \"#utility.yul\":12768:13089   */\n    tag_316:\n        /* \"#utility.yul\":12855:12859   */\n      0x00\n        /* \"#utility.yul\":12945:12963   */\n      0xffffffffffffffff\n        /* \"#utility.yul\":12937:12943   */\n      dup3\n        /* \"#utility.yul\":12934:12964   */\n      gt\n        /* \"#utility.yul\":12931:12987   */\n      iszero\n      tag_499\n      jumpi\n        /* \"#utility.yul\":12967:12985   */\n      tag_500\n      tag_145\n      jump\t// in\n    tag_500:\n        /* \"#utility.yul\":12931:12987   */\n    tag_499:\n        /* \"#utility.yul\":13017:13021   */\n      0x20\n        /* \"#utility.yul\":13009:13015   */\n      dup3\n        /* \"#utility.yul\":13005:13022   */\n      mul\n        /* \"#utility.yul\":12997:13022   */\n      swap1\n      pop\n        /* \"#utility.yul\":13077:13081   */\n      0x20\n        /* \"#utility.yul\":13071:13075   */\n      dup2\n        /* \"#utility.yul\":13067:13082   */\n      add\n        /* \"#utility.yul\":13059:13082   */\n      swap1\n      pop\n        /* \"#utility.yul\":12768:13089   */\n      swap2\n      swap1\n      pop\n      jump\t// out\n        /* \"#utility.yul\":13095:13212   */\n    tag_317:\n        /* \"#utility.yul\":13204:13205   */\n      0x00\n        /* \"#utility.yul\":13201:13202   */\n      dup1\n        /* \"#utility.yul\":13194:13206   */\n      revert\n        /* \"#utility.yul\":13234:14179   */\n    tag_318:\n        /* \"#utility.yul\":13340:13345   */\n      0x00\n        /* \"#utility.yul\":13365:13456   */\n      tag_503\n        /* \"#utility.yul\":13381:13455   */\n      tag_504\n        /* \"#utility.yul\":13448:13454   */\n      dup5\n        /* \"#utility.yul\":13381:13455   */\n      tag_316\n      jump\t// in\n    tag_504:\n        /* \"#utility.yul\":13365:13456   */\n      tag_291\n      jump\t// in\n    tag_503:\n        /* \"#utility.yul\":13356:13456   */\n      swap1\n      pop\n        /* \"#utility.yul\":13476:13481   */\n      dup1\n        /* \"#utility.yul\":13505:13511   */\n      dup4\n        /* \"#utility.yul\":13498:13503   */\n      dup3\n        /* \"#utility.yul\":13491:13512   */\n      mstore\n        /* \"#utility.yul\":13539:13543   */\n      0x20\n        /* \"#utility.yul\":13532:13537   */\n      dup3\n        /* \"#utility.yul\":13528:13544   */\n      add\n        /* \"#utility.yul\":13521:13544   */\n      swap1\n      pop\n        /* \"#utility.yul\":13592:13596   */\n      0x20\n        /* \"#utility.yul\":13584:13590   */\n      dup5\n        /* \"#utility.yul\":13580:13597   */\n      mul\n        /* \"#utility.yul\":13572:13578   */\n      dup4\n        /* \"#utility.yul\":13568:13598   */\n      add\n        /* \"#utility.yul\":13621:13624   */\n      dup6\n        /* \"#utility.yul\":13613:13619   */\n      dup2\n        /* \"#utility.yul\":13610:13625   */\n      gt\n        /* \"#utility.yul\":13607:13729   */\n      iszero\n      tag_505\n      jumpi\n        /* \"#utility.yul\":13640:13719   */\n      tag_506\n      tag_317\n      jump\t// in\n    tag_506:\n        /* \"#utility.yul\":13607:13729   */\n    tag_505:\n        /* \"#utility.yul\":13755:13761   */\n      dup4\n        /* \"#utility.yul\":13738:14173   */\n    tag_507:\n        /* \"#utility.yul\":13772:13778   */\n      dup2\n        /* \"#utility.yul\":13767:13770   */\n      dup2\n        /* \"#utility.yul\":13764:13779   */\n      lt\n        /* \"#utility.yul\":13738:14173   */\n      iszero\n      tag_509\n      jumpi\n        /* \"#utility.yul\":13861:13864   */\n      dup1\n        /* \"#utility.yul\":13848:13865   */\n      calldataload\n        /* \"#utility.yul\":13897:13915   */\n      0xffffffffffffffff\n        /* \"#utility.yul\":13884:13895   */\n      dup2\n        /* \"#utility.yul\":13881:13916   */\n      gt\n        /* \"#utility.yul\":13878:14000   */\n      iszero\n      tag_510\n      jumpi\n        /* \"#utility.yul\":13919:13998   */\n      tag_511\n      tag_287\n      jump\t// in\n    tag_511:\n        /* \"#utility.yul\":13878:14000   */\n    tag_510:\n        /* \"#utility.yul\":14043:14054   */\n      dup1\n        /* \"#utility.yul\":14035:14041   */\n      dup7\n        /* \"#utility.yul\":14031:14055   */\n      add\n        /* \"#utility.yul\":14081:14128   */\n      tag_512\n        /* \"#utility.yul\":14124:14127   */\n      dup10\n        /* \"#utility.yul\":14112:14122   */\n      dup3\n        /* \"#utility.yul\":14081:14128   */\n      tag_295\n      jump\t// in\n    tag_512:\n        /* \"#utility.yul\":14076:14079   */\n      dup6\n        /* \"#utility.yul\":14069:14129   */\n      mstore\n        /* \"#utility.yul\":14158:14162   */\n      0x20\n        /* \"#utility.yul\":14153:14156   */\n      dup6\n        /* \"#utility.yul\":14149:14163   */\n      add\n        /* \"#utility.yul\":14142:14163   */\n      swap5\n      pop\n        /* \"#utility.yul\":13814:14173   */\n      pop\n      pop\n        /* \"#utility.yul\":13798:13802   */\n      0x20\n        /* \"#utility.yul\":13793:13796   */\n      dup2\n        /* \"#utility.yul\":13789:13803   */\n      add\n        /* \"#utility.yul\":13782:13803   */\n      swap1\n      pop\n        /* \"#utility.yul\":13738:14173   */\n      jump(tag_507)\n    tag_509:\n        /* \"#utility.yul\":13742:13763   */\n      pop\n        /* \"#utility.yul\":13346:14179   */\n      pop\n      pop\n        /* \"#utility.yul\":13234:14179   */\n      swap4\n      swap3\n      pop\n      pop\n      pop\n      jump\t// out\n        /* \"#utility.yul\":14201:14591   */\n    tag_319:\n        /* \"#utility.yul\":14282:14287   */\n      0x00\n        /* \"#utility.yul\":14331:14334   */\n      dup3\n        /* \"#utility.yul\":14324:14328   */\n      0x1f\n        /* \"#utility.yul\":14316:14322   */\n      dup4\n        /* \"#utility.yul\":14312:14329   */\n      add\n        /* \"#utility.yul\":14308:14335   */\n      slt\n        /* \"#utility.yul\":14298:14420   */\n      tag_514\n      jumpi\n        /* \"#utility.yul\":14339:14418   */\n      tag_515\n      tag_287\n      jump\t// in\n    tag_515:\n        /* \"#utility.yul\":14298:14420   */\n    tag_514:\n        /* \"#utility.yul\":14456:14462   */\n      dup2\n        /* \"#utility.yul\":14443:14463   */\n      calldataload\n        /* \"#utility.yul\":14481:14585   */\n      tag_516\n        /* \"#utility.yul\":14581:14584   */\n      dup5\n        /* \"#utility.yul\":14573:14579   */\n      dup3\n        /* \"#utility.yul\":14566:14570   */\n      0x20\n        /* \"#utility.yul\":14558:14564   */\n      dup7\n        /* \"#utility.yul\":14554:14571   */\n      add\n        /* \"#utility.yul\":14481:14585   */\n      tag_318\n      jump\t// in\n    tag_516:\n        /* \"#utility.yul\":14472:14585   */\n      swap2\n      pop\n        /* \"#utility.yul\":14288:14591   */\n      pop\n        /* \"#utility.yul\":14201:14591   */\n      swap3\n      swap2\n      pop\n      pop\n      jump\t// out\n        /* \"#utility.yul\":14597:14908   */\n    tag_320:\n        /* \"#utility.yul\":14674:14678   */\n      0x00\n        /* \"#utility.yul\":14764:14782   */\n      0xffffffffffffffff\n        /* \"#utility.yul\":14756:14762   */\n      dup3\n        /* \"#utility.yul\":14753:14783   */\n      gt\n        /* \"#utility.yul\":14750:14806   */\n      iszero\n      tag_518\n      jumpi\n        /* \"#utility.yul\":14786:14804   */\n      tag_519\n      tag_145\n      jump\t// in\n    tag_519:\n        /* \"#utility.yul\":14750:14806   */\n    tag_518:\n        /* \"#utility.yul\":14836:14840   */\n      0x20\n        /* \"#utility.yul\":14828:14834   */\n      dup3\n        /* \"#utility.yul\":14824:14841   */\n      mul\n        /* \"#utility.yul\":14816:14841   */\n      swap1\n      pop\n        /* \"#utility.yul\":14896:14900   */\n      0x20\n        /* \"#utility.yul\":14890:14894   */\n      dup2\n        /* \"#utility.yul\":14886:14901   */\n      add\n        /* \"#utility.yul\":14878:14901   */\n      swap1\n      pop\n        /* \"#utility.yul\":14597:14908   */\n      swap2\n      swap1\n      pop\n      jump\t// out\n        /* \"#utility.yul\":14931:15641   */\n    tag_321:\n        /* \"#utility.yul\":15027:15032   */\n      0x00\n        /* \"#utility.yul\":15052:15133   */\n      tag_521\n        /* \"#utility.yul\":15068:15132   */\n      tag_522\n        /* \"#utility.yul\":15125:15131   */\n      dup5\n        /* \"#utility.yul\":15068:15132   */\n      tag_320\n      jump\t// in\n    tag_522:\n        /* \"#utility.yul\":15052:15133   */\n      tag_291\n      jump\t// in\n    tag_521:\n        /* \"#utility.yul\":15043:15133   */\n      swap1\n      pop\n        /* \"#utility.yul\":15153:15158   */\n      dup1\n        /* \"#utility.yul\":15182:15188   */\n      dup4\n        /* \"#utility.yul\":15175:15180   */\n      dup3\n        /* \"#utility.yul\":15168:15189   */\n      mstore\n        /* \"#utility.yul\":15216:15220   */\n      0x20\n        /* \"#utility.yul\":15209:15214   */\n      dup3\n        /* \"#utility.yul\":15205:15221   */\n      add\n        /* \"#utility.yul\":15198:15221   */\n      swap1\n      pop\n        /* \"#utility.yul\":15269:15273   */\n      0x20\n        /* \"#utility.yul\":15261:15267   */\n      dup5\n        /* \"#utility.yul\":15257:15274   */\n      mul\n        /* \"#utility.yul\":15249:15255   */\n      dup4\n        /* \"#utility.yul\":15245:15275   */\n      add\n        /* \"#utility.yul\":15298:15301   */\n      dup6\n        /* \"#utility.yul\":15290:15296   */\n      dup2\n        /* \"#utility.yul\":15287:15302   */\n      gt\n        /* \"#utility.yul\":15284:15406   */\n      iszero\n      tag_523\n      jumpi\n        /* \"#utility.yul\":15317:15396   */\n      tag_524\n      tag_317\n      jump\t// in\n    tag_524:\n        /* \"#utility.yul\":15284:15406   */\n    tag_523:\n        /* \"#utility.yul\":15432:15438   */\n      dup4\n        /* \"#utility.yul\":15415:15635   */\n    tag_525:\n        /* \"#utility.yul\":15449:15455   */\n      dup2\n        /* \"#utility.yul\":15444:15447   */\n      dup2\n        /* \"#utility.yul\":15441:15456   */\n      lt\n        /* \"#utility.yul\":15415:15635   */\n      iszero\n      tag_527\n      jumpi\n        /* \"#utility.yul\":15524:15527   */\n      dup1\n        /* \"#utility.yul\":15553:15590   */\n      tag_528\n        /* \"#utility.yul\":15586:15589   */\n      dup9\n        /* \"#utility.yul\":15574:15584   */\n      dup3\n        /* \"#utility.yul\":15553:15590   */\n      tag_299\n      jump\t// in\n    tag_528:\n        /* \"#utility.yul\":15548:15551   */\n      dup5\n        /* \"#utility.yul\":15541:15591   */\n      mstore\n        /* \"#utility.yul\":15620:15624   */\n      0x20\n        /* \"#utility.yul\":15615:15618   */\n      dup5\n        /* \"#utility.yul\":15611:15625   */\n      add\n        /* \"#utility.yul\":15604:15625   */\n      swap4\n      pop\n        /* \"#utility.yul\":15491:15635   */\n      pop\n        /* \"#utility.yul\":15475:15479   */\n      0x20\n        /* \"#utility.yul\":15470:15473   */\n      dup2\n        /* \"#utility.yul\":15466:15480   */\n      add\n        /* \"#utility.yul\":15459:15480   */\n      swap1\n      pop\n        /* \"#utility.yul\":15415:15635   */\n      jump(tag_525)\n    tag_527:\n        /* \"#utility.yul\":15419:15440   */\n      pop\n        /* \"#utility.yul\":15033:15641   */\n      pop\n      pop\n        /* \"#utility.yul\":14931:15641   */\n      swap4\n      swap3\n      pop\n      pop\n      pop\n      jump\t// out\n        /* \"#utility.yul\":15664:16034   */\n    tag_322:\n        /* \"#utility.yul\":15735:15740   */\n      0x00\n        /* \"#utility.yul\":15784:15787   */\n      dup3\n        /* \"#utility.yul\":15777:15781   */\n      0x1f\n        /* \"#utility.yul\":15769:15775   */\n      dup4\n        /* \"#utility.yul\":15765:15782   */\n      add\n        /* \"#utility.yul\":15761:15788   */\n      slt\n        /* \"#utility.yul\":15751:15873   */\n      tag_530\n      jumpi\n        /* \"#utility.yul\":15792:15871   */\n      tag_531\n      tag_287\n      jump\t// in\n    tag_531:\n        /* \"#utility.yul\":15751:15873   */\n    tag_530:\n        /* \"#utility.yul\":15909:15915   */\n      dup2\n        /* \"#utility.yul\":15896:15916   */\n      calldataload\n        /* \"#utility.yul\":15934:16028   */\n      tag_532\n        /* \"#utility.yul\":16024:16027   */\n      dup5\n        /* \"#utility.yul\":16016:16022   */\n      dup3\n        /* \"#utility.yul\":16009:16013   */\n      0x20\n        /* \"#utility.yul\":16001:16007   */\n      dup7\n        /* \"#utility.yul\":15997:16014   */\n      add\n        /* \"#utility.yul\":15934:16028   */\n      tag_321\n      jump\t// in\n    tag_532:\n        /* \"#utility.yul\":15925:16028   */\n      swap2\n      pop\n        /* \"#utility.yul\":15741:16034   */\n      pop\n        /* \"#utility.yul\":15664:16034   */\n      swap3\n      swap2\n      pop\n      pop\n      jump\t// out\n        /* \"#utility.yul\":16040:17455   */\n    tag_69:\n        /* \"#utility.yul\":16211:16217   */\n      0x00\n        /* \"#utility.yul\":16219:16225   */\n      dup1\n        /* \"#utility.yul\":16227:16233   */\n      0x00\n        /* \"#utility.yul\":16235:16241   */\n      dup1\n        /* \"#utility.yul\":16284:16287   */\n      0x80\n        /* \"#utility.yul\":16272:16281   */\n      dup6\n        /* \"#utility.yul\":16263:16270   */\n      dup8\n        /* \"#utility.yul\":16259:16282   */\n      sub\n        /* \"#utility.yul\":16255:16288   */\n      slt\n        /* \"#utility.yul\":16252:16372   */\n      iszero\n      tag_534\n      jumpi\n        /* \"#utility.yul\":16291:16370   */\n      tag_535\n      tag_281\n      jump\t// in\n    tag_535:\n        /* \"#utility.yul\":16252:16372   */\n    tag_534:\n        /* \"#utility.yul\":16411:16412   */\n      0x00\n        /* \"#utility.yul\":16436:16489   */\n      tag_536\n        /* \"#utility.yul\":16481:16488   */\n      dup8\n        /* \"#utility.yul\":16472:16478   */\n      dup3\n        /* \"#utility.yul\":16461:16470   */\n      dup9\n        /* \"#utility.yul\":16457:16479   */\n      add\n        /* \"#utility.yul\":16436:16489   */\n      tag_286\n      jump\t// in\n    tag_536:\n        /* \"#utility.yul\":16426:16489   */\n      swap5\n      pop\n        /* \"#utility.yul\":16382:16499   */\n      pop\n        /* \"#utility.yul\":16566:16568   */\n      0x20\n        /* \"#utility.yul\":16555:16564   */\n      dup6\n        /* \"#utility.yul\":16551:16569   */\n      add\n        /* \"#utility.yul\":16538:16570   */\n      calldataload\n        /* \"#utility.yul\":16597:16615   */\n      0xffffffffffffffff\n        /* \"#utility.yul\":16589:16595   */\n      dup2\n        /* \"#utility.yul\":16586:16616   */\n      gt\n        /* \"#utility.yul\":16583:16700   */\n      iszero\n      tag_537\n      jumpi\n        /* \"#utility.yul\":16619:16698   */\n      tag_538\n      tag_282\n      jump\t// in\n    tag_538:\n        /* \"#utility.yul\":16583:16700   */\n    tag_537:\n        /* \"#utility.yul\":16724:16812   */\n      tag_539\n        /* \"#utility.yul\":16804:16811   */\n      dup8\n        /* \"#utility.yul\":16795:16801   */\n      dup3\n        /* \"#utility.yul\":16784:16793   */\n      dup9\n        /* \"#utility.yul\":16780:16802   */\n      add\n        /* \"#utility.yul\":16724:16812   */\n      tag_319\n      jump\t// in\n    tag_539:\n        /* \"#utility.yul\":16714:16812   */\n      swap4\n      pop\n        /* \"#utility.yul\":16509:16822   */\n      pop\n        /* \"#utility.yul\":16889:16891   */\n      0x40\n        /* \"#utility.yul\":16878:16887   */\n      dup6\n        /* \"#utility.yul\":16874:16892   */\n      add\n        /* \"#utility.yul\":16861:16893   */\n      calldataload\n        /* \"#utility.yul\":16920:16938   */\n      0xffffffffffffffff\n        /* \"#utility.yul\":16912:16918   */\n      dup2\n        /* \"#utility.yul\":16909:16939   */\n      gt\n        /* \"#utility.yul\":16906:17023   */\n      iszero\n      tag_540\n      jumpi\n        /* \"#utility.yul\":16942:17021   */\n      tag_541\n      tag_282\n      jump\t// in\n    tag_541:\n        /* \"#utility.yul\":16906:17023   */\n    tag_540:\n        /* \"#utility.yul\":17047:17125   */\n      tag_542\n        /* \"#utility.yul\":17117:17124   */\n      dup8\n        /* \"#utility.yul\":17108:17114   */\n      dup3\n        /* \"#utility.yul\":17097:17106   */\n      dup9\n        /* \"#utility.yul\":17093:17115   */\n      add\n        /* \"#utility.yul\":17047:17125   */\n      tag_322\n      jump\t// in\n    tag_542:\n        /* \"#utility.yul\":17037:17125   */\n      swap3\n      pop\n        /* \"#utility.yul\":16832:17135   */\n      pop\n        /* \"#utility.yul\":17202:17204   */\n      0x60\n        /* \"#utility.yul\":17191:17200   */\n      dup6\n        /* \"#utility.yul\":17187:17205   */\n      add\n        /* \"#utility.yul\":17174:17206   */\n      calldataload\n        /* \"#utility.yul\":17233:17251   */\n      0xffffffffffffffff\n        /* \"#utility.yul\":17225:17231   */\n      dup2\n        /* \"#utility.yul\":17222:17252   */\n      gt\n        /* \"#utility.yul\":17219:17336   */\n      iszero\n      tag_543\n      jumpi\n        /* \"#utility.yul\":17255:17334   */\n      tag_544\n      tag_282\n      jump\t// in\n    tag_544:\n        /* \"#utility.yul\":17219:17336   */\n    tag_543:\n        /* \"#utility.yul\":17360:17438   */\n      tag_545\n        /* \"#utility.yul\":17430:17437   */\n      dup8\n        /* \"#utility.yul\":17421:17427   */\n      dup3\n        /* \"#utility.yul\":17410:17419   */\n      dup9\n        /* \"#utility.yul\":17406:17428   */\n      add\n        /* \"#utility.yul\":17360:17438   */\n      tag_322\n      jump\t// in\n    tag_545:\n        /* \"#utility.yul\":17350:17438   */\n      swap2\n      pop\n        /* \"#utility.yul\":17145:17448   */\n      pop\n        /* \"#utility.yul\":16040:17455   */\n      swap3\n      swap6\n      swap2\n      swap5\n      pop\n      swap3\n      pop\n      jump\t// out\n        /* \"#utility.yul\":17461:18438   */\n    tag_74:\n        /* \"#utility.yul\":17557:17563   */\n      0x00\n        /* \"#utility.yul\":17565:17571   */\n      dup1\n        /* \"#utility.yul\":17573:17579   */\n      0x00\n        /* \"#utility.yul\":17622:17624   */\n      0x60\n        /* \"#utility.yul\":17610:17619   */\n      dup5\n        /* \"#utility.yul\":17601:17608   */\n      dup7\n        /* \"#utility.yul\":17597:17620   */\n      sub\n        /* \"#utility.yul\":17593:17625   */\n      slt\n        /* \"#utility.yul\":17590:17709   */\n      iszero\n      tag_547\n      jumpi\n        /* \"#utility.yul\":17628:17707   */\n      tag_548\n      tag_281\n      jump\t// in\n    tag_548:\n        /* \"#utility.yul\":17590:17709   */\n    tag_547:\n        /* \"#utility.yul\":17748:17749   */\n      0x00\n        /* \"#utility.yul\":17773:17826   */\n      tag_549\n        /* \"#utility.yul\":17818:17825   */\n      dup7\n        /* \"#utility.yul\":17809:17815   */\n      dup3\n        /* \"#utility.yul\":17798:17807   */\n      dup8\n        /* \"#utility.yul\":17794:17816   */\n      add\n        /* \"#utility.yul\":17773:17826   */\n      tag_299\n      jump\t// in\n    tag_549:\n        /* \"#utility.yul\":17763:17826   */\n      swap4\n      pop\n        /* \"#utility.yul\":17719:17836   */\n      pop\n        /* \"#utility.yul\":17903:17905   */\n      0x20\n        /* \"#utility.yul\":17892:17901   */\n      dup5\n        /* \"#utility.yul\":17888:17906   */\n      add\n        /* \"#utility.yul\":17875:17907   */\n      calldataload\n        /* \"#utility.yul\":17934:17952   */\n      0xffffffffffffffff\n        /* \"#utility.yul\":17926:17932   */\n      dup2\n        /* \"#utility.yul\":17923:17953   */\n      gt\n        /* \"#utility.yul\":17920:18037   */\n      iszero\n      tag_550\n      jumpi\n        /* \"#utility.yul\":17956:18035   */\n      tag_551\n      tag_282\n      jump\t// in\n    tag_551:\n        /* \"#utility.yul\":17920:18037   */\n    tag_550:\n        /* \"#utility.yul\":18061:18124   */\n      tag_552\n        /* \"#utility.yul\":18116:18123   */\n      dup7\n        /* \"#utility.yul\":18107:18113   */\n      dup3\n        /* \"#utility.yul\":18096:18105   */\n      dup8\n        /* \"#utility.yul\":18092:18114   */\n      add\n        /* \"#utility.yul\":18061:18124   */\n      tag_295\n      jump\t// in\n    tag_552:\n        /* \"#utility.yul\":18051:18124   */\n      swap3\n      pop\n        /* \"#utility.yul\":17846:18134   */\n      pop\n        /* \"#utility.yul\":18201:18203   */\n      0x40\n        /* \"#utility.yul\":18190:18199   */\n      dup5\n        /* \"#utility.yul\":18186:18204   */\n      add\n        /* \"#utility.yul\":18173:18205   */\n      calldataload\n        /* \"#utility.yul\":18232:18250   */\n      0xffffffffffffffff\n        /* \"#utility.yul\":18224:18230   */\n      dup2\n        /* \"#utility.yul\":18221:18251   */\n      gt\n        /* \"#utility.yul\":18218:18335   */\n      iszero\n      tag_553\n      jumpi\n        /* \"#utility.yul\":18254:18333   */\n      tag_554\n      tag_282\n      jump\t// in\n    tag_554:\n        /* \"#utility.yul\":18218:18335   */\n    tag_553:\n        /* \"#utility.yul\":18359:18421   */\n      tag_555\n        /* \"#utility.yul\":18413:18420   */\n      dup7\n        /* \"#utility.yul\":18404:18410   */\n      dup3\n        /* \"#utility.yul\":18393:18402   */\n      dup8\n        /* \"#utility.yul\":18389:18411   */\n      add\n        /* \"#utility.yul\":18359:18421   */\n      tag_304\n      jump\t// in\n    tag_555:\n        /* \"#utility.yul\":18349:18421   */\n      swap2\n      pop\n        /* \"#utility.yul\":18144:18431   */\n      pop\n        /* \"#utility.yul\":17461:18438   */\n      swap3\n      pop\n      swap3\n      pop\n      swap3\n      jump\t// out\n        /* \"#utility.yul\":18444:18543   */\n    tag_323:\n        /* \"#utility.yul\":18496:18502   */\n      0x00\n        /* \"#utility.yul\":18530:18535   */\n      dup2\n        /* \"#utility.yul\":18524:18536   */\n      mload\n        /* \"#utility.yul\":18514:18536   */\n      swap1\n      pop\n        /* \"#utility.yul\":18444:18543   */\n      swap2\n      swap1\n      pop\n      jump\t// out\n        /* \"#utility.yul\":18549:18697   */\n    tag_324:\n        /* \"#utility.yul\":18651:18662   */\n      0x00\n        /* \"#utility.yul\":18688:18691   */\n      dup2\n        /* \"#utility.yul\":18673:18691   */\n      swap1\n      pop\n        /* \"#utility.yul\":18549:18697   */\n      swap3\n      swap2\n      pop\n      pop\n      jump\t// out\n        /* \"#utility.yul\":18703:19093   */\n    tag_325:\n        /* \"#utility.yul\":18809:18812   */\n      0x00\n        /* \"#utility.yul\":18837:18876   */\n      tag_559\n        /* \"#utility.yul\":18870:18875   */\n      dup3\n        /* \"#utility.yul\":18837:18876   */\n      tag_323\n      jump\t// in\n    tag_559:\n        /* \"#utility.yul\":18892:18981   */\n      tag_560\n        /* \"#utility.yul\":18974:18980   */\n      dup2\n        /* \"#utility.yul\":18969:18972   */\n      dup6\n        /* \"#utility.yul\":18892:18981   */\n      tag_324\n      jump\t// in\n    tag_560:\n        /* \"#utility.yul\":18885:18981   */\n      swap4\n      pop\n        /* \"#utility.yul\":18990:19055   */\n      tag_561\n        /* \"#utility.yul\":19048:19054   */\n      dup2\n        /* \"#utility.yul\":19043:19046   */\n      dup6\n        /* \"#utility.yul\":19036:19040   */\n      0x20\n        /* \"#utility.yul\":19029:19034   */\n      dup7\n        /* \"#utility.yul\":19025:19041   */\n      add\n        /* \"#utility.yul\":18990:19055   */\n      tag_307\n      jump\t// in\n    tag_561:\n        /* \"#utility.yul\":19080:19086   */\n      dup1\n        /* \"#utility.yul\":19075:19078   */\n      dup5\n        /* \"#utility.yul\":19071:19087   */\n      add\n        /* \"#utility.yul\":19064:19087   */\n      swap2\n      pop\n        /* \"#utility.yul\":18813:19093   */\n      pop\n        /* \"#utility.yul\":18703:19093   */\n      swap3\n      swap2\n      pop\n      pop\n      jump\t// out\n        /* \"#utility.yul\":19099:19374   */\n    tag_99:\n        /* \"#utility.yul\":19231:19234   */\n      0x00\n        /* \"#utility.yul\":19253:19348   */\n      tag_563\n        /* \"#utility.yul\":19344:19347   */\n      dup3\n        /* \"#utility.yul\":19335:19341   */\n      dup5\n        /* \"#utility.yul\":19253:19348   */\n      tag_325\n      jump\t// in\n    tag_563:\n        /* \"#utility.yul\":19246:19348   */\n      swap2\n      pop\n        /* \"#utility.yul\":19365:19368   */\n      dup2\n        /* \"#utility.yul\":19358:19368   */\n      swap1\n      pop\n        /* \"#utility.yul\":19099:19374   */\n      swap3\n      swap2\n      pop\n      pop\n      jump\t// out\n        /* \"#utility.yul\":19380:19527   */\n    tag_326:\n        /* \"#utility.yul\":19481:19492   */\n      0x00\n        /* \"#utility.yul\":19518:19521   */\n      dup2\n        /* \"#utility.yul\":19503:19521   */\n      swap1\n      pop\n        /* \"#utility.yul\":19380:19527   */\n      swap3\n      swap2\n      pop\n      pop\n      jump\t// out\n        /* \"#utility.yul\":19533:19919   */\n    tag_327:\n        /* \"#utility.yul\":19637:19640   */\n      0x00\n        /* \"#utility.yul\":19665:19703   */\n      tag_566\n        /* \"#utility.yul\":19697:19702   */\n      dup3\n        /* \"#utility.yul\":19665:19703   */\n      tag_305\n      jump\t// in\n    tag_566:\n        /* \"#utility.yul\":19719:19807   */\n      tag_567\n        /* \"#utility.yul\":19800:19806   */\n      dup2\n        /* \"#utility.yul\":19795:19798   */\n      dup6\n        /* \"#utility.yul\":19719:19807   */\n      tag_326\n      jump\t// in\n    tag_567:\n        /* \"#utility.yul\":19712:19807   */\n      swap4\n      pop\n        /* \"#utility.yul\":19816:19881   */\n      tag_568\n        /* \"#utility.yul\":19874:19880   */\n      dup2\n        /* \"#utility.yul\":19869:19872   */\n      dup6\n        /* \"#utility.yul\":19862:19866   */\n      0x20\n        /* \"#utility.yul\":19855:19860   */\n      dup7\n        /* \"#utility.yul\":19851:19867   */\n      add\n        /* \"#utility.yul\":19816:19881   */\n      tag_307\n      jump\t// in\n    tag_568:\n        /* \"#utility.yul\":19906:19912   */\n      dup1\n        /* \"#utility.yul\":19901:19904   */\n      dup5\n        /* \"#utility.yul\":19897:19913   */\n      add\n        /* \"#utility.yul\":19890:19913   */\n      swap2\n      pop\n        /* \"#utility.yul\":19641:19919   */\n      pop\n        /* \"#utility.yul\":19533:19919   */\n      swap3\n      swap2\n      pop\n      pop\n      jump\t// out\n        /* \"#utility.yul\":19925:20196   */\n    tag_111:\n        /* \"#utility.yul\":20055:20058   */\n      0x00\n        /* \"#utility.yul\":20077:20170   */\n      tag_570\n        /* \"#utility.yul\":20166:20169   */\n      dup3\n        /* \"#utility.yul\":20157:20163   */\n      dup5\n        /* \"#utility.yul\":20077:20170   */\n      tag_327\n      jump\t// in\n    tag_570:\n        /* \"#utility.yul\":20070:20170   */\n      swap2\n      pop\n        /* \"#utility.yul\":20187:20190   */\n      dup2\n        /* \"#utility.yul\":20180:20190   */\n      swap1\n      pop\n        /* \"#utility.yul\":19925:20196   */\n      swap3\n      swap2\n      pop\n      pop\n      jump\t// out\n        /* \"#utility.yul\":20202:20382   */\n    tag_328:\n        /* \"#utility.yul\":20250:20327   */\n      0x4e487b7100000000000000000000000000000000000000000000000000000000\n        /* \"#utility.yul\":20247:20248   */\n      0x00\n        /* \"#utility.yul\":20240:20328   */\n      mstore\n        /* \"#utility.yul\":20347:20351   */\n      0x11\n        /* \"#utility.yul\":20344:20345   */\n      0x04\n        /* \"#utility.yul\":20337:20352   */\n      mstore\n        /* \"#utility.yul\":20371:20375   */\n      0x24\n        /* \"#utility.yul\":20368:20369   */\n      0x00\n        /* \"#utility.yul\":20361:20376   */\n      revert\n        /* \"#utility.yul\":20388:20621   */\n    tag_121:\n        /* \"#utility.yul\":20427:20430   */\n      0x00\n        /* \"#utility.yul\":20450:20474   */\n      tag_573\n        /* \"#utility.yul\":20468:20473   */\n      dup3\n        /* \"#utility.yul\":20450:20474   */\n      tag_296\n      jump\t// in\n    tag_573:\n        /* \"#utility.yul\":20441:20474   */\n      swap2\n      pop\n        /* \"#utility.yul\":20496:20562   */\n      0xffffffffffffffffffffffffffffffffffffffffffffffffffffffffffffffff\n        /* \"#utility.yul\":20489:20494   */\n      dup3\n        /* \"#utility.yul\":20486:20563   */\n      sub\n        /* \"#utility.yul\":20483:20586   */\n      tag_574\n      jumpi\n        /* \"#utility.yul\":20566:20584   */\n      tag_575\n      tag_328\n      jump\t// in\n    tag_575:\n        /* \"#utility.yul\":20483:20586   */\n    tag_574:\n        /* \"#utility.yul\":20613:20614   */\n      0x01\n        /* \"#utility.yul\":20606:20611   */\n      dup3\n        /* \"#utility.yul\":20602:20615   */\n      add\n        /* \"#utility.yul\":20595:20615   */\n      swap1\n      pop\n        /* \"#utility.yul\":20388:20621   */\n      swap2\n      swap1\n      pop\n      jump\t// out\n        /* \"#utility.yul\":20627:20807   */\n    tag_329:\n        /* \"#utility.yul\":20675:20752   */\n      0x4e487b7100000000000000000000000000000000000000000000000000000000\n        /* \"#utility.yul\":20672:20673   */\n      0x00\n        /* \"#utility.yul\":20665:20753   */\n      mstore\n        /* \"#utility.yul\":20772:20776   */\n      0x22\n        /* \"#utility.yul\":20769:20770   */\n      0x04\n        /* \"#utility.yul\":20762:20777   */\n      mstore\n        /* \"#utility.yul\":20796:20800   */\n      0x24\n        /* \"#utility.yul\":20793:20794   */\n      0x00\n        /* \"#utility.yul\":20786:20801   */\n      revert\n        /* \"#utility.yul\":20813:21133   */\n    tag_126:\n        /* \"#utility.yul\":20857:20863   */\n      0x00\n        /* \"#utility.yul\":20894:20895   */\n      0x02\n        /* \"#utility.yul\":20888:20892   */\n      dup3\n        /* \"#utility.yul\":20884:20896   */\n      div\n        /* \"#utility.yul\":20874:20896   */\n      swap1\n      pop\n        /* \"#utility.yul\":20941:20942   */\n      0x01\n        /* \"#utility.yul\":20935:20939   */\n      dup3\n        /* \"#utility.yul\":20931:20943   */\n      and\n        /* \"#utility.yul\":20962:20980   */\n      dup1\n        /* \"#utility.yul\":20952:21033   */\n      tag_578\n      jumpi\n        /* \"#utility.yul\":21018:21022   */\n      0x7f\n        /* \"#utility.yul\":21010:21016   */\n      dup3\n        /* \"#utility.yul\":21006:21023   */\n      and\n        /* \"#utility.yul\":20996:21023   */\n      swap2\n      pop\n        /* \"#utility.yul\":20952:21033   */\n    tag_578:\n        /* \"#utility.yul\":21080:21082   */\n      0x20\n        /* \"#utility.yul\":21072:21078   */\n      dup3\n        /* \"#utility.yul\":21069:21083   */\n      lt\n        /* \"#utility.yul\":21049:21067   */\n      dup2\n        /* \"#utility.yul\":21046:21084   */\n      sub\n        /* \"#utility.yul\":21043:21127   */\n      tag_579\n      jumpi\n        /* \"#utility.yul\":21099:21117   */\n      tag_580\n      tag_329\n      jump\t// in\n    tag_580:\n        /* \"#utility.yul\":21043:21127   */\n    tag_579:\n        /* \"#utility.yul\":20864:21133   */\n      pop\n        /* \"#utility.yul\":20813:21133   */\n      swap2\n      swap1\n      pop\n      jump\t// out\n        /* \"#utility.yul\":21139:21308   */\n    tag_330:\n        /* \"#utility.yul\":21223:21234   */\n      0x00\n        /* \"#utility.yul\":21257:21263   */\n      dup3\n        /* \"#utility.yul\":21252:21255   */\n      dup3\n        /* \"#utility.yul\":21245:21264   */\n      mstore\n        /* \"#utility.yul\":21297:21301   */\n      0x20\n        /* \"#utility.yul\":21292:21295   */\n      dup3\n        /* \"#utility.yul\":21288:21302   */\n      add\n        /* \"#utility.yul\":21273:21302   */\n      swap1\n      pop\n        /* \"#utility.yul\":21139:21308   */\n      swap3\n      swap2\n      pop\n      pop\n      jump\t// out\n        /* \"#utility.yul\":21314:21494   */\n    tag_331:\n        /* \"#utility.yul\":21454:21486   */\n      0x556e697175656e65737320766572696669636174696f6e206661696c65640000\n        /* \"#utility.yul\":21450:21451   */\n      0x00\n        /* \"#utility.yul\":21442:21448   */\n      dup3\n        /* \"#utility.yul\":21438:21452   */\n      add\n        /* \"#utility.yul\":21431:21487   */\n      mstore\n        /* \"#utility.yul\":21314:21494   */\n      pop\n      jump\t// out\n        /* \"#utility.yul\":21500:21866   */\n    tag_332:\n        /* \"#utility.yul\":21642:21645   */\n      0x00\n        /* \"#utility.yul\":21663:21730   */\n      tag_584\n        /* \"#utility.yul\":21727:21729   */\n      0x1e\n        /* \"#utility.yul\":21722:21725   */\n      dup4\n        /* \"#utility.yul\":21663:21730   */\n      tag_330\n      jump\t// in\n    tag_584:\n        /* \"#utility.yul\":21656:21730   */\n      swap2\n      pop\n        /* \"#utility.yul\":21739:21832   */\n      tag_585\n        /* \"#utility.yul\":21828:21831   */\n      dup3\n        /* \"#utility.yul\":21739:21832   */\n      tag_331\n      jump\t// in\n    tag_585:\n        /* \"#utility.yul\":21857:21859   */\n      0x20\n        /* \"#utility.yul\":21852:21855   */\n      dup3\n        /* \"#utility.yul\":21848:21860   */\n      add\n        /* \"#utility.yul\":21841:21860   */\n      swap1\n      pop\n        /* \"#utility.yul\":21500:21866   */\n      swap2\n      swap1\n      pop\n      jump\t// out\n        /* \"#utility.yul\":21872:22291   */\n    tag_136:\n        /* \"#utility.yul\":22038:22042   */\n      0x00\n        /* \"#utility.yul\":22076:22078   */\n      0x20\n        /* \"#utility.yul\":22065:22074   */\n      dup3\n        /* \"#utility.yul\":22061:22079   */\n      add\n        /* \"#utility.yul\":22053:22079   */\n      swap1\n      pop\n        /* \"#utility.yul\":22125:22134   */\n      dup2\n        /* \"#utility.yul\":22119:22123   */\n      dup2\n        /* \"#utility.yul\":22115:22135   */\n      sub\n        /* \"#utility.yul\":22111:22112   */\n      0x00\n        /* \"#utility.yul\":22100:22109   */\n      dup4\n        /* \"#utility.yul\":22096:22113   */\n      add\n        /* \"#utility.yul\":22089:22136   */\n      mstore\n        /* \"#utility.yul\":22153:22284   */\n      tag_587\n        /* \"#utility.yul\":22279:22283   */\n      dup2\n        /* \"#utility.yul\":22153:22284   */\n      tag_332\n      jump\t// in\n    tag_587:\n        /* \"#utility.yul\":22145:22284   */\n      swap1\n      pop\n        /* \"#utility.yul\":21872:22291   */\n      swap2\n      swap1\n      pop\n      jump\t// out\n        /* \"#utility.yul\":22297:22477   */\n    tag_160:\n        /* \"#utility.yul\":22345:22422   */\n      0x4e487b7100000000000000000000000000000000000000000000000000000000\n        /* \"#utility.yul\":22342:22343   */\n      0x00\n        /* \"#utility.yul\":22335:22423   */\n      mstore\n        /* \"#utility.yul\":22442:22446   */\n      0x32\n        /* \"#utility.yul\":22439:22440   */\n      0x04\n        /* \"#utility.yul\":22432:22447   */\n      mstore\n        /* \"#utility.yul\":22466:22470   */\n      0x24\n        /* \"#utility.yul\":22463:22464   */\n      0x00\n        /* \"#utility.yul\":22456:22471   */\n      revert\n        /* \"#utility.yul\":22483:22651   */\n    tag_333:\n        /* \"#utility.yul\":22623:22643   */\n      0x496e76616c696420706172616d65746572730000000000000000000000000000\n        /* \"#utility.yul\":22619:22620   */\n      0x00\n        /* \"#utility.yul\":22611:22617   */\n      dup3\n        /* \"#utility.yul\":22607:22621   */\n      add\n        /* \"#utility.yul\":22600:22644   */\n      mstore\n        /* \"#utility.yul\":22483:22651   */\n      pop\n      jump\t// out\n        /* \"#utility.yul\":22657:23023   */\n    tag_334:\n        /* \"#utility.yul\":22799:22802   */\n      0x00\n        /* \"#utility.yul\":22820:22887   */\n      tag_591\n        /* \"#utility.yul\":22884:22886   */\n      0x12\n        /* \"#utility.yul\":22879:22882   */\n      dup4\n        /* \"#utility.yul\":22820:22887   */\n      tag_330\n      jump\t// in\n    tag_591:\n        /* \"#utility.yul\":22813:22887   */\n      swap2\n      pop\n        /* \"#utility.yul\":22896:22989   */\n      tag_592\n        /* \"#utility.yul\":22985:22988   */\n      dup3\n        /* \"#utility.yul\":22896:22989   */\n      tag_333\n      jump\t// in\n    tag_592:\n        /* \"#utility.yul\":23014:23016   */\n      0x20\n        /* \"#utility.yul\":23009:23012   */\n      dup3\n        /* \"#utility.yul\":23005:23017   */\n      add\n        /* \"#utility.yul\":22998:23017   */\n      swap1\n      pop\n        /* \"#utility.yul\":22657:23023   */\n      swap2\n      swap1\n      pop\n      jump\t// out\n        /* \"#utility.yul\":23029:23448   */\n    tag_166:\n        /* \"#utility.yul\":23195:23199   */\n      0x00\n        /* \"#utility.yul\":23233:23235   */\n      0x20\n        /* \"#utility.yul\":23222:23231   */\n      dup3\n        /* \"#utility.yul\":23218:23236   */\n      add\n        /* \"#utility.yul\":23210:23236   */\n      swap1\n      pop\n        /* \"#utility.yul\":23282:23291   */\n      dup2\n        /* \"#utility.yul\":23276:23280   */\n      dup2\n        /* \"#utility.yul\":23272:23292   */\n      sub\n        /* \"#utility.yul\":23268:23269   */\n      0x00\n        /* \"#utility.yul\":23257:23266   */\n      dup4\n        /* \"#utility.yul\":23253:23270   */\n      add\n        /* \"#utility.yul\":23246:23293   */\n      mstore\n        /* \"#utility.yul\":23310:23441   */\n      tag_594\n        /* \"#utility.yul\":23436:23440   */\n      dup2\n        /* \"#utility.yul\":23310:23441   */\n      tag_334\n      jump\t// in\n    tag_594:\n        /* \"#utility.yul\":23302:23441   */\n      swap1\n      pop\n        /* \"#utility.yul\":23029:23448   */\n      swap2\n      swap1\n      pop\n      jump\t// out\n        /* \"#utility.yul\":23454:23618   */\n    tag_335:\n        /* \"#utility.yul\":23594:23610   */\n      0x73657446696c6564206572726f72000000000000000000000000000000000000\n        /* \"#utility.yul\":23590:23591   */\n      0x00\n        /* \"#utility.yul\":23582:23588   */\n      dup3\n        /* \"#utility.yul\":23578:23592   */\n      add\n        /* \"#utility.yul\":23571:23611   */\n      mstore\n        /* \"#utility.yul\":23454:23618   */\n      pop\n      jump\t// out\n        /* \"#utility.yul\":23624:23990   */\n    tag_336:\n        /* \"#utility.yul\":23766:23769   */\n      0x00\n        /* \"#utility.yul\":23787:23854   */\n      tag_597\n        /* \"#utility.yul\":23851:23853   */\n      0x0e\n        /* \"#utility.yul\":23846:23849   */\n      dup4\n        /* \"#utility.yul\":23787:23854   */\n      tag_330\n      jump\t// in\n    tag_597:\n        /* \"#utility.yul\":23780:23854   */\n      swap2\n      pop\n        /* \"#utility.yul\":23863:23956   */\n      tag_598\n        /* \"#utility.yul\":23952:23955   */\n      dup3\n        /* \"#utility.yul\":23863:23956   */\n      tag_335\n      jump\t// in\n    tag_598:\n        /* \"#utility.yul\":23981:23983   */\n      0x20\n        /* \"#utility.yul\":23976:23979   */\n      dup3\n        /* \"#utility.yul\":23972:23984   */\n      add\n        /* \"#utility.yul\":23965:23984   */\n      swap1\n      pop\n        /* \"#utility.yul\":23624:23990   */\n      swap2\n      swap1\n      pop\n      jump\t// out\n        /* \"#utility.yul\":23996:24415   */\n    tag_183:\n        /* \"#utility.yul\":24162:24166   */\n      0x00\n        /* \"#utility.yul\":24200:24202   */\n      0x20\n        /* \"#utility.yul\":24189:24198   */\n      dup3\n        /* \"#utility.yul\":24185:24203   */\n      add\n        /* \"#utility.yul\":24177:24203   */\n      swap1\n      pop\n        /* \"#utility.yul\":24249:24258   */\n      dup2\n        /* \"#utility.yul\":24243:24247   */\n      dup2\n        /* \"#utility.yul\":24239:24259   */\n      sub\n        /* \"#utility.yul\":24235:24236   */\n      0x00\n        /* \"#utility.yul\":24224:24233   */\n      dup4\n        /* \"#utility.yul\":24220:24237   */\n      add\n        /* \"#utility.yul\":24213:24260   */\n      mstore\n        /* \"#utility.yul\":24277:24408   */\n      tag_600\n        /* \"#utility.yul\":24403:24407   */\n      dup2\n        /* \"#utility.yul\":24277:24408   */\n      tag_336\n      jump\t// in\n    tag_600:\n        /* \"#utility.yul\":24269:24408   */\n      swap1\n      pop\n        /* \"#utility.yul\":23996:24415   */\n      swap2\n      swap1\n      pop\n      jump\t// out\n        /* \"#utility.yul\":24421:24561   */\n    tag_337:\n        /* \"#utility.yul\":24469:24473   */\n      0x00\n        /* \"#utility.yul\":24492:24495   */\n      dup2\n        /* \"#utility.yul\":24484:24495   */\n      swap1\n      pop\n        /* \"#utility.yul\":24515:24518   */\n      dup2\n        /* \"#utility.yul\":24512:24513   */\n      0x00\n        /* \"#utility.yul\":24505:24519   */\n      mstore\n        /* \"#utility.yul\":24549:24553   */\n      0x20\n        /* \"#utility.yul\":24546:24547   */\n      0x00\n        /* \"#utility.yul\":24536:24554   */\n      keccak256\n        /* \"#utility.yul\":24528:24554   */\n      swap1\n      pop\n        /* \"#utility.yul\":24421:24561   */\n      swap2\n      swap1\n      pop\n      jump\t// out\n        /* \"#utility.yul\":24589:25459   */\n    tag_338:\n        /* \"#utility.yul\":24690:24693   */\n      0x00\n        /* \"#utility.yul\":24727:24732   */\n      dup2\n        /* \"#utility.yul\":24721:24733   */\n      sload\n        /* \"#utility.yul\":24756:24792   */\n      tag_603\n        /* \"#utility.yul\":24782:24791   */\n      dup2\n        /* \"#utility.yul\":24756:24792   */\n      tag_126\n      jump\t// in\n    tag_603:\n        /* \"#utility.yul\":24808:24896   */\n      tag_604\n        /* \"#utility.yul\":24889:24895   */\n      dup2\n        /* \"#utility.yul\":24884:24887   */\n      dup7\n        /* \"#utility.yul\":24808:24896   */\n      tag_326\n      jump\t// in\n    tag_604:\n        /* \"#utility.yul\":24801:24896   */\n      swap5\n      pop\n        /* \"#utility.yul\":24927:24928   */\n      0x01\n        /* \"#utility.yul\":24916:24925   */\n      dup3\n        /* \"#utility.yul\":24912:24929   */\n      and\n        /* \"#utility.yul\":24943:24944   */\n      0x00\n        /* \"#utility.yul\":24938:25104   */\n      dup2\n      eq\n      tag_606\n      jumpi\n        /* \"#utility.yul\":25118:25119   */\n      0x01\n        /* \"#utility.yul\":25113:25453   */\n      dup2\n      eq\n      tag_607\n      jumpi\n        /* \"#utility.yul\":24905:25453   */\n      jump(tag_605)\n        /* \"#utility.yul\":24938:25104   */\n    tag_606:\n        /* \"#utility.yul\":25022:25026   */\n      0xff\n        /* \"#utility.yul\":25018:25027   */\n      not\n        /* \"#utility.yul\":25007:25016   */\n      dup4\n        /* \"#utility.yul\":25003:25028   */\n      and\n        /* \"#utility.yul\":24998:25001   */\n      dup7\n        /* \"#utility.yul\":24991:25029   */\n      mstore\n        /* \"#utility.yul\":25084:25090   */\n      dup2\n        /* \"#utility.yul\":25077:25091   */\n      iszero\n        /* \"#utility.yul\":25070:25092   */\n      iszero\n        /* \"#utility.yul\":25062:25068   */\n      dup3\n        /* \"#utility.yul\":25058:25093   */\n      mul\n        /* \"#utility.yul\":25053:25056   */\n      dup7\n        /* \"#utility.yul\":25049:25094   */\n      add\n        /* \"#utility.yul\":25042:25094   */\n      swap4\n      pop\n        /* \"#utility.yul\":24938:25104   */\n      jump(tag_605)\n        /* \"#utility.yul\":25113:25453   */\n    tag_607:\n        /* \"#utility.yul\":25180:25217   */\n      tag_608\n        /* \"#utility.yul\":25211:25216   */\n      dup6\n        /* \"#utility.yul\":25180:25217   */\n      tag_337\n      jump\t// in\n    tag_608:\n        /* \"#utility.yul\":25239:25240   */\n      0x00\n        /* \"#utility.yul\":25253:25407   */\n    tag_609:\n        /* \"#utility.yul\":25267:25273   */\n      dup4\n        /* \"#utility.yul\":25264:25265   */\n      dup2\n        /* \"#utility.yul\":25261:25274   */\n      lt\n        /* \"#utility.yul\":25253:25407   */\n      iszero\n      tag_611\n      jumpi\n        /* \"#utility.yul\":25341:25348   */\n      dup2\n        /* \"#utility.yul\":25335:25349   */\n      sload\n        /* \"#utility.yul\":25331:25332   */\n      dup2\n        /* \"#utility.yul\":25326:25329   */\n      dup10\n        /* \"#utility.yul\":25322:25333   */\n      add\n        /* \"#utility.yul\":25315:25350   */\n      mstore\n        /* \"#utility.yul\":25391:25392   */\n      0x01\n        /* \"#utility.yul\":25382:25389   */\n      dup3\n        /* \"#utility.yul\":25378:25393   */\n      add\n        /* \"#utility.yul\":25367:25393   */\n      swap2\n      pop\n        /* \"#utility.yul\":25289:25293   */\n      0x20\n        /* \"#utility.yul\":25286:25287   */\n      dup2\n        /* \"#utility.yul\":25282:25294   */\n      add\n        /* \"#utility.yul\":25277:25294   */\n      swap1\n      pop\n        /* \"#utility.yul\":25253:25407   */\n      jump(tag_609)\n    tag_611:\n        /* \"#utility.yul\":25436:25442   */\n      dup4\n        /* \"#utility.yul\":25431:25434   */\n      dup9\n        /* \"#utility.yul\":25427:25443   */\n      add\n        /* \"#utility.yul\":25420:25443   */\n      swap6\n      pop\n        /* \"#utility.yul\":25120:25453   */\n      pop\n      pop\n        /* \"#utility.yul\":24905:25453   */\n    tag_605:\n      pop\n        /* \"#utility.yul\":24694:25459   */\n      pop\n      pop\n        /* \"#utility.yul\":24589:25459   */\n      swap3\n      swap2\n      pop\n      pop\n      jump\t// out\n        /* \"#utility.yul\":25465:25730   */\n    tag_192:\n        /* \"#utility.yul\":25592:25595   */\n      0x00\n        /* \"#utility.yul\":25614:25704   */\n      tag_613\n        /* \"#utility.yul\":25700:25703   */\n      dup3\n        /* \"#utility.yul\":25691:25697   */\n      dup5\n        /* \"#utility.yul\":25614:25704   */\n      tag_338\n      jump\t// in\n    tag_613:\n        /* \"#utility.yul\":25607:25704   */\n      swap2\n      pop\n        /* \"#utility.yul\":25721:25724   */\n      dup2\n        /* \"#utility.yul\":25714:25724   */\n      swap1\n      pop\n        /* \"#utility.yul\":25465:25730   */\n      swap3\n      swap2\n      pop\n      pop\n      jump\t// out\n        /* \"#utility.yul\":25736:25829   */\n    tag_339:\n        /* \"#utility.yul\":25773:25779   */\n      0x00\n        /* \"#utility.yul\":25820:25822   */\n      0x20\n        /* \"#utility.yul\":25815:25817   */\n      0x1f\n        /* \"#utility.yul\":25808:25813   */\n      dup4\n        /* \"#utility.yul\":25804:25818   */\n      add\n        /* \"#utility.yul\":25800:25823   */\n      div\n        /* \"#utility.yul\":25790:25823   */\n      swap1\n      pop\n        /* \"#utility.yul\":25736:25829   */\n      swap2\n      swap1\n      pop\n      jump\t// out\n        /* \"#utility.yul\":25835:25942   */\n    tag_340:\n        /* \"#utility.yul\":25879:25887   */\n      0x00\n        /* \"#utility.yul\":25929:25934   */\n      dup3\n        /* \"#utility.yul\":25923:25927   */\n      dup3\n        /* \"#utility.yul\":25919:25935   */\n      shl\n        /* \"#utility.yul\":25898:25935   */\n      swap1\n      pop\n        /* \"#utility.yul\":25835:25942   */\n      swap3\n      swap2\n      pop\n      pop\n      jump\t// out\n        /* \"#utility.yul\":25948:26341   */\n    tag_341:\n        /* \"#utility.yul\":26017:26023   */\n      0x00\n        /* \"#utility.yul\":26067:26068   */\n      0x08\n        /* \"#utility.yul\":26055:26065   */\n      dup4\n        /* \"#utility.yul\":26051:26069   */\n      mul\n        /* \"#utility.yul\":26090:26187   */\n      tag_617\n        /* \"#utility.yul\":26120:26186   */\n      0xffffffffffffffffffffffffffffffffffffffffffffffffffffffffffffffff\n        /* \"#utility.yul\":26109:26118   */\n      dup3\n        /* \"#utility.yul\":26090:26187   */\n      tag_340\n      jump\t// in\n    tag_617:\n        /* \"#utility.yul\":26208:26247   */\n      tag_618\n        /* \"#utility.yul\":26238:26246   */\n      dup7\n        /* \"#utility.yul\":26227:26236   */\n      dup4\n        /* \"#utility.yul\":26208:26247   */\n      tag_340\n      jump\t// in\n    tag_618:\n        /* \"#utility.yul\":26196:26247   */\n      swap6\n      pop\n        /* \"#utility.yul\":26280:26284   */\n      dup1\n        /* \"#utility.yul\":26276:26285   */\n      not\n        /* \"#utility.yul\":26269:26274   */\n      dup5\n        /* \"#utility.yul\":26265:26286   */\n      and\n        /* \"#utility.yul\":26256:26286   */\n      swap4\n      pop\n        /* \"#utility.yul\":26329:26333   */\n      dup1\n        /* \"#utility.yul\":26319:26327   */\n      dup7\n        /* \"#utility.yul\":26315:26334   */\n      and\n        /* \"#utility.yul\":26308:26313   */\n      dup5\n        /* \"#utility.yul\":26305:26335   */\n      or\n        /* \"#utility.yul\":26295:26335   */\n      swap3\n      pop\n        /* \"#utility.yul\":26024:26341   */\n      pop\n      pop\n        /* \"#utility.yul\":25948:26341   */\n      swap4\n      swap3\n      pop\n      pop\n      pop\n      jump\t// out\n        /* \"#utility.yul\":26347:26407   */\n    tag_342:\n        /* \"#utility.yul\":26375:26378   */\n      0x00\n        /* \"#utility.yul\":26396:26401   */\n      dup2\n        /* \"#utility.yul\":26389:26401   */\n      swap1\n      pop\n        /* \"#utility.yul\":26347:26407   */\n      swap2\n      swap1\n      pop\n      jump\t// out\n        /* \"#utility.yul\":26413:26555   */\n    tag_343:\n        /* \"#utility.yul\":26463:26472   */\n      0x00\n        /* \"#utility.yul\":26496:26549   */\n      tag_621\n        /* \"#utility.yul\":26514:26548   */\n      tag_622\n        /* \"#utility.yul\":26523:26547   */\n      tag_623\n        /* \"#utility.yul\":26541:26546   */\n      dup5\n        /* \"#utility.yul\":26523:26547   */\n      tag_296\n      jump\t// in\n    tag_623:\n        /* \"#utility.yul\":26514:26548   */\n      tag_342\n      jump\t// in\n    tag_622:\n        /* \"#utility.yul\":26496:26549   */\n      tag_296\n      jump\t// in\n    tag_621:\n        /* \"#utility.yul\":26483:26549   */\n      swap1\n      pop\n        /* \"#utility.yul\":26413:26555   */\n      swap2\n      swap1\n      pop\n      jump\t// out\n        /* \"#utility.yul\":26561:26636   */\n    tag_344:\n        /* \"#utility.yul\":26604:26607   */\n      0x00\n        /* \"#utility.yul\":26625:26630   */\n      dup2\n        /* \"#utility.yul\":26618:26630   */\n      swap1\n      pop\n        /* \"#utility.yul\":26561:26636   */\n      swap2\n      swap1\n      pop\n      jump\t// out\n        /* \"#utility.yul\":26642:26911   */\n    tag_345:\n        /* \"#utility.yul\":26752:26791   */\n      tag_626\n        /* \"#utility.yul\":26783:26790   */\n      dup4\n        /* \"#utility.yul\":26752:26791   */\n      tag_343\n      jump\t// in\n    tag_626:\n        /* \"#utility.yul\":26813:26904   */\n      tag_627\n        /* \"#utility.yul\":26862:26903   */\n      tag_628\n        /* \"#utility.yul\":26886:26902   */\n      dup3\n        /* \"#utility.yul\":26862:26903   */\n      tag_344\n      jump\t// in\n    tag_628:\n        /* \"#utility.yul\":26854:26860   */\n      dup5\n        /* \"#utility.yul\":26847:26851   */\n      dup5\n        /* \"#utility.yul\":26841:26852   */\n      sload\n        /* \"#utility.yul\":26813:26904   */\n      tag_341\n      jump\t// in\n    tag_627:\n        /* \"#utility.yul\":26807:26811   */\n      dup3\n        /* \"#utility.yul\":26800:26905   */\n      sstore\n        /* \"#utility.yul\":26718:26911   */\n      pop\n        /* \"#utility.yul\":26642:26911   */\n      pop\n      pop\n      pop\n      jump\t// out\n        /* \"#utility.yul\":26917:26990   */\n    tag_346:\n        /* \"#utility.yul\":26962:26965   */\n      0x00\n        /* \"#utility.yul\":26917:26990   */\n      swap1\n      jump\t// out\n        /* \"#utility.yul\":26996:27185   */\n    tag_347:\n        /* \"#utility.yul\":27073:27105   */\n      tag_631\n      tag_346\n      jump\t// in\n    tag_631:\n        /* \"#utility.yul\":27114:27179   */\n      tag_632\n        /* \"#utility.yul\":27172:27178   */\n      dup2\n        /* \"#utility.yul\":27164:27170   */\n      dup5\n        /* \"#utility.yul\":27158:27162   */\n      dup5\n        /* \"#utility.yul\":27114:27179   */\n      tag_345\n      jump\t// in\n    tag_632:\n        /* \"#utility.yul\":27049:27185   */\n      pop\n        /* \"#utility.yul\":26996:27185   */\n      pop\n      pop\n      jump\t// out\n        /* \"#utility.yul\":27191:27377   */\n    tag_348:\n        /* \"#utility.yul\":27251:27371   */\n    tag_634:\n        /* \"#utility.yul\":27268:27271   */\n      dup2\n        /* \"#utility.yul\":27261:27266   */\n      dup2\n        /* \"#utility.yul\":27258:27272   */\n      lt\n        /* \"#utility.yul\":27251:27371   */\n      iszero\n      tag_636\n      jumpi\n        /* \"#utility.yul\":27322:27361   */\n      tag_637\n        /* \"#utility.yul\":27359:27360   */\n      0x00\n        /* \"#utility.yul\":27352:27357   */\n      dup3\n        /* \"#utility.yul\":27322:27361   */\n      tag_347\n      jump\t// in\n    tag_637:\n        /* \"#utility.yul\":27295:27296   */\n      0x01\n        /* \"#utility.yul\":27288:27293   */\n      dup2\n        /* \"#utility.yul\":27284:27297   */\n      add\n        /* \"#utility.yul\":27275:27297   */\n      swap1\n      pop\n        /* \"#utility.yul\":27251:27371   */\n      jump(tag_634)\n    tag_636:\n        /* \"#utility.yul\":27191:27377   */\n      pop\n      pop\n      jump\t// out\n        /* \"#utility.yul\":27383:27924   */\n    tag_349:\n        /* \"#utility.yul\":27483:27485   */\n      0x1f\n        /* \"#utility.yul\":27478:27481   */\n      dup3\n        /* \"#utility.yul\":27475:27486   */\n      gt\n        /* \"#utility.yul\":27472:27917   */\n      iszero\n      tag_639\n      jumpi\n        /* \"#utility.yul\":27517:27554   */\n      tag_640\n        /* \"#utility.yul\":27548:27553   */\n      dup2\n        /* \"#utility.yul\":27517:27554   */\n      tag_337\n      jump\t// in\n    tag_640:\n        /* \"#utility.yul\":27600:27629   */\n      tag_641\n        /* \"#utility.yul\":27618:27628   */\n      dup5\n        /* \"#utility.yul\":27600:27629   */\n      tag_339\n      jump\t// in\n    tag_641:\n        /* \"#utility.yul\":27590:27598   */\n      dup2\n        /* \"#utility.yul\":27586:27630   */\n      add\n        /* \"#utility.yul\":27783:27785   */\n      0x20\n        /* \"#utility.yul\":27771:27781   */\n      dup6\n        /* \"#utility.yul\":27768:27786   */\n      lt\n        /* \"#utility.yul\":27765:27814   */\n      iszero\n      tag_642\n      jumpi\n        /* \"#utility.yul\":27804:27812   */\n      dup2\n        /* \"#utility.yul\":27789:27812   */\n      swap1\n      pop\n        /* \"#utility.yul\":27765:27814   */\n    tag_642:\n        /* \"#utility.yul\":27827:27907   */\n      tag_643\n        /* \"#utility.yul\":27883:27905   */\n      tag_644\n        /* \"#utility.yul\":27901:27904   */\n      dup6\n        /* \"#utility.yul\":27883:27905   */\n      tag_339\n      jump\t// in\n    tag_644:\n        /* \"#utility.yul\":27873:27881   */\n      dup4\n        /* \"#utility.yul\":27869:27906   */\n      add\n        /* \"#utility.yul\":27856:27867   */\n      dup3\n        /* \"#utility.yul\":27827:27907   */\n      tag_348\n      jump\t// in\n    tag_643:\n        /* \"#utility.yul\":27487:27917   */\n      pop\n      pop\n        /* \"#utility.yul\":27472:27917   */\n    tag_639:\n        /* \"#utility.yul\":27383:27924   */\n      pop\n      pop\n      pop\n      jump\t// out\n        /* \"#utility.yul\":27930:28047   */\n    tag_350:\n        /* \"#utility.yul\":27984:27992   */\n      0x00\n        /* \"#utility.yul\":28034:28039   */\n      dup3\n        /* \"#utility.yul\":28028:28032   */\n      dup3\n        /* \"#utility.yul\":28024:28040   */\n      shr\n        /* \"#utility.yul\":28003:28040   */\n      swap1\n      pop\n        /* \"#utility.yul\":27930:28047   */\n      swap3\n      swap2\n      pop\n      pop\n      jump\t// out\n        /* \"#utility.yul\":28053:28222   */\n    tag_351:\n        /* \"#utility.yul\":28097:28103   */\n      0x00\n        /* \"#utility.yul\":28130:28181   */\n      tag_647\n        /* \"#utility.yul\":28178:28179   */\n      0x00\n        /* \"#utility.yul\":28174:28180   */\n      not\n        /* \"#utility.yul\":28166:28171   */\n      dup5\n        /* \"#utility.yul\":28163:28164   */\n      0x08\n        /* \"#utility.yul\":28159:28172   */\n      mul\n        /* \"#utility.yul\":28130:28181   */\n      tag_350\n      jump\t// in\n    tag_647:\n        /* \"#utility.yul\":28126:28182   */\n      not\n        /* \"#utility.yul\":28211:28215   */\n      dup1\n        /* \"#utility.yul\":28205:28209   */\n      dup4\n        /* \"#utility.yul\":28201:28216   */\n      and\n        /* \"#utility.yul\":28191:28216   */\n      swap2\n      pop\n        /* \"#utility.yul\":28104:28222   */\n      pop\n        /* \"#utility.yul\":28053:28222   */\n      swap3\n      swap2\n      pop\n      pop\n      jump\t// out\n        /* \"#utility.yul\":28227:28522   */\n    tag_352:\n        /* \"#utility.yul\":28303:28307   */\n      0x00\n        /* \"#utility.yul\":28449:28478   */\n      tag_649\n        /* \"#utility.yul\":28474:28477   */\n      dup4\n        /* \"#utility.yul\":28468:28472   */\n      dup4\n        /* \"#utility.yul\":28449:28478   */\n      tag_351\n      jump\t// in\n    tag_649:\n        /* \"#utility.yul\":28441:28478   */\n      swap2\n      pop\n        /* \"#utility.yul\":28511:28514   */\n      dup3\n        /* \"#utility.yul\":28508:28509   */\n      0x02\n        /* \"#utility.yul\":28504:28515   */\n      mul\n        /* \"#utility.yul\":28498:28502   */\n      dup3\n        /* \"#utility.yul\":28495:28516   */\n      or\n        /* \"#utility.yul\":28487:28516   */\n      swap1\n      pop\n        /* \"#utility.yul\":28227:28522   */\n      swap3\n      swap2\n      pop\n      pop\n      jump\t// out\n        /* \"#utility.yul\":28527:29917   */\n    tag_205:\n        /* \"#utility.yul\":28642:28678   */\n      tag_651\n        /* \"#utility.yul\":28674:28677   */\n      dup3\n        /* \"#utility.yul\":28642:28678   */\n      tag_305\n      jump\t// in\n    tag_651:\n        /* \"#utility.yul\":28743:28761   */\n      0xffffffffffffffff\n        /* \"#utility.yul\":28735:28741   */\n      dup2\n        /* \"#utility.yul\":28732:28762   */\n      gt\n        /* \"#utility.yul\":28729:28785   */\n      iszero\n      tag_652\n      jumpi\n        /* \"#utility.yul\":28765:28783   */\n      tag_653\n      tag_145\n      jump\t// in\n    tag_653:\n        /* \"#utility.yul\":28729:28785   */\n    tag_652:\n        /* \"#utility.yul\":28809:28847   */\n      tag_654\n        /* \"#utility.yul\":28841:28845   */\n      dup3\n        /* \"#utility.yul\":28835:28846   */\n      sload\n        /* \"#utility.yul\":28809:28847   */\n      tag_126\n      jump\t// in\n    tag_654:\n        /* \"#utility.yul\":28894:28960   */\n      tag_655\n        /* \"#utility.yul\":28953:28959   */\n      dup3\n        /* \"#utility.yul\":28945:28951   */\n      dup3\n        /* \"#utility.yul\":28939:28943   */\n      dup6\n        /* \"#utility.yul\":28894:28960   */\n      tag_349\n      jump\t// in\n    tag_655:\n        /* \"#utility.yul\":28987:28988   */\n      0x00\n        /* \"#utility.yul\":29011:29015   */\n      0x20\n        /* \"#utility.yul\":28998:29015   */\n      swap1\n      pop\n        /* \"#utility.yul\":29043:29045   */\n      0x1f\n        /* \"#utility.yul\":29035:29041   */\n      dup4\n        /* \"#utility.yul\":29032:29046   */\n      gt\n        /* \"#utility.yul\":29060:29061   */\n      0x01\n        /* \"#utility.yul\":29055:29672   */\n      dup2\n      eq\n      tag_657\n      jumpi\n        /* \"#utility.yul\":29716:29717   */\n      0x00\n        /* \"#utility.yul\":29733:29739   */\n      dup5\n        /* \"#utility.yul\":29730:29807   */\n      iszero\n      tag_658\n      jumpi\n        /* \"#utility.yul\":29782:29791   */\n      dup3\n        /* \"#utility.yul\":29777:29780   */\n      dup8\n        /* \"#utility.yul\":29773:29792   */\n      add\n        /* \"#utility.yul\":29767:29793   */\n      mload\n        /* \"#utility.yul\":29758:29793   */\n      swap1\n      pop\n        /* \"#utility.yul\":29730:29807   */\n    tag_658:\n        /* \"#utility.yul\":29833:29900   */\n      tag_659\n        /* \"#utility.yul\":29893:29899   */\n      dup6\n        /* \"#utility.yul\":29886:29891   */\n      dup3\n        /* \"#utility.yul\":29833:29900   */\n      tag_352\n      jump\t// in\n    tag_659:\n        /* \"#utility.yul\":29827:29831   */\n      dup7\n        /* \"#utility.yul\":29820:29901   */\n      sstore\n        /* \"#utility.yul\":29689:29911   */\n      pop\n        /* \"#utility.yul\":29025:29911   */\n      jump(tag_656)\n        /* \"#utility.yul\":29055:29672   */\n    tag_657:\n        /* \"#utility.yul\":29107:29111   */\n      0x1f\n        /* \"#utility.yul\":29103:29112   */\n      not\n        /* \"#utility.yul\":29095:29101   */\n      dup5\n        /* \"#utility.yul\":29091:29113   */\n      and\n        /* \"#utility.yul\":29141:29177   */\n      tag_660\n        /* \"#utility.yul\":29172:29176   */\n      dup7\n        /* \"#utility.yul\":29141:29177   */\n      tag_337\n      jump\t// in\n    tag_660:\n        /* \"#utility.yul\":29199:29200   */\n      0x00\n        /* \"#utility.yul\":29213:29421   */\n    tag_661:\n        /* \"#utility.yul\":29227:29234   */\n      dup3\n        /* \"#utility.yul\":29224:29225   */\n      dup2\n        /* \"#utility.yul\":29221:29235   */\n      lt\n        /* \"#utility.yul\":29213:29421   */\n      iszero\n      tag_663\n      jumpi\n        /* \"#utility.yul\":29306:29315   */\n      dup5\n        /* \"#utility.yul\":29301:29304   */\n      dup10\n        /* \"#utility.yul\":29297:29316   */\n      add\n        /* \"#utility.yul\":29291:29317   */\n      mload\n        /* \"#utility.yul\":29283:29289   */\n      dup3\n        /* \"#utility.yul\":29276:29318   */\n      sstore\n        /* \"#utility.yul\":29357:29358   */\n      0x01\n        /* \"#utility.yul\":29349:29355   */\n      dup3\n        /* \"#utility.yul\":29345:29359   */\n      add\n        /* \"#utility.yul\":29335:29359   */\n      swap2\n      pop\n        /* \"#utility.yul\":29404:29406   */\n      0x20\n        /* \"#utility.yul\":29393:29402   */\n      dup6\n        /* \"#utility.yul\":29389:29407   */\n      add\n        /* \"#utility.yul\":29376:29407   */\n      swap5\n      pop\n        /* \"#utility.yul\":29250:29254   */\n      0x20\n        /* \"#utility.yul\":29247:29248   */\n      dup2\n        /* \"#utility.yul\":29243:29255   */\n      add\n        /* \"#utility.yul\":29238:29255   */\n      swap1\n      pop\n        /* \"#utility.yul\":29213:29421   */\n      jump(tag_661)\n    tag_663:\n        /* \"#utility.yul\":29449:29455   */\n      dup7\n        /* \"#utility.yul\":29440:29447   */\n      dup4\n        /* \"#utility.yul\":29437:29456   */\n      lt\n        /* \"#utility.yul\":29434:29613   */\n      iszero\n      tag_664\n      jumpi\n        /* \"#utility.yul\":29507:29516   */\n      dup5\n        /* \"#utility.yul\":29502:29505   */\n      dup10\n        /* \"#utility.yul\":29498:29517   */\n      add\n        /* \"#utility.yul\":29492:29518   */\n      mload\n        /* \"#utility.yul\":29550:29598   */\n      tag_665\n        /* \"#utility.yul\":29592:29596   */\n      0x1f\n        /* \"#utility.yul\":29584:29590   */\n      dup10\n        /* \"#utility.yul\":29580:29597   */\n      and\n        /* \"#utility.yul\":29569:29578   */\n      dup3\n        /* \"#utility.yul\":29550:29598   */\n      tag_351\n      jump\t// in\n    tag_665:\n        /* \"#utility.yul\":29542:29548   */\n      dup4\n        /* \"#utility.yul\":29535:29599   */\n      sstore\n        /* \"#utility.yul\":29457:29613   */\n      pop\n        /* \"#utility.yul\":29434:29613   */\n    tag_664:\n        /* \"#utility.yul\":29659:29660   */\n      0x01\n        /* \"#utility.yul\":29655:29656   */\n      0x02\n        /* \"#utility.yul\":29647:29653   */\n      dup9\n        /* \"#utility.yul\":29643:29657   */\n      mul\n        /* \"#utility.yul\":29639:29661   */\n      add\n        /* \"#utility.yul\":29633:29637   */\n      dup9\n        /* \"#utility.yul\":29626:29662   */\n      sstore\n        /* \"#utility.yul\":29062:29672   */\n      pop\n      pop\n      pop\n        /* \"#utility.yul\":29025:29911   */\n    tag_656:\n      pop\n        /* \"#utility.yul\":28617:29917   */\n      pop\n      pop\n      pop\n        /* \"#utility.yul\":28527:29917   */\n      pop\n      pop\n      jump\t// out\n        /* \"#utility.yul\":29923:30114   */\n    tag_251:\n        /* \"#utility.yul\":29963:29966   */\n      0x00\n        /* \"#utility.yul\":29982:30002   */\n      tag_667\n        /* \"#utility.yul\":30000:30001   */\n      dup3\n        /* \"#utility.yul\":29982:30002   */\n      tag_296\n      jump\t// in\n    tag_667:\n        /* \"#utility.yul\":29977:30002   */\n      swap2\n      pop\n        /* \"#utility.yul\":30016:30036   */\n      tag_668\n        /* \"#utility.yul\":30034:30035   */\n      dup4\n        /* \"#utility.yul\":30016:30036   */\n      tag_296\n      jump\t// in\n    tag_668:\n        /* \"#utility.yul\":30011:30036   */\n      swap3\n      pop\n        /* \"#utility.yul\":30059:30060   */\n      dup3\n        /* \"#utility.yul\":30056:30057   */\n      dup3\n        /* \"#utility.yul\":30052:30061   */\n      add\n        /* \"#utility.yul\":30045:30061   */\n      swap1\n      pop\n        /* \"#utility.yul\":30080:30083   */\n      dup1\n        /* \"#utility.yul\":30077:30078   */\n      dup3\n        /* \"#utility.yul\":30074:30084   */\n      gt\n        /* \"#utility.yul\":30071:30107   */\n      iszero\n      tag_669\n      jumpi\n        /* \"#utility.yul\":30087:30105   */\n      tag_670\n      tag_328\n      jump\t// in\n    tag_670:\n        /* \"#utility.yul\":30071:30107   */\n    tag_669:\n        /* \"#utility.yul\":29923:30114   */\n      swap3\n      swap2\n      pop\n      pop\n      jump\t// out\n        /* \"#utility.yul\":30120:30314   */\n    tag_253:\n        /* \"#utility.yul\":30160:30164   */\n      0x00\n        /* \"#utility.yul\":30180:30200   */\n      tag_672\n        /* \"#utility.yul\":30198:30199   */\n      dup3\n        /* \"#utility.yul\":30180:30200   */\n      tag_296\n      jump\t// in\n    tag_672:\n        /* \"#utility.yul\":30175:30200   */\n      swap2\n      pop\n        /* \"#utility.yul\":30214:30234   */\n      tag_673\n        /* \"#utility.yul\":30232:30233   */\n      dup4\n        /* \"#utility.yul\":30214:30234   */\n      tag_296\n      jump\t// in\n    tag_673:\n        /* \"#utility.yul\":30209:30234   */\n      swap3\n      pop\n        /* \"#utility.yul\":30258:30259   */\n      dup3\n        /* \"#utility.yul\":30255:30256   */\n      dup3\n        /* \"#utility.yul\":30251:30260   */\n      sub\n        /* \"#utility.yul\":30243:30260   */\n      swap1\n      pop\n        /* \"#utility.yul\":30282:30283   */\n      dup2\n        /* \"#utility.yul\":30276:30280   */\n      dup2\n        /* \"#utility.yul\":30273:30284   */\n      gt\n        /* \"#utility.yul\":30270:30307   */\n      iszero\n      tag_674\n      jumpi\n        /* \"#utility.yul\":30287:30305   */\n      tag_675\n      tag_328\n      jump\t// in\n    tag_675:\n        /* \"#utility.yul\":30270:30307   */\n    tag_674:\n        /* \"#utility.yul\":30120:30314   */\n      swap3\n      swap2\n      pop\n      pop\n      jump\t// out\n        /* \"#utility.yul\":30320:30730   */\n    tag_255:\n        /* \"#utility.yul\":30360:30367   */\n      0x00\n        /* \"#utility.yul\":30383:30403   */\n      tag_677\n        /* \"#utility.yul\":30401:30402   */\n      dup3\n        /* \"#utility.yul\":30383:30403   */\n      tag_296\n      jump\t// in\n    tag_677:\n        /* \"#utility.yul\":30378:30403   */\n      swap2\n      pop\n        /* \"#utility.yul\":30417:30437   */\n      tag_678\n        /* \"#utility.yul\":30435:30436   */\n      dup4\n        /* \"#utility.yul\":30417:30437   */\n      tag_296\n      jump\t// in\n    tag_678:\n        /* \"#utility.yul\":30412:30437   */\n      swap3\n      pop\n        /* \"#utility.yul\":30472:30473   */\n      dup3\n        /* \"#utility.yul\":30469:30470   */\n      dup3\n        /* \"#utility.yul\":30465:30474   */\n      mul\n        /* \"#utility.yul\":30494:30524   */\n      tag_679\n        /* \"#utility.yul\":30512:30523   */\n      dup2\n        /* \"#utility.yul\":30494:30524   */\n      tag_296\n      jump\t// in\n    tag_679:\n        /* \"#utility.yul\":30483:30524   */\n      swap2\n      pop\n        /* \"#utility.yul\":30673:30674   */\n      dup3\n        /* \"#utility.yul\":30664:30671   */\n      dup3\n        /* \"#utility.yul\":30660:30675   */\n      div\n        /* \"#utility.yul\":30657:30658   */\n      dup5\n        /* \"#utility.yul\":30654:30676   */\n      eq\n        /* \"#utility.yul\":30634:30635   */\n      dup4\n        /* \"#utility.yul\":30627:30636   */\n      iszero\n        /* \"#utility.yul\":30607:30690   */\n      or\n        /* \"#utility.yul\":30584:30723   */\n      tag_680\n      jumpi\n        /* \"#utility.yul\":30703:30721   */\n      tag_681\n      tag_328\n      jump\t// in\n    tag_681:\n        /* \"#utility.yul\":30584:30723   */\n    tag_680:\n        /* \"#utility.yul\":30368:30730   */\n      pop\n        /* \"#utility.yul\":30320:30730   */\n      swap3\n      swap2\n      pop\n      pop\n      jump\t// out\n        /* \"#utility.yul\":30736:30838   */\n    tag_353:\n        /* \"#utility.yul\":30778:30786   */\n      0x00\n        /* \"#utility.yul\":30825:30830   */\n      dup2\n        /* \"#utility.yul\":30822:30823   */\n      0x01\n        /* \"#utility.yul\":30818:30831   */\n      shr\n        /* \"#utility.yul\":30797:30831   */\n      swap1\n      pop\n        /* \"#utility.yul\":30736:30838   */\n      swap2\n      swap1\n      pop\n      jump\t// out\n        /* \"#utility.yul\":30844:31692   */\n    tag_354:\n        /* \"#utility.yul\":30905:30910   */\n      0x00\n        /* \"#utility.yul\":30912:30916   */\n      dup1\n        /* \"#utility.yul\":30936:30942   */\n      dup3\n        /* \"#utility.yul\":30927:30942   */\n      swap2\n      pop\n        /* \"#utility.yul\":30960:30965   */\n      dup4\n        /* \"#utility.yul\":30951:30965   */\n      swap1\n      pop\n        /* \"#utility.yul\":30974:31686   */\n    tag_684:\n        /* \"#utility.yul\":30995:30996   */\n      0x01\n        /* \"#utility.yul\":30985:30993   */\n      dup6\n        /* \"#utility.yul\":30982:30997   */\n      gt\n        /* \"#utility.yul\":30974:31686   */\n      iszero\n      tag_686\n      jumpi\n        /* \"#utility.yul\":31090:31094   */\n      dup1\n        /* \"#utility.yul\":31085:31088   */\n      dup7\n        /* \"#utility.yul\":31081:31095   */\n      div\n        /* \"#utility.yul\":31075:31079   */\n      dup2\n        /* \"#utility.yul\":31072:31096   */\n      gt\n        /* \"#utility.yul\":31069:31119   */\n      iszero\n      tag_687\n      jumpi\n        /* \"#utility.yul\":31099:31117   */\n      tag_688\n      tag_328\n      jump\t// in\n    tag_688:\n        /* \"#utility.yul\":31069:31119   */\n    tag_687:\n        /* \"#utility.yul\":31149:31150   */\n      0x01\n        /* \"#utility.yul\":31139:31147   */\n      dup6\n        /* \"#utility.yul\":31135:31151   */\n      and\n        /* \"#utility.yul\":31132:31583   */\n      iszero\n      tag_689\n      jumpi\n        /* \"#utility.yul\":31564:31568   */\n      dup1\n        /* \"#utility.yul\":31557:31562   */\n      dup3\n        /* \"#utility.yul\":31553:31569   */\n      mul\n        /* \"#utility.yul\":31544:31569   */\n      swap2\n      pop\n        /* \"#utility.yul\":31132:31583   */\n    tag_689:\n        /* \"#utility.yul\":31614:31618   */\n      dup1\n        /* \"#utility.yul\":31608:31612   */\n      dup2\n        /* \"#utility.yul\":31604:31619   */\n      mul\n        /* \"#utility.yul\":31596:31619   */\n      swap1\n      pop\n        /* \"#utility.yul\":31644:31676   */\n      tag_690\n        /* \"#utility.yul\":31667:31675   */\n      dup6\n        /* \"#utility.yul\":31644:31676   */\n      tag_353\n      jump\t// in\n    tag_690:\n        /* \"#utility.yul\":31632:31676   */\n      swap5\n      pop\n        /* \"#utility.yul\":30974:31686   */\n      jump(tag_684)\n    tag_686:\n        /* \"#utility.yul\":30844:31692   */\n      swap5\n      pop\n      swap5\n      swap3\n      pop\n      pop\n      pop\n      jump\t// out\n        /* \"#utility.yul\":31698:32771   */\n    tag_355:\n        /* \"#utility.yul\":31752:31757   */\n      0x00\n        /* \"#utility.yul\":31943:31951   */\n      dup3\n        /* \"#utility.yul\":31933:31973   */\n      tag_692\n      jumpi\n        /* \"#utility.yul\":31964:31965   */\n      0x01\n        /* \"#utility.yul\":31955:31965   */\n      swap1\n      pop\n        /* \"#utility.yul\":31966:31971   */\n      jump(tag_691)\n        /* \"#utility.yul\":31933:31973   */\n    tag_692:\n        /* \"#utility.yul\":31992:31996   */\n      dup2\n        /* \"#utility.yul\":31982:32018   */\n      tag_693\n      jumpi\n        /* \"#utility.yul\":32009:32010   */\n      0x00\n        /* \"#utility.yul\":32000:32010   */\n      swap1\n      pop\n        /* \"#utility.yul\":32011:32016   */\n      jump(tag_691)\n        /* \"#utility.yul\":31982:32018   */\n    tag_693:\n        /* \"#utility.yul\":32078:32082   */\n      dup2\n        /* \"#utility.yul\":32126:32127   */\n      0x01\n        /* \"#utility.yul\":32121:32148   */\n      dup2\n      eq\n      tag_695\n      jumpi\n        /* \"#utility.yul\":32162:32163   */\n      0x02\n        /* \"#utility.yul\":32157:32348   */\n      dup2\n      eq\n      tag_696\n      jumpi\n        /* \"#utility.yul\":32071:32348   */\n      jump(tag_694)\n        /* \"#utility.yul\":32121:32148   */\n    tag_695:\n        /* \"#utility.yul\":32139:32140   */\n      0x01\n        /* \"#utility.yul\":32130:32140   */\n      swap2\n      pop\n        /* \"#utility.yul\":32141:32146   */\n      pop\n      jump(tag_691)\n        /* \"#utility.yul\":32157:32348   */\n    tag_696:\n        /* \"#utility.yul\":32202:32205   */\n      0xff\n        /* \"#utility.yul\":32192:32200   */\n      dup5\n        /* \"#utility.yul\":32189:32206   */\n      gt\n        /* \"#utility.yul\":32186:32229   */\n      iszero\n      tag_697\n      jumpi\n        /* \"#utility.yul\":32209:32227   */\n      tag_698\n      tag_328\n      jump\t// in\n    tag_698:\n        /* \"#utility.yul\":32186:32229   */\n    tag_697:\n        /* \"#utility.yul\":32258:32266   */\n      dup4\n        /* \"#utility.yul\":32255:32256   */\n      0x02\n        /* \"#utility.yul\":32251:32267   */\n      exp\n        /* \"#utility.yul\":32242:32267   */\n      swap2\n      pop\n        /* \"#utility.yul\":32293:32296   */\n      dup5\n        /* \"#utility.yul\":32286:32291   */\n      dup3\n        /* \"#utility.yul\":32283:32297   */\n      gt\n        /* \"#utility.yul\":32280:32320   */\n      iszero\n      tag_699\n      jumpi\n        /* \"#utility.yul\":32300:32318   */\n      tag_700\n      tag_328\n      jump\t// in\n    tag_700:\n        /* \"#utility.yul\":32280:32320   */\n    tag_699:\n        /* \"#utility.yul\":32333:32338   */\n      pop\n      jump(tag_691)\n        /* \"#utility.yul\":32071:32348   */\n    tag_694:\n      pop\n        /* \"#utility.yul\":32457:32459   */\n      0x20\n        /* \"#utility.yul\":32447:32455   */\n      dup4\n        /* \"#utility.yul\":32444:32460   */\n      lt\n        /* \"#utility.yul\":32438:32441   */\n      0x0133\n        /* \"#utility.yul\":32432:32436   */\n      dup4\n        /* \"#utility.yul\":32429:32442   */\n      lt\n        /* \"#utility.yul\":32425:32461   */\n      and\n        /* \"#utility.yul\":32407:32409   */\n      0x4e\n        /* \"#utility.yul\":32397:32405   */\n      dup5\n        /* \"#utility.yul\":32394:32410   */\n      lt\n        /* \"#utility.yul\":32389:32391   */\n      0x0b\n        /* \"#utility.yul\":32383:32387   */\n      dup5\n        /* \"#utility.yul\":32380:32392   */\n      lt\n        /* \"#utility.yul\":32376:32411   */\n      and\n        /* \"#utility.yul\":32360:32471   */\n      or\n        /* \"#utility.yul\":32357:32603   */\n      iszero\n      tag_701\n      jumpi\n        /* \"#utility.yul\":32513:32521   */\n      dup3\n        /* \"#utility.yul\":32507:32511   */\n      dup3\n        /* \"#utility.yul\":32503:32522   */\n      exp\n        /* \"#utility.yul\":32494:32522   */\n      swap1\n      pop\n        /* \"#utility.yul\":32548:32551   */\n      dup4\n        /* \"#utility.yul\":32541:32546   */\n      dup2\n        /* \"#utility.yul\":32538:32552   */\n      gt\n        /* \"#utility.yul\":32535:32575   */\n      iszero\n      tag_702\n      jumpi\n        /* \"#utility.yul\":32555:32573   */\n      tag_703\n      tag_328\n      jump\t// in\n    tag_703:\n        /* \"#utility.yul\":32535:32575   */\n    tag_702:\n        /* \"#utility.yul\":32588:32593   */\n      jump(tag_691)\n        /* \"#utility.yul\":32357:32603   */\n    tag_701:\n        /* \"#utility.yul\":32628:32670   */\n      tag_704\n        /* \"#utility.yul\":32666:32669   */\n      dup5\n        /* \"#utility.yul\":32656:32664   */\n      dup5\n        /* \"#utility.yul\":32650:32654   */\n      dup5\n        /* \"#utility.yul\":32647:32648   */\n      0x01\n        /* \"#utility.yul\":32628:32670   */\n      tag_354\n      jump\t// in\n    tag_704:\n        /* \"#utility.yul\":32613:32670   */\n      swap3\n      pop\n      swap1\n      pop\n        /* \"#utility.yul\":32702:32706   */\n      dup2\n        /* \"#utility.yul\":32697:32700   */\n      dup5\n        /* \"#utility.yul\":32693:32707   */\n      div\n        /* \"#utility.yul\":32686:32691   */\n      dup2\n        /* \"#utility.yul\":32683:32708   */\n      gt\n        /* \"#utility.yul\":32680:32731   */\n      iszero\n      tag_705\n      jumpi\n        /* \"#utility.yul\":32711:32729   */\n      tag_706\n      tag_328\n      jump\t// in\n    tag_706:\n        /* \"#utility.yul\":32680:32731   */\n    tag_705:\n        /* \"#utility.yul\":32760:32764   */\n      dup2\n        /* \"#utility.yul\":32753:32758   */\n      dup2\n        /* \"#utility.yul\":32749:32765   */\n      mul\n        /* \"#utility.yul\":32740:32765   */\n      swap1\n      pop\n        /* \"#utility.yul\":31698:32771   */\n    tag_691:\n      swap4\n      swap3\n      pop\n      pop\n      pop\n      jump\t// out\n        /* \"#utility.yul\":32777:33062   */\n    tag_257:\n        /* \"#utility.yul\":32837:32842   */\n      0x00\n        /* \"#utility.yul\":32861:32884   */\n      tag_708\n        /* \"#utility.yul\":32879:32883   */\n      dup3\n        /* \"#utility.yul\":32861:32884   */\n      tag_296\n      jump\t// in\n    tag_708:\n        /* \"#utility.yul\":32853:32884   */\n      swap2\n      pop\n        /* \"#utility.yul\":32905:32932   */\n      tag_709\n        /* \"#utility.yul\":32923:32931   */\n      dup4\n        /* \"#utility.yul\":32905:32932   */\n      tag_296\n      jump\t// in\n    tag_709:\n        /* \"#utility.yul\":32893:32932   */\n      swap3\n      pop\n        /* \"#utility.yul\":32951:33055   */\n      tag_710\n        /* \"#utility.yul\":32988:33054   */\n      0xffffffffffffffffffffffffffffffffffffffffffffffffffffffffffffffff\n        /* \"#utility.yul\":32978:32986   */\n      dup5\n        /* \"#utility.yul\":32972:32976   */\n      dup5\n        /* \"#utility.yul\":32951:33055   */\n      tag_355\n      jump\t// in\n    tag_710:\n        /* \"#utility.yul\":32942:33055   */\n      swap1\n      pop\n        /* \"#utility.yul\":32777:33062   */\n      swap3\n      swap2\n      pop\n      pop\n      jump\t// out\n\n    auxdata: 0xa2646970667358221220da61260ec62fcf7b26c71f44e68d2ed9fb2766637e5d0c16fce2fc6856386d1e64736f6c63430008110033\n}\n",
				"bytecode": {
					"linkReferences": {},
					"object": "608060405234801561001057600080fd5b506127b8806100206000396000f3fe608060405234801561001057600080fd5b50600436106101005760003560e01c80638d7b242811610097578063ba36cefb11610066578063ba36cefb14610345578063c5dd2a4f14610375578063d4a419d3146103a5578063fb7cd6e4146103d557610100565b80638d7b2428146102855780639ca360f2146102b5578063ad487a2d146102e5578063ba3258e31461031557610100565b8063642b4d08116100d3578063642b4d08146101c55780636c8131a7146101f557806374bdc66e14610225578063892748851461025557610100565b806310976bde146101055780632942d3b01461013557806355290c1b146101655780635f599f9314610195575b600080fd5b61011f600480360381019061011a919061173e565b610405565b60405161012c91906117b3565b60405180910390f35b61014f600480360381019061014a91906117fa565b61046b565b60405161015c9190611884565b60405180910390f35b61017f600480360381019061017a9190611940565b610486565b60405161018c9190611884565b60405180910390f35b6101af60048036038101906101aa91906119df565b6104a3565b6040516101bc91906117b3565b60405180910390f35b6101df60048036038101906101da9190611a3b565b6104dd565b6040516101ec9190611884565b60405180910390f35b61020f600480360381019061020a91906119df565b61056d565b60405161021c9190611884565b60405180910390f35b61023f600480360381019061023a91906117fa565b61064b565b60405161024c9190611b45565b60405180910390f35b61026f600480360381019061026a9190611a3b565b61074b565b60405161027c9190611884565b60405180910390f35b61029f600480360381019061029a91906119df565b6108b4565b6040516102ac9190611c25565b60405180910390f35b6102cf60048036038101906102ca9190611df0565b610a57565b6040516102dc9190611884565b60405180910390f35b6102ff60048036038101906102fa9190611eab565b610bc7565b60405161030c9190611884565b60405180910390f35b61032f600480360381019061032a919061173e565b610e1d565b60405161033c9190611884565b60405180910390f35b61035f600480360381019061035a9190611a3b565b610e36565b60405161036c9190611884565b60405180910390f35b61038f600480360381019061038a9190611eab565b610f19565b60405161039c9190611884565b60405180910390f35b6103bf60048036038101906103ba9190611eab565b610fe7565b6040516103cc9190611884565b60405180910390f35b6103ef60048036038101906103ea919061173e565b6110bd565b6040516103fc91906117b3565b60405180910390f35b6000600260008473ffffffffffffffffffffffffffffffffffffffff1673ffffffffffffffffffffffffffffffffffffffff168152602001908152602001600020826040516104549190611f7d565b908152602001604051809103902054905092915050565b600080610479858585611123565b9050809150509392505050565b600080610495868686866111a8565b905080915050949350505050565b600060056000848152602001908152602001600020826040516104c69190611f7d565b908152602001604051809103902054905092915050565b6000600460008573ffffffffffffffffffffffffffffffffffffffff1673ffffffffffffffffffffffffffffffffffffffff1681526020019081526020016000208360405161052c9190611f7d565b9081526020016040518091039020826040516105489190611fd0565b908152602001604051809103902060009054906101000a900460ff1690509392505050565b60008060056000858152602001908152602001600020836040516105919190611f7d565b908152602001604051809103902054905060005b8181101561060c5760066000868152602001908152602001600020846040516105ce9190611f7d565b9081526020016040518091039020600082815260200190815260200160002060006105f99190611529565b808061060490612016565b9150506105a5565b50600560008581526020019081526020016000208360405161062e9190611f7d565b908152602001604051809103902060009055600191505092915050565b6060600160008573ffffffffffffffffffffffffffffffffffffffff1673ffffffffffffffffffffffffffffffffffffffff1681526020019081526020016000206000848152602001908152602001600020826040516106ab9190611f7d565b908152602001604051809103902080546106c49061208d565b80601f01602080910402602001604051908101604052809291908181526020018280546106f09061208d565b801561073d5780601f106107125761010080835404028352916020019161073d565b820191906000526020600020905b81548152906001019060200180831161072057829003601f168201915b505050505090509392505050565b6000600460008573ffffffffffffffffffffffffffffffffffffffff1673ffffffffffffffffffffffffffffffffffffffff1681526020019081526020016000208360405161079a9190611f7d565b9081526020016040518091039020826040516107b69190611fd0565b908152602001604051809103902060009054906101000a900460ff16610811576040517f08c379a00000000000000000000000000000000000000000000000000000000081526004016108089061211b565b60405180910390fd5b60006108208585856000611230565b9050600460008673ffffffffffffffffffffffffffffffffffffffff1673ffffffffffffffffffffffffffffffffffffffff1681526020019081526020016000208460405161086f9190611f7d565b90815260200160405180910390208360405161088b9190611fd0565b908152602001604051809103902060006101000a81549060ff0219169055809150509392505050565b6060600060056000858152602001908152602001600020836040516108d99190611f7d565b908152602001604051809103902054905060008167ffffffffffffffff81111561090657610905611613565b5b6040519080825280602002602001820160405280156109345781602001602082028036833780820191505090505b50905060005b82811015610a4b57600060066000888152602001908152602001600020866040516109659190611f7d565b90815260200160405180910390206000838152602001908152602001600020805461098f9061208d565b80601f01602080910402602001604051908101604052809291908181526020018280546109bb9061208d565b8015610a085780601f106109dd57610100808354040283529160200191610a08565b820191906000526020600020905b8154815290600101906020018083116109eb57829003601f168201915b50505050509050610a18816112cd565b838381518110610a2b57610a2a61213b565b5b602002602001018181525050508080610a4390612016565b91505061093a565b50809250505092915050565b6000808451118015610a6c5750610100845111155b610aab576040517f08c379a0000000000000000000000000000000000000000000000000000000008152600401610aa2906121b6565b60405180910390fd5b82518451148015610abd575081518451145b610afc576040517f08c379a0000000000000000000000000000000000000000000000000000000008152600401610af3906121b6565b60405180910390fd5b60005b8451811015610bba576000610b6487878481518110610b2157610b2061213b565b5b6020026020010151878581518110610b3c57610b3b61213b565b5b6020026020010151878681518110610b5757610b5661213b565b5b6020026020010151611365565b905080610ba6576040517f08c379a0000000000000000000000000000000000000000000000000000000008152600401610b9d90612222565b60405180910390fd5b508080610bb290612016565b915050610aff565b5060019050949350505050565b6000806005600086815260200190815260200160002084604051610beb9190611f7d565b9081526020016040518091039020549050600080600090505b82811015610dc1576006600088815260200190815260200160002086604051610c2d9190611f7d565b90815260200160405180910390206000828152602001908152602001600020604051610c5991906122da565b6040518091039020858051906020012003610c775760019150610dae565b8115610dad5760006006600089815260200190815260200160002087604051610ca09190611f7d565b908152602001604051809103902060008381526020019081526020016000208054610cca9061208d565b80601f0160208091040260200160405190810160405280929190818152602001828054610cf69061208d565b8015610d435780601f10610d1857610100808354040283529160200191610d43565b820191906000526020600020905b815481529060010190602001808311610d2657829003601f168201915b5050505050905080600660008a815260200190815260200160002088604051610d6c9190611f7d565b90815260200160405180910390206000610d9060018661143390919063ffffffff16565b81526020019081526020016000209081610daa9190612488565b50505b5b8080610db990612016565b915050610c04565b508015610e1057610ddc60018361143390919063ffffffff16565b6005600088815260200190815260200160002086604051610dfd9190611f7d565b9081526020016040518091039020819055505b6001925050509392505050565b600080610e2a8484611449565b90508091505092915050565b6000600460008573ffffffffffffffffffffffffffffffffffffffff1673ffffffffffffffffffffffffffffffffffffffff16815260200190815260200160002083604051610e859190611f7d565b908152602001604051809103902082604051610ea19190611fd0565b908152602001604051809103902060009054906101000a900460ff1615610efd576040517f08c379a0000000000000000000000000000000000000000000000000000000008152600401610ef49061211b565b60405180910390fd5b6000610f0c8585856001611230565b9050809150509392505050565b6000806005600086815260200190815260200160002084604051610f3d9190611f7d565b908152602001604051809103902054905060005b81811015610fd9576006600087815260200190815260200160002085604051610f7a9190611f7d565b90815260200160405180910390206000828152602001908152602001600020604051610fa691906122da565b6040518091039020848051906020012003610fc657600192505050610fe0565b8080610fd190612016565b915050610f51565b5060009150505b9392505050565b600080600560008681526020019081526020016000208460405161100b9190611f7d565b908152602001604051809103902054905082600660008781526020019081526020016000208560405161103e9190611f7d565b9081526020016040518091039020600083815260200190815260200160002090816110699190612488565b5061107e60018261151390919063ffffffff16565b600560008781526020019081526020016000208560405161109f9190611f7d565b90815260200160405180910390208190555060019150509392505050565b6000600360008473ffffffffffffffffffffffffffffffffffffffff1673ffffffffffffffffffffffffffffffffffffffff1681526020019081526020016000208260405161110c9190611f7d565b908152602001604051809103902054905092915050565b6000600160008573ffffffffffffffffffffffffffffffffffffffff1673ffffffffffffffffffffffffffffffffffffffff1681526020019081526020016000206000848152602001908152602001600020826040516111839190611f7d565b9081526020016040518091039020600061119d9190611529565b600190509392505050565b600081600160008773ffffffffffffffffffffffffffffffffffffffff1673ffffffffffffffffffffffffffffffffffffffff1681526020019081526020016000206000868152602001908152602001600020846040516112099190611f7d565b908152602001604051809103902090816112239190612488565b5060019050949350505050565b600081600460008773ffffffffffffffffffffffffffffffffffffffff1673ffffffffffffffffffffffffffffffffffffffff168152602001908152602001600020856040516112809190611f7d565b90815260200160405180910390208460405161129c9190611fd0565b908152602001604051809103902060006101000a81548160ff02191690831515021790555060019050949350505050565b60008060005b835181101561135b576001816112e9919061255a565b84516112f5919061258e565b600861130191906125c2565b600261130d9190612737565b8482815181106113205761131f61213b565b5b602001015160f81c60f81b60f81c60ff1661133b91906125c2565b82611346919061255a565b9150808061135390612016565b9150506112d3565b5080915050919050565b600082600260008773ffffffffffffffffffffffffffffffffffffffff1673ffffffffffffffffffffffffffffffffffffffff168152602001908152602001600020856040516113b59190611f7d565b90815260200160405180910390208190555081600360008773ffffffffffffffffffffffffffffffffffffffff1673ffffffffffffffffffffffffffffffffffffffff168152602001908152602001600020856040516114159190611f7d565b90815260200160405180910390208190555060019050949350505050565b60008183611441919061258e565b905092915050565b6000600260008473ffffffffffffffffffffffffffffffffffffffff1673ffffffffffffffffffffffffffffffffffffffff168152602001908152602001600020826040516114989190611f7d565b908152602001604051809103902060009055600360008473ffffffffffffffffffffffffffffffffffffffff1673ffffffffffffffffffffffffffffffffffffffff168152602001908152602001600020826040516114f79190611f7d565b9081526020016040518091039020600090556001905092915050565b60008183611521919061255a565b905092915050565b5080546115359061208d565b6000825580601f106115475750611566565b601f0160209004906000526020600020908101906115659190611569565b5b50565b5b8082111561158257600081600090555060010161156a565b5090565b6000604051905090565b600080fd5b600080fd5b600073ffffffffffffffffffffffffffffffffffffffff82169050919050565b60006115c58261159a565b9050919050565b6115d5816115ba565b81146115e057600080fd5b50565b6000813590506115f2816115cc565b92915050565b600080fd5b600080fd5b6000601f19601f8301169050919050565b7f4e487b7100000000000000000000000000000000000000000000000000000000600052604160045260246000fd5b61164b82611602565b810181811067ffffffffffffffff8211171561166a57611669611613565b5b80604052505050565b600061167d611586565b90506116898282611642565b919050565b600067ffffffffffffffff8211156116a9576116a8611613565b5b6116b282611602565b9050602081019050919050565b82818337600083830152505050565b60006116e16116dc8461168e565b611673565b9050828152602081018484840111156116fd576116fc6115fd565b5b6117088482856116bf565b509392505050565b600082601f830112611725576117246115f8565b5b81356117358482602086016116ce565b91505092915050565b6000806040838503121561175557611754611590565b5b6000611763858286016115e3565b925050602083013567ffffffffffffffff81111561178457611783611595565b5b61179085828601611710565b9150509250929050565b6000819050919050565b6117ad8161179a565b82525050565b60006020820190506117c860008301846117a4565b92915050565b6117d78161179a565b81146117e257600080fd5b50565b6000813590506117f4816117ce565b92915050565b60008060006060848603121561181357611812611590565b5b6000611821868287016115e3565b9350506020611832868287016117e5565b925050604084013567ffffffffffffffff81111561185357611852611595565b5b61185f86828701611710565b9150509250925092565b60008115159050919050565b61187e81611869565b82525050565b60006020820190506118996000830184611875565b92915050565b600067ffffffffffffffff8211156118ba576118b9611613565b5b6118c382611602565b9050602081019050919050565b60006118e36118de8461189f565b611673565b9050828152602081018484840111156118ff576118fe6115fd565b5b61190a8482856116bf565b509392505050565b600082601f830112611927576119266115f8565b5b81356119378482602086016118d0565b91505092915050565b6000806000806080858703121561195a57611959611590565b5b6000611968878288016115e3565b9450506020611979878288016117e5565b935050604085013567ffffffffffffffff81111561199a57611999611595565b5b6119a687828801611710565b925050606085013567ffffffffffffffff8111156119c7576119c6611595565b5b6119d387828801611912565b91505092959194509250565b600080604083850312156119f6576119f5611590565b5b6000611a04858286016117e5565b925050602083013567ffffffffffffffff811115611a2557611a24611595565b5b611a3185828601611710565b9150509250929050565b600080600060608486031215611a5457611a53611590565b5b6000611a62868287016115e3565b935050602084013567ffffffffffffffff811115611a8357611a82611595565b5b611a8f86828701611710565b925050604084013567ffffffffffffffff811115611ab057611aaf611595565b5b611abc86828701611912565b9150509250925092565b600081519050919050565b600082825260208201905092915050565b60005b83811015611b00578082015181840152602081019050611ae5565b60008484015250505050565b6000611b1782611ac6565b611b218185611ad1565b9350611b31818560208601611ae2565b611b3a81611602565b840191505092915050565b60006020820190508181036000830152611b5f8184611b0c565b905092915050565b600081519050919050565b600082825260208201905092915050565b6000819050602082019050919050565b611b9c8161179a565b82525050565b6000611bae8383611b93565b60208301905092915050565b6000602082019050919050565b6000611bd282611b67565b611bdc8185611b72565b9350611be783611b83565b8060005b83811015611c18578151611bff8882611ba2565b9750611c0a83611bba565b925050600181019050611beb565b5085935050505092915050565b60006020820190508181036000830152611c3f8184611bc7565b905092915050565b600067ffffffffffffffff821115611c6257611c61611613565b5b602082029050602081019050919050565b600080fd5b6000611c8b611c8684611c47565b611673565b90508083825260208201905060208402830185811115611cae57611cad611c73565b5b835b81811015611cf557803567ffffffffffffffff811115611cd357611cd26115f8565b5b808601611ce08982611710565b85526020850194505050602081019050611cb0565b5050509392505050565b600082601f830112611d1457611d136115f8565b5b8135611d24848260208601611c78565b91505092915050565b600067ffffffffffffffff821115611d4857611d47611613565b5b602082029050602081019050919050565b6000611d6c611d6784611d2d565b611673565b90508083825260208201905060208402830185811115611d8f57611d8e611c73565b5b835b81811015611db85780611da488826117e5565b845260208401935050602081019050611d91565b5050509392505050565b600082601f830112611dd757611dd66115f8565b5b8135611de7848260208601611d59565b91505092915050565b60008060008060808587031215611e0a57611e09611590565b5b6000611e18878288016115e3565b945050602085013567ffffffffffffffff811115611e3957611e38611595565b5b611e4587828801611cff565b935050604085013567ffffffffffffffff811115611e6657611e65611595565b5b611e7287828801611dc2565b925050606085013567ffffffffffffffff811115611e9357611e92611595565b5b611e9f87828801611dc2565b91505092959194509250565b600080600060608486031215611ec457611ec3611590565b5b6000611ed2868287016117e5565b935050602084013567ffffffffffffffff811115611ef357611ef2611595565b5b611eff86828701611710565b925050604084013567ffffffffffffffff811115611f2057611f1f611595565b5b611f2c86828701611912565b9150509250925092565b600081519050919050565b600081905092915050565b6000611f5782611f36565b611f618185611f41565b9350611f71818560208601611ae2565b80840191505092915050565b6000611f898284611f4c565b915081905092915050565b600081905092915050565b6000611faa82611ac6565b611fb48185611f94565b9350611fc4818560208601611ae2565b80840191505092915050565b6000611fdc8284611f9f565b915081905092915050565b7f4e487b7100000000000000000000000000000000000000000000000000000000600052601160045260246000fd5b60006120218261179a565b91507fffffffffffffffffffffffffffffffffffffffffffffffffffffffffffffffff820361205357612052611fe7565b5b600182019050919050565b7f4e487b7100000000000000000000000000000000000000000000000000000000600052602260045260246000fd5b600060028204905060018216806120a557607f821691505b6020821081036120b8576120b761205e565b5b50919050565b600082825260208201905092915050565b7f556e697175656e65737320766572696669636174696f6e206661696c65640000600082015250565b6000612105601e836120be565b9150612110826120cf565b602082019050919050565b60006020820190508181036000830152612134816120f8565b9050919050565b7f4e487b7100000000000000000000000000000000000000000000000000000000600052603260045260246000fd5b7f496e76616c696420706172616d65746572730000000000000000000000000000600082015250565b60006121a06012836120be565b91506121ab8261216a565b602082019050919050565b600060208201905081810360008301526121cf81612193565b9050919050565b7f73657446696c6564206572726f72000000000000000000000000000000000000600082015250565b600061220c600e836120be565b9150612217826121d6565b602082019050919050565b6000602082019050818103600083015261223b816121ff565b9050919050565b60008190508160005260206000209050919050565b600081546122648161208d565b61226e8186611f94565b94506001821660008114612289576001811461229e576122d1565b60ff19831686528115158202860193506122d1565b6122a785612242565b60005b838110156122c9578154818901526001820191506020810190506122aa565b838801955050505b50505092915050565b60006122e68284612257565b915081905092915050565b60006020601f8301049050919050565b600082821b905092915050565b60006008830261233e7fffffffffffffffffffffffffffffffffffffffffffffffffffffffffffffffff82612301565b6123488683612301565b95508019841693508086168417925050509392505050565b6000819050919050565b600061238561238061237b8461179a565b612360565b61179a565b9050919050565b6000819050919050565b61239f8361236a565b6123b36123ab8261238c565b84845461230e565b825550505050565b600090565b6123c86123bb565b6123d3818484612396565b505050565b5b818110156123f7576123ec6000826123c0565b6001810190506123d9565b5050565b601f82111561243c5761240d81612242565b612416846122f1565b81016020851015612425578190505b612439612431856122f1565b8301826123d8565b50505b505050565b600082821c905092915050565b600061245f60001984600802612441565b1980831691505092915050565b6000612478838361244e565b9150826002028217905092915050565b61249182611ac6565b67ffffffffffffffff8111156124aa576124a9611613565b5b6124b4825461208d565b6124bf8282856123fb565b600060209050601f8311600181146124f257600084156124e0578287015190505b6124ea858261246c565b865550612552565b601f19841661250086612242565b60005b8281101561252857848901518255600182019150602085019450602081019050612503565b868310156125455784890151612541601f89168261244e565b8355505b6001600288020188555050505b505050505050565b60006125658261179a565b91506125708361179a565b925082820190508082111561258857612587611fe7565b5b92915050565b60006125998261179a565b91506125a48361179a565b92508282039050818111156125bc576125bb611fe7565b5b92915050565b60006125cd8261179a565b91506125d88361179a565b92508282026125e68161179a565b915082820484148315176125fd576125fc611fe7565b5b5092915050565b60008160011c9050919050565b6000808291508390505b600185111561265b5780860481111561263757612636611fe7565b5b60018516156126465780820291505b808102905061265485612604565b945061261b565b94509492505050565b6000826126745760019050612730565b816126825760009050612730565b816001811461269857600281146126a2576126d1565b6001915050612730565b60ff8411156126b4576126b3611fe7565b5b8360020a9150848211156126cb576126ca611fe7565b5b50612730565b5060208310610133831016604e8410600b84101617156127065782820a90508381111561270157612700611fe7565b5b612730565b6127138484846001612611565b9250905081840481111561272a57612729611fe7565b5b81810290505b9392505050565b60006127428261179a565b915061274d8361179a565b925061277a7fffffffffffffffffffffffffffffffffffffffffffffffffffffffffffffffff8484612664565b90509291505056fea2646970667358221220da61260ec62fcf7b26c71f44e68d2ed9fb2766637e5d0c16fce2fc6856386d1e64736f6c63430008110033",
					"opcodes": "PUSH1 0x80 PUSH1 0x40 MSTORE CALLVALUE DUP1 ISZERO PUSH2 0x10 JUMPI PUSH1 0x0 DUP1 REVERT JUMPDEST POP PUSH2 0x27B8 DUP1 PUSH2 0x20 PUSH1 0x0 CODECOPY PUSH1 0x0 RETURN INVALID PUSH1 0x80 PUSH1 0x40 MSTORE CALLVALUE DUP1 ISZERO PUSH2 0x10 JUMPI PUSH1 0x0 DUP1 REVERT JUMPDEST POP PUSH1 0x4 CALLDATASIZE LT PUSH2 0x100 JUMPI PUSH1 0x0 CALLDATALOAD PUSH1 0xE0 SHR DUP1 PUSH4 0x8D7B2428 GT PUSH2 0x97 JUMPI DUP1 PUSH4 0xBA36CEFB GT PUSH2 0x66 JUMPI DUP1 PUSH4 0xBA36CEFB EQ PUSH2 0x345 JUMPI DUP1 PUSH4 0xC5DD2A4F EQ PUSH2 0x375 JUMPI DUP1 PUSH4 0xD4A419D3 EQ PUSH2 0x3A5 JUMPI DUP1 PUSH4 0xFB7CD6E4 EQ PUSH2 0x3D5 JUMPI PUSH2 0x100 JUMP JUMPDEST DUP1 PUSH4 0x8D7B2428 EQ PUSH2 0x285 JUMPI DUP1 PUSH4 0x9CA360F2 EQ PUSH2 0x2B5 JUMPI DUP1 PUSH4 0xAD487A2D EQ PUSH2 0x2E5 JUMPI DUP1 PUSH4 0xBA3258E3 EQ PUSH2 0x315 JUMPI PUSH2 0x100 JUMP JUMPDEST DUP1 PUSH4 0x642B4D08 GT PUSH2 0xD3 JUMPI DUP1 PUSH4 0x642B4D08 EQ PUSH2 0x1C5 JUMPI DUP1 PUSH4 0x6C8131A7 EQ PUSH2 0x1F5 JUMPI DUP1 PUSH4 0x74BDC66E EQ PUSH2 0x225 JUMPI DUP1 PUSH4 0x89274885 EQ PUSH2 0x255 JUMPI PUSH2 0x100 JUMP JUMPDEST DUP1 PUSH4 0x10976BDE EQ PUSH2 0x105 JUMPI DUP1 PUSH4 0x2942D3B0 EQ PUSH2 0x135 JUMPI DUP1 PUSH4 0x55290C1B EQ PUSH2 0x165 JUMPI DUP1 PUSH4 0x5F599F93 EQ PUSH2 0x195 JUMPI JUMPDEST PUSH1 0x0 DUP1 REVERT JUMPDEST PUSH2 0x11F PUSH1 0x4 DUP1 CALLDATASIZE SUB DUP2 ADD SWAP1 PUSH2 0x11A SWAP2 SWAP1 PUSH2 0x173E JUMP JUMPDEST PUSH2 0x405 JUMP JUMPDEST PUSH1 0x40 MLOAD PUSH2 0x12C SWAP2 SWAP1 PUSH2 0x17B3 JUMP JUMPDEST PUSH1 0x40 MLOAD DUP1 SWAP2 SUB SWAP1 RETURN JUMPDEST PUSH2 0x14F PUSH1 0x4 DUP1 CALLDATASIZE SUB DUP2 ADD SWAP1 PUSH2 0x14A SWAP2 SWAP1 PUSH2 0x17FA JUMP JUMPDEST PUSH2 0x46B JUMP JUMPDEST PUSH1 0x40 MLOAD PUSH2 0x15C SWAP2 SWAP1 PUSH2 0x1884 JUMP JUMPDEST PUSH1 0x40 MLOAD DUP1 SWAP2 SUB SWAP1 RETURN JUMPDEST PUSH2 0x17F PUSH1 0x4 DUP1 CALLDATASIZE SUB DUP2 ADD SWAP1 PUSH2 0x17A SWAP2 SWAP1 PUSH2 0x1940 JUMP JUMPDEST PUSH2 0x486 JUMP JUMPDEST PUSH1 0x40 MLOAD PUSH2 0x18C SWAP2 SWAP1 PUSH2 0x1884 JUMP JUMPDEST PUSH1 0x40 MLOAD DUP1 SWAP2 SUB SWAP1 RETURN JUMPDEST PUSH2 0x1AF PUSH1 0x4 DUP1 CALLDATASIZE SUB DUP2 ADD SWAP1 PUSH2 0x1AA SWAP2 SWAP1 PUSH2 0x19DF JUMP JUMPDEST PUSH2 0x4A3 JUMP JUMPDEST PUSH1 0x40 MLOAD PUSH2 0x1BC SWAP2 SWAP1 PUSH2 0x17B3 JUMP JUMPDEST PUSH1 0x40 MLOAD DUP1 SWAP2 SUB SWAP1 RETURN JUMPDEST PUSH2 0x1DF PUSH1 0x4 DUP1 CALLDATASIZE SUB DUP2 ADD SWAP1 PUSH2 0x1DA SWAP2 SWAP1 PUSH2 0x1A3B JUMP JUMPDEST PUSH2 0x4DD JUMP JUMPDEST PUSH1 0x40 MLOAD PUSH2 0x1EC SWAP2 SWAP1 PUSH2 0x1884 JUMP JUMPDEST PUSH1 0x40 MLOAD DUP1 SWAP2 SUB SWAP1 RETURN JUMPDEST PUSH2 0x20F PUSH1 0x4 DUP1 CALLDATASIZE SUB DUP2 ADD SWAP1 PUSH2 0x20A SWAP2 SWAP1 PUSH2 0x19DF JUMP JUMPDEST PUSH2 0x56D JUMP JUMPDEST PUSH1 0x40 MLOAD PUSH2 0x21C SWAP2 SWAP1 PUSH2 0x1884 JUMP JUMPDEST PUSH1 0x40 MLOAD DUP1 SWAP2 SUB SWAP1 RETURN JUMPDEST PUSH2 0x23F PUSH1 0x4 DUP1 CALLDATASIZE SUB DUP2 ADD SWAP1 PUSH2 0x23A SWAP2 SWAP1 PUSH2 0x17FA JUMP JUMPDEST PUSH2 0x64B JUMP JUMPDEST PUSH1 0x40 MLOAD PUSH2 0x24C SWAP2 SWAP1 PUSH2 0x1B45 JUMP JUMPDEST PUSH1 0x40 MLOAD DUP1 SWAP2 SUB SWAP1 RETURN JUMPDEST PUSH2 0x26F PUSH1 0x4 DUP1 CALLDATASIZE SUB DUP2 ADD SWAP1 PUSH2 0x26A SWAP2 SWAP1 PUSH2 0x1A3B JUMP JUMPDEST PUSH2 0x74B JUMP JUMPDEST PUSH1 0x40 MLOAD PUSH2 0x27C SWAP2 SWAP1 PUSH2 0x1884 JUMP JUMPDEST PUSH1 0x40 MLOAD DUP1 SWAP2 SUB SWAP1 RETURN JUMPDEST PUSH2 0x29F PUSH1 0x4 DUP1 CALLDATASIZE SUB DUP2 ADD SWAP1 PUSH2 0x29A SWAP2 SWAP1 PUSH2 0x19DF JUMP JUMPDEST PUSH2 0x8B4 JUMP JUMPDEST PUSH1 0x40 MLOAD PUSH2 0x2AC SWAP2 SWAP1 PUSH2 0x1C25 JUMP JUMPDEST PUSH1 0x40 MLOAD DUP1 SWAP2 SUB SWAP1 RETURN JUMPDEST PUSH2 0x2CF PUSH1 0x4 DUP1 CALLDATASIZE SUB DUP2 ADD SWAP1 PUSH2 0x2CA SWAP2 SWAP1 PUSH2 0x1DF0 JUMP JUMPDEST PUSH2 0xA57 JUMP JUMPDEST PUSH1 0x40 MLOAD PUSH2 0x2DC SWAP2 SWAP1 PUSH2 0x1884 JUMP JUMPDEST PUSH1 0x40 MLOAD DUP1 SWAP2 SUB SWAP1 RETURN JUMPDEST PUSH2 0x2FF PUSH1 0x4 DUP1 CALLDATASIZE SUB DUP2 ADD SWAP1 PUSH2 0x2FA SWAP2 SWAP1 PUSH2 0x1EAB JUMP JUMPDEST PUSH2 0xBC7 JUMP JUMPDEST PUSH1 0x40 MLOAD PUSH2 0x30C SWAP2 SWAP1 PUSH2 0x1884 JUMP JUMPDEST PUSH1 0x40 MLOAD DUP1 SWAP2 SUB SWAP1 RETURN JUMPDEST PUSH2 0x32F PUSH1 0x4 DUP1 CALLDATASIZE SUB DUP2 ADD SWAP1 PUSH2 0x32A SWAP2 SWAP1 PUSH2 0x173E JUMP JUMPDEST PUSH2 0xE1D JUMP JUMPDEST PUSH1 0x40 MLOAD PUSH2 0x33C SWAP2 SWAP1 PUSH2 0x1884 JUMP JUMPDEST PUSH1 0x40 MLOAD DUP1 SWAP2 SUB SWAP1 RETURN JUMPDEST PUSH2 0x35F PUSH1 0x4 DUP1 CALLDATASIZE SUB DUP2 ADD SWAP1 PUSH2 0x35A SWAP2 SWAP1 PUSH2 0x1A3B JUMP JUMPDEST PUSH2 0xE36 JUMP JUMPDEST PUSH1 0x40 MLOAD PUSH2 0x36C SWAP2 SWAP1 PUSH2 0x1884 JUMP JUMPDEST PUSH1 0x40 MLOAD DUP1 SWAP2 SUB SWAP1 RETURN JUMPDEST PUSH2 0x38F PUSH1 0x4 DUP1 CALLDATASIZE SUB DUP2 ADD SWAP1 PUSH2 0x38A SWAP2 SWAP1 PUSH2 0x1EAB JUMP JUMPDEST PUSH2 0xF19 JUMP JUMPDEST PUSH1 0x40 MLOAD PUSH2 0x39C SWAP2 SWAP1 PUSH2 0x1884 JUMP JUMPDEST PUSH1 0x40 MLOAD DUP1 SWAP2 SUB SWAP1 RETURN JUMPDEST PUSH2 0x3BF PUSH1 0x4 DUP1 CALLDATASIZE SUB DUP2 ADD SWAP1 PUSH2 0x3BA SWAP2 SWAP1 PUSH2 0x1EAB JUMP JUMPDEST PUSH2 0xFE7 JUMP JUMPDEST PUSH1 0x40 MLOAD PUSH2 0x3CC SWAP2 SWAP1 PUSH2 0x1884 JUMP JUMPDEST PUSH1 0x40 MLOAD DUP1 SWAP2 SUB SWAP1 RETURN JUMPDEST PUSH2 0x3EF PUSH1 0x4 DUP1 CALLDATASIZE SUB DUP2 ADD SWAP1 PUSH2 0x3EA SWAP2 SWAP1 PUSH2 0x173E JUMP JUMPDEST PUSH2 0x10BD JUMP JUMPDEST PUSH1 0x40 MLOAD PUSH2 0x3FC SWAP2 SWAP1 PUSH2 0x17B3 JUMP JUMPDEST PUSH1 0x40 MLOAD DUP1 SWAP2 SUB SWAP1 RETURN JUMPDEST PUSH1 0x0 PUSH1 0x2 PUSH1 0x0 DUP5 PUSH20 0xFFFFFFFFFFFFFFFFFFFFFFFFFFFFFFFFFFFFFFFF AND PUSH20 0xFFFFFFFFFFFFFFFFFFFFFFFFFFFFFFFFFFFFFFFF AND DUP2 MSTORE PUSH1 0x20 ADD SWAP1 DUP2 MSTORE PUSH1 0x20 ADD PUSH1 0x0 KECCAK256 DUP3 PUSH1 0x40 MLOAD PUSH2 0x454 SWAP2 SWAP1 PUSH2 0x1F7D JUMP JUMPDEST SWAP1 DUP2 MSTORE PUSH1 0x20 ADD PUSH1 0x40 MLOAD DUP1 SWAP2 SUB SWAP1 KECCAK256 SLOAD SWAP1 POP SWAP3 SWAP2 POP POP JUMP JUMPDEST PUSH1 0x0 DUP1 PUSH2 0x479 DUP6 DUP6 DUP6 PUSH2 0x1123 JUMP JUMPDEST SWAP1 POP DUP1 SWAP2 POP POP SWAP4 SWAP3 POP POP POP JUMP JUMPDEST PUSH1 0x0 DUP1 PUSH2 0x495 DUP7 DUP7 DUP7 DUP7 PUSH2 0x11A8 JUMP JUMPDEST SWAP1 POP DUP1 SWAP2 POP POP SWAP5 SWAP4 POP POP POP POP JUMP JUMPDEST PUSH1 0x0 PUSH1 0x5 PUSH1 0x0 DUP5 DUP2 MSTORE PUSH1 0x20 ADD SWAP1 DUP2 MSTORE PUSH1 0x20 ADD PUSH1 0x0 KECCAK256 DUP3 PUSH1 0x40 MLOAD PUSH2 0x4C6 SWAP2 SWAP1 PUSH2 0x1F7D JUMP JUMPDEST SWAP1 DUP2 MSTORE PUSH1 0x20 ADD PUSH1 0x40 MLOAD DUP1 SWAP2 SUB SWAP1 KECCAK256 SLOAD SWAP1 POP SWAP3 SWAP2 POP POP JUMP JUMPDEST PUSH1 0x0 PUSH1 0x4 PUSH1 0x0 DUP6 PUSH20 0xFFFFFFFFFFFFFFFFFFFFFFFFFFFFFFFFFFFFFFFF AND PUSH20 0xFFFFFFFFFFFFFFFFFFFFFFFFFFFFFFFFFFFFFFFF AND DUP2 MSTORE PUSH1 0x20 ADD SWAP1 DUP2 MSTORE PUSH1 0x20 ADD PUSH1 0x0 KECCAK256 DUP4 PUSH1 0x40 MLOAD PUSH2 0x52C SWAP2 SWAP1 PUSH2 0x1F7D JUMP JUMPDEST SWAP1 DUP2 MSTORE PUSH1 0x20 ADD PUSH1 0x40 MLOAD DUP1 SWAP2 SUB SWAP1 KECCAK256 DUP3 PUSH1 0x40 MLOAD PUSH2 0x548 SWAP2 SWAP1 PUSH2 0x1FD0 JUMP JUMPDEST SWAP1 DUP2 MSTORE PUSH1 0x20 ADD PUSH1 0x40 MLOAD DUP1 SWAP2 SUB SWAP1 KECCAK256 PUSH1 0x0 SWAP1 SLOAD SWAP1 PUSH2 0x100 EXP SWAP1 DIV PUSH1 0xFF AND SWAP1 POP SWAP4 SWAP3 POP POP POP JUMP JUMPDEST PUSH1 0x0 DUP1 PUSH1 0x5 PUSH1 0x0 DUP6 DUP2 MSTORE PUSH1 0x20 ADD SWAP1 DUP2 MSTORE PUSH1 0x20 ADD PUSH1 0x0 KECCAK256 DUP4 PUSH1 0x40 MLOAD PUSH2 0x591 SWAP2 SWAP1 PUSH2 0x1F7D JUMP JUMPDEST SWAP1 DUP2 MSTORE PUSH1 0x20 ADD PUSH1 0x40 MLOAD DUP1 SWAP2 SUB SWAP1 KECCAK256 SLOAD SWAP1 POP PUSH1 0x0 JUMPDEST DUP2 DUP2 LT ISZERO PUSH2 0x60C JUMPI PUSH1 0x6 PUSH1 0x0 DUP7 DUP2 MSTORE PUSH1 0x20 ADD SWAP1 DUP2 MSTORE PUSH1 0x20 ADD PUSH1 0x0 KECCAK256 DUP5 PUSH1 0x40 MLOAD PUSH2 0x5CE SWAP2 SWAP1 PUSH2 0x1F7D JUMP JUMPDEST SWAP1 DUP2 MSTORE PUSH1 0x20 ADD PUSH1 0x40 MLOAD DUP1 SWAP2 SUB SWAP1 KECCAK256 PUSH1 0x0 DUP3 DUP2 MSTORE PUSH1 0x20 ADD SWAP1 DUP2 MSTORE PUSH1 0x20 ADD PUSH1 0x0 KECCAK256 PUSH1 0x0 PUSH2 0x5F9 SWAP2 SWAP1 PUSH2 0x1529 JUMP JUMPDEST DUP1 DUP1 PUSH2 0x604 SWAP1 PUSH2 0x2016 JUMP JUMPDEST SWAP2 POP POP PUSH2 0x5A5 JUMP JUMPDEST POP PUSH1 0x5 PUSH1 0x0 DUP6 DUP2 MSTORE PUSH1 0x20 ADD SWAP1 DUP2 MSTORE PUSH1 0x20 ADD PUSH1 0x0 KECCAK256 DUP4 PUSH1 0x40 MLOAD PUSH2 0x62E SWAP2 SWAP1 PUSH2 0x1F7D JUMP JUMPDEST SWAP1 DUP2 MSTORE PUSH1 0x20 ADD PUSH1 0x40 MLOAD DUP1 SWAP2 SUB SWAP1 KECCAK256 PUSH1 0x0 SWAP1 SSTORE PUSH1 0x1 SWAP2 POP POP SWAP3 SWAP2 POP POP JUMP JUMPDEST PUSH1 0x60 PUSH1 0x1 PUSH1 0x0 DUP6 PUSH20 0xFFFFFFFFFFFFFFFFFFFFFFFFFFFFFFFFFFFFFFFF AND PUSH20 0xFFFFFFFFFFFFFFFFFFFFFFFFFFFFFFFFFFFFFFFF AND DUP2 MSTORE PUSH1 0x20 ADD SWAP1 DUP2 MSTORE PUSH1 0x20 ADD PUSH1 0x0 KECCAK256 PUSH1 0x0 DUP5 DUP2 MSTORE PUSH1 0x20 ADD SWAP1 DUP2 MSTORE PUSH1 0x20 ADD PUSH1 0x0 KECCAK256 DUP3 PUSH1 0x40 MLOAD PUSH2 0x6AB SWAP2 SWAP1 PUSH2 0x1F7D JUMP JUMPDEST SWAP1 DUP2 MSTORE PUSH1 0x20 ADD PUSH1 0x40 MLOAD DUP1 SWAP2 SUB SWAP1 KECCAK256 DUP1 SLOAD PUSH2 0x6C4 SWAP1 PUSH2 0x208D JUMP JUMPDEST DUP1 PUSH1 0x1F ADD PUSH1 0x20 DUP1 SWAP2 DIV MUL PUSH1 0x20 ADD PUSH1 0x40 MLOAD SWAP1 DUP2 ADD PUSH1 0x40 MSTORE DUP1 SWAP3 SWAP2 SWAP1 DUP2 DUP2 MSTORE PUSH1 0x20 ADD DUP3 DUP1 SLOAD PUSH2 0x6F0 SWAP1 PUSH2 0x208D JUMP JUMPDEST DUP1 ISZERO PUSH2 0x73D JUMPI DUP1 PUSH1 0x1F LT PUSH2 0x712 JUMPI PUSH2 0x100 DUP1 DUP4 SLOAD DIV MUL DUP4 MSTORE SWAP2 PUSH1 0x20 ADD SWAP2 PUSH2 0x73D JUMP JUMPDEST DUP3 ADD SWAP2 SWAP1 PUSH1 0x0 MSTORE PUSH1 0x20 PUSH1 0x0 KECCAK256 SWAP1 JUMPDEST DUP2 SLOAD DUP2 MSTORE SWAP1 PUSH1 0x1 ADD SWAP1 PUSH1 0x20 ADD DUP1 DUP4 GT PUSH2 0x720 JUMPI DUP3 SWAP1 SUB PUSH1 0x1F AND DUP3 ADD SWAP2 JUMPDEST POP POP POP POP POP SWAP1 POP SWAP4 SWAP3 POP POP POP JUMP JUMPDEST PUSH1 0x0 PUSH1 0x4 PUSH1 0x0 DUP6 PUSH20 0xFFFFFFFFFFFFFFFFFFFFFFFFFFFFFFFFFFFFFFFF AND PUSH20 0xFFFFFFFFFFFFFFFFFFFFFFFFFFFFFFFFFFFFFFFF AND DUP2 MSTORE PUSH1 0x20 ADD SWAP1 DUP2 MSTORE PUSH1 0x20 ADD PUSH1 0x0 KECCAK256 DUP4 PUSH1 0x40 MLOAD PUSH2 0x79A SWAP2 SWAP1 PUSH2 0x1F7D JUMP JUMPDEST SWAP1 DUP2 MSTORE PUSH1 0x20 ADD PUSH1 0x40 MLOAD DUP1 SWAP2 SUB SWAP1 KECCAK256 DUP3 PUSH1 0x40 MLOAD PUSH2 0x7B6 SWAP2 SWAP1 PUSH2 0x1FD0 JUMP JUMPDEST SWAP1 DUP2 MSTORE PUSH1 0x20 ADD PUSH1 0x40 MLOAD DUP1 SWAP2 SUB SWAP1 KECCAK256 PUSH1 0x0 SWAP1 SLOAD SWAP1 PUSH2 0x100 EXP SWAP1 DIV PUSH1 0xFF AND PUSH2 0x811 JUMPI PUSH1 0x40 MLOAD PUSH32 0x8C379A000000000000000000000000000000000000000000000000000000000 DUP2 MSTORE PUSH1 0x4 ADD PUSH2 0x808 SWAP1 PUSH2 0x211B JUMP JUMPDEST PUSH1 0x40 MLOAD DUP1 SWAP2 SUB SWAP1 REVERT JUMPDEST PUSH1 0x0 PUSH2 0x820 DUP6 DUP6 DUP6 PUSH1 0x0 PUSH2 0x1230 JUMP JUMPDEST SWAP1 POP PUSH1 0x4 PUSH1 0x0 DUP7 PUSH20 0xFFFFFFFFFFFFFFFFFFFFFFFFFFFFFFFFFFFFFFFF AND PUSH20 0xFFFFFFFFFFFFFFFFFFFFFFFFFFFFFFFFFFFFFFFF AND DUP2 MSTORE PUSH1 0x20 ADD SWAP1 DUP2 MSTORE PUSH1 0x20 ADD PUSH1 0x0 KECCAK256 DUP5 PUSH1 0x40 MLOAD PUSH2 0x86F SWAP2 SWAP1 PUSH2 0x1F7D JUMP JUMPDEST SWAP1 DUP2 MSTORE PUSH1 0x20 ADD PUSH1 0x40 MLOAD DUP1 SWAP2 SUB SWAP1 KECCAK256 DUP4 PUSH1 0x40 MLOAD PUSH2 0x88B SWAP2 SWAP1 PUSH2 0x1FD0 JUMP JUMPDEST SWAP1 DUP2 MSTORE PUSH1 0x20 ADD PUSH1 0x40 MLOAD DUP1 SWAP2 SUB SWAP1 KECCAK256 PUSH1 0x0 PUSH2 0x100 EXP DUP2 SLOAD SWAP1 PUSH1 0xFF MUL NOT AND SWAP1 SSTORE DUP1 SWAP2 POP POP SWAP4 SWAP3 POP POP POP JUMP JUMPDEST PUSH1 0x60 PUSH1 0x0 PUSH1 0x5 PUSH1 0x0 DUP6 DUP2 MSTORE PUSH1 0x20 ADD SWAP1 DUP2 MSTORE PUSH1 0x20 ADD PUSH1 0x0 KECCAK256 DUP4 PUSH1 0x40 MLOAD PUSH2 0x8D9 SWAP2 SWAP1 PUSH2 0x1F7D JUMP JUMPDEST SWAP1 DUP2 MSTORE PUSH1 0x20 ADD PUSH1 0x40 MLOAD DUP1 SWAP2 SUB SWAP1 KECCAK256 SLOAD SWAP1 POP PUSH1 0x0 DUP2 PUSH8 0xFFFFFFFFFFFFFFFF DUP2 GT ISZERO PUSH2 0x906 JUMPI PUSH2 0x905 PUSH2 0x1613 JUMP JUMPDEST JUMPDEST PUSH1 0x40 MLOAD SWAP1 DUP1 DUP3 MSTORE DUP1 PUSH1 0x20 MUL PUSH1 0x20 ADD DUP3 ADD PUSH1 0x40 MSTORE DUP1 ISZERO PUSH2 0x934 JUMPI DUP2 PUSH1 0x20 ADD PUSH1 0x20 DUP3 MUL DUP1 CALLDATASIZE DUP4 CALLDATACOPY DUP1 DUP3 ADD SWAP2 POP POP SWAP1 POP JUMPDEST POP SWAP1 POP PUSH1 0x0 JUMPDEST DUP3 DUP2 LT ISZERO PUSH2 0xA4B JUMPI PUSH1 0x0 PUSH1 0x6 PUSH1 0x0 DUP9 DUP2 MSTORE PUSH1 0x20 ADD SWAP1 DUP2 MSTORE PUSH1 0x20 ADD PUSH1 0x0 KECCAK256 DUP7 PUSH1 0x40 MLOAD PUSH2 0x965 SWAP2 SWAP1 PUSH2 0x1F7D JUMP JUMPDEST SWAP1 DUP2 MSTORE PUSH1 0x20 ADD PUSH1 0x40 MLOAD DUP1 SWAP2 SUB SWAP1 KECCAK256 PUSH1 0x0 DUP4 DUP2 MSTORE PUSH1 0x20 ADD SWAP1 DUP2 MSTORE PUSH1 0x20 ADD PUSH1 0x0 KECCAK256 DUP1 SLOAD PUSH2 0x98F SWAP1 PUSH2 0x208D JUMP JUMPDEST DUP1 PUSH1 0x1F ADD PUSH1 0x20 DUP1 SWAP2 DIV MUL PUSH1 0x20 ADD PUSH1 0x40 MLOAD SWAP1 DUP2 ADD PUSH1 0x40 MSTORE DUP1 SWAP3 SWAP2 SWAP1 DUP2 DUP2 MSTORE PUSH1 0x20 ADD DUP3 DUP1 SLOAD PUSH2 0x9BB SWAP1 PUSH2 0x208D JUMP JUMPDEST DUP1 ISZERO PUSH2 0xA08 JUMPI DUP1 PUSH1 0x1F LT PUSH2 0x9DD JUMPI PUSH2 0x100 DUP1 DUP4 SLOAD DIV MUL DUP4 MSTORE SWAP2 PUSH1 0x20 ADD SWAP2 PUSH2 0xA08 JUMP JUMPDEST DUP3 ADD SWAP2 SWAP1 PUSH1 0x0 MSTORE PUSH1 0x20 PUSH1 0x0 KECCAK256 SWAP1 JUMPDEST DUP2 SLOAD DUP2 MSTORE SWAP1 PUSH1 0x1 ADD SWAP1 PUSH1 0x20 ADD DUP1 DUP4 GT PUSH2 0x9EB JUMPI DUP3 SWAP1 SUB PUSH1 0x1F AND DUP3 ADD SWAP2 JUMPDEST POP POP POP POP POP SWAP1 POP PUSH2 0xA18 DUP2 PUSH2 0x12CD JUMP JUMPDEST DUP4 DUP4 DUP2 MLOAD DUP2 LT PUSH2 0xA2B JUMPI PUSH2 0xA2A PUSH2 0x213B JUMP JUMPDEST JUMPDEST PUSH1 0x20 MUL PUSH1 0x20 ADD ADD DUP2 DUP2 MSTORE POP POP POP DUP1 DUP1 PUSH2 0xA43 SWAP1 PUSH2 0x2016 JUMP JUMPDEST SWAP2 POP POP PUSH2 0x93A JUMP JUMPDEST POP DUP1 SWAP3 POP POP POP SWAP3 SWAP2 POP POP JUMP JUMPDEST PUSH1 0x0 DUP1 DUP5 MLOAD GT DUP1 ISZERO PUSH2 0xA6C JUMPI POP PUSH2 0x100 DUP5 MLOAD GT ISZERO JUMPDEST PUSH2 0xAAB JUMPI PUSH1 0x40 MLOAD PUSH32 0x8C379A000000000000000000000000000000000000000000000000000000000 DUP2 MSTORE PUSH1 0x4 ADD PUSH2 0xAA2 SWAP1 PUSH2 0x21B6 JUMP JUMPDEST PUSH1 0x40 MLOAD DUP1 SWAP2 SUB SWAP1 REVERT JUMPDEST DUP3 MLOAD DUP5 MLOAD EQ DUP1 ISZERO PUSH2 0xABD JUMPI POP DUP2 MLOAD DUP5 MLOAD EQ JUMPDEST PUSH2 0xAFC JUMPI PUSH1 0x40 MLOAD PUSH32 0x8C379A000000000000000000000000000000000000000000000000000000000 DUP2 MSTORE PUSH1 0x4 ADD PUSH2 0xAF3 SWAP1 PUSH2 0x21B6 JUMP JUMPDEST PUSH1 0x40 MLOAD DUP1 SWAP2 SUB SWAP1 REVERT JUMPDEST PUSH1 0x0 JUMPDEST DUP5 MLOAD DUP2 LT ISZERO PUSH2 0xBBA JUMPI PUSH1 0x0 PUSH2 0xB64 DUP8 DUP8 DUP5 DUP2 MLOAD DUP2 LT PUSH2 0xB21 JUMPI PUSH2 0xB20 PUSH2 0x213B JUMP JUMPDEST JUMPDEST PUSH1 0x20 MUL PUSH1 0x20 ADD ADD MLOAD DUP8 DUP6 DUP2 MLOAD DUP2 LT PUSH2 0xB3C JUMPI PUSH2 0xB3B PUSH2 0x213B JUMP JUMPDEST JUMPDEST PUSH1 0x20 MUL PUSH1 0x20 ADD ADD MLOAD DUP8 DUP7 DUP2 MLOAD DUP2 LT PUSH2 0xB57 JUMPI PUSH2 0xB56 PUSH2 0x213B JUMP JUMPDEST JUMPDEST PUSH1 0x20 MUL PUSH1 0x20 ADD ADD MLOAD PUSH2 0x1365 JUMP JUMPDEST SWAP1 POP DUP1 PUSH2 0xBA6 JUMPI PUSH1 0x40 MLOAD PUSH32 0x8C379A000000000000000000000000000000000000000000000000000000000 DUP2 MSTORE PUSH1 0x4 ADD PUSH2 0xB9D SWAP1 PUSH2 0x2222 JUMP JUMPDEST PUSH1 0x40 MLOAD DUP1 SWAP2 SUB SWAP1 REVERT JUMPDEST POP DUP1 DUP1 PUSH2 0xBB2 SWAP1 PUSH2 0x2016 JUMP JUMPDEST SWAP2 POP POP PUSH2 0xAFF JUMP JUMPDEST POP PUSH1 0x1 SWAP1 POP SWAP5 SWAP4 POP POP POP POP JUMP JUMPDEST PUSH1 0x0 DUP1 PUSH1 0x5 PUSH1 0x0 DUP7 DUP2 MSTORE PUSH1 0x20 ADD SWAP1 DUP2 MSTORE PUSH1 0x20 ADD PUSH1 0x0 KECCAK256 DUP5 PUSH1 0x40 MLOAD PUSH2 0xBEB SWAP2 SWAP1 PUSH2 0x1F7D JUMP JUMPDEST SWAP1 DUP2 MSTORE PUSH1 0x20 ADD PUSH1 0x40 MLOAD DUP1 SWAP2 SUB SWAP1 KECCAK256 SLOAD SWAP1 POP PUSH1 0x0 DUP1 PUSH1 0x0 SWAP1 POP JUMPDEST DUP3 DUP2 LT ISZERO PUSH2 0xDC1 JUMPI PUSH1 0x6 PUSH1 0x0 DUP9 DUP2 MSTORE PUSH1 0x20 ADD SWAP1 DUP2 MSTORE PUSH1 0x20 ADD PUSH1 0x0 KECCAK256 DUP7 PUSH1 0x40 MLOAD PUSH2 0xC2D SWAP2 SWAP1 PUSH2 0x1F7D JUMP JUMPDEST SWAP1 DUP2 MSTORE PUSH1 0x20 ADD PUSH1 0x40 MLOAD DUP1 SWAP2 SUB SWAP1 KECCAK256 PUSH1 0x0 DUP3 DUP2 MSTORE PUSH1 0x20 ADD SWAP1 DUP2 MSTORE PUSH1 0x20 ADD PUSH1 0x0 KECCAK256 PUSH1 0x40 MLOAD PUSH2 0xC59 SWAP2 SWAP1 PUSH2 0x22DA JUMP JUMPDEST PUSH1 0x40 MLOAD DUP1 SWAP2 SUB SWAP1 KECCAK256 DUP6 DUP1 MLOAD SWAP1 PUSH1 0x20 ADD KECCAK256 SUB PUSH2 0xC77 JUMPI PUSH1 0x1 SWAP2 POP PUSH2 0xDAE JUMP JUMPDEST DUP2 ISZERO PUSH2 0xDAD JUMPI PUSH1 0x0 PUSH1 0x6 PUSH1 0x0 DUP10 DUP2 MSTORE PUSH1 0x20 ADD SWAP1 DUP2 MSTORE PUSH1 0x20 ADD PUSH1 0x0 KECCAK256 DUP8 PUSH1 0x40 MLOAD PUSH2 0xCA0 SWAP2 SWAP1 PUSH2 0x1F7D JUMP JUMPDEST SWAP1 DUP2 MSTORE PUSH1 0x20 ADD PUSH1 0x40 MLOAD DUP1 SWAP2 SUB SWAP1 KECCAK256 PUSH1 0x0 DUP4 DUP2 MSTORE PUSH1 0x20 ADD SWAP1 DUP2 MSTORE PUSH1 0x20 ADD PUSH1 0x0 KECCAK256 DUP1 SLOAD PUSH2 0xCCA SWAP1 PUSH2 0x208D JUMP JUMPDEST DUP1 PUSH1 0x1F ADD PUSH1 0x20 DUP1 SWAP2 DIV MUL PUSH1 0x20 ADD PUSH1 0x40 MLOAD SWAP1 DUP2 ADD PUSH1 0x40 MSTORE DUP1 SWAP3 SWAP2 SWAP1 DUP2 DUP2 MSTORE PUSH1 0x20 ADD DUP3 DUP1 SLOAD PUSH2 0xCF6 SWAP1 PUSH2 0x208D JUMP JUMPDEST DUP1 ISZERO PUSH2 0xD43 JUMPI DUP1 PUSH1 0x1F LT PUSH2 0xD18 JUMPI PUSH2 0x100 DUP1 DUP4 SLOAD DIV MUL DUP4 MSTORE SWAP2 PUSH1 0x20 ADD SWAP2 PUSH2 0xD43 JUMP JUMPDEST DUP3 ADD SWAP2 SWAP1 PUSH1 0x0 MSTORE PUSH1 0x20 PUSH1 0x0 KECCAK256 SWAP1 JUMPDEST DUP2 SLOAD DUP2 MSTORE SWAP1 PUSH1 0x1 ADD SWAP1 PUSH1 0x20 ADD DUP1 DUP4 GT PUSH2 0xD26 JUMPI DUP3 SWAP1 SUB PUSH1 0x1F AND DUP3 ADD SWAP2 JUMPDEST POP POP POP POP POP SWAP1 POP DUP1 PUSH1 0x6 PUSH1 0x0 DUP11 DUP2 MSTORE PUSH1 0x20 ADD SWAP1 DUP2 MSTORE PUSH1 0x20 ADD PUSH1 0x0 KECCAK256 DUP9 PUSH1 0x40 MLOAD PUSH2 0xD6C SWAP2 SWAP1 PUSH2 0x1F7D JUMP JUMPDEST SWAP1 DUP2 MSTORE PUSH1 0x20 ADD PUSH1 0x40 MLOAD DUP1 SWAP2 SUB SWAP1 KECCAK256 PUSH1 0x0 PUSH2 0xD90 PUSH1 0x1 DUP7 PUSH2 0x1433 SWAP1 SWAP2 SWAP1 PUSH4 0xFFFFFFFF AND JUMP JUMPDEST DUP2 MSTORE PUSH1 0x20 ADD SWAP1 DUP2 MSTORE PUSH1 0x20 ADD PUSH1 0x0 KECCAK256 SWAP1 DUP2 PUSH2 0xDAA SWAP2 SWAP1 PUSH2 0x2488 JUMP JUMPDEST POP POP JUMPDEST JUMPDEST DUP1 DUP1 PUSH2 0xDB9 SWAP1 PUSH2 0x2016 JUMP JUMPDEST SWAP2 POP POP PUSH2 0xC04 JUMP JUMPDEST POP DUP1 ISZERO PUSH2 0xE10 JUMPI PUSH2 0xDDC PUSH1 0x1 DUP4 PUSH2 0x1433 SWAP1 SWAP2 SWAP1 PUSH4 0xFFFFFFFF AND JUMP JUMPDEST PUSH1 0x5 PUSH1 0x0 DUP9 DUP2 MSTORE PUSH1 0x20 ADD SWAP1 DUP2 MSTORE PUSH1 0x20 ADD PUSH1 0x0 KECCAK256 DUP7 PUSH1 0x40 MLOAD PUSH2 0xDFD SWAP2 SWAP1 PUSH2 0x1F7D JUMP JUMPDEST SWAP1 DUP2 MSTORE PUSH1 0x20 ADD PUSH1 0x40 MLOAD DUP1 SWAP2 SUB SWAP1 KECCAK256 DUP2 SWAP1 SSTORE POP JUMPDEST PUSH1 0x1 SWAP3 POP POP POP SWAP4 SWAP3 POP POP POP JUMP JUMPDEST PUSH1 0x0 DUP1 PUSH2 0xE2A DUP5 DUP5 PUSH2 0x1449 JUMP JUMPDEST SWAP1 POP DUP1 SWAP2 POP POP SWAP3 SWAP2 POP POP JUMP JUMPDEST PUSH1 0x0 PUSH1 0x4 PUSH1 0x0 DUP6 PUSH20 0xFFFFFFFFFFFFFFFFFFFFFFFFFFFFFFFFFFFFFFFF AND PUSH20 0xFFFFFFFFFFFFFFFFFFFFFFFFFFFFFFFFFFFFFFFF AND DUP2 MSTORE PUSH1 0x20 ADD SWAP1 DUP2 MSTORE PUSH1 0x20 ADD PUSH1 0x0 KECCAK256 DUP4 PUSH1 0x40 MLOAD PUSH2 0xE85 SWAP2 SWAP1 PUSH2 0x1F7D JUMP JUMPDEST SWAP1 DUP2 MSTORE PUSH1 0x20 ADD PUSH1 0x40 MLOAD DUP1 SWAP2 SUB SWAP1 KECCAK256 DUP3 PUSH1 0x40 MLOAD PUSH2 0xEA1 SWAP2 SWAP1 PUSH2 0x1FD0 JUMP JUMPDEST SWAP1 DUP2 MSTORE PUSH1 0x20 ADD PUSH1 0x40 MLOAD DUP1 SWAP2 SUB SWAP1 KECCAK256 PUSH1 0x0 SWAP1 SLOAD SWAP1 PUSH2 0x100 EXP SWAP1 DIV PUSH1 0xFF AND ISZERO PUSH2 0xEFD JUMPI PUSH1 0x40 MLOAD PUSH32 0x8C379A000000000000000000000000000000000000000000000000000000000 DUP2 MSTORE PUSH1 0x4 ADD PUSH2 0xEF4 SWAP1 PUSH2 0x211B JUMP JUMPDEST PUSH1 0x40 MLOAD DUP1 SWAP2 SUB SWAP1 REVERT JUMPDEST PUSH1 0x0 PUSH2 0xF0C DUP6 DUP6 DUP6 PUSH1 0x1 PUSH2 0x1230 JUMP JUMPDEST SWAP1 POP DUP1 SWAP2 POP POP SWAP4 SWAP3 POP POP POP JUMP JUMPDEST PUSH1 0x0 DUP1 PUSH1 0x5 PUSH1 0x0 DUP7 DUP2 MSTORE PUSH1 0x20 ADD SWAP1 DUP2 MSTORE PUSH1 0x20 ADD PUSH1 0x0 KECCAK256 DUP5 PUSH1 0x40 MLOAD PUSH2 0xF3D SWAP2 SWAP1 PUSH2 0x1F7D JUMP JUMPDEST SWAP1 DUP2 MSTORE PUSH1 0x20 ADD PUSH1 0x40 MLOAD DUP1 SWAP2 SUB SWAP1 KECCAK256 SLOAD SWAP1 POP PUSH1 0x0 JUMPDEST DUP2 DUP2 LT ISZERO PUSH2 0xFD9 JUMPI PUSH1 0x6 PUSH1 0x0 DUP8 DUP2 MSTORE PUSH1 0x20 ADD SWAP1 DUP2 MSTORE PUSH1 0x20 ADD PUSH1 0x0 KECCAK256 DUP6 PUSH1 0x40 MLOAD PUSH2 0xF7A SWAP2 SWAP1 PUSH2 0x1F7D JUMP JUMPDEST SWAP1 DUP2 MSTORE PUSH1 0x20 ADD PUSH1 0x40 MLOAD DUP1 SWAP2 SUB SWAP1 KECCAK256 PUSH1 0x0 DUP3 DUP2 MSTORE PUSH1 0x20 ADD SWAP1 DUP2 MSTORE PUSH1 0x20 ADD PUSH1 0x0 KECCAK256 PUSH1 0x40 MLOAD PUSH2 0xFA6 SWAP2 SWAP1 PUSH2 0x22DA JUMP JUMPDEST PUSH1 0x40 MLOAD DUP1 SWAP2 SUB SWAP1 KECCAK256 DUP5 DUP1 MLOAD SWAP1 PUSH1 0x20 ADD KECCAK256 SUB PUSH2 0xFC6 JUMPI PUSH1 0x1 SWAP3 POP POP POP PUSH2 0xFE0 JUMP JUMPDEST DUP1 DUP1 PUSH2 0xFD1 SWAP1 PUSH2 0x2016 JUMP JUMPDEST SWAP2 POP POP PUSH2 0xF51 JUMP JUMPDEST POP PUSH1 0x0 SWAP2 POP POP JUMPDEST SWAP4 SWAP3 POP POP POP JUMP JUMPDEST PUSH1 0x0 DUP1 PUSH1 0x5 PUSH1 0x0 DUP7 DUP2 MSTORE PUSH1 0x20 ADD SWAP1 DUP2 MSTORE PUSH1 0x20 ADD PUSH1 0x0 KECCAK256 DUP5 PUSH1 0x40 MLOAD PUSH2 0x100B SWAP2 SWAP1 PUSH2 0x1F7D JUMP JUMPDEST SWAP1 DUP2 MSTORE PUSH1 0x20 ADD PUSH1 0x40 MLOAD DUP1 SWAP2 SUB SWAP1 KECCAK256 SLOAD SWAP1 POP DUP3 PUSH1 0x6 PUSH1 0x0 DUP8 DUP2 MSTORE PUSH1 0x20 ADD SWAP1 DUP2 MSTORE PUSH1 0x20 ADD PUSH1 0x0 KECCAK256 DUP6 PUSH1 0x40 MLOAD PUSH2 0x103E SWAP2 SWAP1 PUSH2 0x1F7D JUMP JUMPDEST SWAP1 DUP2 MSTORE PUSH1 0x20 ADD PUSH1 0x40 MLOAD DUP1 SWAP2 SUB SWAP1 KECCAK256 PUSH1 0x0 DUP4 DUP2 MSTORE PUSH1 0x20 ADD SWAP1 DUP2 MSTORE PUSH1 0x20 ADD PUSH1 0x0 KECCAK256 SWAP1 DUP2 PUSH2 0x1069 SWAP2 SWAP1 PUSH2 0x2488 JUMP JUMPDEST POP PUSH2 0x107E PUSH1 0x1 DUP3 PUSH2 0x1513 SWAP1 SWAP2 SWAP1 PUSH4 0xFFFFFFFF AND JUMP JUMPDEST PUSH1 0x5 PUSH1 0x0 DUP8 DUP2 MSTORE PUSH1 0x20 ADD SWAP1 DUP2 MSTORE PUSH1 0x20 ADD PUSH1 0x0 KECCAK256 DUP6 PUSH1 0x40 MLOAD PUSH2 0x109F SWAP2 SWAP1 PUSH2 0x1F7D JUMP JUMPDEST SWAP1 DUP2 MSTORE PUSH1 0x20 ADD PUSH1 0x40 MLOAD DUP1 SWAP2 SUB SWAP1 KECCAK256 DUP2 SWAP1 SSTORE POP PUSH1 0x1 SWAP2 POP POP SWAP4 SWAP3 POP POP POP JUMP JUMPDEST PUSH1 0x0 PUSH1 0x3 PUSH1 0x0 DUP5 PUSH20 0xFFFFFFFFFFFFFFFFFFFFFFFFFFFFFFFFFFFFFFFF AND PUSH20 0xFFFFFFFFFFFFFFFFFFFFFFFFFFFFFFFFFFFFFFFF AND DUP2 MSTORE PUSH1 0x20 ADD SWAP1 DUP2 MSTORE PUSH1 0x20 ADD PUSH1 0x0 KECCAK256 DUP3 PUSH1 0x40 MLOAD PUSH2 0x110C SWAP2 SWAP1 PUSH2 0x1F7D JUMP JUMPDEST SWAP1 DUP2 MSTORE PUSH1 0x20 ADD PUSH1 0x40 MLOAD DUP1 SWAP2 SUB SWAP1 KECCAK256 SLOAD SWAP1 POP SWAP3 SWAP2 POP POP JUMP JUMPDEST PUSH1 0x0 PUSH1 0x1 PUSH1 0x0 DUP6 PUSH20 0xFFFFFFFFFFFFFFFFFFFFFFFFFFFFFFFFFFFFFFFF AND PUSH20 0xFFFFFFFFFFFFFFFFFFFFFFFFFFFFFFFFFFFFFFFF AND DUP2 MSTORE PUSH1 0x20 ADD SWAP1 DUP2 MSTORE PUSH1 0x20 ADD PUSH1 0x0 KECCAK256 PUSH1 0x0 DUP5 DUP2 MSTORE PUSH1 0x20 ADD SWAP1 DUP2 MSTORE PUSH1 0x20 ADD PUSH1 0x0 KECCAK256 DUP3 PUSH1 0x40 MLOAD PUSH2 0x1183 SWAP2 SWAP1 PUSH2 0x1F7D JUMP JUMPDEST SWAP1 DUP2 MSTORE PUSH1 0x20 ADD PUSH1 0x40 MLOAD DUP1 SWAP2 SUB SWAP1 KECCAK256 PUSH1 0x0 PUSH2 0x119D SWAP2 SWAP1 PUSH2 0x1529 JUMP JUMPDEST PUSH1 0x1 SWAP1 POP SWAP4 SWAP3 POP POP POP JUMP JUMPDEST PUSH1 0x0 DUP2 PUSH1 0x1 PUSH1 0x0 DUP8 PUSH20 0xFFFFFFFFFFFFFFFFFFFFFFFFFFFFFFFFFFFFFFFF AND PUSH20 0xFFFFFFFFFFFFFFFFFFFFFFFFFFFFFFFFFFFFFFFF AND DUP2 MSTORE PUSH1 0x20 ADD SWAP1 DUP2 MSTORE PUSH1 0x20 ADD PUSH1 0x0 KECCAK256 PUSH1 0x0 DUP7 DUP2 MSTORE PUSH1 0x20 ADD SWAP1 DUP2 MSTORE PUSH1 0x20 ADD PUSH1 0x0 KECCAK256 DUP5 PUSH1 0x40 MLOAD PUSH2 0x1209 SWAP2 SWAP1 PUSH2 0x1F7D JUMP JUMPDEST SWAP1 DUP2 MSTORE PUSH1 0x20 ADD PUSH1 0x40 MLOAD DUP1 SWAP2 SUB SWAP1 KECCAK256 SWAP1 DUP2 PUSH2 0x1223 SWAP2 SWAP1 PUSH2 0x2488 JUMP JUMPDEST POP PUSH1 0x1 SWAP1 POP SWAP5 SWAP4 POP POP POP POP JUMP JUMPDEST PUSH1 0x0 DUP2 PUSH1 0x4 PUSH1 0x0 DUP8 PUSH20 0xFFFFFFFFFFFFFFFFFFFFFFFFFFFFFFFFFFFFFFFF AND PUSH20 0xFFFFFFFFFFFFFFFFFFFFFFFFFFFFFFFFFFFFFFFF AND DUP2 MSTORE PUSH1 0x20 ADD SWAP1 DUP2 MSTORE PUSH1 0x20 ADD PUSH1 0x0 KECCAK256 DUP6 PUSH1 0x40 MLOAD PUSH2 0x1280 SWAP2 SWAP1 PUSH2 0x1F7D JUMP JUMPDEST SWAP1 DUP2 MSTORE PUSH1 0x20 ADD PUSH1 0x40 MLOAD DUP1 SWAP2 SUB SWAP1 KECCAK256 DUP5 PUSH1 0x40 MLOAD PUSH2 0x129C SWAP2 SWAP1 PUSH2 0x1FD0 JUMP JUMPDEST SWAP1 DUP2 MSTORE PUSH1 0x20 ADD PUSH1 0x40 MLOAD DUP1 SWAP2 SUB SWAP1 KECCAK256 PUSH1 0x0 PUSH2 0x100 EXP DUP2 SLOAD DUP2 PUSH1 0xFF MUL NOT AND SWAP1 DUP4 ISZERO ISZERO MUL OR SWAP1 SSTORE POP PUSH1 0x1 SWAP1 POP SWAP5 SWAP4 POP POP POP POP JUMP JUMPDEST PUSH1 0x0 DUP1 PUSH1 0x0 JUMPDEST DUP4 MLOAD DUP2 LT ISZERO PUSH2 0x135B JUMPI PUSH1 0x1 DUP2 PUSH2 0x12E9 SWAP2 SWAP1 PUSH2 0x255A JUMP JUMPDEST DUP5 MLOAD PUSH2 0x12F5 SWAP2 SWAP1 PUSH2 0x258E JUMP JUMPDEST PUSH1 0x8 PUSH2 0x1301 SWAP2 SWAP1 PUSH2 0x25C2 JUMP JUMPDEST PUSH1 0x2 PUSH2 0x130D SWAP2 SWAP1 PUSH2 0x2737 JUMP JUMPDEST DUP5 DUP3 DUP2 MLOAD DUP2 LT PUSH2 0x1320 JUMPI PUSH2 0x131F PUSH2 0x213B JUMP JUMPDEST JUMPDEST PUSH1 0x20 ADD ADD MLOAD PUSH1 0xF8 SHR PUSH1 0xF8 SHL PUSH1 0xF8 SHR PUSH1 0xFF AND PUSH2 0x133B SWAP2 SWAP1 PUSH2 0x25C2 JUMP JUMPDEST DUP3 PUSH2 0x1346 SWAP2 SWAP1 PUSH2 0x255A JUMP JUMPDEST SWAP2 POP DUP1 DUP1 PUSH2 0x1353 SWAP1 PUSH2 0x2016 JUMP JUMPDEST SWAP2 POP POP PUSH2 0x12D3 JUMP JUMPDEST POP DUP1 SWAP2 POP POP SWAP2 SWAP1 POP JUMP JUMPDEST PUSH1 0x0 DUP3 PUSH1 0x2 PUSH1 0x0 DUP8 PUSH20 0xFFFFFFFFFFFFFFFFFFFFFFFFFFFFFFFFFFFFFFFF AND PUSH20 0xFFFFFFFFFFFFFFFFFFFFFFFFFFFFFFFFFFFFFFFF AND DUP2 MSTORE PUSH1 0x20 ADD SWAP1 DUP2 MSTORE PUSH1 0x20 ADD PUSH1 0x0 KECCAK256 DUP6 PUSH1 0x40 MLOAD PUSH2 0x13B5 SWAP2 SWAP1 PUSH2 0x1F7D JUMP JUMPDEST SWAP1 DUP2 MSTORE PUSH1 0x20 ADD PUSH1 0x40 MLOAD DUP1 SWAP2 SUB SWAP1 KECCAK256 DUP2 SWAP1 SSTORE POP DUP2 PUSH1 0x3 PUSH1 0x0 DUP8 PUSH20 0xFFFFFFFFFFFFFFFFFFFFFFFFFFFFFFFFFFFFFFFF AND PUSH20 0xFFFFFFFFFFFFFFFFFFFFFFFFFFFFFFFFFFFFFFFF AND DUP2 MSTORE PUSH1 0x20 ADD SWAP1 DUP2 MSTORE PUSH1 0x20 ADD PUSH1 0x0 KECCAK256 DUP6 PUSH1 0x40 MLOAD PUSH2 0x1415 SWAP2 SWAP1 PUSH2 0x1F7D JUMP JUMPDEST SWAP1 DUP2 MSTORE PUSH1 0x20 ADD PUSH1 0x40 MLOAD DUP1 SWAP2 SUB SWAP1 KECCAK256 DUP2 SWAP1 SSTORE POP PUSH1 0x1 SWAP1 POP SWAP5 SWAP4 POP POP POP POP JUMP JUMPDEST PUSH1 0x0 DUP2 DUP4 PUSH2 0x1441 SWAP2 SWAP1 PUSH2 0x258E JUMP JUMPDEST SWAP1 POP SWAP3 SWAP2 POP POP JUMP JUMPDEST PUSH1 0x0 PUSH1 0x2 PUSH1 0x0 DUP5 PUSH20 0xFFFFFFFFFFFFFFFFFFFFFFFFFFFFFFFFFFFFFFFF AND PUSH20 0xFFFFFFFFFFFFFFFFFFFFFFFFFFFFFFFFFFFFFFFF AND DUP2 MSTORE PUSH1 0x20 ADD SWAP1 DUP2 MSTORE PUSH1 0x20 ADD PUSH1 0x0 KECCAK256 DUP3 PUSH1 0x40 MLOAD PUSH2 0x1498 SWAP2 SWAP1 PUSH2 0x1F7D JUMP JUMPDEST SWAP1 DUP2 MSTORE PUSH1 0x20 ADD PUSH1 0x40 MLOAD DUP1 SWAP2 SUB SWAP1 KECCAK256 PUSH1 0x0 SWAP1 SSTORE PUSH1 0x3 PUSH1 0x0 DUP5 PUSH20 0xFFFFFFFFFFFFFFFFFFFFFFFFFFFFFFFFFFFFFFFF AND PUSH20 0xFFFFFFFFFFFFFFFFFFFFFFFFFFFFFFFFFFFFFFFF AND DUP2 MSTORE PUSH1 0x20 ADD SWAP1 DUP2 MSTORE PUSH1 0x20 ADD PUSH1 0x0 KECCAK256 DUP3 PUSH1 0x40 MLOAD PUSH2 0x14F7 SWAP2 SWAP1 PUSH2 0x1F7D JUMP JUMPDEST SWAP1 DUP2 MSTORE PUSH1 0x20 ADD PUSH1 0x40 MLOAD DUP1 SWAP2 SUB SWAP1 KECCAK256 PUSH1 0x0 SWAP1 SSTORE PUSH1 0x1 SWAP1 POP SWAP3 SWAP2 POP POP JUMP JUMPDEST PUSH1 0x0 DUP2 DUP4 PUSH2 0x1521 SWAP2 SWAP1 PUSH2 0x255A JUMP JUMPDEST SWAP1 POP SWAP3 SWAP2 POP POP JUMP JUMPDEST POP DUP1 SLOAD PUSH2 0x1535 SWAP1 PUSH2 0x208D JUMP JUMPDEST PUSH1 0x0 DUP3 SSTORE DUP1 PUSH1 0x1F LT PUSH2 0x1547 JUMPI POP PUSH2 0x1566 JUMP JUMPDEST PUSH1 0x1F ADD PUSH1 0x20 SWAP1 DIV SWAP1 PUSH1 0x0 MSTORE PUSH1 0x20 PUSH1 0x0 KECCAK256 SWAP1 DUP2 ADD SWAP1 PUSH2 0x1565 SWAP2 SWAP1 PUSH2 0x1569 JUMP JUMPDEST JUMPDEST POP JUMP JUMPDEST JUMPDEST DUP1 DUP3 GT ISZERO PUSH2 0x1582 JUMPI PUSH1 0x0 DUP2 PUSH1 0x0 SWAP1 SSTORE POP PUSH1 0x1 ADD PUSH2 0x156A JUMP JUMPDEST POP SWAP1 JUMP JUMPDEST PUSH1 0x0 PUSH1 0x40 MLOAD SWAP1 POP SWAP1 JUMP JUMPDEST PUSH1 0x0 DUP1 REVERT JUMPDEST PUSH1 0x0 DUP1 REVERT JUMPDEST PUSH1 0x0 PUSH20 0xFFFFFFFFFFFFFFFFFFFFFFFFFFFFFFFFFFFFFFFF DUP3 AND SWAP1 POP SWAP2 SWAP1 POP JUMP JUMPDEST PUSH1 0x0 PUSH2 0x15C5 DUP3 PUSH2 0x159A JUMP JUMPDEST SWAP1 POP SWAP2 SWAP1 POP JUMP JUMPDEST PUSH2 0x15D5 DUP2 PUSH2 0x15BA JUMP JUMPDEST DUP2 EQ PUSH2 0x15E0 JUMPI PUSH1 0x0 DUP1 REVERT JUMPDEST POP JUMP JUMPDEST PUSH1 0x0 DUP2 CALLDATALOAD SWAP1 POP PUSH2 0x15F2 DUP2 PUSH2 0x15CC JUMP JUMPDEST SWAP3 SWAP2 POP POP JUMP JUMPDEST PUSH1 0x0 DUP1 REVERT JUMPDEST PUSH1 0x0 DUP1 REVERT JUMPDEST PUSH1 0x0 PUSH1 0x1F NOT PUSH1 0x1F DUP4 ADD AND SWAP1 POP SWAP2 SWAP1 POP JUMP JUMPDEST PUSH32 0x4E487B7100000000000000000000000000000000000000000000000000000000 PUSH1 0x0 MSTORE PUSH1 0x41 PUSH1 0x4 MSTORE PUSH1 0x24 PUSH1 0x0 REVERT JUMPDEST PUSH2 0x164B DUP3 PUSH2 0x1602 JUMP JUMPDEST DUP2 ADD DUP2 DUP2 LT PUSH8 0xFFFFFFFFFFFFFFFF DUP3 GT OR ISZERO PUSH2 0x166A JUMPI PUSH2 0x1669 PUSH2 0x1613 JUMP JUMPDEST JUMPDEST DUP1 PUSH1 0x40 MSTORE POP POP POP JUMP JUMPDEST PUSH1 0x0 PUSH2 0x167D PUSH2 0x1586 JUMP JUMPDEST SWAP1 POP PUSH2 0x1689 DUP3 DUP3 PUSH2 0x1642 JUMP JUMPDEST SWAP2 SWAP1 POP JUMP JUMPDEST PUSH1 0x0 PUSH8 0xFFFFFFFFFFFFFFFF DUP3 GT ISZERO PUSH2 0x16A9 JUMPI PUSH2 0x16A8 PUSH2 0x1613 JUMP JUMPDEST JUMPDEST PUSH2 0x16B2 DUP3 PUSH2 0x1602 JUMP JUMPDEST SWAP1 POP PUSH1 0x20 DUP2 ADD SWAP1 POP SWAP2 SWAP1 POP JUMP JUMPDEST DUP3 DUP2 DUP4 CALLDATACOPY PUSH1 0x0 DUP4 DUP4 ADD MSTORE POP POP POP JUMP JUMPDEST PUSH1 0x0 PUSH2 0x16E1 PUSH2 0x16DC DUP5 PUSH2 0x168E JUMP JUMPDEST PUSH2 0x1673 JUMP JUMPDEST SWAP1 POP DUP3 DUP2 MSTORE PUSH1 0x20 DUP2 ADD DUP5 DUP5 DUP5 ADD GT ISZERO PUSH2 0x16FD JUMPI PUSH2 0x16FC PUSH2 0x15FD JUMP JUMPDEST JUMPDEST PUSH2 0x1708 DUP5 DUP3 DUP6 PUSH2 0x16BF JUMP JUMPDEST POP SWAP4 SWAP3 POP POP POP JUMP JUMPDEST PUSH1 0x0 DUP3 PUSH1 0x1F DUP4 ADD SLT PUSH2 0x1725 JUMPI PUSH2 0x1724 PUSH2 0x15F8 JUMP JUMPDEST JUMPDEST DUP2 CALLDATALOAD PUSH2 0x1735 DUP5 DUP3 PUSH1 0x20 DUP7 ADD PUSH2 0x16CE JUMP JUMPDEST SWAP2 POP POP SWAP3 SWAP2 POP POP JUMP JUMPDEST PUSH1 0x0 DUP1 PUSH1 0x40 DUP4 DUP6 SUB SLT ISZERO PUSH2 0x1755 JUMPI PUSH2 0x1754 PUSH2 0x1590 JUMP JUMPDEST JUMPDEST PUSH1 0x0 PUSH2 0x1763 DUP6 DUP3 DUP7 ADD PUSH2 0x15E3 JUMP JUMPDEST SWAP3 POP POP PUSH1 0x20 DUP4 ADD CALLDATALOAD PUSH8 0xFFFFFFFFFFFFFFFF DUP2 GT ISZERO PUSH2 0x1784 JUMPI PUSH2 0x1783 PUSH2 0x1595 JUMP JUMPDEST JUMPDEST PUSH2 0x1790 DUP6 DUP3 DUP7 ADD PUSH2 0x1710 JUMP JUMPDEST SWAP2 POP POP SWAP3 POP SWAP3 SWAP1 POP JUMP JUMPDEST PUSH1 0x0 DUP2 SWAP1 POP SWAP2 SWAP1 POP JUMP JUMPDEST PUSH2 0x17AD DUP2 PUSH2 0x179A JUMP JUMPDEST DUP3 MSTORE POP POP JUMP JUMPDEST PUSH1 0x0 PUSH1 0x20 DUP3 ADD SWAP1 POP PUSH2 0x17C8 PUSH1 0x0 DUP4 ADD DUP5 PUSH2 0x17A4 JUMP JUMPDEST SWAP3 SWAP2 POP POP JUMP JUMPDEST PUSH2 0x17D7 DUP2 PUSH2 0x179A JUMP JUMPDEST DUP2 EQ PUSH2 0x17E2 JUMPI PUSH1 0x0 DUP1 REVERT JUMPDEST POP JUMP JUMPDEST PUSH1 0x0 DUP2 CALLDATALOAD SWAP1 POP PUSH2 0x17F4 DUP2 PUSH2 0x17CE JUMP JUMPDEST SWAP3 SWAP2 POP POP JUMP JUMPDEST PUSH1 0x0 DUP1 PUSH1 0x0 PUSH1 0x60 DUP5 DUP7 SUB SLT ISZERO PUSH2 0x1813 JUMPI PUSH2 0x1812 PUSH2 0x1590 JUMP JUMPDEST JUMPDEST PUSH1 0x0 PUSH2 0x1821 DUP7 DUP3 DUP8 ADD PUSH2 0x15E3 JUMP JUMPDEST SWAP4 POP POP PUSH1 0x20 PUSH2 0x1832 DUP7 DUP3 DUP8 ADD PUSH2 0x17E5 JUMP JUMPDEST SWAP3 POP POP PUSH1 0x40 DUP5 ADD CALLDATALOAD PUSH8 0xFFFFFFFFFFFFFFFF DUP2 GT ISZERO PUSH2 0x1853 JUMPI PUSH2 0x1852 PUSH2 0x1595 JUMP JUMPDEST JUMPDEST PUSH2 0x185F DUP7 DUP3 DUP8 ADD PUSH2 0x1710 JUMP JUMPDEST SWAP2 POP POP SWAP3 POP SWAP3 POP SWAP3 JUMP JUMPDEST PUSH1 0x0 DUP2 ISZERO ISZERO SWAP1 POP SWAP2 SWAP1 POP JUMP JUMPDEST PUSH2 0x187E DUP2 PUSH2 0x1869 JUMP JUMPDEST DUP3 MSTORE POP POP JUMP JUMPDEST PUSH1 0x0 PUSH1 0x20 DUP3 ADD SWAP1 POP PUSH2 0x1899 PUSH1 0x0 DUP4 ADD DUP5 PUSH2 0x1875 JUMP JUMPDEST SWAP3 SWAP2 POP POP JUMP JUMPDEST PUSH1 0x0 PUSH8 0xFFFFFFFFFFFFFFFF DUP3 GT ISZERO PUSH2 0x18BA JUMPI PUSH2 0x18B9 PUSH2 0x1613 JUMP JUMPDEST JUMPDEST PUSH2 0x18C3 DUP3 PUSH2 0x1602 JUMP JUMPDEST SWAP1 POP PUSH1 0x20 DUP2 ADD SWAP1 POP SWAP2 SWAP1 POP JUMP JUMPDEST PUSH1 0x0 PUSH2 0x18E3 PUSH2 0x18DE DUP5 PUSH2 0x189F JUMP JUMPDEST PUSH2 0x1673 JUMP JUMPDEST SWAP1 POP DUP3 DUP2 MSTORE PUSH1 0x20 DUP2 ADD DUP5 DUP5 DUP5 ADD GT ISZERO PUSH2 0x18FF JUMPI PUSH2 0x18FE PUSH2 0x15FD JUMP JUMPDEST JUMPDEST PUSH2 0x190A DUP5 DUP3 DUP6 PUSH2 0x16BF JUMP JUMPDEST POP SWAP4 SWAP3 POP POP POP JUMP JUMPDEST PUSH1 0x0 DUP3 PUSH1 0x1F DUP4 ADD SLT PUSH2 0x1927 JUMPI PUSH2 0x1926 PUSH2 0x15F8 JUMP JUMPDEST JUMPDEST DUP2 CALLDATALOAD PUSH2 0x1937 DUP5 DUP3 PUSH1 0x20 DUP7 ADD PUSH2 0x18D0 JUMP JUMPDEST SWAP2 POP POP SWAP3 SWAP2 POP POP JUMP JUMPDEST PUSH1 0x0 DUP1 PUSH1 0x0 DUP1 PUSH1 0x80 DUP6 DUP8 SUB SLT ISZERO PUSH2 0x195A JUMPI PUSH2 0x1959 PUSH2 0x1590 JUMP JUMPDEST JUMPDEST PUSH1 0x0 PUSH2 0x1968 DUP8 DUP3 DUP9 ADD PUSH2 0x15E3 JUMP JUMPDEST SWAP5 POP POP PUSH1 0x20 PUSH2 0x1979 DUP8 DUP3 DUP9 ADD PUSH2 0x17E5 JUMP JUMPDEST SWAP4 POP POP PUSH1 0x40 DUP6 ADD CALLDATALOAD PUSH8 0xFFFFFFFFFFFFFFFF DUP2 GT ISZERO PUSH2 0x199A JUMPI PUSH2 0x1999 PUSH2 0x1595 JUMP JUMPDEST JUMPDEST PUSH2 0x19A6 DUP8 DUP3 DUP9 ADD PUSH2 0x1710 JUMP JUMPDEST SWAP3 POP POP PUSH1 0x60 DUP6 ADD CALLDATALOAD PUSH8 0xFFFFFFFFFFFFFFFF DUP2 GT ISZERO PUSH2 0x19C7 JUMPI PUSH2 0x19C6 PUSH2 0x1595 JUMP JUMPDEST JUMPDEST PUSH2 0x19D3 DUP8 DUP3 DUP9 ADD PUSH2 0x1912 JUMP JUMPDEST SWAP2 POP POP SWAP3 SWAP6 SWAP2 SWAP5 POP SWAP3 POP JUMP JUMPDEST PUSH1 0x0 DUP1 PUSH1 0x40 DUP4 DUP6 SUB SLT ISZERO PUSH2 0x19F6 JUMPI PUSH2 0x19F5 PUSH2 0x1590 JUMP JUMPDEST JUMPDEST PUSH1 0x0 PUSH2 0x1A04 DUP6 DUP3 DUP7 ADD PUSH2 0x17E5 JUMP JUMPDEST SWAP3 POP POP PUSH1 0x20 DUP4 ADD CALLDATALOAD PUSH8 0xFFFFFFFFFFFFFFFF DUP2 GT ISZERO PUSH2 0x1A25 JUMPI PUSH2 0x1A24 PUSH2 0x1595 JUMP JUMPDEST JUMPDEST PUSH2 0x1A31 DUP6 DUP3 DUP7 ADD PUSH2 0x1710 JUMP JUMPDEST SWAP2 POP POP SWAP3 POP SWAP3 SWAP1 POP JUMP JUMPDEST PUSH1 0x0 DUP1 PUSH1 0x0 PUSH1 0x60 DUP5 DUP7 SUB SLT ISZERO PUSH2 0x1A54 JUMPI PUSH2 0x1A53 PUSH2 0x1590 JUMP JUMPDEST JUMPDEST PUSH1 0x0 PUSH2 0x1A62 DUP7 DUP3 DUP8 ADD PUSH2 0x15E3 JUMP JUMPDEST SWAP4 POP POP PUSH1 0x20 DUP5 ADD CALLDATALOAD PUSH8 0xFFFFFFFFFFFFFFFF DUP2 GT ISZERO PUSH2 0x1A83 JUMPI PUSH2 0x1A82 PUSH2 0x1595 JUMP JUMPDEST JUMPDEST PUSH2 0x1A8F DUP7 DUP3 DUP8 ADD PUSH2 0x1710 JUMP JUMPDEST SWAP3 POP POP PUSH1 0x40 DUP5 ADD CALLDATALOAD PUSH8 0xFFFFFFFFFFFFFFFF DUP2 GT ISZERO PUSH2 0x1AB0 JUMPI PUSH2 0x1AAF PUSH2 0x1595 JUMP JUMPDEST JUMPDEST PUSH2 0x1ABC DUP7 DUP3 DUP8 ADD PUSH2 0x1912 JUMP JUMPDEST SWAP2 POP POP SWAP3 POP SWAP3 POP SWAP3 JUMP JUMPDEST PUSH1 0x0 DUP2 MLOAD SWAP1 POP SWAP2 SWAP1 POP JUMP JUMPDEST PUSH1 0x0 DUP3 DUP3 MSTORE PUSH1 0x20 DUP3 ADD SWAP1 POP SWAP3 SWAP2 POP POP JUMP JUMPDEST PUSH1 0x0 JUMPDEST DUP4 DUP2 LT ISZERO PUSH2 0x1B00 JUMPI DUP1 DUP3 ADD MLOAD DUP2 DUP5 ADD MSTORE PUSH1 0x20 DUP2 ADD SWAP1 POP PUSH2 0x1AE5 JUMP JUMPDEST PUSH1 0x0 DUP5 DUP5 ADD MSTORE POP POP POP POP JUMP JUMPDEST PUSH1 0x0 PUSH2 0x1B17 DUP3 PUSH2 0x1AC6 JUMP JUMPDEST PUSH2 0x1B21 DUP2 DUP6 PUSH2 0x1AD1 JUMP JUMPDEST SWAP4 POP PUSH2 0x1B31 DUP2 DUP6 PUSH1 0x20 DUP7 ADD PUSH2 0x1AE2 JUMP JUMPDEST PUSH2 0x1B3A DUP2 PUSH2 0x1602 JUMP JUMPDEST DUP5 ADD SWAP2 POP POP SWAP3 SWAP2 POP POP JUMP JUMPDEST PUSH1 0x0 PUSH1 0x20 DUP3 ADD SWAP1 POP DUP2 DUP2 SUB PUSH1 0x0 DUP4 ADD MSTORE PUSH2 0x1B5F DUP2 DUP5 PUSH2 0x1B0C JUMP JUMPDEST SWAP1 POP SWAP3 SWAP2 POP POP JUMP JUMPDEST PUSH1 0x0 DUP2 MLOAD SWAP1 POP SWAP2 SWAP1 POP JUMP JUMPDEST PUSH1 0x0 DUP3 DUP3 MSTORE PUSH1 0x20 DUP3 ADD SWAP1 POP SWAP3 SWAP2 POP POP JUMP JUMPDEST PUSH1 0x0 DUP2 SWAP1 POP PUSH1 0x20 DUP3 ADD SWAP1 POP SWAP2 SWAP1 POP JUMP JUMPDEST PUSH2 0x1B9C DUP2 PUSH2 0x179A JUMP JUMPDEST DUP3 MSTORE POP POP JUMP JUMPDEST PUSH1 0x0 PUSH2 0x1BAE DUP4 DUP4 PUSH2 0x1B93 JUMP JUMPDEST PUSH1 0x20 DUP4 ADD SWAP1 POP SWAP3 SWAP2 POP POP JUMP JUMPDEST PUSH1 0x0 PUSH1 0x20 DUP3 ADD SWAP1 POP SWAP2 SWAP1 POP JUMP JUMPDEST PUSH1 0x0 PUSH2 0x1BD2 DUP3 PUSH2 0x1B67 JUMP JUMPDEST PUSH2 0x1BDC DUP2 DUP6 PUSH2 0x1B72 JUMP JUMPDEST SWAP4 POP PUSH2 0x1BE7 DUP4 PUSH2 0x1B83 JUMP JUMPDEST DUP1 PUSH1 0x0 JUMPDEST DUP4 DUP2 LT ISZERO PUSH2 0x1C18 JUMPI DUP2 MLOAD PUSH2 0x1BFF DUP9 DUP3 PUSH2 0x1BA2 JUMP JUMPDEST SWAP8 POP PUSH2 0x1C0A DUP4 PUSH2 0x1BBA JUMP JUMPDEST SWAP3 POP POP PUSH1 0x1 DUP2 ADD SWAP1 POP PUSH2 0x1BEB JUMP JUMPDEST POP DUP6 SWAP4 POP POP POP POP SWAP3 SWAP2 POP POP JUMP JUMPDEST PUSH1 0x0 PUSH1 0x20 DUP3 ADD SWAP1 POP DUP2 DUP2 SUB PUSH1 0x0 DUP4 ADD MSTORE PUSH2 0x1C3F DUP2 DUP5 PUSH2 0x1BC7 JUMP JUMPDEST SWAP1 POP SWAP3 SWAP2 POP POP JUMP JUMPDEST PUSH1 0x0 PUSH8 0xFFFFFFFFFFFFFFFF DUP3 GT ISZERO PUSH2 0x1C62 JUMPI PUSH2 0x1C61 PUSH2 0x1613 JUMP JUMPDEST JUMPDEST PUSH1 0x20 DUP3 MUL SWAP1 POP PUSH1 0x20 DUP2 ADD SWAP1 POP SWAP2 SWAP1 POP JUMP JUMPDEST PUSH1 0x0 DUP1 REVERT JUMPDEST PUSH1 0x0 PUSH2 0x1C8B PUSH2 0x1C86 DUP5 PUSH2 0x1C47 JUMP JUMPDEST PUSH2 0x1673 JUMP JUMPDEST SWAP1 POP DUP1 DUP4 DUP3 MSTORE PUSH1 0x20 DUP3 ADD SWAP1 POP PUSH1 0x20 DUP5 MUL DUP4 ADD DUP6 DUP2 GT ISZERO PUSH2 0x1CAE JUMPI PUSH2 0x1CAD PUSH2 0x1C73 JUMP JUMPDEST JUMPDEST DUP4 JUMPDEST DUP2 DUP2 LT ISZERO PUSH2 0x1CF5 JUMPI DUP1 CALLDATALOAD PUSH8 0xFFFFFFFFFFFFFFFF DUP2 GT ISZERO PUSH2 0x1CD3 JUMPI PUSH2 0x1CD2 PUSH2 0x15F8 JUMP JUMPDEST JUMPDEST DUP1 DUP7 ADD PUSH2 0x1CE0 DUP10 DUP3 PUSH2 0x1710 JUMP JUMPDEST DUP6 MSTORE PUSH1 0x20 DUP6 ADD SWAP5 POP POP POP PUSH1 0x20 DUP2 ADD SWAP1 POP PUSH2 0x1CB0 JUMP JUMPDEST POP POP POP SWAP4 SWAP3 POP POP POP JUMP JUMPDEST PUSH1 0x0 DUP3 PUSH1 0x1F DUP4 ADD SLT PUSH2 0x1D14 JUMPI PUSH2 0x1D13 PUSH2 0x15F8 JUMP JUMPDEST JUMPDEST DUP2 CALLDATALOAD PUSH2 0x1D24 DUP5 DUP3 PUSH1 0x20 DUP7 ADD PUSH2 0x1C78 JUMP JUMPDEST SWAP2 POP POP SWAP3 SWAP2 POP POP JUMP JUMPDEST PUSH1 0x0 PUSH8 0xFFFFFFFFFFFFFFFF DUP3 GT ISZERO PUSH2 0x1D48 JUMPI PUSH2 0x1D47 PUSH2 0x1613 JUMP JUMPDEST JUMPDEST PUSH1 0x20 DUP3 MUL SWAP1 POP PUSH1 0x20 DUP2 ADD SWAP1 POP SWAP2 SWAP1 POP JUMP JUMPDEST PUSH1 0x0 PUSH2 0x1D6C PUSH2 0x1D67 DUP5 PUSH2 0x1D2D JUMP JUMPDEST PUSH2 0x1673 JUMP JUMPDEST SWAP1 POP DUP1 DUP4 DUP3 MSTORE PUSH1 0x20 DUP3 ADD SWAP1 POP PUSH1 0x20 DUP5 MUL DUP4 ADD DUP6 DUP2 GT ISZERO PUSH2 0x1D8F JUMPI PUSH2 0x1D8E PUSH2 0x1C73 JUMP JUMPDEST JUMPDEST DUP4 JUMPDEST DUP2 DUP2 LT ISZERO PUSH2 0x1DB8 JUMPI DUP1 PUSH2 0x1DA4 DUP9 DUP3 PUSH2 0x17E5 JUMP JUMPDEST DUP5 MSTORE PUSH1 0x20 DUP5 ADD SWAP4 POP POP PUSH1 0x20 DUP2 ADD SWAP1 POP PUSH2 0x1D91 JUMP JUMPDEST POP POP POP SWAP4 SWAP3 POP POP POP JUMP JUMPDEST PUSH1 0x0 DUP3 PUSH1 0x1F DUP4 ADD SLT PUSH2 0x1DD7 JUMPI PUSH2 0x1DD6 PUSH2 0x15F8 JUMP JUMPDEST JUMPDEST DUP2 CALLDATALOAD PUSH2 0x1DE7 DUP5 DUP3 PUSH1 0x20 DUP7 ADD PUSH2 0x1D59 JUMP JUMPDEST SWAP2 POP POP SWAP3 SWAP2 POP POP JUMP JUMPDEST PUSH1 0x0 DUP1 PUSH1 0x0 DUP1 PUSH1 0x80 DUP6 DUP8 SUB SLT ISZERO PUSH2 0x1E0A JUMPI PUSH2 0x1E09 PUSH2 0x1590 JUMP JUMPDEST JUMPDEST PUSH1 0x0 PUSH2 0x1E18 DUP8 DUP3 DUP9 ADD PUSH2 0x15E3 JUMP JUMPDEST SWAP5 POP POP PUSH1 0x20 DUP6 ADD CALLDATALOAD PUSH8 0xFFFFFFFFFFFFFFFF DUP2 GT ISZERO PUSH2 0x1E39 JUMPI PUSH2 0x1E38 PUSH2 0x1595 JUMP JUMPDEST JUMPDEST PUSH2 0x1E45 DUP8 DUP3 DUP9 ADD PUSH2 0x1CFF JUMP JUMPDEST SWAP4 POP POP PUSH1 0x40 DUP6 ADD CALLDATALOAD PUSH8 0xFFFFFFFFFFFFFFFF DUP2 GT ISZERO PUSH2 0x1E66 JUMPI PUSH2 0x1E65 PUSH2 0x1595 JUMP JUMPDEST JUMPDEST PUSH2 0x1E72 DUP8 DUP3 DUP9 ADD PUSH2 0x1DC2 JUMP JUMPDEST SWAP3 POP POP PUSH1 0x60 DUP6 ADD CALLDATALOAD PUSH8 0xFFFFFFFFFFFFFFFF DUP2 GT ISZERO PUSH2 0x1E93 JUMPI PUSH2 0x1E92 PUSH2 0x1595 JUMP JUMPDEST JUMPDEST PUSH2 0x1E9F DUP8 DUP3 DUP9 ADD PUSH2 0x1DC2 JUMP JUMPDEST SWAP2 POP POP SWAP3 SWAP6 SWAP2 SWAP5 POP SWAP3 POP JUMP JUMPDEST PUSH1 0x0 DUP1 PUSH1 0x0 PUSH1 0x60 DUP5 DUP7 SUB SLT ISZERO PUSH2 0x1EC4 JUMPI PUSH2 0x1EC3 PUSH2 0x1590 JUMP JUMPDEST JUMPDEST PUSH1 0x0 PUSH2 0x1ED2 DUP7 DUP3 DUP8 ADD PUSH2 0x17E5 JUMP JUMPDEST SWAP4 POP POP PUSH1 0x20 DUP5 ADD CALLDATALOAD PUSH8 0xFFFFFFFFFFFFFFFF DUP2 GT ISZERO PUSH2 0x1EF3 JUMPI PUSH2 0x1EF2 PUSH2 0x1595 JUMP JUMPDEST JUMPDEST PUSH2 0x1EFF DUP7 DUP3 DUP8 ADD PUSH2 0x1710 JUMP JUMPDEST SWAP3 POP POP PUSH1 0x40 DUP5 ADD CALLDATALOAD PUSH8 0xFFFFFFFFFFFFFFFF DUP2 GT ISZERO PUSH2 0x1F20 JUMPI PUSH2 0x1F1F PUSH2 0x1595 JUMP JUMPDEST JUMPDEST PUSH2 0x1F2C DUP7 DUP3 DUP8 ADD PUSH2 0x1912 JUMP JUMPDEST SWAP2 POP POP SWAP3 POP SWAP3 POP SWAP3 JUMP JUMPDEST PUSH1 0x0 DUP2 MLOAD SWAP1 POP SWAP2 SWAP1 POP JUMP JUMPDEST PUSH1 0x0 DUP2 SWAP1 POP SWAP3 SWAP2 POP POP JUMP JUMPDEST PUSH1 0x0 PUSH2 0x1F57 DUP3 PUSH2 0x1F36 JUMP JUMPDEST PUSH2 0x1F61 DUP2 DUP6 PUSH2 0x1F41 JUMP JUMPDEST SWAP4 POP PUSH2 0x1F71 DUP2 DUP6 PUSH1 0x20 DUP7 ADD PUSH2 0x1AE2 JUMP JUMPDEST DUP1 DUP5 ADD SWAP2 POP POP SWAP3 SWAP2 POP POP JUMP JUMPDEST PUSH1 0x0 PUSH2 0x1F89 DUP3 DUP5 PUSH2 0x1F4C JUMP JUMPDEST SWAP2 POP DUP2 SWAP1 POP SWAP3 SWAP2 POP POP JUMP JUMPDEST PUSH1 0x0 DUP2 SWAP1 POP SWAP3 SWAP2 POP POP JUMP JUMPDEST PUSH1 0x0 PUSH2 0x1FAA DUP3 PUSH2 0x1AC6 JUMP JUMPDEST PUSH2 0x1FB4 DUP2 DUP6 PUSH2 0x1F94 JUMP JUMPDEST SWAP4 POP PUSH2 0x1FC4 DUP2 DUP6 PUSH1 0x20 DUP7 ADD PUSH2 0x1AE2 JUMP JUMPDEST DUP1 DUP5 ADD SWAP2 POP POP SWAP3 SWAP2 POP POP JUMP JUMPDEST PUSH1 0x0 PUSH2 0x1FDC DUP3 DUP5 PUSH2 0x1F9F JUMP JUMPDEST SWAP2 POP DUP2 SWAP1 POP SWAP3 SWAP2 POP POP JUMP JUMPDEST PUSH32 0x4E487B7100000000000000000000000000000000000000000000000000000000 PUSH1 0x0 MSTORE PUSH1 0x11 PUSH1 0x4 MSTORE PUSH1 0x24 PUSH1 0x0 REVERT JUMPDEST PUSH1 0x0 PUSH2 0x2021 DUP3 PUSH2 0x179A JUMP JUMPDEST SWAP2 POP PUSH32 0xFFFFFFFFFFFFFFFFFFFFFFFFFFFFFFFFFFFFFFFFFFFFFFFFFFFFFFFFFFFFFFFF DUP3 SUB PUSH2 0x2053 JUMPI PUSH2 0x2052 PUSH2 0x1FE7 JUMP JUMPDEST JUMPDEST PUSH1 0x1 DUP3 ADD SWAP1 POP SWAP2 SWAP1 POP JUMP JUMPDEST PUSH32 0x4E487B7100000000000000000000000000000000000000000000000000000000 PUSH1 0x0 MSTORE PUSH1 0x22 PUSH1 0x4 MSTORE PUSH1 0x24 PUSH1 0x0 REVERT JUMPDEST PUSH1 0x0 PUSH1 0x2 DUP3 DIV SWAP1 POP PUSH1 0x1 DUP3 AND DUP1 PUSH2 0x20A5 JUMPI PUSH1 0x7F DUP3 AND SWAP2 POP JUMPDEST PUSH1 0x20 DUP3 LT DUP2 SUB PUSH2 0x20B8 JUMPI PUSH2 0x20B7 PUSH2 0x205E JUMP JUMPDEST JUMPDEST POP SWAP2 SWAP1 POP JUMP JUMPDEST PUSH1 0x0 DUP3 DUP3 MSTORE PUSH1 0x20 DUP3 ADD SWAP1 POP SWAP3 SWAP2 POP POP JUMP JUMPDEST PUSH32 0x556E697175656E65737320766572696669636174696F6E206661696C65640000 PUSH1 0x0 DUP3 ADD MSTORE POP JUMP JUMPDEST PUSH1 0x0 PUSH2 0x2105 PUSH1 0x1E DUP4 PUSH2 0x20BE JUMP JUMPDEST SWAP2 POP PUSH2 0x2110 DUP3 PUSH2 0x20CF JUMP JUMPDEST PUSH1 0x20 DUP3 ADD SWAP1 POP SWAP2 SWAP1 POP JUMP JUMPDEST PUSH1 0x0 PUSH1 0x20 DUP3 ADD SWAP1 POP DUP2 DUP2 SUB PUSH1 0x0 DUP4 ADD MSTORE PUSH2 0x2134 DUP2 PUSH2 0x20F8 JUMP JUMPDEST SWAP1 POP SWAP2 SWAP1 POP JUMP JUMPDEST PUSH32 0x4E487B7100000000000000000000000000000000000000000000000000000000 PUSH1 0x0 MSTORE PUSH1 0x32 PUSH1 0x4 MSTORE PUSH1 0x24 PUSH1 0x0 REVERT JUMPDEST PUSH32 0x496E76616C696420706172616D65746572730000000000000000000000000000 PUSH1 0x0 DUP3 ADD MSTORE POP JUMP JUMPDEST PUSH1 0x0 PUSH2 0x21A0 PUSH1 0x12 DUP4 PUSH2 0x20BE JUMP JUMPDEST SWAP2 POP PUSH2 0x21AB DUP3 PUSH2 0x216A JUMP JUMPDEST PUSH1 0x20 DUP3 ADD SWAP1 POP SWAP2 SWAP1 POP JUMP JUMPDEST PUSH1 0x0 PUSH1 0x20 DUP3 ADD SWAP1 POP DUP2 DUP2 SUB PUSH1 0x0 DUP4 ADD MSTORE PUSH2 0x21CF DUP2 PUSH2 0x2193 JUMP JUMPDEST SWAP1 POP SWAP2 SWAP1 POP JUMP JUMPDEST PUSH32 0x73657446696C6564206572726F72000000000000000000000000000000000000 PUSH1 0x0 DUP3 ADD MSTORE POP JUMP JUMPDEST PUSH1 0x0 PUSH2 0x220C PUSH1 0xE DUP4 PUSH2 0x20BE JUMP JUMPDEST SWAP2 POP PUSH2 0x2217 DUP3 PUSH2 0x21D6 JUMP JUMPDEST PUSH1 0x20 DUP3 ADD SWAP1 POP SWAP2 SWAP1 POP JUMP JUMPDEST PUSH1 0x0 PUSH1 0x20 DUP3 ADD SWAP1 POP DUP2 DUP2 SUB PUSH1 0x0 DUP4 ADD MSTORE PUSH2 0x223B DUP2 PUSH2 0x21FF JUMP JUMPDEST SWAP1 POP SWAP2 SWAP1 POP JUMP JUMPDEST PUSH1 0x0 DUP2 SWAP1 POP DUP2 PUSH1 0x0 MSTORE PUSH1 0x20 PUSH1 0x0 KECCAK256 SWAP1 POP SWAP2 SWAP1 POP JUMP JUMPDEST PUSH1 0x0 DUP2 SLOAD PUSH2 0x2264 DUP2 PUSH2 0x208D JUMP JUMPDEST PUSH2 0x226E DUP2 DUP7 PUSH2 0x1F94 JUMP JUMPDEST SWAP5 POP PUSH1 0x1 DUP3 AND PUSH1 0x0 DUP2 EQ PUSH2 0x2289 JUMPI PUSH1 0x1 DUP2 EQ PUSH2 0x229E JUMPI PUSH2 0x22D1 JUMP JUMPDEST PUSH1 0xFF NOT DUP4 AND DUP7 MSTORE DUP2 ISZERO ISZERO DUP3 MUL DUP7 ADD SWAP4 POP PUSH2 0x22D1 JUMP JUMPDEST PUSH2 0x22A7 DUP6 PUSH2 0x2242 JUMP JUMPDEST PUSH1 0x0 JUMPDEST DUP4 DUP2 LT ISZERO PUSH2 0x22C9 JUMPI DUP2 SLOAD DUP2 DUP10 ADD MSTORE PUSH1 0x1 DUP3 ADD SWAP2 POP PUSH1 0x20 DUP2 ADD SWAP1 POP PUSH2 0x22AA JUMP JUMPDEST DUP4 DUP9 ADD SWAP6 POP POP POP JUMPDEST POP POP POP SWAP3 SWAP2 POP POP JUMP JUMPDEST PUSH1 0x0 PUSH2 0x22E6 DUP3 DUP5 PUSH2 0x2257 JUMP JUMPDEST SWAP2 POP DUP2 SWAP1 POP SWAP3 SWAP2 POP POP JUMP JUMPDEST PUSH1 0x0 PUSH1 0x20 PUSH1 0x1F DUP4 ADD DIV SWAP1 POP SWAP2 SWAP1 POP JUMP JUMPDEST PUSH1 0x0 DUP3 DUP3 SHL SWAP1 POP SWAP3 SWAP2 POP POP JUMP JUMPDEST PUSH1 0x0 PUSH1 0x8 DUP4 MUL PUSH2 0x233E PUSH32 0xFFFFFFFFFFFFFFFFFFFFFFFFFFFFFFFFFFFFFFFFFFFFFFFFFFFFFFFFFFFFFFFF DUP3 PUSH2 0x2301 JUMP JUMPDEST PUSH2 0x2348 DUP7 DUP4 PUSH2 0x2301 JUMP JUMPDEST SWAP6 POP DUP1 NOT DUP5 AND SWAP4 POP DUP1 DUP7 AND DUP5 OR SWAP3 POP POP POP SWAP4 SWAP3 POP POP POP JUMP JUMPDEST PUSH1 0x0 DUP2 SWAP1 POP SWAP2 SWAP1 POP JUMP JUMPDEST PUSH1 0x0 PUSH2 0x2385 PUSH2 0x2380 PUSH2 0x237B DUP5 PUSH2 0x179A JUMP JUMPDEST PUSH2 0x2360 JUMP JUMPDEST PUSH2 0x179A JUMP JUMPDEST SWAP1 POP SWAP2 SWAP1 POP JUMP JUMPDEST PUSH1 0x0 DUP2 SWAP1 POP SWAP2 SWAP1 POP JUMP JUMPDEST PUSH2 0x239F DUP4 PUSH2 0x236A JUMP JUMPDEST PUSH2 0x23B3 PUSH2 0x23AB DUP3 PUSH2 0x238C JUMP JUMPDEST DUP5 DUP5 SLOAD PUSH2 0x230E JUMP JUMPDEST DUP3 SSTORE POP POP POP POP JUMP JUMPDEST PUSH1 0x0 SWAP1 JUMP JUMPDEST PUSH2 0x23C8 PUSH2 0x23BB JUMP JUMPDEST PUSH2 0x23D3 DUP2 DUP5 DUP5 PUSH2 0x2396 JUMP JUMPDEST POP POP POP JUMP JUMPDEST JUMPDEST DUP2 DUP2 LT ISZERO PUSH2 0x23F7 JUMPI PUSH2 0x23EC PUSH1 0x0 DUP3 PUSH2 0x23C0 JUMP JUMPDEST PUSH1 0x1 DUP2 ADD SWAP1 POP PUSH2 0x23D9 JUMP JUMPDEST POP POP JUMP JUMPDEST PUSH1 0x1F DUP3 GT ISZERO PUSH2 0x243C JUMPI PUSH2 0x240D DUP2 PUSH2 0x2242 JUMP JUMPDEST PUSH2 0x2416 DUP5 PUSH2 0x22F1 JUMP JUMPDEST DUP2 ADD PUSH1 0x20 DUP6 LT ISZERO PUSH2 0x2425 JUMPI DUP2 SWAP1 POP JUMPDEST PUSH2 0x2439 PUSH2 0x2431 DUP6 PUSH2 0x22F1 JUMP JUMPDEST DUP4 ADD DUP3 PUSH2 0x23D8 JUMP JUMPDEST POP POP JUMPDEST POP POP POP JUMP JUMPDEST PUSH1 0x0 DUP3 DUP3 SHR SWAP1 POP SWAP3 SWAP2 POP POP JUMP JUMPDEST PUSH1 0x0 PUSH2 0x245F PUSH1 0x0 NOT DUP5 PUSH1 0x8 MUL PUSH2 0x2441 JUMP JUMPDEST NOT DUP1 DUP4 AND SWAP2 POP POP SWAP3 SWAP2 POP POP JUMP JUMPDEST PUSH1 0x0 PUSH2 0x2478 DUP4 DUP4 PUSH2 0x244E JUMP JUMPDEST SWAP2 POP DUP3 PUSH1 0x2 MUL DUP3 OR SWAP1 POP SWAP3 SWAP2 POP POP JUMP JUMPDEST PUSH2 0x2491 DUP3 PUSH2 0x1AC6 JUMP JUMPDEST PUSH8 0xFFFFFFFFFFFFFFFF DUP2 GT ISZERO PUSH2 0x24AA JUMPI PUSH2 0x24A9 PUSH2 0x1613 JUMP JUMPDEST JUMPDEST PUSH2 0x24B4 DUP3 SLOAD PUSH2 0x208D JUMP JUMPDEST PUSH2 0x24BF DUP3 DUP3 DUP6 PUSH2 0x23FB JUMP JUMPDEST PUSH1 0x0 PUSH1 0x20 SWAP1 POP PUSH1 0x1F DUP4 GT PUSH1 0x1 DUP2 EQ PUSH2 0x24F2 JUMPI PUSH1 0x0 DUP5 ISZERO PUSH2 0x24E0 JUMPI DUP3 DUP8 ADD MLOAD SWAP1 POP JUMPDEST PUSH2 0x24EA DUP6 DUP3 PUSH2 0x246C JUMP JUMPDEST DUP7 SSTORE POP PUSH2 0x2552 JUMP JUMPDEST PUSH1 0x1F NOT DUP5 AND PUSH2 0x2500 DUP7 PUSH2 0x2242 JUMP JUMPDEST PUSH1 0x0 JUMPDEST DUP3 DUP2 LT ISZERO PUSH2 0x2528 JUMPI DUP5 DUP10 ADD MLOAD DUP3 SSTORE PUSH1 0x1 DUP3 ADD SWAP2 POP PUSH1 0x20 DUP6 ADD SWAP5 POP PUSH1 0x20 DUP2 ADD SWAP1 POP PUSH2 0x2503 JUMP JUMPDEST DUP7 DUP4 LT ISZERO PUSH2 0x2545 JUMPI DUP5 DUP10 ADD MLOAD PUSH2 0x2541 PUSH1 0x1F DUP10 AND DUP3 PUSH2 0x244E JUMP JUMPDEST DUP4 SSTORE POP JUMPDEST PUSH1 0x1 PUSH1 0x2 DUP9 MUL ADD DUP9 SSTORE POP POP POP JUMPDEST POP POP POP POP POP POP JUMP JUMPDEST PUSH1 0x0 PUSH2 0x2565 DUP3 PUSH2 0x179A JUMP JUMPDEST SWAP2 POP PUSH2 0x2570 DUP4 PUSH2 0x179A JUMP JUMPDEST SWAP3 POP DUP3 DUP3 ADD SWAP1 POP DUP1 DUP3 GT ISZERO PUSH2 0x2588 JUMPI PUSH2 0x2587 PUSH2 0x1FE7 JUMP JUMPDEST JUMPDEST SWAP3 SWAP2 POP POP JUMP JUMPDEST PUSH1 0x0 PUSH2 0x2599 DUP3 PUSH2 0x179A JUMP JUMPDEST SWAP2 POP PUSH2 0x25A4 DUP4 PUSH2 0x179A JUMP JUMPDEST SWAP3 POP DUP3 DUP3 SUB SWAP1 POP DUP2 DUP2 GT ISZERO PUSH2 0x25BC JUMPI PUSH2 0x25BB PUSH2 0x1FE7 JUMP JUMPDEST JUMPDEST SWAP3 SWAP2 POP POP JUMP JUMPDEST PUSH1 0x0 PUSH2 0x25CD DUP3 PUSH2 0x179A JUMP JUMPDEST SWAP2 POP PUSH2 0x25D8 DUP4 PUSH2 0x179A JUMP JUMPDEST SWAP3 POP DUP3 DUP3 MUL PUSH2 0x25E6 DUP2 PUSH2 0x179A JUMP JUMPDEST SWAP2 POP DUP3 DUP3 DIV DUP5 EQ DUP4 ISZERO OR PUSH2 0x25FD JUMPI PUSH2 0x25FC PUSH2 0x1FE7 JUMP JUMPDEST JUMPDEST POP SWAP3 SWAP2 POP POP JUMP JUMPDEST PUSH1 0x0 DUP2 PUSH1 0x1 SHR SWAP1 POP SWAP2 SWAP1 POP JUMP JUMPDEST PUSH1 0x0 DUP1 DUP3 SWAP2 POP DUP4 SWAP1 POP JUMPDEST PUSH1 0x1 DUP6 GT ISZERO PUSH2 0x265B JUMPI DUP1 DUP7 DIV DUP2 GT ISZERO PUSH2 0x2637 JUMPI PUSH2 0x2636 PUSH2 0x1FE7 JUMP JUMPDEST JUMPDEST PUSH1 0x1 DUP6 AND ISZERO PUSH2 0x2646 JUMPI DUP1 DUP3 MUL SWAP2 POP JUMPDEST DUP1 DUP2 MUL SWAP1 POP PUSH2 0x2654 DUP6 PUSH2 0x2604 JUMP JUMPDEST SWAP5 POP PUSH2 0x261B JUMP JUMPDEST SWAP5 POP SWAP5 SWAP3 POP POP POP JUMP JUMPDEST PUSH1 0x0 DUP3 PUSH2 0x2674 JUMPI PUSH1 0x1 SWAP1 POP PUSH2 0x2730 JUMP JUMPDEST DUP2 PUSH2 0x2682 JUMPI PUSH1 0x0 SWAP1 POP PUSH2 0x2730 JUMP JUMPDEST DUP2 PUSH1 0x1 DUP2 EQ PUSH2 0x2698 JUMPI PUSH1 0x2 DUP2 EQ PUSH2 0x26A2 JUMPI PUSH2 0x26D1 JUMP JUMPDEST PUSH1 0x1 SWAP2 POP POP PUSH2 0x2730 JUMP JUMPDEST PUSH1 0xFF DUP5 GT ISZERO PUSH2 0x26B4 JUMPI PUSH2 0x26B3 PUSH2 0x1FE7 JUMP JUMPDEST JUMPDEST DUP4 PUSH1 0x2 EXP SWAP2 POP DUP5 DUP3 GT ISZERO PUSH2 0x26CB JUMPI PUSH2 0x26CA PUSH2 0x1FE7 JUMP JUMPDEST JUMPDEST POP PUSH2 0x2730 JUMP JUMPDEST POP PUSH1 0x20 DUP4 LT PUSH2 0x133 DUP4 LT AND PUSH1 0x4E DUP5 LT PUSH1 0xB DUP5 LT AND OR ISZERO PUSH2 0x2706 JUMPI DUP3 DUP3 EXP SWAP1 POP DUP4 DUP2 GT ISZERO PUSH2 0x2701 JUMPI PUSH2 0x2700 PUSH2 0x1FE7 JUMP JUMPDEST JUMPDEST PUSH2 0x2730 JUMP JUMPDEST PUSH2 0x2713 DUP5 DUP5 DUP5 PUSH1 0x1 PUSH2 0x2611 JUMP JUMPDEST SWAP3 POP SWAP1 POP DUP2 DUP5 DIV DUP2 GT ISZERO PUSH2 0x272A JUMPI PUSH2 0x2729 PUSH2 0x1FE7 JUMP JUMPDEST JUMPDEST DUP2 DUP2 MUL SWAP1 POP JUMPDEST SWAP4 SWAP3 POP POP POP JUMP JUMPDEST PUSH1 0x0 PUSH2 0x2742 DUP3 PUSH2 0x179A JUMP JUMPDEST SWAP2 POP PUSH2 0x274D DUP4 PUSH2 0x179A JUMP JUMPDEST SWAP3 POP PUSH2 0x277A PUSH32 0xFFFFFFFFFFFFFFFFFFFFFFFFFFFFFFFFFFFFFFFFFFFFFFFFFFFFFFFFFFFFFFFF DUP5 DUP5 PUSH2 0x2664 JUMP JUMPDEST SWAP1 POP SWAP3 SWAP2 POP POP JUMP INVALID LOG2 PUSH5 0x6970667358 0x22 SLT KECCAK256 0xDA PUSH2 0x260E 0xC6 0x2F 0xCF PUSH28 0x26C71F44E68D2ED9FB2766637E5D0C16FCE2FC6856386D1E64736F6C PUSH4 0x43000811 STOP CALLER "
				},
				"gasEstimates": {
					"creation": {
						"codeDepositCost": "2033600",
						"executionCost": "2156",
						"totalCost": "2035756"
					},
					"external": {
						"checkArrayValue(uint256,string,bytes)": "infinite",
						"clearUniques(address,string,bytes)": "infinite",
						"delArrayValue(uint256,string)": "infinite",
						"delFiled(address,string)": "infinite",
						"delValues(address,uint256,string)": "infinite",
						"getArrayCount(uint256,string)": "infinite",
						"getArrayValue(uint256,string)": "infinite",
						"getAuth(address,string)": "infinite",
						"getType(address,string)": "infinite",
						"getUniques(address,string,bytes)": "infinite",
						"getValue(address,uint256,string)": "infinite",
						"removeArrayValue(uint256,string,bytes)": "infinite",
						"setArrayValue(uint256,string,bytes)": "infinite",
						"setFiled(address,string[],uint256[],uint256[])": "infinite",
						"setUniques(address,string,bytes)": "infinite",
						"setValues(address,uint256,string,bytes)": "infinite"
					},
					"internal": {
						"_delFiled(address,string memory)": "infinite",
						"_delValue(address,uint256,string memory)": "infinite",
						"_setFiled(address,string memory,uint256,uint256)": "infinite",
						"_setUniques(address,string memory,bytes memory,bool)": "infinite",
						"_setValue(address,uint256,string memory,bytes memory)": "infinite"
					}
				},
				"methodIdentifiers": {
					"checkArrayValue(uint256,string,bytes)": "c5dd2a4f",
					"clearUniques(address,string,bytes)": "89274885",
					"delArrayValue(uint256,string)": "6c8131a7",
					"delFiled(address,string)": "ba3258e3",
					"delValues(address,uint256,string)": "2942d3b0",
					"getArrayCount(uint256,string)": "5f599f93",
					"getArrayValue(uint256,string)": "8d7b2428",
					"getAuth(address,string)": "fb7cd6e4",
					"getType(address,string)": "10976bde",
					"getUniques(address,string,bytes)": "642b4d08",
					"getValue(address,uint256,string)": "74bdc66e",
					"removeArrayValue(uint256,string,bytes)": "ad487a2d",
					"setArrayValue(uint256,string,bytes)": "d4a419d3",
					"setFiled(address,string[],uint256[],uint256[])": "9ca360f2",
					"setUniques(address,string,bytes)": "ba36cefb",
					"setValues(address,uint256,string,bytes)": "55290c1b"
				}
			},
			"storageLayout": {
				"storage": [
					{
						"astId": 552,
						"contract": "contracts/ERC721Attr.sol:ERC721Attr",
						"label": "tokenAddress",
						"offset": 0,
						"slot": "0",
						"type": "t_contract(IERC721Token)1477"
					},
					{
						"astId": 560,
						"contract": "contracts/ERC721Attr.sol:ERC721Attr",
						"label": "values",
						"offset": 0,
						"slot": "1",
						"type": "t_mapping(t_address,t_mapping(t_uint256,t_mapping(t_string_memory_ptr,t_bytes_storage)))"
					},
					{
						"astId": 566,
						"contract": "contracts/ERC721Attr.sol:ERC721Attr",
						"label": "fieldsType",
						"offset": 0,
						"slot": "2",
						"type": "t_mapping(t_address,t_mapping(t_string_memory_ptr,t_uint256))"
					},
					{
						"astId": 572,
						"contract": "contracts/ERC721Attr.sol:ERC721Attr",
						"label": "fieldsAuth",
						"offset": 0,
						"slot": "3",
						"type": "t_mapping(t_address,t_mapping(t_string_memory_ptr,t_uint256))"
					},
					{
						"astId": 580,
						"contract": "contracts/ERC721Attr.sol:ERC721Attr",
						"label": "uniques",
						"offset": 0,
						"slot": "4",
						"type": "t_mapping(t_address,t_mapping(t_string_memory_ptr,t_mapping(t_bytes_memory_ptr,t_bool)))"
					},
					{
						"astId": 586,
						"contract": "contracts/ERC721Attr.sol:ERC721Attr",
						"label": "index",
						"offset": 0,
						"slot": "5",
						"type": "t_mapping(t_uint256,t_mapping(t_string_memory_ptr,t_uint256))"
					},
					{
						"astId": 594,
						"contract": "contracts/ERC721Attr.sol:ERC721Attr",
						"label": "arrayValue",
						"offset": 0,
						"slot": "6",
						"type": "t_mapping(t_uint256,t_mapping(t_string_memory_ptr,t_mapping(t_uint256,t_bytes_storage)))"
					}
				],
				"types": {
					"t_address": {
						"encoding": "inplace",
						"label": "address",
						"numberOfBytes": "20"
					},
					"t_bool": {
						"encoding": "inplace",
						"label": "bool",
						"numberOfBytes": "1"
					},
					"t_bytes_memory_ptr": {
						"encoding": "bytes",
						"label": "bytes",
						"numberOfBytes": "32"
					},
					"t_bytes_storage": {
						"encoding": "bytes",
						"label": "bytes",
						"numberOfBytes": "32"
					},
					"t_contract(IERC721Token)1477": {
						"encoding": "inplace",
						"label": "contract IERC721Token",
						"numberOfBytes": "20"
					},
					"t_mapping(t_address,t_mapping(t_string_memory_ptr,t_mapping(t_bytes_memory_ptr,t_bool)))": {
						"encoding": "mapping",
						"key": "t_address",
						"label": "mapping(address => mapping(string => mapping(bytes => bool)))",
						"numberOfBytes": "32",
						"value": "t_mapping(t_string_memory_ptr,t_mapping(t_bytes_memory_ptr,t_bool))"
					},
					"t_mapping(t_address,t_mapping(t_string_memory_ptr,t_uint256))": {
						"encoding": "mapping",
						"key": "t_address",
						"label": "mapping(address => mapping(string => uint256))",
						"numberOfBytes": "32",
						"value": "t_mapping(t_string_memory_ptr,t_uint256)"
					},
					"t_mapping(t_address,t_mapping(t_uint256,t_mapping(t_string_memory_ptr,t_bytes_storage)))": {
						"encoding": "mapping",
						"key": "t_address",
						"label": "mapping(address => mapping(uint256 => mapping(string => bytes)))",
						"numberOfBytes": "32",
						"value": "t_mapping(t_uint256,t_mapping(t_string_memory_ptr,t_bytes_storage))"
					},
					"t_mapping(t_bytes_memory_ptr,t_bool)": {
						"encoding": "mapping",
						"key": "t_bytes_memory_ptr",
						"label": "mapping(bytes => bool)",
						"numberOfBytes": "32",
						"value": "t_bool"
					},
					"t_mapping(t_string_memory_ptr,t_bytes_storage)": {
						"encoding": "mapping",
						"key": "t_string_memory_ptr",
						"label": "mapping(string => bytes)",
						"numberOfBytes": "32",
						"value": "t_bytes_storage"
					},
					"t_mapping(t_string_memory_ptr,t_mapping(t_bytes_memory_ptr,t_bool))": {
						"encoding": "mapping",
						"key": "t_string_memory_ptr",
						"label": "mapping(string => mapping(bytes => bool))",
						"numberOfBytes": "32",
						"value": "t_mapping(t_bytes_memory_ptr,t_bool)"
					},
					"t_mapping(t_string_memory_ptr,t_mapping(t_uint256,t_bytes_storage))": {
						"encoding": "mapping",
						"key": "t_string_memory_ptr",
						"label": "mapping(string => mapping(uint256 => bytes))",
						"numberOfBytes": "32",
						"value": "t_mapping(t_uint256,t_bytes_storage)"
					},
					"t_mapping(t_string_memory_ptr,t_uint256)": {
						"encoding": "mapping",
						"key": "t_string_memory_ptr",
						"label": "mapping(string => uint256)",
						"numberOfBytes": "32",
						"value": "t_uint256"
					},
					"t_mapping(t_uint256,t_bytes_storage)": {
						"encoding": "mapping",
						"key": "t_uint256",
						"label": "mapping(uint256 => bytes)",
						"numberOfBytes": "32",
						"value": "t_bytes_storage"
					},
					"t_mapping(t_uint256,t_mapping(t_string_memory_ptr,t_bytes_storage))": {
						"encoding": "mapping",
						"key": "t_uint256",
						"label": "mapping(uint256 => mapping(string => bytes))",
						"numberOfBytes": "32",
						"value": "t_mapping(t_string_memory_ptr,t_bytes_storage)"
					},
					"t_mapping(t_uint256,t_mapping(t_string_memory_ptr,t_mapping(t_uint256,t_bytes_storage)))": {
						"encoding": "mapping",
						"key": "t_uint256",
						"label": "mapping(uint256 => mapping(string => mapping(uint256 => bytes)))",
						"numberOfBytes": "32",
						"value": "t_mapping(t_string_memory_ptr,t_mapping(t_uint256,t_bytes_storage))"
					},
					"t_mapping(t_uint256,t_mapping(t_string_memory_ptr,t_uint256))": {
						"encoding": "mapping",
						"key": "t_uint256",
						"label": "mapping(uint256 => mapping(string => uint256))",
						"numberOfBytes": "32",
						"value": "t_mapping(t_string_memory_ptr,t_uint256)"
					},
					"t_string_memory_ptr": {
						"encoding": "bytes",
						"label": "string",
						"numberOfBytes": "32"
					},
					"t_uint256": {
						"encoding": "inplace",
						"label": "uint256",
						"numberOfBytes": "32"
					}
				}
			},
			"userdoc": {
				"kind": "user",
				"methods": {},
				"version": 1
			}
		}
	}
}