{
	"contracts/HandoutPool.sol": {
		"HandoutPoolContract": {
			"abi": [
				{
					"inputs": [],
					"stateMutability": "nonpayable",
					"type": "constructor"
				},
				{
					"anonymous": false,
					"inputs": [
						{
							"indexed": true,
							"internalType": "address",
							"name": "src",
							"type": "address"
						},
						{
							"indexed": true,
							"internalType": "address",
							"name": "dst",
							"type": "address"
						},
						{
							"indexed": false,
							"internalType": "uint256",
							"name": "value",
							"type": "uint256"
						}
					],
					"name": "Transfer",
					"type": "event"
				},
				{
					"inputs": [
						{
							"internalType": "address",
							"name": "token",
							"type": "address"
						},
						{
							"internalType": "address[]",
							"name": "to",
							"type": "address[]"
						},
						{
							"internalType": "uint256[]",
							"name": "v",
							"type": "uint256[]"
						},
						{
							"internalType": "uint256",
							"name": "d",
							"type": "uint256"
						}
					],
					"name": "Handout",
					"outputs": [],
					"stateMutability": "nonpayable",
					"type": "function"
				},
				{
					"inputs": [
						{
							"internalType": "address[]",
							"name": "to",
							"type": "address[]"
						},
						{
							"internalType": "uint256[]",
							"name": "v",
							"type": "uint256[]"
						},
						{
							"internalType": "uint256",
							"name": "d",
							"type": "uint256"
						}
					],
					"name": "Handout",
					"outputs": [],
					"stateMutability": "nonpayable",
					"type": "function"
				},
				{
					"inputs": [
						{
							"internalType": "address",
							"name": "token",
							"type": "address"
						},
						{
							"internalType": "address[]",
							"name": "to",
							"type": "address[]"
						},
						{
							"internalType": "uint256[]",
							"name": "v",
							"type": "uint256[]"
						}
					],
					"name": "Handout",
					"outputs": [],
					"stateMutability": "nonpayable",
					"type": "function"
				},
				{
					"inputs": [
						{
							"internalType": "address",
							"name": "token",
							"type": "address"
						},
						{
							"internalType": "address[]",
							"name": "to",
							"type": "address[]"
						},
						{
							"internalType": "uint256",
							"name": "v",
							"type": "uint256"
						},
						{
							"internalType": "uint256",
							"name": "d",
							"type": "uint256"
						}
					],
					"name": "Handout",
					"outputs": [],
					"stateMutability": "nonpayable",
					"type": "function"
				},
				{
					"inputs": [
						{
							"internalType": "address[]",
							"name": "to",
							"type": "address[]"
						},
						{
							"internalType": "uint256",
							"name": "v",
							"type": "uint256"
						}
					],
					"name": "Handout",
					"outputs": [],
					"stateMutability": "nonpayable",
					"type": "function"
				},
				{
					"inputs": [
						{
							"internalType": "address[]",
							"name": "to",
							"type": "address[]"
						},
						{
							"internalType": "uint256[]",
							"name": "v",
							"type": "uint256[]"
						}
					],
					"name": "Handout",
					"outputs": [],
					"stateMutability": "nonpayable",
					"type": "function"
				},
				{
					"inputs": [
						{
							"internalType": "address[]",
							"name": "to",
							"type": "address[]"
						},
						{
							"internalType": "uint256",
							"name": "v",
							"type": "uint256"
						},
						{
							"internalType": "uint256",
							"name": "d",
							"type": "uint256"
						}
					],
					"name": "Handout",
					"outputs": [],
					"stateMutability": "nonpayable",
					"type": "function"
				},
				{
					"inputs": [
						{
							"internalType": "address",
							"name": "token",
							"type": "address"
						},
						{
							"internalType": "address[]",
							"name": "to",
							"type": "address[]"
						},
						{
							"internalType": "uint256",
							"name": "v",
							"type": "uint256"
						}
					],
					"name": "Handout",
					"outputs": [],
					"stateMutability": "nonpayable",
					"type": "function"
				},
				{
					"inputs": [
						{
							"internalType": "address[]",
							"name": "lst",
							"type": "address[]"
						},
						{
							"internalType": "bool",
							"name": "b",
							"type": "bool"
						}
					],
					"name": "setAdmin",
					"outputs": [],
					"stateMutability": "nonpayable",
					"type": "function"
				},
				{
					"stateMutability": "payable",
					"type": "receive"
				}
			],
			"devdoc": {
				"kind": "dev",
				"methods": {},
				"version": 1
			},
			"evm": {
				"assembly": "    /* \"contracts/HandoutPool.sol\":12643:16269  contract HandoutPoolContract {... */\n  mstore(0x40, 0x80)\n    /* \"contracts/HandoutPool.sol\":13083:13169  constructor() {... */\n  callvalue\n  dup1\n  iszero\n  tag_1\n  jumpi\n  0x00\n  dup1\n  revert\ntag_1:\n  pop\n    /* \"contracts/HandoutPool.sol\":13116:13126  msg.sender */\n  caller\n    /* \"contracts/HandoutPool.sol\":13107:13113  _owner */\n  0x00\n  dup1\n    /* \"contracts/HandoutPool.sol\":13107:13126  _owner = msg.sender */\n  0x0100\n  exp\n  dup2\n  sload\n  dup2\n  0xffffffffffffffffffffffffffffffffffffffff\n  mul\n  not\n  and\n  swap1\n  dup4\n  0xffffffffffffffffffffffffffffffffffffffff\n  and\n  mul\n  or\n  swap1\n  sstore\n  pop\n    /* \"contracts/HandoutPool.sol\":13158:13162  true */\n  0x01\n    /* \"contracts/HandoutPool.sol\":13136:13143  _admins */\n  dup1\n    /* \"contracts/HandoutPool.sol\":13136:13155  _admins[msg.sender] */\n  0x00\n    /* \"contracts/HandoutPool.sol\":13144:13154  msg.sender */\n  caller\n    /* \"contracts/HandoutPool.sol\":13136:13155  _admins[msg.sender] */\n  0xffffffffffffffffffffffffffffffffffffffff\n  and\n  0xffffffffffffffffffffffffffffffffffffffff\n  and\n  dup2\n  mstore\n  0x20\n  add\n  swap1\n  dup2\n  mstore\n  0x20\n  add\n  0x00\n  keccak256\n  0x00\n    /* \"contracts/HandoutPool.sol\":13136:13162  _admins[msg.sender] = true */\n  0x0100\n  exp\n  dup2\n  sload\n  dup2\n  0xff\n  mul\n  not\n  and\n  swap1\n  dup4\n  iszero\n  iszero\n  mul\n  or\n  swap1\n  sstore\n  pop\n    /* \"contracts/HandoutPool.sol\":12643:16269  contract HandoutPoolContract {... */\n  dataSize(sub_0)\n  dup1\n  dataOffset(sub_0)\n  0x00\n  codecopy\n  0x00\n  return\nstop\n\nsub_0: assembly {\n        /* \"contracts/HandoutPool.sol\":12643:16269  contract HandoutPoolContract {... */\n      mstore(0x40, 0x80)\n      jumpi(tag_1, lt(calldatasize, 0x04))\n      shr(0xe0, calldataload(0x00))\n      dup1\n      0x676d0b79\n      gt\n      tag_12\n      jumpi\n      dup1\n      0x676d0b79\n      eq\n      tag_7\n      jumpi\n      dup1\n      0x84e7686b\n      eq\n      tag_8\n      jumpi\n      dup1\n      0x8ff6d1d8\n      eq\n      tag_9\n      jumpi\n      dup1\n      0xea778da7\n      eq\n      tag_10\n      jumpi\n      dup1\n      0xee09d588\n      eq\n      tag_11\n      jumpi\n      jump(tag_2)\n    tag_12:\n      dup1\n      0x0af10131\n      eq\n      tag_3\n      jumpi\n      dup1\n      0x23a04ae1\n      eq\n      tag_4\n      jumpi\n      dup1\n      0x36df0db0\n      eq\n      tag_5\n      jumpi\n      dup1\n      0x3d14a922\n      eq\n      tag_6\n      jumpi\n      jump(tag_2)\n    tag_1:\n      jumpi(tag_2, calldatasize)\n      stop\n    tag_2:\n      0x00\n      dup1\n      revert\n        /* \"contracts/HandoutPool.sol\":15926:16267  function Handout(address token, address[] memory to, uint[] memory v, uint d) public onlyOwner {... */\n    tag_3:\n      callvalue\n      dup1\n      iszero\n      tag_15\n      jumpi\n      0x00\n      dup1\n      revert\n    tag_15:\n      pop\n      tag_16\n      0x04\n      dup1\n      calldatasize\n      sub\n      dup2\n      add\n      swap1\n      tag_17\n      swap2\n      swap1\n      tag_18\n      jump\t// in\n    tag_17:\n      tag_19\n      jump\t// in\n    tag_16:\n      stop\n        /* \"contracts/HandoutPool.sol\":14459:14867  function Handout(address[] memory to, uint[] memory v, uint d) public onlyAdmin {... */\n    tag_4:\n      callvalue\n      dup1\n      iszero\n      tag_20\n      jumpi\n      0x00\n      dup1\n      revert\n    tag_20:\n      pop\n      tag_21\n      0x04\n      dup1\n      calldatasize\n      sub\n      dup2\n      add\n      swap1\n      tag_22\n      swap2\n      swap1\n      tag_23\n      jump\t// in\n    tag_22:\n      tag_24\n      jump\t// in\n    tag_21:\n      stop\n        /* \"contracts/HandoutPool.sol\":15589:15916  function Handout(address token, address[] memory to, uint[] memory v) public onlyAdmin {... */\n    tag_5:\n      callvalue\n      dup1\n      iszero\n      tag_25\n      jumpi\n      0x00\n      dup1\n      revert\n    tag_25:\n      pop\n      tag_26\n      0x04\n      dup1\n      calldatasize\n      sub\n      dup2\n      add\n      swap1\n      tag_27\n      swap2\n      swap1\n      tag_28\n      jump\t// in\n    tag_27:\n      tag_29\n      jump\t// in\n    tag_26:\n      stop\n        /* \"contracts/HandoutPool.sol\":15198:15583  function Handout(address token, address[] memory to, uint v, uint d) public onlyAdmin {... */\n    tag_6:\n      callvalue\n      dup1\n      iszero\n      tag_30\n      jumpi\n      0x00\n      dup1\n      revert\n    tag_30:\n      pop\n      tag_31\n      0x04\n      dup1\n      calldatasize\n      sub\n      dup2\n      add\n      swap1\n      tag_32\n      swap2\n      swap1\n      tag_33\n      jump\t// in\n    tag_32:\n      tag_34\n      jump\t// in\n    tag_31:\n      stop\n        /* \"contracts/HandoutPool.sol\":13394:13710  function Handout(address[] memory to, uint v) public onlyAdmin {... */\n    tag_7:\n      callvalue\n      dup1\n      iszero\n      tag_35\n      jumpi\n      0x00\n      dup1\n      revert\n    tag_35:\n      pop\n      tag_36\n      0x04\n      dup1\n      calldatasize\n      sub\n      dup2\n      add\n      swap1\n      tag_37\n      swap2\n      swap1\n      tag_38\n      jump\t// in\n    tag_37:\n      tag_39\n      jump\t// in\n    tag_36:\n      stop\n        /* \"contracts/HandoutPool.sol\":13219:13384  function setAdmin(address[] memory lst, bool b) public onlyOwner() {... */\n    tag_8:\n      callvalue\n      dup1\n      iszero\n      tag_40\n      jumpi\n      0x00\n      dup1\n      revert\n    tag_40:\n      pop\n      tag_41\n      0x04\n      dup1\n      calldatasize\n      sub\n      dup2\n      add\n      swap1\n      tag_42\n      swap2\n      swap1\n      tag_43\n      jump\t// in\n    tag_42:\n      tag_44\n      jump\t// in\n    tag_41:\n      stop\n        /* \"contracts/HandoutPool.sol\":14118:14453  function Handout(address[] memory to, uint[] memory v) public onlyAdmin {... */\n    tag_9:\n      callvalue\n      dup1\n      iszero\n      tag_45\n      jumpi\n      0x00\n      dup1\n      revert\n    tag_45:\n      pop\n      tag_46\n      0x04\n      dup1\n      calldatasize\n      sub\n      dup2\n      add\n      swap1\n      tag_47\n      swap2\n      swap1\n      tag_48\n      jump\t// in\n    tag_47:\n      tag_49\n      jump\t// in\n    tag_46:\n      stop\n        /* \"contracts/HandoutPool.sol\":13720:14112  function Handout(address[] memory to, uint v, uint d) public onlyAdmin {... */\n    tag_10:\n      callvalue\n      dup1\n      iszero\n      tag_50\n      jumpi\n      0x00\n      dup1\n      revert\n    tag_50:\n      pop\n      tag_51\n      0x04\n      dup1\n      calldatasize\n      sub\n      dup2\n      add\n      swap1\n      tag_52\n      swap2\n      swap1\n      tag_53\n      jump\t// in\n    tag_52:\n      tag_54\n      jump\t// in\n    tag_51:\n      stop\n        /* \"contracts/HandoutPool.sol\":14877:15188  function Handout(address token, address[] memory to, uint v) public onlyAdmin {... */\n    tag_11:\n      callvalue\n      dup1\n      iszero\n      tag_55\n      jumpi\n      0x00\n      dup1\n      revert\n    tag_55:\n      pop\n      tag_56\n      0x04\n      dup1\n      calldatasize\n      sub\n      dup2\n      add\n      swap1\n      tag_57\n      swap2\n      swap1\n      tag_58\n      jump\t// in\n    tag_57:\n      tag_59\n      jump\t// in\n    tag_56:\n      stop\n        /* \"contracts/HandoutPool.sol\":15926:16267  function Handout(address token, address[] memory to, uint[] memory v, uint d) public onlyOwner {... */\n    tag_19:\n        /* \"contracts/HandoutPool.sol\":12838:12844  _owner */\n      0x00\n      dup1\n      sload\n      swap1\n      0x0100\n      exp\n      swap1\n      div\n      0xffffffffffffffffffffffffffffffffffffffff\n      and\n        /* \"contracts/HandoutPool.sol\":12824:12844  msg.sender == _owner */\n      0xffffffffffffffffffffffffffffffffffffffff\n      and\n        /* \"contracts/HandoutPool.sol\":12824:12834  msg.sender */\n      caller\n        /* \"contracts/HandoutPool.sol\":12824:12844  msg.sender == _owner */\n      0xffffffffffffffffffffffffffffffffffffffff\n      and\n      eq\n        /* \"contracts/HandoutPool.sol\":12816:12869  require(msg.sender == _owner, \"Only owner can do it\") */\n      tag_61\n      jumpi\n      mload(0x40)\n      0x08c379a000000000000000000000000000000000000000000000000000000000\n      dup2\n      mstore\n      0x04\n      add\n      tag_62\n      swap1\n      tag_63\n      jump\t// in\n    tag_62:\n      mload(0x40)\n      dup1\n      swap2\n      sub\n      swap1\n      revert\n    tag_61:\n        /* \"contracts/HandoutPool.sol\":16036:16042  uint i */\n      0x00\n        /* \"contracts/HandoutPool.sol\":16031:16261  for (uint i = 0; i < to.length; i++) {... */\n    tag_65:\n        /* \"contracts/HandoutPool.sol\":16052:16054  to */\n      dup4\n        /* \"contracts/HandoutPool.sol\":16052:16061  to.length */\n      mload\n        /* \"contracts/HandoutPool.sol\":16048:16049  i */\n      dup2\n        /* \"contracts/HandoutPool.sol\":16048:16061  i < to.length */\n      lt\n        /* \"contracts/HandoutPool.sol\":16031:16261  for (uint i = 0; i < to.length; i++) {... */\n      iszero\n      tag_66\n      jumpi\n        /* \"contracts/HandoutPool.sol\":16082:16092  uint value */\n      0x00\n        /* \"contracts/HandoutPool.sol\":16114:16115  d */\n      dup3\n        /* \"contracts/HandoutPool.sol\":16109:16111  18 */\n      0x12\n        /* \"contracts/HandoutPool.sol\":16109:16115  18 - d */\n      tag_68\n      swap2\n      swap1\n      tag_69\n      jump\t// in\n    tag_68:\n        /* \"contracts/HandoutPool.sol\":16102:16104  10 */\n      0x0a\n        /* \"contracts/HandoutPool.sol\":16102:16116  10 ** (18 - d) */\n      tag_70\n      swap2\n      swap1\n      tag_71\n      jump\t// in\n    tag_70:\n        /* \"contracts/HandoutPool.sol\":16095:16096  v */\n      dup5\n        /* \"contracts/HandoutPool.sol\":16097:16098  i */\n      dup4\n        /* \"contracts/HandoutPool.sol\":16095:16099  v[i] */\n      dup2\n      mload\n      dup2\n      lt\n      tag_72\n      jumpi\n      tag_73\n      tag_74\n      jump\t// in\n    tag_73:\n    tag_72:\n      0x20\n      mul\n      0x20\n      add\n      add\n      mload\n        /* \"contracts/HandoutPool.sol\":16095:16116  v[i] * 10 ** (18 - d) */\n      tag_75\n      swap2\n      swap1\n      tag_76\n      jump\t// in\n    tag_75:\n        /* \"contracts/HandoutPool.sol\":16082:16116  uint value = v[i] * 10 ** (18 - d) */\n      swap1\n      pop\n        /* \"contracts/HandoutPool.sol\":16185:16190  value */\n      dup1\n        /* \"contracts/HandoutPool.sol\":16150:16155  token */\n      dup7\n        /* \"contracts/HandoutPool.sol\":16138:16166  IERC20Token(token).balanceOf */\n      0xffffffffffffffffffffffffffffffffffffffff\n      and\n      0x70a08231\n        /* \"contracts/HandoutPool.sol\":16175:16179  this */\n      address\n        /* \"contracts/HandoutPool.sol\":16138:16181  IERC20Token(token).balanceOf(address(this)) */\n      mload(0x40)\n      dup3\n      0xffffffff\n      and\n      0xe0\n      shl\n      dup2\n      mstore\n      0x04\n      add\n      tag_77\n      swap2\n      swap1\n      tag_78\n      jump\t// in\n    tag_77:\n      0x20\n      mload(0x40)\n      dup1\n      dup4\n      sub\n      dup2\n      dup7\n      gas\n      staticcall\n      iszero\n      dup1\n      iszero\n      tag_80\n      jumpi\n      returndatasize\n      0x00\n      dup1\n      returndatacopy\n      revert(0x00, returndatasize)\n    tag_80:\n      pop\n      pop\n      pop\n      pop\n      mload(0x40)\n      returndatasize\n      not(0x1f)\n      0x1f\n      dup3\n      add\n      and\n      dup3\n      add\n      dup1\n      0x40\n      mstore\n      pop\n      dup2\n      add\n      swap1\n      tag_81\n      swap2\n      swap1\n      tag_82\n      jump\t// in\n    tag_81:\n        /* \"contracts/HandoutPool.sol\":16138:16190  IERC20Token(token).balanceOf(address(this)) >= value */\n      lt\n      iszero\n        /* \"contracts/HandoutPool.sol\":16130:16191  require(IERC20Token(token).balanceOf(address(this)) >= value) */\n      tag_83\n      jumpi\n      0x00\n      dup1\n      revert\n    tag_83:\n        /* \"contracts/HandoutPool.sol\":16205:16250  IERC20Token(token).safeTransfer(to[i], value) */\n      tag_84\n        /* \"contracts/HandoutPool.sol\":16237:16239  to */\n      dup6\n        /* \"contracts/HandoutPool.sol\":16240:16241  i */\n      dup4\n        /* \"contracts/HandoutPool.sol\":16237:16242  to[i] */\n      dup2\n      mload\n      dup2\n      lt\n      tag_85\n      jumpi\n      tag_86\n      tag_74\n      jump\t// in\n    tag_86:\n    tag_85:\n      0x20\n      mul\n      0x20\n      add\n      add\n      mload\n        /* \"contracts/HandoutPool.sol\":16244:16249  value */\n      dup3\n        /* \"contracts/HandoutPool.sol\":16217:16222  token */\n      dup9\n        /* \"contracts/HandoutPool.sol\":16205:16236  IERC20Token(token).safeTransfer */\n      0xffffffffffffffffffffffffffffffffffffffff\n      and\n      tag_87\n      swap1\n        /* \"contracts/HandoutPool.sol\":16205:16250  IERC20Token(token).safeTransfer(to[i], value) */\n      swap3\n      swap2\n      swap1\n      0xffffffff\n      and\n      jump\t// in\n    tag_84:\n        /* \"contracts/HandoutPool.sol\":16068:16261  {... */\n      pop\n        /* \"contracts/HandoutPool.sol\":16063:16066  i++ */\n      dup1\n      dup1\n      tag_88\n      swap1\n      tag_89\n      jump\t// in\n    tag_88:\n      swap2\n      pop\n      pop\n        /* \"contracts/HandoutPool.sol\":16031:16261  for (uint i = 0; i < to.length; i++) {... */\n      jump(tag_65)\n    tag_66:\n      pop\n        /* \"contracts/HandoutPool.sol\":15926:16267  function Handout(address token, address[] memory to, uint[] memory v, uint d) public onlyOwner {... */\n      pop\n      pop\n      pop\n      pop\n      jump\t// out\n        /* \"contracts/HandoutPool.sol\":14459:14867  function Handout(address[] memory to, uint[] memory v, uint d) public onlyAdmin {... */\n    tag_24:\n        /* \"contracts/HandoutPool.sol\":12932:12939  _admins */\n      0x01\n        /* \"contracts/HandoutPool.sol\":12932:12951  _admins[msg.sender] */\n      0x00\n        /* \"contracts/HandoutPool.sol\":12940:12950  msg.sender */\n      caller\n        /* \"contracts/HandoutPool.sol\":12932:12951  _admins[msg.sender] */\n      0xffffffffffffffffffffffffffffffffffffffff\n      and\n      0xffffffffffffffffffffffffffffffffffffffff\n      and\n      dup2\n      mstore\n      0x20\n      add\n      swap1\n      dup2\n      mstore\n      0x20\n      add\n      0x00\n      keccak256\n      0x00\n      swap1\n      sload\n      swap1\n      0x0100\n      exp\n      swap1\n      div\n      0xff\n      and\n        /* \"contracts/HandoutPool.sol\":12924:12976  require(_admins[msg.sender], \"Only admin can do it\") */\n      tag_91\n      jumpi\n      mload(0x40)\n      0x08c379a000000000000000000000000000000000000000000000000000000000\n      dup2\n      mstore\n      0x04\n      add\n      tag_92\n      swap1\n      tag_93\n      jump\t// in\n    tag_92:\n      mload(0x40)\n      dup1\n      swap2\n      sub\n      swap1\n      revert\n    tag_91:\n        /* \"contracts/HandoutPool.sol\":14562:14564  18 */\n      0x12\n        /* \"contracts/HandoutPool.sol\":14557:14558  d */\n      dup2\n        /* \"contracts/HandoutPool.sol\":14557:14564  d <= 18 */\n      gt\n      iszero\n        /* \"contracts/HandoutPool.sol\":14549:14598  require(d <= 18, \"Decimals must be less than 18\") */\n      tag_95\n      jumpi\n      mload(0x40)\n      0x08c379a000000000000000000000000000000000000000000000000000000000\n      dup2\n      mstore\n      0x04\n      add\n      tag_96\n      swap1\n      tag_97\n      jump\t// in\n    tag_96:\n      mload(0x40)\n      dup1\n      swap2\n      sub\n      swap1\n      revert\n    tag_95:\n        /* \"contracts/HandoutPool.sol\":14613:14619  uint i */\n      0x00\n        /* \"contracts/HandoutPool.sol\":14608:14861  for (uint i = 0; i < to.length; i++) {... */\n    tag_98:\n        /* \"contracts/HandoutPool.sol\":14629:14631  to */\n      dup4\n        /* \"contracts/HandoutPool.sol\":14629:14638  to.length */\n      mload\n        /* \"contracts/HandoutPool.sol\":14625:14626  i */\n      dup2\n        /* \"contracts/HandoutPool.sol\":14625:14638  i < to.length */\n      lt\n        /* \"contracts/HandoutPool.sol\":14608:14861  for (uint i = 0; i < to.length; i++) {... */\n      iszero\n      tag_99\n      jumpi\n        /* \"contracts/HandoutPool.sol\":14659:14669  uint value */\n      0x00\n        /* \"contracts/HandoutPool.sol\":14691:14692  d */\n      dup3\n        /* \"contracts/HandoutPool.sol\":14686:14688  18 */\n      0x12\n        /* \"contracts/HandoutPool.sol\":14686:14692  18 - d */\n      tag_101\n      swap2\n      swap1\n      tag_69\n      jump\t// in\n    tag_101:\n        /* \"contracts/HandoutPool.sol\":14679:14681  10 */\n      0x0a\n        /* \"contracts/HandoutPool.sol\":14679:14693  10 ** (18 - d) */\n      tag_102\n      swap2\n      swap1\n      tag_71\n      jump\t// in\n    tag_102:\n        /* \"contracts/HandoutPool.sol\":14672:14673  v */\n      dup5\n        /* \"contracts/HandoutPool.sol\":14674:14675  i */\n      dup4\n        /* \"contracts/HandoutPool.sol\":14672:14676  v[i] */\n      dup2\n      mload\n      dup2\n      lt\n      tag_103\n      jumpi\n      tag_104\n      tag_74\n      jump\t// in\n    tag_104:\n    tag_103:\n      0x20\n      mul\n      0x20\n      add\n      add\n      mload\n        /* \"contracts/HandoutPool.sol\":14672:14693  v[i] * 10 ** (18 - d) */\n      tag_105\n      swap2\n      swap1\n      tag_76\n      jump\t// in\n    tag_105:\n        /* \"contracts/HandoutPool.sol\":14659:14693  uint value = v[i] * 10 ** (18 - d) */\n      swap1\n      pop\n        /* \"contracts/HandoutPool.sol\":14740:14745  value */\n      dup1\n        /* \"contracts/HandoutPool.sol\":14715:14736  address(this).balance */\n      selfbalance\n        /* \"contracts/HandoutPool.sol\":14715:14745  address(this).balance >= value */\n      lt\n      iszero\n        /* \"contracts/HandoutPool.sol\":14707:14746  require(address(this).balance >= value) */\n      tag_106\n      jumpi\n      0x00\n      dup1\n      revert\n    tag_106:\n        /* \"contracts/HandoutPool.sol\":14768:14770  to */\n      dup5\n        /* \"contracts/HandoutPool.sol\":14771:14772  i */\n      dup3\n        /* \"contracts/HandoutPool.sol\":14768:14773  to[i] */\n      dup2\n      mload\n      dup2\n      lt\n      tag_107\n      jumpi\n      tag_108\n      tag_74\n      jump\t// in\n    tag_108:\n    tag_107:\n      0x20\n      mul\n      0x20\n      add\n      add\n      mload\n        /* \"contracts/HandoutPool.sol\":14760:14783  payable(to[i]).transfer */\n      0xffffffffffffffffffffffffffffffffffffffff\n      and\n        /* \"contracts/HandoutPool.sol\":14760:14790  payable(to[i]).transfer(value) */\n      0x08fc\n        /* \"contracts/HandoutPool.sol\":14784:14789  value */\n      dup3\n        /* \"contracts/HandoutPool.sol\":14760:14790  payable(to[i]).transfer(value) */\n      swap1\n      dup2\n      iszero\n      mul\n      swap1\n      mload(0x40)\n      0x00\n      mload(0x40)\n      dup1\n      dup4\n      sub\n      dup2\n      dup6\n      dup9\n      dup9\n      call\n      swap4\n      pop\n      pop\n      pop\n      pop\n      iszero\n      dup1\n      iszero\n      tag_110\n      jumpi\n      returndatasize\n      0x00\n      dup1\n      returndatacopy\n      revert(0x00, returndatasize)\n    tag_110:\n      pop\n        /* \"contracts/HandoutPool.sol\":14833:14835  to */\n      dup5\n        /* \"contracts/HandoutPool.sol\":14836:14837  i */\n      dup3\n        /* \"contracts/HandoutPool.sol\":14833:14838  to[i] */\n      dup2\n      mload\n      dup2\n      lt\n      tag_111\n      jumpi\n      tag_112\n      tag_74\n      jump\t// in\n    tag_112:\n    tag_111:\n      0x20\n      mul\n      0x20\n      add\n      add\n      mload\n        /* \"contracts/HandoutPool.sol\":14809:14846  Transfer(address(this), to[i], value) */\n      0xffffffffffffffffffffffffffffffffffffffff\n      and\n        /* \"contracts/HandoutPool.sol\":14826:14830  this */\n      address\n        /* \"contracts/HandoutPool.sol\":14809:14846  Transfer(address(this), to[i], value) */\n      0xffffffffffffffffffffffffffffffffffffffff\n      and\n      0xddf252ad1be2c89b69c2b068fc378daa952ba7f163c4a11628f55a4df523b3ef\n        /* \"contracts/HandoutPool.sol\":14840:14845  value */\n      dup4\n        /* \"contracts/HandoutPool.sol\":14809:14846  Transfer(address(this), to[i], value) */\n      mload(0x40)\n      tag_113\n      swap2\n      swap1\n      tag_114\n      jump\t// in\n    tag_113:\n      mload(0x40)\n      dup1\n      swap2\n      sub\n      swap1\n      log3\n        /* \"contracts/HandoutPool.sol\":14645:14861  {... */\n      pop\n        /* \"contracts/HandoutPool.sol\":14640:14643  i++ */\n      dup1\n      dup1\n      tag_115\n      swap1\n      tag_89\n      jump\t// in\n    tag_115:\n      swap2\n      pop\n      pop\n        /* \"contracts/HandoutPool.sol\":14608:14861  for (uint i = 0; i < to.length; i++) {... */\n      jump(tag_98)\n    tag_99:\n      pop\n        /* \"contracts/HandoutPool.sol\":14459:14867  function Handout(address[] memory to, uint[] memory v, uint d) public onlyAdmin {... */\n      pop\n      pop\n      pop\n      jump\t// out\n        /* \"contracts/HandoutPool.sol\":15589:15916  function Handout(address token, address[] memory to, uint[] memory v) public onlyAdmin {... */\n    tag_29:\n        /* \"contracts/HandoutPool.sol\":12932:12939  _admins */\n      0x01\n        /* \"contracts/HandoutPool.sol\":12932:12951  _admins[msg.sender] */\n      0x00\n        /* \"contracts/HandoutPool.sol\":12940:12950  msg.sender */\n      caller\n        /* \"contracts/HandoutPool.sol\":12932:12951  _admins[msg.sender] */\n      0xffffffffffffffffffffffffffffffffffffffff\n      and\n      0xffffffffffffffffffffffffffffffffffffffff\n      and\n      dup2\n      mstore\n      0x20\n      add\n      swap1\n      dup2\n      mstore\n      0x20\n      add\n      0x00\n      keccak256\n      0x00\n      swap1\n      sload\n      swap1\n      0x0100\n      exp\n      swap1\n      div\n      0xff\n      and\n        /* \"contracts/HandoutPool.sol\":12924:12976  require(_admins[msg.sender], \"Only admin can do it\") */\n      tag_117\n      jumpi\n      mload(0x40)\n      0x08c379a000000000000000000000000000000000000000000000000000000000\n      dup2\n      mstore\n      0x04\n      add\n      tag_118\n      swap1\n      tag_93\n      jump\t// in\n    tag_118:\n      mload(0x40)\n      dup1\n      swap2\n      sub\n      swap1\n      revert\n    tag_117:\n        /* \"contracts/HandoutPool.sol\":15691:15697  uint i */\n      0x00\n        /* \"contracts/HandoutPool.sol\":15686:15910  for (uint i = 0; i < to.length; i++) {... */\n    tag_120:\n        /* \"contracts/HandoutPool.sol\":15707:15709  to */\n      dup3\n        /* \"contracts/HandoutPool.sol\":15707:15716  to.length */\n      mload\n        /* \"contracts/HandoutPool.sol\":15703:15704  i */\n      dup2\n        /* \"contracts/HandoutPool.sol\":15703:15716  i < to.length */\n      lt\n        /* \"contracts/HandoutPool.sol\":15686:15910  for (uint i = 0; i < to.length; i++) {... */\n      iszero\n      tag_121\n      jumpi\n        /* \"contracts/HandoutPool.sol\":15737:15747  uint value */\n      0x00\n        /* \"contracts/HandoutPool.sol\":15757:15765  10 ** 18 */\n      0x0de0b6b3a7640000\n        /* \"contracts/HandoutPool.sol\":15750:15751  v */\n      dup4\n        /* \"contracts/HandoutPool.sol\":15752:15753  i */\n      dup4\n        /* \"contracts/HandoutPool.sol\":15750:15754  v[i] */\n      dup2\n      mload\n      dup2\n      lt\n      tag_123\n      jumpi\n      tag_124\n      tag_74\n      jump\t// in\n    tag_124:\n    tag_123:\n      0x20\n      mul\n      0x20\n      add\n      add\n      mload\n        /* \"contracts/HandoutPool.sol\":15750:15765  v[i] * 10 ** 18 */\n      tag_125\n      swap2\n      swap1\n      tag_76\n      jump\t// in\n    tag_125:\n        /* \"contracts/HandoutPool.sol\":15737:15765  uint value = v[i] * 10 ** 18 */\n      swap1\n      pop\n        /* \"contracts/HandoutPool.sol\":15834:15839  value */\n      dup1\n        /* \"contracts/HandoutPool.sol\":15799:15804  token */\n      dup6\n        /* \"contracts/HandoutPool.sol\":15787:15815  IERC20Token(token).balanceOf */\n      0xffffffffffffffffffffffffffffffffffffffff\n      and\n      0x70a08231\n        /* \"contracts/HandoutPool.sol\":15824:15828  this */\n      address\n        /* \"contracts/HandoutPool.sol\":15787:15830  IERC20Token(token).balanceOf(address(this)) */\n      mload(0x40)\n      dup3\n      0xffffffff\n      and\n      0xe0\n      shl\n      dup2\n      mstore\n      0x04\n      add\n      tag_126\n      swap2\n      swap1\n      tag_78\n      jump\t// in\n    tag_126:\n      0x20\n      mload(0x40)\n      dup1\n      dup4\n      sub\n      dup2\n      dup7\n      gas\n      staticcall\n      iszero\n      dup1\n      iszero\n      tag_128\n      jumpi\n      returndatasize\n      0x00\n      dup1\n      returndatacopy\n      revert(0x00, returndatasize)\n    tag_128:\n      pop\n      pop\n      pop\n      pop\n      mload(0x40)\n      returndatasize\n      not(0x1f)\n      0x1f\n      dup3\n      add\n      and\n      dup3\n      add\n      dup1\n      0x40\n      mstore\n      pop\n      dup2\n      add\n      swap1\n      tag_129\n      swap2\n      swap1\n      tag_82\n      jump\t// in\n    tag_129:\n        /* \"contracts/HandoutPool.sol\":15787:15839  IERC20Token(token).balanceOf(address(this)) >= value */\n      lt\n      iszero\n        /* \"contracts/HandoutPool.sol\":15779:15840  require(IERC20Token(token).balanceOf(address(this)) >= value) */\n      tag_130\n      jumpi\n      0x00\n      dup1\n      revert\n    tag_130:\n        /* \"contracts/HandoutPool.sol\":15854:15899  IERC20Token(token).safeTransfer(to[i], value) */\n      tag_131\n        /* \"contracts/HandoutPool.sol\":15886:15888  to */\n      dup5\n        /* \"contracts/HandoutPool.sol\":15889:15890  i */\n      dup4\n        /* \"contracts/HandoutPool.sol\":15886:15891  to[i] */\n      dup2\n      mload\n      dup2\n      lt\n      tag_132\n      jumpi\n      tag_133\n      tag_74\n      jump\t// in\n    tag_133:\n    tag_132:\n      0x20\n      mul\n      0x20\n      add\n      add\n      mload\n        /* \"contracts/HandoutPool.sol\":15893:15898  value */\n      dup3\n        /* \"contracts/HandoutPool.sol\":15866:15871  token */\n      dup8\n        /* \"contracts/HandoutPool.sol\":15854:15885  IERC20Token(token).safeTransfer */\n      0xffffffffffffffffffffffffffffffffffffffff\n      and\n      tag_87\n      swap1\n        /* \"contracts/HandoutPool.sol\":15854:15899  IERC20Token(token).safeTransfer(to[i], value) */\n      swap3\n      swap2\n      swap1\n      0xffffffff\n      and\n      jump\t// in\n    tag_131:\n        /* \"contracts/HandoutPool.sol\":15723:15910  {... */\n      pop\n        /* \"contracts/HandoutPool.sol\":15718:15721  i++ */\n      dup1\n      dup1\n      tag_134\n      swap1\n      tag_89\n      jump\t// in\n    tag_134:\n      swap2\n      pop\n      pop\n        /* \"contracts/HandoutPool.sol\":15686:15910  for (uint i = 0; i < to.length; i++) {... */\n      jump(tag_120)\n    tag_121:\n      pop\n        /* \"contracts/HandoutPool.sol\":15589:15916  function Handout(address token, address[] memory to, uint[] memory v) public onlyAdmin {... */\n      pop\n      pop\n      pop\n      jump\t// out\n        /* \"contracts/HandoutPool.sol\":15198:15583  function Handout(address token, address[] memory to, uint v, uint d) public onlyAdmin {... */\n    tag_34:\n        /* \"contracts/HandoutPool.sol\":12932:12939  _admins */\n      0x01\n        /* \"contracts/HandoutPool.sol\":12932:12951  _admins[msg.sender] */\n      0x00\n        /* \"contracts/HandoutPool.sol\":12940:12950  msg.sender */\n      caller\n        /* \"contracts/HandoutPool.sol\":12932:12951  _admins[msg.sender] */\n      0xffffffffffffffffffffffffffffffffffffffff\n      and\n      0xffffffffffffffffffffffffffffffffffffffff\n      and\n      dup2\n      mstore\n      0x20\n      add\n      swap1\n      dup2\n      mstore\n      0x20\n      add\n      0x00\n      keccak256\n      0x00\n      swap1\n      sload\n      swap1\n      0x0100\n      exp\n      swap1\n      div\n      0xff\n      and\n        /* \"contracts/HandoutPool.sol\":12924:12976  require(_admins[msg.sender], \"Only admin can do it\") */\n      tag_136\n      jumpi\n      mload(0x40)\n      0x08c379a000000000000000000000000000000000000000000000000000000000\n      dup2\n      mstore\n      0x04\n      add\n      tag_137\n      swap1\n      tag_93\n      jump\t// in\n    tag_137:\n      mload(0x40)\n      dup1\n      swap2\n      sub\n      swap1\n      revert\n    tag_136:\n        /* \"contracts/HandoutPool.sol\":15307:15309  18 */\n      0x12\n        /* \"contracts/HandoutPool.sol\":15302:15303  d */\n      dup2\n        /* \"contracts/HandoutPool.sol\":15302:15309  d <= 18 */\n      gt\n      iszero\n        /* \"contracts/HandoutPool.sol\":15294:15343  require(d <= 18, \"Decimals must be less than 18\") */\n      tag_139\n      jumpi\n      mload(0x40)\n      0x08c379a000000000000000000000000000000000000000000000000000000000\n      dup2\n      mstore\n      0x04\n      add\n      tag_140\n      swap1\n      tag_97\n      jump\t// in\n    tag_140:\n      mload(0x40)\n      dup1\n      swap2\n      sub\n      swap1\n      revert\n    tag_139:\n        /* \"contracts/HandoutPool.sol\":15353:15363  uint value */\n      0x00\n        /* \"contracts/HandoutPool.sol\":15382:15383  d */\n      dup2\n        /* \"contracts/HandoutPool.sol\":15377:15379  18 */\n      0x12\n        /* \"contracts/HandoutPool.sol\":15377:15383  18 - d */\n      tag_141\n      swap2\n      swap1\n      tag_69\n      jump\t// in\n    tag_141:\n        /* \"contracts/HandoutPool.sol\":15370:15372  10 */\n      0x0a\n        /* \"contracts/HandoutPool.sol\":15370:15384  10 ** (18 - d) */\n      tag_142\n      swap2\n      swap1\n      tag_71\n      jump\t// in\n    tag_142:\n        /* \"contracts/HandoutPool.sol\":15366:15367  v */\n      dup4\n        /* \"contracts/HandoutPool.sol\":15366:15384  v * 10 ** (18 - d) */\n      tag_143\n      swap2\n      swap1\n      tag_76\n      jump\t// in\n    tag_143:\n        /* \"contracts/HandoutPool.sol\":15353:15384  uint value = v * 10 ** (18 - d) */\n      swap1\n      pop\n        /* \"contracts/HandoutPool.sol\":15399:15405  uint i */\n      0x00\n        /* \"contracts/HandoutPool.sol\":15394:15577  for (uint i = 0; i < to.length; i++) {... */\n    tag_144:\n        /* \"contracts/HandoutPool.sol\":15415:15417  to */\n      dup5\n        /* \"contracts/HandoutPool.sol\":15415:15424  to.length */\n      mload\n        /* \"contracts/HandoutPool.sol\":15411:15412  i */\n      dup2\n        /* \"contracts/HandoutPool.sol\":15411:15424  i < to.length */\n      lt\n        /* \"contracts/HandoutPool.sol\":15394:15577  for (uint i = 0; i < to.length; i++) {... */\n      iszero\n      tag_145\n      jumpi\n        /* \"contracts/HandoutPool.sol\":15500:15505  value */\n      dup2\n        /* \"contracts/HandoutPool.sol\":15465:15470  token */\n      dup7\n        /* \"contracts/HandoutPool.sol\":15453:15481  IERC20Token(token).balanceOf */\n      0xffffffffffffffffffffffffffffffffffffffff\n      and\n      0x70a08231\n        /* \"contracts/HandoutPool.sol\":15490:15494  this */\n      address\n        /* \"contracts/HandoutPool.sol\":15453:15496  IERC20Token(token).balanceOf(address(this)) */\n      mload(0x40)\n      dup3\n      0xffffffff\n      and\n      0xe0\n      shl\n      dup2\n      mstore\n      0x04\n      add\n      tag_147\n      swap2\n      swap1\n      tag_78\n      jump\t// in\n    tag_147:\n      0x20\n      mload(0x40)\n      dup1\n      dup4\n      sub\n      dup2\n      dup7\n      gas\n      staticcall\n      iszero\n      dup1\n      iszero\n      tag_149\n      jumpi\n      returndatasize\n      0x00\n      dup1\n      returndatacopy\n      revert(0x00, returndatasize)\n    tag_149:\n      pop\n      pop\n      pop\n      pop\n      mload(0x40)\n      returndatasize\n      not(0x1f)\n      0x1f\n      dup3\n      add\n      and\n      dup3\n      add\n      dup1\n      0x40\n      mstore\n      pop\n      dup2\n      add\n      swap1\n      tag_150\n      swap2\n      swap1\n      tag_82\n      jump\t// in\n    tag_150:\n        /* \"contracts/HandoutPool.sol\":15453:15505  IERC20Token(token).balanceOf(address(this)) >= value */\n      lt\n      iszero\n        /* \"contracts/HandoutPool.sol\":15445:15506  require(IERC20Token(token).balanceOf(address(this)) >= value) */\n      tag_151\n      jumpi\n      0x00\n      dup1\n      revert\n    tag_151:\n        /* \"contracts/HandoutPool.sol\":15520:15565  IERC20Token(token).safeTransfer(to[i], value) */\n      tag_152\n        /* \"contracts/HandoutPool.sol\":15552:15554  to */\n      dup6\n        /* \"contracts/HandoutPool.sol\":15555:15556  i */\n      dup3\n        /* \"contracts/HandoutPool.sol\":15552:15557  to[i] */\n      dup2\n      mload\n      dup2\n      lt\n      tag_153\n      jumpi\n      tag_154\n      tag_74\n      jump\t// in\n    tag_154:\n    tag_153:\n      0x20\n      mul\n      0x20\n      add\n      add\n      mload\n        /* \"contracts/HandoutPool.sol\":15559:15564  value */\n      dup4\n        /* \"contracts/HandoutPool.sol\":15532:15537  token */\n      dup9\n        /* \"contracts/HandoutPool.sol\":15520:15551  IERC20Token(token).safeTransfer */\n      0xffffffffffffffffffffffffffffffffffffffff\n      and\n      tag_87\n      swap1\n        /* \"contracts/HandoutPool.sol\":15520:15565  IERC20Token(token).safeTransfer(to[i], value) */\n      swap3\n      swap2\n      swap1\n      0xffffffff\n      and\n      jump\t// in\n    tag_152:\n        /* \"contracts/HandoutPool.sol\":15426:15429  i++ */\n      dup1\n      dup1\n      tag_155\n      swap1\n      tag_89\n      jump\t// in\n    tag_155:\n      swap2\n      pop\n      pop\n        /* \"contracts/HandoutPool.sol\":15394:15577  for (uint i = 0; i < to.length; i++) {... */\n      jump(tag_144)\n    tag_145:\n      pop\n        /* \"contracts/HandoutPool.sol\":15284:15583  {... */\n      pop\n        /* \"contracts/HandoutPool.sol\":15198:15583  function Handout(address token, address[] memory to, uint v, uint d) public onlyAdmin {... */\n      pop\n      pop\n      pop\n      pop\n      jump\t// out\n        /* \"contracts/HandoutPool.sol\":13394:13710  function Handout(address[] memory to, uint v) public onlyAdmin {... */\n    tag_39:\n        /* \"contracts/HandoutPool.sol\":12932:12939  _admins */\n      0x01\n        /* \"contracts/HandoutPool.sol\":12932:12951  _admins[msg.sender] */\n      0x00\n        /* \"contracts/HandoutPool.sol\":12940:12950  msg.sender */\n      caller\n        /* \"contracts/HandoutPool.sol\":12932:12951  _admins[msg.sender] */\n      0xffffffffffffffffffffffffffffffffffffffff\n      and\n      0xffffffffffffffffffffffffffffffffffffffff\n      and\n      dup2\n      mstore\n      0x20\n      add\n      swap1\n      dup2\n      mstore\n      0x20\n      add\n      0x00\n      keccak256\n      0x00\n      swap1\n      sload\n      swap1\n      0x0100\n      exp\n      swap1\n      div\n      0xff\n      and\n        /* \"contracts/HandoutPool.sol\":12924:12976  require(_admins[msg.sender], \"Only admin can do it\") */\n      tag_157\n      jumpi\n      mload(0x40)\n      0x08c379a000000000000000000000000000000000000000000000000000000000\n      dup2\n      mstore\n      0x04\n      add\n      tag_158\n      swap1\n      tag_93\n      jump\t// in\n    tag_158:\n      mload(0x40)\n      dup1\n      swap2\n      sub\n      swap1\n      revert\n    tag_157:\n        /* \"contracts/HandoutPool.sol\":13467:13477  uint value */\n      0x00\n        /* \"contracts/HandoutPool.sol\":13484:13492  10 ** 18 */\n      0x0de0b6b3a7640000\n        /* \"contracts/HandoutPool.sol\":13480:13481  v */\n      dup3\n        /* \"contracts/HandoutPool.sol\":13480:13492  v * 10 ** 18 */\n      tag_160\n      swap2\n      swap1\n      tag_76\n      jump\t// in\n    tag_160:\n        /* \"contracts/HandoutPool.sol\":13467:13492  uint value = v * 10 ** 18 */\n      swap1\n      pop\n        /* \"contracts/HandoutPool.sol\":13507:13513  uint i */\n      0x00\n        /* \"contracts/HandoutPool.sol\":13502:13704  for (uint i = 0; i < to.length; i++) {... */\n    tag_161:\n        /* \"contracts/HandoutPool.sol\":13523:13525  to */\n      dup4\n        /* \"contracts/HandoutPool.sol\":13523:13532  to.length */\n      mload\n        /* \"contracts/HandoutPool.sol\":13519:13520  i */\n      dup2\n        /* \"contracts/HandoutPool.sol\":13519:13532  i < to.length */\n      lt\n        /* \"contracts/HandoutPool.sol\":13502:13704  for (uint i = 0; i < to.length; i++) {... */\n      iszero\n      tag_162\n      jumpi\n        /* \"contracts/HandoutPool.sol\":13586:13591  value */\n      dup2\n        /* \"contracts/HandoutPool.sol\":13561:13582  address(this).balance */\n      selfbalance\n        /* \"contracts/HandoutPool.sol\":13561:13591  address(this).balance >= value */\n      lt\n      iszero\n        /* \"contracts/HandoutPool.sol\":13553:13592  require(address(this).balance >= value) */\n      tag_164\n      jumpi\n      0x00\n      dup1\n      revert\n    tag_164:\n        /* \"contracts/HandoutPool.sol\":13614:13616  to */\n      dup4\n        /* \"contracts/HandoutPool.sol\":13617:13618  i */\n      dup2\n        /* \"contracts/HandoutPool.sol\":13614:13619  to[i] */\n      dup2\n      mload\n      dup2\n      lt\n      tag_165\n      jumpi\n      tag_166\n      tag_74\n      jump\t// in\n    tag_166:\n    tag_165:\n      0x20\n      mul\n      0x20\n      add\n      add\n      mload\n        /* \"contracts/HandoutPool.sol\":13606:13629  payable(to[i]).transfer */\n      0xffffffffffffffffffffffffffffffffffffffff\n      and\n        /* \"contracts/HandoutPool.sol\":13606:13636  payable(to[i]).transfer(value) */\n      0x08fc\n        /* \"contracts/HandoutPool.sol\":13630:13635  value */\n      dup4\n        /* \"contracts/HandoutPool.sol\":13606:13636  payable(to[i]).transfer(value) */\n      swap1\n      dup2\n      iszero\n      mul\n      swap1\n      mload(0x40)\n      0x00\n      mload(0x40)\n      dup1\n      dup4\n      sub\n      dup2\n      dup6\n      dup9\n      dup9\n      call\n      swap4\n      pop\n      pop\n      pop\n      pop\n      iszero\n      dup1\n      iszero\n      tag_168\n      jumpi\n      returndatasize\n      0x00\n      dup1\n      returndatacopy\n      revert(0x00, returndatasize)\n    tag_168:\n      pop\n        /* \"contracts/HandoutPool.sol\":13679:13681  to */\n      dup4\n        /* \"contracts/HandoutPool.sol\":13682:13683  i */\n      dup2\n        /* \"contracts/HandoutPool.sol\":13679:13684  to[i] */\n      dup2\n      mload\n      dup2\n      lt\n      tag_169\n      jumpi\n      tag_170\n      tag_74\n      jump\t// in\n    tag_170:\n    tag_169:\n      0x20\n      mul\n      0x20\n      add\n      add\n      mload\n        /* \"contracts/HandoutPool.sol\":13655:13692  Transfer(address(this), to[i], value) */\n      0xffffffffffffffffffffffffffffffffffffffff\n      and\n        /* \"contracts/HandoutPool.sol\":13672:13676  this */\n      address\n        /* \"contracts/HandoutPool.sol\":13655:13692  Transfer(address(this), to[i], value) */\n      0xffffffffffffffffffffffffffffffffffffffff\n      and\n      0xddf252ad1be2c89b69c2b068fc378daa952ba7f163c4a11628f55a4df523b3ef\n        /* \"contracts/HandoutPool.sol\":13686:13691  value */\n      dup5\n        /* \"contracts/HandoutPool.sol\":13655:13692  Transfer(address(this), to[i], value) */\n      mload(0x40)\n      tag_171\n      swap2\n      swap1\n      tag_114\n      jump\t// in\n    tag_171:\n      mload(0x40)\n      dup1\n      swap2\n      sub\n      swap1\n      log3\n        /* \"contracts/HandoutPool.sol\":13534:13537  i++ */\n      dup1\n      dup1\n      tag_172\n      swap1\n      tag_89\n      jump\t// in\n    tag_172:\n      swap2\n      pop\n      pop\n        /* \"contracts/HandoutPool.sol\":13502:13704  for (uint i = 0; i < to.length; i++) {... */\n      jump(tag_161)\n    tag_162:\n      pop\n        /* \"contracts/HandoutPool.sol\":13457:13710  {... */\n      pop\n        /* \"contracts/HandoutPool.sol\":13394:13710  function Handout(address[] memory to, uint v) public onlyAdmin {... */\n      pop\n      pop\n      jump\t// out\n        /* \"contracts/HandoutPool.sol\":13219:13384  function setAdmin(address[] memory lst, bool b) public onlyOwner() {... */\n    tag_44:\n        /* \"contracts/HandoutPool.sol\":12838:12844  _owner */\n      0x00\n      dup1\n      sload\n      swap1\n      0x0100\n      exp\n      swap1\n      div\n      0xffffffffffffffffffffffffffffffffffffffff\n      and\n        /* \"contracts/HandoutPool.sol\":12824:12844  msg.sender == _owner */\n      0xffffffffffffffffffffffffffffffffffffffff\n      and\n        /* \"contracts/HandoutPool.sol\":12824:12834  msg.sender */\n      caller\n        /* \"contracts/HandoutPool.sol\":12824:12844  msg.sender == _owner */\n      0xffffffffffffffffffffffffffffffffffffffff\n      and\n      eq\n        /* \"contracts/HandoutPool.sol\":12816:12869  require(msg.sender == _owner, \"Only owner can do it\") */\n      tag_174\n      jumpi\n      mload(0x40)\n      0x08c379a000000000000000000000000000000000000000000000000000000000\n      dup2\n      mstore\n      0x04\n      add\n      tag_175\n      swap1\n      tag_63\n      jump\t// in\n    tag_175:\n      mload(0x40)\n      dup1\n      swap2\n      sub\n      swap1\n      revert\n    tag_174:\n        /* \"contracts/HandoutPool.sol\":13301:13307  uint i */\n      0x00\n        /* \"contracts/HandoutPool.sol\":13296:13378  for (uint i = 0; i < lst.length; i++) {... */\n    tag_177:\n        /* \"contracts/HandoutPool.sol\":13317:13320  lst */\n      dup3\n        /* \"contracts/HandoutPool.sol\":13317:13327  lst.length */\n      mload\n        /* \"contracts/HandoutPool.sol\":13313:13314  i */\n      dup2\n        /* \"contracts/HandoutPool.sol\":13313:13327  i < lst.length */\n      lt\n        /* \"contracts/HandoutPool.sol\":13296:13378  for (uint i = 0; i < lst.length; i++) {... */\n      iszero\n      tag_178\n      jumpi\n        /* \"contracts/HandoutPool.sol\":13366:13367  b */\n      dup2\n        /* \"contracts/HandoutPool.sol\":13348:13355  _admins */\n      0x01\n        /* \"contracts/HandoutPool.sol\":13348:13363  _admins[lst[i]] */\n      0x00\n        /* \"contracts/HandoutPool.sol\":13356:13359  lst */\n      dup6\n        /* \"contracts/HandoutPool.sol\":13360:13361  i */\n      dup5\n        /* \"contracts/HandoutPool.sol\":13356:13362  lst[i] */\n      dup2\n      mload\n      dup2\n      lt\n      tag_180\n      jumpi\n      tag_181\n      tag_74\n      jump\t// in\n    tag_181:\n    tag_180:\n      0x20\n      mul\n      0x20\n      add\n      add\n      mload\n        /* \"contracts/HandoutPool.sol\":13348:13363  _admins[lst[i]] */\n      0xffffffffffffffffffffffffffffffffffffffff\n      and\n      0xffffffffffffffffffffffffffffffffffffffff\n      and\n      dup2\n      mstore\n      0x20\n      add\n      swap1\n      dup2\n      mstore\n      0x20\n      add\n      0x00\n      keccak256\n      0x00\n        /* \"contracts/HandoutPool.sol\":13348:13367  _admins[lst[i]] = b */\n      0x0100\n      exp\n      dup2\n      sload\n      dup2\n      0xff\n      mul\n      not\n      and\n      swap1\n      dup4\n      iszero\n      iszero\n      mul\n      or\n      swap1\n      sstore\n      pop\n        /* \"contracts/HandoutPool.sol\":13329:13332  i++ */\n      dup1\n      dup1\n      tag_182\n      swap1\n      tag_89\n      jump\t// in\n    tag_182:\n      swap2\n      pop\n      pop\n        /* \"contracts/HandoutPool.sol\":13296:13378  for (uint i = 0; i < lst.length; i++) {... */\n      jump(tag_177)\n    tag_178:\n      pop\n        /* \"contracts/HandoutPool.sol\":13219:13384  function setAdmin(address[] memory lst, bool b) public onlyOwner() {... */\n      pop\n      pop\n      jump\t// out\n        /* \"contracts/HandoutPool.sol\":14118:14453  function Handout(address[] memory to, uint[] memory v) public onlyAdmin {... */\n    tag_49:\n        /* \"contracts/HandoutPool.sol\":12932:12939  _admins */\n      0x01\n        /* \"contracts/HandoutPool.sol\":12932:12951  _admins[msg.sender] */\n      0x00\n        /* \"contracts/HandoutPool.sol\":12940:12950  msg.sender */\n      caller\n        /* \"contracts/HandoutPool.sol\":12932:12951  _admins[msg.sender] */\n      0xffffffffffffffffffffffffffffffffffffffff\n      and\n      0xffffffffffffffffffffffffffffffffffffffff\n      and\n      dup2\n      mstore\n      0x20\n      add\n      swap1\n      dup2\n      mstore\n      0x20\n      add\n      0x00\n      keccak256\n      0x00\n      swap1\n      sload\n      swap1\n      0x0100\n      exp\n      swap1\n      div\n      0xff\n      and\n        /* \"contracts/HandoutPool.sol\":12924:12976  require(_admins[msg.sender], \"Only admin can do it\") */\n      tag_184\n      jumpi\n      mload(0x40)\n      0x08c379a000000000000000000000000000000000000000000000000000000000\n      dup2\n      mstore\n      0x04\n      add\n      tag_185\n      swap1\n      tag_93\n      jump\t// in\n    tag_185:\n      mload(0x40)\n      dup1\n      swap2\n      sub\n      swap1\n      revert\n    tag_184:\n        /* \"contracts/HandoutPool.sol\":14205:14211  uint i */\n      0x00\n        /* \"contracts/HandoutPool.sol\":14200:14447  for (uint i = 0; i < to.length; i++) {... */\n    tag_187:\n        /* \"contracts/HandoutPool.sol\":14221:14223  to */\n      dup3\n        /* \"contracts/HandoutPool.sol\":14221:14230  to.length */\n      mload\n        /* \"contracts/HandoutPool.sol\":14217:14218  i */\n      dup2\n        /* \"contracts/HandoutPool.sol\":14217:14230  i < to.length */\n      lt\n        /* \"contracts/HandoutPool.sol\":14200:14447  for (uint i = 0; i < to.length; i++) {... */\n      iszero\n      tag_188\n      jumpi\n        /* \"contracts/HandoutPool.sol\":14251:14261  uint value */\n      0x00\n        /* \"contracts/HandoutPool.sol\":14271:14279  10 ** 18 */\n      0x0de0b6b3a7640000\n        /* \"contracts/HandoutPool.sol\":14264:14265  v */\n      dup4\n        /* \"contracts/HandoutPool.sol\":14266:14267  i */\n      dup4\n        /* \"contracts/HandoutPool.sol\":14264:14268  v[i] */\n      dup2\n      mload\n      dup2\n      lt\n      tag_190\n      jumpi\n      tag_191\n      tag_74\n      jump\t// in\n    tag_191:\n    tag_190:\n      0x20\n      mul\n      0x20\n      add\n      add\n      mload\n        /* \"contracts/HandoutPool.sol\":14264:14279  v[i] * 10 ** 18 */\n      tag_192\n      swap2\n      swap1\n      tag_76\n      jump\t// in\n    tag_192:\n        /* \"contracts/HandoutPool.sol\":14251:14279  uint value = v[i] * 10 ** 18 */\n      swap1\n      pop\n        /* \"contracts/HandoutPool.sol\":14326:14331  value */\n      dup1\n        /* \"contracts/HandoutPool.sol\":14301:14322  address(this).balance */\n      selfbalance\n        /* \"contracts/HandoutPool.sol\":14301:14331  address(this).balance >= value */\n      lt\n      iszero\n        /* \"contracts/HandoutPool.sol\":14293:14332  require(address(this).balance >= value) */\n      tag_193\n      jumpi\n      0x00\n      dup1\n      revert\n    tag_193:\n        /* \"contracts/HandoutPool.sol\":14354:14356  to */\n      dup4\n        /* \"contracts/HandoutPool.sol\":14357:14358  i */\n      dup3\n        /* \"contracts/HandoutPool.sol\":14354:14359  to[i] */\n      dup2\n      mload\n      dup2\n      lt\n      tag_194\n      jumpi\n      tag_195\n      tag_74\n      jump\t// in\n    tag_195:\n    tag_194:\n      0x20\n      mul\n      0x20\n      add\n      add\n      mload\n        /* \"contracts/HandoutPool.sol\":14346:14369  payable(to[i]).transfer */\n      0xffffffffffffffffffffffffffffffffffffffff\n      and\n        /* \"contracts/HandoutPool.sol\":14346:14376  payable(to[i]).transfer(value) */\n      0x08fc\n        /* \"contracts/HandoutPool.sol\":14370:14375  value */\n      dup3\n        /* \"contracts/HandoutPool.sol\":14346:14376  payable(to[i]).transfer(value) */\n      swap1\n      dup2\n      iszero\n      mul\n      swap1\n      mload(0x40)\n      0x00\n      mload(0x40)\n      dup1\n      dup4\n      sub\n      dup2\n      dup6\n      dup9\n      dup9\n      call\n      swap4\n      pop\n      pop\n      pop\n      pop\n      iszero\n      dup1\n      iszero\n      tag_197\n      jumpi\n      returndatasize\n      0x00\n      dup1\n      returndatacopy\n      revert(0x00, returndatasize)\n    tag_197:\n      pop\n        /* \"contracts/HandoutPool.sol\":14419:14421  to */\n      dup4\n        /* \"contracts/HandoutPool.sol\":14422:14423  i */\n      dup3\n        /* \"contracts/HandoutPool.sol\":14419:14424  to[i] */\n      dup2\n      mload\n      dup2\n      lt\n      tag_198\n      jumpi\n      tag_199\n      tag_74\n      jump\t// in\n    tag_199:\n    tag_198:\n      0x20\n      mul\n      0x20\n      add\n      add\n      mload\n        /* \"contracts/HandoutPool.sol\":14395:14432  Transfer(address(this), to[i], value) */\n      0xffffffffffffffffffffffffffffffffffffffff\n      and\n        /* \"contracts/HandoutPool.sol\":14412:14416  this */\n      address\n        /* \"contracts/HandoutPool.sol\":14395:14432  Transfer(address(this), to[i], value) */\n      0xffffffffffffffffffffffffffffffffffffffff\n      and\n      0xddf252ad1be2c89b69c2b068fc378daa952ba7f163c4a11628f55a4df523b3ef\n        /* \"contracts/HandoutPool.sol\":14426:14431  value */\n      dup4\n        /* \"contracts/HandoutPool.sol\":14395:14432  Transfer(address(this), to[i], value) */\n      mload(0x40)\n      tag_200\n      swap2\n      swap1\n      tag_114\n      jump\t// in\n    tag_200:\n      mload(0x40)\n      dup1\n      swap2\n      sub\n      swap1\n      log3\n        /* \"contracts/HandoutPool.sol\":14237:14447  {... */\n      pop\n        /* \"contracts/HandoutPool.sol\":14232:14235  i++ */\n      dup1\n      dup1\n      tag_201\n      swap1\n      tag_89\n      jump\t// in\n    tag_201:\n      swap2\n      pop\n      pop\n        /* \"contracts/HandoutPool.sol\":14200:14447  for (uint i = 0; i < to.length; i++) {... */\n      jump(tag_187)\n    tag_188:\n      pop\n        /* \"contracts/HandoutPool.sol\":14118:14453  function Handout(address[] memory to, uint[] memory v) public onlyAdmin {... */\n      pop\n      pop\n      jump\t// out\n        /* \"contracts/HandoutPool.sol\":13720:14112  function Handout(address[] memory to, uint v, uint d) public onlyAdmin {... */\n    tag_54:\n        /* \"contracts/HandoutPool.sol\":12932:12939  _admins */\n      0x01\n        /* \"contracts/HandoutPool.sol\":12932:12951  _admins[msg.sender] */\n      0x00\n        /* \"contracts/HandoutPool.sol\":12940:12950  msg.sender */\n      caller\n        /* \"contracts/HandoutPool.sol\":12932:12951  _admins[msg.sender] */\n      0xffffffffffffffffffffffffffffffffffffffff\n      and\n      0xffffffffffffffffffffffffffffffffffffffff\n      and\n      dup2\n      mstore\n      0x20\n      add\n      swap1\n      dup2\n      mstore\n      0x20\n      add\n      0x00\n      keccak256\n      0x00\n      swap1\n      sload\n      swap1\n      0x0100\n      exp\n      swap1\n      div\n      0xff\n      and\n        /* \"contracts/HandoutPool.sol\":12924:12976  require(_admins[msg.sender], \"Only admin can do it\") */\n      tag_203\n      jumpi\n      mload(0x40)\n      0x08c379a000000000000000000000000000000000000000000000000000000000\n      dup2\n      mstore\n      0x04\n      add\n      tag_204\n      swap1\n      tag_93\n      jump\t// in\n    tag_204:\n      mload(0x40)\n      dup1\n      swap2\n      sub\n      swap1\n      revert\n    tag_203:\n        /* \"contracts/HandoutPool.sol\":13814:13816  18 */\n      0x12\n        /* \"contracts/HandoutPool.sol\":13809:13810  d */\n      dup2\n        /* \"contracts/HandoutPool.sol\":13809:13816  d <= 18 */\n      gt\n      iszero\n        /* \"contracts/HandoutPool.sol\":13801:13850  require(d <= 18, \"Decimals must be less than 18\") */\n      tag_206\n      jumpi\n      mload(0x40)\n      0x08c379a000000000000000000000000000000000000000000000000000000000\n      dup2\n      mstore\n      0x04\n      add\n      tag_207\n      swap1\n      tag_97\n      jump\t// in\n    tag_207:\n      mload(0x40)\n      dup1\n      swap2\n      sub\n      swap1\n      revert\n    tag_206:\n        /* \"contracts/HandoutPool.sol\":13860:13870  uint value */\n      0x00\n        /* \"contracts/HandoutPool.sol\":13889:13890  d */\n      dup2\n        /* \"contracts/HandoutPool.sol\":13884:13886  18 */\n      0x12\n        /* \"contracts/HandoutPool.sol\":13884:13890  18 - d */\n      tag_208\n      swap2\n      swap1\n      tag_69\n      jump\t// in\n    tag_208:\n        /* \"contracts/HandoutPool.sol\":13877:13879  10 */\n      0x0a\n        /* \"contracts/HandoutPool.sol\":13877:13891  10 ** (18 - d) */\n      tag_209\n      swap2\n      swap1\n      tag_71\n      jump\t// in\n    tag_209:\n        /* \"contracts/HandoutPool.sol\":13873:13874  v */\n      dup4\n        /* \"contracts/HandoutPool.sol\":13873:13891  v * 10 ** (18 - d) */\n      tag_210\n      swap2\n      swap1\n      tag_76\n      jump\t// in\n    tag_210:\n        /* \"contracts/HandoutPool.sol\":13860:13891  uint value = v * 10 ** (18 - d) */\n      swap1\n      pop\n        /* \"contracts/HandoutPool.sol\":13906:13912  uint i */\n      0x00\n        /* \"contracts/HandoutPool.sol\":13901:14106  for (uint i = 0; i < to.length; i++) {... */\n    tag_211:\n        /* \"contracts/HandoutPool.sol\":13922:13924  to */\n      dup5\n        /* \"contracts/HandoutPool.sol\":13922:13931  to.length */\n      mload\n        /* \"contracts/HandoutPool.sol\":13918:13919  i */\n      dup2\n        /* \"contracts/HandoutPool.sol\":13918:13931  i < to.length */\n      lt\n        /* \"contracts/HandoutPool.sol\":13901:14106  for (uint i = 0; i < to.length; i++) {... */\n      iszero\n      tag_212\n      jumpi\n        /* \"contracts/HandoutPool.sol\":13985:13990  value */\n      dup2\n        /* \"contracts/HandoutPool.sol\":13960:13981  address(this).balance */\n      selfbalance\n        /* \"contracts/HandoutPool.sol\":13960:13990  address(this).balance >= value */\n      lt\n      iszero\n        /* \"contracts/HandoutPool.sol\":13952:13991  require(address(this).balance >= value) */\n      tag_214\n      jumpi\n      0x00\n      dup1\n      revert\n    tag_214:\n        /* \"contracts/HandoutPool.sol\":14013:14015  to */\n      dup5\n        /* \"contracts/HandoutPool.sol\":14016:14017  i */\n      dup2\n        /* \"contracts/HandoutPool.sol\":14013:14018  to[i] */\n      dup2\n      mload\n      dup2\n      lt\n      tag_215\n      jumpi\n      tag_216\n      tag_74\n      jump\t// in\n    tag_216:\n    tag_215:\n      0x20\n      mul\n      0x20\n      add\n      add\n      mload\n        /* \"contracts/HandoutPool.sol\":14005:14028  payable(to[i]).transfer */\n      0xffffffffffffffffffffffffffffffffffffffff\n      and\n        /* \"contracts/HandoutPool.sol\":14005:14035  payable(to[i]).transfer(value) */\n      0x08fc\n        /* \"contracts/HandoutPool.sol\":14029:14034  value */\n      dup4\n        /* \"contracts/HandoutPool.sol\":14005:14035  payable(to[i]).transfer(value) */\n      swap1\n      dup2\n      iszero\n      mul\n      swap1\n      mload(0x40)\n      0x00\n      mload(0x40)\n      dup1\n      dup4\n      sub\n      dup2\n      dup6\n      dup9\n      dup9\n      call\n      swap4\n      pop\n      pop\n      pop\n      pop\n      iszero\n      dup1\n      iszero\n      tag_218\n      jumpi\n      returndatasize\n      0x00\n      dup1\n      returndatacopy\n      revert(0x00, returndatasize)\n    tag_218:\n      pop\n        /* \"contracts/HandoutPool.sol\":14078:14080  to */\n      dup5\n        /* \"contracts/HandoutPool.sol\":14081:14082  i */\n      dup2\n        /* \"contracts/HandoutPool.sol\":14078:14083  to[i] */\n      dup2\n      mload\n      dup2\n      lt\n      tag_219\n      jumpi\n      tag_220\n      tag_74\n      jump\t// in\n    tag_220:\n    tag_219:\n      0x20\n      mul\n      0x20\n      add\n      add\n      mload\n        /* \"contracts/HandoutPool.sol\":14054:14091  Transfer(address(this), to[i], value) */\n      0xffffffffffffffffffffffffffffffffffffffff\n      and\n        /* \"contracts/HandoutPool.sol\":14071:14075  this */\n      address\n        /* \"contracts/HandoutPool.sol\":14054:14091  Transfer(address(this), to[i], value) */\n      0xffffffffffffffffffffffffffffffffffffffff\n      and\n      0xddf252ad1be2c89b69c2b068fc378daa952ba7f163c4a11628f55a4df523b3ef\n        /* \"contracts/HandoutPool.sol\":14085:14090  value */\n      dup5\n        /* \"contracts/HandoutPool.sol\":14054:14091  Transfer(address(this), to[i], value) */\n      mload(0x40)\n      tag_221\n      swap2\n      swap1\n      tag_114\n      jump\t// in\n    tag_221:\n      mload(0x40)\n      dup1\n      swap2\n      sub\n      swap1\n      log3\n        /* \"contracts/HandoutPool.sol\":13933:13936  i++ */\n      dup1\n      dup1\n      tag_222\n      swap1\n      tag_89\n      jump\t// in\n    tag_222:\n      swap2\n      pop\n      pop\n        /* \"contracts/HandoutPool.sol\":13901:14106  for (uint i = 0; i < to.length; i++) {... */\n      jump(tag_211)\n    tag_212:\n      pop\n        /* \"contracts/HandoutPool.sol\":13791:14112  {... */\n      pop\n        /* \"contracts/HandoutPool.sol\":13720:14112  function Handout(address[] memory to, uint v, uint d) public onlyAdmin {... */\n      pop\n      pop\n      pop\n      jump\t// out\n        /* \"contracts/HandoutPool.sol\":14877:15188  function Handout(address token, address[] memory to, uint v) public onlyAdmin {... */\n    tag_59:\n        /* \"contracts/HandoutPool.sol\":12932:12939  _admins */\n      0x01\n        /* \"contracts/HandoutPool.sol\":12932:12951  _admins[msg.sender] */\n      0x00\n        /* \"contracts/HandoutPool.sol\":12940:12950  msg.sender */\n      caller\n        /* \"contracts/HandoutPool.sol\":12932:12951  _admins[msg.sender] */\n      0xffffffffffffffffffffffffffffffffffffffff\n      and\n      0xffffffffffffffffffffffffffffffffffffffff\n      and\n      dup2\n      mstore\n      0x20\n      add\n      swap1\n      dup2\n      mstore\n      0x20\n      add\n      0x00\n      keccak256\n      0x00\n      swap1\n      sload\n      swap1\n      0x0100\n      exp\n      swap1\n      div\n      0xff\n      and\n        /* \"contracts/HandoutPool.sol\":12924:12976  require(_admins[msg.sender], \"Only admin can do it\") */\n      tag_224\n      jumpi\n      mload(0x40)\n      0x08c379a000000000000000000000000000000000000000000000000000000000\n      dup2\n      mstore\n      0x04\n      add\n      tag_225\n      swap1\n      tag_93\n      jump\t// in\n    tag_225:\n      mload(0x40)\n      dup1\n      swap2\n      sub\n      swap1\n      revert\n    tag_224:\n        /* \"contracts/HandoutPool.sol\":14965:14975  uint value */\n      0x00\n        /* \"contracts/HandoutPool.sol\":14982:14990  10 ** 18 */\n      0x0de0b6b3a7640000\n        /* \"contracts/HandoutPool.sol\":14978:14979  v */\n      dup3\n        /* \"contracts/HandoutPool.sol\":14978:14990  v * 10 ** 18 */\n      tag_227\n      swap2\n      swap1\n      tag_76\n      jump\t// in\n    tag_227:\n        /* \"contracts/HandoutPool.sol\":14965:14990  uint value = v * 10 ** 18 */\n      swap1\n      pop\n        /* \"contracts/HandoutPool.sol\":15005:15011  uint i */\n      0x00\n        /* \"contracts/HandoutPool.sol\":15000:15182  for (uint i = 0; i < to.length; i++) {... */\n    tag_228:\n        /* \"contracts/HandoutPool.sol\":15021:15023  to */\n      dup4\n        /* \"contracts/HandoutPool.sol\":15021:15030  to.length */\n      mload\n        /* \"contracts/HandoutPool.sol\":15017:15018  i */\n      dup2\n        /* \"contracts/HandoutPool.sol\":15017:15030  i < to.length */\n      lt\n        /* \"contracts/HandoutPool.sol\":15000:15182  for (uint i = 0; i < to.length; i++) {... */\n      iszero\n      tag_229\n      jumpi\n        /* \"contracts/HandoutPool.sol\":15106:15111  value */\n      dup2\n        /* \"contracts/HandoutPool.sol\":15071:15076  token */\n      dup6\n        /* \"contracts/HandoutPool.sol\":15059:15087  IERC20Token(token).balanceOf */\n      0xffffffffffffffffffffffffffffffffffffffff\n      and\n      0x70a08231\n        /* \"contracts/HandoutPool.sol\":15096:15100  this */\n      address\n        /* \"contracts/HandoutPool.sol\":15059:15102  IERC20Token(token).balanceOf(address(this)) */\n      mload(0x40)\n      dup3\n      0xffffffff\n      and\n      0xe0\n      shl\n      dup2\n      mstore\n      0x04\n      add\n      tag_231\n      swap2\n      swap1\n      tag_78\n      jump\t// in\n    tag_231:\n      0x20\n      mload(0x40)\n      dup1\n      dup4\n      sub\n      dup2\n      dup7\n      gas\n      staticcall\n      iszero\n      dup1\n      iszero\n      tag_233\n      jumpi\n      returndatasize\n      0x00\n      dup1\n      returndatacopy\n      revert(0x00, returndatasize)\n    tag_233:\n      pop\n      pop\n      pop\n      pop\n      mload(0x40)\n      returndatasize\n      not(0x1f)\n      0x1f\n      dup3\n      add\n      and\n      dup3\n      add\n      dup1\n      0x40\n      mstore\n      pop\n      dup2\n      add\n      swap1\n      tag_234\n      swap2\n      swap1\n      tag_82\n      jump\t// in\n    tag_234:\n        /* \"contracts/HandoutPool.sol\":15059:15111  IERC20Token(token).balanceOf(address(this)) >= value */\n      lt\n      iszero\n        /* \"contracts/HandoutPool.sol\":15051:15112  require(IERC20Token(token).balanceOf(address(this)) >= value) */\n      tag_235\n      jumpi\n      0x00\n      dup1\n      revert\n    tag_235:\n        /* \"contracts/HandoutPool.sol\":15126:15171  IERC20Token(token).safeTransfer(to[i], value) */\n      tag_236\n        /* \"contracts/HandoutPool.sol\":15158:15160  to */\n      dup5\n        /* \"contracts/HandoutPool.sol\":15161:15162  i */\n      dup3\n        /* \"contracts/HandoutPool.sol\":15158:15163  to[i] */\n      dup2\n      mload\n      dup2\n      lt\n      tag_237\n      jumpi\n      tag_238\n      tag_74\n      jump\t// in\n    tag_238:\n    tag_237:\n      0x20\n      mul\n      0x20\n      add\n      add\n      mload\n        /* \"contracts/HandoutPool.sol\":15165:15170  value */\n      dup4\n        /* \"contracts/HandoutPool.sol\":15138:15143  token */\n      dup8\n        /* \"contracts/HandoutPool.sol\":15126:15157  IERC20Token(token).safeTransfer */\n      0xffffffffffffffffffffffffffffffffffffffff\n      and\n      tag_87\n      swap1\n        /* \"contracts/HandoutPool.sol\":15126:15171  IERC20Token(token).safeTransfer(to[i], value) */\n      swap3\n      swap2\n      swap1\n      0xffffffff\n      and\n      jump\t// in\n    tag_236:\n        /* \"contracts/HandoutPool.sol\":15032:15035  i++ */\n      dup1\n      dup1\n      tag_239\n      swap1\n      tag_89\n      jump\t// in\n    tag_239:\n      swap2\n      pop\n      pop\n        /* \"contracts/HandoutPool.sol\":15000:15182  for (uint i = 0; i < to.length; i++) {... */\n      jump(tag_228)\n    tag_229:\n      pop\n        /* \"contracts/HandoutPool.sol\":14955:15188  {... */\n      pop\n        /* \"contracts/HandoutPool.sol\":14877:15188  function Handout(address token, address[] memory to, uint v) public onlyAdmin {... */\n      pop\n      pop\n      pop\n      jump\t// out\n        /* \"contracts/HandoutPool.sol\":1266:1476  function safeTransfer(... */\n    tag_87:\n        /* \"contracts/HandoutPool.sol\":1383:1469  _callOptionalReturn(token, abi.encodeWithSelector(token.transfer.selector, to, value)) */\n      tag_241\n        /* \"contracts/HandoutPool.sol\":1403:1408  token */\n      dup4\n        /* \"contracts/HandoutPool.sol\":1433:1456  token.transfer.selector */\n      shl(0xe0, 0xa9059cbb)\n        /* \"contracts/HandoutPool.sol\":1458:1460  to */\n      dup5\n        /* \"contracts/HandoutPool.sol\":1462:1467  value */\n      dup5\n        /* \"contracts/HandoutPool.sol\":1410:1468  abi.encodeWithSelector(token.transfer.selector, to, value) */\n      add(0x24, mload(0x40))\n      tag_242\n      swap3\n      swap2\n      swap1\n      tag_243\n      jump\t// in\n    tag_242:\n      mload(0x40)\n      0x20\n      dup2\n      dup4\n      sub\n      sub\n      dup2\n      mstore\n      swap1\n      0x40\n      mstore\n      swap1\n      not(0xffffffffffffffffffffffffffffffffffffffffffffffffffffffff)\n      and\n      0x20\n      dup3\n      add\n      dup1\n      mload\n      0xffffffffffffffffffffffffffffffffffffffffffffffffffffffff\n      dup4\n      dup2\n      dup4\n      and\n      or\n      dup4\n      mstore\n      pop\n      pop\n      pop\n      pop\n        /* \"contracts/HandoutPool.sol\":1383:1402  _callOptionalReturn */\n      tag_244\n        /* \"contracts/HandoutPool.sol\":1383:1469  _callOptionalReturn(token, abi.encodeWithSelector(token.transfer.selector, to, value)) */\n      jump\t// in\n    tag_241:\n        /* \"contracts/HandoutPool.sol\":1266:1476  function safeTransfer(... */\n      pop\n      pop\n      pop\n      jump\t// out\n        /* \"contracts/HandoutPool.sol\":3797:4508  function _callOptionalReturn(IERC20Token token, bytes memory data) private {... */\n    tag_244:\n        /* \"contracts/HandoutPool.sol\":4221:4244  bytes memory returndata */\n      0x00\n        /* \"contracts/HandoutPool.sol\":4247:4316  address(token).functionCall(data, \"SafeERC20: low-level call failed\") */\n      tag_246\n        /* \"contracts/HandoutPool.sol\":4275:4279  data */\n      dup3\n        /* \"contracts/HandoutPool.sol\":4247:4316  address(token).functionCall(data, \"SafeERC20: low-level call failed\") */\n      mload(0x40)\n      dup1\n      0x40\n      add\n      0x40\n      mstore\n      dup1\n      0x20\n      dup2\n      mstore\n      0x20\n      add\n      0x5361666545524332303a206c6f772d6c6576656c2063616c6c206661696c6564\n      dup2\n      mstore\n      pop\n        /* \"contracts/HandoutPool.sol\":4255:4260  token */\n      dup6\n        /* \"contracts/HandoutPool.sol\":4247:4274  address(token).functionCall */\n      0xffffffffffffffffffffffffffffffffffffffff\n      and\n      tag_247\n      swap1\n        /* \"contracts/HandoutPool.sol\":4247:4316  address(token).functionCall(data, \"SafeERC20: low-level call failed\") */\n      swap3\n      swap2\n      swap1\n      0xffffffff\n      and\n      jump\t// in\n    tag_246:\n        /* \"contracts/HandoutPool.sol\":4221:4316  bytes memory returndata = address(token).functionCall(data, \"SafeERC20: low-level call failed\") */\n      swap1\n      pop\n        /* \"contracts/HandoutPool.sol\":4350:4351  0 */\n      0x00\n        /* \"contracts/HandoutPool.sol\":4330:4340  returndata */\n      dup2\n        /* \"contracts/HandoutPool.sol\":4330:4347  returndata.length */\n      mload\n        /* \"contracts/HandoutPool.sol\":4330:4351  returndata.length > 0 */\n      gt\n        /* \"contracts/HandoutPool.sol\":4326:4502  if (returndata.length > 0) {... */\n      iszero\n      tag_248\n      jumpi\n        /* \"contracts/HandoutPool.sol\":4425:4435  returndata */\n      dup1\n        /* \"contracts/HandoutPool.sol\":4414:4444  abi.decode(returndata, (bool)) */\n      dup1\n      0x20\n      add\n      swap1\n      mload\n      dup2\n      add\n      swap1\n      tag_249\n      swap2\n      swap1\n      tag_250\n      jump\t// in\n    tag_249:\n        /* \"contracts/HandoutPool.sol\":4406:4491  require(abi.decode(returndata, (bool)), \"SafeERC20: ERC20 operation did not succeed\") */\n      tag_251\n      jumpi\n      mload(0x40)\n      0x08c379a000000000000000000000000000000000000000000000000000000000\n      dup2\n      mstore\n      0x04\n      add\n      tag_252\n      swap1\n      tag_253\n      jump\t// in\n    tag_252:\n      mload(0x40)\n      dup1\n      swap2\n      sub\n      swap1\n      revert\n    tag_251:\n        /* \"contracts/HandoutPool.sol\":4326:4502  if (returndata.length > 0) {... */\n    tag_248:\n        /* \"contracts/HandoutPool.sol\":3872:4508  {... */\n      pop\n        /* \"contracts/HandoutPool.sol\":3797:4508  function _callOptionalReturn(IERC20Token token, bytes memory data) private {... */\n      pop\n      pop\n      jump\t// out\n        /* \"contracts/HandoutPool.sol\":8247:8470  function functionCall(... */\n    tag_247:\n        /* \"contracts/HandoutPool.sol\":8380:8392  bytes memory */\n      0x60\n        /* \"contracts/HandoutPool.sol\":8411:8463  functionCallWithValue(target, data, 0, errorMessage) */\n      tag_255\n        /* \"contracts/HandoutPool.sol\":8433:8439  target */\n      dup5\n        /* \"contracts/HandoutPool.sol\":8441:8445  data */\n      dup5\n        /* \"contracts/HandoutPool.sol\":8447:8448  0 */\n      0x00\n        /* \"contracts/HandoutPool.sol\":8450:8462  errorMessage */\n      dup6\n        /* \"contracts/HandoutPool.sol\":8411:8432  functionCallWithValue */\n      tag_256\n        /* \"contracts/HandoutPool.sol\":8411:8463  functionCallWithValue(target, data, 0, errorMessage) */\n      jump\t// in\n    tag_255:\n        /* \"contracts/HandoutPool.sol\":8404:8463  return functionCallWithValue(target, data, 0, errorMessage) */\n      swap1\n      pop\n        /* \"contracts/HandoutPool.sol\":8247:8470  function functionCall(... */\n      swap4\n      swap3\n      pop\n      pop\n      pop\n      jump\t// out\n        /* \"contracts/HandoutPool.sol\":9334:9833  function functionCallWithValue(... */\n    tag_256:\n        /* \"contracts/HandoutPool.sol\":9499:9511  bytes memory */\n      0x60\n        /* \"contracts/HandoutPool.sol\":9556:9561  value */\n      dup3\n        /* \"contracts/HandoutPool.sol\":9531:9552  address(this).balance */\n      selfbalance\n        /* \"contracts/HandoutPool.sol\":9531:9561  address(this).balance >= value */\n      lt\n      iszero\n        /* \"contracts/HandoutPool.sol\":9523:9604  require(address(this).balance >= value, \"Address: insufficient balance for call\") */\n      tag_258\n      jumpi\n      mload(0x40)\n      0x08c379a000000000000000000000000000000000000000000000000000000000\n      dup2\n      mstore\n      0x04\n      add\n      tag_259\n      swap1\n      tag_260\n      jump\t// in\n    tag_259:\n      mload(0x40)\n      dup1\n      swap2\n      sub\n      swap1\n      revert\n    tag_258:\n        /* \"contracts/HandoutPool.sol\":9622:9640  isContract(target) */\n      tag_261\n        /* \"contracts/HandoutPool.sol\":9633:9639  target */\n      dup6\n        /* \"contracts/HandoutPool.sol\":9622:9632  isContract */\n      tag_262\n        /* \"contracts/HandoutPool.sol\":9622:9640  isContract(target) */\n      jump\t// in\n    tag_261:\n        /* \"contracts/HandoutPool.sol\":9614:9674  require(isContract(target), \"Address: call to non-contract\") */\n      tag_263\n      jumpi\n      mload(0x40)\n      0x08c379a000000000000000000000000000000000000000000000000000000000\n      dup2\n      mstore\n      0x04\n      add\n      tag_264\n      swap1\n      tag_265\n      jump\t// in\n    tag_264:\n      mload(0x40)\n      dup1\n      swap2\n      sub\n      swap1\n      revert\n    tag_263:\n        /* \"contracts/HandoutPool.sol\":9686:9698  bool success */\n      0x00\n        /* \"contracts/HandoutPool.sol\":9700:9723  bytes memory returndata */\n      dup1\n        /* \"contracts/HandoutPool.sol\":9727:9733  target */\n      dup7\n        /* \"contracts/HandoutPool.sol\":9727:9738  target.call */\n      0xffffffffffffffffffffffffffffffffffffffff\n      and\n        /* \"contracts/HandoutPool.sol\":9746:9751  value */\n      dup6\n        /* \"contracts/HandoutPool.sol\":9753:9757  data */\n      dup8\n        /* \"contracts/HandoutPool.sol\":9727:9758  target.call{value: value}(data) */\n      mload(0x40)\n      tag_266\n      swap2\n      swap1\n      tag_267\n      jump\t// in\n    tag_266:\n      0x00\n      mload(0x40)\n      dup1\n      dup4\n      sub\n      dup2\n      dup6\n      dup8\n      gas\n      call\n      swap3\n      pop\n      pop\n      pop\n      returndatasize\n      dup1\n      0x00\n      dup2\n      eq\n      tag_270\n      jumpi\n      mload(0x40)\n      swap2\n      pop\n      and(add(returndatasize, 0x3f), not(0x1f))\n      dup3\n      add\n      0x40\n      mstore\n      returndatasize\n      dup3\n      mstore\n      returndatasize\n      0x00\n      0x20\n      dup5\n      add\n      returndatacopy\n      jump(tag_269)\n    tag_270:\n      0x60\n      swap2\n      pop\n    tag_269:\n      pop\n        /* \"contracts/HandoutPool.sol\":9685:9758  (bool success, bytes memory returndata) = target.call{value: value}(data) */\n      swap2\n      pop\n      swap2\n      pop\n        /* \"contracts/HandoutPool.sol\":9775:9826  verifyCallResult(success, returndata, errorMessage) */\n      tag_271\n        /* \"contracts/HandoutPool.sol\":9792:9799  success */\n      dup3\n        /* \"contracts/HandoutPool.sol\":9801:9811  returndata */\n      dup3\n        /* \"contracts/HandoutPool.sol\":9813:9825  errorMessage */\n      dup7\n        /* \"contracts/HandoutPool.sol\":9775:9791  verifyCallResult */\n      tag_272\n        /* \"contracts/HandoutPool.sol\":9775:9826  verifyCallResult(success, returndata, errorMessage) */\n      jump\t// in\n    tag_271:\n        /* \"contracts/HandoutPool.sol\":9768:9826  return verifyCallResult(success, returndata, errorMessage) */\n      swap3\n      pop\n      pop\n      pop\n        /* \"contracts/HandoutPool.sol\":9334:9833  function functionCallWithValue(... */\n      swap5\n      swap4\n      pop\n      pop\n      pop\n      pop\n      jump\t// out\n        /* \"contracts/HandoutPool.sol\":5561:5881  function isContract(address account) internal view returns (bool) {... */\n    tag_262:\n        /* \"contracts/HandoutPool.sol\":5621:5625  bool */\n      0x00\n        /* \"contracts/HandoutPool.sol\":5873:5874  0 */\n      dup1\n        /* \"contracts/HandoutPool.sol\":5851:5858  account */\n      dup3\n        /* \"contracts/HandoutPool.sol\":5851:5870  account.code.length */\n      0xffffffffffffffffffffffffffffffffffffffff\n      and\n      extcodesize\n        /* \"contracts/HandoutPool.sol\":5851:5874  account.code.length > 0 */\n      gt\n        /* \"contracts/HandoutPool.sol\":5844:5874  return account.code.length > 0 */\n      swap1\n      pop\n        /* \"contracts/HandoutPool.sol\":5561:5881  function isContract(address account) internal view returns (bool) {... */\n      swap2\n      swap1\n      pop\n      jump\t// out\n        /* \"contracts/HandoutPool.sol\":11947:12639  function verifyCallResult(... */\n    tag_272:\n        /* \"contracts/HandoutPool.sol\":12093:12105  bytes memory */\n      0x60\n        /* \"contracts/HandoutPool.sol\":12121:12128  success */\n      dup4\n        /* \"contracts/HandoutPool.sol\":12117:12633  if (success) {... */\n      iszero\n      tag_275\n      jumpi\n        /* \"contracts/HandoutPool.sol\":12151:12161  returndata */\n      dup3\n        /* \"contracts/HandoutPool.sol\":12144:12161  return returndata */\n      swap1\n      pop\n      jump(tag_274)\n        /* \"contracts/HandoutPool.sol\":12117:12633  if (success) {... */\n    tag_275:\n        /* \"contracts/HandoutPool.sol\":12282:12283  0 */\n      0x00\n        /* \"contracts/HandoutPool.sol\":12262:12272  returndata */\n      dup4\n        /* \"contracts/HandoutPool.sol\":12262:12279  returndata.length */\n      mload\n        /* \"contracts/HandoutPool.sol\":12262:12283  returndata.length > 0 */\n      gt\n        /* \"contracts/HandoutPool.sol\":12258:12623  if (returndata.length > 0) {... */\n      iszero\n      tag_277\n      jumpi\n        /* \"contracts/HandoutPool.sol\":12456:12466  returndata */\n      dup3\n        /* \"contracts/HandoutPool.sol\":12450:12467  mload(returndata) */\n      mload\n        /* \"contracts/HandoutPool.sol\":12516:12531  returndata_size */\n      dup1\n        /* \"contracts/HandoutPool.sol\":12503:12513  returndata */\n      dup5\n        /* \"contracts/HandoutPool.sol\":12499:12501  32 */\n      0x20\n        /* \"contracts/HandoutPool.sol\":12495:12514  add(32, returndata) */\n      add\n        /* \"contracts/HandoutPool.sol\":12488:12532  revert(add(32, returndata), returndata_size) */\n      revert\n        /* \"contracts/HandoutPool.sol\":12258:12623  if (returndata.length > 0) {... */\n    tag_277:\n        /* \"contracts/HandoutPool.sol\":12595:12607  errorMessage */\n      dup2\n        /* \"contracts/HandoutPool.sol\":12588:12608  revert(errorMessage) */\n      mload(0x40)\n      0x08c379a000000000000000000000000000000000000000000000000000000000\n      dup2\n      mstore\n      0x04\n      add\n      tag_279\n      swap2\n      swap1\n      tag_280\n      jump\t// in\n    tag_279:\n      mload(0x40)\n      dup1\n      swap2\n      sub\n      swap1\n      revert\n        /* \"contracts/HandoutPool.sol\":11947:12639  function verifyCallResult(... */\n    tag_274:\n      swap4\n      swap3\n      pop\n      pop\n      pop\n      jump\t// out\n        /* \"#utility.yul\":7:82   */\n    tag_281:\n        /* \"#utility.yul\":40:46   */\n      0x00\n        /* \"#utility.yul\":73:75   */\n      0x40\n        /* \"#utility.yul\":67:76   */\n      mload\n        /* \"#utility.yul\":57:76   */\n      swap1\n      pop\n        /* \"#utility.yul\":7:82   */\n      swap1\n      jump\t// out\n        /* \"#utility.yul\":88:205   */\n    tag_282:\n        /* \"#utility.yul\":197:198   */\n      0x00\n        /* \"#utility.yul\":194:195   */\n      dup1\n        /* \"#utility.yul\":187:199   */\n      revert\n        /* \"#utility.yul\":211:328   */\n    tag_283:\n        /* \"#utility.yul\":320:321   */\n      0x00\n        /* \"#utility.yul\":317:318   */\n      dup1\n        /* \"#utility.yul\":310:322   */\n      revert\n        /* \"#utility.yul\":334:460   */\n    tag_284:\n        /* \"#utility.yul\":371:378   */\n      0x00\n        /* \"#utility.yul\":411:453   */\n      0xffffffffffffffffffffffffffffffffffffffff\n        /* \"#utility.yul\":404:409   */\n      dup3\n        /* \"#utility.yul\":400:454   */\n      and\n        /* \"#utility.yul\":389:454   */\n      swap1\n      pop\n        /* \"#utility.yul\":334:460   */\n      swap2\n      swap1\n      pop\n      jump\t// out\n        /* \"#utility.yul\":466:562   */\n    tag_285:\n        /* \"#utility.yul\":503:510   */\n      0x00\n        /* \"#utility.yul\":532:556   */\n      tag_339\n        /* \"#utility.yul\":550:555   */\n      dup3\n        /* \"#utility.yul\":532:556   */\n      tag_284\n      jump\t// in\n    tag_339:\n        /* \"#utility.yul\":521:556   */\n      swap1\n      pop\n        /* \"#utility.yul\":466:562   */\n      swap2\n      swap1\n      pop\n      jump\t// out\n        /* \"#utility.yul\":568:690   */\n    tag_286:\n        /* \"#utility.yul\":641:665   */\n      tag_341\n        /* \"#utility.yul\":659:664   */\n      dup2\n        /* \"#utility.yul\":641:665   */\n      tag_285\n      jump\t// in\n    tag_341:\n        /* \"#utility.yul\":634:639   */\n      dup2\n        /* \"#utility.yul\":631:666   */\n      eq\n        /* \"#utility.yul\":621:684   */\n      tag_342\n      jumpi\n        /* \"#utility.yul\":680:681   */\n      0x00\n        /* \"#utility.yul\":677:678   */\n      dup1\n        /* \"#utility.yul\":670:682   */\n      revert\n        /* \"#utility.yul\":621:684   */\n    tag_342:\n        /* \"#utility.yul\":568:690   */\n      pop\n      jump\t// out\n        /* \"#utility.yul\":696:835   */\n    tag_287:\n        /* \"#utility.yul\":742:747   */\n      0x00\n        /* \"#utility.yul\":780:786   */\n      dup2\n        /* \"#utility.yul\":767:787   */\n      calldataload\n        /* \"#utility.yul\":758:787   */\n      swap1\n      pop\n        /* \"#utility.yul\":796:829   */\n      tag_344\n        /* \"#utility.yul\":823:828   */\n      dup2\n        /* \"#utility.yul\":796:829   */\n      tag_286\n      jump\t// in\n    tag_344:\n        /* \"#utility.yul\":696:835   */\n      swap3\n      swap2\n      pop\n      pop\n      jump\t// out\n        /* \"#utility.yul\":841:958   */\n    tag_288:\n        /* \"#utility.yul\":950:951   */\n      0x00\n        /* \"#utility.yul\":947:948   */\n      dup1\n        /* \"#utility.yul\":940:952   */\n      revert\n        /* \"#utility.yul\":964:1066   */\n    tag_289:\n        /* \"#utility.yul\":1005:1011   */\n      0x00\n        /* \"#utility.yul\":1056:1058   */\n      0x1f\n        /* \"#utility.yul\":1052:1059   */\n      not\n        /* \"#utility.yul\":1047:1049   */\n      0x1f\n        /* \"#utility.yul\":1040:1045   */\n      dup4\n        /* \"#utility.yul\":1036:1050   */\n      add\n        /* \"#utility.yul\":1032:1060   */\n      and\n        /* \"#utility.yul\":1022:1060   */\n      swap1\n      pop\n        /* \"#utility.yul\":964:1066   */\n      swap2\n      swap1\n      pop\n      jump\t// out\n        /* \"#utility.yul\":1072:1252   */\n    tag_290:\n        /* \"#utility.yul\":1120:1197   */\n      0x4e487b7100000000000000000000000000000000000000000000000000000000\n        /* \"#utility.yul\":1117:1118   */\n      0x00\n        /* \"#utility.yul\":1110:1198   */\n      mstore\n        /* \"#utility.yul\":1217:1221   */\n      0x41\n        /* \"#utility.yul\":1214:1215   */\n      0x04\n        /* \"#utility.yul\":1207:1222   */\n      mstore\n        /* \"#utility.yul\":1241:1245   */\n      0x24\n        /* \"#utility.yul\":1238:1239   */\n      0x00\n        /* \"#utility.yul\":1231:1246   */\n      revert\n        /* \"#utility.yul\":1258:1539   */\n    tag_291:\n        /* \"#utility.yul\":1341:1368   */\n      tag_349\n        /* \"#utility.yul\":1363:1367   */\n      dup3\n        /* \"#utility.yul\":1341:1368   */\n      tag_289\n      jump\t// in\n    tag_349:\n        /* \"#utility.yul\":1333:1339   */\n      dup2\n        /* \"#utility.yul\":1329:1369   */\n      add\n        /* \"#utility.yul\":1471:1477   */\n      dup2\n        /* \"#utility.yul\":1459:1469   */\n      dup2\n        /* \"#utility.yul\":1456:1478   */\n      lt\n        /* \"#utility.yul\":1435:1453   */\n      0xffffffffffffffff\n        /* \"#utility.yul\":1423:1433   */\n      dup3\n        /* \"#utility.yul\":1420:1454   */\n      gt\n        /* \"#utility.yul\":1417:1479   */\n      or\n        /* \"#utility.yul\":1414:1502   */\n      iszero\n      tag_350\n      jumpi\n        /* \"#utility.yul\":1482:1500   */\n      tag_351\n      tag_290\n      jump\t// in\n    tag_351:\n        /* \"#utility.yul\":1414:1502   */\n    tag_350:\n        /* \"#utility.yul\":1522:1532   */\n      dup1\n        /* \"#utility.yul\":1518:1520   */\n      0x40\n        /* \"#utility.yul\":1511:1533   */\n      mstore\n        /* \"#utility.yul\":1301:1539   */\n      pop\n        /* \"#utility.yul\":1258:1539   */\n      pop\n      pop\n      jump\t// out\n        /* \"#utility.yul\":1545:1674   */\n    tag_292:\n        /* \"#utility.yul\":1579:1585   */\n      0x00\n        /* \"#utility.yul\":1606:1626   */\n      tag_353\n      tag_281\n      jump\t// in\n    tag_353:\n        /* \"#utility.yul\":1596:1626   */\n      swap1\n      pop\n        /* \"#utility.yul\":1635:1668   */\n      tag_354\n        /* \"#utility.yul\":1663:1667   */\n      dup3\n        /* \"#utility.yul\":1655:1661   */\n      dup3\n        /* \"#utility.yul\":1635:1668   */\n      tag_291\n      jump\t// in\n    tag_354:\n        /* \"#utility.yul\":1545:1674   */\n      swap2\n      swap1\n      pop\n      jump\t// out\n        /* \"#utility.yul\":1680:1991   */\n    tag_293:\n        /* \"#utility.yul\":1757:1761   */\n      0x00\n        /* \"#utility.yul\":1847:1865   */\n      0xffffffffffffffff\n        /* \"#utility.yul\":1839:1845   */\n      dup3\n        /* \"#utility.yul\":1836:1866   */\n      gt\n        /* \"#utility.yul\":1833:1889   */\n      iszero\n      tag_356\n      jumpi\n        /* \"#utility.yul\":1869:1887   */\n      tag_357\n      tag_290\n      jump\t// in\n    tag_357:\n        /* \"#utility.yul\":1833:1889   */\n    tag_356:\n        /* \"#utility.yul\":1919:1923   */\n      0x20\n        /* \"#utility.yul\":1911:1917   */\n      dup3\n        /* \"#utility.yul\":1907:1924   */\n      mul\n        /* \"#utility.yul\":1899:1924   */\n      swap1\n      pop\n        /* \"#utility.yul\":1979:1983   */\n      0x20\n        /* \"#utility.yul\":1973:1977   */\n      dup2\n        /* \"#utility.yul\":1969:1984   */\n      add\n        /* \"#utility.yul\":1961:1984   */\n      swap1\n      pop\n        /* \"#utility.yul\":1680:1991   */\n      swap2\n      swap1\n      pop\n      jump\t// out\n        /* \"#utility.yul\":1997:2114   */\n    tag_294:\n        /* \"#utility.yul\":2106:2107   */\n      0x00\n        /* \"#utility.yul\":2103:2104   */\n      dup1\n        /* \"#utility.yul\":2096:2108   */\n      revert\n        /* \"#utility.yul\":2137:2847   */\n    tag_295:\n        /* \"#utility.yul\":2233:2238   */\n      0x00\n        /* \"#utility.yul\":2258:2339   */\n      tag_360\n        /* \"#utility.yul\":2274:2338   */\n      tag_361\n        /* \"#utility.yul\":2331:2337   */\n      dup5\n        /* \"#utility.yul\":2274:2338   */\n      tag_293\n      jump\t// in\n    tag_361:\n        /* \"#utility.yul\":2258:2339   */\n      tag_292\n      jump\t// in\n    tag_360:\n        /* \"#utility.yul\":2249:2339   */\n      swap1\n      pop\n        /* \"#utility.yul\":2359:2364   */\n      dup1\n        /* \"#utility.yul\":2388:2394   */\n      dup4\n        /* \"#utility.yul\":2381:2386   */\n      dup3\n        /* \"#utility.yul\":2374:2395   */\n      mstore\n        /* \"#utility.yul\":2422:2426   */\n      0x20\n        /* \"#utility.yul\":2415:2420   */\n      dup3\n        /* \"#utility.yul\":2411:2427   */\n      add\n        /* \"#utility.yul\":2404:2427   */\n      swap1\n      pop\n        /* \"#utility.yul\":2475:2479   */\n      0x20\n        /* \"#utility.yul\":2467:2473   */\n      dup5\n        /* \"#utility.yul\":2463:2480   */\n      mul\n        /* \"#utility.yul\":2455:2461   */\n      dup4\n        /* \"#utility.yul\":2451:2481   */\n      add\n        /* \"#utility.yul\":2504:2507   */\n      dup6\n        /* \"#utility.yul\":2496:2502   */\n      dup2\n        /* \"#utility.yul\":2493:2508   */\n      gt\n        /* \"#utility.yul\":2490:2612   */\n      iszero\n      tag_362\n      jumpi\n        /* \"#utility.yul\":2523:2602   */\n      tag_363\n      tag_294\n      jump\t// in\n    tag_363:\n        /* \"#utility.yul\":2490:2612   */\n    tag_362:\n        /* \"#utility.yul\":2638:2644   */\n      dup4\n        /* \"#utility.yul\":2621:2841   */\n    tag_364:\n        /* \"#utility.yul\":2655:2661   */\n      dup2\n        /* \"#utility.yul\":2650:2653   */\n      dup2\n        /* \"#utility.yul\":2647:2662   */\n      lt\n        /* \"#utility.yul\":2621:2841   */\n      iszero\n      tag_366\n      jumpi\n        /* \"#utility.yul\":2730:2733   */\n      dup1\n        /* \"#utility.yul\":2759:2796   */\n      tag_367\n        /* \"#utility.yul\":2792:2795   */\n      dup9\n        /* \"#utility.yul\":2780:2790   */\n      dup3\n        /* \"#utility.yul\":2759:2796   */\n      tag_287\n      jump\t// in\n    tag_367:\n        /* \"#utility.yul\":2754:2757   */\n      dup5\n        /* \"#utility.yul\":2747:2797   */\n      mstore\n        /* \"#utility.yul\":2826:2830   */\n      0x20\n        /* \"#utility.yul\":2821:2824   */\n      dup5\n        /* \"#utility.yul\":2817:2831   */\n      add\n        /* \"#utility.yul\":2810:2831   */\n      swap4\n      pop\n        /* \"#utility.yul\":2697:2841   */\n      pop\n        /* \"#utility.yul\":2681:2685   */\n      0x20\n        /* \"#utility.yul\":2676:2679   */\n      dup2\n        /* \"#utility.yul\":2672:2686   */\n      add\n        /* \"#utility.yul\":2665:2686   */\n      swap1\n      pop\n        /* \"#utility.yul\":2621:2841   */\n      jump(tag_364)\n    tag_366:\n        /* \"#utility.yul\":2625:2646   */\n      pop\n        /* \"#utility.yul\":2239:2847   */\n      pop\n      pop\n        /* \"#utility.yul\":2137:2847   */\n      swap4\n      swap3\n      pop\n      pop\n      pop\n      jump\t// out\n        /* \"#utility.yul\":2870:3240   */\n    tag_296:\n        /* \"#utility.yul\":2941:2946   */\n      0x00\n        /* \"#utility.yul\":2990:2993   */\n      dup3\n        /* \"#utility.yul\":2983:2987   */\n      0x1f\n        /* \"#utility.yul\":2975:2981   */\n      dup4\n        /* \"#utility.yul\":2971:2988   */\n      add\n        /* \"#utility.yul\":2967:2994   */\n      slt\n        /* \"#utility.yul\":2957:3079   */\n      tag_369\n      jumpi\n        /* \"#utility.yul\":2998:3077   */\n      tag_370\n      tag_288\n      jump\t// in\n    tag_370:\n        /* \"#utility.yul\":2957:3079   */\n    tag_369:\n        /* \"#utility.yul\":3115:3121   */\n      dup2\n        /* \"#utility.yul\":3102:3122   */\n      calldataload\n        /* \"#utility.yul\":3140:3234   */\n      tag_371\n        /* \"#utility.yul\":3230:3233   */\n      dup5\n        /* \"#utility.yul\":3222:3228   */\n      dup3\n        /* \"#utility.yul\":3215:3219   */\n      0x20\n        /* \"#utility.yul\":3207:3213   */\n      dup7\n        /* \"#utility.yul\":3203:3220   */\n      add\n        /* \"#utility.yul\":3140:3234   */\n      tag_295\n      jump\t// in\n    tag_371:\n        /* \"#utility.yul\":3131:3234   */\n      swap2\n      pop\n        /* \"#utility.yul\":2947:3240   */\n      pop\n        /* \"#utility.yul\":2870:3240   */\n      swap3\n      swap2\n      pop\n      pop\n      jump\t// out\n        /* \"#utility.yul\":3246:3557   */\n    tag_297:\n        /* \"#utility.yul\":3323:3327   */\n      0x00\n        /* \"#utility.yul\":3413:3431   */\n      0xffffffffffffffff\n        /* \"#utility.yul\":3405:3411   */\n      dup3\n        /* \"#utility.yul\":3402:3432   */\n      gt\n        /* \"#utility.yul\":3399:3455   */\n      iszero\n      tag_373\n      jumpi\n        /* \"#utility.yul\":3435:3453   */\n      tag_374\n      tag_290\n      jump\t// in\n    tag_374:\n        /* \"#utility.yul\":3399:3455   */\n    tag_373:\n        /* \"#utility.yul\":3485:3489   */\n      0x20\n        /* \"#utility.yul\":3477:3483   */\n      dup3\n        /* \"#utility.yul\":3473:3490   */\n      mul\n        /* \"#utility.yul\":3465:3490   */\n      swap1\n      pop\n        /* \"#utility.yul\":3545:3549   */\n      0x20\n        /* \"#utility.yul\":3539:3543   */\n      dup2\n        /* \"#utility.yul\":3535:3550   */\n      add\n        /* \"#utility.yul\":3527:3550   */\n      swap1\n      pop\n        /* \"#utility.yul\":3246:3557   */\n      swap2\n      swap1\n      pop\n      jump\t// out\n        /* \"#utility.yul\":3563:3640   */\n    tag_298:\n        /* \"#utility.yul\":3600:3607   */\n      0x00\n        /* \"#utility.yul\":3629:3634   */\n      dup2\n        /* \"#utility.yul\":3618:3634   */\n      swap1\n      pop\n        /* \"#utility.yul\":3563:3640   */\n      swap2\n      swap1\n      pop\n      jump\t// out\n        /* \"#utility.yul\":3646:3768   */\n    tag_299:\n        /* \"#utility.yul\":3719:3743   */\n      tag_377\n        /* \"#utility.yul\":3737:3742   */\n      dup2\n        /* \"#utility.yul\":3719:3743   */\n      tag_298\n      jump\t// in\n    tag_377:\n        /* \"#utility.yul\":3712:3717   */\n      dup2\n        /* \"#utility.yul\":3709:3744   */\n      eq\n        /* \"#utility.yul\":3699:3762   */\n      tag_378\n      jumpi\n        /* \"#utility.yul\":3758:3759   */\n      0x00\n        /* \"#utility.yul\":3755:3756   */\n      dup1\n        /* \"#utility.yul\":3748:3760   */\n      revert\n        /* \"#utility.yul\":3699:3762   */\n    tag_378:\n        /* \"#utility.yul\":3646:3768   */\n      pop\n      jump\t// out\n        /* \"#utility.yul\":3774:3913   */\n    tag_300:\n        /* \"#utility.yul\":3820:3825   */\n      0x00\n        /* \"#utility.yul\":3858:3864   */\n      dup2\n        /* \"#utility.yul\":3845:3865   */\n      calldataload\n        /* \"#utility.yul\":3836:3865   */\n      swap1\n      pop\n        /* \"#utility.yul\":3874:3907   */\n      tag_380\n        /* \"#utility.yul\":3901:3906   */\n      dup2\n        /* \"#utility.yul\":3874:3907   */\n      tag_299\n      jump\t// in\n    tag_380:\n        /* \"#utility.yul\":3774:3913   */\n      swap3\n      swap2\n      pop\n      pop\n      jump\t// out\n        /* \"#utility.yul\":3936:4646   */\n    tag_301:\n        /* \"#utility.yul\":4032:4037   */\n      0x00\n        /* \"#utility.yul\":4057:4138   */\n      tag_382\n        /* \"#utility.yul\":4073:4137   */\n      tag_383\n        /* \"#utility.yul\":4130:4136   */\n      dup5\n        /* \"#utility.yul\":4073:4137   */\n      tag_297\n      jump\t// in\n    tag_383:\n        /* \"#utility.yul\":4057:4138   */\n      tag_292\n      jump\t// in\n    tag_382:\n        /* \"#utility.yul\":4048:4138   */\n      swap1\n      pop\n        /* \"#utility.yul\":4158:4163   */\n      dup1\n        /* \"#utility.yul\":4187:4193   */\n      dup4\n        /* \"#utility.yul\":4180:4185   */\n      dup3\n        /* \"#utility.yul\":4173:4194   */\n      mstore\n        /* \"#utility.yul\":4221:4225   */\n      0x20\n        /* \"#utility.yul\":4214:4219   */\n      dup3\n        /* \"#utility.yul\":4210:4226   */\n      add\n        /* \"#utility.yul\":4203:4226   */\n      swap1\n      pop\n        /* \"#utility.yul\":4274:4278   */\n      0x20\n        /* \"#utility.yul\":4266:4272   */\n      dup5\n        /* \"#utility.yul\":4262:4279   */\n      mul\n        /* \"#utility.yul\":4254:4260   */\n      dup4\n        /* \"#utility.yul\":4250:4280   */\n      add\n        /* \"#utility.yul\":4303:4306   */\n      dup6\n        /* \"#utility.yul\":4295:4301   */\n      dup2\n        /* \"#utility.yul\":4292:4307   */\n      gt\n        /* \"#utility.yul\":4289:4411   */\n      iszero\n      tag_384\n      jumpi\n        /* \"#utility.yul\":4322:4401   */\n      tag_385\n      tag_294\n      jump\t// in\n    tag_385:\n        /* \"#utility.yul\":4289:4411   */\n    tag_384:\n        /* \"#utility.yul\":4437:4443   */\n      dup4\n        /* \"#utility.yul\":4420:4640   */\n    tag_386:\n        /* \"#utility.yul\":4454:4460   */\n      dup2\n        /* \"#utility.yul\":4449:4452   */\n      dup2\n        /* \"#utility.yul\":4446:4461   */\n      lt\n        /* \"#utility.yul\":4420:4640   */\n      iszero\n      tag_388\n      jumpi\n        /* \"#utility.yul\":4529:4532   */\n      dup1\n        /* \"#utility.yul\":4558:4595   */\n      tag_389\n        /* \"#utility.yul\":4591:4594   */\n      dup9\n        /* \"#utility.yul\":4579:4589   */\n      dup3\n        /* \"#utility.yul\":4558:4595   */\n      tag_300\n      jump\t// in\n    tag_389:\n        /* \"#utility.yul\":4553:4556   */\n      dup5\n        /* \"#utility.yul\":4546:4596   */\n      mstore\n        /* \"#utility.yul\":4625:4629   */\n      0x20\n        /* \"#utility.yul\":4620:4623   */\n      dup5\n        /* \"#utility.yul\":4616:4630   */\n      add\n        /* \"#utility.yul\":4609:4630   */\n      swap4\n      pop\n        /* \"#utility.yul\":4496:4640   */\n      pop\n        /* \"#utility.yul\":4480:4484   */\n      0x20\n        /* \"#utility.yul\":4475:4478   */\n      dup2\n        /* \"#utility.yul\":4471:4485   */\n      add\n        /* \"#utility.yul\":4464:4485   */\n      swap1\n      pop\n        /* \"#utility.yul\":4420:4640   */\n      jump(tag_386)\n    tag_388:\n        /* \"#utility.yul\":4424:4445   */\n      pop\n        /* \"#utility.yul\":4038:4646   */\n      pop\n      pop\n        /* \"#utility.yul\":3936:4646   */\n      swap4\n      swap3\n      pop\n      pop\n      pop\n      jump\t// out\n        /* \"#utility.yul\":4669:5039   */\n    tag_302:\n        /* \"#utility.yul\":4740:4745   */\n      0x00\n        /* \"#utility.yul\":4789:4792   */\n      dup3\n        /* \"#utility.yul\":4782:4786   */\n      0x1f\n        /* \"#utility.yul\":4774:4780   */\n      dup4\n        /* \"#utility.yul\":4770:4787   */\n      add\n        /* \"#utility.yul\":4766:4793   */\n      slt\n        /* \"#utility.yul\":4756:4878   */\n      tag_391\n      jumpi\n        /* \"#utility.yul\":4797:4876   */\n      tag_392\n      tag_288\n      jump\t// in\n    tag_392:\n        /* \"#utility.yul\":4756:4878   */\n    tag_391:\n        /* \"#utility.yul\":4914:4920   */\n      dup2\n        /* \"#utility.yul\":4901:4921   */\n      calldataload\n        /* \"#utility.yul\":4939:5033   */\n      tag_393\n        /* \"#utility.yul\":5029:5032   */\n      dup5\n        /* \"#utility.yul\":5021:5027   */\n      dup3\n        /* \"#utility.yul\":5014:5018   */\n      0x20\n        /* \"#utility.yul\":5006:5012   */\n      dup7\n        /* \"#utility.yul\":5002:5019   */\n      add\n        /* \"#utility.yul\":4939:5033   */\n      tag_301\n      jump\t// in\n    tag_393:\n        /* \"#utility.yul\":4930:5033   */\n      swap2\n      pop\n        /* \"#utility.yul\":4746:5039   */\n      pop\n        /* \"#utility.yul\":4669:5039   */\n      swap3\n      swap2\n      pop\n      pop\n      jump\t// out\n        /* \"#utility.yul\":5045:6230   */\n    tag_18:\n        /* \"#utility.yul\":5181:5187   */\n      0x00\n        /* \"#utility.yul\":5189:5195   */\n      dup1\n        /* \"#utility.yul\":5197:5203   */\n      0x00\n        /* \"#utility.yul\":5205:5211   */\n      dup1\n        /* \"#utility.yul\":5254:5257   */\n      0x80\n        /* \"#utility.yul\":5242:5251   */\n      dup6\n        /* \"#utility.yul\":5233:5240   */\n      dup8\n        /* \"#utility.yul\":5229:5252   */\n      sub\n        /* \"#utility.yul\":5225:5258   */\n      slt\n        /* \"#utility.yul\":5222:5342   */\n      iszero\n      tag_395\n      jumpi\n        /* \"#utility.yul\":5261:5340   */\n      tag_396\n      tag_282\n      jump\t// in\n    tag_396:\n        /* \"#utility.yul\":5222:5342   */\n    tag_395:\n        /* \"#utility.yul\":5381:5382   */\n      0x00\n        /* \"#utility.yul\":5406:5459   */\n      tag_397\n        /* \"#utility.yul\":5451:5458   */\n      dup8\n        /* \"#utility.yul\":5442:5448   */\n      dup3\n        /* \"#utility.yul\":5431:5440   */\n      dup9\n        /* \"#utility.yul\":5427:5449   */\n      add\n        /* \"#utility.yul\":5406:5459   */\n      tag_287\n      jump\t// in\n    tag_397:\n        /* \"#utility.yul\":5396:5459   */\n      swap5\n      pop\n        /* \"#utility.yul\":5352:5469   */\n      pop\n        /* \"#utility.yul\":5536:5538   */\n      0x20\n        /* \"#utility.yul\":5525:5534   */\n      dup6\n        /* \"#utility.yul\":5521:5539   */\n      add\n        /* \"#utility.yul\":5508:5540   */\n      calldataload\n        /* \"#utility.yul\":5567:5585   */\n      0xffffffffffffffff\n        /* \"#utility.yul\":5559:5565   */\n      dup2\n        /* \"#utility.yul\":5556:5586   */\n      gt\n        /* \"#utility.yul\":5553:5670   */\n      iszero\n      tag_398\n      jumpi\n        /* \"#utility.yul\":5589:5668   */\n      tag_399\n      tag_283\n      jump\t// in\n    tag_399:\n        /* \"#utility.yul\":5553:5670   */\n    tag_398:\n        /* \"#utility.yul\":5694:5772   */\n      tag_400\n        /* \"#utility.yul\":5764:5771   */\n      dup8\n        /* \"#utility.yul\":5755:5761   */\n      dup3\n        /* \"#utility.yul\":5744:5753   */\n      dup9\n        /* \"#utility.yul\":5740:5762   */\n      add\n        /* \"#utility.yul\":5694:5772   */\n      tag_296\n      jump\t// in\n    tag_400:\n        /* \"#utility.yul\":5684:5772   */\n      swap4\n      pop\n        /* \"#utility.yul\":5479:5782   */\n      pop\n        /* \"#utility.yul\":5849:5851   */\n      0x40\n        /* \"#utility.yul\":5838:5847   */\n      dup6\n        /* \"#utility.yul\":5834:5852   */\n      add\n        /* \"#utility.yul\":5821:5853   */\n      calldataload\n        /* \"#utility.yul\":5880:5898   */\n      0xffffffffffffffff\n        /* \"#utility.yul\":5872:5878   */\n      dup2\n        /* \"#utility.yul\":5869:5899   */\n      gt\n        /* \"#utility.yul\":5866:5983   */\n      iszero\n      tag_401\n      jumpi\n        /* \"#utility.yul\":5902:5981   */\n      tag_402\n      tag_283\n      jump\t// in\n    tag_402:\n        /* \"#utility.yul\":5866:5983   */\n    tag_401:\n        /* \"#utility.yul\":6007:6085   */\n      tag_403\n        /* \"#utility.yul\":6077:6084   */\n      dup8\n        /* \"#utility.yul\":6068:6074   */\n      dup3\n        /* \"#utility.yul\":6057:6066   */\n      dup9\n        /* \"#utility.yul\":6053:6075   */\n      add\n        /* \"#utility.yul\":6007:6085   */\n      tag_302\n      jump\t// in\n    tag_403:\n        /* \"#utility.yul\":5997:6085   */\n      swap3\n      pop\n        /* \"#utility.yul\":5792:6095   */\n      pop\n        /* \"#utility.yul\":6134:6136   */\n      0x60\n        /* \"#utility.yul\":6160:6213   */\n      tag_404\n        /* \"#utility.yul\":6205:6212   */\n      dup8\n        /* \"#utility.yul\":6196:6202   */\n      dup3\n        /* \"#utility.yul\":6185:6194   */\n      dup9\n        /* \"#utility.yul\":6181:6203   */\n      add\n        /* \"#utility.yul\":6160:6213   */\n      tag_300\n      jump\t// in\n    tag_404:\n        /* \"#utility.yul\":6150:6213   */\n      swap2\n      pop\n        /* \"#utility.yul\":6105:6223   */\n      pop\n        /* \"#utility.yul\":5045:6230   */\n      swap3\n      swap6\n      swap2\n      swap5\n      pop\n      swap3\n      pop\n      jump\t// out\n        /* \"#utility.yul\":6236:7275   */\n    tag_23:\n        /* \"#utility.yul\":6363:6369   */\n      0x00\n        /* \"#utility.yul\":6371:6377   */\n      dup1\n        /* \"#utility.yul\":6379:6385   */\n      0x00\n        /* \"#utility.yul\":6428:6430   */\n      0x60\n        /* \"#utility.yul\":6416:6425   */\n      dup5\n        /* \"#utility.yul\":6407:6414   */\n      dup7\n        /* \"#utility.yul\":6403:6426   */\n      sub\n        /* \"#utility.yul\":6399:6431   */\n      slt\n        /* \"#utility.yul\":6396:6515   */\n      iszero\n      tag_406\n      jumpi\n        /* \"#utility.yul\":6434:6513   */\n      tag_407\n      tag_282\n      jump\t// in\n    tag_407:\n        /* \"#utility.yul\":6396:6515   */\n    tag_406:\n        /* \"#utility.yul\":6582:6583   */\n      0x00\n        /* \"#utility.yul\":6571:6580   */\n      dup5\n        /* \"#utility.yul\":6567:6584   */\n      add\n        /* \"#utility.yul\":6554:6585   */\n      calldataload\n        /* \"#utility.yul\":6612:6630   */\n      0xffffffffffffffff\n        /* \"#utility.yul\":6604:6610   */\n      dup2\n        /* \"#utility.yul\":6601:6631   */\n      gt\n        /* \"#utility.yul\":6598:6715   */\n      iszero\n      tag_408\n      jumpi\n        /* \"#utility.yul\":6634:6713   */\n      tag_409\n      tag_283\n      jump\t// in\n    tag_409:\n        /* \"#utility.yul\":6598:6715   */\n    tag_408:\n        /* \"#utility.yul\":6739:6817   */\n      tag_410\n        /* \"#utility.yul\":6809:6816   */\n      dup7\n        /* \"#utility.yul\":6800:6806   */\n      dup3\n        /* \"#utility.yul\":6789:6798   */\n      dup8\n        /* \"#utility.yul\":6785:6807   */\n      add\n        /* \"#utility.yul\":6739:6817   */\n      tag_296\n      jump\t// in\n    tag_410:\n        /* \"#utility.yul\":6729:6817   */\n      swap4\n      pop\n        /* \"#utility.yul\":6525:6827   */\n      pop\n        /* \"#utility.yul\":6894:6896   */\n      0x20\n        /* \"#utility.yul\":6883:6892   */\n      dup5\n        /* \"#utility.yul\":6879:6897   */\n      add\n        /* \"#utility.yul\":6866:6898   */\n      calldataload\n        /* \"#utility.yul\":6925:6943   */\n      0xffffffffffffffff\n        /* \"#utility.yul\":6917:6923   */\n      dup2\n        /* \"#utility.yul\":6914:6944   */\n      gt\n        /* \"#utility.yul\":6911:7028   */\n      iszero\n      tag_411\n      jumpi\n        /* \"#utility.yul\":6947:7026   */\n      tag_412\n      tag_283\n      jump\t// in\n    tag_412:\n        /* \"#utility.yul\":6911:7028   */\n    tag_411:\n        /* \"#utility.yul\":7052:7130   */\n      tag_413\n        /* \"#utility.yul\":7122:7129   */\n      dup7\n        /* \"#utility.yul\":7113:7119   */\n      dup3\n        /* \"#utility.yul\":7102:7111   */\n      dup8\n        /* \"#utility.yul\":7098:7120   */\n      add\n        /* \"#utility.yul\":7052:7130   */\n      tag_302\n      jump\t// in\n    tag_413:\n        /* \"#utility.yul\":7042:7130   */\n      swap3\n      pop\n        /* \"#utility.yul\":6837:7140   */\n      pop\n        /* \"#utility.yul\":7179:7181   */\n      0x40\n        /* \"#utility.yul\":7205:7258   */\n      tag_414\n        /* \"#utility.yul\":7250:7257   */\n      dup7\n        /* \"#utility.yul\":7241:7247   */\n      dup3\n        /* \"#utility.yul\":7230:7239   */\n      dup8\n        /* \"#utility.yul\":7226:7248   */\n      add\n        /* \"#utility.yul\":7205:7258   */\n      tag_300\n      jump\t// in\n    tag_414:\n        /* \"#utility.yul\":7195:7258   */\n      swap2\n      pop\n        /* \"#utility.yul\":7150:7268   */\n      pop\n        /* \"#utility.yul\":6236:7275   */\n      swap3\n      pop\n      swap3\n      pop\n      swap3\n      jump\t// out\n        /* \"#utility.yul\":7281:8320   */\n    tag_28:\n        /* \"#utility.yul\":7408:7414   */\n      0x00\n        /* \"#utility.yul\":7416:7422   */\n      dup1\n        /* \"#utility.yul\":7424:7430   */\n      0x00\n        /* \"#utility.yul\":7473:7475   */\n      0x60\n        /* \"#utility.yul\":7461:7470   */\n      dup5\n        /* \"#utility.yul\":7452:7459   */\n      dup7\n        /* \"#utility.yul\":7448:7471   */\n      sub\n        /* \"#utility.yul\":7444:7476   */\n      slt\n        /* \"#utility.yul\":7441:7560   */\n      iszero\n      tag_416\n      jumpi\n        /* \"#utility.yul\":7479:7558   */\n      tag_417\n      tag_282\n      jump\t// in\n    tag_417:\n        /* \"#utility.yul\":7441:7560   */\n    tag_416:\n        /* \"#utility.yul\":7599:7600   */\n      0x00\n        /* \"#utility.yul\":7624:7677   */\n      tag_418\n        /* \"#utility.yul\":7669:7676   */\n      dup7\n        /* \"#utility.yul\":7660:7666   */\n      dup3\n        /* \"#utility.yul\":7649:7658   */\n      dup8\n        /* \"#utility.yul\":7645:7667   */\n      add\n        /* \"#utility.yul\":7624:7677   */\n      tag_287\n      jump\t// in\n    tag_418:\n        /* \"#utility.yul\":7614:7677   */\n      swap4\n      pop\n        /* \"#utility.yul\":7570:7687   */\n      pop\n        /* \"#utility.yul\":7754:7756   */\n      0x20\n        /* \"#utility.yul\":7743:7752   */\n      dup5\n        /* \"#utility.yul\":7739:7757   */\n      add\n        /* \"#utility.yul\":7726:7758   */\n      calldataload\n        /* \"#utility.yul\":7785:7803   */\n      0xffffffffffffffff\n        /* \"#utility.yul\":7777:7783   */\n      dup2\n        /* \"#utility.yul\":7774:7804   */\n      gt\n        /* \"#utility.yul\":7771:7888   */\n      iszero\n      tag_419\n      jumpi\n        /* \"#utility.yul\":7807:7886   */\n      tag_420\n      tag_283\n      jump\t// in\n    tag_420:\n        /* \"#utility.yul\":7771:7888   */\n    tag_419:\n        /* \"#utility.yul\":7912:7990   */\n      tag_421\n        /* \"#utility.yul\":7982:7989   */\n      dup7\n        /* \"#utility.yul\":7973:7979   */\n      dup3\n        /* \"#utility.yul\":7962:7971   */\n      dup8\n        /* \"#utility.yul\":7958:7980   */\n      add\n        /* \"#utility.yul\":7912:7990   */\n      tag_296\n      jump\t// in\n    tag_421:\n        /* \"#utility.yul\":7902:7990   */\n      swap3\n      pop\n        /* \"#utility.yul\":7697:8000   */\n      pop\n        /* \"#utility.yul\":8067:8069   */\n      0x40\n        /* \"#utility.yul\":8056:8065   */\n      dup5\n        /* \"#utility.yul\":8052:8070   */\n      add\n        /* \"#utility.yul\":8039:8071   */\n      calldataload\n        /* \"#utility.yul\":8098:8116   */\n      0xffffffffffffffff\n        /* \"#utility.yul\":8090:8096   */\n      dup2\n        /* \"#utility.yul\":8087:8117   */\n      gt\n        /* \"#utility.yul\":8084:8201   */\n      iszero\n      tag_422\n      jumpi\n        /* \"#utility.yul\":8120:8199   */\n      tag_423\n      tag_283\n      jump\t// in\n    tag_423:\n        /* \"#utility.yul\":8084:8201   */\n    tag_422:\n        /* \"#utility.yul\":8225:8303   */\n      tag_424\n        /* \"#utility.yul\":8295:8302   */\n      dup7\n        /* \"#utility.yul\":8286:8292   */\n      dup3\n        /* \"#utility.yul\":8275:8284   */\n      dup8\n        /* \"#utility.yul\":8271:8293   */\n      add\n        /* \"#utility.yul\":8225:8303   */\n      tag_302\n      jump\t// in\n    tag_424:\n        /* \"#utility.yul\":8215:8303   */\n      swap2\n      pop\n        /* \"#utility.yul\":8010:8313   */\n      pop\n        /* \"#utility.yul\":7281:8320   */\n      swap3\n      pop\n      swap3\n      pop\n      swap3\n      jump\t// out\n        /* \"#utility.yul\":8326:9301   */\n    tag_33:\n        /* \"#utility.yul\":8437:8443   */\n      0x00\n        /* \"#utility.yul\":8445:8451   */\n      dup1\n        /* \"#utility.yul\":8453:8459   */\n      0x00\n        /* \"#utility.yul\":8461:8467   */\n      dup1\n        /* \"#utility.yul\":8510:8513   */\n      0x80\n        /* \"#utility.yul\":8498:8507   */\n      dup6\n        /* \"#utility.yul\":8489:8496   */\n      dup8\n        /* \"#utility.yul\":8485:8508   */\n      sub\n        /* \"#utility.yul\":8481:8514   */\n      slt\n        /* \"#utility.yul\":8478:8598   */\n      iszero\n      tag_426\n      jumpi\n        /* \"#utility.yul\":8517:8596   */\n      tag_427\n      tag_282\n      jump\t// in\n    tag_427:\n        /* \"#utility.yul\":8478:8598   */\n    tag_426:\n        /* \"#utility.yul\":8637:8638   */\n      0x00\n        /* \"#utility.yul\":8662:8715   */\n      tag_428\n        /* \"#utility.yul\":8707:8714   */\n      dup8\n        /* \"#utility.yul\":8698:8704   */\n      dup3\n        /* \"#utility.yul\":8687:8696   */\n      dup9\n        /* \"#utility.yul\":8683:8705   */\n      add\n        /* \"#utility.yul\":8662:8715   */\n      tag_287\n      jump\t// in\n    tag_428:\n        /* \"#utility.yul\":8652:8715   */\n      swap5\n      pop\n        /* \"#utility.yul\":8608:8725   */\n      pop\n        /* \"#utility.yul\":8792:8794   */\n      0x20\n        /* \"#utility.yul\":8781:8790   */\n      dup6\n        /* \"#utility.yul\":8777:8795   */\n      add\n        /* \"#utility.yul\":8764:8796   */\n      calldataload\n        /* \"#utility.yul\":8823:8841   */\n      0xffffffffffffffff\n        /* \"#utility.yul\":8815:8821   */\n      dup2\n        /* \"#utility.yul\":8812:8842   */\n      gt\n        /* \"#utility.yul\":8809:8926   */\n      iszero\n      tag_429\n      jumpi\n        /* \"#utility.yul\":8845:8924   */\n      tag_430\n      tag_283\n      jump\t// in\n    tag_430:\n        /* \"#utility.yul\":8809:8926   */\n    tag_429:\n        /* \"#utility.yul\":8950:9028   */\n      tag_431\n        /* \"#utility.yul\":9020:9027   */\n      dup8\n        /* \"#utility.yul\":9011:9017   */\n      dup3\n        /* \"#utility.yul\":9000:9009   */\n      dup9\n        /* \"#utility.yul\":8996:9018   */\n      add\n        /* \"#utility.yul\":8950:9028   */\n      tag_296\n      jump\t// in\n    tag_431:\n        /* \"#utility.yul\":8940:9028   */\n      swap4\n      pop\n        /* \"#utility.yul\":8735:9038   */\n      pop\n        /* \"#utility.yul\":9077:9079   */\n      0x40\n        /* \"#utility.yul\":9103:9156   */\n      tag_432\n        /* \"#utility.yul\":9148:9155   */\n      dup8\n        /* \"#utility.yul\":9139:9145   */\n      dup3\n        /* \"#utility.yul\":9128:9137   */\n      dup9\n        /* \"#utility.yul\":9124:9146   */\n      add\n        /* \"#utility.yul\":9103:9156   */\n      tag_300\n      jump\t// in\n    tag_432:\n        /* \"#utility.yul\":9093:9156   */\n      swap3\n      pop\n        /* \"#utility.yul\":9048:9166   */\n      pop\n        /* \"#utility.yul\":9205:9207   */\n      0x60\n        /* \"#utility.yul\":9231:9284   */\n      tag_433\n        /* \"#utility.yul\":9276:9283   */\n      dup8\n        /* \"#utility.yul\":9267:9273   */\n      dup3\n        /* \"#utility.yul\":9256:9265   */\n      dup9\n        /* \"#utility.yul\":9252:9274   */\n      add\n        /* \"#utility.yul\":9231:9284   */\n      tag_300\n      jump\t// in\n    tag_433:\n        /* \"#utility.yul\":9221:9284   */\n      swap2\n      pop\n        /* \"#utility.yul\":9176:9294   */\n      pop\n        /* \"#utility.yul\":8326:9301   */\n      swap3\n      swap6\n      swap2\n      swap5\n      pop\n      swap3\n      pop\n      jump\t// out\n        /* \"#utility.yul\":9307:9991   */\n    tag_38:\n        /* \"#utility.yul\":9400:9406   */\n      0x00\n        /* \"#utility.yul\":9408:9414   */\n      dup1\n        /* \"#utility.yul\":9457:9459   */\n      0x40\n        /* \"#utility.yul\":9445:9454   */\n      dup4\n        /* \"#utility.yul\":9436:9443   */\n      dup6\n        /* \"#utility.yul\":9432:9455   */\n      sub\n        /* \"#utility.yul\":9428:9460   */\n      slt\n        /* \"#utility.yul\":9425:9544   */\n      iszero\n      tag_435\n      jumpi\n        /* \"#utility.yul\":9463:9542   */\n      tag_436\n      tag_282\n      jump\t// in\n    tag_436:\n        /* \"#utility.yul\":9425:9544   */\n    tag_435:\n        /* \"#utility.yul\":9611:9612   */\n      0x00\n        /* \"#utility.yul\":9600:9609   */\n      dup4\n        /* \"#utility.yul\":9596:9613   */\n      add\n        /* \"#utility.yul\":9583:9614   */\n      calldataload\n        /* \"#utility.yul\":9641:9659   */\n      0xffffffffffffffff\n        /* \"#utility.yul\":9633:9639   */\n      dup2\n        /* \"#utility.yul\":9630:9660   */\n      gt\n        /* \"#utility.yul\":9627:9744   */\n      iszero\n      tag_437\n      jumpi\n        /* \"#utility.yul\":9663:9742   */\n      tag_438\n      tag_283\n      jump\t// in\n    tag_438:\n        /* \"#utility.yul\":9627:9744   */\n    tag_437:\n        /* \"#utility.yul\":9768:9846   */\n      tag_439\n        /* \"#utility.yul\":9838:9845   */\n      dup6\n        /* \"#utility.yul\":9829:9835   */\n      dup3\n        /* \"#utility.yul\":9818:9827   */\n      dup7\n        /* \"#utility.yul\":9814:9836   */\n      add\n        /* \"#utility.yul\":9768:9846   */\n      tag_296\n      jump\t// in\n    tag_439:\n        /* \"#utility.yul\":9758:9846   */\n      swap3\n      pop\n        /* \"#utility.yul\":9554:9856   */\n      pop\n        /* \"#utility.yul\":9895:9897   */\n      0x20\n        /* \"#utility.yul\":9921:9974   */\n      tag_440\n        /* \"#utility.yul\":9966:9973   */\n      dup6\n        /* \"#utility.yul\":9957:9963   */\n      dup3\n        /* \"#utility.yul\":9946:9955   */\n      dup7\n        /* \"#utility.yul\":9942:9964   */\n      add\n        /* \"#utility.yul\":9921:9974   */\n      tag_300\n      jump\t// in\n    tag_440:\n        /* \"#utility.yul\":9911:9974   */\n      swap2\n      pop\n        /* \"#utility.yul\":9866:9984   */\n      pop\n        /* \"#utility.yul\":9307:9991   */\n      swap3\n      pop\n      swap3\n      swap1\n      pop\n      jump\t// out\n        /* \"#utility.yul\":9997:10087   */\n    tag_303:\n        /* \"#utility.yul\":10031:10038   */\n      0x00\n        /* \"#utility.yul\":10074:10079   */\n      dup2\n        /* \"#utility.yul\":10067:10080   */\n      iszero\n        /* \"#utility.yul\":10060:10081   */\n      iszero\n        /* \"#utility.yul\":10049:10081   */\n      swap1\n      pop\n        /* \"#utility.yul\":9997:10087   */\n      swap2\n      swap1\n      pop\n      jump\t// out\n        /* \"#utility.yul\":10093:10209   */\n    tag_304:\n        /* \"#utility.yul\":10163:10184   */\n      tag_443\n        /* \"#utility.yul\":10178:10183   */\n      dup2\n        /* \"#utility.yul\":10163:10184   */\n      tag_303\n      jump\t// in\n    tag_443:\n        /* \"#utility.yul\":10156:10161   */\n      dup2\n        /* \"#utility.yul\":10153:10185   */\n      eq\n        /* \"#utility.yul\":10143:10203   */\n      tag_444\n      jumpi\n        /* \"#utility.yul\":10199:10200   */\n      0x00\n        /* \"#utility.yul\":10196:10197   */\n      dup1\n        /* \"#utility.yul\":10189:10201   */\n      revert\n        /* \"#utility.yul\":10143:10203   */\n    tag_444:\n        /* \"#utility.yul\":10093:10209   */\n      pop\n      jump\t// out\n        /* \"#utility.yul\":10215:10348   */\n    tag_305:\n        /* \"#utility.yul\":10258:10263   */\n      0x00\n        /* \"#utility.yul\":10296:10302   */\n      dup2\n        /* \"#utility.yul\":10283:10303   */\n      calldataload\n        /* \"#utility.yul\":10274:10303   */\n      swap1\n      pop\n        /* \"#utility.yul\":10312:10342   */\n      tag_446\n        /* \"#utility.yul\":10336:10341   */\n      dup2\n        /* \"#utility.yul\":10312:10342   */\n      tag_304\n      jump\t// in\n    tag_446:\n        /* \"#utility.yul\":10215:10348   */\n      swap3\n      swap2\n      pop\n      pop\n      jump\t// out\n        /* \"#utility.yul\":10354:11032   */\n    tag_43:\n        /* \"#utility.yul\":10444:10450   */\n      0x00\n        /* \"#utility.yul\":10452:10458   */\n      dup1\n        /* \"#utility.yul\":10501:10503   */\n      0x40\n        /* \"#utility.yul\":10489:10498   */\n      dup4\n        /* \"#utility.yul\":10480:10487   */\n      dup6\n        /* \"#utility.yul\":10476:10499   */\n      sub\n        /* \"#utility.yul\":10472:10504   */\n      slt\n        /* \"#utility.yul\":10469:10588   */\n      iszero\n      tag_448\n      jumpi\n        /* \"#utility.yul\":10507:10586   */\n      tag_449\n      tag_282\n      jump\t// in\n    tag_449:\n        /* \"#utility.yul\":10469:10588   */\n    tag_448:\n        /* \"#utility.yul\":10655:10656   */\n      0x00\n        /* \"#utility.yul\":10644:10653   */\n      dup4\n        /* \"#utility.yul\":10640:10657   */\n      add\n        /* \"#utility.yul\":10627:10658   */\n      calldataload\n        /* \"#utility.yul\":10685:10703   */\n      0xffffffffffffffff\n        /* \"#utility.yul\":10677:10683   */\n      dup2\n        /* \"#utility.yul\":10674:10704   */\n      gt\n        /* \"#utility.yul\":10671:10788   */\n      iszero\n      tag_450\n      jumpi\n        /* \"#utility.yul\":10707:10786   */\n      tag_451\n      tag_283\n      jump\t// in\n    tag_451:\n        /* \"#utility.yul\":10671:10788   */\n    tag_450:\n        /* \"#utility.yul\":10812:10890   */\n      tag_452\n        /* \"#utility.yul\":10882:10889   */\n      dup6\n        /* \"#utility.yul\":10873:10879   */\n      dup3\n        /* \"#utility.yul\":10862:10871   */\n      dup7\n        /* \"#utility.yul\":10858:10880   */\n      add\n        /* \"#utility.yul\":10812:10890   */\n      tag_296\n      jump\t// in\n    tag_452:\n        /* \"#utility.yul\":10802:10890   */\n      swap3\n      pop\n        /* \"#utility.yul\":10598:10900   */\n      pop\n        /* \"#utility.yul\":10939:10941   */\n      0x20\n        /* \"#utility.yul\":10965:11015   */\n      tag_453\n        /* \"#utility.yul\":11007:11014   */\n      dup6\n        /* \"#utility.yul\":10998:11004   */\n      dup3\n        /* \"#utility.yul\":10987:10996   */\n      dup7\n        /* \"#utility.yul\":10983:11005   */\n      add\n        /* \"#utility.yul\":10965:11015   */\n      tag_305\n      jump\t// in\n    tag_453:\n        /* \"#utility.yul\":10955:11015   */\n      swap2\n      pop\n        /* \"#utility.yul\":10910:11025   */\n      pop\n        /* \"#utility.yul\":10354:11032   */\n      swap3\n      pop\n      swap3\n      swap1\n      pop\n      jump\t// out\n        /* \"#utility.yul\":11038:11932   */\n    tag_48:\n        /* \"#utility.yul\":11156:11162   */\n      0x00\n        /* \"#utility.yul\":11164:11170   */\n      dup1\n        /* \"#utility.yul\":11213:11215   */\n      0x40\n        /* \"#utility.yul\":11201:11210   */\n      dup4\n        /* \"#utility.yul\":11192:11199   */\n      dup6\n        /* \"#utility.yul\":11188:11211   */\n      sub\n        /* \"#utility.yul\":11184:11216   */\n      slt\n        /* \"#utility.yul\":11181:11300   */\n      iszero\n      tag_455\n      jumpi\n        /* \"#utility.yul\":11219:11298   */\n      tag_456\n      tag_282\n      jump\t// in\n    tag_456:\n        /* \"#utility.yul\":11181:11300   */\n    tag_455:\n        /* \"#utility.yul\":11367:11368   */\n      0x00\n        /* \"#utility.yul\":11356:11365   */\n      dup4\n        /* \"#utility.yul\":11352:11369   */\n      add\n        /* \"#utility.yul\":11339:11370   */\n      calldataload\n        /* \"#utility.yul\":11397:11415   */\n      0xffffffffffffffff\n        /* \"#utility.yul\":11389:11395   */\n      dup2\n        /* \"#utility.yul\":11386:11416   */\n      gt\n        /* \"#utility.yul\":11383:11500   */\n      iszero\n      tag_457\n      jumpi\n        /* \"#utility.yul\":11419:11498   */\n      tag_458\n      tag_283\n      jump\t// in\n    tag_458:\n        /* \"#utility.yul\":11383:11500   */\n    tag_457:\n        /* \"#utility.yul\":11524:11602   */\n      tag_459\n        /* \"#utility.yul\":11594:11601   */\n      dup6\n        /* \"#utility.yul\":11585:11591   */\n      dup3\n        /* \"#utility.yul\":11574:11583   */\n      dup7\n        /* \"#utility.yul\":11570:11592   */\n      add\n        /* \"#utility.yul\":11524:11602   */\n      tag_296\n      jump\t// in\n    tag_459:\n        /* \"#utility.yul\":11514:11602   */\n      swap3\n      pop\n        /* \"#utility.yul\":11310:11612   */\n      pop\n        /* \"#utility.yul\":11679:11681   */\n      0x20\n        /* \"#utility.yul\":11668:11677   */\n      dup4\n        /* \"#utility.yul\":11664:11682   */\n      add\n        /* \"#utility.yul\":11651:11683   */\n      calldataload\n        /* \"#utility.yul\":11710:11728   */\n      0xffffffffffffffff\n        /* \"#utility.yul\":11702:11708   */\n      dup2\n        /* \"#utility.yul\":11699:11729   */\n      gt\n        /* \"#utility.yul\":11696:11813   */\n      iszero\n      tag_460\n      jumpi\n        /* \"#utility.yul\":11732:11811   */\n      tag_461\n      tag_283\n      jump\t// in\n    tag_461:\n        /* \"#utility.yul\":11696:11813   */\n    tag_460:\n        /* \"#utility.yul\":11837:11915   */\n      tag_462\n        /* \"#utility.yul\":11907:11914   */\n      dup6\n        /* \"#utility.yul\":11898:11904   */\n      dup3\n        /* \"#utility.yul\":11887:11896   */\n      dup7\n        /* \"#utility.yul\":11883:11905   */\n      add\n        /* \"#utility.yul\":11837:11915   */\n      tag_302\n      jump\t// in\n    tag_462:\n        /* \"#utility.yul\":11827:11915   */\n      swap2\n      pop\n        /* \"#utility.yul\":11622:11925   */\n      pop\n        /* \"#utility.yul\":11038:11932   */\n      swap3\n      pop\n      swap3\n      swap1\n      pop\n      jump\t// out\n        /* \"#utility.yul\":11938:12767   */\n    tag_53:\n        /* \"#utility.yul\":12040:12046   */\n      0x00\n        /* \"#utility.yul\":12048:12054   */\n      dup1\n        /* \"#utility.yul\":12056:12062   */\n      0x00\n        /* \"#utility.yul\":12105:12107   */\n      0x60\n        /* \"#utility.yul\":12093:12102   */\n      dup5\n        /* \"#utility.yul\":12084:12091   */\n      dup7\n        /* \"#utility.yul\":12080:12103   */\n      sub\n        /* \"#utility.yul\":12076:12108   */\n      slt\n        /* \"#utility.yul\":12073:12192   */\n      iszero\n      tag_464\n      jumpi\n        /* \"#utility.yul\":12111:12190   */\n      tag_465\n      tag_282\n      jump\t// in\n    tag_465:\n        /* \"#utility.yul\":12073:12192   */\n    tag_464:\n        /* \"#utility.yul\":12259:12260   */\n      0x00\n        /* \"#utility.yul\":12248:12257   */\n      dup5\n        /* \"#utility.yul\":12244:12261   */\n      add\n        /* \"#utility.yul\":12231:12262   */\n      calldataload\n        /* \"#utility.yul\":12289:12307   */\n      0xffffffffffffffff\n        /* \"#utility.yul\":12281:12287   */\n      dup2\n        /* \"#utility.yul\":12278:12308   */\n      gt\n        /* \"#utility.yul\":12275:12392   */\n      iszero\n      tag_466\n      jumpi\n        /* \"#utility.yul\":12311:12390   */\n      tag_467\n      tag_283\n      jump\t// in\n    tag_467:\n        /* \"#utility.yul\":12275:12392   */\n    tag_466:\n        /* \"#utility.yul\":12416:12494   */\n      tag_468\n        /* \"#utility.yul\":12486:12493   */\n      dup7\n        /* \"#utility.yul\":12477:12483   */\n      dup3\n        /* \"#utility.yul\":12466:12475   */\n      dup8\n        /* \"#utility.yul\":12462:12484   */\n      add\n        /* \"#utility.yul\":12416:12494   */\n      tag_296\n      jump\t// in\n    tag_468:\n        /* \"#utility.yul\":12406:12494   */\n      swap4\n      pop\n        /* \"#utility.yul\":12202:12504   */\n      pop\n        /* \"#utility.yul\":12543:12545   */\n      0x20\n        /* \"#utility.yul\":12569:12622   */\n      tag_469\n        /* \"#utility.yul\":12614:12621   */\n      dup7\n        /* \"#utility.yul\":12605:12611   */\n      dup3\n        /* \"#utility.yul\":12594:12603   */\n      dup8\n        /* \"#utility.yul\":12590:12612   */\n      add\n        /* \"#utility.yul\":12569:12622   */\n      tag_300\n      jump\t// in\n    tag_469:\n        /* \"#utility.yul\":12559:12622   */\n      swap3\n      pop\n        /* \"#utility.yul\":12514:12632   */\n      pop\n        /* \"#utility.yul\":12671:12673   */\n      0x40\n        /* \"#utility.yul\":12697:12750   */\n      tag_470\n        /* \"#utility.yul\":12742:12749   */\n      dup7\n        /* \"#utility.yul\":12733:12739   */\n      dup3\n        /* \"#utility.yul\":12722:12731   */\n      dup8\n        /* \"#utility.yul\":12718:12740   */\n      add\n        /* \"#utility.yul\":12697:12750   */\n      tag_300\n      jump\t// in\n    tag_470:\n        /* \"#utility.yul\":12687:12750   */\n      swap2\n      pop\n        /* \"#utility.yul\":12642:12760   */\n      pop\n        /* \"#utility.yul\":11938:12767   */\n      swap3\n      pop\n      swap3\n      pop\n      swap3\n      jump\t// out\n        /* \"#utility.yul\":12773:13602   */\n    tag_58:\n        /* \"#utility.yul\":12875:12881   */\n      0x00\n        /* \"#utility.yul\":12883:12889   */\n      dup1\n        /* \"#utility.yul\":12891:12897   */\n      0x00\n        /* \"#utility.yul\":12940:12942   */\n      0x60\n        /* \"#utility.yul\":12928:12937   */\n      dup5\n        /* \"#utility.yul\":12919:12926   */\n      dup7\n        /* \"#utility.yul\":12915:12938   */\n      sub\n        /* \"#utility.yul\":12911:12943   */\n      slt\n        /* \"#utility.yul\":12908:13027   */\n      iszero\n      tag_472\n      jumpi\n        /* \"#utility.yul\":12946:13025   */\n      tag_473\n      tag_282\n      jump\t// in\n    tag_473:\n        /* \"#utility.yul\":12908:13027   */\n    tag_472:\n        /* \"#utility.yul\":13066:13067   */\n      0x00\n        /* \"#utility.yul\":13091:13144   */\n      tag_474\n        /* \"#utility.yul\":13136:13143   */\n      dup7\n        /* \"#utility.yul\":13127:13133   */\n      dup3\n        /* \"#utility.yul\":13116:13125   */\n      dup8\n        /* \"#utility.yul\":13112:13134   */\n      add\n        /* \"#utility.yul\":13091:13144   */\n      tag_287\n      jump\t// in\n    tag_474:\n        /* \"#utility.yul\":13081:13144   */\n      swap4\n      pop\n        /* \"#utility.yul\":13037:13154   */\n      pop\n        /* \"#utility.yul\":13221:13223   */\n      0x20\n        /* \"#utility.yul\":13210:13219   */\n      dup5\n        /* \"#utility.yul\":13206:13224   */\n      add\n        /* \"#utility.yul\":13193:13225   */\n      calldataload\n        /* \"#utility.yul\":13252:13270   */\n      0xffffffffffffffff\n        /* \"#utility.yul\":13244:13250   */\n      dup2\n        /* \"#utility.yul\":13241:13271   */\n      gt\n        /* \"#utility.yul\":13238:13355   */\n      iszero\n      tag_475\n      jumpi\n        /* \"#utility.yul\":13274:13353   */\n      tag_476\n      tag_283\n      jump\t// in\n    tag_476:\n        /* \"#utility.yul\":13238:13355   */\n    tag_475:\n        /* \"#utility.yul\":13379:13457   */\n      tag_477\n        /* \"#utility.yul\":13449:13456   */\n      dup7\n        /* \"#utility.yul\":13440:13446   */\n      dup3\n        /* \"#utility.yul\":13429:13438   */\n      dup8\n        /* \"#utility.yul\":13425:13447   */\n      add\n        /* \"#utility.yul\":13379:13457   */\n      tag_296\n      jump\t// in\n    tag_477:\n        /* \"#utility.yul\":13369:13457   */\n      swap3\n      pop\n        /* \"#utility.yul\":13164:13467   */\n      pop\n        /* \"#utility.yul\":13506:13508   */\n      0x40\n        /* \"#utility.yul\":13532:13585   */\n      tag_478\n        /* \"#utility.yul\":13577:13584   */\n      dup7\n        /* \"#utility.yul\":13568:13574   */\n      dup3\n        /* \"#utility.yul\":13557:13566   */\n      dup8\n        /* \"#utility.yul\":13553:13575   */\n      add\n        /* \"#utility.yul\":13532:13585   */\n      tag_300\n      jump\t// in\n    tag_478:\n        /* \"#utility.yul\":13522:13585   */\n      swap2\n      pop\n        /* \"#utility.yul\":13477:13595   */\n      pop\n        /* \"#utility.yul\":12773:13602   */\n      swap3\n      pop\n      swap3\n      pop\n      swap3\n      jump\t// out\n        /* \"#utility.yul\":13608:13777   */\n    tag_306:\n        /* \"#utility.yul\":13692:13703   */\n      0x00\n        /* \"#utility.yul\":13726:13732   */\n      dup3\n        /* \"#utility.yul\":13721:13724   */\n      dup3\n        /* \"#utility.yul\":13714:13733   */\n      mstore\n        /* \"#utility.yul\":13766:13770   */\n      0x20\n        /* \"#utility.yul\":13761:13764   */\n      dup3\n        /* \"#utility.yul\":13757:13771   */\n      add\n        /* \"#utility.yul\":13742:13771   */\n      swap1\n      pop\n        /* \"#utility.yul\":13608:13777   */\n      swap3\n      swap2\n      pop\n      pop\n      jump\t// out\n        /* \"#utility.yul\":13783:13953   */\n    tag_307:\n        /* \"#utility.yul\":13923:13945   */\n      0x4f6e6c79206f776e65722063616e20646f206974000000000000000000000000\n        /* \"#utility.yul\":13919:13920   */\n      0x00\n        /* \"#utility.yul\":13911:13917   */\n      dup3\n        /* \"#utility.yul\":13907:13921   */\n      add\n        /* \"#utility.yul\":13900:13946   */\n      mstore\n        /* \"#utility.yul\":13783:13953   */\n      pop\n      jump\t// out\n        /* \"#utility.yul\":13959:14325   */\n    tag_308:\n        /* \"#utility.yul\":14101:14104   */\n      0x00\n        /* \"#utility.yul\":14122:14189   */\n      tag_482\n        /* \"#utility.yul\":14186:14188   */\n      0x14\n        /* \"#utility.yul\":14181:14184   */\n      dup4\n        /* \"#utility.yul\":14122:14189   */\n      tag_306\n      jump\t// in\n    tag_482:\n        /* \"#utility.yul\":14115:14189   */\n      swap2\n      pop\n        /* \"#utility.yul\":14198:14291   */\n      tag_483\n        /* \"#utility.yul\":14287:14290   */\n      dup3\n        /* \"#utility.yul\":14198:14291   */\n      tag_307\n      jump\t// in\n    tag_483:\n        /* \"#utility.yul\":14316:14318   */\n      0x20\n        /* \"#utility.yul\":14311:14314   */\n      dup3\n        /* \"#utility.yul\":14307:14319   */\n      add\n        /* \"#utility.yul\":14300:14319   */\n      swap1\n      pop\n        /* \"#utility.yul\":13959:14325   */\n      swap2\n      swap1\n      pop\n      jump\t// out\n        /* \"#utility.yul\":14331:14750   */\n    tag_63:\n        /* \"#utility.yul\":14497:14501   */\n      0x00\n        /* \"#utility.yul\":14535:14537   */\n      0x20\n        /* \"#utility.yul\":14524:14533   */\n      dup3\n        /* \"#utility.yul\":14520:14538   */\n      add\n        /* \"#utility.yul\":14512:14538   */\n      swap1\n      pop\n        /* \"#utility.yul\":14584:14593   */\n      dup2\n        /* \"#utility.yul\":14578:14582   */\n      dup2\n        /* \"#utility.yul\":14574:14594   */\n      sub\n        /* \"#utility.yul\":14570:14571   */\n      0x00\n        /* \"#utility.yul\":14559:14568   */\n      dup4\n        /* \"#utility.yul\":14555:14572   */\n      add\n        /* \"#utility.yul\":14548:14595   */\n      mstore\n        /* \"#utility.yul\":14612:14743   */\n      tag_485\n        /* \"#utility.yul\":14738:14742   */\n      dup2\n        /* \"#utility.yul\":14612:14743   */\n      tag_308\n      jump\t// in\n    tag_485:\n        /* \"#utility.yul\":14604:14743   */\n      swap1\n      pop\n        /* \"#utility.yul\":14331:14750   */\n      swap2\n      swap1\n      pop\n      jump\t// out\n        /* \"#utility.yul\":14756:14936   */\n    tag_309:\n        /* \"#utility.yul\":14804:14881   */\n      0x4e487b7100000000000000000000000000000000000000000000000000000000\n        /* \"#utility.yul\":14801:14802   */\n      0x00\n        /* \"#utility.yul\":14794:14882   */\n      mstore\n        /* \"#utility.yul\":14901:14905   */\n      0x11\n        /* \"#utility.yul\":14898:14899   */\n      0x04\n        /* \"#utility.yul\":14891:14906   */\n      mstore\n        /* \"#utility.yul\":14925:14929   */\n      0x24\n        /* \"#utility.yul\":14922:14923   */\n      0x00\n        /* \"#utility.yul\":14915:14930   */\n      revert\n        /* \"#utility.yul\":14942:15136   */\n    tag_69:\n        /* \"#utility.yul\":14982:14986   */\n      0x00\n        /* \"#utility.yul\":15002:15022   */\n      tag_488\n        /* \"#utility.yul\":15020:15021   */\n      dup3\n        /* \"#utility.yul\":15002:15022   */\n      tag_298\n      jump\t// in\n    tag_488:\n        /* \"#utility.yul\":14997:15022   */\n      swap2\n      pop\n        /* \"#utility.yul\":15036:15056   */\n      tag_489\n        /* \"#utility.yul\":15054:15055   */\n      dup4\n        /* \"#utility.yul\":15036:15056   */\n      tag_298\n      jump\t// in\n    tag_489:\n        /* \"#utility.yul\":15031:15056   */\n      swap3\n      pop\n        /* \"#utility.yul\":15080:15081   */\n      dup3\n        /* \"#utility.yul\":15077:15078   */\n      dup3\n        /* \"#utility.yul\":15073:15082   */\n      sub\n        /* \"#utility.yul\":15065:15082   */\n      swap1\n      pop\n        /* \"#utility.yul\":15104:15105   */\n      dup2\n        /* \"#utility.yul\":15098:15102   */\n      dup2\n        /* \"#utility.yul\":15095:15106   */\n      gt\n        /* \"#utility.yul\":15092:15129   */\n      iszero\n      tag_490\n      jumpi\n        /* \"#utility.yul\":15109:15127   */\n      tag_491\n      tag_309\n      jump\t// in\n    tag_491:\n        /* \"#utility.yul\":15092:15129   */\n    tag_490:\n        /* \"#utility.yul\":14942:15136   */\n      swap3\n      swap2\n      pop\n      pop\n      jump\t// out\n        /* \"#utility.yul\":15142:15244   */\n    tag_310:\n        /* \"#utility.yul\":15184:15192   */\n      0x00\n        /* \"#utility.yul\":15231:15236   */\n      dup2\n        /* \"#utility.yul\":15228:15229   */\n      0x01\n        /* \"#utility.yul\":15224:15237   */\n      shr\n        /* \"#utility.yul\":15203:15237   */\n      swap1\n      pop\n        /* \"#utility.yul\":15142:15244   */\n      swap2\n      swap1\n      pop\n      jump\t// out\n        /* \"#utility.yul\":15250:16098   */\n    tag_311:\n        /* \"#utility.yul\":15311:15316   */\n      0x00\n        /* \"#utility.yul\":15318:15322   */\n      dup1\n        /* \"#utility.yul\":15342:15348   */\n      dup3\n        /* \"#utility.yul\":15333:15348   */\n      swap2\n      pop\n        /* \"#utility.yul\":15366:15371   */\n      dup4\n        /* \"#utility.yul\":15357:15371   */\n      swap1\n      pop\n        /* \"#utility.yul\":15380:16092   */\n    tag_494:\n        /* \"#utility.yul\":15401:15402   */\n      0x01\n        /* \"#utility.yul\":15391:15399   */\n      dup6\n        /* \"#utility.yul\":15388:15403   */\n      gt\n        /* \"#utility.yul\":15380:16092   */\n      iszero\n      tag_496\n      jumpi\n        /* \"#utility.yul\":15496:15500   */\n      dup1\n        /* \"#utility.yul\":15491:15494   */\n      dup7\n        /* \"#utility.yul\":15487:15501   */\n      div\n        /* \"#utility.yul\":15481:15485   */\n      dup2\n        /* \"#utility.yul\":15478:15502   */\n      gt\n        /* \"#utility.yul\":15475:15525   */\n      iszero\n      tag_497\n      jumpi\n        /* \"#utility.yul\":15505:15523   */\n      tag_498\n      tag_309\n      jump\t// in\n    tag_498:\n        /* \"#utility.yul\":15475:15525   */\n    tag_497:\n        /* \"#utility.yul\":15555:15556   */\n      0x01\n        /* \"#utility.yul\":15545:15553   */\n      dup6\n        /* \"#utility.yul\":15541:15557   */\n      and\n        /* \"#utility.yul\":15538:15989   */\n      iszero\n      tag_499\n      jumpi\n        /* \"#utility.yul\":15970:15974   */\n      dup1\n        /* \"#utility.yul\":15963:15968   */\n      dup3\n        /* \"#utility.yul\":15959:15975   */\n      mul\n        /* \"#utility.yul\":15950:15975   */\n      swap2\n      pop\n        /* \"#utility.yul\":15538:15989   */\n    tag_499:\n        /* \"#utility.yul\":16020:16024   */\n      dup1\n        /* \"#utility.yul\":16014:16018   */\n      dup2\n        /* \"#utility.yul\":16010:16025   */\n      mul\n        /* \"#utility.yul\":16002:16025   */\n      swap1\n      pop\n        /* \"#utility.yul\":16050:16082   */\n      tag_500\n        /* \"#utility.yul\":16073:16081   */\n      dup6\n        /* \"#utility.yul\":16050:16082   */\n      tag_310\n      jump\t// in\n    tag_500:\n        /* \"#utility.yul\":16038:16082   */\n      swap5\n      pop\n        /* \"#utility.yul\":15380:16092   */\n      jump(tag_494)\n    tag_496:\n        /* \"#utility.yul\":15250:16098   */\n      swap5\n      pop\n      swap5\n      swap3\n      pop\n      pop\n      pop\n      jump\t// out\n        /* \"#utility.yul\":16104:17177   */\n    tag_312:\n        /* \"#utility.yul\":16158:16163   */\n      0x00\n        /* \"#utility.yul\":16349:16357   */\n      dup3\n        /* \"#utility.yul\":16339:16379   */\n      tag_502\n      jumpi\n        /* \"#utility.yul\":16370:16371   */\n      0x01\n        /* \"#utility.yul\":16361:16371   */\n      swap1\n      pop\n        /* \"#utility.yul\":16372:16377   */\n      jump(tag_501)\n        /* \"#utility.yul\":16339:16379   */\n    tag_502:\n        /* \"#utility.yul\":16398:16402   */\n      dup2\n        /* \"#utility.yul\":16388:16424   */\n      tag_503\n      jumpi\n        /* \"#utility.yul\":16415:16416   */\n      0x00\n        /* \"#utility.yul\":16406:16416   */\n      swap1\n      pop\n        /* \"#utility.yul\":16417:16422   */\n      jump(tag_501)\n        /* \"#utility.yul\":16388:16424   */\n    tag_503:\n        /* \"#utility.yul\":16484:16488   */\n      dup2\n        /* \"#utility.yul\":16532:16533   */\n      0x01\n        /* \"#utility.yul\":16527:16554   */\n      dup2\n      eq\n      tag_505\n      jumpi\n        /* \"#utility.yul\":16568:16569   */\n      0x02\n        /* \"#utility.yul\":16563:16754   */\n      dup2\n      eq\n      tag_506\n      jumpi\n        /* \"#utility.yul\":16477:16754   */\n      jump(tag_504)\n        /* \"#utility.yul\":16527:16554   */\n    tag_505:\n        /* \"#utility.yul\":16545:16546   */\n      0x01\n        /* \"#utility.yul\":16536:16546   */\n      swap2\n      pop\n        /* \"#utility.yul\":16547:16552   */\n      pop\n      jump(tag_501)\n        /* \"#utility.yul\":16563:16754   */\n    tag_506:\n        /* \"#utility.yul\":16608:16611   */\n      0xff\n        /* \"#utility.yul\":16598:16606   */\n      dup5\n        /* \"#utility.yul\":16595:16612   */\n      gt\n        /* \"#utility.yul\":16592:16635   */\n      iszero\n      tag_507\n      jumpi\n        /* \"#utility.yul\":16615:16633   */\n      tag_508\n      tag_309\n      jump\t// in\n    tag_508:\n        /* \"#utility.yul\":16592:16635   */\n    tag_507:\n        /* \"#utility.yul\":16664:16672   */\n      dup4\n        /* \"#utility.yul\":16661:16662   */\n      0x02\n        /* \"#utility.yul\":16657:16673   */\n      exp\n        /* \"#utility.yul\":16648:16673   */\n      swap2\n      pop\n        /* \"#utility.yul\":16699:16702   */\n      dup5\n        /* \"#utility.yul\":16692:16697   */\n      dup3\n        /* \"#utility.yul\":16689:16703   */\n      gt\n        /* \"#utility.yul\":16686:16726   */\n      iszero\n      tag_509\n      jumpi\n        /* \"#utility.yul\":16706:16724   */\n      tag_510\n      tag_309\n      jump\t// in\n    tag_510:\n        /* \"#utility.yul\":16686:16726   */\n    tag_509:\n        /* \"#utility.yul\":16739:16744   */\n      pop\n      jump(tag_501)\n        /* \"#utility.yul\":16477:16754   */\n    tag_504:\n      pop\n        /* \"#utility.yul\":16863:16865   */\n      0x20\n        /* \"#utility.yul\":16853:16861   */\n      dup4\n        /* \"#utility.yul\":16850:16866   */\n      lt\n        /* \"#utility.yul\":16844:16847   */\n      0x0133\n        /* \"#utility.yul\":16838:16842   */\n      dup4\n        /* \"#utility.yul\":16835:16848   */\n      lt\n        /* \"#utility.yul\":16831:16867   */\n      and\n        /* \"#utility.yul\":16813:16815   */\n      0x4e\n        /* \"#utility.yul\":16803:16811   */\n      dup5\n        /* \"#utility.yul\":16800:16816   */\n      lt\n        /* \"#utility.yul\":16795:16797   */\n      0x0b\n        /* \"#utility.yul\":16789:16793   */\n      dup5\n        /* \"#utility.yul\":16786:16798   */\n      lt\n        /* \"#utility.yul\":16782:16817   */\n      and\n        /* \"#utility.yul\":16766:16877   */\n      or\n        /* \"#utility.yul\":16763:17009   */\n      iszero\n      tag_511\n      jumpi\n        /* \"#utility.yul\":16919:16927   */\n      dup3\n        /* \"#utility.yul\":16913:16917   */\n      dup3\n        /* \"#utility.yul\":16909:16928   */\n      exp\n        /* \"#utility.yul\":16900:16928   */\n      swap1\n      pop\n        /* \"#utility.yul\":16954:16957   */\n      dup4\n        /* \"#utility.yul\":16947:16952   */\n      dup2\n        /* \"#utility.yul\":16944:16958   */\n      gt\n        /* \"#utility.yul\":16941:16981   */\n      iszero\n      tag_512\n      jumpi\n        /* \"#utility.yul\":16961:16979   */\n      tag_513\n      tag_309\n      jump\t// in\n    tag_513:\n        /* \"#utility.yul\":16941:16981   */\n    tag_512:\n        /* \"#utility.yul\":16994:16999   */\n      jump(tag_501)\n        /* \"#utility.yul\":16763:17009   */\n    tag_511:\n        /* \"#utility.yul\":17034:17076   */\n      tag_514\n        /* \"#utility.yul\":17072:17075   */\n      dup5\n        /* \"#utility.yul\":17062:17070   */\n      dup5\n        /* \"#utility.yul\":17056:17060   */\n      dup5\n        /* \"#utility.yul\":17053:17054   */\n      0x01\n        /* \"#utility.yul\":17034:17076   */\n      tag_311\n      jump\t// in\n    tag_514:\n        /* \"#utility.yul\":17019:17076   */\n      swap3\n      pop\n      swap1\n      pop\n        /* \"#utility.yul\":17108:17112   */\n      dup2\n        /* \"#utility.yul\":17103:17106   */\n      dup5\n        /* \"#utility.yul\":17099:17113   */\n      div\n        /* \"#utility.yul\":17092:17097   */\n      dup2\n        /* \"#utility.yul\":17089:17114   */\n      gt\n        /* \"#utility.yul\":17086:17137   */\n      iszero\n      tag_515\n      jumpi\n        /* \"#utility.yul\":17117:17135   */\n      tag_516\n      tag_309\n      jump\t// in\n    tag_516:\n        /* \"#utility.yul\":17086:17137   */\n    tag_515:\n        /* \"#utility.yul\":17166:17170   */\n      dup2\n        /* \"#utility.yul\":17159:17164   */\n      dup2\n        /* \"#utility.yul\":17155:17171   */\n      mul\n        /* \"#utility.yul\":17146:17171   */\n      swap1\n      pop\n        /* \"#utility.yul\":16104:17177   */\n    tag_501:\n      swap4\n      swap3\n      pop\n      pop\n      pop\n      jump\t// out\n        /* \"#utility.yul\":17183:17468   */\n    tag_71:\n        /* \"#utility.yul\":17243:17248   */\n      0x00\n        /* \"#utility.yul\":17267:17290   */\n      tag_518\n        /* \"#utility.yul\":17285:17289   */\n      dup3\n        /* \"#utility.yul\":17267:17290   */\n      tag_298\n      jump\t// in\n    tag_518:\n        /* \"#utility.yul\":17259:17290   */\n      swap2\n      pop\n        /* \"#utility.yul\":17311:17338   */\n      tag_519\n        /* \"#utility.yul\":17329:17337   */\n      dup4\n        /* \"#utility.yul\":17311:17338   */\n      tag_298\n      jump\t// in\n    tag_519:\n        /* \"#utility.yul\":17299:17338   */\n      swap3\n      pop\n        /* \"#utility.yul\":17357:17461   */\n      tag_520\n        /* \"#utility.yul\":17394:17460   */\n      0xffffffffffffffffffffffffffffffffffffffffffffffffffffffffffffffff\n        /* \"#utility.yul\":17384:17392   */\n      dup5\n        /* \"#utility.yul\":17378:17382   */\n      dup5\n        /* \"#utility.yul\":17357:17461   */\n      tag_312\n      jump\t// in\n    tag_520:\n        /* \"#utility.yul\":17348:17461   */\n      swap1\n      pop\n        /* \"#utility.yul\":17183:17468   */\n      swap3\n      swap2\n      pop\n      pop\n      jump\t// out\n        /* \"#utility.yul\":17474:17654   */\n    tag_74:\n        /* \"#utility.yul\":17522:17599   */\n      0x4e487b7100000000000000000000000000000000000000000000000000000000\n        /* \"#utility.yul\":17519:17520   */\n      0x00\n        /* \"#utility.yul\":17512:17600   */\n      mstore\n        /* \"#utility.yul\":17619:17623   */\n      0x32\n        /* \"#utility.yul\":17616:17617   */\n      0x04\n        /* \"#utility.yul\":17609:17624   */\n      mstore\n        /* \"#utility.yul\":17643:17647   */\n      0x24\n        /* \"#utility.yul\":17640:17641   */\n      0x00\n        /* \"#utility.yul\":17633:17648   */\n      revert\n        /* \"#utility.yul\":17660:18070   */\n    tag_76:\n        /* \"#utility.yul\":17700:17707   */\n      0x00\n        /* \"#utility.yul\":17723:17743   */\n      tag_523\n        /* \"#utility.yul\":17741:17742   */\n      dup3\n        /* \"#utility.yul\":17723:17743   */\n      tag_298\n      jump\t// in\n    tag_523:\n        /* \"#utility.yul\":17718:17743   */\n      swap2\n      pop\n        /* \"#utility.yul\":17757:17777   */\n      tag_524\n        /* \"#utility.yul\":17775:17776   */\n      dup4\n        /* \"#utility.yul\":17757:17777   */\n      tag_298\n      jump\t// in\n    tag_524:\n        /* \"#utility.yul\":17752:17777   */\n      swap3\n      pop\n        /* \"#utility.yul\":17812:17813   */\n      dup3\n        /* \"#utility.yul\":17809:17810   */\n      dup3\n        /* \"#utility.yul\":17805:17814   */\n      mul\n        /* \"#utility.yul\":17834:17864   */\n      tag_525\n        /* \"#utility.yul\":17852:17863   */\n      dup2\n        /* \"#utility.yul\":17834:17864   */\n      tag_298\n      jump\t// in\n    tag_525:\n        /* \"#utility.yul\":17823:17864   */\n      swap2\n      pop\n        /* \"#utility.yul\":18013:18014   */\n      dup3\n        /* \"#utility.yul\":18004:18011   */\n      dup3\n        /* \"#utility.yul\":18000:18015   */\n      div\n        /* \"#utility.yul\":17997:17998   */\n      dup5\n        /* \"#utility.yul\":17994:18016   */\n      eq\n        /* \"#utility.yul\":17974:17975   */\n      dup4\n        /* \"#utility.yul\":17967:17976   */\n      iszero\n        /* \"#utility.yul\":17947:18030   */\n      or\n        /* \"#utility.yul\":17924:18063   */\n      tag_526\n      jumpi\n        /* \"#utility.yul\":18043:18061   */\n      tag_527\n      tag_309\n      jump\t// in\n    tag_527:\n        /* \"#utility.yul\":17924:18063   */\n    tag_526:\n        /* \"#utility.yul\":17708:18070   */\n      pop\n        /* \"#utility.yul\":17660:18070   */\n      swap3\n      swap2\n      pop\n      pop\n      jump\t// out\n        /* \"#utility.yul\":18076:18194   */\n    tag_313:\n        /* \"#utility.yul\":18163:18187   */\n      tag_529\n        /* \"#utility.yul\":18181:18186   */\n      dup2\n        /* \"#utility.yul\":18163:18187   */\n      tag_285\n      jump\t// in\n    tag_529:\n        /* \"#utility.yul\":18158:18161   */\n      dup3\n        /* \"#utility.yul\":18151:18188   */\n      mstore\n        /* \"#utility.yul\":18076:18194   */\n      pop\n      pop\n      jump\t// out\n        /* \"#utility.yul\":18200:18422   */\n    tag_78:\n        /* \"#utility.yul\":18293:18297   */\n      0x00\n        /* \"#utility.yul\":18331:18333   */\n      0x20\n        /* \"#utility.yul\":18320:18329   */\n      dup3\n        /* \"#utility.yul\":18316:18334   */\n      add\n        /* \"#utility.yul\":18308:18334   */\n      swap1\n      pop\n        /* \"#utility.yul\":18344:18415   */\n      tag_531\n        /* \"#utility.yul\":18412:18413   */\n      0x00\n        /* \"#utility.yul\":18401:18410   */\n      dup4\n        /* \"#utility.yul\":18397:18414   */\n      add\n        /* \"#utility.yul\":18388:18394   */\n      dup5\n        /* \"#utility.yul\":18344:18415   */\n      tag_313\n      jump\t// in\n    tag_531:\n        /* \"#utility.yul\":18200:18422   */\n      swap3\n      swap2\n      pop\n      pop\n      jump\t// out\n        /* \"#utility.yul\":18428:18571   */\n    tag_314:\n        /* \"#utility.yul\":18485:18490   */\n      0x00\n        /* \"#utility.yul\":18516:18522   */\n      dup2\n        /* \"#utility.yul\":18510:18523   */\n      mload\n        /* \"#utility.yul\":18501:18523   */\n      swap1\n      pop\n        /* \"#utility.yul\":18532:18565   */\n      tag_533\n        /* \"#utility.yul\":18559:18564   */\n      dup2\n        /* \"#utility.yul\":18532:18565   */\n      tag_299\n      jump\t// in\n    tag_533:\n        /* \"#utility.yul\":18428:18571   */\n      swap3\n      swap2\n      pop\n      pop\n      jump\t// out\n        /* \"#utility.yul\":18577:18928   */\n    tag_82:\n        /* \"#utility.yul\":18647:18653   */\n      0x00\n        /* \"#utility.yul\":18696:18698   */\n      0x20\n        /* \"#utility.yul\":18684:18693   */\n      dup3\n        /* \"#utility.yul\":18675:18682   */\n      dup5\n        /* \"#utility.yul\":18671:18694   */\n      sub\n        /* \"#utility.yul\":18667:18699   */\n      slt\n        /* \"#utility.yul\":18664:18783   */\n      iszero\n      tag_535\n      jumpi\n        /* \"#utility.yul\":18702:18781   */\n      tag_536\n      tag_282\n      jump\t// in\n    tag_536:\n        /* \"#utility.yul\":18664:18783   */\n    tag_535:\n        /* \"#utility.yul\":18822:18823   */\n      0x00\n        /* \"#utility.yul\":18847:18911   */\n      tag_537\n        /* \"#utility.yul\":18903:18910   */\n      dup5\n        /* \"#utility.yul\":18894:18900   */\n      dup3\n        /* \"#utility.yul\":18883:18892   */\n      dup6\n        /* \"#utility.yul\":18879:18901   */\n      add\n        /* \"#utility.yul\":18847:18911   */\n      tag_314\n      jump\t// in\n    tag_537:\n        /* \"#utility.yul\":18837:18911   */\n      swap2\n      pop\n        /* \"#utility.yul\":18793:18921   */\n      pop\n        /* \"#utility.yul\":18577:18928   */\n      swap3\n      swap2\n      pop\n      pop\n      jump\t// out\n        /* \"#utility.yul\":18934:19167   */\n    tag_89:\n        /* \"#utility.yul\":18973:18976   */\n      0x00\n        /* \"#utility.yul\":18996:19020   */\n      tag_539\n        /* \"#utility.yul\":19014:19019   */\n      dup3\n        /* \"#utility.yul\":18996:19020   */\n      tag_298\n      jump\t// in\n    tag_539:\n        /* \"#utility.yul\":18987:19020   */\n      swap2\n      pop\n        /* \"#utility.yul\":19042:19108   */\n      0xffffffffffffffffffffffffffffffffffffffffffffffffffffffffffffffff\n        /* \"#utility.yul\":19035:19040   */\n      dup3\n        /* \"#utility.yul\":19032:19109   */\n      sub\n        /* \"#utility.yul\":19029:19132   */\n      tag_540\n      jumpi\n        /* \"#utility.yul\":19112:19130   */\n      tag_541\n      tag_309\n      jump\t// in\n    tag_541:\n        /* \"#utility.yul\":19029:19132   */\n    tag_540:\n        /* \"#utility.yul\":19159:19160   */\n      0x01\n        /* \"#utility.yul\":19152:19157   */\n      dup3\n        /* \"#utility.yul\":19148:19161   */\n      add\n        /* \"#utility.yul\":19141:19161   */\n      swap1\n      pop\n        /* \"#utility.yul\":18934:19167   */\n      swap2\n      swap1\n      pop\n      jump\t// out\n        /* \"#utility.yul\":19173:19343   */\n    tag_315:\n        /* \"#utility.yul\":19313:19335   */\n      0x4f6e6c792061646d696e2063616e20646f206974000000000000000000000000\n        /* \"#utility.yul\":19309:19310   */\n      0x00\n        /* \"#utility.yul\":19301:19307   */\n      dup3\n        /* \"#utility.yul\":19297:19311   */\n      add\n        /* \"#utility.yul\":19290:19336   */\n      mstore\n        /* \"#utility.yul\":19173:19343   */\n      pop\n      jump\t// out\n        /* \"#utility.yul\":19349:19715   */\n    tag_316:\n        /* \"#utility.yul\":19491:19494   */\n      0x00\n        /* \"#utility.yul\":19512:19579   */\n      tag_544\n        /* \"#utility.yul\":19576:19578   */\n      0x14\n        /* \"#utility.yul\":19571:19574   */\n      dup4\n        /* \"#utility.yul\":19512:19579   */\n      tag_306\n      jump\t// in\n    tag_544:\n        /* \"#utility.yul\":19505:19579   */\n      swap2\n      pop\n        /* \"#utility.yul\":19588:19681   */\n      tag_545\n        /* \"#utility.yul\":19677:19680   */\n      dup3\n        /* \"#utility.yul\":19588:19681   */\n      tag_315\n      jump\t// in\n    tag_545:\n        /* \"#utility.yul\":19706:19708   */\n      0x20\n        /* \"#utility.yul\":19701:19704   */\n      dup3\n        /* \"#utility.yul\":19697:19709   */\n      add\n        /* \"#utility.yul\":19690:19709   */\n      swap1\n      pop\n        /* \"#utility.yul\":19349:19715   */\n      swap2\n      swap1\n      pop\n      jump\t// out\n        /* \"#utility.yul\":19721:20140   */\n    tag_93:\n        /* \"#utility.yul\":19887:19891   */\n      0x00\n        /* \"#utility.yul\":19925:19927   */\n      0x20\n        /* \"#utility.yul\":19914:19923   */\n      dup3\n        /* \"#utility.yul\":19910:19928   */\n      add\n        /* \"#utility.yul\":19902:19928   */\n      swap1\n      pop\n        /* \"#utility.yul\":19974:19983   */\n      dup2\n        /* \"#utility.yul\":19968:19972   */\n      dup2\n        /* \"#utility.yul\":19964:19984   */\n      sub\n        /* \"#utility.yul\":19960:19961   */\n      0x00\n        /* \"#utility.yul\":19949:19958   */\n      dup4\n        /* \"#utility.yul\":19945:19962   */\n      add\n        /* \"#utility.yul\":19938:19985   */\n      mstore\n        /* \"#utility.yul\":20002:20133   */\n      tag_547\n        /* \"#utility.yul\":20128:20132   */\n      dup2\n        /* \"#utility.yul\":20002:20133   */\n      tag_316\n      jump\t// in\n    tag_547:\n        /* \"#utility.yul\":19994:20133   */\n      swap1\n      pop\n        /* \"#utility.yul\":19721:20140   */\n      swap2\n      swap1\n      pop\n      jump\t// out\n        /* \"#utility.yul\":20146:20325   */\n    tag_317:\n        /* \"#utility.yul\":20286:20317   */\n      0x446563696d616c73206d757374206265206c657373207468616e203138000000\n        /* \"#utility.yul\":20282:20283   */\n      0x00\n        /* \"#utility.yul\":20274:20280   */\n      dup3\n        /* \"#utility.yul\":20270:20284   */\n      add\n        /* \"#utility.yul\":20263:20318   */\n      mstore\n        /* \"#utility.yul\":20146:20325   */\n      pop\n      jump\t// out\n        /* \"#utility.yul\":20331:20697   */\n    tag_318:\n        /* \"#utility.yul\":20473:20476   */\n      0x00\n        /* \"#utility.yul\":20494:20561   */\n      tag_550\n        /* \"#utility.yul\":20558:20560   */\n      0x1d\n        /* \"#utility.yul\":20553:20556   */\n      dup4\n        /* \"#utility.yul\":20494:20561   */\n      tag_306\n      jump\t// in\n    tag_550:\n        /* \"#utility.yul\":20487:20561   */\n      swap2\n      pop\n        /* \"#utility.yul\":20570:20663   */\n      tag_551\n        /* \"#utility.yul\":20659:20662   */\n      dup3\n        /* \"#utility.yul\":20570:20663   */\n      tag_317\n      jump\t// in\n    tag_551:\n        /* \"#utility.yul\":20688:20690   */\n      0x20\n        /* \"#utility.yul\":20683:20686   */\n      dup3\n        /* \"#utility.yul\":20679:20691   */\n      add\n        /* \"#utility.yul\":20672:20691   */\n      swap1\n      pop\n        /* \"#utility.yul\":20331:20697   */\n      swap2\n      swap1\n      pop\n      jump\t// out\n        /* \"#utility.yul\":20703:21122   */\n    tag_97:\n        /* \"#utility.yul\":20869:20873   */\n      0x00\n        /* \"#utility.yul\":20907:20909   */\n      0x20\n        /* \"#utility.yul\":20896:20905   */\n      dup3\n        /* \"#utility.yul\":20892:20910   */\n      add\n        /* \"#utility.yul\":20884:20910   */\n      swap1\n      pop\n        /* \"#utility.yul\":20956:20965   */\n      dup2\n        /* \"#utility.yul\":20950:20954   */\n      dup2\n        /* \"#utility.yul\":20946:20966   */\n      sub\n        /* \"#utility.yul\":20942:20943   */\n      0x00\n        /* \"#utility.yul\":20931:20940   */\n      dup4\n        /* \"#utility.yul\":20927:20944   */\n      add\n        /* \"#utility.yul\":20920:20967   */\n      mstore\n        /* \"#utility.yul\":20984:21115   */\n      tag_553\n        /* \"#utility.yul\":21110:21114   */\n      dup2\n        /* \"#utility.yul\":20984:21115   */\n      tag_318\n      jump\t// in\n    tag_553:\n        /* \"#utility.yul\":20976:21115   */\n      swap1\n      pop\n        /* \"#utility.yul\":20703:21122   */\n      swap2\n      swap1\n      pop\n      jump\t// out\n        /* \"#utility.yul\":21128:21246   */\n    tag_319:\n        /* \"#utility.yul\":21215:21239   */\n      tag_555\n        /* \"#utility.yul\":21233:21238   */\n      dup2\n        /* \"#utility.yul\":21215:21239   */\n      tag_298\n      jump\t// in\n    tag_555:\n        /* \"#utility.yul\":21210:21213   */\n      dup3\n        /* \"#utility.yul\":21203:21240   */\n      mstore\n        /* \"#utility.yul\":21128:21246   */\n      pop\n      pop\n      jump\t// out\n        /* \"#utility.yul\":21252:21474   */\n    tag_114:\n        /* \"#utility.yul\":21345:21349   */\n      0x00\n        /* \"#utility.yul\":21383:21385   */\n      0x20\n        /* \"#utility.yul\":21372:21381   */\n      dup3\n        /* \"#utility.yul\":21368:21386   */\n      add\n        /* \"#utility.yul\":21360:21386   */\n      swap1\n      pop\n        /* \"#utility.yul\":21396:21467   */\n      tag_557\n        /* \"#utility.yul\":21464:21465   */\n      0x00\n        /* \"#utility.yul\":21453:21462   */\n      dup4\n        /* \"#utility.yul\":21449:21466   */\n      add\n        /* \"#utility.yul\":21440:21446   */\n      dup5\n        /* \"#utility.yul\":21396:21467   */\n      tag_319\n      jump\t// in\n    tag_557:\n        /* \"#utility.yul\":21252:21474   */\n      swap3\n      swap2\n      pop\n      pop\n      jump\t// out\n        /* \"#utility.yul\":21480:21812   */\n    tag_243:\n        /* \"#utility.yul\":21601:21605   */\n      0x00\n        /* \"#utility.yul\":21639:21641   */\n      0x40\n        /* \"#utility.yul\":21628:21637   */\n      dup3\n        /* \"#utility.yul\":21624:21642   */\n      add\n        /* \"#utility.yul\":21616:21642   */\n      swap1\n      pop\n        /* \"#utility.yul\":21652:21723   */\n      tag_559\n        /* \"#utility.yul\":21720:21721   */\n      0x00\n        /* \"#utility.yul\":21709:21718   */\n      dup4\n        /* \"#utility.yul\":21705:21722   */\n      add\n        /* \"#utility.yul\":21696:21702   */\n      dup6\n        /* \"#utility.yul\":21652:21723   */\n      tag_313\n      jump\t// in\n    tag_559:\n        /* \"#utility.yul\":21733:21805   */\n      tag_560\n        /* \"#utility.yul\":21801:21803   */\n      0x20\n        /* \"#utility.yul\":21790:21799   */\n      dup4\n        /* \"#utility.yul\":21786:21804   */\n      add\n        /* \"#utility.yul\":21777:21783   */\n      dup5\n        /* \"#utility.yul\":21733:21805   */\n      tag_319\n      jump\t// in\n    tag_560:\n        /* \"#utility.yul\":21480:21812   */\n      swap4\n      swap3\n      pop\n      pop\n      pop\n      jump\t// out\n        /* \"#utility.yul\":21818:21955   */\n    tag_320:\n        /* \"#utility.yul\":21872:21877   */\n      0x00\n        /* \"#utility.yul\":21903:21909   */\n      dup2\n        /* \"#utility.yul\":21897:21910   */\n      mload\n        /* \"#utility.yul\":21888:21910   */\n      swap1\n      pop\n        /* \"#utility.yul\":21919:21949   */\n      tag_562\n        /* \"#utility.yul\":21943:21948   */\n      dup2\n        /* \"#utility.yul\":21919:21949   */\n      tag_304\n      jump\t// in\n    tag_562:\n        /* \"#utility.yul\":21818:21955   */\n      swap3\n      swap2\n      pop\n      pop\n      jump\t// out\n        /* \"#utility.yul\":21961:22306   */\n    tag_250:\n        /* \"#utility.yul\":22028:22034   */\n      0x00\n        /* \"#utility.yul\":22077:22079   */\n      0x20\n        /* \"#utility.yul\":22065:22074   */\n      dup3\n        /* \"#utility.yul\":22056:22063   */\n      dup5\n        /* \"#utility.yul\":22052:22075   */\n      sub\n        /* \"#utility.yul\":22048:22080   */\n      slt\n        /* \"#utility.yul\":22045:22164   */\n      iszero\n      tag_564\n      jumpi\n        /* \"#utility.yul\":22083:22162   */\n      tag_565\n      tag_282\n      jump\t// in\n    tag_565:\n        /* \"#utility.yul\":22045:22164   */\n    tag_564:\n        /* \"#utility.yul\":22203:22204   */\n      0x00\n        /* \"#utility.yul\":22228:22289   */\n      tag_566\n        /* \"#utility.yul\":22281:22288   */\n      dup5\n        /* \"#utility.yul\":22272:22278   */\n      dup3\n        /* \"#utility.yul\":22261:22270   */\n      dup6\n        /* \"#utility.yul\":22257:22279   */\n      add\n        /* \"#utility.yul\":22228:22289   */\n      tag_320\n      jump\t// in\n    tag_566:\n        /* \"#utility.yul\":22218:22289   */\n      swap2\n      pop\n        /* \"#utility.yul\":22174:22299   */\n      pop\n        /* \"#utility.yul\":21961:22306   */\n      swap3\n      swap2\n      pop\n      pop\n      jump\t// out\n        /* \"#utility.yul\":22312:22541   */\n    tag_321:\n        /* \"#utility.yul\":22452:22486   */\n      0x5361666545524332303a204552433230206f7065726174696f6e20646964206e\n        /* \"#utility.yul\":22448:22449   */\n      0x00\n        /* \"#utility.yul\":22440:22446   */\n      dup3\n        /* \"#utility.yul\":22436:22450   */\n      add\n        /* \"#utility.yul\":22429:22487   */\n      mstore\n        /* \"#utility.yul\":22521:22533   */\n      0x6f74207375636365656400000000000000000000000000000000000000000000\n        /* \"#utility.yul\":22516:22518   */\n      0x20\n        /* \"#utility.yul\":22508:22514   */\n      dup3\n        /* \"#utility.yul\":22504:22519   */\n      add\n        /* \"#utility.yul\":22497:22534   */\n      mstore\n        /* \"#utility.yul\":22312:22541   */\n      pop\n      jump\t// out\n        /* \"#utility.yul\":22547:22913   */\n    tag_322:\n        /* \"#utility.yul\":22689:22692   */\n      0x00\n        /* \"#utility.yul\":22710:22777   */\n      tag_569\n        /* \"#utility.yul\":22774:22776   */\n      0x2a\n        /* \"#utility.yul\":22769:22772   */\n      dup4\n        /* \"#utility.yul\":22710:22777   */\n      tag_306\n      jump\t// in\n    tag_569:\n        /* \"#utility.yul\":22703:22777   */\n      swap2\n      pop\n        /* \"#utility.yul\":22786:22879   */\n      tag_570\n        /* \"#utility.yul\":22875:22878   */\n      dup3\n        /* \"#utility.yul\":22786:22879   */\n      tag_321\n      jump\t// in\n    tag_570:\n        /* \"#utility.yul\":22904:22906   */\n      0x40\n        /* \"#utility.yul\":22899:22902   */\n      dup3\n        /* \"#utility.yul\":22895:22907   */\n      add\n        /* \"#utility.yul\":22888:22907   */\n      swap1\n      pop\n        /* \"#utility.yul\":22547:22913   */\n      swap2\n      swap1\n      pop\n      jump\t// out\n        /* \"#utility.yul\":22919:23338   */\n    tag_253:\n        /* \"#utility.yul\":23085:23089   */\n      0x00\n        /* \"#utility.yul\":23123:23125   */\n      0x20\n        /* \"#utility.yul\":23112:23121   */\n      dup3\n        /* \"#utility.yul\":23108:23126   */\n      add\n        /* \"#utility.yul\":23100:23126   */\n      swap1\n      pop\n        /* \"#utility.yul\":23172:23181   */\n      dup2\n        /* \"#utility.yul\":23166:23170   */\n      dup2\n        /* \"#utility.yul\":23162:23182   */\n      sub\n        /* \"#utility.yul\":23158:23159   */\n      0x00\n        /* \"#utility.yul\":23147:23156   */\n      dup4\n        /* \"#utility.yul\":23143:23160   */\n      add\n        /* \"#utility.yul\":23136:23183   */\n      mstore\n        /* \"#utility.yul\":23200:23331   */\n      tag_572\n        /* \"#utility.yul\":23326:23330   */\n      dup2\n        /* \"#utility.yul\":23200:23331   */\n      tag_322\n      jump\t// in\n    tag_572:\n        /* \"#utility.yul\":23192:23331   */\n      swap1\n      pop\n        /* \"#utility.yul\":22919:23338   */\n      swap2\n      swap1\n      pop\n      jump\t// out\n        /* \"#utility.yul\":23344:23569   */\n    tag_323:\n        /* \"#utility.yul\":23484:23518   */\n      0x416464726573733a20696e73756666696369656e742062616c616e636520666f\n        /* \"#utility.yul\":23480:23481   */\n      0x00\n        /* \"#utility.yul\":23472:23478   */\n      dup3\n        /* \"#utility.yul\":23468:23482   */\n      add\n        /* \"#utility.yul\":23461:23519   */\n      mstore\n        /* \"#utility.yul\":23553:23561   */\n      0x722063616c6c0000000000000000000000000000000000000000000000000000\n        /* \"#utility.yul\":23548:23550   */\n      0x20\n        /* \"#utility.yul\":23540:23546   */\n      dup3\n        /* \"#utility.yul\":23536:23551   */\n      add\n        /* \"#utility.yul\":23529:23562   */\n      mstore\n        /* \"#utility.yul\":23344:23569   */\n      pop\n      jump\t// out\n        /* \"#utility.yul\":23575:23941   */\n    tag_324:\n        /* \"#utility.yul\":23717:23720   */\n      0x00\n        /* \"#utility.yul\":23738:23805   */\n      tag_575\n        /* \"#utility.yul\":23802:23804   */\n      0x26\n        /* \"#utility.yul\":23797:23800   */\n      dup4\n        /* \"#utility.yul\":23738:23805   */\n      tag_306\n      jump\t// in\n    tag_575:\n        /* \"#utility.yul\":23731:23805   */\n      swap2\n      pop\n        /* \"#utility.yul\":23814:23907   */\n      tag_576\n        /* \"#utility.yul\":23903:23906   */\n      dup3\n        /* \"#utility.yul\":23814:23907   */\n      tag_323\n      jump\t// in\n    tag_576:\n        /* \"#utility.yul\":23932:23934   */\n      0x40\n        /* \"#utility.yul\":23927:23930   */\n      dup3\n        /* \"#utility.yul\":23923:23935   */\n      add\n        /* \"#utility.yul\":23916:23935   */\n      swap1\n      pop\n        /* \"#utility.yul\":23575:23941   */\n      swap2\n      swap1\n      pop\n      jump\t// out\n        /* \"#utility.yul\":23947:24366   */\n    tag_260:\n        /* \"#utility.yul\":24113:24117   */\n      0x00\n        /* \"#utility.yul\":24151:24153   */\n      0x20\n        /* \"#utility.yul\":24140:24149   */\n      dup3\n        /* \"#utility.yul\":24136:24154   */\n      add\n        /* \"#utility.yul\":24128:24154   */\n      swap1\n      pop\n        /* \"#utility.yul\":24200:24209   */\n      dup2\n        /* \"#utility.yul\":24194:24198   */\n      dup2\n        /* \"#utility.yul\":24190:24210   */\n      sub\n        /* \"#utility.yul\":24186:24187   */\n      0x00\n        /* \"#utility.yul\":24175:24184   */\n      dup4\n        /* \"#utility.yul\":24171:24188   */\n      add\n        /* \"#utility.yul\":24164:24211   */\n      mstore\n        /* \"#utility.yul\":24228:24359   */\n      tag_578\n        /* \"#utility.yul\":24354:24358   */\n      dup2\n        /* \"#utility.yul\":24228:24359   */\n      tag_324\n      jump\t// in\n    tag_578:\n        /* \"#utility.yul\":24220:24359   */\n      swap1\n      pop\n        /* \"#utility.yul\":23947:24366   */\n      swap2\n      swap1\n      pop\n      jump\t// out\n        /* \"#utility.yul\":24372:24551   */\n    tag_325:\n        /* \"#utility.yul\":24512:24543   */\n      0x416464726573733a2063616c6c20746f206e6f6e2d636f6e7472616374000000\n        /* \"#utility.yul\":24508:24509   */\n      0x00\n        /* \"#utility.yul\":24500:24506   */\n      dup3\n        /* \"#utility.yul\":24496:24510   */\n      add\n        /* \"#utility.yul\":24489:24544   */\n      mstore\n        /* \"#utility.yul\":24372:24551   */\n      pop\n      jump\t// out\n        /* \"#utility.yul\":24557:24923   */\n    tag_326:\n        /* \"#utility.yul\":24699:24702   */\n      0x00\n        /* \"#utility.yul\":24720:24787   */\n      tag_581\n        /* \"#utility.yul\":24784:24786   */\n      0x1d\n        /* \"#utility.yul\":24779:24782   */\n      dup4\n        /* \"#utility.yul\":24720:24787   */\n      tag_306\n      jump\t// in\n    tag_581:\n        /* \"#utility.yul\":24713:24787   */\n      swap2\n      pop\n        /* \"#utility.yul\":24796:24889   */\n      tag_582\n        /* \"#utility.yul\":24885:24888   */\n      dup3\n        /* \"#utility.yul\":24796:24889   */\n      tag_325\n      jump\t// in\n    tag_582:\n        /* \"#utility.yul\":24914:24916   */\n      0x20\n        /* \"#utility.yul\":24909:24912   */\n      dup3\n        /* \"#utility.yul\":24905:24917   */\n      add\n        /* \"#utility.yul\":24898:24917   */\n      swap1\n      pop\n        /* \"#utility.yul\":24557:24923   */\n      swap2\n      swap1\n      pop\n      jump\t// out\n        /* \"#utility.yul\":24929:25348   */\n    tag_265:\n        /* \"#utility.yul\":25095:25099   */\n      0x00\n        /* \"#utility.yul\":25133:25135   */\n      0x20\n        /* \"#utility.yul\":25122:25131   */\n      dup3\n        /* \"#utility.yul\":25118:25136   */\n      add\n        /* \"#utility.yul\":25110:25136   */\n      swap1\n      pop\n        /* \"#utility.yul\":25182:25191   */\n      dup2\n        /* \"#utility.yul\":25176:25180   */\n      dup2\n        /* \"#utility.yul\":25172:25192   */\n      sub\n        /* \"#utility.yul\":25168:25169   */\n      0x00\n        /* \"#utility.yul\":25157:25166   */\n      dup4\n        /* \"#utility.yul\":25153:25170   */\n      add\n        /* \"#utility.yul\":25146:25193   */\n      mstore\n        /* \"#utility.yul\":25210:25341   */\n      tag_584\n        /* \"#utility.yul\":25336:25340   */\n      dup2\n        /* \"#utility.yul\":25210:25341   */\n      tag_326\n      jump\t// in\n    tag_584:\n        /* \"#utility.yul\":25202:25341   */\n      swap1\n      pop\n        /* \"#utility.yul\":24929:25348   */\n      swap2\n      swap1\n      pop\n      jump\t// out\n        /* \"#utility.yul\":25354:25452   */\n    tag_327:\n        /* \"#utility.yul\":25405:25411   */\n      0x00\n        /* \"#utility.yul\":25439:25444   */\n      dup2\n        /* \"#utility.yul\":25433:25445   */\n      mload\n        /* \"#utility.yul\":25423:25445   */\n      swap1\n      pop\n        /* \"#utility.yul\":25354:25452   */\n      swap2\n      swap1\n      pop\n      jump\t// out\n        /* \"#utility.yul\":25458:25605   */\n    tag_328:\n        /* \"#utility.yul\":25559:25570   */\n      0x00\n        /* \"#utility.yul\":25596:25599   */\n      dup2\n        /* \"#utility.yul\":25581:25599   */\n      swap1\n      pop\n        /* \"#utility.yul\":25458:25605   */\n      swap3\n      swap2\n      pop\n      pop\n      jump\t// out\n        /* \"#utility.yul\":25611:25857   */\n    tag_329:\n        /* \"#utility.yul\":25692:25693   */\n      0x00\n        /* \"#utility.yul\":25702:25815   */\n    tag_588:\n        /* \"#utility.yul\":25716:25722   */\n      dup4\n        /* \"#utility.yul\":25713:25714   */\n      dup2\n        /* \"#utility.yul\":25710:25723   */\n      lt\n        /* \"#utility.yul\":25702:25815   */\n      iszero\n      tag_590\n      jumpi\n        /* \"#utility.yul\":25801:25802   */\n      dup1\n        /* \"#utility.yul\":25796:25799   */\n      dup3\n        /* \"#utility.yul\":25792:25803   */\n      add\n        /* \"#utility.yul\":25786:25804   */\n      mload\n        /* \"#utility.yul\":25782:25783   */\n      dup2\n        /* \"#utility.yul\":25777:25780   */\n      dup5\n        /* \"#utility.yul\":25773:25784   */\n      add\n        /* \"#utility.yul\":25766:25805   */\n      mstore\n        /* \"#utility.yul\":25738:25740   */\n      0x20\n        /* \"#utility.yul\":25735:25736   */\n      dup2\n        /* \"#utility.yul\":25731:25741   */\n      add\n        /* \"#utility.yul\":25726:25741   */\n      swap1\n      pop\n        /* \"#utility.yul\":25702:25815   */\n      jump(tag_588)\n    tag_590:\n        /* \"#utility.yul\":25849:25850   */\n      0x00\n        /* \"#utility.yul\":25840:25846   */\n      dup5\n        /* \"#utility.yul\":25835:25838   */\n      dup5\n        /* \"#utility.yul\":25831:25847   */\n      add\n        /* \"#utility.yul\":25824:25851   */\n      mstore\n        /* \"#utility.yul\":25673:25857   */\n      pop\n        /* \"#utility.yul\":25611:25857   */\n      pop\n      pop\n      pop\n      jump\t// out\n        /* \"#utility.yul\":25863:26249   */\n    tag_330:\n        /* \"#utility.yul\":25967:25970   */\n      0x00\n        /* \"#utility.yul\":25995:26033   */\n      tag_592\n        /* \"#utility.yul\":26027:26032   */\n      dup3\n        /* \"#utility.yul\":25995:26033   */\n      tag_327\n      jump\t// in\n    tag_592:\n        /* \"#utility.yul\":26049:26137   */\n      tag_593\n        /* \"#utility.yul\":26130:26136   */\n      dup2\n        /* \"#utility.yul\":26125:26128   */\n      dup6\n        /* \"#utility.yul\":26049:26137   */\n      tag_328\n      jump\t// in\n    tag_593:\n        /* \"#utility.yul\":26042:26137   */\n      swap4\n      pop\n        /* \"#utility.yul\":26146:26211   */\n      tag_594\n        /* \"#utility.yul\":26204:26210   */\n      dup2\n        /* \"#utility.yul\":26199:26202   */\n      dup6\n        /* \"#utility.yul\":26192:26196   */\n      0x20\n        /* \"#utility.yul\":26185:26190   */\n      dup7\n        /* \"#utility.yul\":26181:26197   */\n      add\n        /* \"#utility.yul\":26146:26211   */\n      tag_329\n      jump\t// in\n    tag_594:\n        /* \"#utility.yul\":26236:26242   */\n      dup1\n        /* \"#utility.yul\":26231:26234   */\n      dup5\n        /* \"#utility.yul\":26227:26243   */\n      add\n        /* \"#utility.yul\":26220:26243   */\n      swap2\n      pop\n        /* \"#utility.yul\":25971:26249   */\n      pop\n        /* \"#utility.yul\":25863:26249   */\n      swap3\n      swap2\n      pop\n      pop\n      jump\t// out\n        /* \"#utility.yul\":26255:26526   */\n    tag_267:\n        /* \"#utility.yul\":26385:26388   */\n      0x00\n        /* \"#utility.yul\":26407:26500   */\n      tag_596\n        /* \"#utility.yul\":26496:26499   */\n      dup3\n        /* \"#utility.yul\":26487:26493   */\n      dup5\n        /* \"#utility.yul\":26407:26500   */\n      tag_330\n      jump\t// in\n    tag_596:\n        /* \"#utility.yul\":26400:26500   */\n      swap2\n      pop\n        /* \"#utility.yul\":26517:26520   */\n      dup2\n        /* \"#utility.yul\":26510:26520   */\n      swap1\n      pop\n        /* \"#utility.yul\":26255:26526   */\n      swap3\n      swap2\n      pop\n      pop\n      jump\t// out\n        /* \"#utility.yul\":26532:26631   */\n    tag_331:\n        /* \"#utility.yul\":26584:26590   */\n      0x00\n        /* \"#utility.yul\":26618:26623   */\n      dup2\n        /* \"#utility.yul\":26612:26624   */\n      mload\n        /* \"#utility.yul\":26602:26624   */\n      swap1\n      pop\n        /* \"#utility.yul\":26532:26631   */\n      swap2\n      swap1\n      pop\n      jump\t// out\n        /* \"#utility.yul\":26637:27014   */\n    tag_332:\n        /* \"#utility.yul\":26725:26728   */\n      0x00\n        /* \"#utility.yul\":26753:26792   */\n      tag_599\n        /* \"#utility.yul\":26786:26791   */\n      dup3\n        /* \"#utility.yul\":26753:26792   */\n      tag_331\n      jump\t// in\n    tag_599:\n        /* \"#utility.yul\":26808:26879   */\n      tag_600\n        /* \"#utility.yul\":26872:26878   */\n      dup2\n        /* \"#utility.yul\":26867:26870   */\n      dup6\n        /* \"#utility.yul\":26808:26879   */\n      tag_306\n      jump\t// in\n    tag_600:\n        /* \"#utility.yul\":26801:26879   */\n      swap4\n      pop\n        /* \"#utility.yul\":26888:26953   */\n      tag_601\n        /* \"#utility.yul\":26946:26952   */\n      dup2\n        /* \"#utility.yul\":26941:26944   */\n      dup6\n        /* \"#utility.yul\":26934:26938   */\n      0x20\n        /* \"#utility.yul\":26927:26932   */\n      dup7\n        /* \"#utility.yul\":26923:26939   */\n      add\n        /* \"#utility.yul\":26888:26953   */\n      tag_329\n      jump\t// in\n    tag_601:\n        /* \"#utility.yul\":26978:27007   */\n      tag_602\n        /* \"#utility.yul\":27000:27006   */\n      dup2\n        /* \"#utility.yul\":26978:27007   */\n      tag_289\n      jump\t// in\n    tag_602:\n        /* \"#utility.yul\":26973:26976   */\n      dup5\n        /* \"#utility.yul\":26969:27008   */\n      add\n        /* \"#utility.yul\":26962:27008   */\n      swap2\n      pop\n        /* \"#utility.yul\":26729:27014   */\n      pop\n        /* \"#utility.yul\":26637:27014   */\n      swap3\n      swap2\n      pop\n      pop\n      jump\t// out\n        /* \"#utility.yul\":27020:27333   */\n    tag_280:\n        /* \"#utility.yul\":27133:27137   */\n      0x00\n        /* \"#utility.yul\":27171:27173   */\n      0x20\n        /* \"#utility.yul\":27160:27169   */\n      dup3\n        /* \"#utility.yul\":27156:27174   */\n      add\n        /* \"#utility.yul\":27148:27174   */\n      swap1\n      pop\n        /* \"#utility.yul\":27220:27229   */\n      dup2\n        /* \"#utility.yul\":27214:27218   */\n      dup2\n        /* \"#utility.yul\":27210:27230   */\n      sub\n        /* \"#utility.yul\":27206:27207   */\n      0x00\n        /* \"#utility.yul\":27195:27204   */\n      dup4\n        /* \"#utility.yul\":27191:27208   */\n      add\n        /* \"#utility.yul\":27184:27231   */\n      mstore\n        /* \"#utility.yul\":27248:27326   */\n      tag_604\n        /* \"#utility.yul\":27321:27325   */\n      dup2\n        /* \"#utility.yul\":27312:27318   */\n      dup5\n        /* \"#utility.yul\":27248:27326   */\n      tag_332\n      jump\t// in\n    tag_604:\n        /* \"#utility.yul\":27240:27326   */\n      swap1\n      pop\n        /* \"#utility.yul\":27020:27333   */\n      swap3\n      swap2\n      pop\n      pop\n      jump\t// out\n\n    auxdata: 0xa26469706673582212207e705fa836497b2c53a0271aa98b30284f72726f3e8af9b52243d7e07268c15464736f6c63430008110033\n}\n",
				"bytecode": {
					"linkReferences": {},
					"object": "608060405234801561001057600080fd5b50336000806101000a81548173ffffffffffffffffffffffffffffffffffffffff021916908373ffffffffffffffffffffffffffffffffffffffff16021790555060018060003373ffffffffffffffffffffffffffffffffffffffff1673ffffffffffffffffffffffffffffffffffffffff16815260200190815260200160002060006101000a81548160ff0219169083151502179055506123b9806100b76000396000f3fe60806040526004361061008a5760003560e01c8063676d0b7911610059578063676d0b791461013a57806384e7686b146101635780638ff6d1d81461018c578063ea778da7146101b5578063ee09d588146101de57610091565b80630af101311461009657806323a04ae1146100bf57806336df0db0146100e85780633d14a9221461011157610091565b3661009157005b600080fd5b3480156100a257600080fd5b506100bd60048036038101906100b89190611797565b610207565b005b3480156100cb57600080fd5b506100e660048036038101906100e19190611836565b6103c9565b005b3480156100f457600080fd5b5061010f600480360381019061010a91906118c1565b6105ee565b005b34801561011d57600080fd5b506101386004803603810190610133919061194c565b61079d565b005b34801561014657600080fd5b50610161600480360381019061015c91906119cf565b610987565b005b34801561016f57600080fd5b5061018a60048036038101906101859190611a63565b610b3d565b005b34801561019857600080fd5b506101b360048036038101906101ae9190611abf565b610c60565b005b3480156101c157600080fd5b506101dc60048036038101906101d79190611b37565b610e30565b005b3480156101ea57600080fd5b5061020560048036038101906102009190611ba6565b61103b565b005b60008054906101000a900473ffffffffffffffffffffffffffffffffffffffff1673ffffffffffffffffffffffffffffffffffffffff163373ffffffffffffffffffffffffffffffffffffffff1614610295576040517f08c379a000000000000000000000000000000000000000000000000000000000815260040161028c90611c72565b60405180910390fd5b60005b83518110156103c25760008260126102b09190611cc1565b600a6102bc9190611e28565b8483815181106102cf576102ce611e73565b5b60200260200101516102e19190611ea2565b9050808673ffffffffffffffffffffffffffffffffffffffff166370a08231306040518263ffffffff1660e01b815260040161031d9190611ef3565b602060405180830381865afa15801561033a573d6000803e3d6000fd5b505050506040513d601f19601f8201168201806040525081019061035e9190611f23565b101561036957600080fd5b6103ae85838151811061037f5761037e611e73565b5b6020026020010151828873ffffffffffffffffffffffffffffffffffffffff166111d09092919063ffffffff16565b5080806103ba90611f50565b915050610298565b5050505050565b600160003373ffffffffffffffffffffffffffffffffffffffff1673ffffffffffffffffffffffffffffffffffffffff16815260200190815260200160002060009054906101000a900460ff16610455576040517f08c379a000000000000000000000000000000000000000000000000000000000815260040161044c90611fe4565b60405180910390fd5b6012811115610499576040517f08c379a000000000000000000000000000000000000000000000000000000000815260040161049090612050565b60405180910390fd5b60005b83518110156105e85760008260126104b49190611cc1565b600a6104c09190611e28565b8483815181106104d3576104d2611e73565b5b60200260200101516104e59190611ea2565b9050804710156104f457600080fd5b84828151811061050757610506611e73565b5b602002602001015173ffffffffffffffffffffffffffffffffffffffff166108fc829081150290604051600060405180830381858888f19350505050158015610554573d6000803e3d6000fd5b5084828151811061056857610567611e73565b5b602002602001015173ffffffffffffffffffffffffffffffffffffffff163073ffffffffffffffffffffffffffffffffffffffff167fddf252ad1be2c89b69c2b068fc378daa952ba7f163c4a11628f55a4df523b3ef836040516105cc919061207f565b60405180910390a35080806105e090611f50565b91505061049c565b50505050565b600160003373ffffffffffffffffffffffffffffffffffffffff1673ffffffffffffffffffffffffffffffffffffffff16815260200190815260200160002060009054906101000a900460ff1661067a576040517f08c379a000000000000000000000000000000000000000000000000000000000815260040161067190611fe4565b60405180910390fd5b60005b8251811015610797576000670de0b6b3a76400008383815181106106a4576106a3611e73565b5b60200260200101516106b69190611ea2565b9050808573ffffffffffffffffffffffffffffffffffffffff166370a08231306040518263ffffffff1660e01b81526004016106f29190611ef3565b602060405180830381865afa15801561070f573d6000803e3d6000fd5b505050506040513d601f19601f820116820180604052508101906107339190611f23565b101561073e57600080fd5b61078384838151811061075457610753611e73565b5b6020026020010151828773ffffffffffffffffffffffffffffffffffffffff166111d09092919063ffffffff16565b50808061078f90611f50565b91505061067d565b50505050565b600160003373ffffffffffffffffffffffffffffffffffffffff1673ffffffffffffffffffffffffffffffffffffffff16815260200190815260200160002060009054906101000a900460ff16610829576040517f08c379a000000000000000000000000000000000000000000000000000000000815260040161082090611fe4565b60405180910390fd5b601281111561086d576040517f08c379a000000000000000000000000000000000000000000000000000000000815260040161086490612050565b60405180910390fd5b600081601261087c9190611cc1565b600a6108889190611e28565b836108939190611ea2565b905060005b845181101561097f57818673ffffffffffffffffffffffffffffffffffffffff166370a08231306040518263ffffffff1660e01b81526004016108db9190611ef3565b602060405180830381865afa1580156108f8573d6000803e3d6000fd5b505050506040513d601f19601f8201168201806040525081019061091c9190611f23565b101561092757600080fd5b61096c85828151811061093d5761093c611e73565b5b6020026020010151838873ffffffffffffffffffffffffffffffffffffffff166111d09092919063ffffffff16565b808061097790611f50565b915050610898565b505050505050565b600160003373ffffffffffffffffffffffffffffffffffffffff1673ffffffffffffffffffffffffffffffffffffffff16815260200190815260200160002060009054906101000a900460ff16610a13576040517f08c379a0000000000000000000000000000000000000000000000000000000008152600401610a0a90611fe4565b60405180910390fd5b6000670de0b6b3a764000082610a299190611ea2565b905060005b8351811015610b375781471015610a4457600080fd5b838181518110610a5757610a56611e73565b5b602002602001015173ffffffffffffffffffffffffffffffffffffffff166108fc839081150290604051600060405180830381858888f19350505050158015610aa4573d6000803e3d6000fd5b50838181518110610ab857610ab7611e73565b5b602002602001015173ffffffffffffffffffffffffffffffffffffffff163073ffffffffffffffffffffffffffffffffffffffff167fddf252ad1be2c89b69c2b068fc378daa952ba7f163c4a11628f55a4df523b3ef84604051610b1c919061207f565b60405180910390a38080610b2f90611f50565b915050610a2e565b50505050565b60008054906101000a900473ffffffffffffffffffffffffffffffffffffffff1673ffffffffffffffffffffffffffffffffffffffff163373ffffffffffffffffffffffffffffffffffffffff1614610bcb576040517f08c379a0000000000000000000000000000000000000000000000000000000008152600401610bc290611c72565b60405180910390fd5b60005b8251811015610c5b578160016000858481518110610bef57610bee611e73565b5b602002602001015173ffffffffffffffffffffffffffffffffffffffff1673ffffffffffffffffffffffffffffffffffffffff16815260200190815260200160002060006101000a81548160ff0219169083151502179055508080610c5390611f50565b915050610bce565b505050565b600160003373ffffffffffffffffffffffffffffffffffffffff1673ffffffffffffffffffffffffffffffffffffffff16815260200190815260200160002060009054906101000a900460ff16610cec576040517f08c379a0000000000000000000000000000000000000000000000000000000008152600401610ce390611fe4565b60405180910390fd5b60005b8251811015610e2b576000670de0b6b3a7640000838381518110610d1657610d15611e73565b5b6020026020010151610d289190611ea2565b905080471015610d3757600080fd5b838281518110610d4a57610d49611e73565b5b602002602001015173ffffffffffffffffffffffffffffffffffffffff166108fc829081150290604051600060405180830381858888f19350505050158015610d97573d6000803e3d6000fd5b50838281518110610dab57610daa611e73565b5b602002602001015173ffffffffffffffffffffffffffffffffffffffff163073ffffffffffffffffffffffffffffffffffffffff167fddf252ad1be2c89b69c2b068fc378daa952ba7f163c4a11628f55a4df523b3ef83604051610e0f919061207f565b60405180910390a3508080610e2390611f50565b915050610cef565b505050565b600160003373ffffffffffffffffffffffffffffffffffffffff1673ffffffffffffffffffffffffffffffffffffffff16815260200190815260200160002060009054906101000a900460ff16610ebc576040517f08c379a0000000000000000000000000000000000000000000000000000000008152600401610eb390611fe4565b60405180910390fd5b6012811115610f00576040517f08c379a0000000000000000000000000000000000000000000000000000000008152600401610ef790612050565b60405180910390fd5b6000816012610f0f9190611cc1565b600a610f1b9190611e28565b83610f269190611ea2565b905060005b84518110156110345781471015610f4157600080fd5b848181518110610f5457610f53611e73565b5b602002602001015173ffffffffffffffffffffffffffffffffffffffff166108fc839081150290604051600060405180830381858888f19350505050158015610fa1573d6000803e3d6000fd5b50848181518110610fb557610fb4611e73565b5b602002602001015173ffffffffffffffffffffffffffffffffffffffff163073ffffffffffffffffffffffffffffffffffffffff167fddf252ad1be2c89b69c2b068fc378daa952ba7f163c4a11628f55a4df523b3ef84604051611019919061207f565b60405180910390a3808061102c90611f50565b915050610f2b565b5050505050565b600160003373ffffffffffffffffffffffffffffffffffffffff1673ffffffffffffffffffffffffffffffffffffffff16815260200190815260200160002060009054906101000a900460ff166110c7576040517f08c379a00000000000000000000000000000000000000000000000000000000081526004016110be90611fe4565b60405180910390fd5b6000670de0b6b3a7640000826110dd9190611ea2565b905060005b83518110156111c957818573ffffffffffffffffffffffffffffffffffffffff166370a08231306040518263ffffffff1660e01b81526004016111259190611ef3565b602060405180830381865afa158015611142573d6000803e3d6000fd5b505050506040513d601f19601f820116820180604052508101906111669190611f23565b101561117157600080fd5b6111b684828151811061118757611186611e73565b5b6020026020010151838773ffffffffffffffffffffffffffffffffffffffff166111d09092919063ffffffff16565b80806111c190611f50565b9150506110e2565b5050505050565b6112518363a9059cbb60e01b84846040516024016111ef92919061209a565b604051602081830303815290604052907bffffffffffffffffffffffffffffffffffffffffffffffffffffffff19166020820180517bffffffffffffffffffffffffffffffffffffffffffffffffffffffff8381831617835250505050611256565b505050565b60006112b8826040518060400160405280602081526020017f5361666545524332303a206c6f772d6c6576656c2063616c6c206661696c65648152508573ffffffffffffffffffffffffffffffffffffffff1661131d9092919063ffffffff16565b905060008151111561131857808060200190518101906112d891906120d8565b611317576040517f08c379a000000000000000000000000000000000000000000000000000000000815260040161130e90612177565b60405180910390fd5b5b505050565b606061132c8484600085611335565b90509392505050565b60608247101561137a576040517f08c379a000000000000000000000000000000000000000000000000000000000815260040161137190612209565b60405180910390fd5b61138385611449565b6113c2576040517f08c379a00000000000000000000000000000000000000000000000000000000081526004016113b990612275565b60405180910390fd5b6000808673ffffffffffffffffffffffffffffffffffffffff1685876040516113eb9190612306565b60006040518083038185875af1925050503d8060008114611428576040519150601f19603f3d011682016040523d82523d6000602084013e61142d565b606091505b509150915061143d82828661146c565b92505050949350505050565b6000808273ffffffffffffffffffffffffffffffffffffffff163b119050919050565b6060831561147c578290506114cc565b60008351111561148f5782518084602001fd5b816040517f08c379a00000000000000000000000000000000000000000000000000000000081526004016114c39190612361565b60405180910390fd5b9392505050565b6000604051905090565b600080fd5b600080fd5b600073ffffffffffffffffffffffffffffffffffffffff82169050919050565b6000611512826114e7565b9050919050565b61152281611507565b811461152d57600080fd5b50565b60008135905061153f81611519565b92915050565b600080fd5b6000601f19601f8301169050919050565b7f4e487b7100000000000000000000000000000000000000000000000000000000600052604160045260246000fd5b6115938261154a565b810181811067ffffffffffffffff821117156115b2576115b161155b565b5b80604052505050565b60006115c56114d3565b90506115d1828261158a565b919050565b600067ffffffffffffffff8211156115f1576115f061155b565b5b602082029050602081019050919050565b600080fd5b600061161a611615846115d6565b6115bb565b9050808382526020820190506020840283018581111561163d5761163c611602565b5b835b8181101561166657806116528882611530565b84526020840193505060208101905061163f565b5050509392505050565b600082601f83011261168557611684611545565b5b8135611695848260208601611607565b91505092915050565b600067ffffffffffffffff8211156116b9576116b861155b565b5b602082029050602081019050919050565b6000819050919050565b6116dd816116ca565b81146116e857600080fd5b50565b6000813590506116fa816116d4565b92915050565b600061171361170e8461169e565b6115bb565b9050808382526020820190506020840283018581111561173657611735611602565b5b835b8181101561175f578061174b88826116eb565b845260208401935050602081019050611738565b5050509392505050565b600082601f83011261177e5761177d611545565b5b813561178e848260208601611700565b91505092915050565b600080600080608085870312156117b1576117b06114dd565b5b60006117bf87828801611530565b945050602085013567ffffffffffffffff8111156117e0576117df6114e2565b5b6117ec87828801611670565b935050604085013567ffffffffffffffff81111561180d5761180c6114e2565b5b61181987828801611769565b925050606061182a878288016116eb565b91505092959194509250565b60008060006060848603121561184f5761184e6114dd565b5b600084013567ffffffffffffffff81111561186d5761186c6114e2565b5b61187986828701611670565b935050602084013567ffffffffffffffff81111561189a576118996114e2565b5b6118a686828701611769565b92505060406118b7868287016116eb565b9150509250925092565b6000806000606084860312156118da576118d96114dd565b5b60006118e886828701611530565b935050602084013567ffffffffffffffff811115611909576119086114e2565b5b61191586828701611670565b925050604084013567ffffffffffffffff811115611936576119356114e2565b5b61194286828701611769565b9150509250925092565b60008060008060808587031215611966576119656114dd565b5b600061197487828801611530565b945050602085013567ffffffffffffffff811115611995576119946114e2565b5b6119a187828801611670565b93505060406119b2878288016116eb565b92505060606119c3878288016116eb565b91505092959194509250565b600080604083850312156119e6576119e56114dd565b5b600083013567ffffffffffffffff811115611a0457611a036114e2565b5b611a1085828601611670565b9250506020611a21858286016116eb565b9150509250929050565b60008115159050919050565b611a4081611a2b565b8114611a4b57600080fd5b50565b600081359050611a5d81611a37565b92915050565b60008060408385031215611a7a57611a796114dd565b5b600083013567ffffffffffffffff811115611a9857611a976114e2565b5b611aa485828601611670565b9250506020611ab585828601611a4e565b9150509250929050565b60008060408385031215611ad657611ad56114dd565b5b600083013567ffffffffffffffff811115611af457611af36114e2565b5b611b0085828601611670565b925050602083013567ffffffffffffffff811115611b2157611b206114e2565b5b611b2d85828601611769565b9150509250929050565b600080600060608486031215611b5057611b4f6114dd565b5b600084013567ffffffffffffffff811115611b6e57611b6d6114e2565b5b611b7a86828701611670565b9350506020611b8b868287016116eb565b9250506040611b9c868287016116eb565b9150509250925092565b600080600060608486031215611bbf57611bbe6114dd565b5b6000611bcd86828701611530565b935050602084013567ffffffffffffffff811115611bee57611bed6114e2565b5b611bfa86828701611670565b9250506040611c0b868287016116eb565b9150509250925092565b600082825260208201905092915050565b7f4f6e6c79206f776e65722063616e20646f206974000000000000000000000000600082015250565b6000611c5c601483611c15565b9150611c6782611c26565b602082019050919050565b60006020820190508181036000830152611c8b81611c4f565b9050919050565b7f4e487b7100000000000000000000000000000000000000000000000000000000600052601160045260246000fd5b6000611ccc826116ca565b9150611cd7836116ca565b9250828203905081811115611cef57611cee611c92565b5b92915050565b60008160011c9050919050565b6000808291508390505b6001851115611d4c57808604811115611d2857611d27611c92565b5b6001851615611d375780820291505b8081029050611d4585611cf5565b9450611d0c565b94509492505050565b600082611d655760019050611e21565b81611d735760009050611e21565b8160018114611d895760028114611d9357611dc2565b6001915050611e21565b60ff841115611da557611da4611c92565b5b8360020a915084821115611dbc57611dbb611c92565b5b50611e21565b5060208310610133831016604e8410600b8410161715611df75782820a905083811115611df257611df1611c92565b5b611e21565b611e048484846001611d02565b92509050818404811115611e1b57611e1a611c92565b5b81810290505b9392505050565b6000611e33826116ca565b9150611e3e836116ca565b9250611e6b7fffffffffffffffffffffffffffffffffffffffffffffffffffffffffffffffff8484611d55565b905092915050565b7f4e487b7100000000000000000000000000000000000000000000000000000000600052603260045260246000fd5b6000611ead826116ca565b9150611eb8836116ca565b9250828202611ec6816116ca565b91508282048414831517611edd57611edc611c92565b5b5092915050565b611eed81611507565b82525050565b6000602082019050611f086000830184611ee4565b92915050565b600081519050611f1d816116d4565b92915050565b600060208284031215611f3957611f386114dd565b5b6000611f4784828501611f0e565b91505092915050565b6000611f5b826116ca565b91507fffffffffffffffffffffffffffffffffffffffffffffffffffffffffffffffff8203611f8d57611f8c611c92565b5b600182019050919050565b7f4f6e6c792061646d696e2063616e20646f206974000000000000000000000000600082015250565b6000611fce601483611c15565b9150611fd982611f98565b602082019050919050565b60006020820190508181036000830152611ffd81611fc1565b9050919050565b7f446563696d616c73206d757374206265206c657373207468616e203138000000600082015250565b600061203a601d83611c15565b915061204582612004565b602082019050919050565b600060208201905081810360008301526120698161202d565b9050919050565b612079816116ca565b82525050565b60006020820190506120946000830184612070565b92915050565b60006040820190506120af6000830185611ee4565b6120bc6020830184612070565b9392505050565b6000815190506120d281611a37565b92915050565b6000602082840312156120ee576120ed6114dd565b5b60006120fc848285016120c3565b91505092915050565b7f5361666545524332303a204552433230206f7065726174696f6e20646964206e60008201527f6f74207375636365656400000000000000000000000000000000000000000000602082015250565b6000612161602a83611c15565b915061216c82612105565b604082019050919050565b6000602082019050818103600083015261219081612154565b9050919050565b7f416464726573733a20696e73756666696369656e742062616c616e636520666f60008201527f722063616c6c0000000000000000000000000000000000000000000000000000602082015250565b60006121f3602683611c15565b91506121fe82612197565b604082019050919050565b60006020820190508181036000830152612222816121e6565b9050919050565b7f416464726573733a2063616c6c20746f206e6f6e2d636f6e7472616374000000600082015250565b600061225f601d83611c15565b915061226a82612229565b602082019050919050565b6000602082019050818103600083015261228e81612252565b9050919050565b600081519050919050565b600081905092915050565b60005b838110156122c95780820151818401526020810190506122ae565b60008484015250505050565b60006122e082612295565b6122ea81856122a0565b93506122fa8185602086016122ab565b80840191505092915050565b600061231282846122d5565b915081905092915050565b600081519050919050565b60006123338261231d565b61233d8185611c15565b935061234d8185602086016122ab565b6123568161154a565b840191505092915050565b6000602082019050818103600083015261237b8184612328565b90509291505056fea26469706673582212207e705fa836497b2c53a0271aa98b30284f72726f3e8af9b52243d7e07268c15464736f6c63430008110033",
					"opcodes": "PUSH1 0x80 PUSH1 0x40 MSTORE CALLVALUE DUP1 ISZERO PUSH2 0x10 JUMPI PUSH1 0x0 DUP1 REVERT JUMPDEST POP CALLER PUSH1 0x0 DUP1 PUSH2 0x100 EXP DUP2 SLOAD DUP2 PUSH20 0xFFFFFFFFFFFFFFFFFFFFFFFFFFFFFFFFFFFFFFFF MUL NOT AND SWAP1 DUP4 PUSH20 0xFFFFFFFFFFFFFFFFFFFFFFFFFFFFFFFFFFFFFFFF AND MUL OR SWAP1 SSTORE POP PUSH1 0x1 DUP1 PUSH1 0x0 CALLER PUSH20 0xFFFFFFFFFFFFFFFFFFFFFFFFFFFFFFFFFFFFFFFF AND PUSH20 0xFFFFFFFFFFFFFFFFFFFFFFFFFFFFFFFFFFFFFFFF AND DUP2 MSTORE PUSH1 0x20 ADD SWAP1 DUP2 MSTORE PUSH1 0x20 ADD PUSH1 0x0 KECCAK256 PUSH1 0x0 PUSH2 0x100 EXP DUP2 SLOAD DUP2 PUSH1 0xFF MUL NOT AND SWAP1 DUP4 ISZERO ISZERO MUL OR SWAP1 SSTORE POP PUSH2 0x23B9 DUP1 PUSH2 0xB7 PUSH1 0x0 CODECOPY PUSH1 0x0 RETURN INVALID PUSH1 0x80 PUSH1 0x40 MSTORE PUSH1 0x4 CALLDATASIZE LT PUSH2 0x8A JUMPI PUSH1 0x0 CALLDATALOAD PUSH1 0xE0 SHR DUP1 PUSH4 0x676D0B79 GT PUSH2 0x59 JUMPI DUP1 PUSH4 0x676D0B79 EQ PUSH2 0x13A JUMPI DUP1 PUSH4 0x84E7686B EQ PUSH2 0x163 JUMPI DUP1 PUSH4 0x8FF6D1D8 EQ PUSH2 0x18C JUMPI DUP1 PUSH4 0xEA778DA7 EQ PUSH2 0x1B5 JUMPI DUP1 PUSH4 0xEE09D588 EQ PUSH2 0x1DE JUMPI PUSH2 0x91 JUMP JUMPDEST DUP1 PUSH4 0xAF10131 EQ PUSH2 0x96 JUMPI DUP1 PUSH4 0x23A04AE1 EQ PUSH2 0xBF JUMPI DUP1 PUSH4 0x36DF0DB0 EQ PUSH2 0xE8 JUMPI DUP1 PUSH4 0x3D14A922 EQ PUSH2 0x111 JUMPI PUSH2 0x91 JUMP JUMPDEST CALLDATASIZE PUSH2 0x91 JUMPI STOP JUMPDEST PUSH1 0x0 DUP1 REVERT JUMPDEST CALLVALUE DUP1 ISZERO PUSH2 0xA2 JUMPI PUSH1 0x0 DUP1 REVERT JUMPDEST POP PUSH2 0xBD PUSH1 0x4 DUP1 CALLDATASIZE SUB DUP2 ADD SWAP1 PUSH2 0xB8 SWAP2 SWAP1 PUSH2 0x1797 JUMP JUMPDEST PUSH2 0x207 JUMP JUMPDEST STOP JUMPDEST CALLVALUE DUP1 ISZERO PUSH2 0xCB JUMPI PUSH1 0x0 DUP1 REVERT JUMPDEST POP PUSH2 0xE6 PUSH1 0x4 DUP1 CALLDATASIZE SUB DUP2 ADD SWAP1 PUSH2 0xE1 SWAP2 SWAP1 PUSH2 0x1836 JUMP JUMPDEST PUSH2 0x3C9 JUMP JUMPDEST STOP JUMPDEST CALLVALUE DUP1 ISZERO PUSH2 0xF4 JUMPI PUSH1 0x0 DUP1 REVERT JUMPDEST POP PUSH2 0x10F PUSH1 0x4 DUP1 CALLDATASIZE SUB DUP2 ADD SWAP1 PUSH2 0x10A SWAP2 SWAP1 PUSH2 0x18C1 JUMP JUMPDEST PUSH2 0x5EE JUMP JUMPDEST STOP JUMPDEST CALLVALUE DUP1 ISZERO PUSH2 0x11D JUMPI PUSH1 0x0 DUP1 REVERT JUMPDEST POP PUSH2 0x138 PUSH1 0x4 DUP1 CALLDATASIZE SUB DUP2 ADD SWAP1 PUSH2 0x133 SWAP2 SWAP1 PUSH2 0x194C JUMP JUMPDEST PUSH2 0x79D JUMP JUMPDEST STOP JUMPDEST CALLVALUE DUP1 ISZERO PUSH2 0x146 JUMPI PUSH1 0x0 DUP1 REVERT JUMPDEST POP PUSH2 0x161 PUSH1 0x4 DUP1 CALLDATASIZE SUB DUP2 ADD SWAP1 PUSH2 0x15C SWAP2 SWAP1 PUSH2 0x19CF JUMP JUMPDEST PUSH2 0x987 JUMP JUMPDEST STOP JUMPDEST CALLVALUE DUP1 ISZERO PUSH2 0x16F JUMPI PUSH1 0x0 DUP1 REVERT JUMPDEST POP PUSH2 0x18A PUSH1 0x4 DUP1 CALLDATASIZE SUB DUP2 ADD SWAP1 PUSH2 0x185 SWAP2 SWAP1 PUSH2 0x1A63 JUMP JUMPDEST PUSH2 0xB3D JUMP JUMPDEST STOP JUMPDEST CALLVALUE DUP1 ISZERO PUSH2 0x198 JUMPI PUSH1 0x0 DUP1 REVERT JUMPDEST POP PUSH2 0x1B3 PUSH1 0x4 DUP1 CALLDATASIZE SUB DUP2 ADD SWAP1 PUSH2 0x1AE SWAP2 SWAP1 PUSH2 0x1ABF JUMP JUMPDEST PUSH2 0xC60 JUMP JUMPDEST STOP JUMPDEST CALLVALUE DUP1 ISZERO PUSH2 0x1C1 JUMPI PUSH1 0x0 DUP1 REVERT JUMPDEST POP PUSH2 0x1DC PUSH1 0x4 DUP1 CALLDATASIZE SUB DUP2 ADD SWAP1 PUSH2 0x1D7 SWAP2 SWAP1 PUSH2 0x1B37 JUMP JUMPDEST PUSH2 0xE30 JUMP JUMPDEST STOP JUMPDEST CALLVALUE DUP1 ISZERO PUSH2 0x1EA JUMPI PUSH1 0x0 DUP1 REVERT JUMPDEST POP PUSH2 0x205 PUSH1 0x4 DUP1 CALLDATASIZE SUB DUP2 ADD SWAP1 PUSH2 0x200 SWAP2 SWAP1 PUSH2 0x1BA6 JUMP JUMPDEST PUSH2 0x103B JUMP JUMPDEST STOP JUMPDEST PUSH1 0x0 DUP1 SLOAD SWAP1 PUSH2 0x100 EXP SWAP1 DIV PUSH20 0xFFFFFFFFFFFFFFFFFFFFFFFFFFFFFFFFFFFFFFFF AND PUSH20 0xFFFFFFFFFFFFFFFFFFFFFFFFFFFFFFFFFFFFFFFF AND CALLER PUSH20 0xFFFFFFFFFFFFFFFFFFFFFFFFFFFFFFFFFFFFFFFF AND EQ PUSH2 0x295 JUMPI PUSH1 0x40 MLOAD PUSH32 0x8C379A000000000000000000000000000000000000000000000000000000000 DUP2 MSTORE PUSH1 0x4 ADD PUSH2 0x28C SWAP1 PUSH2 0x1C72 JUMP JUMPDEST PUSH1 0x40 MLOAD DUP1 SWAP2 SUB SWAP1 REVERT JUMPDEST PUSH1 0x0 JUMPDEST DUP4 MLOAD DUP2 LT ISZERO PUSH2 0x3C2 JUMPI PUSH1 0x0 DUP3 PUSH1 0x12 PUSH2 0x2B0 SWAP2 SWAP1 PUSH2 0x1CC1 JUMP JUMPDEST PUSH1 0xA PUSH2 0x2BC SWAP2 SWAP1 PUSH2 0x1E28 JUMP JUMPDEST DUP5 DUP4 DUP2 MLOAD DUP2 LT PUSH2 0x2CF JUMPI PUSH2 0x2CE PUSH2 0x1E73 JUMP JUMPDEST JUMPDEST PUSH1 0x20 MUL PUSH1 0x20 ADD ADD MLOAD PUSH2 0x2E1 SWAP2 SWAP1 PUSH2 0x1EA2 JUMP JUMPDEST SWAP1 POP DUP1 DUP7 PUSH20 0xFFFFFFFFFFFFFFFFFFFFFFFFFFFFFFFFFFFFFFFF AND PUSH4 0x70A08231 ADDRESS PUSH1 0x40 MLOAD DUP3 PUSH4 0xFFFFFFFF AND PUSH1 0xE0 SHL DUP2 MSTORE PUSH1 0x4 ADD PUSH2 0x31D SWAP2 SWAP1 PUSH2 0x1EF3 JUMP JUMPDEST PUSH1 0x20 PUSH1 0x40 MLOAD DUP1 DUP4 SUB DUP2 DUP7 GAS STATICCALL ISZERO DUP1 ISZERO PUSH2 0x33A JUMPI RETURNDATASIZE PUSH1 0x0 DUP1 RETURNDATACOPY RETURNDATASIZE PUSH1 0x0 REVERT JUMPDEST POP POP POP POP PUSH1 0x40 MLOAD RETURNDATASIZE PUSH1 0x1F NOT PUSH1 0x1F DUP3 ADD AND DUP3 ADD DUP1 PUSH1 0x40 MSTORE POP DUP2 ADD SWAP1 PUSH2 0x35E SWAP2 SWAP1 PUSH2 0x1F23 JUMP JUMPDEST LT ISZERO PUSH2 0x369 JUMPI PUSH1 0x0 DUP1 REVERT JUMPDEST PUSH2 0x3AE DUP6 DUP4 DUP2 MLOAD DUP2 LT PUSH2 0x37F JUMPI PUSH2 0x37E PUSH2 0x1E73 JUMP JUMPDEST JUMPDEST PUSH1 0x20 MUL PUSH1 0x20 ADD ADD MLOAD DUP3 DUP9 PUSH20 0xFFFFFFFFFFFFFFFFFFFFFFFFFFFFFFFFFFFFFFFF AND PUSH2 0x11D0 SWAP1 SWAP3 SWAP2 SWAP1 PUSH4 0xFFFFFFFF AND JUMP JUMPDEST POP DUP1 DUP1 PUSH2 0x3BA SWAP1 PUSH2 0x1F50 JUMP JUMPDEST SWAP2 POP POP PUSH2 0x298 JUMP JUMPDEST POP POP POP POP POP JUMP JUMPDEST PUSH1 0x1 PUSH1 0x0 CALLER PUSH20 0xFFFFFFFFFFFFFFFFFFFFFFFFFFFFFFFFFFFFFFFF AND PUSH20 0xFFFFFFFFFFFFFFFFFFFFFFFFFFFFFFFFFFFFFFFF AND DUP2 MSTORE PUSH1 0x20 ADD SWAP1 DUP2 MSTORE PUSH1 0x20 ADD PUSH1 0x0 KECCAK256 PUSH1 0x0 SWAP1 SLOAD SWAP1 PUSH2 0x100 EXP SWAP1 DIV PUSH1 0xFF AND PUSH2 0x455 JUMPI PUSH1 0x40 MLOAD PUSH32 0x8C379A000000000000000000000000000000000000000000000000000000000 DUP2 MSTORE PUSH1 0x4 ADD PUSH2 0x44C SWAP1 PUSH2 0x1FE4 JUMP JUMPDEST PUSH1 0x40 MLOAD DUP1 SWAP2 SUB SWAP1 REVERT JUMPDEST PUSH1 0x12 DUP2 GT ISZERO PUSH2 0x499 JUMPI PUSH1 0x40 MLOAD PUSH32 0x8C379A000000000000000000000000000000000000000000000000000000000 DUP2 MSTORE PUSH1 0x4 ADD PUSH2 0x490 SWAP1 PUSH2 0x2050 JUMP JUMPDEST PUSH1 0x40 MLOAD DUP1 SWAP2 SUB SWAP1 REVERT JUMPDEST PUSH1 0x0 JUMPDEST DUP4 MLOAD DUP2 LT ISZERO PUSH2 0x5E8 JUMPI PUSH1 0x0 DUP3 PUSH1 0x12 PUSH2 0x4B4 SWAP2 SWAP1 PUSH2 0x1CC1 JUMP JUMPDEST PUSH1 0xA PUSH2 0x4C0 SWAP2 SWAP1 PUSH2 0x1E28 JUMP JUMPDEST DUP5 DUP4 DUP2 MLOAD DUP2 LT PUSH2 0x4D3 JUMPI PUSH2 0x4D2 PUSH2 0x1E73 JUMP JUMPDEST JUMPDEST PUSH1 0x20 MUL PUSH1 0x20 ADD ADD MLOAD PUSH2 0x4E5 SWAP2 SWAP1 PUSH2 0x1EA2 JUMP JUMPDEST SWAP1 POP DUP1 SELFBALANCE LT ISZERO PUSH2 0x4F4 JUMPI PUSH1 0x0 DUP1 REVERT JUMPDEST DUP5 DUP3 DUP2 MLOAD DUP2 LT PUSH2 0x507 JUMPI PUSH2 0x506 PUSH2 0x1E73 JUMP JUMPDEST JUMPDEST PUSH1 0x20 MUL PUSH1 0x20 ADD ADD MLOAD PUSH20 0xFFFFFFFFFFFFFFFFFFFFFFFFFFFFFFFFFFFFFFFF AND PUSH2 0x8FC DUP3 SWAP1 DUP2 ISZERO MUL SWAP1 PUSH1 0x40 MLOAD PUSH1 0x0 PUSH1 0x40 MLOAD DUP1 DUP4 SUB DUP2 DUP6 DUP9 DUP9 CALL SWAP4 POP POP POP POP ISZERO DUP1 ISZERO PUSH2 0x554 JUMPI RETURNDATASIZE PUSH1 0x0 DUP1 RETURNDATACOPY RETURNDATASIZE PUSH1 0x0 REVERT JUMPDEST POP DUP5 DUP3 DUP2 MLOAD DUP2 LT PUSH2 0x568 JUMPI PUSH2 0x567 PUSH2 0x1E73 JUMP JUMPDEST JUMPDEST PUSH1 0x20 MUL PUSH1 0x20 ADD ADD MLOAD PUSH20 0xFFFFFFFFFFFFFFFFFFFFFFFFFFFFFFFFFFFFFFFF AND ADDRESS PUSH20 0xFFFFFFFFFFFFFFFFFFFFFFFFFFFFFFFFFFFFFFFF AND PUSH32 0xDDF252AD1BE2C89B69C2B068FC378DAA952BA7F163C4A11628F55A4DF523B3EF DUP4 PUSH1 0x40 MLOAD PUSH2 0x5CC SWAP2 SWAP1 PUSH2 0x207F JUMP JUMPDEST PUSH1 0x40 MLOAD DUP1 SWAP2 SUB SWAP1 LOG3 POP DUP1 DUP1 PUSH2 0x5E0 SWAP1 PUSH2 0x1F50 JUMP JUMPDEST SWAP2 POP POP PUSH2 0x49C JUMP JUMPDEST POP POP POP POP JUMP JUMPDEST PUSH1 0x1 PUSH1 0x0 CALLER PUSH20 0xFFFFFFFFFFFFFFFFFFFFFFFFFFFFFFFFFFFFFFFF AND PUSH20 0xFFFFFFFFFFFFFFFFFFFFFFFFFFFFFFFFFFFFFFFF AND DUP2 MSTORE PUSH1 0x20 ADD SWAP1 DUP2 MSTORE PUSH1 0x20 ADD PUSH1 0x0 KECCAK256 PUSH1 0x0 SWAP1 SLOAD SWAP1 PUSH2 0x100 EXP SWAP1 DIV PUSH1 0xFF AND PUSH2 0x67A JUMPI PUSH1 0x40 MLOAD PUSH32 0x8C379A000000000000000000000000000000000000000000000000000000000 DUP2 MSTORE PUSH1 0x4 ADD PUSH2 0x671 SWAP1 PUSH2 0x1FE4 JUMP JUMPDEST PUSH1 0x40 MLOAD DUP1 SWAP2 SUB SWAP1 REVERT JUMPDEST PUSH1 0x0 JUMPDEST DUP3 MLOAD DUP2 LT ISZERO PUSH2 0x797 JUMPI PUSH1 0x0 PUSH8 0xDE0B6B3A7640000 DUP4 DUP4 DUP2 MLOAD DUP2 LT PUSH2 0x6A4 JUMPI PUSH2 0x6A3 PUSH2 0x1E73 JUMP JUMPDEST JUMPDEST PUSH1 0x20 MUL PUSH1 0x20 ADD ADD MLOAD PUSH2 0x6B6 SWAP2 SWAP1 PUSH2 0x1EA2 JUMP JUMPDEST SWAP1 POP DUP1 DUP6 PUSH20 0xFFFFFFFFFFFFFFFFFFFFFFFFFFFFFFFFFFFFFFFF AND PUSH4 0x70A08231 ADDRESS PUSH1 0x40 MLOAD DUP3 PUSH4 0xFFFFFFFF AND PUSH1 0xE0 SHL DUP2 MSTORE PUSH1 0x4 ADD PUSH2 0x6F2 SWAP2 SWAP1 PUSH2 0x1EF3 JUMP JUMPDEST PUSH1 0x20 PUSH1 0x40 MLOAD DUP1 DUP4 SUB DUP2 DUP7 GAS STATICCALL ISZERO DUP1 ISZERO PUSH2 0x70F JUMPI RETURNDATASIZE PUSH1 0x0 DUP1 RETURNDATACOPY RETURNDATASIZE PUSH1 0x0 REVERT JUMPDEST POP POP POP POP PUSH1 0x40 MLOAD RETURNDATASIZE PUSH1 0x1F NOT PUSH1 0x1F DUP3 ADD AND DUP3 ADD DUP1 PUSH1 0x40 MSTORE POP DUP2 ADD SWAP1 PUSH2 0x733 SWAP2 SWAP1 PUSH2 0x1F23 JUMP JUMPDEST LT ISZERO PUSH2 0x73E JUMPI PUSH1 0x0 DUP1 REVERT JUMPDEST PUSH2 0x783 DUP5 DUP4 DUP2 MLOAD DUP2 LT PUSH2 0x754 JUMPI PUSH2 0x753 PUSH2 0x1E73 JUMP JUMPDEST JUMPDEST PUSH1 0x20 MUL PUSH1 0x20 ADD ADD MLOAD DUP3 DUP8 PUSH20 0xFFFFFFFFFFFFFFFFFFFFFFFFFFFFFFFFFFFFFFFF AND PUSH2 0x11D0 SWAP1 SWAP3 SWAP2 SWAP1 PUSH4 0xFFFFFFFF AND JUMP JUMPDEST POP DUP1 DUP1 PUSH2 0x78F SWAP1 PUSH2 0x1F50 JUMP JUMPDEST SWAP2 POP POP PUSH2 0x67D JUMP JUMPDEST POP POP POP POP JUMP JUMPDEST PUSH1 0x1 PUSH1 0x0 CALLER PUSH20 0xFFFFFFFFFFFFFFFFFFFFFFFFFFFFFFFFFFFFFFFF AND PUSH20 0xFFFFFFFFFFFFFFFFFFFFFFFFFFFFFFFFFFFFFFFF AND DUP2 MSTORE PUSH1 0x20 ADD SWAP1 DUP2 MSTORE PUSH1 0x20 ADD PUSH1 0x0 KECCAK256 PUSH1 0x0 SWAP1 SLOAD SWAP1 PUSH2 0x100 EXP SWAP1 DIV PUSH1 0xFF AND PUSH2 0x829 JUMPI PUSH1 0x40 MLOAD PUSH32 0x8C379A000000000000000000000000000000000000000000000000000000000 DUP2 MSTORE PUSH1 0x4 ADD PUSH2 0x820 SWAP1 PUSH2 0x1FE4 JUMP JUMPDEST PUSH1 0x40 MLOAD DUP1 SWAP2 SUB SWAP1 REVERT JUMPDEST PUSH1 0x12 DUP2 GT ISZERO PUSH2 0x86D JUMPI PUSH1 0x40 MLOAD PUSH32 0x8C379A000000000000000000000000000000000000000000000000000000000 DUP2 MSTORE PUSH1 0x4 ADD PUSH2 0x864 SWAP1 PUSH2 0x2050 JUMP JUMPDEST PUSH1 0x40 MLOAD DUP1 SWAP2 SUB SWAP1 REVERT JUMPDEST PUSH1 0x0 DUP2 PUSH1 0x12 PUSH2 0x87C SWAP2 SWAP1 PUSH2 0x1CC1 JUMP JUMPDEST PUSH1 0xA PUSH2 0x888 SWAP2 SWAP1 PUSH2 0x1E28 JUMP JUMPDEST DUP4 PUSH2 0x893 SWAP2 SWAP1 PUSH2 0x1EA2 JUMP JUMPDEST SWAP1 POP PUSH1 0x0 JUMPDEST DUP5 MLOAD DUP2 LT ISZERO PUSH2 0x97F JUMPI DUP2 DUP7 PUSH20 0xFFFFFFFFFFFFFFFFFFFFFFFFFFFFFFFFFFFFFFFF AND PUSH4 0x70A08231 ADDRESS PUSH1 0x40 MLOAD DUP3 PUSH4 0xFFFFFFFF AND PUSH1 0xE0 SHL DUP2 MSTORE PUSH1 0x4 ADD PUSH2 0x8DB SWAP2 SWAP1 PUSH2 0x1EF3 JUMP JUMPDEST PUSH1 0x20 PUSH1 0x40 MLOAD DUP1 DUP4 SUB DUP2 DUP7 GAS STATICCALL ISZERO DUP1 ISZERO PUSH2 0x8F8 JUMPI RETURNDATASIZE PUSH1 0x0 DUP1 RETURNDATACOPY RETURNDATASIZE PUSH1 0x0 REVERT JUMPDEST POP POP POP POP PUSH1 0x40 MLOAD RETURNDATASIZE PUSH1 0x1F NOT PUSH1 0x1F DUP3 ADD AND DUP3 ADD DUP1 PUSH1 0x40 MSTORE POP DUP2 ADD SWAP1 PUSH2 0x91C SWAP2 SWAP1 PUSH2 0x1F23 JUMP JUMPDEST LT ISZERO PUSH2 0x927 JUMPI PUSH1 0x0 DUP1 REVERT JUMPDEST PUSH2 0x96C DUP6 DUP3 DUP2 MLOAD DUP2 LT PUSH2 0x93D JUMPI PUSH2 0x93C PUSH2 0x1E73 JUMP JUMPDEST JUMPDEST PUSH1 0x20 MUL PUSH1 0x20 ADD ADD MLOAD DUP4 DUP9 PUSH20 0xFFFFFFFFFFFFFFFFFFFFFFFFFFFFFFFFFFFFFFFF AND PUSH2 0x11D0 SWAP1 SWAP3 SWAP2 SWAP1 PUSH4 0xFFFFFFFF AND JUMP JUMPDEST DUP1 DUP1 PUSH2 0x977 SWAP1 PUSH2 0x1F50 JUMP JUMPDEST SWAP2 POP POP PUSH2 0x898 JUMP JUMPDEST POP POP POP POP POP POP JUMP JUMPDEST PUSH1 0x1 PUSH1 0x0 CALLER PUSH20 0xFFFFFFFFFFFFFFFFFFFFFFFFFFFFFFFFFFFFFFFF AND PUSH20 0xFFFFFFFFFFFFFFFFFFFFFFFFFFFFFFFFFFFFFFFF AND DUP2 MSTORE PUSH1 0x20 ADD SWAP1 DUP2 MSTORE PUSH1 0x20 ADD PUSH1 0x0 KECCAK256 PUSH1 0x0 SWAP1 SLOAD SWAP1 PUSH2 0x100 EXP SWAP1 DIV PUSH1 0xFF AND PUSH2 0xA13 JUMPI PUSH1 0x40 MLOAD PUSH32 0x8C379A000000000000000000000000000000000000000000000000000000000 DUP2 MSTORE PUSH1 0x4 ADD PUSH2 0xA0A SWAP1 PUSH2 0x1FE4 JUMP JUMPDEST PUSH1 0x40 MLOAD DUP1 SWAP2 SUB SWAP1 REVERT JUMPDEST PUSH1 0x0 PUSH8 0xDE0B6B3A7640000 DUP3 PUSH2 0xA29 SWAP2 SWAP1 PUSH2 0x1EA2 JUMP JUMPDEST SWAP1 POP PUSH1 0x0 JUMPDEST DUP4 MLOAD DUP2 LT ISZERO PUSH2 0xB37 JUMPI DUP2 SELFBALANCE LT ISZERO PUSH2 0xA44 JUMPI PUSH1 0x0 DUP1 REVERT JUMPDEST DUP4 DUP2 DUP2 MLOAD DUP2 LT PUSH2 0xA57 JUMPI PUSH2 0xA56 PUSH2 0x1E73 JUMP JUMPDEST JUMPDEST PUSH1 0x20 MUL PUSH1 0x20 ADD ADD MLOAD PUSH20 0xFFFFFFFFFFFFFFFFFFFFFFFFFFFFFFFFFFFFFFFF AND PUSH2 0x8FC DUP4 SWAP1 DUP2 ISZERO MUL SWAP1 PUSH1 0x40 MLOAD PUSH1 0x0 PUSH1 0x40 MLOAD DUP1 DUP4 SUB DUP2 DUP6 DUP9 DUP9 CALL SWAP4 POP POP POP POP ISZERO DUP1 ISZERO PUSH2 0xAA4 JUMPI RETURNDATASIZE PUSH1 0x0 DUP1 RETURNDATACOPY RETURNDATASIZE PUSH1 0x0 REVERT JUMPDEST POP DUP4 DUP2 DUP2 MLOAD DUP2 LT PUSH2 0xAB8 JUMPI PUSH2 0xAB7 PUSH2 0x1E73 JUMP JUMPDEST JUMPDEST PUSH1 0x20 MUL PUSH1 0x20 ADD ADD MLOAD PUSH20 0xFFFFFFFFFFFFFFFFFFFFFFFFFFFFFFFFFFFFFFFF AND ADDRESS PUSH20 0xFFFFFFFFFFFFFFFFFFFFFFFFFFFFFFFFFFFFFFFF AND PUSH32 0xDDF252AD1BE2C89B69C2B068FC378DAA952BA7F163C4A11628F55A4DF523B3EF DUP5 PUSH1 0x40 MLOAD PUSH2 0xB1C SWAP2 SWAP1 PUSH2 0x207F JUMP JUMPDEST PUSH1 0x40 MLOAD DUP1 SWAP2 SUB SWAP1 LOG3 DUP1 DUP1 PUSH2 0xB2F SWAP1 PUSH2 0x1F50 JUMP JUMPDEST SWAP2 POP POP PUSH2 0xA2E JUMP JUMPDEST POP POP POP POP JUMP JUMPDEST PUSH1 0x0 DUP1 SLOAD SWAP1 PUSH2 0x100 EXP SWAP1 DIV PUSH20 0xFFFFFFFFFFFFFFFFFFFFFFFFFFFFFFFFFFFFFFFF AND PUSH20 0xFFFFFFFFFFFFFFFFFFFFFFFFFFFFFFFFFFFFFFFF AND CALLER PUSH20 0xFFFFFFFFFFFFFFFFFFFFFFFFFFFFFFFFFFFFFFFF AND EQ PUSH2 0xBCB JUMPI PUSH1 0x40 MLOAD PUSH32 0x8C379A000000000000000000000000000000000000000000000000000000000 DUP2 MSTORE PUSH1 0x4 ADD PUSH2 0xBC2 SWAP1 PUSH2 0x1C72 JUMP JUMPDEST PUSH1 0x40 MLOAD DUP1 SWAP2 SUB SWAP1 REVERT JUMPDEST PUSH1 0x0 JUMPDEST DUP3 MLOAD DUP2 LT ISZERO PUSH2 0xC5B JUMPI DUP2 PUSH1 0x1 PUSH1 0x0 DUP6 DUP5 DUP2 MLOAD DUP2 LT PUSH2 0xBEF JUMPI PUSH2 0xBEE PUSH2 0x1E73 JUMP JUMPDEST JUMPDEST PUSH1 0x20 MUL PUSH1 0x20 ADD ADD MLOAD PUSH20 0xFFFFFFFFFFFFFFFFFFFFFFFFFFFFFFFFFFFFFFFF AND PUSH20 0xFFFFFFFFFFFFFFFFFFFFFFFFFFFFFFFFFFFFFFFF AND DUP2 MSTORE PUSH1 0x20 ADD SWAP1 DUP2 MSTORE PUSH1 0x20 ADD PUSH1 0x0 KECCAK256 PUSH1 0x0 PUSH2 0x100 EXP DUP2 SLOAD DUP2 PUSH1 0xFF MUL NOT AND SWAP1 DUP4 ISZERO ISZERO MUL OR SWAP1 SSTORE POP DUP1 DUP1 PUSH2 0xC53 SWAP1 PUSH2 0x1F50 JUMP JUMPDEST SWAP2 POP POP PUSH2 0xBCE JUMP JUMPDEST POP POP POP JUMP JUMPDEST PUSH1 0x1 PUSH1 0x0 CALLER PUSH20 0xFFFFFFFFFFFFFFFFFFFFFFFFFFFFFFFFFFFFFFFF AND PUSH20 0xFFFFFFFFFFFFFFFFFFFFFFFFFFFFFFFFFFFFFFFF AND DUP2 MSTORE PUSH1 0x20 ADD SWAP1 DUP2 MSTORE PUSH1 0x20 ADD PUSH1 0x0 KECCAK256 PUSH1 0x0 SWAP1 SLOAD SWAP1 PUSH2 0x100 EXP SWAP1 DIV PUSH1 0xFF AND PUSH2 0xCEC JUMPI PUSH1 0x40 MLOAD PUSH32 0x8C379A000000000000000000000000000000000000000000000000000000000 DUP2 MSTORE PUSH1 0x4 ADD PUSH2 0xCE3 SWAP1 PUSH2 0x1FE4 JUMP JUMPDEST PUSH1 0x40 MLOAD DUP1 SWAP2 SUB SWAP1 REVERT JUMPDEST PUSH1 0x0 JUMPDEST DUP3 MLOAD DUP2 LT ISZERO PUSH2 0xE2B JUMPI PUSH1 0x0 PUSH8 0xDE0B6B3A7640000 DUP4 DUP4 DUP2 MLOAD DUP2 LT PUSH2 0xD16 JUMPI PUSH2 0xD15 PUSH2 0x1E73 JUMP JUMPDEST JUMPDEST PUSH1 0x20 MUL PUSH1 0x20 ADD ADD MLOAD PUSH2 0xD28 SWAP2 SWAP1 PUSH2 0x1EA2 JUMP JUMPDEST SWAP1 POP DUP1 SELFBALANCE LT ISZERO PUSH2 0xD37 JUMPI PUSH1 0x0 DUP1 REVERT JUMPDEST DUP4 DUP3 DUP2 MLOAD DUP2 LT PUSH2 0xD4A JUMPI PUSH2 0xD49 PUSH2 0x1E73 JUMP JUMPDEST JUMPDEST PUSH1 0x20 MUL PUSH1 0x20 ADD ADD MLOAD PUSH20 0xFFFFFFFFFFFFFFFFFFFFFFFFFFFFFFFFFFFFFFFF AND PUSH2 0x8FC DUP3 SWAP1 DUP2 ISZERO MUL SWAP1 PUSH1 0x40 MLOAD PUSH1 0x0 PUSH1 0x40 MLOAD DUP1 DUP4 SUB DUP2 DUP6 DUP9 DUP9 CALL SWAP4 POP POP POP POP ISZERO DUP1 ISZERO PUSH2 0xD97 JUMPI RETURNDATASIZE PUSH1 0x0 DUP1 RETURNDATACOPY RETURNDATASIZE PUSH1 0x0 REVERT JUMPDEST POP DUP4 DUP3 DUP2 MLOAD DUP2 LT PUSH2 0xDAB JUMPI PUSH2 0xDAA PUSH2 0x1E73 JUMP JUMPDEST JUMPDEST PUSH1 0x20 MUL PUSH1 0x20 ADD ADD MLOAD PUSH20 0xFFFFFFFFFFFFFFFFFFFFFFFFFFFFFFFFFFFFFFFF AND ADDRESS PUSH20 0xFFFFFFFFFFFFFFFFFFFFFFFFFFFFFFFFFFFFFFFF AND PUSH32 0xDDF252AD1BE2C89B69C2B068FC378DAA952BA7F163C4A11628F55A4DF523B3EF DUP4 PUSH1 0x40 MLOAD PUSH2 0xE0F SWAP2 SWAP1 PUSH2 0x207F JUMP JUMPDEST PUSH1 0x40 MLOAD DUP1 SWAP2 SUB SWAP1 LOG3 POP DUP1 DUP1 PUSH2 0xE23 SWAP1 PUSH2 0x1F50 JUMP JUMPDEST SWAP2 POP POP PUSH2 0xCEF JUMP JUMPDEST POP POP POP JUMP JUMPDEST PUSH1 0x1 PUSH1 0x0 CALLER PUSH20 0xFFFFFFFFFFFFFFFFFFFFFFFFFFFFFFFFFFFFFFFF AND PUSH20 0xFFFFFFFFFFFFFFFFFFFFFFFFFFFFFFFFFFFFFFFF AND DUP2 MSTORE PUSH1 0x20 ADD SWAP1 DUP2 MSTORE PUSH1 0x20 ADD PUSH1 0x0 KECCAK256 PUSH1 0x0 SWAP1 SLOAD SWAP1 PUSH2 0x100 EXP SWAP1 DIV PUSH1 0xFF AND PUSH2 0xEBC JUMPI PUSH1 0x40 MLOAD PUSH32 0x8C379A000000000000000000000000000000000000000000000000000000000 DUP2 MSTORE PUSH1 0x4 ADD PUSH2 0xEB3 SWAP1 PUSH2 0x1FE4 JUMP JUMPDEST PUSH1 0x40 MLOAD DUP1 SWAP2 SUB SWAP1 REVERT JUMPDEST PUSH1 0x12 DUP2 GT ISZERO PUSH2 0xF00 JUMPI PUSH1 0x40 MLOAD PUSH32 0x8C379A000000000000000000000000000000000000000000000000000000000 DUP2 MSTORE PUSH1 0x4 ADD PUSH2 0xEF7 SWAP1 PUSH2 0x2050 JUMP JUMPDEST PUSH1 0x40 MLOAD DUP1 SWAP2 SUB SWAP1 REVERT JUMPDEST PUSH1 0x0 DUP2 PUSH1 0x12 PUSH2 0xF0F SWAP2 SWAP1 PUSH2 0x1CC1 JUMP JUMPDEST PUSH1 0xA PUSH2 0xF1B SWAP2 SWAP1 PUSH2 0x1E28 JUMP JUMPDEST DUP4 PUSH2 0xF26 SWAP2 SWAP1 PUSH2 0x1EA2 JUMP JUMPDEST SWAP1 POP PUSH1 0x0 JUMPDEST DUP5 MLOAD DUP2 LT ISZERO PUSH2 0x1034 JUMPI DUP2 SELFBALANCE LT ISZERO PUSH2 0xF41 JUMPI PUSH1 0x0 DUP1 REVERT JUMPDEST DUP5 DUP2 DUP2 MLOAD DUP2 LT PUSH2 0xF54 JUMPI PUSH2 0xF53 PUSH2 0x1E73 JUMP JUMPDEST JUMPDEST PUSH1 0x20 MUL PUSH1 0x20 ADD ADD MLOAD PUSH20 0xFFFFFFFFFFFFFFFFFFFFFFFFFFFFFFFFFFFFFFFF AND PUSH2 0x8FC DUP4 SWAP1 DUP2 ISZERO MUL SWAP1 PUSH1 0x40 MLOAD PUSH1 0x0 PUSH1 0x40 MLOAD DUP1 DUP4 SUB DUP2 DUP6 DUP9 DUP9 CALL SWAP4 POP POP POP POP ISZERO DUP1 ISZERO PUSH2 0xFA1 JUMPI RETURNDATASIZE PUSH1 0x0 DUP1 RETURNDATACOPY RETURNDATASIZE PUSH1 0x0 REVERT JUMPDEST POP DUP5 DUP2 DUP2 MLOAD DUP2 LT PUSH2 0xFB5 JUMPI PUSH2 0xFB4 PUSH2 0x1E73 JUMP JUMPDEST JUMPDEST PUSH1 0x20 MUL PUSH1 0x20 ADD ADD MLOAD PUSH20 0xFFFFFFFFFFFFFFFFFFFFFFFFFFFFFFFFFFFFFFFF AND ADDRESS PUSH20 0xFFFFFFFFFFFFFFFFFFFFFFFFFFFFFFFFFFFFFFFF AND PUSH32 0xDDF252AD1BE2C89B69C2B068FC378DAA952BA7F163C4A11628F55A4DF523B3EF DUP5 PUSH1 0x40 MLOAD PUSH2 0x1019 SWAP2 SWAP1 PUSH2 0x207F JUMP JUMPDEST PUSH1 0x40 MLOAD DUP1 SWAP2 SUB SWAP1 LOG3 DUP1 DUP1 PUSH2 0x102C SWAP1 PUSH2 0x1F50 JUMP JUMPDEST SWAP2 POP POP PUSH2 0xF2B JUMP JUMPDEST POP POP POP POP POP JUMP JUMPDEST PUSH1 0x1 PUSH1 0x0 CALLER PUSH20 0xFFFFFFFFFFFFFFFFFFFFFFFFFFFFFFFFFFFFFFFF AND PUSH20 0xFFFFFFFFFFFFFFFFFFFFFFFFFFFFFFFFFFFFFFFF AND DUP2 MSTORE PUSH1 0x20 ADD SWAP1 DUP2 MSTORE PUSH1 0x20 ADD PUSH1 0x0 KECCAK256 PUSH1 0x0 SWAP1 SLOAD SWAP1 PUSH2 0x100 EXP SWAP1 DIV PUSH1 0xFF AND PUSH2 0x10C7 JUMPI PUSH1 0x40 MLOAD PUSH32 0x8C379A000000000000000000000000000000000000000000000000000000000 DUP2 MSTORE PUSH1 0x4 ADD PUSH2 0x10BE SWAP1 PUSH2 0x1FE4 JUMP JUMPDEST PUSH1 0x40 MLOAD DUP1 SWAP2 SUB SWAP1 REVERT JUMPDEST PUSH1 0x0 PUSH8 0xDE0B6B3A7640000 DUP3 PUSH2 0x10DD SWAP2 SWAP1 PUSH2 0x1EA2 JUMP JUMPDEST SWAP1 POP PUSH1 0x0 JUMPDEST DUP4 MLOAD DUP2 LT ISZERO PUSH2 0x11C9 JUMPI DUP2 DUP6 PUSH20 0xFFFFFFFFFFFFFFFFFFFFFFFFFFFFFFFFFFFFFFFF AND PUSH4 0x70A08231 ADDRESS PUSH1 0x40 MLOAD DUP3 PUSH4 0xFFFFFFFF AND PUSH1 0xE0 SHL DUP2 MSTORE PUSH1 0x4 ADD PUSH2 0x1125 SWAP2 SWAP1 PUSH2 0x1EF3 JUMP JUMPDEST PUSH1 0x20 PUSH1 0x40 MLOAD DUP1 DUP4 SUB DUP2 DUP7 GAS STATICCALL ISZERO DUP1 ISZERO PUSH2 0x1142 JUMPI RETURNDATASIZE PUSH1 0x0 DUP1 RETURNDATACOPY RETURNDATASIZE PUSH1 0x0 REVERT JUMPDEST POP POP POP POP PUSH1 0x40 MLOAD RETURNDATASIZE PUSH1 0x1F NOT PUSH1 0x1F DUP3 ADD AND DUP3 ADD DUP1 PUSH1 0x40 MSTORE POP DUP2 ADD SWAP1 PUSH2 0x1166 SWAP2 SWAP1 PUSH2 0x1F23 JUMP JUMPDEST LT ISZERO PUSH2 0x1171 JUMPI PUSH1 0x0 DUP1 REVERT JUMPDEST PUSH2 0x11B6 DUP5 DUP3 DUP2 MLOAD DUP2 LT PUSH2 0x1187 JUMPI PUSH2 0x1186 PUSH2 0x1E73 JUMP JUMPDEST JUMPDEST PUSH1 0x20 MUL PUSH1 0x20 ADD ADD MLOAD DUP4 DUP8 PUSH20 0xFFFFFFFFFFFFFFFFFFFFFFFFFFFFFFFFFFFFFFFF AND PUSH2 0x11D0 SWAP1 SWAP3 SWAP2 SWAP1 PUSH4 0xFFFFFFFF AND JUMP JUMPDEST DUP1 DUP1 PUSH2 0x11C1 SWAP1 PUSH2 0x1F50 JUMP JUMPDEST SWAP2 POP POP PUSH2 0x10E2 JUMP JUMPDEST POP POP POP POP POP JUMP JUMPDEST PUSH2 0x1251 DUP4 PUSH4 0xA9059CBB PUSH1 0xE0 SHL DUP5 DUP5 PUSH1 0x40 MLOAD PUSH1 0x24 ADD PUSH2 0x11EF SWAP3 SWAP2 SWAP1 PUSH2 0x209A JUMP JUMPDEST PUSH1 0x40 MLOAD PUSH1 0x20 DUP2 DUP4 SUB SUB DUP2 MSTORE SWAP1 PUSH1 0x40 MSTORE SWAP1 PUSH28 0xFFFFFFFFFFFFFFFFFFFFFFFFFFFFFFFFFFFFFFFFFFFFFFFFFFFFFFFF NOT AND PUSH1 0x20 DUP3 ADD DUP1 MLOAD PUSH28 0xFFFFFFFFFFFFFFFFFFFFFFFFFFFFFFFFFFFFFFFFFFFFFFFFFFFFFFFF DUP4 DUP2 DUP4 AND OR DUP4 MSTORE POP POP POP POP PUSH2 0x1256 JUMP JUMPDEST POP POP POP JUMP JUMPDEST PUSH1 0x0 PUSH2 0x12B8 DUP3 PUSH1 0x40 MLOAD DUP1 PUSH1 0x40 ADD PUSH1 0x40 MSTORE DUP1 PUSH1 0x20 DUP2 MSTORE PUSH1 0x20 ADD PUSH32 0x5361666545524332303A206C6F772D6C6576656C2063616C6C206661696C6564 DUP2 MSTORE POP DUP6 PUSH20 0xFFFFFFFFFFFFFFFFFFFFFFFFFFFFFFFFFFFFFFFF AND PUSH2 0x131D SWAP1 SWAP3 SWAP2 SWAP1 PUSH4 0xFFFFFFFF AND JUMP JUMPDEST SWAP1 POP PUSH1 0x0 DUP2 MLOAD GT ISZERO PUSH2 0x1318 JUMPI DUP1 DUP1 PUSH1 0x20 ADD SWAP1 MLOAD DUP2 ADD SWAP1 PUSH2 0x12D8 SWAP2 SWAP1 PUSH2 0x20D8 JUMP JUMPDEST PUSH2 0x1317 JUMPI PUSH1 0x40 MLOAD PUSH32 0x8C379A000000000000000000000000000000000000000000000000000000000 DUP2 MSTORE PUSH1 0x4 ADD PUSH2 0x130E SWAP1 PUSH2 0x2177 JUMP JUMPDEST PUSH1 0x40 MLOAD DUP1 SWAP2 SUB SWAP1 REVERT JUMPDEST JUMPDEST POP POP POP JUMP JUMPDEST PUSH1 0x60 PUSH2 0x132C DUP5 DUP5 PUSH1 0x0 DUP6 PUSH2 0x1335 JUMP JUMPDEST SWAP1 POP SWAP4 SWAP3 POP POP POP JUMP JUMPDEST PUSH1 0x60 DUP3 SELFBALANCE LT ISZERO PUSH2 0x137A JUMPI PUSH1 0x40 MLOAD PUSH32 0x8C379A000000000000000000000000000000000000000000000000000000000 DUP2 MSTORE PUSH1 0x4 ADD PUSH2 0x1371 SWAP1 PUSH2 0x2209 JUMP JUMPDEST PUSH1 0x40 MLOAD DUP1 SWAP2 SUB SWAP1 REVERT JUMPDEST PUSH2 0x1383 DUP6 PUSH2 0x1449 JUMP JUMPDEST PUSH2 0x13C2 JUMPI PUSH1 0x40 MLOAD PUSH32 0x8C379A000000000000000000000000000000000000000000000000000000000 DUP2 MSTORE PUSH1 0x4 ADD PUSH2 0x13B9 SWAP1 PUSH2 0x2275 JUMP JUMPDEST PUSH1 0x40 MLOAD DUP1 SWAP2 SUB SWAP1 REVERT JUMPDEST PUSH1 0x0 DUP1 DUP7 PUSH20 0xFFFFFFFFFFFFFFFFFFFFFFFFFFFFFFFFFFFFFFFF AND DUP6 DUP8 PUSH1 0x40 MLOAD PUSH2 0x13EB SWAP2 SWAP1 PUSH2 0x2306 JUMP JUMPDEST PUSH1 0x0 PUSH1 0x40 MLOAD DUP1 DUP4 SUB DUP2 DUP6 DUP8 GAS CALL SWAP3 POP POP POP RETURNDATASIZE DUP1 PUSH1 0x0 DUP2 EQ PUSH2 0x1428 JUMPI PUSH1 0x40 MLOAD SWAP2 POP PUSH1 0x1F NOT PUSH1 0x3F RETURNDATASIZE ADD AND DUP3 ADD PUSH1 0x40 MSTORE RETURNDATASIZE DUP3 MSTORE RETURNDATASIZE PUSH1 0x0 PUSH1 0x20 DUP5 ADD RETURNDATACOPY PUSH2 0x142D JUMP JUMPDEST PUSH1 0x60 SWAP2 POP JUMPDEST POP SWAP2 POP SWAP2 POP PUSH2 0x143D DUP3 DUP3 DUP7 PUSH2 0x146C JUMP JUMPDEST SWAP3 POP POP POP SWAP5 SWAP4 POP POP POP POP JUMP JUMPDEST PUSH1 0x0 DUP1 DUP3 PUSH20 0xFFFFFFFFFFFFFFFFFFFFFFFFFFFFFFFFFFFFFFFF AND EXTCODESIZE GT SWAP1 POP SWAP2 SWAP1 POP JUMP JUMPDEST PUSH1 0x60 DUP4 ISZERO PUSH2 0x147C JUMPI DUP3 SWAP1 POP PUSH2 0x14CC JUMP JUMPDEST PUSH1 0x0 DUP4 MLOAD GT ISZERO PUSH2 0x148F JUMPI DUP3 MLOAD DUP1 DUP5 PUSH1 0x20 ADD REVERT JUMPDEST DUP2 PUSH1 0x40 MLOAD PUSH32 0x8C379A000000000000000000000000000000000000000000000000000000000 DUP2 MSTORE PUSH1 0x4 ADD PUSH2 0x14C3 SWAP2 SWAP1 PUSH2 0x2361 JUMP JUMPDEST PUSH1 0x40 MLOAD DUP1 SWAP2 SUB SWAP1 REVERT JUMPDEST SWAP4 SWAP3 POP POP POP JUMP JUMPDEST PUSH1 0x0 PUSH1 0x40 MLOAD SWAP1 POP SWAP1 JUMP JUMPDEST PUSH1 0x0 DUP1 REVERT JUMPDEST PUSH1 0x0 DUP1 REVERT JUMPDEST PUSH1 0x0 PUSH20 0xFFFFFFFFFFFFFFFFFFFFFFFFFFFFFFFFFFFFFFFF DUP3 AND SWAP1 POP SWAP2 SWAP1 POP JUMP JUMPDEST PUSH1 0x0 PUSH2 0x1512 DUP3 PUSH2 0x14E7 JUMP JUMPDEST SWAP1 POP SWAP2 SWAP1 POP JUMP JUMPDEST PUSH2 0x1522 DUP2 PUSH2 0x1507 JUMP JUMPDEST DUP2 EQ PUSH2 0x152D JUMPI PUSH1 0x0 DUP1 REVERT JUMPDEST POP JUMP JUMPDEST PUSH1 0x0 DUP2 CALLDATALOAD SWAP1 POP PUSH2 0x153F DUP2 PUSH2 0x1519 JUMP JUMPDEST SWAP3 SWAP2 POP POP JUMP JUMPDEST PUSH1 0x0 DUP1 REVERT JUMPDEST PUSH1 0x0 PUSH1 0x1F NOT PUSH1 0x1F DUP4 ADD AND SWAP1 POP SWAP2 SWAP1 POP JUMP JUMPDEST PUSH32 0x4E487B7100000000000000000000000000000000000000000000000000000000 PUSH1 0x0 MSTORE PUSH1 0x41 PUSH1 0x4 MSTORE PUSH1 0x24 PUSH1 0x0 REVERT JUMPDEST PUSH2 0x1593 DUP3 PUSH2 0x154A JUMP JUMPDEST DUP2 ADD DUP2 DUP2 LT PUSH8 0xFFFFFFFFFFFFFFFF DUP3 GT OR ISZERO PUSH2 0x15B2 JUMPI PUSH2 0x15B1 PUSH2 0x155B JUMP JUMPDEST JUMPDEST DUP1 PUSH1 0x40 MSTORE POP POP POP JUMP JUMPDEST PUSH1 0x0 PUSH2 0x15C5 PUSH2 0x14D3 JUMP JUMPDEST SWAP1 POP PUSH2 0x15D1 DUP3 DUP3 PUSH2 0x158A JUMP JUMPDEST SWAP2 SWAP1 POP JUMP JUMPDEST PUSH1 0x0 PUSH8 0xFFFFFFFFFFFFFFFF DUP3 GT ISZERO PUSH2 0x15F1 JUMPI PUSH2 0x15F0 PUSH2 0x155B JUMP JUMPDEST JUMPDEST PUSH1 0x20 DUP3 MUL SWAP1 POP PUSH1 0x20 DUP2 ADD SWAP1 POP SWAP2 SWAP1 POP JUMP JUMPDEST PUSH1 0x0 DUP1 REVERT JUMPDEST PUSH1 0x0 PUSH2 0x161A PUSH2 0x1615 DUP5 PUSH2 0x15D6 JUMP JUMPDEST PUSH2 0x15BB JUMP JUMPDEST SWAP1 POP DUP1 DUP4 DUP3 MSTORE PUSH1 0x20 DUP3 ADD SWAP1 POP PUSH1 0x20 DUP5 MUL DUP4 ADD DUP6 DUP2 GT ISZERO PUSH2 0x163D JUMPI PUSH2 0x163C PUSH2 0x1602 JUMP JUMPDEST JUMPDEST DUP4 JUMPDEST DUP2 DUP2 LT ISZERO PUSH2 0x1666 JUMPI DUP1 PUSH2 0x1652 DUP9 DUP3 PUSH2 0x1530 JUMP JUMPDEST DUP5 MSTORE PUSH1 0x20 DUP5 ADD SWAP4 POP POP PUSH1 0x20 DUP2 ADD SWAP1 POP PUSH2 0x163F JUMP JUMPDEST POP POP POP SWAP4 SWAP3 POP POP POP JUMP JUMPDEST PUSH1 0x0 DUP3 PUSH1 0x1F DUP4 ADD SLT PUSH2 0x1685 JUMPI PUSH2 0x1684 PUSH2 0x1545 JUMP JUMPDEST JUMPDEST DUP2 CALLDATALOAD PUSH2 0x1695 DUP5 DUP3 PUSH1 0x20 DUP7 ADD PUSH2 0x1607 JUMP JUMPDEST SWAP2 POP POP SWAP3 SWAP2 POP POP JUMP JUMPDEST PUSH1 0x0 PUSH8 0xFFFFFFFFFFFFFFFF DUP3 GT ISZERO PUSH2 0x16B9 JUMPI PUSH2 0x16B8 PUSH2 0x155B JUMP JUMPDEST JUMPDEST PUSH1 0x20 DUP3 MUL SWAP1 POP PUSH1 0x20 DUP2 ADD SWAP1 POP SWAP2 SWAP1 POP JUMP JUMPDEST PUSH1 0x0 DUP2 SWAP1 POP SWAP2 SWAP1 POP JUMP JUMPDEST PUSH2 0x16DD DUP2 PUSH2 0x16CA JUMP JUMPDEST DUP2 EQ PUSH2 0x16E8 JUMPI PUSH1 0x0 DUP1 REVERT JUMPDEST POP JUMP JUMPDEST PUSH1 0x0 DUP2 CALLDATALOAD SWAP1 POP PUSH2 0x16FA DUP2 PUSH2 0x16D4 JUMP JUMPDEST SWAP3 SWAP2 POP POP JUMP JUMPDEST PUSH1 0x0 PUSH2 0x1713 PUSH2 0x170E DUP5 PUSH2 0x169E JUMP JUMPDEST PUSH2 0x15BB JUMP JUMPDEST SWAP1 POP DUP1 DUP4 DUP3 MSTORE PUSH1 0x20 DUP3 ADD SWAP1 POP PUSH1 0x20 DUP5 MUL DUP4 ADD DUP6 DUP2 GT ISZERO PUSH2 0x1736 JUMPI PUSH2 0x1735 PUSH2 0x1602 JUMP JUMPDEST JUMPDEST DUP4 JUMPDEST DUP2 DUP2 LT ISZERO PUSH2 0x175F JUMPI DUP1 PUSH2 0x174B DUP9 DUP3 PUSH2 0x16EB JUMP JUMPDEST DUP5 MSTORE PUSH1 0x20 DUP5 ADD SWAP4 POP POP PUSH1 0x20 DUP2 ADD SWAP1 POP PUSH2 0x1738 JUMP JUMPDEST POP POP POP SWAP4 SWAP3 POP POP POP JUMP JUMPDEST PUSH1 0x0 DUP3 PUSH1 0x1F DUP4 ADD SLT PUSH2 0x177E JUMPI PUSH2 0x177D PUSH2 0x1545 JUMP JUMPDEST JUMPDEST DUP2 CALLDATALOAD PUSH2 0x178E DUP5 DUP3 PUSH1 0x20 DUP7 ADD PUSH2 0x1700 JUMP JUMPDEST SWAP2 POP POP SWAP3 SWAP2 POP POP JUMP JUMPDEST PUSH1 0x0 DUP1 PUSH1 0x0 DUP1 PUSH1 0x80 DUP6 DUP8 SUB SLT ISZERO PUSH2 0x17B1 JUMPI PUSH2 0x17B0 PUSH2 0x14DD JUMP JUMPDEST JUMPDEST PUSH1 0x0 PUSH2 0x17BF DUP8 DUP3 DUP9 ADD PUSH2 0x1530 JUMP JUMPDEST SWAP5 POP POP PUSH1 0x20 DUP6 ADD CALLDATALOAD PUSH8 0xFFFFFFFFFFFFFFFF DUP2 GT ISZERO PUSH2 0x17E0 JUMPI PUSH2 0x17DF PUSH2 0x14E2 JUMP JUMPDEST JUMPDEST PUSH2 0x17EC DUP8 DUP3 DUP9 ADD PUSH2 0x1670 JUMP JUMPDEST SWAP4 POP POP PUSH1 0x40 DUP6 ADD CALLDATALOAD PUSH8 0xFFFFFFFFFFFFFFFF DUP2 GT ISZERO PUSH2 0x180D JUMPI PUSH2 0x180C PUSH2 0x14E2 JUMP JUMPDEST JUMPDEST PUSH2 0x1819 DUP8 DUP3 DUP9 ADD PUSH2 0x1769 JUMP JUMPDEST SWAP3 POP POP PUSH1 0x60 PUSH2 0x182A DUP8 DUP3 DUP9 ADD PUSH2 0x16EB JUMP JUMPDEST SWAP2 POP POP SWAP3 SWAP6 SWAP2 SWAP5 POP SWAP3 POP JUMP JUMPDEST PUSH1 0x0 DUP1 PUSH1 0x0 PUSH1 0x60 DUP5 DUP7 SUB SLT ISZERO PUSH2 0x184F JUMPI PUSH2 0x184E PUSH2 0x14DD JUMP JUMPDEST JUMPDEST PUSH1 0x0 DUP5 ADD CALLDATALOAD PUSH8 0xFFFFFFFFFFFFFFFF DUP2 GT ISZERO PUSH2 0x186D JUMPI PUSH2 0x186C PUSH2 0x14E2 JUMP JUMPDEST JUMPDEST PUSH2 0x1879 DUP7 DUP3 DUP8 ADD PUSH2 0x1670 JUMP JUMPDEST SWAP4 POP POP PUSH1 0x20 DUP5 ADD CALLDATALOAD PUSH8 0xFFFFFFFFFFFFFFFF DUP2 GT ISZERO PUSH2 0x189A JUMPI PUSH2 0x1899 PUSH2 0x14E2 JUMP JUMPDEST JUMPDEST PUSH2 0x18A6 DUP7 DUP3 DUP8 ADD PUSH2 0x1769 JUMP JUMPDEST SWAP3 POP POP PUSH1 0x40 PUSH2 0x18B7 DUP7 DUP3 DUP8 ADD PUSH2 0x16EB JUMP JUMPDEST SWAP2 POP POP SWAP3 POP SWAP3 POP SWAP3 JUMP JUMPDEST PUSH1 0x0 DUP1 PUSH1 0x0 PUSH1 0x60 DUP5 DUP7 SUB SLT ISZERO PUSH2 0x18DA JUMPI PUSH2 0x18D9 PUSH2 0x14DD JUMP JUMPDEST JUMPDEST PUSH1 0x0 PUSH2 0x18E8 DUP7 DUP3 DUP8 ADD PUSH2 0x1530 JUMP JUMPDEST SWAP4 POP POP PUSH1 0x20 DUP5 ADD CALLDATALOAD PUSH8 0xFFFFFFFFFFFFFFFF DUP2 GT ISZERO PUSH2 0x1909 JUMPI PUSH2 0x1908 PUSH2 0x14E2 JUMP JUMPDEST JUMPDEST PUSH2 0x1915 DUP7 DUP3 DUP8 ADD PUSH2 0x1670 JUMP JUMPDEST SWAP3 POP POP PUSH1 0x40 DUP5 ADD CALLDATALOAD PUSH8 0xFFFFFFFFFFFFFFFF DUP2 GT ISZERO PUSH2 0x1936 JUMPI PUSH2 0x1935 PUSH2 0x14E2 JUMP JUMPDEST JUMPDEST PUSH2 0x1942 DUP7 DUP3 DUP8 ADD PUSH2 0x1769 JUMP JUMPDEST SWAP2 POP POP SWAP3 POP SWAP3 POP SWAP3 JUMP JUMPDEST PUSH1 0x0 DUP1 PUSH1 0x0 DUP1 PUSH1 0x80 DUP6 DUP8 SUB SLT ISZERO PUSH2 0x1966 JUMPI PUSH2 0x1965 PUSH2 0x14DD JUMP JUMPDEST JUMPDEST PUSH1 0x0 PUSH2 0x1974 DUP8 DUP3 DUP9 ADD PUSH2 0x1530 JUMP JUMPDEST SWAP5 POP POP PUSH1 0x20 DUP6 ADD CALLDATALOAD PUSH8 0xFFFFFFFFFFFFFFFF DUP2 GT ISZERO PUSH2 0x1995 JUMPI PUSH2 0x1994 PUSH2 0x14E2 JUMP JUMPDEST JUMPDEST PUSH2 0x19A1 DUP8 DUP3 DUP9 ADD PUSH2 0x1670 JUMP JUMPDEST SWAP4 POP POP PUSH1 0x40 PUSH2 0x19B2 DUP8 DUP3 DUP9 ADD PUSH2 0x16EB JUMP JUMPDEST SWAP3 POP POP PUSH1 0x60 PUSH2 0x19C3 DUP8 DUP3 DUP9 ADD PUSH2 0x16EB JUMP JUMPDEST SWAP2 POP POP SWAP3 SWAP6 SWAP2 SWAP5 POP SWAP3 POP JUMP JUMPDEST PUSH1 0x0 DUP1 PUSH1 0x40 DUP4 DUP6 SUB SLT ISZERO PUSH2 0x19E6 JUMPI PUSH2 0x19E5 PUSH2 0x14DD JUMP JUMPDEST JUMPDEST PUSH1 0x0 DUP4 ADD CALLDATALOAD PUSH8 0xFFFFFFFFFFFFFFFF DUP2 GT ISZERO PUSH2 0x1A04 JUMPI PUSH2 0x1A03 PUSH2 0x14E2 JUMP JUMPDEST JUMPDEST PUSH2 0x1A10 DUP6 DUP3 DUP7 ADD PUSH2 0x1670 JUMP JUMPDEST SWAP3 POP POP PUSH1 0x20 PUSH2 0x1A21 DUP6 DUP3 DUP7 ADD PUSH2 0x16EB JUMP JUMPDEST SWAP2 POP POP SWAP3 POP SWAP3 SWAP1 POP JUMP JUMPDEST PUSH1 0x0 DUP2 ISZERO ISZERO SWAP1 POP SWAP2 SWAP1 POP JUMP JUMPDEST PUSH2 0x1A40 DUP2 PUSH2 0x1A2B JUMP JUMPDEST DUP2 EQ PUSH2 0x1A4B JUMPI PUSH1 0x0 DUP1 REVERT JUMPDEST POP JUMP JUMPDEST PUSH1 0x0 DUP2 CALLDATALOAD SWAP1 POP PUSH2 0x1A5D DUP2 PUSH2 0x1A37 JUMP JUMPDEST SWAP3 SWAP2 POP POP JUMP JUMPDEST PUSH1 0x0 DUP1 PUSH1 0x40 DUP4 DUP6 SUB SLT ISZERO PUSH2 0x1A7A JUMPI PUSH2 0x1A79 PUSH2 0x14DD JUMP JUMPDEST JUMPDEST PUSH1 0x0 DUP4 ADD CALLDATALOAD PUSH8 0xFFFFFFFFFFFFFFFF DUP2 GT ISZERO PUSH2 0x1A98 JUMPI PUSH2 0x1A97 PUSH2 0x14E2 JUMP JUMPDEST JUMPDEST PUSH2 0x1AA4 DUP6 DUP3 DUP7 ADD PUSH2 0x1670 JUMP JUMPDEST SWAP3 POP POP PUSH1 0x20 PUSH2 0x1AB5 DUP6 DUP3 DUP7 ADD PUSH2 0x1A4E JUMP JUMPDEST SWAP2 POP POP SWAP3 POP SWAP3 SWAP1 POP JUMP JUMPDEST PUSH1 0x0 DUP1 PUSH1 0x40 DUP4 DUP6 SUB SLT ISZERO PUSH2 0x1AD6 JUMPI PUSH2 0x1AD5 PUSH2 0x14DD JUMP JUMPDEST JUMPDEST PUSH1 0x0 DUP4 ADD CALLDATALOAD PUSH8 0xFFFFFFFFFFFFFFFF DUP2 GT ISZERO PUSH2 0x1AF4 JUMPI PUSH2 0x1AF3 PUSH2 0x14E2 JUMP JUMPDEST JUMPDEST PUSH2 0x1B00 DUP6 DUP3 DUP7 ADD PUSH2 0x1670 JUMP JUMPDEST SWAP3 POP POP PUSH1 0x20 DUP4 ADD CALLDATALOAD PUSH8 0xFFFFFFFFFFFFFFFF DUP2 GT ISZERO PUSH2 0x1B21 JUMPI PUSH2 0x1B20 PUSH2 0x14E2 JUMP JUMPDEST JUMPDEST PUSH2 0x1B2D DUP6 DUP3 DUP7 ADD PUSH2 0x1769 JUMP JUMPDEST SWAP2 POP POP SWAP3 POP SWAP3 SWAP1 POP JUMP JUMPDEST PUSH1 0x0 DUP1 PUSH1 0x0 PUSH1 0x60 DUP5 DUP7 SUB SLT ISZERO PUSH2 0x1B50 JUMPI PUSH2 0x1B4F PUSH2 0x14DD JUMP JUMPDEST JUMPDEST PUSH1 0x0 DUP5 ADD CALLDATALOAD PUSH8 0xFFFFFFFFFFFFFFFF DUP2 GT ISZERO PUSH2 0x1B6E JUMPI PUSH2 0x1B6D PUSH2 0x14E2 JUMP JUMPDEST JUMPDEST PUSH2 0x1B7A DUP7 DUP3 DUP8 ADD PUSH2 0x1670 JUMP JUMPDEST SWAP4 POP POP PUSH1 0x20 PUSH2 0x1B8B DUP7 DUP3 DUP8 ADD PUSH2 0x16EB JUMP JUMPDEST SWAP3 POP POP PUSH1 0x40 PUSH2 0x1B9C DUP7 DUP3 DUP8 ADD PUSH2 0x16EB JUMP JUMPDEST SWAP2 POP POP SWAP3 POP SWAP3 POP SWAP3 JUMP JUMPDEST PUSH1 0x0 DUP1 PUSH1 0x0 PUSH1 0x60 DUP5 DUP7 SUB SLT ISZERO PUSH2 0x1BBF JUMPI PUSH2 0x1BBE PUSH2 0x14DD JUMP JUMPDEST JUMPDEST PUSH1 0x0 PUSH2 0x1BCD DUP7 DUP3 DUP8 ADD PUSH2 0x1530 JUMP JUMPDEST SWAP4 POP POP PUSH1 0x20 DUP5 ADD CALLDATALOAD PUSH8 0xFFFFFFFFFFFFFFFF DUP2 GT ISZERO PUSH2 0x1BEE JUMPI PUSH2 0x1BED PUSH2 0x14E2 JUMP JUMPDEST JUMPDEST PUSH2 0x1BFA DUP7 DUP3 DUP8 ADD PUSH2 0x1670 JUMP JUMPDEST SWAP3 POP POP PUSH1 0x40 PUSH2 0x1C0B DUP7 DUP3 DUP8 ADD PUSH2 0x16EB JUMP JUMPDEST SWAP2 POP POP SWAP3 POP SWAP3 POP SWAP3 JUMP JUMPDEST PUSH1 0x0 DUP3 DUP3 MSTORE PUSH1 0x20 DUP3 ADD SWAP1 POP SWAP3 SWAP2 POP POP JUMP JUMPDEST PUSH32 0x4F6E6C79206F776E65722063616E20646F206974000000000000000000000000 PUSH1 0x0 DUP3 ADD MSTORE POP JUMP JUMPDEST PUSH1 0x0 PUSH2 0x1C5C PUSH1 0x14 DUP4 PUSH2 0x1C15 JUMP JUMPDEST SWAP2 POP PUSH2 0x1C67 DUP3 PUSH2 0x1C26 JUMP JUMPDEST PUSH1 0x20 DUP3 ADD SWAP1 POP SWAP2 SWAP1 POP JUMP JUMPDEST PUSH1 0x0 PUSH1 0x20 DUP3 ADD SWAP1 POP DUP2 DUP2 SUB PUSH1 0x0 DUP4 ADD MSTORE PUSH2 0x1C8B DUP2 PUSH2 0x1C4F JUMP JUMPDEST SWAP1 POP SWAP2 SWAP1 POP JUMP JUMPDEST PUSH32 0x4E487B7100000000000000000000000000000000000000000000000000000000 PUSH1 0x0 MSTORE PUSH1 0x11 PUSH1 0x4 MSTORE PUSH1 0x24 PUSH1 0x0 REVERT JUMPDEST PUSH1 0x0 PUSH2 0x1CCC DUP3 PUSH2 0x16CA JUMP JUMPDEST SWAP2 POP PUSH2 0x1CD7 DUP4 PUSH2 0x16CA JUMP JUMPDEST SWAP3 POP DUP3 DUP3 SUB SWAP1 POP DUP2 DUP2 GT ISZERO PUSH2 0x1CEF JUMPI PUSH2 0x1CEE PUSH2 0x1C92 JUMP JUMPDEST JUMPDEST SWAP3 SWAP2 POP POP JUMP JUMPDEST PUSH1 0x0 DUP2 PUSH1 0x1 SHR SWAP1 POP SWAP2 SWAP1 POP JUMP JUMPDEST PUSH1 0x0 DUP1 DUP3 SWAP2 POP DUP4 SWAP1 POP JUMPDEST PUSH1 0x1 DUP6 GT ISZERO PUSH2 0x1D4C JUMPI DUP1 DUP7 DIV DUP2 GT ISZERO PUSH2 0x1D28 JUMPI PUSH2 0x1D27 PUSH2 0x1C92 JUMP JUMPDEST JUMPDEST PUSH1 0x1 DUP6 AND ISZERO PUSH2 0x1D37 JUMPI DUP1 DUP3 MUL SWAP2 POP JUMPDEST DUP1 DUP2 MUL SWAP1 POP PUSH2 0x1D45 DUP6 PUSH2 0x1CF5 JUMP JUMPDEST SWAP5 POP PUSH2 0x1D0C JUMP JUMPDEST SWAP5 POP SWAP5 SWAP3 POP POP POP JUMP JUMPDEST PUSH1 0x0 DUP3 PUSH2 0x1D65 JUMPI PUSH1 0x1 SWAP1 POP PUSH2 0x1E21 JUMP JUMPDEST DUP2 PUSH2 0x1D73 JUMPI PUSH1 0x0 SWAP1 POP PUSH2 0x1E21 JUMP JUMPDEST DUP2 PUSH1 0x1 DUP2 EQ PUSH2 0x1D89 JUMPI PUSH1 0x2 DUP2 EQ PUSH2 0x1D93 JUMPI PUSH2 0x1DC2 JUMP JUMPDEST PUSH1 0x1 SWAP2 POP POP PUSH2 0x1E21 JUMP JUMPDEST PUSH1 0xFF DUP5 GT ISZERO PUSH2 0x1DA5 JUMPI PUSH2 0x1DA4 PUSH2 0x1C92 JUMP JUMPDEST JUMPDEST DUP4 PUSH1 0x2 EXP SWAP2 POP DUP5 DUP3 GT ISZERO PUSH2 0x1DBC JUMPI PUSH2 0x1DBB PUSH2 0x1C92 JUMP JUMPDEST JUMPDEST POP PUSH2 0x1E21 JUMP JUMPDEST POP PUSH1 0x20 DUP4 LT PUSH2 0x133 DUP4 LT AND PUSH1 0x4E DUP5 LT PUSH1 0xB DUP5 LT AND OR ISZERO PUSH2 0x1DF7 JUMPI DUP3 DUP3 EXP SWAP1 POP DUP4 DUP2 GT ISZERO PUSH2 0x1DF2 JUMPI PUSH2 0x1DF1 PUSH2 0x1C92 JUMP JUMPDEST JUMPDEST PUSH2 0x1E21 JUMP JUMPDEST PUSH2 0x1E04 DUP5 DUP5 DUP5 PUSH1 0x1 PUSH2 0x1D02 JUMP JUMPDEST SWAP3 POP SWAP1 POP DUP2 DUP5 DIV DUP2 GT ISZERO PUSH2 0x1E1B JUMPI PUSH2 0x1E1A PUSH2 0x1C92 JUMP JUMPDEST JUMPDEST DUP2 DUP2 MUL SWAP1 POP JUMPDEST SWAP4 SWAP3 POP POP POP JUMP JUMPDEST PUSH1 0x0 PUSH2 0x1E33 DUP3 PUSH2 0x16CA JUMP JUMPDEST SWAP2 POP PUSH2 0x1E3E DUP4 PUSH2 0x16CA JUMP JUMPDEST SWAP3 POP PUSH2 0x1E6B PUSH32 0xFFFFFFFFFFFFFFFFFFFFFFFFFFFFFFFFFFFFFFFFFFFFFFFFFFFFFFFFFFFFFFFF DUP5 DUP5 PUSH2 0x1D55 JUMP JUMPDEST SWAP1 POP SWAP3 SWAP2 POP POP JUMP JUMPDEST PUSH32 0x4E487B7100000000000000000000000000000000000000000000000000000000 PUSH1 0x0 MSTORE PUSH1 0x32 PUSH1 0x4 MSTORE PUSH1 0x24 PUSH1 0x0 REVERT JUMPDEST PUSH1 0x0 PUSH2 0x1EAD DUP3 PUSH2 0x16CA JUMP JUMPDEST SWAP2 POP PUSH2 0x1EB8 DUP4 PUSH2 0x16CA JUMP JUMPDEST SWAP3 POP DUP3 DUP3 MUL PUSH2 0x1EC6 DUP2 PUSH2 0x16CA JUMP JUMPDEST SWAP2 POP DUP3 DUP3 DIV DUP5 EQ DUP4 ISZERO OR PUSH2 0x1EDD JUMPI PUSH2 0x1EDC PUSH2 0x1C92 JUMP JUMPDEST JUMPDEST POP SWAP3 SWAP2 POP POP JUMP JUMPDEST PUSH2 0x1EED DUP2 PUSH2 0x1507 JUMP JUMPDEST DUP3 MSTORE POP POP JUMP JUMPDEST PUSH1 0x0 PUSH1 0x20 DUP3 ADD SWAP1 POP PUSH2 0x1F08 PUSH1 0x0 DUP4 ADD DUP5 PUSH2 0x1EE4 JUMP JUMPDEST SWAP3 SWAP2 POP POP JUMP JUMPDEST PUSH1 0x0 DUP2 MLOAD SWAP1 POP PUSH2 0x1F1D DUP2 PUSH2 0x16D4 JUMP JUMPDEST SWAP3 SWAP2 POP POP JUMP JUMPDEST PUSH1 0x0 PUSH1 0x20 DUP3 DUP5 SUB SLT ISZERO PUSH2 0x1F39 JUMPI PUSH2 0x1F38 PUSH2 0x14DD JUMP JUMPDEST JUMPDEST PUSH1 0x0 PUSH2 0x1F47 DUP5 DUP3 DUP6 ADD PUSH2 0x1F0E JUMP JUMPDEST SWAP2 POP POP SWAP3 SWAP2 POP POP JUMP JUMPDEST PUSH1 0x0 PUSH2 0x1F5B DUP3 PUSH2 0x16CA JUMP JUMPDEST SWAP2 POP PUSH32 0xFFFFFFFFFFFFFFFFFFFFFFFFFFFFFFFFFFFFFFFFFFFFFFFFFFFFFFFFFFFFFFFF DUP3 SUB PUSH2 0x1F8D JUMPI PUSH2 0x1F8C PUSH2 0x1C92 JUMP JUMPDEST JUMPDEST PUSH1 0x1 DUP3 ADD SWAP1 POP SWAP2 SWAP1 POP JUMP JUMPDEST PUSH32 0x4F6E6C792061646D696E2063616E20646F206974000000000000000000000000 PUSH1 0x0 DUP3 ADD MSTORE POP JUMP JUMPDEST PUSH1 0x0 PUSH2 0x1FCE PUSH1 0x14 DUP4 PUSH2 0x1C15 JUMP JUMPDEST SWAP2 POP PUSH2 0x1FD9 DUP3 PUSH2 0x1F98 JUMP JUMPDEST PUSH1 0x20 DUP3 ADD SWAP1 POP SWAP2 SWAP1 POP JUMP JUMPDEST PUSH1 0x0 PUSH1 0x20 DUP3 ADD SWAP1 POP DUP2 DUP2 SUB PUSH1 0x0 DUP4 ADD MSTORE PUSH2 0x1FFD DUP2 PUSH2 0x1FC1 JUMP JUMPDEST SWAP1 POP SWAP2 SWAP1 POP JUMP JUMPDEST PUSH32 0x446563696D616C73206D757374206265206C657373207468616E203138000000 PUSH1 0x0 DUP3 ADD MSTORE POP JUMP JUMPDEST PUSH1 0x0 PUSH2 0x203A PUSH1 0x1D DUP4 PUSH2 0x1C15 JUMP JUMPDEST SWAP2 POP PUSH2 0x2045 DUP3 PUSH2 0x2004 JUMP JUMPDEST PUSH1 0x20 DUP3 ADD SWAP1 POP SWAP2 SWAP1 POP JUMP JUMPDEST PUSH1 0x0 PUSH1 0x20 DUP3 ADD SWAP1 POP DUP2 DUP2 SUB PUSH1 0x0 DUP4 ADD MSTORE PUSH2 0x2069 DUP2 PUSH2 0x202D JUMP JUMPDEST SWAP1 POP SWAP2 SWAP1 POP JUMP JUMPDEST PUSH2 0x2079 DUP2 PUSH2 0x16CA JUMP JUMPDEST DUP3 MSTORE POP POP JUMP JUMPDEST PUSH1 0x0 PUSH1 0x20 DUP3 ADD SWAP1 POP PUSH2 0x2094 PUSH1 0x0 DUP4 ADD DUP5 PUSH2 0x2070 JUMP JUMPDEST SWAP3 SWAP2 POP POP JUMP JUMPDEST PUSH1 0x0 PUSH1 0x40 DUP3 ADD SWAP1 POP PUSH2 0x20AF PUSH1 0x0 DUP4 ADD DUP6 PUSH2 0x1EE4 JUMP JUMPDEST PUSH2 0x20BC PUSH1 0x20 DUP4 ADD DUP5 PUSH2 0x2070 JUMP JUMPDEST SWAP4 SWAP3 POP POP POP JUMP JUMPDEST PUSH1 0x0 DUP2 MLOAD SWAP1 POP PUSH2 0x20D2 DUP2 PUSH2 0x1A37 JUMP JUMPDEST SWAP3 SWAP2 POP POP JUMP JUMPDEST PUSH1 0x0 PUSH1 0x20 DUP3 DUP5 SUB SLT ISZERO PUSH2 0x20EE JUMPI PUSH2 0x20ED PUSH2 0x14DD JUMP JUMPDEST JUMPDEST PUSH1 0x0 PUSH2 0x20FC DUP5 DUP3 DUP6 ADD PUSH2 0x20C3 JUMP JUMPDEST SWAP2 POP POP SWAP3 SWAP2 POP POP JUMP JUMPDEST PUSH32 0x5361666545524332303A204552433230206F7065726174696F6E20646964206E PUSH1 0x0 DUP3 ADD MSTORE PUSH32 0x6F74207375636365656400000000000000000000000000000000000000000000 PUSH1 0x20 DUP3 ADD MSTORE POP JUMP JUMPDEST PUSH1 0x0 PUSH2 0x2161 PUSH1 0x2A DUP4 PUSH2 0x1C15 JUMP JUMPDEST SWAP2 POP PUSH2 0x216C DUP3 PUSH2 0x2105 JUMP JUMPDEST PUSH1 0x40 DUP3 ADD SWAP1 POP SWAP2 SWAP1 POP JUMP JUMPDEST PUSH1 0x0 PUSH1 0x20 DUP3 ADD SWAP1 POP DUP2 DUP2 SUB PUSH1 0x0 DUP4 ADD MSTORE PUSH2 0x2190 DUP2 PUSH2 0x2154 JUMP JUMPDEST SWAP1 POP SWAP2 SWAP1 POP JUMP JUMPDEST PUSH32 0x416464726573733A20696E73756666696369656E742062616C616E636520666F PUSH1 0x0 DUP3 ADD MSTORE PUSH32 0x722063616C6C0000000000000000000000000000000000000000000000000000 PUSH1 0x20 DUP3 ADD MSTORE POP JUMP JUMPDEST PUSH1 0x0 PUSH2 0x21F3 PUSH1 0x26 DUP4 PUSH2 0x1C15 JUMP JUMPDEST SWAP2 POP PUSH2 0x21FE DUP3 PUSH2 0x2197 JUMP JUMPDEST PUSH1 0x40 DUP3 ADD SWAP1 POP SWAP2 SWAP1 POP JUMP JUMPDEST PUSH1 0x0 PUSH1 0x20 DUP3 ADD SWAP1 POP DUP2 DUP2 SUB PUSH1 0x0 DUP4 ADD MSTORE PUSH2 0x2222 DUP2 PUSH2 0x21E6 JUMP JUMPDEST SWAP1 POP SWAP2 SWAP1 POP JUMP JUMPDEST PUSH32 0x416464726573733A2063616C6C20746F206E6F6E2D636F6E7472616374000000 PUSH1 0x0 DUP3 ADD MSTORE POP JUMP JUMPDEST PUSH1 0x0 PUSH2 0x225F PUSH1 0x1D DUP4 PUSH2 0x1C15 JUMP JUMPDEST SWAP2 POP PUSH2 0x226A DUP3 PUSH2 0x2229 JUMP JUMPDEST PUSH1 0x20 DUP3 ADD SWAP1 POP SWAP2 SWAP1 POP JUMP JUMPDEST PUSH1 0x0 PUSH1 0x20 DUP3 ADD SWAP1 POP DUP2 DUP2 SUB PUSH1 0x0 DUP4 ADD MSTORE PUSH2 0x228E DUP2 PUSH2 0x2252 JUMP JUMPDEST SWAP1 POP SWAP2 SWAP1 POP JUMP JUMPDEST PUSH1 0x0 DUP2 MLOAD SWAP1 POP SWAP2 SWAP1 POP JUMP JUMPDEST PUSH1 0x0 DUP2 SWAP1 POP SWAP3 SWAP2 POP POP JUMP JUMPDEST PUSH1 0x0 JUMPDEST DUP4 DUP2 LT ISZERO PUSH2 0x22C9 JUMPI DUP1 DUP3 ADD MLOAD DUP2 DUP5 ADD MSTORE PUSH1 0x20 DUP2 ADD SWAP1 POP PUSH2 0x22AE JUMP JUMPDEST PUSH1 0x0 DUP5 DUP5 ADD MSTORE POP POP POP POP JUMP JUMPDEST PUSH1 0x0 PUSH2 0x22E0 DUP3 PUSH2 0x2295 JUMP JUMPDEST PUSH2 0x22EA DUP2 DUP6 PUSH2 0x22A0 JUMP JUMPDEST SWAP4 POP PUSH2 0x22FA DUP2 DUP6 PUSH1 0x20 DUP7 ADD PUSH2 0x22AB JUMP JUMPDEST DUP1 DUP5 ADD SWAP2 POP POP SWAP3 SWAP2 POP POP JUMP JUMPDEST PUSH1 0x0 PUSH2 0x2312 DUP3 DUP5 PUSH2 0x22D5 JUMP JUMPDEST SWAP2 POP DUP2 SWAP1 POP SWAP3 SWAP2 POP POP JUMP JUMPDEST PUSH1 0x0 DUP2 MLOAD SWAP1 POP SWAP2 SWAP1 POP JUMP JUMPDEST PUSH1 0x0 PUSH2 0x2333 DUP3 PUSH2 0x231D JUMP JUMPDEST PUSH2 0x233D DUP2 DUP6 PUSH2 0x1C15 JUMP JUMPDEST SWAP4 POP PUSH2 0x234D DUP2 DUP6 PUSH1 0x20 DUP7 ADD PUSH2 0x22AB JUMP JUMPDEST PUSH2 0x2356 DUP2 PUSH2 0x154A JUMP JUMPDEST DUP5 ADD SWAP2 POP POP SWAP3 SWAP2 POP POP JUMP JUMPDEST PUSH1 0x0 PUSH1 0x20 DUP3 ADD SWAP1 POP DUP2 DUP2 SUB PUSH1 0x0 DUP4 ADD MSTORE PUSH2 0x237B DUP2 DUP5 PUSH2 0x2328 JUMP JUMPDEST SWAP1 POP SWAP3 SWAP2 POP POP JUMP INVALID LOG2 PUSH5 0x6970667358 0x22 SLT KECCAK256 PUSH31 0x705FA836497B2C53A0271AA98B30284F72726F3E8AF9B52243D7E07268C154 PUSH5 0x736F6C6343 STOP ADDMOD GT STOP CALLER "
				},
				"gasEstimates": {
					"creation": {
						"codeDepositCost": "1829000",
						"executionCost": "50548",
						"totalCost": "1879548"
					},
					"external": {
						"Handout(address,address[],uint256)": "infinite",
						"Handout(address,address[],uint256,uint256)": "infinite",
						"Handout(address,address[],uint256[])": "infinite",
						"Handout(address,address[],uint256[],uint256)": "infinite",
						"Handout(address[],uint256)": "infinite",
						"Handout(address[],uint256,uint256)": "infinite",
						"Handout(address[],uint256[])": "infinite",
						"Handout(address[],uint256[],uint256)": "infinite",
						"setAdmin(address[],bool)": "infinite"
					}
				},
				"methodIdentifiers": {
					"Handout(address,address[],uint256)": "ee09d588",
					"Handout(address,address[],uint256,uint256)": "3d14a922",
					"Handout(address,address[],uint256[])": "36df0db0",
					"Handout(address,address[],uint256[],uint256)": "0af10131",
					"Handout(address[],uint256)": "676d0b79",
					"Handout(address[],uint256,uint256)": "ea778da7",
					"Handout(address[],uint256[])": "8ff6d1d8",
					"Handout(address[],uint256[],uint256)": "23a04ae1",
					"setAdmin(address[],bool)": "84e7686b"
				}
			},
			"storageLayout": {
				"storage": [
					{
						"astId": 587,
						"contract": "contracts/HandoutPool.sol:HandoutPoolContract",
						"label": "_owner",
						"offset": 0,
						"slot": "0",
						"type": "t_address"
					},
					{
						"astId": 591,
						"contract": "contracts/HandoutPool.sol:HandoutPoolContract",
						"label": "_admins",
						"offset": 0,
						"slot": "1",
						"type": "t_mapping(t_address,t_bool)"
					}
				],
				"types": {
					"t_address": {
						"encoding": "inplace",
						"label": "address",
						"numberOfBytes": "20"
					},
					"t_bool": {
						"encoding": "inplace",
						"label": "bool",
						"numberOfBytes": "1"
					},
					"t_mapping(t_address,t_bool)": {
						"encoding": "mapping",
						"key": "t_address",
						"label": "mapping(address => bool)",
						"numberOfBytes": "32",
						"value": "t_bool"
					}
				}
			},
			"userdoc": {
				"kind": "user",
				"methods": {},
				"version": 1
			}
		}
	}
}