{
	"contracts/CenterContract.sol": {
		"CenterContract": {
			"abi": [
				{
					"anonymous": false,
					"inputs": [
						{
							"indexed": true,
							"internalType": "address",
							"name": "previousOwner",
							"type": "address"
						},
						{
							"indexed": true,
							"internalType": "address",
							"name": "newOwner",
							"type": "address"
						}
					],
					"name": "OwnershipTransferred",
					"type": "event"
				},
				{
					"inputs": [
						{
							"internalType": "address",
							"name": "_admin",
							"type": "address"
						}
					],
					"name": "addAdmin",
					"outputs": [],
					"stateMutability": "nonpayable",
					"type": "function"
				},
				{
					"inputs": [
						{
							"internalType": "address",
							"name": "_server",
							"type": "address"
						}
					],
					"name": "addServer",
					"outputs": [],
					"stateMutability": "nonpayable",
					"type": "function"
				},
				{
					"inputs": [],
					"name": "approveStake",
					"outputs": [],
					"stateMutability": "nonpayable",
					"type": "function"
				},
				{
					"inputs": [
						{
							"internalType": "address",
							"name": "_admin",
							"type": "address"
						}
					],
					"name": "delAdmin",
					"outputs": [],
					"stateMutability": "nonpayable",
					"type": "function"
				},
				{
					"inputs": [
						{
							"internalType": "address",
							"name": "_server",
							"type": "address"
						}
					],
					"name": "delServer",
					"outputs": [],
					"stateMutability": "nonpayable",
					"type": "function"
				},
				{
					"inputs": [],
					"name": "getCurrentDayTimestamp",
					"outputs": [
						{
							"internalType": "uint256",
							"name": "",
							"type": "uint256"
						}
					],
					"stateMutability": "view",
					"type": "function"
				},
				{
					"inputs": [
						{
							"internalType": "address",
							"name": "stake",
							"type": "address"
						}
					],
					"name": "initContract",
					"outputs": [],
					"stateMutability": "nonpayable",
					"type": "function"
				},
				{
					"inputs": [
						{
							"internalType": "address",
							"name": "erc20Token",
							"type": "address"
						},
						{
							"internalType": "address",
							"name": "consAddress",
							"type": "address"
						}
					],
					"name": "initToken",
					"outputs": [
						{
							"internalType": "bool",
							"name": "",
							"type": "bool"
						}
					],
					"stateMutability": "nonpayable",
					"type": "function"
				},
				{
					"inputs": [
						{
							"internalType": "address",
							"name": "_addr",
							"type": "address"
						}
					],
					"name": "isAdmin",
					"outputs": [
						{
							"internalType": "bool",
							"name": "",
							"type": "bool"
						}
					],
					"stateMutability": "view",
					"type": "function"
				},
				{
					"inputs": [
						{
							"internalType": "address",
							"name": "_server",
							"type": "address"
						}
					],
					"name": "isServer",
					"outputs": [
						{
							"internalType": "bool",
							"name": "",
							"type": "bool"
						}
					],
					"stateMutability": "view",
					"type": "function"
				},
				{
					"inputs": [
						{
							"internalType": "uint256",
							"name": "value",
							"type": "uint256"
						}
					],
					"name": "mid",
					"outputs": [
						{
							"internalType": "uint256",
							"name": "",
							"type": "uint256"
						}
					],
					"stateMutability": "pure",
					"type": "function"
				},
				{
					"inputs": [],
					"name": "owner",
					"outputs": [
						{
							"internalType": "address",
							"name": "",
							"type": "address"
						}
					],
					"stateMutability": "view",
					"type": "function"
				},
				{
					"inputs": [],
					"name": "renounceOwnership",
					"outputs": [],
					"stateMutability": "nonpayable",
					"type": "function"
				},
				{
					"inputs": [
						{
							"internalType": "address",
							"name": "newOwner",
							"type": "address"
						}
					],
					"name": "transferOwnership",
					"outputs": [],
					"stateMutability": "nonpayable",
					"type": "function"
				}
			],
			"devdoc": {
				"kind": "dev",
				"methods": {
					"owner()": {
						"details": "Returns the address of the current owner."
					},
					"renounceOwnership()": {
						"details": "Leaves the contract without owner. It will not be possible to call `onlyOwner` functions anymore. Can only be called by the current owner. NOTE: Renouncing ownership will leave the contract without an owner, thereby removing any functionality that is only available to the owner."
					},
					"transferOwnership(address)": {
						"details": "Transfers ownership of the contract to a new account (`newOwner`). Can only be called by the current owner."
					}
				},
				"version": 1
			},
			"evm": {
				"assembly": "    /* \"contracts/CenterContract.sol\":205:982  contract CenterContract is Server {... */\n  mstore(0x40, 0x80)\n  callvalue\n  dup1\n  iszero\n  tag_1\n  jumpi\n  0x00\n  dup1\n  revert\ntag_1:\n  pop\n    /* \"@openzeppelin/contracts/access/Ownable.sol\":936:968  _transferOwnership(_msgSender()) */\n  tag_4\n    /* \"@openzeppelin/contracts/access/Ownable.sol\":955:967  _msgSender() */\n  tag_5\n    /* \"@openzeppelin/contracts/access/Ownable.sol\":955:965  _msgSender */\n  shl(0x20, tag_6)\n    /* \"@openzeppelin/contracts/access/Ownable.sol\":955:967  _msgSender() */\n  0x20\n  shr\n  jump\t// in\ntag_5:\n    /* \"@openzeppelin/contracts/access/Ownable.sol\":936:954  _transferOwnership */\n  shl(0x20, tag_7)\n    /* \"@openzeppelin/contracts/access/Ownable.sol\":936:968  _transferOwnership(_msgSender()) */\n  0x20\n  shr\n  jump\t// in\ntag_4:\n    /* \"contracts/CenterContract.sol\":205:982  contract CenterContract is Server {... */\n  jump(tag_8)\n    /* \"@openzeppelin/contracts/utils/Context.sol\":640:736  function _msgSender() internal view virtual returns (address) {... */\ntag_6:\n    /* \"@openzeppelin/contracts/utils/Context.sol\":693:700  address */\n  0x00\n    /* \"@openzeppelin/contracts/utils/Context.sol\":719:729  msg.sender */\n  caller\n    /* \"@openzeppelin/contracts/utils/Context.sol\":712:729  return msg.sender */\n  swap1\n  pop\n    /* \"@openzeppelin/contracts/utils/Context.sol\":640:736  function _msgSender() internal view virtual returns (address) {... */\n  swap1\n  jump\t// out\n    /* \"@openzeppelin/contracts/access/Ownable.sol\":2433:2620  function _transferOwnership(address newOwner) internal virtual {... */\ntag_7:\n    /* \"@openzeppelin/contracts/access/Ownable.sol\":2506:2522  address oldOwner */\n  0x00\n    /* \"@openzeppelin/contracts/access/Ownable.sol\":2525:2531  _owner */\n  dup1\n  0x00\n  swap1\n  sload\n  swap1\n  0x0100\n  exp\n  swap1\n  div\n  0xffffffffffffffffffffffffffffffffffffffff\n  and\n    /* \"@openzeppelin/contracts/access/Ownable.sol\":2506:2531  address oldOwner = _owner */\n  swap1\n  pop\n    /* \"@openzeppelin/contracts/access/Ownable.sol\":2550:2558  newOwner */\n  dup2\n    /* \"@openzeppelin/contracts/access/Ownable.sol\":2541:2547  _owner */\n  0x00\n  dup1\n    /* \"@openzeppelin/contracts/access/Ownable.sol\":2541:2558  _owner = newOwner */\n  0x0100\n  exp\n  dup2\n  sload\n  dup2\n  0xffffffffffffffffffffffffffffffffffffffff\n  mul\n  not\n  and\n  swap1\n  dup4\n  0xffffffffffffffffffffffffffffffffffffffff\n  and\n  mul\n  or\n  swap1\n  sstore\n  pop\n    /* \"@openzeppelin/contracts/access/Ownable.sol\":2604:2612  newOwner */\n  dup2\n    /* \"@openzeppelin/contracts/access/Ownable.sol\":2573:2613  OwnershipTransferred(oldOwner, newOwner) */\n  0xffffffffffffffffffffffffffffffffffffffff\n  and\n    /* \"@openzeppelin/contracts/access/Ownable.sol\":2594:2602  oldOwner */\n  dup2\n    /* \"@openzeppelin/contracts/access/Ownable.sol\":2573:2613  OwnershipTransferred(oldOwner, newOwner) */\n  0xffffffffffffffffffffffffffffffffffffffff\n  and\n  0x8be0079c531659141344cd1fd0a4f28419497f9722a3daafe3b4186f6b6457e0\n  mload(0x40)\n  mload(0x40)\n  dup1\n  swap2\n  sub\n  swap1\n  log3\n    /* \"@openzeppelin/contracts/access/Ownable.sol\":2496:2620  {... */\n  pop\n    /* \"@openzeppelin/contracts/access/Ownable.sol\":2433:2620  function _transferOwnership(address newOwner) internal virtual {... */\n  pop\n  jump\t// out\n    /* \"contracts/CenterContract.sol\":205:982  contract CenterContract is Server {... */\ntag_8:\n  dataSize(sub_0)\n  dup1\n  dataOffset(sub_0)\n  0x00\n  codecopy\n  0x00\n  return\nstop\n\nsub_0: assembly {\n        /* \"contracts/CenterContract.sol\":205:982  contract CenterContract is Server {... */\n      mstore(0x40, 0x80)\n      callvalue\n      dup1\n      iszero\n      tag_1\n      jumpi\n      0x00\n      dup1\n      revert\n    tag_1:\n      pop\n      jumpi(tag_2, lt(calldatasize, 0x04))\n      shr(0xe0, calldataload(0x00))\n      dup1\n      0x8da5cb5b\n      gt\n      tag_17\n      jumpi\n      dup1\n      0xcf9d4afa\n      gt\n      tag_18\n      jumpi\n      dup1\n      0xcf9d4afa\n      eq\n      tag_13\n      jumpi\n      dup1\n      0xd043c0b0\n      eq\n      tag_14\n      jumpi\n      dup1\n      0xf2fde38b\n      eq\n      tag_15\n      jumpi\n      dup1\n      0xfda08958\n      eq\n      tag_16\n      jumpi\n      jump(tag_2)\n    tag_18:\n      dup1\n      0x8da5cb5b\n      eq\n      tag_10\n      jumpi\n      dup1\n      0xb403b578\n      eq\n      tag_11\n      jumpi\n      dup1\n      0xba2b6bad\n      eq\n      tag_12\n      jumpi\n      jump(tag_2)\n    tag_17:\n      dup1\n      0x62d91855\n      gt\n      tag_19\n      jumpi\n      dup1\n      0x62d91855\n      eq\n      tag_6\n      jumpi\n      dup1\n      0x70480275\n      eq\n      tag_7\n      jumpi\n      dup1\n      0x715018a6\n      eq\n      tag_8\n      jumpi\n      dup1\n      0x784b1b2c\n      eq\n      tag_9\n      jumpi\n      jump(tag_2)\n    tag_19:\n      dup1\n      0x24d7806c\n      eq\n      tag_3\n      jumpi\n      dup1\n      0x3a4159fa\n      eq\n      tag_4\n      jumpi\n      dup1\n      0x5cbd99d4\n      eq\n      tag_5\n      jumpi\n    tag_2:\n      0x00\n      dup1\n      revert\n        /* \"contracts/Auth.sol\":499:596  function isAdmin(address _addr) public view returns (bool) {... */\n    tag_3:\n      tag_20\n      0x04\n      dup1\n      calldatasize\n      sub\n      dup2\n      add\n      swap1\n      tag_21\n      swap2\n      swap1\n      tag_22\n      jump\t// in\n    tag_21:\n      tag_23\n      jump\t// in\n    tag_20:\n      mload(0x40)\n      tag_24\n      swap2\n      swap1\n      tag_25\n      jump\t// in\n    tag_24:\n      mload(0x40)\n      dup1\n      swap2\n      sub\n      swap1\n      return\n        /* \"contracts/Auth.sol\":891:986  function delServer(address _server) public onlyOwner {... */\n    tag_4:\n      tag_26\n      0x04\n      dup1\n      calldatasize\n      sub\n      dup2\n      add\n      swap1\n      tag_27\n      swap2\n      swap1\n      tag_22\n      jump\t// in\n    tag_27:\n      tag_28\n      jump\t// in\n    tag_26:\n      stop\n        /* \"contracts/Auth.sol\":791:885  function addServer(address _server) public onlyOwner {... */\n    tag_5:\n      tag_29\n      0x04\n      dup1\n      calldatasize\n      sub\n      dup2\n      add\n      swap1\n      tag_30\n      swap2\n      swap1\n      tag_22\n      jump\t// in\n    tag_30:\n      tag_31\n      jump\t// in\n    tag_29:\n      stop\n        /* \"contracts/Auth.sol\":402:493  function delAdmin(address _admin) public onlyOwner {... */\n    tag_6:\n      tag_32\n      0x04\n      dup1\n      calldatasize\n      sub\n      dup2\n      add\n      swap1\n      tag_33\n      swap2\n      swap1\n      tag_22\n      jump\t// in\n    tag_33:\n      tag_34\n      jump\t// in\n    tag_32:\n      stop\n        /* \"contracts/Auth.sol\":306:396  function addAdmin(address _admin) public onlyOwner {... */\n    tag_7:\n      tag_35\n      0x04\n      dup1\n      calldatasize\n      sub\n      dup2\n      add\n      swap1\n      tag_36\n      swap2\n      swap1\n      tag_22\n      jump\t// in\n    tag_36:\n      tag_37\n      jump\t// in\n    tag_35:\n      stop\n        /* \"@openzeppelin/contracts/access/Ownable.sol\":1831:1932  function renounceOwnership() public virtual onlyOwner {... */\n    tag_8:\n      tag_38\n      tag_39\n      jump\t// in\n    tag_38:\n      stop\n        /* \"contracts/CenterContract.sol\":706:861  function getCurrentDayTimestamp() public view returns(uint256){... */\n    tag_9:\n      tag_40\n      tag_41\n      jump\t// in\n    tag_40:\n      mload(0x40)\n      tag_42\n      swap2\n      swap1\n      tag_43\n      jump\t// in\n    tag_42:\n      mload(0x40)\n      dup1\n      swap2\n      sub\n      swap1\n      return\n        /* \"@openzeppelin/contracts/access/Ownable.sol\":1201:1286  function owner() public view virtual returns (address) {... */\n    tag_10:\n      tag_44\n      tag_45\n      jump\t// in\n    tag_44:\n      mload(0x40)\n      tag_46\n      swap2\n      swap1\n      tag_47\n      jump\t// in\n    tag_46:\n      mload(0x40)\n      dup1\n      swap2\n      sub\n      swap1\n      return\n        /* \"contracts/CenterContract.sol\":624:699  function approveStake() public onlyAdmin {... */\n    tag_11:\n      tag_48\n      tag_49\n      jump\t// in\n    tag_48:\n      stop\n        /* \"contracts/CenterContract.sol\":424:618  function initToken(... */\n    tag_12:\n      tag_50\n      0x04\n      dup1\n      calldatasize\n      sub\n      dup2\n      add\n      swap1\n      tag_51\n      swap2\n      swap1\n      tag_52\n      jump\t// in\n    tag_51:\n      tag_53\n      jump\t// in\n    tag_50:\n      mload(0x40)\n      tag_54\n      swap2\n      swap1\n      tag_25\n      jump\t// in\n    tag_54:\n      mload(0x40)\n      dup1\n      swap2\n      sub\n      swap1\n      return\n        /* \"contracts/CenterContract.sol\":305:390  function initContract(address stake) external {... */\n    tag_13:\n      tag_55\n      0x04\n      dup1\n      calldatasize\n      sub\n      dup2\n      add\n      swap1\n      tag_56\n      swap2\n      swap1\n      tag_22\n      jump\t// in\n    tag_56:\n      tag_57\n      jump\t// in\n    tag_55:\n      stop\n        /* \"contracts/CenterContract.sol\":867:980  function mid(uint256 value) public pure returns(uint256){... */\n    tag_14:\n      tag_58\n      0x04\n      dup1\n      calldatasize\n      sub\n      dup2\n      add\n      swap1\n      tag_59\n      swap2\n      swap1\n      tag_60\n      jump\t// in\n    tag_59:\n      tag_61\n      jump\t// in\n    tag_58:\n      mload(0x40)\n      tag_62\n      swap2\n      swap1\n      tag_43\n      jump\t// in\n    tag_62:\n      mload(0x40)\n      dup1\n      swap2\n      sub\n      swap1\n      return\n        /* \"@openzeppelin/contracts/access/Ownable.sol\":2081:2279  function transferOwnership(address newOwner) public virtual onlyOwner {... */\n    tag_15:\n      tag_63\n      0x04\n      dup1\n      calldatasize\n      sub\n      dup2\n      add\n      swap1\n      tag_64\n      swap2\n      swap1\n      tag_22\n      jump\t// in\n    tag_64:\n      tag_65\n      jump\t// in\n    tag_63:\n      stop\n        /* \"contracts/Auth.sol\":992:1095  function isServer(address _server) public view returns (bool) {... */\n    tag_16:\n      tag_66\n      0x04\n      dup1\n      calldatasize\n      sub\n      dup2\n      add\n      swap1\n      tag_67\n      swap2\n      swap1\n      tag_22\n      jump\t// in\n    tag_67:\n      tag_68\n      jump\t// in\n    tag_66:\n      mload(0x40)\n      tag_69\n      swap2\n      swap1\n      tag_25\n      jump\t// in\n    tag_69:\n      mload(0x40)\n      dup1\n      swap2\n      sub\n      swap1\n      return\n        /* \"contracts/Auth.sol\":499:596  function isAdmin(address _addr) public view returns (bool) {... */\n    tag_23:\n        /* \"contracts/Auth.sol\":552:556  bool */\n      0x00\n        /* \"contracts/Auth.sol\":575:582  _admins */\n      0x01\n        /* \"contracts/Auth.sol\":575:589  _admins[_addr] */\n      0x00\n        /* \"contracts/Auth.sol\":583:588  _addr */\n      dup4\n        /* \"contracts/Auth.sol\":575:589  _admins[_addr] */\n      0xffffffffffffffffffffffffffffffffffffffff\n      and\n      0xffffffffffffffffffffffffffffffffffffffff\n      and\n      dup2\n      mstore\n      0x20\n      add\n      swap1\n      dup2\n      mstore\n      0x20\n      add\n      0x00\n      keccak256\n      0x00\n      swap1\n      sload\n      swap1\n      0x0100\n      exp\n      swap1\n      div\n      0xff\n      and\n        /* \"contracts/Auth.sol\":568:589  return _admins[_addr] */\n      swap1\n      pop\n        /* \"contracts/Auth.sol\":499:596  function isAdmin(address _addr) public view returns (bool) {... */\n      swap2\n      swap1\n      pop\n      jump\t// out\n        /* \"contracts/Auth.sol\":891:986  function delServer(address _server) public onlyOwner {... */\n    tag_28:\n        /* \"@openzeppelin/contracts/access/Ownable.sol\":1094:1107  _checkOwner() */\n      tag_72\n        /* \"@openzeppelin/contracts/access/Ownable.sol\":1094:1105  _checkOwner */\n      tag_73\n        /* \"@openzeppelin/contracts/access/Ownable.sol\":1094:1107  _checkOwner() */\n      jump\t// in\n    tag_72:\n        /* \"contracts/Auth.sol\":974:979  false */\n      0x00\n        /* \"contracts/Auth.sol\":954:962  _servers */\n      0x02\n        /* \"contracts/Auth.sol\":954:971  _servers[_server] */\n      0x00\n        /* \"contracts/Auth.sol\":963:970  _server */\n      dup4\n        /* \"contracts/Auth.sol\":954:971  _servers[_server] */\n      0xffffffffffffffffffffffffffffffffffffffff\n      and\n      0xffffffffffffffffffffffffffffffffffffffff\n      and\n      dup2\n      mstore\n      0x20\n      add\n      swap1\n      dup2\n      mstore\n      0x20\n      add\n      0x00\n      keccak256\n      0x00\n        /* \"contracts/Auth.sol\":954:979  _servers[_server] = false */\n      0x0100\n      exp\n      dup2\n      sload\n      dup2\n      0xff\n      mul\n      not\n      and\n      swap1\n      dup4\n      iszero\n      iszero\n      mul\n      or\n      swap1\n      sstore\n      pop\n        /* \"contracts/Auth.sol\":891:986  function delServer(address _server) public onlyOwner {... */\n      pop\n      jump\t// out\n        /* \"contracts/Auth.sol\":791:885  function addServer(address _server) public onlyOwner {... */\n    tag_31:\n        /* \"@openzeppelin/contracts/access/Ownable.sol\":1094:1107  _checkOwner() */\n      tag_76\n        /* \"@openzeppelin/contracts/access/Ownable.sol\":1094:1105  _checkOwner */\n      tag_73\n        /* \"@openzeppelin/contracts/access/Ownable.sol\":1094:1107  _checkOwner() */\n      jump\t// in\n    tag_76:\n        /* \"contracts/Auth.sol\":874:878  true */\n      0x01\n        /* \"contracts/Auth.sol\":854:862  _servers */\n      0x02\n        /* \"contracts/Auth.sol\":854:871  _servers[_server] */\n      0x00\n        /* \"contracts/Auth.sol\":863:870  _server */\n      dup4\n        /* \"contracts/Auth.sol\":854:871  _servers[_server] */\n      0xffffffffffffffffffffffffffffffffffffffff\n      and\n      0xffffffffffffffffffffffffffffffffffffffff\n      and\n      dup2\n      mstore\n      0x20\n      add\n      swap1\n      dup2\n      mstore\n      0x20\n      add\n      0x00\n      keccak256\n      0x00\n        /* \"contracts/Auth.sol\":854:878  _servers[_server] = true */\n      0x0100\n      exp\n      dup2\n      sload\n      dup2\n      0xff\n      mul\n      not\n      and\n      swap1\n      dup4\n      iszero\n      iszero\n      mul\n      or\n      swap1\n      sstore\n      pop\n        /* \"contracts/Auth.sol\":791:885  function addServer(address _server) public onlyOwner {... */\n      pop\n      jump\t// out\n        /* \"contracts/Auth.sol\":402:493  function delAdmin(address _admin) public onlyOwner {... */\n    tag_34:\n        /* \"@openzeppelin/contracts/access/Ownable.sol\":1094:1107  _checkOwner() */\n      tag_79\n        /* \"@openzeppelin/contracts/access/Ownable.sol\":1094:1105  _checkOwner */\n      tag_73\n        /* \"@openzeppelin/contracts/access/Ownable.sol\":1094:1107  _checkOwner() */\n      jump\t// in\n    tag_79:\n        /* \"contracts/Auth.sol\":481:486  false */\n      0x00\n        /* \"contracts/Auth.sol\":463:470  _admins */\n      0x01\n        /* \"contracts/Auth.sol\":463:478  _admins[_admin] */\n      0x00\n        /* \"contracts/Auth.sol\":471:477  _admin */\n      dup4\n        /* \"contracts/Auth.sol\":463:478  _admins[_admin] */\n      0xffffffffffffffffffffffffffffffffffffffff\n      and\n      0xffffffffffffffffffffffffffffffffffffffff\n      and\n      dup2\n      mstore\n      0x20\n      add\n      swap1\n      dup2\n      mstore\n      0x20\n      add\n      0x00\n      keccak256\n      0x00\n        /* \"contracts/Auth.sol\":463:486  _admins[_admin] = false */\n      0x0100\n      exp\n      dup2\n      sload\n      dup2\n      0xff\n      mul\n      not\n      and\n      swap1\n      dup4\n      iszero\n      iszero\n      mul\n      or\n      swap1\n      sstore\n      pop\n        /* \"contracts/Auth.sol\":402:493  function delAdmin(address _admin) public onlyOwner {... */\n      pop\n      jump\t// out\n        /* \"contracts/Auth.sol\":306:396  function addAdmin(address _admin) public onlyOwner {... */\n    tag_37:\n        /* \"@openzeppelin/contracts/access/Ownable.sol\":1094:1107  _checkOwner() */\n      tag_82\n        /* \"@openzeppelin/contracts/access/Ownable.sol\":1094:1105  _checkOwner */\n      tag_73\n        /* \"@openzeppelin/contracts/access/Ownable.sol\":1094:1107  _checkOwner() */\n      jump\t// in\n    tag_82:\n        /* \"contracts/Auth.sol\":385:389  true */\n      0x01\n        /* \"contracts/Auth.sol\":367:374  _admins */\n      dup1\n        /* \"contracts/Auth.sol\":367:382  _admins[_admin] */\n      0x00\n        /* \"contracts/Auth.sol\":375:381  _admin */\n      dup4\n        /* \"contracts/Auth.sol\":367:382  _admins[_admin] */\n      0xffffffffffffffffffffffffffffffffffffffff\n      and\n      0xffffffffffffffffffffffffffffffffffffffff\n      and\n      dup2\n      mstore\n      0x20\n      add\n      swap1\n      dup2\n      mstore\n      0x20\n      add\n      0x00\n      keccak256\n      0x00\n        /* \"contracts/Auth.sol\":367:389  _admins[_admin] = true */\n      0x0100\n      exp\n      dup2\n      sload\n      dup2\n      0xff\n      mul\n      not\n      and\n      swap1\n      dup4\n      iszero\n      iszero\n      mul\n      or\n      swap1\n      sstore\n      pop\n        /* \"contracts/Auth.sol\":306:396  function addAdmin(address _admin) public onlyOwner {... */\n      pop\n      jump\t// out\n        /* \"@openzeppelin/contracts/access/Ownable.sol\":1831:1932  function renounceOwnership() public virtual onlyOwner {... */\n    tag_39:\n        /* \"@openzeppelin/contracts/access/Ownable.sol\":1094:1107  _checkOwner() */\n      tag_85\n        /* \"@openzeppelin/contracts/access/Ownable.sol\":1094:1105  _checkOwner */\n      tag_73\n        /* \"@openzeppelin/contracts/access/Ownable.sol\":1094:1107  _checkOwner() */\n      jump\t// in\n    tag_85:\n        /* \"@openzeppelin/contracts/access/Ownable.sol\":1895:1925  _transferOwnership(address(0)) */\n      tag_87\n        /* \"@openzeppelin/contracts/access/Ownable.sol\":1922:1923  0 */\n      0x00\n        /* \"@openzeppelin/contracts/access/Ownable.sol\":1895:1913  _transferOwnership */\n      tag_88\n        /* \"@openzeppelin/contracts/access/Ownable.sol\":1895:1925  _transferOwnership(address(0)) */\n      jump\t// in\n    tag_87:\n        /* \"@openzeppelin/contracts/access/Ownable.sol\":1831:1932  function renounceOwnership() public virtual onlyOwner {... */\n      jump\t// out\n        /* \"contracts/CenterContract.sol\":706:861  function getCurrentDayTimestamp() public view returns(uint256){... */\n    tag_41:\n        /* \"contracts/CenterContract.sol\":760:767  uint256 */\n      0x00\n        /* \"contracts/CenterContract.sol\":785:853  BokkyPooBahsDateTimeLibrary.timestampToDayTimeStamp(block.timestamp) */\n      tag_90\n        /* \"contracts/CenterContract.sol\":837:852  block.timestamp */\n      timestamp\n        /* \"contracts/CenterContract.sol\":785:836  BokkyPooBahsDateTimeLibrary.timestampToDayTimeStamp */\n      tag_91\n        /* \"contracts/CenterContract.sol\":785:853  BokkyPooBahsDateTimeLibrary.timestampToDayTimeStamp(block.timestamp) */\n      jump\t// in\n    tag_90:\n        /* \"contracts/CenterContract.sol\":778:853  return BokkyPooBahsDateTimeLibrary.timestampToDayTimeStamp(block.timestamp) */\n      swap1\n      pop\n        /* \"contracts/CenterContract.sol\":706:861  function getCurrentDayTimestamp() public view returns(uint256){... */\n      swap1\n      jump\t// out\n        /* \"@openzeppelin/contracts/access/Ownable.sol\":1201:1286  function owner() public view virtual returns (address) {... */\n    tag_45:\n        /* \"@openzeppelin/contracts/access/Ownable.sol\":1247:1254  address */\n      0x00\n        /* \"@openzeppelin/contracts/access/Ownable.sol\":1273:1279  _owner */\n      dup1\n      0x00\n      swap1\n      sload\n      swap1\n      0x0100\n      exp\n      swap1\n      div\n      0xffffffffffffffffffffffffffffffffffffffff\n      and\n        /* \"@openzeppelin/contracts/access/Ownable.sol\":1266:1279  return _owner */\n      swap1\n      pop\n        /* \"@openzeppelin/contracts/access/Ownable.sol\":1201:1286  function owner() public view virtual returns (address) {... */\n      swap1\n      jump\t// out\n        /* \"contracts/CenterContract.sol\":624:699  function approveStake() public onlyAdmin {... */\n    tag_49:\n        /* \"contracts/Auth.sol\":236:243  _admins */\n      0x01\n        /* \"contracts/Auth.sol\":236:255  _admins[msg.sender] */\n      0x00\n        /* \"contracts/Auth.sol\":244:254  msg.sender */\n      caller\n        /* \"contracts/Auth.sol\":236:255  _admins[msg.sender] */\n      0xffffffffffffffffffffffffffffffffffffffff\n      and\n      0xffffffffffffffffffffffffffffffffffffffff\n      and\n      dup2\n      mstore\n      0x20\n      add\n      swap1\n      dup2\n      mstore\n      0x20\n      add\n      0x00\n      keccak256\n      0x00\n      swap1\n      sload\n      swap1\n      0x0100\n      exp\n      swap1\n      div\n      0xff\n      and\n        /* \"contracts/Auth.sol\":228:282  require(_admins[msg.sender], \"Only admin can call it\") */\n      tag_94\n      jumpi\n      mload(0x40)\n      0x08c379a000000000000000000000000000000000000000000000000000000000\n      dup2\n      mstore\n      0x04\n      add\n      tag_95\n      swap1\n      tag_96\n      jump\t// in\n    tag_95:\n      mload(0x40)\n      dup1\n      swap2\n      sub\n      swap1\n      revert\n    tag_94:\n        /* \"contracts/CenterContract.sol\":675:681  iStake */\n      0x04\n      0x00\n      swap1\n      sload\n      swap1\n      0x0100\n      exp\n      swap1\n      div\n      0xffffffffffffffffffffffffffffffffffffffff\n      and\n        /* \"contracts/CenterContract.sol\":675:690  iStake._approve */\n      0xffffffffffffffffffffffffffffffffffffffff\n      and\n      0x6d101d50\n        /* \"contracts/CenterContract.sol\":675:692  iStake._approve() */\n      mload(0x40)\n      dup2\n      0xffffffff\n      and\n      0xe0\n      shl\n      dup2\n      mstore\n      0x04\n      add\n      0x00\n      mload(0x40)\n      dup1\n      dup4\n      sub\n      dup2\n      0x00\n      dup8\n      dup1\n      extcodesize\n      iszero\n      dup1\n      iszero\n      tag_98\n      jumpi\n      0x00\n      dup1\n      revert\n    tag_98:\n      pop\n      gas\n      call\n      iszero\n      dup1\n      iszero\n      tag_100\n      jumpi\n      returndatasize\n      0x00\n      dup1\n      returndatacopy\n      revert(0x00, returndatasize)\n    tag_100:\n      pop\n      pop\n      pop\n      pop\n        /* \"contracts/CenterContract.sol\":624:699  function approveStake() public onlyAdmin {... */\n      jump\t// out\n        /* \"contracts/CenterContract.sol\":424:618  function initToken(... */\n    tag_53:\n        /* \"contracts/CenterContract.sol\":532:536  bool */\n      0x00\n        /* \"contracts/Auth.sol\":236:243  _admins */\n      0x01\n        /* \"contracts/Auth.sol\":236:255  _admins[msg.sender] */\n      0x00\n        /* \"contracts/Auth.sol\":244:254  msg.sender */\n      caller\n        /* \"contracts/Auth.sol\":236:255  _admins[msg.sender] */\n      0xffffffffffffffffffffffffffffffffffffffff\n      and\n      0xffffffffffffffffffffffffffffffffffffffff\n      and\n      dup2\n      mstore\n      0x20\n      add\n      swap1\n      dup2\n      mstore\n      0x20\n      add\n      0x00\n      keccak256\n      0x00\n      swap1\n      sload\n      swap1\n      0x0100\n      exp\n      swap1\n      div\n      0xff\n      and\n        /* \"contracts/Auth.sol\":228:282  require(_admins[msg.sender], \"Only admin can call it\") */\n      tag_102\n      jumpi\n      mload(0x40)\n      0x08c379a000000000000000000000000000000000000000000000000000000000\n      dup2\n      mstore\n      0x04\n      add\n      tag_103\n      swap1\n      tag_96\n      jump\t// in\n    tag_103:\n      mload(0x40)\n      dup1\n      swap2\n      sub\n      swap1\n      revert\n    tag_102:\n        /* \"contracts/CenterContract.sol\":548:554  iStake */\n      0x04\n      0x00\n      swap1\n      sload\n      swap1\n      0x0100\n      exp\n      swap1\n      div\n      0xffffffffffffffffffffffffffffffffffffffff\n      and\n        /* \"contracts/CenterContract.sol\":548:565  iStake._initToken */\n      0xffffffffffffffffffffffffffffffffffffffff\n      and\n      0x04dd06f5\n        /* \"contracts/CenterContract.sol\":566:576  erc20Token */\n      dup5\n        /* \"contracts/CenterContract.sol\":578:589  consAddress */\n      dup5\n        /* \"contracts/CenterContract.sol\":548:590  iStake._initToken(erc20Token, consAddress) */\n      mload(0x40)\n      dup4\n      0xffffffff\n      and\n      0xe0\n      shl\n      dup2\n      mstore\n      0x04\n      add\n      tag_105\n      swap3\n      swap2\n      swap1\n      tag_106\n      jump\t// in\n    tag_105:\n      0x00\n      mload(0x40)\n      dup1\n      dup4\n      sub\n      dup2\n      0x00\n      dup8\n      dup1\n      extcodesize\n      iszero\n      dup1\n      iszero\n      tag_107\n      jumpi\n      0x00\n      dup1\n      revert\n    tag_107:\n      pop\n      gas\n      call\n      iszero\n      dup1\n      iszero\n      tag_109\n      jumpi\n      returndatasize\n      0x00\n      dup1\n      returndatacopy\n      revert(0x00, returndatasize)\n    tag_109:\n      pop\n      pop\n      pop\n      pop\n        /* \"contracts/CenterContract.sol\":607:611  true */\n      0x01\n        /* \"contracts/CenterContract.sol\":600:611  return true */\n      swap1\n      pop\n        /* \"contracts/CenterContract.sol\":424:618  function initToken(... */\n      swap3\n      swap2\n      pop\n      pop\n      jump\t// out\n        /* \"contracts/CenterContract.sol\":305:390  function initContract(address stake) external {... */\n    tag_57:\n        /* \"contracts/CenterContract.sol\":377:382  stake */\n      dup1\n        /* \"contracts/CenterContract.sol\":361:367  iStake */\n      0x04\n      0x00\n        /* \"contracts/CenterContract.sol\":361:383  iStake = IStake(stake) */\n      0x0100\n      exp\n      dup2\n      sload\n      dup2\n      0xffffffffffffffffffffffffffffffffffffffff\n      mul\n      not\n      and\n      swap1\n      dup4\n      0xffffffffffffffffffffffffffffffffffffffff\n      and\n      mul\n      or\n      swap1\n      sstore\n      pop\n        /* \"contracts/CenterContract.sol\":305:390  function initContract(address stake) external {... */\n      pop\n      jump\t// out\n        /* \"contracts/CenterContract.sol\":867:980  function mid(uint256 value) public pure returns(uint256){... */\n    tag_61:\n        /* \"contracts/CenterContract.sol\":915:922  uint256 */\n      0x00\n        /* \"contracts/CenterContract.sol\":946:951  value */\n      dup2\n        /* \"contracts/CenterContract.sol\":941:943  10 */\n      0x0a\n        /* \"contracts/CenterContract.sol\":941:951  10 * value */\n      tag_112\n      swap2\n      swap1\n      tag_113\n      jump\t// in\n    tag_112:\n        /* \"contracts/CenterContract.sol\":933:951  value = 10 * value */\n      swap2\n      pop\n        /* \"contracts/CenterContract.sol\":968:973  value */\n      dup2\n        /* \"contracts/CenterContract.sol\":961:973  return value */\n      swap1\n      pop\n        /* \"contracts/CenterContract.sol\":867:980  function mid(uint256 value) public pure returns(uint256){... */\n      swap2\n      swap1\n      pop\n      jump\t// out\n        /* \"@openzeppelin/contracts/access/Ownable.sol\":2081:2279  function transferOwnership(address newOwner) public virtual onlyOwner {... */\n    tag_65:\n        /* \"@openzeppelin/contracts/access/Ownable.sol\":1094:1107  _checkOwner() */\n      tag_115\n        /* \"@openzeppelin/contracts/access/Ownable.sol\":1094:1105  _checkOwner */\n      tag_73\n        /* \"@openzeppelin/contracts/access/Ownable.sol\":1094:1107  _checkOwner() */\n      jump\t// in\n    tag_115:\n        /* \"@openzeppelin/contracts/access/Ownable.sol\":2189:2190  0 */\n      0x00\n        /* \"@openzeppelin/contracts/access/Ownable.sol\":2169:2191  newOwner != address(0) */\n      0xffffffffffffffffffffffffffffffffffffffff\n      and\n        /* \"@openzeppelin/contracts/access/Ownable.sol\":2169:2177  newOwner */\n      dup2\n        /* \"@openzeppelin/contracts/access/Ownable.sol\":2169:2191  newOwner != address(0) */\n      0xffffffffffffffffffffffffffffffffffffffff\n      and\n      sub\n        /* \"@openzeppelin/contracts/access/Ownable.sol\":2161:2234  require(newOwner != address(0), \"Ownable: new owner is the zero address\") */\n      tag_117\n      jumpi\n      mload(0x40)\n      0x08c379a000000000000000000000000000000000000000000000000000000000\n      dup2\n      mstore\n      0x04\n      add\n      tag_118\n      swap1\n      tag_119\n      jump\t// in\n    tag_118:\n      mload(0x40)\n      dup1\n      swap2\n      sub\n      swap1\n      revert\n    tag_117:\n        /* \"@openzeppelin/contracts/access/Ownable.sol\":2244:2272  _transferOwnership(newOwner) */\n      tag_120\n        /* \"@openzeppelin/contracts/access/Ownable.sol\":2263:2271  newOwner */\n      dup2\n        /* \"@openzeppelin/contracts/access/Ownable.sol\":2244:2262  _transferOwnership */\n      tag_88\n        /* \"@openzeppelin/contracts/access/Ownable.sol\":2244:2272  _transferOwnership(newOwner) */\n      jump\t// in\n    tag_120:\n        /* \"@openzeppelin/contracts/access/Ownable.sol\":2081:2279  function transferOwnership(address newOwner) public virtual onlyOwner {... */\n      pop\n      jump\t// out\n        /* \"contracts/Auth.sol\":992:1095  function isServer(address _server) public view returns (bool) {... */\n    tag_68:\n        /* \"contracts/Auth.sol\":1048:1052  bool */\n      0x00\n        /* \"contracts/Auth.sol\":1071:1079  _servers */\n      0x02\n        /* \"contracts/Auth.sol\":1071:1088  _servers[_server] */\n      0x00\n        /* \"contracts/Auth.sol\":1080:1087  _server */\n      dup4\n        /* \"contracts/Auth.sol\":1071:1088  _servers[_server] */\n      0xffffffffffffffffffffffffffffffffffffffff\n      and\n      0xffffffffffffffffffffffffffffffffffffffff\n      and\n      dup2\n      mstore\n      0x20\n      add\n      swap1\n      dup2\n      mstore\n      0x20\n      add\n      0x00\n      keccak256\n      0x00\n      swap1\n      sload\n      swap1\n      0x0100\n      exp\n      swap1\n      div\n      0xff\n      and\n        /* \"contracts/Auth.sol\":1064:1088  return _servers[_server] */\n      swap1\n      pop\n        /* \"contracts/Auth.sol\":992:1095  function isServer(address _server) public view returns (bool) {... */\n      swap2\n      swap1\n      pop\n      jump\t// out\n        /* \"@openzeppelin/contracts/access/Ownable.sol\":1359:1489  function _checkOwner() internal view virtual {... */\n    tag_73:\n        /* \"@openzeppelin/contracts/access/Ownable.sol\":1433:1445  _msgSender() */\n      tag_123\n        /* \"@openzeppelin/contracts/access/Ownable.sol\":1433:1443  _msgSender */\n      tag_124\n        /* \"@openzeppelin/contracts/access/Ownable.sol\":1433:1445  _msgSender() */\n      jump\t// in\n    tag_123:\n        /* \"@openzeppelin/contracts/access/Ownable.sol\":1422:1445  owner() == _msgSender() */\n      0xffffffffffffffffffffffffffffffffffffffff\n      and\n        /* \"@openzeppelin/contracts/access/Ownable.sol\":1422:1429  owner() */\n      tag_125\n        /* \"@openzeppelin/contracts/access/Ownable.sol\":1422:1427  owner */\n      tag_45\n        /* \"@openzeppelin/contracts/access/Ownable.sol\":1422:1429  owner() */\n      jump\t// in\n    tag_125:\n        /* \"@openzeppelin/contracts/access/Ownable.sol\":1422:1445  owner() == _msgSender() */\n      0xffffffffffffffffffffffffffffffffffffffff\n      and\n      eq\n        /* \"@openzeppelin/contracts/access/Ownable.sol\":1414:1482  require(owner() == _msgSender(), \"Ownable: caller is not the owner\") */\n      tag_126\n      jumpi\n      mload(0x40)\n      0x08c379a000000000000000000000000000000000000000000000000000000000\n      dup2\n      mstore\n      0x04\n      add\n      tag_127\n      swap1\n      tag_128\n      jump\t// in\n    tag_127:\n      mload(0x40)\n      dup1\n      swap2\n      sub\n      swap1\n      revert\n    tag_126:\n        /* \"@openzeppelin/contracts/access/Ownable.sol\":1359:1489  function _checkOwner() internal view virtual {... */\n      jump\t// out\n        /* \"@openzeppelin/contracts/access/Ownable.sol\":2433:2620  function _transferOwnership(address newOwner) internal virtual {... */\n    tag_88:\n        /* \"@openzeppelin/contracts/access/Ownable.sol\":2506:2522  address oldOwner */\n      0x00\n        /* \"@openzeppelin/contracts/access/Ownable.sol\":2525:2531  _owner */\n      dup1\n      0x00\n      swap1\n      sload\n      swap1\n      0x0100\n      exp\n      swap1\n      div\n      0xffffffffffffffffffffffffffffffffffffffff\n      and\n        /* \"@openzeppelin/contracts/access/Ownable.sol\":2506:2531  address oldOwner = _owner */\n      swap1\n      pop\n        /* \"@openzeppelin/contracts/access/Ownable.sol\":2550:2558  newOwner */\n      dup2\n        /* \"@openzeppelin/contracts/access/Ownable.sol\":2541:2547  _owner */\n      0x00\n      dup1\n        /* \"@openzeppelin/contracts/access/Ownable.sol\":2541:2558  _owner = newOwner */\n      0x0100\n      exp\n      dup2\n      sload\n      dup2\n      0xffffffffffffffffffffffffffffffffffffffff\n      mul\n      not\n      and\n      swap1\n      dup4\n      0xffffffffffffffffffffffffffffffffffffffff\n      and\n      mul\n      or\n      swap1\n      sstore\n      pop\n        /* \"@openzeppelin/contracts/access/Ownable.sol\":2604:2612  newOwner */\n      dup2\n        /* \"@openzeppelin/contracts/access/Ownable.sol\":2573:2613  OwnershipTransferred(oldOwner, newOwner) */\n      0xffffffffffffffffffffffffffffffffffffffff\n      and\n        /* \"@openzeppelin/contracts/access/Ownable.sol\":2594:2602  oldOwner */\n      dup2\n        /* \"@openzeppelin/contracts/access/Ownable.sol\":2573:2613  OwnershipTransferred(oldOwner, newOwner) */\n      0xffffffffffffffffffffffffffffffffffffffff\n      and\n      0x8be0079c531659141344cd1fd0a4f28419497f9722a3daafe3b4186f6b6457e0\n      mload(0x40)\n      mload(0x40)\n      dup1\n      swap2\n      sub\n      swap1\n      log3\n        /* \"@openzeppelin/contracts/access/Ownable.sol\":2496:2620  {... */\n      pop\n        /* \"@openzeppelin/contracts/access/Ownable.sol\":2433:2620  function _transferOwnership(address newOwner) internal virtual {... */\n      pop\n      jump\t// out\n        /* \"contracts/library/BokkyPooBahsDateTimeLibrary.sol\":8647:8923  function timestampToDayTimeStamp(... */\n    tag_91:\n        /* \"contracts/library/BokkyPooBahsDateTimeLibrary.sol\":8733:8741  uint res */\n      0x00\n        /* \"contracts/library/BokkyPooBahsDateTimeLibrary.sol\":8754:8763  uint year */\n      dup1\n        /* \"contracts/library/BokkyPooBahsDateTimeLibrary.sol\":8765:8775  uint month */\n      0x00\n        /* \"contracts/library/BokkyPooBahsDateTimeLibrary.sol\":8777:8785  uint day */\n      dup1\n        /* \"contracts/library/BokkyPooBahsDateTimeLibrary.sol\":8789:8851  _daysToDate(... */\n      tag_131\n        /* \"contracts/library/BokkyPooBahsDateTimeLibrary.sol\":1025:1037  24 * 60 * 60 */\n      0x015180\n        /* \"contracts/library/BokkyPooBahsDateTimeLibrary.sol\":8814:8823  timestamp */\n      dup7\n        /* \"contracts/library/BokkyPooBahsDateTimeLibrary.sol\":8814:8841  timestamp / SECONDS_PER_DAY */\n      tag_132\n      swap2\n      swap1\n      tag_133\n      jump\t// in\n    tag_132:\n        /* \"contracts/library/BokkyPooBahsDateTimeLibrary.sol\":8789:8800  _daysToDate */\n      tag_134\n        /* \"contracts/library/BokkyPooBahsDateTimeLibrary.sol\":8789:8851  _daysToDate(... */\n      jump\t// in\n    tag_131:\n        /* \"contracts/library/BokkyPooBahsDateTimeLibrary.sol\":8753:8851  (uint year, uint month, uint day) = _daysToDate(... */\n      swap3\n      pop\n      swap3\n      pop\n      swap3\n      pop\n        /* \"contracts/library/BokkyPooBahsDateTimeLibrary.sol\":1025:1037  24 * 60 * 60 */\n      0x015180\n        /* \"contracts/library/BokkyPooBahsDateTimeLibrary.sol\":8867:8898  _daysFromDate(year, month, day) */\n      tag_135\n        /* \"contracts/library/BokkyPooBahsDateTimeLibrary.sol\":8881:8885  year */\n      dup5\n        /* \"contracts/library/BokkyPooBahsDateTimeLibrary.sol\":8887:8892  month */\n      dup5\n        /* \"contracts/library/BokkyPooBahsDateTimeLibrary.sol\":8894:8897  day */\n      dup5\n        /* \"contracts/library/BokkyPooBahsDateTimeLibrary.sol\":8867:8880  _daysFromDate */\n      tag_136\n        /* \"contracts/library/BokkyPooBahsDateTimeLibrary.sol\":8867:8898  _daysFromDate(year, month, day) */\n      jump\t// in\n    tag_135:\n        /* \"contracts/library/BokkyPooBahsDateTimeLibrary.sol\":8867:8916  _daysFromDate(year, month, day) * SECONDS_PER_DAY */\n      tag_137\n      swap2\n      swap1\n      tag_113\n      jump\t// in\n    tag_137:\n        /* \"contracts/library/BokkyPooBahsDateTimeLibrary.sol\":8861:8916  res = _daysFromDate(year, month, day) * SECONDS_PER_DAY */\n      swap4\n      pop\n        /* \"contracts/library/BokkyPooBahsDateTimeLibrary.sol\":8743:8923  {... */\n      pop\n      pop\n      pop\n        /* \"contracts/library/BokkyPooBahsDateTimeLibrary.sol\":8647:8923  function timestampToDayTimeStamp(... */\n      swap2\n      swap1\n      pop\n      jump\t// out\n        /* \"@openzeppelin/contracts/utils/Context.sol\":640:736  function _msgSender() internal view virtual returns (address) {... */\n    tag_124:\n        /* \"@openzeppelin/contracts/utils/Context.sol\":693:700  address */\n      0x00\n        /* \"@openzeppelin/contracts/utils/Context.sol\":719:729  msg.sender */\n      caller\n        /* \"@openzeppelin/contracts/utils/Context.sol\":712:729  return msg.sender */\n      swap1\n      pop\n        /* \"@openzeppelin/contracts/utils/Context.sol\":640:736  function _msgSender() internal view virtual returns (address) {... */\n      swap1\n      jump\t// out\n        /* \"contracts/library/BokkyPooBahsDateTimeLibrary.sol\":3395:4024  function _daysToDate(... */\n    tag_134:\n        /* \"contracts/library/BokkyPooBahsDateTimeLibrary.sol\":3465:3474  uint year */\n      0x00\n        /* \"contracts/library/BokkyPooBahsDateTimeLibrary.sol\":3476:3486  uint month */\n      dup1\n        /* \"contracts/library/BokkyPooBahsDateTimeLibrary.sol\":3488:3496  uint day */\n      0x00\n        /* \"contracts/library/BokkyPooBahsDateTimeLibrary.sol\":3508:3518  int __days */\n      dup1\n        /* \"contracts/library/BokkyPooBahsDateTimeLibrary.sol\":3525:3530  _days */\n      dup5\n        /* \"contracts/library/BokkyPooBahsDateTimeLibrary.sol\":3508:3531  int __days = int(_days) */\n      swap1\n      pop\n        /* \"contracts/library/BokkyPooBahsDateTimeLibrary.sol\":3542:3547  int L */\n      0x00\n        /* \"contracts/library/BokkyPooBahsDateTimeLibrary.sol\":1162:1169  2440588 */\n      0x253d8c\n        /* \"contracts/library/BokkyPooBahsDateTimeLibrary.sol\":3559:3564  68569 */\n      0x010bd9\n        /* \"contracts/library/BokkyPooBahsDateTimeLibrary.sol\":3550:3556  __days */\n      dup4\n        /* \"contracts/library/BokkyPooBahsDateTimeLibrary.sol\":3550:3564  __days + 68569 */\n      tag_140\n      swap2\n      swap1\n      tag_141\n      jump\t// in\n    tag_140:\n        /* \"contracts/library/BokkyPooBahsDateTimeLibrary.sol\":3550:3581  __days + 68569 + OFFSET19700101 */\n      tag_142\n      swap2\n      swap1\n      tag_141\n      jump\t// in\n    tag_142:\n        /* \"contracts/library/BokkyPooBahsDateTimeLibrary.sol\":3542:3581  int L = __days + 68569 + OFFSET19700101 */\n      swap1\n      pop\n        /* \"contracts/library/BokkyPooBahsDateTimeLibrary.sol\":3591:3596  int N */\n      0x00\n        /* \"contracts/library/BokkyPooBahsDateTimeLibrary.sol\":3609:3615  146097 */\n      0x023ab1\n        /* \"contracts/library/BokkyPooBahsDateTimeLibrary.sol\":3604:3605  L */\n      dup3\n        /* \"contracts/library/BokkyPooBahsDateTimeLibrary.sol\":3600:3601  4 */\n      0x04\n        /* \"contracts/library/BokkyPooBahsDateTimeLibrary.sol\":3600:3605  4 * L */\n      tag_143\n      swap2\n      swap1\n      tag_144\n      jump\t// in\n    tag_143:\n        /* \"contracts/library/BokkyPooBahsDateTimeLibrary.sol\":3599:3615  (4 * L) / 146097 */\n      tag_145\n      swap2\n      swap1\n      tag_146\n      jump\t// in\n    tag_145:\n        /* \"contracts/library/BokkyPooBahsDateTimeLibrary.sol\":3591:3615  int N = (4 * L) / 146097 */\n      swap1\n      pop\n        /* \"contracts/library/BokkyPooBahsDateTimeLibrary.sol\":3652:3653  4 */\n      0x04\n        /* \"contracts/library/BokkyPooBahsDateTimeLibrary.sol\":3647:3648  3 */\n      0x03\n        /* \"contracts/library/BokkyPooBahsDateTimeLibrary.sol\":3643:3644  N */\n      dup3\n        /* \"contracts/library/BokkyPooBahsDateTimeLibrary.sol\":3634:3640  146097 */\n      0x023ab1\n        /* \"contracts/library/BokkyPooBahsDateTimeLibrary.sol\":3634:3644  146097 * N */\n      tag_147\n      swap2\n      swap1\n      tag_144\n      jump\t// in\n    tag_147:\n        /* \"contracts/library/BokkyPooBahsDateTimeLibrary.sol\":3634:3648  146097 * N + 3 */\n      tag_148\n      swap2\n      swap1\n      tag_141\n      jump\t// in\n    tag_148:\n        /* \"contracts/library/BokkyPooBahsDateTimeLibrary.sol\":3633:3653  (146097 * N + 3) / 4 */\n      tag_149\n      swap2\n      swap1\n      tag_146\n      jump\t// in\n    tag_149:\n        /* \"contracts/library/BokkyPooBahsDateTimeLibrary.sol\":3629:3630  L */\n      dup3\n        /* \"contracts/library/BokkyPooBahsDateTimeLibrary.sol\":3629:3653  L - (146097 * N + 3) / 4 */\n      tag_150\n      swap2\n      swap1\n      tag_151\n      jump\t// in\n    tag_150:\n        /* \"contracts/library/BokkyPooBahsDateTimeLibrary.sol\":3625:3653  L = L - (146097 * N + 3) / 4 */\n      swap2\n      pop\n        /* \"contracts/library/BokkyPooBahsDateTimeLibrary.sol\":3663:3672  int _year */\n      0x00\n        /* \"contracts/library/BokkyPooBahsDateTimeLibrary.sol\":3694:3701  1461001 */\n      0x164b09\n        /* \"contracts/library/BokkyPooBahsDateTimeLibrary.sol\":3688:3689  1 */\n      0x01\n        /* \"contracts/library/BokkyPooBahsDateTimeLibrary.sol\":3684:3685  L */\n      dup5\n        /* \"contracts/library/BokkyPooBahsDateTimeLibrary.sol\":3684:3689  L + 1 */\n      tag_152\n      swap2\n      swap1\n      tag_141\n      jump\t// in\n    tag_152:\n        /* \"contracts/library/BokkyPooBahsDateTimeLibrary.sol\":3676:3680  4000 */\n      0x0fa0\n        /* \"contracts/library/BokkyPooBahsDateTimeLibrary.sol\":3676:3690  4000 * (L + 1) */\n      tag_153\n      swap2\n      swap1\n      tag_144\n      jump\t// in\n    tag_153:\n        /* \"contracts/library/BokkyPooBahsDateTimeLibrary.sol\":3675:3701  (4000 * (L + 1)) / 1461001 */\n      tag_154\n      swap2\n      swap1\n      tag_146\n      jump\t// in\n    tag_154:\n        /* \"contracts/library/BokkyPooBahsDateTimeLibrary.sol\":3663:3701  int _year = (4000 * (L + 1)) / 1461001 */\n      swap1\n      pop\n        /* \"contracts/library/BokkyPooBahsDateTimeLibrary.sol\":3740:3742  31 */\n      0x1f\n        /* \"contracts/library/BokkyPooBahsDateTimeLibrary.sol\":3736:3737  4 */\n      0x04\n        /* \"contracts/library/BokkyPooBahsDateTimeLibrary.sol\":3727:3732  _year */\n      dup3\n        /* \"contracts/library/BokkyPooBahsDateTimeLibrary.sol\":3720:3724  1461 */\n      0x05b5\n        /* \"contracts/library/BokkyPooBahsDateTimeLibrary.sol\":3720:3732  1461 * _year */\n      tag_155\n      swap2\n      swap1\n      tag_144\n      jump\t// in\n    tag_155:\n        /* \"contracts/library/BokkyPooBahsDateTimeLibrary.sol\":3719:3737  (1461 * _year) / 4 */\n      tag_156\n      swap2\n      swap1\n      tag_146\n      jump\t// in\n    tag_156:\n        /* \"contracts/library/BokkyPooBahsDateTimeLibrary.sol\":3715:3716  L */\n      dup5\n        /* \"contracts/library/BokkyPooBahsDateTimeLibrary.sol\":3715:3737  L - (1461 * _year) / 4 */\n      tag_157\n      swap2\n      swap1\n      tag_151\n      jump\t// in\n    tag_157:\n        /* \"contracts/library/BokkyPooBahsDateTimeLibrary.sol\":3715:3742  L - (1461 * _year) / 4 + 31 */\n      tag_158\n      swap2\n      swap1\n      tag_141\n      jump\t// in\n    tag_158:\n        /* \"contracts/library/BokkyPooBahsDateTimeLibrary.sol\":3711:3742  L = L - (1461 * _year) / 4 + 31 */\n      swap3\n      pop\n        /* \"contracts/library/BokkyPooBahsDateTimeLibrary.sol\":3752:3762  int _month */\n      0x00\n        /* \"contracts/library/BokkyPooBahsDateTimeLibrary.sol\":3776:3780  2447 */\n      0x098f\n        /* \"contracts/library/BokkyPooBahsDateTimeLibrary.sol\":3771:3772  L */\n      dup5\n        /* \"contracts/library/BokkyPooBahsDateTimeLibrary.sol\":3766:3768  80 */\n      0x50\n        /* \"contracts/library/BokkyPooBahsDateTimeLibrary.sol\":3766:3772  80 * L */\n      tag_159\n      swap2\n      swap1\n      tag_144\n      jump\t// in\n    tag_159:\n        /* \"contracts/library/BokkyPooBahsDateTimeLibrary.sol\":3765:3780  (80 * L) / 2447 */\n      tag_160\n      swap2\n      swap1\n      tag_146\n      jump\t// in\n    tag_160:\n        /* \"contracts/library/BokkyPooBahsDateTimeLibrary.sol\":3752:3780  int _month = (80 * L) / 2447 */\n      swap1\n      pop\n        /* \"contracts/library/BokkyPooBahsDateTimeLibrary.sol\":3790:3798  int _day */\n      0x00\n        /* \"contracts/library/BokkyPooBahsDateTimeLibrary.sol\":3823:3825  80 */\n      0x50\n        /* \"contracts/library/BokkyPooBahsDateTimeLibrary.sol\":3813:3819  _month */\n      dup3\n        /* \"contracts/library/BokkyPooBahsDateTimeLibrary.sol\":3806:3810  2447 */\n      0x098f\n        /* \"contracts/library/BokkyPooBahsDateTimeLibrary.sol\":3806:3819  2447 * _month */\n      tag_161\n      swap2\n      swap1\n      tag_144\n      jump\t// in\n    tag_161:\n        /* \"contracts/library/BokkyPooBahsDateTimeLibrary.sol\":3805:3825  (2447 * _month) / 80 */\n      tag_162\n      swap2\n      swap1\n      tag_146\n      jump\t// in\n    tag_162:\n        /* \"contracts/library/BokkyPooBahsDateTimeLibrary.sol\":3801:3802  L */\n      dup6\n        /* \"contracts/library/BokkyPooBahsDateTimeLibrary.sol\":3801:3825  L - (2447 * _month) / 80 */\n      tag_163\n      swap2\n      swap1\n      tag_151\n      jump\t// in\n    tag_163:\n        /* \"contracts/library/BokkyPooBahsDateTimeLibrary.sol\":3790:3825  int _day = L - (2447 * _month) / 80 */\n      swap1\n      pop\n        /* \"contracts/library/BokkyPooBahsDateTimeLibrary.sol\":3848:3850  11 */\n      0x0b\n        /* \"contracts/library/BokkyPooBahsDateTimeLibrary.sol\":3839:3845  _month */\n      dup3\n        /* \"contracts/library/BokkyPooBahsDateTimeLibrary.sol\":3839:3850  _month / 11 */\n      tag_164\n      swap2\n      swap1\n      tag_146\n      jump\t// in\n    tag_164:\n        /* \"contracts/library/BokkyPooBahsDateTimeLibrary.sol\":3835:3850  L = _month / 11 */\n      swap5\n      pop\n        /* \"contracts/library/BokkyPooBahsDateTimeLibrary.sol\":3887:3888  L */\n      dup5\n        /* \"contracts/library/BokkyPooBahsDateTimeLibrary.sol\":3882:3884  12 */\n      0x0c\n        /* \"contracts/library/BokkyPooBahsDateTimeLibrary.sol\":3882:3888  12 * L */\n      tag_165\n      swap2\n      swap1\n      tag_144\n      jump\t// in\n    tag_165:\n        /* \"contracts/library/BokkyPooBahsDateTimeLibrary.sol\":3878:3879  2 */\n      0x02\n        /* \"contracts/library/BokkyPooBahsDateTimeLibrary.sol\":3869:3875  _month */\n      dup4\n        /* \"contracts/library/BokkyPooBahsDateTimeLibrary.sol\":3869:3879  _month + 2 */\n      tag_166\n      swap2\n      swap1\n      tag_141\n      jump\t// in\n    tag_166:\n        /* \"contracts/library/BokkyPooBahsDateTimeLibrary.sol\":3869:3888  _month + 2 - 12 * L */\n      tag_167\n      swap2\n      swap1\n      tag_151\n      jump\t// in\n    tag_167:\n        /* \"contracts/library/BokkyPooBahsDateTimeLibrary.sol\":3860:3888  _month = _month + 2 - 12 * L */\n      swap2\n      pop\n        /* \"contracts/library/BokkyPooBahsDateTimeLibrary.sol\":3931:3932  L */\n      dup5\n        /* \"contracts/library/BokkyPooBahsDateTimeLibrary.sol\":3923:3928  _year */\n      dup4\n        /* \"contracts/library/BokkyPooBahsDateTimeLibrary.sol\":3917:3919  49 */\n      0x31\n        /* \"contracts/library/BokkyPooBahsDateTimeLibrary.sol\":3913:3914  N */\n      dup7\n        /* \"contracts/library/BokkyPooBahsDateTimeLibrary.sol\":3913:3919  N - 49 */\n      tag_168\n      swap2\n      swap1\n      tag_151\n      jump\t// in\n    tag_168:\n        /* \"contracts/library/BokkyPooBahsDateTimeLibrary.sol\":3906:3909  100 */\n      0x64\n        /* \"contracts/library/BokkyPooBahsDateTimeLibrary.sol\":3906:3920  100 * (N - 49) */\n      tag_169\n      swap2\n      swap1\n      tag_144\n      jump\t// in\n    tag_169:\n        /* \"contracts/library/BokkyPooBahsDateTimeLibrary.sol\":3906:3928  100 * (N - 49) + _year */\n      tag_170\n      swap2\n      swap1\n      tag_141\n      jump\t// in\n    tag_170:\n        /* \"contracts/library/BokkyPooBahsDateTimeLibrary.sol\":3906:3932  100 * (N - 49) + _year + L */\n      tag_171\n      swap2\n      swap1\n      tag_141\n      jump\t// in\n    tag_171:\n        /* \"contracts/library/BokkyPooBahsDateTimeLibrary.sol\":3898:3932  _year = 100 * (N - 49) + _year + L */\n      swap3\n      pop\n        /* \"contracts/library/BokkyPooBahsDateTimeLibrary.sol\":3955:3960  _year */\n      dup3\n        /* \"contracts/library/BokkyPooBahsDateTimeLibrary.sol\":3943:3961  year = uint(_year) */\n      swap9\n      pop\n        /* \"contracts/library/BokkyPooBahsDateTimeLibrary.sol\":3984:3990  _month */\n      dup2\n        /* \"contracts/library/BokkyPooBahsDateTimeLibrary.sol\":3971:3991  month = uint(_month) */\n      swap8\n      pop\n        /* \"contracts/library/BokkyPooBahsDateTimeLibrary.sol\":4012:4016  _day */\n      dup1\n        /* \"contracts/library/BokkyPooBahsDateTimeLibrary.sol\":4001:4017  day = uint(_day) */\n      swap7\n      pop\n        /* \"contracts/library/BokkyPooBahsDateTimeLibrary.sol\":3498:4024  {... */\n      pop\n      pop\n      pop\n      pop\n      pop\n      pop\n        /* \"contracts/library/BokkyPooBahsDateTimeLibrary.sol\":3395:4024  function _daysToDate(... */\n      swap2\n      swap4\n      swap1\n      swap3\n      pop\n      jump\t// out\n        /* \"contracts/library/BokkyPooBahsDateTimeLibrary.sol\":2047:2642  function _daysFromDate(... */\n    tag_136:\n        /* \"contracts/library/BokkyPooBahsDateTimeLibrary.sol\":2156:2166  uint _days */\n      0x00\n        /* \"contracts/library/BokkyPooBahsDateTimeLibrary.sol\":2194:2198  1970 */\n      0x07b2\n        /* \"contracts/library/BokkyPooBahsDateTimeLibrary.sol\":2186:2190  year */\n      dup5\n        /* \"contracts/library/BokkyPooBahsDateTimeLibrary.sol\":2186:2198  year >= 1970 */\n      lt\n      iszero\n        /* \"contracts/library/BokkyPooBahsDateTimeLibrary.sol\":2178:2199  require(year >= 1970) */\n      tag_173\n      jumpi\n      0x00\n      dup1\n      revert\n    tag_173:\n        /* \"contracts/library/BokkyPooBahsDateTimeLibrary.sol\":2209:2218  int _year */\n      0x00\n        /* \"contracts/library/BokkyPooBahsDateTimeLibrary.sol\":2225:2229  year */\n      dup5\n        /* \"contracts/library/BokkyPooBahsDateTimeLibrary.sol\":2209:2230  int _year = int(year) */\n      swap1\n      pop\n        /* \"contracts/library/BokkyPooBahsDateTimeLibrary.sol\":2240:2250  int _month */\n      0x00\n        /* \"contracts/library/BokkyPooBahsDateTimeLibrary.sol\":2257:2262  month */\n      dup5\n        /* \"contracts/library/BokkyPooBahsDateTimeLibrary.sol\":2240:2263  int _month = int(month) */\n      swap1\n      pop\n        /* \"contracts/library/BokkyPooBahsDateTimeLibrary.sol\":2273:2281  int _day */\n      0x00\n        /* \"contracts/library/BokkyPooBahsDateTimeLibrary.sol\":2288:2291  day */\n      dup5\n        /* \"contracts/library/BokkyPooBahsDateTimeLibrary.sol\":2273:2292  int _day = int(day) */\n      swap1\n      pop\n        /* \"contracts/library/BokkyPooBahsDateTimeLibrary.sol\":2303:2313  int __days */\n      0x00\n        /* \"contracts/library/BokkyPooBahsDateTimeLibrary.sol\":1162:1169  2440588 */\n      0x253d8c\n        /* \"contracts/library/BokkyPooBahsDateTimeLibrary.sol\":2574:2575  4 */\n      0x04\n        /* \"contracts/library/BokkyPooBahsDateTimeLibrary.sol\":2554:2557  100 */\n      0x64\n        /* \"contracts/library/BokkyPooBahsDateTimeLibrary.sol\":2548:2550  12 */\n      0x0c\n        /* \"contracts/library/BokkyPooBahsDateTimeLibrary.sol\":2542:2544  14 */\n      0x0e\n        /* \"contracts/library/BokkyPooBahsDateTimeLibrary.sol\":2533:2539  _month */\n      dup8\n        /* \"contracts/library/BokkyPooBahsDateTimeLibrary.sol\":2533:2544  _month - 14 */\n      tag_174\n      swap2\n      swap1\n      tag_151\n      jump\t// in\n    tag_174:\n        /* \"contracts/library/BokkyPooBahsDateTimeLibrary.sol\":2532:2550  (_month - 14) / 12 */\n      tag_175\n      swap2\n      swap1\n      tag_146\n      jump\t// in\n    tag_175:\n        /* \"contracts/library/BokkyPooBahsDateTimeLibrary.sol\":2525:2529  4900 */\n      0x1324\n        /* \"contracts/library/BokkyPooBahsDateTimeLibrary.sol\":2517:2522  _year */\n      dup9\n        /* \"contracts/library/BokkyPooBahsDateTimeLibrary.sol\":2517:2529  _year + 4900 */\n      tag_176\n      swap2\n      swap1\n      tag_141\n      jump\t// in\n    tag_176:\n        /* \"contracts/library/BokkyPooBahsDateTimeLibrary.sol\":2517:2550  _year + 4900 + (_month - 14) / 12 */\n      tag_177\n      swap2\n      swap1\n      tag_141\n      jump\t// in\n    tag_177:\n        /* \"contracts/library/BokkyPooBahsDateTimeLibrary.sol\":2516:2557  (_year + 4900 + (_month - 14) / 12) / 100 */\n      tag_178\n      swap2\n      swap1\n      tag_146\n      jump\t// in\n    tag_178:\n        /* \"contracts/library/BokkyPooBahsDateTimeLibrary.sol\":2511:2512  3 */\n      0x03\n        /* \"contracts/library/BokkyPooBahsDateTimeLibrary.sol\":2511:2558  3 * ((_year + 4900 + (_month - 14) / 12) / 100) */\n      tag_179\n      swap2\n      swap1\n      tag_144\n      jump\t// in\n    tag_179:\n        /* \"contracts/library/BokkyPooBahsDateTimeLibrary.sol\":2510:2575  (3 * ((_year + 4900 + (_month - 14) / 12) / 100)) /... */\n      tag_180\n      swap2\n      swap1\n      tag_146\n      jump\t// in\n    tag_180:\n        /* \"contracts/library/BokkyPooBahsDateTimeLibrary.sol\":2493:2495  12 */\n      0x0c\n        /* \"contracts/library/BokkyPooBahsDateTimeLibrary.sol\":2474:2476  12 */\n      dup1\n        /* \"contracts/library/BokkyPooBahsDateTimeLibrary.sol\":2468:2470  12 */\n      0x0c\n        /* \"contracts/library/BokkyPooBahsDateTimeLibrary.sol\":2462:2464  14 */\n      0x0e\n        /* \"contracts/library/BokkyPooBahsDateTimeLibrary.sol\":2453:2459  _month */\n      dup9\n        /* \"contracts/library/BokkyPooBahsDateTimeLibrary.sol\":2453:2464  _month - 14 */\n      tag_181\n      swap2\n      swap1\n      tag_151\n      jump\t// in\n    tag_181:\n        /* \"contracts/library/BokkyPooBahsDateTimeLibrary.sol\":2452:2470  (_month - 14) / 12 */\n      tag_182\n      swap2\n      swap1\n      tag_146\n      jump\t// in\n    tag_182:\n        /* \"contracts/library/BokkyPooBahsDateTimeLibrary.sol\":2451:2476  ((_month - 14) / 12) * 12 */\n      tag_183\n      swap2\n      swap1\n      tag_144\n      jump\t// in\n    tag_183:\n        /* \"contracts/library/BokkyPooBahsDateTimeLibrary.sol\":2447:2448  2 */\n      0x02\n        /* \"contracts/library/BokkyPooBahsDateTimeLibrary.sol\":2438:2444  _month */\n      dup8\n        /* \"contracts/library/BokkyPooBahsDateTimeLibrary.sol\":2438:2448  _month - 2 */\n      tag_184\n      swap2\n      swap1\n      tag_151\n      jump\t// in\n    tag_184:\n        /* \"contracts/library/BokkyPooBahsDateTimeLibrary.sol\":2438:2476  _month - 2 - ((_month - 14) / 12) * 12 */\n      tag_185\n      swap2\n      swap1\n      tag_151\n      jump\t// in\n    tag_185:\n        /* \"contracts/library/BokkyPooBahsDateTimeLibrary.sol\":2431:2434  367 */\n      0x016f\n        /* \"contracts/library/BokkyPooBahsDateTimeLibrary.sol\":2431:2477  367 * (_month - 2 - ((_month - 14) / 12) * 12) */\n      tag_186\n      swap2\n      swap1\n      tag_144\n      jump\t// in\n    tag_186:\n        /* \"contracts/library/BokkyPooBahsDateTimeLibrary.sol\":2430:2495  (367 * (_month - 2 - ((_month - 14) / 12) * 12)) /... */\n      tag_187\n      swap2\n      swap1\n      tag_146\n      jump\t// in\n    tag_187:\n        /* \"contracts/library/BokkyPooBahsDateTimeLibrary.sol\":2414:2415  4 */\n      0x04\n        /* \"contracts/library/BokkyPooBahsDateTimeLibrary.sol\":2395:2397  12 */\n      0x0c\n        /* \"contracts/library/BokkyPooBahsDateTimeLibrary.sol\":2389:2391  14 */\n      0x0e\n        /* \"contracts/library/BokkyPooBahsDateTimeLibrary.sol\":2380:2386  _month */\n      dup9\n        /* \"contracts/library/BokkyPooBahsDateTimeLibrary.sol\":2380:2391  _month - 14 */\n      tag_188\n      swap2\n      swap1\n      tag_151\n      jump\t// in\n    tag_188:\n        /* \"contracts/library/BokkyPooBahsDateTimeLibrary.sol\":2379:2397  (_month - 14) / 12 */\n      tag_189\n      swap2\n      swap1\n      tag_146\n      jump\t// in\n    tag_189:\n        /* \"contracts/library/BokkyPooBahsDateTimeLibrary.sol\":2372:2376  4800 */\n      0x12c0\n        /* \"contracts/library/BokkyPooBahsDateTimeLibrary.sol\":2364:2369  _year */\n      dup10\n        /* \"contracts/library/BokkyPooBahsDateTimeLibrary.sol\":2364:2376  _year + 4800 */\n      tag_190\n      swap2\n      swap1\n      tag_141\n      jump\t// in\n    tag_190:\n        /* \"contracts/library/BokkyPooBahsDateTimeLibrary.sol\":2364:2397  _year + 4800 + (_month - 14) / 12 */\n      tag_191\n      swap2\n      swap1\n      tag_141\n      jump\t// in\n    tag_191:\n        /* \"contracts/library/BokkyPooBahsDateTimeLibrary.sol\":2356:2360  1461 */\n      0x05b5\n        /* \"contracts/library/BokkyPooBahsDateTimeLibrary.sol\":2356:2398  1461 * (_year + 4800 + (_month - 14) / 12) */\n      tag_192\n      swap2\n      swap1\n      tag_144\n      jump\t// in\n    tag_192:\n        /* \"contracts/library/BokkyPooBahsDateTimeLibrary.sol\":2355:2415  (1461 * (_year + 4800 + (_month - 14) / 12)) /... */\n      tag_193\n      swap2\n      swap1\n      tag_146\n      jump\t// in\n    tag_193:\n        /* \"contracts/library/BokkyPooBahsDateTimeLibrary.sol\":2335:2340  32075 */\n      0x7d4b\n        /* \"contracts/library/BokkyPooBahsDateTimeLibrary.sol\":2316:2320  _day */\n      dup7\n        /* \"contracts/library/BokkyPooBahsDateTimeLibrary.sol\":2316:2340  _day -... */\n      tag_194\n      swap2\n      swap1\n      tag_151\n      jump\t// in\n    tag_194:\n        /* \"contracts/library/BokkyPooBahsDateTimeLibrary.sol\":2316:2415  _day -... */\n      tag_195\n      swap2\n      swap1\n      tag_141\n      jump\t// in\n    tag_195:\n        /* \"contracts/library/BokkyPooBahsDateTimeLibrary.sol\":2316:2495  _day -... */\n      tag_196\n      swap2\n      swap1\n      tag_141\n      jump\t// in\n    tag_196:\n        /* \"contracts/library/BokkyPooBahsDateTimeLibrary.sol\":2316:2575  _day -... */\n      tag_197\n      swap2\n      swap1\n      tag_151\n      jump\t// in\n    tag_197:\n        /* \"contracts/library/BokkyPooBahsDateTimeLibrary.sol\":2316:2604  _day -... */\n      tag_198\n      swap2\n      swap1\n      tag_151\n      jump\t// in\n    tag_198:\n        /* \"contracts/library/BokkyPooBahsDateTimeLibrary.sol\":2303:2604  int __days = _day -... */\n      swap1\n      pop\n        /* \"contracts/library/BokkyPooBahsDateTimeLibrary.sol\":2628:2634  __days */\n      dup1\n        /* \"contracts/library/BokkyPooBahsDateTimeLibrary.sol\":2615:2635  _days = uint(__days) */\n      swap5\n      pop\n        /* \"contracts/library/BokkyPooBahsDateTimeLibrary.sol\":2168:2642  {... */\n      pop\n      pop\n      pop\n      pop\n        /* \"contracts/library/BokkyPooBahsDateTimeLibrary.sol\":2047:2642  function _daysFromDate(... */\n      swap4\n      swap3\n      pop\n      pop\n      pop\n      jump\t// out\n        /* \"#utility.yul\":88:205   */\n    tag_200:\n        /* \"#utility.yul\":197:198   */\n      0x00\n        /* \"#utility.yul\":194:195   */\n      dup1\n        /* \"#utility.yul\":187:199   */\n      revert\n        /* \"#utility.yul\":334:460   */\n    tag_202:\n        /* \"#utility.yul\":371:378   */\n      0x00\n        /* \"#utility.yul\":411:453   */\n      0xffffffffffffffffffffffffffffffffffffffff\n        /* \"#utility.yul\":404:409   */\n      dup3\n        /* \"#utility.yul\":400:454   */\n      and\n        /* \"#utility.yul\":389:454   */\n      swap1\n      pop\n        /* \"#utility.yul\":334:460   */\n      swap2\n      swap1\n      pop\n      jump\t// out\n        /* \"#utility.yul\":466:562   */\n    tag_203:\n        /* \"#utility.yul\":503:510   */\n      0x00\n        /* \"#utility.yul\":532:556   */\n      tag_229\n        /* \"#utility.yul\":550:555   */\n      dup3\n        /* \"#utility.yul\":532:556   */\n      tag_202\n      jump\t// in\n    tag_229:\n        /* \"#utility.yul\":521:556   */\n      swap1\n      pop\n        /* \"#utility.yul\":466:562   */\n      swap2\n      swap1\n      pop\n      jump\t// out\n        /* \"#utility.yul\":568:690   */\n    tag_204:\n        /* \"#utility.yul\":641:665   */\n      tag_231\n        /* \"#utility.yul\":659:664   */\n      dup2\n        /* \"#utility.yul\":641:665   */\n      tag_203\n      jump\t// in\n    tag_231:\n        /* \"#utility.yul\":634:639   */\n      dup2\n        /* \"#utility.yul\":631:666   */\n      eq\n        /* \"#utility.yul\":621:684   */\n      tag_232\n      jumpi\n        /* \"#utility.yul\":680:681   */\n      0x00\n        /* \"#utility.yul\":677:678   */\n      dup1\n        /* \"#utility.yul\":670:682   */\n      revert\n        /* \"#utility.yul\":621:684   */\n    tag_232:\n        /* \"#utility.yul\":568:690   */\n      pop\n      jump\t// out\n        /* \"#utility.yul\":696:835   */\n    tag_205:\n        /* \"#utility.yul\":742:747   */\n      0x00\n        /* \"#utility.yul\":780:786   */\n      dup2\n        /* \"#utility.yul\":767:787   */\n      calldataload\n        /* \"#utility.yul\":758:787   */\n      swap1\n      pop\n        /* \"#utility.yul\":796:829   */\n      tag_234\n        /* \"#utility.yul\":823:828   */\n      dup2\n        /* \"#utility.yul\":796:829   */\n      tag_204\n      jump\t// in\n    tag_234:\n        /* \"#utility.yul\":696:835   */\n      swap3\n      swap2\n      pop\n      pop\n      jump\t// out\n        /* \"#utility.yul\":841:1170   */\n    tag_22:\n        /* \"#utility.yul\":900:906   */\n      0x00\n        /* \"#utility.yul\":949:951   */\n      0x20\n        /* \"#utility.yul\":937:946   */\n      dup3\n        /* \"#utility.yul\":928:935   */\n      dup5\n        /* \"#utility.yul\":924:947   */\n      sub\n        /* \"#utility.yul\":920:952   */\n      slt\n        /* \"#utility.yul\":917:1036   */\n      iszero\n      tag_236\n      jumpi\n        /* \"#utility.yul\":955:1034   */\n      tag_237\n      tag_200\n      jump\t// in\n    tag_237:\n        /* \"#utility.yul\":917:1036   */\n    tag_236:\n        /* \"#utility.yul\":1075:1076   */\n      0x00\n        /* \"#utility.yul\":1100:1153   */\n      tag_238\n        /* \"#utility.yul\":1145:1152   */\n      dup5\n        /* \"#utility.yul\":1136:1142   */\n      dup3\n        /* \"#utility.yul\":1125:1134   */\n      dup6\n        /* \"#utility.yul\":1121:1143   */\n      add\n        /* \"#utility.yul\":1100:1153   */\n      tag_205\n      jump\t// in\n    tag_238:\n        /* \"#utility.yul\":1090:1153   */\n      swap2\n      pop\n        /* \"#utility.yul\":1046:1163   */\n      pop\n        /* \"#utility.yul\":841:1170   */\n      swap3\n      swap2\n      pop\n      pop\n      jump\t// out\n        /* \"#utility.yul\":1176:1266   */\n    tag_206:\n        /* \"#utility.yul\":1210:1217   */\n      0x00\n        /* \"#utility.yul\":1253:1258   */\n      dup2\n        /* \"#utility.yul\":1246:1259   */\n      iszero\n        /* \"#utility.yul\":1239:1260   */\n      iszero\n        /* \"#utility.yul\":1228:1260   */\n      swap1\n      pop\n        /* \"#utility.yul\":1176:1266   */\n      swap2\n      swap1\n      pop\n      jump\t// out\n        /* \"#utility.yul\":1272:1381   */\n    tag_207:\n        /* \"#utility.yul\":1353:1374   */\n      tag_241\n        /* \"#utility.yul\":1368:1373   */\n      dup2\n        /* \"#utility.yul\":1353:1374   */\n      tag_206\n      jump\t// in\n    tag_241:\n        /* \"#utility.yul\":1348:1351   */\n      dup3\n        /* \"#utility.yul\":1341:1375   */\n      mstore\n        /* \"#utility.yul\":1272:1381   */\n      pop\n      pop\n      jump\t// out\n        /* \"#utility.yul\":1387:1597   */\n    tag_25:\n        /* \"#utility.yul\":1474:1478   */\n      0x00\n        /* \"#utility.yul\":1512:1514   */\n      0x20\n        /* \"#utility.yul\":1501:1510   */\n      dup3\n        /* \"#utility.yul\":1497:1515   */\n      add\n        /* \"#utility.yul\":1489:1515   */\n      swap1\n      pop\n        /* \"#utility.yul\":1525:1590   */\n      tag_243\n        /* \"#utility.yul\":1587:1588   */\n      0x00\n        /* \"#utility.yul\":1576:1585   */\n      dup4\n        /* \"#utility.yul\":1572:1589   */\n      add\n        /* \"#utility.yul\":1563:1569   */\n      dup5\n        /* \"#utility.yul\":1525:1590   */\n      tag_207\n      jump\t// in\n    tag_243:\n        /* \"#utility.yul\":1387:1597   */\n      swap3\n      swap2\n      pop\n      pop\n      jump\t// out\n        /* \"#utility.yul\":1603:1680   */\n    tag_208:\n        /* \"#utility.yul\":1640:1647   */\n      0x00\n        /* \"#utility.yul\":1669:1674   */\n      dup2\n        /* \"#utility.yul\":1658:1674   */\n      swap1\n      pop\n        /* \"#utility.yul\":1603:1680   */\n      swap2\n      swap1\n      pop\n      jump\t// out\n        /* \"#utility.yul\":1686:1804   */\n    tag_209:\n        /* \"#utility.yul\":1773:1797   */\n      tag_246\n        /* \"#utility.yul\":1791:1796   */\n      dup2\n        /* \"#utility.yul\":1773:1797   */\n      tag_208\n      jump\t// in\n    tag_246:\n        /* \"#utility.yul\":1768:1771   */\n      dup3\n        /* \"#utility.yul\":1761:1798   */\n      mstore\n        /* \"#utility.yul\":1686:1804   */\n      pop\n      pop\n      jump\t// out\n        /* \"#utility.yul\":1810:2032   */\n    tag_43:\n        /* \"#utility.yul\":1903:1907   */\n      0x00\n        /* \"#utility.yul\":1941:1943   */\n      0x20\n        /* \"#utility.yul\":1930:1939   */\n      dup3\n        /* \"#utility.yul\":1926:1944   */\n      add\n        /* \"#utility.yul\":1918:1944   */\n      swap1\n      pop\n        /* \"#utility.yul\":1954:2025   */\n      tag_248\n        /* \"#utility.yul\":2022:2023   */\n      0x00\n        /* \"#utility.yul\":2011:2020   */\n      dup4\n        /* \"#utility.yul\":2007:2024   */\n      add\n        /* \"#utility.yul\":1998:2004   */\n      dup5\n        /* \"#utility.yul\":1954:2025   */\n      tag_209\n      jump\t// in\n    tag_248:\n        /* \"#utility.yul\":1810:2032   */\n      swap3\n      swap2\n      pop\n      pop\n      jump\t// out\n        /* \"#utility.yul\":2038:2156   */\n    tag_210:\n        /* \"#utility.yul\":2125:2149   */\n      tag_250\n        /* \"#utility.yul\":2143:2148   */\n      dup2\n        /* \"#utility.yul\":2125:2149   */\n      tag_203\n      jump\t// in\n    tag_250:\n        /* \"#utility.yul\":2120:2123   */\n      dup3\n        /* \"#utility.yul\":2113:2150   */\n      mstore\n        /* \"#utility.yul\":2038:2156   */\n      pop\n      pop\n      jump\t// out\n        /* \"#utility.yul\":2162:2384   */\n    tag_47:\n        /* \"#utility.yul\":2255:2259   */\n      0x00\n        /* \"#utility.yul\":2293:2295   */\n      0x20\n        /* \"#utility.yul\":2282:2291   */\n      dup3\n        /* \"#utility.yul\":2278:2296   */\n      add\n        /* \"#utility.yul\":2270:2296   */\n      swap1\n      pop\n        /* \"#utility.yul\":2306:2377   */\n      tag_252\n        /* \"#utility.yul\":2374:2375   */\n      0x00\n        /* \"#utility.yul\":2363:2372   */\n      dup4\n        /* \"#utility.yul\":2359:2376   */\n      add\n        /* \"#utility.yul\":2350:2356   */\n      dup5\n        /* \"#utility.yul\":2306:2377   */\n      tag_210\n      jump\t// in\n    tag_252:\n        /* \"#utility.yul\":2162:2384   */\n      swap3\n      swap2\n      pop\n      pop\n      jump\t// out\n        /* \"#utility.yul\":2390:2864   */\n    tag_52:\n        /* \"#utility.yul\":2458:2464   */\n      0x00\n        /* \"#utility.yul\":2466:2472   */\n      dup1\n        /* \"#utility.yul\":2515:2517   */\n      0x40\n        /* \"#utility.yul\":2503:2512   */\n      dup4\n        /* \"#utility.yul\":2494:2501   */\n      dup6\n        /* \"#utility.yul\":2490:2513   */\n      sub\n        /* \"#utility.yul\":2486:2518   */\n      slt\n        /* \"#utility.yul\":2483:2602   */\n      iszero\n      tag_254\n      jumpi\n        /* \"#utility.yul\":2521:2600   */\n      tag_255\n      tag_200\n      jump\t// in\n    tag_255:\n        /* \"#utility.yul\":2483:2602   */\n    tag_254:\n        /* \"#utility.yul\":2641:2642   */\n      0x00\n        /* \"#utility.yul\":2666:2719   */\n      tag_256\n        /* \"#utility.yul\":2711:2718   */\n      dup6\n        /* \"#utility.yul\":2702:2708   */\n      dup3\n        /* \"#utility.yul\":2691:2700   */\n      dup7\n        /* \"#utility.yul\":2687:2709   */\n      add\n        /* \"#utility.yul\":2666:2719   */\n      tag_205\n      jump\t// in\n    tag_256:\n        /* \"#utility.yul\":2656:2719   */\n      swap3\n      pop\n        /* \"#utility.yul\":2612:2729   */\n      pop\n        /* \"#utility.yul\":2768:2770   */\n      0x20\n        /* \"#utility.yul\":2794:2847   */\n      tag_257\n        /* \"#utility.yul\":2839:2846   */\n      dup6\n        /* \"#utility.yul\":2830:2836   */\n      dup3\n        /* \"#utility.yul\":2819:2828   */\n      dup7\n        /* \"#utility.yul\":2815:2837   */\n      add\n        /* \"#utility.yul\":2794:2847   */\n      tag_205\n      jump\t// in\n    tag_257:\n        /* \"#utility.yul\":2784:2847   */\n      swap2\n      pop\n        /* \"#utility.yul\":2739:2857   */\n      pop\n        /* \"#utility.yul\":2390:2864   */\n      swap3\n      pop\n      swap3\n      swap1\n      pop\n      jump\t// out\n        /* \"#utility.yul\":2870:2992   */\n    tag_211:\n        /* \"#utility.yul\":2943:2967   */\n      tag_259\n        /* \"#utility.yul\":2961:2966   */\n      dup2\n        /* \"#utility.yul\":2943:2967   */\n      tag_208\n      jump\t// in\n    tag_259:\n        /* \"#utility.yul\":2936:2941   */\n      dup2\n        /* \"#utility.yul\":2933:2968   */\n      eq\n        /* \"#utility.yul\":2923:2986   */\n      tag_260\n      jumpi\n        /* \"#utility.yul\":2982:2983   */\n      0x00\n        /* \"#utility.yul\":2979:2980   */\n      dup1\n        /* \"#utility.yul\":2972:2984   */\n      revert\n        /* \"#utility.yul\":2923:2986   */\n    tag_260:\n        /* \"#utility.yul\":2870:2992   */\n      pop\n      jump\t// out\n        /* \"#utility.yul\":2998:3137   */\n    tag_212:\n        /* \"#utility.yul\":3044:3049   */\n      0x00\n        /* \"#utility.yul\":3082:3088   */\n      dup2\n        /* \"#utility.yul\":3069:3089   */\n      calldataload\n        /* \"#utility.yul\":3060:3089   */\n      swap1\n      pop\n        /* \"#utility.yul\":3098:3131   */\n      tag_262\n        /* \"#utility.yul\":3125:3130   */\n      dup2\n        /* \"#utility.yul\":3098:3131   */\n      tag_211\n      jump\t// in\n    tag_262:\n        /* \"#utility.yul\":2998:3137   */\n      swap3\n      swap2\n      pop\n      pop\n      jump\t// out\n        /* \"#utility.yul\":3143:3472   */\n    tag_60:\n        /* \"#utility.yul\":3202:3208   */\n      0x00\n        /* \"#utility.yul\":3251:3253   */\n      0x20\n        /* \"#utility.yul\":3239:3248   */\n      dup3\n        /* \"#utility.yul\":3230:3237   */\n      dup5\n        /* \"#utility.yul\":3226:3249   */\n      sub\n        /* \"#utility.yul\":3222:3254   */\n      slt\n        /* \"#utility.yul\":3219:3338   */\n      iszero\n      tag_264\n      jumpi\n        /* \"#utility.yul\":3257:3336   */\n      tag_265\n      tag_200\n      jump\t// in\n    tag_265:\n        /* \"#utility.yul\":3219:3338   */\n    tag_264:\n        /* \"#utility.yul\":3377:3378   */\n      0x00\n        /* \"#utility.yul\":3402:3455   */\n      tag_266\n        /* \"#utility.yul\":3447:3454   */\n      dup5\n        /* \"#utility.yul\":3438:3444   */\n      dup3\n        /* \"#utility.yul\":3427:3436   */\n      dup6\n        /* \"#utility.yul\":3423:3445   */\n      add\n        /* \"#utility.yul\":3402:3455   */\n      tag_212\n      jump\t// in\n    tag_266:\n        /* \"#utility.yul\":3392:3455   */\n      swap2\n      pop\n        /* \"#utility.yul\":3348:3465   */\n      pop\n        /* \"#utility.yul\":3143:3472   */\n      swap3\n      swap2\n      pop\n      pop\n      jump\t// out\n        /* \"#utility.yul\":3478:3647   */\n    tag_213:\n        /* \"#utility.yul\":3562:3573   */\n      0x00\n        /* \"#utility.yul\":3596:3602   */\n      dup3\n        /* \"#utility.yul\":3591:3594   */\n      dup3\n        /* \"#utility.yul\":3584:3603   */\n      mstore\n        /* \"#utility.yul\":3636:3640   */\n      0x20\n        /* \"#utility.yul\":3631:3634   */\n      dup3\n        /* \"#utility.yul\":3627:3641   */\n      add\n        /* \"#utility.yul\":3612:3641   */\n      swap1\n      pop\n        /* \"#utility.yul\":3478:3647   */\n      swap3\n      swap2\n      pop\n      pop\n      jump\t// out\n        /* \"#utility.yul\":3653:3825   */\n    tag_214:\n        /* \"#utility.yul\":3793:3817   */\n      0x4f6e6c792061646d696e2063616e2063616c6c20697400000000000000000000\n        /* \"#utility.yul\":3789:3790   */\n      0x00\n        /* \"#utility.yul\":3781:3787   */\n      dup3\n        /* \"#utility.yul\":3777:3791   */\n      add\n        /* \"#utility.yul\":3770:3818   */\n      mstore\n        /* \"#utility.yul\":3653:3825   */\n      pop\n      jump\t// out\n        /* \"#utility.yul\":3831:4197   */\n    tag_215:\n        /* \"#utility.yul\":3973:3976   */\n      0x00\n        /* \"#utility.yul\":3994:4061   */\n      tag_270\n        /* \"#utility.yul\":4058:4060   */\n      0x16\n        /* \"#utility.yul\":4053:4056   */\n      dup4\n        /* \"#utility.yul\":3994:4061   */\n      tag_213\n      jump\t// in\n    tag_270:\n        /* \"#utility.yul\":3987:4061   */\n      swap2\n      pop\n        /* \"#utility.yul\":4070:4163   */\n      tag_271\n        /* \"#utility.yul\":4159:4162   */\n      dup3\n        /* \"#utility.yul\":4070:4163   */\n      tag_214\n      jump\t// in\n    tag_271:\n        /* \"#utility.yul\":4188:4190   */\n      0x20\n        /* \"#utility.yul\":4183:4186   */\n      dup3\n        /* \"#utility.yul\":4179:4191   */\n      add\n        /* \"#utility.yul\":4172:4191   */\n      swap1\n      pop\n        /* \"#utility.yul\":3831:4197   */\n      swap2\n      swap1\n      pop\n      jump\t// out\n        /* \"#utility.yul\":4203:4622   */\n    tag_96:\n        /* \"#utility.yul\":4369:4373   */\n      0x00\n        /* \"#utility.yul\":4407:4409   */\n      0x20\n        /* \"#utility.yul\":4396:4405   */\n      dup3\n        /* \"#utility.yul\":4392:4410   */\n      add\n        /* \"#utility.yul\":4384:4410   */\n      swap1\n      pop\n        /* \"#utility.yul\":4456:4465   */\n      dup2\n        /* \"#utility.yul\":4450:4454   */\n      dup2\n        /* \"#utility.yul\":4446:4466   */\n      sub\n        /* \"#utility.yul\":4442:4443   */\n      0x00\n        /* \"#utility.yul\":4431:4440   */\n      dup4\n        /* \"#utility.yul\":4427:4444   */\n      add\n        /* \"#utility.yul\":4420:4467   */\n      mstore\n        /* \"#utility.yul\":4484:4615   */\n      tag_273\n        /* \"#utility.yul\":4610:4614   */\n      dup2\n        /* \"#utility.yul\":4484:4615   */\n      tag_215\n      jump\t// in\n    tag_273:\n        /* \"#utility.yul\":4476:4615   */\n      swap1\n      pop\n        /* \"#utility.yul\":4203:4622   */\n      swap2\n      swap1\n      pop\n      jump\t// out\n        /* \"#utility.yul\":4628:4960   */\n    tag_106:\n        /* \"#utility.yul\":4749:4753   */\n      0x00\n        /* \"#utility.yul\":4787:4789   */\n      0x40\n        /* \"#utility.yul\":4776:4785   */\n      dup3\n        /* \"#utility.yul\":4772:4790   */\n      add\n        /* \"#utility.yul\":4764:4790   */\n      swap1\n      pop\n        /* \"#utility.yul\":4800:4871   */\n      tag_275\n        /* \"#utility.yul\":4868:4869   */\n      0x00\n        /* \"#utility.yul\":4857:4866   */\n      dup4\n        /* \"#utility.yul\":4853:4870   */\n      add\n        /* \"#utility.yul\":4844:4850   */\n      dup6\n        /* \"#utility.yul\":4800:4871   */\n      tag_210\n      jump\t// in\n    tag_275:\n        /* \"#utility.yul\":4881:4953   */\n      tag_276\n        /* \"#utility.yul\":4949:4951   */\n      0x20\n        /* \"#utility.yul\":4938:4947   */\n      dup4\n        /* \"#utility.yul\":4934:4952   */\n      add\n        /* \"#utility.yul\":4925:4931   */\n      dup5\n        /* \"#utility.yul\":4881:4953   */\n      tag_210\n      jump\t// in\n    tag_276:\n        /* \"#utility.yul\":4628:4960   */\n      swap4\n      swap3\n      pop\n      pop\n      pop\n      jump\t// out\n        /* \"#utility.yul\":4966:5146   */\n    tag_216:\n        /* \"#utility.yul\":5014:5091   */\n      0x4e487b7100000000000000000000000000000000000000000000000000000000\n        /* \"#utility.yul\":5011:5012   */\n      0x00\n        /* \"#utility.yul\":5004:5092   */\n      mstore\n        /* \"#utility.yul\":5111:5115   */\n      0x11\n        /* \"#utility.yul\":5108:5109   */\n      0x04\n        /* \"#utility.yul\":5101:5116   */\n      mstore\n        /* \"#utility.yul\":5135:5139   */\n      0x24\n        /* \"#utility.yul\":5132:5133   */\n      0x00\n        /* \"#utility.yul\":5125:5140   */\n      revert\n        /* \"#utility.yul\":5152:5562   */\n    tag_113:\n        /* \"#utility.yul\":5192:5199   */\n      0x00\n        /* \"#utility.yul\":5215:5235   */\n      tag_279\n        /* \"#utility.yul\":5233:5234   */\n      dup3\n        /* \"#utility.yul\":5215:5235   */\n      tag_208\n      jump\t// in\n    tag_279:\n        /* \"#utility.yul\":5210:5235   */\n      swap2\n      pop\n        /* \"#utility.yul\":5249:5269   */\n      tag_280\n        /* \"#utility.yul\":5267:5268   */\n      dup4\n        /* \"#utility.yul\":5249:5269   */\n      tag_208\n      jump\t// in\n    tag_280:\n        /* \"#utility.yul\":5244:5269   */\n      swap3\n      pop\n        /* \"#utility.yul\":5304:5305   */\n      dup3\n        /* \"#utility.yul\":5301:5302   */\n      dup3\n        /* \"#utility.yul\":5297:5306   */\n      mul\n        /* \"#utility.yul\":5326:5356   */\n      tag_281\n        /* \"#utility.yul\":5344:5355   */\n      dup2\n        /* \"#utility.yul\":5326:5356   */\n      tag_208\n      jump\t// in\n    tag_281:\n        /* \"#utility.yul\":5315:5356   */\n      swap2\n      pop\n        /* \"#utility.yul\":5505:5506   */\n      dup3\n        /* \"#utility.yul\":5496:5503   */\n      dup3\n        /* \"#utility.yul\":5492:5507   */\n      div\n        /* \"#utility.yul\":5489:5490   */\n      dup5\n        /* \"#utility.yul\":5486:5508   */\n      eq\n        /* \"#utility.yul\":5466:5467   */\n      dup4\n        /* \"#utility.yul\":5459:5468   */\n      iszero\n        /* \"#utility.yul\":5439:5522   */\n      or\n        /* \"#utility.yul\":5416:5555   */\n      tag_282\n      jumpi\n        /* \"#utility.yul\":5535:5553   */\n      tag_283\n      tag_216\n      jump\t// in\n    tag_283:\n        /* \"#utility.yul\":5416:5555   */\n    tag_282:\n        /* \"#utility.yul\":5200:5562   */\n      pop\n        /* \"#utility.yul\":5152:5562   */\n      swap3\n      swap2\n      pop\n      pop\n      jump\t// out\n        /* \"#utility.yul\":5568:5793   */\n    tag_217:\n        /* \"#utility.yul\":5708:5742   */\n      0x4f776e61626c653a206e6577206f776e657220697320746865207a65726f2061\n        /* \"#utility.yul\":5704:5705   */\n      0x00\n        /* \"#utility.yul\":5696:5702   */\n      dup3\n        /* \"#utility.yul\":5692:5706   */\n      add\n        /* \"#utility.yul\":5685:5743   */\n      mstore\n        /* \"#utility.yul\":5777:5785   */\n      0x6464726573730000000000000000000000000000000000000000000000000000\n        /* \"#utility.yul\":5772:5774   */\n      0x20\n        /* \"#utility.yul\":5764:5770   */\n      dup3\n        /* \"#utility.yul\":5760:5775   */\n      add\n        /* \"#utility.yul\":5753:5786   */\n      mstore\n        /* \"#utility.yul\":5568:5793   */\n      pop\n      jump\t// out\n        /* \"#utility.yul\":5799:6165   */\n    tag_218:\n        /* \"#utility.yul\":5941:5944   */\n      0x00\n        /* \"#utility.yul\":5962:6029   */\n      tag_286\n        /* \"#utility.yul\":6026:6028   */\n      0x26\n        /* \"#utility.yul\":6021:6024   */\n      dup4\n        /* \"#utility.yul\":5962:6029   */\n      tag_213\n      jump\t// in\n    tag_286:\n        /* \"#utility.yul\":5955:6029   */\n      swap2\n      pop\n        /* \"#utility.yul\":6038:6131   */\n      tag_287\n        /* \"#utility.yul\":6127:6130   */\n      dup3\n        /* \"#utility.yul\":6038:6131   */\n      tag_217\n      jump\t// in\n    tag_287:\n        /* \"#utility.yul\":6156:6158   */\n      0x40\n        /* \"#utility.yul\":6151:6154   */\n      dup3\n        /* \"#utility.yul\":6147:6159   */\n      add\n        /* \"#utility.yul\":6140:6159   */\n      swap1\n      pop\n        /* \"#utility.yul\":5799:6165   */\n      swap2\n      swap1\n      pop\n      jump\t// out\n        /* \"#utility.yul\":6171:6590   */\n    tag_119:\n        /* \"#utility.yul\":6337:6341   */\n      0x00\n        /* \"#utility.yul\":6375:6377   */\n      0x20\n        /* \"#utility.yul\":6364:6373   */\n      dup3\n        /* \"#utility.yul\":6360:6378   */\n      add\n        /* \"#utility.yul\":6352:6378   */\n      swap1\n      pop\n        /* \"#utility.yul\":6424:6433   */\n      dup2\n        /* \"#utility.yul\":6418:6422   */\n      dup2\n        /* \"#utility.yul\":6414:6434   */\n      sub\n        /* \"#utility.yul\":6410:6411   */\n      0x00\n        /* \"#utility.yul\":6399:6408   */\n      dup4\n        /* \"#utility.yul\":6395:6412   */\n      add\n        /* \"#utility.yul\":6388:6435   */\n      mstore\n        /* \"#utility.yul\":6452:6583   */\n      tag_289\n        /* \"#utility.yul\":6578:6582   */\n      dup2\n        /* \"#utility.yul\":6452:6583   */\n      tag_218\n      jump\t// in\n    tag_289:\n        /* \"#utility.yul\":6444:6583   */\n      swap1\n      pop\n        /* \"#utility.yul\":6171:6590   */\n      swap2\n      swap1\n      pop\n      jump\t// out\n        /* \"#utility.yul\":6596:6778   */\n    tag_219:\n        /* \"#utility.yul\":6736:6770   */\n      0x4f776e61626c653a2063616c6c6572206973206e6f7420746865206f776e6572\n        /* \"#utility.yul\":6732:6733   */\n      0x00\n        /* \"#utility.yul\":6724:6730   */\n      dup3\n        /* \"#utility.yul\":6720:6734   */\n      add\n        /* \"#utility.yul\":6713:6771   */\n      mstore\n        /* \"#utility.yul\":6596:6778   */\n      pop\n      jump\t// out\n        /* \"#utility.yul\":6784:7150   */\n    tag_220:\n        /* \"#utility.yul\":6926:6929   */\n      0x00\n        /* \"#utility.yul\":6947:7014   */\n      tag_292\n        /* \"#utility.yul\":7011:7013   */\n      0x20\n        /* \"#utility.yul\":7006:7009   */\n      dup4\n        /* \"#utility.yul\":6947:7014   */\n      tag_213\n      jump\t// in\n    tag_292:\n        /* \"#utility.yul\":6940:7014   */\n      swap2\n      pop\n        /* \"#utility.yul\":7023:7116   */\n      tag_293\n        /* \"#utility.yul\":7112:7115   */\n      dup3\n        /* \"#utility.yul\":7023:7116   */\n      tag_219\n      jump\t// in\n    tag_293:\n        /* \"#utility.yul\":7141:7143   */\n      0x20\n        /* \"#utility.yul\":7136:7139   */\n      dup3\n        /* \"#utility.yul\":7132:7144   */\n      add\n        /* \"#utility.yul\":7125:7144   */\n      swap1\n      pop\n        /* \"#utility.yul\":6784:7150   */\n      swap2\n      swap1\n      pop\n      jump\t// out\n        /* \"#utility.yul\":7156:7575   */\n    tag_128:\n        /* \"#utility.yul\":7322:7326   */\n      0x00\n        /* \"#utility.yul\":7360:7362   */\n      0x20\n        /* \"#utility.yul\":7349:7358   */\n      dup3\n        /* \"#utility.yul\":7345:7363   */\n      add\n        /* \"#utility.yul\":7337:7363   */\n      swap1\n      pop\n        /* \"#utility.yul\":7409:7418   */\n      dup2\n        /* \"#utility.yul\":7403:7407   */\n      dup2\n        /* \"#utility.yul\":7399:7419   */\n      sub\n        /* \"#utility.yul\":7395:7396   */\n      0x00\n        /* \"#utility.yul\":7384:7393   */\n      dup4\n        /* \"#utility.yul\":7380:7397   */\n      add\n        /* \"#utility.yul\":7373:7420   */\n      mstore\n        /* \"#utility.yul\":7437:7568   */\n      tag_295\n        /* \"#utility.yul\":7563:7567   */\n      dup2\n        /* \"#utility.yul\":7437:7568   */\n      tag_220\n      jump\t// in\n    tag_295:\n        /* \"#utility.yul\":7429:7568   */\n      swap1\n      pop\n        /* \"#utility.yul\":7156:7575   */\n      swap2\n      swap1\n      pop\n      jump\t// out\n        /* \"#utility.yul\":7581:7761   */\n    tag_221:\n        /* \"#utility.yul\":7629:7706   */\n      0x4e487b7100000000000000000000000000000000000000000000000000000000\n        /* \"#utility.yul\":7626:7627   */\n      0x00\n        /* \"#utility.yul\":7619:7707   */\n      mstore\n        /* \"#utility.yul\":7726:7730   */\n      0x12\n        /* \"#utility.yul\":7723:7724   */\n      0x04\n        /* \"#utility.yul\":7716:7731   */\n      mstore\n        /* \"#utility.yul\":7750:7754   */\n      0x24\n        /* \"#utility.yul\":7747:7748   */\n      0x00\n        /* \"#utility.yul\":7740:7755   */\n      revert\n        /* \"#utility.yul\":7767:7952   */\n    tag_133:\n        /* \"#utility.yul\":7807:7808   */\n      0x00\n        /* \"#utility.yul\":7824:7844   */\n      tag_298\n        /* \"#utility.yul\":7842:7843   */\n      dup3\n        /* \"#utility.yul\":7824:7844   */\n      tag_208\n      jump\t// in\n    tag_298:\n        /* \"#utility.yul\":7819:7844   */\n      swap2\n      pop\n        /* \"#utility.yul\":7858:7878   */\n      tag_299\n        /* \"#utility.yul\":7876:7877   */\n      dup4\n        /* \"#utility.yul\":7858:7878   */\n      tag_208\n      jump\t// in\n    tag_299:\n        /* \"#utility.yul\":7853:7878   */\n      swap3\n      pop\n        /* \"#utility.yul\":7897:7898   */\n      dup3\n        /* \"#utility.yul\":7887:7922   */\n      tag_300\n      jumpi\n        /* \"#utility.yul\":7902:7920   */\n      tag_301\n      tag_221\n      jump\t// in\n    tag_301:\n        /* \"#utility.yul\":7887:7922   */\n    tag_300:\n        /* \"#utility.yul\":7944:7945   */\n      dup3\n        /* \"#utility.yul\":7941:7942   */\n      dup3\n        /* \"#utility.yul\":7937:7946   */\n      div\n        /* \"#utility.yul\":7932:7946   */\n      swap1\n      pop\n        /* \"#utility.yul\":7767:7952   */\n      swap3\n      swap2\n      pop\n      pop\n      jump\t// out\n        /* \"#utility.yul\":7958:8034   */\n    tag_222:\n        /* \"#utility.yul\":7994:8001   */\n      0x00\n        /* \"#utility.yul\":8023:8028   */\n      dup2\n        /* \"#utility.yul\":8012:8028   */\n      swap1\n      pop\n        /* \"#utility.yul\":7958:8034   */\n      swap2\n      swap1\n      pop\n      jump\t// out\n        /* \"#utility.yul\":8040:8415   */\n    tag_141:\n        /* \"#utility.yul\":8079:8082   */\n      0x00\n        /* \"#utility.yul\":8098:8117   */\n      tag_304\n        /* \"#utility.yul\":8115:8116   */\n      dup3\n        /* \"#utility.yul\":8098:8117   */\n      tag_222\n      jump\t// in\n    tag_304:\n        /* \"#utility.yul\":8093:8117   */\n      swap2\n      pop\n        /* \"#utility.yul\":8131:8150   */\n      tag_305\n        /* \"#utility.yul\":8148:8149   */\n      dup4\n        /* \"#utility.yul\":8131:8150   */\n      tag_222\n      jump\t// in\n    tag_305:\n        /* \"#utility.yul\":8126:8150   */\n      swap3\n      pop\n        /* \"#utility.yul\":8173:8174   */\n      dup3\n        /* \"#utility.yul\":8170:8171   */\n      dup3\n        /* \"#utility.yul\":8166:8175   */\n      add\n        /* \"#utility.yul\":8159:8175   */\n      swap1\n      pop\n        /* \"#utility.yul\":8371:8372   */\n      dup3\n        /* \"#utility.yul\":8366:8369   */\n      dup2\n        /* \"#utility.yul\":8362:8373   */\n      slt\n        /* \"#utility.yul\":8355:8374   */\n      iszero\n        /* \"#utility.yul\":8351:8352   */\n      0x00\n        /* \"#utility.yul\":8348:8349   */\n      dup4\n        /* \"#utility.yul\":8344:8353   */\n      slt\n        /* \"#utility.yul\":8340:8375   */\n      and\n        /* \"#utility.yul\":8323:8324   */\n      dup4\n        /* \"#utility.yul\":8318:8321   */\n      dup3\n        /* \"#utility.yul\":8314:8325   */\n      slt\n        /* \"#utility.yul\":8309:8310   */\n      0x00\n        /* \"#utility.yul\":8306:8307   */\n      dup5\n        /* \"#utility.yul\":8302:8311   */\n      slt\n        /* \"#utility.yul\":8295:8312   */\n      iszero\n        /* \"#utility.yul\":8291:8326   */\n      and\n        /* \"#utility.yul\":8275:8385   */\n      or\n        /* \"#utility.yul\":8272:8408   */\n      iszero\n      tag_306\n      jumpi\n        /* \"#utility.yul\":8388:8406   */\n      tag_307\n      tag_216\n      jump\t// in\n    tag_307:\n        /* \"#utility.yul\":8272:8408   */\n    tag_306:\n        /* \"#utility.yul\":8040:8415   */\n      swap3\n      swap2\n      pop\n      pop\n      jump\t// out\n        /* \"#utility.yul\":8421:8977   */\n    tag_144:\n        /* \"#utility.yul\":8460:8467   */\n      0x00\n        /* \"#utility.yul\":8483:8502   */\n      tag_309\n        /* \"#utility.yul\":8500:8501   */\n      dup3\n        /* \"#utility.yul\":8483:8502   */\n      tag_222\n      jump\t// in\n    tag_309:\n        /* \"#utility.yul\":8478:8502   */\n      swap2\n      pop\n        /* \"#utility.yul\":8516:8535   */\n      tag_310\n        /* \"#utility.yul\":8533:8534   */\n      dup4\n        /* \"#utility.yul\":8516:8535   */\n      tag_222\n      jump\t// in\n    tag_310:\n        /* \"#utility.yul\":8511:8535   */\n      swap3\n      pop\n        /* \"#utility.yul\":8570:8571   */\n      dup3\n        /* \"#utility.yul\":8567:8568   */\n      dup3\n        /* \"#utility.yul\":8563:8572   */\n      mul\n        /* \"#utility.yul\":8592:8621   */\n      tag_311\n        /* \"#utility.yul\":8609:8620   */\n      dup2\n        /* \"#utility.yul\":8592:8621   */\n      tag_222\n      jump\t// in\n    tag_311:\n        /* \"#utility.yul\":8581:8621   */\n      swap2\n      pop\n        /* \"#utility.yul\":8679:8745   */\n      0x8000000000000000000000000000000000000000000000000000000000000000\n        /* \"#utility.yul\":8676:8677   */\n      dup5\n        /* \"#utility.yul\":8673:8746   */\n      eq\n        /* \"#utility.yul\":8669:8670   */\n      0x00\n        /* \"#utility.yul\":8666:8667   */\n      dup5\n        /* \"#utility.yul\":8662:8671   */\n      slt\n        /* \"#utility.yul\":8658:8747   */\n      and\n        /* \"#utility.yul\":8655:8770   */\n      iszero\n      tag_312\n      jumpi\n        /* \"#utility.yul\":8750:8768   */\n      tag_313\n      tag_216\n      jump\t// in\n    tag_313:\n        /* \"#utility.yul\":8655:8770   */\n    tag_312:\n        /* \"#utility.yul\":8920:8921   */\n      dup3\n        /* \"#utility.yul\":8911:8918   */\n      dup3\n        /* \"#utility.yul\":8906:8922   */\n      sdiv\n        /* \"#utility.yul\":8903:8904   */\n      dup5\n        /* \"#utility.yul\":8900:8923   */\n      eq\n        /* \"#utility.yul\":8880:8881   */\n      dup4\n        /* \"#utility.yul\":8873:8882   */\n      iszero\n        /* \"#utility.yul\":8853:8937   */\n      or\n        /* \"#utility.yul\":8830:8970   */\n      tag_314\n      jumpi\n        /* \"#utility.yul\":8950:8968   */\n      tag_315\n      tag_216\n      jump\t// in\n    tag_315:\n        /* \"#utility.yul\":8830:8970   */\n    tag_314:\n        /* \"#utility.yul\":8468:8977   */\n      pop\n        /* \"#utility.yul\":8421:8977   */\n      swap3\n      swap2\n      pop\n      pop\n      jump\t// out\n        /* \"#utility.yul\":8983:9368   */\n    tag_146:\n        /* \"#utility.yul\":9022:9023   */\n      0x00\n        /* \"#utility.yul\":9039:9058   */\n      tag_317\n        /* \"#utility.yul\":9056:9057   */\n      dup3\n        /* \"#utility.yul\":9039:9058   */\n      tag_222\n      jump\t// in\n    tag_317:\n        /* \"#utility.yul\":9034:9058   */\n      swap2\n      pop\n        /* \"#utility.yul\":9072:9091   */\n      tag_318\n        /* \"#utility.yul\":9089:9090   */\n      dup4\n        /* \"#utility.yul\":9072:9091   */\n      tag_222\n      jump\t// in\n    tag_318:\n        /* \"#utility.yul\":9067:9091   */\n      swap3\n      pop\n        /* \"#utility.yul\":9110:9111   */\n      dup3\n        /* \"#utility.yul\":9100:9135   */\n      tag_319\n      jumpi\n        /* \"#utility.yul\":9115:9133   */\n      tag_320\n      tag_221\n      jump\t// in\n    tag_320:\n        /* \"#utility.yul\":9100:9135   */\n    tag_319:\n        /* \"#utility.yul\":9301:9302   */\n      0x01\n        /* \"#utility.yul\":9298:9299   */\n      0x00\n        /* \"#utility.yul\":9294:9303   */\n      sub\n        /* \"#utility.yul\":9291:9292   */\n      dup4\n        /* \"#utility.yul\":9288:9304   */\n      eq\n        /* \"#utility.yul\":9207:9273   */\n      0x8000000000000000000000000000000000000000000000000000000000000000\n        /* \"#utility.yul\":9204:9205   */\n      dup4\n        /* \"#utility.yul\":9201:9274   */\n      eq\n        /* \"#utility.yul\":9184:9314   */\n      and\n        /* \"#utility.yul\":9181:9337   */\n      iszero\n      tag_321\n      jumpi\n        /* \"#utility.yul\":9317:9335   */\n      tag_322\n      tag_216\n      jump\t// in\n    tag_322:\n        /* \"#utility.yul\":9181:9337   */\n    tag_321:\n        /* \"#utility.yul\":9360:9361   */\n      dup3\n        /* \"#utility.yul\":9357:9358   */\n      dup3\n        /* \"#utility.yul\":9352:9362   */\n      sdiv\n        /* \"#utility.yul\":9347:9362   */\n      swap1\n      pop\n        /* \"#utility.yul\":8983:9368   */\n      swap3\n      swap2\n      pop\n      pop\n      jump\t// out\n        /* \"#utility.yul\":9374:9746   */\n    tag_151:\n        /* \"#utility.yul\":9413:9417   */\n      0x00\n        /* \"#utility.yul\":9433:9452   */\n      tag_324\n        /* \"#utility.yul\":9450:9451   */\n      dup3\n        /* \"#utility.yul\":9433:9452   */\n      tag_222\n      jump\t// in\n    tag_324:\n        /* \"#utility.yul\":9428:9452   */\n      swap2\n      pop\n        /* \"#utility.yul\":9466:9485   */\n      tag_325\n        /* \"#utility.yul\":9483:9484   */\n      dup4\n        /* \"#utility.yul\":9466:9485   */\n      tag_222\n      jump\t// in\n    tag_325:\n        /* \"#utility.yul\":9461:9485   */\n      swap3\n      pop\n        /* \"#utility.yul\":9509:9510   */\n      dup3\n        /* \"#utility.yul\":9506:9507   */\n      dup3\n        /* \"#utility.yul\":9502:9511   */\n      sub\n        /* \"#utility.yul\":9494:9511   */\n      swap1\n      pop\n        /* \"#utility.yul\":9703:9704   */\n      dup2\n        /* \"#utility.yul\":9697:9701   */\n      dup2\n        /* \"#utility.yul\":9693:9705   */\n      slt\n        /* \"#utility.yul\":9689:9690   */\n      0x00\n        /* \"#utility.yul\":9686:9687   */\n      dup5\n        /* \"#utility.yul\":9682:9691   */\n      slt\n        /* \"#utility.yul\":9678:9706   */\n      and\n        /* \"#utility.yul\":9661:9662   */\n      dup3\n        /* \"#utility.yul\":9655:9659   */\n      dup3\n        /* \"#utility.yul\":9651:9663   */\n      sgt\n        /* \"#utility.yul\":9646:9647   */\n      0x00\n        /* \"#utility.yul\":9643:9644   */\n      dup6\n        /* \"#utility.yul\":9639:9648   */\n      slt\n        /* \"#utility.yul\":9632:9649   */\n      iszero\n        /* \"#utility.yul\":9628:9664   */\n      and\n        /* \"#utility.yul\":9612:9716   */\n      or\n        /* \"#utility.yul\":9609:9739   */\n      iszero\n      tag_326\n      jumpi\n        /* \"#utility.yul\":9719:9737   */\n      tag_327\n      tag_216\n      jump\t// in\n    tag_327:\n        /* \"#utility.yul\":9609:9739   */\n    tag_326:\n        /* \"#utility.yul\":9374:9746   */\n      swap3\n      swap2\n      pop\n      pop\n      jump\t// out\n\n    auxdata: 0xa26469706673582212206d472165e5c50b7f064abfd0a9857eea9313563331046c8ab45f88d54895790964736f6c63430008110033\n}\n",
				"bytecode": {
					"linkReferences": {},
					"object": "608060405234801561001057600080fd5b5061002d61002261003260201b60201c565b61003a60201b60201c565b6100fe565b600033905090565b60008060009054906101000a900473ffffffffffffffffffffffffffffffffffffffff169050816000806101000a81548173ffffffffffffffffffffffffffffffffffffffff021916908373ffffffffffffffffffffffffffffffffffffffff1602179055508173ffffffffffffffffffffffffffffffffffffffff168173ffffffffffffffffffffffffffffffffffffffff167f8be0079c531659141344cd1fd0a4f28419497f9722a3daafe3b4186f6b6457e060405160405180910390a35050565b6112ab8061010d6000396000f3fe608060405234801561001057600080fd5b50600436106100ea5760003560e01c80638da5cb5b1161008c578063cf9d4afa11610066578063cf9d4afa1461020f578063d043c0b01461022b578063f2fde38b1461025b578063fda0895814610277576100ea565b80638da5cb5b146101b7578063b403b578146101d5578063ba2b6bad146101df576100ea565b806362d91855116100c857806362d91855146101575780637048027514610173578063715018a61461018f578063784b1b2c14610199576100ea565b806324d7806c146100ef5780633a4159fa1461011f5780635cbd99d41461013b575b600080fd5b61010960048036038101906101049190610d33565b6102a7565b6040516101169190610d7b565b60405180910390f35b61013960048036038101906101349190610d33565b6102fd565b005b61015560048036038101906101509190610d33565b610360565b005b610171600480360381019061016c9190610d33565b6103c3565b005b61018d60048036038101906101889190610d33565b610426565b005b610197610488565b005b6101a161049c565b6040516101ae9190610daf565b60405180910390f35b6101bf6104ac565b6040516101cc9190610dd9565b60405180910390f35b6101dd6104d5565b005b6101f960048036038101906101f49190610df4565b6105e5565b6040516102069190610d7b565b60405180910390f35b61022960048036038101906102249190610d33565b61070c565b005b61024560048036038101906102409190610e60565b610750565b6040516102529190610daf565b60405180910390f35b61027560048036038101906102709190610d33565b610769565b005b610291600480360381019061028c9190610d33565b6107ec565b60405161029e9190610d7b565b60405180910390f35b6000600160008373ffffffffffffffffffffffffffffffffffffffff1673ffffffffffffffffffffffffffffffffffffffff16815260200190815260200160002060009054906101000a900460ff169050919050565b610305610842565b6000600260008373ffffffffffffffffffffffffffffffffffffffff1673ffffffffffffffffffffffffffffffffffffffff16815260200190815260200160002060006101000a81548160ff02191690831515021790555050565b610368610842565b6001600260008373ffffffffffffffffffffffffffffffffffffffff1673ffffffffffffffffffffffffffffffffffffffff16815260200190815260200160002060006101000a81548160ff02191690831515021790555050565b6103cb610842565b6000600160008373ffffffffffffffffffffffffffffffffffffffff1673ffffffffffffffffffffffffffffffffffffffff16815260200190815260200160002060006101000a81548160ff02191690831515021790555050565b61042e610842565b60018060008373ffffffffffffffffffffffffffffffffffffffff1673ffffffffffffffffffffffffffffffffffffffff16815260200190815260200160002060006101000a81548160ff02191690831515021790555050565b610490610842565b61049a60006108c0565b565b60006104a742610984565b905090565b60008060009054906101000a900473ffffffffffffffffffffffffffffffffffffffff16905090565b600160003373ffffffffffffffffffffffffffffffffffffffff1673ffffffffffffffffffffffffffffffffffffffff16815260200190815260200160002060009054906101000a900460ff16610561576040517f08c379a000000000000000000000000000000000000000000000000000000000815260040161055890610eea565b60405180910390fd5b600460009054906101000a900473ffffffffffffffffffffffffffffffffffffffff1673ffffffffffffffffffffffffffffffffffffffff16636d101d506040518163ffffffff1660e01b8152600401600060405180830381600087803b1580156105cb57600080fd5b505af11580156105df573d6000803e3d6000fd5b50505050565b6000600160003373ffffffffffffffffffffffffffffffffffffffff1673ffffffffffffffffffffffffffffffffffffffff16815260200190815260200160002060009054906101000a900460ff16610673576040517f08c379a000000000000000000000000000000000000000000000000000000000815260040161066a90610eea565b60405180910390fd5b600460009054906101000a900473ffffffffffffffffffffffffffffffffffffffff1673ffffffffffffffffffffffffffffffffffffffff166304dd06f584846040518363ffffffff1660e01b81526004016106d0929190610f0a565b600060405180830381600087803b1580156106ea57600080fd5b505af11580156106fe573d6000803e3d6000fd5b505050506001905092915050565b80600460006101000a81548173ffffffffffffffffffffffffffffffffffffffff021916908373ffffffffffffffffffffffffffffffffffffffff16021790555050565b600081600a61075f9190610f62565b9150819050919050565b610771610842565b600073ffffffffffffffffffffffffffffffffffffffff168173ffffffffffffffffffffffffffffffffffffffff16036107e0576040517f08c379a00000000000000000000000000000000000000000000000000000000081526004016107d790611016565b60405180910390fd5b6107e9816108c0565b50565b6000600260008373ffffffffffffffffffffffffffffffffffffffff1673ffffffffffffffffffffffffffffffffffffffff16815260200190815260200160002060009054906101000a900460ff169050919050565b61084a6109ca565b73ffffffffffffffffffffffffffffffffffffffff166108686104ac565b73ffffffffffffffffffffffffffffffffffffffff16146108be576040517f08c379a00000000000000000000000000000000000000000000000000000000081526004016108b590611082565b60405180910390fd5b565b60008060009054906101000a900473ffffffffffffffffffffffffffffffffffffffff169050816000806101000a81548173ffffffffffffffffffffffffffffffffffffffff021916908373ffffffffffffffffffffffffffffffffffffffff1602179055508173ffffffffffffffffffffffffffffffffffffffff168173ffffffffffffffffffffffffffffffffffffffff167f8be0079c531659141344cd1fd0a4f28419497f9722a3daafe3b4186f6b6457e060405160405180910390a35050565b6000806000806109a1620151808661099c91906110d1565b6109d2565b925092509250620151806109b6848484610b71565b6109c09190610f62565b9350505050919050565b600033905090565b600080600080849050600062253d8c62010bd9836109f0919061110c565b6109fa919061110c565b9050600062023ab1826004610a0f9190611150565b610a1991906111c8565b9050600460038262023ab1610a2e9190611150565b610a38919061110c565b610a4291906111c8565b82610a4d9190611232565b9150600062164b09600184610a62919061110c565b610fa0610a6f9190611150565b610a7991906111c8565b9050601f6004826105b5610a8d9190611150565b610a9791906111c8565b84610aa29190611232565b610aac919061110c565b9250600061098f846050610ac09190611150565b610aca91906111c8565b9050600060508261098f610ade9190611150565b610ae891906111c8565b85610af39190611232565b9050600b82610b0291906111c8565b945084600c610b119190611150565b600283610b1e919061110c565b610b289190611232565b91508483603186610b399190611232565b6064610b459190611150565b610b4f919061110c565b610b59919061110c565b92508298508197508096505050505050509193909250565b60006107b2841015610b8257600080fd5b600084905060008490506000849050600062253d8c60046064600c600e87610baa9190611232565b610bb491906111c8565b61132488610bc2919061110c565b610bcc919061110c565b610bd691906111c8565b6003610be29190611150565b610bec91906111c8565b600c80600c600e88610bfe9190611232565b610c0891906111c8565b610c129190611150565b600287610c1f9190611232565b610c299190611232565b61016f610c369190611150565b610c4091906111c8565b6004600c600e88610c519190611232565b610c5b91906111c8565b6112c089610c69919061110c565b610c73919061110c565b6105b5610c809190611150565b610c8a91906111c8565b617d4b86610c989190611232565b610ca2919061110c565b610cac919061110c565b610cb69190611232565b610cc09190611232565b9050809450505050509392505050565b600080fd5b600073ffffffffffffffffffffffffffffffffffffffff82169050919050565b6000610d0082610cd5565b9050919050565b610d1081610cf5565b8114610d1b57600080fd5b50565b600081359050610d2d81610d07565b92915050565b600060208284031215610d4957610d48610cd0565b5b6000610d5784828501610d1e565b91505092915050565b60008115159050919050565b610d7581610d60565b82525050565b6000602082019050610d906000830184610d6c565b92915050565b6000819050919050565b610da981610d96565b82525050565b6000602082019050610dc46000830184610da0565b92915050565b610dd381610cf5565b82525050565b6000602082019050610dee6000830184610dca565b92915050565b60008060408385031215610e0b57610e0a610cd0565b5b6000610e1985828601610d1e565b9250506020610e2a85828601610d1e565b9150509250929050565b610e3d81610d96565b8114610e4857600080fd5b50565b600081359050610e5a81610e34565b92915050565b600060208284031215610e7657610e75610cd0565b5b6000610e8484828501610e4b565b91505092915050565b600082825260208201905092915050565b7f4f6e6c792061646d696e2063616e2063616c6c20697400000000000000000000600082015250565b6000610ed4601683610e8d565b9150610edf82610e9e565b602082019050919050565b60006020820190508181036000830152610f0381610ec7565b9050919050565b6000604082019050610f1f6000830185610dca565b610f2c6020830184610dca565b9392505050565b7f4e487b7100000000000000000000000000000000000000000000000000000000600052601160045260246000fd5b6000610f6d82610d96565b9150610f7883610d96565b9250828202610f8681610d96565b91508282048414831517610f9d57610f9c610f33565b5b5092915050565b7f4f776e61626c653a206e6577206f776e657220697320746865207a65726f206160008201527f6464726573730000000000000000000000000000000000000000000000000000602082015250565b6000611000602683610e8d565b915061100b82610fa4565b604082019050919050565b6000602082019050818103600083015261102f81610ff3565b9050919050565b7f4f776e61626c653a2063616c6c6572206973206e6f7420746865206f776e6572600082015250565b600061106c602083610e8d565b915061107782611036565b602082019050919050565b6000602082019050818103600083015261109b8161105f565b9050919050565b7f4e487b7100000000000000000000000000000000000000000000000000000000600052601260045260246000fd5b60006110dc82610d96565b91506110e783610d96565b9250826110f7576110f66110a2565b5b828204905092915050565b6000819050919050565b600061111782611102565b915061112283611102565b92508282019050828112156000831216838212600084121516171561114a57611149610f33565b5b92915050565b600061115b82611102565b915061116683611102565b925082820261117481611102565b91507f800000000000000000000000000000000000000000000000000000000000000084146000841216156111ac576111ab610f33565b5b82820584148315176111c1576111c0610f33565b5b5092915050565b60006111d382611102565b91506111de83611102565b9250826111ee576111ed6110a2565b5b600160000383147f80000000000000000000000000000000000000000000000000000000000000008314161561122757611226610f33565b5b828205905092915050565b600061123d82611102565b915061124883611102565b925082820390508181126000841216828213600085121516171561126f5761126e610f33565b5b9291505056fea26469706673582212206d472165e5c50b7f064abfd0a9857eea9313563331046c8ab45f88d54895790964736f6c63430008110033",
					"opcodes": "PUSH1 0x80 PUSH1 0x40 MSTORE CALLVALUE DUP1 ISZERO PUSH2 0x10 JUMPI PUSH1 0x0 DUP1 REVERT JUMPDEST POP PUSH2 0x2D PUSH2 0x22 PUSH2 0x32 PUSH1 0x20 SHL PUSH1 0x20 SHR JUMP JUMPDEST PUSH2 0x3A PUSH1 0x20 SHL PUSH1 0x20 SHR JUMP JUMPDEST PUSH2 0xFE JUMP JUMPDEST PUSH1 0x0 CALLER SWAP1 POP SWAP1 JUMP JUMPDEST PUSH1 0x0 DUP1 PUSH1 0x0 SWAP1 SLOAD SWAP1 PUSH2 0x100 EXP SWAP1 DIV PUSH20 0xFFFFFFFFFFFFFFFFFFFFFFFFFFFFFFFFFFFFFFFF AND SWAP1 POP DUP2 PUSH1 0x0 DUP1 PUSH2 0x100 EXP DUP2 SLOAD DUP2 PUSH20 0xFFFFFFFFFFFFFFFFFFFFFFFFFFFFFFFFFFFFFFFF MUL NOT AND SWAP1 DUP4 PUSH20 0xFFFFFFFFFFFFFFFFFFFFFFFFFFFFFFFFFFFFFFFF AND MUL OR SWAP1 SSTORE POP DUP2 PUSH20 0xFFFFFFFFFFFFFFFFFFFFFFFFFFFFFFFFFFFFFFFF AND DUP2 PUSH20 0xFFFFFFFFFFFFFFFFFFFFFFFFFFFFFFFFFFFFFFFF AND PUSH32 0x8BE0079C531659141344CD1FD0A4F28419497F9722A3DAAFE3B4186F6B6457E0 PUSH1 0x40 MLOAD PUSH1 0x40 MLOAD DUP1 SWAP2 SUB SWAP1 LOG3 POP POP JUMP JUMPDEST PUSH2 0x12AB DUP1 PUSH2 0x10D PUSH1 0x0 CODECOPY PUSH1 0x0 RETURN INVALID PUSH1 0x80 PUSH1 0x40 MSTORE CALLVALUE DUP1 ISZERO PUSH2 0x10 JUMPI PUSH1 0x0 DUP1 REVERT JUMPDEST POP PUSH1 0x4 CALLDATASIZE LT PUSH2 0xEA JUMPI PUSH1 0x0 CALLDATALOAD PUSH1 0xE0 SHR DUP1 PUSH4 0x8DA5CB5B GT PUSH2 0x8C JUMPI DUP1 PUSH4 0xCF9D4AFA GT PUSH2 0x66 JUMPI DUP1 PUSH4 0xCF9D4AFA EQ PUSH2 0x20F JUMPI DUP1 PUSH4 0xD043C0B0 EQ PUSH2 0x22B JUMPI DUP1 PUSH4 0xF2FDE38B EQ PUSH2 0x25B JUMPI DUP1 PUSH4 0xFDA08958 EQ PUSH2 0x277 JUMPI PUSH2 0xEA JUMP JUMPDEST DUP1 PUSH4 0x8DA5CB5B EQ PUSH2 0x1B7 JUMPI DUP1 PUSH4 0xB403B578 EQ PUSH2 0x1D5 JUMPI DUP1 PUSH4 0xBA2B6BAD EQ PUSH2 0x1DF JUMPI PUSH2 0xEA JUMP JUMPDEST DUP1 PUSH4 0x62D91855 GT PUSH2 0xC8 JUMPI DUP1 PUSH4 0x62D91855 EQ PUSH2 0x157 JUMPI DUP1 PUSH4 0x70480275 EQ PUSH2 0x173 JUMPI DUP1 PUSH4 0x715018A6 EQ PUSH2 0x18F JUMPI DUP1 PUSH4 0x784B1B2C EQ PUSH2 0x199 JUMPI PUSH2 0xEA JUMP JUMPDEST DUP1 PUSH4 0x24D7806C EQ PUSH2 0xEF JUMPI DUP1 PUSH4 0x3A4159FA EQ PUSH2 0x11F JUMPI DUP1 PUSH4 0x5CBD99D4 EQ PUSH2 0x13B JUMPI JUMPDEST PUSH1 0x0 DUP1 REVERT JUMPDEST PUSH2 0x109 PUSH1 0x4 DUP1 CALLDATASIZE SUB DUP2 ADD SWAP1 PUSH2 0x104 SWAP2 SWAP1 PUSH2 0xD33 JUMP JUMPDEST PUSH2 0x2A7 JUMP JUMPDEST PUSH1 0x40 MLOAD PUSH2 0x116 SWAP2 SWAP1 PUSH2 0xD7B JUMP JUMPDEST PUSH1 0x40 MLOAD DUP1 SWAP2 SUB SWAP1 RETURN JUMPDEST PUSH2 0x139 PUSH1 0x4 DUP1 CALLDATASIZE SUB DUP2 ADD SWAP1 PUSH2 0x134 SWAP2 SWAP1 PUSH2 0xD33 JUMP JUMPDEST PUSH2 0x2FD JUMP JUMPDEST STOP JUMPDEST PUSH2 0x155 PUSH1 0x4 DUP1 CALLDATASIZE SUB DUP2 ADD SWAP1 PUSH2 0x150 SWAP2 SWAP1 PUSH2 0xD33 JUMP JUMPDEST PUSH2 0x360 JUMP JUMPDEST STOP JUMPDEST PUSH2 0x171 PUSH1 0x4 DUP1 CALLDATASIZE SUB DUP2 ADD SWAP1 PUSH2 0x16C SWAP2 SWAP1 PUSH2 0xD33 JUMP JUMPDEST PUSH2 0x3C3 JUMP JUMPDEST STOP JUMPDEST PUSH2 0x18D PUSH1 0x4 DUP1 CALLDATASIZE SUB DUP2 ADD SWAP1 PUSH2 0x188 SWAP2 SWAP1 PUSH2 0xD33 JUMP JUMPDEST PUSH2 0x426 JUMP JUMPDEST STOP JUMPDEST PUSH2 0x197 PUSH2 0x488 JUMP JUMPDEST STOP JUMPDEST PUSH2 0x1A1 PUSH2 0x49C JUMP JUMPDEST PUSH1 0x40 MLOAD PUSH2 0x1AE SWAP2 SWAP1 PUSH2 0xDAF JUMP JUMPDEST PUSH1 0x40 MLOAD DUP1 SWAP2 SUB SWAP1 RETURN JUMPDEST PUSH2 0x1BF PUSH2 0x4AC JUMP JUMPDEST PUSH1 0x40 MLOAD PUSH2 0x1CC SWAP2 SWAP1 PUSH2 0xDD9 JUMP JUMPDEST PUSH1 0x40 MLOAD DUP1 SWAP2 SUB SWAP1 RETURN JUMPDEST PUSH2 0x1DD PUSH2 0x4D5 JUMP JUMPDEST STOP JUMPDEST PUSH2 0x1F9 PUSH1 0x4 DUP1 CALLDATASIZE SUB DUP2 ADD SWAP1 PUSH2 0x1F4 SWAP2 SWAP1 PUSH2 0xDF4 JUMP JUMPDEST PUSH2 0x5E5 JUMP JUMPDEST PUSH1 0x40 MLOAD PUSH2 0x206 SWAP2 SWAP1 PUSH2 0xD7B JUMP JUMPDEST PUSH1 0x40 MLOAD DUP1 SWAP2 SUB SWAP1 RETURN JUMPDEST PUSH2 0x229 PUSH1 0x4 DUP1 CALLDATASIZE SUB DUP2 ADD SWAP1 PUSH2 0x224 SWAP2 SWAP1 PUSH2 0xD33 JUMP JUMPDEST PUSH2 0x70C JUMP JUMPDEST STOP JUMPDEST PUSH2 0x245 PUSH1 0x4 DUP1 CALLDATASIZE SUB DUP2 ADD SWAP1 PUSH2 0x240 SWAP2 SWAP1 PUSH2 0xE60 JUMP JUMPDEST PUSH2 0x750 JUMP JUMPDEST PUSH1 0x40 MLOAD PUSH2 0x252 SWAP2 SWAP1 PUSH2 0xDAF JUMP JUMPDEST PUSH1 0x40 MLOAD DUP1 SWAP2 SUB SWAP1 RETURN JUMPDEST PUSH2 0x275 PUSH1 0x4 DUP1 CALLDATASIZE SUB DUP2 ADD SWAP1 PUSH2 0x270 SWAP2 SWAP1 PUSH2 0xD33 JUMP JUMPDEST PUSH2 0x769 JUMP JUMPDEST STOP JUMPDEST PUSH2 0x291 PUSH1 0x4 DUP1 CALLDATASIZE SUB DUP2 ADD SWAP1 PUSH2 0x28C SWAP2 SWAP1 PUSH2 0xD33 JUMP JUMPDEST PUSH2 0x7EC JUMP JUMPDEST PUSH1 0x40 MLOAD PUSH2 0x29E SWAP2 SWAP1 PUSH2 0xD7B JUMP JUMPDEST PUSH1 0x40 MLOAD DUP1 SWAP2 SUB SWAP1 RETURN JUMPDEST PUSH1 0x0 PUSH1 0x1 PUSH1 0x0 DUP4 PUSH20 0xFFFFFFFFFFFFFFFFFFFFFFFFFFFFFFFFFFFFFFFF AND PUSH20 0xFFFFFFFFFFFFFFFFFFFFFFFFFFFFFFFFFFFFFFFF AND DUP2 MSTORE PUSH1 0x20 ADD SWAP1 DUP2 MSTORE PUSH1 0x20 ADD PUSH1 0x0 KECCAK256 PUSH1 0x0 SWAP1 SLOAD SWAP1 PUSH2 0x100 EXP SWAP1 DIV PUSH1 0xFF AND SWAP1 POP SWAP2 SWAP1 POP JUMP JUMPDEST PUSH2 0x305 PUSH2 0x842 JUMP JUMPDEST PUSH1 0x0 PUSH1 0x2 PUSH1 0x0 DUP4 PUSH20 0xFFFFFFFFFFFFFFFFFFFFFFFFFFFFFFFFFFFFFFFF AND PUSH20 0xFFFFFFFFFFFFFFFFFFFFFFFFFFFFFFFFFFFFFFFF AND DUP2 MSTORE PUSH1 0x20 ADD SWAP1 DUP2 MSTORE PUSH1 0x20 ADD PUSH1 0x0 KECCAK256 PUSH1 0x0 PUSH2 0x100 EXP DUP2 SLOAD DUP2 PUSH1 0xFF MUL NOT AND SWAP1 DUP4 ISZERO ISZERO MUL OR SWAP1 SSTORE POP POP JUMP JUMPDEST PUSH2 0x368 PUSH2 0x842 JUMP JUMPDEST PUSH1 0x1 PUSH1 0x2 PUSH1 0x0 DUP4 PUSH20 0xFFFFFFFFFFFFFFFFFFFFFFFFFFFFFFFFFFFFFFFF AND PUSH20 0xFFFFFFFFFFFFFFFFFFFFFFFFFFFFFFFFFFFFFFFF AND DUP2 MSTORE PUSH1 0x20 ADD SWAP1 DUP2 MSTORE PUSH1 0x20 ADD PUSH1 0x0 KECCAK256 PUSH1 0x0 PUSH2 0x100 EXP DUP2 SLOAD DUP2 PUSH1 0xFF MUL NOT AND SWAP1 DUP4 ISZERO ISZERO MUL OR SWAP1 SSTORE POP POP JUMP JUMPDEST PUSH2 0x3CB PUSH2 0x842 JUMP JUMPDEST PUSH1 0x0 PUSH1 0x1 PUSH1 0x0 DUP4 PUSH20 0xFFFFFFFFFFFFFFFFFFFFFFFFFFFFFFFFFFFFFFFF AND PUSH20 0xFFFFFFFFFFFFFFFFFFFFFFFFFFFFFFFFFFFFFFFF AND DUP2 MSTORE PUSH1 0x20 ADD SWAP1 DUP2 MSTORE PUSH1 0x20 ADD PUSH1 0x0 KECCAK256 PUSH1 0x0 PUSH2 0x100 EXP DUP2 SLOAD DUP2 PUSH1 0xFF MUL NOT AND SWAP1 DUP4 ISZERO ISZERO MUL OR SWAP1 SSTORE POP POP JUMP JUMPDEST PUSH2 0x42E PUSH2 0x842 JUMP JUMPDEST PUSH1 0x1 DUP1 PUSH1 0x0 DUP4 PUSH20 0xFFFFFFFFFFFFFFFFFFFFFFFFFFFFFFFFFFFFFFFF AND PUSH20 0xFFFFFFFFFFFFFFFFFFFFFFFFFFFFFFFFFFFFFFFF AND DUP2 MSTORE PUSH1 0x20 ADD SWAP1 DUP2 MSTORE PUSH1 0x20 ADD PUSH1 0x0 KECCAK256 PUSH1 0x0 PUSH2 0x100 EXP DUP2 SLOAD DUP2 PUSH1 0xFF MUL NOT AND SWAP1 DUP4 ISZERO ISZERO MUL OR SWAP1 SSTORE POP POP JUMP JUMPDEST PUSH2 0x490 PUSH2 0x842 JUMP JUMPDEST PUSH2 0x49A PUSH1 0x0 PUSH2 0x8C0 JUMP JUMPDEST JUMP JUMPDEST PUSH1 0x0 PUSH2 0x4A7 TIMESTAMP PUSH2 0x984 JUMP JUMPDEST SWAP1 POP SWAP1 JUMP JUMPDEST PUSH1 0x0 DUP1 PUSH1 0x0 SWAP1 SLOAD SWAP1 PUSH2 0x100 EXP SWAP1 DIV PUSH20 0xFFFFFFFFFFFFFFFFFFFFFFFFFFFFFFFFFFFFFFFF AND SWAP1 POP SWAP1 JUMP JUMPDEST PUSH1 0x1 PUSH1 0x0 CALLER PUSH20 0xFFFFFFFFFFFFFFFFFFFFFFFFFFFFFFFFFFFFFFFF AND PUSH20 0xFFFFFFFFFFFFFFFFFFFFFFFFFFFFFFFFFFFFFFFF AND DUP2 MSTORE PUSH1 0x20 ADD SWAP1 DUP2 MSTORE PUSH1 0x20 ADD PUSH1 0x0 KECCAK256 PUSH1 0x0 SWAP1 SLOAD SWAP1 PUSH2 0x100 EXP SWAP1 DIV PUSH1 0xFF AND PUSH2 0x561 JUMPI PUSH1 0x40 MLOAD PUSH32 0x8C379A000000000000000000000000000000000000000000000000000000000 DUP2 MSTORE PUSH1 0x4 ADD PUSH2 0x558 SWAP1 PUSH2 0xEEA JUMP JUMPDEST PUSH1 0x40 MLOAD DUP1 SWAP2 SUB SWAP1 REVERT JUMPDEST PUSH1 0x4 PUSH1 0x0 SWAP1 SLOAD SWAP1 PUSH2 0x100 EXP SWAP1 DIV PUSH20 0xFFFFFFFFFFFFFFFFFFFFFFFFFFFFFFFFFFFFFFFF AND PUSH20 0xFFFFFFFFFFFFFFFFFFFFFFFFFFFFFFFFFFFFFFFF AND PUSH4 0x6D101D50 PUSH1 0x40 MLOAD DUP2 PUSH4 0xFFFFFFFF AND PUSH1 0xE0 SHL DUP2 MSTORE PUSH1 0x4 ADD PUSH1 0x0 PUSH1 0x40 MLOAD DUP1 DUP4 SUB DUP2 PUSH1 0x0 DUP8 DUP1 EXTCODESIZE ISZERO DUP1 ISZERO PUSH2 0x5CB JUMPI PUSH1 0x0 DUP1 REVERT JUMPDEST POP GAS CALL ISZERO DUP1 ISZERO PUSH2 0x5DF JUMPI RETURNDATASIZE PUSH1 0x0 DUP1 RETURNDATACOPY RETURNDATASIZE PUSH1 0x0 REVERT JUMPDEST POP POP POP POP JUMP JUMPDEST PUSH1 0x0 PUSH1 0x1 PUSH1 0x0 CALLER PUSH20 0xFFFFFFFFFFFFFFFFFFFFFFFFFFFFFFFFFFFFFFFF AND PUSH20 0xFFFFFFFFFFFFFFFFFFFFFFFFFFFFFFFFFFFFFFFF AND DUP2 MSTORE PUSH1 0x20 ADD SWAP1 DUP2 MSTORE PUSH1 0x20 ADD PUSH1 0x0 KECCAK256 PUSH1 0x0 SWAP1 SLOAD SWAP1 PUSH2 0x100 EXP SWAP1 DIV PUSH1 0xFF AND PUSH2 0x673 JUMPI PUSH1 0x40 MLOAD PUSH32 0x8C379A000000000000000000000000000000000000000000000000000000000 DUP2 MSTORE PUSH1 0x4 ADD PUSH2 0x66A SWAP1 PUSH2 0xEEA JUMP JUMPDEST PUSH1 0x40 MLOAD DUP1 SWAP2 SUB SWAP1 REVERT JUMPDEST PUSH1 0x4 PUSH1 0x0 SWAP1 SLOAD SWAP1 PUSH2 0x100 EXP SWAP1 DIV PUSH20 0xFFFFFFFFFFFFFFFFFFFFFFFFFFFFFFFFFFFFFFFF AND PUSH20 0xFFFFFFFFFFFFFFFFFFFFFFFFFFFFFFFFFFFFFFFF AND PUSH4 0x4DD06F5 DUP5 DUP5 PUSH1 0x40 MLOAD DUP4 PUSH4 0xFFFFFFFF AND PUSH1 0xE0 SHL DUP2 MSTORE PUSH1 0x4 ADD PUSH2 0x6D0 SWAP3 SWAP2 SWAP1 PUSH2 0xF0A JUMP JUMPDEST PUSH1 0x0 PUSH1 0x40 MLOAD DUP1 DUP4 SUB DUP2 PUSH1 0x0 DUP8 DUP1 EXTCODESIZE ISZERO DUP1 ISZERO PUSH2 0x6EA JUMPI PUSH1 0x0 DUP1 REVERT JUMPDEST POP GAS CALL ISZERO DUP1 ISZERO PUSH2 0x6FE JUMPI RETURNDATASIZE PUSH1 0x0 DUP1 RETURNDATACOPY RETURNDATASIZE PUSH1 0x0 REVERT JUMPDEST POP POP POP POP PUSH1 0x1 SWAP1 POP SWAP3 SWAP2 POP POP JUMP JUMPDEST DUP1 PUSH1 0x4 PUSH1 0x0 PUSH2 0x100 EXP DUP2 SLOAD DUP2 PUSH20 0xFFFFFFFFFFFFFFFFFFFFFFFFFFFFFFFFFFFFFFFF MUL NOT AND SWAP1 DUP4 PUSH20 0xFFFFFFFFFFFFFFFFFFFFFFFFFFFFFFFFFFFFFFFF AND MUL OR SWAP1 SSTORE POP POP JUMP JUMPDEST PUSH1 0x0 DUP2 PUSH1 0xA PUSH2 0x75F SWAP2 SWAP1 PUSH2 0xF62 JUMP JUMPDEST SWAP2 POP DUP2 SWAP1 POP SWAP2 SWAP1 POP JUMP JUMPDEST PUSH2 0x771 PUSH2 0x842 JUMP JUMPDEST PUSH1 0x0 PUSH20 0xFFFFFFFFFFFFFFFFFFFFFFFFFFFFFFFFFFFFFFFF AND DUP2 PUSH20 0xFFFFFFFFFFFFFFFFFFFFFFFFFFFFFFFFFFFFFFFF AND SUB PUSH2 0x7E0 JUMPI PUSH1 0x40 MLOAD PUSH32 0x8C379A000000000000000000000000000000000000000000000000000000000 DUP2 MSTORE PUSH1 0x4 ADD PUSH2 0x7D7 SWAP1 PUSH2 0x1016 JUMP JUMPDEST PUSH1 0x40 MLOAD DUP1 SWAP2 SUB SWAP1 REVERT JUMPDEST PUSH2 0x7E9 DUP2 PUSH2 0x8C0 JUMP JUMPDEST POP JUMP JUMPDEST PUSH1 0x0 PUSH1 0x2 PUSH1 0x0 DUP4 PUSH20 0xFFFFFFFFFFFFFFFFFFFFFFFFFFFFFFFFFFFFFFFF AND PUSH20 0xFFFFFFFFFFFFFFFFFFFFFFFFFFFFFFFFFFFFFFFF AND DUP2 MSTORE PUSH1 0x20 ADD SWAP1 DUP2 MSTORE PUSH1 0x20 ADD PUSH1 0x0 KECCAK256 PUSH1 0x0 SWAP1 SLOAD SWAP1 PUSH2 0x100 EXP SWAP1 DIV PUSH1 0xFF AND SWAP1 POP SWAP2 SWAP1 POP JUMP JUMPDEST PUSH2 0x84A PUSH2 0x9CA JUMP JUMPDEST PUSH20 0xFFFFFFFFFFFFFFFFFFFFFFFFFFFFFFFFFFFFFFFF AND PUSH2 0x868 PUSH2 0x4AC JUMP JUMPDEST PUSH20 0xFFFFFFFFFFFFFFFFFFFFFFFFFFFFFFFFFFFFFFFF AND EQ PUSH2 0x8BE JUMPI PUSH1 0x40 MLOAD PUSH32 0x8C379A000000000000000000000000000000000000000000000000000000000 DUP2 MSTORE PUSH1 0x4 ADD PUSH2 0x8B5 SWAP1 PUSH2 0x1082 JUMP JUMPDEST PUSH1 0x40 MLOAD DUP1 SWAP2 SUB SWAP1 REVERT JUMPDEST JUMP JUMPDEST PUSH1 0x0 DUP1 PUSH1 0x0 SWAP1 SLOAD SWAP1 PUSH2 0x100 EXP SWAP1 DIV PUSH20 0xFFFFFFFFFFFFFFFFFFFFFFFFFFFFFFFFFFFFFFFF AND SWAP1 POP DUP2 PUSH1 0x0 DUP1 PUSH2 0x100 EXP DUP2 SLOAD DUP2 PUSH20 0xFFFFFFFFFFFFFFFFFFFFFFFFFFFFFFFFFFFFFFFF MUL NOT AND SWAP1 DUP4 PUSH20 0xFFFFFFFFFFFFFFFFFFFFFFFFFFFFFFFFFFFFFFFF AND MUL OR SWAP1 SSTORE POP DUP2 PUSH20 0xFFFFFFFFFFFFFFFFFFFFFFFFFFFFFFFFFFFFFFFF AND DUP2 PUSH20 0xFFFFFFFFFFFFFFFFFFFFFFFFFFFFFFFFFFFFFFFF AND PUSH32 0x8BE0079C531659141344CD1FD0A4F28419497F9722A3DAAFE3B4186F6B6457E0 PUSH1 0x40 MLOAD PUSH1 0x40 MLOAD DUP1 SWAP2 SUB SWAP1 LOG3 POP POP JUMP JUMPDEST PUSH1 0x0 DUP1 PUSH1 0x0 DUP1 PUSH2 0x9A1 PUSH3 0x15180 DUP7 PUSH2 0x99C SWAP2 SWAP1 PUSH2 0x10D1 JUMP JUMPDEST PUSH2 0x9D2 JUMP JUMPDEST SWAP3 POP SWAP3 POP SWAP3 POP PUSH3 0x15180 PUSH2 0x9B6 DUP5 DUP5 DUP5 PUSH2 0xB71 JUMP JUMPDEST PUSH2 0x9C0 SWAP2 SWAP1 PUSH2 0xF62 JUMP JUMPDEST SWAP4 POP POP POP POP SWAP2 SWAP1 POP JUMP JUMPDEST PUSH1 0x0 CALLER SWAP1 POP SWAP1 JUMP JUMPDEST PUSH1 0x0 DUP1 PUSH1 0x0 DUP1 DUP5 SWAP1 POP PUSH1 0x0 PUSH3 0x253D8C PUSH3 0x10BD9 DUP4 PUSH2 0x9F0 SWAP2 SWAP1 PUSH2 0x110C JUMP JUMPDEST PUSH2 0x9FA SWAP2 SWAP1 PUSH2 0x110C JUMP JUMPDEST SWAP1 POP PUSH1 0x0 PUSH3 0x23AB1 DUP3 PUSH1 0x4 PUSH2 0xA0F SWAP2 SWAP1 PUSH2 0x1150 JUMP JUMPDEST PUSH2 0xA19 SWAP2 SWAP1 PUSH2 0x11C8 JUMP JUMPDEST SWAP1 POP PUSH1 0x4 PUSH1 0x3 DUP3 PUSH3 0x23AB1 PUSH2 0xA2E SWAP2 SWAP1 PUSH2 0x1150 JUMP JUMPDEST PUSH2 0xA38 SWAP2 SWAP1 PUSH2 0x110C JUMP JUMPDEST PUSH2 0xA42 SWAP2 SWAP1 PUSH2 0x11C8 JUMP JUMPDEST DUP3 PUSH2 0xA4D SWAP2 SWAP1 PUSH2 0x1232 JUMP JUMPDEST SWAP2 POP PUSH1 0x0 PUSH3 0x164B09 PUSH1 0x1 DUP5 PUSH2 0xA62 SWAP2 SWAP1 PUSH2 0x110C JUMP JUMPDEST PUSH2 0xFA0 PUSH2 0xA6F SWAP2 SWAP1 PUSH2 0x1150 JUMP JUMPDEST PUSH2 0xA79 SWAP2 SWAP1 PUSH2 0x11C8 JUMP JUMPDEST SWAP1 POP PUSH1 0x1F PUSH1 0x4 DUP3 PUSH2 0x5B5 PUSH2 0xA8D SWAP2 SWAP1 PUSH2 0x1150 JUMP JUMPDEST PUSH2 0xA97 SWAP2 SWAP1 PUSH2 0x11C8 JUMP JUMPDEST DUP5 PUSH2 0xAA2 SWAP2 SWAP1 PUSH2 0x1232 JUMP JUMPDEST PUSH2 0xAAC SWAP2 SWAP1 PUSH2 0x110C JUMP JUMPDEST SWAP3 POP PUSH1 0x0 PUSH2 0x98F DUP5 PUSH1 0x50 PUSH2 0xAC0 SWAP2 SWAP1 PUSH2 0x1150 JUMP JUMPDEST PUSH2 0xACA SWAP2 SWAP1 PUSH2 0x11C8 JUMP JUMPDEST SWAP1 POP PUSH1 0x0 PUSH1 0x50 DUP3 PUSH2 0x98F PUSH2 0xADE SWAP2 SWAP1 PUSH2 0x1150 JUMP JUMPDEST PUSH2 0xAE8 SWAP2 SWAP1 PUSH2 0x11C8 JUMP JUMPDEST DUP6 PUSH2 0xAF3 SWAP2 SWAP1 PUSH2 0x1232 JUMP JUMPDEST SWAP1 POP PUSH1 0xB DUP3 PUSH2 0xB02 SWAP2 SWAP1 PUSH2 0x11C8 JUMP JUMPDEST SWAP5 POP DUP5 PUSH1 0xC PUSH2 0xB11 SWAP2 SWAP1 PUSH2 0x1150 JUMP JUMPDEST PUSH1 0x2 DUP4 PUSH2 0xB1E SWAP2 SWAP1 PUSH2 0x110C JUMP JUMPDEST PUSH2 0xB28 SWAP2 SWAP1 PUSH2 0x1232 JUMP JUMPDEST SWAP2 POP DUP5 DUP4 PUSH1 0x31 DUP7 PUSH2 0xB39 SWAP2 SWAP1 PUSH2 0x1232 JUMP JUMPDEST PUSH1 0x64 PUSH2 0xB45 SWAP2 SWAP1 PUSH2 0x1150 JUMP JUMPDEST PUSH2 0xB4F SWAP2 SWAP1 PUSH2 0x110C JUMP JUMPDEST PUSH2 0xB59 SWAP2 SWAP1 PUSH2 0x110C JUMP JUMPDEST SWAP3 POP DUP3 SWAP9 POP DUP2 SWAP8 POP DUP1 SWAP7 POP POP POP POP POP POP POP SWAP2 SWAP4 SWAP1 SWAP3 POP JUMP JUMPDEST PUSH1 0x0 PUSH2 0x7B2 DUP5 LT ISZERO PUSH2 0xB82 JUMPI PUSH1 0x0 DUP1 REVERT JUMPDEST PUSH1 0x0 DUP5 SWAP1 POP PUSH1 0x0 DUP5 SWAP1 POP PUSH1 0x0 DUP5 SWAP1 POP PUSH1 0x0 PUSH3 0x253D8C PUSH1 0x4 PUSH1 0x64 PUSH1 0xC PUSH1 0xE DUP8 PUSH2 0xBAA SWAP2 SWAP1 PUSH2 0x1232 JUMP JUMPDEST PUSH2 0xBB4 SWAP2 SWAP1 PUSH2 0x11C8 JUMP JUMPDEST PUSH2 0x1324 DUP9 PUSH2 0xBC2 SWAP2 SWAP1 PUSH2 0x110C JUMP JUMPDEST PUSH2 0xBCC SWAP2 SWAP1 PUSH2 0x110C JUMP JUMPDEST PUSH2 0xBD6 SWAP2 SWAP1 PUSH2 0x11C8 JUMP JUMPDEST PUSH1 0x3 PUSH2 0xBE2 SWAP2 SWAP1 PUSH2 0x1150 JUMP JUMPDEST PUSH2 0xBEC SWAP2 SWAP1 PUSH2 0x11C8 JUMP JUMPDEST PUSH1 0xC DUP1 PUSH1 0xC PUSH1 0xE DUP9 PUSH2 0xBFE SWAP2 SWAP1 PUSH2 0x1232 JUMP JUMPDEST PUSH2 0xC08 SWAP2 SWAP1 PUSH2 0x11C8 JUMP JUMPDEST PUSH2 0xC12 SWAP2 SWAP1 PUSH2 0x1150 JUMP JUMPDEST PUSH1 0x2 DUP8 PUSH2 0xC1F SWAP2 SWAP1 PUSH2 0x1232 JUMP JUMPDEST PUSH2 0xC29 SWAP2 SWAP1 PUSH2 0x1232 JUMP JUMPDEST PUSH2 0x16F PUSH2 0xC36 SWAP2 SWAP1 PUSH2 0x1150 JUMP JUMPDEST PUSH2 0xC40 SWAP2 SWAP1 PUSH2 0x11C8 JUMP JUMPDEST PUSH1 0x4 PUSH1 0xC PUSH1 0xE DUP9 PUSH2 0xC51 SWAP2 SWAP1 PUSH2 0x1232 JUMP JUMPDEST PUSH2 0xC5B SWAP2 SWAP1 PUSH2 0x11C8 JUMP JUMPDEST PUSH2 0x12C0 DUP10 PUSH2 0xC69 SWAP2 SWAP1 PUSH2 0x110C JUMP JUMPDEST PUSH2 0xC73 SWAP2 SWAP1 PUSH2 0x110C JUMP JUMPDEST PUSH2 0x5B5 PUSH2 0xC80 SWAP2 SWAP1 PUSH2 0x1150 JUMP JUMPDEST PUSH2 0xC8A SWAP2 SWAP1 PUSH2 0x11C8 JUMP JUMPDEST PUSH2 0x7D4B DUP7 PUSH2 0xC98 SWAP2 SWAP1 PUSH2 0x1232 JUMP JUMPDEST PUSH2 0xCA2 SWAP2 SWAP1 PUSH2 0x110C JUMP JUMPDEST PUSH2 0xCAC SWAP2 SWAP1 PUSH2 0x110C JUMP JUMPDEST PUSH2 0xCB6 SWAP2 SWAP1 PUSH2 0x1232 JUMP JUMPDEST PUSH2 0xCC0 SWAP2 SWAP1 PUSH2 0x1232 JUMP JUMPDEST SWAP1 POP DUP1 SWAP5 POP POP POP POP POP SWAP4 SWAP3 POP POP POP JUMP JUMPDEST PUSH1 0x0 DUP1 REVERT JUMPDEST PUSH1 0x0 PUSH20 0xFFFFFFFFFFFFFFFFFFFFFFFFFFFFFFFFFFFFFFFF DUP3 AND SWAP1 POP SWAP2 SWAP1 POP JUMP JUMPDEST PUSH1 0x0 PUSH2 0xD00 DUP3 PUSH2 0xCD5 JUMP JUMPDEST SWAP1 POP SWAP2 SWAP1 POP JUMP JUMPDEST PUSH2 0xD10 DUP2 PUSH2 0xCF5 JUMP JUMPDEST DUP2 EQ PUSH2 0xD1B JUMPI PUSH1 0x0 DUP1 REVERT JUMPDEST POP JUMP JUMPDEST PUSH1 0x0 DUP2 CALLDATALOAD SWAP1 POP PUSH2 0xD2D DUP2 PUSH2 0xD07 JUMP JUMPDEST SWAP3 SWAP2 POP POP JUMP JUMPDEST PUSH1 0x0 PUSH1 0x20 DUP3 DUP5 SUB SLT ISZERO PUSH2 0xD49 JUMPI PUSH2 0xD48 PUSH2 0xCD0 JUMP JUMPDEST JUMPDEST PUSH1 0x0 PUSH2 0xD57 DUP5 DUP3 DUP6 ADD PUSH2 0xD1E JUMP JUMPDEST SWAP2 POP POP SWAP3 SWAP2 POP POP JUMP JUMPDEST PUSH1 0x0 DUP2 ISZERO ISZERO SWAP1 POP SWAP2 SWAP1 POP JUMP JUMPDEST PUSH2 0xD75 DUP2 PUSH2 0xD60 JUMP JUMPDEST DUP3 MSTORE POP POP JUMP JUMPDEST PUSH1 0x0 PUSH1 0x20 DUP3 ADD SWAP1 POP PUSH2 0xD90 PUSH1 0x0 DUP4 ADD DUP5 PUSH2 0xD6C JUMP JUMPDEST SWAP3 SWAP2 POP POP JUMP JUMPDEST PUSH1 0x0 DUP2 SWAP1 POP SWAP2 SWAP1 POP JUMP JUMPDEST PUSH2 0xDA9 DUP2 PUSH2 0xD96 JUMP JUMPDEST DUP3 MSTORE POP POP JUMP JUMPDEST PUSH1 0x0 PUSH1 0x20 DUP3 ADD SWAP1 POP PUSH2 0xDC4 PUSH1 0x0 DUP4 ADD DUP5 PUSH2 0xDA0 JUMP JUMPDEST SWAP3 SWAP2 POP POP JUMP JUMPDEST PUSH2 0xDD3 DUP2 PUSH2 0xCF5 JUMP JUMPDEST DUP3 MSTORE POP POP JUMP JUMPDEST PUSH1 0x0 PUSH1 0x20 DUP3 ADD SWAP1 POP PUSH2 0xDEE PUSH1 0x0 DUP4 ADD DUP5 PUSH2 0xDCA JUMP JUMPDEST SWAP3 SWAP2 POP POP JUMP JUMPDEST PUSH1 0x0 DUP1 PUSH1 0x40 DUP4 DUP6 SUB SLT ISZERO PUSH2 0xE0B JUMPI PUSH2 0xE0A PUSH2 0xCD0 JUMP JUMPDEST JUMPDEST PUSH1 0x0 PUSH2 0xE19 DUP6 DUP3 DUP7 ADD PUSH2 0xD1E JUMP JUMPDEST SWAP3 POP POP PUSH1 0x20 PUSH2 0xE2A DUP6 DUP3 DUP7 ADD PUSH2 0xD1E JUMP JUMPDEST SWAP2 POP POP SWAP3 POP SWAP3 SWAP1 POP JUMP JUMPDEST PUSH2 0xE3D DUP2 PUSH2 0xD96 JUMP JUMPDEST DUP2 EQ PUSH2 0xE48 JUMPI PUSH1 0x0 DUP1 REVERT JUMPDEST POP JUMP JUMPDEST PUSH1 0x0 DUP2 CALLDATALOAD SWAP1 POP PUSH2 0xE5A DUP2 PUSH2 0xE34 JUMP JUMPDEST SWAP3 SWAP2 POP POP JUMP JUMPDEST PUSH1 0x0 PUSH1 0x20 DUP3 DUP5 SUB SLT ISZERO PUSH2 0xE76 JUMPI PUSH2 0xE75 PUSH2 0xCD0 JUMP JUMPDEST JUMPDEST PUSH1 0x0 PUSH2 0xE84 DUP5 DUP3 DUP6 ADD PUSH2 0xE4B JUMP JUMPDEST SWAP2 POP POP SWAP3 SWAP2 POP POP JUMP JUMPDEST PUSH1 0x0 DUP3 DUP3 MSTORE PUSH1 0x20 DUP3 ADD SWAP1 POP SWAP3 SWAP2 POP POP JUMP JUMPDEST PUSH32 0x4F6E6C792061646D696E2063616E2063616C6C20697400000000000000000000 PUSH1 0x0 DUP3 ADD MSTORE POP JUMP JUMPDEST PUSH1 0x0 PUSH2 0xED4 PUSH1 0x16 DUP4 PUSH2 0xE8D JUMP JUMPDEST SWAP2 POP PUSH2 0xEDF DUP3 PUSH2 0xE9E JUMP JUMPDEST PUSH1 0x20 DUP3 ADD SWAP1 POP SWAP2 SWAP1 POP JUMP JUMPDEST PUSH1 0x0 PUSH1 0x20 DUP3 ADD SWAP1 POP DUP2 DUP2 SUB PUSH1 0x0 DUP4 ADD MSTORE PUSH2 0xF03 DUP2 PUSH2 0xEC7 JUMP JUMPDEST SWAP1 POP SWAP2 SWAP1 POP JUMP JUMPDEST PUSH1 0x0 PUSH1 0x40 DUP3 ADD SWAP1 POP PUSH2 0xF1F PUSH1 0x0 DUP4 ADD DUP6 PUSH2 0xDCA JUMP JUMPDEST PUSH2 0xF2C PUSH1 0x20 DUP4 ADD DUP5 PUSH2 0xDCA JUMP JUMPDEST SWAP4 SWAP3 POP POP POP JUMP JUMPDEST PUSH32 0x4E487B7100000000000000000000000000000000000000000000000000000000 PUSH1 0x0 MSTORE PUSH1 0x11 PUSH1 0x4 MSTORE PUSH1 0x24 PUSH1 0x0 REVERT JUMPDEST PUSH1 0x0 PUSH2 0xF6D DUP3 PUSH2 0xD96 JUMP JUMPDEST SWAP2 POP PUSH2 0xF78 DUP4 PUSH2 0xD96 JUMP JUMPDEST SWAP3 POP DUP3 DUP3 MUL PUSH2 0xF86 DUP2 PUSH2 0xD96 JUMP JUMPDEST SWAP2 POP DUP3 DUP3 DIV DUP5 EQ DUP4 ISZERO OR PUSH2 0xF9D JUMPI PUSH2 0xF9C PUSH2 0xF33 JUMP JUMPDEST JUMPDEST POP SWAP3 SWAP2 POP POP JUMP JUMPDEST PUSH32 0x4F776E61626C653A206E6577206F776E657220697320746865207A65726F2061 PUSH1 0x0 DUP3 ADD MSTORE PUSH32 0x6464726573730000000000000000000000000000000000000000000000000000 PUSH1 0x20 DUP3 ADD MSTORE POP JUMP JUMPDEST PUSH1 0x0 PUSH2 0x1000 PUSH1 0x26 DUP4 PUSH2 0xE8D JUMP JUMPDEST SWAP2 POP PUSH2 0x100B DUP3 PUSH2 0xFA4 JUMP JUMPDEST PUSH1 0x40 DUP3 ADD SWAP1 POP SWAP2 SWAP1 POP JUMP JUMPDEST PUSH1 0x0 PUSH1 0x20 DUP3 ADD SWAP1 POP DUP2 DUP2 SUB PUSH1 0x0 DUP4 ADD MSTORE PUSH2 0x102F DUP2 PUSH2 0xFF3 JUMP JUMPDEST SWAP1 POP SWAP2 SWAP1 POP JUMP JUMPDEST PUSH32 0x4F776E61626C653A2063616C6C6572206973206E6F7420746865206F776E6572 PUSH1 0x0 DUP3 ADD MSTORE POP JUMP JUMPDEST PUSH1 0x0 PUSH2 0x106C PUSH1 0x20 DUP4 PUSH2 0xE8D JUMP JUMPDEST SWAP2 POP PUSH2 0x1077 DUP3 PUSH2 0x1036 JUMP JUMPDEST PUSH1 0x20 DUP3 ADD SWAP1 POP SWAP2 SWAP1 POP JUMP JUMPDEST PUSH1 0x0 PUSH1 0x20 DUP3 ADD SWAP1 POP DUP2 DUP2 SUB PUSH1 0x0 DUP4 ADD MSTORE PUSH2 0x109B DUP2 PUSH2 0x105F JUMP JUMPDEST SWAP1 POP SWAP2 SWAP1 POP JUMP JUMPDEST PUSH32 0x4E487B7100000000000000000000000000000000000000000000000000000000 PUSH1 0x0 MSTORE PUSH1 0x12 PUSH1 0x4 MSTORE PUSH1 0x24 PUSH1 0x0 REVERT JUMPDEST PUSH1 0x0 PUSH2 0x10DC DUP3 PUSH2 0xD96 JUMP JUMPDEST SWAP2 POP PUSH2 0x10E7 DUP4 PUSH2 0xD96 JUMP JUMPDEST SWAP3 POP DUP3 PUSH2 0x10F7 JUMPI PUSH2 0x10F6 PUSH2 0x10A2 JUMP JUMPDEST JUMPDEST DUP3 DUP3 DIV SWAP1 POP SWAP3 SWAP2 POP POP JUMP JUMPDEST PUSH1 0x0 DUP2 SWAP1 POP SWAP2 SWAP1 POP JUMP JUMPDEST PUSH1 0x0 PUSH2 0x1117 DUP3 PUSH2 0x1102 JUMP JUMPDEST SWAP2 POP PUSH2 0x1122 DUP4 PUSH2 0x1102 JUMP JUMPDEST SWAP3 POP DUP3 DUP3 ADD SWAP1 POP DUP3 DUP2 SLT ISZERO PUSH1 0x0 DUP4 SLT AND DUP4 DUP3 SLT PUSH1 0x0 DUP5 SLT ISZERO AND OR ISZERO PUSH2 0x114A JUMPI PUSH2 0x1149 PUSH2 0xF33 JUMP JUMPDEST JUMPDEST SWAP3 SWAP2 POP POP JUMP JUMPDEST PUSH1 0x0 PUSH2 0x115B DUP3 PUSH2 0x1102 JUMP JUMPDEST SWAP2 POP PUSH2 0x1166 DUP4 PUSH2 0x1102 JUMP JUMPDEST SWAP3 POP DUP3 DUP3 MUL PUSH2 0x1174 DUP2 PUSH2 0x1102 JUMP JUMPDEST SWAP2 POP PUSH32 0x8000000000000000000000000000000000000000000000000000000000000000 DUP5 EQ PUSH1 0x0 DUP5 SLT AND ISZERO PUSH2 0x11AC JUMPI PUSH2 0x11AB PUSH2 0xF33 JUMP JUMPDEST JUMPDEST DUP3 DUP3 SDIV DUP5 EQ DUP4 ISZERO OR PUSH2 0x11C1 JUMPI PUSH2 0x11C0 PUSH2 0xF33 JUMP JUMPDEST JUMPDEST POP SWAP3 SWAP2 POP POP JUMP JUMPDEST PUSH1 0x0 PUSH2 0x11D3 DUP3 PUSH2 0x1102 JUMP JUMPDEST SWAP2 POP PUSH2 0x11DE DUP4 PUSH2 0x1102 JUMP JUMPDEST SWAP3 POP DUP3 PUSH2 0x11EE JUMPI PUSH2 0x11ED PUSH2 0x10A2 JUMP JUMPDEST JUMPDEST PUSH1 0x1 PUSH1 0x0 SUB DUP4 EQ PUSH32 0x8000000000000000000000000000000000000000000000000000000000000000 DUP4 EQ AND ISZERO PUSH2 0x1227 JUMPI PUSH2 0x1226 PUSH2 0xF33 JUMP JUMPDEST JUMPDEST DUP3 DUP3 SDIV SWAP1 POP SWAP3 SWAP2 POP POP JUMP JUMPDEST PUSH1 0x0 PUSH2 0x123D DUP3 PUSH2 0x1102 JUMP JUMPDEST SWAP2 POP PUSH2 0x1248 DUP4 PUSH2 0x1102 JUMP JUMPDEST SWAP3 POP DUP3 DUP3 SUB SWAP1 POP DUP2 DUP2 SLT PUSH1 0x0 DUP5 SLT AND DUP3 DUP3 SGT PUSH1 0x0 DUP6 SLT ISZERO AND OR ISZERO PUSH2 0x126F JUMPI PUSH2 0x126E PUSH2 0xF33 JUMP JUMPDEST JUMPDEST SWAP3 SWAP2 POP POP JUMP INVALID LOG2 PUSH5 0x6970667358 0x22 SLT KECCAK256 PUSH14 0x472165E5C50B7F064ABFD0A9857E 0xEA SWAP4 SGT JUMP CALLER BALANCE DIV PUSH13 0x8AB45F88D54895790964736F6C PUSH4 0x43000811 STOP CALLER "
				},
				"gasEstimates": {
					"creation": {
						"codeDepositCost": "955800",
						"executionCost": "infinite",
						"totalCost": "infinite"
					},
					"external": {
						"addAdmin(address)": "27121",
						"addServer(address)": "27144",
						"approveStake()": "infinite",
						"delAdmin(address)": "27099",
						"delServer(address)": "27122",
						"getCurrentDayTimestamp()": "infinite",
						"initContract(address)": "24744",
						"initToken(address,address)": "infinite",
						"isAdmin(address)": "2907",
						"isServer(address)": "2971",
						"mid(uint256)": "infinite",
						"owner()": "2545",
						"renounceOwnership()": "30465",
						"transferOwnership(address)": "30810"
					}
				},
				"methodIdentifiers": {
					"addAdmin(address)": "70480275",
					"addServer(address)": "5cbd99d4",
					"approveStake()": "b403b578",
					"delAdmin(address)": "62d91855",
					"delServer(address)": "3a4159fa",
					"getCurrentDayTimestamp()": "784b1b2c",
					"initContract(address)": "cf9d4afa",
					"initToken(address,address)": "ba2b6bad",
					"isAdmin(address)": "24d7806c",
					"isServer(address)": "fda08958",
					"mid(uint256)": "d043c0b0",
					"owner()": "8da5cb5b",
					"renounceOwnership()": "715018a6",
					"transferOwnership(address)": "f2fde38b"
				}
			},
			"storageLayout": {
				"storage": [
					{
						"astId": 7,
						"contract": "contracts/CenterContract.sol:CenterContract",
						"label": "_owner",
						"offset": 0,
						"slot": "0",
						"type": "t_address"
					},
					{
						"astId": 143,
						"contract": "contracts/CenterContract.sol:CenterContract",
						"label": "_admins",
						"offset": 0,
						"slot": "1",
						"type": "t_mapping(t_address,t_bool)"
					},
					{
						"astId": 202,
						"contract": "contracts/CenterContract.sol:CenterContract",
						"label": "_servers",
						"offset": 0,
						"slot": "2",
						"type": "t_mapping(t_address,t_bool)"
					},
					{
						"astId": 266,
						"contract": "contracts/CenterContract.sol:CenterContract",
						"label": "iCons",
						"offset": 0,
						"slot": "3",
						"type": "t_contract(IConstant)449"
					},
					{
						"astId": 269,
						"contract": "contracts/CenterContract.sol:CenterContract",
						"label": "iStake",
						"offset": 0,
						"slot": "4",
						"type": "t_contract(IStake)495"
					}
				],
				"types": {
					"t_address": {
						"encoding": "inplace",
						"label": "address",
						"numberOfBytes": "20"
					},
					"t_bool": {
						"encoding": "inplace",
						"label": "bool",
						"numberOfBytes": "1"
					},
					"t_contract(IConstant)449": {
						"encoding": "inplace",
						"label": "contract IConstant",
						"numberOfBytes": "20"
					},
					"t_contract(IStake)495": {
						"encoding": "inplace",
						"label": "contract IStake",
						"numberOfBytes": "20"
					},
					"t_mapping(t_address,t_bool)": {
						"encoding": "mapping",
						"key": "t_address",
						"label": "mapping(address => bool)",
						"numberOfBytes": "32",
						"value": "t_bool"
					}
				}
			},
			"userdoc": {
				"kind": "user",
				"methods": {},
				"version": 1
			}
		}
	}
}