{
	"contracts/stake.sol": {
		"Stake": {
			"abi": [
				{
					"inputs": [
						{
							"internalType": "address",
							"name": "tokenAddress",
							"type": "address"
						},
						{
							"internalType": "uint256",
							"name": "value",
							"type": "uint256"
						}
					],
					"stateMutability": "nonpayable",
					"type": "constructor"
				},
				{
					"anonymous": false,
					"inputs": [
						{
							"indexed": false,
							"internalType": "address",
							"name": "from",
							"type": "address"
						},
						{
							"indexed": false,
							"internalType": "address",
							"name": "to",
							"type": "address"
						},
						{
							"indexed": false,
							"internalType": "uint256",
							"name": "amount",
							"type": "uint256"
						}
					],
					"name": "StakeEvent",
					"type": "event"
				},
				{
					"anonymous": false,
					"inputs": [
						{
							"indexed": false,
							"internalType": "uint256",
							"name": "amount",
							"type": "uint256"
						},
						{
							"indexed": false,
							"internalType": "uint256",
							"name": "when",
							"type": "uint256"
						}
					],
					"name": "Withdrawal",
					"type": "event"
				},
				{
					"inputs": [
						{
							"internalType": "uint256",
							"name": "_amount",
							"type": "uint256"
						}
					],
					"name": "stake",
					"outputs": [],
					"stateMutability": "nonpayable",
					"type": "function"
				},
				{
					"inputs": [],
					"name": "stakeAmount",
					"outputs": [
						{
							"internalType": "uint256",
							"name": "",
							"type": "uint256"
						}
					],
					"stateMutability": "view",
					"type": "function"
				},
				{
					"inputs": [],
					"name": "unStake",
					"outputs": [],
					"stateMutability": "nonpayable",
					"type": "function"
				},
				{
					"stateMutability": "payable",
					"type": "receive"
				}
			],
			"devdoc": {
				"kind": "dev",
				"methods": {},
				"version": 1
			},
			"evm": {
				"assembly": "    /* \"contracts/stake.sol\":187:1210  contract Stake {... */\n  mstore(0x40, 0x80)\n    /* \"contracts/stake.sol\":415:648  constructor(... */\n  callvalue\n  dup1\n  iszero\n  tag_1\n  jumpi\n  0x00\n  dup1\n  revert\ntag_1:\n  pop\n  mload(0x40)\n  sub(codesize, bytecodeSize)\n  dup1\n  bytecodeSize\n  dup4\n  codecopy\n  dup2\n  dup2\n  add\n  0x40\n  mstore\n  dup2\n  add\n  swap1\n  tag_2\n  swap2\n  swap1\n  tag_3\n  jump\t// in\ntag_2:\n    /* \"contracts/stake.sol\":512:524  tokenAddress */\n  dup2\n    /* \"contracts/stake.sol\":497:502  token */\n  0x00\n  dup1\n    /* \"contracts/stake.sol\":497:525  token = IERC20(tokenAddress) */\n  0x0100\n  exp\n  dup2\n  sload\n  dup2\n  0xffffffffffffffffffffffffffffffffffffffff\n  mul\n  not\n  and\n  swap1\n  dup4\n  0xffffffffffffffffffffffffffffffffffffffff\n  and\n  mul\n  or\n  swap1\n  sstore\n  pop\n    /* \"contracts/stake.sol\":557:565  10 ** 18 */\n  0x0de0b6b3a7640000\n    /* \"contracts/stake.sol\":549:554  value */\n  dup2\n    /* \"contracts/stake.sol\":549:565  value * 10 ** 18 */\n  tag_6\n  swap2\n  swap1\n  tag_7\n  jump\t// in\ntag_6:\n    /* \"contracts/stake.sol\":535:546  stakeAmount */\n  0x01\n    /* \"contracts/stake.sol\":535:565  stakeAmount = value * 10 ** 18 */\n  dup2\n  swap1\n  sstore\n  pop\n    /* \"contracts/stake.sol\":575:641  token.safeIncreaseAllowance(address(this),100000000000 * 10 ** 18) */\n  tag_8\n    /* \"contracts/stake.sol\":611:615  this */\n  address\n    /* \"contracts/stake.sol\":617:640  100000000000 * 10 ** 18 */\n  0x01431e0fae6d7217caa0000000\n    /* \"contracts/stake.sol\":575:580  token */\n  0x00\n  dup1\n  sload\n  swap1\n  0x0100\n  exp\n  swap1\n  div\n  0xffffffffffffffffffffffffffffffffffffffff\n  and\n    /* \"contracts/stake.sol\":575:602  token.safeIncreaseAllowance */\n  0xffffffffffffffffffffffffffffffffffffffff\n  and\n  or(tag_0_21, shl(0x20, tag_9))\n  swap1\n    /* \"contracts/stake.sol\":575:641  token.safeIncreaseAllowance(address(this),100000000000 * 10 ** 18) */\n  swap3\n  swap2\n  swap1\n  0x20\n  shr\n  jump\t// in\ntag_8:\n    /* \"contracts/stake.sol\":415:648  constructor(... */\n  pop\n  pop\n    /* \"contracts/stake.sol\":187:1210  contract Stake {... */\n  jump(tag_10)\n    /* \"@openzeppelin/contracts/token/ERC20/utils/SafeERC20.sol\":2084:2394  function safeIncreaseAllowance(... */\ntag_9:\n    /* \"@openzeppelin/contracts/token/ERC20/utils/SafeERC20.sol\":2210:2230  uint256 newAllowance */\n  0x00\n    /* \"@openzeppelin/contracts/token/ERC20/utils/SafeERC20.sol\":2275:2280  value */\n  dup2\n    /* \"@openzeppelin/contracts/token/ERC20/utils/SafeERC20.sol\":2233:2238  token */\n  dup5\n    /* \"@openzeppelin/contracts/token/ERC20/utils/SafeERC20.sol\":2233:2248  token.allowance */\n  0xffffffffffffffffffffffffffffffffffffffff\n  and\n  0xdd62ed3e\n    /* \"@openzeppelin/contracts/token/ERC20/utils/SafeERC20.sol\":2257:2261  this */\n  address\n    /* \"@openzeppelin/contracts/token/ERC20/utils/SafeERC20.sol\":2264:2271  spender */\n  dup7\n    /* \"@openzeppelin/contracts/token/ERC20/utils/SafeERC20.sol\":2233:2272  token.allowance(address(this), spender) */\n  mload(0x40)\n  dup4\n  0xffffffff\n  and\n  0xe0\n  shl\n  dup2\n  mstore\n  0x04\n  add\n  tag_12\n  swap3\n  swap2\n  swap1\n  tag_13\n  jump\t// in\ntag_12:\n  0x20\n  mload(0x40)\n  dup1\n  dup4\n  sub\n  dup2\n  dup7\n  gas\n  staticcall\n  iszero\n  dup1\n  iszero\n  tag_15\n  jumpi\n  returndatasize\n  0x00\n  dup1\n  returndatacopy\n  revert(0x00, returndatasize)\ntag_15:\n  pop\n  pop\n  pop\n  pop\n  mload(0x40)\n  returndatasize\n  not(0x1f)\n  0x1f\n  dup3\n  add\n  and\n  dup3\n  add\n  dup1\n  0x40\n  mstore\n  pop\n  dup2\n  add\n  swap1\n  tag_16\n  swap2\n  swap1\n  tag_17\n  jump\t// in\ntag_16:\n    /* \"@openzeppelin/contracts/token/ERC20/utils/SafeERC20.sol\":2233:2280  token.allowance(address(this), spender) + value */\n  tag_18\n  swap2\n  swap1\n  tag_19\n  jump\t// in\ntag_18:\n    /* \"@openzeppelin/contracts/token/ERC20/utils/SafeERC20.sol\":2210:2280  uint256 newAllowance = token.allowance(address(this), spender) + value */\n  swap1\n  pop\n    /* \"@openzeppelin/contracts/token/ERC20/utils/SafeERC20.sol\":2290:2387  _callOptionalReturn(token, abi.encodeWithSelector(token.approve.selector, spender, newAllowance)) */\n  tag_20\n    /* \"@openzeppelin/contracts/token/ERC20/utils/SafeERC20.sol\":2310:2315  token */\n  dup5\n    /* \"@openzeppelin/contracts/token/ERC20/utils/SafeERC20.sol\":2340:2362  token.approve.selector */\n  shl(0xe0, 0x095ea7b3)\n    /* \"@openzeppelin/contracts/token/ERC20/utils/SafeERC20.sol\":2364:2371  spender */\n  dup6\n    /* \"@openzeppelin/contracts/token/ERC20/utils/SafeERC20.sol\":2373:2385  newAllowance */\n  dup5\n    /* \"@openzeppelin/contracts/token/ERC20/utils/SafeERC20.sol\":2317:2386  abi.encodeWithSelector(token.approve.selector, spender, newAllowance) */\n  add(0x24, mload(0x40))\n  tag_21\n  swap3\n  swap2\n  swap1\n  tag_22\n  jump\t// in\ntag_21:\n  mload(0x40)\n  0x20\n  dup2\n  dup4\n  sub\n  sub\n  dup2\n  mstore\n  swap1\n  0x40\n  mstore\n  swap1\n  not(0xffffffffffffffffffffffffffffffffffffffffffffffffffffffff)\n  and\n  0x20\n  dup3\n  add\n  dup1\n  mload\n  0xffffffffffffffffffffffffffffffffffffffffffffffffffffffff\n  dup4\n  dup2\n  dup4\n  and\n  or\n  dup4\n  mstore\n  pop\n  pop\n  pop\n  pop\n    /* \"@openzeppelin/contracts/token/ERC20/utils/SafeERC20.sol\":2290:2309  _callOptionalReturn */\n  shl(0x20, tag_23)\n    /* \"@openzeppelin/contracts/token/ERC20/utils/SafeERC20.sol\":2290:2387  _callOptionalReturn(token, abi.encodeWithSelector(token.approve.selector, spender, newAllowance)) */\n  0x20\n  shr\n  jump\t// in\ntag_20:\n    /* \"@openzeppelin/contracts/token/ERC20/utils/SafeERC20.sol\":2200:2394  {... */\n  pop\n    /* \"@openzeppelin/contracts/token/ERC20/utils/SafeERC20.sol\":2084:2394  function safeIncreaseAllowance(... */\n  pop\n  pop\n  pop\n  jump\t// out\n    /* \"@openzeppelin/contracts/token/ERC20/utils/SafeERC20.sol\":3747:4453  function _callOptionalReturn(IERC20 token, bytes memory data) private {... */\ntag_23:\n    /* \"@openzeppelin/contracts/token/ERC20/utils/SafeERC20.sol\":4166:4189  bytes memory returndata */\n  0x00\n    /* \"@openzeppelin/contracts/token/ERC20/utils/SafeERC20.sol\":4192:4261  address(token).functionCall(data, \"SafeERC20: low-level call failed\") */\n  tag_25\n    /* \"@openzeppelin/contracts/token/ERC20/utils/SafeERC20.sol\":4220:4224  data */\n  dup3\n    /* \"@openzeppelin/contracts/token/ERC20/utils/SafeERC20.sol\":4192:4261  address(token).functionCall(data, \"SafeERC20: low-level call failed\") */\n  mload(0x40)\n  dup1\n  0x40\n  add\n  0x40\n  mstore\n  dup1\n  0x20\n  dup2\n  mstore\n  0x20\n  add\n  0x5361666545524332303a206c6f772d6c6576656c2063616c6c206661696c6564\n  dup2\n  mstore\n  pop\n    /* \"@openzeppelin/contracts/token/ERC20/utils/SafeERC20.sol\":4200:4205  token */\n  dup6\n    /* \"@openzeppelin/contracts/token/ERC20/utils/SafeERC20.sol\":4192:4219  address(token).functionCall */\n  0xffffffffffffffffffffffffffffffffffffffff\n  and\n  or(tag_0_22, shl(0x20, tag_26))\n  swap1\n    /* \"@openzeppelin/contracts/token/ERC20/utils/SafeERC20.sol\":4192:4261  address(token).functionCall(data, \"SafeERC20: low-level call failed\") */\n  swap3\n  swap2\n  swap1\n  0x20\n  shr\n  jump\t// in\ntag_25:\n    /* \"@openzeppelin/contracts/token/ERC20/utils/SafeERC20.sol\":4166:4261  bytes memory returndata = address(token).functionCall(data, \"SafeERC20: low-level call failed\") */\n  swap1\n  pop\n    /* \"@openzeppelin/contracts/token/ERC20/utils/SafeERC20.sol\":4295:4296  0 */\n  0x00\n    /* \"@openzeppelin/contracts/token/ERC20/utils/SafeERC20.sol\":4275:4285  returndata */\n  dup2\n    /* \"@openzeppelin/contracts/token/ERC20/utils/SafeERC20.sol\":4275:4292  returndata.length */\n  mload\n    /* \"@openzeppelin/contracts/token/ERC20/utils/SafeERC20.sol\":4275:4296  returndata.length > 0 */\n  gt\n    /* \"@openzeppelin/contracts/token/ERC20/utils/SafeERC20.sol\":4271:4447  if (returndata.length > 0) {... */\n  iszero\n  tag_27\n  jumpi\n    /* \"@openzeppelin/contracts/token/ERC20/utils/SafeERC20.sol\":4370:4380  returndata */\n  dup1\n    /* \"@openzeppelin/contracts/token/ERC20/utils/SafeERC20.sol\":4359:4389  abi.decode(returndata, (bool)) */\n  dup1\n  0x20\n  add\n  swap1\n  mload\n  dup2\n  add\n  swap1\n  tag_28\n  swap2\n  swap1\n  tag_29\n  jump\t// in\ntag_28:\n    /* \"@openzeppelin/contracts/token/ERC20/utils/SafeERC20.sol\":4351:4436  require(abi.decode(returndata, (bool)), \"SafeERC20: ERC20 operation did not succeed\") */\n  tag_30\n  jumpi\n  mload(0x40)\n  0x08c379a000000000000000000000000000000000000000000000000000000000\n  dup2\n  mstore\n  0x04\n  add\n  tag_31\n  swap1\n  tag_32\n  jump\t// in\ntag_31:\n  mload(0x40)\n  dup1\n  swap2\n  sub\n  swap1\n  revert\ntag_30:\n    /* \"@openzeppelin/contracts/token/ERC20/utils/SafeERC20.sol\":4271:4447  if (returndata.length > 0) {... */\ntag_27:\n    /* \"@openzeppelin/contracts/token/ERC20/utils/SafeERC20.sol\":3817:4453  {... */\n  pop\n    /* \"@openzeppelin/contracts/token/ERC20/utils/SafeERC20.sol\":3747:4453  function _callOptionalReturn(IERC20 token, bytes memory data) private {... */\n  pop\n  pop\n  jump\t// out\n    /* \"@openzeppelin/contracts/utils/Address.sol\":3873:4096  function functionCall(... */\ntag_26:\n    /* \"@openzeppelin/contracts/utils/Address.sol\":4006:4018  bytes memory */\n  0x60\n    /* \"@openzeppelin/contracts/utils/Address.sol\":4037:4089  functionCallWithValue(target, data, 0, errorMessage) */\n  tag_34\n    /* \"@openzeppelin/contracts/utils/Address.sol\":4059:4065  target */\n  dup5\n    /* \"@openzeppelin/contracts/utils/Address.sol\":4067:4071  data */\n  dup5\n    /* \"@openzeppelin/contracts/utils/Address.sol\":4073:4074  0 */\n  0x00\n    /* \"@openzeppelin/contracts/utils/Address.sol\":4076:4088  errorMessage */\n  dup6\n    /* \"@openzeppelin/contracts/utils/Address.sol\":4037:4058  functionCallWithValue */\n  shl(0x20, tag_35)\n    /* \"@openzeppelin/contracts/utils/Address.sol\":4037:4089  functionCallWithValue(target, data, 0, errorMessage) */\n  0x20\n  shr\n  jump\t// in\ntag_34:\n    /* \"@openzeppelin/contracts/utils/Address.sol\":4030:4089  return functionCallWithValue(target, data, 0, errorMessage) */\n  swap1\n  pop\n    /* \"@openzeppelin/contracts/utils/Address.sol\":3873:4096  function functionCall(... */\n  swap4\n  swap3\n  pop\n  pop\n  pop\n  jump\t// out\n    /* \"@openzeppelin/contracts/utils/Address.sol\":4960:5406  function functionCallWithValue(... */\ntag_35:\n    /* \"@openzeppelin/contracts/utils/Address.sol\":5125:5137  bytes memory */\n  0x60\n    /* \"@openzeppelin/contracts/utils/Address.sol\":5182:5187  value */\n  dup3\n    /* \"@openzeppelin/contracts/utils/Address.sol\":5157:5178  address(this).balance */\n  selfbalance\n    /* \"@openzeppelin/contracts/utils/Address.sol\":5157:5187  address(this).balance >= value */\n  lt\n  iszero\n    /* \"@openzeppelin/contracts/utils/Address.sol\":5149:5230  require(address(this).balance >= value, \"Address: insufficient balance for call\") */\n  tag_37\n  jumpi\n  mload(0x40)\n  0x08c379a000000000000000000000000000000000000000000000000000000000\n  dup2\n  mstore\n  0x04\n  add\n  tag_38\n  swap1\n  tag_39\n  jump\t// in\ntag_38:\n  mload(0x40)\n  dup1\n  swap2\n  sub\n  swap1\n  revert\ntag_37:\n    /* \"@openzeppelin/contracts/utils/Address.sol\":5241:5253  bool success */\n  0x00\n    /* \"@openzeppelin/contracts/utils/Address.sol\":5255:5278  bytes memory returndata */\n  dup1\n    /* \"@openzeppelin/contracts/utils/Address.sol\":5282:5288  target */\n  dup7\n    /* \"@openzeppelin/contracts/utils/Address.sol\":5282:5293  target.call */\n  0xffffffffffffffffffffffffffffffffffffffff\n  and\n    /* \"@openzeppelin/contracts/utils/Address.sol\":5301:5306  value */\n  dup6\n    /* \"@openzeppelin/contracts/utils/Address.sol\":5308:5312  data */\n  dup8\n    /* \"@openzeppelin/contracts/utils/Address.sol\":5282:5313  target.call{value: value}(data) */\n  mload(0x40)\n  tag_40\n  swap2\n  swap1\n  tag_41\n  jump\t// in\ntag_40:\n  0x00\n  mload(0x40)\n  dup1\n  dup4\n  sub\n  dup2\n  dup6\n  dup8\n  gas\n  call\n  swap3\n  pop\n  pop\n  pop\n  returndatasize\n  dup1\n  0x00\n  dup2\n  eq\n  tag_44\n  jumpi\n  mload(0x40)\n  swap2\n  pop\n  and(add(returndatasize, 0x3f), not(0x1f))\n  dup3\n  add\n  0x40\n  mstore\n  returndatasize\n  dup3\n  mstore\n  returndatasize\n  0x00\n  0x20\n  dup5\n  add\n  returndatacopy\n  jump(tag_43)\ntag_44:\n  0x60\n  swap2\n  pop\ntag_43:\n  pop\n    /* \"@openzeppelin/contracts/utils/Address.sol\":5240:5313  (bool success, bytes memory returndata) = target.call{value: value}(data) */\n  swap2\n  pop\n  swap2\n  pop\n    /* \"@openzeppelin/contracts/utils/Address.sol\":5330:5399  verifyCallResultFromTarget(target, success, returndata, errorMessage) */\n  tag_45\n    /* \"@openzeppelin/contracts/utils/Address.sol\":5357:5363  target */\n  dup8\n    /* \"@openzeppelin/contracts/utils/Address.sol\":5365:5372  success */\n  dup4\n    /* \"@openzeppelin/contracts/utils/Address.sol\":5374:5384  returndata */\n  dup4\n    /* \"@openzeppelin/contracts/utils/Address.sol\":5386:5398  errorMessage */\n  dup8\n    /* \"@openzeppelin/contracts/utils/Address.sol\":5330:5356  verifyCallResultFromTarget */\n  shl(0x20, tag_46)\n    /* \"@openzeppelin/contracts/utils/Address.sol\":5330:5399  verifyCallResultFromTarget(target, success, returndata, errorMessage) */\n  0x20\n  shr\n  jump\t// in\ntag_45:\n    /* \"@openzeppelin/contracts/utils/Address.sol\":5323:5399  return verifyCallResultFromTarget(target, success, returndata, errorMessage) */\n  swap3\n  pop\n  pop\n  pop\n    /* \"@openzeppelin/contracts/utils/Address.sol\":4960:5406  function functionCallWithValue(... */\n  swap5\n  swap4\n  pop\n  pop\n  pop\n  pop\n  jump\t// out\n    /* \"@openzeppelin/contracts/utils/Address.sol\":7466:8094  function verifyCallResultFromTarget(... */\ntag_46:\n    /* \"@openzeppelin/contracts/utils/Address.sol\":7646:7658  bytes memory */\n  0x60\n    /* \"@openzeppelin/contracts/utils/Address.sol\":7674:7681  success */\n  dup4\n    /* \"@openzeppelin/contracts/utils/Address.sol\":7670:8088  if (success) {... */\n  iszero\n  tag_48\n  jumpi\n    /* \"@openzeppelin/contracts/utils/Address.sol\":7722:7723  0 */\n  0x00\n    /* \"@openzeppelin/contracts/utils/Address.sol\":7701:7711  returndata */\n  dup4\n    /* \"@openzeppelin/contracts/utils/Address.sol\":7701:7718  returndata.length */\n  mload\n    /* \"@openzeppelin/contracts/utils/Address.sol\":7701:7723  returndata.length == 0 */\n  sub\n    /* \"@openzeppelin/contracts/utils/Address.sol\":7697:7983  if (returndata.length == 0) {... */\n  tag_49\n  jumpi\n    /* \"@openzeppelin/contracts/utils/Address.sol\":7916:7934  isContract(target) */\n  tag_50\n    /* \"@openzeppelin/contracts/utils/Address.sol\":7927:7933  target */\n  dup6\n    /* \"@openzeppelin/contracts/utils/Address.sol\":7916:7926  isContract */\n  shl(0x20, tag_51)\n    /* \"@openzeppelin/contracts/utils/Address.sol\":7916:7934  isContract(target) */\n  0x20\n  shr\n  jump\t// in\ntag_50:\n    /* \"@openzeppelin/contracts/utils/Address.sol\":7908:7968  require(isContract(target), \"Address: call to non-contract\") */\n  tag_52\n  jumpi\n  mload(0x40)\n  0x08c379a000000000000000000000000000000000000000000000000000000000\n  dup2\n  mstore\n  0x04\n  add\n  tag_53\n  swap1\n  tag_54\n  jump\t// in\ntag_53:\n  mload(0x40)\n  dup1\n  swap2\n  sub\n  swap1\n  revert\ntag_52:\n    /* \"@openzeppelin/contracts/utils/Address.sol\":7697:7983  if (returndata.length == 0) {... */\ntag_49:\n    /* \"@openzeppelin/contracts/utils/Address.sol\":8003:8013  returndata */\n  dup3\n    /* \"@openzeppelin/contracts/utils/Address.sol\":7996:8013  return returndata */\n  swap1\n  pop\n  jump(tag_47)\n    /* \"@openzeppelin/contracts/utils/Address.sol\":7670:8088  if (success) {... */\ntag_48:\n    /* \"@openzeppelin/contracts/utils/Address.sol\":8044:8077  _revert(returndata, errorMessage) */\n  tag_56\n    /* \"@openzeppelin/contracts/utils/Address.sol\":8052:8062  returndata */\n  dup4\n    /* \"@openzeppelin/contracts/utils/Address.sol\":8064:8076  errorMessage */\n  dup4\n    /* \"@openzeppelin/contracts/utils/Address.sol\":8044:8051  _revert */\n  shl(0x20, tag_57)\n    /* \"@openzeppelin/contracts/utils/Address.sol\":8044:8077  _revert(returndata, errorMessage) */\n  0x20\n  shr\n  jump\t// in\ntag_56:\n    /* \"@openzeppelin/contracts/utils/Address.sol\":7466:8094  function verifyCallResultFromTarget(... */\ntag_47:\n  swap5\n  swap4\n  pop\n  pop\n  pop\n  pop\n  jump\t// out\n    /* \"@openzeppelin/contracts/utils/Address.sol\":1175:1495  function isContract(address account) internal view returns (bool) {... */\ntag_51:\n    /* \"@openzeppelin/contracts/utils/Address.sol\":1235:1239  bool */\n  0x00\n    /* \"@openzeppelin/contracts/utils/Address.sol\":1487:1488  0 */\n  dup1\n    /* \"@openzeppelin/contracts/utils/Address.sol\":1465:1472  account */\n  dup3\n    /* \"@openzeppelin/contracts/utils/Address.sol\":1465:1484  account.code.length */\n  0xffffffffffffffffffffffffffffffffffffffff\n  and\n  extcodesize\n    /* \"@openzeppelin/contracts/utils/Address.sol\":1465:1488  account.code.length > 0 */\n  gt\n    /* \"@openzeppelin/contracts/utils/Address.sol\":1458:1488  return account.code.length > 0 */\n  swap1\n  pop\n    /* \"@openzeppelin/contracts/utils/Address.sol\":1175:1495  function isContract(address account) internal view returns (bool) {... */\n  swap2\n  swap1\n  pop\n  jump\t// out\n    /* \"@openzeppelin/contracts/utils/Address.sol\":8616:9156  function _revert(bytes memory returndata, string memory errorMessage) private pure {... */\ntag_57:\n    /* \"@openzeppelin/contracts/utils/Address.sol\":8795:8796  0 */\n  0x00\n    /* \"@openzeppelin/contracts/utils/Address.sol\":8775:8785  returndata */\n  dup3\n    /* \"@openzeppelin/contracts/utils/Address.sol\":8775:8792  returndata.length */\n  mload\n    /* \"@openzeppelin/contracts/utils/Address.sol\":8775:8796  returndata.length > 0 */\n  gt\n    /* \"@openzeppelin/contracts/utils/Address.sol\":8771:9150  if (returndata.length > 0) {... */\n  iszero\n  tag_60\n  jumpi\n    /* \"@openzeppelin/contracts/utils/Address.sol\":9003:9013  returndata */\n  dup2\n    /* \"@openzeppelin/contracts/utils/Address.sol\":8997:9014  mload(returndata) */\n  mload\n    /* \"@openzeppelin/contracts/utils/Address.sol\":9059:9074  returndata_size */\n  dup1\n    /* \"@openzeppelin/contracts/utils/Address.sol\":9046:9056  returndata */\n  dup4\n    /* \"@openzeppelin/contracts/utils/Address.sol\":9042:9044  32 */\n  0x20\n    /* \"@openzeppelin/contracts/utils/Address.sol\":9038:9057  add(32, returndata) */\n  add\n    /* \"@openzeppelin/contracts/utils/Address.sol\":9031:9075  revert(add(32, returndata), returndata_size) */\n  revert\n    /* \"@openzeppelin/contracts/utils/Address.sol\":8771:9150  if (returndata.length > 0) {... */\ntag_60:\n    /* \"@openzeppelin/contracts/utils/Address.sol\":9126:9138  errorMessage */\n  dup1\n    /* \"@openzeppelin/contracts/utils/Address.sol\":9119:9139  revert(errorMessage) */\n  mload(0x40)\n  0x08c379a000000000000000000000000000000000000000000000000000000000\n  dup2\n  mstore\n  0x04\n  add\n  tag_62\n  swap2\n  swap1\n  tag_63\n  jump\t// in\ntag_62:\n  mload(0x40)\n  dup1\n  swap2\n  sub\n  swap1\n  revert\n    /* \"#utility.yul\":88:205   */\ntag_65:\n    /* \"#utility.yul\":197:198   */\n  0x00\n    /* \"#utility.yul\":194:195   */\n  dup1\n    /* \"#utility.yul\":187:199   */\n  revert\n    /* \"#utility.yul\":334:460   */\ntag_67:\n    /* \"#utility.yul\":371:378   */\n  0x00\n    /* \"#utility.yul\":411:453   */\n  0xffffffffffffffffffffffffffffffffffffffff\n    /* \"#utility.yul\":404:409   */\n  dup3\n    /* \"#utility.yul\":400:454   */\n  and\n    /* \"#utility.yul\":389:454   */\n  swap1\n  pop\n    /* \"#utility.yul\":334:460   */\n  swap2\n  swap1\n  pop\n  jump\t// out\n    /* \"#utility.yul\":466:562   */\ntag_68:\n    /* \"#utility.yul\":503:510   */\n  0x00\n    /* \"#utility.yul\":532:556   */\n  tag_100\n    /* \"#utility.yul\":550:555   */\n  dup3\n    /* \"#utility.yul\":532:556   */\n  tag_67\n  jump\t// in\ntag_100:\n    /* \"#utility.yul\":521:556   */\n  swap1\n  pop\n    /* \"#utility.yul\":466:562   */\n  swap2\n  swap1\n  pop\n  jump\t// out\n    /* \"#utility.yul\":568:690   */\ntag_69:\n    /* \"#utility.yul\":641:665   */\n  tag_102\n    /* \"#utility.yul\":659:664   */\n  dup2\n    /* \"#utility.yul\":641:665   */\n  tag_68\n  jump\t// in\ntag_102:\n    /* \"#utility.yul\":634:639   */\n  dup2\n    /* \"#utility.yul\":631:666   */\n  eq\n    /* \"#utility.yul\":621:684   */\n  tag_103\n  jumpi\n    /* \"#utility.yul\":680:681   */\n  0x00\n    /* \"#utility.yul\":677:678   */\n  dup1\n    /* \"#utility.yul\":670:682   */\n  revert\n    /* \"#utility.yul\":621:684   */\ntag_103:\n    /* \"#utility.yul\":568:690   */\n  pop\n  jump\t// out\n    /* \"#utility.yul\":696:839   */\ntag_70:\n    /* \"#utility.yul\":753:758   */\n  0x00\n    /* \"#utility.yul\":784:790   */\n  dup2\n    /* \"#utility.yul\":778:791   */\n  mload\n    /* \"#utility.yul\":769:791   */\n  swap1\n  pop\n    /* \"#utility.yul\":800:833   */\n  tag_105\n    /* \"#utility.yul\":827:832   */\n  dup2\n    /* \"#utility.yul\":800:833   */\n  tag_69\n  jump\t// in\ntag_105:\n    /* \"#utility.yul\":696:839   */\n  swap3\n  swap2\n  pop\n  pop\n  jump\t// out\n    /* \"#utility.yul\":845:922   */\ntag_71:\n    /* \"#utility.yul\":882:889   */\n  0x00\n    /* \"#utility.yul\":911:916   */\n  dup2\n    /* \"#utility.yul\":900:916   */\n  swap1\n  pop\n    /* \"#utility.yul\":845:922   */\n  swap2\n  swap1\n  pop\n  jump\t// out\n    /* \"#utility.yul\":928:1050   */\ntag_72:\n    /* \"#utility.yul\":1001:1025   */\n  tag_108\n    /* \"#utility.yul\":1019:1024   */\n  dup2\n    /* \"#utility.yul\":1001:1025   */\n  tag_71\n  jump\t// in\ntag_108:\n    /* \"#utility.yul\":994:999   */\n  dup2\n    /* \"#utility.yul\":991:1026   */\n  eq\n    /* \"#utility.yul\":981:1044   */\n  tag_109\n  jumpi\n    /* \"#utility.yul\":1040:1041   */\n  0x00\n    /* \"#utility.yul\":1037:1038   */\n  dup1\n    /* \"#utility.yul\":1030:1042   */\n  revert\n    /* \"#utility.yul\":981:1044   */\ntag_109:\n    /* \"#utility.yul\":928:1050   */\n  pop\n  jump\t// out\n    /* \"#utility.yul\":1056:1199   */\ntag_73:\n    /* \"#utility.yul\":1113:1118   */\n  0x00\n    /* \"#utility.yul\":1144:1150   */\n  dup2\n    /* \"#utility.yul\":1138:1151   */\n  mload\n    /* \"#utility.yul\":1129:1151   */\n  swap1\n  pop\n    /* \"#utility.yul\":1160:1193   */\n  tag_111\n    /* \"#utility.yul\":1187:1192   */\n  dup2\n    /* \"#utility.yul\":1160:1193   */\n  tag_72\n  jump\t// in\ntag_111:\n    /* \"#utility.yul\":1056:1199   */\n  swap3\n  swap2\n  pop\n  pop\n  jump\t// out\n    /* \"#utility.yul\":1205:1712   */\ntag_3:\n    /* \"#utility.yul\":1284:1290   */\n  0x00\n    /* \"#utility.yul\":1292:1298   */\n  dup1\n    /* \"#utility.yul\":1341:1343   */\n  0x40\n    /* \"#utility.yul\":1329:1338   */\n  dup4\n    /* \"#utility.yul\":1320:1327   */\n  dup6\n    /* \"#utility.yul\":1316:1339   */\n  sub\n    /* \"#utility.yul\":1312:1344   */\n  slt\n    /* \"#utility.yul\":1309:1428   */\n  iszero\n  tag_113\n  jumpi\n    /* \"#utility.yul\":1347:1426   */\n  tag_114\n  tag_65\n  jump\t// in\ntag_114:\n    /* \"#utility.yul\":1309:1428   */\ntag_113:\n    /* \"#utility.yul\":1467:1468   */\n  0x00\n    /* \"#utility.yul\":1492:1556   */\n  tag_115\n    /* \"#utility.yul\":1548:1555   */\n  dup6\n    /* \"#utility.yul\":1539:1545   */\n  dup3\n    /* \"#utility.yul\":1528:1537   */\n  dup7\n    /* \"#utility.yul\":1524:1546   */\n  add\n    /* \"#utility.yul\":1492:1556   */\n  tag_70\n  jump\t// in\ntag_115:\n    /* \"#utility.yul\":1482:1556   */\n  swap3\n  pop\n    /* \"#utility.yul\":1438:1566   */\n  pop\n    /* \"#utility.yul\":1605:1607   */\n  0x20\n    /* \"#utility.yul\":1631:1695   */\n  tag_116\n    /* \"#utility.yul\":1687:1694   */\n  dup6\n    /* \"#utility.yul\":1678:1684   */\n  dup3\n    /* \"#utility.yul\":1667:1676   */\n  dup7\n    /* \"#utility.yul\":1663:1685   */\n  add\n    /* \"#utility.yul\":1631:1695   */\n  tag_73\n  jump\t// in\ntag_116:\n    /* \"#utility.yul\":1621:1695   */\n  swap2\n  pop\n    /* \"#utility.yul\":1576:1705   */\n  pop\n    /* \"#utility.yul\":1205:1712   */\n  swap3\n  pop\n  swap3\n  swap1\n  pop\n  jump\t// out\n    /* \"#utility.yul\":1718:1898   */\ntag_74:\n    /* \"#utility.yul\":1766:1843   */\n  0x4e487b7100000000000000000000000000000000000000000000000000000000\n    /* \"#utility.yul\":1763:1764   */\n  0x00\n    /* \"#utility.yul\":1756:1844   */\n  mstore\n    /* \"#utility.yul\":1863:1867   */\n  0x11\n    /* \"#utility.yul\":1860:1861   */\n  0x04\n    /* \"#utility.yul\":1853:1868   */\n  mstore\n    /* \"#utility.yul\":1887:1891   */\n  0x24\n    /* \"#utility.yul\":1884:1885   */\n  0x00\n    /* \"#utility.yul\":1877:1892   */\n  revert\n    /* \"#utility.yul\":1904:2314   */\ntag_7:\n    /* \"#utility.yul\":1944:1951   */\n  0x00\n    /* \"#utility.yul\":1967:1987   */\n  tag_119\n    /* \"#utility.yul\":1985:1986   */\n  dup3\n    /* \"#utility.yul\":1967:1987   */\n  tag_71\n  jump\t// in\ntag_119:\n    /* \"#utility.yul\":1962:1987   */\n  swap2\n  pop\n    /* \"#utility.yul\":2001:2021   */\n  tag_120\n    /* \"#utility.yul\":2019:2020   */\n  dup4\n    /* \"#utility.yul\":2001:2021   */\n  tag_71\n  jump\t// in\ntag_120:\n    /* \"#utility.yul\":1996:2021   */\n  swap3\n  pop\n    /* \"#utility.yul\":2056:2057   */\n  dup3\n    /* \"#utility.yul\":2053:2054   */\n  dup3\n    /* \"#utility.yul\":2049:2058   */\n  mul\n    /* \"#utility.yul\":2078:2108   */\n  tag_121\n    /* \"#utility.yul\":2096:2107   */\n  dup2\n    /* \"#utility.yul\":2078:2108   */\n  tag_71\n  jump\t// in\ntag_121:\n    /* \"#utility.yul\":2067:2108   */\n  swap2\n  pop\n    /* \"#utility.yul\":2257:2258   */\n  dup3\n    /* \"#utility.yul\":2248:2255   */\n  dup3\n    /* \"#utility.yul\":2244:2259   */\n  div\n    /* \"#utility.yul\":2241:2242   */\n  dup5\n    /* \"#utility.yul\":2238:2260   */\n  eq\n    /* \"#utility.yul\":2218:2219   */\n  dup4\n    /* \"#utility.yul\":2211:2220   */\n  iszero\n    /* \"#utility.yul\":2191:2274   */\n  or\n    /* \"#utility.yul\":2168:2307   */\n  tag_122\n  jumpi\n    /* \"#utility.yul\":2287:2305   */\n  tag_123\n  tag_74\n  jump\t// in\ntag_123:\n    /* \"#utility.yul\":2168:2307   */\ntag_122:\n    /* \"#utility.yul\":1952:2314   */\n  pop\n    /* \"#utility.yul\":1904:2314   */\n  swap3\n  swap2\n  pop\n  pop\n  jump\t// out\n    /* \"#utility.yul\":2320:2438   */\ntag_75:\n    /* \"#utility.yul\":2407:2431   */\n  tag_125\n    /* \"#utility.yul\":2425:2430   */\n  dup2\n    /* \"#utility.yul\":2407:2431   */\n  tag_68\n  jump\t// in\ntag_125:\n    /* \"#utility.yul\":2402:2405   */\n  dup3\n    /* \"#utility.yul\":2395:2432   */\n  mstore\n    /* \"#utility.yul\":2320:2438   */\n  pop\n  pop\n  jump\t// out\n    /* \"#utility.yul\":2444:2776   */\ntag_13:\n    /* \"#utility.yul\":2565:2569   */\n  0x00\n    /* \"#utility.yul\":2603:2605   */\n  0x40\n    /* \"#utility.yul\":2592:2601   */\n  dup3\n    /* \"#utility.yul\":2588:2606   */\n  add\n    /* \"#utility.yul\":2580:2606   */\n  swap1\n  pop\n    /* \"#utility.yul\":2616:2687   */\n  tag_127\n    /* \"#utility.yul\":2684:2685   */\n  0x00\n    /* \"#utility.yul\":2673:2682   */\n  dup4\n    /* \"#utility.yul\":2669:2686   */\n  add\n    /* \"#utility.yul\":2660:2666   */\n  dup6\n    /* \"#utility.yul\":2616:2687   */\n  tag_75\n  jump\t// in\ntag_127:\n    /* \"#utility.yul\":2697:2769   */\n  tag_128\n    /* \"#utility.yul\":2765:2767   */\n  0x20\n    /* \"#utility.yul\":2754:2763   */\n  dup4\n    /* \"#utility.yul\":2750:2768   */\n  add\n    /* \"#utility.yul\":2741:2747   */\n  dup5\n    /* \"#utility.yul\":2697:2769   */\n  tag_75\n  jump\t// in\ntag_128:\n    /* \"#utility.yul\":2444:2776   */\n  swap4\n  swap3\n  pop\n  pop\n  pop\n  jump\t// out\n    /* \"#utility.yul\":2782:3133   */\ntag_17:\n    /* \"#utility.yul\":2852:2858   */\n  0x00\n    /* \"#utility.yul\":2901:2903   */\n  0x20\n    /* \"#utility.yul\":2889:2898   */\n  dup3\n    /* \"#utility.yul\":2880:2887   */\n  dup5\n    /* \"#utility.yul\":2876:2899   */\n  sub\n    /* \"#utility.yul\":2872:2904   */\n  slt\n    /* \"#utility.yul\":2869:2988   */\n  iszero\n  tag_130\n  jumpi\n    /* \"#utility.yul\":2907:2986   */\n  tag_131\n  tag_65\n  jump\t// in\ntag_131:\n    /* \"#utility.yul\":2869:2988   */\ntag_130:\n    /* \"#utility.yul\":3027:3028   */\n  0x00\n    /* \"#utility.yul\":3052:3116   */\n  tag_132\n    /* \"#utility.yul\":3108:3115   */\n  dup5\n    /* \"#utility.yul\":3099:3105   */\n  dup3\n    /* \"#utility.yul\":3088:3097   */\n  dup6\n    /* \"#utility.yul\":3084:3106   */\n  add\n    /* \"#utility.yul\":3052:3116   */\n  tag_73\n  jump\t// in\ntag_132:\n    /* \"#utility.yul\":3042:3116   */\n  swap2\n  pop\n    /* \"#utility.yul\":2998:3126   */\n  pop\n    /* \"#utility.yul\":2782:3133   */\n  swap3\n  swap2\n  pop\n  pop\n  jump\t// out\n    /* \"#utility.yul\":3139:3330   */\ntag_19:\n    /* \"#utility.yul\":3179:3182   */\n  0x00\n    /* \"#utility.yul\":3198:3218   */\n  tag_134\n    /* \"#utility.yul\":3216:3217   */\n  dup3\n    /* \"#utility.yul\":3198:3218   */\n  tag_71\n  jump\t// in\ntag_134:\n    /* \"#utility.yul\":3193:3218   */\n  swap2\n  pop\n    /* \"#utility.yul\":3232:3252   */\n  tag_135\n    /* \"#utility.yul\":3250:3251   */\n  dup4\n    /* \"#utility.yul\":3232:3252   */\n  tag_71\n  jump\t// in\ntag_135:\n    /* \"#utility.yul\":3227:3252   */\n  swap3\n  pop\n    /* \"#utility.yul\":3275:3276   */\n  dup3\n    /* \"#utility.yul\":3272:3273   */\n  dup3\n    /* \"#utility.yul\":3268:3277   */\n  add\n    /* \"#utility.yul\":3261:3277   */\n  swap1\n  pop\n    /* \"#utility.yul\":3296:3299   */\n  dup1\n    /* \"#utility.yul\":3293:3294   */\n  dup3\n    /* \"#utility.yul\":3290:3300   */\n  gt\n    /* \"#utility.yul\":3287:3323   */\n  iszero\n  tag_136\n  jumpi\n    /* \"#utility.yul\":3303:3321   */\n  tag_137\n  tag_74\n  jump\t// in\ntag_137:\n    /* \"#utility.yul\":3287:3323   */\ntag_136:\n    /* \"#utility.yul\":3139:3330   */\n  swap3\n  swap2\n  pop\n  pop\n  jump\t// out\n    /* \"#utility.yul\":3336:3454   */\ntag_76:\n    /* \"#utility.yul\":3423:3447   */\n  tag_139\n    /* \"#utility.yul\":3441:3446   */\n  dup2\n    /* \"#utility.yul\":3423:3447   */\n  tag_71\n  jump\t// in\ntag_139:\n    /* \"#utility.yul\":3418:3421   */\n  dup3\n    /* \"#utility.yul\":3411:3448   */\n  mstore\n    /* \"#utility.yul\":3336:3454   */\n  pop\n  pop\n  jump\t// out\n    /* \"#utility.yul\":3460:3792   */\ntag_22:\n    /* \"#utility.yul\":3581:3585   */\n  0x00\n    /* \"#utility.yul\":3619:3621   */\n  0x40\n    /* \"#utility.yul\":3608:3617   */\n  dup3\n    /* \"#utility.yul\":3604:3622   */\n  add\n    /* \"#utility.yul\":3596:3622   */\n  swap1\n  pop\n    /* \"#utility.yul\":3632:3703   */\n  tag_141\n    /* \"#utility.yul\":3700:3701   */\n  0x00\n    /* \"#utility.yul\":3689:3698   */\n  dup4\n    /* \"#utility.yul\":3685:3702   */\n  add\n    /* \"#utility.yul\":3676:3682   */\n  dup6\n    /* \"#utility.yul\":3632:3703   */\n  tag_75\n  jump\t// in\ntag_141:\n    /* \"#utility.yul\":3713:3785   */\n  tag_142\n    /* \"#utility.yul\":3781:3783   */\n  0x20\n    /* \"#utility.yul\":3770:3779   */\n  dup4\n    /* \"#utility.yul\":3766:3784   */\n  add\n    /* \"#utility.yul\":3757:3763   */\n  dup5\n    /* \"#utility.yul\":3713:3785   */\n  tag_76\n  jump\t// in\ntag_142:\n    /* \"#utility.yul\":3460:3792   */\n  swap4\n  swap3\n  pop\n  pop\n  pop\n  jump\t// out\n    /* \"#utility.yul\":3798:3888   */\ntag_77:\n    /* \"#utility.yul\":3832:3839   */\n  0x00\n    /* \"#utility.yul\":3875:3880   */\n  dup2\n    /* \"#utility.yul\":3868:3881   */\n  iszero\n    /* \"#utility.yul\":3861:3882   */\n  iszero\n    /* \"#utility.yul\":3850:3882   */\n  swap1\n  pop\n    /* \"#utility.yul\":3798:3888   */\n  swap2\n  swap1\n  pop\n  jump\t// out\n    /* \"#utility.yul\":3894:4010   */\ntag_78:\n    /* \"#utility.yul\":3964:3985   */\n  tag_145\n    /* \"#utility.yul\":3979:3984   */\n  dup2\n    /* \"#utility.yul\":3964:3985   */\n  tag_77\n  jump\t// in\ntag_145:\n    /* \"#utility.yul\":3957:3962   */\n  dup2\n    /* \"#utility.yul\":3954:3986   */\n  eq\n    /* \"#utility.yul\":3944:4004   */\n  tag_146\n  jumpi\n    /* \"#utility.yul\":4000:4001   */\n  0x00\n    /* \"#utility.yul\":3997:3998   */\n  dup1\n    /* \"#utility.yul\":3990:4002   */\n  revert\n    /* \"#utility.yul\":3944:4004   */\ntag_146:\n    /* \"#utility.yul\":3894:4010   */\n  pop\n  jump\t// out\n    /* \"#utility.yul\":4016:4153   */\ntag_79:\n    /* \"#utility.yul\":4070:4075   */\n  0x00\n    /* \"#utility.yul\":4101:4107   */\n  dup2\n    /* \"#utility.yul\":4095:4108   */\n  mload\n    /* \"#utility.yul\":4086:4108   */\n  swap1\n  pop\n    /* \"#utility.yul\":4117:4147   */\n  tag_148\n    /* \"#utility.yul\":4141:4146   */\n  dup2\n    /* \"#utility.yul\":4117:4147   */\n  tag_78\n  jump\t// in\ntag_148:\n    /* \"#utility.yul\":4016:4153   */\n  swap3\n  swap2\n  pop\n  pop\n  jump\t// out\n    /* \"#utility.yul\":4159:4504   */\ntag_29:\n    /* \"#utility.yul\":4226:4232   */\n  0x00\n    /* \"#utility.yul\":4275:4277   */\n  0x20\n    /* \"#utility.yul\":4263:4272   */\n  dup3\n    /* \"#utility.yul\":4254:4261   */\n  dup5\n    /* \"#utility.yul\":4250:4273   */\n  sub\n    /* \"#utility.yul\":4246:4278   */\n  slt\n    /* \"#utility.yul\":4243:4362   */\n  iszero\n  tag_150\n  jumpi\n    /* \"#utility.yul\":4281:4360   */\n  tag_151\n  tag_65\n  jump\t// in\ntag_151:\n    /* \"#utility.yul\":4243:4362   */\ntag_150:\n    /* \"#utility.yul\":4401:4402   */\n  0x00\n    /* \"#utility.yul\":4426:4487   */\n  tag_152\n    /* \"#utility.yul\":4479:4486   */\n  dup5\n    /* \"#utility.yul\":4470:4476   */\n  dup3\n    /* \"#utility.yul\":4459:4468   */\n  dup6\n    /* \"#utility.yul\":4455:4477   */\n  add\n    /* \"#utility.yul\":4426:4487   */\n  tag_79\n  jump\t// in\ntag_152:\n    /* \"#utility.yul\":4416:4487   */\n  swap2\n  pop\n    /* \"#utility.yul\":4372:4497   */\n  pop\n    /* \"#utility.yul\":4159:4504   */\n  swap3\n  swap2\n  pop\n  pop\n  jump\t// out\n    /* \"#utility.yul\":4510:4679   */\ntag_80:\n    /* \"#utility.yul\":4594:4605   */\n  0x00\n    /* \"#utility.yul\":4628:4634   */\n  dup3\n    /* \"#utility.yul\":4623:4626   */\n  dup3\n    /* \"#utility.yul\":4616:4635   */\n  mstore\n    /* \"#utility.yul\":4668:4672   */\n  0x20\n    /* \"#utility.yul\":4663:4666   */\n  dup3\n    /* \"#utility.yul\":4659:4673   */\n  add\n    /* \"#utility.yul\":4644:4673   */\n  swap1\n  pop\n    /* \"#utility.yul\":4510:4679   */\n  swap3\n  swap2\n  pop\n  pop\n  jump\t// out\n    /* \"#utility.yul\":4685:4914   */\ntag_81:\n    /* \"#utility.yul\":4825:4859   */\n  0x5361666545524332303a204552433230206f7065726174696f6e20646964206e\n    /* \"#utility.yul\":4821:4822   */\n  0x00\n    /* \"#utility.yul\":4813:4819   */\n  dup3\n    /* \"#utility.yul\":4809:4823   */\n  add\n    /* \"#utility.yul\":4802:4860   */\n  mstore\n    /* \"#utility.yul\":4894:4906   */\n  0x6f74207375636365656400000000000000000000000000000000000000000000\n    /* \"#utility.yul\":4889:4891   */\n  0x20\n    /* \"#utility.yul\":4881:4887   */\n  dup3\n    /* \"#utility.yul\":4877:4892   */\n  add\n    /* \"#utility.yul\":4870:4907   */\n  mstore\n    /* \"#utility.yul\":4685:4914   */\n  pop\n  jump\t// out\n    /* \"#utility.yul\":4920:5286   */\ntag_82:\n    /* \"#utility.yul\":5062:5065   */\n  0x00\n    /* \"#utility.yul\":5083:5150   */\n  tag_156\n    /* \"#utility.yul\":5147:5149   */\n  0x2a\n    /* \"#utility.yul\":5142:5145   */\n  dup4\n    /* \"#utility.yul\":5083:5150   */\n  tag_80\n  jump\t// in\ntag_156:\n    /* \"#utility.yul\":5076:5150   */\n  swap2\n  pop\n    /* \"#utility.yul\":5159:5252   */\n  tag_157\n    /* \"#utility.yul\":5248:5251   */\n  dup3\n    /* \"#utility.yul\":5159:5252   */\n  tag_81\n  jump\t// in\ntag_157:\n    /* \"#utility.yul\":5277:5279   */\n  0x40\n    /* \"#utility.yul\":5272:5275   */\n  dup3\n    /* \"#utility.yul\":5268:5280   */\n  add\n    /* \"#utility.yul\":5261:5280   */\n  swap1\n  pop\n    /* \"#utility.yul\":4920:5286   */\n  swap2\n  swap1\n  pop\n  jump\t// out\n    /* \"#utility.yul\":5292:5711   */\ntag_32:\n    /* \"#utility.yul\":5458:5462   */\n  0x00\n    /* \"#utility.yul\":5496:5498   */\n  0x20\n    /* \"#utility.yul\":5485:5494   */\n  dup3\n    /* \"#utility.yul\":5481:5499   */\n  add\n    /* \"#utility.yul\":5473:5499   */\n  swap1\n  pop\n    /* \"#utility.yul\":5545:5554   */\n  dup2\n    /* \"#utility.yul\":5539:5543   */\n  dup2\n    /* \"#utility.yul\":5535:5555   */\n  sub\n    /* \"#utility.yul\":5531:5532   */\n  0x00\n    /* \"#utility.yul\":5520:5529   */\n  dup4\n    /* \"#utility.yul\":5516:5533   */\n  add\n    /* \"#utility.yul\":5509:5556   */\n  mstore\n    /* \"#utility.yul\":5573:5704   */\n  tag_159\n    /* \"#utility.yul\":5699:5703   */\n  dup2\n    /* \"#utility.yul\":5573:5704   */\n  tag_82\n  jump\t// in\ntag_159:\n    /* \"#utility.yul\":5565:5704   */\n  swap1\n  pop\n    /* \"#utility.yul\":5292:5711   */\n  swap2\n  swap1\n  pop\n  jump\t// out\n    /* \"#utility.yul\":5717:5942   */\ntag_83:\n    /* \"#utility.yul\":5857:5891   */\n  0x416464726573733a20696e73756666696369656e742062616c616e636520666f\n    /* \"#utility.yul\":5853:5854   */\n  0x00\n    /* \"#utility.yul\":5845:5851   */\n  dup3\n    /* \"#utility.yul\":5841:5855   */\n  add\n    /* \"#utility.yul\":5834:5892   */\n  mstore\n    /* \"#utility.yul\":5926:5934   */\n  0x722063616c6c0000000000000000000000000000000000000000000000000000\n    /* \"#utility.yul\":5921:5923   */\n  0x20\n    /* \"#utility.yul\":5913:5919   */\n  dup3\n    /* \"#utility.yul\":5909:5924   */\n  add\n    /* \"#utility.yul\":5902:5935   */\n  mstore\n    /* \"#utility.yul\":5717:5942   */\n  pop\n  jump\t// out\n    /* \"#utility.yul\":5948:6314   */\ntag_84:\n    /* \"#utility.yul\":6090:6093   */\n  0x00\n    /* \"#utility.yul\":6111:6178   */\n  tag_162\n    /* \"#utility.yul\":6175:6177   */\n  0x26\n    /* \"#utility.yul\":6170:6173   */\n  dup4\n    /* \"#utility.yul\":6111:6178   */\n  tag_80\n  jump\t// in\ntag_162:\n    /* \"#utility.yul\":6104:6178   */\n  swap2\n  pop\n    /* \"#utility.yul\":6187:6280   */\n  tag_163\n    /* \"#utility.yul\":6276:6279   */\n  dup3\n    /* \"#utility.yul\":6187:6280   */\n  tag_83\n  jump\t// in\ntag_163:\n    /* \"#utility.yul\":6305:6307   */\n  0x40\n    /* \"#utility.yul\":6300:6303   */\n  dup3\n    /* \"#utility.yul\":6296:6308   */\n  add\n    /* \"#utility.yul\":6289:6308   */\n  swap1\n  pop\n    /* \"#utility.yul\":5948:6314   */\n  swap2\n  swap1\n  pop\n  jump\t// out\n    /* \"#utility.yul\":6320:6739   */\ntag_39:\n    /* \"#utility.yul\":6486:6490   */\n  0x00\n    /* \"#utility.yul\":6524:6526   */\n  0x20\n    /* \"#utility.yul\":6513:6522   */\n  dup3\n    /* \"#utility.yul\":6509:6527   */\n  add\n    /* \"#utility.yul\":6501:6527   */\n  swap1\n  pop\n    /* \"#utility.yul\":6573:6582   */\n  dup2\n    /* \"#utility.yul\":6567:6571   */\n  dup2\n    /* \"#utility.yul\":6563:6583   */\n  sub\n    /* \"#utility.yul\":6559:6560   */\n  0x00\n    /* \"#utility.yul\":6548:6557   */\n  dup4\n    /* \"#utility.yul\":6544:6561   */\n  add\n    /* \"#utility.yul\":6537:6584   */\n  mstore\n    /* \"#utility.yul\":6601:6732   */\n  tag_165\n    /* \"#utility.yul\":6727:6731   */\n  dup2\n    /* \"#utility.yul\":6601:6732   */\n  tag_84\n  jump\t// in\ntag_165:\n    /* \"#utility.yul\":6593:6732   */\n  swap1\n  pop\n    /* \"#utility.yul\":6320:6739   */\n  swap2\n  swap1\n  pop\n  jump\t// out\n    /* \"#utility.yul\":6745:6843   */\ntag_85:\n    /* \"#utility.yul\":6796:6802   */\n  0x00\n    /* \"#utility.yul\":6830:6835   */\n  dup2\n    /* \"#utility.yul\":6824:6836   */\n  mload\n    /* \"#utility.yul\":6814:6836   */\n  swap1\n  pop\n    /* \"#utility.yul\":6745:6843   */\n  swap2\n  swap1\n  pop\n  jump\t// out\n    /* \"#utility.yul\":6849:6996   */\ntag_86:\n    /* \"#utility.yul\":6950:6961   */\n  0x00\n    /* \"#utility.yul\":6987:6990   */\n  dup2\n    /* \"#utility.yul\":6972:6990   */\n  swap1\n  pop\n    /* \"#utility.yul\":6849:6996   */\n  swap3\n  swap2\n  pop\n  pop\n  jump\t// out\n    /* \"#utility.yul\":7002:7248   */\ntag_87:\n    /* \"#utility.yul\":7083:7084   */\n  0x00\n    /* \"#utility.yul\":7093:7206   */\ntag_169:\n    /* \"#utility.yul\":7107:7113   */\n  dup4\n    /* \"#utility.yul\":7104:7105   */\n  dup2\n    /* \"#utility.yul\":7101:7114   */\n  lt\n    /* \"#utility.yul\":7093:7206   */\n  iszero\n  tag_171\n  jumpi\n    /* \"#utility.yul\":7192:7193   */\n  dup1\n    /* \"#utility.yul\":7187:7190   */\n  dup3\n    /* \"#utility.yul\":7183:7194   */\n  add\n    /* \"#utility.yul\":7177:7195   */\n  mload\n    /* \"#utility.yul\":7173:7174   */\n  dup2\n    /* \"#utility.yul\":7168:7171   */\n  dup5\n    /* \"#utility.yul\":7164:7175   */\n  add\n    /* \"#utility.yul\":7157:7196   */\n  mstore\n    /* \"#utility.yul\":7129:7131   */\n  0x20\n    /* \"#utility.yul\":7126:7127   */\n  dup2\n    /* \"#utility.yul\":7122:7132   */\n  add\n    /* \"#utility.yul\":7117:7132   */\n  swap1\n  pop\n    /* \"#utility.yul\":7093:7206   */\n  jump(tag_169)\ntag_171:\n    /* \"#utility.yul\":7240:7241   */\n  0x00\n    /* \"#utility.yul\":7231:7237   */\n  dup5\n    /* \"#utility.yul\":7226:7229   */\n  dup5\n    /* \"#utility.yul\":7222:7238   */\n  add\n    /* \"#utility.yul\":7215:7242   */\n  mstore\n    /* \"#utility.yul\":7064:7248   */\n  pop\n    /* \"#utility.yul\":7002:7248   */\n  pop\n  pop\n  pop\n  jump\t// out\n    /* \"#utility.yul\":7254:7640   */\ntag_88:\n    /* \"#utility.yul\":7358:7361   */\n  0x00\n    /* \"#utility.yul\":7386:7424   */\n  tag_173\n    /* \"#utility.yul\":7418:7423   */\n  dup3\n    /* \"#utility.yul\":7386:7424   */\n  tag_85\n  jump\t// in\ntag_173:\n    /* \"#utility.yul\":7440:7528   */\n  tag_174\n    /* \"#utility.yul\":7521:7527   */\n  dup2\n    /* \"#utility.yul\":7516:7519   */\n  dup6\n    /* \"#utility.yul\":7440:7528   */\n  tag_86\n  jump\t// in\ntag_174:\n    /* \"#utility.yul\":7433:7528   */\n  swap4\n  pop\n    /* \"#utility.yul\":7537:7602   */\n  tag_175\n    /* \"#utility.yul\":7595:7601   */\n  dup2\n    /* \"#utility.yul\":7590:7593   */\n  dup6\n    /* \"#utility.yul\":7583:7587   */\n  0x20\n    /* \"#utility.yul\":7576:7581   */\n  dup7\n    /* \"#utility.yul\":7572:7588   */\n  add\n    /* \"#utility.yul\":7537:7602   */\n  tag_87\n  jump\t// in\ntag_175:\n    /* \"#utility.yul\":7627:7633   */\n  dup1\n    /* \"#utility.yul\":7622:7625   */\n  dup5\n    /* \"#utility.yul\":7618:7634   */\n  add\n    /* \"#utility.yul\":7611:7634   */\n  swap2\n  pop\n    /* \"#utility.yul\":7362:7640   */\n  pop\n    /* \"#utility.yul\":7254:7640   */\n  swap3\n  swap2\n  pop\n  pop\n  jump\t// out\n    /* \"#utility.yul\":7646:7917   */\ntag_41:\n    /* \"#utility.yul\":7776:7779   */\n  0x00\n    /* \"#utility.yul\":7798:7891   */\n  tag_177\n    /* \"#utility.yul\":7887:7890   */\n  dup3\n    /* \"#utility.yul\":7878:7884   */\n  dup5\n    /* \"#utility.yul\":7798:7891   */\n  tag_88\n  jump\t// in\ntag_177:\n    /* \"#utility.yul\":7791:7891   */\n  swap2\n  pop\n    /* \"#utility.yul\":7908:7911   */\n  dup2\n    /* \"#utility.yul\":7901:7911   */\n  swap1\n  pop\n    /* \"#utility.yul\":7646:7917   */\n  swap3\n  swap2\n  pop\n  pop\n  jump\t// out\n    /* \"#utility.yul\":7923:8102   */\ntag_89:\n    /* \"#utility.yul\":8063:8094   */\n  0x416464726573733a2063616c6c20746f206e6f6e2d636f6e7472616374000000\n    /* \"#utility.yul\":8059:8060   */\n  0x00\n    /* \"#utility.yul\":8051:8057   */\n  dup3\n    /* \"#utility.yul\":8047:8061   */\n  add\n    /* \"#utility.yul\":8040:8095   */\n  mstore\n    /* \"#utility.yul\":7923:8102   */\n  pop\n  jump\t// out\n    /* \"#utility.yul\":8108:8474   */\ntag_90:\n    /* \"#utility.yul\":8250:8253   */\n  0x00\n    /* \"#utility.yul\":8271:8338   */\n  tag_180\n    /* \"#utility.yul\":8335:8337   */\n  0x1d\n    /* \"#utility.yul\":8330:8333   */\n  dup4\n    /* \"#utility.yul\":8271:8338   */\n  tag_80\n  jump\t// in\ntag_180:\n    /* \"#utility.yul\":8264:8338   */\n  swap2\n  pop\n    /* \"#utility.yul\":8347:8440   */\n  tag_181\n    /* \"#utility.yul\":8436:8439   */\n  dup3\n    /* \"#utility.yul\":8347:8440   */\n  tag_89\n  jump\t// in\ntag_181:\n    /* \"#utility.yul\":8465:8467   */\n  0x20\n    /* \"#utility.yul\":8460:8463   */\n  dup3\n    /* \"#utility.yul\":8456:8468   */\n  add\n    /* \"#utility.yul\":8449:8468   */\n  swap1\n  pop\n    /* \"#utility.yul\":8108:8474   */\n  swap2\n  swap1\n  pop\n  jump\t// out\n    /* \"#utility.yul\":8480:8899   */\ntag_54:\n    /* \"#utility.yul\":8646:8650   */\n  0x00\n    /* \"#utility.yul\":8684:8686   */\n  0x20\n    /* \"#utility.yul\":8673:8682   */\n  dup3\n    /* \"#utility.yul\":8669:8687   */\n  add\n    /* \"#utility.yul\":8661:8687   */\n  swap1\n  pop\n    /* \"#utility.yul\":8733:8742   */\n  dup2\n    /* \"#utility.yul\":8727:8731   */\n  dup2\n    /* \"#utility.yul\":8723:8743   */\n  sub\n    /* \"#utility.yul\":8719:8720   */\n  0x00\n    /* \"#utility.yul\":8708:8717   */\n  dup4\n    /* \"#utility.yul\":8704:8721   */\n  add\n    /* \"#utility.yul\":8697:8744   */\n  mstore\n    /* \"#utility.yul\":8761:8892   */\n  tag_183\n    /* \"#utility.yul\":8887:8891   */\n  dup2\n    /* \"#utility.yul\":8761:8892   */\n  tag_90\n  jump\t// in\ntag_183:\n    /* \"#utility.yul\":8753:8892   */\n  swap1\n  pop\n    /* \"#utility.yul\":8480:8899   */\n  swap2\n  swap1\n  pop\n  jump\t// out\n    /* \"#utility.yul\":8905:9004   */\ntag_91:\n    /* \"#utility.yul\":8957:8963   */\n  0x00\n    /* \"#utility.yul\":8991:8996   */\n  dup2\n    /* \"#utility.yul\":8985:8997   */\n  mload\n    /* \"#utility.yul\":8975:8997   */\n  swap1\n  pop\n    /* \"#utility.yul\":8905:9004   */\n  swap2\n  swap1\n  pop\n  jump\t// out\n    /* \"#utility.yul\":9010:9112   */\ntag_92:\n    /* \"#utility.yul\":9051:9057   */\n  0x00\n    /* \"#utility.yul\":9102:9104   */\n  0x1f\n    /* \"#utility.yul\":9098:9105   */\n  not\n    /* \"#utility.yul\":9093:9095   */\n  0x1f\n    /* \"#utility.yul\":9086:9091   */\n  dup4\n    /* \"#utility.yul\":9082:9096   */\n  add\n    /* \"#utility.yul\":9078:9106   */\n  and\n    /* \"#utility.yul\":9068:9106   */\n  swap1\n  pop\n    /* \"#utility.yul\":9010:9112   */\n  swap2\n  swap1\n  pop\n  jump\t// out\n    /* \"#utility.yul\":9118:9495   */\ntag_93:\n    /* \"#utility.yul\":9206:9209   */\n  0x00\n    /* \"#utility.yul\":9234:9273   */\n  tag_187\n    /* \"#utility.yul\":9267:9272   */\n  dup3\n    /* \"#utility.yul\":9234:9273   */\n  tag_91\n  jump\t// in\ntag_187:\n    /* \"#utility.yul\":9289:9360   */\n  tag_188\n    /* \"#utility.yul\":9353:9359   */\n  dup2\n    /* \"#utility.yul\":9348:9351   */\n  dup6\n    /* \"#utility.yul\":9289:9360   */\n  tag_80\n  jump\t// in\ntag_188:\n    /* \"#utility.yul\":9282:9360   */\n  swap4\n  pop\n    /* \"#utility.yul\":9369:9434   */\n  tag_189\n    /* \"#utility.yul\":9427:9433   */\n  dup2\n    /* \"#utility.yul\":9422:9425   */\n  dup6\n    /* \"#utility.yul\":9415:9419   */\n  0x20\n    /* \"#utility.yul\":9408:9413   */\n  dup7\n    /* \"#utility.yul\":9404:9420   */\n  add\n    /* \"#utility.yul\":9369:9434   */\n  tag_87\n  jump\t// in\ntag_189:\n    /* \"#utility.yul\":9459:9488   */\n  tag_190\n    /* \"#utility.yul\":9481:9487   */\n  dup2\n    /* \"#utility.yul\":9459:9488   */\n  tag_92\n  jump\t// in\ntag_190:\n    /* \"#utility.yul\":9454:9457   */\n  dup5\n    /* \"#utility.yul\":9450:9489   */\n  add\n    /* \"#utility.yul\":9443:9489   */\n  swap2\n  pop\n    /* \"#utility.yul\":9210:9495   */\n  pop\n    /* \"#utility.yul\":9118:9495   */\n  swap3\n  swap2\n  pop\n  pop\n  jump\t// out\n    /* \"#utility.yul\":9501:9814   */\ntag_63:\n    /* \"#utility.yul\":9614:9618   */\n  0x00\n    /* \"#utility.yul\":9652:9654   */\n  0x20\n    /* \"#utility.yul\":9641:9650   */\n  dup3\n    /* \"#utility.yul\":9637:9655   */\n  add\n    /* \"#utility.yul\":9629:9655   */\n  swap1\n  pop\n    /* \"#utility.yul\":9701:9710   */\n  dup2\n    /* \"#utility.yul\":9695:9699   */\n  dup2\n    /* \"#utility.yul\":9691:9711   */\n  sub\n    /* \"#utility.yul\":9687:9688   */\n  0x00\n    /* \"#utility.yul\":9676:9685   */\n  dup4\n    /* \"#utility.yul\":9672:9689   */\n  add\n    /* \"#utility.yul\":9665:9712   */\n  mstore\n    /* \"#utility.yul\":9729:9807   */\n  tag_192\n    /* \"#utility.yul\":9802:9806   */\n  dup2\n    /* \"#utility.yul\":9793:9799   */\n  dup5\n    /* \"#utility.yul\":9729:9807   */\n  tag_93\n  jump\t// in\ntag_192:\n    /* \"#utility.yul\":9721:9807   */\n  swap1\n  pop\n    /* \"#utility.yul\":9501:9814   */\n  swap3\n  swap2\n  pop\n  pop\n  jump\t// out\n    /* \"contracts/stake.sol\":187:1210  contract Stake {... */\ntag_10:\n  dataSize(sub_0)\n  dup1\n  dataOffset(sub_0)\n  0x00\n  codecopy\n  0x00\n  return\nstop\n\nsub_0: assembly {\n        /* \"contracts/stake.sol\":187:1210  contract Stake {... */\n      mstore(0x40, 0x80)\n      jumpi(tag_1, lt(calldatasize, 0x04))\n      shr(0xe0, calldataload(0x00))\n      dup1\n      0x60c7dc47\n      eq\n      tag_3\n      jumpi\n      dup1\n      0x73cf575a\n      eq\n      tag_4\n      jumpi\n      dup1\n      0xa694fc3a\n      eq\n      tag_5\n      jumpi\n      jump(tag_2)\n    tag_1:\n      jumpi(tag_2, calldatasize)\n      stop\n    tag_2:\n      0x00\n      dup1\n      revert\n        /* \"contracts/stake.sol\":269:295  uint256 public stakeAmount */\n    tag_3:\n      callvalue\n      dup1\n      iszero\n      tag_8\n      jumpi\n      0x00\n      dup1\n      revert\n    tag_8:\n      pop\n      tag_9\n      tag_10\n      jump\t// in\n    tag_9:\n      mload(0x40)\n      tag_11\n      swap2\n      swap1\n      tag_12\n      jump\t// in\n    tag_11:\n      mload(0x40)\n      dup1\n      swap2\n      sub\n      swap1\n      return\n        /* \"contracts/stake.sol\":1053:1206  function unStake() external {... */\n    tag_4:\n      callvalue\n      dup1\n      iszero\n      tag_13\n      jumpi\n      0x00\n      dup1\n      revert\n    tag_13:\n      pop\n      tag_14\n      tag_15\n      jump\t// in\n    tag_14:\n      stop\n        /* \"contracts/stake.sol\":705:1026  function stake(uint256 _amount) external {... */\n    tag_5:\n      callvalue\n      dup1\n      iszero\n      tag_16\n      jumpi\n      0x00\n      dup1\n      revert\n    tag_16:\n      pop\n      tag_17\n      0x04\n      dup1\n      calldatasize\n      sub\n      dup2\n      add\n      swap1\n      tag_18\n      swap2\n      swap1\n      tag_19\n      jump\t// in\n    tag_18:\n      tag_20\n      jump\t// in\n    tag_17:\n      stop\n        /* \"contracts/stake.sol\":269:295  uint256 public stakeAmount */\n    tag_10:\n      sload(0x01)\n      dup2\n      jump\t// out\n        /* \"contracts/stake.sol\":1053:1206  function unStake() external {... */\n    tag_15:\n        /* \"contracts/stake.sol\":1091:1199  token.safeTransferFrom(... */\n      tag_24\n        /* \"contracts/stake.sol\":1135:1139  this */\n      address\n        /* \"contracts/stake.sol\":1154:1164  msg.sender */\n      caller\n        /* \"contracts/stake.sol\":1178:1189  stakeAmount */\n      sload(0x01)\n        /* \"contracts/stake.sol\":1091:1096  token */\n      0x00\n      dup1\n      sload\n      swap1\n      0x0100\n      exp\n      swap1\n      div\n      0xffffffffffffffffffffffffffffffffffffffff\n      and\n        /* \"contracts/stake.sol\":1091:1113  token.safeTransferFrom */\n      0xffffffffffffffffffffffffffffffffffffffff\n      and\n      tag_25\n      swap1\n        /* \"contracts/stake.sol\":1091:1199  token.safeTransferFrom(... */\n      swap4\n      swap3\n      swap2\n      swap1\n      0xffffffff\n      and\n      jump\t// in\n    tag_24:\n        /* \"contracts/stake.sol\":1053:1206  function unStake() external {... */\n      jump\t// out\n        /* \"contracts/stake.sol\":705:1026  function stake(uint256 _amount) external {... */\n    tag_20:\n        /* \"contracts/stake.sol\":774:775  0 */\n      0x00\n        /* \"contracts/stake.sol\":764:771  _amount */\n      dup2\n        /* \"contracts/stake.sol\":764:775  _amount > 0 */\n      gt\n        /* \"contracts/stake.sol\":756:795  require(_amount > 0, \"amount not zero\") */\n      tag_27\n      jumpi\n      mload(0x40)\n      0x08c379a000000000000000000000000000000000000000000000000000000000\n      dup2\n      mstore\n      0x04\n      add\n      tag_28\n      swap1\n      tag_29\n      jump\t// in\n    tag_28:\n      mload(0x40)\n      dup1\n      swap2\n      sub\n      swap1\n      revert\n    tag_27:\n        /* \"contracts/stake.sol\":844:851  _amount */\n      dup1\n        /* \"contracts/stake.sol\":813:818  token */\n      0x00\n      dup1\n      sload\n      swap1\n      0x0100\n      exp\n      swap1\n      div\n      0xffffffffffffffffffffffffffffffffffffffff\n      and\n        /* \"contracts/stake.sol\":813:828  token.balanceOf */\n      0xffffffffffffffffffffffffffffffffffffffff\n      and\n      0x70a08231\n        /* \"contracts/stake.sol\":829:839  msg.sender */\n      caller\n        /* \"contracts/stake.sol\":813:840  token.balanceOf(msg.sender) */\n      mload(0x40)\n      dup3\n      0xffffffff\n      and\n      0xe0\n      shl\n      dup2\n      mstore\n      0x04\n      add\n      tag_30\n      swap2\n      swap1\n      tag_31\n      jump\t// in\n    tag_30:\n      0x20\n      mload(0x40)\n      dup1\n      dup4\n      sub\n      dup2\n      dup7\n      gas\n      staticcall\n      iszero\n      dup1\n      iszero\n      tag_33\n      jumpi\n      returndatasize\n      0x00\n      dup1\n      returndatacopy\n      revert(0x00, returndatasize)\n    tag_33:\n      pop\n      pop\n      pop\n      pop\n      mload(0x40)\n      returndatasize\n      not(0x1f)\n      0x1f\n      dup3\n      add\n      and\n      dup3\n      add\n      dup1\n      0x40\n      mstore\n      pop\n      dup2\n      add\n      swap1\n      tag_34\n      swap2\n      swap1\n      tag_35\n      jump\t// in\n    tag_34:\n        /* \"contracts/stake.sol\":813:851  token.balanceOf(msg.sender) >= _amount */\n      lt\n      iszero\n        /* \"contracts/stake.sol\":805:868  require(token.balanceOf(msg.sender) >= _amount,\"staking faild\") */\n      tag_36\n      jumpi\n      mload(0x40)\n      0x08c379a000000000000000000000000000000000000000000000000000000000\n      dup2\n      mstore\n      0x04\n      add\n      tag_37\n      swap1\n      tag_38\n      jump\t// in\n    tag_37:\n      mload(0x40)\n      dup1\n      swap2\n      sub\n      swap1\n      revert\n    tag_36:\n        /* \"contracts/stake.sol\":883:940  StakeEvent(msg.sender, address(this), _amount * 10 ** 18) */\n      0x160ffcaa807f78c8b4983836e2396338d073e75695ac448aa0b5e4a75b210b1d\n        /* \"contracts/stake.sol\":894:904  msg.sender */\n      caller\n        /* \"contracts/stake.sol\":914:918  this */\n      address\n        /* \"contracts/stake.sol\":931:939  10 ** 18 */\n      0x0de0b6b3a7640000\n        /* \"contracts/stake.sol\":921:928  _amount */\n      dup5\n        /* \"contracts/stake.sol\":921:939  _amount * 10 ** 18 */\n      tag_39\n      swap2\n      swap1\n      tag_40\n      jump\t// in\n    tag_39:\n        /* \"contracts/stake.sol\":883:940  StakeEvent(msg.sender, address(this), _amount * 10 ** 18) */\n      mload(0x40)\n      tag_41\n      swap4\n      swap3\n      swap2\n      swap1\n      tag_42\n      jump\t// in\n    tag_41:\n      mload(0x40)\n      dup1\n      swap2\n      sub\n      swap1\n      log1\n        /* \"contracts/stake.sol\":950:1019  token.safeTransferFrom(msg.sender, address(this), _amount * 10 ** 18) */\n      tag_43\n        /* \"contracts/stake.sol\":973:983  msg.sender */\n      caller\n        /* \"contracts/stake.sol\":993:997  this */\n      address\n        /* \"contracts/stake.sol\":1010:1018  10 ** 18 */\n      0x0de0b6b3a7640000\n        /* \"contracts/stake.sol\":1000:1007  _amount */\n      dup5\n        /* \"contracts/stake.sol\":1000:1018  _amount * 10 ** 18 */\n      tag_44\n      swap2\n      swap1\n      tag_40\n      jump\t// in\n    tag_44:\n        /* \"contracts/stake.sol\":950:955  token */\n      0x00\n      dup1\n      sload\n      swap1\n      0x0100\n      exp\n      swap1\n      div\n      0xffffffffffffffffffffffffffffffffffffffff\n      and\n        /* \"contracts/stake.sol\":950:972  token.safeTransferFrom */\n      0xffffffffffffffffffffffffffffffffffffffff\n      and\n      tag_25\n      swap1\n        /* \"contracts/stake.sol\":950:1019  token.safeTransferFrom(msg.sender, address(this), _amount * 10 ** 18) */\n      swap4\n      swap3\n      swap2\n      swap1\n      0xffffffff\n      and\n      jump\t// in\n    tag_43:\n        /* \"contracts/stake.sol\":705:1026  function stake(uint256 _amount) external {... */\n      pop\n      jump\t// out\n        /* \"@openzeppelin/contracts/token/ERC20/utils/SafeERC20.sol\":2084:2394  function safeIncreaseAllowance(... */\n    tag_21:\n        /* \"@openzeppelin/contracts/token/ERC20/utils/SafeERC20.sol\":2210:2230  uint256 newAllowance */\n      0x00\n        /* \"@openzeppelin/contracts/token/ERC20/utils/SafeERC20.sol\":2275:2280  value */\n      dup2\n        /* \"@openzeppelin/contracts/token/ERC20/utils/SafeERC20.sol\":2233:2238  token */\n      dup5\n        /* \"@openzeppelin/contracts/token/ERC20/utils/SafeERC20.sol\":2233:2248  token.allowance */\n      0xffffffffffffffffffffffffffffffffffffffff\n      and\n      0xdd62ed3e\n        /* \"@openzeppelin/contracts/token/ERC20/utils/SafeERC20.sol\":2257:2261  this */\n      address\n        /* \"@openzeppelin/contracts/token/ERC20/utils/SafeERC20.sol\":2264:2271  spender */\n      dup7\n        /* \"@openzeppelin/contracts/token/ERC20/utils/SafeERC20.sol\":2233:2272  token.allowance(address(this), spender) */\n      mload(0x40)\n      dup4\n      0xffffffff\n      and\n      0xe0\n      shl\n      dup2\n      mstore\n      0x04\n      add\n      tag_46\n      swap3\n      swap2\n      swap1\n      tag_47\n      jump\t// in\n    tag_46:\n      0x20\n      mload(0x40)\n      dup1\n      dup4\n      sub\n      dup2\n      dup7\n      gas\n      staticcall\n      iszero\n      dup1\n      iszero\n      tag_49\n      jumpi\n      returndatasize\n      0x00\n      dup1\n      returndatacopy\n      revert(0x00, returndatasize)\n    tag_49:\n      pop\n      pop\n      pop\n      pop\n      mload(0x40)\n      returndatasize\n      not(0x1f)\n      0x1f\n      dup3\n      add\n      and\n      dup3\n      add\n      dup1\n      0x40\n      mstore\n      pop\n      dup2\n      add\n      swap1\n      tag_50\n      swap2\n      swap1\n      tag_35\n      jump\t// in\n    tag_50:\n        /* \"@openzeppelin/contracts/token/ERC20/utils/SafeERC20.sol\":2233:2280  token.allowance(address(this), spender) + value */\n      tag_51\n      swap2\n      swap1\n      tag_52\n      jump\t// in\n    tag_51:\n        /* \"@openzeppelin/contracts/token/ERC20/utils/SafeERC20.sol\":2210:2280  uint256 newAllowance = token.allowance(address(this), spender) + value */\n      swap1\n      pop\n        /* \"@openzeppelin/contracts/token/ERC20/utils/SafeERC20.sol\":2290:2387  _callOptionalReturn(token, abi.encodeWithSelector(token.approve.selector, spender, newAllowance)) */\n      tag_53\n        /* \"@openzeppelin/contracts/token/ERC20/utils/SafeERC20.sol\":2310:2315  token */\n      dup5\n        /* \"@openzeppelin/contracts/token/ERC20/utils/SafeERC20.sol\":2340:2362  token.approve.selector */\n      shl(0xe0, 0x095ea7b3)\n        /* \"@openzeppelin/contracts/token/ERC20/utils/SafeERC20.sol\":2364:2371  spender */\n      dup6\n        /* \"@openzeppelin/contracts/token/ERC20/utils/SafeERC20.sol\":2373:2385  newAllowance */\n      dup5\n        /* \"@openzeppelin/contracts/token/ERC20/utils/SafeERC20.sol\":2317:2386  abi.encodeWithSelector(token.approve.selector, spender, newAllowance) */\n      add(0x24, mload(0x40))\n      tag_54\n      swap3\n      swap2\n      swap1\n      tag_55\n      jump\t// in\n    tag_54:\n      mload(0x40)\n      0x20\n      dup2\n      dup4\n      sub\n      sub\n      dup2\n      mstore\n      swap1\n      0x40\n      mstore\n      swap1\n      not(0xffffffffffffffffffffffffffffffffffffffffffffffffffffffff)\n      and\n      0x20\n      dup3\n      add\n      dup1\n      mload\n      0xffffffffffffffffffffffffffffffffffffffffffffffffffffffff\n      dup4\n      dup2\n      dup4\n      and\n      or\n      dup4\n      mstore\n      pop\n      pop\n      pop\n      pop\n        /* \"@openzeppelin/contracts/token/ERC20/utils/SafeERC20.sol\":2290:2309  _callOptionalReturn */\n      tag_56\n        /* \"@openzeppelin/contracts/token/ERC20/utils/SafeERC20.sol\":2290:2387  _callOptionalReturn(token, abi.encodeWithSelector(token.approve.selector, spender, newAllowance)) */\n      jump\t// in\n    tag_53:\n        /* \"@openzeppelin/contracts/token/ERC20/utils/SafeERC20.sol\":2200:2394  {... */\n      pop\n        /* \"@openzeppelin/contracts/token/ERC20/utils/SafeERC20.sol\":2084:2394  function safeIncreaseAllowance(... */\n      pop\n      pop\n      pop\n      jump\t// out\n        /* \"@openzeppelin/contracts/utils/Address.sol\":3873:4096  function functionCall(... */\n    tag_22:\n        /* \"@openzeppelin/contracts/utils/Address.sol\":4006:4018  bytes memory */\n      0x60\n        /* \"@openzeppelin/contracts/utils/Address.sol\":4037:4089  functionCallWithValue(target, data, 0, errorMessage) */\n      tag_58\n        /* \"@openzeppelin/contracts/utils/Address.sol\":4059:4065  target */\n      dup5\n        /* \"@openzeppelin/contracts/utils/Address.sol\":4067:4071  data */\n      dup5\n        /* \"@openzeppelin/contracts/utils/Address.sol\":4073:4074  0 */\n      0x00\n        /* \"@openzeppelin/contracts/utils/Address.sol\":4076:4088  errorMessage */\n      dup6\n        /* \"@openzeppelin/contracts/utils/Address.sol\":4037:4058  functionCallWithValue */\n      tag_59\n        /* \"@openzeppelin/contracts/utils/Address.sol\":4037:4089  functionCallWithValue(target, data, 0, errorMessage) */\n      jump\t// in\n    tag_58:\n        /* \"@openzeppelin/contracts/utils/Address.sol\":4030:4089  return functionCallWithValue(target, data, 0, errorMessage) */\n      swap1\n      pop\n        /* \"@openzeppelin/contracts/utils/Address.sol\":3873:4096  function functionCall(... */\n      swap4\n      swap3\n      pop\n      pop\n      pop\n      jump\t// out\n        /* \"@openzeppelin/contracts/token/ERC20/utils/SafeERC20.sol\":974:1215  function safeTransferFrom(... */\n    tag_25:\n        /* \"@openzeppelin/contracts/token/ERC20/utils/SafeERC20.sol\":1112:1208  _callOptionalReturn(token, abi.encodeWithSelector(token.transferFrom.selector, from, to, value)) */\n      tag_61\n        /* \"@openzeppelin/contracts/token/ERC20/utils/SafeERC20.sol\":1132:1137  token */\n      dup5\n        /* \"@openzeppelin/contracts/token/ERC20/utils/SafeERC20.sol\":1162:1189  token.transferFrom.selector */\n      shl(0xe0, 0x23b872dd)\n        /* \"@openzeppelin/contracts/token/ERC20/utils/SafeERC20.sol\":1191:1195  from */\n      dup6\n        /* \"@openzeppelin/contracts/token/ERC20/utils/SafeERC20.sol\":1197:1199  to */\n      dup6\n        /* \"@openzeppelin/contracts/token/ERC20/utils/SafeERC20.sol\":1201:1206  value */\n      dup6\n        /* \"@openzeppelin/contracts/token/ERC20/utils/SafeERC20.sol\":1139:1207  abi.encodeWithSelector(token.transferFrom.selector, from, to, value) */\n      add(0x24, mload(0x40))\n      tag_62\n      swap4\n      swap3\n      swap2\n      swap1\n      tag_42\n      jump\t// in\n    tag_62:\n      mload(0x40)\n      0x20\n      dup2\n      dup4\n      sub\n      sub\n      dup2\n      mstore\n      swap1\n      0x40\n      mstore\n      swap1\n      not(0xffffffffffffffffffffffffffffffffffffffffffffffffffffffff)\n      and\n      0x20\n      dup3\n      add\n      dup1\n      mload\n      0xffffffffffffffffffffffffffffffffffffffffffffffffffffffff\n      dup4\n      dup2\n      dup4\n      and\n      or\n      dup4\n      mstore\n      pop\n      pop\n      pop\n      pop\n        /* \"@openzeppelin/contracts/token/ERC20/utils/SafeERC20.sol\":1112:1131  _callOptionalReturn */\n      tag_56\n        /* \"@openzeppelin/contracts/token/ERC20/utils/SafeERC20.sol\":1112:1208  _callOptionalReturn(token, abi.encodeWithSelector(token.transferFrom.selector, from, to, value)) */\n      jump\t// in\n    tag_61:\n        /* \"@openzeppelin/contracts/token/ERC20/utils/SafeERC20.sol\":974:1215  function safeTransferFrom(... */\n      pop\n      pop\n      pop\n      pop\n      jump\t// out\n        /* \"@openzeppelin/contracts/token/ERC20/utils/SafeERC20.sol\":3747:4453  function _callOptionalReturn(IERC20 token, bytes memory data) private {... */\n    tag_56:\n        /* \"@openzeppelin/contracts/token/ERC20/utils/SafeERC20.sol\":4166:4189  bytes memory returndata */\n      0x00\n        /* \"@openzeppelin/contracts/token/ERC20/utils/SafeERC20.sol\":4192:4261  address(token).functionCall(data, \"SafeERC20: low-level call failed\") */\n      tag_64\n        /* \"@openzeppelin/contracts/token/ERC20/utils/SafeERC20.sol\":4220:4224  data */\n      dup3\n        /* \"@openzeppelin/contracts/token/ERC20/utils/SafeERC20.sol\":4192:4261  address(token).functionCall(data, \"SafeERC20: low-level call failed\") */\n      mload(0x40)\n      dup1\n      0x40\n      add\n      0x40\n      mstore\n      dup1\n      0x20\n      dup2\n      mstore\n      0x20\n      add\n      0x5361666545524332303a206c6f772d6c6576656c2063616c6c206661696c6564\n      dup2\n      mstore\n      pop\n        /* \"@openzeppelin/contracts/token/ERC20/utils/SafeERC20.sol\":4200:4205  token */\n      dup6\n        /* \"@openzeppelin/contracts/token/ERC20/utils/SafeERC20.sol\":4192:4219  address(token).functionCall */\n      0xffffffffffffffffffffffffffffffffffffffff\n      and\n      tag_22\n      swap1\n        /* \"@openzeppelin/contracts/token/ERC20/utils/SafeERC20.sol\":4192:4261  address(token).functionCall(data, \"SafeERC20: low-level call failed\") */\n      swap3\n      swap2\n      swap1\n      0xffffffff\n      and\n      jump\t// in\n    tag_64:\n        /* \"@openzeppelin/contracts/token/ERC20/utils/SafeERC20.sol\":4166:4261  bytes memory returndata = address(token).functionCall(data, \"SafeERC20: low-level call failed\") */\n      swap1\n      pop\n        /* \"@openzeppelin/contracts/token/ERC20/utils/SafeERC20.sol\":4295:4296  0 */\n      0x00\n        /* \"@openzeppelin/contracts/token/ERC20/utils/SafeERC20.sol\":4275:4285  returndata */\n      dup2\n        /* \"@openzeppelin/contracts/token/ERC20/utils/SafeERC20.sol\":4275:4292  returndata.length */\n      mload\n        /* \"@openzeppelin/contracts/token/ERC20/utils/SafeERC20.sol\":4275:4296  returndata.length > 0 */\n      gt\n        /* \"@openzeppelin/contracts/token/ERC20/utils/SafeERC20.sol\":4271:4447  if (returndata.length > 0) {... */\n      iszero\n      tag_65\n      jumpi\n        /* \"@openzeppelin/contracts/token/ERC20/utils/SafeERC20.sol\":4370:4380  returndata */\n      dup1\n        /* \"@openzeppelin/contracts/token/ERC20/utils/SafeERC20.sol\":4359:4389  abi.decode(returndata, (bool)) */\n      dup1\n      0x20\n      add\n      swap1\n      mload\n      dup2\n      add\n      swap1\n      tag_66\n      swap2\n      swap1\n      tag_67\n      jump\t// in\n    tag_66:\n        /* \"@openzeppelin/contracts/token/ERC20/utils/SafeERC20.sol\":4351:4436  require(abi.decode(returndata, (bool)), \"SafeERC20: ERC20 operation did not succeed\") */\n      tag_68\n      jumpi\n      mload(0x40)\n      0x08c379a000000000000000000000000000000000000000000000000000000000\n      dup2\n      mstore\n      0x04\n      add\n      tag_69\n      swap1\n      tag_70\n      jump\t// in\n    tag_69:\n      mload(0x40)\n      dup1\n      swap2\n      sub\n      swap1\n      revert\n    tag_68:\n        /* \"@openzeppelin/contracts/token/ERC20/utils/SafeERC20.sol\":4271:4447  if (returndata.length > 0) {... */\n    tag_65:\n        /* \"@openzeppelin/contracts/token/ERC20/utils/SafeERC20.sol\":3817:4453  {... */\n      pop\n        /* \"@openzeppelin/contracts/token/ERC20/utils/SafeERC20.sol\":3747:4453  function _callOptionalReturn(IERC20 token, bytes memory data) private {... */\n      pop\n      pop\n      jump\t// out\n        /* \"@openzeppelin/contracts/utils/Address.sol\":4960:5406  function functionCallWithValue(... */\n    tag_59:\n        /* \"@openzeppelin/contracts/utils/Address.sol\":5125:5137  bytes memory */\n      0x60\n        /* \"@openzeppelin/contracts/utils/Address.sol\":5182:5187  value */\n      dup3\n        /* \"@openzeppelin/contracts/utils/Address.sol\":5157:5178  address(this).balance */\n      selfbalance\n        /* \"@openzeppelin/contracts/utils/Address.sol\":5157:5187  address(this).balance >= value */\n      lt\n      iszero\n        /* \"@openzeppelin/contracts/utils/Address.sol\":5149:5230  require(address(this).balance >= value, \"Address: insufficient balance for call\") */\n      tag_72\n      jumpi\n      mload(0x40)\n      0x08c379a000000000000000000000000000000000000000000000000000000000\n      dup2\n      mstore\n      0x04\n      add\n      tag_73\n      swap1\n      tag_74\n      jump\t// in\n    tag_73:\n      mload(0x40)\n      dup1\n      swap2\n      sub\n      swap1\n      revert\n    tag_72:\n        /* \"@openzeppelin/contracts/utils/Address.sol\":5241:5253  bool success */\n      0x00\n        /* \"@openzeppelin/contracts/utils/Address.sol\":5255:5278  bytes memory returndata */\n      dup1\n        /* \"@openzeppelin/contracts/utils/Address.sol\":5282:5288  target */\n      dup7\n        /* \"@openzeppelin/contracts/utils/Address.sol\":5282:5293  target.call */\n      0xffffffffffffffffffffffffffffffffffffffff\n      and\n        /* \"@openzeppelin/contracts/utils/Address.sol\":5301:5306  value */\n      dup6\n        /* \"@openzeppelin/contracts/utils/Address.sol\":5308:5312  data */\n      dup8\n        /* \"@openzeppelin/contracts/utils/Address.sol\":5282:5313  target.call{value: value}(data) */\n      mload(0x40)\n      tag_75\n      swap2\n      swap1\n      tag_76\n      jump\t// in\n    tag_75:\n      0x00\n      mload(0x40)\n      dup1\n      dup4\n      sub\n      dup2\n      dup6\n      dup8\n      gas\n      call\n      swap3\n      pop\n      pop\n      pop\n      returndatasize\n      dup1\n      0x00\n      dup2\n      eq\n      tag_79\n      jumpi\n      mload(0x40)\n      swap2\n      pop\n      and(add(returndatasize, 0x3f), not(0x1f))\n      dup3\n      add\n      0x40\n      mstore\n      returndatasize\n      dup3\n      mstore\n      returndatasize\n      0x00\n      0x20\n      dup5\n      add\n      returndatacopy\n      jump(tag_78)\n    tag_79:\n      0x60\n      swap2\n      pop\n    tag_78:\n      pop\n        /* \"@openzeppelin/contracts/utils/Address.sol\":5240:5313  (bool success, bytes memory returndata) = target.call{value: value}(data) */\n      swap2\n      pop\n      swap2\n      pop\n        /* \"@openzeppelin/contracts/utils/Address.sol\":5330:5399  verifyCallResultFromTarget(target, success, returndata, errorMessage) */\n      tag_80\n        /* \"@openzeppelin/contracts/utils/Address.sol\":5357:5363  target */\n      dup8\n        /* \"@openzeppelin/contracts/utils/Address.sol\":5365:5372  success */\n      dup4\n        /* \"@openzeppelin/contracts/utils/Address.sol\":5374:5384  returndata */\n      dup4\n        /* \"@openzeppelin/contracts/utils/Address.sol\":5386:5398  errorMessage */\n      dup8\n        /* \"@openzeppelin/contracts/utils/Address.sol\":5330:5356  verifyCallResultFromTarget */\n      tag_81\n        /* \"@openzeppelin/contracts/utils/Address.sol\":5330:5399  verifyCallResultFromTarget(target, success, returndata, errorMessage) */\n      jump\t// in\n    tag_80:\n        /* \"@openzeppelin/contracts/utils/Address.sol\":5323:5399  return verifyCallResultFromTarget(target, success, returndata, errorMessage) */\n      swap3\n      pop\n      pop\n      pop\n        /* \"@openzeppelin/contracts/utils/Address.sol\":4960:5406  function functionCallWithValue(... */\n      swap5\n      swap4\n      pop\n      pop\n      pop\n      pop\n      jump\t// out\n        /* \"@openzeppelin/contracts/utils/Address.sol\":7466:8094  function verifyCallResultFromTarget(... */\n    tag_81:\n        /* \"@openzeppelin/contracts/utils/Address.sol\":7646:7658  bytes memory */\n      0x60\n        /* \"@openzeppelin/contracts/utils/Address.sol\":7674:7681  success */\n      dup4\n        /* \"@openzeppelin/contracts/utils/Address.sol\":7670:8088  if (success) {... */\n      iszero\n      tag_83\n      jumpi\n        /* \"@openzeppelin/contracts/utils/Address.sol\":7722:7723  0 */\n      0x00\n        /* \"@openzeppelin/contracts/utils/Address.sol\":7701:7711  returndata */\n      dup4\n        /* \"@openzeppelin/contracts/utils/Address.sol\":7701:7718  returndata.length */\n      mload\n        /* \"@openzeppelin/contracts/utils/Address.sol\":7701:7723  returndata.length == 0 */\n      sub\n        /* \"@openzeppelin/contracts/utils/Address.sol\":7697:7983  if (returndata.length == 0) {... */\n      tag_84\n      jumpi\n        /* \"@openzeppelin/contracts/utils/Address.sol\":7916:7934  isContract(target) */\n      tag_85\n        /* \"@openzeppelin/contracts/utils/Address.sol\":7927:7933  target */\n      dup6\n        /* \"@openzeppelin/contracts/utils/Address.sol\":7916:7926  isContract */\n      tag_86\n        /* \"@openzeppelin/contracts/utils/Address.sol\":7916:7934  isContract(target) */\n      jump\t// in\n    tag_85:\n        /* \"@openzeppelin/contracts/utils/Address.sol\":7908:7968  require(isContract(target), \"Address: call to non-contract\") */\n      tag_87\n      jumpi\n      mload(0x40)\n      0x08c379a000000000000000000000000000000000000000000000000000000000\n      dup2\n      mstore\n      0x04\n      add\n      tag_88\n      swap1\n      tag_89\n      jump\t// in\n    tag_88:\n      mload(0x40)\n      dup1\n      swap2\n      sub\n      swap1\n      revert\n    tag_87:\n        /* \"@openzeppelin/contracts/utils/Address.sol\":7697:7983  if (returndata.length == 0) {... */\n    tag_84:\n        /* \"@openzeppelin/contracts/utils/Address.sol\":8003:8013  returndata */\n      dup3\n        /* \"@openzeppelin/contracts/utils/Address.sol\":7996:8013  return returndata */\n      swap1\n      pop\n      jump(tag_82)\n        /* \"@openzeppelin/contracts/utils/Address.sol\":7670:8088  if (success) {... */\n    tag_83:\n        /* \"@openzeppelin/contracts/utils/Address.sol\":8044:8077  _revert(returndata, errorMessage) */\n      tag_91\n        /* \"@openzeppelin/contracts/utils/Address.sol\":8052:8062  returndata */\n      dup4\n        /* \"@openzeppelin/contracts/utils/Address.sol\":8064:8076  errorMessage */\n      dup4\n        /* \"@openzeppelin/contracts/utils/Address.sol\":8044:8051  _revert */\n      tag_92\n        /* \"@openzeppelin/contracts/utils/Address.sol\":8044:8077  _revert(returndata, errorMessage) */\n      jump\t// in\n    tag_91:\n        /* \"@openzeppelin/contracts/utils/Address.sol\":7466:8094  function verifyCallResultFromTarget(... */\n    tag_82:\n      swap5\n      swap4\n      pop\n      pop\n      pop\n      pop\n      jump\t// out\n        /* \"@openzeppelin/contracts/utils/Address.sol\":1175:1495  function isContract(address account) internal view returns (bool) {... */\n    tag_86:\n        /* \"@openzeppelin/contracts/utils/Address.sol\":1235:1239  bool */\n      0x00\n        /* \"@openzeppelin/contracts/utils/Address.sol\":1487:1488  0 */\n      dup1\n        /* \"@openzeppelin/contracts/utils/Address.sol\":1465:1472  account */\n      dup3\n        /* \"@openzeppelin/contracts/utils/Address.sol\":1465:1484  account.code.length */\n      0xffffffffffffffffffffffffffffffffffffffff\n      and\n      extcodesize\n        /* \"@openzeppelin/contracts/utils/Address.sol\":1465:1488  account.code.length > 0 */\n      gt\n        /* \"@openzeppelin/contracts/utils/Address.sol\":1458:1488  return account.code.length > 0 */\n      swap1\n      pop\n        /* \"@openzeppelin/contracts/utils/Address.sol\":1175:1495  function isContract(address account) internal view returns (bool) {... */\n      swap2\n      swap1\n      pop\n      jump\t// out\n        /* \"@openzeppelin/contracts/utils/Address.sol\":8616:9156  function _revert(bytes memory returndata, string memory errorMessage) private pure {... */\n    tag_92:\n        /* \"@openzeppelin/contracts/utils/Address.sol\":8795:8796  0 */\n      0x00\n        /* \"@openzeppelin/contracts/utils/Address.sol\":8775:8785  returndata */\n      dup3\n        /* \"@openzeppelin/contracts/utils/Address.sol\":8775:8792  returndata.length */\n      mload\n        /* \"@openzeppelin/contracts/utils/Address.sol\":8775:8796  returndata.length > 0 */\n      gt\n        /* \"@openzeppelin/contracts/utils/Address.sol\":8771:9150  if (returndata.length > 0) {... */\n      iszero\n      tag_95\n      jumpi\n        /* \"@openzeppelin/contracts/utils/Address.sol\":9003:9013  returndata */\n      dup2\n        /* \"@openzeppelin/contracts/utils/Address.sol\":8997:9014  mload(returndata) */\n      mload\n        /* \"@openzeppelin/contracts/utils/Address.sol\":9059:9074  returndata_size */\n      dup1\n        /* \"@openzeppelin/contracts/utils/Address.sol\":9046:9056  returndata */\n      dup4\n        /* \"@openzeppelin/contracts/utils/Address.sol\":9042:9044  32 */\n      0x20\n        /* \"@openzeppelin/contracts/utils/Address.sol\":9038:9057  add(32, returndata) */\n      add\n        /* \"@openzeppelin/contracts/utils/Address.sol\":9031:9075  revert(add(32, returndata), returndata_size) */\n      revert\n        /* \"@openzeppelin/contracts/utils/Address.sol\":8771:9150  if (returndata.length > 0) {... */\n    tag_95:\n        /* \"@openzeppelin/contracts/utils/Address.sol\":9126:9138  errorMessage */\n      dup1\n        /* \"@openzeppelin/contracts/utils/Address.sol\":9119:9139  revert(errorMessage) */\n      mload(0x40)\n      0x08c379a000000000000000000000000000000000000000000000000000000000\n      dup2\n      mstore\n      0x04\n      add\n      tag_97\n      swap2\n      swap1\n      tag_98\n      jump\t// in\n    tag_97:\n      mload(0x40)\n      dup1\n      swap2\n      sub\n      swap1\n      revert\n        /* \"#utility.yul\":7:84   */\n    tag_99:\n        /* \"#utility.yul\":44:51   */\n      0x00\n        /* \"#utility.yul\":73:78   */\n      dup2\n        /* \"#utility.yul\":62:78   */\n      swap1\n      pop\n        /* \"#utility.yul\":7:84   */\n      swap2\n      swap1\n      pop\n      jump\t// out\n        /* \"#utility.yul\":90:208   */\n    tag_100:\n        /* \"#utility.yul\":177:201   */\n      tag_135\n        /* \"#utility.yul\":195:200   */\n      dup2\n        /* \"#utility.yul\":177:201   */\n      tag_99\n      jump\t// in\n    tag_135:\n        /* \"#utility.yul\":172:175   */\n      dup3\n        /* \"#utility.yul\":165:202   */\n      mstore\n        /* \"#utility.yul\":90:208   */\n      pop\n      pop\n      jump\t// out\n        /* \"#utility.yul\":214:436   */\n    tag_12:\n        /* \"#utility.yul\":307:311   */\n      0x00\n        /* \"#utility.yul\":345:347   */\n      0x20\n        /* \"#utility.yul\":334:343   */\n      dup3\n        /* \"#utility.yul\":330:348   */\n      add\n        /* \"#utility.yul\":322:348   */\n      swap1\n      pop\n        /* \"#utility.yul\":358:429   */\n      tag_137\n        /* \"#utility.yul\":426:427   */\n      0x00\n        /* \"#utility.yul\":415:424   */\n      dup4\n        /* \"#utility.yul\":411:428   */\n      add\n        /* \"#utility.yul\":402:408   */\n      dup5\n        /* \"#utility.yul\":358:429   */\n      tag_100\n      jump\t// in\n    tag_137:\n        /* \"#utility.yul\":214:436   */\n      swap3\n      swap2\n      pop\n      pop\n      jump\t// out\n        /* \"#utility.yul\":523:640   */\n    tag_102:\n        /* \"#utility.yul\":632:633   */\n      0x00\n        /* \"#utility.yul\":629:630   */\n      dup1\n        /* \"#utility.yul\":622:634   */\n      revert\n        /* \"#utility.yul\":769:891   */\n    tag_104:\n        /* \"#utility.yul\":842:866   */\n      tag_142\n        /* \"#utility.yul\":860:865   */\n      dup2\n        /* \"#utility.yul\":842:866   */\n      tag_99\n      jump\t// in\n    tag_142:\n        /* \"#utility.yul\":835:840   */\n      dup2\n        /* \"#utility.yul\":832:867   */\n      eq\n        /* \"#utility.yul\":822:885   */\n      tag_143\n      jumpi\n        /* \"#utility.yul\":881:882   */\n      0x00\n        /* \"#utility.yul\":878:879   */\n      dup1\n        /* \"#utility.yul\":871:883   */\n      revert\n        /* \"#utility.yul\":822:885   */\n    tag_143:\n        /* \"#utility.yul\":769:891   */\n      pop\n      jump\t// out\n        /* \"#utility.yul\":897:1036   */\n    tag_105:\n        /* \"#utility.yul\":943:948   */\n      0x00\n        /* \"#utility.yul\":981:987   */\n      dup2\n        /* \"#utility.yul\":968:988   */\n      calldataload\n        /* \"#utility.yul\":959:988   */\n      swap1\n      pop\n        /* \"#utility.yul\":997:1030   */\n      tag_145\n        /* \"#utility.yul\":1024:1029   */\n      dup2\n        /* \"#utility.yul\":997:1030   */\n      tag_104\n      jump\t// in\n    tag_145:\n        /* \"#utility.yul\":897:1036   */\n      swap3\n      swap2\n      pop\n      pop\n      jump\t// out\n        /* \"#utility.yul\":1042:1371   */\n    tag_19:\n        /* \"#utility.yul\":1101:1107   */\n      0x00\n        /* \"#utility.yul\":1150:1152   */\n      0x20\n        /* \"#utility.yul\":1138:1147   */\n      dup3\n        /* \"#utility.yul\":1129:1136   */\n      dup5\n        /* \"#utility.yul\":1125:1148   */\n      sub\n        /* \"#utility.yul\":1121:1153   */\n      slt\n        /* \"#utility.yul\":1118:1237   */\n      iszero\n      tag_147\n      jumpi\n        /* \"#utility.yul\":1156:1235   */\n      tag_148\n      tag_102\n      jump\t// in\n    tag_148:\n        /* \"#utility.yul\":1118:1237   */\n    tag_147:\n        /* \"#utility.yul\":1276:1277   */\n      0x00\n        /* \"#utility.yul\":1301:1354   */\n      tag_149\n        /* \"#utility.yul\":1346:1353   */\n      dup5\n        /* \"#utility.yul\":1337:1343   */\n      dup3\n        /* \"#utility.yul\":1326:1335   */\n      dup6\n        /* \"#utility.yul\":1322:1344   */\n      add\n        /* \"#utility.yul\":1301:1354   */\n      tag_105\n      jump\t// in\n    tag_149:\n        /* \"#utility.yul\":1291:1354   */\n      swap2\n      pop\n        /* \"#utility.yul\":1247:1364   */\n      pop\n        /* \"#utility.yul\":1042:1371   */\n      swap3\n      swap2\n      pop\n      pop\n      jump\t// out\n        /* \"#utility.yul\":1377:1546   */\n    tag_106:\n        /* \"#utility.yul\":1461:1472   */\n      0x00\n        /* \"#utility.yul\":1495:1501   */\n      dup3\n        /* \"#utility.yul\":1490:1493   */\n      dup3\n        /* \"#utility.yul\":1483:1502   */\n      mstore\n        /* \"#utility.yul\":1535:1539   */\n      0x20\n        /* \"#utility.yul\":1530:1533   */\n      dup3\n        /* \"#utility.yul\":1526:1540   */\n      add\n        /* \"#utility.yul\":1511:1540   */\n      swap1\n      pop\n        /* \"#utility.yul\":1377:1546   */\n      swap3\n      swap2\n      pop\n      pop\n      jump\t// out\n        /* \"#utility.yul\":1552:1717   */\n    tag_107:\n        /* \"#utility.yul\":1692:1709   */\n      0x616d6f756e74206e6f74207a65726f0000000000000000000000000000000000\n        /* \"#utility.yul\":1688:1689   */\n      0x00\n        /* \"#utility.yul\":1680:1686   */\n      dup3\n        /* \"#utility.yul\":1676:1690   */\n      add\n        /* \"#utility.yul\":1669:1710   */\n      mstore\n        /* \"#utility.yul\":1552:1717   */\n      pop\n      jump\t// out\n        /* \"#utility.yul\":1723:2089   */\n    tag_108:\n        /* \"#utility.yul\":1865:1868   */\n      0x00\n        /* \"#utility.yul\":1886:1953   */\n      tag_153\n        /* \"#utility.yul\":1950:1952   */\n      0x0f\n        /* \"#utility.yul\":1945:1948   */\n      dup4\n        /* \"#utility.yul\":1886:1953   */\n      tag_106\n      jump\t// in\n    tag_153:\n        /* \"#utility.yul\":1879:1953   */\n      swap2\n      pop\n        /* \"#utility.yul\":1962:2055   */\n      tag_154\n        /* \"#utility.yul\":2051:2054   */\n      dup3\n        /* \"#utility.yul\":1962:2055   */\n      tag_107\n      jump\t// in\n    tag_154:\n        /* \"#utility.yul\":2080:2082   */\n      0x20\n        /* \"#utility.yul\":2075:2078   */\n      dup3\n        /* \"#utility.yul\":2071:2083   */\n      add\n        /* \"#utility.yul\":2064:2083   */\n      swap1\n      pop\n        /* \"#utility.yul\":1723:2089   */\n      swap2\n      swap1\n      pop\n      jump\t// out\n        /* \"#utility.yul\":2095:2514   */\n    tag_29:\n        /* \"#utility.yul\":2261:2265   */\n      0x00\n        /* \"#utility.yul\":2299:2301   */\n      0x20\n        /* \"#utility.yul\":2288:2297   */\n      dup3\n        /* \"#utility.yul\":2284:2302   */\n      add\n        /* \"#utility.yul\":2276:2302   */\n      swap1\n      pop\n        /* \"#utility.yul\":2348:2357   */\n      dup2\n        /* \"#utility.yul\":2342:2346   */\n      dup2\n        /* \"#utility.yul\":2338:2358   */\n      sub\n        /* \"#utility.yul\":2334:2335   */\n      0x00\n        /* \"#utility.yul\":2323:2332   */\n      dup4\n        /* \"#utility.yul\":2319:2336   */\n      add\n        /* \"#utility.yul\":2312:2359   */\n      mstore\n        /* \"#utility.yul\":2376:2507   */\n      tag_156\n        /* \"#utility.yul\":2502:2506   */\n      dup2\n        /* \"#utility.yul\":2376:2507   */\n      tag_108\n      jump\t// in\n    tag_156:\n        /* \"#utility.yul\":2368:2507   */\n      swap1\n      pop\n        /* \"#utility.yul\":2095:2514   */\n      swap2\n      swap1\n      pop\n      jump\t// out\n        /* \"#utility.yul\":2520:2646   */\n    tag_109:\n        /* \"#utility.yul\":2557:2564   */\n      0x00\n        /* \"#utility.yul\":2597:2639   */\n      0xffffffffffffffffffffffffffffffffffffffff\n        /* \"#utility.yul\":2590:2595   */\n      dup3\n        /* \"#utility.yul\":2586:2640   */\n      and\n        /* \"#utility.yul\":2575:2640   */\n      swap1\n      pop\n        /* \"#utility.yul\":2520:2646   */\n      swap2\n      swap1\n      pop\n      jump\t// out\n        /* \"#utility.yul\":2652:2748   */\n    tag_110:\n        /* \"#utility.yul\":2689:2696   */\n      0x00\n        /* \"#utility.yul\":2718:2742   */\n      tag_159\n        /* \"#utility.yul\":2736:2741   */\n      dup3\n        /* \"#utility.yul\":2718:2742   */\n      tag_109\n      jump\t// in\n    tag_159:\n        /* \"#utility.yul\":2707:2742   */\n      swap1\n      pop\n        /* \"#utility.yul\":2652:2748   */\n      swap2\n      swap1\n      pop\n      jump\t// out\n        /* \"#utility.yul\":2754:2872   */\n    tag_111:\n        /* \"#utility.yul\":2841:2865   */\n      tag_161\n        /* \"#utility.yul\":2859:2864   */\n      dup2\n        /* \"#utility.yul\":2841:2865   */\n      tag_110\n      jump\t// in\n    tag_161:\n        /* \"#utility.yul\":2836:2839   */\n      dup3\n        /* \"#utility.yul\":2829:2866   */\n      mstore\n        /* \"#utility.yul\":2754:2872   */\n      pop\n      pop\n      jump\t// out\n        /* \"#utility.yul\":2878:3100   */\n    tag_31:\n        /* \"#utility.yul\":2971:2975   */\n      0x00\n        /* \"#utility.yul\":3009:3011   */\n      0x20\n        /* \"#utility.yul\":2998:3007   */\n      dup3\n        /* \"#utility.yul\":2994:3012   */\n      add\n        /* \"#utility.yul\":2986:3012   */\n      swap1\n      pop\n        /* \"#utility.yul\":3022:3093   */\n      tag_163\n        /* \"#utility.yul\":3090:3091   */\n      0x00\n        /* \"#utility.yul\":3079:3088   */\n      dup4\n        /* \"#utility.yul\":3075:3092   */\n      add\n        /* \"#utility.yul\":3066:3072   */\n      dup5\n        /* \"#utility.yul\":3022:3093   */\n      tag_111\n      jump\t// in\n    tag_163:\n        /* \"#utility.yul\":2878:3100   */\n      swap3\n      swap2\n      pop\n      pop\n      jump\t// out\n        /* \"#utility.yul\":3106:3249   */\n    tag_112:\n        /* \"#utility.yul\":3163:3168   */\n      0x00\n        /* \"#utility.yul\":3194:3200   */\n      dup2\n        /* \"#utility.yul\":3188:3201   */\n      mload\n        /* \"#utility.yul\":3179:3201   */\n      swap1\n      pop\n        /* \"#utility.yul\":3210:3243   */\n      tag_165\n        /* \"#utility.yul\":3237:3242   */\n      dup2\n        /* \"#utility.yul\":3210:3243   */\n      tag_104\n      jump\t// in\n    tag_165:\n        /* \"#utility.yul\":3106:3249   */\n      swap3\n      swap2\n      pop\n      pop\n      jump\t// out\n        /* \"#utility.yul\":3255:3606   */\n    tag_35:\n        /* \"#utility.yul\":3325:3331   */\n      0x00\n        /* \"#utility.yul\":3374:3376   */\n      0x20\n        /* \"#utility.yul\":3362:3371   */\n      dup3\n        /* \"#utility.yul\":3353:3360   */\n      dup5\n        /* \"#utility.yul\":3349:3372   */\n      sub\n        /* \"#utility.yul\":3345:3377   */\n      slt\n        /* \"#utility.yul\":3342:3461   */\n      iszero\n      tag_167\n      jumpi\n        /* \"#utility.yul\":3380:3459   */\n      tag_168\n      tag_102\n      jump\t// in\n    tag_168:\n        /* \"#utility.yul\":3342:3461   */\n    tag_167:\n        /* \"#utility.yul\":3500:3501   */\n      0x00\n        /* \"#utility.yul\":3525:3589   */\n      tag_169\n        /* \"#utility.yul\":3581:3588   */\n      dup5\n        /* \"#utility.yul\":3572:3578   */\n      dup3\n        /* \"#utility.yul\":3561:3570   */\n      dup6\n        /* \"#utility.yul\":3557:3579   */\n      add\n        /* \"#utility.yul\":3525:3589   */\n      tag_112\n      jump\t// in\n    tag_169:\n        /* \"#utility.yul\":3515:3589   */\n      swap2\n      pop\n        /* \"#utility.yul\":3471:3599   */\n      pop\n        /* \"#utility.yul\":3255:3606   */\n      swap3\n      swap2\n      pop\n      pop\n      jump\t// out\n        /* \"#utility.yul\":3612:3775   */\n    tag_113:\n        /* \"#utility.yul\":3752:3767   */\n      0x7374616b696e67206661696c6400000000000000000000000000000000000000\n        /* \"#utility.yul\":3748:3749   */\n      0x00\n        /* \"#utility.yul\":3740:3746   */\n      dup3\n        /* \"#utility.yul\":3736:3750   */\n      add\n        /* \"#utility.yul\":3729:3768   */\n      mstore\n        /* \"#utility.yul\":3612:3775   */\n      pop\n      jump\t// out\n        /* \"#utility.yul\":3781:4147   */\n    tag_114:\n        /* \"#utility.yul\":3923:3926   */\n      0x00\n        /* \"#utility.yul\":3944:4011   */\n      tag_172\n        /* \"#utility.yul\":4008:4010   */\n      0x0d\n        /* \"#utility.yul\":4003:4006   */\n      dup4\n        /* \"#utility.yul\":3944:4011   */\n      tag_106\n      jump\t// in\n    tag_172:\n        /* \"#utility.yul\":3937:4011   */\n      swap2\n      pop\n        /* \"#utility.yul\":4020:4113   */\n      tag_173\n        /* \"#utility.yul\":4109:4112   */\n      dup3\n        /* \"#utility.yul\":4020:4113   */\n      tag_113\n      jump\t// in\n    tag_173:\n        /* \"#utility.yul\":4138:4140   */\n      0x20\n        /* \"#utility.yul\":4133:4136   */\n      dup3\n        /* \"#utility.yul\":4129:4141   */\n      add\n        /* \"#utility.yul\":4122:4141   */\n      swap1\n      pop\n        /* \"#utility.yul\":3781:4147   */\n      swap2\n      swap1\n      pop\n      jump\t// out\n        /* \"#utility.yul\":4153:4572   */\n    tag_38:\n        /* \"#utility.yul\":4319:4323   */\n      0x00\n        /* \"#utility.yul\":4357:4359   */\n      0x20\n        /* \"#utility.yul\":4346:4355   */\n      dup3\n        /* \"#utility.yul\":4342:4360   */\n      add\n        /* \"#utility.yul\":4334:4360   */\n      swap1\n      pop\n        /* \"#utility.yul\":4406:4415   */\n      dup2\n        /* \"#utility.yul\":4400:4404   */\n      dup2\n        /* \"#utility.yul\":4396:4416   */\n      sub\n        /* \"#utility.yul\":4392:4393   */\n      0x00\n        /* \"#utility.yul\":4381:4390   */\n      dup4\n        /* \"#utility.yul\":4377:4394   */\n      add\n        /* \"#utility.yul\":4370:4417   */\n      mstore\n        /* \"#utility.yul\":4434:4565   */\n      tag_175\n        /* \"#utility.yul\":4560:4564   */\n      dup2\n        /* \"#utility.yul\":4434:4565   */\n      tag_114\n      jump\t// in\n    tag_175:\n        /* \"#utility.yul\":4426:4565   */\n      swap1\n      pop\n        /* \"#utility.yul\":4153:4572   */\n      swap2\n      swap1\n      pop\n      jump\t// out\n        /* \"#utility.yul\":4578:4758   */\n    tag_115:\n        /* \"#utility.yul\":4626:4703   */\n      0x4e487b7100000000000000000000000000000000000000000000000000000000\n        /* \"#utility.yul\":4623:4624   */\n      0x00\n        /* \"#utility.yul\":4616:4704   */\n      mstore\n        /* \"#utility.yul\":4723:4727   */\n      0x11\n        /* \"#utility.yul\":4720:4721   */\n      0x04\n        /* \"#utility.yul\":4713:4728   */\n      mstore\n        /* \"#utility.yul\":4747:4751   */\n      0x24\n        /* \"#utility.yul\":4744:4745   */\n      0x00\n        /* \"#utility.yul\":4737:4752   */\n      revert\n        /* \"#utility.yul\":4764:5174   */\n    tag_40:\n        /* \"#utility.yul\":4804:4811   */\n      0x00\n        /* \"#utility.yul\":4827:4847   */\n      tag_178\n        /* \"#utility.yul\":4845:4846   */\n      dup3\n        /* \"#utility.yul\":4827:4847   */\n      tag_99\n      jump\t// in\n    tag_178:\n        /* \"#utility.yul\":4822:4847   */\n      swap2\n      pop\n        /* \"#utility.yul\":4861:4881   */\n      tag_179\n        /* \"#utility.yul\":4879:4880   */\n      dup4\n        /* \"#utility.yul\":4861:4881   */\n      tag_99\n      jump\t// in\n    tag_179:\n        /* \"#utility.yul\":4856:4881   */\n      swap3\n      pop\n        /* \"#utility.yul\":4916:4917   */\n      dup3\n        /* \"#utility.yul\":4913:4914   */\n      dup3\n        /* \"#utility.yul\":4909:4918   */\n      mul\n        /* \"#utility.yul\":4938:4968   */\n      tag_180\n        /* \"#utility.yul\":4956:4967   */\n      dup2\n        /* \"#utility.yul\":4938:4968   */\n      tag_99\n      jump\t// in\n    tag_180:\n        /* \"#utility.yul\":4927:4968   */\n      swap2\n      pop\n        /* \"#utility.yul\":5117:5118   */\n      dup3\n        /* \"#utility.yul\":5108:5115   */\n      dup3\n        /* \"#utility.yul\":5104:5119   */\n      div\n        /* \"#utility.yul\":5101:5102   */\n      dup5\n        /* \"#utility.yul\":5098:5120   */\n      eq\n        /* \"#utility.yul\":5078:5079   */\n      dup4\n        /* \"#utility.yul\":5071:5080   */\n      iszero\n        /* \"#utility.yul\":5051:5134   */\n      or\n        /* \"#utility.yul\":5028:5167   */\n      tag_181\n      jumpi\n        /* \"#utility.yul\":5147:5165   */\n      tag_182\n      tag_115\n      jump\t// in\n    tag_182:\n        /* \"#utility.yul\":5028:5167   */\n    tag_181:\n        /* \"#utility.yul\":4812:5174   */\n      pop\n        /* \"#utility.yul\":4764:5174   */\n      swap3\n      swap2\n      pop\n      pop\n      jump\t// out\n        /* \"#utility.yul\":5180:5622   */\n    tag_42:\n        /* \"#utility.yul\":5329:5333   */\n      0x00\n        /* \"#utility.yul\":5367:5369   */\n      0x60\n        /* \"#utility.yul\":5356:5365   */\n      dup3\n        /* \"#utility.yul\":5352:5370   */\n      add\n        /* \"#utility.yul\":5344:5370   */\n      swap1\n      pop\n        /* \"#utility.yul\":5380:5451   */\n      tag_184\n        /* \"#utility.yul\":5448:5449   */\n      0x00\n        /* \"#utility.yul\":5437:5446   */\n      dup4\n        /* \"#utility.yul\":5433:5450   */\n      add\n        /* \"#utility.yul\":5424:5430   */\n      dup7\n        /* \"#utility.yul\":5380:5451   */\n      tag_111\n      jump\t// in\n    tag_184:\n        /* \"#utility.yul\":5461:5533   */\n      tag_185\n        /* \"#utility.yul\":5529:5531   */\n      0x20\n        /* \"#utility.yul\":5518:5527   */\n      dup4\n        /* \"#utility.yul\":5514:5532   */\n      add\n        /* \"#utility.yul\":5505:5511   */\n      dup6\n        /* \"#utility.yul\":5461:5533   */\n      tag_111\n      jump\t// in\n    tag_185:\n        /* \"#utility.yul\":5543:5615   */\n      tag_186\n        /* \"#utility.yul\":5611:5613   */\n      0x40\n        /* \"#utility.yul\":5600:5609   */\n      dup4\n        /* \"#utility.yul\":5596:5614   */\n      add\n        /* \"#utility.yul\":5587:5593   */\n      dup5\n        /* \"#utility.yul\":5543:5615   */\n      tag_100\n      jump\t// in\n    tag_186:\n        /* \"#utility.yul\":5180:5622   */\n      swap5\n      swap4\n      pop\n      pop\n      pop\n      pop\n      jump\t// out\n        /* \"#utility.yul\":5628:5960   */\n    tag_47:\n        /* \"#utility.yul\":5749:5753   */\n      0x00\n        /* \"#utility.yul\":5787:5789   */\n      0x40\n        /* \"#utility.yul\":5776:5785   */\n      dup3\n        /* \"#utility.yul\":5772:5790   */\n      add\n        /* \"#utility.yul\":5764:5790   */\n      swap1\n      pop\n        /* \"#utility.yul\":5800:5871   */\n      tag_188\n        /* \"#utility.yul\":5868:5869   */\n      0x00\n        /* \"#utility.yul\":5857:5866   */\n      dup4\n        /* \"#utility.yul\":5853:5870   */\n      add\n        /* \"#utility.yul\":5844:5850   */\n      dup6\n        /* \"#utility.yul\":5800:5871   */\n      tag_111\n      jump\t// in\n    tag_188:\n        /* \"#utility.yul\":5881:5953   */\n      tag_189\n        /* \"#utility.yul\":5949:5951   */\n      0x20\n        /* \"#utility.yul\":5938:5947   */\n      dup4\n        /* \"#utility.yul\":5934:5952   */\n      add\n        /* \"#utility.yul\":5925:5931   */\n      dup5\n        /* \"#utility.yul\":5881:5953   */\n      tag_111\n      jump\t// in\n    tag_189:\n        /* \"#utility.yul\":5628:5960   */\n      swap4\n      swap3\n      pop\n      pop\n      pop\n      jump\t// out\n        /* \"#utility.yul\":5966:6157   */\n    tag_52:\n        /* \"#utility.yul\":6006:6009   */\n      0x00\n        /* \"#utility.yul\":6025:6045   */\n      tag_191\n        /* \"#utility.yul\":6043:6044   */\n      dup3\n        /* \"#utility.yul\":6025:6045   */\n      tag_99\n      jump\t// in\n    tag_191:\n        /* \"#utility.yul\":6020:6045   */\n      swap2\n      pop\n        /* \"#utility.yul\":6059:6079   */\n      tag_192\n        /* \"#utility.yul\":6077:6078   */\n      dup4\n        /* \"#utility.yul\":6059:6079   */\n      tag_99\n      jump\t// in\n    tag_192:\n        /* \"#utility.yul\":6054:6079   */\n      swap3\n      pop\n        /* \"#utility.yul\":6102:6103   */\n      dup3\n        /* \"#utility.yul\":6099:6100   */\n      dup3\n        /* \"#utility.yul\":6095:6104   */\n      add\n        /* \"#utility.yul\":6088:6104   */\n      swap1\n      pop\n        /* \"#utility.yul\":6123:6126   */\n      dup1\n        /* \"#utility.yul\":6120:6121   */\n      dup3\n        /* \"#utility.yul\":6117:6127   */\n      gt\n        /* \"#utility.yul\":6114:6150   */\n      iszero\n      tag_193\n      jumpi\n        /* \"#utility.yul\":6130:6148   */\n      tag_194\n      tag_115\n      jump\t// in\n    tag_194:\n        /* \"#utility.yul\":6114:6150   */\n    tag_193:\n        /* \"#utility.yul\":5966:6157   */\n      swap3\n      swap2\n      pop\n      pop\n      jump\t// out\n        /* \"#utility.yul\":6163:6495   */\n    tag_55:\n        /* \"#utility.yul\":6284:6288   */\n      0x00\n        /* \"#utility.yul\":6322:6324   */\n      0x40\n        /* \"#utility.yul\":6311:6320   */\n      dup3\n        /* \"#utility.yul\":6307:6325   */\n      add\n        /* \"#utility.yul\":6299:6325   */\n      swap1\n      pop\n        /* \"#utility.yul\":6335:6406   */\n      tag_196\n        /* \"#utility.yul\":6403:6404   */\n      0x00\n        /* \"#utility.yul\":6392:6401   */\n      dup4\n        /* \"#utility.yul\":6388:6405   */\n      add\n        /* \"#utility.yul\":6379:6385   */\n      dup6\n        /* \"#utility.yul\":6335:6406   */\n      tag_111\n      jump\t// in\n    tag_196:\n        /* \"#utility.yul\":6416:6488   */\n      tag_197\n        /* \"#utility.yul\":6484:6486   */\n      0x20\n        /* \"#utility.yul\":6473:6482   */\n      dup4\n        /* \"#utility.yul\":6469:6487   */\n      add\n        /* \"#utility.yul\":6460:6466   */\n      dup5\n        /* \"#utility.yul\":6416:6488   */\n      tag_100\n      jump\t// in\n    tag_197:\n        /* \"#utility.yul\":6163:6495   */\n      swap4\n      swap3\n      pop\n      pop\n      pop\n      jump\t// out\n        /* \"#utility.yul\":6501:6591   */\n    tag_116:\n        /* \"#utility.yul\":6535:6542   */\n      0x00\n        /* \"#utility.yul\":6578:6583   */\n      dup2\n        /* \"#utility.yul\":6571:6584   */\n      iszero\n        /* \"#utility.yul\":6564:6585   */\n      iszero\n        /* \"#utility.yul\":6553:6585   */\n      swap1\n      pop\n        /* \"#utility.yul\":6501:6591   */\n      swap2\n      swap1\n      pop\n      jump\t// out\n        /* \"#utility.yul\":6597:6713   */\n    tag_117:\n        /* \"#utility.yul\":6667:6688   */\n      tag_200\n        /* \"#utility.yul\":6682:6687   */\n      dup2\n        /* \"#utility.yul\":6667:6688   */\n      tag_116\n      jump\t// in\n    tag_200:\n        /* \"#utility.yul\":6660:6665   */\n      dup2\n        /* \"#utility.yul\":6657:6689   */\n      eq\n        /* \"#utility.yul\":6647:6707   */\n      tag_201\n      jumpi\n        /* \"#utility.yul\":6703:6704   */\n      0x00\n        /* \"#utility.yul\":6700:6701   */\n      dup1\n        /* \"#utility.yul\":6693:6705   */\n      revert\n        /* \"#utility.yul\":6647:6707   */\n    tag_201:\n        /* \"#utility.yul\":6597:6713   */\n      pop\n      jump\t// out\n        /* \"#utility.yul\":6719:6856   */\n    tag_118:\n        /* \"#utility.yul\":6773:6778   */\n      0x00\n        /* \"#utility.yul\":6804:6810   */\n      dup2\n        /* \"#utility.yul\":6798:6811   */\n      mload\n        /* \"#utility.yul\":6789:6811   */\n      swap1\n      pop\n        /* \"#utility.yul\":6820:6850   */\n      tag_203\n        /* \"#utility.yul\":6844:6849   */\n      dup2\n        /* \"#utility.yul\":6820:6850   */\n      tag_117\n      jump\t// in\n    tag_203:\n        /* \"#utility.yul\":6719:6856   */\n      swap3\n      swap2\n      pop\n      pop\n      jump\t// out\n        /* \"#utility.yul\":6862:7207   */\n    tag_67:\n        /* \"#utility.yul\":6929:6935   */\n      0x00\n        /* \"#utility.yul\":6978:6980   */\n      0x20\n        /* \"#utility.yul\":6966:6975   */\n      dup3\n        /* \"#utility.yul\":6957:6964   */\n      dup5\n        /* \"#utility.yul\":6953:6976   */\n      sub\n        /* \"#utility.yul\":6949:6981   */\n      slt\n        /* \"#utility.yul\":6946:7065   */\n      iszero\n      tag_205\n      jumpi\n        /* \"#utility.yul\":6984:7063   */\n      tag_206\n      tag_102\n      jump\t// in\n    tag_206:\n        /* \"#utility.yul\":6946:7065   */\n    tag_205:\n        /* \"#utility.yul\":7104:7105   */\n      0x00\n        /* \"#utility.yul\":7129:7190   */\n      tag_207\n        /* \"#utility.yul\":7182:7189   */\n      dup5\n        /* \"#utility.yul\":7173:7179   */\n      dup3\n        /* \"#utility.yul\":7162:7171   */\n      dup6\n        /* \"#utility.yul\":7158:7180   */\n      add\n        /* \"#utility.yul\":7129:7190   */\n      tag_118\n      jump\t// in\n    tag_207:\n        /* \"#utility.yul\":7119:7190   */\n      swap2\n      pop\n        /* \"#utility.yul\":7075:7200   */\n      pop\n        /* \"#utility.yul\":6862:7207   */\n      swap3\n      swap2\n      pop\n      pop\n      jump\t// out\n        /* \"#utility.yul\":7213:7442   */\n    tag_119:\n        /* \"#utility.yul\":7353:7387   */\n      0x5361666545524332303a204552433230206f7065726174696f6e20646964206e\n        /* \"#utility.yul\":7349:7350   */\n      0x00\n        /* \"#utility.yul\":7341:7347   */\n      dup3\n        /* \"#utility.yul\":7337:7351   */\n      add\n        /* \"#utility.yul\":7330:7388   */\n      mstore\n        /* \"#utility.yul\":7422:7434   */\n      0x6f74207375636365656400000000000000000000000000000000000000000000\n        /* \"#utility.yul\":7417:7419   */\n      0x20\n        /* \"#utility.yul\":7409:7415   */\n      dup3\n        /* \"#utility.yul\":7405:7420   */\n      add\n        /* \"#utility.yul\":7398:7435   */\n      mstore\n        /* \"#utility.yul\":7213:7442   */\n      pop\n      jump\t// out\n        /* \"#utility.yul\":7448:7814   */\n    tag_120:\n        /* \"#utility.yul\":7590:7593   */\n      0x00\n        /* \"#utility.yul\":7611:7678   */\n      tag_210\n        /* \"#utility.yul\":7675:7677   */\n      0x2a\n        /* \"#utility.yul\":7670:7673   */\n      dup4\n        /* \"#utility.yul\":7611:7678   */\n      tag_106\n      jump\t// in\n    tag_210:\n        /* \"#utility.yul\":7604:7678   */\n      swap2\n      pop\n        /* \"#utility.yul\":7687:7780   */\n      tag_211\n        /* \"#utility.yul\":7776:7779   */\n      dup3\n        /* \"#utility.yul\":7687:7780   */\n      tag_119\n      jump\t// in\n    tag_211:\n        /* \"#utility.yul\":7805:7807   */\n      0x40\n        /* \"#utility.yul\":7800:7803   */\n      dup3\n        /* \"#utility.yul\":7796:7808   */\n      add\n        /* \"#utility.yul\":7789:7808   */\n      swap1\n      pop\n        /* \"#utility.yul\":7448:7814   */\n      swap2\n      swap1\n      pop\n      jump\t// out\n        /* \"#utility.yul\":7820:8239   */\n    tag_70:\n        /* \"#utility.yul\":7986:7990   */\n      0x00\n        /* \"#utility.yul\":8024:8026   */\n      0x20\n        /* \"#utility.yul\":8013:8022   */\n      dup3\n        /* \"#utility.yul\":8009:8027   */\n      add\n        /* \"#utility.yul\":8001:8027   */\n      swap1\n      pop\n        /* \"#utility.yul\":8073:8082   */\n      dup2\n        /* \"#utility.yul\":8067:8071   */\n      dup2\n        /* \"#utility.yul\":8063:8083   */\n      sub\n        /* \"#utility.yul\":8059:8060   */\n      0x00\n        /* \"#utility.yul\":8048:8057   */\n      dup4\n        /* \"#utility.yul\":8044:8061   */\n      add\n        /* \"#utility.yul\":8037:8084   */\n      mstore\n        /* \"#utility.yul\":8101:8232   */\n      tag_213\n        /* \"#utility.yul\":8227:8231   */\n      dup2\n        /* \"#utility.yul\":8101:8232   */\n      tag_120\n      jump\t// in\n    tag_213:\n        /* \"#utility.yul\":8093:8232   */\n      swap1\n      pop\n        /* \"#utility.yul\":7820:8239   */\n      swap2\n      swap1\n      pop\n      jump\t// out\n        /* \"#utility.yul\":8245:8470   */\n    tag_121:\n        /* \"#utility.yul\":8385:8419   */\n      0x416464726573733a20696e73756666696369656e742062616c616e636520666f\n        /* \"#utility.yul\":8381:8382   */\n      0x00\n        /* \"#utility.yul\":8373:8379   */\n      dup3\n        /* \"#utility.yul\":8369:8383   */\n      add\n        /* \"#utility.yul\":8362:8420   */\n      mstore\n        /* \"#utility.yul\":8454:8462   */\n      0x722063616c6c0000000000000000000000000000000000000000000000000000\n        /* \"#utility.yul\":8449:8451   */\n      0x20\n        /* \"#utility.yul\":8441:8447   */\n      dup3\n        /* \"#utility.yul\":8437:8452   */\n      add\n        /* \"#utility.yul\":8430:8463   */\n      mstore\n        /* \"#utility.yul\":8245:8470   */\n      pop\n      jump\t// out\n        /* \"#utility.yul\":8476:8842   */\n    tag_122:\n        /* \"#utility.yul\":8618:8621   */\n      0x00\n        /* \"#utility.yul\":8639:8706   */\n      tag_216\n        /* \"#utility.yul\":8703:8705   */\n      0x26\n        /* \"#utility.yul\":8698:8701   */\n      dup4\n        /* \"#utility.yul\":8639:8706   */\n      tag_106\n      jump\t// in\n    tag_216:\n        /* \"#utility.yul\":8632:8706   */\n      swap2\n      pop\n        /* \"#utility.yul\":8715:8808   */\n      tag_217\n        /* \"#utility.yul\":8804:8807   */\n      dup3\n        /* \"#utility.yul\":8715:8808   */\n      tag_121\n      jump\t// in\n    tag_217:\n        /* \"#utility.yul\":8833:8835   */\n      0x40\n        /* \"#utility.yul\":8828:8831   */\n      dup3\n        /* \"#utility.yul\":8824:8836   */\n      add\n        /* \"#utility.yul\":8817:8836   */\n      swap1\n      pop\n        /* \"#utility.yul\":8476:8842   */\n      swap2\n      swap1\n      pop\n      jump\t// out\n        /* \"#utility.yul\":8848:9267   */\n    tag_74:\n        /* \"#utility.yul\":9014:9018   */\n      0x00\n        /* \"#utility.yul\":9052:9054   */\n      0x20\n        /* \"#utility.yul\":9041:9050   */\n      dup3\n        /* \"#utility.yul\":9037:9055   */\n      add\n        /* \"#utility.yul\":9029:9055   */\n      swap1\n      pop\n        /* \"#utility.yul\":9101:9110   */\n      dup2\n        /* \"#utility.yul\":9095:9099   */\n      dup2\n        /* \"#utility.yul\":9091:9111   */\n      sub\n        /* \"#utility.yul\":9087:9088   */\n      0x00\n        /* \"#utility.yul\":9076:9085   */\n      dup4\n        /* \"#utility.yul\":9072:9089   */\n      add\n        /* \"#utility.yul\":9065:9112   */\n      mstore\n        /* \"#utility.yul\":9129:9260   */\n      tag_219\n        /* \"#utility.yul\":9255:9259   */\n      dup2\n        /* \"#utility.yul\":9129:9260   */\n      tag_122\n      jump\t// in\n    tag_219:\n        /* \"#utility.yul\":9121:9260   */\n      swap1\n      pop\n        /* \"#utility.yul\":8848:9267   */\n      swap2\n      swap1\n      pop\n      jump\t// out\n        /* \"#utility.yul\":9273:9371   */\n    tag_123:\n        /* \"#utility.yul\":9324:9330   */\n      0x00\n        /* \"#utility.yul\":9358:9363   */\n      dup2\n        /* \"#utility.yul\":9352:9364   */\n      mload\n        /* \"#utility.yul\":9342:9364   */\n      swap1\n      pop\n        /* \"#utility.yul\":9273:9371   */\n      swap2\n      swap1\n      pop\n      jump\t// out\n        /* \"#utility.yul\":9377:9524   */\n    tag_124:\n        /* \"#utility.yul\":9478:9489   */\n      0x00\n        /* \"#utility.yul\":9515:9518   */\n      dup2\n        /* \"#utility.yul\":9500:9518   */\n      swap1\n      pop\n        /* \"#utility.yul\":9377:9524   */\n      swap3\n      swap2\n      pop\n      pop\n      jump\t// out\n        /* \"#utility.yul\":9530:9776   */\n    tag_125:\n        /* \"#utility.yul\":9611:9612   */\n      0x00\n        /* \"#utility.yul\":9621:9734   */\n    tag_223:\n        /* \"#utility.yul\":9635:9641   */\n      dup4\n        /* \"#utility.yul\":9632:9633   */\n      dup2\n        /* \"#utility.yul\":9629:9642   */\n      lt\n        /* \"#utility.yul\":9621:9734   */\n      iszero\n      tag_225\n      jumpi\n        /* \"#utility.yul\":9720:9721   */\n      dup1\n        /* \"#utility.yul\":9715:9718   */\n      dup3\n        /* \"#utility.yul\":9711:9722   */\n      add\n        /* \"#utility.yul\":9705:9723   */\n      mload\n        /* \"#utility.yul\":9701:9702   */\n      dup2\n        /* \"#utility.yul\":9696:9699   */\n      dup5\n        /* \"#utility.yul\":9692:9703   */\n      add\n        /* \"#utility.yul\":9685:9724   */\n      mstore\n        /* \"#utility.yul\":9657:9659   */\n      0x20\n        /* \"#utility.yul\":9654:9655   */\n      dup2\n        /* \"#utility.yul\":9650:9660   */\n      add\n        /* \"#utility.yul\":9645:9660   */\n      swap1\n      pop\n        /* \"#utility.yul\":9621:9734   */\n      jump(tag_223)\n    tag_225:\n        /* \"#utility.yul\":9768:9769   */\n      0x00\n        /* \"#utility.yul\":9759:9765   */\n      dup5\n        /* \"#utility.yul\":9754:9757   */\n      dup5\n        /* \"#utility.yul\":9750:9766   */\n      add\n        /* \"#utility.yul\":9743:9770   */\n      mstore\n        /* \"#utility.yul\":9592:9776   */\n      pop\n        /* \"#utility.yul\":9530:9776   */\n      pop\n      pop\n      pop\n      jump\t// out\n        /* \"#utility.yul\":9782:10168   */\n    tag_126:\n        /* \"#utility.yul\":9886:9889   */\n      0x00\n        /* \"#utility.yul\":9914:9952   */\n      tag_227\n        /* \"#utility.yul\":9946:9951   */\n      dup3\n        /* \"#utility.yul\":9914:9952   */\n      tag_123\n      jump\t// in\n    tag_227:\n        /* \"#utility.yul\":9968:10056   */\n      tag_228\n        /* \"#utility.yul\":10049:10055   */\n      dup2\n        /* \"#utility.yul\":10044:10047   */\n      dup6\n        /* \"#utility.yul\":9968:10056   */\n      tag_124\n      jump\t// in\n    tag_228:\n        /* \"#utility.yul\":9961:10056   */\n      swap4\n      pop\n        /* \"#utility.yul\":10065:10130   */\n      tag_229\n        /* \"#utility.yul\":10123:10129   */\n      dup2\n        /* \"#utility.yul\":10118:10121   */\n      dup6\n        /* \"#utility.yul\":10111:10115   */\n      0x20\n        /* \"#utility.yul\":10104:10109   */\n      dup7\n        /* \"#utility.yul\":10100:10116   */\n      add\n        /* \"#utility.yul\":10065:10130   */\n      tag_125\n      jump\t// in\n    tag_229:\n        /* \"#utility.yul\":10155:10161   */\n      dup1\n        /* \"#utility.yul\":10150:10153   */\n      dup5\n        /* \"#utility.yul\":10146:10162   */\n      add\n        /* \"#utility.yul\":10139:10162   */\n      swap2\n      pop\n        /* \"#utility.yul\":9890:10168   */\n      pop\n        /* \"#utility.yul\":9782:10168   */\n      swap3\n      swap2\n      pop\n      pop\n      jump\t// out\n        /* \"#utility.yul\":10174:10445   */\n    tag_76:\n        /* \"#utility.yul\":10304:10307   */\n      0x00\n        /* \"#utility.yul\":10326:10419   */\n      tag_231\n        /* \"#utility.yul\":10415:10418   */\n      dup3\n        /* \"#utility.yul\":10406:10412   */\n      dup5\n        /* \"#utility.yul\":10326:10419   */\n      tag_126\n      jump\t// in\n    tag_231:\n        /* \"#utility.yul\":10319:10419   */\n      swap2\n      pop\n        /* \"#utility.yul\":10436:10439   */\n      dup2\n        /* \"#utility.yul\":10429:10439   */\n      swap1\n      pop\n        /* \"#utility.yul\":10174:10445   */\n      swap3\n      swap2\n      pop\n      pop\n      jump\t// out\n        /* \"#utility.yul\":10451:10630   */\n    tag_127:\n        /* \"#utility.yul\":10591:10622   */\n      0x416464726573733a2063616c6c20746f206e6f6e2d636f6e7472616374000000\n        /* \"#utility.yul\":10587:10588   */\n      0x00\n        /* \"#utility.yul\":10579:10585   */\n      dup3\n        /* \"#utility.yul\":10575:10589   */\n      add\n        /* \"#utility.yul\":10568:10623   */\n      mstore\n        /* \"#utility.yul\":10451:10630   */\n      pop\n      jump\t// out\n        /* \"#utility.yul\":10636:11002   */\n    tag_128:\n        /* \"#utility.yul\":10778:10781   */\n      0x00\n        /* \"#utility.yul\":10799:10866   */\n      tag_234\n        /* \"#utility.yul\":10863:10865   */\n      0x1d\n        /* \"#utility.yul\":10858:10861   */\n      dup4\n        /* \"#utility.yul\":10799:10866   */\n      tag_106\n      jump\t// in\n    tag_234:\n        /* \"#utility.yul\":10792:10866   */\n      swap2\n      pop\n        /* \"#utility.yul\":10875:10968   */\n      tag_235\n        /* \"#utility.yul\":10964:10967   */\n      dup3\n        /* \"#utility.yul\":10875:10968   */\n      tag_127\n      jump\t// in\n    tag_235:\n        /* \"#utility.yul\":10993:10995   */\n      0x20\n        /* \"#utility.yul\":10988:10991   */\n      dup3\n        /* \"#utility.yul\":10984:10996   */\n      add\n        /* \"#utility.yul\":10977:10996   */\n      swap1\n      pop\n        /* \"#utility.yul\":10636:11002   */\n      swap2\n      swap1\n      pop\n      jump\t// out\n        /* \"#utility.yul\":11008:11427   */\n    tag_89:\n        /* \"#utility.yul\":11174:11178   */\n      0x00\n        /* \"#utility.yul\":11212:11214   */\n      0x20\n        /* \"#utility.yul\":11201:11210   */\n      dup3\n        /* \"#utility.yul\":11197:11215   */\n      add\n        /* \"#utility.yul\":11189:11215   */\n      swap1\n      pop\n        /* \"#utility.yul\":11261:11270   */\n      dup2\n        /* \"#utility.yul\":11255:11259   */\n      dup2\n        /* \"#utility.yul\":11251:11271   */\n      sub\n        /* \"#utility.yul\":11247:11248   */\n      0x00\n        /* \"#utility.yul\":11236:11245   */\n      dup4\n        /* \"#utility.yul\":11232:11249   */\n      add\n        /* \"#utility.yul\":11225:11272   */\n      mstore\n        /* \"#utility.yul\":11289:11420   */\n      tag_237\n        /* \"#utility.yul\":11415:11419   */\n      dup2\n        /* \"#utility.yul\":11289:11420   */\n      tag_128\n      jump\t// in\n    tag_237:\n        /* \"#utility.yul\":11281:11420   */\n      swap1\n      pop\n        /* \"#utility.yul\":11008:11427   */\n      swap2\n      swap1\n      pop\n      jump\t// out\n        /* \"#utility.yul\":11433:11532   */\n    tag_129:\n        /* \"#utility.yul\":11485:11491   */\n      0x00\n        /* \"#utility.yul\":11519:11524   */\n      dup2\n        /* \"#utility.yul\":11513:11525   */\n      mload\n        /* \"#utility.yul\":11503:11525   */\n      swap1\n      pop\n        /* \"#utility.yul\":11433:11532   */\n      swap2\n      swap1\n      pop\n      jump\t// out\n        /* \"#utility.yul\":11538:11640   */\n    tag_130:\n        /* \"#utility.yul\":11579:11585   */\n      0x00\n        /* \"#utility.yul\":11630:11632   */\n      0x1f\n        /* \"#utility.yul\":11626:11633   */\n      not\n        /* \"#utility.yul\":11621:11623   */\n      0x1f\n        /* \"#utility.yul\":11614:11619   */\n      dup4\n        /* \"#utility.yul\":11610:11624   */\n      add\n        /* \"#utility.yul\":11606:11634   */\n      and\n        /* \"#utility.yul\":11596:11634   */\n      swap1\n      pop\n        /* \"#utility.yul\":11538:11640   */\n      swap2\n      swap1\n      pop\n      jump\t// out\n        /* \"#utility.yul\":11646:12023   */\n    tag_131:\n        /* \"#utility.yul\":11734:11737   */\n      0x00\n        /* \"#utility.yul\":11762:11801   */\n      tag_241\n        /* \"#utility.yul\":11795:11800   */\n      dup3\n        /* \"#utility.yul\":11762:11801   */\n      tag_129\n      jump\t// in\n    tag_241:\n        /* \"#utility.yul\":11817:11888   */\n      tag_242\n        /* \"#utility.yul\":11881:11887   */\n      dup2\n        /* \"#utility.yul\":11876:11879   */\n      dup6\n        /* \"#utility.yul\":11817:11888   */\n      tag_106\n      jump\t// in\n    tag_242:\n        /* \"#utility.yul\":11810:11888   */\n      swap4\n      pop\n        /* \"#utility.yul\":11897:11962   */\n      tag_243\n        /* \"#utility.yul\":11955:11961   */\n      dup2\n        /* \"#utility.yul\":11950:11953   */\n      dup6\n        /* \"#utility.yul\":11943:11947   */\n      0x20\n        /* \"#utility.yul\":11936:11941   */\n      dup7\n        /* \"#utility.yul\":11932:11948   */\n      add\n        /* \"#utility.yul\":11897:11962   */\n      tag_125\n      jump\t// in\n    tag_243:\n        /* \"#utility.yul\":11987:12016   */\n      tag_244\n        /* \"#utility.yul\":12009:12015   */\n      dup2\n        /* \"#utility.yul\":11987:12016   */\n      tag_130\n      jump\t// in\n    tag_244:\n        /* \"#utility.yul\":11982:11985   */\n      dup5\n        /* \"#utility.yul\":11978:12017   */\n      add\n        /* \"#utility.yul\":11971:12017   */\n      swap2\n      pop\n        /* \"#utility.yul\":11738:12023   */\n      pop\n        /* \"#utility.yul\":11646:12023   */\n      swap3\n      swap2\n      pop\n      pop\n      jump\t// out\n        /* \"#utility.yul\":12029:12342   */\n    tag_98:\n        /* \"#utility.yul\":12142:12146   */\n      0x00\n        /* \"#utility.yul\":12180:12182   */\n      0x20\n        /* \"#utility.yul\":12169:12178   */\n      dup3\n        /* \"#utility.yul\":12165:12183   */\n      add\n        /* \"#utility.yul\":12157:12183   */\n      swap1\n      pop\n        /* \"#utility.yul\":12229:12238   */\n      dup2\n        /* \"#utility.yul\":12223:12227   */\n      dup2\n        /* \"#utility.yul\":12219:12239   */\n      sub\n        /* \"#utility.yul\":12215:12216   */\n      0x00\n        /* \"#utility.yul\":12204:12213   */\n      dup4\n        /* \"#utility.yul\":12200:12217   */\n      add\n        /* \"#utility.yul\":12193:12240   */\n      mstore\n        /* \"#utility.yul\":12257:12335   */\n      tag_246\n        /* \"#utility.yul\":12330:12334   */\n      dup2\n        /* \"#utility.yul\":12321:12327   */\n      dup5\n        /* \"#utility.yul\":12257:12335   */\n      tag_131\n      jump\t// in\n    tag_246:\n        /* \"#utility.yul\":12249:12335   */\n      swap1\n      pop\n        /* \"#utility.yul\":12029:12342   */\n      swap3\n      swap2\n      pop\n      pop\n      jump\t// out\n\n    auxdata: 0xa26469706673582212205fd517c49d24b49052fc6549d8ff041ff3f0314dab2a43dbf7e334a11add3efc64736f6c63430008110033\n}\n",
				"bytecode": {
					"linkReferences": {},
					"object": "60806040523480156200001157600080fd5b50604051620017f8380380620017f8833981810160405281019062000037919062000593565b816000806101000a81548173ffffffffffffffffffffffffffffffffffffffff021916908373ffffffffffffffffffffffffffffffffffffffff160217905550670de0b6b3a7640000816200008d919062000609565b600181905550620000f2306c01431e0fae6d7217caa000000060008054906101000a900473ffffffffffffffffffffffffffffffffffffffff1673ffffffffffffffffffffffffffffffffffffffff16620000fa60201b620002d6179092919060201c565b505062000a72565b6000818473ffffffffffffffffffffffffffffffffffffffff1663dd62ed3e30866040518363ffffffff1660e01b81526004016200013a92919062000665565b602060405180830381865afa15801562000158573d6000803e3d6000fd5b505050506040513d601f19601f820116820180604052508101906200017e919062000692565b6200018a9190620006c4565b9050620002178463095ea7b360e01b8584604051602401620001ae92919062000710565b604051602081830303815290604052907bffffffffffffffffffffffffffffffffffffffffffffffffffffffff19166020820180517bffffffffffffffffffffffffffffffffffffffffffffffffffffffff83818316178352505050506200021d60201b60201c565b50505050565b600062000286826040518060400160405280602081526020017f5361666545524332303a206c6f772d6c6576656c2063616c6c206661696c65648152508573ffffffffffffffffffffffffffffffffffffffff16620002f160201b620003e8179092919060201c565b9050600081511115620002ec5780806020019051810190620002a991906200077a565b620002eb576040517f08c379a0000000000000000000000000000000000000000000000000000000008152600401620002e29062000833565b60405180910390fd5b5b505050565b60606200030884846000856200031160201b60201c565b90509392505050565b60608247101562000359576040517f08c379a00000000000000000000000000000000000000000000000000000000081526004016200035090620008cb565b60405180910390fd5b6000808673ffffffffffffffffffffffffffffffffffffffff16858760405162000384919062000966565b60006040518083038185875af1925050503d8060008114620003c3576040519150601f19603f3d011682016040523d82523d6000602084013e620003c8565b606091505b5091509150620003e187838387620003ed60201b60201c565b92505050949350505050565b606083156200045d576000835103620004545762000411856200047860201b60201c565b62000453576040517f08c379a00000000000000000000000000000000000000000000000000000000081526004016200044a90620009cf565b60405180910390fd5b5b82905062000470565b6200046f83836200049b60201b60201c565b5b949350505050565b6000808273ffffffffffffffffffffffffffffffffffffffff163b119050919050565b600082511115620004af5781518083602001fd5b806040517f08c379a0000000000000000000000000000000000000000000000000000000008152600401620004e5919062000a4e565b60405180910390fd5b600080fd5b600073ffffffffffffffffffffffffffffffffffffffff82169050919050565b60006200052082620004f3565b9050919050565b620005328162000513565b81146200053e57600080fd5b50565b600081519050620005528162000527565b92915050565b6000819050919050565b6200056d8162000558565b81146200057957600080fd5b50565b6000815190506200058d8162000562565b92915050565b60008060408385031215620005ad57620005ac620004ee565b5b6000620005bd8582860162000541565b9250506020620005d0858286016200057c565b9150509250929050565b7f4e487b7100000000000000000000000000000000000000000000000000000000600052601160045260246000fd5b6000620006168262000558565b9150620006238362000558565b9250828202620006338162000558565b915082820484148315176200064d576200064c620005da565b5b5092915050565b6200065f8162000513565b82525050565b60006040820190506200067c600083018562000654565b6200068b602083018462000654565b9392505050565b600060208284031215620006ab57620006aa620004ee565b5b6000620006bb848285016200057c565b91505092915050565b6000620006d18262000558565b9150620006de8362000558565b9250828201905080821115620006f957620006f8620005da565b5b92915050565b6200070a8162000558565b82525050565b600060408201905062000727600083018562000654565b620007366020830184620006ff565b9392505050565b60008115159050919050565b62000754816200073d565b81146200076057600080fd5b50565b600081519050620007748162000749565b92915050565b600060208284031215620007935762000792620004ee565b5b6000620007a38482850162000763565b91505092915050565b600082825260208201905092915050565b7f5361666545524332303a204552433230206f7065726174696f6e20646964206e60008201527f6f74207375636365656400000000000000000000000000000000000000000000602082015250565b60006200081b602a83620007ac565b91506200082882620007bd565b604082019050919050565b600060208201905081810360008301526200084e816200080c565b9050919050565b7f416464726573733a20696e73756666696369656e742062616c616e636520666f60008201527f722063616c6c0000000000000000000000000000000000000000000000000000602082015250565b6000620008b3602683620007ac565b9150620008c08262000855565b604082019050919050565b60006020820190508181036000830152620008e681620008a4565b9050919050565b600081519050919050565b600081905092915050565b60005b838110156200092357808201518184015260208101905062000906565b60008484015250505050565b60006200093c82620008ed565b620009488185620008f8565b93506200095a81856020860162000903565b80840191505092915050565b60006200097482846200092f565b915081905092915050565b7f416464726573733a2063616c6c20746f206e6f6e2d636f6e7472616374000000600082015250565b6000620009b7601d83620007ac565b9150620009c4826200097f565b602082019050919050565b60006020820190508181036000830152620009ea81620009a8565b9050919050565b600081519050919050565b6000601f19601f8301169050919050565b600062000a1a82620009f1565b62000a268185620007ac565b935062000a3881856020860162000903565b62000a4381620009fc565b840191505092915050565b6000602082019050818103600083015262000a6a818462000a0d565b905092915050565b610d768062000a826000396000f3fe6080604052600436106100385760003560e01c806360c7dc471461004457806373cf575a1461006f578063a694fc3a146100865761003f565b3661003f57005b600080fd5b34801561005057600080fd5b506100596100af565b604051610066919061071e565b60405180910390f35b34801561007b57600080fd5b506100846100b5565b005b34801561009257600080fd5b506100ad60048036038101906100a8919061076a565b610106565b005b60015481565b610104303360015460008054906101000a900473ffffffffffffffffffffffffffffffffffffffff1673ffffffffffffffffffffffffffffffffffffffff16610400909392919063ffffffff16565b565b60008111610149576040517f08c379a0000000000000000000000000000000000000000000000000000000008152600401610140906107f4565b60405180910390fd5b8060008054906101000a900473ffffffffffffffffffffffffffffffffffffffff1673ffffffffffffffffffffffffffffffffffffffff166370a08231336040518263ffffffff1660e01b81526004016101a39190610855565b602060405180830381865afa1580156101c0573d6000803e3d6000fd5b505050506040513d601f19601f820116820180604052508101906101e49190610885565b1015610225576040517f08c379a000000000000000000000000000000000000000000000000000000000815260040161021c906108fe565b60405180910390fd5b7f160ffcaa807f78c8b4983836e2396338d073e75695ac448aa0b5e4a75b210b1d3330670de0b6b3a76400008461025c919061094d565b60405161026b9392919061098f565b60405180910390a16102d33330670de0b6b3a76400008461028c919061094d565b60008054906101000a900473ffffffffffffffffffffffffffffffffffffffff1673ffffffffffffffffffffffffffffffffffffffff16610400909392919063ffffffff16565b50565b6000818473ffffffffffffffffffffffffffffffffffffffff1663dd62ed3e30866040518363ffffffff1660e01b81526004016103149291906109c6565b602060405180830381865afa158015610331573d6000803e3d6000fd5b505050506040513d601f19601f820116820180604052508101906103559190610885565b61035f91906109ef565b90506103e28463095ea7b360e01b8584604051602401610380929190610a23565b604051602081830303815290604052907bffffffffffffffffffffffffffffffffffffffffffffffffffffffff19166020820180517bffffffffffffffffffffffffffffffffffffffffffffffffffffffff8381831617835250505050610489565b50505050565b60606103f78484600085610550565b90509392505050565b610483846323b872dd60e01b8585856040516024016104219392919061098f565b604051602081830303815290604052907bffffffffffffffffffffffffffffffffffffffffffffffffffffffff19166020820180517bffffffffffffffffffffffffffffffffffffffffffffffffffffffff8381831617835250505050610489565b50505050565b60006104eb826040518060400160405280602081526020017f5361666545524332303a206c6f772d6c6576656c2063616c6c206661696c65648152508573ffffffffffffffffffffffffffffffffffffffff166103e89092919063ffffffff16565b905060008151111561054b578080602001905181019061050b9190610a84565b61054a576040517f08c379a000000000000000000000000000000000000000000000000000000000815260040161054190610b23565b60405180910390fd5b5b505050565b606082471015610595576040517f08c379a000000000000000000000000000000000000000000000000000000000815260040161058c90610bb5565b60405180910390fd5b6000808673ffffffffffffffffffffffffffffffffffffffff1685876040516105be9190610c46565b60006040518083038185875af1925050503d80600081146105fb576040519150601f19603f3d011682016040523d82523d6000602084013e610600565b606091505b50915091506106118783838761061d565b92505050949350505050565b6060831561067f5760008351036106775761063785610692565b610676576040517f08c379a000000000000000000000000000000000000000000000000000000000815260040161066d90610ca9565b60405180910390fd5b5b82905061068a565b61068983836106b5565b5b949350505050565b6000808273ffffffffffffffffffffffffffffffffffffffff163b119050919050565b6000825111156106c85781518083602001fd5b806040517f08c379a00000000000000000000000000000000000000000000000000000000081526004016106fc9190610d1e565b60405180910390fd5b6000819050919050565b61071881610705565b82525050565b6000602082019050610733600083018461070f565b92915050565b600080fd5b61074781610705565b811461075257600080fd5b50565b6000813590506107648161073e565b92915050565b6000602082840312156107805761077f610739565b5b600061078e84828501610755565b91505092915050565b600082825260208201905092915050565b7f616d6f756e74206e6f74207a65726f0000000000000000000000000000000000600082015250565b60006107de600f83610797565b91506107e9826107a8565b602082019050919050565b6000602082019050818103600083015261080d816107d1565b9050919050565b600073ffffffffffffffffffffffffffffffffffffffff82169050919050565b600061083f82610814565b9050919050565b61084f81610834565b82525050565b600060208201905061086a6000830184610846565b92915050565b60008151905061087f8161073e565b92915050565b60006020828403121561089b5761089a610739565b5b60006108a984828501610870565b91505092915050565b7f7374616b696e67206661696c6400000000000000000000000000000000000000600082015250565b60006108e8600d83610797565b91506108f3826108b2565b602082019050919050565b60006020820190508181036000830152610917816108db565b9050919050565b7f4e487b7100000000000000000000000000000000000000000000000000000000600052601160045260246000fd5b600061095882610705565b915061096383610705565b925082820261097181610705565b915082820484148315176109885761098761091e565b5b5092915050565b60006060820190506109a46000830186610846565b6109b16020830185610846565b6109be604083018461070f565b949350505050565b60006040820190506109db6000830185610846565b6109e86020830184610846565b9392505050565b60006109fa82610705565b9150610a0583610705565b9250828201905080821115610a1d57610a1c61091e565b5b92915050565b6000604082019050610a386000830185610846565b610a45602083018461070f565b9392505050565b60008115159050919050565b610a6181610a4c565b8114610a6c57600080fd5b50565b600081519050610a7e81610a58565b92915050565b600060208284031215610a9a57610a99610739565b5b6000610aa884828501610a6f565b91505092915050565b7f5361666545524332303a204552433230206f7065726174696f6e20646964206e60008201527f6f74207375636365656400000000000000000000000000000000000000000000602082015250565b6000610b0d602a83610797565b9150610b1882610ab1565b604082019050919050565b60006020820190508181036000830152610b3c81610b00565b9050919050565b7f416464726573733a20696e73756666696369656e742062616c616e636520666f60008201527f722063616c6c0000000000000000000000000000000000000000000000000000602082015250565b6000610b9f602683610797565b9150610baa82610b43565b604082019050919050565b60006020820190508181036000830152610bce81610b92565b9050919050565b600081519050919050565b600081905092915050565b60005b83811015610c09578082015181840152602081019050610bee565b60008484015250505050565b6000610c2082610bd5565b610c2a8185610be0565b9350610c3a818560208601610beb565b80840191505092915050565b6000610c528284610c15565b915081905092915050565b7f416464726573733a2063616c6c20746f206e6f6e2d636f6e7472616374000000600082015250565b6000610c93601d83610797565b9150610c9e82610c5d565b602082019050919050565b60006020820190508181036000830152610cc281610c86565b9050919050565b600081519050919050565b6000601f19601f8301169050919050565b6000610cf082610cc9565b610cfa8185610797565b9350610d0a818560208601610beb565b610d1381610cd4565b840191505092915050565b60006020820190508181036000830152610d388184610ce5565b90509291505056fea26469706673582212205fd517c49d24b49052fc6549d8ff041ff3f0314dab2a43dbf7e334a11add3efc64736f6c63430008110033",
					"opcodes": "PUSH1 0x80 PUSH1 0x40 MSTORE CALLVALUE DUP1 ISZERO PUSH3 0x11 JUMPI PUSH1 0x0 DUP1 REVERT JUMPDEST POP PUSH1 0x40 MLOAD PUSH3 0x17F8 CODESIZE SUB DUP1 PUSH3 0x17F8 DUP4 CODECOPY DUP2 DUP2 ADD PUSH1 0x40 MSTORE DUP2 ADD SWAP1 PUSH3 0x37 SWAP2 SWAP1 PUSH3 0x593 JUMP JUMPDEST DUP2 PUSH1 0x0 DUP1 PUSH2 0x100 EXP DUP2 SLOAD DUP2 PUSH20 0xFFFFFFFFFFFFFFFFFFFFFFFFFFFFFFFFFFFFFFFF MUL NOT AND SWAP1 DUP4 PUSH20 0xFFFFFFFFFFFFFFFFFFFFFFFFFFFFFFFFFFFFFFFF AND MUL OR SWAP1 SSTORE POP PUSH8 0xDE0B6B3A7640000 DUP2 PUSH3 0x8D SWAP2 SWAP1 PUSH3 0x609 JUMP JUMPDEST PUSH1 0x1 DUP2 SWAP1 SSTORE POP PUSH3 0xF2 ADDRESS PUSH13 0x1431E0FAE6D7217CAA0000000 PUSH1 0x0 DUP1 SLOAD SWAP1 PUSH2 0x100 EXP SWAP1 DIV PUSH20 0xFFFFFFFFFFFFFFFFFFFFFFFFFFFFFFFFFFFFFFFF AND PUSH20 0xFFFFFFFFFFFFFFFFFFFFFFFFFFFFFFFFFFFFFFFF AND PUSH3 0xFA PUSH1 0x20 SHL PUSH3 0x2D6 OR SWAP1 SWAP3 SWAP2 SWAP1 PUSH1 0x20 SHR JUMP JUMPDEST POP POP PUSH3 0xA72 JUMP JUMPDEST PUSH1 0x0 DUP2 DUP5 PUSH20 0xFFFFFFFFFFFFFFFFFFFFFFFFFFFFFFFFFFFFFFFF AND PUSH4 0xDD62ED3E ADDRESS DUP7 PUSH1 0x40 MLOAD DUP4 PUSH4 0xFFFFFFFF AND PUSH1 0xE0 SHL DUP2 MSTORE PUSH1 0x4 ADD PUSH3 0x13A SWAP3 SWAP2 SWAP1 PUSH3 0x665 JUMP JUMPDEST PUSH1 0x20 PUSH1 0x40 MLOAD DUP1 DUP4 SUB DUP2 DUP7 GAS STATICCALL ISZERO DUP1 ISZERO PUSH3 0x158 JUMPI RETURNDATASIZE PUSH1 0x0 DUP1 RETURNDATACOPY RETURNDATASIZE PUSH1 0x0 REVERT JUMPDEST POP POP POP POP PUSH1 0x40 MLOAD RETURNDATASIZE PUSH1 0x1F NOT PUSH1 0x1F DUP3 ADD AND DUP3 ADD DUP1 PUSH1 0x40 MSTORE POP DUP2 ADD SWAP1 PUSH3 0x17E SWAP2 SWAP1 PUSH3 0x692 JUMP JUMPDEST PUSH3 0x18A SWAP2 SWAP1 PUSH3 0x6C4 JUMP JUMPDEST SWAP1 POP PUSH3 0x217 DUP5 PUSH4 0x95EA7B3 PUSH1 0xE0 SHL DUP6 DUP5 PUSH1 0x40 MLOAD PUSH1 0x24 ADD PUSH3 0x1AE SWAP3 SWAP2 SWAP1 PUSH3 0x710 JUMP JUMPDEST PUSH1 0x40 MLOAD PUSH1 0x20 DUP2 DUP4 SUB SUB DUP2 MSTORE SWAP1 PUSH1 0x40 MSTORE SWAP1 PUSH28 0xFFFFFFFFFFFFFFFFFFFFFFFFFFFFFFFFFFFFFFFFFFFFFFFFFFFFFFFF NOT AND PUSH1 0x20 DUP3 ADD DUP1 MLOAD PUSH28 0xFFFFFFFFFFFFFFFFFFFFFFFFFFFFFFFFFFFFFFFFFFFFFFFFFFFFFFFF DUP4 DUP2 DUP4 AND OR DUP4 MSTORE POP POP POP POP PUSH3 0x21D PUSH1 0x20 SHL PUSH1 0x20 SHR JUMP JUMPDEST POP POP POP POP JUMP JUMPDEST PUSH1 0x0 PUSH3 0x286 DUP3 PUSH1 0x40 MLOAD DUP1 PUSH1 0x40 ADD PUSH1 0x40 MSTORE DUP1 PUSH1 0x20 DUP2 MSTORE PUSH1 0x20 ADD PUSH32 0x5361666545524332303A206C6F772D6C6576656C2063616C6C206661696C6564 DUP2 MSTORE POP DUP6 PUSH20 0xFFFFFFFFFFFFFFFFFFFFFFFFFFFFFFFFFFFFFFFF AND PUSH3 0x2F1 PUSH1 0x20 SHL PUSH3 0x3E8 OR SWAP1 SWAP3 SWAP2 SWAP1 PUSH1 0x20 SHR JUMP JUMPDEST SWAP1 POP PUSH1 0x0 DUP2 MLOAD GT ISZERO PUSH3 0x2EC JUMPI DUP1 DUP1 PUSH1 0x20 ADD SWAP1 MLOAD DUP2 ADD SWAP1 PUSH3 0x2A9 SWAP2 SWAP1 PUSH3 0x77A JUMP JUMPDEST PUSH3 0x2EB JUMPI PUSH1 0x40 MLOAD PUSH32 0x8C379A000000000000000000000000000000000000000000000000000000000 DUP2 MSTORE PUSH1 0x4 ADD PUSH3 0x2E2 SWAP1 PUSH3 0x833 JUMP JUMPDEST PUSH1 0x40 MLOAD DUP1 SWAP2 SUB SWAP1 REVERT JUMPDEST JUMPDEST POP POP POP JUMP JUMPDEST PUSH1 0x60 PUSH3 0x308 DUP5 DUP5 PUSH1 0x0 DUP6 PUSH3 0x311 PUSH1 0x20 SHL PUSH1 0x20 SHR JUMP JUMPDEST SWAP1 POP SWAP4 SWAP3 POP POP POP JUMP JUMPDEST PUSH1 0x60 DUP3 SELFBALANCE LT ISZERO PUSH3 0x359 JUMPI PUSH1 0x40 MLOAD PUSH32 0x8C379A000000000000000000000000000000000000000000000000000000000 DUP2 MSTORE PUSH1 0x4 ADD PUSH3 0x350 SWAP1 PUSH3 0x8CB JUMP JUMPDEST PUSH1 0x40 MLOAD DUP1 SWAP2 SUB SWAP1 REVERT JUMPDEST PUSH1 0x0 DUP1 DUP7 PUSH20 0xFFFFFFFFFFFFFFFFFFFFFFFFFFFFFFFFFFFFFFFF AND DUP6 DUP8 PUSH1 0x40 MLOAD PUSH3 0x384 SWAP2 SWAP1 PUSH3 0x966 JUMP JUMPDEST PUSH1 0x0 PUSH1 0x40 MLOAD DUP1 DUP4 SUB DUP2 DUP6 DUP8 GAS CALL SWAP3 POP POP POP RETURNDATASIZE DUP1 PUSH1 0x0 DUP2 EQ PUSH3 0x3C3 JUMPI PUSH1 0x40 MLOAD SWAP2 POP PUSH1 0x1F NOT PUSH1 0x3F RETURNDATASIZE ADD AND DUP3 ADD PUSH1 0x40 MSTORE RETURNDATASIZE DUP3 MSTORE RETURNDATASIZE PUSH1 0x0 PUSH1 0x20 DUP5 ADD RETURNDATACOPY PUSH3 0x3C8 JUMP JUMPDEST PUSH1 0x60 SWAP2 POP JUMPDEST POP SWAP2 POP SWAP2 POP PUSH3 0x3E1 DUP8 DUP4 DUP4 DUP8 PUSH3 0x3ED PUSH1 0x20 SHL PUSH1 0x20 SHR JUMP JUMPDEST SWAP3 POP POP POP SWAP5 SWAP4 POP POP POP POP JUMP JUMPDEST PUSH1 0x60 DUP4 ISZERO PUSH3 0x45D JUMPI PUSH1 0x0 DUP4 MLOAD SUB PUSH3 0x454 JUMPI PUSH3 0x411 DUP6 PUSH3 0x478 PUSH1 0x20 SHL PUSH1 0x20 SHR JUMP JUMPDEST PUSH3 0x453 JUMPI PUSH1 0x40 MLOAD PUSH32 0x8C379A000000000000000000000000000000000000000000000000000000000 DUP2 MSTORE PUSH1 0x4 ADD PUSH3 0x44A SWAP1 PUSH3 0x9CF JUMP JUMPDEST PUSH1 0x40 MLOAD DUP1 SWAP2 SUB SWAP1 REVERT JUMPDEST JUMPDEST DUP3 SWAP1 POP PUSH3 0x470 JUMP JUMPDEST PUSH3 0x46F DUP4 DUP4 PUSH3 0x49B PUSH1 0x20 SHL PUSH1 0x20 SHR JUMP JUMPDEST JUMPDEST SWAP5 SWAP4 POP POP POP POP JUMP JUMPDEST PUSH1 0x0 DUP1 DUP3 PUSH20 0xFFFFFFFFFFFFFFFFFFFFFFFFFFFFFFFFFFFFFFFF AND EXTCODESIZE GT SWAP1 POP SWAP2 SWAP1 POP JUMP JUMPDEST PUSH1 0x0 DUP3 MLOAD GT ISZERO PUSH3 0x4AF JUMPI DUP2 MLOAD DUP1 DUP4 PUSH1 0x20 ADD REVERT JUMPDEST DUP1 PUSH1 0x40 MLOAD PUSH32 0x8C379A000000000000000000000000000000000000000000000000000000000 DUP2 MSTORE PUSH1 0x4 ADD PUSH3 0x4E5 SWAP2 SWAP1 PUSH3 0xA4E JUMP JUMPDEST PUSH1 0x40 MLOAD DUP1 SWAP2 SUB SWAP1 REVERT JUMPDEST PUSH1 0x0 DUP1 REVERT JUMPDEST PUSH1 0x0 PUSH20 0xFFFFFFFFFFFFFFFFFFFFFFFFFFFFFFFFFFFFFFFF DUP3 AND SWAP1 POP SWAP2 SWAP1 POP JUMP JUMPDEST PUSH1 0x0 PUSH3 0x520 DUP3 PUSH3 0x4F3 JUMP JUMPDEST SWAP1 POP SWAP2 SWAP1 POP JUMP JUMPDEST PUSH3 0x532 DUP2 PUSH3 0x513 JUMP JUMPDEST DUP2 EQ PUSH3 0x53E JUMPI PUSH1 0x0 DUP1 REVERT JUMPDEST POP JUMP JUMPDEST PUSH1 0x0 DUP2 MLOAD SWAP1 POP PUSH3 0x552 DUP2 PUSH3 0x527 JUMP JUMPDEST SWAP3 SWAP2 POP POP JUMP JUMPDEST PUSH1 0x0 DUP2 SWAP1 POP SWAP2 SWAP1 POP JUMP JUMPDEST PUSH3 0x56D DUP2 PUSH3 0x558 JUMP JUMPDEST DUP2 EQ PUSH3 0x579 JUMPI PUSH1 0x0 DUP1 REVERT JUMPDEST POP JUMP JUMPDEST PUSH1 0x0 DUP2 MLOAD SWAP1 POP PUSH3 0x58D DUP2 PUSH3 0x562 JUMP JUMPDEST SWAP3 SWAP2 POP POP JUMP JUMPDEST PUSH1 0x0 DUP1 PUSH1 0x40 DUP4 DUP6 SUB SLT ISZERO PUSH3 0x5AD JUMPI PUSH3 0x5AC PUSH3 0x4EE JUMP JUMPDEST JUMPDEST PUSH1 0x0 PUSH3 0x5BD DUP6 DUP3 DUP7 ADD PUSH3 0x541 JUMP JUMPDEST SWAP3 POP POP PUSH1 0x20 PUSH3 0x5D0 DUP6 DUP3 DUP7 ADD PUSH3 0x57C JUMP JUMPDEST SWAP2 POP POP SWAP3 POP SWAP3 SWAP1 POP JUMP JUMPDEST PUSH32 0x4E487B7100000000000000000000000000000000000000000000000000000000 PUSH1 0x0 MSTORE PUSH1 0x11 PUSH1 0x4 MSTORE PUSH1 0x24 PUSH1 0x0 REVERT JUMPDEST PUSH1 0x0 PUSH3 0x616 DUP3 PUSH3 0x558 JUMP JUMPDEST SWAP2 POP PUSH3 0x623 DUP4 PUSH3 0x558 JUMP JUMPDEST SWAP3 POP DUP3 DUP3 MUL PUSH3 0x633 DUP2 PUSH3 0x558 JUMP JUMPDEST SWAP2 POP DUP3 DUP3 DIV DUP5 EQ DUP4 ISZERO OR PUSH3 0x64D JUMPI PUSH3 0x64C PUSH3 0x5DA JUMP JUMPDEST JUMPDEST POP SWAP3 SWAP2 POP POP JUMP JUMPDEST PUSH3 0x65F DUP2 PUSH3 0x513 JUMP JUMPDEST DUP3 MSTORE POP POP JUMP JUMPDEST PUSH1 0x0 PUSH1 0x40 DUP3 ADD SWAP1 POP PUSH3 0x67C PUSH1 0x0 DUP4 ADD DUP6 PUSH3 0x654 JUMP JUMPDEST PUSH3 0x68B PUSH1 0x20 DUP4 ADD DUP5 PUSH3 0x654 JUMP JUMPDEST SWAP4 SWAP3 POP POP POP JUMP JUMPDEST PUSH1 0x0 PUSH1 0x20 DUP3 DUP5 SUB SLT ISZERO PUSH3 0x6AB JUMPI PUSH3 0x6AA PUSH3 0x4EE JUMP JUMPDEST JUMPDEST PUSH1 0x0 PUSH3 0x6BB DUP5 DUP3 DUP6 ADD PUSH3 0x57C JUMP JUMPDEST SWAP2 POP POP SWAP3 SWAP2 POP POP JUMP JUMPDEST PUSH1 0x0 PUSH3 0x6D1 DUP3 PUSH3 0x558 JUMP JUMPDEST SWAP2 POP PUSH3 0x6DE DUP4 PUSH3 0x558 JUMP JUMPDEST SWAP3 POP DUP3 DUP3 ADD SWAP1 POP DUP1 DUP3 GT ISZERO PUSH3 0x6F9 JUMPI PUSH3 0x6F8 PUSH3 0x5DA JUMP JUMPDEST JUMPDEST SWAP3 SWAP2 POP POP JUMP JUMPDEST PUSH3 0x70A DUP2 PUSH3 0x558 JUMP JUMPDEST DUP3 MSTORE POP POP JUMP JUMPDEST PUSH1 0x0 PUSH1 0x40 DUP3 ADD SWAP1 POP PUSH3 0x727 PUSH1 0x0 DUP4 ADD DUP6 PUSH3 0x654 JUMP JUMPDEST PUSH3 0x736 PUSH1 0x20 DUP4 ADD DUP5 PUSH3 0x6FF JUMP JUMPDEST SWAP4 SWAP3 POP POP POP JUMP JUMPDEST PUSH1 0x0 DUP2 ISZERO ISZERO SWAP1 POP SWAP2 SWAP1 POP JUMP JUMPDEST PUSH3 0x754 DUP2 PUSH3 0x73D JUMP JUMPDEST DUP2 EQ PUSH3 0x760 JUMPI PUSH1 0x0 DUP1 REVERT JUMPDEST POP JUMP JUMPDEST PUSH1 0x0 DUP2 MLOAD SWAP1 POP PUSH3 0x774 DUP2 PUSH3 0x749 JUMP JUMPDEST SWAP3 SWAP2 POP POP JUMP JUMPDEST PUSH1 0x0 PUSH1 0x20 DUP3 DUP5 SUB SLT ISZERO PUSH3 0x793 JUMPI PUSH3 0x792 PUSH3 0x4EE JUMP JUMPDEST JUMPDEST PUSH1 0x0 PUSH3 0x7A3 DUP5 DUP3 DUP6 ADD PUSH3 0x763 JUMP JUMPDEST SWAP2 POP POP SWAP3 SWAP2 POP POP JUMP JUMPDEST PUSH1 0x0 DUP3 DUP3 MSTORE PUSH1 0x20 DUP3 ADD SWAP1 POP SWAP3 SWAP2 POP POP JUMP JUMPDEST PUSH32 0x5361666545524332303A204552433230206F7065726174696F6E20646964206E PUSH1 0x0 DUP3 ADD MSTORE PUSH32 0x6F74207375636365656400000000000000000000000000000000000000000000 PUSH1 0x20 DUP3 ADD MSTORE POP JUMP JUMPDEST PUSH1 0x0 PUSH3 0x81B PUSH1 0x2A DUP4 PUSH3 0x7AC JUMP JUMPDEST SWAP2 POP PUSH3 0x828 DUP3 PUSH3 0x7BD JUMP JUMPDEST PUSH1 0x40 DUP3 ADD SWAP1 POP SWAP2 SWAP1 POP JUMP JUMPDEST PUSH1 0x0 PUSH1 0x20 DUP3 ADD SWAP1 POP DUP2 DUP2 SUB PUSH1 0x0 DUP4 ADD MSTORE PUSH3 0x84E DUP2 PUSH3 0x80C JUMP JUMPDEST SWAP1 POP SWAP2 SWAP1 POP JUMP JUMPDEST PUSH32 0x416464726573733A20696E73756666696369656E742062616C616E636520666F PUSH1 0x0 DUP3 ADD MSTORE PUSH32 0x722063616C6C0000000000000000000000000000000000000000000000000000 PUSH1 0x20 DUP3 ADD MSTORE POP JUMP JUMPDEST PUSH1 0x0 PUSH3 0x8B3 PUSH1 0x26 DUP4 PUSH3 0x7AC JUMP JUMPDEST SWAP2 POP PUSH3 0x8C0 DUP3 PUSH3 0x855 JUMP JUMPDEST PUSH1 0x40 DUP3 ADD SWAP1 POP SWAP2 SWAP1 POP JUMP JUMPDEST PUSH1 0x0 PUSH1 0x20 DUP3 ADD SWAP1 POP DUP2 DUP2 SUB PUSH1 0x0 DUP4 ADD MSTORE PUSH3 0x8E6 DUP2 PUSH3 0x8A4 JUMP JUMPDEST SWAP1 POP SWAP2 SWAP1 POP JUMP JUMPDEST PUSH1 0x0 DUP2 MLOAD SWAP1 POP SWAP2 SWAP1 POP JUMP JUMPDEST PUSH1 0x0 DUP2 SWAP1 POP SWAP3 SWAP2 POP POP JUMP JUMPDEST PUSH1 0x0 JUMPDEST DUP4 DUP2 LT ISZERO PUSH3 0x923 JUMPI DUP1 DUP3 ADD MLOAD DUP2 DUP5 ADD MSTORE PUSH1 0x20 DUP2 ADD SWAP1 POP PUSH3 0x906 JUMP JUMPDEST PUSH1 0x0 DUP5 DUP5 ADD MSTORE POP POP POP POP JUMP JUMPDEST PUSH1 0x0 PUSH3 0x93C DUP3 PUSH3 0x8ED JUMP JUMPDEST PUSH3 0x948 DUP2 DUP6 PUSH3 0x8F8 JUMP JUMPDEST SWAP4 POP PUSH3 0x95A DUP2 DUP6 PUSH1 0x20 DUP7 ADD PUSH3 0x903 JUMP JUMPDEST DUP1 DUP5 ADD SWAP2 POP POP SWAP3 SWAP2 POP POP JUMP JUMPDEST PUSH1 0x0 PUSH3 0x974 DUP3 DUP5 PUSH3 0x92F JUMP JUMPDEST SWAP2 POP DUP2 SWAP1 POP SWAP3 SWAP2 POP POP JUMP JUMPDEST PUSH32 0x416464726573733A2063616C6C20746F206E6F6E2D636F6E7472616374000000 PUSH1 0x0 DUP3 ADD MSTORE POP JUMP JUMPDEST PUSH1 0x0 PUSH3 0x9B7 PUSH1 0x1D DUP4 PUSH3 0x7AC JUMP JUMPDEST SWAP2 POP PUSH3 0x9C4 DUP3 PUSH3 0x97F JUMP JUMPDEST PUSH1 0x20 DUP3 ADD SWAP1 POP SWAP2 SWAP1 POP JUMP JUMPDEST PUSH1 0x0 PUSH1 0x20 DUP3 ADD SWAP1 POP DUP2 DUP2 SUB PUSH1 0x0 DUP4 ADD MSTORE PUSH3 0x9EA DUP2 PUSH3 0x9A8 JUMP JUMPDEST SWAP1 POP SWAP2 SWAP1 POP JUMP JUMPDEST PUSH1 0x0 DUP2 MLOAD SWAP1 POP SWAP2 SWAP1 POP JUMP JUMPDEST PUSH1 0x0 PUSH1 0x1F NOT PUSH1 0x1F DUP4 ADD AND SWAP1 POP SWAP2 SWAP1 POP JUMP JUMPDEST PUSH1 0x0 PUSH3 0xA1A DUP3 PUSH3 0x9F1 JUMP JUMPDEST PUSH3 0xA26 DUP2 DUP6 PUSH3 0x7AC JUMP JUMPDEST SWAP4 POP PUSH3 0xA38 DUP2 DUP6 PUSH1 0x20 DUP7 ADD PUSH3 0x903 JUMP JUMPDEST PUSH3 0xA43 DUP2 PUSH3 0x9FC JUMP JUMPDEST DUP5 ADD SWAP2 POP POP SWAP3 SWAP2 POP POP JUMP JUMPDEST PUSH1 0x0 PUSH1 0x20 DUP3 ADD SWAP1 POP DUP2 DUP2 SUB PUSH1 0x0 DUP4 ADD MSTORE PUSH3 0xA6A DUP2 DUP5 PUSH3 0xA0D JUMP JUMPDEST SWAP1 POP SWAP3 SWAP2 POP POP JUMP JUMPDEST PUSH2 0xD76 DUP1 PUSH3 0xA82 PUSH1 0x0 CODECOPY PUSH1 0x0 RETURN INVALID PUSH1 0x80 PUSH1 0x40 MSTORE PUSH1 0x4 CALLDATASIZE LT PUSH2 0x38 JUMPI PUSH1 0x0 CALLDATALOAD PUSH1 0xE0 SHR DUP1 PUSH4 0x60C7DC47 EQ PUSH2 0x44 JUMPI DUP1 PUSH4 0x73CF575A EQ PUSH2 0x6F JUMPI DUP1 PUSH4 0xA694FC3A EQ PUSH2 0x86 JUMPI PUSH2 0x3F JUMP JUMPDEST CALLDATASIZE PUSH2 0x3F JUMPI STOP JUMPDEST PUSH1 0x0 DUP1 REVERT JUMPDEST CALLVALUE DUP1 ISZERO PUSH2 0x50 JUMPI PUSH1 0x0 DUP1 REVERT JUMPDEST POP PUSH2 0x59 PUSH2 0xAF JUMP JUMPDEST PUSH1 0x40 MLOAD PUSH2 0x66 SWAP2 SWAP1 PUSH2 0x71E JUMP JUMPDEST PUSH1 0x40 MLOAD DUP1 SWAP2 SUB SWAP1 RETURN JUMPDEST CALLVALUE DUP1 ISZERO PUSH2 0x7B JUMPI PUSH1 0x0 DUP1 REVERT JUMPDEST POP PUSH2 0x84 PUSH2 0xB5 JUMP JUMPDEST STOP JUMPDEST CALLVALUE DUP1 ISZERO PUSH2 0x92 JUMPI PUSH1 0x0 DUP1 REVERT JUMPDEST POP PUSH2 0xAD PUSH1 0x4 DUP1 CALLDATASIZE SUB DUP2 ADD SWAP1 PUSH2 0xA8 SWAP2 SWAP1 PUSH2 0x76A JUMP JUMPDEST PUSH2 0x106 JUMP JUMPDEST STOP JUMPDEST PUSH1 0x1 SLOAD DUP2 JUMP JUMPDEST PUSH2 0x104 ADDRESS CALLER PUSH1 0x1 SLOAD PUSH1 0x0 DUP1 SLOAD SWAP1 PUSH2 0x100 EXP SWAP1 DIV PUSH20 0xFFFFFFFFFFFFFFFFFFFFFFFFFFFFFFFFFFFFFFFF AND PUSH20 0xFFFFFFFFFFFFFFFFFFFFFFFFFFFFFFFFFFFFFFFF AND PUSH2 0x400 SWAP1 SWAP4 SWAP3 SWAP2 SWAP1 PUSH4 0xFFFFFFFF AND JUMP JUMPDEST JUMP JUMPDEST PUSH1 0x0 DUP2 GT PUSH2 0x149 JUMPI PUSH1 0x40 MLOAD PUSH32 0x8C379A000000000000000000000000000000000000000000000000000000000 DUP2 MSTORE PUSH1 0x4 ADD PUSH2 0x140 SWAP1 PUSH2 0x7F4 JUMP JUMPDEST PUSH1 0x40 MLOAD DUP1 SWAP2 SUB SWAP1 REVERT JUMPDEST DUP1 PUSH1 0x0 DUP1 SLOAD SWAP1 PUSH2 0x100 EXP SWAP1 DIV PUSH20 0xFFFFFFFFFFFFFFFFFFFFFFFFFFFFFFFFFFFFFFFF AND PUSH20 0xFFFFFFFFFFFFFFFFFFFFFFFFFFFFFFFFFFFFFFFF AND PUSH4 0x70A08231 CALLER PUSH1 0x40 MLOAD DUP3 PUSH4 0xFFFFFFFF AND PUSH1 0xE0 SHL DUP2 MSTORE PUSH1 0x4 ADD PUSH2 0x1A3 SWAP2 SWAP1 PUSH2 0x855 JUMP JUMPDEST PUSH1 0x20 PUSH1 0x40 MLOAD DUP1 DUP4 SUB DUP2 DUP7 GAS STATICCALL ISZERO DUP1 ISZERO PUSH2 0x1C0 JUMPI RETURNDATASIZE PUSH1 0x0 DUP1 RETURNDATACOPY RETURNDATASIZE PUSH1 0x0 REVERT JUMPDEST POP POP POP POP PUSH1 0x40 MLOAD RETURNDATASIZE PUSH1 0x1F NOT PUSH1 0x1F DUP3 ADD AND DUP3 ADD DUP1 PUSH1 0x40 MSTORE POP DUP2 ADD SWAP1 PUSH2 0x1E4 SWAP2 SWAP1 PUSH2 0x885 JUMP JUMPDEST LT ISZERO PUSH2 0x225 JUMPI PUSH1 0x40 MLOAD PUSH32 0x8C379A000000000000000000000000000000000000000000000000000000000 DUP2 MSTORE PUSH1 0x4 ADD PUSH2 0x21C SWAP1 PUSH2 0x8FE JUMP JUMPDEST PUSH1 0x40 MLOAD DUP1 SWAP2 SUB SWAP1 REVERT JUMPDEST PUSH32 0x160FFCAA807F78C8B4983836E2396338D073E75695AC448AA0B5E4A75B210B1D CALLER ADDRESS PUSH8 0xDE0B6B3A7640000 DUP5 PUSH2 0x25C SWAP2 SWAP1 PUSH2 0x94D JUMP JUMPDEST PUSH1 0x40 MLOAD PUSH2 0x26B SWAP4 SWAP3 SWAP2 SWAP1 PUSH2 0x98F JUMP JUMPDEST PUSH1 0x40 MLOAD DUP1 SWAP2 SUB SWAP1 LOG1 PUSH2 0x2D3 CALLER ADDRESS PUSH8 0xDE0B6B3A7640000 DUP5 PUSH2 0x28C SWAP2 SWAP1 PUSH2 0x94D JUMP JUMPDEST PUSH1 0x0 DUP1 SLOAD SWAP1 PUSH2 0x100 EXP SWAP1 DIV PUSH20 0xFFFFFFFFFFFFFFFFFFFFFFFFFFFFFFFFFFFFFFFF AND PUSH20 0xFFFFFFFFFFFFFFFFFFFFFFFFFFFFFFFFFFFFFFFF AND PUSH2 0x400 SWAP1 SWAP4 SWAP3 SWAP2 SWAP1 PUSH4 0xFFFFFFFF AND JUMP JUMPDEST POP JUMP JUMPDEST PUSH1 0x0 DUP2 DUP5 PUSH20 0xFFFFFFFFFFFFFFFFFFFFFFFFFFFFFFFFFFFFFFFF AND PUSH4 0xDD62ED3E ADDRESS DUP7 PUSH1 0x40 MLOAD DUP4 PUSH4 0xFFFFFFFF AND PUSH1 0xE0 SHL DUP2 MSTORE PUSH1 0x4 ADD PUSH2 0x314 SWAP3 SWAP2 SWAP1 PUSH2 0x9C6 JUMP JUMPDEST PUSH1 0x20 PUSH1 0x40 MLOAD DUP1 DUP4 SUB DUP2 DUP7 GAS STATICCALL ISZERO DUP1 ISZERO PUSH2 0x331 JUMPI RETURNDATASIZE PUSH1 0x0 DUP1 RETURNDATACOPY RETURNDATASIZE PUSH1 0x0 REVERT JUMPDEST POP POP POP POP PUSH1 0x40 MLOAD RETURNDATASIZE PUSH1 0x1F NOT PUSH1 0x1F DUP3 ADD AND DUP3 ADD DUP1 PUSH1 0x40 MSTORE POP DUP2 ADD SWAP1 PUSH2 0x355 SWAP2 SWAP1 PUSH2 0x885 JUMP JUMPDEST PUSH2 0x35F SWAP2 SWAP1 PUSH2 0x9EF JUMP JUMPDEST SWAP1 POP PUSH2 0x3E2 DUP5 PUSH4 0x95EA7B3 PUSH1 0xE0 SHL DUP6 DUP5 PUSH1 0x40 MLOAD PUSH1 0x24 ADD PUSH2 0x380 SWAP3 SWAP2 SWAP1 PUSH2 0xA23 JUMP JUMPDEST PUSH1 0x40 MLOAD PUSH1 0x20 DUP2 DUP4 SUB SUB DUP2 MSTORE SWAP1 PUSH1 0x40 MSTORE SWAP1 PUSH28 0xFFFFFFFFFFFFFFFFFFFFFFFFFFFFFFFFFFFFFFFFFFFFFFFFFFFFFFFF NOT AND PUSH1 0x20 DUP3 ADD DUP1 MLOAD PUSH28 0xFFFFFFFFFFFFFFFFFFFFFFFFFFFFFFFFFFFFFFFFFFFFFFFFFFFFFFFF DUP4 DUP2 DUP4 AND OR DUP4 MSTORE POP POP POP POP PUSH2 0x489 JUMP JUMPDEST POP POP POP POP JUMP JUMPDEST PUSH1 0x60 PUSH2 0x3F7 DUP5 DUP5 PUSH1 0x0 DUP6 PUSH2 0x550 JUMP JUMPDEST SWAP1 POP SWAP4 SWAP3 POP POP POP JUMP JUMPDEST PUSH2 0x483 DUP5 PUSH4 0x23B872DD PUSH1 0xE0 SHL DUP6 DUP6 DUP6 PUSH1 0x40 MLOAD PUSH1 0x24 ADD PUSH2 0x421 SWAP4 SWAP3 SWAP2 SWAP1 PUSH2 0x98F JUMP JUMPDEST PUSH1 0x40 MLOAD PUSH1 0x20 DUP2 DUP4 SUB SUB DUP2 MSTORE SWAP1 PUSH1 0x40 MSTORE SWAP1 PUSH28 0xFFFFFFFFFFFFFFFFFFFFFFFFFFFFFFFFFFFFFFFFFFFFFFFFFFFFFFFF NOT AND PUSH1 0x20 DUP3 ADD DUP1 MLOAD PUSH28 0xFFFFFFFFFFFFFFFFFFFFFFFFFFFFFFFFFFFFFFFFFFFFFFFFFFFFFFFF DUP4 DUP2 DUP4 AND OR DUP4 MSTORE POP POP POP POP PUSH2 0x489 JUMP JUMPDEST POP POP POP POP JUMP JUMPDEST PUSH1 0x0 PUSH2 0x4EB DUP3 PUSH1 0x40 MLOAD DUP1 PUSH1 0x40 ADD PUSH1 0x40 MSTORE DUP1 PUSH1 0x20 DUP2 MSTORE PUSH1 0x20 ADD PUSH32 0x5361666545524332303A206C6F772D6C6576656C2063616C6C206661696C6564 DUP2 MSTORE POP DUP6 PUSH20 0xFFFFFFFFFFFFFFFFFFFFFFFFFFFFFFFFFFFFFFFF AND PUSH2 0x3E8 SWAP1 SWAP3 SWAP2 SWAP1 PUSH4 0xFFFFFFFF AND JUMP JUMPDEST SWAP1 POP PUSH1 0x0 DUP2 MLOAD GT ISZERO PUSH2 0x54B JUMPI DUP1 DUP1 PUSH1 0x20 ADD SWAP1 MLOAD DUP2 ADD SWAP1 PUSH2 0x50B SWAP2 SWAP1 PUSH2 0xA84 JUMP JUMPDEST PUSH2 0x54A JUMPI PUSH1 0x40 MLOAD PUSH32 0x8C379A000000000000000000000000000000000000000000000000000000000 DUP2 MSTORE PUSH1 0x4 ADD PUSH2 0x541 SWAP1 PUSH2 0xB23 JUMP JUMPDEST PUSH1 0x40 MLOAD DUP1 SWAP2 SUB SWAP1 REVERT JUMPDEST JUMPDEST POP POP POP JUMP JUMPDEST PUSH1 0x60 DUP3 SELFBALANCE LT ISZERO PUSH2 0x595 JUMPI PUSH1 0x40 MLOAD PUSH32 0x8C379A000000000000000000000000000000000000000000000000000000000 DUP2 MSTORE PUSH1 0x4 ADD PUSH2 0x58C SWAP1 PUSH2 0xBB5 JUMP JUMPDEST PUSH1 0x40 MLOAD DUP1 SWAP2 SUB SWAP1 REVERT JUMPDEST PUSH1 0x0 DUP1 DUP7 PUSH20 0xFFFFFFFFFFFFFFFFFFFFFFFFFFFFFFFFFFFFFFFF AND DUP6 DUP8 PUSH1 0x40 MLOAD PUSH2 0x5BE SWAP2 SWAP1 PUSH2 0xC46 JUMP JUMPDEST PUSH1 0x0 PUSH1 0x40 MLOAD DUP1 DUP4 SUB DUP2 DUP6 DUP8 GAS CALL SWAP3 POP POP POP RETURNDATASIZE DUP1 PUSH1 0x0 DUP2 EQ PUSH2 0x5FB JUMPI PUSH1 0x40 MLOAD SWAP2 POP PUSH1 0x1F NOT PUSH1 0x3F RETURNDATASIZE ADD AND DUP3 ADD PUSH1 0x40 MSTORE RETURNDATASIZE DUP3 MSTORE RETURNDATASIZE PUSH1 0x0 PUSH1 0x20 DUP5 ADD RETURNDATACOPY PUSH2 0x600 JUMP JUMPDEST PUSH1 0x60 SWAP2 POP JUMPDEST POP SWAP2 POP SWAP2 POP PUSH2 0x611 DUP8 DUP4 DUP4 DUP8 PUSH2 0x61D JUMP JUMPDEST SWAP3 POP POP POP SWAP5 SWAP4 POP POP POP POP JUMP JUMPDEST PUSH1 0x60 DUP4 ISZERO PUSH2 0x67F JUMPI PUSH1 0x0 DUP4 MLOAD SUB PUSH2 0x677 JUMPI PUSH2 0x637 DUP6 PUSH2 0x692 JUMP JUMPDEST PUSH2 0x676 JUMPI PUSH1 0x40 MLOAD PUSH32 0x8C379A000000000000000000000000000000000000000000000000000000000 DUP2 MSTORE PUSH1 0x4 ADD PUSH2 0x66D SWAP1 PUSH2 0xCA9 JUMP JUMPDEST PUSH1 0x40 MLOAD DUP1 SWAP2 SUB SWAP1 REVERT JUMPDEST JUMPDEST DUP3 SWAP1 POP PUSH2 0x68A JUMP JUMPDEST PUSH2 0x689 DUP4 DUP4 PUSH2 0x6B5 JUMP JUMPDEST JUMPDEST SWAP5 SWAP4 POP POP POP POP JUMP JUMPDEST PUSH1 0x0 DUP1 DUP3 PUSH20 0xFFFFFFFFFFFFFFFFFFFFFFFFFFFFFFFFFFFFFFFF AND EXTCODESIZE GT SWAP1 POP SWAP2 SWAP1 POP JUMP JUMPDEST PUSH1 0x0 DUP3 MLOAD GT ISZERO PUSH2 0x6C8 JUMPI DUP2 MLOAD DUP1 DUP4 PUSH1 0x20 ADD REVERT JUMPDEST DUP1 PUSH1 0x40 MLOAD PUSH32 0x8C379A000000000000000000000000000000000000000000000000000000000 DUP2 MSTORE PUSH1 0x4 ADD PUSH2 0x6FC SWAP2 SWAP1 PUSH2 0xD1E JUMP JUMPDEST PUSH1 0x40 MLOAD DUP1 SWAP2 SUB SWAP1 REVERT JUMPDEST PUSH1 0x0 DUP2 SWAP1 POP SWAP2 SWAP1 POP JUMP JUMPDEST PUSH2 0x718 DUP2 PUSH2 0x705 JUMP JUMPDEST DUP3 MSTORE POP POP JUMP JUMPDEST PUSH1 0x0 PUSH1 0x20 DUP3 ADD SWAP1 POP PUSH2 0x733 PUSH1 0x0 DUP4 ADD DUP5 PUSH2 0x70F JUMP JUMPDEST SWAP3 SWAP2 POP POP JUMP JUMPDEST PUSH1 0x0 DUP1 REVERT JUMPDEST PUSH2 0x747 DUP2 PUSH2 0x705 JUMP JUMPDEST DUP2 EQ PUSH2 0x752 JUMPI PUSH1 0x0 DUP1 REVERT JUMPDEST POP JUMP JUMPDEST PUSH1 0x0 DUP2 CALLDATALOAD SWAP1 POP PUSH2 0x764 DUP2 PUSH2 0x73E JUMP JUMPDEST SWAP3 SWAP2 POP POP JUMP JUMPDEST PUSH1 0x0 PUSH1 0x20 DUP3 DUP5 SUB SLT ISZERO PUSH2 0x780 JUMPI PUSH2 0x77F PUSH2 0x739 JUMP JUMPDEST JUMPDEST PUSH1 0x0 PUSH2 0x78E DUP5 DUP3 DUP6 ADD PUSH2 0x755 JUMP JUMPDEST SWAP2 POP POP SWAP3 SWAP2 POP POP JUMP JUMPDEST PUSH1 0x0 DUP3 DUP3 MSTORE PUSH1 0x20 DUP3 ADD SWAP1 POP SWAP3 SWAP2 POP POP JUMP JUMPDEST PUSH32 0x616D6F756E74206E6F74207A65726F0000000000000000000000000000000000 PUSH1 0x0 DUP3 ADD MSTORE POP JUMP JUMPDEST PUSH1 0x0 PUSH2 0x7DE PUSH1 0xF DUP4 PUSH2 0x797 JUMP JUMPDEST SWAP2 POP PUSH2 0x7E9 DUP3 PUSH2 0x7A8 JUMP JUMPDEST PUSH1 0x20 DUP3 ADD SWAP1 POP SWAP2 SWAP1 POP JUMP JUMPDEST PUSH1 0x0 PUSH1 0x20 DUP3 ADD SWAP1 POP DUP2 DUP2 SUB PUSH1 0x0 DUP4 ADD MSTORE PUSH2 0x80D DUP2 PUSH2 0x7D1 JUMP JUMPDEST SWAP1 POP SWAP2 SWAP1 POP JUMP JUMPDEST PUSH1 0x0 PUSH20 0xFFFFFFFFFFFFFFFFFFFFFFFFFFFFFFFFFFFFFFFF DUP3 AND SWAP1 POP SWAP2 SWAP1 POP JUMP JUMPDEST PUSH1 0x0 PUSH2 0x83F DUP3 PUSH2 0x814 JUMP JUMPDEST SWAP1 POP SWAP2 SWAP1 POP JUMP JUMPDEST PUSH2 0x84F DUP2 PUSH2 0x834 JUMP JUMPDEST DUP3 MSTORE POP POP JUMP JUMPDEST PUSH1 0x0 PUSH1 0x20 DUP3 ADD SWAP1 POP PUSH2 0x86A PUSH1 0x0 DUP4 ADD DUP5 PUSH2 0x846 JUMP JUMPDEST SWAP3 SWAP2 POP POP JUMP JUMPDEST PUSH1 0x0 DUP2 MLOAD SWAP1 POP PUSH2 0x87F DUP2 PUSH2 0x73E JUMP JUMPDEST SWAP3 SWAP2 POP POP JUMP JUMPDEST PUSH1 0x0 PUSH1 0x20 DUP3 DUP5 SUB SLT ISZERO PUSH2 0x89B JUMPI PUSH2 0x89A PUSH2 0x739 JUMP JUMPDEST JUMPDEST PUSH1 0x0 PUSH2 0x8A9 DUP5 DUP3 DUP6 ADD PUSH2 0x870 JUMP JUMPDEST SWAP2 POP POP SWAP3 SWAP2 POP POP JUMP JUMPDEST PUSH32 0x7374616B696E67206661696C6400000000000000000000000000000000000000 PUSH1 0x0 DUP3 ADD MSTORE POP JUMP JUMPDEST PUSH1 0x0 PUSH2 0x8E8 PUSH1 0xD DUP4 PUSH2 0x797 JUMP JUMPDEST SWAP2 POP PUSH2 0x8F3 DUP3 PUSH2 0x8B2 JUMP JUMPDEST PUSH1 0x20 DUP3 ADD SWAP1 POP SWAP2 SWAP1 POP JUMP JUMPDEST PUSH1 0x0 PUSH1 0x20 DUP3 ADD SWAP1 POP DUP2 DUP2 SUB PUSH1 0x0 DUP4 ADD MSTORE PUSH2 0x917 DUP2 PUSH2 0x8DB JUMP JUMPDEST SWAP1 POP SWAP2 SWAP1 POP JUMP JUMPDEST PUSH32 0x4E487B7100000000000000000000000000000000000000000000000000000000 PUSH1 0x0 MSTORE PUSH1 0x11 PUSH1 0x4 MSTORE PUSH1 0x24 PUSH1 0x0 REVERT JUMPDEST PUSH1 0x0 PUSH2 0x958 DUP3 PUSH2 0x705 JUMP JUMPDEST SWAP2 POP PUSH2 0x963 DUP4 PUSH2 0x705 JUMP JUMPDEST SWAP3 POP DUP3 DUP3 MUL PUSH2 0x971 DUP2 PUSH2 0x705 JUMP JUMPDEST SWAP2 POP DUP3 DUP3 DIV DUP5 EQ DUP4 ISZERO OR PUSH2 0x988 JUMPI PUSH2 0x987 PUSH2 0x91E JUMP JUMPDEST JUMPDEST POP SWAP3 SWAP2 POP POP JUMP JUMPDEST PUSH1 0x0 PUSH1 0x60 DUP3 ADD SWAP1 POP PUSH2 0x9A4 PUSH1 0x0 DUP4 ADD DUP7 PUSH2 0x846 JUMP JUMPDEST PUSH2 0x9B1 PUSH1 0x20 DUP4 ADD DUP6 PUSH2 0x846 JUMP JUMPDEST PUSH2 0x9BE PUSH1 0x40 DUP4 ADD DUP5 PUSH2 0x70F JUMP JUMPDEST SWAP5 SWAP4 POP POP POP POP JUMP JUMPDEST PUSH1 0x0 PUSH1 0x40 DUP3 ADD SWAP1 POP PUSH2 0x9DB PUSH1 0x0 DUP4 ADD DUP6 PUSH2 0x846 JUMP JUMPDEST PUSH2 0x9E8 PUSH1 0x20 DUP4 ADD DUP5 PUSH2 0x846 JUMP JUMPDEST SWAP4 SWAP3 POP POP POP JUMP JUMPDEST PUSH1 0x0 PUSH2 0x9FA DUP3 PUSH2 0x705 JUMP JUMPDEST SWAP2 POP PUSH2 0xA05 DUP4 PUSH2 0x705 JUMP JUMPDEST SWAP3 POP DUP3 DUP3 ADD SWAP1 POP DUP1 DUP3 GT ISZERO PUSH2 0xA1D JUMPI PUSH2 0xA1C PUSH2 0x91E JUMP JUMPDEST JUMPDEST SWAP3 SWAP2 POP POP JUMP JUMPDEST PUSH1 0x0 PUSH1 0x40 DUP3 ADD SWAP1 POP PUSH2 0xA38 PUSH1 0x0 DUP4 ADD DUP6 PUSH2 0x846 JUMP JUMPDEST PUSH2 0xA45 PUSH1 0x20 DUP4 ADD DUP5 PUSH2 0x70F JUMP JUMPDEST SWAP4 SWAP3 POP POP POP JUMP JUMPDEST PUSH1 0x0 DUP2 ISZERO ISZERO SWAP1 POP SWAP2 SWAP1 POP JUMP JUMPDEST PUSH2 0xA61 DUP2 PUSH2 0xA4C JUMP JUMPDEST DUP2 EQ PUSH2 0xA6C JUMPI PUSH1 0x0 DUP1 REVERT JUMPDEST POP JUMP JUMPDEST PUSH1 0x0 DUP2 MLOAD SWAP1 POP PUSH2 0xA7E DUP2 PUSH2 0xA58 JUMP JUMPDEST SWAP3 SWAP2 POP POP JUMP JUMPDEST PUSH1 0x0 PUSH1 0x20 DUP3 DUP5 SUB SLT ISZERO PUSH2 0xA9A JUMPI PUSH2 0xA99 PUSH2 0x739 JUMP JUMPDEST JUMPDEST PUSH1 0x0 PUSH2 0xAA8 DUP5 DUP3 DUP6 ADD PUSH2 0xA6F JUMP JUMPDEST SWAP2 POP POP SWAP3 SWAP2 POP POP JUMP JUMPDEST PUSH32 0x5361666545524332303A204552433230206F7065726174696F6E20646964206E PUSH1 0x0 DUP3 ADD MSTORE PUSH32 0x6F74207375636365656400000000000000000000000000000000000000000000 PUSH1 0x20 DUP3 ADD MSTORE POP JUMP JUMPDEST PUSH1 0x0 PUSH2 0xB0D PUSH1 0x2A DUP4 PUSH2 0x797 JUMP JUMPDEST SWAP2 POP PUSH2 0xB18 DUP3 PUSH2 0xAB1 JUMP JUMPDEST PUSH1 0x40 DUP3 ADD SWAP1 POP SWAP2 SWAP1 POP JUMP JUMPDEST PUSH1 0x0 PUSH1 0x20 DUP3 ADD SWAP1 POP DUP2 DUP2 SUB PUSH1 0x0 DUP4 ADD MSTORE PUSH2 0xB3C DUP2 PUSH2 0xB00 JUMP JUMPDEST SWAP1 POP SWAP2 SWAP1 POP JUMP JUMPDEST PUSH32 0x416464726573733A20696E73756666696369656E742062616C616E636520666F PUSH1 0x0 DUP3 ADD MSTORE PUSH32 0x722063616C6C0000000000000000000000000000000000000000000000000000 PUSH1 0x20 DUP3 ADD MSTORE POP JUMP JUMPDEST PUSH1 0x0 PUSH2 0xB9F PUSH1 0x26 DUP4 PUSH2 0x797 JUMP JUMPDEST SWAP2 POP PUSH2 0xBAA DUP3 PUSH2 0xB43 JUMP JUMPDEST PUSH1 0x40 DUP3 ADD SWAP1 POP SWAP2 SWAP1 POP JUMP JUMPDEST PUSH1 0x0 PUSH1 0x20 DUP3 ADD SWAP1 POP DUP2 DUP2 SUB PUSH1 0x0 DUP4 ADD MSTORE PUSH2 0xBCE DUP2 PUSH2 0xB92 JUMP JUMPDEST SWAP1 POP SWAP2 SWAP1 POP JUMP JUMPDEST PUSH1 0x0 DUP2 MLOAD SWAP1 POP SWAP2 SWAP1 POP JUMP JUMPDEST PUSH1 0x0 DUP2 SWAP1 POP SWAP3 SWAP2 POP POP JUMP JUMPDEST PUSH1 0x0 JUMPDEST DUP4 DUP2 LT ISZERO PUSH2 0xC09 JUMPI DUP1 DUP3 ADD MLOAD DUP2 DUP5 ADD MSTORE PUSH1 0x20 DUP2 ADD SWAP1 POP PUSH2 0xBEE JUMP JUMPDEST PUSH1 0x0 DUP5 DUP5 ADD MSTORE POP POP POP POP JUMP JUMPDEST PUSH1 0x0 PUSH2 0xC20 DUP3 PUSH2 0xBD5 JUMP JUMPDEST PUSH2 0xC2A DUP2 DUP6 PUSH2 0xBE0 JUMP JUMPDEST SWAP4 POP PUSH2 0xC3A DUP2 DUP6 PUSH1 0x20 DUP7 ADD PUSH2 0xBEB JUMP JUMPDEST DUP1 DUP5 ADD SWAP2 POP POP SWAP3 SWAP2 POP POP JUMP JUMPDEST PUSH1 0x0 PUSH2 0xC52 DUP3 DUP5 PUSH2 0xC15 JUMP JUMPDEST SWAP2 POP DUP2 SWAP1 POP SWAP3 SWAP2 POP POP JUMP JUMPDEST PUSH32 0x416464726573733A2063616C6C20746F206E6F6E2D636F6E7472616374000000 PUSH1 0x0 DUP3 ADD MSTORE POP JUMP JUMPDEST PUSH1 0x0 PUSH2 0xC93 PUSH1 0x1D DUP4 PUSH2 0x797 JUMP JUMPDEST SWAP2 POP PUSH2 0xC9E DUP3 PUSH2 0xC5D JUMP JUMPDEST PUSH1 0x20 DUP3 ADD SWAP1 POP SWAP2 SWAP1 POP JUMP JUMPDEST PUSH1 0x0 PUSH1 0x20 DUP3 ADD SWAP1 POP DUP2 DUP2 SUB PUSH1 0x0 DUP4 ADD MSTORE PUSH2 0xCC2 DUP2 PUSH2 0xC86 JUMP JUMPDEST SWAP1 POP SWAP2 SWAP1 POP JUMP JUMPDEST PUSH1 0x0 DUP2 MLOAD SWAP1 POP SWAP2 SWAP1 POP JUMP JUMPDEST PUSH1 0x0 PUSH1 0x1F NOT PUSH1 0x1F DUP4 ADD AND SWAP1 POP SWAP2 SWAP1 POP JUMP JUMPDEST PUSH1 0x0 PUSH2 0xCF0 DUP3 PUSH2 0xCC9 JUMP JUMPDEST PUSH2 0xCFA DUP2 DUP6 PUSH2 0x797 JUMP JUMPDEST SWAP4 POP PUSH2 0xD0A DUP2 DUP6 PUSH1 0x20 DUP7 ADD PUSH2 0xBEB JUMP JUMPDEST PUSH2 0xD13 DUP2 PUSH2 0xCD4 JUMP JUMPDEST DUP5 ADD SWAP2 POP POP SWAP3 SWAP2 POP POP JUMP JUMPDEST PUSH1 0x0 PUSH1 0x20 DUP3 ADD SWAP1 POP DUP2 DUP2 SUB PUSH1 0x0 DUP4 ADD MSTORE PUSH2 0xD38 DUP2 DUP5 PUSH2 0xCE5 JUMP JUMPDEST SWAP1 POP SWAP3 SWAP2 POP POP JUMP INVALID LOG2 PUSH5 0x6970667358 0x22 SLT KECCAK256 0x5F 0xD5 OR 0xC4 SWAP14 0x24 0xB4 SWAP1 MSTORE 0xFC PUSH6 0x49D8FF041FF3 CREATE BALANCE 0x4D 0xAB 0x2A NUMBER 0xDB 0xF7 0xE3 CALLVALUE LOG1 BYTE 0xDD RETURNDATACOPY 0xFC PUSH5 0x736F6C6343 STOP ADDMOD GT STOP CALLER "
				},
				"gasEstimates": {
					"creation": {
						"codeDepositCost": "689200",
						"executionCost": "infinite",
						"totalCost": "infinite"
					},
					"external": {
						"stake(uint256)": "infinite",
						"stakeAmount()": "2407",
						"unStake()": "infinite"
					}
				},
				"methodIdentifiers": {
					"stake(uint256)": "a694fc3a",
					"stakeAmount()": "60c7dc47",
					"unStake()": "73cf575a"
				}
			},
			"storageLayout": {
				"storage": [
					{
						"astId": 735,
						"contract": "contracts/stake.sol:Stake",
						"label": "token",
						"offset": 0,
						"slot": "0",
						"type": "t_contract(IERC20)77"
					},
					{
						"astId": 737,
						"contract": "contracts/stake.sol:Stake",
						"label": "stakeAmount",
						"offset": 0,
						"slot": "1",
						"type": "t_uint256"
					}
				],
				"types": {
					"t_contract(IERC20)77": {
						"encoding": "inplace",
						"label": "contract IERC20",
						"numberOfBytes": "20"
					},
					"t_uint256": {
						"encoding": "inplace",
						"label": "uint256",
						"numberOfBytes": "32"
					}
				}
			},
			"userdoc": {
				"kind": "user",
				"methods": {},
				"version": 1
			}
		}
	}
}